{
  "contractName": "VotingSystem",
  "abi": [
    {
      "inputs": [],
      "stateMutability": "nonpayable",
      "type": "constructor"
    },
    {
      "anonymous": false,
      "inputs": [
        {
          "indexed": true,
          "internalType": "uint256",
          "name": "eventId",
          "type": "uint256"
        },
        {
          "indexed": false,
          "internalType": "string",
          "name": "eventName",
          "type": "string"
        }
      ],
      "name": "CandidateAdded",
      "type": "event"
    },
    {
      "anonymous": false,
      "inputs": [
        {
          "indexed": true,
          "internalType": "uint256",
          "name": "categoryId",
          "type": "uint256"
        },
        {
          "indexed": false,
          "internalType": "string",
          "name": "categoryName",
          "type": "string"
        }
      ],
      "name": "CategoryAdded",
      "type": "event"
    },
    {
      "anonymous": false,
      "inputs": [
        {
          "indexed": true,
          "internalType": "uint256",
          "name": "eventId",
          "type": "uint256"
        },
        {
          "indexed": false,
          "internalType": "string",
          "name": "eventName",
          "type": "string"
        }
      ],
      "name": "EventAdded",
      "type": "event"
    },
    {
      "anonymous": false,
      "inputs": [
        {
          "indexed": true,
          "internalType": "string",
          "name": "_voterKey",
          "type": "string"
        },
        {
          "indexed": true,
          "internalType": "string",
          "name": "categoryEvent",
          "type": "string"
        },
        {
          "indexed": true,
          "internalType": "uint256",
          "name": "candidate",
          "type": "uint256"
        }
      ],
      "name": "VoteEvent",
      "type": "event"
    },
    {
      "anonymous": false,
      "inputs": [
        {
          "indexed": true,
          "internalType": "uint256",
          "name": "voterId",
          "type": "uint256"
        },
        {
          "indexed": false,
          "internalType": "string",
          "name": "voter_key",
          "type": "string"
        }
      ],
      "name": "VoterAdded",
      "type": "event"
    },
    {
      "inputs": [],
      "name": "owner",
      "outputs": [
        {
          "internalType": "address",
          "name": "",
          "type": "address"
        }
      ],
      "stateMutability": "view",
      "type": "function"
    },
    {
      "inputs": [
        {
          "internalType": "uint256",
          "name": "",
          "type": "uint256"
        }
      ],
      "name": "voteEvents",
      "outputs": [
        {
          "internalType": "uint256",
          "name": "id",
          "type": "uint256"
        },
        {
          "internalType": "string",
          "name": "voterKey",
          "type": "string"
        },
        {
          "internalType": "uint256",
          "name": "categoryId",
          "type": "uint256"
        },
        {
          "internalType": "uint256",
          "name": "eventId",
          "type": "uint256"
        },
        {
          "internalType": "uint256",
          "name": "votedCandidateId",
          "type": "uint256"
        },
        {
          "internalType": "bool",
          "name": "voted",
          "type": "bool"
        }
      ],
      "stateMutability": "view",
      "type": "function"
    },
    {
      "inputs": [
        {
          "internalType": "uint256",
          "name": "",
          "type": "uint256"
        }
      ],
      "name": "voters",
      "outputs": [
        {
          "internalType": "uint256",
          "name": "id",
          "type": "uint256"
        },
        {
          "internalType": "string",
          "name": "key",
          "type": "string"
        },
        {
          "internalType": "string",
          "name": "email",
          "type": "string"
        },
        {
          "internalType": "bytes32",
          "name": "password",
          "type": "bytes32"
        },
        {
          "internalType": "string",
          "name": "role",
          "type": "string"
        },
        {
          "internalType": "uint256",
          "name": "status",
          "type": "uint256"
        },
        {
          "internalType": "string",
          "name": "token",
          "type": "string"
        }
      ],
      "stateMutability": "view",
      "type": "function"
    },
    {
      "inputs": [
        {
          "internalType": "string",
          "name": "_key",
          "type": "string"
        },
        {
          "internalType": "string",
          "name": "_email",
          "type": "string"
        },
        {
          "internalType": "string",
          "name": "_password",
          "type": "string"
        },
        {
          "internalType": "string",
          "name": "_role",
          "type": "string"
        },
        {
          "internalType": "string",
          "name": "_token",
          "type": "string"
        }
      ],
      "name": "addVoter",
      "outputs": [],
      "stateMutability": "nonpayable",
      "type": "function"
    },
    {
      "inputs": [
        {
          "internalType": "string",
          "name": "_email",
          "type": "string"
        },
        {
          "internalType": "string",
          "name": "_password",
          "type": "string"
        }
      ],
      "name": "loginVoter",
      "outputs": [
        {
          "components": [
            {
              "internalType": "uint256",
              "name": "id",
              "type": "uint256"
            },
            {
              "internalType": "string",
              "name": "key",
              "type": "string"
            },
            {
              "internalType": "string",
              "name": "email",
              "type": "string"
            },
            {
              "internalType": "bytes32",
              "name": "password",
              "type": "bytes32"
            },
            {
              "internalType": "string",
              "name": "role",
              "type": "string"
            },
            {
              "internalType": "uint256",
              "name": "status",
              "type": "uint256"
            },
            {
              "internalType": "string",
              "name": "token",
              "type": "string"
            }
          ],
          "internalType": "struct VotingSystem.Voter",
          "name": "",
          "type": "tuple"
        }
      ],
      "stateMutability": "view",
      "type": "function"
    },
    {
      "inputs": [
        {
          "internalType": "string",
          "name": "_email",
          "type": "string"
        },
        {
          "internalType": "string",
          "name": "_password",
          "type": "string"
        }
      ],
      "name": "getVoterByEmailPassword",
      "outputs": [
        {
          "components": [
            {
              "internalType": "uint256",
              "name": "id",
              "type": "uint256"
            },
            {
              "internalType": "string",
              "name": "key",
              "type": "string"
            },
            {
              "internalType": "string",
              "name": "email",
              "type": "string"
            },
            {
              "internalType": "bytes32",
              "name": "password",
              "type": "bytes32"
            },
            {
              "internalType": "string",
              "name": "role",
              "type": "string"
            },
            {
              "internalType": "uint256",
              "name": "status",
              "type": "uint256"
            },
            {
              "internalType": "string",
              "name": "token",
              "type": "string"
            }
          ],
          "internalType": "struct VotingSystem.Voter",
          "name": "",
          "type": "tuple"
        }
      ],
      "stateMutability": "view",
      "type": "function"
    },
    {
      "inputs": [
        {
          "internalType": "uint256",
          "name": "_voterId",
          "type": "uint256"
        }
      ],
      "name": "getVoterEmailById",
      "outputs": [
        {
          "internalType": "string",
          "name": "",
          "type": "string"
        }
      ],
      "stateMutability": "view",
      "type": "function"
    },
    {
      "inputs": [
        {
          "internalType": "string",
          "name": "_key",
          "type": "string"
        },
        {
          "internalType": "string",
          "name": "_password",
          "type": "string"
        }
      ],
      "name": "updateVoterPassword",
      "outputs": [],
      "stateMutability": "nonpayable",
      "type": "function"
    },
    {
      "inputs": [
        {
          "internalType": "string",
          "name": "_token",
          "type": "string"
        }
      ],
      "name": "verifyVoterAccount",
      "outputs": [
        {
          "internalType": "bool",
          "name": "",
          "type": "bool"
        }
      ],
      "stateMutability": "nonpayable",
      "type": "function"
    },
    {
      "inputs": [
        {
          "internalType": "string",
          "name": "_email",
          "type": "string"
        },
        {
          "internalType": "string",
          "name": "_password",
          "type": "string"
        }
      ],
      "name": "getVoterStatus",
      "outputs": [
        {
          "internalType": "uint256",
          "name": "status",
          "type": "uint256"
        }
      ],
      "stateMutability": "view",
      "type": "function"
    },
    {
      "inputs": [
        {
          "internalType": "string",
          "name": "_email",
          "type": "string"
        },
        {
          "internalType": "string",
          "name": "_password",
          "type": "string"
        }
      ],
      "name": "checkVoterEmailPassword",
      "outputs": [
        {
          "internalType": "bool",
          "name": "foundVoter",
          "type": "bool"
        }
      ],
      "stateMutability": "view",
      "type": "function"
    },
    {
      "inputs": [
        {
          "internalType": "string",
          "name": "_key",
          "type": "string"
        }
      ],
      "name": "isVoterExist",
      "outputs": [
        {
          "internalType": "bool",
          "name": "",
          "type": "bool"
        }
      ],
      "stateMutability": "view",
      "type": "function"
    },
    {
      "inputs": [],
      "name": "getAllVoter",
      "outputs": [
        {
          "components": [
            {
              "internalType": "uint256",
              "name": "id",
              "type": "uint256"
            },
            {
              "internalType": "string",
              "name": "key",
              "type": "string"
            },
            {
              "internalType": "string",
              "name": "email",
              "type": "string"
            },
            {
              "internalType": "bytes32",
              "name": "password",
              "type": "bytes32"
            },
            {
              "internalType": "string",
              "name": "role",
              "type": "string"
            },
            {
              "internalType": "uint256",
              "name": "status",
              "type": "uint256"
            },
            {
              "internalType": "string",
              "name": "token",
              "type": "string"
            }
          ],
          "internalType": "struct VotingSystem.Voter[]",
          "name": "",
          "type": "tuple[]"
        }
      ],
      "stateMutability": "view",
      "type": "function"
    },
    {
      "inputs": [
        {
          "internalType": "uint256",
          "name": "_id",
          "type": "uint256"
        },
        {
          "internalType": "uint256",
          "name": "_status",
          "type": "uint256"
        }
      ],
      "name": "editUserStatus",
      "outputs": [],
      "stateMutability": "nonpayable",
      "type": "function"
    },
    {
      "inputs": [
        {
          "internalType": "string",
          "name": "_email",
          "type": "string"
        },
        {
          "internalType": "string",
          "name": "_newToken",
          "type": "string"
        }
      ],
      "name": "updateVoterTokenByEmail",
      "outputs": [],
      "stateMutability": "nonpayable",
      "type": "function"
    },
    {
      "inputs": [
        {
          "internalType": "string",
          "name": "_categoryName",
          "type": "string"
        }
      ],
      "name": "addCategory",
      "outputs": [],
      "stateMutability": "nonpayable",
      "type": "function"
    },
    {
      "inputs": [
        {
          "internalType": "uint256",
          "name": "_categoryId",
          "type": "uint256"
        },
        {
          "internalType": "string",
          "name": "_categoryName",
          "type": "string"
        }
      ],
      "name": "updateCategory",
      "outputs": [],
      "stateMutability": "nonpayable",
      "type": "function"
    },
    {
      "inputs": [
        {
          "internalType": "uint256",
          "name": "_categoryId",
          "type": "uint256"
        }
      ],
      "name": "deleteCategory",
      "outputs": [],
      "stateMutability": "nonpayable",
      "type": "function"
    },
    {
      "inputs": [
        {
          "internalType": "string",
          "name": "_userKey",
          "type": "string"
        }
      ],
      "name": "getAllVotedHistory",
      "outputs": [
        {
          "components": [
            {
              "internalType": "uint256",
              "name": "id",
              "type": "uint256"
            },
            {
              "internalType": "string",
              "name": "voterKey",
              "type": "string"
            },
            {
              "internalType": "uint256",
              "name": "categoryId",
              "type": "uint256"
            },
            {
              "internalType": "uint256",
              "name": "eventId",
              "type": "uint256"
            },
            {
              "internalType": "uint256",
              "name": "votedCandidateId",
              "type": "uint256"
            },
            {
              "internalType": "bool",
              "name": "voted",
              "type": "bool"
            }
          ],
          "internalType": "struct VotingSystem.voteEventStruct[]",
          "name": "",
          "type": "tuple[]"
        }
      ],
      "stateMutability": "view",
      "type": "function"
    },
    {
      "inputs": [
        {
          "internalType": "uint256",
          "name": "_categoryId",
          "type": "uint256"
        },
        {
          "internalType": "string",
          "name": "_eventName",
          "type": "string"
        },
        {
          "internalType": "string",
          "name": "_eventDesc",
          "type": "string"
        },
        {
          "internalType": "uint256",
          "name": "_startDateTime",
          "type": "uint256"
        },
        {
          "internalType": "uint256",
          "name": "_endDateTime",
          "type": "uint256"
        }
      ],
      "name": "addEvent",
      "outputs": [],
      "stateMutability": "nonpayable",
      "type": "function"
    },
    {
      "inputs": [
        {
          "internalType": "uint256",
          "name": "_categoryId",
          "type": "uint256"
        },
        {
          "internalType": "uint256",
          "name": "_eventId",
          "type": "uint256"
        },
        {
          "internalType": "string",
          "name": "_eventName",
          "type": "string"
        },
        {
          "internalType": "string",
          "name": "_eventDesc",
          "type": "string"
        },
        {
          "internalType": "uint256",
          "name": "_startDateTime",
          "type": "uint256"
        },
        {
          "internalType": "uint256",
          "name": "_endDateTime",
          "type": "uint256"
        }
      ],
      "name": "updateEventDetails",
      "outputs": [],
      "stateMutability": "nonpayable",
      "type": "function"
    },
    {
      "inputs": [
        {
          "internalType": "uint256",
          "name": "_categoryId",
          "type": "uint256"
        },
        {
          "internalType": "uint256",
          "name": "_eventId",
          "type": "uint256"
        }
      ],
      "name": "deleteEvent",
      "outputs": [],
      "stateMutability": "nonpayable",
      "type": "function"
    },
    {
      "inputs": [
        {
          "components": [
            {
              "internalType": "uint256",
              "name": "eventId",
              "type": "uint256"
            },
            {
              "internalType": "string",
              "name": "eventName",
              "type": "string"
            },
            {
              "internalType": "uint256",
              "name": "categoryId",
              "type": "uint256"
            },
            {
              "components": [
                {
                  "internalType": "uint256",
                  "name": "id",
                  "type": "uint256"
                },
                {
                  "internalType": "string",
                  "name": "name",
                  "type": "string"
                },
                {
                  "internalType": "string",
                  "name": "description",
                  "type": "string"
                },
                {
                  "internalType": "uint256",
                  "name": "studentId",
                  "type": "uint256"
                },
                {
                  "internalType": "uint256",
                  "name": "categoryId",
                  "type": "uint256"
                },
                {
                  "internalType": "uint256",
                  "name": "eventId",
                  "type": "uint256"
                },
                {
                  "internalType": "uint256",
                  "name": "voteCount",
                  "type": "uint256"
                },
                {
                  "internalType": "bool",
                  "name": "win",
                  "type": "bool"
                },
                {
                  "internalType": "string",
                  "name": "imageFileName",
                  "type": "string"
                }
              ],
              "internalType": "struct VotingSystem.Candidate[]",
              "name": "candidates",
              "type": "tuple[]"
            },
            {
              "internalType": "uint256",
              "name": "candidateCount",
              "type": "uint256"
            },
            {
              "internalType": "uint256",
              "name": "startDateTime",
              "type": "uint256"
            },
            {
              "internalType": "uint256",
              "name": "endDateTime",
              "type": "uint256"
            },
            {
              "internalType": "uint256",
              "name": "status",
              "type": "uint256"
            },
            {
              "internalType": "string",
              "name": "eventDesc",
              "type": "string"
            }
          ],
          "internalType": "struct VotingSystem.Event",
          "name": "_event",
          "type": "tuple"
        }
      ],
      "name": "updateEvent",
      "outputs": [],
      "stateMutability": "nonpayable",
      "type": "function"
    },
    {
      "inputs": [
        {
          "internalType": "uint256",
          "name": "_categoryId",
          "type": "uint256"
        },
        {
          "internalType": "uint256",
          "name": "_eventId",
          "type": "uint256"
        },
        {
          "internalType": "string",
          "name": "_candidateName",
          "type": "string"
        },
        {
          "internalType": "string",
          "name": "_description",
          "type": "string"
        },
        {
          "internalType": "uint256",
          "name": "_studentId",
          "type": "uint256"
        },
        {
          "internalType": "string",
          "name": "_imageFileName",
          "type": "string"
        }
      ],
      "name": "addCandidateToEvent",
      "outputs": [],
      "stateMutability": "nonpayable",
      "type": "function"
    },
    {
      "inputs": [
        {
          "internalType": "uint256",
          "name": "_id",
          "type": "uint256"
        },
        {
          "internalType": "string",
          "name": "_name",
          "type": "string"
        },
        {
          "internalType": "string",
          "name": "_description",
          "type": "string"
        },
        {
          "internalType": "uint256",
          "name": "_studentId",
          "type": "uint256"
        },
        {
          "internalType": "uint256",
          "name": "_categoryId",
          "type": "uint256"
        },
        {
          "internalType": "uint256",
          "name": "_eventId",
          "type": "uint256"
        },
        {
          "internalType": "string",
          "name": "_imageFileName",
          "type": "string"
        }
      ],
      "name": "updateCandidateDetails",
      "outputs": [],
      "stateMutability": "nonpayable",
      "type": "function"
    },
    {
      "inputs": [
        {
          "internalType": "uint256",
          "name": "_categoryId",
          "type": "uint256"
        },
        {
          "internalType": "uint256",
          "name": "_eventId",
          "type": "uint256"
        },
        {
          "internalType": "uint256",
          "name": "_candidateId",
          "type": "uint256"
        }
      ],
      "name": "deleteCandidate",
      "outputs": [],
      "stateMutability": "nonpayable",
      "type": "function"
    },
    {
      "inputs": [
        {
          "internalType": "string",
          "name": "_imageFileName",
          "type": "string"
        }
      ],
      "name": "isImageFileNameUsed",
      "outputs": [
        {
          "internalType": "bool",
          "name": "",
          "type": "bool"
        }
      ],
      "stateMutability": "view",
      "type": "function"
    },
    {
      "inputs": [
        {
          "internalType": "uint256",
          "name": "_categoryId",
          "type": "uint256"
        },
        {
          "internalType": "uint256",
          "name": "_eventId",
          "type": "uint256"
        },
        {
          "internalType": "uint256",
          "name": "_studentId",
          "type": "uint256"
        }
      ],
      "name": "isCandidateExistsInEvent",
      "outputs": [
        {
          "internalType": "bool",
          "name": "",
          "type": "bool"
        }
      ],
      "stateMutability": "view",
      "type": "function"
    },
    {
      "inputs": [
        {
          "internalType": "uint256",
          "name": "_categoryId",
          "type": "uint256"
        },
        {
          "internalType": "uint256",
          "name": "_eventId",
          "type": "uint256"
        },
        {
          "internalType": "uint256",
          "name": "_candidateId",
          "type": "uint256"
        }
      ],
      "name": "isCandidateExistsInEventById",
      "outputs": [
        {
          "internalType": "bool",
          "name": "",
          "type": "bool"
        }
      ],
      "stateMutability": "view",
      "type": "function"
    },
    {
      "inputs": [
        {
          "internalType": "uint256",
          "name": "_categoryId",
          "type": "uint256"
        },
        {
          "internalType": "uint256",
          "name": "_eventId",
          "type": "uint256"
        }
      ],
      "name": "isEventExists",
      "outputs": [
        {
          "internalType": "bool",
          "name": "",
          "type": "bool"
        }
      ],
      "stateMutability": "view",
      "type": "function"
    },
    {
      "inputs": [
        {
          "internalType": "uint256",
          "name": "_categoryId",
          "type": "uint256"
        }
      ],
      "name": "getAllCategoryEvent",
      "outputs": [
        {
          "components": [
            {
              "internalType": "uint256",
              "name": "eventId",
              "type": "uint256"
            },
            {
              "internalType": "string",
              "name": "eventName",
              "type": "string"
            },
            {
              "internalType": "uint256",
              "name": "categoryId",
              "type": "uint256"
            },
            {
              "components": [
                {
                  "internalType": "uint256",
                  "name": "id",
                  "type": "uint256"
                },
                {
                  "internalType": "string",
                  "name": "name",
                  "type": "string"
                },
                {
                  "internalType": "string",
                  "name": "description",
                  "type": "string"
                },
                {
                  "internalType": "uint256",
                  "name": "studentId",
                  "type": "uint256"
                },
                {
                  "internalType": "uint256",
                  "name": "categoryId",
                  "type": "uint256"
                },
                {
                  "internalType": "uint256",
                  "name": "eventId",
                  "type": "uint256"
                },
                {
                  "internalType": "uint256",
                  "name": "voteCount",
                  "type": "uint256"
                },
                {
                  "internalType": "bool",
                  "name": "win",
                  "type": "bool"
                },
                {
                  "internalType": "string",
                  "name": "imageFileName",
                  "type": "string"
                }
              ],
              "internalType": "struct VotingSystem.Candidate[]",
              "name": "candidates",
              "type": "tuple[]"
            },
            {
              "internalType": "uint256",
              "name": "candidateCount",
              "type": "uint256"
            },
            {
              "internalType": "uint256",
              "name": "startDateTime",
              "type": "uint256"
            },
            {
              "internalType": "uint256",
              "name": "endDateTime",
              "type": "uint256"
            },
            {
              "internalType": "uint256",
              "name": "status",
              "type": "uint256"
            },
            {
              "internalType": "string",
              "name": "eventDesc",
              "type": "string"
            }
          ],
          "internalType": "struct VotingSystem.Event[]",
          "name": "foundEvent",
          "type": "tuple[]"
        }
      ],
      "stateMutability": "view",
      "type": "function"
    },
    {
      "inputs": [
        {
          "internalType": "uint256",
          "name": "_categoryId",
          "type": "uint256"
        },
        {
          "internalType": "uint256",
          "name": "_eventId",
          "type": "uint256"
        }
      ],
      "name": "getAllCandidatesInEvent",
      "outputs": [
        {
          "components": [
            {
              "internalType": "uint256",
              "name": "id",
              "type": "uint256"
            },
            {
              "internalType": "string",
              "name": "name",
              "type": "string"
            },
            {
              "internalType": "string",
              "name": "description",
              "type": "string"
            },
            {
              "internalType": "uint256",
              "name": "studentId",
              "type": "uint256"
            },
            {
              "internalType": "uint256",
              "name": "categoryId",
              "type": "uint256"
            },
            {
              "internalType": "uint256",
              "name": "eventId",
              "type": "uint256"
            },
            {
              "internalType": "uint256",
              "name": "voteCount",
              "type": "uint256"
            },
            {
              "internalType": "bool",
              "name": "win",
              "type": "bool"
            },
            {
              "internalType": "string",
              "name": "imageFileName",
              "type": "string"
            }
          ],
          "internalType": "struct VotingSystem.Candidate[]",
          "name": "foundCandidates",
          "type": "tuple[]"
        }
      ],
      "stateMutability": "view",
      "type": "function"
    },
    {
      "inputs": [],
      "name": "getAllCandidates",
      "outputs": [
        {
          "components": [
            {
              "internalType": "uint256",
              "name": "id",
              "type": "uint256"
            },
            {
              "internalType": "string",
              "name": "name",
              "type": "string"
            },
            {
              "internalType": "string",
              "name": "description",
              "type": "string"
            },
            {
              "internalType": "uint256",
              "name": "studentId",
              "type": "uint256"
            },
            {
              "internalType": "uint256",
              "name": "categoryId",
              "type": "uint256"
            },
            {
              "internalType": "uint256",
              "name": "eventId",
              "type": "uint256"
            },
            {
              "internalType": "uint256",
              "name": "voteCount",
              "type": "uint256"
            },
            {
              "internalType": "bool",
              "name": "win",
              "type": "bool"
            },
            {
              "internalType": "string",
              "name": "imageFileName",
              "type": "string"
            }
          ],
          "internalType": "struct VotingSystem.Candidate[]",
          "name": "",
          "type": "tuple[]"
        }
      ],
      "stateMutability": "view",
      "type": "function"
    },
    {
      "inputs": [],
      "name": "getAllCategory",
      "outputs": [
        {
          "components": [
            {
              "internalType": "uint256",
              "name": "categoryId",
              "type": "uint256"
            },
            {
              "internalType": "string",
              "name": "categoryName",
              "type": "string"
            },
            {
              "components": [
                {
                  "internalType": "uint256",
                  "name": "eventId",
                  "type": "uint256"
                },
                {
                  "internalType": "string",
                  "name": "eventName",
                  "type": "string"
                },
                {
                  "internalType": "uint256",
                  "name": "categoryId",
                  "type": "uint256"
                },
                {
                  "components": [
                    {
                      "internalType": "uint256",
                      "name": "id",
                      "type": "uint256"
                    },
                    {
                      "internalType": "string",
                      "name": "name",
                      "type": "string"
                    },
                    {
                      "internalType": "string",
                      "name": "description",
                      "type": "string"
                    },
                    {
                      "internalType": "uint256",
                      "name": "studentId",
                      "type": "uint256"
                    },
                    {
                      "internalType": "uint256",
                      "name": "categoryId",
                      "type": "uint256"
                    },
                    {
                      "internalType": "uint256",
                      "name": "eventId",
                      "type": "uint256"
                    },
                    {
                      "internalType": "uint256",
                      "name": "voteCount",
                      "type": "uint256"
                    },
                    {
                      "internalType": "bool",
                      "name": "win",
                      "type": "bool"
                    },
                    {
                      "internalType": "string",
                      "name": "imageFileName",
                      "type": "string"
                    }
                  ],
                  "internalType": "struct VotingSystem.Candidate[]",
                  "name": "candidates",
                  "type": "tuple[]"
                },
                {
                  "internalType": "uint256",
                  "name": "candidateCount",
                  "type": "uint256"
                },
                {
                  "internalType": "uint256",
                  "name": "startDateTime",
                  "type": "uint256"
                },
                {
                  "internalType": "uint256",
                  "name": "endDateTime",
                  "type": "uint256"
                },
                {
                  "internalType": "uint256",
                  "name": "status",
                  "type": "uint256"
                },
                {
                  "internalType": "string",
                  "name": "eventDesc",
                  "type": "string"
                }
              ],
              "internalType": "struct VotingSystem.Event[]",
              "name": "events",
              "type": "tuple[]"
            },
            {
              "internalType": "uint256",
              "name": "status",
              "type": "uint256"
            }
          ],
          "internalType": "struct VotingSystem.Category[]",
          "name": "",
          "type": "tuple[]"
        }
      ],
      "stateMutability": "view",
      "type": "function"
    },
    {
      "inputs": [
        {
          "internalType": "uint256",
          "name": "_categoryId",
          "type": "uint256"
        }
      ],
      "name": "getCategoryById",
      "outputs": [
        {
          "components": [
            {
              "internalType": "uint256",
              "name": "categoryId",
              "type": "uint256"
            },
            {
              "internalType": "string",
              "name": "categoryName",
              "type": "string"
            },
            {
              "components": [
                {
                  "internalType": "uint256",
                  "name": "eventId",
                  "type": "uint256"
                },
                {
                  "internalType": "string",
                  "name": "eventName",
                  "type": "string"
                },
                {
                  "internalType": "uint256",
                  "name": "categoryId",
                  "type": "uint256"
                },
                {
                  "components": [
                    {
                      "internalType": "uint256",
                      "name": "id",
                      "type": "uint256"
                    },
                    {
                      "internalType": "string",
                      "name": "name",
                      "type": "string"
                    },
                    {
                      "internalType": "string",
                      "name": "description",
                      "type": "string"
                    },
                    {
                      "internalType": "uint256",
                      "name": "studentId",
                      "type": "uint256"
                    },
                    {
                      "internalType": "uint256",
                      "name": "categoryId",
                      "type": "uint256"
                    },
                    {
                      "internalType": "uint256",
                      "name": "eventId",
                      "type": "uint256"
                    },
                    {
                      "internalType": "uint256",
                      "name": "voteCount",
                      "type": "uint256"
                    },
                    {
                      "internalType": "bool",
                      "name": "win",
                      "type": "bool"
                    },
                    {
                      "internalType": "string",
                      "name": "imageFileName",
                      "type": "string"
                    }
                  ],
                  "internalType": "struct VotingSystem.Candidate[]",
                  "name": "candidates",
                  "type": "tuple[]"
                },
                {
                  "internalType": "uint256",
                  "name": "candidateCount",
                  "type": "uint256"
                },
                {
                  "internalType": "uint256",
                  "name": "startDateTime",
                  "type": "uint256"
                },
                {
                  "internalType": "uint256",
                  "name": "endDateTime",
                  "type": "uint256"
                },
                {
                  "internalType": "uint256",
                  "name": "status",
                  "type": "uint256"
                },
                {
                  "internalType": "string",
                  "name": "eventDesc",
                  "type": "string"
                }
              ],
              "internalType": "struct VotingSystem.Event[]",
              "name": "events",
              "type": "tuple[]"
            },
            {
              "internalType": "uint256",
              "name": "status",
              "type": "uint256"
            }
          ],
          "internalType": "struct VotingSystem.Category",
          "name": "",
          "type": "tuple"
        }
      ],
      "stateMutability": "view",
      "type": "function"
    },
    {
      "inputs": [],
      "name": "getAllEvent",
      "outputs": [
        {
          "components": [
            {
              "internalType": "uint256",
              "name": "eventId",
              "type": "uint256"
            },
            {
              "internalType": "string",
              "name": "eventName",
              "type": "string"
            },
            {
              "internalType": "uint256",
              "name": "categoryId",
              "type": "uint256"
            },
            {
              "components": [
                {
                  "internalType": "uint256",
                  "name": "id",
                  "type": "uint256"
                },
                {
                  "internalType": "string",
                  "name": "name",
                  "type": "string"
                },
                {
                  "internalType": "string",
                  "name": "description",
                  "type": "string"
                },
                {
                  "internalType": "uint256",
                  "name": "studentId",
                  "type": "uint256"
                },
                {
                  "internalType": "uint256",
                  "name": "categoryId",
                  "type": "uint256"
                },
                {
                  "internalType": "uint256",
                  "name": "eventId",
                  "type": "uint256"
                },
                {
                  "internalType": "uint256",
                  "name": "voteCount",
                  "type": "uint256"
                },
                {
                  "internalType": "bool",
                  "name": "win",
                  "type": "bool"
                },
                {
                  "internalType": "string",
                  "name": "imageFileName",
                  "type": "string"
                }
              ],
              "internalType": "struct VotingSystem.Candidate[]",
              "name": "candidates",
              "type": "tuple[]"
            },
            {
              "internalType": "uint256",
              "name": "candidateCount",
              "type": "uint256"
            },
            {
              "internalType": "uint256",
              "name": "startDateTime",
              "type": "uint256"
            },
            {
              "internalType": "uint256",
              "name": "endDateTime",
              "type": "uint256"
            },
            {
              "internalType": "uint256",
              "name": "status",
              "type": "uint256"
            },
            {
              "internalType": "string",
              "name": "eventDesc",
              "type": "string"
            }
          ],
          "internalType": "struct VotingSystem.Event[]",
          "name": "",
          "type": "tuple[]"
        }
      ],
      "stateMutability": "view",
      "type": "function"
    },
    {
      "inputs": [
        {
          "internalType": "uint256",
          "name": "_categoryId",
          "type": "uint256"
        },
        {
          "internalType": "uint256",
          "name": "_eventId",
          "type": "uint256"
        }
      ],
      "name": "getEventById",
      "outputs": [
        {
          "components": [
            {
              "internalType": "uint256",
              "name": "eventId",
              "type": "uint256"
            },
            {
              "internalType": "string",
              "name": "eventName",
              "type": "string"
            },
            {
              "internalType": "uint256",
              "name": "categoryId",
              "type": "uint256"
            },
            {
              "components": [
                {
                  "internalType": "uint256",
                  "name": "id",
                  "type": "uint256"
                },
                {
                  "internalType": "string",
                  "name": "name",
                  "type": "string"
                },
                {
                  "internalType": "string",
                  "name": "description",
                  "type": "string"
                },
                {
                  "internalType": "uint256",
                  "name": "studentId",
                  "type": "uint256"
                },
                {
                  "internalType": "uint256",
                  "name": "categoryId",
                  "type": "uint256"
                },
                {
                  "internalType": "uint256",
                  "name": "eventId",
                  "type": "uint256"
                },
                {
                  "internalType": "uint256",
                  "name": "voteCount",
                  "type": "uint256"
                },
                {
                  "internalType": "bool",
                  "name": "win",
                  "type": "bool"
                },
                {
                  "internalType": "string",
                  "name": "imageFileName",
                  "type": "string"
                }
              ],
              "internalType": "struct VotingSystem.Candidate[]",
              "name": "candidates",
              "type": "tuple[]"
            },
            {
              "internalType": "uint256",
              "name": "candidateCount",
              "type": "uint256"
            },
            {
              "internalType": "uint256",
              "name": "startDateTime",
              "type": "uint256"
            },
            {
              "internalType": "uint256",
              "name": "endDateTime",
              "type": "uint256"
            },
            {
              "internalType": "uint256",
              "name": "status",
              "type": "uint256"
            },
            {
              "internalType": "string",
              "name": "eventDesc",
              "type": "string"
            }
          ],
          "internalType": "struct VotingSystem.Event",
          "name": "",
          "type": "tuple"
        }
      ],
      "stateMutability": "view",
      "type": "function"
    },
    {
      "inputs": [
        {
          "internalType": "uint256",
          "name": "_categoryId",
          "type": "uint256"
        },
        {
          "internalType": "uint256",
          "name": "_eventId",
          "type": "uint256"
        },
        {
          "internalType": "uint256",
          "name": "_candidateId",
          "type": "uint256"
        }
      ],
      "name": "getCandidateById",
      "outputs": [
        {
          "components": [
            {
              "internalType": "uint256",
              "name": "id",
              "type": "uint256"
            },
            {
              "internalType": "string",
              "name": "name",
              "type": "string"
            },
            {
              "internalType": "string",
              "name": "description",
              "type": "string"
            },
            {
              "internalType": "uint256",
              "name": "studentId",
              "type": "uint256"
            },
            {
              "internalType": "uint256",
              "name": "categoryId",
              "type": "uint256"
            },
            {
              "internalType": "uint256",
              "name": "eventId",
              "type": "uint256"
            },
            {
              "internalType": "uint256",
              "name": "voteCount",
              "type": "uint256"
            },
            {
              "internalType": "bool",
              "name": "win",
              "type": "bool"
            },
            {
              "internalType": "string",
              "name": "imageFileName",
              "type": "string"
            }
          ],
          "internalType": "struct VotingSystem.Candidate",
          "name": "",
          "type": "tuple"
        }
      ],
      "stateMutability": "view",
      "type": "function"
    }
  ],
  "bytecode": "0x60806040523480156200001157600080fd5b50600080546001600160a01b03191633178155604080516020808201835283825282518084018452601481527f737570657261646d696e40676d61696c2e636f6d0000000000000000000000008183015283518085018552600e81526d537570657241646d696e2131323360901b818401528451808601865260018152605360f81b818501528551938401909552948252620000b2949293909291620000b8565b620004c7565b60015b600b5481116200015d57600081815260056020526040908190209051620000e6916002019062000351565b6040518091039020858051906020012003620001485760405162461bcd60e51b815260206004820152601360248201527f5573657220616c72656164792065786973747300000000000000000000000000604482015260640160405180910390fd5b8062000154816200040a565b915050620000bb565b506001600b600082825462000173919062000426565b90915550506040516000906200018e90859060200162000474565b60408051601f198184030181529181528151602092830120600b546000818152600585529290922091825588519093509091620001d39160018401918a01906200026f565b508551620001eb90600283019060208901906200026f565b506003810182905583516200020a90600483019060208701906200026f565b506000600582015582516200022990600683019060208601906200026f565b50600b547f56729c826fe77eec184059336ced13d9ef79d10126212c90a4d2b724391e14e2886040516200025e919062000492565b60405180910390a250505050505050565b8280546200027d9062000315565b90600052602060002090601f016020900481019282620002a15760008555620002ec565b82601f10620002bc57805160ff1916838001178555620002ec565b82800160010185558215620002ec579182015b82811115620002ec578251825591602001919060010190620002cf565b50620002fa929150620002fe565b5090565b5b80821115620002fa5760008155600101620002ff565b600181811c908216806200032a57607f821691505b6020821081036200034b57634e487b7160e01b600052602260045260246000fd5b50919050565b600080835481600182811c9150808316806200036e57607f831692505b602080841082036200038e57634e487b7160e01b86526022600452602486fd5b818015620003a55760018114620003b757620003e6565b60ff19861689528489019650620003e6565b60008a81526020902060005b86811015620003de5781548b820152908501908301620003c3565b505084890196505b509498975050505050505050565b634e487b7160e01b600052601160045260246000fd5b6000600182016200041f576200041f620003f4565b5060010190565b600082198211156200043c576200043c620003f4565b500190565b60005b838110156200045e57818101518382015260200162000444565b838111156200046e576000848401525b50505050565b600082516200048881846020870162000441565b9190910192915050565b6020815260008251806020840152620004b381604085016020870162000441565b601f01601f19169190910160400192915050565b61602180620004d76000396000f3fe608060405234801561001057600080fd5b50600436106102325760003560e01c80638801b5b611610130578063cd1d56cd116100b8578063dfdffaf41161007c578063dfdffaf414610564578063f29565ed14610577578063f44f4e141461058a578063f731d0e91461059f578063fdf9c14a146105b257600080fd5b8063cd1d56cd146104e5578063ceca737f14610505578063d033791414610518578063d84786041461052b578063da58c7d91461053e57600080fd5b8063909f8502116100ff578063909f8502146104795780639974dc2014610499578063a1a02564146104ac578063bf03f677146104bf578063cb9b1ba1146104d257600080fd5b80638801b5b61461041357806388ad4376146104265780638da5cb5b146104395780638f2c28051461046457600080fd5b8063514fc62a116101be57806361e8486e1161018257806361e8486e14610395578063642d20ad146103b5578063689b6fbf146103da57806376304984146103ed57806378697e5b1461040057600080fd5b8063514fc62a1461031c578063531f142b1461032f5780635a8ffc79146103425780635b4d727c1461036257806360e93f3c1461037557600080fd5b80634009074f116102055780634009074f146102a0578063400af02a146102b3578063401a52dd146102d3578063448a144f146102e65780634fb43250146102f957600080fd5b80631002cdd4146102375780632e0dcbf7146102555780632e6997fe1461026a5780633e60e2f51461027f575b600080fd5b61023f6105c5565b60405161024c91906151f4565b60405180910390f35b610268610263366004615334565b610ab5565b005b610272610b40565b60405161024c9190615370565b61029261028d3660046153c5565b610cc2565b60405190815260200161024c565b6102686102ae366004615428565b610d09565b6102c66102c13660046153c5565b610f34565b60405161024c919061555f565b61023f6102e1366004615572565b610fd6565b6102686102f43660046153c5565b611471565b61030c61030736600461558b565b6114f3565b604051901515815260200161024c565b61030c61032a366004615334565b61159f565b61026861033d36600461572f565b611605565b610355610350366004615572565b611735565b60405161024c9190615824565b61027261037036600461558b565b611829565b610388610383366004615572565b611bc5565b60405161024c91906158c8565b6103a86103a33660046158db565b6120cf565b60405161024c9190615907565b6103c86103c3366004615572565b6126ac565b60405161024c9695949392919061591a565b61030c6103e83660046153c5565b61276d565b6102686103fb36600461595a565b61278e565b61026861040e3660046159fd565b61299c565b6102c66104213660046153c5565b6129c1565b61030c610434366004615334565b612d62565b60005461044c906001600160a01b031681565b6040516001600160a01b03909116815260200161024c565b61046c612d8d565b60405161024c9190615a39565b61048c61048736600461558b565b613330565b60405161024c9190615a8e565b6102686104a736600461558b565b61388f565b61030c6104ba366004615334565b6138fb565b61030c6104cd3660046158db565b6139f2565b6102686104e0366004615aa1565b613a86565b6104f86104f3366004615334565b613b27565b60405161024c9190615b1f565b610268610513366004615572565b613d2a565b6102686105263660046158db565b613d66565b61026861053936600461558b565b613ffa565b61055161054c366004615572565b614205565b60405161024c9796959493929190615bc0565b61030c6105723660046158db565b614460565b6102686105853660046153c5565b6144e8565b6105926145d7565b60405161024c9190615c2d565b6102686105ad366004615c82565b6148fd565b6102686105c0366004615d53565b614a91565b606060006009546001600160401b038111156105e3576105e3615256565b60405190808252806020026020018201604052801561061c57816020015b610609614be8565b8152602001906001900390816106015790505b5090506000805b600754811015610aad5760005b6001600061063e8483615df1565b8152602081019190915260400160002060020154811015610a9a57600160006106678483615df1565b8152602001908152602001600020600201818154811061068957610689615e09565b906000526020600020906009020160405180610120016040529081600082015481526020016001820180546106bd90615e1f565b80601f01602080910402602001604051908101604052809291908181526020018280546106e990615e1f565b80156107365780601f1061070b57610100808354040283529160200191610736565b820191906000526020600020905b81548152906001019060200180831161071957829003601f168201915b505050505081526020016002820154815260200160038201805480602002602001604051908101604052809291908181526020016000905b8282101561099c578382906000526020600020906009020160405180610120016040529081600082015481526020016001820180546107ac90615e1f565b80601f01602080910402602001604051908101604052809291908181526020018280546107d890615e1f565b80156108255780601f106107fa57610100808354040283529160200191610825565b820191906000526020600020905b81548152906001019060200180831161080857829003601f168201915b5050505050815260200160028201805461083e90615e1f565b80601f016020809104026020016040519081016040528092919081815260200182805461086a90615e1f565b80156108b75780601f1061088c576101008083540402835291602001916108b7565b820191906000526020600020905b81548152906001019060200180831161089a57829003601f168201915b505050918352505060038201546020820152600482015460408201526005820154606082015260068201546080820152600782015460ff16151560a082015260088201805460c09092019161090b90615e1f565b80601f016020809104026020016040519081016040528092919081815260200182805461093790615e1f565b80156109845780601f1061095957610100808354040283529160200191610984565b820191906000526020600020905b81548152906001019060200180831161096757829003601f168201915b5050505050815250508152602001906001019061076e565b505050508152602001600482015481526020016005820154815260200160068201548152602001600782015481526020016008820180546109dc90615e1f565b80601f0160208091040260200160405190810160405280929190818152602001828054610a0890615e1f565b8015610a555780601f10610a2a57610100808354040283529160200191610a55565b820191906000526020600020905b815481529060010190602001808311610a3857829003601f168201915b505050505081525050848481518110610a7057610a70615e09565b6020908102919091010152610a86600184615df1565b925080610a9281615e53565b915050610630565b5080610aa581615e53565b915050610623565b509092915050565b600160076000828254610ac89190615df1565b9091555050600754600090815260016020818152604090922083519092610af59284019190850190614c34565b5060078054825560016003830155546040517f5bae3f75753ef0a1c0ea0f6c51d7b43a4b8d116572b8b7b5cb771f9ad32d4ae590610b34908590615824565b60405180910390a25050565b606060006008546001600160401b03811115610b5e57610b5e615256565b604051908082528060200260200182016040528015610b9757816020015b610b84614cb8565b815260200190600190039081610b7c5790505b50905060006009546001600160401b03811115610bb657610bb6615256565b604051908082528060200260200182016040528015610bef57816020015b610bdc614be8565b815260200190600190039081610bd45790505b509050610bfa6105c5565b90506000805b600954811015610cb95760005b838281518110610c1f57610c1f615e09565b60200260200101516060015151811015610ca657838281518110610c4557610c45615e09565b6020026020010151606001518181518110610c6257610c62615e09565b6020026020010151858481518110610c7c57610c7c615e09565b6020908102919091010152610c92600184615df1565b925080610c9e81615e53565b915050610c0d565b5080610cb181615e53565b915050610c00565b50919392505050565b600080610ccf84846129c1565b8051909150600003610cfc5760405162461bcd60e51b8152600401610cf390615e6c565b60405180910390fd5b60a0015190505b92915050565b60005b600084815260016020526040902060020154811015610f29576000848152600160205260409020600201805484919083908110610d4b57610d4b615e09565b90600052602060002090600902016000015403610f17576000848152600160205260408120600201805483908110610d8557610d85615e09565b9060005260206000209060090201905060005b6003820154811015610f145789826003018281548110610dba57610dba615e09565b90600052602060002090600902016000015403610f02576000826003018281548110610de857610de8615e09565b9060005260206000209060090201905089816001019080519060200190610e10929190614c34565b508851610e2690600283019060208c0190614c34565b5060038101889055845115801590610e5c575084516020860120604051610e51906008840190615f48565b604051809103902014155b15610ef9576000816008018054610e7290615e1f565b90501115610eb0576000600682600801604051610e8f9190615f48565b908152604051908190036020019020805491151560ff199092169190911790555b8451610ec59060088301906020880190614c34565b506001600686604051610ed89190615f54565b908152604051908190036020019020805491151560ff199092169190911790555b50505050610f2b565b80610f0c81615e53565b915050610d98565b50505b80610f2181615e53565b915050610d0c565b505b50505050505050565b610f3c614d06565b6000610f4884846129c1565b8051909150600003610f6c5760405162461bcd60e51b8152600401610cf390615e6c565b8060a00151600114610fcf5760405162461bcd60e51b815260206004820152602660248201527f596f7572206163636f756e74207761732062616e6e6564206f72206e6f74207660448201526565726966792160d01b6064820152608401610cf3565b9392505050565b60008181526001602052604081206002810154606092906001600160401b0381111561100457611004615256565b60405190808252806020026020018201604052801561103d57816020015b61102a614be8565b8152602001906001900390816110225790505b50905060005b60028301548110156114695782600201818154811061106457611064615e09565b9060005260206000209060090201604051806101200160405290816000820154815260200160018201805461109890615e1f565b80601f01602080910402602001604051908101604052809291908181526020018280546110c490615e1f565b80156111115780601f106110e657610100808354040283529160200191611111565b820191906000526020600020905b8154815290600101906020018083116110f457829003601f168201915b505050505081526020016002820154815260200160038201805480602002602001604051908101604052809291908181526020016000905b828210156113775783829060005260206000209060090201604051806101200160405290816000820154815260200160018201805461118790615e1f565b80601f01602080910402602001604051908101604052809291908181526020018280546111b390615e1f565b80156112005780601f106111d557610100808354040283529160200191611200565b820191906000526020600020905b8154815290600101906020018083116111e357829003601f168201915b5050505050815260200160028201805461121990615e1f565b80601f016020809104026020016040519081016040528092919081815260200182805461124590615e1f565b80156112925780601f1061126757610100808354040283529160200191611292565b820191906000526020600020905b81548152906001019060200180831161127557829003601f168201915b505050918352505060038201546020820152600482015460408201526005820154606082015260068201546080820152600782015460ff16151560a082015260088201805460c0909201916112e690615e1f565b80601f016020809104026020016040519081016040528092919081815260200182805461131290615e1f565b801561135f5780601f106113345761010080835404028352916020019161135f565b820191906000526020600020905b81548152906001019060200180831161134257829003601f168201915b50505050508152505081526020019060010190611149565b505050508152602001600482015481526020016005820154815260200160068201548152602001600782015481526020016008820180546113b790615e1f565b80601f01602080910402602001604051908101604052809291908181526020018280546113e390615e1f565b80156114305780601f1061140557610100808354040283529160200191611430565b820191906000526020600020905b81548152906001019060200180831161141357829003601f168201915b50505050508152505082828151811061144b5761144b615e09565b6020026020010181905250808061146190615e53565b915050611043565b509392505050565b60015b600b5481116114ee5760008181526005602052604090819020905161149c9160020190615f48565b60405180910390208380519060200120036114dc57600081815260056020908152604090912083516114d692600690920191850190614c34565b50505050565b806114e681615e53565b915050611474565b505050565b60008281526001602052604081205481036115205760405162461bcd60e51b8152600401610cf390615f70565b60005b60008481526001602052604090206002015481101561159557600084815260016020526040902060020180548491908390811061156257611562615e09565b90600052602060002090600902016000015403611583576001915050610d03565b8061158d81615e53565b915050611523565b5060009392505050565b600060015b600b5481116115fc576000818152600560205260409081902090516115cc9160010190615f48565b60405180910390208380519060200120036115ea5750600192915050565b806115f481615e53565b9150506115a4565b50600092915050565b604080820151600090815260016020529081205490036116675760405162461bcd60e51b815260206004820152601860248201527f43617465676f727920646f6573206e6f742065786973747300000000000000006044820152606401610cf3565b611679816040015182600001516114f3565b6116bd5760405162461bcd60e51b81526020600482015260156024820152744576656e7420646f6573206e6f742065786973742160581b6044820152606401610cf3565b60006001600083604001518152602001908152602001600020600201600183600001516116ea9190615fa7565b815481106116fa576116fa615e09565b906000526020600020906009020190508160200151816001019080519060200190611726929190614c34565b5060e090910151600790910155565b60606000821180156117495750600b548211155b6117885760405162461bcd60e51b815260206004820152601060248201526f125b9d985b1a59081d9bdd195c88125160821b6044820152606401610cf3565b600082815260056020526040902060020180546117a490615e1f565b80601f01602080910402602001604051908101604052809291908181526020018280546117d090615e1f565b801561181d5780601f106117f25761010080835404028352916020019161181d565b820191906000526020600020905b81548152906001019060200180831161180057829003601f168201915b50505050509050919050565b60008281526001602052604081206060915b6002820154811015611bbd578382600201828154811061185d5761185d615e09565b90600052602060002090600902016000015403611bab57600082600201828154811061188b5761188b615e09565b9060005260206000209060090201600401546001600160401b038111156118b4576118b4615256565b6040519080825280602002602001820160405280156118ed57816020015b6118da614cb8565b8152602001906001900390816118d25790505b50905060005b83600201838154811061190857611908615e09565b906000526020600020906009020160030180549050811015611ba05783600201838154811061193957611939615e09565b9060005260206000209060090201600301818154811061195b5761195b615e09565b9060005260206000209060090201604051806101200160405290816000820154815260200160018201805461198f90615e1f565b80601f01602080910402602001604051908101604052809291908181526020018280546119bb90615e1f565b8015611a085780601f106119dd57610100808354040283529160200191611a08565b820191906000526020600020905b8154815290600101906020018083116119eb57829003601f168201915b50505050508152602001600282018054611a2190615e1f565b80601f0160208091040260200160405190810160405280929190818152602001828054611a4d90615e1f565b8015611a9a5780601f10611a6f57610100808354040283529160200191611a9a565b820191906000526020600020905b815481529060010190602001808311611a7d57829003601f168201915b505050918352505060038201546020820152600482015460408201526005820154606082015260068201546080820152600782015460ff16151560a082015260088201805460c090920191611aee90615e1f565b80601f0160208091040260200160405190810160405280929190818152602001828054611b1a90615e1f565b8015611b675780601f10611b3c57610100808354040283529160200191611b67565b820191906000526020600020905b815481529060010190602001808311611b4a57829003601f168201915b505050505081525050828281518110611b8257611b82615e09565b60200260200101819052508080611b9890615e53565b9150506118f3565b509250610d03915050565b80611bb581615e53565b91505061183b565b505092915050565b611bf06040518060800160405280600081526020016060815260200160608152602001600081525090565b60008281526001602081815260409283902083516080810190945280548452918201805491840191611c2190615e1f565b80601f0160208091040260200160405190810160405280929190818152602001828054611c4d90615e1f565b8015611c9a5780601f10611c6f57610100808354040283529160200191611c9a565b820191906000526020600020905b815481529060010190602001808311611c7d57829003601f168201915b5050505050815260200160028201805480602002602001604051908101604052809291908181526020016000905b828210156120b657838290600052602060002090600902016040518061012001604052908160008201548152602001600182018054611d0690615e1f565b80601f0160208091040260200160405190810160405280929190818152602001828054611d3290615e1f565b8015611d7f5780601f10611d5457610100808354040283529160200191611d7f565b820191906000526020600020905b815481529060010190602001808311611d6257829003601f168201915b505050505081526020016002820154815260200160038201805480602002602001604051908101604052809291908181526020016000905b82821015611fe557838290600052602060002090600902016040518061012001604052908160008201548152602001600182018054611df590615e1f565b80601f0160208091040260200160405190810160405280929190818152602001828054611e2190615e1f565b8015611e6e5780601f10611e4357610100808354040283529160200191611e6e565b820191906000526020600020905b815481529060010190602001808311611e5157829003601f168201915b50505050508152602001600282018054611e8790615e1f565b80601f0160208091040260200160405190810160405280929190818152602001828054611eb390615e1f565b8015611f005780601f10611ed557610100808354040283529160200191611f00565b820191906000526020600020905b815481529060010190602001808311611ee357829003601f168201915b505050918352505060038201546020820152600482015460408201526005820154606082015260068201546080820152600782015460ff16151560a082015260088201805460c090920191611f5490615e1f565b80601f0160208091040260200160405190810160405280929190818152602001828054611f8090615e1f565b8015611fcd5780601f10611fa257610100808354040283529160200191611fcd565b820191906000526020600020905b815481529060010190602001808311611fb057829003601f168201915b50505050508152505081526020019060010190611db7565b5050505081526020016004820154815260200160058201548152602001600682015481526020016007820154815260200160088201805461202590615e1f565b80601f016020809104026020016040519081016040528092919081815260200182805461205190615e1f565b801561209e5780601f106120735761010080835404028352916020019161209e565b820191906000526020600020905b81548152906001019060200180831161208157829003601f168201915b50505050508152505081526020019060010190611cc8565b5050505081526020016003820154815250509050919050565b6120d7614cb8565b600084815260016020818152604080842081516080810190925280548252928301805491939284019161210990615e1f565b80601f016020809104026020016040519081016040528092919081815260200182805461213590615e1f565b80156121825780601f1061215757610100808354040283529160200191612182565b820191906000526020600020905b81548152906001019060200180831161216557829003601f168201915b5050505050815260200160028201805480602002602001604051908101604052809291908181526020016000905b8282101561259e578382906000526020600020906009020160405180610120016040529081600082015481526020016001820180546121ee90615e1f565b80601f016020809104026020016040519081016040528092919081815260200182805461221a90615e1f565b80156122675780601f1061223c57610100808354040283529160200191612267565b820191906000526020600020905b81548152906001019060200180831161224a57829003601f168201915b505050505081526020016002820154815260200160038201805480602002602001604051908101604052809291908181526020016000905b828210156124cd578382906000526020600020906009020160405180610120016040529081600082015481526020016001820180546122dd90615e1f565b80601f016020809104026020016040519081016040528092919081815260200182805461230990615e1f565b80156123565780601f1061232b57610100808354040283529160200191612356565b820191906000526020600020905b81548152906001019060200180831161233957829003601f168201915b5050505050815260200160028201805461236f90615e1f565b80601f016020809104026020016040519081016040528092919081815260200182805461239b90615e1f565b80156123e85780601f106123bd576101008083540402835291602001916123e8565b820191906000526020600020905b8154815290600101906020018083116123cb57829003601f168201915b505050918352505060038201546020820152600482015460408201526005820154606082015260068201546080820152600782015460ff16151560a082015260088201805460c09092019161243c90615e1f565b80601f016020809104026020016040519081016040528092919081815260200182805461246890615e1f565b80156124b55780601f1061248a576101008083540402835291602001916124b5565b820191906000526020600020905b81548152906001019060200180831161249857829003601f168201915b5050505050815250508152602001906001019061229f565b5050505081526020016004820154815260200160058201548152602001600682015481526020016007820154815260200160088201805461250d90615e1f565b80601f016020809104026020016040519081016040528092919081815260200182805461253990615e1f565b80156125865780601f1061255b57610100808354040283529160200191612586565b820191906000526020600020905b81548152906001019060200180831161256957829003601f168201915b505050505081525050815260200190600101906121b0565b50505050815260200160038201548152505090506125ba614be8565b6125c2614cb8565b60005b8360400151518110156126a15786846040015182815181106125e9576125e9615e09565b6020026020010151600001510361268f578360400151818151811061261057612610615e09565b6020026020010151925060005b83606001515181101561268957868460600151828151811061264157612641615e09565b60200260200101516000015103612677578360600151818151811061266857612668615e09565b60200260200101519250612689565b8061268181615e53565b91505061261d565b506126a1565b8061269981615e53565b9150506125c5565b509695505050505050565b600460205260009081526040902080546001820180549192916126ce90615e1f565b80601f01602080910402602001604051908101604052809291908181526020018280546126fa90615e1f565b80156127475780601f1061271c57610100808354040283529160200191612747565b820191906000526020600020905b81548152906001019060200180831161272a57829003601f168201915b505050506002830154600384015460048501546005909501549394919390925060ff1686565b60008061277a84846129c1565b805190915015611595576001915050610d03565b6001600860008282546127a19190615df1565b9091555050604080516101208101825260085481526020808201879052818301869052606082018590526080820189905260a08201889052600060c0830181905260e083018190526101008301859052898152600190915291822090915b600282015481101561295f578782600201828154811061282157612821615e09565b9060005260206000209060090201600001540361294d5781600201818154811061284d5761284d615e09565b600091825260208083206009928302016003018054600180820183559185529382902087519490930290920192835585810151805187949361289493908501920190614c34565b50604082015180516128b0916002840191602090910190614c34565b50606082015160038201556080820151600482015560a0820151600582015560c0820151600682015560e082015160078201805460ff1916911515919091179055610100820151805161290d916008840191602090910190614c34565b505050600182600201828154811061292757612927615e09565b906000526020600020906009020160040160008282546129479190615df1565b90915550505b8061295781615e53565b9150506127ff565b5060016006846040516129729190615f54565b908152604051908190036020019020805491151560ff199092169190911790555050505050505050565b600082815260016020818152604090922083516114ee93919092019190840190614c34565b6129c9614d06565b6000826040516020016129dc9190615f54565b60408051601f198184030181529190528051602090910120905060015b600b548111612cfa57600081815260056020526040908190209051612a219160020190615f48565b60405180910390208580519060200120148015612a565750600081815260056020526040902060030154612a56908390614b70565b15612ce857600560008281526020019081526020016000206040518060e001604052908160008201548152602001600182018054612a9390615e1f565b80601f0160208091040260200160405190810160405280929190818152602001828054612abf90615e1f565b8015612b0c5780601f10612ae157610100808354040283529160200191612b0c565b820191906000526020600020905b815481529060010190602001808311612aef57829003601f168201915b50505050508152602001600282018054612b2590615e1f565b80601f0160208091040260200160405190810160405280929190818152602001828054612b5190615e1f565b8015612b9e5780601f10612b7357610100808354040283529160200191612b9e565b820191906000526020600020905b815481529060010190602001808311612b8157829003601f168201915b5050505050815260200160038201548152602001600482018054612bc190615e1f565b80601f0160208091040260200160405190810160405280929190818152602001828054612bed90615e1f565b8015612c3a5780601f10612c0f57610100808354040283529160200191612c3a565b820191906000526020600020905b815481529060010190602001808311612c1d57829003601f168201915b5050505050815260200160058201548152602001600682018054612c5d90615e1f565b80601f0160208091040260200160405190810160405280929190818152602001828054612c8990615e1f565b8015612cd65780601f10612cab57610100808354040283529160200191612cd6565b820191906000526020600020905b815481529060010190602001808311612cb957829003601f168201915b50505050508152505092505050610d03565b80612cf281615e53565b9150506129f9565b50506040805160e08101825260008082528251602080820185528282528084019190915283518082018552828152838501526060830182905283518082018552828152608084015260a083018290528351908101909352825260c08101919091529392505050565b6000600682604051612d749190615f54565b9081526040519081900360200190205460ff1692915050565b606060006007546001600160401b03811115612dab57612dab615256565b604051908082528060200260200182016040528015612e0757816020015b612df46040518060800160405280600081526020016060815260200160608152602001600081525090565b815260200190600190039081612dc95790505b50905060015b600754811161332a5760008181526001602081815260409283902083516080810190945280548452918201805491840191612e4790615e1f565b80601f0160208091040260200160405190810160405280929190818152602001828054612e7390615e1f565b8015612ec05780601f10612e9557610100808354040283529160200191612ec0565b820191906000526020600020905b815481529060010190602001808311612ea357829003601f168201915b5050505050815260200160028201805480602002602001604051908101604052809291908181526020016000905b828210156132dc57838290600052602060002090600902016040518061012001604052908160008201548152602001600182018054612f2c90615e1f565b80601f0160208091040260200160405190810160405280929190818152602001828054612f5890615e1f565b8015612fa55780601f10612f7a57610100808354040283529160200191612fa5565b820191906000526020600020905b815481529060010190602001808311612f8857829003601f168201915b505050505081526020016002820154815260200160038201805480602002602001604051908101604052809291908181526020016000905b8282101561320b5783829060005260206000209060090201604051806101200160405290816000820154815260200160018201805461301b90615e1f565b80601f016020809104026020016040519081016040528092919081815260200182805461304790615e1f565b80156130945780601f1061306957610100808354040283529160200191613094565b820191906000526020600020905b81548152906001019060200180831161307757829003601f168201915b505050505081526020016002820180546130ad90615e1f565b80601f01602080910402602001604051908101604052809291908181526020018280546130d990615e1f565b80156131265780601f106130fb57610100808354040283529160200191613126565b820191906000526020600020905b81548152906001019060200180831161310957829003601f168201915b505050918352505060038201546020820152600482015460408201526005820154606082015260068201546080820152600782015460ff16151560a082015260088201805460c09092019161317a90615e1f565b80601f01602080910402602001604051908101604052809291908181526020018280546131a690615e1f565b80156131f35780601f106131c8576101008083540402835291602001916131f3565b820191906000526020600020905b8154815290600101906020018083116131d657829003601f168201915b50505050508152505081526020019060010190612fdd565b5050505081526020016004820154815260200160058201548152602001600682015481526020016007820154815260200160088201805461324b90615e1f565b80601f016020809104026020016040519081016040528092919081815260200182805461327790615e1f565b80156132c45780601f10613299576101008083540402835291602001916132c4565b820191906000526020600020905b8154815290600101906020018083116132a757829003601f168201915b50505050508152505081526020019060010190612eee565b505050508152602001600382015481525050826001836132fc9190615fa7565b8151811061330c5761330c615e09565b6020026020010181905250808061332290615e53565b915050612e0d565b50919050565b613338614be8565b600083815260016020818152604080842081516080810190925280548252928301805491939284019161336a90615e1f565b80601f016020809104026020016040519081016040528092919081815260200182805461339690615e1f565b80156133e35780601f106133b8576101008083540402835291602001916133e3565b820191906000526020600020905b8154815290600101906020018083116133c657829003601f168201915b5050505050815260200160028201805480602002602001604051908101604052809291908181526020016000905b828210156137ff5783829060005260206000209060090201604051806101200160405290816000820154815260200160018201805461344f90615e1f565b80601f016020809104026020016040519081016040528092919081815260200182805461347b90615e1f565b80156134c85780601f1061349d576101008083540402835291602001916134c8565b820191906000526020600020905b8154815290600101906020018083116134ab57829003601f168201915b505050505081526020016002820154815260200160038201805480602002602001604051908101604052809291908181526020016000905b8282101561372e5783829060005260206000209060090201604051806101200160405290816000820154815260200160018201805461353e90615e1f565b80601f016020809104026020016040519081016040528092919081815260200182805461356a90615e1f565b80156135b75780601f1061358c576101008083540402835291602001916135b7565b820191906000526020600020905b81548152906001019060200180831161359a57829003601f168201915b505050505081526020016002820180546135d090615e1f565b80601f01602080910402602001604051908101604052809291908181526020018280546135fc90615e1f565b80156136495780601f1061361e57610100808354040283529160200191613649565b820191906000526020600020905b81548152906001019060200180831161362c57829003601f168201915b505050918352505060038201546020820152600482015460408201526005820154606082015260068201546080820152600782015460ff16151560a082015260088201805460c09092019161369d90615e1f565b80601f01602080910402602001604051908101604052809291908181526020018280546136c990615e1f565b80156137165780601f106136eb57610100808354040283529160200191613716565b820191906000526020600020905b8154815290600101906020018083116136f957829003601f168201915b50505050508152505081526020019060010190613500565b5050505081526020016004820154815260200160058201548152602001600682015481526020016007820154815260200160088201805461376e90615e1f565b80601f016020809104026020016040519081016040528092919081815260200182805461379a90615e1f565b80156137e75780601f106137bc576101008083540402835291602001916137e7565b820191906000526020600020905b8154815290600101906020018083116137ca57829003601f168201915b50505050508152505081526020019060010190613411565b505050508152602001600382015481525050905061381b614be8565b60005b82604001515181101561388657848360400151828151811061384257613842615e09565b60200260200101516000015103613874578260400151818151811061386957613869615e09565b602002602001015191505b8061387e81615e53565b91505061381e565b50949350505050565b6000821180156138a15750600b548211155b6138e45760405162461bcd60e51b81526020600482015260146024820152732ab9b2b9103237b2b9903737ba1032bc34b9ba1760611b6044820152606401610cf3565b600091825260056020819052604090922090910155565b6001600090815260056020527f1471eb6eb2c5e789fc3de43f8ce62938c7d1836ec861730447e2ada8fd81017b54810361396f5760405162461bcd60e51b81526020600482015260156024820152744e6f20766f74657220696e20746865206c6973742160581b6044820152606401610cf3565b60015b600b5481116115fc5760008181526005602052604090819020905161399a9160060190615f48565b60405180910390208380519060200120036139e057600081815260056020819052604082206001918101919091556139d791600690910190614d46565b50600192915050565b806139ea81615e53565b915050613972565b6000838152600160205260408120548103613a1f5760405162461bcd60e51b8152600401610cf390615f70565b6000613a2b8585611829565b905060005b8151811015613a7a5783828281518110613a4c57613a4c615e09565b60200260200101516000015103613a6857600192505050610fcf565b80613a7281615e53565b915050613a30565b50600095945050505050565b6000858152600160208190526040822060098054919392918390613aab908490615df1565b918290555060028401805460018181018355600092835260209283902060099092029091018381558a519395509350613aea92908401918a0190614c34565b508551613b009060088301906020890190614c34565b50600281019790975550506001600786015560058501919091556006909301929092555050565b60606000600a546001600160401b03811115613b4557613b45615256565b604051908082528060200260200182016040528015613bb157816020015b613b9e6040518060c0016040528060008152602001606081526020016000815260200160008152602001600081526020016000151581525090565b815260200190600190039081613b635790505b509050600060015b600a548111613d2157848051906020012060046000838152602001908152602001600020600101604051613bed9190615f48565b604051809103902003613d0f57600460008281526020019081526020016000206040518060c001604052908160008201548152602001600182018054613c3290615e1f565b80601f0160208091040260200160405190810160405280929190818152602001828054613c5e90615e1f565b8015613cab5780601f10613c8057610100808354040283529160200191613cab565b820191906000526020600020905b815481529060010190602001808311613c8e57829003601f168201915b505050918352505060028201546020820152600382015460408201526004820154606082015260059091015460ff1615156080909101528351849084908110613cf657613cf6615e09565b6020908102919091010152613d0c600183615df1565b91505b80613d1981615e53565b915050613bb9565b50815292915050565b600081815260016020819052604082208281559190613d4b90830182614d46565b613d59600283016000614d83565b6003820160009055505050565b60005b6000848152600160205260409020600201548110156114d6576000848152600160205260409020600201805484919083908110613da857613da8615e09565b90600052602060002090600902016000015403613fe8576000848152600160205260408120600201805483908110613de257613de2615e09565b9060005260206000209060090201905060005b6003820154811015613fe55783826003018281548110613e1757613e17615e09565b90600052602060002090600902016000015403613fd357600482018054906000613e4083615fbe565b9091555050600382018054613e5790600190615fa7565b81548110613e6757613e67615e09565b9060005260206000209060090201826003018281548110613e8a57613e8a615e09565b9060005260206000209060090201600082015481600001556001820181600101908054613eb690615e1f565b613ec1929190614da4565b506002820181600201908054613ed690615e1f565b613ee1929190614da4565b5060038281015490820155600480830154908201556005808301549082015560068083015490820155600780830154908201805460ff191660ff90921615159190911790556008808301805491830191613f3a90615e1f565b613f45929190614da4565b50505060038201805480613f5b57613f5b615fd5565b60008281526020812060096000199093019283020181815590613f816001830182614d46565b613f8f600283016000614d46565b60006003830181905560048301819055600583018190556006830181905560078301805460ff19169055613fc7906008840190614d46565b50509055505050505050565b80613fdd81615e53565b915050613df5565b50505b80613ff281615e53565b915050613d69565b60005b6000838152600160205260409020600201548110156114ee57600083815260016020526040902060020180548391908390811061403c5761403c615e09565b906000526020600020906009020160000154036141f35760008381526001602081905260409091206002018054909161407491615fa7565b8154811061408457614084615e09565b90600052602060002090600902016001600085815260200190815260200160002060020182815481106140b9576140b9615e09565b90600052602060002090600902016000820154816000015560018201816001019080546140e590615e1f565b6140f0929190614da4565b50600282015481600201556003820181600301908054614111929190614e1f565b5060048201548160040155600582015481600501556006820154816006015560078201548160070155600882018160080190805461414e90615e1f565b614159929190614da4565b505050600083815260016020526040902060020180548061417c5761417c615fd5565b600082815260208120600960001990930192830201818155906141a26001830182614d46565b60028201600090556003820160006141ba9190614f1b565b60048201600090556005820160009055600682016000905560078201600090556008820160006141ea9190614d46565b50509055505050565b806141fd81615e53565b915050613ffd565b6005602052600090815260409020805460018201805491929161422790615e1f565b80601f016020809104026020016040519081016040528092919081815260200182805461425390615e1f565b80156142a05780601f10614275576101008083540402835291602001916142a0565b820191906000526020600020905b81548152906001019060200180831161428357829003601f168201915b5050505050908060020180546142b590615e1f565b80601f01602080910402602001604051908101604052809291908181526020018280546142e190615e1f565b801561432e5780601f106143035761010080835404028352916020019161432e565b820191906000526020600020905b81548152906001019060200180831161431157829003601f168201915b50505050509080600301549080600401805461434990615e1f565b80601f016020809104026020016040519081016040528092919081815260200182805461437590615e1f565b80156143c25780601f10614397576101008083540402835291602001916143c2565b820191906000526020600020905b8154815290600101906020018083116143a557829003601f168201915b5050505050908060050154908060060180546143dd90615e1f565b80601f016020809104026020016040519081016040528092919081815260200182805461440990615e1f565b80156144565780601f1061442b57610100808354040283529160200191614456565b820191906000526020600020905b81548152906001019060200180831161443957829003601f168201915b5050505050905087565b600083815260016020526040812054810361448d5760405162461bcd60e51b8152600401610cf390615f70565b60006144998585611829565b905060005b8151811015613a7a57838282815181106144ba576144ba615e09565b602002602001015160600151036144d657600192505050610fcf565b806144e081615e53565b91505061449e565b6144f18261159f565b6145345760405162461bcd60e51b81526020600482015260146024820152735573657220646f6573206e6f742065786973747360601b6044820152606401610cf3565b6000816040516020016145479190615f54565b60408051601f198184030181529190528051602090910120905060015b600b5481116114d65760008181526005602052604090819020905161458c9160010190615f48565b60405180910390208480519060200120036145c5576000818152600560205260408120600381018490556145c591600690910190614d46565b806145cf81615e53565b915050614564565b60606000600b546001600160401b038111156145f5576145f5615256565b60405190808252806020026020018201604052801561462e57816020015b61461b614d06565b8152602001906001900390816146135790505b50905060015b600b54811161332a57600560008281526020019081526020016000206040518060e00160405290816000820154815260200160018201805461467590615e1f565b80601f01602080910402602001604051908101604052809291908181526020018280546146a190615e1f565b80156146ee5780601f106146c3576101008083540402835291602001916146ee565b820191906000526020600020905b8154815290600101906020018083116146d157829003601f168201915b5050505050815260200160028201805461470790615e1f565b80601f016020809104026020016040519081016040528092919081815260200182805461473390615e1f565b80156147805780601f1061475557610100808354040283529160200191614780565b820191906000526020600020905b81548152906001019060200180831161476357829003601f168201915b50505050508152602001600382015481526020016004820180546147a390615e1f565b80601f01602080910402602001604051908101604052809291908181526020018280546147cf90615e1f565b801561481c5780601f106147f15761010080835404028352916020019161481c565b820191906000526020600020905b8154815290600101906020018083116147ff57829003601f168201915b505050505081526020016005820154815260200160068201805461483f90615e1f565b80601f016020809104026020016040519081016040528092919081815260200182805461486b90615e1f565b80156148b85780601f1061488d576101008083540402835291602001916148b8565b820191906000526020600020905b81548152906001019060200180831161489b57829003601f168201915b505050505081525050826001836148cf9190615fa7565b815181106148df576148df615e09565b602002602001018190525080806148f590615e53565b915050614634565b60015b600b54811161498d576000818152600560205260409081902090516149289160020190615f48565b604051809103902085805190602001200361497b5760405162461bcd60e51b81526020600482015260136024820152725573657220616c72656164792065786973747360681b6044820152606401610cf3565b8061498581615e53565b915050614900565b506001600b60008282546149a19190615df1565b90915550506040516000906149ba908590602001615f54565b60408051601f198184030181529181528151602092830120600b5460008181526005855292909220918255885190935090916149fd9160018401918a0190614c34565b508551614a139060028301906020890190614c34565b50600381018290558351614a309060048301906020870190614c34565b50600060058201558251614a4d9060068301906020860190614c34565b50600b547f56729c826fe77eec184059336ced13d9ef79d10126212c90a4d2b724391e14e288604051614a809190615824565b60405180910390a250505050505050565b60005b600087815260016020526040902060020154811015610f2b576000878152600160205260409020600201805487919083908110614ad357614ad3615e09565b90600052602060002090600902016000015403614b5e576000878152600160205260408120600201805483908110614b0d57614b0d615e09565b9060005260206000209060090201905085816001019080519060200190614b35929190614c34565b508451614b4b9060088301906020880190614c34565b5060058101849055600601829055610f2b565b80614b6881615e53565b915050614a94565b6000805b6020811015614bde57828160208110614b8f57614b8f615e09565b1a60f81b6001600160f81b031916848260208110614baf57614baf615e09565b1a60f81b6001600160f81b03191614614bcc576000915050610d03565b80614bd681615e53565b915050614b74565b5060019392505050565b6040518061012001604052806000815260200160608152602001600081526020016060815260200160008152602001600081526020016000815260200160008152602001606081525090565b828054614c4090615e1f565b90600052602060002090601f016020900481019282614c625760008555614ca8565b82601f10614c7b57805160ff1916838001178555614ca8565b82800160010185558215614ca8579182015b82811115614ca8578251825591602001919060010190614c8d565b50614cb4929150614f3c565b5090565b60405180610120016040528060008152602001606081526020016060815260200160008152602001600081526020016000815260200160008152602001600015158152602001606081525090565b6040518060e00160405280600081526020016060815260200160608152602001600080191681526020016060815260200160008152602001606081525090565b508054614d5290615e1f565b6000825580601f10614d62575050565b601f016020900490600052602060002090810190614d809190614f3c565b50565b5080546000825560090290600052602060002090810190614d809190614f51565b828054614db090615e1f565b90600052602060002090601f016020900481019282614dd25760008555614ca8565b82601f10614de35780548555614ca8565b82800160010185558215614ca857600052602060002091601f016020900482015b82811115614ca8578254825591600101919060010190614e04565b828054828255906000526020600020906009028101928215614f0f5760005260206000209160090282015b82811115614f0f5782548255600180840180548592859290830191614e6e90615e1f565b614e79929190614da4565b506002820181600201908054614e8e90615e1f565b614e99929190614da4565b5060038281015490820155600480830154908201556005808301549082015560068083015490820155600780830154908201805460ff191660ff90921615159190911790556008808301805491830191614ef290615e1f565b614efd929190614da4565b50505091600901919060090190614e4a565b50614cb4929150614fbc565b5080546000825560090290600052602060002090810190614d809190614fbc565b5b80821115614cb45760008155600101614f3d565b80821115614cb4576000808255614f6b6001830182614d46565b6002820160009055600382016000614f839190614f1b565b6004820160009055600582016000905560068201600090556007820160009055600882016000614fb39190614d46565b50600901614f51565b80821115614cb4576000808255614fd66001830182614d46565b614fe4600283016000614d46565b60006003830181905560048301819055600583018190556006830181905560078301805460ff1916905561501c906008840190614d46565b50600901614fbc565b60005b83811015615040578181015183820152602001615028565b838111156114d65750506000910152565b60008151808452615069816020860160208601615025565b601f01601f19169290920160200192915050565b600061012082518452602083015181602086015261509d82860182615051565b915050604083015184820360408601526150b78282615051565b915050606083015160608501526080830151608085015260a083015160a085015260c083015160c085015260e08301516150f560e086018215159052565b50610100808401518583038287015261510e8382615051565b9695505050505050565b600081518084526020808501808196508360051b8101915082860160005b8581101561516057828403895261514e84835161507d565b98850198935090840190600101615136565b5091979650505050505050565b600061012082518452602083015181602086015261518d82860182615051565b91505060408301516040850152606083015184820360608601526151b18282615118565b9150506080830151608085015260a083015160a085015260c083015160c085015260e083015160e0850152610100808401518583038287015261510e8382615051565b6000602080830181845280855180835260408601915060408160051b870101925083870160005b8281101561524957603f1988860301845261523785835161516d565b9450928501929085019060010161521b565b5092979650505050505050565b634e487b7160e01b600052604160045260246000fd5b60405161012081016001600160401b038111828210171561528f5761528f615256565b60405290565b604051601f8201601f191681016001600160401b03811182821017156152bd576152bd615256565b604052919050565b600082601f8301126152d657600080fd5b81356001600160401b038111156152ef576152ef615256565b615302601f8201601f1916602001615295565b81815284602083860101111561531757600080fd5b816020850160208301376000918101602001919091529392505050565b60006020828403121561534657600080fd5b81356001600160401b0381111561535c57600080fd5b615368848285016152c5565b949350505050565b6000602080830181845280855180835260408601915060408160051b870101925083870160005b8281101561524957603f198886030184526153b385835161507d565b94509285019290850190600101615397565b600080604083850312156153d857600080fd5b82356001600160401b03808211156153ef57600080fd5b6153fb868387016152c5565b9350602085013591508082111561541157600080fd5b5061541e858286016152c5565b9150509250929050565b600080600080600080600060e0888a03121561544357600080fd5b8735965060208801356001600160401b038082111561546157600080fd5b61546d8b838c016152c5565b975060408a013591508082111561548357600080fd5b61548f8b838c016152c5565b965060608a0135955060808a0135945060a08a0135935060c08a01359150808211156154ba57600080fd5b506154c78a828b016152c5565b91505092959891949750929550565b805182526000602082015160e060208501526154f560e0850182615051565b90506040830151848203604086015261550e8282615051565b91505060608301516060850152608083015184820360808601526155328282615051565b91505060a083015160a085015260c083015184820360c08601526155568282615051565b95945050505050565b602081526000610fcf60208301846154d6565b60006020828403121561558457600080fd5b5035919050565b6000806040838503121561559e57600080fd5b50508035926020909101359150565b803580151581146155bd57600080fd5b919050565b600082601f8301126155d357600080fd5b813560206001600160401b03808311156155ef576155ef615256565b8260051b6155fe838201615295565b938452858101830193838101908886111561561857600080fd5b84880192505b85831015615723578235848111156156365760008081fd5b8801610120818b03601f190181131561564f5760008081fd5b61565761526c565b878301358152604080840135888111156156715760008081fd5b61567f8e8b838801016152c5565b8a84015250606080850135898111156156985760008081fd5b6156a68f8c838901016152c5565b83850152506080915081850135818401525060a0808501358284015260c0915081850135818401525060e0808501358284015261010091506156e98286016155ad565b908301529183013591878311156157005760008081fd5b61570e8d8a858701016152c5565b9082015284525050918401919084019061561e565b98975050505050505050565b60006020828403121561574157600080fd5b81356001600160401b038082111561575857600080fd5b90830190610120828603121561576d57600080fd5b61577561526c565b8235815260208301358281111561578b57600080fd5b615797878286016152c5565b602083015250604083013560408201526060830135828111156157b957600080fd5b6157c5878286016155c2565b6060830152506080830135608082015260a083013560a082015260c083013560c082015260e083013560e0820152610100808401358381111561580757600080fd5b615813888287016152c5565b918301919091525095945050505050565b602081526000610fcf6020830184615051565b8051825260006020808301516080828601526158566080860182615051565b9050604084015185820360408701528181518084528484019150848160051b850101858401935060005b828110156158ae57601f1986830301845261589c82865161516d565b94870194938701939150600101615880565b50606088015160608a015280965050505050505092915050565b602081526000610fcf6020830184615837565b6000806000606084860312156158f057600080fd5b505081359360208301359350604090920135919050565b602081526000610fcf602083018461507d565b86815260c06020820152600061593360c0830188615051565b905085604083015284606083015283608083015282151560a0830152979650505050505050565b60008060008060008060c0878903121561597357600080fd5b863595506020870135945060408701356001600160401b038082111561599857600080fd5b6159a48a838b016152c5565b955060608901359150808211156159ba57600080fd5b6159c68a838b016152c5565b94506080890135935060a08901359150808211156159e357600080fd5b506159f089828a016152c5565b9150509295509295509295565b60008060408385031215615a1057600080fd5b8235915060208301356001600160401b03811115615a2d57600080fd5b61541e858286016152c5565b6000602080830181845280855180835260408601915060408160051b870101925083870160005b8281101561524957603f19888603018452615a7c858351615837565b94509285019290850190600101615a60565b602081526000610fcf602083018461516d565b600080600080600060a08688031215615ab957600080fd5b8535945060208601356001600160401b0380821115615ad757600080fd5b615ae389838a016152c5565b95506040880135915080821115615af957600080fd5b50615b06888289016152c5565b9598949750949560608101359550608001359392505050565b60006020808301818452808551808352604092508286019150828160051b87010184880160005b83811015615bb257603f19898403018552815160c08151855288820151818a870152615b7482870182615051565b838a0151878b0152606080850151908801526080808501519088015260a0938401511515939096019290925250509386019390860190600101615b46565b509098975050505050505050565b87815260e060208201526000615bd960e0830189615051565b8281036040840152615beb8189615051565b90508660608401528281036080840152615c058187615051565b90508460a084015282810360c0840152615c1f8185615051565b9a9950505050505050505050565b6000602080830181845280855180835260408601915060408160051b870101925083870160005b8281101561524957603f19888603018452615c708583516154d6565b94509285019290850190600101615c54565b600080600080600060a08688031215615c9a57600080fd5b85356001600160401b0380821115615cb157600080fd5b615cbd89838a016152c5565b96506020880135915080821115615cd357600080fd5b615cdf89838a016152c5565b95506040880135915080821115615cf557600080fd5b615d0189838a016152c5565b94506060880135915080821115615d1757600080fd5b615d2389838a016152c5565b93506080880135915080821115615d3957600080fd5b50615d46888289016152c5565b9150509295509295909350565b60008060008060008060c08789031215615d6c57600080fd5b863595506020870135945060408701356001600160401b0380821115615d9157600080fd5b615d9d8a838b016152c5565b95506060890135915080821115615db357600080fd5b50615dc089828a016152c5565b9350506080870135915060a087013590509295509295509295565b634e487b7160e01b600052601160045260246000fd5b60008219821115615e0457615e04615ddb565b500190565b634e487b7160e01b600052603260045260246000fd5b600181811c90821680615e3357607f821691505b60208210810361332a57634e487b7160e01b600052602260045260246000fd5b600060018201615e6557615e65615ddb565b5060010190565b60208082526024908201527f596f757220656d61696c206f722070617373776f726420697320696e636f72726040820152636563742160e01b606082015260800190565b8054600090600181811c9080831680615eca57607f831692505b60208084108203615eeb57634e487b7160e01b600052602260045260246000fd5b818015615eff5760018114615f1057615f3c565b60ff19861689528489019650615f3c565b876000528160002060005b86811015615f345781548b820152908501908301615f1b565b505084890196505b50505050505092915050565b6000610fcf8284615eb0565b60008251615f66818460208701615025565b9190910192915050565b60208082526017908201527f43617465676f727920646f6573206e6f74206578697374000000000000000000604082015260600190565b600082821015615fb957615fb9615ddb565b500390565b600081615fcd57615fcd615ddb565b506000190190565b634e487b7160e01b600052603160045260246000fdfea264697066735822122059a1273cd9937cb2b383da75becaab2b59c80acd6a822384bde7de41e8124c6764736f6c634300080d0033",
  "immutableReferences": {},
  "source": "// SPDX-License-Identifier: MIT\r\npragma solidity >=0.4.22 <0.9.0;\r\n\r\ncontract VotingSystem {\r\n    address public owner;\r\n    struct Voter {\r\n        uint256 id;\r\n        string key;\r\n        string email;\r\n        bytes32 password;\r\n        string role;\r\n        uint256 status; // 0: no verify, 1: verified, 2:banned\r\n        string token;\r\n    }\r\n\r\n    struct Event {\r\n        uint256 eventId;\r\n        string eventName;\r\n        uint256 categoryId;\r\n        Candidate[] candidates;\r\n        uint256 candidateCount;\r\n        uint256 startDateTime;\r\n        uint256 endDateTime;\r\n        uint256 status; // 1: Upcoming, 2: In Progress, 3: Completed, 4 Cancel\r\n        string eventDesc;\r\n    }\r\n\r\n    struct Category {\r\n        uint256 categoryId;\r\n        string categoryName;\r\n        Event[] events; //category has many event\r\n        uint256 status;\r\n    }\r\n\r\n    struct Candidate {\r\n        uint256 id;\r\n        string name;\r\n        string description;\r\n        uint256 studentId;\r\n        uint256 categoryId;\r\n        uint256 eventId;\r\n        uint256 voteCount;\r\n        bool win;\r\n        string imageFileName;\r\n    }\r\n\r\n    struct voteEventStruct {\r\n        uint256 id;\r\n        string voterKey;\r\n        uint256 categoryId;\r\n        uint256 eventId;\r\n        uint256 votedCandidateId;\r\n        bool voted;\r\n    }\r\n\r\n    event CategoryAdded(uint256 indexed categoryId, string categoryName);\r\n\r\n    event VoterAdded(uint256 indexed voterId, string voter_key);\r\n    event EventAdded(uint256 indexed eventId, string eventName);\r\n\r\n    event CandidateAdded(uint256 indexed eventId, string eventName);\r\n\r\n    event VoteEvent(\r\n        string indexed _voterKey,\r\n        string indexed categoryEvent,\r\n        uint256 indexed candidate\r\n    );\r\n\r\n    mapping(uint256 => Category) categories;\r\n    mapping(uint256 => Event) events;\r\n    mapping(uint256 => Candidate) candidates;\r\n    mapping(uint256 => voteEventStruct) public voteEvents;\r\n    mapping(uint256 => Voter) public voters;\r\n    mapping(string => bool) private usedImageFileNames;\r\n\r\n    uint256 categoryCount;\r\n    uint256 candidateCount;\r\n    uint256 eventCount;\r\n    uint256 voteEventCount;\r\n    uint256 voterCount;\r\n\r\n    constructor() {\r\n        owner = msg.sender;\r\n        addVoter(\"\", \"superadmin@gmail.com\", \"SuperAdmin!123\", \"S\", \"\");\r\n    }\r\n\r\n    function addVoter(\r\n         string memory _key,\r\n         string memory _email,\r\n         string memory _password,\r\n         string memory _role,\r\n         string memory _token\r\n    ) public {\r\n         for (uint256 i = 1; i <= voterCount; i++) {\r\n            require(\r\n                keccak256(bytes(_email)) != keccak256(bytes(voters[i].email)),\r\n                \"User already exists\"\r\n            );\r\n         }\r\n\r\n         // total category plus 1, use it as the category's id\r\n         voterCount += 1;\r\n\r\n         bytes32 hashedPassword = keccak256(abi.encodePacked(_password));\r\n\r\n         // add the category details in the category list\r\n         Voter storage voter = voters[voterCount];\r\n         voter.id = voterCount;\r\n         voter.key = _key;\r\n         voter.email = _email;\r\n         voter.password = hashedPassword;\r\n         voter.role = _role;\r\n         voter.status = 0;\r\n         voter.token = _token;\r\n\r\n         // emit the category added event\r\n         emit VoterAdded(voterCount, _key);\r\n    }\r\n\r\n    function loginVoter(string memory _email, string memory _password)\r\n        public\r\n        view\r\n        returns (Voter memory)\r\n    {\r\n        Voter memory voterFound = getVoterByEmailPassword(_email, _password);\r\n        require(voterFound.id != 0, \"Your email or password is incorrect!\");\r\n        require(\r\n            voterFound.status == 1,\r\n            \"Your account was banned or not verify!\"\r\n        );\r\n        return voterFound;\r\n    }\r\n\r\n    function compareHashesPassword(bytes32 inputPassword, bytes32 password)\r\n        internal\r\n        pure\r\n        returns (bool)\r\n    {\r\n        for (uint256 i = 0; i < 32; i++) {\r\n            if (inputPassword[i] != password[i]) {\r\n                return false;\r\n            }\r\n        }\r\n        return true;\r\n    }\r\n\r\n    function getVoterByEmailPassword(\r\n        string memory _email,\r\n        string memory _password\r\n    ) public view returns (Voter memory) {\r\n        bytes32 hashedPassword = keccak256(abi.encodePacked(_password));\r\n        for (uint256 i = 1; i <= voterCount; i++) {\r\n            if (\r\n                keccak256(bytes(_email)) == keccak256(bytes(voters[i].email)) &&\r\n                compareHashesPassword(hashedPassword, voters[i].password)\r\n            ) {\r\n                return voters[i];\r\n            }\r\n        }\r\n\r\n        // Event not found in the specified category\r\n        return Voter(0, \"\", \"\", \"\", \"\", 0, \"\");\r\n    }\r\n\r\n    function getVoterEmailById(uint256 _voterId)\r\n        public\r\n        view\r\n        returns (string memory)\r\n    {\r\n        require(_voterId > 0 && _voterId <= voterCount, \"Invalid voter ID\");\r\n        return voters[_voterId].email;\r\n    }\r\n\r\n    function updateVoterPassword(string memory _key, string memory _password)\r\n        public\r\n    {\r\n        require(isVoterExist(_key), \"User does not exists\");\r\n\r\n        bytes32 hashedPassword = keccak256(abi.encodePacked(_password));\r\n        for (uint256 i = 1; i <= voterCount; i++) {\r\n            if (keccak256(bytes(_key)) == keccak256(bytes(voters[i].key))) {\r\n                voters[i].password = hashedPassword;\r\n                delete voters[i].token;\r\n            }\r\n        }\r\n    } \r\n\r\n    function verifyVoterAccount(string memory _token) public returns (bool) {\r\n        require(voters[1].id != 0, \"No voter in the list!\");\r\n        for (uint256 i = 1; i <= voterCount; i++) {\r\n            if (keccak256(bytes(_token)) == keccak256(bytes(voters[i].token))) {\r\n                voters[i].status = 1;\r\n                delete voters[i].token;\r\n                return true;\r\n            }\r\n        }\r\n        return false;\r\n    }\r\n\r\n    function getVoterStatus(string memory _email, string memory _password)\r\n        public\r\n        view\r\n        returns (uint256 status)\r\n    {\r\n        Voter memory voterFound = getVoterByEmailPassword(_email, _password);\r\n        require(voterFound.id != 0, \"Your email or password is incorrect!\");\r\n        return voterFound.status;\r\n    }\r\n\r\n    function checkVoterEmailPassword(\r\n        string memory _email,\r\n        string memory _password\r\n    ) public view returns (bool foundVoter) {\r\n        Voter memory voterFound = getVoterByEmailPassword(_email, _password);\r\n\r\n        if (voterFound.id != 0) {\r\n            return true;\r\n        }\r\n        return false;\r\n    }\r\n\r\n    function isVoterExist(string memory _key) public view returns (bool) {\r\n        for (uint256 i = 1; i <= voterCount; i++) {\r\n            if (keccak256(bytes(_key)) == keccak256(bytes(voters[i].key))) {\r\n                return true;\r\n            }\r\n        }\r\n        return false;\r\n    } \r\n\r\n    function getAllVoter() public view returns (Voter[] memory) {\r\n        Voter[] memory allVoters = new Voter[](voterCount);\r\n        for (uint256 i = 1; i <= voterCount; i++) {\r\n            allVoters[i - 1] = voters[i];\r\n        }\r\n        return allVoters;\r\n    }\r\n\r\n    function editUserStatus(uint256 _id, uint256 _status) public {\r\n        require(_id > 0 && _id <= voterCount, \"User does not exist.\");\r\n\r\n        voters[_id].status = _status;\r\n    } \r\n\r\n    // Function to update the token of a voter based on their email\r\n    function updateVoterTokenByEmail(string memory _email, string memory _newToken) public {\r\n        for (uint256 i = 1; i <= voterCount; i++) {\r\n            // Update the token if the email matches\r\n            if (keccak256(bytes(_email)) == keccak256(bytes(voters[i].email))) {\r\n                voters[i].token = _newToken;\r\n                break;\r\n            }\r\n        }\r\n    }\r\n\r\n    function addCategory(string memory _categoryName) public {\r\n        // total category plus 1, use it as the category's id\r\n        categoryCount += 1;\r\n\r\n        // add the category details in the category list\r\n        Category storage category = categories[categoryCount];\r\n        category.categoryName = _categoryName;\r\n        category.categoryId = categoryCount;\r\n        category.status = 1;\r\n\r\n        // emit the category added event\r\n        emit CategoryAdded(categoryCount, _categoryName);\r\n    } \r\n\r\n    function updateCategory(uint256 _categoryId, string memory _categoryName) public {\r\n            categories[_categoryId].categoryName = _categoryName;\r\n    } \r\n\r\n    function deleteCategory(uint256 _categoryId) public {\r\n        // If no associated events, candidates, or vote events, delete the category\r\n        delete categories[_categoryId];\r\n    } \r\n\r\n    function getAllVotedHistory(string memory _userKey) public view returns (voteEventStruct[] memory) {\r\n        // Check if there are any candidates associated with the category\r\n        voteEventStruct[] memory voteEventFound = new voteEventStruct[](\r\n            voteEventCount\r\n        );\r\n        uint256 count = 0;\r\n        for (uint256 i = 1; i <= voteEventCount; i++) {\r\n            if ( keccak256(bytes(voteEvents[i].voterKey)) ==  keccak256(bytes(_userKey))) {\r\n                // Store the matching vote event in the array\r\n                voteEventFound[count] = voteEvents[i];\r\n                count += 1;\r\n            }\r\n        }\r\n\r\n        // Resize the array to remove any unused slots\r\n        assembly {\r\n            mstore(voteEventFound, count)\r\n        }\r\n\r\n        // Return the dynamic array of matching vote events\r\n        return voteEventFound;\r\n    }\r\n\r\n    function addEvent(\r\n        uint256 _categoryId,\r\n        string memory _eventName,\r\n        string memory _eventDesc,\r\n        uint256 _startDateTime,\r\n        uint256 _endDateTime\r\n    ) public {\r\n        // find out the category in list by using the paramerter category name\r\n        Category storage category = categories[_categoryId];\r\n\r\n        // add the event in the category list\r\n        uint256 eventId = eventCount += 1;\r\n\r\n        Event storage newEvent = category.events.push();\r\n        newEvent.eventId = eventId;\r\n        newEvent.eventName = _eventName;\r\n        newEvent.eventDesc = _eventDesc;\r\n        newEvent.categoryId = _categoryId;\r\n        newEvent.status = 1;\r\n        newEvent.startDateTime = _startDateTime;\r\n        newEvent.endDateTime = _endDateTime;\r\n    }\r\n\r\n/*\r\n    function isEventExists(uint256 _categoryId, string memory _eventName)\r\n        public\r\n        view\r\n        returns (bool)\r\n    {\r\n        // Check if the category exists\r\n        require(\r\n            categories[_categoryId].categoryId != 0,\r\n            \"Category does not exist\"\r\n        );\r\n\r\n        // Loop through the events in the specified category\r\n        for (uint256 i = 0; i < categories[_categoryId].events.length; i++) {\r\n            if (\r\n                keccak256(bytes(categories[_categoryId].events[i].eventName)) ==\r\n                keccak256(bytes(_eventName))\r\n            ) {\r\n                // Event found\r\n                return true;\r\n            }\r\n        }\r\n        // Event not found in the specified category\r\n        return false;\r\n    } */\r\n\r\n    // function isEventStart(\r\n    //     uint256 _categoryId,\r\n    //     string memory _eventName,\r\n    //     uint256 _startDateTime\r\n    // ) public view returns (bool) {\r\n    //     // Check if the category exists\r\n    //     require(\r\n    //         categories[_categoryId].categoryId != 0,\r\n    //         \"Category does not exist\"\r\n    //     );\r\n\r\n    //     require(\r\n    //         isEventExists(_categoryId, _eventName) == true,\r\n    //         \"Event does not exist\"\r\n    //     );\r\n\r\n    //     // Loop through the events in the specified category\r\n    //     for (uint256 i = 0; i < categories[_categoryId].events.length; i++) {\r\n    //         if (\r\n    //             (keccak256(\r\n    //                 bytes(categories[_categoryId].events[i].eventName)\r\n    //             ) ==\r\n    //                 keccak256(bytes(_eventName)) &&\r\n    //                 (_startDateTime >=\r\n    //                     categories[_categoryId].events[i].startDateTime))\r\n    //         ) {\r\n    //             return true;\r\n    //         }\r\n    //     }\r\n\r\n    //     // Event not found in the specified category\r\n    //     return false;\r\n    // }\r\n\r\n    function updateEventDetails(\r\n        uint256 _categoryId,\r\n        uint256 _eventId,\r\n        string memory _eventName,\r\n        string memory _eventDesc,\r\n        uint256 _startDateTime,\r\n        uint256 _endDateTime\r\n    ) public {\r\n        for (uint256 i = 0; i < categories[_categoryId].events.length; i++) {\r\n            if (categories[_categoryId].events[i].eventId == _eventId) {\r\n                Event storage eventToUpdate = categories[_categoryId].events[i];\r\n                // Update the event details\r\n                eventToUpdate.eventName = _eventName;\r\n                eventToUpdate.eventDesc = _eventDesc;\r\n                eventToUpdate.startDateTime = _startDateTime;\r\n                eventToUpdate.endDateTime = _endDateTime;\r\n                break;\r\n            }\r\n        }\r\n    }\r\n\r\n    function deleteEvent(uint256 _categoryId, uint256 _eventId) public {\r\n        for (uint256 i = 0; i < categories[_categoryId].events.length; i++) {\r\n            if (categories[_categoryId].events[i].eventId == _eventId) {\r\n                categories[_categoryId].events[i] = categories[_categoryId].events[categories[_categoryId].events.length - 1];\r\n                categories[_categoryId].events.pop();\r\n                break;\r\n            }\r\n        }\r\n    }\r\n\r\n    function updateEvent(Event memory _event) public {\r\n        // check if the category is exist\r\n        require(\r\n            categories[_event.categoryId].categoryId != 0,\r\n            \"Category does not exists\"\r\n        );\r\n        require(\r\n            isEventExists(_event.categoryId, _event.eventId),\r\n            \"Event does not exist!\"\r\n        );\r\n        // add the category details in the category list\r\n        Event storage eventToUpdate = categories[_event.categoryId].events[\r\n            _event.eventId - 1\r\n        ];\r\n\r\n        eventToUpdate.eventName = _event.eventName;\r\n        eventToUpdate.status = _event.status;\r\n    }\r\n\r\n    function addCandidateToEvent(\r\n        uint256 _categoryId,\r\n        uint256 _eventId,\r\n        string memory _candidateName,\r\n        string memory _description,\r\n        uint256 _studentId,\r\n        string memory _imageFileName\r\n    ) public {\r\n        candidateCount += 1;\r\n\r\n        // Create a new candidate\r\n        Candidate memory newCandidate = Candidate({\r\n            id: candidateCount,\r\n            name: _candidateName,\r\n            studentId: _studentId,\r\n            categoryId: _categoryId,\r\n            eventId: _eventId,\r\n            description: _description,\r\n            win: false,\r\n            voteCount: 0,\r\n            imageFileName: _imageFileName\r\n        });\r\n\r\n        // find the certain category\r\n        Category storage category = categories[_categoryId];\r\n        // find the certain event in certain category\r\n        for (uint256 i = 0; i < category.events.length; i++) {\r\n            if (category.events[i].eventId == _eventId) {\r\n                category.events[i].candidates.push(newCandidate);\r\n                category.events[i].candidateCount += 1;\r\n            }\r\n        }\r\n\r\n        // Mark the image file name as used\r\n        usedImageFileNames[_imageFileName] = true;\r\n    } \r\n\r\n    function updateCandidateDetails(\r\n        uint256 _id,\r\n        string memory _name,\r\n        string memory _description,\r\n        uint256 _studentId,\r\n        uint256 _categoryId,\r\n        uint256 _eventId,\r\n        string memory _imageFileName\r\n    ) public {\r\n        for (uint256 i = 0; i < categories[_categoryId].events.length; i++) {\r\n            if (categories[_categoryId].events[i].eventId == _eventId) {\r\n                Event storage myEvent = categories[_categoryId].events[i];\r\n\r\n                for (uint256 j = 0; j < myEvent.candidates.length; j++) {\r\n                    if (myEvent.candidates[j].id == _id) {\r\n                        Candidate storage candidateToUpdate = myEvent.candidates[j];\r\n                        candidateToUpdate.name = _name;\r\n                        candidateToUpdate.description = _description;\r\n                        candidateToUpdate.studentId = _studentId;\r\n\r\n                        if (bytes(_imageFileName).length > 0 && keccak256(bytes(candidateToUpdate.imageFileName)) != keccak256(bytes(_imageFileName))) {\r\n                            if (bytes(candidateToUpdate.imageFileName).length > 0) {\r\n                                usedImageFileNames[candidateToUpdate.imageFileName] = false;\r\n                            }\r\n                            candidateToUpdate.imageFileName = _imageFileName;\r\n                            usedImageFileNames[_imageFileName] = true;\r\n                        }\r\n                        return;\r\n                    }\r\n                }\r\n            }\r\n        }\r\n    }\r\n\r\n    function deleteCandidate(uint256 _categoryId, uint256 _eventId, uint256 _candidateId) public {\r\n        for (uint256 i = 0; i < categories[_categoryId].events.length; i++) {\r\n            if (categories[_categoryId].events[i].eventId == _eventId) {\r\n                Event storage myEvent = categories[_categoryId].events[i];\r\n\r\n                for (uint256 j = 0; j < myEvent.candidates.length; j++) {\r\n                    if (myEvent.candidates[j].id == _candidateId) {\r\n                        myEvent.candidateCount--;\r\n                        myEvent.candidates[j] = myEvent.candidates[myEvent.candidates.length - 1];\r\n                        myEvent.candidates.pop();\r\n                        return;\r\n                    }\r\n                }\r\n            }\r\n        }\r\n    }\r\n\r\n    function isImageFileNameUsed(string memory _imageFileName)\r\n        public\r\n        view\r\n        returns (bool)\r\n    {\r\n        return usedImageFileNames[_imageFileName];\r\n    } \r\n\r\n    function isCandidateExistsInEvent(\r\n        uint256 _categoryId,\r\n        uint256 _eventId,\r\n        uint256 _studentId\r\n    ) public view returns (bool) {\r\n        // Check if the category exists\r\n        require(\r\n            categories[_categoryId].categoryId != 0,\r\n            \"Category does not exist\"\r\n        );\r\n\r\n        Candidate[] memory candidatesFound = getAllCandidatesInEvent(\r\n            _categoryId,\r\n            _eventId\r\n        );\r\n\r\n        // Loop through the events in the specified category\r\n\r\n        for (uint256 i = 0; i < candidatesFound.length; i++) {\r\n            if (candidatesFound[i].studentId == _studentId) {\r\n                return true;\r\n            }\r\n        }\r\n\r\n        // Event not found in the specified category\r\n        return false;\r\n    }\r\n\r\n    function isCandidateExistsInEventById(\r\n        uint256 _categoryId,\r\n        uint256 _eventId,\r\n        uint256 _candidateId\r\n    ) public view returns (bool) {\r\n        // Check if the category exists\r\n        require(\r\n            categories[_categoryId].categoryId != 0,\r\n            \"Category does not exist\"\r\n        );\r\n\r\n        Candidate[] memory candidatesFound = getAllCandidatesInEvent(\r\n            _categoryId,\r\n            _eventId\r\n        );\r\n\r\n        // Loop through the events in the specified category\r\n\r\n        for (uint256 i = 0; i < candidatesFound.length; i++) {\r\n            if (candidatesFound[i].id == _candidateId) {\r\n                return true;\r\n            }\r\n        }\r\n\r\n        // Event not found in the specified category\r\n        return false;\r\n    }\r\n\r\n    function isEventExists(uint256 _categoryId, uint256 _eventId)\r\n        public\r\n        view\r\n        returns (bool)\r\n    {\r\n        // Check if the category exists\r\n        require(\r\n            categories[_categoryId].categoryId != 0,\r\n            \"Category does not exist\"\r\n        );\r\n\r\n        // Loop through the events in the specified category\r\n        for (uint256 i = 0; i < categories[_categoryId].events.length; i++) {\r\n            if (categories[_categoryId].events[i].eventId == _eventId) {\r\n                // Event found\r\n                return true;\r\n            }\r\n        }\r\n\r\n        // Event not found in the specified category\r\n        return false;\r\n    }\r\n\r\n    function getAllCategoryEvent(uint256 _categoryId)\r\n        public\r\n        view\r\n        returns (Event[] memory foundEvent)\r\n    {\r\n        // find the certain category\r\n        Category storage category = categories[_categoryId];\r\n\r\n        // declare an array variable for storing events\r\n        Event[] memory eventsFound = new Event[](category.events.length);\r\n\r\n        // get all the event name by searching the event in list\r\n        for (uint256 i = 0; i < category.events.length; i++) {\r\n            eventsFound[i] = category.events[i];\r\n        }\r\n\r\n        return (eventsFound);\r\n    }\r\n\r\n    function getAllCandidatesInEvent(uint256 _categoryId, uint256 _eventId)\r\n        public\r\n        view\r\n        returns (Candidate[] memory foundCandidates)\r\n    {\r\n        // find the certain category\r\n        Category storage category = categories[_categoryId];\r\n        // find the certain event in certain category\r\n        for (uint256 i = 0; i < category.events.length; i++) {\r\n            if (category.events[i].eventId == _eventId) {\r\n                Candidate[] memory candidatesFound = new Candidate[](\r\n                    category.events[i].candidateCount\r\n                );\r\n\r\n                for (\r\n                    uint256 j = 0;\r\n                    j < category.events[i].candidates.length;\r\n                    j++\r\n                ) {\r\n                    candidatesFound[j] = category.events[i].candidates[j];\r\n                }\r\n                return (candidatesFound);\r\n            }\r\n        }\r\n    }\r\n\r\n    function getAllCandidates() public view returns (Candidate[] memory) {\r\n        Candidate[] memory candidatesFound = new Candidate[](candidateCount);\r\n        Event[] memory eventFound = new Event[](eventCount);\r\n\r\n        // get all the events\r\n        eventFound = getAllEvent();\r\n        uint256 count = 0;\r\n        // find the candidates inside all the event\r\n        for (uint256 i = 0; i < eventCount; i++) {\r\n            for (uint256 j = 0; j < eventFound[i].candidates.length; j++) {\r\n                candidatesFound[count] = eventFound[i].candidates[j];\r\n                count += 1;\r\n            }\r\n        }\r\n\r\n        return candidatesFound;\r\n    }\r\n\r\n    function getAllCategory() public view returns (Category[] memory) {\r\n        //Candidate[] memory candidatesFound = new Candidate[](candidateCount);\r\n        Category[] memory categoriesFound = new Category[](categoryCount);\r\n        // Iterate through all stored structs\r\n        for (uint256 i = 1; i <= categoryCount; i++) {\r\n            categoriesFound[i - 1] = categories[i];\r\n        }\r\n\r\n        return categoriesFound;\r\n    }\r\n\r\n    function getCategoryById(uint256 _categoryId)\r\n        public\r\n        view\r\n        returns (Category memory)\r\n    {\r\n        return categories[_categoryId];\r\n    }\r\n\r\n    function getAllEvent() public view returns (Event[] memory) {\r\n        // Initialize the array with the correct size\r\n        Event[] memory eventFound = new Event[](eventCount);\r\n        uint256 count = 0;\r\n\r\n        // Iterate through all categories and events\r\n        for (uint256 i = 0; i < categoryCount; i++) {\r\n            for (uint256 j = 0; j < categories[i + 1].events.length; j++) {\r\n                eventFound[count] = categories[i + 1].events[j];\r\n                count += 1;\r\n            }\r\n        }\r\n\r\n        return eventFound;\r\n    }\r\n\r\n    function getEventById(uint256 _categoryId, uint256 _eventId)\r\n        public\r\n        view\r\n        returns (Event memory)\r\n    {\r\n        Category memory categoriesFound = categories[_categoryId];\r\n        Event memory eventFound;\r\n        // Iterate through all stored structs\r\n        for (uint256 i = 0; i < categoriesFound.events.length; i++) {\r\n            if (categoriesFound.events[i].eventId == _eventId) {\r\n                eventFound = categoriesFound.events[i];\r\n            }\r\n        }\r\n\r\n        return eventFound;\r\n    }\r\n\r\n\r\n    function getCandidateById(uint256 _categoryId, uint256 _eventId, uint256 _candidateId)\r\n        public\r\n        view\r\n        returns (Candidate memory)\r\n    {\r\n        Category memory categoryFound = categories[_categoryId];\r\n        Event memory eventFound;\r\n        Candidate memory candidateFound;\r\n\r\n        for (uint256 i = 0; i < categoryFound.events.length; i++) {\r\n            if (categoryFound.events[i].eventId == _eventId) {\r\n                eventFound = categoryFound.events[i];\r\n                for (uint256 j = 0; j < eventFound.candidates.length; j++) {\r\n                    if (eventFound.candidates[j].id == _candidateId) {\r\n                        candidateFound = eventFound.candidates[j];\r\n                        break; // Candidate found, break from the inner loop\r\n                    }\r\n                }\r\n                break; // Event found, break from the outer loop\r\n            }\r\n        }\r\n\r\n        return candidateFound;\r\n    }\r\n\r\n    /* function vote(\r\n        string memory _voterKey,\r\n        uint256 _candidateId,\r\n        uint256 _categoryId,\r\n        uint256 _eventId\r\n    ) external {\r\n        require(\r\n            categories[_categoryId].categoryId != 0,\r\n            \"Category does not exists\"\r\n        );\r\n\r\n        require(eventCount != 0, \"Event does not exists\");\r\n\r\n        // for (uint256 i = 1; i <= categories[_categoryId].events.length; i++) {\r\n        //     require(categories[_categoryId].events[i-0].eventId == _eventId, \"noobbbbb\");\r\n        // }\r\n\r\n        require(\r\n            isCandidateExistsInEventById(_categoryId, _eventId, _candidateId) ==\r\n                true,\r\n            \"Candidates does not exists\"\r\n        );\r\n\r\n        // check if has voted\r\n        for (uint256 i = 1; i <= voteEventCount; i++) {\r\n            if (\r\n                keccak256(bytes(_voterKey)) ==\r\n                keccak256(bytes(voteEvents[i].voterKey)) &&\r\n                _categoryId == voteEvents[i].categoryId &&\r\n                _eventId == voteEvents[i].eventId\r\n            ) {\r\n                require(!voteEvents[i].voted, \"You already voted\");\r\n                break;\r\n            }\r\n        }\r\n\r\n        // add count on the candidate\r\n        voteEventCount += 1;\r\n\r\n        // Create a new voteEventStruct\r\n        voteEventStruct memory newVoteEvent = voteEventStruct({\r\n            id: voteEventCount,\r\n            voterKey: _voterKey,\r\n            categoryId: _categoryId,\r\n            eventId: _eventId,\r\n            votedCandidateId : _candidateId,\r\n            voted: true\r\n        });\r\n\r\n        voteEvents[voteEventCount] = newVoteEvent;\r\n\r\n        // add the vote count of the chosen candidate\r\n        addVoteCountIn(_categoryId, _eventId, _candidateId);\r\n\r\n        string memory concatenatedValues = string(\r\n            abi.encodePacked(_categoryId, _eventId)\r\n        );\r\n\r\n        emit VoteEvent(_voterKey, concatenatedValues, _candidateId);\r\n    }\r\n\r\n    function addVoteCountIn(\r\n        uint256 _categoryId,\r\n        uint256 _eventId,\r\n        uint256 _candidateId\r\n    ) internal {\r\n        // get the events inside the categories\r\n        Event[] storage eventsFound = categories[_categoryId].events;\r\n\r\n        // find the event with param\r\n        for (uint256 i = 0; i < eventsFound.length; i++) {\r\n            if (eventsFound[i].eventId == _eventId) {\r\n                // get the candidate inside the event\r\n                Candidate[] storage candidatesFound = eventsFound[i].candidates;\r\n                // find the candidate\r\n                for (uint256 j = 0; j < candidatesFound.length; j++) {\r\n                    if (candidatesFound[j].id == _candidateId) {\r\n                        // found the candidate and plus 1 at the voteCount\r\n                        candidatesFound[j].voteCount += 1;\r\n                        break;\r\n                    }\r\n                }\r\n            }\r\n        }\r\n    }\r\n\r\n    function isVoted(\r\n        uint256 _categoryId,\r\n        uint256 _eventId,\r\n        string memory _voterKey\r\n    ) public view returns (bool) {\r\n        // Check if the category exists\r\n        require(\r\n            categories[_categoryId].categoryId != 0,\r\n            \"Category does not exist\"\r\n        );\r\n\r\n        for (uint256 i = 1; i <= voteEventCount; i++) {\r\n            if (\r\n                voteEvents[i].categoryId == _categoryId &&\r\n                voteEvents[i].eventId == _eventId &&\r\n                keccak256(bytes(voteEvents[i].voterKey)) ==\r\n                keccak256(bytes(_voterKey))\r\n            ) {\r\n                return voteEvents[i].voted;\r\n            }\r\n        }\r\n\r\n        return false;\r\n    }\r\n\r\n    function getVoteEventCandidate(uint256 _categoryId, uint256 _eventId)\r\n        public\r\n        view\r\n        returns (Candidate[] memory)\r\n    {\r\n        Event[] memory eventsFound = categories[_categoryId].events;\r\n\r\n        for (uint256 i = 0; i < eventsFound.length; i++) {\r\n            if (eventsFound[i].eventId == _eventId) {\r\n                return eventsFound[i].candidates;\r\n            }\r\n        }\r\n\r\n        // If the event is not found, return an empty array or handle the situation accordingly\r\n        return new Candidate[](0);\r\n    }\r\n\r\n    function markWinner(uint256 _categoryId, uint256 _eventId) public {\r\n        categories[_categoryId].events;\r\n\r\n        for (uint256 i = 0; i < categories[_categoryId].events.length; i++) {\r\n            if (categories[_categoryId].events[i].eventId == _eventId) {\r\n                Candidate storage winner = categories[_categoryId]\r\n                    .events[i]\r\n                    .candidates[0];\r\n                for (\r\n                    uint256 j = 0;\r\n                    j < categories[_categoryId].events[i].candidates.length - 1;\r\n                    j++\r\n                ) {\r\n                    if (\r\n                        winner.voteCount <\r\n                        categories[_categoryId]\r\n                            .events[i]\r\n                            .candidates[j + 1]\r\n                            .voteCount\r\n                    ) {\r\n                        winner = categories[_categoryId].events[i].candidates[\r\n                            j + 1\r\n                        ];\r\n                    }\r\n                }\r\n                winner.win = true;\r\n            }\r\n        }\r\n    }\r\n\r\n    function isMarkWinner(uint256 _categoryId, uint256 _eventId)\r\n        public\r\n        view\r\n        returns (bool isMarket)\r\n    {\r\n        Event[] memory eventsFound = categories[_categoryId].events;\r\n        Candidate[] memory candidatesFound;\r\n\r\n        for (uint256 i = 0; i < eventsFound.length; i++) {\r\n            if (eventsFound[i].eventId == _eventId) {\r\n                candidatesFound = eventsFound[i].candidates;\r\n            }\r\n        }\r\n\r\n        for (uint256 i = 0; i < candidatesFound.length - 1; i++) {\r\n            if (candidatesFound[i].win == true) {\r\n                return true;\r\n            }\r\n        }\r\n        return false;\r\n    }\r\n\r\n    function whoIsTheWinner(uint256 _categoryId, uint256 _eventId)\r\n        public\r\n        view\r\n        returns (Candidate memory)\r\n    {\r\n        Event[] memory eventsFound = categories[_categoryId].events;\r\n        Candidate[] memory candidatesFound;\r\n\r\n        for (uint256 i = 0; i < eventsFound.length; i++) {\r\n            if (eventsFound[i].eventId == _eventId) {\r\n                candidatesFound = eventsFound[i].candidates;\r\n            }\r\n        }\r\n\r\n        Candidate memory winner = candidatesFound[0];\r\n\r\n        for (uint256 i = 0; i < candidatesFound.length - 1; i++) {\r\n            if (winner.voteCount < candidatesFound[i + 1].voteCount) {\r\n                winner = candidatesFound[i + 1];\r\n            }\r\n        }\r\n\r\n        winner.win = true;\r\n\r\n        return winner;\r\n    } */\r\n}",
  "sourcePath": "C:\\Users\\User\\FYP1\\contracts\\VotingSystem.sol",
  "compiler": {
    "name": "solc",
    "version": "0.8.13+commit.abaa5c0e.Emscripten.clang"
  },
  "schemaVersion": "3.4.16",
  "updatedAt": "2023-12-21T08:20:34.513Z",
  "devdoc": {
    "kind": "dev",
    "methods": {},
    "version": 1
  },
  "userdoc": {
    "kind": "user",
    "methods": {},
    "version": 1
  }
}