{
  "contractName": "VotingSystem",
  "abi": [
    {
      "inputs": [],
      "stateMutability": "nonpayable",
      "type": "constructor"
    },
    {
      "anonymous": false,
      "inputs": [
        {
          "indexed": true,
          "internalType": "uint256",
          "name": "eventId",
          "type": "uint256"
        },
        {
          "indexed": false,
          "internalType": "string",
          "name": "eventName",
          "type": "string"
        }
      ],
      "name": "CandidateAdded",
      "type": "event"
    },
    {
      "anonymous": false,
      "inputs": [
        {
          "indexed": true,
          "internalType": "uint256",
          "name": "categoryId",
          "type": "uint256"
        },
        {
          "indexed": false,
          "internalType": "string",
          "name": "categoryName",
          "type": "string"
        }
      ],
      "name": "CategoryAdded",
      "type": "event"
    },
    {
      "anonymous": false,
      "inputs": [
        {
          "indexed": true,
          "internalType": "uint256",
          "name": "eventId",
          "type": "uint256"
        },
        {
          "indexed": false,
          "internalType": "string",
          "name": "eventName",
          "type": "string"
        }
      ],
      "name": "EventAdded",
      "type": "event"
    },
    {
      "anonymous": false,
      "inputs": [
        {
          "indexed": true,
          "internalType": "uint256",
          "name": "voterId",
          "type": "uint256"
        },
        {
          "indexed": true,
          "internalType": "string",
          "name": "categoryEvent",
          "type": "string"
        },
        {
          "indexed": true,
          "internalType": "uint256",
          "name": "candidate",
          "type": "uint256"
        }
      ],
      "name": "VoteEvent",
      "type": "event"
    },
    {
      "anonymous": false,
      "inputs": [
        {
          "indexed": true,
          "internalType": "uint256",
          "name": "voterId",
          "type": "uint256"
        },
        {
          "indexed": false,
          "internalType": "string",
          "name": "voter_key",
          "type": "string"
        }
      ],
      "name": "VoterAdded",
      "type": "event"
    },
    {
      "inputs": [],
      "name": "owner",
      "outputs": [
        {
          "internalType": "address",
          "name": "",
          "type": "address"
        }
      ],
      "stateMutability": "view",
      "type": "function",
      "constant": true
    },
    {
      "inputs": [
        {
          "internalType": "uint256",
          "name": "",
          "type": "uint256"
        }
      ],
      "name": "voteEvents",
      "outputs": [
        {
          "internalType": "uint256",
          "name": "id",
          "type": "uint256"
        },
        {
          "internalType": "uint256",
          "name": "voterId",
          "type": "uint256"
        },
        {
          "internalType": "uint256",
          "name": "categoryId",
          "type": "uint256"
        },
        {
          "internalType": "uint256",
          "name": "eventId",
          "type": "uint256"
        },
        {
          "internalType": "bool",
          "name": "voted",
          "type": "bool"
        }
      ],
      "stateMutability": "view",
      "type": "function",
      "constant": true
    },
    {
      "inputs": [
        {
          "internalType": "uint256",
          "name": "",
          "type": "uint256"
        }
      ],
      "name": "voters",
      "outputs": [
        {
          "internalType": "uint256",
          "name": "id",
          "type": "uint256"
        },
        {
          "internalType": "string",
          "name": "key",
          "type": "string"
        },
        {
          "internalType": "string",
          "name": "email",
          "type": "string"
        },
        {
          "internalType": "bytes32",
          "name": "password",
          "type": "bytes32"
        },
        {
          "internalType": "string",
          "name": "role",
          "type": "string"
        },
        {
          "internalType": "uint256",
          "name": "status",
          "type": "uint256"
        },
        {
          "internalType": "string",
          "name": "token",
          "type": "string"
        }
      ],
      "stateMutability": "view",
      "type": "function",
      "constant": true
    },
    {
      "inputs": [
        {
          "internalType": "string",
          "name": "_key",
          "type": "string"
        },
        {
          "internalType": "string",
          "name": "_email",
          "type": "string"
        },
        {
          "internalType": "string",
          "name": "_password",
          "type": "string"
        },
        {
          "internalType": "string",
          "name": "_role",
          "type": "string"
        },
        {
          "internalType": "string",
          "name": "_token",
          "type": "string"
        }
      ],
      "name": "addVoter",
      "outputs": [],
      "stateMutability": "nonpayable",
      "type": "function"
    },
    {
      "inputs": [
        {
          "internalType": "string",
          "name": "_email",
          "type": "string"
        },
        {
          "internalType": "string",
          "name": "_password",
          "type": "string"
        }
      ],
      "name": "loginVoter",
      "outputs": [
        {
          "components": [
            {
              "internalType": "uint256",
              "name": "id",
              "type": "uint256"
            },
            {
              "internalType": "string",
              "name": "key",
              "type": "string"
            },
            {
              "internalType": "string",
              "name": "email",
              "type": "string"
            },
            {
              "internalType": "bytes32",
              "name": "password",
              "type": "bytes32"
            },
            {
              "internalType": "string",
              "name": "role",
              "type": "string"
            },
            {
              "internalType": "uint256",
              "name": "status",
              "type": "uint256"
            },
            {
              "internalType": "string",
              "name": "token",
              "type": "string"
            }
          ],
          "internalType": "struct VotingSystem.Voter",
          "name": "",
          "type": "tuple"
        }
      ],
      "stateMutability": "view",
      "type": "function",
      "constant": true
    },
    {
      "inputs": [
        {
          "internalType": "string",
          "name": "_email",
          "type": "string"
        },
        {
          "internalType": "string",
          "name": "_password",
          "type": "string"
        }
      ],
      "name": "getVoterByEmailPassword",
      "outputs": [
        {
          "components": [
            {
              "internalType": "uint256",
              "name": "id",
              "type": "uint256"
            },
            {
              "internalType": "string",
              "name": "key",
              "type": "string"
            },
            {
              "internalType": "string",
              "name": "email",
              "type": "string"
            },
            {
              "internalType": "bytes32",
              "name": "password",
              "type": "bytes32"
            },
            {
              "internalType": "string",
              "name": "role",
              "type": "string"
            },
            {
              "internalType": "uint256",
              "name": "status",
              "type": "uint256"
            },
            {
              "internalType": "string",
              "name": "token",
              "type": "string"
            }
          ],
          "internalType": "struct VotingSystem.Voter",
          "name": "",
          "type": "tuple"
        }
      ],
      "stateMutability": "view",
      "type": "function",
      "constant": true
    },
    {
      "inputs": [
        {
          "internalType": "string",
          "name": "_key",
          "type": "string"
        },
        {
          "internalType": "string",
          "name": "_password",
          "type": "string"
        }
      ],
      "name": "updateVoterPassword",
      "outputs": [],
      "stateMutability": "nonpayable",
      "type": "function"
    },
    {
      "inputs": [
        {
          "internalType": "string",
          "name": "_token",
          "type": "string"
        }
      ],
      "name": "verifyVoterAccount",
      "outputs": [
        {
          "internalType": "bool",
          "name": "",
          "type": "bool"
        }
      ],
      "stateMutability": "nonpayable",
      "type": "function"
    },
    {
      "inputs": [
        {
          "internalType": "string",
          "name": "_email",
          "type": "string"
        },
        {
          "internalType": "string",
          "name": "_password",
          "type": "string"
        }
      ],
      "name": "getVoterStatus",
      "outputs": [
        {
          "internalType": "uint256",
          "name": "status",
          "type": "uint256"
        }
      ],
      "stateMutability": "view",
      "type": "function",
      "constant": true
    },
    {
      "inputs": [
        {
          "internalType": "string",
          "name": "_email",
          "type": "string"
        },
        {
          "internalType": "string",
          "name": "_password",
          "type": "string"
        }
      ],
      "name": "checkVoterEmailPassword",
      "outputs": [
        {
          "internalType": "bool",
          "name": "foundVoter",
          "type": "bool"
        }
      ],
      "stateMutability": "view",
      "type": "function",
      "constant": true
    },
    {
      "inputs": [
        {
          "internalType": "string",
          "name": "_key",
          "type": "string"
        }
      ],
      "name": "isVoterExist",
      "outputs": [
        {
          "internalType": "bool",
          "name": "",
          "type": "bool"
        }
      ],
      "stateMutability": "view",
      "type": "function",
      "constant": true
    },
    {
      "inputs": [
        {
          "internalType": "string",
          "name": "_categoryName",
          "type": "string"
        }
      ],
      "name": "addCategory",
      "outputs": [],
      "stateMutability": "nonpayable",
      "type": "function"
    },
    {
      "inputs": [
        {
          "components": [
            {
              "internalType": "uint256",
              "name": "categoryId",
              "type": "uint256"
            },
            {
              "internalType": "string",
              "name": "categoryName",
              "type": "string"
            },
            {
              "components": [
                {
                  "internalType": "uint256",
                  "name": "eventId",
                  "type": "uint256"
                },
                {
                  "internalType": "string",
                  "name": "eventName",
                  "type": "string"
                },
                {
                  "internalType": "uint256",
                  "name": "categoryId",
                  "type": "uint256"
                },
                {
                  "components": [
                    {
                      "internalType": "uint256",
                      "name": "id",
                      "type": "uint256"
                    },
                    {
                      "internalType": "string",
                      "name": "name",
                      "type": "string"
                    },
                    {
                      "internalType": "string",
                      "name": "description",
                      "type": "string"
                    },
                    {
                      "internalType": "uint256",
                      "name": "studentId",
                      "type": "uint256"
                    },
                    {
                      "internalType": "uint256",
                      "name": "categoryId",
                      "type": "uint256"
                    },
                    {
                      "internalType": "uint256",
                      "name": "eventId",
                      "type": "uint256"
                    },
                    {
                      "internalType": "uint256",
                      "name": "voteCount",
                      "type": "uint256"
                    },
                    {
                      "internalType": "bool",
                      "name": "win",
                      "type": "bool"
                    },
                    {
                      "internalType": "string",
                      "name": "imageFileName",
                      "type": "string"
                    }
                  ],
                  "internalType": "struct VotingSystem.Candidate[]",
                  "name": "candidates",
                  "type": "tuple[]"
                },
                {
                  "internalType": "uint256",
                  "name": "candidateCount",
                  "type": "uint256"
                },
                {
                  "internalType": "uint256",
                  "name": "status",
                  "type": "uint256"
                }
              ],
              "internalType": "struct VotingSystem.Event[]",
              "name": "events",
              "type": "tuple[]"
            },
            {
              "internalType": "uint256",
              "name": "status",
              "type": "uint256"
            }
          ],
          "internalType": "struct VotingSystem.Category",
          "name": "_category",
          "type": "tuple"
        }
      ],
      "name": "updateCategory",
      "outputs": [],
      "stateMutability": "nonpayable",
      "type": "function"
    },
    {
      "inputs": [
        {
          "internalType": "uint256",
          "name": "_categoryId",
          "type": "uint256"
        },
        {
          "internalType": "string",
          "name": "_eventName",
          "type": "string"
        }
      ],
      "name": "addEvent",
      "outputs": [],
      "stateMutability": "nonpayable",
      "type": "function"
    },
    {
      "inputs": [
        {
          "components": [
            {
              "internalType": "uint256",
              "name": "eventId",
              "type": "uint256"
            },
            {
              "internalType": "string",
              "name": "eventName",
              "type": "string"
            },
            {
              "internalType": "uint256",
              "name": "categoryId",
              "type": "uint256"
            },
            {
              "components": [
                {
                  "internalType": "uint256",
                  "name": "id",
                  "type": "uint256"
                },
                {
                  "internalType": "string",
                  "name": "name",
                  "type": "string"
                },
                {
                  "internalType": "string",
                  "name": "description",
                  "type": "string"
                },
                {
                  "internalType": "uint256",
                  "name": "studentId",
                  "type": "uint256"
                },
                {
                  "internalType": "uint256",
                  "name": "categoryId",
                  "type": "uint256"
                },
                {
                  "internalType": "uint256",
                  "name": "eventId",
                  "type": "uint256"
                },
                {
                  "internalType": "uint256",
                  "name": "voteCount",
                  "type": "uint256"
                },
                {
                  "internalType": "bool",
                  "name": "win",
                  "type": "bool"
                },
                {
                  "internalType": "string",
                  "name": "imageFileName",
                  "type": "string"
                }
              ],
              "internalType": "struct VotingSystem.Candidate[]",
              "name": "candidates",
              "type": "tuple[]"
            },
            {
              "internalType": "uint256",
              "name": "candidateCount",
              "type": "uint256"
            },
            {
              "internalType": "uint256",
              "name": "status",
              "type": "uint256"
            }
          ],
          "internalType": "struct VotingSystem.Event",
          "name": "_event",
          "type": "tuple"
        }
      ],
      "name": "updateEvent",
      "outputs": [],
      "stateMutability": "nonpayable",
      "type": "function"
    },
    {
      "inputs": [
        {
          "internalType": "uint256",
          "name": "_categoryId",
          "type": "uint256"
        },
        {
          "internalType": "uint256",
          "name": "_eventId",
          "type": "uint256"
        },
        {
          "internalType": "string",
          "name": "_candidateName",
          "type": "string"
        },
        {
          "internalType": "string",
          "name": "_description",
          "type": "string"
        },
        {
          "internalType": "uint256",
          "name": "_studentId",
          "type": "uint256"
        },
        {
          "internalType": "string",
          "name": "_imageFileName",
          "type": "string"
        }
      ],
      "name": "addCandidateToEvent",
      "outputs": [],
      "stateMutability": "nonpayable",
      "type": "function"
    },
    {
      "inputs": [
        {
          "components": [
            {
              "internalType": "uint256",
              "name": "id",
              "type": "uint256"
            },
            {
              "internalType": "string",
              "name": "name",
              "type": "string"
            },
            {
              "internalType": "string",
              "name": "description",
              "type": "string"
            },
            {
              "internalType": "uint256",
              "name": "studentId",
              "type": "uint256"
            },
            {
              "internalType": "uint256",
              "name": "categoryId",
              "type": "uint256"
            },
            {
              "internalType": "uint256",
              "name": "eventId",
              "type": "uint256"
            },
            {
              "internalType": "uint256",
              "name": "voteCount",
              "type": "uint256"
            },
            {
              "internalType": "bool",
              "name": "win",
              "type": "bool"
            },
            {
              "internalType": "string",
              "name": "imageFileName",
              "type": "string"
            }
          ],
          "internalType": "struct VotingSystem.Candidate",
          "name": "_candidate",
          "type": "tuple"
        }
      ],
      "name": "updateCandidate",
      "outputs": [],
      "stateMutability": "nonpayable",
      "type": "function"
    },
    {
      "inputs": [
        {
          "internalType": "uint256",
          "name": "_categoryId",
          "type": "uint256"
        },
        {
          "internalType": "uint256",
          "name": "_eventId",
          "type": "uint256"
        },
        {
          "internalType": "uint256",
          "name": "_studentId",
          "type": "uint256"
        }
      ],
      "name": "isCandidateExistsInEvent",
      "outputs": [
        {
          "internalType": "bool",
          "name": "",
          "type": "bool"
        }
      ],
      "stateMutability": "view",
      "type": "function",
      "constant": true
    },
    {
      "inputs": [
        {
          "internalType": "uint256",
          "name": "_categoryId",
          "type": "uint256"
        },
        {
          "internalType": "uint256",
          "name": "_eventId",
          "type": "uint256"
        },
        {
          "internalType": "uint256",
          "name": "_candidateId",
          "type": "uint256"
        }
      ],
      "name": "isCandidateExistsInEventById",
      "outputs": [
        {
          "internalType": "bool",
          "name": "",
          "type": "bool"
        }
      ],
      "stateMutability": "view",
      "type": "function",
      "constant": true
    },
    {
      "inputs": [
        {
          "internalType": "uint256",
          "name": "_categoryId",
          "type": "uint256"
        },
        {
          "internalType": "uint256",
          "name": "_eventId",
          "type": "uint256"
        }
      ],
      "name": "isEventExists",
      "outputs": [
        {
          "internalType": "bool",
          "name": "",
          "type": "bool"
        }
      ],
      "stateMutability": "view",
      "type": "function",
      "constant": true
    },
    {
      "inputs": [
        {
          "internalType": "uint256",
          "name": "_categoryId",
          "type": "uint256"
        },
        {
          "internalType": "string",
          "name": "_eventName",
          "type": "string"
        }
      ],
      "name": "isEventExists",
      "outputs": [
        {
          "internalType": "bool",
          "name": "",
          "type": "bool"
        }
      ],
      "stateMutability": "view",
      "type": "function",
      "constant": true
    },
    {
      "inputs": [
        {
          "internalType": "uint256",
          "name": "_categoryId",
          "type": "uint256"
        }
      ],
      "name": "getAllCategoryEvent",
      "outputs": [
        {
          "components": [
            {
              "internalType": "uint256",
              "name": "eventId",
              "type": "uint256"
            },
            {
              "internalType": "string",
              "name": "eventName",
              "type": "string"
            },
            {
              "internalType": "uint256",
              "name": "categoryId",
              "type": "uint256"
            },
            {
              "components": [
                {
                  "internalType": "uint256",
                  "name": "id",
                  "type": "uint256"
                },
                {
                  "internalType": "string",
                  "name": "name",
                  "type": "string"
                },
                {
                  "internalType": "string",
                  "name": "description",
                  "type": "string"
                },
                {
                  "internalType": "uint256",
                  "name": "studentId",
                  "type": "uint256"
                },
                {
                  "internalType": "uint256",
                  "name": "categoryId",
                  "type": "uint256"
                },
                {
                  "internalType": "uint256",
                  "name": "eventId",
                  "type": "uint256"
                },
                {
                  "internalType": "uint256",
                  "name": "voteCount",
                  "type": "uint256"
                },
                {
                  "internalType": "bool",
                  "name": "win",
                  "type": "bool"
                },
                {
                  "internalType": "string",
                  "name": "imageFileName",
                  "type": "string"
                }
              ],
              "internalType": "struct VotingSystem.Candidate[]",
              "name": "candidates",
              "type": "tuple[]"
            },
            {
              "internalType": "uint256",
              "name": "candidateCount",
              "type": "uint256"
            },
            {
              "internalType": "uint256",
              "name": "status",
              "type": "uint256"
            }
          ],
          "internalType": "struct VotingSystem.Event[]",
          "name": "foundEvent",
          "type": "tuple[]"
        }
      ],
      "stateMutability": "view",
      "type": "function",
      "constant": true
    },
    {
      "inputs": [
        {
          "internalType": "uint256",
          "name": "_categoryId",
          "type": "uint256"
        },
        {
          "internalType": "uint256",
          "name": "_eventId",
          "type": "uint256"
        }
      ],
      "name": "getAllCandidatesInEvent",
      "outputs": [
        {
          "components": [
            {
              "internalType": "uint256",
              "name": "id",
              "type": "uint256"
            },
            {
              "internalType": "string",
              "name": "name",
              "type": "string"
            },
            {
              "internalType": "string",
              "name": "description",
              "type": "string"
            },
            {
              "internalType": "uint256",
              "name": "studentId",
              "type": "uint256"
            },
            {
              "internalType": "uint256",
              "name": "categoryId",
              "type": "uint256"
            },
            {
              "internalType": "uint256",
              "name": "eventId",
              "type": "uint256"
            },
            {
              "internalType": "uint256",
              "name": "voteCount",
              "type": "uint256"
            },
            {
              "internalType": "bool",
              "name": "win",
              "type": "bool"
            },
            {
              "internalType": "string",
              "name": "imageFileName",
              "type": "string"
            }
          ],
          "internalType": "struct VotingSystem.Candidate[]",
          "name": "foundCandidates",
          "type": "tuple[]"
        }
      ],
      "stateMutability": "view",
      "type": "function",
      "constant": true
    },
    {
      "inputs": [],
      "name": "getAllCandidates",
      "outputs": [
        {
          "components": [
            {
              "internalType": "uint256",
              "name": "id",
              "type": "uint256"
            },
            {
              "internalType": "string",
              "name": "name",
              "type": "string"
            },
            {
              "internalType": "string",
              "name": "description",
              "type": "string"
            },
            {
              "internalType": "uint256",
              "name": "studentId",
              "type": "uint256"
            },
            {
              "internalType": "uint256",
              "name": "categoryId",
              "type": "uint256"
            },
            {
              "internalType": "uint256",
              "name": "eventId",
              "type": "uint256"
            },
            {
              "internalType": "uint256",
              "name": "voteCount",
              "type": "uint256"
            },
            {
              "internalType": "bool",
              "name": "win",
              "type": "bool"
            },
            {
              "internalType": "string",
              "name": "imageFileName",
              "type": "string"
            }
          ],
          "internalType": "struct VotingSystem.Candidate[]",
          "name": "",
          "type": "tuple[]"
        }
      ],
      "stateMutability": "view",
      "type": "function",
      "constant": true
    },
    {
      "inputs": [],
      "name": "getAllCategory",
      "outputs": [
        {
          "components": [
            {
              "internalType": "uint256",
              "name": "categoryId",
              "type": "uint256"
            },
            {
              "internalType": "string",
              "name": "categoryName",
              "type": "string"
            },
            {
              "components": [
                {
                  "internalType": "uint256",
                  "name": "eventId",
                  "type": "uint256"
                },
                {
                  "internalType": "string",
                  "name": "eventName",
                  "type": "string"
                },
                {
                  "internalType": "uint256",
                  "name": "categoryId",
                  "type": "uint256"
                },
                {
                  "components": [
                    {
                      "internalType": "uint256",
                      "name": "id",
                      "type": "uint256"
                    },
                    {
                      "internalType": "string",
                      "name": "name",
                      "type": "string"
                    },
                    {
                      "internalType": "string",
                      "name": "description",
                      "type": "string"
                    },
                    {
                      "internalType": "uint256",
                      "name": "studentId",
                      "type": "uint256"
                    },
                    {
                      "internalType": "uint256",
                      "name": "categoryId",
                      "type": "uint256"
                    },
                    {
                      "internalType": "uint256",
                      "name": "eventId",
                      "type": "uint256"
                    },
                    {
                      "internalType": "uint256",
                      "name": "voteCount",
                      "type": "uint256"
                    },
                    {
                      "internalType": "bool",
                      "name": "win",
                      "type": "bool"
                    },
                    {
                      "internalType": "string",
                      "name": "imageFileName",
                      "type": "string"
                    }
                  ],
                  "internalType": "struct VotingSystem.Candidate[]",
                  "name": "candidates",
                  "type": "tuple[]"
                },
                {
                  "internalType": "uint256",
                  "name": "candidateCount",
                  "type": "uint256"
                },
                {
                  "internalType": "uint256",
                  "name": "status",
                  "type": "uint256"
                }
              ],
              "internalType": "struct VotingSystem.Event[]",
              "name": "events",
              "type": "tuple[]"
            },
            {
              "internalType": "uint256",
              "name": "status",
              "type": "uint256"
            }
          ],
          "internalType": "struct VotingSystem.Category[]",
          "name": "",
          "type": "tuple[]"
        }
      ],
      "stateMutability": "view",
      "type": "function",
      "constant": true
    },
    {
      "inputs": [
        {
          "internalType": "uint256",
          "name": "_categoryId",
          "type": "uint256"
        }
      ],
      "name": "getCategoryById",
      "outputs": [
        {
          "components": [
            {
              "internalType": "uint256",
              "name": "categoryId",
              "type": "uint256"
            },
            {
              "internalType": "string",
              "name": "categoryName",
              "type": "string"
            },
            {
              "components": [
                {
                  "internalType": "uint256",
                  "name": "eventId",
                  "type": "uint256"
                },
                {
                  "internalType": "string",
                  "name": "eventName",
                  "type": "string"
                },
                {
                  "internalType": "uint256",
                  "name": "categoryId",
                  "type": "uint256"
                },
                {
                  "components": [
                    {
                      "internalType": "uint256",
                      "name": "id",
                      "type": "uint256"
                    },
                    {
                      "internalType": "string",
                      "name": "name",
                      "type": "string"
                    },
                    {
                      "internalType": "string",
                      "name": "description",
                      "type": "string"
                    },
                    {
                      "internalType": "uint256",
                      "name": "studentId",
                      "type": "uint256"
                    },
                    {
                      "internalType": "uint256",
                      "name": "categoryId",
                      "type": "uint256"
                    },
                    {
                      "internalType": "uint256",
                      "name": "eventId",
                      "type": "uint256"
                    },
                    {
                      "internalType": "uint256",
                      "name": "voteCount",
                      "type": "uint256"
                    },
                    {
                      "internalType": "bool",
                      "name": "win",
                      "type": "bool"
                    },
                    {
                      "internalType": "string",
                      "name": "imageFileName",
                      "type": "string"
                    }
                  ],
                  "internalType": "struct VotingSystem.Candidate[]",
                  "name": "candidates",
                  "type": "tuple[]"
                },
                {
                  "internalType": "uint256",
                  "name": "candidateCount",
                  "type": "uint256"
                },
                {
                  "internalType": "uint256",
                  "name": "status",
                  "type": "uint256"
                }
              ],
              "internalType": "struct VotingSystem.Event[]",
              "name": "events",
              "type": "tuple[]"
            },
            {
              "internalType": "uint256",
              "name": "status",
              "type": "uint256"
            }
          ],
          "internalType": "struct VotingSystem.Category",
          "name": "",
          "type": "tuple"
        }
      ],
      "stateMutability": "view",
      "type": "function",
      "constant": true
    },
    {
      "inputs": [],
      "name": "getAllEvent",
      "outputs": [
        {
          "components": [
            {
              "internalType": "uint256",
              "name": "eventId",
              "type": "uint256"
            },
            {
              "internalType": "string",
              "name": "eventName",
              "type": "string"
            },
            {
              "internalType": "uint256",
              "name": "categoryId",
              "type": "uint256"
            },
            {
              "components": [
                {
                  "internalType": "uint256",
                  "name": "id",
                  "type": "uint256"
                },
                {
                  "internalType": "string",
                  "name": "name",
                  "type": "string"
                },
                {
                  "internalType": "string",
                  "name": "description",
                  "type": "string"
                },
                {
                  "internalType": "uint256",
                  "name": "studentId",
                  "type": "uint256"
                },
                {
                  "internalType": "uint256",
                  "name": "categoryId",
                  "type": "uint256"
                },
                {
                  "internalType": "uint256",
                  "name": "eventId",
                  "type": "uint256"
                },
                {
                  "internalType": "uint256",
                  "name": "voteCount",
                  "type": "uint256"
                },
                {
                  "internalType": "bool",
                  "name": "win",
                  "type": "bool"
                },
                {
                  "internalType": "string",
                  "name": "imageFileName",
                  "type": "string"
                }
              ],
              "internalType": "struct VotingSystem.Candidate[]",
              "name": "candidates",
              "type": "tuple[]"
            },
            {
              "internalType": "uint256",
              "name": "candidateCount",
              "type": "uint256"
            },
            {
              "internalType": "uint256",
              "name": "status",
              "type": "uint256"
            }
          ],
          "internalType": "struct VotingSystem.Event[]",
          "name": "",
          "type": "tuple[]"
        }
      ],
      "stateMutability": "view",
      "type": "function",
      "constant": true
    },
    {
      "inputs": [
        {
          "internalType": "uint256",
          "name": "_categoryId",
          "type": "uint256"
        },
        {
          "internalType": "uint256",
          "name": "_eventId",
          "type": "uint256"
        }
      ],
      "name": "getEventById",
      "outputs": [
        {
          "components": [
            {
              "internalType": "uint256",
              "name": "eventId",
              "type": "uint256"
            },
            {
              "internalType": "string",
              "name": "eventName",
              "type": "string"
            },
            {
              "internalType": "uint256",
              "name": "categoryId",
              "type": "uint256"
            },
            {
              "components": [
                {
                  "internalType": "uint256",
                  "name": "id",
                  "type": "uint256"
                },
                {
                  "internalType": "string",
                  "name": "name",
                  "type": "string"
                },
                {
                  "internalType": "string",
                  "name": "description",
                  "type": "string"
                },
                {
                  "internalType": "uint256",
                  "name": "studentId",
                  "type": "uint256"
                },
                {
                  "internalType": "uint256",
                  "name": "categoryId",
                  "type": "uint256"
                },
                {
                  "internalType": "uint256",
                  "name": "eventId",
                  "type": "uint256"
                },
                {
                  "internalType": "uint256",
                  "name": "voteCount",
                  "type": "uint256"
                },
                {
                  "internalType": "bool",
                  "name": "win",
                  "type": "bool"
                },
                {
                  "internalType": "string",
                  "name": "imageFileName",
                  "type": "string"
                }
              ],
              "internalType": "struct VotingSystem.Candidate[]",
              "name": "candidates",
              "type": "tuple[]"
            },
            {
              "internalType": "uint256",
              "name": "candidateCount",
              "type": "uint256"
            },
            {
              "internalType": "uint256",
              "name": "status",
              "type": "uint256"
            }
          ],
          "internalType": "struct VotingSystem.Event",
          "name": "",
          "type": "tuple"
        }
      ],
      "stateMutability": "view",
      "type": "function",
      "constant": true
    },
    {
      "inputs": [
        {
          "internalType": "uint256",
          "name": "_voterId",
          "type": "uint256"
        },
        {
          "internalType": "uint256",
          "name": "_candidateId",
          "type": "uint256"
        },
        {
          "internalType": "uint256",
          "name": "_categoryId",
          "type": "uint256"
        },
        {
          "internalType": "uint256",
          "name": "_eventId",
          "type": "uint256"
        }
      ],
      "name": "vote",
      "outputs": [],
      "stateMutability": "nonpayable",
      "type": "function"
    },
    {
      "inputs": [
        {
          "internalType": "uint256",
          "name": "_candidateId",
          "type": "uint256"
        }
      ],
      "name": "getCandidateVoteCount",
      "outputs": [
        {
          "internalType": "uint256",
          "name": "count",
          "type": "uint256"
        }
      ],
      "stateMutability": "view",
      "type": "function",
      "constant": true
    },
    {
      "inputs": [
        {
          "internalType": "uint256",
          "name": "_categoryId",
          "type": "uint256"
        },
        {
          "internalType": "uint256",
          "name": "_eventId",
          "type": "uint256"
        }
      ],
      "name": "getVoteEventCandidate",
      "outputs": [
        {
          "components": [
            {
              "internalType": "uint256",
              "name": "id",
              "type": "uint256"
            },
            {
              "internalType": "string",
              "name": "name",
              "type": "string"
            },
            {
              "internalType": "string",
              "name": "description",
              "type": "string"
            },
            {
              "internalType": "uint256",
              "name": "studentId",
              "type": "uint256"
            },
            {
              "internalType": "uint256",
              "name": "categoryId",
              "type": "uint256"
            },
            {
              "internalType": "uint256",
              "name": "eventId",
              "type": "uint256"
            },
            {
              "internalType": "uint256",
              "name": "voteCount",
              "type": "uint256"
            },
            {
              "internalType": "bool",
              "name": "win",
              "type": "bool"
            },
            {
              "internalType": "string",
              "name": "imageFileName",
              "type": "string"
            }
          ],
          "internalType": "struct VotingSystem.Candidate[]",
          "name": "",
          "type": "tuple[]"
        }
      ],
      "stateMutability": "view",
      "type": "function",
      "constant": true
    },
    {
      "inputs": [
        {
          "internalType": "uint256",
          "name": "_categoryId",
          "type": "uint256"
        },
        {
          "internalType": "uint256",
          "name": "_eventId",
          "type": "uint256"
        }
      ],
      "name": "whoIsTheWinner",
      "outputs": [
        {
          "components": [
            {
              "internalType": "uint256",
              "name": "id",
              "type": "uint256"
            },
            {
              "internalType": "string",
              "name": "name",
              "type": "string"
            },
            {
              "internalType": "string",
              "name": "description",
              "type": "string"
            },
            {
              "internalType": "uint256",
              "name": "studentId",
              "type": "uint256"
            },
            {
              "internalType": "uint256",
              "name": "categoryId",
              "type": "uint256"
            },
            {
              "internalType": "uint256",
              "name": "eventId",
              "type": "uint256"
            },
            {
              "internalType": "uint256",
              "name": "voteCount",
              "type": "uint256"
            },
            {
              "internalType": "bool",
              "name": "win",
              "type": "bool"
            },
            {
              "internalType": "string",
              "name": "imageFileName",
              "type": "string"
            }
          ],
          "internalType": "struct VotingSystem.Candidate",
          "name": "",
          "type": "tuple"
        }
      ],
      "stateMutability": "view",
      "type": "function",
      "constant": true
    }
  ],
  "bytecode": "0x608060405234801561001057600080fd5b50600080546001600160a01b03191633179055615421806100326000396000f3fe608060405234801561001057600080fd5b50600436106101f05760003560e01c8063748f55a81161010f578063b315c597116100a2578063dfdffaf411610071578063dfdffaf4146104ff578063f29565ed14610512578063f731d0e914610525578063ffdd108b1461053857600080fd5b8063b315c59714610490578063bf03f677146104b3578063c8011280146104c6578063da58c7d9146104d957600080fd5b80638f2c2805116100de5780638f2c280514610435578063909f85021461044a578063a1a025641461046a578063a7e62d1b1461047d57600080fd5b8063748f55a8146103c457806376304984146103e45780638801b5b6146103f75780638da5cb5b1461040a57600080fd5b80634ffd25f61161018757806360e93f3c1161015657806360e93f3c14610313578063642d20ad14610333578063689b6fbf1461039e57806368c9e388146103b157600080fd5b80634ffd25f6146102c757806350515a77146102da578063514fc62a146102ed5780635b4d727c1461030057600080fd5b80633e60e2f5116101c35780633e60e2f514610250578063400af02a14610271578063401a52dd146102915780634fb43250146102a457600080fd5b80631002cdd4146101f55780632e0dcbf7146102135780632e6997fe146102285780633a637c201461023d575b600080fd5b6101fd61054b565b60405161020a919061472c565b60405180910390f35b6102266102213660046148b0565b610994565b005b610230610ac3565b60405161020a91906148ec565b61022661024b366004614b77565b610c45565b61026361025e366004614c8a565b610cad565b60405190815260200161020a565b61028461027f366004614c8a565b610ceb565b60405161020a9190614ced565b6101fd61029f366004614d8a565b610dc8565b6102b76102b2366004614da3565b6111bc565b604051901515815260200161020a565b6102266102d5366004614dc5565b611268565b6102b76102e8366004614df9565b611393565b6102b76102fb3660046148b0565b611452565b61023061030e366004614da3565b6114b8565b610326610321366004614d8a565b611854565b60405161020a9190614ec6565b610374610341366004614d8a565b60046020819052600091825260409091208054600182015460028301546003840154939094015491939092909160ff1685565b6040805195865260208601949094529284019190915260608301521515608082015260a00161020a565b6102b76103ac366004614c8a565b611cb7565b6102266103bf366004614ed9565b611cd8565b6103d76103d2366004614da3565b611fa4565b60405161020a9190614f0b565b6102266103f2366004614f1e565b612442565b610284610405366004614c8a565b612793565b60005461041d906001600160a01b031681565b6040516001600160a01b03909116815260200161020a565b61043d612b6f565b60405161020a9190614fc1565b61045d610458366004614da3565b61306b565b60405161020a9190615016565b6102b76104783660046148b0565b613523565b61023061048b366004614da3565b613607565b61026361049e366004614d8a565b60009081526003602052604090206006015490565b6102b76104c1366004615029565b613a25565b6102266104d4366004615055565b613ab9565b6104ec6104e7366004614d8a565b613c6f565b60405161020a9796959493929190615089565b6102b761050d366004615029565b613eca565b610226610520366004614c8a565b613f52565b6102266105333660046150f6565b614038565b610226610546366004614df9565b6141cd565b606060006009546001600160401b038111156105695761056961478e565b6040519080825280602002602001820160405280156105a257816020015b61058f614477565b8152602001906001900390816105875790505b5090506000805b60075481101561098c5760005b600160006105c484836151dd565b815260208101919091526040016000206002015481101561097957600160006105ed84836151dd565b8152602001908152602001600020600201818154811061060f5761060f6151f5565b90600052602060002090600602016040518060c0016040529081600082015481526020016001820180546106429061520b565b80601f016020809104026020016040519081016040528092919081815260200182805461066e9061520b565b80156106bb5780601f10610690576101008083540402835291602001916106bb565b820191906000526020600020905b81548152906001019060200180831161069e57829003601f168201915b505050505081526020016002820154815260200160038201805480602002602001604051908101604052809291908181526020016000905b82821015610921578382906000526020600020906009020160405180610120016040529081600082015481526020016001820180546107319061520b565b80601f016020809104026020016040519081016040528092919081815260200182805461075d9061520b565b80156107aa5780601f1061077f576101008083540402835291602001916107aa565b820191906000526020600020905b81548152906001019060200180831161078d57829003601f168201915b505050505081526020016002820180546107c39061520b565b80601f01602080910402602001604051908101604052809291908181526020018280546107ef9061520b565b801561083c5780601f106108115761010080835404028352916020019161083c565b820191906000526020600020905b81548152906001019060200180831161081f57829003601f168201915b505050918352505060038201546020820152600482015460408201526005820154606082015260068201546080820152600782015460ff16151560a082015260088201805460c0909201916108909061520b565b80601f01602080910402602001604051908101604052809291908181526020018280546108bc9061520b565b80156109095780601f106108de57610100808354040283529160200191610909565b820191906000526020600020905b8154815290600101906020018083116108ec57829003601f168201915b505050505081525050815260200190600101906106f3565b5050505081526020016004820154815260200160058201548152505084848151811061094f5761094f6151f5565b60209081029190910101526109656001846151dd565b9250806109718161523f565b9150506105b6565b50806109848161523f565b9150506105a9565b509092915050565b60015b6007548111610a3757600160008281526020019081526020016000206001016040516109c39190615258565b6040518091039020828051906020012003610a255760405162461bcd60e51b815260206004820152601760248201527f43617465676f727920616c72656164792065786973747300000000000000000060448201526064015b60405180910390fd5b80610a2f8161523f565b915050610997565b50600160076000828254610a4b91906151dd565b9091555050600754600090815260016020818152604090922083519092610a7892840191908501906144ad565b5060078054825560016003830155546040517f5bae3f75753ef0a1c0ea0f6c51d7b43a4b8d116572b8b7b5cb771f9ad32d4ae590610ab79085906152f3565b60405180910390a25050565b606060006008546001600160401b03811115610ae157610ae161478e565b604051908082528060200260200182016040528015610b1a57816020015b610b07614531565b815260200190600190039081610aff5790505b50905060006009546001600160401b03811115610b3957610b3961478e565b604051908082528060200260200182016040528015610b7257816020015b610b5f614477565b815260200190600190039081610b575790505b509050610b7d61054b565b90506000805b600954811015610c3c5760005b838281518110610ba257610ba26151f5565b60200260200101516060015151811015610c2957838281518110610bc857610bc86151f5565b6020026020010151606001518181518110610be557610be56151f5565b6020026020010151858481518110610bff57610bff6151f5565b6020908102919091010152610c156001846151dd565b925080610c218161523f565b915050610b90565b5080610c348161523f565b915050610b83565b50919392505050565b80516000908152600160205260408120549003610c745760405162461bcd60e51b8152600401610a1c90615306565b805160009081526001602081815260409092208284015180519193610c9e938501929101906144ad565b50606090910151600390910155565b600080610cba8484612793565b8051909150600003610cde5760405162461bcd60e51b8152600401610a1c9061533d565b60a0015190505b92915050565b610d2e6040518060e00160405280600081526020016060815260200160608152602001600080191681526020016060815260200160008152602001606081525090565b6000610d3a8484612793565b8051909150600003610d5e5760405162461bcd60e51b8152600401610a1c9061533d565b8060a00151600114610dc15760405162461bcd60e51b815260206004820152602660248201527f596f7572206163636f756e74207761732062616e6e6564206f72206e6f74207660448201526565726966792160d01b6064820152608401610a1c565b9392505050565b60008181526001602052604081206002810154606092906001600160401b03811115610df657610df661478e565b604051908082528060200260200182016040528015610e2f57816020015b610e1c614477565b815260200190600190039081610e145790505b50905060005b60028301548110156111b457826002018181548110610e5657610e566151f5565b90600052602060002090600602016040518060c001604052908160008201548152602001600182018054610e899061520b565b80601f0160208091040260200160405190810160405280929190818152602001828054610eb59061520b565b8015610f025780601f10610ed757610100808354040283529160200191610f02565b820191906000526020600020905b815481529060010190602001808311610ee557829003601f168201915b505050505081526020016002820154815260200160038201805480602002602001604051908101604052809291908181526020016000905b8282101561116857838290600052602060002090600902016040518061012001604052908160008201548152602001600182018054610f789061520b565b80601f0160208091040260200160405190810160405280929190818152602001828054610fa49061520b565b8015610ff15780601f10610fc657610100808354040283529160200191610ff1565b820191906000526020600020905b815481529060010190602001808311610fd457829003601f168201915b5050505050815260200160028201805461100a9061520b565b80601f01602080910402602001604051908101604052809291908181526020018280546110369061520b565b80156110835780601f1061105857610100808354040283529160200191611083565b820191906000526020600020905b81548152906001019060200180831161106657829003601f168201915b505050918352505060038201546020820152600482015460408201526005820154606082015260068201546080820152600782015460ff16151560a082015260088201805460c0909201916110d79061520b565b80601f01602080910402602001604051908101604052809291908181526020018280546111039061520b565b80156111505780601f1061112557610100808354040283529160200191611150565b820191906000526020600020905b81548152906001019060200180831161113357829003601f168201915b50505050508152505081526020019060010190610f3a565b50505050815260200160048201548152602001600582015481525050828281518110611196576111966151f5565b602002602001018190525080806111ac9061523f565b915050610e35565b509392505050565b60008281526001602052604081205481036111e95760405162461bcd60e51b8152600401610a1c90615381565b60005b60008481526001602052604090206002015481101561125e57600084815260016020526040902060020180548491908390811061122b5761122b6151f5565b9060005260206000209060060201600001540361124c576001915050610ce5565b806112568161523f565b9150506111ec565b5060009392505050565b604080820151600090815260016020529081205490036112c55760405162461bcd60e51b815260206004820152601860248201527743617465676f727920646f6573206e6f742065786973747360401b6044820152606401610a1c565b6112d7816040015182600001516111bc565b61131b5760405162461bcd60e51b81526020600482015260156024820152744576656e7420646f6573206e6f742065786973742160581b6044820152606401610a1c565b600060016000836040015181526020019081526020016000206002016001836000015161134891906153b8565b81548110611358576113586151f5565b9060005260206000209060060201905081602001518160010190805190602001906113849291906144ad565b5060a090910151600590910155565b60008281526001602052604081205481036113c05760405162461bcd60e51b8152600401610a1c90615381565b60005b60008481526001602052604090206002015481101561125e57828051906020012060016000868152602001908152602001600020600201828154811061140b5761140b6151f5565b90600052602060002090600602016001016040516114299190615258565b604051809103902003611440576001915050610ce5565b8061144a8161523f565b9150506113c3565b600060015b600b5481116114af5760008181526005602052604090819020905161147f9160010190615258565b604051809103902083805190602001200361149d5750600192915050565b806114a78161523f565b915050611457565b50600092915050565b60008281526001602052604081206060915b600282015481101561184c57838260020182815481106114ec576114ec6151f5565b9060005260206000209060060201600001540361183a57600082600201828154811061151a5761151a6151f5565b9060005260206000209060060201600401546001600160401b038111156115435761154361478e565b60405190808252806020026020018201604052801561157c57816020015b611569614531565b8152602001906001900390816115615790505b50905060005b836002018381548110611597576115976151f5565b90600052602060002090600602016003018054905081101561182f578360020183815481106115c8576115c86151f5565b906000526020600020906006020160030181815481106115ea576115ea6151f5565b9060005260206000209060090201604051806101200160405290816000820154815260200160018201805461161e9061520b565b80601f016020809104026020016040519081016040528092919081815260200182805461164a9061520b565b80156116975780601f1061166c57610100808354040283529160200191611697565b820191906000526020600020905b81548152906001019060200180831161167a57829003601f168201915b505050505081526020016002820180546116b09061520b565b80601f01602080910402602001604051908101604052809291908181526020018280546116dc9061520b565b80156117295780601f106116fe57610100808354040283529160200191611729565b820191906000526020600020905b81548152906001019060200180831161170c57829003601f168201915b505050918352505060038201546020820152600482015460408201526005820154606082015260068201546080820152600782015460ff16151560a082015260088201805460c09092019161177d9061520b565b80601f01602080910402602001604051908101604052809291908181526020018280546117a99061520b565b80156117f65780601f106117cb576101008083540402835291602001916117f6565b820191906000526020600020905b8154815290600101906020018083116117d957829003601f168201915b505050505081525050828281518110611811576118116151f5565b602002602001018190525080806118279061523f565b915050611582565b509250610ce5915050565b806118448161523f565b9150506114ca565b505092915050565b61187f6040518060800160405280600081526020016060815260200160608152602001600081525090565b600082815260016020818152604092839020835160808101909452805484529182018054918401916118b09061520b565b80601f01602080910402602001604051908101604052809291908181526020018280546118dc9061520b565b80156119295780601f106118fe57610100808354040283529160200191611929565b820191906000526020600020905b81548152906001019060200180831161190c57829003601f168201915b5050505050815260200160028201805480602002602001604051908101604052809291908181526020016000905b82821015611c9e57838290600052602060002090600602016040518060c0016040529081600082015481526020016001820180546119949061520b565b80601f01602080910402602001604051908101604052809291908181526020018280546119c09061520b565b8015611a0d5780601f106119e257610100808354040283529160200191611a0d565b820191906000526020600020905b8154815290600101906020018083116119f057829003601f168201915b505050505081526020016002820154815260200160038201805480602002602001604051908101604052809291908181526020016000905b82821015611c7357838290600052602060002090600902016040518061012001604052908160008201548152602001600182018054611a839061520b565b80601f0160208091040260200160405190810160405280929190818152602001828054611aaf9061520b565b8015611afc5780601f10611ad157610100808354040283529160200191611afc565b820191906000526020600020905b815481529060010190602001808311611adf57829003601f168201915b50505050508152602001600282018054611b159061520b565b80601f0160208091040260200160405190810160405280929190818152602001828054611b419061520b565b8015611b8e5780601f10611b6357610100808354040283529160200191611b8e565b820191906000526020600020905b815481529060010190602001808311611b7157829003601f168201915b505050918352505060038201546020820152600482015460408201526005820154606082015260068201546080820152600782015460ff16151560a082015260088201805460c090920191611be29061520b565b80601f0160208091040260200160405190810160405280929190818152602001828054611c0e9061520b565b8015611c5b5780601f10611c3057610100808354040283529160200191611c5b565b820191906000526020600020905b815481529060010190602001808311611c3e57829003601f168201915b50505050508152505081526020019060010190611a45565b5050505081526020016004820154815260200160058201548152505081526020019060010190611957565b5050505081526020016003820154815250509050919050565b600080611cc48484612793565b80519091501561125e576001915050610ce5565b6000828152600160205260408120549003611d305760405162461bcd60e51b815260206004820152601860248201527743617465676f727920646f6573206e6f742065786973747360401b6044820152606401610a1c565b600954600003611d7a5760405162461bcd60e51b81526020600482015260156024820152744576656e7420646f6573206e6f742065786973747360581b6044820152606401610a1c565b611d85828285613a25565b1515600114611dd65760405162461bcd60e51b815260206004820152601a60248201527f43616e6469646174657320646f6573206e6f74206578697374730000000000006044820152606401610a1c565b60015b600a548111611ea15760008181526004602052604090206001015485148015611e12575060008181526004602052604090206002015483145b8015611e2e575060008181526004602052604090206003015482145b15611e8f576000818152600460208190526040909120015460ff1615611e8a5760405162461bcd60e51b8152602060048201526011602482015270165bdd48185b1c9958591e481d9bdd1959607a1b6044820152606401610a1c565b611ea1565b80611e998161523f565b915050611dd9565b506001600a6000828254611eb591906151dd565b90915550506040805160a081018252600a54808252602080830188815283850187815260608501878152600160808701818152600096875260049586905297909520865181559251948301949094555160028201559151600383015592519201805460ff191692151592909217909155611f2e846142c5565b611f398383866142ef565b6040805160208101859052808201849052815180820383018152606090910191829052908590611f6a9083906153cf565b6040519081900381209088907fdd0629bf37ec3179d8b6727c2eb4d0f297cf08a85b960c1520666db55feb5b3990600090a4505050505050565b611fac614531565b600083815260016020908152604080832060020180548251818502810185019093528083529192909190849084015b8282101561232257838290600052602060002090600602016040518060c0016040529081600082015481526020016001820180546120189061520b565b80601f01602080910402602001604051908101604052809291908181526020018280546120449061520b565b80156120915780601f1061206657610100808354040283529160200191612091565b820191906000526020600020905b81548152906001019060200180831161207457829003601f168201915b505050505081526020016002820154815260200160038201805480602002602001604051908101604052809291908181526020016000905b828210156122f7578382906000526020600020906009020160405180610120016040529081600082015481526020016001820180546121079061520b565b80601f01602080910402602001604051908101604052809291908181526020018280546121339061520b565b80156121805780601f1061215557610100808354040283529160200191612180565b820191906000526020600020905b81548152906001019060200180831161216357829003601f168201915b505050505081526020016002820180546121999061520b565b80601f01602080910402602001604051908101604052809291908181526020018280546121c59061520b565b80156122125780601f106121e757610100808354040283529160200191612212565b820191906000526020600020905b8154815290600101906020018083116121f557829003601f168201915b505050918352505060038201546020820152600482015460408201526005820154606082015260068201546080820152600782015460ff16151560a082015260088201805460c0909201916122669061520b565b80601f01602080910402602001604051908101604052809291908181526020018280546122929061520b565b80156122df5780601f106122b4576101008083540402835291602001916122df565b820191906000526020600020905b8154815290600101906020018083116122c257829003601f168201915b505050505081525050815260200190600101906120c9565b5050505081526020016004820154815260200160058201548152505081526020019060010190611fdb565b505050509050606060005b825181101561238d5784838281518110612349576123496151f5565b6020026020010151600001510361237b5782818151811061236c5761236c6151f5565b60200260200101516060015191505b806123858161523f565b91505061232d565b506000816000815181106123a3576123a36151f5565b6020026020010151905060005b600183516123be91906153b8565b81101561243157826123d18260016151dd565b815181106123e1576123e16151f5565b602002602001015160c001518260c00151101561241f57826124048260016151dd565b81518110612414576124146151f5565b602002602001015191505b806124298161523f565b9150506123b0565b50600160e082015295945050505050565b600086815260016020526040812054900361246f5760405162461bcd60e51b8152600401610a1c90615381565b61247986866111bc565b6124bc5760405162461bcd60e51b8152602060048201526014602482015273115d995b9d08191bd95cc81b9bdd08195e1a5cdd60621b6044820152606401610a1c565b6124c7868684613eca565b156125145760405162461bcd60e51b815260206004820152601860248201527f43616e64696461746520616c72656164792065786973747300000000000000006044820152606401610a1c565b60068160405161252491906153cf565b9081526040519081900360200190205460ff16156125845760405162461bcd60e51b815260206004820152601e60248201527f496d6167652066696c65206e616d6520616c726561647920696e2075736500006044820152606401610a1c565b60016008600082825461259791906151dd565b9091555050604080516101208101825260085481526020808201879052818301869052606082018590526080820189905260a08201889052600060c0830181905260e083018190526101008301859052898152600190915291822090915b60028201548110156127565787826002018281548110612617576126176151f5565b9060005260206000209060060201600001540361274457816002018181548110612643576126436151f5565b6000918252602080832060036006909302019190910180546001818101835591845292829020865160099094020192835585820151805187949361268b9385019201906144ad565b50604082015180516126a79160028401916020909101906144ad565b50606082015160038201556080820151600482015560a0820151600582015560c0820151600682015560e082015160078201805460ff191691151591909117905561010082015180516127049160088401916020909101906144ad565b505050600182600201828154811061271e5761271e6151f5565b9060005260206000209060060201600401600082825461273e91906151dd565b90915550505b8061274e8161523f565b9150506125f5565b50600160068460405161276991906153cf565b908152604051908190036020019020805491151560ff199092169190911790555050505050505050565b6127d66040518060e00160405280600081526020016060815260200160608152602001600080191681526020016060815260200160008152602001606081525090565b6000826040516020016127e991906153cf565b60408051601f198184030181529190528051602090910120905060015b600b548111612b075760008181526005602052604090819020905161282e9160020190615258565b6040518091039020858051906020012014801561286357506000818152600560205260409020600301546128639083906143ff565b15612af557600560008281526020019081526020016000206040518060e0016040529081600082015481526020016001820180546128a09061520b565b80601f01602080910402602001604051908101604052809291908181526020018280546128cc9061520b565b80156129195780601f106128ee57610100808354040283529160200191612919565b820191906000526020600020905b8154815290600101906020018083116128fc57829003601f168201915b505050505081526020016002820180546129329061520b565b80601f016020809104026020016040519081016040528092919081815260200182805461295e9061520b565b80156129ab5780601f10612980576101008083540402835291602001916129ab565b820191906000526020600020905b81548152906001019060200180831161298e57829003601f168201915b50505050508152602001600382015481526020016004820180546129ce9061520b565b80601f01602080910402602001604051908101604052809291908181526020018280546129fa9061520b565b8015612a475780601f10612a1c57610100808354040283529160200191612a47565b820191906000526020600020905b815481529060010190602001808311612a2a57829003601f168201915b5050505050815260200160058201548152602001600682018054612a6a9061520b565b80601f0160208091040260200160405190810160405280929190818152602001828054612a969061520b565b8015612ae35780601f10612ab857610100808354040283529160200191612ae3565b820191906000526020600020905b815481529060010190602001808311612ac657829003601f168201915b50505050508152505092505050610ce5565b80612aff8161523f565b915050612806565b50506040805160e08101825260008082528251602080820185528282528084019190915283518082018552828152838501526060830182905283518082018552828152608084015260a083018290528351908101909352825260c08101919091529392505050565b606060006007546001600160401b03811115612b8d57612b8d61478e565b604051908082528060200260200182016040528015612be957816020015b612bd66040518060800160405280600081526020016060815260200160608152602001600081525090565b815260200190600190039081612bab5790505b50905060015b60075481116130655760008181526001602081815260409283902083516080810190945280548452918201805491840191612c299061520b565b80601f0160208091040260200160405190810160405280929190818152602001828054612c559061520b565b8015612ca25780601f10612c7757610100808354040283529160200191612ca2565b820191906000526020600020905b815481529060010190602001808311612c8557829003601f168201915b5050505050815260200160028201805480602002602001604051908101604052809291908181526020016000905b8282101561301757838290600052602060002090600602016040518060c001604052908160008201548152602001600182018054612d0d9061520b565b80601f0160208091040260200160405190810160405280929190818152602001828054612d399061520b565b8015612d865780601f10612d5b57610100808354040283529160200191612d86565b820191906000526020600020905b815481529060010190602001808311612d6957829003601f168201915b505050505081526020016002820154815260200160038201805480602002602001604051908101604052809291908181526020016000905b82821015612fec57838290600052602060002090600902016040518061012001604052908160008201548152602001600182018054612dfc9061520b565b80601f0160208091040260200160405190810160405280929190818152602001828054612e289061520b565b8015612e755780601f10612e4a57610100808354040283529160200191612e75565b820191906000526020600020905b815481529060010190602001808311612e5857829003601f168201915b50505050508152602001600282018054612e8e9061520b565b80601f0160208091040260200160405190810160405280929190818152602001828054612eba9061520b565b8015612f075780601f10612edc57610100808354040283529160200191612f07565b820191906000526020600020905b815481529060010190602001808311612eea57829003601f168201915b505050918352505060038201546020820152600482015460408201526005820154606082015260068201546080820152600782015460ff16151560a082015260088201805460c090920191612f5b9061520b565b80601f0160208091040260200160405190810160405280929190818152602001828054612f879061520b565b8015612fd45780601f10612fa957610100808354040283529160200191612fd4565b820191906000526020600020905b815481529060010190602001808311612fb757829003601f168201915b50505050508152505081526020019060010190612dbe565b5050505081526020016004820154815260200160058201548152505081526020019060010190612cd0565b5050505081526020016003820154815250508260018361303791906153b8565b81518110613047576130476151f5565b6020026020010181905250808061305d9061523f565b915050612bef565b50919050565b613073614477565b60008381526001602081815260408084208151608081019092528054825292830180549193928401916130a59061520b565b80601f01602080910402602001604051908101604052809291908181526020018280546130d19061520b565b801561311e5780601f106130f35761010080835404028352916020019161311e565b820191906000526020600020905b81548152906001019060200180831161310157829003601f168201915b5050505050815260200160028201805480602002602001604051908101604052809291908181526020016000905b8282101561349357838290600052602060002090600602016040518060c0016040529081600082015481526020016001820180546131899061520b565b80601f01602080910402602001604051908101604052809291908181526020018280546131b59061520b565b80156132025780601f106131d757610100808354040283529160200191613202565b820191906000526020600020905b8154815290600101906020018083116131e557829003601f168201915b505050505081526020016002820154815260200160038201805480602002602001604051908101604052809291908181526020016000905b82821015613468578382906000526020600020906009020160405180610120016040529081600082015481526020016001820180546132789061520b565b80601f01602080910402602001604051908101604052809291908181526020018280546132a49061520b565b80156132f15780601f106132c6576101008083540402835291602001916132f1565b820191906000526020600020905b8154815290600101906020018083116132d457829003601f168201915b5050505050815260200160028201805461330a9061520b565b80601f01602080910402602001604051908101604052809291908181526020018280546133369061520b565b80156133835780601f1061335857610100808354040283529160200191613383565b820191906000526020600020905b81548152906001019060200180831161336657829003601f168201915b505050918352505060038201546020820152600482015460408201526005820154606082015260068201546080820152600782015460ff16151560a082015260088201805460c0909201916133d79061520b565b80601f01602080910402602001604051908101604052809291908181526020018280546134039061520b565b80156134505780601f1061342557610100808354040283529160200191613450565b820191906000526020600020905b81548152906001019060200180831161343357829003601f168201915b5050505050815250508152602001906001019061323a565b505050508152602001600482015481526020016005820154815250508152602001906001019061314c565b50505050815260200160038201548152505090506134af614477565b60005b82604001515181101561351a5784836040015182815181106134d6576134d66151f5565b6020026020010151600001510361350857826040015181815181106134fd576134fd6151f5565b602002602001015191505b806135128161523f565b9150506134b2565b50949350505050565b6001600090815260056020527f1471eb6eb2c5e789fc3de43f8ce62938c7d1836ec861730447e2ada8fd81017b5481036135975760405162461bcd60e51b81526020600482015260156024820152744e6f20766f74657220696e20746865206c6973742160581b6044820152606401610a1c565b60015b600b5481116114af576000818152600560205260409081902090516135c29160060190615258565b60405180910390208380519060200120036135f55760009081526005602081905260409091206001910181905592915050565b806135ff8161523f565b91505061359a565b6000828152600160209081526040808320600201805482518185028101850190935280835260609493849084015b8282101561397c57838290600052602060002090600602016040518060c0016040529081600082015481526020016001820180546136729061520b565b80601f016020809104026020016040519081016040528092919081815260200182805461369e9061520b565b80156136eb5780601f106136c0576101008083540402835291602001916136eb565b820191906000526020600020905b8154815290600101906020018083116136ce57829003601f168201915b505050505081526020016002820154815260200160038201805480602002602001604051908101604052809291908181526020016000905b82821015613951578382906000526020600020906009020160405180610120016040529081600082015481526020016001820180546137619061520b565b80601f016020809104026020016040519081016040528092919081815260200182805461378d9061520b565b80156137da5780601f106137af576101008083540402835291602001916137da565b820191906000526020600020905b8154815290600101906020018083116137bd57829003601f168201915b505050505081526020016002820180546137f39061520b565b80601f016020809104026020016040519081016040528092919081815260200182805461381f9061520b565b801561386c5780601f106138415761010080835404028352916020019161386c565b820191906000526020600020905b81548152906001019060200180831161384f57829003601f168201915b505050918352505060038201546020820152600482015460408201526005820154606082015260068201546080820152600782015460ff16151560a082015260088201805460c0909201916138c09061520b565b80601f01602080910402602001604051908101604052809291908181526020018280546138ec9061520b565b80156139395780601f1061390e57610100808354040283529160200191613939565b820191906000526020600020905b81548152906001019060200180831161391c57829003601f168201915b50505050508152505081526020019060010190613723565b5050505081526020016004820154815260200160058201548152505081526020019060010190613635565b50505050905060005b81518110156139eb57838282815181106139a1576139a16151f5565b602002602001015160000151036139d9578181815181106139c4576139c46151f5565b60200260200101516060015192505050610ce5565b806139e38161523f565b915050613985565b50604080516000808252602082019092529061351a565b613a0a614531565b815260200190600190039081613a0257905050949350505050565b6000838152600160205260408120548103613a525760405162461bcd60e51b8152600401610a1c90615381565b6000613a5e85856114b8565b905060005b8151811015613aad5783828281518110613a7f57613a7f6151f5565b60200260200101516000015103613a9b57600192505050610dc1565b80613aa58161523f565b915050613a63565b50600095945050505050565b60808101516000908152600160205260408120549003613aeb5760405162461bcd60e51b8152600401610a1c90615306565b613afd81608001518260a001516111bc565b1515600114613b455760405162461bcd60e51b81526020600482015260146024820152734576656e7420686173206e6f742065786973747360601b6044820152606401610a1c565b613b5c81608001518260a001518360600151613eca565b1515600114613bad5760405162461bcd60e51b815260206004820152601a60248201527f43616e64696461746520646f6573206e6f7420657869737465640000000000006044820152606401610a1c565b60808101516000908152600160208190526040822060a0840151600290910191613bd6916153b8565b81548110613be657613be66151f5565b906000526020600020906006020160030160018360000151613c0891906153b8565b81548110613c1857613c186151f5565b906000526020600020906009020190508160200151816001019080519060200190613c449291906144ad565b506060820151600382015560408201518051613c6a9160028401916020909101906144ad565b505050565b60056020526000908152604090208054600182018054919291613c919061520b565b80601f0160208091040260200160405190810160405280929190818152602001828054613cbd9061520b565b8015613d0a5780601f10613cdf57610100808354040283529160200191613d0a565b820191906000526020600020905b815481529060010190602001808311613ced57829003601f168201915b505050505090806002018054613d1f9061520b565b80601f0160208091040260200160405190810160405280929190818152602001828054613d4b9061520b565b8015613d985780601f10613d6d57610100808354040283529160200191613d98565b820191906000526020600020905b815481529060010190602001808311613d7b57829003601f168201915b505050505090806003015490806004018054613db39061520b565b80601f0160208091040260200160405190810160405280929190818152602001828054613ddf9061520b565b8015613e2c5780601f10613e0157610100808354040283529160200191613e2c565b820191906000526020600020905b815481529060010190602001808311613e0f57829003601f168201915b505050505090806005015490806006018054613e479061520b565b80601f0160208091040260200160405190810160405280929190818152602001828054613e739061520b565b8015613ec05780601f10613e9557610100808354040283529160200191613ec0565b820191906000526020600020905b815481529060010190602001808311613ea357829003601f168201915b5050505050905087565b6000838152600160205260408120548103613ef75760405162461bcd60e51b8152600401610a1c90615381565b6000613f0385856114b8565b905060005b8151811015613aad5783828281518110613f2457613f246151f5565b60200260200101516060015103613f4057600192505050610dc1565b80613f4a8161523f565b915050613f08565b613f5b82611452565b613f9e5760405162461bcd60e51b81526020600482015260146024820152735573657220646f6573206e6f742065786973747360601b6044820152606401610a1c565b600081604051602001613fb191906153cf565b60408051601f198184030181529190528051602090910120905060015b600b54811161403257600081815260056020526040908190209051613ff69160010190615258565b60405180910390208480519060200120036140205760008181526005602052604090206003018290555b8061402a8161523f565b915050613fce565b50505050565b60015b600b5481116140c9576000818152600560205260409081902090516140639160010190615258565b60405180910390208680519060200120036140b75760405162461bcd60e51b8152602060048201526014602482015273566f74657220616c72656164792065786973747360601b6044820152606401610a1c565b806140c18161523f565b91505061403b565b506001600b60008282546140dd91906151dd565b90915550506040516000906140f69085906020016153cf565b60408051601f198184030181529181528151602092830120600b5460008181526005855292909220918255885190935090916141399160018401918a01906144ad565b50855161414f90600283019060208901906144ad565b5060038101829055835161416c90600483019060208701906144ad565b5060006005820155825161418990600683019060208601906144ad565b50600b547f56729c826fe77eec184059336ced13d9ef79d10126212c90a4d2b724391e14e2886040516141bc91906152f3565b60405180910390a250505050505050565b60008281526001602052604081205490036141fa5760405162461bcd60e51b8152600401610a1c90615306565b6142048282611393565b156142485760405162461bcd60e51b81526020600482015260146024820152734576656e7420616c72656164792065786973747360601b6044820152606401610a1c565b600082815260016020819052604082206009805491939291839061426d9084906151dd565b91829055506002840180546001818101835560009283526020928390206006909202909101838155875193955093506142ac92908401918701906144ad565b5060028101949094555050600160059092019190915550565b60008181526003602052604081206006018054600192906142e79084906151dd565b909155505050565b6000838152600160205260408120600201905b81548110156143f8578382828154811061431e5761431e6151f5565b906000526020600020906006020160000154036143e6576000828281548110614349576143496151f5565b9060005260206000209060060201600301905060005b81548110156143e3578482828154811061437b5761437b6151f5565b906000526020600020906009020160000154036143d15760018282815481106143a6576143a66151f5565b906000526020600020906009020160060160008282546143c691906151dd565b909155506143e39050565b806143db8161523f565b91505061435f565b50505b806143f08161523f565b915050614302565b5050505050565b6000805b602081101561446d5782816020811061441e5761441e6151f5565b1a60f81b6001600160f81b03191684826020811061443e5761443e6151f5565b1a60f81b6001600160f81b0319161461445b576000915050610ce5565b806144658161523f565b915050614403565b5060019392505050565b6040518060c001604052806000815260200160608152602001600081526020016060815260200160008152602001600081525090565b8280546144b99061520b565b90600052602060002090601f0160209004810192826144db5760008555614521565b82601f106144f457805160ff1916838001178555614521565b82800160010185558215614521579182015b82811115614521578251825591602001919060010190614506565b5061452d92915061457f565b5090565b60405180610120016040528060008152602001606081526020016060815260200160008152602001600081526020016000815260200160008152602001600015158152602001606081525090565b5b8082111561452d5760008155600101614580565b60005b838110156145af578181015183820152602001614597565b838111156140325750506000910152565b600081518084526145d8816020860160208601614594565b601f01601f19169290920160200192915050565b600061012082518452602083015181602086015261460c828601826145c0565b9150506040830151848203604086015261462682826145c0565b915050606083015160608501526080830151608085015260a083015160a085015260c083015160c085015260e083015161466460e086018215159052565b50610100808401518583038287015261467d83826145c0565b9695505050505050565b80518252600060208083015160c0828601526146a660c08601826145c0565b905060408401516040860152606084015185820360608701528181518084528484019150848160051b850101858401935060005b8281101561470857601f198683030184526146f68286516145ec565b948701949387019391506001016146da565b50608088015160808a015260a088015160a08a015280965050505050505092915050565b6000602080830181845280855180835260408601915060408160051b870101925083870160005b8281101561478157603f1988860301845261476f858351614687565b94509285019290850190600101614753565b5092979650505050505050565b634e487b7160e01b600052604160045260246000fd5b60405161012081016001600160401b03811182821017156147c7576147c761478e565b60405290565b60405160c081016001600160401b03811182821017156147c7576147c761478e565b604051608081016001600160401b03811182821017156147c7576147c761478e565b604051601f8201601f191681016001600160401b03811182821017156148395761483961478e565b604052919050565b600082601f83011261485257600080fd5b81356001600160401b0381111561486b5761486b61478e565b61487e601f8201601f1916602001614811565b81815284602083860101111561489357600080fd5b816020850160208301376000918101602001919091529392505050565b6000602082840312156148c257600080fd5b81356001600160401b038111156148d857600080fd5b6148e484828501614841565b949350505050565b6000602080830181845280855180835260408601915060408160051b870101925083870160005b8281101561478157603f1988860301845261492f8583516145ec565b94509285019290850190600101614913565b60006001600160401b0382111561495a5761495a61478e565b5060051b60200190565b8035801515811461497457600080fd5b919050565b6000610120828403121561498c57600080fd5b6149946147a4565b90508135815260208201356001600160401b03808211156149b457600080fd5b6149c085838601614841565b602084015260408401359150808211156149d957600080fd5b6149e585838601614841565b6040840152606084013560608401526080840135608084015260a084013560a084015260c084013560c0840152614a1e60e08501614964565b60e084015261010091508184013581811115614a3957600080fd5b614a4586828701614841565b8385015250505092915050565b600082601f830112614a6357600080fd5b81356020614a78614a7383614941565b614811565b82815260059290921b84018101918181019086841115614a9757600080fd5b8286015b84811015614ad65780356001600160401b03811115614aba5760008081fd5b614ac88986838b0101614979565b845250918301918301614a9b565b509695505050505050565b600060c08284031215614af357600080fd5b614afb6147cd565b90508135815260208201356001600160401b0380821115614b1b57600080fd5b614b2785838601614841565b6020840152604084013560408401526060840135915080821115614b4a57600080fd5b50614b5784828501614a52565b6060830152506080820135608082015260a082013560a082015292915050565b60006020808385031215614b8a57600080fd5b82356001600160401b0380821115614ba157600080fd5b9084019060808287031215614bb557600080fd5b614bbd6147ef565b823581528383013582811115614bd257600080fd5b614bde88828601614841565b8583015250604083013582811115614bf557600080fd5b8301601f81018813614c0657600080fd5b8035614c14614a7382614941565b81815260059190911b8201860190868101908a831115614c3357600080fd5b8784015b83811015614c6b57803587811115614c4f5760008081fd5b614c5d8d8b83890101614ae1565b845250918801918801614c37565b5060408501525050506060928301359281019290925250949350505050565b60008060408385031215614c9d57600080fd5b82356001600160401b0380821115614cb457600080fd5b614cc086838701614841565b93506020850135915080821115614cd657600080fd5b50614ce385828601614841565b9150509250929050565b60208152815160208201526000602083015160e06040840152614d146101008401826145c0565b90506040840151601f1980858403016060860152614d3283836145c0565b92506060860151608086015260808601519150808584030160a0860152614d5983836145c0565b925060a086015160c086015260c08601519150808584030160e086015250614d8182826145c0565b95945050505050565b600060208284031215614d9c57600080fd5b5035919050565b60008060408385031215614db657600080fd5b50508035926020909101359150565b600060208284031215614dd757600080fd5b81356001600160401b03811115614ded57600080fd5b6148e484828501614ae1565b60008060408385031215614e0c57600080fd5b8235915060208301356001600160401b03811115614e2957600080fd5b614ce385828601614841565b805182526000602080830151608082860152614e5460808601826145c0565b9050604084015185820360408701528181518084528484019150848160051b850101858401935060005b82811015614eac57601f19868303018452614e9a828651614687565b94870194938701939150600101614e7e565b50606088015160608a015280965050505050505092915050565b602081526000610dc16020830184614e35565b60008060008060808587031215614eef57600080fd5b5050823594602084013594506040840135936060013592509050565b602081526000610dc160208301846145ec565b60008060008060008060c08789031215614f3757600080fd5b863595506020870135945060408701356001600160401b0380821115614f5c57600080fd5b614f688a838b01614841565b95506060890135915080821115614f7e57600080fd5b614f8a8a838b01614841565b94506080890135935060a0890135915080821115614fa757600080fd5b50614fb489828a01614841565b9150509295509295509295565b6000602080830181845280855180835260408601915060408160051b870101925083870160005b8281101561478157603f19888603018452615004858351614e35565b94509285019290850190600101614fe8565b602081526000610dc16020830184614687565b60008060006060848603121561503e57600080fd5b505081359360208301359350604090920135919050565b60006020828403121561506757600080fd5b81356001600160401b0381111561507d57600080fd5b6148e484828501614979565b87815260e0602082015260006150a260e08301896145c0565b82810360408401526150b481896145c0565b905086606084015282810360808401526150ce81876145c0565b90508460a084015282810360c08401526150e881856145c0565b9a9950505050505050505050565b600080600080600060a0868803121561510e57600080fd5b85356001600160401b038082111561512557600080fd5b61513189838a01614841565b9650602088013591508082111561514757600080fd5b61515389838a01614841565b9550604088013591508082111561516957600080fd5b61517589838a01614841565b9450606088013591508082111561518b57600080fd5b61519789838a01614841565b935060808801359150808211156151ad57600080fd5b506151ba88828901614841565b9150509295509295909350565b634e487b7160e01b600052601160045260246000fd5b600082198211156151f0576151f06151c7565b500190565b634e487b7160e01b600052603260045260246000fd5b600181811c9082168061521f57607f821691505b60208210810361306557634e487b7160e01b600052602260045260246000fd5b600060018201615251576152516151c7565b5060010190565b600080835481600182811c91508083168061527457607f831692505b6020808410820361529357634e487b7160e01b86526022600452602486fd5b8180156152a757600181146152b8576152e5565b60ff198616895284890196506152e5565b60008a81526020902060005b868110156152dd5781548b8201529085019083016152c4565b505084890196505b509498975050505050505050565b602081526000610dc160208301846145c0565b60208082526017908201527f43617465676f727920686173206e6f7420657869737473000000000000000000604082015260600190565b60208082526024908201527f596f757220656d61696c206f722070617373776f726420697320696e636f72726040820152636563742160e01b606082015260800190565b60208082526017908201527f43617465676f727920646f6573206e6f74206578697374000000000000000000604082015260600190565b6000828210156153ca576153ca6151c7565b500390565b600082516153e1818460208701614594565b919091019291505056fea2646970667358221220580d8476bdf4999bc6b9c8c86255cb099f68c7c7d229100111a4dc516d2bf06b64736f6c634300080d0033",
  "immutableReferences": {},
  "source": "// SPDX-License-Identifier: MIT\r\npragma solidity >=0.4.22 <0.9.0;\r\n\r\ncontract VotingSystem {\r\n    address public owner;\r\n    struct Voter {\r\n        uint256 id;\r\n        string key;\r\n        string email;\r\n        bytes32 password;\r\n        string role;\r\n        uint256 status; // 0: no verify, 1: verified, 2:banned\r\n        string token;\r\n    }\r\n\r\n    struct Event {\r\n        uint256 eventId;\r\n        string eventName;\r\n        uint256 categoryId;\r\n        Candidate[] candidates;\r\n        uint256 candidateCount;\r\n        uint256 status; // 1: Upcoming, 2: In Progress, 3: Completed, 4 Cancel\r\n    }\r\n\r\n    struct Category {\r\n        uint256 categoryId;\r\n        string categoryName;\r\n        Event[] events; //category has many event\r\n        uint256 status;\r\n    }\r\n\r\n    struct Candidate {\r\n        uint256 id;\r\n        string name;\r\n        string description;\r\n        uint256 studentId;\r\n        uint256 categoryId;\r\n        uint256 eventId;\r\n        uint256 voteCount;\r\n        bool win;\r\n        string imageFileName;\r\n    }\r\n\r\n    struct voteEventStruct {\r\n        uint256 id;\r\n        uint256 voterId;\r\n        uint256 categoryId;\r\n        uint256 eventId;\r\n        bool voted;\r\n    }\r\n\r\n    event CategoryAdded(uint256 indexed categoryId, string categoryName);\r\n\r\n    event VoterAdded(uint256 indexed voterId, string voter_key);\r\n    event EventAdded(uint256 indexed eventId, string eventName);\r\n\r\n    event CandidateAdded(uint256 indexed eventId, string eventName);\r\n\r\n    event VoteEvent(\r\n        uint256 indexed voterId,\r\n        string indexed categoryEvent,\r\n        uint256 indexed candidate\r\n    );\r\n\r\n    mapping(uint256 => Category) categories;\r\n    mapping(uint256 => Event) events;\r\n    mapping(uint256 => Candidate) candidates;\r\n    mapping(uint256 => voteEventStruct) public voteEvents;\r\n    mapping(uint256 => Voter) public voters;\r\n    mapping(string => bool) private usedImageFileNames;\r\n\r\n    uint256 categoryCount;\r\n    uint256 candidateCount;\r\n    uint256 eventCount;\r\n    uint256 voteEventCount;\r\n    uint256 voterCount;\r\n\r\n    constructor() {\r\n        owner = msg.sender;\r\n    }\r\n\r\n    function addVoter(\r\n        string memory _key,\r\n        string memory _email,\r\n        string memory _password,\r\n        string memory _role,\r\n        string memory _token\r\n    ) public {\r\n        for (uint256 i = 1; i <= voterCount; i++) {\r\n            require(\r\n                keccak256(bytes(_key)) != keccak256(bytes(voters[i].key)),\r\n                \"Voter already exists\"\r\n            );\r\n        }\r\n\r\n        // total category plus 1, use it as the category's id\r\n        voterCount += 1;\r\n\r\n        bytes32 hashedPassword = keccak256(abi.encodePacked(_password));\r\n\r\n        // add the category details in the category list\r\n        Voter storage voter = voters[voterCount];\r\n        voter.id = voterCount;\r\n        voter.key = _key;\r\n        voter.email = _email;\r\n        voter.password = hashedPassword;\r\n        voter.role = _role;\r\n        voter.status = 0;\r\n        voter.token = _token;\r\n\r\n        // emit the category added event\r\n        emit VoterAdded(voterCount, _key);\r\n    }\r\n\r\n    function loginVoter(string memory _email, string memory _password)\r\n        public\r\n        view\r\n        returns (Voter memory)\r\n    {\r\n        Voter memory voterFound = getVoterByEmailPassword(_email, _password);\r\n        require(voterFound.id != 0, \"Your email or password is incorrect!\");\r\n        require(\r\n            voterFound.status == 1,\r\n            \"Your account was banned or not verify!\"\r\n        );\r\n        return voterFound;\r\n    }\r\n\r\n    function compareHashesPassword(bytes32 inputPassword, bytes32 password)\r\n        internal\r\n        pure\r\n        returns (bool)\r\n    {\r\n        for (uint256 i = 0; i < 32; i++) {\r\n            if (inputPassword[i] != password[i]) {\r\n                return false;\r\n            }\r\n        }\r\n        return true;\r\n    }\r\n\r\n    function getVoterByEmailPassword(\r\n        string memory _email,\r\n        string memory _password\r\n    ) public view returns (Voter memory) {\r\n        bytes32 hashedPassword = keccak256(abi.encodePacked(_password));\r\n        for (uint256 i = 1; i <= voterCount; i++) {\r\n            if (\r\n                keccak256(bytes(_email)) == keccak256(bytes(voters[i].email)) &&\r\n                compareHashesPassword(hashedPassword, voters[i].password)\r\n            ) {\r\n                return voters[i];\r\n            }\r\n        }\r\n\r\n        // Event not found in the specified category\r\n        return Voter(0, \"\", \"\", \"\", \"\", 0, \"\");\r\n    }\r\n\r\n    function updateVoterPassword(string memory _key, string memory _password)\r\n        public\r\n    {\r\n        require(isVoterExist(_key), \"User does not exists\");\r\n\r\n        bytes32 hashedPassword = keccak256(abi.encodePacked(_password));\r\n        for (uint256 i = 1; i <= voterCount; i++) {\r\n            if (keccak256(bytes(_key)) == keccak256(bytes(voters[i].key))) {\r\n                voters[i].password = hashedPassword;\r\n            }\r\n        }\r\n    }\r\n\r\n    function verifyVoterAccount(string memory _token) public returns (bool) {\r\n        require(voters[1].id != 0, \"No voter in the list!\");\r\n        for (uint256 i = 1; i <= voterCount; i++) {\r\n            if (keccak256(bytes(_token)) == keccak256(bytes(voters[i].token))) {\r\n                voters[i].status = 1;\r\n                return true;\r\n            }\r\n        }\r\n        return false;\r\n    }\r\n\r\n    function getVoterStatus(string memory _email, string memory _password)\r\n        public\r\n        view\r\n        returns (uint256 status)\r\n    {\r\n        Voter memory voterFound = getVoterByEmailPassword(_email, _password);\r\n        require(voterFound.id != 0, \"Your email or password is incorrect!\");\r\n        return voterFound.status;\r\n    }\r\n\r\n    function checkVoterEmailPassword(\r\n        string memory _email,\r\n        string memory _password\r\n    ) public view returns (bool foundVoter) {\r\n        Voter memory voterFound = getVoterByEmailPassword(_email, _password);\r\n\r\n        if (voterFound.id != 0) {\r\n            return true;\r\n        }\r\n        return false;\r\n    }\r\n\r\n    function isVoterExist(string memory _key) public view returns (bool) {\r\n        for (uint256 i = 1; i <= voterCount; i++) {\r\n            if (keccak256(bytes(_key)) == keccak256(bytes(voters[i].key))) {\r\n                return true;\r\n            }\r\n        }\r\n        return false;\r\n    }\r\n\r\n    function addCategory(string memory _categoryName) public {\r\n        // check if the category is exist\r\n        for (uint256 i = 1; i <= categoryCount; i++) {\r\n            require(\r\n                keccak256(bytes(_categoryName)) !=\r\n                    keccak256(bytes(categories[i].categoryName)),\r\n                \"Category already exists\"\r\n            );\r\n        }\r\n\r\n        // total category plus 1, use it as the category's id\r\n        categoryCount += 1;\r\n\r\n        // add the category details in the category list\r\n        Category storage category = categories[categoryCount];\r\n        category.categoryName = _categoryName;\r\n        category.categoryId = categoryCount;\r\n        category.status = 1;\r\n\r\n        // emit the category added event\r\n        emit CategoryAdded(categoryCount, _categoryName);\r\n    }\r\n\r\n    function updateCategory(Category memory _category) public {\r\n        // check if the category is exist\r\n        require(\r\n            categories[_category.categoryId].categoryId != 0,\r\n            \"Category has not exists\"\r\n        );\r\n\r\n        // add the category details in the category list\r\n        Category storage category = categories[_category.categoryId];\r\n        category.categoryName = _category.categoryName;\r\n        category.status = _category.status;\r\n    }\r\n\r\n    function addEvent(uint256 _categoryId, string memory _eventName) public {\r\n        // check if the category has exists\r\n        require(\r\n            categories[_categoryId].categoryId != 0,\r\n            \"Category has not exists\"\r\n        );\r\n\r\n        require(\r\n            isEventExists(_categoryId, _eventName) == false,\r\n            \"Event already exists\"\r\n        );\r\n\r\n        // find out the category in list by using the paramerter category name\r\n        Category storage category = categories[_categoryId];\r\n\r\n        // add the event in the category list\r\n        uint256 eventId = eventCount += 1;\r\n\r\n        Event storage newEvent = category.events.push();\r\n        newEvent.eventId = eventId;\r\n        newEvent.eventName = _eventName;\r\n        newEvent.categoryId = _categoryId;\r\n        newEvent.status = 1;\r\n    }\r\n\r\n    function isEventExists(uint256 _categoryId, string memory _eventName)\r\n        public\r\n        view\r\n        returns (bool)\r\n    {\r\n        // Check if the category exists\r\n        require(\r\n            categories[_categoryId].categoryId != 0,\r\n            \"Category does not exist\"\r\n        );\r\n\r\n        // Loop through the events in the specified category\r\n        for (uint256 i = 0; i < categories[_categoryId].events.length; i++) {\r\n            if (\r\n                keccak256(bytes(categories[_categoryId].events[i].eventName)) ==\r\n                keccak256(bytes(_eventName))\r\n            ) {\r\n                // Event found\r\n                return true;\r\n            }\r\n        }\r\n\r\n        // Event not found in the specified category\r\n        return false;\r\n    }\r\n\r\n    function updateEvent(Event memory _event) public {\r\n        // check if the category is exist\r\n        require(\r\n            categories[_event.categoryId].categoryId != 0,\r\n            \"Category does not exists\"\r\n        );\r\n        require(\r\n            isEventExists(_event.categoryId, _event.eventId),\r\n            \"Event does not exist!\"\r\n        );\r\n        // add the category details in the category list\r\n        Event storage eventToUpdate = categories[_event.categoryId].events[\r\n            _event.eventId - 1\r\n        ];\r\n\r\n        eventToUpdate.eventName = _event.eventName;\r\n        eventToUpdate.status = _event.status;\r\n    }\r\n\r\n        function addCandidateToEvent(\r\n        uint256 _categoryId,\r\n        uint256 _eventId,\r\n        string memory _candidateName,\r\n        string memory _description,\r\n        uint256 _studentId,\r\n        string memory _imageFileName\r\n    ) public {\r\n        require(\r\n            categories[_categoryId].categoryId != 0,\r\n            \"Category does not exist\"\r\n        );\r\n        require(\r\n            isEventExists(_categoryId, _eventId),\r\n            \"Event does not exist\"\r\n        );\r\n        require(\r\n            !isCandidateExistsInEvent(_categoryId, _eventId, _studentId),\r\n            \"Candidate already exists\"\r\n        );\r\n        // Check if the image file name is already used\r\n        require(\r\n            !usedImageFileNames[_imageFileName],\r\n            \"Image file name already in use\"\r\n        );\r\n\r\n        candidateCount += 1;\r\n\r\n        // Create a new candidate\r\n        Candidate memory newCandidate = Candidate({\r\n            id: candidateCount,\r\n            name: _candidateName,\r\n            studentId: _studentId,\r\n            categoryId: _categoryId,\r\n            eventId: _eventId,\r\n            description: _description,\r\n            win: false,\r\n            voteCount: 0,\r\n            imageFileName: _imageFileName\r\n        });\r\n\r\n        // find the certain category\r\n        Category storage category = categories[_categoryId];\r\n        // find the certain event in certain category\r\n        for (uint256 i = 0; i < category.events.length; i++) {\r\n            if (category.events[i].eventId == _eventId) {\r\n                category.events[i].candidates.push(newCandidate);\r\n                category.events[i].candidateCount += 1;\r\n            }\r\n        }\r\n\r\n        // Mark the image file name as used\r\n        usedImageFileNames[_imageFileName] = true;\r\n    }\r\n\r\n    function updateCandidate(Candidate memory _candidate) public {\r\n        require(\r\n            categories[_candidate.categoryId].categoryId != 0,\r\n            \"Category has not exists\"\r\n        );\r\n\r\n        require(\r\n            isEventExists(_candidate.categoryId, _candidate.eventId) == true,\r\n            \"Event has not exists\"\r\n        );\r\n\r\n        require(\r\n            isCandidateExistsInEvent(\r\n                _candidate.categoryId,\r\n                _candidate.eventId,\r\n                _candidate.studentId\r\n            ) == true,\r\n            \"Candidate does not existed\"\r\n        );\r\n\r\n        Candidate storage candidateToUpdate = categories[_candidate.categoryId]\r\n            .events[_candidate.eventId - 1]\r\n            .candidates[_candidate.id - 1];\r\n\r\n        candidateToUpdate.name = _candidate.name;\r\n        candidateToUpdate.studentId = _candidate.studentId;\r\n        candidateToUpdate.description = _candidate.description;\r\n    }\r\n\r\n    function isCandidateExistsInEvent(\r\n        uint256 _categoryId,\r\n        uint256 _eventId,\r\n        uint256 _studentId\r\n    ) public view returns (bool) {\r\n        // Check if the category exists\r\n        require(\r\n            categories[_categoryId].categoryId != 0,\r\n            \"Category does not exist\"\r\n        );\r\n\r\n        Candidate[] memory candidatesFound = getAllCandidatesInEvent(\r\n            _categoryId,\r\n            _eventId\r\n        );\r\n\r\n        // Loop through the events in the specified category\r\n\r\n        for (uint256 i = 0; i < candidatesFound.length; i++) {\r\n            if (candidatesFound[i].studentId == _studentId) {\r\n                return true;\r\n            }\r\n        }\r\n\r\n        // Event not found in the specified category\r\n        return false;\r\n    }\r\n\r\n    function isCandidateExistsInEventById(\r\n        uint256 _categoryId,\r\n        uint256 _eventId,\r\n        uint256 _candidateId\r\n    ) public view returns (bool) {\r\n        // Check if the category exists\r\n        require(\r\n            categories[_categoryId].categoryId != 0,\r\n            \"Category does not exist\"\r\n        );\r\n\r\n        Candidate[] memory candidatesFound = getAllCandidatesInEvent(\r\n            _categoryId,\r\n            _eventId\r\n        );\r\n\r\n        // Loop through the events in the specified category\r\n\r\n        for (uint256 i = 0; i < candidatesFound.length; i++) {\r\n            if (candidatesFound[i].id == _candidateId) {\r\n                return true;\r\n            }\r\n        }\r\n\r\n        // Event not found in the specified category\r\n        return false;\r\n    }\r\n\r\n    function isEventExists(uint256 _categoryId, uint256 _eventId)\r\n        public\r\n        view\r\n        returns (bool)\r\n    {\r\n        // Check if the category exists\r\n        require(\r\n            categories[_categoryId].categoryId != 0,\r\n            \"Category does not exist\"\r\n        );\r\n\r\n        // Loop through the events in the specified category\r\n        for (uint256 i = 0; i < categories[_categoryId].events.length; i++) {\r\n            if (categories[_categoryId].events[i].eventId == _eventId) {\r\n                // Event found\r\n                return true;\r\n            }\r\n        }\r\n\r\n        // Event not found in the specified category\r\n        return false;\r\n    }\r\n\r\n    function getAllCategoryEvent(uint256 _categoryId)\r\n        public\r\n        view\r\n        returns (Event[] memory foundEvent)\r\n    {\r\n        // find the certain category\r\n        Category storage category = categories[_categoryId];\r\n\r\n        // declare an array variable for storing events\r\n        Event[] memory eventsFound = new Event[](category.events.length);\r\n\r\n        // get all the event name by searching the event in list\r\n        for (uint256 i = 0; i < category.events.length; i++) {\r\n            eventsFound[i] = category.events[i];\r\n        }\r\n\r\n        return (eventsFound);\r\n    }\r\n\r\n    function getAllCandidatesInEvent(uint256 _categoryId, uint256 _eventId)\r\n        public\r\n        view\r\n        returns (Candidate[] memory foundCandidates)\r\n    {\r\n        // find the certain category\r\n        Category storage category = categories[_categoryId];\r\n        // find the certain event in certain category\r\n        for (uint256 i = 0; i < category.events.length; i++) {\r\n            if (category.events[i].eventId == _eventId) {\r\n                Candidate[] memory candidatesFound = new Candidate[](\r\n                    category.events[i].candidateCount\r\n                );\r\n\r\n                for (\r\n                    uint256 j = 0;\r\n                    j < category.events[i].candidates.length;\r\n                    j++\r\n                ) {\r\n                    candidatesFound[j] = category.events[i].candidates[j];\r\n                }\r\n                return (candidatesFound);\r\n            }\r\n        }\r\n    }\r\n\r\n    function getAllCandidates() public view returns (Candidate[] memory) {\r\n        Candidate[] memory candidatesFound = new Candidate[](candidateCount);\r\n        Event[] memory eventFound = new Event[](eventCount);\r\n\r\n        // get all the events\r\n        eventFound = getAllEvent();\r\n        uint256 count = 0;\r\n        // find the candidates inside all the event\r\n        for (uint256 i = 0; i < eventCount; i++) {\r\n            for (uint256 j = 0; j < eventFound[i].candidates.length; j++) {\r\n                candidatesFound[count] = eventFound[i].candidates[j];\r\n                count += 1;\r\n            }\r\n        }\r\n\r\n        return candidatesFound;\r\n    }\r\n\r\n    function getAllCategory() public view returns (Category[] memory) {\r\n        //Candidate[] memory candidatesFound = new Candidate[](candidateCount);\r\n        Category[] memory categoriesFound = new Category[](categoryCount);\r\n        // Iterate through all stored structs\r\n        for (uint256 i = 1; i <= categoryCount; i++) {\r\n            categoriesFound[i - 1] = categories[i];\r\n        }\r\n\r\n        return categoriesFound;\r\n    }\r\n\r\n    function getCategoryById(uint256 _categoryId)\r\n        public\r\n        view\r\n        returns (Category memory)\r\n    {\r\n        return categories[_categoryId];\r\n    }\r\n\r\n    function getAllEvent() public view returns (Event[] memory) {\r\n        // Initialize the array with the correct size\r\n        Event[] memory eventFound = new Event[](eventCount);\r\n        uint256 count = 0;\r\n\r\n        // Iterate through all categories and events\r\n        for (uint256 i = 0; i < categoryCount; i++) {\r\n            for (uint256 j = 0; j < categories[i + 1].events.length; j++) {\r\n                eventFound[count] = categories[i + 1].events[j];\r\n                count += 1;\r\n            }\r\n        }\r\n\r\n        return eventFound;\r\n    }\r\n\r\n    function getEventById(uint256 _categoryId, uint256 _eventId)\r\n        public\r\n        view\r\n        returns (Event memory)\r\n    {\r\n        Category memory categoriesFound = categories[_categoryId];\r\n        Event memory eventFound;\r\n        // Iterate through all stored structs\r\n        for (uint256 i = 0; i < categoriesFound.events.length; i++) {\r\n            if (categoriesFound.events[i].eventId == _eventId) {\r\n                eventFound = categoriesFound.events[i];\r\n            }\r\n        }\r\n\r\n        return eventFound;\r\n    }\r\n\r\n    function vote(\r\n        uint256 _voterId,\r\n        uint256 _candidateId,\r\n        uint256 _categoryId,\r\n        uint256 _eventId\r\n    ) external {\r\n        require(\r\n            categories[_categoryId].categoryId != 0,\r\n            \"Category does not exists\"\r\n        );\r\n\r\n        require(eventCount != 0, \"Event does not exists\");\r\n\r\n        // for (uint256 i = 1; i <= categories[_categoryId].events.length; i++) {\r\n        //     require(categories[_categoryId].events[i-0].eventId == _eventId, \"noobbbbb\");\r\n        // }\r\n\r\n        require(\r\n            isCandidateExistsInEventById(_categoryId, _eventId, _candidateId) ==\r\n                true,\r\n            \"Candidates does not exists\"\r\n        );\r\n\r\n        // check if has voted\r\n        for (uint256 i = 1; i <= voteEventCount; i++) {\r\n            if (\r\n                _voterId == voteEvents[i].voterId &&\r\n                _categoryId == voteEvents[i].categoryId &&\r\n                _eventId == voteEvents[i].eventId\r\n            ) {\r\n                require(!voteEvents[i].voted, \"You already voted\");\r\n                break;\r\n            }\r\n        }\r\n\r\n        // add count on the candidate\r\n        voteEventCount += 1;\r\n\r\n        // Create a new voteEventStruct\r\n        voteEventStruct memory newVoteEvent = voteEventStruct({\r\n            id: voteEventCount,\r\n            voterId: _voterId,\r\n            categoryId: _categoryId,\r\n            eventId: _eventId,\r\n            voted: true\r\n        });\r\n\r\n        voteEvents[voteEventCount] = newVoteEvent;\r\n\r\n        // add the vote count of the chosen candidate\r\n        addVoteCount(_candidateId);\r\n        addVoteCountIn(_categoryId, _eventId, _candidateId);\r\n\r\n        string memory concatenatedValues = string(\r\n            abi.encodePacked(_categoryId, _eventId)\r\n        );\r\n\r\n        emit VoteEvent(_voterId, concatenatedValues, _candidateId);\r\n    }\r\n\r\n    function addVoteCount(uint256 _candidateId) internal {\r\n        candidates[_candidateId].voteCount += 1;\r\n    }\r\n\r\n    function addVoteCountIn(\r\n        uint256 _categoryId,\r\n        uint256 _eventId,\r\n        uint256 _candidateId\r\n    ) internal {\r\n        // get the events inside the categories\r\n        Event[] storage eventsFound = categories[_categoryId].events;\r\n\r\n        // find the event with param\r\n        for (uint256 i = 0; i < eventsFound.length; i++) {\r\n            if (eventsFound[i].eventId == _eventId) {\r\n                // get the candidate inside the event\r\n                Candidate[] storage candidatesFound = eventsFound[i].candidates;\r\n                // find the candidate\r\n                for (uint256 j = 0; j < candidatesFound.length; j++) {\r\n                    if (candidatesFound[j].id == _candidateId) {\r\n                        // found the candidate and plus 1 at the voteCount\r\n                        candidatesFound[j].voteCount += 1;\r\n                        break;\r\n                    }\r\n                }\r\n            }\r\n        }\r\n    }\r\n\r\n    function getCandidateVoteCount(uint256 _candidateId)\r\n        public\r\n        view\r\n        returns (uint256 count)\r\n    {\r\n        return candidates[_candidateId].voteCount;\r\n    }\r\n\r\n    function getVoteEventCandidate(uint256 _categoryId, uint256 _eventId)\r\n        public\r\n        view\r\n        returns (Candidate[] memory)\r\n    {\r\n        Event[] memory eventsFound = categories[_categoryId].events;\r\n\r\n        for (uint256 i = 0; i < eventsFound.length; i++) {\r\n            if (eventsFound[i].eventId == _eventId) {\r\n                return eventsFound[i].candidates;\r\n            }\r\n        }\r\n\r\n        // If the event is not found, return an empty array or handle the situation accordingly\r\n        return new Candidate[](0);\r\n    }\r\n\r\n    function whoIsTheWinner(uint256 _categoryId, uint256 _eventId)\r\n        public\r\n        view\r\n        returns (Candidate memory)\r\n    {\r\n        Event[] memory eventsFound = categories[_categoryId].events;\r\n        Candidate[] memory candidatesFound;\r\n\r\n        for (uint256 i = 0; i < eventsFound.length; i++) {\r\n            if (eventsFound[i].eventId == _eventId) {\r\n                candidatesFound = eventsFound[i].candidates;\r\n            }\r\n        }\r\n\r\n        Candidate memory winner = candidatesFound[0];\r\n\r\n        for (uint256 i = 0; i < candidatesFound.length - 1; i++) {\r\n            if (winner.voteCount < candidatesFound[i + 1].voteCount) {\r\n                winner = candidatesFound[i + 1];\r\n            }\r\n        }\r\n\r\n        winner.win = true;\r\n\r\n        // If the event is not found, return an empty array or handle the situation accordingly\r\n        return winner;\r\n    }\r\n}",
  "sourcePath": "C:\\Users\\User\\FYP1\\contracts\\VotingSystem.sol",
  "compiler": {
    "name": "solc",
    "version": "0.8.13+commit.abaa5c0e.Emscripten.clang"
  },
  "schemaVersion": "3.4.16",
  "updatedAt": "2023-12-07T16:20:32.860Z",
  "networkType": "ethereum",
  "devdoc": {
    "kind": "dev",
    "methods": {},
    "version": 1
  },
  "userdoc": {
    "kind": "user",
    "methods": {},
    "version": 1
  }
}