{
  "contractName": "VotingSystem",
  "abi": [
    {
      "inputs": [],
      "stateMutability": "nonpayable",
      "type": "constructor"
    },
    {
      "anonymous": false,
      "inputs": [
        {
          "indexed": true,
          "internalType": "uint256",
          "name": "eventId",
          "type": "uint256"
        },
        {
          "indexed": false,
          "internalType": "string",
          "name": "eventName",
          "type": "string"
        }
      ],
      "name": "CandidateAdded",
      "type": "event"
    },
    {
      "anonymous": false,
      "inputs": [
        {
          "indexed": true,
          "internalType": "uint256",
          "name": "categoryId",
          "type": "uint256"
        },
        {
          "indexed": false,
          "internalType": "string",
          "name": "categoryName",
          "type": "string"
        }
      ],
      "name": "CategoryAdded",
      "type": "event"
    },
    {
      "anonymous": false,
      "inputs": [
        {
          "indexed": true,
          "internalType": "uint256",
          "name": "eventId",
          "type": "uint256"
        },
        {
          "indexed": false,
          "internalType": "string",
          "name": "eventName",
          "type": "string"
        }
      ],
      "name": "EventAdded",
      "type": "event"
    },
    {
      "anonymous": false,
      "inputs": [
        {
          "indexed": true,
          "internalType": "string",
          "name": "_voterKey",
          "type": "string"
        },
        {
          "indexed": true,
          "internalType": "string",
          "name": "categoryEvent",
          "type": "string"
        },
        {
          "indexed": true,
          "internalType": "uint256",
          "name": "candidate",
          "type": "uint256"
        }
      ],
      "name": "VoteEvent",
      "type": "event"
    },
    {
      "anonymous": false,
      "inputs": [
        {
          "indexed": true,
          "internalType": "uint256",
          "name": "voterId",
          "type": "uint256"
        },
        {
          "indexed": false,
          "internalType": "string",
          "name": "voter_key",
          "type": "string"
        }
      ],
      "name": "VoterAdded",
      "type": "event"
    },
    {
      "inputs": [],
      "name": "owner",
      "outputs": [
        {
          "internalType": "address",
          "name": "",
          "type": "address"
        }
      ],
      "stateMutability": "view",
      "type": "function",
      "constant": true
    },
    {
      "inputs": [
        {
          "internalType": "uint256",
          "name": "",
          "type": "uint256"
        }
      ],
      "name": "voteEvents",
      "outputs": [
        {
          "internalType": "uint256",
          "name": "id",
          "type": "uint256"
        },
        {
          "internalType": "string",
          "name": "voterKey",
          "type": "string"
        },
        {
          "internalType": "uint256",
          "name": "categoryId",
          "type": "uint256"
        },
        {
          "internalType": "uint256",
          "name": "eventId",
          "type": "uint256"
        },
        {
          "internalType": "bool",
          "name": "voted",
          "type": "bool"
        }
      ],
      "stateMutability": "view",
      "type": "function",
      "constant": true
    },
    {
      "inputs": [
        {
          "internalType": "uint256",
          "name": "",
          "type": "uint256"
        }
      ],
      "name": "voters",
      "outputs": [
        {
          "internalType": "uint256",
          "name": "id",
          "type": "uint256"
        },
        {
          "internalType": "string",
          "name": "key",
          "type": "string"
        },
        {
          "internalType": "string",
          "name": "email",
          "type": "string"
        },
        {
          "internalType": "bytes32",
          "name": "password",
          "type": "bytes32"
        },
        {
          "internalType": "string",
          "name": "role",
          "type": "string"
        },
        {
          "internalType": "uint256",
          "name": "status",
          "type": "uint256"
        },
        {
          "internalType": "string",
          "name": "token",
          "type": "string"
        }
      ],
      "stateMutability": "view",
      "type": "function",
      "constant": true
    },
    {
      "inputs": [
        {
          "internalType": "string",
          "name": "_key",
          "type": "string"
        },
        {
          "internalType": "string",
          "name": "_email",
          "type": "string"
        },
        {
          "internalType": "string",
          "name": "_password",
          "type": "string"
        },
        {
          "internalType": "string",
          "name": "_role",
          "type": "string"
        },
        {
          "internalType": "string",
          "name": "_token",
          "type": "string"
        }
      ],
      "name": "addVoter",
      "outputs": [],
      "stateMutability": "nonpayable",
      "type": "function"
    },
    {
      "inputs": [
        {
          "internalType": "string",
          "name": "_email",
          "type": "string"
        },
        {
          "internalType": "string",
          "name": "_password",
          "type": "string"
        }
      ],
      "name": "loginVoter",
      "outputs": [
        {
          "components": [
            {
              "internalType": "uint256",
              "name": "id",
              "type": "uint256"
            },
            {
              "internalType": "string",
              "name": "key",
              "type": "string"
            },
            {
              "internalType": "string",
              "name": "email",
              "type": "string"
            },
            {
              "internalType": "bytes32",
              "name": "password",
              "type": "bytes32"
            },
            {
              "internalType": "string",
              "name": "role",
              "type": "string"
            },
            {
              "internalType": "uint256",
              "name": "status",
              "type": "uint256"
            },
            {
              "internalType": "string",
              "name": "token",
              "type": "string"
            }
          ],
          "internalType": "struct VotingSystem.Voter",
          "name": "",
          "type": "tuple"
        }
      ],
      "stateMutability": "view",
      "type": "function",
      "constant": true
    },
    {
      "inputs": [
        {
          "internalType": "string",
          "name": "_email",
          "type": "string"
        },
        {
          "internalType": "string",
          "name": "_password",
          "type": "string"
        }
      ],
      "name": "getVoterByEmailPassword",
      "outputs": [
        {
          "components": [
            {
              "internalType": "uint256",
              "name": "id",
              "type": "uint256"
            },
            {
              "internalType": "string",
              "name": "key",
              "type": "string"
            },
            {
              "internalType": "string",
              "name": "email",
              "type": "string"
            },
            {
              "internalType": "bytes32",
              "name": "password",
              "type": "bytes32"
            },
            {
              "internalType": "string",
              "name": "role",
              "type": "string"
            },
            {
              "internalType": "uint256",
              "name": "status",
              "type": "uint256"
            },
            {
              "internalType": "string",
              "name": "token",
              "type": "string"
            }
          ],
          "internalType": "struct VotingSystem.Voter",
          "name": "",
          "type": "tuple"
        }
      ],
      "stateMutability": "view",
      "type": "function",
      "constant": true
    },
    {
      "inputs": [
        {
          "internalType": "string",
          "name": "_key",
          "type": "string"
        },
        {
          "internalType": "string",
          "name": "_password",
          "type": "string"
        }
      ],
      "name": "updateVoterPassword",
      "outputs": [],
      "stateMutability": "nonpayable",
      "type": "function"
    },
    {
      "inputs": [
        {
          "internalType": "string",
          "name": "_token",
          "type": "string"
        }
      ],
      "name": "verifyVoterAccount",
      "outputs": [
        {
          "internalType": "bool",
          "name": "",
          "type": "bool"
        }
      ],
      "stateMutability": "nonpayable",
      "type": "function"
    },
    {
      "inputs": [
        {
          "internalType": "string",
          "name": "_email",
          "type": "string"
        },
        {
          "internalType": "string",
          "name": "_password",
          "type": "string"
        }
      ],
      "name": "getVoterStatus",
      "outputs": [
        {
          "internalType": "uint256",
          "name": "status",
          "type": "uint256"
        }
      ],
      "stateMutability": "view",
      "type": "function",
      "constant": true
    },
    {
      "inputs": [
        {
          "internalType": "string",
          "name": "_email",
          "type": "string"
        },
        {
          "internalType": "string",
          "name": "_password",
          "type": "string"
        }
      ],
      "name": "checkVoterEmailPassword",
      "outputs": [
        {
          "internalType": "bool",
          "name": "foundVoter",
          "type": "bool"
        }
      ],
      "stateMutability": "view",
      "type": "function",
      "constant": true
    },
    {
      "inputs": [
        {
          "internalType": "string",
          "name": "_key",
          "type": "string"
        }
      ],
      "name": "isVoterExist",
      "outputs": [
        {
          "internalType": "bool",
          "name": "",
          "type": "bool"
        }
      ],
      "stateMutability": "view",
      "type": "function",
      "constant": true
    },
    {
      "inputs": [
        {
          "internalType": "string",
          "name": "_categoryName",
          "type": "string"
        }
      ],
      "name": "addCategory",
      "outputs": [],
      "stateMutability": "nonpayable",
      "type": "function"
    },
    {
      "inputs": [
        {
          "components": [
            {
              "internalType": "uint256",
              "name": "categoryId",
              "type": "uint256"
            },
            {
              "internalType": "string",
              "name": "categoryName",
              "type": "string"
            },
            {
              "components": [
                {
                  "internalType": "uint256",
                  "name": "eventId",
                  "type": "uint256"
                },
                {
                  "internalType": "string",
                  "name": "eventName",
                  "type": "string"
                },
                {
                  "internalType": "uint256",
                  "name": "categoryId",
                  "type": "uint256"
                },
                {
                  "components": [
                    {
                      "internalType": "uint256",
                      "name": "id",
                      "type": "uint256"
                    },
                    {
                      "internalType": "string",
                      "name": "name",
                      "type": "string"
                    },
                    {
                      "internalType": "string",
                      "name": "description",
                      "type": "string"
                    },
                    {
                      "internalType": "uint256",
                      "name": "studentId",
                      "type": "uint256"
                    },
                    {
                      "internalType": "uint256",
                      "name": "categoryId",
                      "type": "uint256"
                    },
                    {
                      "internalType": "uint256",
                      "name": "eventId",
                      "type": "uint256"
                    },
                    {
                      "internalType": "uint256",
                      "name": "voteCount",
                      "type": "uint256"
                    },
                    {
                      "internalType": "bool",
                      "name": "win",
                      "type": "bool"
                    },
                    {
                      "internalType": "string",
                      "name": "imageFileName",
                      "type": "string"
                    }
                  ],
                  "internalType": "struct VotingSystem.Candidate[]",
                  "name": "candidates",
                  "type": "tuple[]"
                },
                {
                  "internalType": "uint256",
                  "name": "candidateCount",
                  "type": "uint256"
                },
                {
                  "internalType": "uint256",
                  "name": "status",
                  "type": "uint256"
                }
              ],
              "internalType": "struct VotingSystem.Event[]",
              "name": "events",
              "type": "tuple[]"
            },
            {
              "internalType": "uint256",
              "name": "status",
              "type": "uint256"
            }
          ],
          "internalType": "struct VotingSystem.Category",
          "name": "_category",
          "type": "tuple"
        }
      ],
      "name": "updateCategory",
      "outputs": [],
      "stateMutability": "nonpayable",
      "type": "function"
    },
    {
      "inputs": [
        {
          "internalType": "uint256",
          "name": "_categoryId",
          "type": "uint256"
        },
        {
          "internalType": "string",
          "name": "_eventName",
          "type": "string"
        }
      ],
      "name": "addEvent",
      "outputs": [],
      "stateMutability": "nonpayable",
      "type": "function"
    },
    {
      "inputs": [
        {
          "components": [
            {
              "internalType": "uint256",
              "name": "eventId",
              "type": "uint256"
            },
            {
              "internalType": "string",
              "name": "eventName",
              "type": "string"
            },
            {
              "internalType": "uint256",
              "name": "categoryId",
              "type": "uint256"
            },
            {
              "components": [
                {
                  "internalType": "uint256",
                  "name": "id",
                  "type": "uint256"
                },
                {
                  "internalType": "string",
                  "name": "name",
                  "type": "string"
                },
                {
                  "internalType": "string",
                  "name": "description",
                  "type": "string"
                },
                {
                  "internalType": "uint256",
                  "name": "studentId",
                  "type": "uint256"
                },
                {
                  "internalType": "uint256",
                  "name": "categoryId",
                  "type": "uint256"
                },
                {
                  "internalType": "uint256",
                  "name": "eventId",
                  "type": "uint256"
                },
                {
                  "internalType": "uint256",
                  "name": "voteCount",
                  "type": "uint256"
                },
                {
                  "internalType": "bool",
                  "name": "win",
                  "type": "bool"
                },
                {
                  "internalType": "string",
                  "name": "imageFileName",
                  "type": "string"
                }
              ],
              "internalType": "struct VotingSystem.Candidate[]",
              "name": "candidates",
              "type": "tuple[]"
            },
            {
              "internalType": "uint256",
              "name": "candidateCount",
              "type": "uint256"
            },
            {
              "internalType": "uint256",
              "name": "status",
              "type": "uint256"
            }
          ],
          "internalType": "struct VotingSystem.Event",
          "name": "_event",
          "type": "tuple"
        }
      ],
      "name": "updateEvent",
      "outputs": [],
      "stateMutability": "nonpayable",
      "type": "function"
    },
    {
      "inputs": [
        {
          "internalType": "uint256",
          "name": "_categoryId",
          "type": "uint256"
        },
        {
          "internalType": "uint256",
          "name": "_eventId",
          "type": "uint256"
        },
        {
          "internalType": "string",
          "name": "_candidateName",
          "type": "string"
        },
        {
          "internalType": "string",
          "name": "_description",
          "type": "string"
        },
        {
          "internalType": "uint256",
          "name": "_studentId",
          "type": "uint256"
        },
        {
          "internalType": "string",
          "name": "_imageFileName",
          "type": "string"
        }
      ],
      "name": "addCandidateToEvent",
      "outputs": [],
      "stateMutability": "nonpayable",
      "type": "function"
    },
    {
      "inputs": [
        {
          "components": [
            {
              "internalType": "uint256",
              "name": "id",
              "type": "uint256"
            },
            {
              "internalType": "string",
              "name": "name",
              "type": "string"
            },
            {
              "internalType": "string",
              "name": "description",
              "type": "string"
            },
            {
              "internalType": "uint256",
              "name": "studentId",
              "type": "uint256"
            },
            {
              "internalType": "uint256",
              "name": "categoryId",
              "type": "uint256"
            },
            {
              "internalType": "uint256",
              "name": "eventId",
              "type": "uint256"
            },
            {
              "internalType": "uint256",
              "name": "voteCount",
              "type": "uint256"
            },
            {
              "internalType": "bool",
              "name": "win",
              "type": "bool"
            },
            {
              "internalType": "string",
              "name": "imageFileName",
              "type": "string"
            }
          ],
          "internalType": "struct VotingSystem.Candidate",
          "name": "_candidate",
          "type": "tuple"
        }
      ],
      "name": "updateCandidate",
      "outputs": [],
      "stateMutability": "nonpayable",
      "type": "function"
    },
    {
      "inputs": [
        {
          "internalType": "uint256",
          "name": "_categoryId",
          "type": "uint256"
        },
        {
          "internalType": "uint256",
          "name": "_eventId",
          "type": "uint256"
        },
        {
          "internalType": "uint256",
          "name": "_studentId",
          "type": "uint256"
        }
      ],
      "name": "isCandidateExistsInEvent",
      "outputs": [
        {
          "internalType": "bool",
          "name": "",
          "type": "bool"
        }
      ],
      "stateMutability": "view",
      "type": "function",
      "constant": true
    },
    {
      "inputs": [
        {
          "internalType": "uint256",
          "name": "_categoryId",
          "type": "uint256"
        },
        {
          "internalType": "uint256",
          "name": "_eventId",
          "type": "uint256"
        },
        {
          "internalType": "uint256",
          "name": "_candidateId",
          "type": "uint256"
        }
      ],
      "name": "isCandidateExistsInEventById",
      "outputs": [
        {
          "internalType": "bool",
          "name": "",
          "type": "bool"
        }
      ],
      "stateMutability": "view",
      "type": "function",
      "constant": true
    },
    {
      "inputs": [
        {
          "internalType": "uint256",
          "name": "_categoryId",
          "type": "uint256"
        },
        {
          "internalType": "uint256",
          "name": "_eventId",
          "type": "uint256"
        }
      ],
      "name": "isEventExists",
      "outputs": [
        {
          "internalType": "bool",
          "name": "",
          "type": "bool"
        }
      ],
      "stateMutability": "view",
      "type": "function",
      "constant": true
    },
    {
      "inputs": [
        {
          "internalType": "uint256",
          "name": "_categoryId",
          "type": "uint256"
        },
        {
          "internalType": "string",
          "name": "_eventName",
          "type": "string"
        }
      ],
      "name": "isEventExists",
      "outputs": [
        {
          "internalType": "bool",
          "name": "",
          "type": "bool"
        }
      ],
      "stateMutability": "view",
      "type": "function",
      "constant": true
    },
    {
      "inputs": [
        {
          "internalType": "uint256",
          "name": "_categoryId",
          "type": "uint256"
        }
      ],
      "name": "getAllCategoryEvent",
      "outputs": [
        {
          "components": [
            {
              "internalType": "uint256",
              "name": "eventId",
              "type": "uint256"
            },
            {
              "internalType": "string",
              "name": "eventName",
              "type": "string"
            },
            {
              "internalType": "uint256",
              "name": "categoryId",
              "type": "uint256"
            },
            {
              "components": [
                {
                  "internalType": "uint256",
                  "name": "id",
                  "type": "uint256"
                },
                {
                  "internalType": "string",
                  "name": "name",
                  "type": "string"
                },
                {
                  "internalType": "string",
                  "name": "description",
                  "type": "string"
                },
                {
                  "internalType": "uint256",
                  "name": "studentId",
                  "type": "uint256"
                },
                {
                  "internalType": "uint256",
                  "name": "categoryId",
                  "type": "uint256"
                },
                {
                  "internalType": "uint256",
                  "name": "eventId",
                  "type": "uint256"
                },
                {
                  "internalType": "uint256",
                  "name": "voteCount",
                  "type": "uint256"
                },
                {
                  "internalType": "bool",
                  "name": "win",
                  "type": "bool"
                },
                {
                  "internalType": "string",
                  "name": "imageFileName",
                  "type": "string"
                }
              ],
              "internalType": "struct VotingSystem.Candidate[]",
              "name": "candidates",
              "type": "tuple[]"
            },
            {
              "internalType": "uint256",
              "name": "candidateCount",
              "type": "uint256"
            },
            {
              "internalType": "uint256",
              "name": "status",
              "type": "uint256"
            }
          ],
          "internalType": "struct VotingSystem.Event[]",
          "name": "foundEvent",
          "type": "tuple[]"
        }
      ],
      "stateMutability": "view",
      "type": "function",
      "constant": true
    },
    {
      "inputs": [
        {
          "internalType": "uint256",
          "name": "_categoryId",
          "type": "uint256"
        },
        {
          "internalType": "uint256",
          "name": "_eventId",
          "type": "uint256"
        }
      ],
      "name": "getAllCandidatesInEvent",
      "outputs": [
        {
          "components": [
            {
              "internalType": "uint256",
              "name": "id",
              "type": "uint256"
            },
            {
              "internalType": "string",
              "name": "name",
              "type": "string"
            },
            {
              "internalType": "string",
              "name": "description",
              "type": "string"
            },
            {
              "internalType": "uint256",
              "name": "studentId",
              "type": "uint256"
            },
            {
              "internalType": "uint256",
              "name": "categoryId",
              "type": "uint256"
            },
            {
              "internalType": "uint256",
              "name": "eventId",
              "type": "uint256"
            },
            {
              "internalType": "uint256",
              "name": "voteCount",
              "type": "uint256"
            },
            {
              "internalType": "bool",
              "name": "win",
              "type": "bool"
            },
            {
              "internalType": "string",
              "name": "imageFileName",
              "type": "string"
            }
          ],
          "internalType": "struct VotingSystem.Candidate[]",
          "name": "foundCandidates",
          "type": "tuple[]"
        }
      ],
      "stateMutability": "view",
      "type": "function",
      "constant": true
    },
    {
      "inputs": [],
      "name": "getAllCandidates",
      "outputs": [
        {
          "components": [
            {
              "internalType": "uint256",
              "name": "id",
              "type": "uint256"
            },
            {
              "internalType": "string",
              "name": "name",
              "type": "string"
            },
            {
              "internalType": "string",
              "name": "description",
              "type": "string"
            },
            {
              "internalType": "uint256",
              "name": "studentId",
              "type": "uint256"
            },
            {
              "internalType": "uint256",
              "name": "categoryId",
              "type": "uint256"
            },
            {
              "internalType": "uint256",
              "name": "eventId",
              "type": "uint256"
            },
            {
              "internalType": "uint256",
              "name": "voteCount",
              "type": "uint256"
            },
            {
              "internalType": "bool",
              "name": "win",
              "type": "bool"
            },
            {
              "internalType": "string",
              "name": "imageFileName",
              "type": "string"
            }
          ],
          "internalType": "struct VotingSystem.Candidate[]",
          "name": "",
          "type": "tuple[]"
        }
      ],
      "stateMutability": "view",
      "type": "function",
      "constant": true
    },
    {
      "inputs": [],
      "name": "getAllCategory",
      "outputs": [
        {
          "components": [
            {
              "internalType": "uint256",
              "name": "categoryId",
              "type": "uint256"
            },
            {
              "internalType": "string",
              "name": "categoryName",
              "type": "string"
            },
            {
              "components": [
                {
                  "internalType": "uint256",
                  "name": "eventId",
                  "type": "uint256"
                },
                {
                  "internalType": "string",
                  "name": "eventName",
                  "type": "string"
                },
                {
                  "internalType": "uint256",
                  "name": "categoryId",
                  "type": "uint256"
                },
                {
                  "components": [
                    {
                      "internalType": "uint256",
                      "name": "id",
                      "type": "uint256"
                    },
                    {
                      "internalType": "string",
                      "name": "name",
                      "type": "string"
                    },
                    {
                      "internalType": "string",
                      "name": "description",
                      "type": "string"
                    },
                    {
                      "internalType": "uint256",
                      "name": "studentId",
                      "type": "uint256"
                    },
                    {
                      "internalType": "uint256",
                      "name": "categoryId",
                      "type": "uint256"
                    },
                    {
                      "internalType": "uint256",
                      "name": "eventId",
                      "type": "uint256"
                    },
                    {
                      "internalType": "uint256",
                      "name": "voteCount",
                      "type": "uint256"
                    },
                    {
                      "internalType": "bool",
                      "name": "win",
                      "type": "bool"
                    },
                    {
                      "internalType": "string",
                      "name": "imageFileName",
                      "type": "string"
                    }
                  ],
                  "internalType": "struct VotingSystem.Candidate[]",
                  "name": "candidates",
                  "type": "tuple[]"
                },
                {
                  "internalType": "uint256",
                  "name": "candidateCount",
                  "type": "uint256"
                },
                {
                  "internalType": "uint256",
                  "name": "status",
                  "type": "uint256"
                }
              ],
              "internalType": "struct VotingSystem.Event[]",
              "name": "events",
              "type": "tuple[]"
            },
            {
              "internalType": "uint256",
              "name": "status",
              "type": "uint256"
            }
          ],
          "internalType": "struct VotingSystem.Category[]",
          "name": "",
          "type": "tuple[]"
        }
      ],
      "stateMutability": "view",
      "type": "function",
      "constant": true
    },
    {
      "inputs": [
        {
          "internalType": "uint256",
          "name": "_categoryId",
          "type": "uint256"
        }
      ],
      "name": "getCategoryById",
      "outputs": [
        {
          "components": [
            {
              "internalType": "uint256",
              "name": "categoryId",
              "type": "uint256"
            },
            {
              "internalType": "string",
              "name": "categoryName",
              "type": "string"
            },
            {
              "components": [
                {
                  "internalType": "uint256",
                  "name": "eventId",
                  "type": "uint256"
                },
                {
                  "internalType": "string",
                  "name": "eventName",
                  "type": "string"
                },
                {
                  "internalType": "uint256",
                  "name": "categoryId",
                  "type": "uint256"
                },
                {
                  "components": [
                    {
                      "internalType": "uint256",
                      "name": "id",
                      "type": "uint256"
                    },
                    {
                      "internalType": "string",
                      "name": "name",
                      "type": "string"
                    },
                    {
                      "internalType": "string",
                      "name": "description",
                      "type": "string"
                    },
                    {
                      "internalType": "uint256",
                      "name": "studentId",
                      "type": "uint256"
                    },
                    {
                      "internalType": "uint256",
                      "name": "categoryId",
                      "type": "uint256"
                    },
                    {
                      "internalType": "uint256",
                      "name": "eventId",
                      "type": "uint256"
                    },
                    {
                      "internalType": "uint256",
                      "name": "voteCount",
                      "type": "uint256"
                    },
                    {
                      "internalType": "bool",
                      "name": "win",
                      "type": "bool"
                    },
                    {
                      "internalType": "string",
                      "name": "imageFileName",
                      "type": "string"
                    }
                  ],
                  "internalType": "struct VotingSystem.Candidate[]",
                  "name": "candidates",
                  "type": "tuple[]"
                },
                {
                  "internalType": "uint256",
                  "name": "candidateCount",
                  "type": "uint256"
                },
                {
                  "internalType": "uint256",
                  "name": "status",
                  "type": "uint256"
                }
              ],
              "internalType": "struct VotingSystem.Event[]",
              "name": "events",
              "type": "tuple[]"
            },
            {
              "internalType": "uint256",
              "name": "status",
              "type": "uint256"
            }
          ],
          "internalType": "struct VotingSystem.Category",
          "name": "",
          "type": "tuple"
        }
      ],
      "stateMutability": "view",
      "type": "function",
      "constant": true
    },
    {
      "inputs": [],
      "name": "getAllEvent",
      "outputs": [
        {
          "components": [
            {
              "internalType": "uint256",
              "name": "eventId",
              "type": "uint256"
            },
            {
              "internalType": "string",
              "name": "eventName",
              "type": "string"
            },
            {
              "internalType": "uint256",
              "name": "categoryId",
              "type": "uint256"
            },
            {
              "components": [
                {
                  "internalType": "uint256",
                  "name": "id",
                  "type": "uint256"
                },
                {
                  "internalType": "string",
                  "name": "name",
                  "type": "string"
                },
                {
                  "internalType": "string",
                  "name": "description",
                  "type": "string"
                },
                {
                  "internalType": "uint256",
                  "name": "studentId",
                  "type": "uint256"
                },
                {
                  "internalType": "uint256",
                  "name": "categoryId",
                  "type": "uint256"
                },
                {
                  "internalType": "uint256",
                  "name": "eventId",
                  "type": "uint256"
                },
                {
                  "internalType": "uint256",
                  "name": "voteCount",
                  "type": "uint256"
                },
                {
                  "internalType": "bool",
                  "name": "win",
                  "type": "bool"
                },
                {
                  "internalType": "string",
                  "name": "imageFileName",
                  "type": "string"
                }
              ],
              "internalType": "struct VotingSystem.Candidate[]",
              "name": "candidates",
              "type": "tuple[]"
            },
            {
              "internalType": "uint256",
              "name": "candidateCount",
              "type": "uint256"
            },
            {
              "internalType": "uint256",
              "name": "status",
              "type": "uint256"
            }
          ],
          "internalType": "struct VotingSystem.Event[]",
          "name": "",
          "type": "tuple[]"
        }
      ],
      "stateMutability": "view",
      "type": "function",
      "constant": true
    },
    {
      "inputs": [
        {
          "internalType": "uint256",
          "name": "_categoryId",
          "type": "uint256"
        },
        {
          "internalType": "uint256",
          "name": "_eventId",
          "type": "uint256"
        }
      ],
      "name": "getEventById",
      "outputs": [
        {
          "components": [
            {
              "internalType": "uint256",
              "name": "eventId",
              "type": "uint256"
            },
            {
              "internalType": "string",
              "name": "eventName",
              "type": "string"
            },
            {
              "internalType": "uint256",
              "name": "categoryId",
              "type": "uint256"
            },
            {
              "components": [
                {
                  "internalType": "uint256",
                  "name": "id",
                  "type": "uint256"
                },
                {
                  "internalType": "string",
                  "name": "name",
                  "type": "string"
                },
                {
                  "internalType": "string",
                  "name": "description",
                  "type": "string"
                },
                {
                  "internalType": "uint256",
                  "name": "studentId",
                  "type": "uint256"
                },
                {
                  "internalType": "uint256",
                  "name": "categoryId",
                  "type": "uint256"
                },
                {
                  "internalType": "uint256",
                  "name": "eventId",
                  "type": "uint256"
                },
                {
                  "internalType": "uint256",
                  "name": "voteCount",
                  "type": "uint256"
                },
                {
                  "internalType": "bool",
                  "name": "win",
                  "type": "bool"
                },
                {
                  "internalType": "string",
                  "name": "imageFileName",
                  "type": "string"
                }
              ],
              "internalType": "struct VotingSystem.Candidate[]",
              "name": "candidates",
              "type": "tuple[]"
            },
            {
              "internalType": "uint256",
              "name": "candidateCount",
              "type": "uint256"
            },
            {
              "internalType": "uint256",
              "name": "status",
              "type": "uint256"
            }
          ],
          "internalType": "struct VotingSystem.Event",
          "name": "",
          "type": "tuple"
        }
      ],
      "stateMutability": "view",
      "type": "function",
      "constant": true
    },
    {
      "inputs": [
        {
          "internalType": "string",
          "name": "_voterKey",
          "type": "string"
        },
        {
          "internalType": "uint256",
          "name": "_candidateId",
          "type": "uint256"
        },
        {
          "internalType": "uint256",
          "name": "_categoryId",
          "type": "uint256"
        },
        {
          "internalType": "uint256",
          "name": "_eventId",
          "type": "uint256"
        }
      ],
      "name": "vote",
      "outputs": [],
      "stateMutability": "nonpayable",
      "type": "function"
    },
    {
      "inputs": [
        {
          "internalType": "uint256",
          "name": "_candidateId",
          "type": "uint256"
        }
      ],
      "name": "getCandidateVoteCount",
      "outputs": [
        {
          "internalType": "uint256",
          "name": "count",
          "type": "uint256"
        }
      ],
      "stateMutability": "view",
      "type": "function",
      "constant": true
    },
    {
      "inputs": [
        {
          "internalType": "uint256",
          "name": "_categoryId",
          "type": "uint256"
        },
        {
          "internalType": "uint256",
          "name": "_eventId",
          "type": "uint256"
        }
      ],
      "name": "getVoteEventCandidate",
      "outputs": [
        {
          "components": [
            {
              "internalType": "uint256",
              "name": "id",
              "type": "uint256"
            },
            {
              "internalType": "string",
              "name": "name",
              "type": "string"
            },
            {
              "internalType": "string",
              "name": "description",
              "type": "string"
            },
            {
              "internalType": "uint256",
              "name": "studentId",
              "type": "uint256"
            },
            {
              "internalType": "uint256",
              "name": "categoryId",
              "type": "uint256"
            },
            {
              "internalType": "uint256",
              "name": "eventId",
              "type": "uint256"
            },
            {
              "internalType": "uint256",
              "name": "voteCount",
              "type": "uint256"
            },
            {
              "internalType": "bool",
              "name": "win",
              "type": "bool"
            },
            {
              "internalType": "string",
              "name": "imageFileName",
              "type": "string"
            }
          ],
          "internalType": "struct VotingSystem.Candidate[]",
          "name": "",
          "type": "tuple[]"
        }
      ],
      "stateMutability": "view",
      "type": "function",
      "constant": true
    },
    {
      "inputs": [
        {
          "internalType": "uint256",
          "name": "_categoryId",
          "type": "uint256"
        },
        {
          "internalType": "uint256",
          "name": "_eventId",
          "type": "uint256"
        }
      ],
      "name": "whoIsTheWinner",
      "outputs": [
        {
          "components": [
            {
              "internalType": "uint256",
              "name": "id",
              "type": "uint256"
            },
            {
              "internalType": "string",
              "name": "name",
              "type": "string"
            },
            {
              "internalType": "string",
              "name": "description",
              "type": "string"
            },
            {
              "internalType": "uint256",
              "name": "studentId",
              "type": "uint256"
            },
            {
              "internalType": "uint256",
              "name": "categoryId",
              "type": "uint256"
            },
            {
              "internalType": "uint256",
              "name": "eventId",
              "type": "uint256"
            },
            {
              "internalType": "uint256",
              "name": "voteCount",
              "type": "uint256"
            },
            {
              "internalType": "bool",
              "name": "win",
              "type": "bool"
            },
            {
              "internalType": "string",
              "name": "imageFileName",
              "type": "string"
            }
          ],
          "internalType": "struct VotingSystem.Candidate",
          "name": "",
          "type": "tuple"
        }
      ],
      "stateMutability": "view",
      "type": "function",
      "constant": true
    }
  ],
  "bytecode": "0x608060405234801561001057600080fd5b50600080546001600160a01b0319163317905561553b806100326000396000f3fe608060405234801561001057600080fd5b50600436106101f05760003560e01c8063763049841161010f578063b315c597116100a2578063dfdffaf411610071578063dfdffaf4146104b8578063f29565ed146104cb578063f731d0e9146104de578063ffdd108b146104f157600080fd5b8063b315c59714610449578063bf03f6771461046c578063c80112801461047f578063da58c7d91461049257600080fd5b80638f2c2805116100de5780638f2c2805146103ee578063909f850214610403578063a1a0256414610423578063a7e62d1b1461043657600080fd5b8063763049841461038a578063776a657b1461039d5780638801b5b6146103b05780638da5cb5b146103c357600080fd5b80634ffd25f61161018757806360e93f3c1161015657806360e93f3c14610313578063642d20ad14610333578063689b6fbf14610357578063748f55a81461036a57600080fd5b80634ffd25f6146102c757806350515a77146102da578063514fc62a146102ed5780635b4d727c1461030057600080fd5b80633e60e2f5116101c35780633e60e2f514610250578063400af02a14610271578063401a52dd146102915780634fb43250146102a457600080fd5b80631002cdd4146101f55780632e0dcbf7146102135780632e6997fe146102285780633a637c201461023d575b600080fd5b6101fd610504565b60405161020a91906147ed565b60405180910390f35b610226610221366004614971565b61094d565b005b610230610a7c565b60405161020a91906149ad565b61022661024b366004614c38565b610bfe565b61026361025e366004614d4b565b610c66565b60405190815260200161020a565b61028461027f366004614d4b565b610ca4565b60405161020a9190614dae565b6101fd61029f366004614e4b565b610d81565b6102b76102b2366004614e64565b611175565b604051901515815260200161020a565b6102266102d5366004614e86565b611221565b6102b76102e8366004614eba565b61134c565b6102b76102fb366004614971565b61140b565b61023061030e366004614e64565b611471565b610326610321366004614e4b565b61180d565b60405161020a9190614f87565b610346610341366004614e4b565b611c70565b60405161020a959493929190614f9a565b6102b7610365366004614d4b565b611d2c565b61037d610378366004614e64565b611d4d565b60405161020a9190614fd2565b610226610398366004614fe5565b6121eb565b6102266103ab366004615088565b61253c565b6102846103be366004614d4b565b612854565b6000546103d6906001600160a01b031681565b6040516001600160a01b03909116815260200161020a565b6103f6612c30565b60405161020a91906150db565b610416610411366004614e64565b61312c565b60405161020a9190615130565b6102b7610431366004614971565b6135e4565b610230610444366004614e64565b6136c8565b610263610457366004614e4b565b60009081526003602052604090206006015490565b6102b761047a366004615143565b613ae6565b61022661048d36600461516f565b613b7a565b6104a56104a0366004614e4b565b613d30565b60405161020a97969594939291906151a3565b6102b76104c6366004615143565b613f8b565b6102266104d9366004614d4b565b614013565b6102266104ec366004615210565b6140f9565b6102266104ff366004614eba565b61428e565b606060006009546001600160401b038111156105225761052261484f565b60405190808252806020026020018201604052801561055b57816020015b610548614538565b8152602001906001900390816105405790505b5090506000805b6007548110156109455760005b6001600061057d84836152f7565b815260208101919091526040016000206002015481101561093257600160006105a684836152f7565b815260200190815260200160002060020181815481106105c8576105c861530f565b90600052602060002090600602016040518060c0016040529081600082015481526020016001820180546105fb90615325565b80601f016020809104026020016040519081016040528092919081815260200182805461062790615325565b80156106745780601f1061064957610100808354040283529160200191610674565b820191906000526020600020905b81548152906001019060200180831161065757829003601f168201915b505050505081526020016002820154815260200160038201805480602002602001604051908101604052809291908181526020016000905b828210156108da578382906000526020600020906009020160405180610120016040529081600082015481526020016001820180546106ea90615325565b80601f016020809104026020016040519081016040528092919081815260200182805461071690615325565b80156107635780601f1061073857610100808354040283529160200191610763565b820191906000526020600020905b81548152906001019060200180831161074657829003601f168201915b5050505050815260200160028201805461077c90615325565b80601f01602080910402602001604051908101604052809291908181526020018280546107a890615325565b80156107f55780601f106107ca576101008083540402835291602001916107f5565b820191906000526020600020905b8154815290600101906020018083116107d857829003601f168201915b505050918352505060038201546020820152600482015460408201526005820154606082015260068201546080820152600782015460ff16151560a082015260088201805460c09092019161084990615325565b80601f016020809104026020016040519081016040528092919081815260200182805461087590615325565b80156108c25780601f10610897576101008083540402835291602001916108c2565b820191906000526020600020905b8154815290600101906020018083116108a557829003601f168201915b505050505081525050815260200190600101906106ac565b505050508152602001600482015481526020016005820154815250508484815181106109085761090861530f565b602090810291909101015261091e6001846152f7565b92508061092a81615359565b91505061056f565b508061093d81615359565b915050610562565b509092915050565b60015b60075481116109f0576001600082815260200190815260200160002060010160405161097c9190615372565b60405180910390208280519060200120036109de5760405162461bcd60e51b815260206004820152601760248201527f43617465676f727920616c72656164792065786973747300000000000000000060448201526064015b60405180910390fd5b806109e881615359565b915050610950565b50600160076000828254610a0491906152f7565b9091555050600754600090815260016020818152604090922083519092610a31928401919085019061456e565b5060078054825560016003830155546040517f5bae3f75753ef0a1c0ea0f6c51d7b43a4b8d116572b8b7b5cb771f9ad32d4ae590610a7090859061540d565b60405180910390a25050565b606060006008546001600160401b03811115610a9a57610a9a61484f565b604051908082528060200260200182016040528015610ad357816020015b610ac06145f2565b815260200190600190039081610ab85790505b50905060006009546001600160401b03811115610af257610af261484f565b604051908082528060200260200182016040528015610b2b57816020015b610b18614538565b815260200190600190039081610b105790505b509050610b36610504565b90506000805b600954811015610bf55760005b838281518110610b5b57610b5b61530f565b60200260200101516060015151811015610be257838281518110610b8157610b8161530f565b6020026020010151606001518181518110610b9e57610b9e61530f565b6020026020010151858481518110610bb857610bb861530f565b6020908102919091010152610bce6001846152f7565b925080610bda81615359565b915050610b49565b5080610bed81615359565b915050610b3c565b50919392505050565b80516000908152600160205260408120549003610c2d5760405162461bcd60e51b81526004016109d590615420565b805160009081526001602081815260409092208284015180519193610c579385019291019061456e565b50606090910151600390910155565b600080610c738484612854565b8051909150600003610c975760405162461bcd60e51b81526004016109d590615457565b60a0015190505b92915050565b610ce76040518060e00160405280600081526020016060815260200160608152602001600080191681526020016060815260200160008152602001606081525090565b6000610cf38484612854565b8051909150600003610d175760405162461bcd60e51b81526004016109d590615457565b8060a00151600114610d7a5760405162461bcd60e51b815260206004820152602660248201527f596f7572206163636f756e74207761732062616e6e6564206f72206e6f74207660448201526565726966792160d01b60648201526084016109d5565b9392505050565b60008181526001602052604081206002810154606092906001600160401b03811115610daf57610daf61484f565b604051908082528060200260200182016040528015610de857816020015b610dd5614538565b815260200190600190039081610dcd5790505b50905060005b600283015481101561116d57826002018181548110610e0f57610e0f61530f565b90600052602060002090600602016040518060c001604052908160008201548152602001600182018054610e4290615325565b80601f0160208091040260200160405190810160405280929190818152602001828054610e6e90615325565b8015610ebb5780601f10610e9057610100808354040283529160200191610ebb565b820191906000526020600020905b815481529060010190602001808311610e9e57829003601f168201915b505050505081526020016002820154815260200160038201805480602002602001604051908101604052809291908181526020016000905b8282101561112157838290600052602060002090600902016040518061012001604052908160008201548152602001600182018054610f3190615325565b80601f0160208091040260200160405190810160405280929190818152602001828054610f5d90615325565b8015610faa5780601f10610f7f57610100808354040283529160200191610faa565b820191906000526020600020905b815481529060010190602001808311610f8d57829003601f168201915b50505050508152602001600282018054610fc390615325565b80601f0160208091040260200160405190810160405280929190818152602001828054610fef90615325565b801561103c5780601f106110115761010080835404028352916020019161103c565b820191906000526020600020905b81548152906001019060200180831161101f57829003601f168201915b505050918352505060038201546020820152600482015460408201526005820154606082015260068201546080820152600782015460ff16151560a082015260088201805460c09092019161109090615325565b80601f01602080910402602001604051908101604052809291908181526020018280546110bc90615325565b80156111095780601f106110de57610100808354040283529160200191611109565b820191906000526020600020905b8154815290600101906020018083116110ec57829003601f168201915b50505050508152505081526020019060010190610ef3565b5050505081526020016004820154815260200160058201548152505082828151811061114f5761114f61530f565b6020026020010181905250808061116590615359565b915050610dee565b509392505050565b60008281526001602052604081205481036111a25760405162461bcd60e51b81526004016109d59061549b565b60005b6000848152600160205260409020600201548110156112175760008481526001602052604090206002018054849190839081106111e4576111e461530f565b90600052602060002090600602016000015403611205576001915050610c9e565b8061120f81615359565b9150506111a5565b5060009392505050565b6040808201516000908152600160205290812054900361127e5760405162461bcd60e51b815260206004820152601860248201527743617465676f727920646f6573206e6f742065786973747360401b60448201526064016109d5565b61129081604001518260000151611175565b6112d45760405162461bcd60e51b81526020600482015260156024820152744576656e7420646f6573206e6f742065786973742160581b60448201526064016109d5565b600060016000836040015181526020019081526020016000206002016001836000015161130191906154d2565b815481106113115761131161530f565b90600052602060002090600602019050816020015181600101908051906020019061133d92919061456e565b5060a090910151600590910155565b60008281526001602052604081205481036113795760405162461bcd60e51b81526004016109d59061549b565b60005b6000848152600160205260409020600201548110156112175782805190602001206001600086815260200190815260200160002060020182815481106113c4576113c461530f565b90600052602060002090600602016001016040516113e29190615372565b6040518091039020036113f9576001915050610c9e565b8061140381615359565b91505061137c565b600060015b600b548111611468576000818152600560205260409081902090516114389160010190615372565b60405180910390208380519060200120036114565750600192915050565b8061146081615359565b915050611410565b50600092915050565b60008281526001602052604081206060915b600282015481101561180557838260020182815481106114a5576114a561530f565b906000526020600020906006020160000154036117f35760008260020182815481106114d3576114d361530f565b9060005260206000209060060201600401546001600160401b038111156114fc576114fc61484f565b60405190808252806020026020018201604052801561153557816020015b6115226145f2565b81526020019060019003908161151a5790505b50905060005b8360020183815481106115505761155061530f565b9060005260206000209060060201600301805490508110156117e8578360020183815481106115815761158161530f565b906000526020600020906006020160030181815481106115a3576115a361530f565b906000526020600020906009020160405180610120016040529081600082015481526020016001820180546115d790615325565b80601f016020809104026020016040519081016040528092919081815260200182805461160390615325565b80156116505780601f1061162557610100808354040283529160200191611650565b820191906000526020600020905b81548152906001019060200180831161163357829003601f168201915b5050505050815260200160028201805461166990615325565b80601f016020809104026020016040519081016040528092919081815260200182805461169590615325565b80156116e25780601f106116b7576101008083540402835291602001916116e2565b820191906000526020600020905b8154815290600101906020018083116116c557829003601f168201915b505050918352505060038201546020820152600482015460408201526005820154606082015260068201546080820152600782015460ff16151560a082015260088201805460c09092019161173690615325565b80601f016020809104026020016040519081016040528092919081815260200182805461176290615325565b80156117af5780601f10611784576101008083540402835291602001916117af565b820191906000526020600020905b81548152906001019060200180831161179257829003601f168201915b5050505050815250508282815181106117ca576117ca61530f565b602002602001018190525080806117e090615359565b91505061153b565b509250610c9e915050565b806117fd81615359565b915050611483565b505092915050565b6118386040518060800160405280600081526020016060815260200160608152602001600081525090565b6000828152600160208181526040928390208351608081019094528054845291820180549184019161186990615325565b80601f016020809104026020016040519081016040528092919081815260200182805461189590615325565b80156118e25780601f106118b7576101008083540402835291602001916118e2565b820191906000526020600020905b8154815290600101906020018083116118c557829003601f168201915b5050505050815260200160028201805480602002602001604051908101604052809291908181526020016000905b82821015611c5757838290600052602060002090600602016040518060c00160405290816000820154815260200160018201805461194d90615325565b80601f016020809104026020016040519081016040528092919081815260200182805461197990615325565b80156119c65780601f1061199b576101008083540402835291602001916119c6565b820191906000526020600020905b8154815290600101906020018083116119a957829003601f168201915b505050505081526020016002820154815260200160038201805480602002602001604051908101604052809291908181526020016000905b82821015611c2c57838290600052602060002090600902016040518061012001604052908160008201548152602001600182018054611a3c90615325565b80601f0160208091040260200160405190810160405280929190818152602001828054611a6890615325565b8015611ab55780601f10611a8a57610100808354040283529160200191611ab5565b820191906000526020600020905b815481529060010190602001808311611a9857829003601f168201915b50505050508152602001600282018054611ace90615325565b80601f0160208091040260200160405190810160405280929190818152602001828054611afa90615325565b8015611b475780601f10611b1c57610100808354040283529160200191611b47565b820191906000526020600020905b815481529060010190602001808311611b2a57829003601f168201915b505050918352505060038201546020820152600482015460408201526005820154606082015260068201546080820152600782015460ff16151560a082015260088201805460c090920191611b9b90615325565b80601f0160208091040260200160405190810160405280929190818152602001828054611bc790615325565b8015611c145780601f10611be957610100808354040283529160200191611c14565b820191906000526020600020905b815481529060010190602001808311611bf757829003601f168201915b505050505081525050815260200190600101906119fe565b5050505081526020016004820154815260200160058201548152505081526020019060010190611910565b5050505081526020016003820154815250509050919050565b60046020526000908152604090208054600182018054919291611c9290615325565b80601f0160208091040260200160405190810160405280929190818152602001828054611cbe90615325565b8015611d0b5780601f10611ce057610100808354040283529160200191611d0b565b820191906000526020600020905b815481529060010190602001808311611cee57829003601f168201915b50505050600283015460038401546004909401549293909290915060ff1685565b600080611d398484612854565b805190915015611217576001915050610c9e565b611d556145f2565b600083815260016020908152604080832060020180548251818502810185019093528083529192909190849084015b828210156120cb57838290600052602060002090600602016040518060c001604052908160008201548152602001600182018054611dc190615325565b80601f0160208091040260200160405190810160405280929190818152602001828054611ded90615325565b8015611e3a5780601f10611e0f57610100808354040283529160200191611e3a565b820191906000526020600020905b815481529060010190602001808311611e1d57829003601f168201915b505050505081526020016002820154815260200160038201805480602002602001604051908101604052809291908181526020016000905b828210156120a057838290600052602060002090600902016040518061012001604052908160008201548152602001600182018054611eb090615325565b80601f0160208091040260200160405190810160405280929190818152602001828054611edc90615325565b8015611f295780601f10611efe57610100808354040283529160200191611f29565b820191906000526020600020905b815481529060010190602001808311611f0c57829003601f168201915b50505050508152602001600282018054611f4290615325565b80601f0160208091040260200160405190810160405280929190818152602001828054611f6e90615325565b8015611fbb5780601f10611f9057610100808354040283529160200191611fbb565b820191906000526020600020905b815481529060010190602001808311611f9e57829003601f168201915b505050918352505060038201546020820152600482015460408201526005820154606082015260068201546080820152600782015460ff16151560a082015260088201805460c09092019161200f90615325565b80601f016020809104026020016040519081016040528092919081815260200182805461203b90615325565b80156120885780601f1061205d57610100808354040283529160200191612088565b820191906000526020600020905b81548152906001019060200180831161206b57829003601f168201915b50505050508152505081526020019060010190611e72565b5050505081526020016004820154815260200160058201548152505081526020019060010190611d84565b505050509050606060005b825181101561213657848382815181106120f2576120f261530f565b60200260200101516000015103612124578281815181106121155761211561530f565b60200260200101516060015191505b8061212e81615359565b9150506120d6565b5060008160008151811061214c5761214c61530f565b6020026020010151905060005b6001835161216791906154d2565b8110156121da578261217a8260016152f7565b8151811061218a5761218a61530f565b602002602001015160c001518260c0015110156121c857826121ad8260016152f7565b815181106121bd576121bd61530f565b602002602001015191505b806121d281615359565b915050612159565b50600160e082015295945050505050565b60008681526001602052604081205490036122185760405162461bcd60e51b81526004016109d59061549b565b6122228686611175565b6122655760405162461bcd60e51b8152602060048201526014602482015273115d995b9d08191bd95cc81b9bdd08195e1a5cdd60621b60448201526064016109d5565b612270868684613f8b565b156122bd5760405162461bcd60e51b815260206004820152601860248201527f43616e64696461746520616c726561647920657869737473000000000000000060448201526064016109d5565b6006816040516122cd91906154e9565b9081526040519081900360200190205460ff161561232d5760405162461bcd60e51b815260206004820152601e60248201527f496d6167652066696c65206e616d6520616c726561647920696e20757365000060448201526064016109d5565b60016008600082825461234091906152f7565b9091555050604080516101208101825260085481526020808201879052818301869052606082018590526080820189905260a08201889052600060c0830181905260e083018190526101008301859052898152600190915291822090915b60028201548110156124ff57878260020182815481106123c0576123c061530f565b906000526020600020906006020160000154036124ed578160020181815481106123ec576123ec61530f565b6000918252602080832060036006909302019190910180546001818101835591845292829020865160099094020192835585820151805187949361243493850192019061456e565b506040820151805161245091600284019160209091019061456e565b50606082015160038201556080820151600482015560a0820151600582015560c0820151600682015560e082015160078201805460ff191691151591909117905561010082015180516124ad91600884019160209091019061456e565b50505060018260020182815481106124c7576124c761530f565b906000526020600020906006020160040160008282546124e791906152f7565b90915550505b806124f781615359565b91505061239e565b50600160068460405161251291906154e9565b908152604051908190036020019020805491151560ff199092169190911790555050505050505050565b60008281526001602052604081205490036125945760405162461bcd60e51b815260206004820152601860248201527743617465676f727920646f6573206e6f742065786973747360401b60448201526064016109d5565b6009546000036125de5760405162461bcd60e51b81526020600482015260156024820152744576656e7420646f6573206e6f742065786973747360581b60448201526064016109d5565b6125e9828285613ae6565b151560011461263a5760405162461bcd60e51b815260206004820152601a60248201527f43616e6469646174657320646f6573206e6f742065786973747300000000000060448201526064016109d5565b60015b600a548111612721576000818152600460205260409081902090516126659160010190615372565b60405180910390208580519060200120148015612692575060008181526004602052604090206002015483145b80156126ae575060008181526004602052604090206003015482145b1561270f576000818152600460208190526040909120015460ff161561270a5760405162461bcd60e51b8152602060048201526011602482015270165bdd48185b1c9958591e481d9bdd1959607a1b60448201526064016109d5565b612721565b8061271981615359565b91505061263d565b506001600a600082825461273591906152f7565b90915550506040805160a081018252600a548082526020808301888152838501879052606084018690526001608085018190526000938452600483529490922083518155915180519394859461279293918501929091019061456e565b5060408201516002820155606082015160038201556080909101516004909101805460ff19169115159190911790556127ca84614386565b6127d58383866143b0565b60408051602081018590528082018490528151808203830181526060909101918290529085906128069083906154e9565b60405180910390208760405161281c91906154e9565b604051908190038120907f336badd820d33e68eff2381e343928896ff7147adf09b298939d0a7b001f072e90600090a4505050505050565b6128976040518060e00160405280600081526020016060815260200160608152602001600080191681526020016060815260200160008152602001606081525090565b6000826040516020016128aa91906154e9565b60408051601f198184030181529190528051602090910120905060015b600b548111612bc8576000818152600560205260409081902090516128ef9160020190615372565b6040518091039020858051906020012014801561292457506000818152600560205260409020600301546129249083906144c0565b15612bb657600560008281526020019081526020016000206040518060e00160405290816000820154815260200160018201805461296190615325565b80601f016020809104026020016040519081016040528092919081815260200182805461298d90615325565b80156129da5780601f106129af576101008083540402835291602001916129da565b820191906000526020600020905b8154815290600101906020018083116129bd57829003601f168201915b505050505081526020016002820180546129f390615325565b80601f0160208091040260200160405190810160405280929190818152602001828054612a1f90615325565b8015612a6c5780601f10612a4157610100808354040283529160200191612a6c565b820191906000526020600020905b815481529060010190602001808311612a4f57829003601f168201915b5050505050815260200160038201548152602001600482018054612a8f90615325565b80601f0160208091040260200160405190810160405280929190818152602001828054612abb90615325565b8015612b085780601f10612add57610100808354040283529160200191612b08565b820191906000526020600020905b815481529060010190602001808311612aeb57829003601f168201915b5050505050815260200160058201548152602001600682018054612b2b90615325565b80601f0160208091040260200160405190810160405280929190818152602001828054612b5790615325565b8015612ba45780601f10612b7957610100808354040283529160200191612ba4565b820191906000526020600020905b815481529060010190602001808311612b8757829003601f168201915b50505050508152505092505050610c9e565b80612bc081615359565b9150506128c7565b50506040805160e08101825260008082528251602080820185528282528084019190915283518082018552828152838501526060830182905283518082018552828152608084015260a083018290528351908101909352825260c08101919091529392505050565b606060006007546001600160401b03811115612c4e57612c4e61484f565b604051908082528060200260200182016040528015612caa57816020015b612c976040518060800160405280600081526020016060815260200160608152602001600081525090565b815260200190600190039081612c6c5790505b50905060015b60075481116131265760008181526001602081815260409283902083516080810190945280548452918201805491840191612cea90615325565b80601f0160208091040260200160405190810160405280929190818152602001828054612d1690615325565b8015612d635780601f10612d3857610100808354040283529160200191612d63565b820191906000526020600020905b815481529060010190602001808311612d4657829003601f168201915b5050505050815260200160028201805480602002602001604051908101604052809291908181526020016000905b828210156130d857838290600052602060002090600602016040518060c001604052908160008201548152602001600182018054612dce90615325565b80601f0160208091040260200160405190810160405280929190818152602001828054612dfa90615325565b8015612e475780601f10612e1c57610100808354040283529160200191612e47565b820191906000526020600020905b815481529060010190602001808311612e2a57829003601f168201915b505050505081526020016002820154815260200160038201805480602002602001604051908101604052809291908181526020016000905b828210156130ad57838290600052602060002090600902016040518061012001604052908160008201548152602001600182018054612ebd90615325565b80601f0160208091040260200160405190810160405280929190818152602001828054612ee990615325565b8015612f365780601f10612f0b57610100808354040283529160200191612f36565b820191906000526020600020905b815481529060010190602001808311612f1957829003601f168201915b50505050508152602001600282018054612f4f90615325565b80601f0160208091040260200160405190810160405280929190818152602001828054612f7b90615325565b8015612fc85780601f10612f9d57610100808354040283529160200191612fc8565b820191906000526020600020905b815481529060010190602001808311612fab57829003601f168201915b505050918352505060038201546020820152600482015460408201526005820154606082015260068201546080820152600782015460ff16151560a082015260088201805460c09092019161301c90615325565b80601f016020809104026020016040519081016040528092919081815260200182805461304890615325565b80156130955780601f1061306a57610100808354040283529160200191613095565b820191906000526020600020905b81548152906001019060200180831161307857829003601f168201915b50505050508152505081526020019060010190612e7f565b5050505081526020016004820154815260200160058201548152505081526020019060010190612d91565b505050508152602001600382015481525050826001836130f891906154d2565b815181106131085761310861530f565b6020026020010181905250808061311e90615359565b915050612cb0565b50919050565b613134614538565b600083815260016020818152604080842081516080810190925280548252928301805491939284019161316690615325565b80601f016020809104026020016040519081016040528092919081815260200182805461319290615325565b80156131df5780601f106131b4576101008083540402835291602001916131df565b820191906000526020600020905b8154815290600101906020018083116131c257829003601f168201915b5050505050815260200160028201805480602002602001604051908101604052809291908181526020016000905b8282101561355457838290600052602060002090600602016040518060c00160405290816000820154815260200160018201805461324a90615325565b80601f016020809104026020016040519081016040528092919081815260200182805461327690615325565b80156132c35780601f10613298576101008083540402835291602001916132c3565b820191906000526020600020905b8154815290600101906020018083116132a657829003601f168201915b505050505081526020016002820154815260200160038201805480602002602001604051908101604052809291908181526020016000905b828210156135295783829060005260206000209060090201604051806101200160405290816000820154815260200160018201805461333990615325565b80601f016020809104026020016040519081016040528092919081815260200182805461336590615325565b80156133b25780601f10613387576101008083540402835291602001916133b2565b820191906000526020600020905b81548152906001019060200180831161339557829003601f168201915b505050505081526020016002820180546133cb90615325565b80601f01602080910402602001604051908101604052809291908181526020018280546133f790615325565b80156134445780601f1061341957610100808354040283529160200191613444565b820191906000526020600020905b81548152906001019060200180831161342757829003601f168201915b505050918352505060038201546020820152600482015460408201526005820154606082015260068201546080820152600782015460ff16151560a082015260088201805460c09092019161349890615325565b80601f01602080910402602001604051908101604052809291908181526020018280546134c490615325565b80156135115780601f106134e657610100808354040283529160200191613511565b820191906000526020600020905b8154815290600101906020018083116134f457829003601f168201915b505050505081525050815260200190600101906132fb565b505050508152602001600482015481526020016005820154815250508152602001906001019061320d565b5050505081526020016003820154815250509050613570614538565b60005b8260400151518110156135db5784836040015182815181106135975761359761530f565b602002602001015160000151036135c957826040015181815181106135be576135be61530f565b602002602001015191505b806135d381615359565b915050613573565b50949350505050565b6001600090815260056020527f1471eb6eb2c5e789fc3de43f8ce62938c7d1836ec861730447e2ada8fd81017b5481036136585760405162461bcd60e51b81526020600482015260156024820152744e6f20766f74657220696e20746865206c6973742160581b60448201526064016109d5565b60015b600b548111611468576000818152600560205260409081902090516136839160060190615372565b60405180910390208380519060200120036136b65760009081526005602081905260409091206001910181905592915050565b806136c081615359565b91505061365b565b6000828152600160209081526040808320600201805482518185028101850190935280835260609493849084015b82821015613a3d57838290600052602060002090600602016040518060c00160405290816000820154815260200160018201805461373390615325565b80601f016020809104026020016040519081016040528092919081815260200182805461375f90615325565b80156137ac5780601f10613781576101008083540402835291602001916137ac565b820191906000526020600020905b81548152906001019060200180831161378f57829003601f168201915b505050505081526020016002820154815260200160038201805480602002602001604051908101604052809291908181526020016000905b82821015613a125783829060005260206000209060090201604051806101200160405290816000820154815260200160018201805461382290615325565b80601f016020809104026020016040519081016040528092919081815260200182805461384e90615325565b801561389b5780601f106138705761010080835404028352916020019161389b565b820191906000526020600020905b81548152906001019060200180831161387e57829003601f168201915b505050505081526020016002820180546138b490615325565b80601f01602080910402602001604051908101604052809291908181526020018280546138e090615325565b801561392d5780601f106139025761010080835404028352916020019161392d565b820191906000526020600020905b81548152906001019060200180831161391057829003601f168201915b505050918352505060038201546020820152600482015460408201526005820154606082015260068201546080820152600782015460ff16151560a082015260088201805460c09092019161398190615325565b80601f01602080910402602001604051908101604052809291908181526020018280546139ad90615325565b80156139fa5780601f106139cf576101008083540402835291602001916139fa565b820191906000526020600020905b8154815290600101906020018083116139dd57829003601f168201915b505050505081525050815260200190600101906137e4565b50505050815260200160048201548152602001600582015481525050815260200190600101906136f6565b50505050905060005b8151811015613aac5783828281518110613a6257613a6261530f565b60200260200101516000015103613a9a57818181518110613a8557613a8561530f565b60200260200101516060015192505050610c9e565b80613aa481615359565b915050613a46565b5060408051600080825260208201909252906135db565b613acb6145f2565b815260200190600190039081613ac357905050949350505050565b6000838152600160205260408120548103613b135760405162461bcd60e51b81526004016109d59061549b565b6000613b1f8585611471565b905060005b8151811015613b6e5783828281518110613b4057613b4061530f565b60200260200101516000015103613b5c57600192505050610d7a565b80613b6681615359565b915050613b24565b50600095945050505050565b60808101516000908152600160205260408120549003613bac5760405162461bcd60e51b81526004016109d590615420565b613bbe81608001518260a00151611175565b1515600114613c065760405162461bcd60e51b81526020600482015260146024820152734576656e7420686173206e6f742065786973747360601b60448201526064016109d5565b613c1d81608001518260a001518360600151613f8b565b1515600114613c6e5760405162461bcd60e51b815260206004820152601a60248201527f43616e64696461746520646f6573206e6f74206578697374656400000000000060448201526064016109d5565b60808101516000908152600160208190526040822060a0840151600290910191613c97916154d2565b81548110613ca757613ca761530f565b906000526020600020906006020160030160018360000151613cc991906154d2565b81548110613cd957613cd961530f565b906000526020600020906009020190508160200151816001019080519060200190613d0592919061456e565b506060820151600382015560408201518051613d2b91600284019160209091019061456e565b505050565b60056020526000908152604090208054600182018054919291613d5290615325565b80601f0160208091040260200160405190810160405280929190818152602001828054613d7e90615325565b8015613dcb5780601f10613da057610100808354040283529160200191613dcb565b820191906000526020600020905b815481529060010190602001808311613dae57829003601f168201915b505050505090806002018054613de090615325565b80601f0160208091040260200160405190810160405280929190818152602001828054613e0c90615325565b8015613e595780601f10613e2e57610100808354040283529160200191613e59565b820191906000526020600020905b815481529060010190602001808311613e3c57829003601f168201915b505050505090806003015490806004018054613e7490615325565b80601f0160208091040260200160405190810160405280929190818152602001828054613ea090615325565b8015613eed5780601f10613ec257610100808354040283529160200191613eed565b820191906000526020600020905b815481529060010190602001808311613ed057829003601f168201915b505050505090806005015490806006018054613f0890615325565b80601f0160208091040260200160405190810160405280929190818152602001828054613f3490615325565b8015613f815780601f10613f5657610100808354040283529160200191613f81565b820191906000526020600020905b815481529060010190602001808311613f6457829003601f168201915b5050505050905087565b6000838152600160205260408120548103613fb85760405162461bcd60e51b81526004016109d59061549b565b6000613fc48585611471565b905060005b8151811015613b6e5783828281518110613fe557613fe561530f565b6020026020010151606001510361400157600192505050610d7a565b8061400b81615359565b915050613fc9565b61401c8261140b565b61405f5760405162461bcd60e51b81526020600482015260146024820152735573657220646f6573206e6f742065786973747360601b60448201526064016109d5565b60008160405160200161407291906154e9565b60408051601f198184030181529190528051602090910120905060015b600b5481116140f3576000818152600560205260409081902090516140b79160010190615372565b60405180910390208480519060200120036140e15760008181526005602052604090206003018290555b806140eb81615359565b91505061408f565b50505050565b60015b600b54811161418a576000818152600560205260409081902090516141249160010190615372565b60405180910390208680519060200120036141785760405162461bcd60e51b8152602060048201526014602482015273566f74657220616c72656164792065786973747360601b60448201526064016109d5565b8061418281615359565b9150506140fc565b506001600b600082825461419e91906152f7565b90915550506040516000906141b79085906020016154e9565b60408051601f198184030181529181528151602092830120600b5460008181526005855292909220918255885190935090916141fa9160018401918a019061456e565b508551614210906002830190602089019061456e565b5060038101829055835161422d906004830190602087019061456e565b5060006005820155825161424a906006830190602086019061456e565b50600b547f56729c826fe77eec184059336ced13d9ef79d10126212c90a4d2b724391e14e28860405161427d919061540d565b60405180910390a250505050505050565b60008281526001602052604081205490036142bb5760405162461bcd60e51b81526004016109d590615420565b6142c5828261134c565b156143095760405162461bcd60e51b81526020600482015260146024820152734576656e7420616c72656164792065786973747360601b60448201526064016109d5565b600082815260016020819052604082206009805491939291839061432e9084906152f7565b918290555060028401805460018181018355600092835260209283902060069092029091018381558751939550935061436d929084019187019061456e565b5060028101949094555050600160059092019190915550565b60008181526003602052604081206006018054600192906143a89084906152f7565b909155505050565b6000838152600160205260408120600201905b81548110156144b957838282815481106143df576143df61530f565b906000526020600020906006020160000154036144a757600082828154811061440a5761440a61530f565b9060005260206000209060060201600301905060005b81548110156144a4578482828154811061443c5761443c61530f565b906000526020600020906009020160000154036144925760018282815481106144675761446761530f565b9060005260206000209060090201600601600082825461448791906152f7565b909155506144a49050565b8061449c81615359565b915050614420565b50505b806144b181615359565b9150506143c3565b5050505050565b6000805b602081101561452e578281602081106144df576144df61530f565b1a60f81b6001600160f81b0319168482602081106144ff576144ff61530f565b1a60f81b6001600160f81b0319161461451c576000915050610c9e565b8061452681615359565b9150506144c4565b5060019392505050565b6040518060c001604052806000815260200160608152602001600081526020016060815260200160008152602001600081525090565b82805461457a90615325565b90600052602060002090601f01602090048101928261459c57600085556145e2565b82601f106145b557805160ff19168380011785556145e2565b828001600101855582156145e2579182015b828111156145e25782518255916020019190600101906145c7565b506145ee929150614640565b5090565b60405180610120016040528060008152602001606081526020016060815260200160008152602001600081526020016000815260200160008152602001600015158152602001606081525090565b5b808211156145ee5760008155600101614641565b60005b83811015614670578181015183820152602001614658565b838111156140f35750506000910152565b60008151808452614699816020860160208601614655565b601f01601f19169290920160200192915050565b60006101208251845260208301518160208601526146cd82860182614681565b915050604083015184820360408601526146e78282614681565b915050606083015160608501526080830151608085015260a083015160a085015260c083015160c085015260e083015161472560e086018215159052565b50610100808401518583038287015261473e8382614681565b9695505050505050565b80518252600060208083015160c08286015261476760c0860182614681565b905060408401516040860152606084015185820360608701528181518084528484019150848160051b850101858401935060005b828110156147c957601f198683030184526147b78286516146ad565b9487019493870193915060010161479b565b50608088015160808a015260a088015160a08a015280965050505050505092915050565b6000602080830181845280855180835260408601915060408160051b870101925083870160005b8281101561484257603f19888603018452614830858351614748565b94509285019290850190600101614814565b5092979650505050505050565b634e487b7160e01b600052604160045260246000fd5b60405161012081016001600160401b03811182821017156148885761488861484f565b60405290565b60405160c081016001600160401b03811182821017156148885761488861484f565b604051608081016001600160401b03811182821017156148885761488861484f565b604051601f8201601f191681016001600160401b03811182821017156148fa576148fa61484f565b604052919050565b600082601f83011261491357600080fd5b81356001600160401b0381111561492c5761492c61484f565b61493f601f8201601f19166020016148d2565b81815284602083860101111561495457600080fd5b816020850160208301376000918101602001919091529392505050565b60006020828403121561498357600080fd5b81356001600160401b0381111561499957600080fd5b6149a584828501614902565b949350505050565b6000602080830181845280855180835260408601915060408160051b870101925083870160005b8281101561484257603f198886030184526149f08583516146ad565b945092850192908501906001016149d4565b60006001600160401b03821115614a1b57614a1b61484f565b5060051b60200190565b80358015158114614a3557600080fd5b919050565b60006101208284031215614a4d57600080fd5b614a55614865565b90508135815260208201356001600160401b0380821115614a7557600080fd5b614a8185838601614902565b60208401526040840135915080821115614a9a57600080fd5b614aa685838601614902565b6040840152606084013560608401526080840135608084015260a084013560a084015260c084013560c0840152614adf60e08501614a25565b60e084015261010091508184013581811115614afa57600080fd5b614b0686828701614902565b8385015250505092915050565b600082601f830112614b2457600080fd5b81356020614b39614b3483614a02565b6148d2565b82815260059290921b84018101918181019086841115614b5857600080fd5b8286015b84811015614b975780356001600160401b03811115614b7b5760008081fd5b614b898986838b0101614a3a565b845250918301918301614b5c565b509695505050505050565b600060c08284031215614bb457600080fd5b614bbc61488e565b90508135815260208201356001600160401b0380821115614bdc57600080fd5b614be885838601614902565b6020840152604084013560408401526060840135915080821115614c0b57600080fd5b50614c1884828501614b13565b6060830152506080820135608082015260a082013560a082015292915050565b60006020808385031215614c4b57600080fd5b82356001600160401b0380821115614c6257600080fd5b9084019060808287031215614c7657600080fd5b614c7e6148b0565b823581528383013582811115614c9357600080fd5b614c9f88828601614902565b8583015250604083013582811115614cb657600080fd5b8301601f81018813614cc757600080fd5b8035614cd5614b3482614a02565b81815260059190911b8201860190868101908a831115614cf457600080fd5b8784015b83811015614d2c57803587811115614d105760008081fd5b614d1e8d8b83890101614ba2565b845250918801918801614cf8565b5060408501525050506060928301359281019290925250949350505050565b60008060408385031215614d5e57600080fd5b82356001600160401b0380821115614d7557600080fd5b614d8186838701614902565b93506020850135915080821115614d9757600080fd5b50614da485828601614902565b9150509250929050565b60208152815160208201526000602083015160e06040840152614dd5610100840182614681565b90506040840151601f1980858403016060860152614df38383614681565b92506060860151608086015260808601519150808584030160a0860152614e1a8383614681565b925060a086015160c086015260c08601519150808584030160e086015250614e428282614681565b95945050505050565b600060208284031215614e5d57600080fd5b5035919050565b60008060408385031215614e7757600080fd5b50508035926020909101359150565b600060208284031215614e9857600080fd5b81356001600160401b03811115614eae57600080fd5b6149a584828501614ba2565b60008060408385031215614ecd57600080fd5b8235915060208301356001600160401b03811115614eea57600080fd5b614da485828601614902565b805182526000602080830151608082860152614f156080860182614681565b9050604084015185820360408701528181518084528484019150848160051b850101858401935060005b82811015614f6d57601f19868303018452614f5b828651614748565b94870194938701939150600101614f3f565b50606088015160608a015280965050505050505092915050565b602081526000610d7a6020830184614ef6565b85815260a060208201526000614fb360a0830187614681565b6040830195909552506060810192909252151560809091015292915050565b602081526000610d7a60208301846146ad565b60008060008060008060c08789031215614ffe57600080fd5b863595506020870135945060408701356001600160401b038082111561502357600080fd5b61502f8a838b01614902565b9550606089013591508082111561504557600080fd5b6150518a838b01614902565b94506080890135935060a089013591508082111561506e57600080fd5b5061507b89828a01614902565b9150509295509295509295565b6000806000806080858703121561509e57600080fd5b84356001600160401b038111156150b457600080fd5b6150c087828801614902565b97602087013597506040870135966060013595509350505050565b6000602080830181845280855180835260408601915060408160051b870101925083870160005b8281101561484257603f1988860301845261511e858351614ef6565b94509285019290850190600101615102565b602081526000610d7a6020830184614748565b60008060006060848603121561515857600080fd5b505081359360208301359350604090920135919050565b60006020828403121561518157600080fd5b81356001600160401b0381111561519757600080fd5b6149a584828501614a3a565b87815260e0602082015260006151bc60e0830189614681565b82810360408401526151ce8189614681565b905086606084015282810360808401526151e88187614681565b90508460a084015282810360c08401526152028185614681565b9a9950505050505050505050565b600080600080600060a0868803121561522857600080fd5b85356001600160401b038082111561523f57600080fd5b61524b89838a01614902565b9650602088013591508082111561526157600080fd5b61526d89838a01614902565b9550604088013591508082111561528357600080fd5b61528f89838a01614902565b945060608801359150808211156152a557600080fd5b6152b189838a01614902565b935060808801359150808211156152c757600080fd5b506152d488828901614902565b9150509295509295909350565b634e487b7160e01b600052601160045260246000fd5b6000821982111561530a5761530a6152e1565b500190565b634e487b7160e01b600052603260045260246000fd5b600181811c9082168061533957607f821691505b60208210810361312657634e487b7160e01b600052602260045260246000fd5b60006001820161536b5761536b6152e1565b5060010190565b600080835481600182811c91508083168061538e57607f831692505b602080841082036153ad57634e487b7160e01b86526022600452602486fd5b8180156153c157600181146153d2576153ff565b60ff198616895284890196506153ff565b60008a81526020902060005b868110156153f75781548b8201529085019083016153de565b505084890196505b509498975050505050505050565b602081526000610d7a6020830184614681565b60208082526017908201527f43617465676f727920686173206e6f7420657869737473000000000000000000604082015260600190565b60208082526024908201527f596f757220656d61696c206f722070617373776f726420697320696e636f72726040820152636563742160e01b606082015260800190565b60208082526017908201527f43617465676f727920646f6573206e6f74206578697374000000000000000000604082015260600190565b6000828210156154e4576154e46152e1565b500390565b600082516154fb818460208701614655565b919091019291505056fea2646970667358221220ea78679031ed4fc2c12c7c1bc621f31fb792d5976155dcde14ea1e25393a3d9164736f6c634300080d0033",
  "immutableReferences": {},
  "source": "// SPDX-License-Identifier: MIT\r\npragma solidity >=0.4.22 <0.9.0;\r\n\r\ncontract VotingSystem {\r\n    address public owner;\r\n    struct Voter {\r\n        uint256 id;\r\n        string key;\r\n        string email;\r\n        bytes32 password;\r\n        string role;\r\n        uint256 status; // 0: no verify, 1: verified, 2:banned\r\n        string token;\r\n    }\r\n\r\n    struct Event {\r\n        uint256 eventId;\r\n        string eventName;\r\n        uint256 categoryId;\r\n        Candidate[] candidates;\r\n        uint256 candidateCount;\r\n        uint256 status; // 1: Upcoming, 2: In Progress, 3: Completed, 4 Cancel\r\n    }\r\n\r\n    struct Category {\r\n        uint256 categoryId;\r\n        string categoryName;\r\n        Event[] events; //category has many event\r\n        uint256 status;\r\n    }\r\n\r\nstruct Candidate {\r\n        uint256 id;\r\n        string name;\r\n        string description;\r\n        uint256 studentId;\r\n        uint256 categoryId;\r\n        uint256 eventId;\r\n        uint256 voteCount;\r\n        bool win;\r\n        string imageFileName;\r\n    }\r\n\r\n    struct voteEventStruct {\r\n        uint256 id;\r\n        string voterKey;\r\n        uint256 categoryId;\r\n        uint256 eventId;\r\n        bool voted;\r\n    }\r\n\r\n    event CategoryAdded(uint256 indexed categoryId, string categoryName);\r\n\r\n    event VoterAdded(uint256 indexed voterId, string voter_key);\r\n    event EventAdded(uint256 indexed eventId, string eventName);\r\n\r\n    event CandidateAdded(uint256 indexed eventId, string eventName);\r\n\r\n    event VoteEvent(\r\n        string indexed _voterKey,\r\n        string indexed categoryEvent,\r\n        uint256 indexed candidate\r\n    );\r\n\r\n    mapping(uint256 => Category) categories;\r\n    mapping(uint256 => Event) events;\r\n    mapping(uint256 => Candidate) candidates;\r\n    mapping(uint256 => voteEventStruct) public voteEvents;\r\n    mapping(uint256 => Voter) public voters;\r\n    mapping(string => bool) private usedImageFileNames;\r\n\r\n    uint256 categoryCount;\r\n    uint256 candidateCount;\r\n    uint256 eventCount;\r\n    uint256 voteEventCount;\r\n    uint256 voterCount;\r\n\r\n    constructor() {\r\n        owner = msg.sender;\r\n    }\r\n\r\n    function addVoter(\r\n        string memory _key,\r\n        string memory _email,\r\n        string memory _password,\r\n        string memory _role,\r\n        string memory _token\r\n    ) public {\r\n        for (uint256 i = 1; i <= voterCount; i++) {\r\n            require(\r\n                keccak256(bytes(_key)) != keccak256(bytes(voters[i].key)),\r\n                \"Voter already exists\"\r\n            );\r\n        }\r\n\r\n        // total category plus 1, use it as the category's id\r\n        voterCount += 1;\r\n\r\n        bytes32 hashedPassword = keccak256(abi.encodePacked(_password));\r\n\r\n        // add the category details in the category list\r\n        Voter storage voter = voters[voterCount];\r\n        voter.id = voterCount;\r\n        voter.key = _key;\r\n        voter.email = _email;\r\n        voter.password = hashedPassword;\r\n        voter.role = _role;\r\n        voter.status = 0;\r\n        voter.token = _token;\r\n\r\n        // emit the category added event\r\n        emit VoterAdded(voterCount, _key);\r\n    }\r\n\r\n    function loginVoter(string memory _email, string memory _password)\r\n        public\r\n        view\r\n        returns (Voter memory)\r\n    {\r\n        Voter memory voterFound = getVoterByEmailPassword(_email, _password);\r\n        require(voterFound.id != 0, \"Your email or password is incorrect!\");\r\n        require(\r\n            voterFound.status == 1,\r\n            \"Your account was banned or not verify!\"\r\n        );\r\n        return voterFound;\r\n    }\r\n\r\n    function compareHashesPassword(bytes32 inputPassword, bytes32 password)\r\n        internal\r\n        pure\r\n        returns (bool)\r\n    {\r\n        for (uint256 i = 0; i < 32; i++) {\r\n            if (inputPassword[i] != password[i]) {\r\n                return false;\r\n            }\r\n        }\r\n        return true;\r\n    }\r\n\r\n    function getVoterByEmailPassword(\r\n        string memory _email,\r\n        string memory _password\r\n    ) public view returns (Voter memory) {\r\n        bytes32 hashedPassword = keccak256(abi.encodePacked(_password));\r\n        for (uint256 i = 1; i <= voterCount; i++) {\r\n            if (\r\n                keccak256(bytes(_email)) == keccak256(bytes(voters[i].email)) &&\r\n                compareHashesPassword(hashedPassword, voters[i].password)\r\n            ) {\r\n                return voters[i];\r\n            }\r\n        }\r\n\r\n        // Event not found in the specified category\r\n        return Voter(0, \"\", \"\", \"\", \"\", 0, \"\");\r\n    }\r\n\r\n    function updateVoterPassword(string memory _key, string memory _password)\r\n        public\r\n    {\r\n        require(isVoterExist(_key), \"User does not exists\");\r\n\r\n        bytes32 hashedPassword = keccak256(abi.encodePacked(_password));\r\n        for (uint256 i = 1; i <= voterCount; i++) {\r\n            if (keccak256(bytes(_key)) == keccak256(bytes(voters[i].key))) {\r\n                voters[i].password = hashedPassword;\r\n            }\r\n        }\r\n    }\r\n\r\n    function verifyVoterAccount(string memory _token) public returns (bool) {\r\n        require(voters[1].id != 0, \"No voter in the list!\");\r\n        for (uint256 i = 1; i <= voterCount; i++) {\r\n            if (keccak256(bytes(_token)) == keccak256(bytes(voters[i].token))) {\r\n                voters[i].status = 1;\r\n                return true;\r\n            }\r\n        }\r\n        return false;\r\n    }\r\n\r\n    function getVoterStatus(string memory _email, string memory _password)\r\n        public\r\n        view\r\n        returns (uint256 status)\r\n    {\r\n        Voter memory voterFound = getVoterByEmailPassword(_email, _password);\r\n        require(voterFound.id != 0, \"Your email or password is incorrect!\");\r\n        return voterFound.status;\r\n    }\r\n\r\n    function checkVoterEmailPassword(\r\n        string memory _email,\r\n        string memory _password\r\n    ) public view returns (bool foundVoter) {\r\n        Voter memory voterFound = getVoterByEmailPassword(_email, _password);\r\n\r\n        if (voterFound.id != 0) {\r\n            return true;\r\n        }\r\n        return false;\r\n    }\r\n\r\n    function isVoterExist(string memory _key) public view returns (bool) {\r\n        for (uint256 i = 1; i <= voterCount; i++) {\r\n            if (keccak256(bytes(_key)) == keccak256(bytes(voters[i].key))) {\r\n                return true;\r\n            }\r\n        }\r\n        return false;\r\n    }\r\n\r\n    function addCategory(string memory _categoryName) public {\r\n        // check if the category is exist\r\n        for (uint256 i = 1; i <= categoryCount; i++) {\r\n            require(\r\n                keccak256(bytes(_categoryName)) !=\r\n                    keccak256(bytes(categories[i].categoryName)),\r\n                \"Category already exists\"\r\n            );\r\n        }\r\n\r\n        // total category plus 1, use it as the category's id\r\n        categoryCount += 1;\r\n\r\n        // add the category details in the category list\r\n        Category storage category = categories[categoryCount];\r\n        category.categoryName = _categoryName;\r\n        category.categoryId = categoryCount;\r\n        category.status = 1;\r\n\r\n        // emit the category added event\r\n        emit CategoryAdded(categoryCount, _categoryName);\r\n    }\r\n\r\n    function updateCategory(Category memory _category) public {\r\n        // check if the category is exist\r\n        require(\r\n            categories[_category.categoryId].categoryId != 0,\r\n            \"Category has not exists\"\r\n        );\r\n\r\n        // add the category details in the category list\r\n        Category storage category = categories[_category.categoryId];\r\n        category.categoryName = _category.categoryName;\r\n        category.status = _category.status;\r\n    }\r\n\r\n    function addEvent(uint256 _categoryId, string memory _eventName) public {\r\n        // check if the category has exists\r\n        require(\r\n            categories[_categoryId].categoryId != 0,\r\n            \"Category has not exists\"\r\n        );\r\n\r\n        require(\r\n            isEventExists(_categoryId, _eventName) == false,\r\n            \"Event already exists\"\r\n        );\r\n\r\n        // find out the category in list by using the paramerter category name\r\n        Category storage category = categories[_categoryId];\r\n\r\n        // add the event in the category list\r\n        uint256 eventId = eventCount += 1;\r\n\r\n        Event storage newEvent = category.events.push();\r\n        newEvent.eventId = eventId;\r\n        newEvent.eventName = _eventName;\r\n        newEvent.categoryId = _categoryId;\r\n        newEvent.status = 1;\r\n    }\r\n\r\n    function isEventExists(uint256 _categoryId, string memory _eventName)\r\n        public\r\n        view\r\n        returns (bool)\r\n    {\r\n        // Check if the category exists\r\n        require(\r\n            categories[_categoryId].categoryId != 0,\r\n            \"Category does not exist\"\r\n        );\r\n\r\n        // Loop through the events in the specified category\r\n        for (uint256 i = 0; i < categories[_categoryId].events.length; i++) {\r\n            if (\r\n                keccak256(bytes(categories[_categoryId].events[i].eventName)) ==\r\n                keccak256(bytes(_eventName))\r\n            ) {\r\n                // Event found\r\n                return true;\r\n            }\r\n        }\r\n\r\n        // Event not found in the specified category\r\n        return false;\r\n    }\r\n\r\n    function updateEvent(Event memory _event) public {\r\n        // check if the category is exist\r\n        require(\r\n            categories[_event.categoryId].categoryId != 0,\r\n            \"Category does not exists\"\r\n        );\r\n        require(\r\n            isEventExists(_event.categoryId, _event.eventId),\r\n            \"Event does not exist!\"\r\n        );\r\n        // add the category details in the category list\r\n        Event storage eventToUpdate = categories[_event.categoryId].events[\r\n            _event.eventId - 1\r\n        ];\r\n\r\n        eventToUpdate.eventName = _event.eventName;\r\n        eventToUpdate.status = _event.status;\r\n    }\r\n\r\n     function addCandidateToEvent(\r\n        uint256 _categoryId,\r\n        uint256 _eventId,\r\n        string memory _candidateName,\r\n        string memory _description,\r\n        uint256 _studentId,\r\n        string memory _imageFileName\r\n    ) public {\r\n        require(\r\n            categories[_categoryId].categoryId != 0,\r\n            \"Category does not exist\"\r\n        );\r\n        require(\r\n            isEventExists(_categoryId, _eventId),\r\n            \"Event does not exist\"\r\n        );\r\n        require(\r\n            !isCandidateExistsInEvent(_categoryId, _eventId, _studentId),\r\n            \"Candidate already exists\"\r\n        );\r\n        // Check if the image file name is already used\r\n        require(\r\n            !usedImageFileNames[_imageFileName],\r\n            \"Image file name already in use\"\r\n        );\r\n\r\n        candidateCount += 1;\r\n\r\n        // Create a new candidate\r\n        Candidate memory newCandidate = Candidate({\r\n            id: candidateCount,\r\n            name: _candidateName,\r\n            studentId: _studentId,\r\n            categoryId: _categoryId,\r\n            eventId: _eventId,\r\n            description: _description,\r\n            win: false,\r\n            voteCount: 0,\r\n            imageFileName: _imageFileName\r\n        });\r\n\r\n        // find the certain category\r\n        Category storage category = categories[_categoryId];\r\n        // find the certain event in certain category\r\n        for (uint256 i = 0; i < category.events.length; i++) {\r\n            if (category.events[i].eventId == _eventId) {\r\n                category.events[i].candidates.push(newCandidate);\r\n                category.events[i].candidateCount += 1;\r\n            }\r\n        }\r\n\r\n        // Mark the image file name as used\r\n        usedImageFileNames[_imageFileName] = true;\r\n    }\r\n\r\n    function updateCandidate(Candidate memory _candidate) public {\r\n        require(\r\n            categories[_candidate.categoryId].categoryId != 0,\r\n            \"Category has not exists\"\r\n        );\r\n\r\n        require(\r\n            isEventExists(_candidate.categoryId, _candidate.eventId) == true,\r\n            \"Event has not exists\"\r\n        );\r\n\r\n        require(\r\n            isCandidateExistsInEvent(\r\n                _candidate.categoryId,\r\n                _candidate.eventId,\r\n                _candidate.studentId\r\n            ) == true,\r\n            \"Candidate does not existed\"\r\n        );\r\n\r\n        Candidate storage candidateToUpdate = categories[_candidate.categoryId]\r\n            .events[_candidate.eventId - 1]\r\n            .candidates[_candidate.id - 1];\r\n\r\n        candidateToUpdate.name = _candidate.name;\r\n        candidateToUpdate.studentId = _candidate.studentId;\r\n        candidateToUpdate.description = _candidate.description;\r\n    }\r\n\r\n    function isCandidateExistsInEvent(\r\n        uint256 _categoryId,\r\n        uint256 _eventId,\r\n        uint256 _studentId\r\n    ) public view returns (bool) {\r\n        // Check if the category exists\r\n        require(\r\n            categories[_categoryId].categoryId != 0,\r\n            \"Category does not exist\"\r\n        );\r\n\r\n        Candidate[] memory candidatesFound = getAllCandidatesInEvent(\r\n            _categoryId,\r\n            _eventId\r\n        );\r\n\r\n        // Loop through the events in the specified category\r\n\r\n        for (uint256 i = 0; i < candidatesFound.length; i++) {\r\n            if (candidatesFound[i].studentId == _studentId) {\r\n                return true;\r\n            }\r\n        }\r\n\r\n        // Event not found in the specified category\r\n        return false;\r\n    }\r\n\r\n    function isCandidateExistsInEventById(\r\n        uint256 _categoryId,\r\n        uint256 _eventId,\r\n        uint256 _candidateId\r\n    ) public view returns (bool) {\r\n        // Check if the category exists\r\n        require(\r\n            categories[_categoryId].categoryId != 0,\r\n            \"Category does not exist\"\r\n        );\r\n\r\n        Candidate[] memory candidatesFound = getAllCandidatesInEvent(\r\n            _categoryId,\r\n            _eventId\r\n        );\r\n\r\n        // Loop through the events in the specified category\r\n\r\n        for (uint256 i = 0; i < candidatesFound.length; i++) {\r\n            if (candidatesFound[i].id == _candidateId) {\r\n                return true;\r\n            }\r\n        }\r\n\r\n        // Event not found in the specified category\r\n        return false;\r\n    }\r\n\r\n    function isEventExists(uint256 _categoryId, uint256 _eventId)\r\n        public\r\n        view\r\n        returns (bool)\r\n    {\r\n        // Check if the category exists\r\n        require(\r\n            categories[_categoryId].categoryId != 0,\r\n            \"Category does not exist\"\r\n        );\r\n\r\n        // Loop through the events in the specified category\r\n        for (uint256 i = 0; i < categories[_categoryId].events.length; i++) {\r\n            if (categories[_categoryId].events[i].eventId == _eventId) {\r\n                // Event found\r\n                return true;\r\n            }\r\n        }\r\n\r\n        // Event not found in the specified category\r\n        return false;\r\n    }\r\n\r\n    function getAllCategoryEvent(uint256 _categoryId)\r\n        public\r\n        view\r\n        returns (Event[] memory foundEvent)\r\n    {\r\n        // find the certain category\r\n        Category storage category = categories[_categoryId];\r\n\r\n        // declare an array variable for storing events\r\n        Event[] memory eventsFound = new Event[](category.events.length);\r\n\r\n        // get all the event name by searching the event in list\r\n        for (uint256 i = 0; i < category.events.length; i++) {\r\n            eventsFound[i] = category.events[i];\r\n        }\r\n\r\n        return (eventsFound);\r\n    }\r\n\r\n    function getAllCandidatesInEvent(uint256 _categoryId, uint256 _eventId)\r\n        public\r\n        view\r\n        returns (Candidate[] memory foundCandidates)\r\n    {\r\n        // find the certain category\r\n        Category storage category = categories[_categoryId];\r\n        // find the certain event in certain category\r\n        for (uint256 i = 0; i < category.events.length; i++) {\r\n            if (category.events[i].eventId == _eventId) {\r\n                Candidate[] memory candidatesFound = new Candidate[](\r\n                    category.events[i].candidateCount\r\n                );\r\n\r\n                for (\r\n                    uint256 j = 0;\r\n                    j < category.events[i].candidates.length;\r\n                    j++\r\n                ) {\r\n                    candidatesFound[j] = category.events[i].candidates[j];\r\n                }\r\n                return (candidatesFound);\r\n            }\r\n        }\r\n    }\r\n\r\n    function getAllCandidates() public view returns (Candidate[] memory) {\r\n        Candidate[] memory candidatesFound = new Candidate[](candidateCount);\r\n        Event[] memory eventFound = new Event[](eventCount);\r\n\r\n        // get all the events\r\n        eventFound = getAllEvent();\r\n        uint256 count = 0;\r\n        // find the candidates inside all the event\r\n        for (uint256 i = 0; i < eventCount; i++) {\r\n            for (uint256 j = 0; j < eventFound[i].candidates.length; j++) {\r\n                candidatesFound[count] = eventFound[i].candidates[j];\r\n                count += 1;\r\n            }\r\n        }\r\n\r\n        return candidatesFound;\r\n    }\r\n\r\n    function getAllCategory() public view returns (Category[] memory) {\r\n        //Candidate[] memory candidatesFound = new Candidate[](candidateCount);\r\n        Category[] memory categoriesFound = new Category[](categoryCount);\r\n        // Iterate through all stored structs\r\n        for (uint256 i = 1; i <= categoryCount; i++) {\r\n            categoriesFound[i - 1] = categories[i];\r\n        }\r\n\r\n        return categoriesFound;\r\n    }\r\n\r\n    function getCategoryById(uint256 _categoryId)\r\n        public\r\n        view\r\n        returns (Category memory)\r\n    {\r\n        return categories[_categoryId];\r\n    }\r\n\r\n    function getAllEvent() public view returns (Event[] memory) {\r\n        // Initialize the array with the correct size\r\n        Event[] memory eventFound = new Event[](eventCount);\r\n        uint256 count = 0;\r\n\r\n        // Iterate through all categories and events\r\n        for (uint256 i = 0; i < categoryCount; i++) {\r\n            for (uint256 j = 0; j < categories[i + 1].events.length; j++) {\r\n                eventFound[count] = categories[i + 1].events[j];\r\n                count += 1;\r\n            }\r\n        }\r\n\r\n        return eventFound;\r\n    }\r\n\r\n    function getEventById(uint256 _categoryId, uint256 _eventId)\r\n        public\r\n        view\r\n        returns (Event memory)\r\n    {\r\n        Category memory categoriesFound = categories[_categoryId];\r\n        Event memory eventFound;\r\n        // Iterate through all stored structs\r\n        for (uint256 i = 0; i < categoriesFound.events.length; i++) {\r\n            if (categoriesFound.events[i].eventId == _eventId) {\r\n                eventFound = categoriesFound.events[i];\r\n            }\r\n        }\r\n\r\n        return eventFound;\r\n    }\r\n\r\n    function vote(\r\n        string memory _voterKey,\r\n        uint256 _candidateId,\r\n        uint256 _categoryId,\r\n        uint256 _eventId\r\n    ) external {\r\n        require(\r\n            categories[_categoryId].categoryId != 0,\r\n            \"Category does not exists\"\r\n        );\r\n\r\n        require(eventCount != 0, \"Event does not exists\");\r\n\r\n        // for (uint256 i = 1; i <= categories[_categoryId].events.length; i++) {\r\n        //     require(categories[_categoryId].events[i-0].eventId == _eventId, \"noobbbbb\");\r\n        // }\r\n\r\n        require(\r\n            isCandidateExistsInEventById(_categoryId, _eventId, _candidateId) ==\r\n                true,\r\n            \"Candidates does not exists\"\r\n        );\r\n\r\n        // check if has voted\r\n        for (uint256 i = 1; i <= voteEventCount; i++) {\r\n            if (\r\n                 keccak256(bytes(_voterKey)) ==  keccak256(bytes(voteEvents[i].voterKey)) &&\r\n                _categoryId == voteEvents[i].categoryId &&\r\n                _eventId == voteEvents[i].eventId\r\n            ) {\r\n                require(!voteEvents[i].voted, \"You already voted\");\r\n                break;\r\n            }\r\n        }\r\n\r\n        // add count on the candidate\r\n        voteEventCount += 1;\r\n\r\n        // Create a new voteEventStruct\r\n        voteEventStruct memory newVoteEvent = voteEventStruct({\r\n            id: voteEventCount,\r\n            voterKey: _voterKey,\r\n            categoryId: _categoryId,\r\n            eventId: _eventId,\r\n            voted: true\r\n        });\r\n\r\n        voteEvents[voteEventCount] = newVoteEvent;\r\n\r\n        // add the vote count of the chosen candidate\r\n        addVoteCount(_candidateId);\r\n        addVoteCountIn(_categoryId, _eventId, _candidateId);\r\n\r\n        string memory concatenatedValues = string(\r\n            abi.encodePacked(_categoryId, _eventId)\r\n        );\r\n\r\n        emit VoteEvent(_voterKey, concatenatedValues, _candidateId);\r\n    }\r\n\r\n    function addVoteCount(uint256 _candidateId) internal {\r\n        candidates[_candidateId].voteCount += 1;\r\n    }\r\n\r\n    function addVoteCountIn(\r\n        uint256 _categoryId,\r\n        uint256 _eventId,\r\n        uint256 _candidateId\r\n    ) internal {\r\n        // get the events inside the categories\r\n        Event[] storage eventsFound = categories[_categoryId].events;\r\n\r\n        // find the event with param\r\n        for (uint256 i = 0; i < eventsFound.length; i++) {\r\n            if (eventsFound[i].eventId == _eventId) {\r\n                // get the candidate inside the event\r\n                Candidate[] storage candidatesFound = eventsFound[i].candidates;\r\n                // find the candidate\r\n                for (uint256 j = 0; j < candidatesFound.length; j++) {\r\n                    if (candidatesFound[j].id == _candidateId) {\r\n                        // found the candidate and plus 1 at the voteCount\r\n                        candidatesFound[j].voteCount += 1;\r\n                        break;\r\n                    }\r\n                }\r\n            }\r\n        }\r\n    }\r\n\r\n    function getCandidateVoteCount(uint256 _candidateId)\r\n        public\r\n        view\r\n        returns (uint256 count)\r\n    {\r\n        return candidates[_candidateId].voteCount;\r\n    }\r\n\r\n    function getVoteEventCandidate(uint256 _categoryId, uint256 _eventId)\r\n        public\r\n        view\r\n        returns (Candidate[] memory)\r\n    {\r\n        Event[] memory eventsFound = categories[_categoryId].events;\r\n\r\n        for (uint256 i = 0; i < eventsFound.length; i++) {\r\n            if (eventsFound[i].eventId == _eventId) {\r\n                return eventsFound[i].candidates;\r\n            }\r\n        }\r\n\r\n        // If the event is not found, return an empty array or handle the situation accordingly\r\n        return new Candidate[](0);\r\n    }\r\n\r\n    function whoIsTheWinner(uint256 _categoryId, uint256 _eventId)\r\n        public\r\n        view\r\n        returns (Candidate memory)\r\n    {\r\n        Event[] memory eventsFound = categories[_categoryId].events;\r\n        Candidate[] memory candidatesFound;\r\n\r\n        for (uint256 i = 0; i < eventsFound.length; i++) {\r\n            if (eventsFound[i].eventId == _eventId) {\r\n                candidatesFound = eventsFound[i].candidates;\r\n            }\r\n        }\r\n\r\n        Candidate memory winner = candidatesFound[0];\r\n\r\n        for (uint256 i = 0; i < candidatesFound.length - 1; i++) {\r\n            if (winner.voteCount < candidatesFound[i + 1].voteCount) {\r\n                winner = candidatesFound[i + 1];\r\n            }\r\n        }\r\n\r\n        winner.win = true;\r\n\r\n        // If the event is not found, return an empty array or handle the situation accordingly\r\n        return winner;\r\n    }\r\n}\r\n",
  "sourcePath": "C:\\xampp\\htdocs\\Online-Voting-System-Blockchain\\contracts\\VotingSystem.sol",
  "compiler": {
    "name": "solc",
    "version": "0.8.13+commit.abaa5c0e.Emscripten.clang"
  },
  "schemaVersion": "3.4.16",
  "updatedAt": "2023-12-08T01:04:47.371Z",
  "networkType": "ethereum",
  "devdoc": {
    "kind": "dev",
    "methods": {},
    "version": 1
  },
  "userdoc": {
    "kind": "user",
    "methods": {},
    "version": 1
  }
}