{
  "contractName": "VotingSystem",
  "abi": [
    {
      "inputs": [],
      "stateMutability": "nonpayable",
      "type": "constructor"
    },
    {
      "anonymous": false,
      "inputs": [
        {
          "indexed": true,
          "internalType": "uint256",
          "name": "eventId",
          "type": "uint256"
        },
        {
          "indexed": false,
          "internalType": "string",
          "name": "eventName",
          "type": "string"
        }
      ],
      "name": "CandidateAdded",
      "type": "event"
    },
    {
      "anonymous": false,
      "inputs": [
        {
          "indexed": true,
          "internalType": "uint256",
          "name": "categoryId",
          "type": "uint256"
        },
        {
          "indexed": false,
          "internalType": "string",
          "name": "categoryName",
          "type": "string"
        }
      ],
      "name": "CategoryAdded",
      "type": "event"
    },
    {
      "anonymous": false,
      "inputs": [
        {
          "indexed": true,
          "internalType": "uint256",
          "name": "eventId",
          "type": "uint256"
        },
        {
          "indexed": false,
          "internalType": "string",
          "name": "eventName",
          "type": "string"
        }
      ],
      "name": "EventAdded",
      "type": "event"
    },
    {
      "anonymous": false,
      "inputs": [
        {
          "indexed": true,
          "internalType": "uint256",
          "name": "voterId",
          "type": "uint256"
        },
        {
          "indexed": true,
          "internalType": "string",
          "name": "categoryEvent",
          "type": "string"
        },
        {
          "indexed": true,
          "internalType": "uint256",
          "name": "candidate",
          "type": "uint256"
        }
      ],
      "name": "VoteEvent",
      "type": "event"
    },
    {
      "anonymous": false,
      "inputs": [
        {
          "indexed": true,
          "internalType": "uint256",
          "name": "voterId",
          "type": "uint256"
        },
        {
          "indexed": false,
          "internalType": "string",
          "name": "voter_key",
          "type": "string"
        }
      ],
      "name": "VoterAdded",
      "type": "event"
    },
    {
      "inputs": [],
      "name": "owner",
      "outputs": [
        {
          "internalType": "address",
          "name": "",
          "type": "address"
        }
      ],
      "stateMutability": "view",
      "type": "function",
      "constant": true
    },
    {
      "inputs": [
        {
          "internalType": "uint256",
          "name": "",
          "type": "uint256"
        }
      ],
      "name": "voteEvents",
      "outputs": [
        {
          "internalType": "uint256",
          "name": "id",
          "type": "uint256"
        },
        {
          "internalType": "uint256",
          "name": "voterId",
          "type": "uint256"
        },
        {
          "internalType": "uint256",
          "name": "categoryId",
          "type": "uint256"
        },
        {
          "internalType": "uint256",
          "name": "eventId",
          "type": "uint256"
        },
        {
          "internalType": "bool",
          "name": "voted",
          "type": "bool"
        }
      ],
      "stateMutability": "view",
      "type": "function",
      "constant": true
    },
    {
      "inputs": [
        {
          "internalType": "uint256",
          "name": "",
          "type": "uint256"
        }
      ],
      "name": "voters",
      "outputs": [
        {
          "internalType": "uint256",
          "name": "id",
          "type": "uint256"
        },
        {
          "internalType": "string",
          "name": "key",
          "type": "string"
        },
        {
          "internalType": "string",
          "name": "email",
          "type": "string"
        },
        {
          "internalType": "string",
          "name": "password",
          "type": "string"
        },
        {
          "internalType": "string",
          "name": "role",
          "type": "string"
        }
      ],
      "stateMutability": "view",
      "type": "function",
      "constant": true
    },
    {
      "inputs": [
        {
          "internalType": "string",
          "name": "_key",
          "type": "string"
        },
        {
          "internalType": "string",
          "name": "_email",
          "type": "string"
        },
        {
          "internalType": "string",
          "name": "_password",
          "type": "string"
        },
        {
          "internalType": "string",
          "name": "_role",
          "type": "string"
        }
      ],
      "name": "addVoter",
      "outputs": [],
      "stateMutability": "nonpayable",
      "type": "function"
    },
    {
      "inputs": [
        {
          "internalType": "string",
          "name": "_email",
          "type": "string"
        },
        {
          "internalType": "string",
          "name": "_password",
          "type": "string"
        }
      ],
      "name": "loginVoter",
      "outputs": [
        {
          "components": [
            {
              "internalType": "uint256",
              "name": "id",
              "type": "uint256"
            },
            {
              "internalType": "string",
              "name": "key",
              "type": "string"
            },
            {
              "internalType": "string",
              "name": "email",
              "type": "string"
            },
            {
              "internalType": "string",
              "name": "password",
              "type": "string"
            },
            {
              "internalType": "string",
              "name": "role",
              "type": "string"
            }
          ],
          "internalType": "struct VotingSystem.Voter",
          "name": "",
          "type": "tuple"
        }
      ],
      "stateMutability": "view",
      "type": "function",
      "constant": true
    },
    {
      "inputs": [
        {
          "internalType": "string",
          "name": "_email",
          "type": "string"
        },
        {
          "internalType": "string",
          "name": "_password",
          "type": "string"
        }
      ],
      "name": "getVoter",
      "outputs": [
        {
          "components": [
            {
              "internalType": "uint256",
              "name": "id",
              "type": "uint256"
            },
            {
              "internalType": "string",
              "name": "key",
              "type": "string"
            },
            {
              "internalType": "string",
              "name": "email",
              "type": "string"
            },
            {
              "internalType": "string",
              "name": "password",
              "type": "string"
            },
            {
              "internalType": "string",
              "name": "role",
              "type": "string"
            }
          ],
          "internalType": "struct VotingSystem.Voter",
          "name": "",
          "type": "tuple"
        }
      ],
      "stateMutability": "view",
      "type": "function",
      "constant": true
    },
    {
      "inputs": [
        {
          "internalType": "string",
          "name": "_categoryName",
          "type": "string"
        }
      ],
      "name": "addCategory",
      "outputs": [],
      "stateMutability": "nonpayable",
      "type": "function"
    },
    {
      "inputs": [
        {
          "internalType": "uint256",
          "name": "_categoryId",
          "type": "uint256"
        },
        {
          "internalType": "string",
          "name": "_eventName",
          "type": "string"
        }
      ],
      "name": "addEvent",
      "outputs": [],
      "stateMutability": "nonpayable",
      "type": "function"
    },
    {
      "inputs": [
        {
          "internalType": "uint256",
          "name": "_categoryId",
          "type": "uint256"
        },
        {
          "internalType": "uint256",
          "name": "_eventId",
          "type": "uint256"
        },
        {
          "internalType": "string",
          "name": "_candidateName",
          "type": "string"
        },
        {
          "internalType": "string",
          "name": "_description",
          "type": "string"
        },
        {
          "internalType": "uint256",
          "name": "_studentId",
          "type": "uint256"
        }
      ],
      "name": "addCandidateToEvent",
      "outputs": [],
      "stateMutability": "nonpayable",
      "type": "function"
    },
    {
      "inputs": [
        {
          "internalType": "uint256",
          "name": "_categoryId",
          "type": "uint256"
        },
        {
          "internalType": "uint256",
          "name": "_eventId",
          "type": "uint256"
        },
        {
          "internalType": "uint256",
          "name": "_studentId",
          "type": "uint256"
        }
      ],
      "name": "isCandidateExistsInEvent",
      "outputs": [
        {
          "internalType": "bool",
          "name": "",
          "type": "bool"
        }
      ],
      "stateMutability": "view",
      "type": "function",
      "constant": true
    },
    {
      "inputs": [
        {
          "internalType": "uint256",
          "name": "_categoryId",
          "type": "uint256"
        },
        {
          "internalType": "uint256",
          "name": "_eventId",
          "type": "uint256"
        },
        {
          "internalType": "uint256",
          "name": "_candidateId",
          "type": "uint256"
        }
      ],
      "name": "isCandidateExistsInEventById",
      "outputs": [
        {
          "internalType": "bool",
          "name": "",
          "type": "bool"
        }
      ],
      "stateMutability": "view",
      "type": "function",
      "constant": true
    },
    {
      "inputs": [
        {
          "internalType": "uint256",
          "name": "_categoryId",
          "type": "uint256"
        },
        {
          "internalType": "uint256",
          "name": "_eventId",
          "type": "uint256"
        }
      ],
      "name": "isEventExists",
      "outputs": [
        {
          "internalType": "bool",
          "name": "",
          "type": "bool"
        }
      ],
      "stateMutability": "view",
      "type": "function",
      "constant": true
    },
    {
      "inputs": [
        {
          "internalType": "uint256",
          "name": "_categoryId",
          "type": "uint256"
        },
        {
          "internalType": "string",
          "name": "_eventName",
          "type": "string"
        }
      ],
      "name": "isEventExists",
      "outputs": [
        {
          "internalType": "bool",
          "name": "",
          "type": "bool"
        }
      ],
      "stateMutability": "view",
      "type": "function",
      "constant": true
    },
    {
      "inputs": [
        {
          "internalType": "uint256",
          "name": "_categoryId",
          "type": "uint256"
        }
      ],
      "name": "getAllCategoryEvent",
      "outputs": [
        {
          "components": [
            {
              "internalType": "uint256",
              "name": "eventId",
              "type": "uint256"
            },
            {
              "internalType": "string",
              "name": "eventName",
              "type": "string"
            },
            {
              "internalType": "uint256",
              "name": "categoryId",
              "type": "uint256"
            },
            {
              "components": [
                {
                  "internalType": "uint256",
                  "name": "id",
                  "type": "uint256"
                },
                {
                  "internalType": "string",
                  "name": "name",
                  "type": "string"
                },
                {
                  "internalType": "string",
                  "name": "description",
                  "type": "string"
                },
                {
                  "internalType": "uint256",
                  "name": "studentId",
                  "type": "uint256"
                },
                {
                  "internalType": "uint256",
                  "name": "categoryId",
                  "type": "uint256"
                },
                {
                  "internalType": "uint256",
                  "name": "eventId",
                  "type": "uint256"
                },
                {
                  "internalType": "uint256",
                  "name": "voteCount",
                  "type": "uint256"
                },
                {
                  "internalType": "bool",
                  "name": "win",
                  "type": "bool"
                }
              ],
              "internalType": "struct VotingSystem.Candidate[]",
              "name": "candidates",
              "type": "tuple[]"
            },
            {
              "internalType": "uint256",
              "name": "candidateCount",
              "type": "uint256"
            },
            {
              "internalType": "uint256",
              "name": "status",
              "type": "uint256"
            }
          ],
          "internalType": "struct VotingSystem.Event[]",
          "name": "foundEvent",
          "type": "tuple[]"
        }
      ],
      "stateMutability": "view",
      "type": "function",
      "constant": true
    },
    {
      "inputs": [
        {
          "internalType": "uint256",
          "name": "_categoryId",
          "type": "uint256"
        },
        {
          "internalType": "uint256",
          "name": "_eventId",
          "type": "uint256"
        }
      ],
      "name": "getAllCandidatesInEvent",
      "outputs": [
        {
          "components": [
            {
              "internalType": "uint256",
              "name": "id",
              "type": "uint256"
            },
            {
              "internalType": "string",
              "name": "name",
              "type": "string"
            },
            {
              "internalType": "string",
              "name": "description",
              "type": "string"
            },
            {
              "internalType": "uint256",
              "name": "studentId",
              "type": "uint256"
            },
            {
              "internalType": "uint256",
              "name": "categoryId",
              "type": "uint256"
            },
            {
              "internalType": "uint256",
              "name": "eventId",
              "type": "uint256"
            },
            {
              "internalType": "uint256",
              "name": "voteCount",
              "type": "uint256"
            },
            {
              "internalType": "bool",
              "name": "win",
              "type": "bool"
            }
          ],
          "internalType": "struct VotingSystem.Candidate[]",
          "name": "foundCandidates",
          "type": "tuple[]"
        }
      ],
      "stateMutability": "view",
      "type": "function",
      "constant": true
    },
    {
      "inputs": [],
      "name": "getAllCandidates",
      "outputs": [
        {
          "components": [
            {
              "internalType": "uint256",
              "name": "id",
              "type": "uint256"
            },
            {
              "internalType": "string",
              "name": "name",
              "type": "string"
            },
            {
              "internalType": "string",
              "name": "description",
              "type": "string"
            },
            {
              "internalType": "uint256",
              "name": "studentId",
              "type": "uint256"
            },
            {
              "internalType": "uint256",
              "name": "categoryId",
              "type": "uint256"
            },
            {
              "internalType": "uint256",
              "name": "eventId",
              "type": "uint256"
            },
            {
              "internalType": "uint256",
              "name": "voteCount",
              "type": "uint256"
            },
            {
              "internalType": "bool",
              "name": "win",
              "type": "bool"
            }
          ],
          "internalType": "struct VotingSystem.Candidate[]",
          "name": "",
          "type": "tuple[]"
        }
      ],
      "stateMutability": "view",
      "type": "function",
      "constant": true
    },
    {
      "inputs": [],
      "name": "getAllCategory",
      "outputs": [
        {
          "components": [
            {
              "internalType": "uint256",
              "name": "categoryId",
              "type": "uint256"
            },
            {
              "internalType": "string",
              "name": "categoryName",
              "type": "string"
            },
            {
              "components": [
                {
                  "internalType": "uint256",
                  "name": "eventId",
                  "type": "uint256"
                },
                {
                  "internalType": "string",
                  "name": "eventName",
                  "type": "string"
                },
                {
                  "internalType": "uint256",
                  "name": "categoryId",
                  "type": "uint256"
                },
                {
                  "components": [
                    {
                      "internalType": "uint256",
                      "name": "id",
                      "type": "uint256"
                    },
                    {
                      "internalType": "string",
                      "name": "name",
                      "type": "string"
                    },
                    {
                      "internalType": "string",
                      "name": "description",
                      "type": "string"
                    },
                    {
                      "internalType": "uint256",
                      "name": "studentId",
                      "type": "uint256"
                    },
                    {
                      "internalType": "uint256",
                      "name": "categoryId",
                      "type": "uint256"
                    },
                    {
                      "internalType": "uint256",
                      "name": "eventId",
                      "type": "uint256"
                    },
                    {
                      "internalType": "uint256",
                      "name": "voteCount",
                      "type": "uint256"
                    },
                    {
                      "internalType": "bool",
                      "name": "win",
                      "type": "bool"
                    }
                  ],
                  "internalType": "struct VotingSystem.Candidate[]",
                  "name": "candidates",
                  "type": "tuple[]"
                },
                {
                  "internalType": "uint256",
                  "name": "candidateCount",
                  "type": "uint256"
                },
                {
                  "internalType": "uint256",
                  "name": "status",
                  "type": "uint256"
                }
              ],
              "internalType": "struct VotingSystem.Event[]",
              "name": "events",
              "type": "tuple[]"
            }
          ],
          "internalType": "struct VotingSystem.Category[]",
          "name": "",
          "type": "tuple[]"
        }
      ],
      "stateMutability": "view",
      "type": "function",
      "constant": true
    },
    {
      "inputs": [
        {
          "internalType": "uint256",
          "name": "_categoryId",
          "type": "uint256"
        }
      ],
      "name": "getCategoryById",
      "outputs": [
        {
          "components": [
            {
              "internalType": "uint256",
              "name": "categoryId",
              "type": "uint256"
            },
            {
              "internalType": "string",
              "name": "categoryName",
              "type": "string"
            },
            {
              "components": [
                {
                  "internalType": "uint256",
                  "name": "eventId",
                  "type": "uint256"
                },
                {
                  "internalType": "string",
                  "name": "eventName",
                  "type": "string"
                },
                {
                  "internalType": "uint256",
                  "name": "categoryId",
                  "type": "uint256"
                },
                {
                  "components": [
                    {
                      "internalType": "uint256",
                      "name": "id",
                      "type": "uint256"
                    },
                    {
                      "internalType": "string",
                      "name": "name",
                      "type": "string"
                    },
                    {
                      "internalType": "string",
                      "name": "description",
                      "type": "string"
                    },
                    {
                      "internalType": "uint256",
                      "name": "studentId",
                      "type": "uint256"
                    },
                    {
                      "internalType": "uint256",
                      "name": "categoryId",
                      "type": "uint256"
                    },
                    {
                      "internalType": "uint256",
                      "name": "eventId",
                      "type": "uint256"
                    },
                    {
                      "internalType": "uint256",
                      "name": "voteCount",
                      "type": "uint256"
                    },
                    {
                      "internalType": "bool",
                      "name": "win",
                      "type": "bool"
                    }
                  ],
                  "internalType": "struct VotingSystem.Candidate[]",
                  "name": "candidates",
                  "type": "tuple[]"
                },
                {
                  "internalType": "uint256",
                  "name": "candidateCount",
                  "type": "uint256"
                },
                {
                  "internalType": "uint256",
                  "name": "status",
                  "type": "uint256"
                }
              ],
              "internalType": "struct VotingSystem.Event[]",
              "name": "events",
              "type": "tuple[]"
            }
          ],
          "internalType": "struct VotingSystem.Category",
          "name": "",
          "type": "tuple"
        }
      ],
      "stateMutability": "view",
      "type": "function",
      "constant": true
    },
    {
      "inputs": [],
      "name": "getAllEvent",
      "outputs": [
        {
          "components": [
            {
              "internalType": "uint256",
              "name": "eventId",
              "type": "uint256"
            },
            {
              "internalType": "string",
              "name": "eventName",
              "type": "string"
            },
            {
              "internalType": "uint256",
              "name": "categoryId",
              "type": "uint256"
            },
            {
              "components": [
                {
                  "internalType": "uint256",
                  "name": "id",
                  "type": "uint256"
                },
                {
                  "internalType": "string",
                  "name": "name",
                  "type": "string"
                },
                {
                  "internalType": "string",
                  "name": "description",
                  "type": "string"
                },
                {
                  "internalType": "uint256",
                  "name": "studentId",
                  "type": "uint256"
                },
                {
                  "internalType": "uint256",
                  "name": "categoryId",
                  "type": "uint256"
                },
                {
                  "internalType": "uint256",
                  "name": "eventId",
                  "type": "uint256"
                },
                {
                  "internalType": "uint256",
                  "name": "voteCount",
                  "type": "uint256"
                },
                {
                  "internalType": "bool",
                  "name": "win",
                  "type": "bool"
                }
              ],
              "internalType": "struct VotingSystem.Candidate[]",
              "name": "candidates",
              "type": "tuple[]"
            },
            {
              "internalType": "uint256",
              "name": "candidateCount",
              "type": "uint256"
            },
            {
              "internalType": "uint256",
              "name": "status",
              "type": "uint256"
            }
          ],
          "internalType": "struct VotingSystem.Event[]",
          "name": "",
          "type": "tuple[]"
        }
      ],
      "stateMutability": "view",
      "type": "function",
      "constant": true
    },
    {
      "inputs": [
        {
          "internalType": "uint256",
          "name": "_categoryId",
          "type": "uint256"
        },
        {
          "internalType": "uint256",
          "name": "_eventId",
          "type": "uint256"
        }
      ],
      "name": "getEventById",
      "outputs": [
        {
          "components": [
            {
              "internalType": "uint256",
              "name": "eventId",
              "type": "uint256"
            },
            {
              "internalType": "string",
              "name": "eventName",
              "type": "string"
            },
            {
              "internalType": "uint256",
              "name": "categoryId",
              "type": "uint256"
            },
            {
              "components": [
                {
                  "internalType": "uint256",
                  "name": "id",
                  "type": "uint256"
                },
                {
                  "internalType": "string",
                  "name": "name",
                  "type": "string"
                },
                {
                  "internalType": "string",
                  "name": "description",
                  "type": "string"
                },
                {
                  "internalType": "uint256",
                  "name": "studentId",
                  "type": "uint256"
                },
                {
                  "internalType": "uint256",
                  "name": "categoryId",
                  "type": "uint256"
                },
                {
                  "internalType": "uint256",
                  "name": "eventId",
                  "type": "uint256"
                },
                {
                  "internalType": "uint256",
                  "name": "voteCount",
                  "type": "uint256"
                },
                {
                  "internalType": "bool",
                  "name": "win",
                  "type": "bool"
                }
              ],
              "internalType": "struct VotingSystem.Candidate[]",
              "name": "candidates",
              "type": "tuple[]"
            },
            {
              "internalType": "uint256",
              "name": "candidateCount",
              "type": "uint256"
            },
            {
              "internalType": "uint256",
              "name": "status",
              "type": "uint256"
            }
          ],
          "internalType": "struct VotingSystem.Event",
          "name": "",
          "type": "tuple"
        }
      ],
      "stateMutability": "view",
      "type": "function",
      "constant": true
    },
    {
      "inputs": [
        {
          "internalType": "uint256",
          "name": "_voterId",
          "type": "uint256"
        },
        {
          "internalType": "uint256",
          "name": "_candidateId",
          "type": "uint256"
        },
        {
          "internalType": "uint256",
          "name": "_categoryId",
          "type": "uint256"
        },
        {
          "internalType": "uint256",
          "name": "_eventId",
          "type": "uint256"
        }
      ],
      "name": "vote",
      "outputs": [],
      "stateMutability": "nonpayable",
      "type": "function"
    },
    {
      "inputs": [
        {
          "internalType": "uint256",
          "name": "_candidateId",
          "type": "uint256"
        }
      ],
      "name": "getCandidateVoteCount",
      "outputs": [
        {
          "internalType": "uint256",
          "name": "count",
          "type": "uint256"
        }
      ],
      "stateMutability": "view",
      "type": "function",
      "constant": true
    },
    {
      "inputs": [
        {
          "internalType": "uint256",
          "name": "_categoryId",
          "type": "uint256"
        },
        {
          "internalType": "uint256",
          "name": "_eventId",
          "type": "uint256"
        }
      ],
      "name": "getVoteEventCandidate",
      "outputs": [
        {
          "components": [
            {
              "internalType": "uint256",
              "name": "id",
              "type": "uint256"
            },
            {
              "internalType": "string",
              "name": "name",
              "type": "string"
            },
            {
              "internalType": "string",
              "name": "description",
              "type": "string"
            },
            {
              "internalType": "uint256",
              "name": "studentId",
              "type": "uint256"
            },
            {
              "internalType": "uint256",
              "name": "categoryId",
              "type": "uint256"
            },
            {
              "internalType": "uint256",
              "name": "eventId",
              "type": "uint256"
            },
            {
              "internalType": "uint256",
              "name": "voteCount",
              "type": "uint256"
            },
            {
              "internalType": "bool",
              "name": "win",
              "type": "bool"
            }
          ],
          "internalType": "struct VotingSystem.Candidate[]",
          "name": "",
          "type": "tuple[]"
        }
      ],
      "stateMutability": "view",
      "type": "function",
      "constant": true
    },
    {
      "inputs": [
        {
          "internalType": "uint256",
          "name": "_categoryId",
          "type": "uint256"
        },
        {
          "internalType": "uint256",
          "name": "_eventId",
          "type": "uint256"
        }
      ],
      "name": "whoIsTheWinner",
      "outputs": [
        {
          "components": [
            {
              "internalType": "uint256",
              "name": "id",
              "type": "uint256"
            },
            {
              "internalType": "string",
              "name": "name",
              "type": "string"
            },
            {
              "internalType": "string",
              "name": "description",
              "type": "string"
            },
            {
              "internalType": "uint256",
              "name": "studentId",
              "type": "uint256"
            },
            {
              "internalType": "uint256",
              "name": "categoryId",
              "type": "uint256"
            },
            {
              "internalType": "uint256",
              "name": "eventId",
              "type": "uint256"
            },
            {
              "internalType": "uint256",
              "name": "voteCount",
              "type": "uint256"
            },
            {
              "internalType": "bool",
              "name": "win",
              "type": "bool"
            }
          ],
          "internalType": "struct VotingSystem.Candidate",
          "name": "",
          "type": "tuple"
        }
      ],
      "stateMutability": "view",
      "type": "function",
      "constant": true
    }
  ],
  "bytecode": "0x608060405234801561001057600080fd5b50600080546001600160a01b0319163317905561416b806100326000396000f3fe608060405234801561001057600080fd5b50600436106101585760003560e01c8063748f55a8116100c3578063b315c5971161007c578063b315c59714610378578063b367887f146103a9578063bf03f677146103bc578063da58c7d9146103cf578063dfdffaf4146103f3578063ffdd108b1461040657600080fd5b8063748f55a8146102d25780638da5cb5b146102f25780638f2c28051461031d578063909f8502146103325780639e41a12f14610352578063a7e62d1b1461036557600080fd5b806350515a771161011557806350515a77146101fb5780635b4d727c1461020e5780635dc2b6501461022157806360e93f3c14610234578063642d20ad1461025457806368c9e388146102bf57600080fd5b80631002cdd41461015d5780632e0dcbf71461017b5780632e6997fe14610190578063400af02a146101a5578063401a52dd146101c55780634fb43250146101d8575b600080fd5b610165610419565b6040516101729190613996565b60405180910390f35b61018e610189366004613a9b565b6107d3565b005b6101986108fa565b6040516101729190613ad8565b6101b86101b3366004613b2d565b610a7e565b6040516101729190613b91565b6101656101d3366004613c19565b610b25565b6101eb6101e6366004613c32565b610e8a565b6040519015158152602001610172565b6101eb610209366004613c54565b610f36565b61019861021c366004613c32565b610ff5565b61018e61022f366004613c91565b6112ff565b610247610242366004613c19565b611458565b6040516101729190613dc2565b610295610262366004613c19565b60046020819052600091825260409091208054600182015460028301546003840154939094015491939092909160ff1685565b6040805195865260208601949094529284019190915260608301521515608082015260a001610172565b61018e6102cd366004613dd5565b611819565b6102e56102e0366004613c32565b611aea565b6040516101729190613e07565b600054610305906001600160a01b031681565b6040516001600160a01b039091168152602001610172565b610325611ef8565b6040516101729190613e1a565b610345610340366004613c32565b612352565b6040516101729190613e6f565b61018e610360366004613e82565b612770565b610198610373366004613c32565b612a1f565b61039b610386366004613c19565b60009081526003602052604090206006015490565b604051908152602001610172565b6101b86103b7366004613b2d565b612dad565b6101eb6103ca366004613f01565b61313b565b6103e26103dd366004613c19565b6131d1565b604051610172959493929190613f2d565b6101eb610401366004613f01565b613420565b61018e610414366004613c54565b6134a8565b6060600060085467ffffffffffffffff811115610438576104386139f8565b60405190808252806020026020018201604052801561047157816020015b61045e613704565b8152602001906001900390816104565790505b5090506000805b6006548110156107cb5760005b600160006104938483613fa2565b81526020810191909152604001600020600201548110156107b857600160006104bc8483613fa2565b815260200190815260200160002060020181815481106104de576104de613fba565b90600052602060002090600602016040518060c00160405290816000820154815260200160018201805461051190613fd0565b80601f016020809104026020016040519081016040528092919081815260200182805461053d90613fd0565b801561058a5780601f1061055f5761010080835404028352916020019161058a565b820191906000526020600020905b81548152906001019060200180831161056d57829003601f168201915b505050505081526020016002820154815260200160038201805480602002602001604051908101604052809291908181526020016000905b828210156107605783829060005260206000209060080201604051806101000160405290816000820154815260200160018201805461060090613fd0565b80601f016020809104026020016040519081016040528092919081815260200182805461062c90613fd0565b80156106795780601f1061064e57610100808354040283529160200191610679565b820191906000526020600020905b81548152906001019060200180831161065c57829003601f168201915b5050505050815260200160028201805461069290613fd0565b80601f01602080910402602001604051908101604052809291908181526020018280546106be90613fd0565b801561070b5780601f106106e05761010080835404028352916020019161070b565b820191906000526020600020905b8154815290600101906020018083116106ee57829003601f168201915b5050509183525050600382015460208083019190915260048301546040830152600583015460608301526006830154608083015260079092015460ff16151560a09091015290825260019290920191016105c2565b5050505081526020016004820154815260200160058201548152505084848151811061078e5761078e613fba565b60209081029190910101526107a4600184613fa2565b9250806107b081614004565b915050610485565b50806107c381614004565b915050610478565b509092915050565b60015b60065481116108765760016000828152602001908152602001600020600101604051610802919061401d565b60405180910390208280519060200120036108645760405162461bcd60e51b815260206004820152601760248201527f43617465676f727920616c72656164792065786973747300000000000000000060448201526064015b60405180910390fd5b8061086e81614004565b9150506107d6565b5060016006600082825461088a9190613fa2565b90915550506006546000908152600160208181526040909220835190926108b7928401919085019061373a565b506006548082556040517f5bae3f75753ef0a1c0ea0f6c51d7b43a4b8d116572b8b7b5cb771f9ad32d4ae5906108ee9085906140b8565b60405180910390a25050565b6060600060075467ffffffffffffffff811115610919576109196139f8565b60405190808252806020026020018201604052801561095257816020015b61093f6137be565b8152602001906001900390816109375790505b509050600060085467ffffffffffffffff811115610972576109726139f8565b6040519080825280602002602001820160405280156109ab57816020015b610998613704565b8152602001906001900390816109905790505b5090506109b6610419565b90506000805b600854811015610a755760005b8382815181106109db576109db613fba565b60200260200101516060015151811015610a6257838281518110610a0157610a01613fba565b6020026020010151606001518181518110610a1e57610a1e613fba565b6020026020010151858481518110610a3857610a38613fba565b6020908102919091010152610a4e600184613fa2565b925080610a5a81614004565b9150506109c9565b5080610a6d81614004565b9150506109bc565b50919392505050565b610ab06040518060a0016040528060008152602001606081526020016060815260200160608152602001606081525090565b6000610abc8484612dad565b8051909150600003610b1c5760405162461bcd60e51b8152602060048201526024808201527f596f757220656d61696c206f722070617373776f726420697320696e636f72726044820152636563742160e01b606482015260840161085b565b90505b92915050565b600081815260016020526040812060028101546060929067ffffffffffffffff811115610b5457610b546139f8565b604051908082528060200260200182016040528015610b8d57816020015b610b7a613704565b815260200190600190039081610b725790505b50905060005b6002830154811015610e8257826002018181548110610bb457610bb4613fba565b90600052602060002090600602016040518060c001604052908160008201548152602001600182018054610be790613fd0565b80601f0160208091040260200160405190810160405280929190818152602001828054610c1390613fd0565b8015610c605780601f10610c3557610100808354040283529160200191610c60565b820191906000526020600020905b815481529060010190602001808311610c4357829003601f168201915b505050505081526020016002820154815260200160038201805480602002602001604051908101604052809291908181526020016000905b82821015610e3657838290600052602060002090600802016040518061010001604052908160008201548152602001600182018054610cd690613fd0565b80601f0160208091040260200160405190810160405280929190818152602001828054610d0290613fd0565b8015610d4f5780601f10610d2457610100808354040283529160200191610d4f565b820191906000526020600020905b815481529060010190602001808311610d3257829003601f168201915b50505050508152602001600282018054610d6890613fd0565b80601f0160208091040260200160405190810160405280929190818152602001828054610d9490613fd0565b8015610de15780601f10610db657610100808354040283529160200191610de1565b820191906000526020600020905b815481529060010190602001808311610dc457829003601f168201915b5050509183525050600382015460208083019190915260048301546040830152600583015460608301526006830154608083015260079092015460ff16151560a0909101529082526001929092019101610c98565b50505050815260200160048201548152602001600582015481525050828281518110610e6457610e64613fba565b60200260200101819052508080610e7a90614004565b915050610b93565b509392505050565b6000828152600160205260408120548103610eb75760405162461bcd60e51b815260040161085b906140cb565b60005b600084815260016020526040902060020154811015610f2c576000848152600160205260409020600201805484919083908110610ef957610ef9613fba565b90600052602060002090600602016000015403610f1a576001915050610b1f565b80610f2481614004565b915050610eba565b5060009392505050565b6000828152600160205260408120548103610f635760405162461bcd60e51b815260040161085b906140cb565b60005b600084815260016020526040902060020154811015610f2c578280519060200120600160008681526020019081526020016000206002018281548110610fae57610fae613fba565b9060005260206000209060060201600101604051610fcc919061401d565b604051809103902003610fe3576001915050610b1f565b80610fed81614004565b915050610f66565b60008281526001602052604081206060915b60028201548110156112f7578382600201828154811061102957611029613fba565b906000526020600020906006020160000154036112e557600082600201828154811061105757611057613fba565b90600052602060002090600602016004015467ffffffffffffffff811115611081576110816139f8565b6040519080825280602002602001820160405280156110ba57816020015b6110a76137be565b81526020019060019003908161109f5790505b50905060005b8360020183815481106110d5576110d5613fba565b9060005260206000209060060201600301805490508110156112da5783600201838154811061110657611106613fba565b9060005260206000209060060201600301818154811061112857611128613fba565b9060005260206000209060080201604051806101000160405290816000820154815260200160018201805461115c90613fd0565b80601f016020809104026020016040519081016040528092919081815260200182805461118890613fd0565b80156111d55780601f106111aa576101008083540402835291602001916111d5565b820191906000526020600020905b8154815290600101906020018083116111b857829003601f168201915b505050505081526020016002820180546111ee90613fd0565b80601f016020809104026020016040519081016040528092919081815260200182805461121a90613fd0565b80156112675780601f1061123c57610100808354040283529160200191611267565b820191906000526020600020905b81548152906001019060200180831161124a57829003601f168201915b50505091835250506003820154602082015260048201546040820152600582015460608201526006820154608082015260079091015460ff16151560a09091015282518390839081106112bc576112bc613fba565b602002602001018190525080806112d290614004565b9150506110c0565b509250610b1f915050565b806112ef81614004565b915050611007565b505092915050565b60015b600a5481116113905760008181526005602052604090819020905161132a916001019061401d565b604051809103902085805190602001200361137e5760405162461bcd60e51b8152602060048201526014602482015273566f74657220616c72656164792065786973747360601b604482015260640161085b565b8061138881614004565b915050611302565b506001600a60008282546113a49190613fa2565b9091555050600a54600081815260056020908152604090912091825585516113d49160018401919088019061373a565b5083516113ea906002830190602087019061373a565b508251611400906003830190602086019061373a565b508151611416906004830190602085019061373a565b50600a547f56729c826fe77eec184059336ced13d9ef79d10126212c90a4d2b724391e14e28660405161144991906140b8565b60405180910390a25050505050565b61147c60405180606001604052806000815260200160608152602001606081525090565b600082815260016020818152604092839020835160608101909452805484529182018054918401916114ad90613fd0565b80601f01602080910402602001604051908101604052809291908181526020018280546114d990613fd0565b80156115265780601f106114fb57610100808354040283529160200191611526565b820191906000526020600020905b81548152906001019060200180831161150957829003601f168201915b5050505050815260200160028201805480602002602001604051908101604052809291908181526020016000905b8282101561180b57838290600052602060002090600602016040518060c00160405290816000820154815260200160018201805461159190613fd0565b80601f01602080910402602001604051908101604052809291908181526020018280546115bd90613fd0565b801561160a5780601f106115df5761010080835404028352916020019161160a565b820191906000526020600020905b8154815290600101906020018083116115ed57829003601f168201915b505050505081526020016002820154815260200160038201805480602002602001604051908101604052809291908181526020016000905b828210156117e05783829060005260206000209060080201604051806101000160405290816000820154815260200160018201805461168090613fd0565b80601f01602080910402602001604051908101604052809291908181526020018280546116ac90613fd0565b80156116f95780601f106116ce576101008083540402835291602001916116f9565b820191906000526020600020905b8154815290600101906020018083116116dc57829003601f168201915b5050505050815260200160028201805461171290613fd0565b80601f016020809104026020016040519081016040528092919081815260200182805461173e90613fd0565b801561178b5780601f106117605761010080835404028352916020019161178b565b820191906000526020600020905b81548152906001019060200180831161176e57829003601f168201915b5050509183525050600382015460208083019190915260048301546040830152600583015460608301526006830154608083015260079092015460ff16151560a0909101529082526001929092019101611642565b5050505081526020016004820154815260200160058201548152505081526020019060010190611554565b505050915250909392505050565b60008281526001602052604081205490036118765760405162461bcd60e51b815260206004820152601860248201527f43617465676f727920646f6573206e6f74206578697374730000000000000000604482015260640161085b565b6008546000036118c05760405162461bcd60e51b81526020600482015260156024820152744576656e7420646f6573206e6f742065786973747360581b604482015260640161085b565b6118cb82828561313b565b151560011461191c5760405162461bcd60e51b815260206004820152601a60248201527f43616e6469646174657320646f6573206e6f7420657869737473000000000000604482015260640161085b565b60015b60095481116119e75760008181526004602052604090206001015485148015611958575060008181526004602052604090206002015483145b8015611974575060008181526004602052604090206003015482145b156119d5576000818152600460208190526040909120015460ff16156119d05760405162461bcd60e51b8152602060048201526011602482015270165bdd48185b1c9958591e481d9bdd1959607a1b604482015260640161085b565b6119e7565b806119df81614004565b91505061191f565b506001600960008282546119fb9190613fa2565b90915550506040805160a081018252600954808252602080830188815283850187815260608501878152600160808701818152600096875260049586905297909520865181559251948301949094555160028201559151600383015592519201805460ff191692151592909217909155611a74846135ca565b611a7f8383866135f4565b6040805160208101859052808201849052815180820383018152606090910191829052908590611ab0908390614102565b6040519081900381209088907fdd0629bf37ec3179d8b6727c2eb4d0f297cf08a85b960c1520666db55feb5b3990600090a4505050505050565b611af26137be565b600083815260016020908152604080832060020180548251818502810185019093528083529192909190849084015b82821015611dd857838290600052602060002090600602016040518060c001604052908160008201548152602001600182018054611b5e90613fd0565b80601f0160208091040260200160405190810160405280929190818152602001828054611b8a90613fd0565b8015611bd75780601f10611bac57610100808354040283529160200191611bd7565b820191906000526020600020905b815481529060010190602001808311611bba57829003601f168201915b505050505081526020016002820154815260200160038201805480602002602001604051908101604052809291908181526020016000905b82821015611dad57838290600052602060002090600802016040518061010001604052908160008201548152602001600182018054611c4d90613fd0565b80601f0160208091040260200160405190810160405280929190818152602001828054611c7990613fd0565b8015611cc65780601f10611c9b57610100808354040283529160200191611cc6565b820191906000526020600020905b815481529060010190602001808311611ca957829003601f168201915b50505050508152602001600282018054611cdf90613fd0565b80601f0160208091040260200160405190810160405280929190818152602001828054611d0b90613fd0565b8015611d585780601f10611d2d57610100808354040283529160200191611d58565b820191906000526020600020905b815481529060010190602001808311611d3b57829003601f168201915b5050509183525050600382015460208083019190915260048301546040830152600583015460608301526006830154608083015260079092015460ff16151560a0909101529082526001929092019101611c0f565b5050505081526020016004820154815260200160058201548152505081526020019060010190611b21565b505050509050606060005b8251811015611e435784838281518110611dff57611dff613fba565b60200260200101516000015103611e3157828181518110611e2257611e22613fba565b60200260200101516060015191505b80611e3b81614004565b915050611de3565b50600081600081518110611e5957611e59613fba565b6020026020010151905060005b60018351611e74919061411e565b811015611ee75782611e87826001613fa2565b81518110611e9757611e97613fba565b602002602001015160c001518260c001511015611ed55782611eba826001613fa2565b81518110611eca57611eca613fba565b602002602001015191505b80611edf81614004565b915050611e66565b50600160e082015295945050505050565b6060600060065467ffffffffffffffff811115611f1757611f176139f8565b604051908082528060200260200182016040528015611f6c57816020015b611f5960405180606001604052806000815260200160608152602001606081525090565b815260200190600190039081611f355790505b50905060015b600654811161234c5760008181526001602081815260409283902083516060810190945280548452918201805491840191611fac90613fd0565b80601f0160208091040260200160405190810160405280929190818152602001828054611fd890613fd0565b80156120255780601f10611ffa57610100808354040283529160200191612025565b820191906000526020600020905b81548152906001019060200180831161200857829003601f168201915b5050505050815260200160028201805480602002602001604051908101604052809291908181526020016000905b8282101561230a57838290600052602060002090600602016040518060c00160405290816000820154815260200160018201805461209090613fd0565b80601f01602080910402602001604051908101604052809291908181526020018280546120bc90613fd0565b80156121095780601f106120de57610100808354040283529160200191612109565b820191906000526020600020905b8154815290600101906020018083116120ec57829003601f168201915b505050505081526020016002820154815260200160038201805480602002602001604051908101604052809291908181526020016000905b828210156122df5783829060005260206000209060080201604051806101000160405290816000820154815260200160018201805461217f90613fd0565b80601f01602080910402602001604051908101604052809291908181526020018280546121ab90613fd0565b80156121f85780601f106121cd576101008083540402835291602001916121f8565b820191906000526020600020905b8154815290600101906020018083116121db57829003601f168201915b5050505050815260200160028201805461221190613fd0565b80601f016020809104026020016040519081016040528092919081815260200182805461223d90613fd0565b801561228a5780601f1061225f5761010080835404028352916020019161228a565b820191906000526020600020905b81548152906001019060200180831161226d57829003601f168201915b5050509183525050600382015460208083019190915260048301546040830152600583015460608301526006830154608083015260079092015460ff16151560a0909101529082526001929092019101612141565b5050505081526020016004820154815260200160058201548152505081526020019060010190612053565b50505091525083905061231e60018461411e565b8151811061232e5761232e613fba565b6020026020010181905250808061234490614004565b915050611f72565b50919050565b61235a613704565b600083815260016020818152604080842081516060810190925280548252928301805491939284019161238c90613fd0565b80601f01602080910402602001604051908101604052809291908181526020018280546123b890613fd0565b80156124055780601f106123da57610100808354040283529160200191612405565b820191906000526020600020905b8154815290600101906020018083116123e857829003601f168201915b5050505050815260200160028201805480602002602001604051908101604052809291908181526020016000905b828210156126ea57838290600052602060002090600602016040518060c00160405290816000820154815260200160018201805461247090613fd0565b80601f016020809104026020016040519081016040528092919081815260200182805461249c90613fd0565b80156124e95780601f106124be576101008083540402835291602001916124e9565b820191906000526020600020905b8154815290600101906020018083116124cc57829003601f168201915b505050505081526020016002820154815260200160038201805480602002602001604051908101604052809291908181526020016000905b828210156126bf5783829060005260206000209060080201604051806101000160405290816000820154815260200160018201805461255f90613fd0565b80601f016020809104026020016040519081016040528092919081815260200182805461258b90613fd0565b80156125d85780601f106125ad576101008083540402835291602001916125d8565b820191906000526020600020905b8154815290600101906020018083116125bb57829003601f168201915b505050505081526020016002820180546125f190613fd0565b80601f016020809104026020016040519081016040528092919081815260200182805461261d90613fd0565b801561266a5780601f1061263f5761010080835404028352916020019161266a565b820191906000526020600020905b81548152906001019060200180831161264d57829003601f168201915b5050509183525050600382015460208083019190915260048301546040830152600583015460608301526006830154608083015260079092015460ff16151560a0909101529082526001929092019101612521565b5050505081526020016004820154815260200160058201548152505081526020019060010190612433565b505050508152505090506126fc613704565b60005b82604001515181101561276757848360400151828151811061272357612723613fba565b60200260200101516000015103612755578260400151818151811061274a5761274a613fba565b602002602001015191505b8061275f81614004565b9150506126ff565b50949350505050565b60008581526001602052604081205490036127c75760405162461bcd60e51b815260206004820152601760248201527643617465676f727920686173206e6f742065786973747360481b604482015260640161085b565b6127d18585610e8a565b15156001146128195760405162461bcd60e51b81526020600482015260146024820152734576656e7420686173206e6f742065786973747360601b604482015260640161085b565b612824858583613420565b156128655760405162461bcd60e51b815260206004820152601160248201527010d85b991a59185d1948195e1a5cdd1959607a1b604482015260640161085b565b6001600760008282546128789190613fa2565b9091555050604080516101008101825260075481526020808201869052818301859052606082018490526080820188905260a08201879052600060c0830181905260e08301819052888152600190915291822090915b6002820154811015612a1557868260020182815481106128f0576128f0613fba565b90600052602060002090600602016000015403612a035781600201818154811061291c5761291c613fba565b6000918252602080832060036006909302019190910180546001818101835591845292829020865160089094020192835585820151805187949361296493850192019061373a565b506040820151805161298091600284019160209091019061373a565b50606082015160038201556080820151600482015560a0820151600582015560c0820151600682015560e0909101516007909101805460ff191691151591909117905560028201805460019190839081106129dd576129dd613fba565b906000526020600020906006020160040160008282546129fd9190613fa2565b90915550505b80612a0d81614004565b9150506128ce565b5050505050505050565b6000828152600160209081526040808320600201805482518185028101850190935280835260609493849084015b82821015612d0457838290600052602060002090600602016040518060c001604052908160008201548152602001600182018054612a8a90613fd0565b80601f0160208091040260200160405190810160405280929190818152602001828054612ab690613fd0565b8015612b035780601f10612ad857610100808354040283529160200191612b03565b820191906000526020600020905b815481529060010190602001808311612ae657829003601f168201915b505050505081526020016002820154815260200160038201805480602002602001604051908101604052809291908181526020016000905b82821015612cd957838290600052602060002090600802016040518061010001604052908160008201548152602001600182018054612b7990613fd0565b80601f0160208091040260200160405190810160405280929190818152602001828054612ba590613fd0565b8015612bf25780601f10612bc757610100808354040283529160200191612bf2565b820191906000526020600020905b815481529060010190602001808311612bd557829003601f168201915b50505050508152602001600282018054612c0b90613fd0565b80601f0160208091040260200160405190810160405280929190818152602001828054612c3790613fd0565b8015612c845780601f10612c5957610100808354040283529160200191612c84565b820191906000526020600020905b815481529060010190602001808311612c6757829003601f168201915b5050509183525050600382015460208083019190915260048301546040830152600583015460608301526006830154608083015260079092015460ff16151560a0909101529082526001929092019101612b3b565b5050505081526020016004820154815260200160058201548152505081526020019060010190612a4d565b50505050905060005b8151811015612d735783828281518110612d2957612d29613fba565b60200260200101516000015103612d6157818181518110612d4c57612d4c613fba565b60200260200101516060015192505050610b1f565b80612d6b81614004565b915050612d0d565b506040805160008082526020820190925290612767565b612d926137be565b815260200190600190039081612d8a57905050949350505050565b612ddf6040518060a0016040528060008152602001606081526020016060815260200160608152602001606081525090565b60015b600a5481116130e257600081815260056020526040908190209051612e0a916002019061401d565b60405180910390208480519060200120148015612e535750600081815260056020526040908190209051612e41916003019061401d565b60405180910390208380519060200120145b156130d057600560008281526020019081526020016000206040518060a001604052908160008201548152602001600182018054612e9090613fd0565b80601f0160208091040260200160405190810160405280929190818152602001828054612ebc90613fd0565b8015612f095780601f10612ede57610100808354040283529160200191612f09565b820191906000526020600020905b815481529060010190602001808311612eec57829003601f168201915b50505050508152602001600282018054612f2290613fd0565b80601f0160208091040260200160405190810160405280929190818152602001828054612f4e90613fd0565b8015612f9b5780601f10612f7057610100808354040283529160200191612f9b565b820191906000526020600020905b815481529060010190602001808311612f7e57829003601f168201915b50505050508152602001600382018054612fb490613fd0565b80601f0160208091040260200160405190810160405280929190818152602001828054612fe090613fd0565b801561302d5780601f106130025761010080835404028352916020019161302d565b820191906000526020600020905b81548152906001019060200180831161301057829003601f168201915b5050505050815260200160048201805461304690613fd0565b80601f016020809104026020016040519081016040528092919081815260200182805461307290613fd0565b80156130bf5780601f10613094576101008083540402835291602001916130bf565b820191906000526020600020905b8154815290600101906020018083116130a257829003601f168201915b505050505081525050915050610b1f565b806130da81614004565b915050612de2565b50506040805160a081018252600080825282516020818101855282825280840191909152835180820185528281528385015283518082018552828152606084015283519081019093528252608081019190915292915050565b60008381526001602052604081205481036131685760405162461bcd60e51b815260040161085b906140cb565b60006131748585610ff5565b905060005b81518110156131c3578382828151811061319557613195613fba565b602002602001015160000151036131b1576001925050506131ca565b806131bb81614004565b915050613179565b5060009150505b9392505050565b600560205260009081526040902080546001820180549192916131f390613fd0565b80601f016020809104026020016040519081016040528092919081815260200182805461321f90613fd0565b801561326c5780601f106132415761010080835404028352916020019161326c565b820191906000526020600020905b81548152906001019060200180831161324f57829003601f168201915b50505050509080600201805461328190613fd0565b80601f01602080910402602001604051908101604052809291908181526020018280546132ad90613fd0565b80156132fa5780601f106132cf576101008083540402835291602001916132fa565b820191906000526020600020905b8154815290600101906020018083116132dd57829003601f168201915b50505050509080600301805461330f90613fd0565b80601f016020809104026020016040519081016040528092919081815260200182805461333b90613fd0565b80156133885780601f1061335d57610100808354040283529160200191613388565b820191906000526020600020905b81548152906001019060200180831161336b57829003601f168201915b50505050509080600401805461339d90613fd0565b80601f01602080910402602001604051908101604052809291908181526020018280546133c990613fd0565b80156134165780601f106133eb57610100808354040283529160200191613416565b820191906000526020600020905b8154815290600101906020018083116133f957829003601f168201915b5050505050905085565b600083815260016020526040812054810361344d5760405162461bcd60e51b815260040161085b906140cb565b60006134598585610ff5565b905060005b81518110156131c3578382828151811061347a5761347a613fba565b60200260200101516060015103613496576001925050506131ca565b806134a081614004565b91505061345e565b60008281526001602052604081205490036134ff5760405162461bcd60e51b815260206004820152601760248201527643617465676f727920686173206e6f742065786973747360481b604482015260640161085b565b6135098282610f36565b1561354d5760405162461bcd60e51b81526020600482015260146024820152734576656e7420616c72656164792065786973747360601b604482015260640161085b565b6000828152600160208190526040822060088054919392918390613572908490613fa2565b91829055506002840180546001818101835560009283526020928390206006909202909101838155875193955093506135b1929084019187019061373a565b5060028101949094555050600160059092019190915550565b60008181526003602052604081206006018054600192906135ec908490613fa2565b909155505050565b6000838152600160205260408120600201905b81548110156136fd578382828154811061362357613623613fba565b906000526020600020906006020160000154036136eb57600082828154811061364e5761364e613fba565b9060005260206000209060060201600301905060005b81548110156136e8578482828154811061368057613680613fba565b906000526020600020906008020160000154036136d65760018282815481106136ab576136ab613fba565b906000526020600020906008020160060160008282546136cb9190613fa2565b909155506136e89050565b806136e081614004565b915050613664565b50505b806136f581614004565b915050613607565b5050505050565b6040518060c001604052806000815260200160608152602001600081526020016060815260200160008152602001600081525090565b82805461374690613fd0565b90600052602060002090601f01602090048101928261376857600085556137ae565b82601f1061378157805160ff19168380011785556137ae565b828001600101855582156137ae579182015b828111156137ae578251825591602001919060010190613793565b506137ba929150613805565b5090565b604051806101000160405280600081526020016060815260200160608152602001600081526020016000815260200160008152602001600081526020016000151581525090565b5b808211156137ba5760008155600101613806565b60005b8381101561383557818101518382015260200161381d565b83811115613844576000848401525b50505050565b6000815180845261386281602086016020860161381a565b601f01601f19169290920160200192915050565b60006101008251845260208301518160208601526138968286018261384a565b915050604083015184820360408601526138b0828261384a565b915050606083015160608501526080830151608085015260a083015160a085015260c083015160c085015260e0830151151560e08501528091505092915050565b80518252600060208083015160c08286015261391060c086018261384a565b905060408401516040860152606084015185820360608701528181518084528484019150848160051b850101858401935060005b8281101561397257601f19868303018452613960828651613876565b94870194938701939150600101613944565b50608088015160808a015260a088015160a08a015280965050505050505092915050565b6000602080830181845280855180835260408601915060408160051b870101925083870160005b828110156139eb57603f198886030184526139d98583516138f1565b945092850192908501906001016139bd565b5092979650505050505050565b634e487b7160e01b600052604160045260246000fd5b600082601f830112613a1f57600080fd5b813567ffffffffffffffff80821115613a3a57613a3a6139f8565b604051601f8301601f19908116603f01168101908282118183101715613a6257613a626139f8565b81604052838152866020858801011115613a7b57600080fd5b836020870160208301376000602085830101528094505050505092915050565b600060208284031215613aad57600080fd5b813567ffffffffffffffff811115613ac457600080fd5b613ad084828501613a0e565b949350505050565b6000602080830181845280855180835260408601915060408160051b870101925083870160005b828110156139eb57603f19888603018452613b1b858351613876565b94509285019290850190600101613aff565b60008060408385031215613b4057600080fd5b823567ffffffffffffffff80821115613b5857600080fd5b613b6486838701613a0e565b93506020850135915080821115613b7a57600080fd5b50613b8785828601613a0e565b9150509250929050565b60208152815160208201526000602083015160a06040840152613bb760c084018261384a565b90506040840151601f1980858403016060860152613bd5838361384a565b92506060860151915080858403016080860152613bf2838361384a565b925060808601519150808584030160a086015250613c10828261384a565b95945050505050565b600060208284031215613c2b57600080fd5b5035919050565b60008060408385031215613c4557600080fd5b50508035926020909101359150565b60008060408385031215613c6757600080fd5b82359150602083013567ffffffffffffffff811115613c8557600080fd5b613b8785828601613a0e565b60008060008060808587031215613ca757600080fd5b843567ffffffffffffffff80821115613cbf57600080fd5b613ccb88838901613a0e565b95506020870135915080821115613ce157600080fd5b613ced88838901613a0e565b94506040870135915080821115613d0357600080fd5b613d0f88838901613a0e565b93506060870135915080821115613d2557600080fd5b50613d3287828801613a0e565b91505092959194509250565b805182526000602080830151606082860152613d5d606086018261384a565b9050604084015185820360408701528181518084528484019150848160051b850101858401935060005b82811015613db557601f19868303018452613da38286516138f1565b94870194938701939150600101613d87565b5098975050505050505050565b6020815260006131ca6020830184613d3e565b60008060008060808587031215613deb57600080fd5b5050823594602084013594506040840135936060013592509050565b6020815260006131ca6020830184613876565b6000602080830181845280855180835260408601915060408160051b870101925083870160005b828110156139eb57603f19888603018452613e5d858351613d3e565b94509285019290850190600101613e41565b6020815260006131ca60208301846138f1565b600080600080600060a08688031215613e9a57600080fd5b8535945060208601359350604086013567ffffffffffffffff80821115613ec057600080fd5b613ecc89838a01613a0e565b94506060880135915080821115613ee257600080fd5b50613eef88828901613a0e565b95989497509295608001359392505050565b600080600060608486031215613f1657600080fd5b505081359360208301359350604090920135919050565b85815260a060208201526000613f4660a083018761384a565b8281036040840152613f58818761384a565b90508281036060840152613f6c818661384a565b90508281036080840152613f80818561384a565b98975050505050505050565b634e487b7160e01b600052601160045260246000fd5b60008219821115613fb557613fb5613f8c565b500190565b634e487b7160e01b600052603260045260246000fd5b600181811c90821680613fe457607f821691505b60208210810361234c57634e487b7160e01b600052602260045260246000fd5b60006001820161401657614016613f8c565b5060010190565b600080835481600182811c91508083168061403957607f831692505b6020808410820361405857634e487b7160e01b86526022600452602486fd5b81801561406c576001811461407d576140aa565b60ff198616895284890196506140aa565b60008a81526020902060005b868110156140a25781548b820152908501908301614089565b505084890196505b509498975050505050505050565b6020815260006131ca602083018461384a565b60208082526017908201527f43617465676f727920646f6573206e6f74206578697374000000000000000000604082015260600190565b6000825161411481846020870161381a565b9190910192915050565b60008282101561413057614130613f8c565b50039056fea26469706673582212200f0a9b8a596f9d384de76e12cb2b99b5d06e35b46a44f09e0f09ba298767e77e64736f6c634300080d0033",
  "immutableReferences": {},
  "source": "// SPDX-License-Identifier: MIT\npragma solidity >=0.4.22 <0.9.0;\n\ncontract VotingSystem {\n    address public owner;\n    struct Voter {\n        uint256 id;\n        string key;\n        string email;\n        string password;\n        string role;\n    }\n\n    struct Event {\n        uint256 eventId;\n        string eventName;\n        uint256 categoryId;\n        Candidate[] candidates;\n        uint256 candidateCount;\n        uint256 status; // 1: Upcoming, 2: In Progress, 3: Completed, 4 Cancel\n    }\n\n    struct Category {\n        uint256 categoryId;\n        string categoryName;\n        Event[] events; //category has many event\n    }\n\n    struct Candidate {\n        uint256 id;\n        string name;\n        string description;\n        uint256 studentId;\n        uint256 categoryId;\n        uint256 eventId;\n        uint256 voteCount;\n        bool win;\n    }\n\n    struct voteEventStruct {\n        uint256 id;\n        uint256 voterId;\n        uint256 categoryId;\n        uint256 eventId;\n        bool voted;\n    }\n\n    event CategoryAdded(uint256 indexed categoryId, string categoryName);\n    event VoterAdded(uint256 indexed voterId, string voter_key);\n    event EventAdded(uint256 indexed eventId, string eventName);\n    event CandidateAdded(uint256 indexed eventId, string eventName);\n    event VoteEvent(\n        uint256 indexed voterId,\n        string indexed categoryEvent,\n        uint256 indexed candidate\n    );\n\n    mapping(uint256 => Category) categories;\n    mapping(uint256 => Event) events;\n    mapping(uint256 => Candidate) candidates;\n    mapping(uint256 => voteEventStruct) public voteEvents;\n    mapping(uint256 => Voter) public voters;\n\n    uint256 categoryCount;\n    uint256 candidateCount;\n    uint256 eventCount;\n    uint256 voteEventCount;\n    uint256 voterCount;\n\n    constructor() {\n        owner = msg.sender;\n    }\n\n    function addVoter(\n        string memory _key,\n        string memory _email,\n        string memory _password,\n        string memory _role\n    ) public {\n        for (uint256 i = 1; i <= voterCount; i++) {\n            require(\n                keccak256(bytes(_key)) != keccak256(bytes(voters[i].key)),\n                \"Voter already exists\"\n            );\n        }\n\n        // total category plus 1, use it as the category's id\n        voterCount += 1;\n\n        // add the category details in the category list\n        Voter storage voter = voters[voterCount];\n        voter.id = voterCount;\n        voter.key = _key;\n        voter.email = _email;\n        voter.password = _password;\n        voter.role = _role;\n\n        // emit the category added event\n        emit VoterAdded(voterCount, _key);\n    }\n\n    function loginVoter(string memory _email, string memory _password)\n        public\n        view\n        returns (Voter memory)\n    {\n        Voter memory voterFound = getVoter(_email,_password);\n        require(voterFound.id !=0, \"Your email or password is incorrect!\");\n\n       return voterFound;\n    }\n\n    function getVoter(string memory _email, string memory _password)\n        public\n        view\n        returns (Voter memory)\n    {\n        for (uint256 i = 1; i <= voterCount; i++) {\n           if((keccak256(bytes(_email)) ==\n                    keccak256(bytes(voters[i].email)) &&\n                    keccak256(bytes(_password)) ==\n                    keccak256(bytes(voters[i].password)))\n            ){\n                return voters[i];\n            }\n        }\n\n        // Event not found in the specified category\n        return Voter(0, \"\", \"\",\"\",\"\");\n    }\n\n    function addCategory(string memory _categoryName) public {\n        // check if the category is exist\n        for (uint256 i = 1; i <= categoryCount; i++) {\n            require(\n                keccak256(bytes(_categoryName)) !=\n                    keccak256(bytes(categories[i].categoryName)),\n                \"Category already exists\"\n            );\n        }\n\n        // total category plus 1, use it as the category's id\n        categoryCount += 1;\n\n        // add the category details in the category list\n        Category storage category = categories[categoryCount];\n        category.categoryName = _categoryName;\n        category.categoryId = categoryCount;\n\n        // emit the category added event\n        emit CategoryAdded(categoryCount, _categoryName);\n    }\n\n    function addEvent(uint256 _categoryId, string memory _eventName) public {\n        // check if the category has exists\n        require(\n            categories[_categoryId].categoryId != 0,\n            \"Category has not exists\"\n        );\n\n        require(\n            isEventExists(_categoryId, _eventName) == false,\n            \"Event already exists\"\n        );\n\n        // find out the category in list by using the paramerter category name\n        Category storage category = categories[_categoryId];\n\n        // add the event in the category list\n        uint256 eventId = eventCount += 1;\n\n        Event storage newEvent = category.events.push();\n        newEvent.eventId = eventId;\n        newEvent.eventName = _eventName;\n        newEvent.categoryId = _categoryId;\n        newEvent.status = 1;\n\n        // // Add candidates to the event\n        // for (uint256 i = 0; i < _candidateNames.length; i++) {\n        //     string memory candidateName = _candidateNames[i];\n        //     candidateCount += 1;\n        //     // Create a new candidate\n        //     Candidate memory newCandidate = Candidate({\n        //         id: candidateCount,\n        //         name: candidateName,\n        //         CategoryId: _categoryId,\n        //         eventName: _eventName,\n        //         voteCount: 0\n        //     });\n        //     // Push the new candidate to the candidates array\n        //     candidates[candidateCount] = newCandidate;\n        //     listEvent.candidates.push(newCandidate);\n        //     newEvent.candidates.push(newCandidate);\n        // }\n    }\n\n    function isEventExists(uint256 _categoryId, string memory _eventName)\n        public\n        view\n        returns (bool)\n    {\n        // Check if the category exists\n        require(\n            categories[_categoryId].categoryId != 0,\n            \"Category does not exist\"\n        );\n\n        // Loop through the events in the specified category\n        for (uint256 i = 0; i < categories[_categoryId].events.length; i++) {\n            if (\n                keccak256(bytes(categories[_categoryId].events[i].eventName)) ==\n                keccak256(bytes(_eventName))\n            ) {\n                // Event found\n                return true;\n            }\n        }\n\n        // Event not found in the specified category\n        return false;\n    }\n\n    function addCandidateToEvent(\n        uint256 _categoryId,\n        uint256 _eventId,\n        string memory _candidateName,\n        string memory _description,\n        uint256 _studentId\n    ) public {\n        require(\n            categories[_categoryId].categoryId != 0,\n            \"Category has not exists\"\n        );\n\n        require(\n            isEventExists(_categoryId, _eventId) == true,\n            \"Event has not exists\"\n        );\n\n        require(\n            isCandidateExistsInEvent(_categoryId, _eventId, _studentId) ==\n                false,\n            \"Candidate existed\"\n        );\n\n        candidateCount += 1;\n\n        // Create a new candidate\n        Candidate memory newCandidate = Candidate({\n            id: candidateCount,\n            name: _candidateName,\n            studentId: _studentId,\n            categoryId: _categoryId,\n            eventId: _eventId,\n            description: _description,\n            win: false,\n            voteCount: 0\n        });\n\n        // find the certain category\n        Category storage category = categories[_categoryId];\n        // find the certain event in certain category\n        for (uint256 i = 0; i < category.events.length; i++) {\n            if (category.events[i].eventId == _eventId) {\n                category.events[i].candidates.push(newCandidate);\n                category.events[i].candidateCount += 1;\n            }\n        }\n    }\n\n    function isCandidateExistsInEvent(\n        uint256 _categoryId,\n        uint256 _eventId,\n        uint256 _studentId\n    ) public view returns (bool) {\n        // Check if the category exists\n        require(\n            categories[_categoryId].categoryId != 0,\n            \"Category does not exist\"\n        );\n\n        Candidate[] memory candidatesFound = getAllCandidatesInEvent(\n            _categoryId,\n            _eventId\n        );\n\n        // Loop through the events in the specified category\n\n        for (uint256 i = 0; i < candidatesFound.length; i++) {\n            if (candidatesFound[i].studentId == _studentId) {\n                return true;\n            }\n        }\n\n        // Event not found in the specified category\n        return false;\n    }\n\n    function isCandidateExistsInEventById(\n        uint256 _categoryId,\n        uint256 _eventId,\n        uint256 _candidateId\n    ) public view returns (bool) {\n        // Check if the category exists\n        require(\n            categories[_categoryId].categoryId != 0,\n            \"Category does not exist\"\n        );\n\n        Candidate[] memory candidatesFound = getAllCandidatesInEvent(\n            _categoryId,\n            _eventId\n        );\n\n        // Loop through the events in the specified category\n\n        for (uint256 i = 0; i < candidatesFound.length; i++) {\n            if (candidatesFound[i].id == _candidateId) {\n                return true;\n            }\n        }\n\n        // Event not found in the specified category\n        return false;\n    }\n\n    function isEventExists(uint256 _categoryId, uint256 _eventId)\n        public\n        view\n        returns (bool)\n    {\n        // Check if the category exists\n        require(\n            categories[_categoryId].categoryId != 0,\n            \"Category does not exist\"\n        );\n\n        // Loop through the events in the specified category\n        for (uint256 i = 0; i < categories[_categoryId].events.length; i++) {\n            if (categories[_categoryId].events[i].eventId == _eventId) {\n                // Event found\n                return true;\n            }\n        }\n\n        // Event not found in the specified category\n        return false;\n    }\n\n    function getAllCategoryEvent(uint256 _categoryId)\n        public\n        view\n        returns (Event[] memory foundEvent)\n    {\n        // find the certain category\n        Category storage category = categories[_categoryId];\n\n        // declare an array variable for storing events\n        Event[] memory eventsFound = new Event[](category.events.length);\n\n        // get all the event name by searching the event in list\n        for (uint256 i = 0; i < category.events.length; i++) {\n            eventsFound[i] = category.events[i];\n        }\n\n        return (eventsFound);\n    }\n\n    function getAllCandidatesInEvent(uint256 _categoryId, uint256 _eventId)\n        public\n        view\n        returns (Candidate[] memory foundCandidates)\n    {\n        // find the certain category\n        Category storage category = categories[_categoryId];\n        // find the certain event in certain category\n        for (uint256 i = 0; i < category.events.length; i++) {\n            if (category.events[i].eventId == _eventId) {\n                Candidate[] memory candidatesFound = new Candidate[](\n                    category.events[i].candidateCount\n                );\n\n                for (\n                    uint256 j = 0;\n                    j < category.events[i].candidates.length;\n                    j++\n                ) {\n                    candidatesFound[j] = category.events[i].candidates[j];\n                }\n                return (candidatesFound);\n            }\n        }\n    }\n\n    function getAllCandidates() public view returns (Candidate[] memory) {\n        Candidate[] memory candidatesFound = new Candidate[](candidateCount);\n        Event[] memory eventFound = new Event[](eventCount);\n\n        // get all the events\n        eventFound = getAllEvent();\n        uint256 count = 0;\n        // find the candidates inside all the event\n        for (uint256 i = 0; i < eventCount; i++) {\n            for (uint256 j = 0; j < eventFound[i].candidates.length; j++) {\n                candidatesFound[count] = eventFound[i].candidates[j];\n                count += 1;\n            }\n        }\n\n        return candidatesFound;\n    }\n\n    function getAllCategory() public view returns (Category[] memory) {\n        //Candidate[] memory candidatesFound = new Candidate[](candidateCount);\n        Category[] memory categoriesFound = new Category[](categoryCount);\n        // Iterate through all stored structs\n        for (uint256 i = 1; i <= categoryCount; i++) {\n            categoriesFound[i - 1] = categories[i];\n        }\n\n        return categoriesFound;\n    }\n\n    function getCategoryById(uint256 _categoryId)\n        public\n        view\n        returns (Category memory)\n    {\n        return categories[_categoryId];\n    }\n\n    function getAllEvent() public view returns (Event[] memory) {\n        // Initialize the array with the correct size\n        Event[] memory eventFound = new Event[](eventCount);\n        uint256 count = 0;\n\n        // Iterate through all categories and events\n        for (uint256 i = 0; i < categoryCount; i++) {\n            for (uint256 j = 0; j < categories[i + 1].events.length; j++) {\n                eventFound[count] = categories[i + 1].events[j];\n                count += 1;\n            }\n        }\n\n        return eventFound;\n    }\n\n    function getEventById(uint256 _categoryId, uint256 _eventId)\n        public\n        view\n        returns (Event memory)\n    {\n        Category memory categoriesFound = categories[_categoryId];\n        Event memory eventFound;\n        // Iterate through all stored structs\n        for (uint256 i = 0; i < categoriesFound.events.length; i++) {\n            if (categoriesFound.events[i].eventId == _eventId) {\n                eventFound = categoriesFound.events[i];\n            }\n        }\n\n        return eventFound;\n    }\n\n    function vote(\n        uint256 _voterId,\n        uint256 _candidateId,\n        uint256 _categoryId,\n        uint256 _eventId\n    ) external {\n        require(\n            categories[_categoryId].categoryId != 0,\n            \"Category does not exists\"\n        );\n\n        require(eventCount != 0, \"Event does not exists\");\n\n        // for (uint256 i = 1; i <= categories[_categoryId].events.length; i++) {\n        //     require(categories[_categoryId].events[i-0].eventId == _eventId, \"noobbbbb\");\n        // }\n\n        require(\n            isCandidateExistsInEventById(_categoryId, _eventId, _candidateId) ==\n                true,\n            \"Candidates does not exists\"\n        );\n\n        // check if has voted\n        for (uint256 i = 1; i <= voteEventCount; i++) {\n            if (\n                _voterId == voteEvents[i].voterId &&\n                _categoryId == voteEvents[i].categoryId &&\n                _eventId == voteEvents[i].eventId\n            ) {\n                require(!voteEvents[i].voted, \"You already voted\");\n                break;\n            }\n        }\n\n        // add count on the candidate\n        voteEventCount += 1;\n\n        // Create a new voteEventStruct\n        voteEventStruct memory newVoteEvent = voteEventStruct({\n            id: voteEventCount,\n            voterId: _voterId,\n            categoryId: _categoryId,\n            eventId: _eventId,\n            voted: true\n        });\n\n        voteEvents[voteEventCount] = newVoteEvent;\n\n        // add the vote count of the chosen candidate\n        addVoteCount(_candidateId);\n        addVoteCountIn(_categoryId, _eventId, _candidateId);\n\n        string memory concatenatedValues = string(\n            abi.encodePacked(_categoryId, _eventId)\n        );\n\n        emit VoteEvent(_voterId, concatenatedValues, _candidateId);\n    }\n\n    function addVoteCount(uint256 _candidateId) internal {\n        candidates[_candidateId].voteCount += 1;\n    }\n\n    function addVoteCountIn(\n        uint256 _categoryId,\n        uint256 _eventId,\n        uint256 _candidateId\n    ) internal {\n        // get the events inside the categories\n        Event[] storage eventsFound = categories[_categoryId].events;\n\n        // find the event with param\n        for (uint256 i = 0; i < eventsFound.length; i++) {\n            if (eventsFound[i].eventId == _eventId) {\n                // get the candidate inside the event\n                Candidate[] storage candidatesFound = eventsFound[i].candidates;\n                // find the candidate\n                for (uint256 j = 0; j < candidatesFound.length; j++) {\n                    if (candidatesFound[j].id == _candidateId) {\n                        // found the candidate and plus 1 at the voteCount\n                        candidatesFound[j].voteCount += 1;\n                        break;\n                    }\n                }\n            }\n        }\n    }\n\n    function getCandidateVoteCount(uint256 _candidateId)\n        public\n        view\n        returns (uint256 count)\n    {\n        return candidates[_candidateId].voteCount;\n    }\n\n    function getVoteEventCandidate(uint256 _categoryId, uint256 _eventId)\n        public\n        view\n        returns (Candidate[] memory)\n    {\n        Event[] memory eventsFound = categories[_categoryId].events;\n\n        for (uint256 i = 0; i < eventsFound.length; i++) {\n            if (eventsFound[i].eventId == _eventId) {\n                return eventsFound[i].candidates;\n            }\n        }\n\n        // If the event is not found, return an empty array or handle the situation accordingly\n        return new Candidate[](0);\n    }\n\n    function whoIsTheWinner(uint256 _categoryId, uint256 _eventId)\n        public\n        view\n        returns (Candidate memory)\n    {\n        Event[] memory eventsFound = categories[_categoryId].events;\n        Candidate[] memory candidatesFound;\n\n        for (uint256 i = 0; i < eventsFound.length; i++) {\n            if (eventsFound[i].eventId == _eventId) {\n                candidatesFound = eventsFound[i].candidates;\n            }\n        }\n\n        Candidate memory winner = candidatesFound[0];\n\n        for (uint256 i = 0; i < candidatesFound.length - 1; i++) {\n            if (winner.voteCount < candidatesFound[i + 1].voteCount) {\n                winner = candidatesFound[i + 1];\n            }\n        }\n\n        winner.win = true;\n\n        // If the event is not found, return an empty array or handle the situation accordingly\n        return winner;\n    }\n}\n",
  "sourcePath": "C:\\xampp\\htdocs\\Online-Voting-System-Blockchain\\contracts\\VotingSystem.sol",
  "compiler": {
    "name": "solc",
    "version": "0.8.13+commit.abaa5c0e.Emscripten.clang"
  },
  "schemaVersion": "3.4.16",
  "updatedAt": "2023-12-07T02:45:22.530Z",
  "networkType": "ethereum",
  "devdoc": {
    "kind": "dev",
    "methods": {},
    "version": 1
  },
  "userdoc": {
    "kind": "user",
    "methods": {},
    "version": 1
  }
}