{
  "contractName": "VotingSystem",
  "abi": [
    {
      "inputs": [],
      "stateMutability": "nonpayable",
      "type": "constructor"
    },
    {
      "anonymous": false,
      "inputs": [
        {
          "indexed": true,
          "internalType": "uint256",
          "name": "eventId",
          "type": "uint256"
        },
        {
          "indexed": false,
          "internalType": "string",
          "name": "eventName",
          "type": "string"
        }
      ],
      "name": "CandidateAdded",
      "type": "event"
    },
    {
      "anonymous": false,
      "inputs": [
        {
          "indexed": true,
          "internalType": "uint256",
          "name": "categoryId",
          "type": "uint256"
        },
        {
          "indexed": false,
          "internalType": "string",
          "name": "categoryName",
          "type": "string"
        }
      ],
      "name": "CategoryAdded",
      "type": "event"
    },
    {
      "anonymous": false,
      "inputs": [
        {
          "indexed": true,
          "internalType": "uint256",
          "name": "eventId",
          "type": "uint256"
        },
        {
          "indexed": false,
          "internalType": "string",
          "name": "eventName",
          "type": "string"
        }
      ],
      "name": "EventAdded",
      "type": "event"
    },
    {
      "anonymous": false,
      "inputs": [
        {
          "indexed": true,
          "internalType": "string",
          "name": "_voterKey",
          "type": "string"
        },
        {
          "indexed": true,
          "internalType": "string",
          "name": "categoryEvent",
          "type": "string"
        },
        {
          "indexed": true,
          "internalType": "uint256",
          "name": "candidate",
          "type": "uint256"
        }
      ],
      "name": "VoteEvent",
      "type": "event"
    },
    {
      "anonymous": false,
      "inputs": [
        {
          "indexed": true,
          "internalType": "uint256",
          "name": "voterId",
          "type": "uint256"
        },
        {
          "indexed": false,
          "internalType": "string",
          "name": "voter_key",
          "type": "string"
        }
      ],
      "name": "VoterAdded",
      "type": "event"
    },
    {
      "inputs": [],
      "name": "owner",
      "outputs": [
        {
          "internalType": "address",
          "name": "",
          "type": "address"
        }
      ],
      "stateMutability": "view",
      "type": "function",
      "constant": true
    },
    {
      "inputs": [
        {
          "internalType": "uint256",
          "name": "",
          "type": "uint256"
        }
      ],
      "name": "voteEvents",
      "outputs": [
        {
          "internalType": "uint256",
          "name": "id",
          "type": "uint256"
        },
        {
          "internalType": "string",
          "name": "voterKey",
          "type": "string"
        },
        {
          "internalType": "uint256",
          "name": "categoryId",
          "type": "uint256"
        },
        {
          "internalType": "uint256",
          "name": "eventId",
          "type": "uint256"
        },
        {
          "internalType": "uint256",
          "name": "votedCandidateId",
          "type": "uint256"
        },
        {
          "internalType": "bool",
          "name": "voted",
          "type": "bool"
        }
      ],
      "stateMutability": "view",
      "type": "function",
      "constant": true
    },
    {
      "inputs": [
        {
          "internalType": "uint256",
          "name": "",
          "type": "uint256"
        }
      ],
      "name": "voters",
      "outputs": [
        {
          "internalType": "uint256",
          "name": "id",
          "type": "uint256"
        },
        {
          "internalType": "string",
          "name": "key",
          "type": "string"
        },
        {
          "internalType": "string",
          "name": "email",
          "type": "string"
        },
        {
          "internalType": "bytes32",
          "name": "password",
          "type": "bytes32"
        },
        {
          "internalType": "string",
          "name": "role",
          "type": "string"
        },
        {
          "internalType": "uint256",
          "name": "status",
          "type": "uint256"
        },
        {
          "internalType": "string",
          "name": "token",
          "type": "string"
        }
      ],
      "stateMutability": "view",
      "type": "function",
      "constant": true
    },
    {
      "inputs": [
        {
          "internalType": "string",
          "name": "_key",
          "type": "string"
        },
        {
          "internalType": "string",
          "name": "_email",
          "type": "string"
        },
        {
          "internalType": "string",
          "name": "_password",
          "type": "string"
        },
        {
          "internalType": "string",
          "name": "_role",
          "type": "string"
        },
        {
          "internalType": "string",
          "name": "_token",
          "type": "string"
        }
      ],
      "name": "addVoter",
      "outputs": [],
      "stateMutability": "nonpayable",
      "type": "function"
    },
    {
      "inputs": [
        {
          "internalType": "string",
          "name": "_email",
          "type": "string"
        },
        {
          "internalType": "string",
          "name": "_password",
          "type": "string"
        }
      ],
      "name": "getVoterByEmailPassword",
      "outputs": [
        {
          "components": [
            {
              "internalType": "uint256",
              "name": "id",
              "type": "uint256"
            },
            {
              "internalType": "string",
              "name": "key",
              "type": "string"
            },
            {
              "internalType": "string",
              "name": "email",
              "type": "string"
            },
            {
              "internalType": "bytes32",
              "name": "password",
              "type": "bytes32"
            },
            {
              "internalType": "string",
              "name": "role",
              "type": "string"
            },
            {
              "internalType": "uint256",
              "name": "status",
              "type": "uint256"
            },
            {
              "internalType": "string",
              "name": "token",
              "type": "string"
            }
          ],
          "internalType": "struct VotingSystem.Voter",
          "name": "",
          "type": "tuple"
        }
      ],
      "stateMutability": "view",
      "type": "function",
      "constant": true
    },
    {
      "inputs": [
        {
          "internalType": "uint256",
          "name": "_voterId",
          "type": "uint256"
        }
      ],
      "name": "getVoterEmailById",
      "outputs": [
        {
          "internalType": "string",
          "name": "",
          "type": "string"
        }
      ],
      "stateMutability": "view",
      "type": "function",
      "constant": true
    },
    {
      "inputs": [
        {
          "internalType": "string",
          "name": "_key",
          "type": "string"
        },
        {
          "internalType": "string",
          "name": "_password",
          "type": "string"
        }
      ],
      "name": "updateVoterPassword",
      "outputs": [],
      "stateMutability": "nonpayable",
      "type": "function"
    },
    {
      "inputs": [
        {
          "internalType": "string",
          "name": "_token",
          "type": "string"
        }
      ],
      "name": "verifyVoterAccount",
      "outputs": [
        {
          "internalType": "bool",
          "name": "",
          "type": "bool"
        }
      ],
      "stateMutability": "nonpayable",
      "type": "function"
    },
    {
      "inputs": [
        {
          "internalType": "string",
          "name": "_key",
          "type": "string"
        }
      ],
      "name": "isVoterExist",
      "outputs": [
        {
          "internalType": "bool",
          "name": "",
          "type": "bool"
        }
      ],
      "stateMutability": "view",
      "type": "function",
      "constant": true
    },
    {
      "inputs": [],
      "name": "getAllVoter",
      "outputs": [
        {
          "components": [
            {
              "internalType": "uint256",
              "name": "id",
              "type": "uint256"
            },
            {
              "internalType": "string",
              "name": "key",
              "type": "string"
            },
            {
              "internalType": "string",
              "name": "email",
              "type": "string"
            },
            {
              "internalType": "bytes32",
              "name": "password",
              "type": "bytes32"
            },
            {
              "internalType": "string",
              "name": "role",
              "type": "string"
            },
            {
              "internalType": "uint256",
              "name": "status",
              "type": "uint256"
            },
            {
              "internalType": "string",
              "name": "token",
              "type": "string"
            }
          ],
          "internalType": "struct VotingSystem.Voter[]",
          "name": "",
          "type": "tuple[]"
        }
      ],
      "stateMutability": "view",
      "type": "function",
      "constant": true
    },
    {
      "inputs": [
        {
          "internalType": "string",
          "name": "_email",
          "type": "string"
        },
        {
          "internalType": "string",
          "name": "_newToken",
          "type": "string"
        }
      ],
      "name": "updateVoterTokenByEmail",
      "outputs": [],
      "stateMutability": "nonpayable",
      "type": "function"
    },
    {
      "inputs": [
        {
          "internalType": "string",
          "name": "_categoryName",
          "type": "string"
        }
      ],
      "name": "addCategory",
      "outputs": [],
      "stateMutability": "nonpayable",
      "type": "function"
    },
    {
      "inputs": [
        {
          "internalType": "uint256",
          "name": "_categoryId",
          "type": "uint256"
        },
        {
          "internalType": "string",
          "name": "_categoryName",
          "type": "string"
        }
      ],
      "name": "updateCategory",
      "outputs": [],
      "stateMutability": "nonpayable",
      "type": "function"
    },
    {
      "inputs": [
        {
          "internalType": "uint256",
          "name": "_categoryId",
          "type": "uint256"
        }
      ],
      "name": "deleteCategory",
      "outputs": [],
      "stateMutability": "nonpayable",
      "type": "function"
    },
    {
      "inputs": [],
      "name": "getAllCategory",
      "outputs": [
        {
          "components": [
            {
              "internalType": "uint256",
              "name": "categoryId",
              "type": "uint256"
            },
            {
              "internalType": "string",
              "name": "categoryName",
              "type": "string"
            },
            {
              "components": [
                {
                  "internalType": "uint256",
                  "name": "eventId",
                  "type": "uint256"
                },
                {
                  "internalType": "string",
                  "name": "eventName",
                  "type": "string"
                },
                {
                  "internalType": "uint256",
                  "name": "categoryId",
                  "type": "uint256"
                },
                {
                  "components": [
                    {
                      "internalType": "uint256",
                      "name": "id",
                      "type": "uint256"
                    },
                    {
                      "internalType": "string",
                      "name": "name",
                      "type": "string"
                    },
                    {
                      "internalType": "string",
                      "name": "description",
                      "type": "string"
                    },
                    {
                      "internalType": "uint256",
                      "name": "studentId",
                      "type": "uint256"
                    },
                    {
                      "internalType": "uint256",
                      "name": "categoryId",
                      "type": "uint256"
                    },
                    {
                      "internalType": "uint256",
                      "name": "eventId",
                      "type": "uint256"
                    },
                    {
                      "internalType": "uint256",
                      "name": "voteCount",
                      "type": "uint256"
                    },
                    {
                      "internalType": "bool",
                      "name": "win",
                      "type": "bool"
                    },
                    {
                      "internalType": "string",
                      "name": "imageFileName",
                      "type": "string"
                    }
                  ],
                  "internalType": "struct VotingSystem.Candidate[]",
                  "name": "candidates",
                  "type": "tuple[]"
                },
                {
                  "internalType": "uint256",
                  "name": "candidateCount",
                  "type": "uint256"
                },
                {
                  "internalType": "uint256",
                  "name": "startDateTime",
                  "type": "uint256"
                },
                {
                  "internalType": "uint256",
                  "name": "endDateTime",
                  "type": "uint256"
                },
                {
                  "internalType": "uint256",
                  "name": "status",
                  "type": "uint256"
                },
                {
                  "internalType": "string",
                  "name": "eventDesc",
                  "type": "string"
                }
              ],
              "internalType": "struct VotingSystem.Event[]",
              "name": "events",
              "type": "tuple[]"
            },
            {
              "internalType": "uint256",
              "name": "status",
              "type": "uint256"
            }
          ],
          "internalType": "struct VotingSystem.Category[]",
          "name": "",
          "type": "tuple[]"
        }
      ],
      "stateMutability": "view",
      "type": "function",
      "constant": true
    },
    {
      "inputs": [
        {
          "internalType": "uint256",
          "name": "_categoryId",
          "type": "uint256"
        }
      ],
      "name": "getCategoryById",
      "outputs": [
        {
          "components": [
            {
              "internalType": "uint256",
              "name": "categoryId",
              "type": "uint256"
            },
            {
              "internalType": "string",
              "name": "categoryName",
              "type": "string"
            },
            {
              "components": [
                {
                  "internalType": "uint256",
                  "name": "eventId",
                  "type": "uint256"
                },
                {
                  "internalType": "string",
                  "name": "eventName",
                  "type": "string"
                },
                {
                  "internalType": "uint256",
                  "name": "categoryId",
                  "type": "uint256"
                },
                {
                  "components": [
                    {
                      "internalType": "uint256",
                      "name": "id",
                      "type": "uint256"
                    },
                    {
                      "internalType": "string",
                      "name": "name",
                      "type": "string"
                    },
                    {
                      "internalType": "string",
                      "name": "description",
                      "type": "string"
                    },
                    {
                      "internalType": "uint256",
                      "name": "studentId",
                      "type": "uint256"
                    },
                    {
                      "internalType": "uint256",
                      "name": "categoryId",
                      "type": "uint256"
                    },
                    {
                      "internalType": "uint256",
                      "name": "eventId",
                      "type": "uint256"
                    },
                    {
                      "internalType": "uint256",
                      "name": "voteCount",
                      "type": "uint256"
                    },
                    {
                      "internalType": "bool",
                      "name": "win",
                      "type": "bool"
                    },
                    {
                      "internalType": "string",
                      "name": "imageFileName",
                      "type": "string"
                    }
                  ],
                  "internalType": "struct VotingSystem.Candidate[]",
                  "name": "candidates",
                  "type": "tuple[]"
                },
                {
                  "internalType": "uint256",
                  "name": "candidateCount",
                  "type": "uint256"
                },
                {
                  "internalType": "uint256",
                  "name": "startDateTime",
                  "type": "uint256"
                },
                {
                  "internalType": "uint256",
                  "name": "endDateTime",
                  "type": "uint256"
                },
                {
                  "internalType": "uint256",
                  "name": "status",
                  "type": "uint256"
                },
                {
                  "internalType": "string",
                  "name": "eventDesc",
                  "type": "string"
                }
              ],
              "internalType": "struct VotingSystem.Event[]",
              "name": "events",
              "type": "tuple[]"
            },
            {
              "internalType": "uint256",
              "name": "status",
              "type": "uint256"
            }
          ],
          "internalType": "struct VotingSystem.Category",
          "name": "",
          "type": "tuple"
        }
      ],
      "stateMutability": "view",
      "type": "function",
      "constant": true
    },
    {
      "inputs": [],
      "name": "getAllEvent",
      "outputs": [
        {
          "components": [
            {
              "internalType": "uint256",
              "name": "eventId",
              "type": "uint256"
            },
            {
              "internalType": "string",
              "name": "eventName",
              "type": "string"
            },
            {
              "internalType": "uint256",
              "name": "categoryId",
              "type": "uint256"
            },
            {
              "components": [
                {
                  "internalType": "uint256",
                  "name": "id",
                  "type": "uint256"
                },
                {
                  "internalType": "string",
                  "name": "name",
                  "type": "string"
                },
                {
                  "internalType": "string",
                  "name": "description",
                  "type": "string"
                },
                {
                  "internalType": "uint256",
                  "name": "studentId",
                  "type": "uint256"
                },
                {
                  "internalType": "uint256",
                  "name": "categoryId",
                  "type": "uint256"
                },
                {
                  "internalType": "uint256",
                  "name": "eventId",
                  "type": "uint256"
                },
                {
                  "internalType": "uint256",
                  "name": "voteCount",
                  "type": "uint256"
                },
                {
                  "internalType": "bool",
                  "name": "win",
                  "type": "bool"
                },
                {
                  "internalType": "string",
                  "name": "imageFileName",
                  "type": "string"
                }
              ],
              "internalType": "struct VotingSystem.Candidate[]",
              "name": "candidates",
              "type": "tuple[]"
            },
            {
              "internalType": "uint256",
              "name": "candidateCount",
              "type": "uint256"
            },
            {
              "internalType": "uint256",
              "name": "startDateTime",
              "type": "uint256"
            },
            {
              "internalType": "uint256",
              "name": "endDateTime",
              "type": "uint256"
            },
            {
              "internalType": "uint256",
              "name": "status",
              "type": "uint256"
            },
            {
              "internalType": "string",
              "name": "eventDesc",
              "type": "string"
            }
          ],
          "internalType": "struct VotingSystem.Event[]",
          "name": "",
          "type": "tuple[]"
        }
      ],
      "stateMutability": "view",
      "type": "function",
      "constant": true
    },
    {
      "inputs": [
        {
          "internalType": "uint256",
          "name": "_categoryId",
          "type": "uint256"
        },
        {
          "internalType": "string",
          "name": "_eventName",
          "type": "string"
        },
        {
          "internalType": "string",
          "name": "_eventDesc",
          "type": "string"
        },
        {
          "internalType": "uint256",
          "name": "_startDateTime",
          "type": "uint256"
        },
        {
          "internalType": "uint256",
          "name": "_endDateTime",
          "type": "uint256"
        }
      ],
      "name": "addEvent",
      "outputs": [],
      "stateMutability": "nonpayable",
      "type": "function"
    },
    {
      "inputs": [
        {
          "internalType": "uint256",
          "name": "_categoryId",
          "type": "uint256"
        },
        {
          "internalType": "uint256",
          "name": "_eventId",
          "type": "uint256"
        },
        {
          "internalType": "string",
          "name": "_eventName",
          "type": "string"
        },
        {
          "internalType": "string",
          "name": "_eventDesc",
          "type": "string"
        },
        {
          "internalType": "uint256",
          "name": "_startDateTime",
          "type": "uint256"
        },
        {
          "internalType": "uint256",
          "name": "_endDateTime",
          "type": "uint256"
        }
      ],
      "name": "updateEventDetails",
      "outputs": [],
      "stateMutability": "nonpayable",
      "type": "function"
    },
    {
      "inputs": [
        {
          "internalType": "uint256",
          "name": "_categoryId",
          "type": "uint256"
        },
        {
          "internalType": "uint256",
          "name": "_eventId",
          "type": "uint256"
        }
      ],
      "name": "deleteEvent",
      "outputs": [],
      "stateMutability": "nonpayable",
      "type": "function"
    },
    {
      "inputs": [
        {
          "components": [
            {
              "internalType": "uint256",
              "name": "eventId",
              "type": "uint256"
            },
            {
              "internalType": "string",
              "name": "eventName",
              "type": "string"
            },
            {
              "internalType": "uint256",
              "name": "categoryId",
              "type": "uint256"
            },
            {
              "components": [
                {
                  "internalType": "uint256",
                  "name": "id",
                  "type": "uint256"
                },
                {
                  "internalType": "string",
                  "name": "name",
                  "type": "string"
                },
                {
                  "internalType": "string",
                  "name": "description",
                  "type": "string"
                },
                {
                  "internalType": "uint256",
                  "name": "studentId",
                  "type": "uint256"
                },
                {
                  "internalType": "uint256",
                  "name": "categoryId",
                  "type": "uint256"
                },
                {
                  "internalType": "uint256",
                  "name": "eventId",
                  "type": "uint256"
                },
                {
                  "internalType": "uint256",
                  "name": "voteCount",
                  "type": "uint256"
                },
                {
                  "internalType": "bool",
                  "name": "win",
                  "type": "bool"
                },
                {
                  "internalType": "string",
                  "name": "imageFileName",
                  "type": "string"
                }
              ],
              "internalType": "struct VotingSystem.Candidate[]",
              "name": "candidates",
              "type": "tuple[]"
            },
            {
              "internalType": "uint256",
              "name": "candidateCount",
              "type": "uint256"
            },
            {
              "internalType": "uint256",
              "name": "startDateTime",
              "type": "uint256"
            },
            {
              "internalType": "uint256",
              "name": "endDateTime",
              "type": "uint256"
            },
            {
              "internalType": "uint256",
              "name": "status",
              "type": "uint256"
            },
            {
              "internalType": "string",
              "name": "eventDesc",
              "type": "string"
            }
          ],
          "internalType": "struct VotingSystem.Event",
          "name": "_event",
          "type": "tuple"
        }
      ],
      "name": "updateEvent",
      "outputs": [],
      "stateMutability": "nonpayable",
      "type": "function"
    },
    {
      "inputs": [
        {
          "internalType": "uint256",
          "name": "_categoryId",
          "type": "uint256"
        }
      ],
      "name": "getAllCategoryEvent",
      "outputs": [
        {
          "components": [
            {
              "internalType": "uint256",
              "name": "eventId",
              "type": "uint256"
            },
            {
              "internalType": "string",
              "name": "eventName",
              "type": "string"
            },
            {
              "internalType": "uint256",
              "name": "categoryId",
              "type": "uint256"
            },
            {
              "components": [
                {
                  "internalType": "uint256",
                  "name": "id",
                  "type": "uint256"
                },
                {
                  "internalType": "string",
                  "name": "name",
                  "type": "string"
                },
                {
                  "internalType": "string",
                  "name": "description",
                  "type": "string"
                },
                {
                  "internalType": "uint256",
                  "name": "studentId",
                  "type": "uint256"
                },
                {
                  "internalType": "uint256",
                  "name": "categoryId",
                  "type": "uint256"
                },
                {
                  "internalType": "uint256",
                  "name": "eventId",
                  "type": "uint256"
                },
                {
                  "internalType": "uint256",
                  "name": "voteCount",
                  "type": "uint256"
                },
                {
                  "internalType": "bool",
                  "name": "win",
                  "type": "bool"
                },
                {
                  "internalType": "string",
                  "name": "imageFileName",
                  "type": "string"
                }
              ],
              "internalType": "struct VotingSystem.Candidate[]",
              "name": "candidates",
              "type": "tuple[]"
            },
            {
              "internalType": "uint256",
              "name": "candidateCount",
              "type": "uint256"
            },
            {
              "internalType": "uint256",
              "name": "startDateTime",
              "type": "uint256"
            },
            {
              "internalType": "uint256",
              "name": "endDateTime",
              "type": "uint256"
            },
            {
              "internalType": "uint256",
              "name": "status",
              "type": "uint256"
            },
            {
              "internalType": "string",
              "name": "eventDesc",
              "type": "string"
            }
          ],
          "internalType": "struct VotingSystem.Event[]",
          "name": "foundEvent",
          "type": "tuple[]"
        }
      ],
      "stateMutability": "view",
      "type": "function",
      "constant": true
    },
    {
      "inputs": [
        {
          "internalType": "uint256",
          "name": "_categoryId",
          "type": "uint256"
        },
        {
          "internalType": "uint256",
          "name": "_eventId",
          "type": "uint256"
        }
      ],
      "name": "getEventById",
      "outputs": [
        {
          "components": [
            {
              "internalType": "uint256",
              "name": "eventId",
              "type": "uint256"
            },
            {
              "internalType": "string",
              "name": "eventName",
              "type": "string"
            },
            {
              "internalType": "uint256",
              "name": "categoryId",
              "type": "uint256"
            },
            {
              "components": [
                {
                  "internalType": "uint256",
                  "name": "id",
                  "type": "uint256"
                },
                {
                  "internalType": "string",
                  "name": "name",
                  "type": "string"
                },
                {
                  "internalType": "string",
                  "name": "description",
                  "type": "string"
                },
                {
                  "internalType": "uint256",
                  "name": "studentId",
                  "type": "uint256"
                },
                {
                  "internalType": "uint256",
                  "name": "categoryId",
                  "type": "uint256"
                },
                {
                  "internalType": "uint256",
                  "name": "eventId",
                  "type": "uint256"
                },
                {
                  "internalType": "uint256",
                  "name": "voteCount",
                  "type": "uint256"
                },
                {
                  "internalType": "bool",
                  "name": "win",
                  "type": "bool"
                },
                {
                  "internalType": "string",
                  "name": "imageFileName",
                  "type": "string"
                }
              ],
              "internalType": "struct VotingSystem.Candidate[]",
              "name": "candidates",
              "type": "tuple[]"
            },
            {
              "internalType": "uint256",
              "name": "candidateCount",
              "type": "uint256"
            },
            {
              "internalType": "uint256",
              "name": "startDateTime",
              "type": "uint256"
            },
            {
              "internalType": "uint256",
              "name": "endDateTime",
              "type": "uint256"
            },
            {
              "internalType": "uint256",
              "name": "status",
              "type": "uint256"
            },
            {
              "internalType": "string",
              "name": "eventDesc",
              "type": "string"
            }
          ],
          "internalType": "struct VotingSystem.Event",
          "name": "",
          "type": "tuple"
        }
      ],
      "stateMutability": "view",
      "type": "function",
      "constant": true
    },
    {
      "inputs": [
        {
          "internalType": "uint256",
          "name": "_categoryId",
          "type": "uint256"
        },
        {
          "internalType": "uint256",
          "name": "_eventId",
          "type": "uint256"
        }
      ],
      "name": "isEventExists",
      "outputs": [
        {
          "internalType": "bool",
          "name": "",
          "type": "bool"
        }
      ],
      "stateMutability": "view",
      "type": "function",
      "constant": true
    },
    {
      "inputs": [
        {
          "internalType": "uint256",
          "name": "_categoryId",
          "type": "uint256"
        },
        {
          "internalType": "uint256",
          "name": "_eventId",
          "type": "uint256"
        },
        {
          "internalType": "string",
          "name": "_candidateName",
          "type": "string"
        },
        {
          "internalType": "string",
          "name": "_description",
          "type": "string"
        },
        {
          "internalType": "uint256",
          "name": "_studentId",
          "type": "uint256"
        },
        {
          "internalType": "string",
          "name": "_imageFileName",
          "type": "string"
        }
      ],
      "name": "addCandidateToEvent",
      "outputs": [],
      "stateMutability": "nonpayable",
      "type": "function"
    },
    {
      "inputs": [
        {
          "internalType": "uint256",
          "name": "_id",
          "type": "uint256"
        },
        {
          "internalType": "string",
          "name": "_name",
          "type": "string"
        },
        {
          "internalType": "string",
          "name": "_description",
          "type": "string"
        },
        {
          "internalType": "uint256",
          "name": "_studentId",
          "type": "uint256"
        },
        {
          "internalType": "uint256",
          "name": "_categoryId",
          "type": "uint256"
        },
        {
          "internalType": "uint256",
          "name": "_eventId",
          "type": "uint256"
        },
        {
          "internalType": "string",
          "name": "_imageFileName",
          "type": "string"
        }
      ],
      "name": "updateCandidateDetails",
      "outputs": [],
      "stateMutability": "nonpayable",
      "type": "function"
    },
    {
      "inputs": [
        {
          "internalType": "uint256",
          "name": "_categoryId",
          "type": "uint256"
        },
        {
          "internalType": "uint256",
          "name": "_eventId",
          "type": "uint256"
        },
        {
          "internalType": "uint256",
          "name": "_candidateId",
          "type": "uint256"
        }
      ],
      "name": "deleteCandidate",
      "outputs": [],
      "stateMutability": "nonpayable",
      "type": "function"
    },
    {
      "inputs": [
        {
          "internalType": "uint256",
          "name": "_categoryId",
          "type": "uint256"
        },
        {
          "internalType": "uint256",
          "name": "_eventId",
          "type": "uint256"
        },
        {
          "internalType": "uint256",
          "name": "_candidateId",
          "type": "uint256"
        }
      ],
      "name": "getCandidateById",
      "outputs": [
        {
          "components": [
            {
              "internalType": "uint256",
              "name": "id",
              "type": "uint256"
            },
            {
              "internalType": "string",
              "name": "name",
              "type": "string"
            },
            {
              "internalType": "string",
              "name": "description",
              "type": "string"
            },
            {
              "internalType": "uint256",
              "name": "studentId",
              "type": "uint256"
            },
            {
              "internalType": "uint256",
              "name": "categoryId",
              "type": "uint256"
            },
            {
              "internalType": "uint256",
              "name": "eventId",
              "type": "uint256"
            },
            {
              "internalType": "uint256",
              "name": "voteCount",
              "type": "uint256"
            },
            {
              "internalType": "bool",
              "name": "win",
              "type": "bool"
            },
            {
              "internalType": "string",
              "name": "imageFileName",
              "type": "string"
            }
          ],
          "internalType": "struct VotingSystem.Candidate",
          "name": "",
          "type": "tuple"
        }
      ],
      "stateMutability": "view",
      "type": "function",
      "constant": true
    },
    {
      "inputs": [
        {
          "internalType": "uint256",
          "name": "_categoryId",
          "type": "uint256"
        },
        {
          "internalType": "uint256",
          "name": "_eventId",
          "type": "uint256"
        },
        {
          "internalType": "uint256",
          "name": "_studentId",
          "type": "uint256"
        }
      ],
      "name": "isCandidateExistsInEvent",
      "outputs": [
        {
          "internalType": "bool",
          "name": "",
          "type": "bool"
        }
      ],
      "stateMutability": "view",
      "type": "function",
      "constant": true
    },
    {
      "inputs": [
        {
          "internalType": "uint256",
          "name": "_categoryId",
          "type": "uint256"
        },
        {
          "internalType": "uint256",
          "name": "_eventId",
          "type": "uint256"
        }
      ],
      "name": "getAllCandidatesInEvent",
      "outputs": [
        {
          "components": [
            {
              "internalType": "uint256",
              "name": "id",
              "type": "uint256"
            },
            {
              "internalType": "string",
              "name": "name",
              "type": "string"
            },
            {
              "internalType": "string",
              "name": "description",
              "type": "string"
            },
            {
              "internalType": "uint256",
              "name": "studentId",
              "type": "uint256"
            },
            {
              "internalType": "uint256",
              "name": "categoryId",
              "type": "uint256"
            },
            {
              "internalType": "uint256",
              "name": "eventId",
              "type": "uint256"
            },
            {
              "internalType": "uint256",
              "name": "voteCount",
              "type": "uint256"
            },
            {
              "internalType": "bool",
              "name": "win",
              "type": "bool"
            },
            {
              "internalType": "string",
              "name": "imageFileName",
              "type": "string"
            }
          ],
          "internalType": "struct VotingSystem.Candidate[]",
          "name": "foundCandidates",
          "type": "tuple[]"
        }
      ],
      "stateMutability": "view",
      "type": "function",
      "constant": true
    },
    {
      "inputs": [],
      "name": "getAllCandidates",
      "outputs": [
        {
          "components": [
            {
              "internalType": "uint256",
              "name": "id",
              "type": "uint256"
            },
            {
              "internalType": "string",
              "name": "name",
              "type": "string"
            },
            {
              "internalType": "string",
              "name": "description",
              "type": "string"
            },
            {
              "internalType": "uint256",
              "name": "studentId",
              "type": "uint256"
            },
            {
              "internalType": "uint256",
              "name": "categoryId",
              "type": "uint256"
            },
            {
              "internalType": "uint256",
              "name": "eventId",
              "type": "uint256"
            },
            {
              "internalType": "uint256",
              "name": "voteCount",
              "type": "uint256"
            },
            {
              "internalType": "bool",
              "name": "win",
              "type": "bool"
            },
            {
              "internalType": "string",
              "name": "imageFileName",
              "type": "string"
            }
          ],
          "internalType": "struct VotingSystem.Candidate[]",
          "name": "",
          "type": "tuple[]"
        }
      ],
      "stateMutability": "view",
      "type": "function",
      "constant": true
    },
    {
      "inputs": [
        {
          "internalType": "string",
          "name": "_voterKey",
          "type": "string"
        },
        {
          "internalType": "uint256",
          "name": "_candidateId",
          "type": "uint256"
        },
        {
          "internalType": "uint256",
          "name": "_categoryId",
          "type": "uint256"
        },
        {
          "internalType": "uint256",
          "name": "_eventId",
          "type": "uint256"
        }
      ],
      "name": "vote",
      "outputs": [],
      "stateMutability": "nonpayable",
      "type": "function"
    },
    {
      "inputs": [],
      "name": "getAllVotedHistory",
      "outputs": [
        {
          "components": [
            {
              "internalType": "uint256",
              "name": "id",
              "type": "uint256"
            },
            {
              "internalType": "string",
              "name": "voterKey",
              "type": "string"
            },
            {
              "internalType": "uint256",
              "name": "categoryId",
              "type": "uint256"
            },
            {
              "internalType": "uint256",
              "name": "eventId",
              "type": "uint256"
            },
            {
              "internalType": "uint256",
              "name": "votedCandidateId",
              "type": "uint256"
            },
            {
              "internalType": "bool",
              "name": "voted",
              "type": "bool"
            }
          ],
          "internalType": "struct VotingSystem.voteEventStruct[]",
          "name": "",
          "type": "tuple[]"
        }
      ],
      "stateMutability": "view",
      "type": "function",
      "constant": true
    },
    {
      "inputs": [
        {
          "internalType": "uint256",
          "name": "_categoryId",
          "type": "uint256"
        },
        {
          "internalType": "uint256",
          "name": "_eventId",
          "type": "uint256"
        }
      ],
      "name": "markWinner",
      "outputs": [],
      "stateMutability": "nonpayable",
      "type": "function"
    }
  ],
  "bytecode": "0x60806040523480156200001157600080fd5b50600080546001600160a01b03191633178155604080516020808201835283825282518084018452601481527f737570657261646d696e40676d61696c2e636f6d0000000000000000000000008183015283518085018552600e81526d537570657241646d696e2131323360901b818401528451808601865260018152605360f81b818501528551938401909552948252620000b29492939092916200015f565b620001596040518060400160405280600b81526020016a30b1bb3d3c31b3b0b9b23360a91b8152506040518060400160405280600f81526020016e766f74657240676d61696c2e636f6d60881b81525060405180604001604052806008815260200167105898d7cc4c8ccd60c21b815250604051806040016040528060018152602001605560f81b815250604051806020016040528060008152506200015f60201b60201c565b620005b1565b60015b600b54811162000204576000818152600560205260409081902090516200018d916002019062000337565b6040518091039020858051906020012003620001ef5760405162461bcd60e51b815260206004820152601360248201527f5573657220616c72656164792065786973747300000000000000000000000000604482015260640160405180910390fd5b80620001fb81620003cb565b91505062000162565b506001600b60008282546200021a9190620003e7565b90915550506040516000906200023590859060200162000429565b60408051601f198184030181529181528151602092830120600b54600081815260059094529190922090815590915060018101620002748882620004b0565b5060028101620002858782620004b0565b5060038101829055600481016200029d8582620004b0565b506000600582015560068101620002b58482620004b0565b50600b547f56729c826fe77eec184059336ced13d9ef79d10126212c90a4d2b724391e14e288604051620002ea91906200057c565b60405180910390a250505050505050565b600181811c908216806200031057607f821691505b6020821081036200033157634e487b7160e01b600052602260045260246000fd5b50919050565b60008083546200034781620002fb565b600182811680156200036257600181146200037857620003a9565b60ff1984168752821515830287019450620003a9565b8760005260208060002060005b85811015620003a05781548a82015290840190820162000385565b50505082870194505b50929695505050505050565b634e487b7160e01b600052601160045260246000fd5b600060018201620003e057620003e0620003b5565b5060010190565b80820180821115620003fd57620003fd620003b5565b92915050565b60005b838110156200042057818101518382015260200162000406565b50506000910152565b600082516200043d81846020870162000403565b9190910192915050565b634e487b7160e01b600052604160045260246000fd5b601f821115620004ab57600081815260208120601f850160051c81016020861015620004865750805b601f850160051c820191505b81811015620004a75782815560010162000492565b5050505b505050565b81516001600160401b03811115620004cc57620004cc62000447565b620004e481620004dd8454620002fb565b846200045d565b602080601f8311600181146200051c5760008415620005035750858301515b600019600386901b1c1916600185901b178555620004a7565b600085815260208120601f198616915b828110156200054d578886015182559484019460019091019084016200052c565b50858210156200056c5787850151600019600388901b60f8161c191681555b5050505050600190811b01905550565b60208152600082518060208401526200059d81604085016020870162000403565b601f01601f19169190910160400192915050565b615fc180620005c16000396000f3fe608060405234801561001057600080fd5b50600436106102065760003560e01c80638669537d1161011a578063ceca737f116100ad578063dfdffaf41161007c578063dfdffaf4146104d3578063f29565ed146104e6578063f44f4e14146104f9578063f731d0e91461050e578063fdf9c14a1461052157600080fd5b8063ceca737f14610474578063d033791414610487578063d84786041461049a578063da58c7d9146104ad57600080fd5b8063909f8502116100e9578063909f85021461041b578063a1a025641461043b578063c0d75cdd1461044e578063cb9b1ba11461046157600080fd5b80638669537d146103a65780638801b5b6146103bb5780638da5cb5b146103db5780638f2c28051461040657600080fd5b8063531f142b1161019d57806361e8486e1161016c57806361e8486e14610328578063642d20ad14610348578063763049841461036d578063776a657b1461038057806378697e5b1461039357600080fd5b8063531f142b146102c25780635a8ffc79146102d55780635b4d727c146102f557806360e93f3c1461030857600080fd5b8063401a52dd116101d9578063401a52dd14610266578063448a144f146102795780634fb432501461028c578063514fc62a146102af57600080fd5b80631002cdd41461020b5780632e0dcbf7146102295780632e6997fe1461023e5780634009074f14610253575b600080fd5b610213610534565b604051610220919061500b565b60405180910390f35b61023c61023736600461514b565b610a24565b005b610246610aa8565b6040516102209190615187565b61023c6102613660046151dc565b610c2a565b61021361027436600461528a565b610e40565b61023c6102873660046152a3565b6112db565b61029f61029a366004615306565b611353565b6040519015158152602001610220565b61029f6102bd36600461514b565b611430565b61023c6102d03660046154aa565b611496565b6102e86102e336600461528a565b6115ba565b604051610220919061559f565b610246610303366004615306565b6116ae565b61031b61031636600461528a565b611a4a565b6040516102209190615643565b61033b610336366004615656565b611f54565b6040516102209190615682565b61035b61035636600461528a565b612278565b60405161022096959493929190615695565b61023c61037b3660046156d5565b612339565b61023c61038e366004615778565b61258c565b61023c6103a13660046157cb565b61284c565b6103ae612868565b6040516102209190615807565b6103ce6103c93660046152a3565b612a29565b6040516102209190615931565b6000546103ee906001600160a01b031681565b6040516001600160a01b039091168152602001610220565b61040e612e05565b6040516102209190615944565b61042e610429366004615306565b6133a2565b6040516102209190615999565b61029f61044936600461514b565b613804565b61023c61045c366004615306565b6138fb565b61023c61046f3660046159ac565b613b05565b61023c61048236600461528a565b613b97565b61023c610495366004615656565b613bd3565b61023c6104a8366004615306565b613e3d565b6104c06104bb36600461528a565b61402d565b6040516102209796959493929190615a2a565b61029f6104e1366004615656565b614288565b61023c6104f43660046152a3565b614346565b610501614435565b6040516102209190615a97565b61023c61051c366004615aec565b614796565b61023c61052f366004615bbd565b61490f565b606060006009546001600160401b038111156105525761055261506d565b60405190808252806020026020018201604052801561058b57816020015b610578614b68565b8152602001906001900390816105705790505b5090506000805b600754811015610a1c5760005b600160006105ad8483615c5b565b8152602081019190915260400160002060020154811015610a0957600160006105d68483615c5b565b815260200190815260200160002060020181815481106105f8576105f8615c6e565b9060005260206000209060090201604051806101200160405290816000820154815260200160018201805461062c90615c84565b80601f016020809104026020016040519081016040528092919081815260200182805461065890615c84565b80156106a55780601f1061067a576101008083540402835291602001916106a5565b820191906000526020600020905b81548152906001019060200180831161068857829003601f168201915b505050505081526020016002820154815260200160038201805480602002602001604051908101604052809291908181526020016000905b8282101561090b5783829060005260206000209060090201604051806101200160405290816000820154815260200160018201805461071b90615c84565b80601f016020809104026020016040519081016040528092919081815260200182805461074790615c84565b80156107945780601f1061076957610100808354040283529160200191610794565b820191906000526020600020905b81548152906001019060200180831161077757829003601f168201915b505050505081526020016002820180546107ad90615c84565b80601f01602080910402602001604051908101604052809291908181526020018280546107d990615c84565b80156108265780601f106107fb57610100808354040283529160200191610826565b820191906000526020600020905b81548152906001019060200180831161080957829003601f168201915b505050918352505060038201546020820152600482015460408201526005820154606082015260068201546080820152600782015460ff16151560a082015260088201805460c09092019161087a90615c84565b80601f01602080910402602001604051908101604052809291908181526020018280546108a690615c84565b80156108f35780601f106108c8576101008083540402835291602001916108f3565b820191906000526020600020905b8154815290600101906020018083116108d657829003601f168201915b505050505081525050815260200190600101906106dd565b5050505081526020016004820154815260200160058201548152602001600682015481526020016007820154815260200160088201805461094b90615c84565b80601f016020809104026020016040519081016040528092919081815260200182805461097790615c84565b80156109c45780601f10610999576101008083540402835291602001916109c4565b820191906000526020600020905b8154815290600101906020018083116109a757829003601f168201915b5050505050815250508484815181106109df576109df615c6e565b60209081029190910101526109f5600184615c5b565b925080610a0181615cb8565b91505061059f565b5080610a1481615cb8565b915050610592565b509092915050565b600160076000828254610a379190615c5b565b90915550506007546000908152600160208190526040909120908101610a5d8382615d1f565b5060078054825560016003830155546040517f5bae3f75753ef0a1c0ea0f6c51d7b43a4b8d116572b8b7b5cb771f9ad32d4ae590610a9c90859061559f565b60405180910390a25050565b606060006008546001600160401b03811115610ac657610ac661506d565b604051908082528060200260200182016040528015610aff57816020015b610aec614bb4565b815260200190600190039081610ae45790505b50905060006009546001600160401b03811115610b1e57610b1e61506d565b604051908082528060200260200182016040528015610b5757816020015b610b44614b68565b815260200190600190039081610b3c5790505b509050610b62610534565b90506000805b600954811015610c215760005b838281518110610b8757610b87615c6e565b60200260200101516060015151811015610c0e57838281518110610bad57610bad615c6e565b6020026020010151606001518181518110610bca57610bca615c6e565b6020026020010151858481518110610be457610be4615c6e565b6020908102919091010152610bfa600184615c5b565b925080610c0681615cb8565b915050610b75565b5080610c1981615cb8565b915050610b68565b50919392505050565b60005b600084815260016020526040902060020154811015610e35576000848152600160205260409020600201805484919083908110610c6c57610c6c615c6e565b90600052602060002090600902016000015403610e23576000848152600160205260408120600201805483908110610ca657610ca6615c6e565b9060005260206000209060090201905060005b6003820154811015610e205789826003018281548110610cdb57610cdb615c6e565b90600052602060002090600902016000015403610e0e576000826003018281548110610d0957610d09615c6e565b9060005260206000209060090201905089816001019081610d2a9190615d1f565b5060028101610d398a82615d1f565b5060038101889055845115801590610d6f575084516020860120604051610d64906008840190615e51565b604051809103902014155b15610e05576000816008018054610d8590615c84565b90501115610dc3576000600682600801604051610da29190615e51565b908152604051908190036020019020805491151560ff199092169190911790555b60088101610dd18682615d1f565b506001600686604051610de49190615e5d565b908152604051908190036020019020805491151560ff199092169190911790555b50505050610e37565b80610e1881615cb8565b915050610cb9565b50505b80610e2d81615cb8565b915050610c2d565b505b50505050505050565b60008181526001602052604081206002810154606092906001600160401b03811115610e6e57610e6e61506d565b604051908082528060200260200182016040528015610ea757816020015b610e94614b68565b815260200190600190039081610e8c5790505b50905060005b60028301548110156112d357826002018181548110610ece57610ece615c6e565b90600052602060002090600902016040518061012001604052908160008201548152602001600182018054610f0290615c84565b80601f0160208091040260200160405190810160405280929190818152602001828054610f2e90615c84565b8015610f7b5780601f10610f5057610100808354040283529160200191610f7b565b820191906000526020600020905b815481529060010190602001808311610f5e57829003601f168201915b505050505081526020016002820154815260200160038201805480602002602001604051908101604052809291908181526020016000905b828210156111e157838290600052602060002090600902016040518061012001604052908160008201548152602001600182018054610ff190615c84565b80601f016020809104026020016040519081016040528092919081815260200182805461101d90615c84565b801561106a5780601f1061103f5761010080835404028352916020019161106a565b820191906000526020600020905b81548152906001019060200180831161104d57829003601f168201915b5050505050815260200160028201805461108390615c84565b80601f01602080910402602001604051908101604052809291908181526020018280546110af90615c84565b80156110fc5780601f106110d1576101008083540402835291602001916110fc565b820191906000526020600020905b8154815290600101906020018083116110df57829003601f168201915b505050918352505060038201546020820152600482015460408201526005820154606082015260068201546080820152600782015460ff16151560a082015260088201805460c09092019161115090615c84565b80601f016020809104026020016040519081016040528092919081815260200182805461117c90615c84565b80156111c95780601f1061119e576101008083540402835291602001916111c9565b820191906000526020600020905b8154815290600101906020018083116111ac57829003601f168201915b50505050508152505081526020019060010190610fb3565b5050505081526020016004820154815260200160058201548152602001600682015481526020016007820154815260200160088201805461122190615c84565b80601f016020809104026020016040519081016040528092919081815260200182805461124d90615c84565b801561129a5780601f1061126f5761010080835404028352916020019161129a565b820191906000526020600020905b81548152906001019060200180831161127d57829003601f168201915b5050505050815250508282815181106112b5576112b5615c6e565b602002602001018190525080806112cb90615cb8565b915050610ead565b509392505050565b60015b600b54811161134e576000818152600560205260409081902090516113069160020190615e51565b604051809103902083805190602001200361133c5760008181526005602052604090206006016113368382615d1f565b50505050565b8061134681615cb8565b9150506112de565b505050565b60008281526001602052604081205481036113af5760405162461bcd60e51b815260206004820152601760248201527610d85d1959dbdc9e48191bd95cc81b9bdd08195e1a5cdd604a1b60448201526064015b60405180910390fd5b60005b6000848152600160205260409020600201548110156114245760008481526001602052604090206002018054849190839081106113f1576113f1615c6e565b9060005260206000209060090201600001540361141257600191505061142a565b8061141c81615cb8565b9150506113b2565b50600090505b92915050565b600060015b600b54811161148d5760008181526005602052604090819020905161145d9160010190615e51565b604051809103902083805190602001200361147b5750600192915050565b8061148581615cb8565b915050611435565b50600092915050565b604080820151600090815260016020529081205490036114f35760405162461bcd60e51b815260206004820152601860248201527743617465676f727920646f6573206e6f742065786973747360401b60448201526064016113a6565b61150581604001518260000151611353565b6115495760405162461bcd60e51b81526020600482015260156024820152744576656e7420646f6573206e6f742065786973742160581b60448201526064016113a6565b60006001600083604001518152602001908152602001600020600201600183600001516115769190615e79565b8154811061158657611586615c6e565b9060005260206000209060090201905081602001518160010190816115ab9190615d1f565b5060e090910151600790910155565b60606000821180156115ce5750600b548211155b61160d5760405162461bcd60e51b815260206004820152601060248201526f125b9d985b1a59081d9bdd195c88125160821b60448201526064016113a6565b6000828152600560205260409020600201805461162990615c84565b80601f016020809104026020016040519081016040528092919081815260200182805461165590615c84565b80156116a25780601f10611677576101008083540402835291602001916116a2565b820191906000526020600020905b81548152906001019060200180831161168557829003601f168201915b50505050509050919050565b60008281526001602052604081206060915b6002820154811015611a4257838260020182815481106116e2576116e2615c6e565b90600052602060002090600902016000015403611a3057600082600201828154811061171057611710615c6e565b9060005260206000209060090201600401546001600160401b038111156117395761173961506d565b60405190808252806020026020018201604052801561177257816020015b61175f614bb4565b8152602001906001900390816117575790505b50905060005b83600201838154811061178d5761178d615c6e565b906000526020600020906009020160030180549050811015611a25578360020183815481106117be576117be615c6e565b906000526020600020906009020160030181815481106117e0576117e0615c6e565b9060005260206000209060090201604051806101200160405290816000820154815260200160018201805461181490615c84565b80601f016020809104026020016040519081016040528092919081815260200182805461184090615c84565b801561188d5780601f106118625761010080835404028352916020019161188d565b820191906000526020600020905b81548152906001019060200180831161187057829003601f168201915b505050505081526020016002820180546118a690615c84565b80601f01602080910402602001604051908101604052809291908181526020018280546118d290615c84565b801561191f5780601f106118f45761010080835404028352916020019161191f565b820191906000526020600020905b81548152906001019060200180831161190257829003601f168201915b505050918352505060038201546020820152600482015460408201526005820154606082015260068201546080820152600782015460ff16151560a082015260088201805460c09092019161197390615c84565b80601f016020809104026020016040519081016040528092919081815260200182805461199f90615c84565b80156119ec5780601f106119c1576101008083540402835291602001916119ec565b820191906000526020600020905b8154815290600101906020018083116119cf57829003601f168201915b505050505081525050828281518110611a0757611a07615c6e565b60200260200101819052508080611a1d90615cb8565b915050611778565b50925061142a915050565b80611a3a81615cb8565b9150506116c0565b505092915050565b611a756040518060800160405280600081526020016060815260200160608152602001600081525090565b60008281526001602081815260409283902083516080810190945280548452918201805491840191611aa690615c84565b80601f0160208091040260200160405190810160405280929190818152602001828054611ad290615c84565b8015611b1f5780601f10611af457610100808354040283529160200191611b1f565b820191906000526020600020905b815481529060010190602001808311611b0257829003601f168201915b5050505050815260200160028201805480602002602001604051908101604052809291908181526020016000905b82821015611f3b57838290600052602060002090600902016040518061012001604052908160008201548152602001600182018054611b8b90615c84565b80601f0160208091040260200160405190810160405280929190818152602001828054611bb790615c84565b8015611c045780601f10611bd957610100808354040283529160200191611c04565b820191906000526020600020905b815481529060010190602001808311611be757829003601f168201915b505050505081526020016002820154815260200160038201805480602002602001604051908101604052809291908181526020016000905b82821015611e6a57838290600052602060002090600902016040518061012001604052908160008201548152602001600182018054611c7a90615c84565b80601f0160208091040260200160405190810160405280929190818152602001828054611ca690615c84565b8015611cf35780601f10611cc857610100808354040283529160200191611cf3565b820191906000526020600020905b815481529060010190602001808311611cd657829003601f168201915b50505050508152602001600282018054611d0c90615c84565b80601f0160208091040260200160405190810160405280929190818152602001828054611d3890615c84565b8015611d855780601f10611d5a57610100808354040283529160200191611d85565b820191906000526020600020905b815481529060010190602001808311611d6857829003601f168201915b505050918352505060038201546020820152600482015460408201526005820154606082015260068201546080820152600782015460ff16151560a082015260088201805460c090920191611dd990615c84565b80601f0160208091040260200160405190810160405280929190818152602001828054611e0590615c84565b8015611e525780601f10611e2757610100808354040283529160200191611e52565b820191906000526020600020905b815481529060010190602001808311611e3557829003601f168201915b50505050508152505081526020019060010190611c3c565b50505050815260200160048201548152602001600582015481526020016006820154815260200160078201548152602001600882018054611eaa90615c84565b80601f0160208091040260200160405190810160405280929190818152602001828054611ed690615c84565b8015611f235780601f10611ef857610100808354040283529160200191611f23565b820191906000526020600020905b815481529060010190602001808311611f0657829003601f168201915b50505050508152505081526020019060010190611b4d565b5050505081526020016003820154815250509050919050565b611f5c614bb4565b600084815260016020526040812090611f73614bb4565b60005b600284015481101561226b5786846002018281548110611f9857611f98615c6e565b9060005260206000209060090201600001540361225957836002018181548110611fc457611fc4615c6e565b9060005260206000209060090201925060005b60038401548110156122535786846003018281548110611ff957611ff9615c6e565b906000526020600020906009020160000154036122415783600301818154811061202557612025615c6e565b9060005260206000209060090201604051806101200160405290816000820154815260200160018201805461205990615c84565b80601f016020809104026020016040519081016040528092919081815260200182805461208590615c84565b80156120d25780601f106120a7576101008083540402835291602001916120d2565b820191906000526020600020905b8154815290600101906020018083116120b557829003601f168201915b505050505081526020016002820180546120eb90615c84565b80601f016020809104026020016040519081016040528092919081815260200182805461211790615c84565b80156121645780601f1061213957610100808354040283529160200191612164565b820191906000526020600020905b81548152906001019060200180831161214757829003601f168201915b505050918352505060038201546020820152600482015460408201526005820154606082015260068201546080820152600782015460ff16151560a082015260088201805460c0909201916121b890615c84565b80601f01602080910402602001604051908101604052809291908181526020018280546121e490615c84565b80156122315780601f1061220657610100808354040283529160200191612231565b820191906000526020600020905b81548152906001019060200180831161221457829003601f168201915b5050505050815250509250612253565b8061224b81615cb8565b915050611fd7565b5061226b565b8061226381615cb8565b915050611f76565b50925050505b9392505050565b6004602052600090815260409020805460018201805491929161229a90615c84565b80601f01602080910402602001604051908101604052809291908181526020018280546122c690615c84565b80156123135780601f106122e857610100808354040283529160200191612313565b820191906000526020600020905b8154815290600101906020018083116122f657829003601f168201915b505050506002830154600384015460048501546005909501549394919390925060ff1686565b612344868684614288565b156123915760405162461bcd60e51b815260206004820152601960248201527f43616e6469646174657320616c7265616479206578697374730000000000000060448201526064016113a6565b6001600860008282546123a49190615c5b565b9091555050604080516101208101825260085481526020808201879052818301869052606082018590526080820189905260a08201889052600060c0830181905260e083018190526101008301859052898152600190915291822090915b600282015481101561254f578782600201828154811061242457612424615c6e565b9060005260206000209060090201600001540361253d5781600201818154811061245057612450615c6e565b60009182526020808320600992830201600301805460018082018355918552938290208751949093029092019283558501518592918201906124929082615d1f565b50604082015160028201906124a79082615d1f565b50606082015160038201556080820151600482015560a0820151600582015560c0820151600682015560e082015160078201805460ff191691151591909117905561010082015160088201906124fd9082615d1f565b505050600182600201828154811061251757612517615c6e565b906000526020600020906009020160040160008282546125379190615c5b565b90915550505b8061254781615cb8565b915050612402565b5060016006846040516125629190615e5d565b908152604051908190036020019020805491151560ff199092169190911790555050505050505050565b60008281526001602052604081205490036125e45760405162461bcd60e51b815260206004820152601860248201527743617465676f727920646f6573206e6f742065786973747360401b60448201526064016113a6565b60095460000361262e5760405162461bcd60e51b81526020600482015260156024820152744576656e7420646f6573206e6f742065786973747360581b60448201526064016113a6565b60015b600a548111612714576000818152600460205260409081902090516126599160010190615e51565b60405180910390208580519060200120148015612686575060008181526004602052604090206002015483145b80156126a2575060008181526004602052604090206003015482145b156127025760008181526004602052604090206005015460ff16156126fd5760405162461bcd60e51b8152602060048201526011602482015270165bdd48185b1c9958591e481d9bdd1959607a1b60448201526064016113a6565b612714565b8061270c81615cb8565b915050612631565b506001600a60008282546127289190615c5b565b90915550506040805160c081018252600a5480825260208083018881528385018790526060840186905260808401889052600160a0850181905260009384526004909252939091208251815592519192839290918201906127899082615d1f565b5060408201516002820155606082015160038201556080820151600482015560a0909101516005909101805460ff19169115159190911790556127cd8383866149e0565b60408051602081018590528082018490528151808203830181526060909101918290529085906127fe908390615e5d565b6040518091039020876040516128149190615e5d565b604051908190038120907f336badd820d33e68eff2381e343928896ff7147adf09b298939d0a7b001f072e90600090a4505050505050565b60008281526001602081905260409091200161134e8282615d1f565b60606000600a546001600160401b038111156128865761288661506d565b6040519080825280602002602001820160405280156128f257816020015b6128df6040518060c0016040528060008152602001606081526020016000815260200160008152602001600081526020016000151581525090565b8152602001906001900390816128a45790505b50905060015b600a548111612a2357600460008281526020019081526020016000206040518060c00160405290816000820154815260200160018201805461293990615c84565b80601f016020809104026020016040519081016040528092919081815260200182805461296590615c84565b80156129b25780601f10612987576101008083540402835291602001916129b2565b820191906000526020600020905b81548152906001019060200180831161299557829003601f168201915b505050918352505060028201546020820152600382015460408201526004820154606082015260059091015460ff161515608090910152826129f5600184615e79565b81518110612a0557612a05615c6e565b60200260200101819052508080612a1b90615cb8565b9150506128f8565b50919050565b612a6c6040518060e00160405280600081526020016060815260200160608152602001600080191681526020016060815260200160008152602001606081525090565b600082604051602001612a7f9190615e5d565b60408051601f198184030181529190528051602090910120905060015b600b548111612d9d57600081815260056020526040908190209051612ac49160020190615e51565b60405180910390208580519060200120148015612af95750600081815260056020526040902060030154612af9908390614af0565b15612d8b57600560008281526020019081526020016000206040518060e001604052908160008201548152602001600182018054612b3690615c84565b80601f0160208091040260200160405190810160405280929190818152602001828054612b6290615c84565b8015612baf5780601f10612b8457610100808354040283529160200191612baf565b820191906000526020600020905b815481529060010190602001808311612b9257829003601f168201915b50505050508152602001600282018054612bc890615c84565b80601f0160208091040260200160405190810160405280929190818152602001828054612bf490615c84565b8015612c415780601f10612c1657610100808354040283529160200191612c41565b820191906000526020600020905b815481529060010190602001808311612c2457829003601f168201915b5050505050815260200160038201548152602001600482018054612c6490615c84565b80601f0160208091040260200160405190810160405280929190818152602001828054612c9090615c84565b8015612cdd5780601f10612cb257610100808354040283529160200191612cdd565b820191906000526020600020905b815481529060010190602001808311612cc057829003601f168201915b5050505050815260200160058201548152602001600682018054612d0090615c84565b80601f0160208091040260200160405190810160405280929190818152602001828054612d2c90615c84565b8015612d795780601f10612d4e57610100808354040283529160200191612d79565b820191906000526020600020905b815481529060010190602001808311612d5c57829003601f168201915b5050505050815250509250505061142a565b80612d9581615cb8565b915050612a9c565b50506040805160e08101825260008082528251602080820185528282528084019190915283518082018552828152838501526060830182905283518082018552828152608084015260a083018290528351908101909352825260c08101919091529392505050565b606060006007546001600160401b03811115612e2357612e2361506d565b604051908082528060200260200182016040528015612e7f57816020015b612e6c6040518060800160405280600081526020016060815260200160608152602001600081525090565b815260200190600190039081612e415790505b50905060015b6007548111612a235760008181526001602081815260409283902083516080810190945280548452918201805491840191612ebf90615c84565b80601f0160208091040260200160405190810160405280929190818152602001828054612eeb90615c84565b8015612f385780601f10612f0d57610100808354040283529160200191612f38565b820191906000526020600020905b815481529060010190602001808311612f1b57829003601f168201915b5050505050815260200160028201805480602002602001604051908101604052809291908181526020016000905b8282101561335457838290600052602060002090600902016040518061012001604052908160008201548152602001600182018054612fa490615c84565b80601f0160208091040260200160405190810160405280929190818152602001828054612fd090615c84565b801561301d5780601f10612ff25761010080835404028352916020019161301d565b820191906000526020600020905b81548152906001019060200180831161300057829003601f168201915b505050505081526020016002820154815260200160038201805480602002602001604051908101604052809291908181526020016000905b828210156132835783829060005260206000209060090201604051806101200160405290816000820154815260200160018201805461309390615c84565b80601f01602080910402602001604051908101604052809291908181526020018280546130bf90615c84565b801561310c5780601f106130e15761010080835404028352916020019161310c565b820191906000526020600020905b8154815290600101906020018083116130ef57829003601f168201915b5050505050815260200160028201805461312590615c84565b80601f016020809104026020016040519081016040528092919081815260200182805461315190615c84565b801561319e5780601f106131735761010080835404028352916020019161319e565b820191906000526020600020905b81548152906001019060200180831161318157829003601f168201915b505050918352505060038201546020820152600482015460408201526005820154606082015260068201546080820152600782015460ff16151560a082015260088201805460c0909201916131f290615c84565b80601f016020809104026020016040519081016040528092919081815260200182805461321e90615c84565b801561326b5780601f106132405761010080835404028352916020019161326b565b820191906000526020600020905b81548152906001019060200180831161324e57829003601f168201915b50505050508152505081526020019060010190613055565b505050508152602001600482015481526020016005820154815260200160068201548152602001600782015481526020016008820180546132c390615c84565b80601f01602080910402602001604051908101604052809291908181526020018280546132ef90615c84565b801561333c5780601f106133115761010080835404028352916020019161333c565b820191906000526020600020905b81548152906001019060200180831161331f57829003601f168201915b50505050508152505081526020019060010190612f66565b505050508152602001600382015481525050826001836133749190615e79565b8151811061338457613384615c6e565b6020026020010181905250808061339a90615cb8565b915050612e85565b6133aa614b68565b60008381526001602052604090206133c0614b68565b60005b60028301548110156137fb57848360020182815481106133e5576133e5615c6e565b906000526020600020906009020160000154036137e95782600201818154811061341157613411615c6e565b9060005260206000209060090201604051806101200160405290816000820154815260200160018201805461344590615c84565b80601f016020809104026020016040519081016040528092919081815260200182805461347190615c84565b80156134be5780601f10613493576101008083540402835291602001916134be565b820191906000526020600020905b8154815290600101906020018083116134a157829003601f168201915b505050505081526020016002820154815260200160038201805480602002602001604051908101604052809291908181526020016000905b828210156137245783829060005260206000209060090201604051806101200160405290816000820154815260200160018201805461353490615c84565b80601f016020809104026020016040519081016040528092919081815260200182805461356090615c84565b80156135ad5780601f10613582576101008083540402835291602001916135ad565b820191906000526020600020905b81548152906001019060200180831161359057829003601f168201915b505050505081526020016002820180546135c690615c84565b80601f01602080910402602001604051908101604052809291908181526020018280546135f290615c84565b801561363f5780601f106136145761010080835404028352916020019161363f565b820191906000526020600020905b81548152906001019060200180831161362257829003601f168201915b505050918352505060038201546020820152600482015460408201526005820154606082015260068201546080820152600782015460ff16151560a082015260088201805460c09092019161369390615c84565b80601f01602080910402602001604051908101604052809291908181526020018280546136bf90615c84565b801561370c5780601f106136e15761010080835404028352916020019161370c565b820191906000526020600020905b8154815290600101906020018083116136ef57829003601f168201915b505050505081525050815260200190600101906134f6565b5050505081526020016004820154815260200160058201548152602001600682015481526020016007820154815260200160088201805461376490615c84565b80601f016020809104026020016040519081016040528092919081815260200182805461379090615c84565b80156137dd5780601f106137b2576101008083540402835291602001916137dd565b820191906000526020600020905b8154815290600101906020018083116137c057829003601f168201915b50505050508152505091505b806137f381615cb8565b9150506133c3565b50949350505050565b6001600090815260056020527f1471eb6eb2c5e789fc3de43f8ce62938c7d1836ec861730447e2ada8fd81017b5481036138785760405162461bcd60e51b81526020600482015260156024820152744e6f20766f74657220696e20746865206c6973742160581b60448201526064016113a6565b60015b600b54811161148d576000818152600560205260409081902090516138a39160060190615e51565b60405180910390208380519060200120036138e957600081815260056020819052604082206001918101919091556138e091600690910190614c02565b50600192915050565b806138f381615cb8565b91505061387b565b600082815260016020525b60008381526001602052604090206002015481101561134e57600083815260016020526040902060020180548391908390811061394557613945615c6e565b90600052602060002090600902016000015403613af357600083815260016020526040812060020180548390811061397f5761397f615c6e565b90600052602060002090600902016003016000815481106139a2576139a2615c6e565b9060005260206000209060090201905060005b60008581526001602081905260409091206002018054859081106139db576139db615c6e565b9060005260206000209060090201600301805490506139fa9190615e79565b811015613ae3576000858152600160205260409020600201805484908110613a2457613a24615c6e565b9060005260206000209060090201600301816001613a429190615c5b565b81548110613a5257613a52615c6e565b90600052602060002090600902016006015482600601541015613ad1576000858152600160205260409020600201805484908110613a9257613a92615c6e565b9060005260206000209060090201600301816001613ab09190615c5b565b81548110613ac057613ac0615c6e565b906000526020600020906009020191505b80613adb81615cb8565b9150506139b5565b50600701805460ff191660011790555b80613afd81615cb8565b915050613906565b6000858152600160208190526040822060098054919392918390613b2a908490615c5b565b918290555060028401805460018181018355600092835260209092206009909102018281559193509091508101613b618882615d1f565b5060088101613b708782615d1f565b50600281019790975550506001600786015560058501919091556006909301929092555050565b600081815260016020819052604082208281559190613bb890830182614c02565b613bc6600283016000614c3f565b6003820160009055505050565b60005b600084815260016020526040902060020154811015611336576000848152600160205260409020600201805484919083908110613c1557613c15615c6e565b90600052602060002090600902016000015403613e2b576000848152600160205260408120600201805483908110613c4f57613c4f615c6e565b9060005260206000209060090201905060005b6003820154811015613e285783826003018281548110613c8457613c84615c6e565b90600052602060002090600902016000015403613e1657600482018054906000613cad83615e8c565b9091555050600382018054613cc490600190615e79565b81548110613cd457613cd4615c6e565b9060005260206000209060090201826003018281548110613cf757613cf7615c6e565b600091825260209091208254600990920201908155600180820190613d1e90840182615ea3565b50600281810190613d3190840182615ea3565b5060038281015490820155600480830154908201556005808301549082015560068083015490820155600780830154908201805460ff191660ff9092161515919091179055600880820190613d8890840182615ea3565b50505060038201805480613d9e57613d9e615f75565b60008281526020812060096000199093019283020181815590613dc46001830182614c02565b613dd2600283016000614c02565b60006003830181905560048301819055600583018190556006830181905560078301805460ff19169055613e0a906008840190614c02565b50509055505050505050565b80613e2081615cb8565b915050613c62565b50505b80613e3581615cb8565b915050613bd6565b60005b60008381526001602052604090206002015481101561134e576000838152600160205260409020600201805483919083908110613e7f57613e7f615c6e565b9060005260206000209060090201600001540361401b57600083815260016020819052604090912060020180549091613eb791615e79565b81548110613ec757613ec7615c6e565b9060005260206000209060090201600160008581526020019081526020016000206002018281548110613efc57613efc615c6e565b600091825260209091208254600990920201908155600180820190613f2390840182615ea3565b50600282015481600201556003820181600301908054613f44929190614c60565b506004820154816004015560058201548160050155600682015481600601556007820154816007015560088201816008019081613f819190615ea3565b5050506000838152600160205260409020600201805480613fa457613fa4615f75565b60008281526020812060096000199093019283020181815590613fca6001830182614c02565b6002820160009055600382016000613fe29190614d37565b60048201600090556005820160009055600682016000905560078201600090556008820160006140129190614c02565b50509055505050565b8061402581615cb8565b915050613e40565b6005602052600090815260409020805460018201805491929161404f90615c84565b80601f016020809104026020016040519081016040528092919081815260200182805461407b90615c84565b80156140c85780601f1061409d576101008083540402835291602001916140c8565b820191906000526020600020905b8154815290600101906020018083116140ab57829003601f168201915b5050505050908060020180546140dd90615c84565b80601f016020809104026020016040519081016040528092919081815260200182805461410990615c84565b80156141565780601f1061412b57610100808354040283529160200191614156565b820191906000526020600020905b81548152906001019060200180831161413957829003601f168201915b50505050509080600301549080600401805461417190615c84565b80601f016020809104026020016040519081016040528092919081815260200182805461419d90615c84565b80156141ea5780601f106141bf576101008083540402835291602001916141ea565b820191906000526020600020905b8154815290600101906020018083116141cd57829003601f168201915b50505050509080600501549080600601805461420590615c84565b80601f016020809104026020016040519081016040528092919081815260200182805461423190615c84565b801561427e5780601f106142535761010080835404028352916020019161427e565b820191906000526020600020905b81548152906001019060200180831161426157829003601f168201915b5050505050905087565b60008381526001602052604081205481036142df5760405162461bcd60e51b815260206004820152601760248201527610d85d1959dbdc9e48191bd95cc81b9bdd08195e1a5cdd604a1b60448201526064016113a6565b60006142eb85856116ae565b905060005b815181101561433a578382828151811061430c5761430c615c6e565b6020026020010151606001510361432857600192505050612271565b8061433281615cb8565b9150506142f0565b50600095945050505050565b61434f82611430565b6143925760405162461bcd60e51b81526020600482015260146024820152735573657220646f6573206e6f742065786973747360601b60448201526064016113a6565b6000816040516020016143a59190615e5d565b60408051601f198184030181529190528051602090910120905060015b600b548111611336576000818152600560205260409081902090516143ea9160010190615e51565b60405180910390208480519060200120036144235760008181526005602052604081206003810184905561442391600690910190614c02565b8061442d81615cb8565b9150506143c2565b60606000600b546001600160401b038111156144535761445361506d565b6040519080825280602002602001820160405280156144c757816020015b6144b46040518060e00160405280600081526020016060815260200160608152602001600080191681526020016060815260200160008152602001606081525090565b8152602001906001900390816144715790505b50905060015b600b548111612a2357600560008281526020019081526020016000206040518060e00160405290816000820154815260200160018201805461450e90615c84565b80601f016020809104026020016040519081016040528092919081815260200182805461453a90615c84565b80156145875780601f1061455c57610100808354040283529160200191614587565b820191906000526020600020905b81548152906001019060200180831161456a57829003601f168201915b505050505081526020016002820180546145a090615c84565b80601f01602080910402602001604051908101604052809291908181526020018280546145cc90615c84565b80156146195780601f106145ee57610100808354040283529160200191614619565b820191906000526020600020905b8154815290600101906020018083116145fc57829003601f168201915b505050505081526020016003820154815260200160048201805461463c90615c84565b80601f016020809104026020016040519081016040528092919081815260200182805461466890615c84565b80156146b55780601f1061468a576101008083540402835291602001916146b5565b820191906000526020600020905b81548152906001019060200180831161469857829003601f168201915b50505050508152602001600582015481526020016006820180546146d890615c84565b80601f016020809104026020016040519081016040528092919081815260200182805461470490615c84565b80156147515780601f1061472657610100808354040283529160200191614751565b820191906000526020600020905b81548152906001019060200180831161473457829003601f168201915b505050505081525050826001836147689190615e79565b8151811061477857614778615c6e565b6020026020010181905250808061478e90615cb8565b9150506144cd565b60015b600b548111614826576000818152600560205260409081902090516147c19160020190615e51565b60405180910390208580519060200120036148145760405162461bcd60e51b81526020600482015260136024820152725573657220616c72656164792065786973747360681b60448201526064016113a6565b8061481e81615cb8565b915050614799565b506001600b600082825461483a9190615c5b565b9091555050604051600090614853908590602001615e5d565b60408051601f198184030181529181528151602092830120600b546000818152600590945291909220908155909150600181016148908882615d1f565b506002810161489f8782615d1f565b5060038101829055600481016148b58582615d1f565b5060006005820155600681016148cb8482615d1f565b50600b547f56729c826fe77eec184059336ced13d9ef79d10126212c90a4d2b724391e14e2886040516148fe919061559f565b60405180910390a250505050505050565b60005b600087815260016020526040902060020154811015610e3757600087815260016020526040902060020180548791908390811061495157614951615c6e565b906000526020600020906009020160000154036149ce57600087815260016020526040812060020180548390811061498b5761498b615c6e565b90600052602060002090600902019050858160010190816149ac9190615d1f565b50600881016149bb8682615d1f565b5060058101849055600601829055610e37565b806149d881615cb8565b915050614912565b6000838152600160205260408120600201905b8154811015614ae95783828281548110614a0f57614a0f615c6e565b90600052602060002090600902016000015403614ad7576000828281548110614a3a57614a3a615c6e565b9060005260206000209060090201600301905060005b8154811015614ad45784828281548110614a6c57614a6c615c6e565b90600052602060002090600902016000015403614ac2576001828281548110614a9757614a97615c6e565b90600052602060002090600902016006016000828254614ab79190615c5b565b90915550614ad49050565b80614acc81615cb8565b915050614a50565b50505b80614ae181615cb8565b9150506149f3565b5050505050565b6000805b6020811015614b5e57828160208110614b0f57614b0f615c6e565b1a60f81b6001600160f81b031916848260208110614b2f57614b2f615c6e565b1a60f81b6001600160f81b03191614614b4c57600091505061142a565b80614b5681615cb8565b915050614af4565b5060019392505050565b6040518061012001604052806000815260200160608152602001600081526020016060815260200160008152602001600081526020016000815260200160008152602001606081525090565b60405180610120016040528060008152602001606081526020016060815260200160008152602001600081526020016000815260200160008152602001600015158152602001606081525090565b508054614c0e90615c84565b6000825580601f10614c1e575050565b601f016020900490600052602060002090810190614c3c9190614d58565b50565b5080546000825560090290600052602060002090810190614c3c9190614d6d565b828054828255906000526020600020906009028101928215614d275760005260206000209160090282015b82811115614d2757825482558282600180820190614cab90840182615ea3565b50600281810190614cbe90840182615ea3565b5060038281015490820155600480830154908201556005808301549082015560068083015490820155600780830154908201805460ff191660ff9092161515919091179055600880820190614d1590840182615ea3565b50505091600901919060090190614c8b565b50614d33929150614dd8565b5090565b5080546000825560090290600052602060002090810190614c3c9190614dd8565b5b80821115614d335760008155600101614d59565b80821115614d33576000808255614d876001830182614c02565b6002820160009055600382016000614d9f9190614d37565b6004820160009055600582016000905560068201600090556007820160009055600882016000614dcf9190614c02565b50600901614d6d565b80821115614d33576000808255614df26001830182614c02565b614e00600283016000614c02565b60006003830181905560048301819055600583018190556006830181905560078301805460ff19169055614e38906008840190614c02565b50600901614dd8565b60005b83811015614e5c578181015183820152602001614e44565b50506000910152565b60008151808452614e7d816020860160208601614e41565b601f01601f19169290920160200192915050565b6000610120825184526020830151816020860152614eb182860182614e65565b91505060408301518482036040860152614ecb8282614e65565b915050606083015160608501526080830151608085015260a083015160a085015260c083015160c085015260e0830151614f0960e086018215159052565b506101008084015185830382870152614f228382614e65565b9695505050505050565b600082825180855260208086019550808260051b84010181860160005b84811015614f7757601f19868403018952614f65838351614e91565b98840198925090830190600101614f49565b5090979650505050505050565b6000610120825184526020830151816020860152614fa482860182614e65565b9150506040830151604085015260608301518482036060860152614fc88282614f2c565b9150506080830151608085015260a083015160a085015260c083015160c085015260e083015160e08501526101008084015185830382870152614f228382614e65565b6000602080830181845280855180835260408601915060408160051b870101925083870160005b8281101561506057603f1988860301845261504e858351614f84565b94509285019290850190600101615032565b5092979650505050505050565b634e487b7160e01b600052604160045260246000fd5b60405161012081016001600160401b03811182821017156150a6576150a661506d565b60405290565b604051601f8201601f191681016001600160401b03811182821017156150d4576150d461506d565b604052919050565b600082601f8301126150ed57600080fd5b81356001600160401b038111156151065761510661506d565b615119601f8201601f19166020016150ac565b81815284602083860101111561512e57600080fd5b816020850160208301376000918101602001919091529392505050565b60006020828403121561515d57600080fd5b81356001600160401b0381111561517357600080fd5b61517f848285016150dc565b949350505050565b6000602080830181845280855180835260408601915060408160051b870101925083870160005b8281101561506057603f198886030184526151ca858351614e91565b945092850192908501906001016151ae565b600080600080600080600060e0888a0312156151f757600080fd5b8735965060208801356001600160401b038082111561521557600080fd5b6152218b838c016150dc565b975060408a013591508082111561523757600080fd5b6152438b838c016150dc565b965060608a0135955060808a0135945060a08a0135935060c08a013591508082111561526e57600080fd5b5061527b8a828b016150dc565b91505092959891949750929550565b60006020828403121561529c57600080fd5b5035919050565b600080604083850312156152b657600080fd5b82356001600160401b03808211156152cd57600080fd5b6152d9868387016150dc565b935060208501359150808211156152ef57600080fd5b506152fc858286016150dc565b9150509250929050565b6000806040838503121561531957600080fd5b50508035926020909101359150565b8035801515811461533857600080fd5b919050565b600082601f83011261534e57600080fd5b813560206001600160401b038083111561536a5761536a61506d565b8260051b6153798382016150ac565b938452858101830193838101908886111561539357600080fd5b84880192505b8583101561549e578235848111156153b15760008081fd5b8801610120818b03601f19018113156153ca5760008081fd5b6153d2615083565b878301358152604080840135888111156153ec5760008081fd5b6153fa8e8b838801016150dc565b8a84015250606080850135898111156154135760008081fd5b6154218f8c838901016150dc565b83850152506080915081850135818401525060a0808501358284015260c0915081850135818401525060e080850135828401526101009150615464828601615328565b9083015291830135918783111561547b5760008081fd5b6154898d8a858701016150dc565b90820152845250509184019190840190615399565b98975050505050505050565b6000602082840312156154bc57600080fd5b81356001600160401b03808211156154d357600080fd5b9083019061012082860312156154e857600080fd5b6154f0615083565b8235815260208301358281111561550657600080fd5b615512878286016150dc565b6020830152506040830135604082015260608301358281111561553457600080fd5b6155408782860161533d565b6060830152506080830135608082015260a083013560a082015260c083013560c082015260e083013560e0820152610100808401358381111561558257600080fd5b61558e888287016150dc565b918301919091525095945050505050565b6020815260006122716020830184614e65565b8051825260006020808301516080828601526155d16080860182614e65565b9050604084015185820360408701528181518084528484019150848160051b850101858401935060005b8281101561562957601f19868303018452615617828651614f84565b948701949387019391506001016155fb565b50606088015160608a015280965050505050505092915050565b60208152600061227160208301846155b2565b60008060006060848603121561566b57600080fd5b505081359360208301359350604090920135919050565b6020815260006122716020830184614e91565b86815260c0602082015260006156ae60c0830188614e65565b905085604083015284606083015283608083015282151560a0830152979650505050505050565b60008060008060008060c087890312156156ee57600080fd5b863595506020870135945060408701356001600160401b038082111561571357600080fd5b61571f8a838b016150dc565b9550606089013591508082111561573557600080fd5b6157418a838b016150dc565b94506080890135935060a089013591508082111561575e57600080fd5b5061576b89828a016150dc565b9150509295509295509295565b6000806000806080858703121561578e57600080fd5b84356001600160401b038111156157a457600080fd5b6157b0878288016150dc565b97602087013597506040870135966060013595509350505050565b600080604083850312156157de57600080fd5b8235915060208301356001600160401b038111156157fb57600080fd5b6152fc858286016150dc565b60006020808301818452808551808352604092508286019150828160051b87010184880160005b8381101561589a57603f19898403018552815160c08151855288820151818a87015261585c82870182614e65565b838a0151878b0152606080850151908801526080808501519088015260a093840151151593909601929092525050938601939086019060010161582e565b509098975050505050505050565b805182526000602082015160e060208501526158c760e0850182614e65565b9050604083015184820360408601526158e08282614e65565b91505060608301516060850152608083015184820360808601526159048282614e65565b91505060a083015160a085015260c083015184820360c08601526159288282614e65565b95945050505050565b60208152600061227160208301846158a8565b6000602080830181845280855180835260408601915060408160051b870101925083870160005b8281101561506057603f198886030184526159878583516155b2565b9450928501929085019060010161596b565b6020815260006122716020830184614f84565b600080600080600060a086880312156159c457600080fd5b8535945060208601356001600160401b03808211156159e257600080fd5b6159ee89838a016150dc565b95506040880135915080821115615a0457600080fd5b50615a11888289016150dc565b9598949750949560608101359550608001359392505050565b87815260e060208201526000615a4360e0830189614e65565b8281036040840152615a558189614e65565b90508660608401528281036080840152615a6f8187614e65565b90508460a084015282810360c0840152615a898185614e65565b9a9950505050505050505050565b6000602080830181845280855180835260408601915060408160051b870101925083870160005b8281101561506057603f19888603018452615ada8583516158a8565b94509285019290850190600101615abe565b600080600080600060a08688031215615b0457600080fd5b85356001600160401b0380821115615b1b57600080fd5b615b2789838a016150dc565b96506020880135915080821115615b3d57600080fd5b615b4989838a016150dc565b95506040880135915080821115615b5f57600080fd5b615b6b89838a016150dc565b94506060880135915080821115615b8157600080fd5b615b8d89838a016150dc565b93506080880135915080821115615ba357600080fd5b50615bb0888289016150dc565b9150509295509295909350565b60008060008060008060c08789031215615bd657600080fd5b863595506020870135945060408701356001600160401b0380821115615bfb57600080fd5b615c078a838b016150dc565b95506060890135915080821115615c1d57600080fd5b50615c2a89828a016150dc565b9350506080870135915060a087013590509295509295509295565b634e487b7160e01b600052601160045260246000fd5b8082018082111561142a5761142a615c45565b634e487b7160e01b600052603260045260246000fd5b600181811c90821680615c9857607f821691505b602082108103612a2357634e487b7160e01b600052602260045260246000fd5b600060018201615cca57615cca615c45565b5060010190565b601f82111561134e57600081815260208120601f850160051c81016020861015615cf85750805b601f850160051c820191505b81811015615d1757828155600101615d04565b505050505050565b81516001600160401b03811115615d3857615d3861506d565b615d4c81615d468454615c84565b84615cd1565b602080601f831160018114615d815760008415615d695750858301515b600019600386901b1c1916600185901b178555615d17565b600085815260208120601f198616915b82811015615db057888601518255948401946001909101908401615d91565b5085821015615dce5787850151600019600388901b60f8161c191681555b5050505050600190811b01905550565b60008154615deb81615c84565b60018281168015615e035760018114615e1857615e47565b60ff1984168752821515830287019450615e47565b8560005260208060002060005b85811015615e3e5781548a820152908401908201615e25565b50505082870194505b5050505092915050565b60006122718284615dde565b60008251615e6f818460208701614e41565b9190910192915050565b8181038181111561142a5761142a615c45565b600081615e9b57615e9b615c45565b506000190190565b818103615eae575050565b615eb88254615c84565b6001600160401b03811115615ecf57615ecf61506d565b615edd81615d468454615c84565b6000601f821160018114615f115760008315615ef95750848201545b600019600385901b1c1916600184901b178455614ae9565b600085815260209020601f19841690600086815260209020845b83811015615f4b5782860154825560019586019590910190602001615f2b565b5085831015615dce5793015460001960f8600387901b161c19169092555050600190811b01905550565b634e487b7160e01b600052603160045260246000fdfea2646970667358221220a02317d71e16990b7c8ac95da1f71d85b66b80a5c71cbd06ae68a787d9d36d8464736f6c63430008130033",
  "immutableReferences": {},
  "source": "// SPDX-License-Identifier: MIT\r\npragma solidity >=0.4.22 <0.9.0;\r\n\r\ncontract VotingSystem {\r\n    address public owner;\r\n    struct Voter {\r\n        uint256 id;\r\n        string key;\r\n        string email;\r\n        bytes32 password;\r\n        string role;\r\n        uint256 status; // 0: no verify, 1: verified, 2:banned\r\n        string token;\r\n    }\r\n\r\n    struct Event {\r\n        uint256 eventId;\r\n        string eventName;\r\n        uint256 categoryId;\r\n        Candidate[] candidates;\r\n        uint256 candidateCount;\r\n        uint256 startDateTime;\r\n        uint256 endDateTime;\r\n        uint256 status; // 1: Upcoming, 2: In Progress, 3: Completed, 4 Cancel\r\n        string eventDesc;\r\n    }\r\n\r\n    struct Category {\r\n        uint256 categoryId;\r\n        string categoryName;\r\n        Event[] events; //category has many event\r\n        uint256 status;\r\n    }\r\n\r\n    struct Candidate {\r\n        uint256 id;\r\n        string name;\r\n        string description;\r\n        uint256 studentId;\r\n        uint256 categoryId;\r\n        uint256 eventId;\r\n        uint256 voteCount;\r\n        bool win;\r\n        string imageFileName;\r\n    }\r\n\r\n    struct voteEventStruct {\r\n        uint256 id;\r\n        string voterKey;\r\n        uint256 categoryId;\r\n        uint256 eventId;\r\n        uint256 votedCandidateId;\r\n        bool voted;\r\n    }\r\n\r\n    event CategoryAdded(uint256 indexed categoryId, string categoryName);\r\n\r\n    event VoterAdded(uint256 indexed voterId, string voter_key);\r\n    event EventAdded(uint256 indexed eventId, string eventName);\r\n\r\n    event CandidateAdded(uint256 indexed eventId, string eventName);\r\n\r\n    event VoteEvent(\r\n        string indexed _voterKey,\r\n        string indexed categoryEvent,\r\n        uint256 indexed candidate\r\n    );\r\n\r\n    mapping(uint256 => Category) categories;\r\n    mapping(uint256 => Event) events;\r\n    mapping(uint256 => Candidate) candidates;\r\n    mapping(uint256 => voteEventStruct) public voteEvents;\r\n    mapping(uint256 => Voter) public voters;\r\n    mapping(string => bool) private usedImageFileNames;\r\n\r\n    uint256 categoryCount;\r\n    uint256 candidateCount;\r\n    uint256 eventCount;\r\n    uint256 voteEventCount;\r\n    uint256 voterCount;\r\n\r\n    constructor() {\r\n        owner = msg.sender;\r\n        addVoter(\"\", \"superadmin@gmail.com\", \"SuperAdmin!123\", \"S\", \"\");\r\n        addVoter(\"acvzxcgasdf\", \"voter@gmail.com\", \"Abc_1234\", \"U\", \"\");\r\n    }\r\n\r\n    function addVoter(\r\n        string memory _key,\r\n        string memory _email,\r\n        string memory _password,\r\n        string memory _role,\r\n        string memory _token\r\n    ) public {\r\n        for (uint256 i = 1; i <= voterCount; i++) {\r\n            require(\r\n                keccak256(bytes(_email)) != keccak256(bytes(voters[i].email)),\r\n                \"User already exists\"\r\n            );\r\n        }\r\n\r\n        // total category plus 1, use it as the category's id\r\n        voterCount += 1;\r\n\r\n        bytes32 hashedPassword = keccak256(abi.encodePacked(_password));\r\n\r\n        // add the category details in the category list\r\n        Voter storage voter = voters[voterCount];\r\n        voter.id = voterCount;\r\n        voter.key = _key;\r\n        voter.email = _email;\r\n        voter.password = hashedPassword;\r\n        voter.role = _role;\r\n        voter.status = 0;\r\n        voter.token = _token;\r\n\r\n        // emit the category added event\r\n        emit VoterAdded(voterCount, _key);\r\n    }\r\n\r\n    // function loginVoter(string memory _email, string memory _password)\r\n    //     public\r\n    //     view\r\n    //     returns (Voter memory)\r\n    // {\r\n    //     Voter memory voterFound = getVoterByEmailPassword(_email, _password);\r\n    //     require(voterFound.id != 0, \"Your email or password is incorrect!\");\r\n    //     require(\r\n    //         voterFound.status == 1,\r\n    //         \"Your account was banned or not verify!\"\r\n    //     );\r\n    //     return voterFound;\r\n    // }\r\n\r\n    function compareHashesPassword(bytes32 inputPassword, bytes32 password)\r\n        internal\r\n        pure\r\n        returns (bool)\r\n    {\r\n        for (uint256 i = 0; i < 32; i++) {\r\n            if (inputPassword[i] != password[i]) {\r\n                return false;\r\n            }\r\n        }\r\n        return true;\r\n    }\r\n\r\n    function getVoterByEmailPassword(\r\n        string memory _email,\r\n        string memory _password\r\n    ) public view returns (Voter memory) {\r\n        bytes32 hashedPassword = keccak256(abi.encodePacked(_password));\r\n        for (uint256 i = 1; i <= voterCount; i++) {\r\n            if (\r\n                keccak256(bytes(_email)) == keccak256(bytes(voters[i].email)) &&\r\n                compareHashesPassword(hashedPassword, voters[i].password)\r\n            ) {\r\n                return voters[i];\r\n            }\r\n        }\r\n\r\n        // Event not found in the specified category\r\n        return Voter(0, \"\", \"\", \"\", \"\", 0, \"\");\r\n    }\r\n\r\n    function getVoterEmailById(uint256 _voterId)\r\n        public\r\n        view\r\n        returns (string memory)\r\n    {\r\n        require(_voterId > 0 && _voterId <= voterCount, \"Invalid voter ID\");\r\n        return voters[_voterId].email;\r\n    }\r\n\r\n    function updateVoterPassword(string memory _key, string memory _password)\r\n        public\r\n    {\r\n        require(isVoterExist(_key), \"User does not exists\");\r\n\r\n        bytes32 hashedPassword = keccak256(abi.encodePacked(_password));\r\n        for (uint256 i = 1; i <= voterCount; i++) {\r\n            if (keccak256(bytes(_key)) == keccak256(bytes(voters[i].key))) {\r\n                voters[i].password = hashedPassword;\r\n                delete voters[i].token;\r\n            }\r\n        }\r\n    }\r\n\r\n    function verifyVoterAccount(string memory _token) public returns (bool) {\r\n        require(voters[1].id != 0, \"No voter in the list!\");\r\n        for (uint256 i = 1; i <= voterCount; i++) {\r\n            if (keccak256(bytes(_token)) == keccak256(bytes(voters[i].token))) {\r\n                voters[i].status = 1;\r\n                delete voters[i].token;\r\n                return true;\r\n            }\r\n        }\r\n        return false;\r\n    }\r\n\r\n    //\r\n    //     function getVoterStatus(string memory _email, string memory _password)\r\n    //         public\r\n    //         view\r\n    //         returns (uint256 status)\r\n    //     {\r\n    //         Voter memory voterFound = getVoterByEmailPassword(_email, _password);\r\n    //         require(voterFound.id != 0, \"Your email or password is incorrect!\");\r\n    //         return voterFound.status;\r\n    //     }\r\n\r\n    function isVoterExist(string memory _key) public view returns (bool) {\r\n        for (uint256 i = 1; i <= voterCount; i++) {\r\n            if (keccak256(bytes(_key)) == keccak256(bytes(voters[i].key))) {\r\n                return true;\r\n            }\r\n        }\r\n        return false;\r\n    }\r\n\r\n    function getAllVoter() public view returns (Voter[] memory) {\r\n        Voter[] memory allVoters = new Voter[](voterCount);\r\n        for (uint256 i = 1; i <= voterCount; i++) {\r\n            allVoters[i - 1] = voters[i];\r\n        }\r\n        return allVoters;\r\n    }\r\n\r\n    /* function editUserStatus(uint256 _id, uint256 _status) public {\r\n        require(_id > 0 && _id <= voterCount, \"User does not exist.\");\r\n\r\n        voters[_id].status = _status;\r\n    } */\r\n\r\n    // Function to update the token of a voter based on their email\r\n    function updateVoterTokenByEmail(\r\n        string memory _email,\r\n        string memory _newToken\r\n    ) public {\r\n        for (uint256 i = 1; i <= voterCount; i++) {\r\n            // Update the token if the email matches\r\n            if (keccak256(bytes(_email)) == keccak256(bytes(voters[i].email))) {\r\n                voters[i].token = _newToken;\r\n                break;\r\n            }\r\n        }\r\n    }\r\n\r\n    function addCategory(string memory _categoryName) public {\r\n        // total category plus 1, use it as the category's id\r\n        categoryCount += 1;\r\n\r\n        // add the category details in the category list\r\n        Category storage category = categories[categoryCount];\r\n        category.categoryName = _categoryName;\r\n        category.categoryId = categoryCount;\r\n        category.status = 1;\r\n\r\n        // emit the category added event\r\n        emit CategoryAdded(categoryCount, _categoryName);\r\n    }\r\n\r\n    function updateCategory(uint256 _categoryId, string memory _categoryName)\r\n        public\r\n    {\r\n        categories[_categoryId].categoryName = _categoryName;\r\n    }\r\n\r\n    function deleteCategory(uint256 _categoryId) public {\r\n        // If no associated events, candidates, or vote events, delete the category\r\n        delete categories[_categoryId];\r\n    }\r\n\r\n    function getAllCategory() public view returns (Category[] memory) {\r\n        //Candidate[] memory candidatesFound = new Candidate[](candidateCount);\r\n        Category[] memory categoriesFound = new Category[](categoryCount);\r\n        // Iterate through all stored structs\r\n        for (uint256 i = 1; i <= categoryCount; i++) {\r\n            categoriesFound[i - 1] = categories[i];\r\n        }\r\n\r\n        return categoriesFound;\r\n    }\r\n\r\n    function getCategoryById(uint256 _categoryId)\r\n        public\r\n        view\r\n        returns (Category memory)\r\n    {\r\n        return categories[_categoryId];\r\n    }\r\n\r\n    function getAllEvent() public view returns (Event[] memory) {\r\n        // Initialize the array with the correct size\r\n        Event[] memory eventFound = new Event[](eventCount);\r\n        uint256 count = 0;\r\n\r\n        // Iterate through all categories and events\r\n        for (uint256 i = 0; i < categoryCount; i++) {\r\n            for (uint256 j = 0; j < categories[i + 1].events.length; j++) {\r\n                eventFound[count] = categories[i + 1].events[j];\r\n                count += 1;\r\n            }\r\n        }\r\n\r\n        return eventFound;\r\n    }\r\n\r\n    function addEvent(\r\n        uint256 _categoryId,\r\n        string memory _eventName,\r\n        string memory _eventDesc,\r\n        uint256 _startDateTime,\r\n        uint256 _endDateTime\r\n    ) public {\r\n        // find out the category in list by using the paramerter category name\r\n        Category storage category = categories[_categoryId];\r\n\r\n        // add the event in the category list\r\n        uint256 eventId = eventCount += 1;\r\n\r\n        Event storage newEvent = category.events.push();\r\n        newEvent.eventId = eventId;\r\n        newEvent.eventName = _eventName;\r\n        newEvent.eventDesc = _eventDesc;\r\n        newEvent.categoryId = _categoryId;\r\n        newEvent.status = 1;\r\n        newEvent.startDateTime = _startDateTime;\r\n        newEvent.endDateTime = _endDateTime;\r\n    }\r\n\r\n    /*\r\n    function isEventExists(uint256 _categoryId, string memory _eventName)\r\n        public\r\n        view\r\n        returns (bool)\r\n    {\r\n        // Check if the category exists\r\n        require(\r\n            categories[_categoryId].categoryId != 0,\r\n            \"Category does not exist\"\r\n        );\r\n\r\n        // Loop through the events in the specified category\r\n        for (uint256 i = 0; i < categories[_categoryId].events.length; i++) {\r\n            if (\r\n                keccak256(bytes(categories[_categoryId].events[i].eventName)) ==\r\n                keccak256(bytes(_eventName))\r\n            ) {\r\n                // Event found\r\n                return true;\r\n            }\r\n        }\r\n        // Event not found in the specified category\r\n        return false;\r\n    } */\r\n\r\n    // function isEventStart(\r\n    //     uint256 _categoryId,\r\n    //     string memory _eventName,\r\n    //     uint256 _startDateTime\r\n    // ) public view returns (bool) {\r\n    //     // Check if the category exists\r\n    //     require(\r\n    //         categories[_categoryId].categoryId != 0,\r\n    //         \"Category does not exist\"\r\n    //     );\r\n\r\n    //     require(\r\n    //         isEventExists(_categoryId, _eventName) == true,\r\n    //         \"Event does not exist\"\r\n    //     );\r\n\r\n    //     // Loop through the events in the specified category\r\n    //     for (uint256 i = 0; i < categories[_categoryId].events.length; i++) {\r\n    //         if (\r\n    //             (keccak256(\r\n    //                 bytes(categories[_categoryId].events[i].eventName)\r\n    //             ) ==\r\n    //                 keccak256(bytes(_eventName)) &&\r\n    //                 (_startDateTime >=\r\n    //                     categories[_categoryId].events[i].startDateTime))\r\n    //         ) {\r\n    //             return true;\r\n    //         }\r\n    //     }\r\n\r\n    //     // Event not found in the specified category\r\n    //     return false;\r\n    // }\r\n\r\n    function updateEventDetails(\r\n        uint256 _categoryId,\r\n        uint256 _eventId,\r\n        string memory _eventName,\r\n        string memory _eventDesc,\r\n        uint256 _startDateTime,\r\n        uint256 _endDateTime\r\n    ) public {\r\n        for (uint256 i = 0; i < categories[_categoryId].events.length; i++) {\r\n            if (categories[_categoryId].events[i].eventId == _eventId) {\r\n                Event storage eventToUpdate = categories[_categoryId].events[i];\r\n                // Update the event details\r\n                eventToUpdate.eventName = _eventName;\r\n                eventToUpdate.eventDesc = _eventDesc;\r\n                eventToUpdate.startDateTime = _startDateTime;\r\n                eventToUpdate.endDateTime = _endDateTime;\r\n                break;\r\n            }\r\n        }\r\n    }\r\n\r\n    function deleteEvent(uint256 _categoryId, uint256 _eventId) public {\r\n        for (uint256 i = 0; i < categories[_categoryId].events.length; i++) {\r\n            if (categories[_categoryId].events[i].eventId == _eventId) {\r\n                categories[_categoryId].events[i] = categories[_categoryId]\r\n                    .events[categories[_categoryId].events.length - 1];\r\n                categories[_categoryId].events.pop();\r\n                break;\r\n            }\r\n        }\r\n    }\r\n\r\n    function updateEvent(Event memory _event) public {\r\n        // check if the category is exist\r\n        require(\r\n            categories[_event.categoryId].categoryId != 0,\r\n            \"Category does not exists\"\r\n        );\r\n        require(\r\n            isEventExists(_event.categoryId, _event.eventId),\r\n            \"Event does not exist!\"\r\n        );\r\n        // add the category details in the category list\r\n        Event storage eventToUpdate = categories[_event.categoryId].events[\r\n            _event.eventId - 1\r\n        ];\r\n\r\n        eventToUpdate.eventName = _event.eventName;\r\n        eventToUpdate.status = _event.status;\r\n    }\r\n\r\n    function getAllCategoryEvent(uint256 _categoryId)\r\n        public\r\n        view\r\n        returns (Event[] memory foundEvent)\r\n    {\r\n        // find the certain category\r\n        Category storage category = categories[_categoryId];\r\n\r\n        // declare an array variable for storing events\r\n        Event[] memory eventsFound = new Event[](category.events.length);\r\n\r\n        // get all the event name by searching the event in list\r\n        for (uint256 i = 0; i < category.events.length; i++) {\r\n            eventsFound[i] = category.events[i];\r\n        }\r\n\r\n        return (eventsFound);\r\n    }\r\n\r\n    function getEventById(uint256 _categoryId, uint256 _eventId)\r\n        public\r\n        view\r\n        returns (Event memory)\r\n    {\r\n        Category storage categoriesFound = categories[_categoryId];\r\n        Event memory eventFound;\r\n        // Iterate through all stored structs\r\n        for (uint256 i = 0; i < categoriesFound.events.length; i++) {\r\n            if (categoriesFound.events[i].eventId == _eventId) {\r\n                eventFound = categoriesFound.events[i];\r\n            }\r\n        }\r\n\r\n        return eventFound;\r\n    }\r\n\r\n    function isEventExists(uint256 _categoryId, uint256 _eventId)\r\n        public\r\n        view\r\n        returns (bool)\r\n    {\r\n        // Check if the category exists\r\n        require(\r\n            categories[_categoryId].categoryId != 0,\r\n            \"Category does not exist\"\r\n        );\r\n\r\n        // Loop through the events in the specified category\r\n        for (uint256 i = 0; i < categories[_categoryId].events.length; i++) {\r\n            if (categories[_categoryId].events[i].eventId == _eventId) {\r\n                // Event found\r\n                return true;\r\n            }\r\n        }\r\n\r\n        // Event not found in the specified category\r\n        return false;\r\n    }\r\n\r\n    function addCandidateToEvent(\r\n        uint256 _categoryId,\r\n        uint256 _eventId,\r\n        string memory _candidateName,\r\n        string memory _description,\r\n        uint256 _studentId,\r\n        string memory _imageFileName\r\n    ) public {\r\n        require(\r\n            isCandidateExistsInEvent(_categoryId, _eventId, _studentId) ==\r\n                false,\r\n            \"Candidates already exists\"\r\n        );\r\n        candidateCount += 1;\r\n        // Create a new candidate\r\n        Candidate memory newCandidate = Candidate({\r\n            id: candidateCount,\r\n            name: _candidateName,\r\n            studentId: _studentId,\r\n            categoryId: _categoryId,\r\n            eventId: _eventId,\r\n            description: _description,\r\n            win: false,\r\n            voteCount: 0,\r\n            imageFileName: _imageFileName\r\n        });\r\n\r\n        // find the certain category\r\n        Category storage category = categories[_categoryId];\r\n        // find the certain event in certain category\r\n        for (uint256 i = 0; i < category.events.length; i++) {\r\n            if (category.events[i].eventId == _eventId) {\r\n                category.events[i].candidates.push(newCandidate);\r\n                category.events[i].candidateCount += 1;\r\n            }\r\n        }\r\n\r\n        // Mark the image file name as used\r\n        usedImageFileNames[_imageFileName] = true;\r\n    }\r\n\r\n    function updateCandidateDetails(\r\n        uint256 _id,\r\n        string memory _name,\r\n        string memory _description,\r\n        uint256 _studentId,\r\n        uint256 _categoryId,\r\n        uint256 _eventId,\r\n        string memory _imageFileName\r\n    ) public {\r\n        for (uint256 i = 0; i < categories[_categoryId].events.length; i++) {\r\n            if (categories[_categoryId].events[i].eventId == _eventId) {\r\n                Event storage myEvent = categories[_categoryId].events[i];\r\n\r\n                for (uint256 j = 0; j < myEvent.candidates.length; j++) {\r\n                    if (myEvent.candidates[j].id == _id) {\r\n                        Candidate storage candidateToUpdate = myEvent\r\n                            .candidates[j];\r\n                        candidateToUpdate.name = _name;\r\n                        candidateToUpdate.description = _description;\r\n                        candidateToUpdate.studentId = _studentId;\r\n\r\n                        if (\r\n                            bytes(_imageFileName).length > 0 &&\r\n                            keccak256(bytes(candidateToUpdate.imageFileName)) !=\r\n                            keccak256(bytes(_imageFileName))\r\n                        ) {\r\n                            if (\r\n                                bytes(candidateToUpdate.imageFileName).length >\r\n                                0\r\n                            ) {\r\n                                usedImageFileNames[\r\n                                    candidateToUpdate.imageFileName\r\n                                ] = false;\r\n                            }\r\n                            candidateToUpdate.imageFileName = _imageFileName;\r\n                            usedImageFileNames[_imageFileName] = true;\r\n                        }\r\n                        return;\r\n                    }\r\n                }\r\n            }\r\n        }\r\n    }\r\n\r\n    function deleteCandidate(\r\n        uint256 _categoryId,\r\n        uint256 _eventId,\r\n        uint256 _candidateId\r\n    ) public {\r\n        for (uint256 i = 0; i < categories[_categoryId].events.length; i++) {\r\n            if (categories[_categoryId].events[i].eventId == _eventId) {\r\n                Event storage myEvent = categories[_categoryId].events[i];\r\n\r\n                for (uint256 j = 0; j < myEvent.candidates.length; j++) {\r\n                    if (myEvent.candidates[j].id == _candidateId) {\r\n                        myEvent.candidateCount--;\r\n                        myEvent.candidates[j] = myEvent.candidates[\r\n                            myEvent.candidates.length - 1\r\n                        ];\r\n                        myEvent.candidates.pop();\r\n                        return;\r\n                    }\r\n                }\r\n            }\r\n        }\r\n    }\r\n\r\n    function getCandidateById(\r\n        uint256 _categoryId,\r\n        uint256 _eventId,\r\n        uint256 _candidateId\r\n    ) public view returns (Candidate memory) {\r\n        Category storage categoryFound = categories[_categoryId];\r\n        Event storage eventFound;\r\n        Candidate memory candidateFound;\r\n\r\n        for (uint256 i = 0; i < categoryFound.events.length; i++) {\r\n            if (categoryFound.events[i].eventId == _eventId) {\r\n                eventFound = categoryFound.events[i];\r\n                for (uint256 j = 0; j < eventFound.candidates.length; j++) {\r\n                    if (eventFound.candidates[j].id == _candidateId) {\r\n                        candidateFound = eventFound.candidates[j];\r\n                        break; // Candidate found, break from the inner loop\r\n                    }\r\n                }\r\n                break; // Event found, break from the outer loop\r\n            }\r\n        }\r\n\r\n        return candidateFound;\r\n    }\r\n\r\n    // function isImageFileNameUsed(string memory _imageFileName)\r\n    //     public\r\n    //     view\r\n    //     returns (bool)\r\n    // {\r\n    //     return usedImageFileNames[_imageFileName];\r\n    // }\r\n\r\n    function isCandidateExistsInEvent(\r\n        uint256 _categoryId,\r\n        uint256 _eventId,\r\n        uint256 _studentId\r\n    ) public view returns (bool) {\r\n        // Check if the category exists\r\n        require(\r\n            categories[_categoryId].categoryId != 0,\r\n            \"Category does not exist\"\r\n        );\r\n\r\n        Candidate[] memory candidatesFound = getAllCandidatesInEvent(\r\n            _categoryId,\r\n            _eventId\r\n        );\r\n\r\n        // Loop through the events in the specified category\r\n\r\n        for (uint256 i = 0; i < candidatesFound.length; i++) {\r\n            if (candidatesFound[i].studentId == _studentId) {\r\n                return true;\r\n            }\r\n        }\r\n\r\n        // Event not found in the specified category\r\n        return false;\r\n    }\r\n\r\n    function getAllCandidatesInEvent(uint256 _categoryId, uint256 _eventId)\r\n        public\r\n        view\r\n        returns (Candidate[] memory foundCandidates)\r\n    {\r\n        // find the certain category\r\n        Category storage category = categories[_categoryId];\r\n        // find the certain event in certain category\r\n        for (uint256 i = 0; i < category.events.length; i++) {\r\n            if (category.events[i].eventId == _eventId) {\r\n                Candidate[] memory candidatesFound = new Candidate[](\r\n                    category.events[i].candidateCount\r\n                );\r\n\r\n                for (\r\n                    uint256 j = 0;\r\n                    j < category.events[i].candidates.length;\r\n                    j++\r\n                ) {\r\n                    candidatesFound[j] = category.events[i].candidates[j];\r\n                }\r\n                return (candidatesFound);\r\n            }\r\n        }\r\n    }\r\n\r\n    function getAllCandidates() public view returns (Candidate[] memory) {\r\n        Candidate[] memory candidatesFound = new Candidate[](candidateCount);\r\n        Event[] memory eventFound = new Event[](eventCount);\r\n\r\n        // get all the events\r\n        eventFound = getAllEvent();\r\n        uint256 count = 0;\r\n        // find the candidates inside all the event\r\n        for (uint256 i = 0; i < eventCount; i++) {\r\n            for (uint256 j = 0; j < eventFound[i].candidates.length; j++) {\r\n                candidatesFound[count] = eventFound[i].candidates[j];\r\n                count += 1;\r\n            }\r\n        }\r\n\r\n        return candidatesFound;\r\n    }\r\n\r\n    function vote(\r\n        string memory _voterKey,\r\n        uint256 _candidateId,\r\n        uint256 _categoryId,\r\n        uint256 _eventId\r\n    ) external {\r\n        require(\r\n            categories[_categoryId].categoryId != 0,\r\n            \"Category does not exists\"\r\n        );\r\n\r\n        require(eventCount != 0, \"Event does not exists\");\r\n\r\n        // for (uint256 i = 1; i <= categories[_categoryId].events.length; i++) {\r\n        //     require(categories[_categoryId].events[i-0].eventId == _eventId, \"noobbbbb\");\r\n        // }\r\n\r\n        // require(\r\n        //     isCandidateExistsInEventById(_categoryId, _eventId, _candidateId) ==\r\n        //         true,\r\n        //     \"Candidates does not exists\"\r\n        // );\r\n\r\n        // check if has voted\r\n        for (uint256 i = 1; i <= voteEventCount; i++) {\r\n            if (\r\n                keccak256(bytes(_voterKey)) ==\r\n                keccak256(bytes(voteEvents[i].voterKey)) &&\r\n                _categoryId == voteEvents[i].categoryId &&\r\n                _eventId == voteEvents[i].eventId\r\n            ) {\r\n                require(!voteEvents[i].voted, \"You already voted\");\r\n                break;\r\n            }\r\n        }\r\n\r\n        // add count on the candidate\r\n        voteEventCount += 1;\r\n\r\n        // Create a new voteEventStruct\r\n        voteEventStruct memory newVoteEvent = voteEventStruct({\r\n            id: voteEventCount,\r\n            voterKey: _voterKey,\r\n            categoryId: _categoryId,\r\n            eventId: _eventId,\r\n            votedCandidateId: _candidateId,\r\n            voted: true\r\n        });\r\n\r\n        voteEvents[voteEventCount] = newVoteEvent;\r\n\r\n        // add the vote count of the chosen candidate\r\n        addVoteCountIn(_categoryId, _eventId, _candidateId);\r\n\r\n        string memory concatenatedValues = string(\r\n            abi.encodePacked(_categoryId, _eventId)\r\n        );\r\n\r\n        emit VoteEvent(_voterKey, concatenatedValues, _candidateId);\r\n    }\r\n\r\n    function addVoteCountIn(\r\n        uint256 _categoryId,\r\n        uint256 _eventId,\r\n        uint256 _candidateId\r\n    ) internal {\r\n        // get the events inside the categories\r\n        Event[] storage eventsFound = categories[_categoryId].events;\r\n\r\n        // find the event with param\r\n        for (uint256 i = 0; i < eventsFound.length; i++) {\r\n            if (eventsFound[i].eventId == _eventId) {\r\n                // get the candidate inside the event\r\n                Candidate[] storage candidatesFound = eventsFound[i].candidates;\r\n                // find the candidate\r\n                for (uint256 j = 0; j < candidatesFound.length; j++) {\r\n                    if (candidatesFound[j].id == _candidateId) {\r\n                        // found the candidate and plus 1 at the voteCount\r\n                        candidatesFound[j].voteCount += 1;\r\n                        break;\r\n                    }\r\n                }\r\n            }\r\n        }\r\n    }\r\n\r\n      \r\n    function getAllVotedHistory() public view returns (voteEventStruct[] memory) {\r\n        voteEventStruct[] memory allVoteEvent = new voteEventStruct[](voteEventCount);\r\n        for (uint256 i = 1; i <= voteEventCount; i++) {\r\n            allVoteEvent[i - 1] = voteEvents[i];\r\n        }\r\n        return allVoteEvent;\r\n    }\r\n    \r\n\r\n    // function isVoted(\r\n    //     uint256 _categoryId,\r\n    //     uint256 _eventId,\r\n    //     string memory _voterKey\r\n    // ) public view returns (bool) {\r\n    //     // Check if the category exists\r\n    //     require(\r\n    //         categories[_categoryId].categoryId != 0,\r\n    //         \"Category does not exist\"\r\n    //     );\r\n\r\n    //     for (uint256 i = 1; i <= voteEventCount; i++) {\r\n    //         if (\r\n    //             voteEvents[i].categoryId == _categoryId &&\r\n    //             voteEvents[i].eventId == _eventId &&\r\n    //             keccak256(bytes(voteEvents[i].voterKey)) ==\r\n    //             keccak256(bytes(_voterKey))\r\n    //         ) {\r\n    //             return voteEvents[i].voted;\r\n    //         }\r\n    //     }\r\n\r\n    //     return false;\r\n    // }\r\n\r\n    // function getVoteEventCandidate(uint256 _categoryId, uint256 _eventId)\r\n    //     public\r\n    //     view\r\n    //     returns (Candidate[] memory)\r\n    // {\r\n    //     Event[] storage eventsFound = categories[_categoryId].events;\r\n\r\n    //     for (uint256 i = 0; i < eventsFound.length; i++) {\r\n    //         if (eventsFound[i].eventId == _eventId) {\r\n    //             return eventsFound[i].candidates;\r\n    //         }\r\n    //     }\r\n\r\n    //     // If the event is not found, return an empty array or handle the situation accordingly\r\n    //     return new Candidate[](0);\r\n    // }\r\n\r\n    function markWinner(uint256 _categoryId, uint256 _eventId) public {\r\n        categories[_categoryId].events;\r\n\r\n        for (uint256 i = 0; i < categories[_categoryId].events.length; i++) {\r\n            if (categories[_categoryId].events[i].eventId == _eventId) {\r\n                Candidate storage winner = categories[_categoryId]\r\n                    .events[i]\r\n                    .candidates[0];\r\n                for (\r\n                    uint256 j = 0;\r\n                    j < categories[_categoryId].events[i].candidates.length - 1;\r\n                    j++\r\n                ) {\r\n                    if (\r\n                        winner.voteCount <\r\n                        categories[_categoryId]\r\n                            .events[i]\r\n                            .candidates[j + 1]\r\n                            .voteCount\r\n                    ) {\r\n                        winner = categories[_categoryId].events[i].candidates[\r\n                            j + 1\r\n                        ];\r\n                    }\r\n                }\r\n                winner.win = true;\r\n            }\r\n        }\r\n    }\r\n\r\n    // function isMarkWinner(uint256 _categoryId, uint256 _eventId)\r\n    //     public\r\n    //     view\r\n    //     returns (bool isMarket)\r\n    // {\r\n    //     Event[] memory eventsFound = categories[_categoryId].events;\r\n    //     Candidate[] memory candidatesFound;\r\n\r\n    //     for (uint256 i = 0; i < eventsFound.length; i++) {\r\n    //         if (eventsFound[i].eventId == _eventId) {\r\n    //             candidatesFound = eventsFound[i].candidates;\r\n    //         }\r\n    //     }\r\n\r\n    //     for (uint256 i = 0; i < candidatesFound.length - 1; i++) {\r\n    //         if (candidatesFound[i].win == true) {\r\n    //             return true;\r\n    //         }\r\n    //     }\r\n    //     return false;\r\n    // }\r\n\r\n    // function whoIsTheWinner(uint256 _categoryId, uint256 _eventId)\r\n    //     public\r\n    //     view\r\n    //     returns (Candidate memory)\r\n    // {\r\n    //     Event[] memory eventsFound = categories[_categoryId].events;\r\n    //     Candidate[] memory candidatesFound;\r\n\r\n    //     for (uint256 i = 0; i < eventsFound.length; i++) {\r\n    //         if (eventsFound[i].eventId == _eventId) {\r\n    //             candidatesFound = eventsFound[i].candidates;\r\n    //         }\r\n    //     }\r\n\r\n    //     Candidate memory winner = candidatesFound[0];\r\n\r\n    //     for (uint256 i = 0; i < candidatesFound.length - 1; i++) {\r\n    //         if (winner.voteCount < candidatesFound[i + 1].voteCount) {\r\n    //             winner = candidatesFound[i + 1];\r\n    //         }\r\n    //     }\r\n\r\n    //     winner.win = true;\r\n\r\n    //     return winner;\r\n    // }\r\n}\r\n",
  "sourcePath": "C:\\xampp\\htdocs\\Online-Voting-System-Blockchain\\contracts\\VotingSystem.sol",
  "compiler": {
    "name": "solc",
    "version": "0.8.19+commit.7dd6d404.Emscripten.clang"
  },
  "schemaVersion": "3.4.16",
  "updatedAt": "2023-12-25T06:13:53.569Z",
  "networkType": "ethereum",
  "devdoc": {
    "kind": "dev",
    "methods": {},
    "version": 1
  },
  "userdoc": {
    "kind": "user",
    "methods": {},
    "version": 1
  }
}