{
  "contractName": "VotingSystem",
  "abi": [
    {
      "inputs": [],
      "stateMutability": "nonpayable",
      "type": "constructor"
    },
    {
      "anonymous": false,
      "inputs": [
        {
          "indexed": true,
          "internalType": "uint256",
          "name": "eventId",
          "type": "uint256"
        },
        {
          "indexed": false,
          "internalType": "string",
          "name": "eventName",
          "type": "string"
        }
      ],
      "name": "CandidateAdded",
      "type": "event"
    },
    {
      "anonymous": false,
      "inputs": [
        {
          "indexed": true,
          "internalType": "uint256",
          "name": "categoryId",
          "type": "uint256"
        },
        {
          "indexed": false,
          "internalType": "string",
          "name": "categoryName",
          "type": "string"
        }
      ],
      "name": "CategoryAdded",
      "type": "event"
    },
    {
      "anonymous": false,
      "inputs": [
        {
          "indexed": true,
          "internalType": "uint256",
          "name": "eventId",
          "type": "uint256"
        },
        {
          "indexed": false,
          "internalType": "string",
          "name": "eventName",
          "type": "string"
        }
      ],
      "name": "EventAdded",
      "type": "event"
    },
    {
      "anonymous": false,
      "inputs": [
        {
          "indexed": true,
          "internalType": "string",
          "name": "_voterKey",
          "type": "string"
        },
        {
          "indexed": true,
          "internalType": "string",
          "name": "categoryEvent",
          "type": "string"
        },
        {
          "indexed": true,
          "internalType": "uint256",
          "name": "candidate",
          "type": "uint256"
        }
      ],
      "name": "VoteEvent",
      "type": "event"
    },
    {
      "anonymous": false,
      "inputs": [
        {
          "indexed": true,
          "internalType": "uint256",
          "name": "voterId",
          "type": "uint256"
        },
        {
          "indexed": false,
          "internalType": "string",
          "name": "voter_key",
          "type": "string"
        }
      ],
      "name": "VoterAdded",
      "type": "event"
    },
    {
      "inputs": [],
      "name": "owner",
      "outputs": [
        {
          "internalType": "address",
          "name": "",
          "type": "address"
        }
      ],
      "stateMutability": "view",
      "type": "function",
      "constant": true
    },
    {
      "inputs": [
        {
          "internalType": "uint256",
          "name": "",
          "type": "uint256"
        }
      ],
      "name": "voteEvents",
      "outputs": [
        {
          "internalType": "uint256",
          "name": "id",
          "type": "uint256"
        },
        {
          "internalType": "string",
          "name": "voterKey",
          "type": "string"
        },
        {
          "internalType": "uint256",
          "name": "categoryId",
          "type": "uint256"
        },
        {
          "internalType": "uint256",
          "name": "eventId",
          "type": "uint256"
        },
        {
          "internalType": "bool",
          "name": "voted",
          "type": "bool"
        }
      ],
      "stateMutability": "view",
      "type": "function",
      "constant": true
    },
    {
      "inputs": [
        {
          "internalType": "uint256",
          "name": "",
          "type": "uint256"
        }
      ],
      "name": "voters",
      "outputs": [
        {
          "internalType": "uint256",
          "name": "id",
          "type": "uint256"
        },
        {
          "internalType": "string",
          "name": "key",
          "type": "string"
        },
        {
          "internalType": "string",
          "name": "email",
          "type": "string"
        },
        {
          "internalType": "bytes32",
          "name": "password",
          "type": "bytes32"
        },
        {
          "internalType": "string",
          "name": "role",
          "type": "string"
        },
        {
          "internalType": "uint256",
          "name": "status",
          "type": "uint256"
        },
        {
          "internalType": "string",
          "name": "token",
          "type": "string"
        }
      ],
      "stateMutability": "view",
      "type": "function",
      "constant": true
    },
    {
      "inputs": [
        {
          "internalType": "string",
          "name": "_key",
          "type": "string"
        },
        {
          "internalType": "string",
          "name": "_email",
          "type": "string"
        },
        {
          "internalType": "string",
          "name": "_password",
          "type": "string"
        },
        {
          "internalType": "string",
          "name": "_role",
          "type": "string"
        },
        {
          "internalType": "string",
          "name": "_token",
          "type": "string"
        }
      ],
      "name": "addVoter",
      "outputs": [],
      "stateMutability": "nonpayable",
      "type": "function"
    },
    {
      "inputs": [
        {
          "internalType": "string",
          "name": "_email",
          "type": "string"
        },
        {
          "internalType": "string",
          "name": "_password",
          "type": "string"
        }
      ],
      "name": "loginVoter",
      "outputs": [
        {
          "components": [
            {
              "internalType": "uint256",
              "name": "id",
              "type": "uint256"
            },
            {
              "internalType": "string",
              "name": "key",
              "type": "string"
            },
            {
              "internalType": "string",
              "name": "email",
              "type": "string"
            },
            {
              "internalType": "bytes32",
              "name": "password",
              "type": "bytes32"
            },
            {
              "internalType": "string",
              "name": "role",
              "type": "string"
            },
            {
              "internalType": "uint256",
              "name": "status",
              "type": "uint256"
            },
            {
              "internalType": "string",
              "name": "token",
              "type": "string"
            }
          ],
          "internalType": "struct VotingSystem.Voter",
          "name": "",
          "type": "tuple"
        }
      ],
      "stateMutability": "view",
      "type": "function",
      "constant": true
    },
    {
      "inputs": [
        {
          "internalType": "string",
          "name": "_email",
          "type": "string"
        },
        {
          "internalType": "string",
          "name": "_password",
          "type": "string"
        }
      ],
      "name": "getVoterByEmailPassword",
      "outputs": [
        {
          "components": [
            {
              "internalType": "uint256",
              "name": "id",
              "type": "uint256"
            },
            {
              "internalType": "string",
              "name": "key",
              "type": "string"
            },
            {
              "internalType": "string",
              "name": "email",
              "type": "string"
            },
            {
              "internalType": "bytes32",
              "name": "password",
              "type": "bytes32"
            },
            {
              "internalType": "string",
              "name": "role",
              "type": "string"
            },
            {
              "internalType": "uint256",
              "name": "status",
              "type": "uint256"
            },
            {
              "internalType": "string",
              "name": "token",
              "type": "string"
            }
          ],
          "internalType": "struct VotingSystem.Voter",
          "name": "",
          "type": "tuple"
        }
      ],
      "stateMutability": "view",
      "type": "function",
      "constant": true
    },
    {
      "inputs": [
        {
          "internalType": "uint256",
          "name": "_voterId",
          "type": "uint256"
        }
      ],
      "name": "getVoterEmailById",
      "outputs": [
        {
          "internalType": "string",
          "name": "",
          "type": "string"
        }
      ],
      "stateMutability": "view",
      "type": "function",
      "constant": true
    },
    {
      "inputs": [
        {
          "internalType": "string",
          "name": "_key",
          "type": "string"
        },
        {
          "internalType": "string",
          "name": "_password",
          "type": "string"
        }
      ],
      "name": "updateVoterPassword",
      "outputs": [],
      "stateMutability": "nonpayable",
      "type": "function"
    },
    {
      "inputs": [
        {
          "internalType": "string",
          "name": "_token",
          "type": "string"
        }
      ],
      "name": "verifyVoterAccount",
      "outputs": [
        {
          "internalType": "bool",
          "name": "",
          "type": "bool"
        }
      ],
      "stateMutability": "nonpayable",
      "type": "function"
    },
    {
      "inputs": [
        {
          "internalType": "string",
          "name": "_email",
          "type": "string"
        },
        {
          "internalType": "string",
          "name": "_password",
          "type": "string"
        }
      ],
      "name": "getVoterStatus",
      "outputs": [
        {
          "internalType": "uint256",
          "name": "status",
          "type": "uint256"
        }
      ],
      "stateMutability": "view",
      "type": "function",
      "constant": true
    },
    {
      "inputs": [
        {
          "internalType": "string",
          "name": "_email",
          "type": "string"
        },
        {
          "internalType": "string",
          "name": "_password",
          "type": "string"
        }
      ],
      "name": "checkVoterEmailPassword",
      "outputs": [
        {
          "internalType": "bool",
          "name": "foundVoter",
          "type": "bool"
        }
      ],
      "stateMutability": "view",
      "type": "function",
      "constant": true
    },
    {
      "inputs": [
        {
          "internalType": "string",
          "name": "_key",
          "type": "string"
        }
      ],
      "name": "isVoterExist",
      "outputs": [
        {
          "internalType": "bool",
          "name": "",
          "type": "bool"
        }
      ],
      "stateMutability": "view",
      "type": "function",
      "constant": true
    },
    {
      "inputs": [
        {
          "internalType": "string",
          "name": "_categoryName",
          "type": "string"
        }
      ],
      "name": "addCategory",
      "outputs": [],
      "stateMutability": "nonpayable",
      "type": "function"
    },
    {
      "inputs": [
        {
          "components": [
            {
              "internalType": "uint256",
              "name": "categoryId",
              "type": "uint256"
            },
            {
              "internalType": "string",
              "name": "categoryName",
              "type": "string"
            },
            {
              "components": [
                {
                  "internalType": "uint256",
                  "name": "eventId",
                  "type": "uint256"
                },
                {
                  "internalType": "string",
                  "name": "eventName",
                  "type": "string"
                },
                {
                  "internalType": "uint256",
                  "name": "categoryId",
                  "type": "uint256"
                },
                {
                  "components": [
                    {
                      "internalType": "uint256",
                      "name": "id",
                      "type": "uint256"
                    },
                    {
                      "internalType": "string",
                      "name": "name",
                      "type": "string"
                    },
                    {
                      "internalType": "string",
                      "name": "description",
                      "type": "string"
                    },
                    {
                      "internalType": "uint256",
                      "name": "studentId",
                      "type": "uint256"
                    },
                    {
                      "internalType": "uint256",
                      "name": "categoryId",
                      "type": "uint256"
                    },
                    {
                      "internalType": "uint256",
                      "name": "eventId",
                      "type": "uint256"
                    },
                    {
                      "internalType": "uint256",
                      "name": "voteCount",
                      "type": "uint256"
                    },
                    {
                      "internalType": "bool",
                      "name": "win",
                      "type": "bool"
                    },
                    {
                      "internalType": "string",
                      "name": "imageFileName",
                      "type": "string"
                    }
                  ],
                  "internalType": "struct VotingSystem.Candidate[]",
                  "name": "candidates",
                  "type": "tuple[]"
                },
                {
                  "internalType": "uint256",
                  "name": "candidateCount",
                  "type": "uint256"
                },
                {
                  "internalType": "uint256",
                  "name": "startDateTime",
                  "type": "uint256"
                },
                {
                  "internalType": "uint256",
                  "name": "endDateTime",
                  "type": "uint256"
                },
                {
                  "internalType": "uint256",
                  "name": "status",
                  "type": "uint256"
                }
              ],
              "internalType": "struct VotingSystem.Event[]",
              "name": "events",
              "type": "tuple[]"
            },
            {
              "internalType": "uint256",
              "name": "status",
              "type": "uint256"
            }
          ],
          "internalType": "struct VotingSystem.Category",
          "name": "_category",
          "type": "tuple"
        }
      ],
      "name": "updateCategory",
      "outputs": [],
      "stateMutability": "nonpayable",
      "type": "function"
    },
    {
      "inputs": [
        {
          "internalType": "uint256",
          "name": "_categoryId",
          "type": "uint256"
        },
        {
          "internalType": "string",
          "name": "_newCategoryName",
          "type": "string"
        }
      ],
      "name": "updateCategoryName",
      "outputs": [],
      "stateMutability": "nonpayable",
      "type": "function"
    },
    {
      "inputs": [
        {
          "internalType": "uint256",
          "name": "_categoryId",
          "type": "uint256"
        }
      ],
      "name": "deleteCategory",
      "outputs": [],
      "stateMutability": "nonpayable",
      "type": "function"
    },
    {
      "inputs": [
        {
          "internalType": "uint256",
          "name": "_categoryId",
          "type": "uint256"
        },
        {
          "internalType": "string",
          "name": "_eventName",
          "type": "string"
        },
        {
          "internalType": "uint256",
          "name": "_startDateTime",
          "type": "uint256"
        },
        {
          "internalType": "uint256",
          "name": "_endDateTime",
          "type": "uint256"
        }
      ],
      "name": "addEvent",
      "outputs": [],
      "stateMutability": "nonpayable",
      "type": "function"
    },
    {
      "inputs": [
        {
          "internalType": "uint256",
          "name": "_categoryId",
          "type": "uint256"
        },
        {
          "internalType": "string",
          "name": "_eventName",
          "type": "string"
        },
        {
          "internalType": "uint256",
          "name": "_startDateTime",
          "type": "uint256"
        }
      ],
      "name": "isEventStart",
      "outputs": [
        {
          "internalType": "bool",
          "name": "",
          "type": "bool"
        }
      ],
      "stateMutability": "view",
      "type": "function",
      "constant": true
    },
    {
      "inputs": [
        {
          "components": [
            {
              "internalType": "uint256",
              "name": "eventId",
              "type": "uint256"
            },
            {
              "internalType": "string",
              "name": "eventName",
              "type": "string"
            },
            {
              "internalType": "uint256",
              "name": "categoryId",
              "type": "uint256"
            },
            {
              "components": [
                {
                  "internalType": "uint256",
                  "name": "id",
                  "type": "uint256"
                },
                {
                  "internalType": "string",
                  "name": "name",
                  "type": "string"
                },
                {
                  "internalType": "string",
                  "name": "description",
                  "type": "string"
                },
                {
                  "internalType": "uint256",
                  "name": "studentId",
                  "type": "uint256"
                },
                {
                  "internalType": "uint256",
                  "name": "categoryId",
                  "type": "uint256"
                },
                {
                  "internalType": "uint256",
                  "name": "eventId",
                  "type": "uint256"
                },
                {
                  "internalType": "uint256",
                  "name": "voteCount",
                  "type": "uint256"
                },
                {
                  "internalType": "bool",
                  "name": "win",
                  "type": "bool"
                },
                {
                  "internalType": "string",
                  "name": "imageFileName",
                  "type": "string"
                }
              ],
              "internalType": "struct VotingSystem.Candidate[]",
              "name": "candidates",
              "type": "tuple[]"
            },
            {
              "internalType": "uint256",
              "name": "candidateCount",
              "type": "uint256"
            },
            {
              "internalType": "uint256",
              "name": "startDateTime",
              "type": "uint256"
            },
            {
              "internalType": "uint256",
              "name": "endDateTime",
              "type": "uint256"
            },
            {
              "internalType": "uint256",
              "name": "status",
              "type": "uint256"
            }
          ],
          "internalType": "struct VotingSystem.Event",
          "name": "_event",
          "type": "tuple"
        }
      ],
      "name": "updateEvent",
      "outputs": [],
      "stateMutability": "nonpayable",
      "type": "function"
    },
    {
      "inputs": [
        {
          "internalType": "uint256",
          "name": "_categoryId",
          "type": "uint256"
        },
        {
          "internalType": "uint256",
          "name": "_eventId",
          "type": "uint256"
        },
        {
          "internalType": "string",
          "name": "_candidateName",
          "type": "string"
        },
        {
          "internalType": "string",
          "name": "_description",
          "type": "string"
        },
        {
          "internalType": "uint256",
          "name": "_studentId",
          "type": "uint256"
        },
        {
          "internalType": "string",
          "name": "_imageFileName",
          "type": "string"
        }
      ],
      "name": "addCandidateToEvent",
      "outputs": [],
      "stateMutability": "nonpayable",
      "type": "function"
    },
    {
      "inputs": [
        {
          "components": [
            {
              "internalType": "uint256",
              "name": "id",
              "type": "uint256"
            },
            {
              "internalType": "string",
              "name": "name",
              "type": "string"
            },
            {
              "internalType": "string",
              "name": "description",
              "type": "string"
            },
            {
              "internalType": "uint256",
              "name": "studentId",
              "type": "uint256"
            },
            {
              "internalType": "uint256",
              "name": "categoryId",
              "type": "uint256"
            },
            {
              "internalType": "uint256",
              "name": "eventId",
              "type": "uint256"
            },
            {
              "internalType": "uint256",
              "name": "voteCount",
              "type": "uint256"
            },
            {
              "internalType": "bool",
              "name": "win",
              "type": "bool"
            },
            {
              "internalType": "string",
              "name": "imageFileName",
              "type": "string"
            }
          ],
          "internalType": "struct VotingSystem.Candidate",
          "name": "_candidate",
          "type": "tuple"
        }
      ],
      "name": "updateCandidate",
      "outputs": [],
      "stateMutability": "nonpayable",
      "type": "function"
    },
    {
      "inputs": [
        {
          "internalType": "string",
          "name": "_imageFileName",
          "type": "string"
        }
      ],
      "name": "isImageFileNameUsed",
      "outputs": [
        {
          "internalType": "bool",
          "name": "",
          "type": "bool"
        }
      ],
      "stateMutability": "view",
      "type": "function",
      "constant": true
    },
    {
      "inputs": [
        {
          "internalType": "uint256",
          "name": "_categoryId",
          "type": "uint256"
        },
        {
          "internalType": "uint256",
          "name": "_eventId",
          "type": "uint256"
        },
        {
          "internalType": "uint256",
          "name": "_studentId",
          "type": "uint256"
        }
      ],
      "name": "isCandidateExistsInEvent",
      "outputs": [
        {
          "internalType": "bool",
          "name": "",
          "type": "bool"
        }
      ],
      "stateMutability": "view",
      "type": "function",
      "constant": true
    },
    {
      "inputs": [
        {
          "internalType": "uint256",
          "name": "_categoryId",
          "type": "uint256"
        },
        {
          "internalType": "uint256",
          "name": "_eventId",
          "type": "uint256"
        },
        {
          "internalType": "uint256",
          "name": "_candidateId",
          "type": "uint256"
        }
      ],
      "name": "isCandidateExistsInEventById",
      "outputs": [
        {
          "internalType": "bool",
          "name": "",
          "type": "bool"
        }
      ],
      "stateMutability": "view",
      "type": "function",
      "constant": true
    },
    {
      "inputs": [
        {
          "internalType": "uint256",
          "name": "_categoryId",
          "type": "uint256"
        },
        {
          "internalType": "uint256",
          "name": "_eventId",
          "type": "uint256"
        }
      ],
      "name": "isEventExists",
      "outputs": [
        {
          "internalType": "bool",
          "name": "",
          "type": "bool"
        }
      ],
      "stateMutability": "view",
      "type": "function",
      "constant": true
    },
    {
      "inputs": [
        {
          "internalType": "uint256",
          "name": "_categoryId",
          "type": "uint256"
        },
        {
          "internalType": "string",
          "name": "_eventName",
          "type": "string"
        }
      ],
      "name": "isEventExists",
      "outputs": [
        {
          "internalType": "bool",
          "name": "",
          "type": "bool"
        }
      ],
      "stateMutability": "view",
      "type": "function",
      "constant": true
    },
    {
      "inputs": [
        {
          "internalType": "uint256",
          "name": "_categoryId",
          "type": "uint256"
        }
      ],
      "name": "getAllCategoryEvent",
      "outputs": [
        {
          "components": [
            {
              "internalType": "uint256",
              "name": "eventId",
              "type": "uint256"
            },
            {
              "internalType": "string",
              "name": "eventName",
              "type": "string"
            },
            {
              "internalType": "uint256",
              "name": "categoryId",
              "type": "uint256"
            },
            {
              "components": [
                {
                  "internalType": "uint256",
                  "name": "id",
                  "type": "uint256"
                },
                {
                  "internalType": "string",
                  "name": "name",
                  "type": "string"
                },
                {
                  "internalType": "string",
                  "name": "description",
                  "type": "string"
                },
                {
                  "internalType": "uint256",
                  "name": "studentId",
                  "type": "uint256"
                },
                {
                  "internalType": "uint256",
                  "name": "categoryId",
                  "type": "uint256"
                },
                {
                  "internalType": "uint256",
                  "name": "eventId",
                  "type": "uint256"
                },
                {
                  "internalType": "uint256",
                  "name": "voteCount",
                  "type": "uint256"
                },
                {
                  "internalType": "bool",
                  "name": "win",
                  "type": "bool"
                },
                {
                  "internalType": "string",
                  "name": "imageFileName",
                  "type": "string"
                }
              ],
              "internalType": "struct VotingSystem.Candidate[]",
              "name": "candidates",
              "type": "tuple[]"
            },
            {
              "internalType": "uint256",
              "name": "candidateCount",
              "type": "uint256"
            },
            {
              "internalType": "uint256",
              "name": "startDateTime",
              "type": "uint256"
            },
            {
              "internalType": "uint256",
              "name": "endDateTime",
              "type": "uint256"
            },
            {
              "internalType": "uint256",
              "name": "status",
              "type": "uint256"
            }
          ],
          "internalType": "struct VotingSystem.Event[]",
          "name": "foundEvent",
          "type": "tuple[]"
        }
      ],
      "stateMutability": "view",
      "type": "function",
      "constant": true
    },
    {
      "inputs": [
        {
          "internalType": "uint256",
          "name": "_categoryId",
          "type": "uint256"
        },
        {
          "internalType": "uint256",
          "name": "_eventId",
          "type": "uint256"
        }
      ],
      "name": "getAllCandidatesInEvent",
      "outputs": [
        {
          "components": [
            {
              "internalType": "uint256",
              "name": "id",
              "type": "uint256"
            },
            {
              "internalType": "string",
              "name": "name",
              "type": "string"
            },
            {
              "internalType": "string",
              "name": "description",
              "type": "string"
            },
            {
              "internalType": "uint256",
              "name": "studentId",
              "type": "uint256"
            },
            {
              "internalType": "uint256",
              "name": "categoryId",
              "type": "uint256"
            },
            {
              "internalType": "uint256",
              "name": "eventId",
              "type": "uint256"
            },
            {
              "internalType": "uint256",
              "name": "voteCount",
              "type": "uint256"
            },
            {
              "internalType": "bool",
              "name": "win",
              "type": "bool"
            },
            {
              "internalType": "string",
              "name": "imageFileName",
              "type": "string"
            }
          ],
          "internalType": "struct VotingSystem.Candidate[]",
          "name": "foundCandidates",
          "type": "tuple[]"
        }
      ],
      "stateMutability": "view",
      "type": "function",
      "constant": true
    },
    {
      "inputs": [],
      "name": "getAllCandidates",
      "outputs": [
        {
          "components": [
            {
              "internalType": "uint256",
              "name": "id",
              "type": "uint256"
            },
            {
              "internalType": "string",
              "name": "name",
              "type": "string"
            },
            {
              "internalType": "string",
              "name": "description",
              "type": "string"
            },
            {
              "internalType": "uint256",
              "name": "studentId",
              "type": "uint256"
            },
            {
              "internalType": "uint256",
              "name": "categoryId",
              "type": "uint256"
            },
            {
              "internalType": "uint256",
              "name": "eventId",
              "type": "uint256"
            },
            {
              "internalType": "uint256",
              "name": "voteCount",
              "type": "uint256"
            },
            {
              "internalType": "bool",
              "name": "win",
              "type": "bool"
            },
            {
              "internalType": "string",
              "name": "imageFileName",
              "type": "string"
            }
          ],
          "internalType": "struct VotingSystem.Candidate[]",
          "name": "",
          "type": "tuple[]"
        }
      ],
      "stateMutability": "view",
      "type": "function",
      "constant": true
    },
    {
      "inputs": [],
      "name": "getAllCategory",
      "outputs": [
        {
          "components": [
            {
              "internalType": "uint256",
              "name": "categoryId",
              "type": "uint256"
            },
            {
              "internalType": "string",
              "name": "categoryName",
              "type": "string"
            },
            {
              "components": [
                {
                  "internalType": "uint256",
                  "name": "eventId",
                  "type": "uint256"
                },
                {
                  "internalType": "string",
                  "name": "eventName",
                  "type": "string"
                },
                {
                  "internalType": "uint256",
                  "name": "categoryId",
                  "type": "uint256"
                },
                {
                  "components": [
                    {
                      "internalType": "uint256",
                      "name": "id",
                      "type": "uint256"
                    },
                    {
                      "internalType": "string",
                      "name": "name",
                      "type": "string"
                    },
                    {
                      "internalType": "string",
                      "name": "description",
                      "type": "string"
                    },
                    {
                      "internalType": "uint256",
                      "name": "studentId",
                      "type": "uint256"
                    },
                    {
                      "internalType": "uint256",
                      "name": "categoryId",
                      "type": "uint256"
                    },
                    {
                      "internalType": "uint256",
                      "name": "eventId",
                      "type": "uint256"
                    },
                    {
                      "internalType": "uint256",
                      "name": "voteCount",
                      "type": "uint256"
                    },
                    {
                      "internalType": "bool",
                      "name": "win",
                      "type": "bool"
                    },
                    {
                      "internalType": "string",
                      "name": "imageFileName",
                      "type": "string"
                    }
                  ],
                  "internalType": "struct VotingSystem.Candidate[]",
                  "name": "candidates",
                  "type": "tuple[]"
                },
                {
                  "internalType": "uint256",
                  "name": "candidateCount",
                  "type": "uint256"
                },
                {
                  "internalType": "uint256",
                  "name": "startDateTime",
                  "type": "uint256"
                },
                {
                  "internalType": "uint256",
                  "name": "endDateTime",
                  "type": "uint256"
                },
                {
                  "internalType": "uint256",
                  "name": "status",
                  "type": "uint256"
                }
              ],
              "internalType": "struct VotingSystem.Event[]",
              "name": "events",
              "type": "tuple[]"
            },
            {
              "internalType": "uint256",
              "name": "status",
              "type": "uint256"
            }
          ],
          "internalType": "struct VotingSystem.Category[]",
          "name": "",
          "type": "tuple[]"
        }
      ],
      "stateMutability": "view",
      "type": "function",
      "constant": true
    },
    {
      "inputs": [
        {
          "internalType": "uint256",
          "name": "_categoryId",
          "type": "uint256"
        }
      ],
      "name": "getCategoryById",
      "outputs": [
        {
          "components": [
            {
              "internalType": "uint256",
              "name": "categoryId",
              "type": "uint256"
            },
            {
              "internalType": "string",
              "name": "categoryName",
              "type": "string"
            },
            {
              "components": [
                {
                  "internalType": "uint256",
                  "name": "eventId",
                  "type": "uint256"
                },
                {
                  "internalType": "string",
                  "name": "eventName",
                  "type": "string"
                },
                {
                  "internalType": "uint256",
                  "name": "categoryId",
                  "type": "uint256"
                },
                {
                  "components": [
                    {
                      "internalType": "uint256",
                      "name": "id",
                      "type": "uint256"
                    },
                    {
                      "internalType": "string",
                      "name": "name",
                      "type": "string"
                    },
                    {
                      "internalType": "string",
                      "name": "description",
                      "type": "string"
                    },
                    {
                      "internalType": "uint256",
                      "name": "studentId",
                      "type": "uint256"
                    },
                    {
                      "internalType": "uint256",
                      "name": "categoryId",
                      "type": "uint256"
                    },
                    {
                      "internalType": "uint256",
                      "name": "eventId",
                      "type": "uint256"
                    },
                    {
                      "internalType": "uint256",
                      "name": "voteCount",
                      "type": "uint256"
                    },
                    {
                      "internalType": "bool",
                      "name": "win",
                      "type": "bool"
                    },
                    {
                      "internalType": "string",
                      "name": "imageFileName",
                      "type": "string"
                    }
                  ],
                  "internalType": "struct VotingSystem.Candidate[]",
                  "name": "candidates",
                  "type": "tuple[]"
                },
                {
                  "internalType": "uint256",
                  "name": "candidateCount",
                  "type": "uint256"
                },
                {
                  "internalType": "uint256",
                  "name": "startDateTime",
                  "type": "uint256"
                },
                {
                  "internalType": "uint256",
                  "name": "endDateTime",
                  "type": "uint256"
                },
                {
                  "internalType": "uint256",
                  "name": "status",
                  "type": "uint256"
                }
              ],
              "internalType": "struct VotingSystem.Event[]",
              "name": "events",
              "type": "tuple[]"
            },
            {
              "internalType": "uint256",
              "name": "status",
              "type": "uint256"
            }
          ],
          "internalType": "struct VotingSystem.Category",
          "name": "",
          "type": "tuple"
        }
      ],
      "stateMutability": "view",
      "type": "function",
      "constant": true
    },
    {
      "inputs": [],
      "name": "getAllEvent",
      "outputs": [
        {
          "components": [
            {
              "internalType": "uint256",
              "name": "eventId",
              "type": "uint256"
            },
            {
              "internalType": "string",
              "name": "eventName",
              "type": "string"
            },
            {
              "internalType": "uint256",
              "name": "categoryId",
              "type": "uint256"
            },
            {
              "components": [
                {
                  "internalType": "uint256",
                  "name": "id",
                  "type": "uint256"
                },
                {
                  "internalType": "string",
                  "name": "name",
                  "type": "string"
                },
                {
                  "internalType": "string",
                  "name": "description",
                  "type": "string"
                },
                {
                  "internalType": "uint256",
                  "name": "studentId",
                  "type": "uint256"
                },
                {
                  "internalType": "uint256",
                  "name": "categoryId",
                  "type": "uint256"
                },
                {
                  "internalType": "uint256",
                  "name": "eventId",
                  "type": "uint256"
                },
                {
                  "internalType": "uint256",
                  "name": "voteCount",
                  "type": "uint256"
                },
                {
                  "internalType": "bool",
                  "name": "win",
                  "type": "bool"
                },
                {
                  "internalType": "string",
                  "name": "imageFileName",
                  "type": "string"
                }
              ],
              "internalType": "struct VotingSystem.Candidate[]",
              "name": "candidates",
              "type": "tuple[]"
            },
            {
              "internalType": "uint256",
              "name": "candidateCount",
              "type": "uint256"
            },
            {
              "internalType": "uint256",
              "name": "startDateTime",
              "type": "uint256"
            },
            {
              "internalType": "uint256",
              "name": "endDateTime",
              "type": "uint256"
            },
            {
              "internalType": "uint256",
              "name": "status",
              "type": "uint256"
            }
          ],
          "internalType": "struct VotingSystem.Event[]",
          "name": "",
          "type": "tuple[]"
        }
      ],
      "stateMutability": "view",
      "type": "function",
      "constant": true
    },
    {
      "inputs": [
        {
          "internalType": "uint256",
          "name": "_categoryId",
          "type": "uint256"
        },
        {
          "internalType": "uint256",
          "name": "_eventId",
          "type": "uint256"
        }
      ],
      "name": "getEventById",
      "outputs": [
        {
          "components": [
            {
              "internalType": "uint256",
              "name": "eventId",
              "type": "uint256"
            },
            {
              "internalType": "string",
              "name": "eventName",
              "type": "string"
            },
            {
              "internalType": "uint256",
              "name": "categoryId",
              "type": "uint256"
            },
            {
              "components": [
                {
                  "internalType": "uint256",
                  "name": "id",
                  "type": "uint256"
                },
                {
                  "internalType": "string",
                  "name": "name",
                  "type": "string"
                },
                {
                  "internalType": "string",
                  "name": "description",
                  "type": "string"
                },
                {
                  "internalType": "uint256",
                  "name": "studentId",
                  "type": "uint256"
                },
                {
                  "internalType": "uint256",
                  "name": "categoryId",
                  "type": "uint256"
                },
                {
                  "internalType": "uint256",
                  "name": "eventId",
                  "type": "uint256"
                },
                {
                  "internalType": "uint256",
                  "name": "voteCount",
                  "type": "uint256"
                },
                {
                  "internalType": "bool",
                  "name": "win",
                  "type": "bool"
                },
                {
                  "internalType": "string",
                  "name": "imageFileName",
                  "type": "string"
                }
              ],
              "internalType": "struct VotingSystem.Candidate[]",
              "name": "candidates",
              "type": "tuple[]"
            },
            {
              "internalType": "uint256",
              "name": "candidateCount",
              "type": "uint256"
            },
            {
              "internalType": "uint256",
              "name": "startDateTime",
              "type": "uint256"
            },
            {
              "internalType": "uint256",
              "name": "endDateTime",
              "type": "uint256"
            },
            {
              "internalType": "uint256",
              "name": "status",
              "type": "uint256"
            }
          ],
          "internalType": "struct VotingSystem.Event",
          "name": "",
          "type": "tuple"
        }
      ],
      "stateMutability": "view",
      "type": "function",
      "constant": true
    },
    {
      "inputs": [
        {
          "internalType": "string",
          "name": "_voterKey",
          "type": "string"
        },
        {
          "internalType": "uint256",
          "name": "_candidateId",
          "type": "uint256"
        },
        {
          "internalType": "uint256",
          "name": "_categoryId",
          "type": "uint256"
        },
        {
          "internalType": "uint256",
          "name": "_eventId",
          "type": "uint256"
        }
      ],
      "name": "vote",
      "outputs": [],
      "stateMutability": "nonpayable",
      "type": "function"
    },
    {
      "inputs": [
        {
          "internalType": "uint256",
          "name": "_candidateId",
          "type": "uint256"
        }
      ],
      "name": "getCandidateVoteCount",
      "outputs": [
        {
          "internalType": "uint256",
          "name": "count",
          "type": "uint256"
        }
      ],
      "stateMutability": "view",
      "type": "function",
      "constant": true
    },
    {
      "inputs": [
        {
          "internalType": "uint256",
          "name": "_categoryId",
          "type": "uint256"
        },
        {
          "internalType": "uint256",
          "name": "_eventId",
          "type": "uint256"
        }
      ],
      "name": "getVoteEventCandidate",
      "outputs": [
        {
          "components": [
            {
              "internalType": "uint256",
              "name": "id",
              "type": "uint256"
            },
            {
              "internalType": "string",
              "name": "name",
              "type": "string"
            },
            {
              "internalType": "string",
              "name": "description",
              "type": "string"
            },
            {
              "internalType": "uint256",
              "name": "studentId",
              "type": "uint256"
            },
            {
              "internalType": "uint256",
              "name": "categoryId",
              "type": "uint256"
            },
            {
              "internalType": "uint256",
              "name": "eventId",
              "type": "uint256"
            },
            {
              "internalType": "uint256",
              "name": "voteCount",
              "type": "uint256"
            },
            {
              "internalType": "bool",
              "name": "win",
              "type": "bool"
            },
            {
              "internalType": "string",
              "name": "imageFileName",
              "type": "string"
            }
          ],
          "internalType": "struct VotingSystem.Candidate[]",
          "name": "",
          "type": "tuple[]"
        }
      ],
      "stateMutability": "view",
      "type": "function",
      "constant": true
    },
    {
      "inputs": [
        {
          "internalType": "uint256",
          "name": "_categoryId",
          "type": "uint256"
        },
        {
          "internalType": "uint256",
          "name": "_eventId",
          "type": "uint256"
        }
      ],
      "name": "whoIsTheWinner",
      "outputs": [
        {
          "components": [
            {
              "internalType": "uint256",
              "name": "id",
              "type": "uint256"
            },
            {
              "internalType": "string",
              "name": "name",
              "type": "string"
            },
            {
              "internalType": "string",
              "name": "description",
              "type": "string"
            },
            {
              "internalType": "uint256",
              "name": "studentId",
              "type": "uint256"
            },
            {
              "internalType": "uint256",
              "name": "categoryId",
              "type": "uint256"
            },
            {
              "internalType": "uint256",
              "name": "eventId",
              "type": "uint256"
            },
            {
              "internalType": "uint256",
              "name": "voteCount",
              "type": "uint256"
            },
            {
              "internalType": "bool",
              "name": "win",
              "type": "bool"
            },
            {
              "internalType": "string",
              "name": "imageFileName",
              "type": "string"
            }
          ],
          "internalType": "struct VotingSystem.Candidate",
          "name": "",
          "type": "tuple"
        }
      ],
      "stateMutability": "view",
      "type": "function",
      "constant": true
    }
  ],
  "bytecode": "0x608060405234801561001057600080fd5b50600080546001600160a01b0319163317905561599d80620000336000396000f3fe608060405234801561001057600080fd5b50600436106102115760003560e01c8063776a657b11610125578063a7e62d1b116100ad578063c80112801161007c578063c8011280146104f9578063da58c7d91461050c578063dfdffaf414610532578063f29565ed14610545578063f731d0e91461055857600080fd5b8063a7e62d1b1461049d578063b315c597146104b0578063b62b3e93146104d3578063bf03f677146104e657600080fd5b806388ad4376116100f457806388ad4376146104175780638da5cb5b1461042a5780638f2c280514610455578063909f85021461046a578063a1a025641461048a57600080fd5b8063776a657b146103cb57806379cf6ecd146103de578063819ac74c146103f15780638801b5b61461040457600080fd5b806350515a77116101a857806360e93f3c1161017757806360e93f3c14610341578063642d20ad14610361578063689b6fbf14610385578063748f55a81461039857806376304984146103b857600080fd5b806350515a77146102e8578063514fc62a146102fb5780635a8ffc791461030e5780635b4d727c1461032e57600080fd5b80633e60e2f5116101e45780633e60e2f514610281578063400af02a146102a2578063401a52dd146102c25780634fb43250146102d557600080fd5b80631002cdd4146102165780631b3e9330146102345780632e0dcbf7146102575780632e6997fe1461026c575b600080fd5b61021e61056b565b60405161022b9190614b94565b60405180910390f35b610247610242366004614d19565b6109c9565b604051901515815260200161022b565b61026a610265366004614d68565b610b31565b005b610274610c5b565b60405161022b9190614da4565b61029461028f366004614df9565b610ddd565b60405190815260200161022b565b6102b56102b0366004614df9565b610e1b565b60405161022b9190614e5c565b61021e6102d0366004614ef9565b610ef1565b6102476102e3366004614f12565b6112fa565b6102476102f6366004614f34565b6113a6565b610247610309366004614d68565b611465565b61032161031c366004614ef9565b6114cb565b60405161022b9190614f70565b61027461033c366004614f12565b6115bf565b61035461034f366004614ef9565b61195b565b60405161022b9190615014565b61037461036f366004614ef9565b611dd3565b60405161022b959493929190615027565b610247610393366004614df9565b611e8f565b6103ab6103a6366004614f12565b611eb0565b60405161022b919061505f565b61026a6103c6366004615072565b612363565b61026a6103d9366004615115565b6126b4565b61026a6103ec3660046153b3565b6129cc565b61026a6103ff3660046153e7565b612af7565b6102b5610412366004614df9565b612bfc565b610247610425366004614d68565b612fd8565b60005461043d906001600160a01b031681565b6040516001600160a01b03909116815260200161022b565b61045d613003565b60405161022b919061543d565b61047d610478366004614f12565b613514565b60405161022b9190615492565b610247610498366004614d68565b6139e1565b6102746104ab366004614f12565b613ac5565b6102946104be366004614ef9565b60009081526003602052604090206006015490565b61026a6104e13660046154a5565b613ef8565b6102476104f43660046155b8565b613f60565b61026a6105073660046155e4565b613ff4565b61051f61051a366004614ef9565b6141aa565b60405161022b9796959493929190615618565b6102476105403660046155b8565b614405565b61026a610553366004614df9565b61448d565b61026a610566366004615685565b614573565b606060006009546001600160401b0381111561058957610589614bf6565b6040519080825280602002602001820160405280156105c257816020015b6105af6148ba565b8152602001906001900390816105a75790505b5090506000805b6007548110156109c15760005b600160006105e4848361576c565b81526020810191909152604001600020600201548110156109ae576001600061060d848361576c565b8152602001908152602001600020600201818154811061062f5761062f615784565b906000526020600020906008020160405180610100016040529081600082015481526020016001820180546106639061579a565b80601f016020809104026020016040519081016040528092919081815260200182805461068f9061579a565b80156106dc5780601f106106b1576101008083540402835291602001916106dc565b820191906000526020600020905b8154815290600101906020018083116106bf57829003601f168201915b505050505081526020016002820154815260200160038201805480602002602001604051908101604052809291908181526020016000905b82821015610942578382906000526020600020906009020160405180610120016040529081600082015481526020016001820180546107529061579a565b80601f016020809104026020016040519081016040528092919081815260200182805461077e9061579a565b80156107cb5780601f106107a0576101008083540402835291602001916107cb565b820191906000526020600020905b8154815290600101906020018083116107ae57829003601f168201915b505050505081526020016002820180546107e49061579a565b80601f01602080910402602001604051908101604052809291908181526020018280546108109061579a565b801561085d5780601f106108325761010080835404028352916020019161085d565b820191906000526020600020905b81548152906001019060200180831161084057829003601f168201915b505050918352505060038201546020820152600482015460408201526005820154606082015260068201546080820152600782015460ff16151560a082015260088201805460c0909201916108b19061579a565b80601f01602080910402602001604051908101604052809291908181526020018280546108dd9061579a565b801561092a5780601f106108ff5761010080835404028352916020019161092a565b820191906000526020600020905b81548152906001019060200180831161090d57829003601f168201915b50505050508152505081526020019060010190610714565b50505050815260200160048201548152602001600582015481526020016006820154815260200160078201548152505084848151811061098457610984615784565b602090810291909101015261099a60018461576c565b9250806109a6816157ce565b9150506105d6565b50806109b9816157ce565b9150506105c9565b509092915050565b60008381526001602052604081205481036109ff5760405162461bcd60e51b81526004016109f6906157e7565b60405180910390fd5b610a0984846113a6565b1515600114610a515760405162461bcd60e51b8152602060048201526014602482015273115d995b9d08191bd95cc81b9bdd08195e1a5cdd60621b60448201526064016109f6565b60005b600085815260016020526040902060020154811015610b24578380519060200120600160008781526020019081526020016000206002018281548110610a9c57610a9c615784565b9060005260206000209060080201600101604051610aba919061581e565b6040518091039020148015610b0357506000858152600160205260409020600201805482908110610aed57610aed615784565b9060005260206000209060080201600501548310155b15610b12576001915050610b2a565b80610b1c816157ce565b915050610a54565b50600090505b9392505050565b60015b6007548111610bcf5760016000828152602001908152602001600020600101604051610b60919061581e565b6040518091039020828051906020012003610bbd5760405162461bcd60e51b815260206004820152601760248201527f43617465676f727920616c72656164792065786973747300000000000000000060448201526064016109f6565b80610bc7816157ce565b915050610b34565b50600160076000828254610be3919061576c565b9091555050600754600090815260016020818152604090922083519092610c1092840191908501906148ff565b5060078054825560016003830155546040517f5bae3f75753ef0a1c0ea0f6c51d7b43a4b8d116572b8b7b5cb771f9ad32d4ae590610c4f908590614f70565b60405180910390a25050565b606060006008546001600160401b03811115610c7957610c79614bf6565b604051908082528060200260200182016040528015610cb257816020015b610c9f614983565b815260200190600190039081610c975790505b50905060006009546001600160401b03811115610cd157610cd1614bf6565b604051908082528060200260200182016040528015610d0a57816020015b610cf76148ba565b815260200190600190039081610cef5790505b509050610d1561056b565b90506000805b600954811015610dd45760005b838281518110610d3a57610d3a615784565b60200260200101516060015151811015610dc157838281518110610d6057610d60615784565b6020026020010151606001518181518110610d7d57610d7d615784565b6020026020010151858481518110610d9757610d97615784565b6020908102919091010152610dad60018461576c565b925080610db9816157ce565b915050610d28565b5080610dcc816157ce565b915050610d1b565b50919392505050565b600080610dea8484612bfc565b8051909150600003610e0e5760405162461bcd60e51b81526004016109f6906158b9565b60a0015190505b92915050565b610e5e6040518060e00160405280600081526020016060815260200160608152602001600080191681526020016060815260200160008152602001606081525090565b6000610e6a8484612bfc565b8051909150600003610e8e5760405162461bcd60e51b81526004016109f6906158b9565b8060a00151600114610b2a5760405162461bcd60e51b815260206004820152602660248201527f596f7572206163636f756e74207761732062616e6e6564206f72206e6f74207660448201526565726966792160d01b60648201526084016109f6565b60008181526001602052604081206002810154606092906001600160401b03811115610f1f57610f1f614bf6565b604051908082528060200260200182016040528015610f5857816020015b610f456148ba565b815260200190600190039081610f3d5790505b50905060005b60028301548110156112f257826002018181548110610f7f57610f7f615784565b90600052602060002090600802016040518061010001604052908160008201548152602001600182018054610fb39061579a565b80601f0160208091040260200160405190810160405280929190818152602001828054610fdf9061579a565b801561102c5780601f106110015761010080835404028352916020019161102c565b820191906000526020600020905b81548152906001019060200180831161100f57829003601f168201915b505050505081526020016002820154815260200160038201805480602002602001604051908101604052809291908181526020016000905b82821015611292578382906000526020600020906009020160405180610120016040529081600082015481526020016001820180546110a29061579a565b80601f01602080910402602001604051908101604052809291908181526020018280546110ce9061579a565b801561111b5780601f106110f05761010080835404028352916020019161111b565b820191906000526020600020905b8154815290600101906020018083116110fe57829003601f168201915b505050505081526020016002820180546111349061579a565b80601f01602080910402602001604051908101604052809291908181526020018280546111609061579a565b80156111ad5780601f10611182576101008083540402835291602001916111ad565b820191906000526020600020905b81548152906001019060200180831161119057829003601f168201915b505050918352505060038201546020820152600482015460408201526005820154606082015260068201546080820152600782015460ff16151560a082015260088201805460c0909201916112019061579a565b80601f016020809104026020016040519081016040528092919081815260200182805461122d9061579a565b801561127a5780601f1061124f5761010080835404028352916020019161127a565b820191906000526020600020905b81548152906001019060200180831161125d57829003601f168201915b50505050508152505081526020019060010190611064565b5050505081526020016004820154815260200160058201548152602001600682015481526020016007820154815250508282815181106112d4576112d4615784565b602002602001018190525080806112ea906157ce565b915050610f5e565b509392505050565b60008281526001602052604081205481036113275760405162461bcd60e51b81526004016109f6906157e7565b60005b60008481526001602052604090206002015481101561139c57600084815260016020526040902060020180548491908390811061136957611369615784565b9060005260206000209060080201600001540361138a576001915050610e15565b80611394816157ce565b91505061132a565b5060009392505050565b60008281526001602052604081205481036113d35760405162461bcd60e51b81526004016109f6906157e7565b60005b60008481526001602052604090206002015481101561139c57828051906020012060016000868152602001908152602001600020600201828154811061141e5761141e615784565b906000526020600020906008020160010160405161143c919061581e565b604051809103902003611453576001915050610e15565b8061145d816157ce565b9150506113d6565b600060015b600b5481116114c257600081815260056020526040908190209051611492916001019061581e565b60405180910390208380519060200120036114b05750600192915050565b806114ba816157ce565b91505061146a565b50600092915050565b60606000821180156114df5750600b548211155b61151e5760405162461bcd60e51b815260206004820152601060248201526f125b9d985b1a59081d9bdd195c88125160821b60448201526064016109f6565b6000828152600560205260409020600201805461153a9061579a565b80601f01602080910402602001604051908101604052809291908181526020018280546115669061579a565b80156115b35780601f10611588576101008083540402835291602001916115b3565b820191906000526020600020905b81548152906001019060200180831161159657829003601f168201915b50505050509050919050565b60008281526001602052604081206060915b600282015481101561195357838260020182815481106115f3576115f3615784565b9060005260206000209060080201600001540361194157600082600201828154811061162157611621615784565b9060005260206000209060080201600401546001600160401b0381111561164a5761164a614bf6565b60405190808252806020026020018201604052801561168357816020015b611670614983565b8152602001906001900390816116685790505b50905060005b83600201838154811061169e5761169e615784565b906000526020600020906008020160030180549050811015611936578360020183815481106116cf576116cf615784565b906000526020600020906008020160030181815481106116f1576116f1615784565b906000526020600020906009020160405180610120016040529081600082015481526020016001820180546117259061579a565b80601f01602080910402602001604051908101604052809291908181526020018280546117519061579a565b801561179e5780601f106117735761010080835404028352916020019161179e565b820191906000526020600020905b81548152906001019060200180831161178157829003601f168201915b505050505081526020016002820180546117b79061579a565b80601f01602080910402602001604051908101604052809291908181526020018280546117e39061579a565b80156118305780601f1061180557610100808354040283529160200191611830565b820191906000526020600020905b81548152906001019060200180831161181357829003601f168201915b505050918352505060038201546020820152600482015460408201526005820154606082015260068201546080820152600782015460ff16151560a082015260088201805460c0909201916118849061579a565b80601f01602080910402602001604051908101604052809291908181526020018280546118b09061579a565b80156118fd5780601f106118d2576101008083540402835291602001916118fd565b820191906000526020600020905b8154815290600101906020018083116118e057829003601f168201915b50505050508152505082828151811061191857611918615784565b6020026020010181905250808061192e906157ce565b915050611689565b509250610e15915050565b8061194b816157ce565b9150506115d1565b505092915050565b6119866040518060800160405280600081526020016060815260200160608152602001600081525090565b600082815260016020818152604092839020835160808101909452805484529182018054918401916119b79061579a565b80601f01602080910402602001604051908101604052809291908181526020018280546119e39061579a565b8015611a305780601f10611a0557610100808354040283529160200191611a30565b820191906000526020600020905b815481529060010190602001808311611a1357829003601f168201915b5050505050815260200160028201805480602002602001604051908101604052809291908181526020016000905b82821015611dba57838290600052602060002090600802016040518061010001604052908160008201548152602001600182018054611a9c9061579a565b80601f0160208091040260200160405190810160405280929190818152602001828054611ac89061579a565b8015611b155780601f10611aea57610100808354040283529160200191611b15565b820191906000526020600020905b815481529060010190602001808311611af857829003601f168201915b505050505081526020016002820154815260200160038201805480602002602001604051908101604052809291908181526020016000905b82821015611d7b57838290600052602060002090600902016040518061012001604052908160008201548152602001600182018054611b8b9061579a565b80601f0160208091040260200160405190810160405280929190818152602001828054611bb79061579a565b8015611c045780601f10611bd957610100808354040283529160200191611c04565b820191906000526020600020905b815481529060010190602001808311611be757829003601f168201915b50505050508152602001600282018054611c1d9061579a565b80601f0160208091040260200160405190810160405280929190818152602001828054611c499061579a565b8015611c965780601f10611c6b57610100808354040283529160200191611c96565b820191906000526020600020905b815481529060010190602001808311611c7957829003601f168201915b505050918352505060038201546020820152600482015460408201526005820154606082015260068201546080820152600782015460ff16151560a082015260088201805460c090920191611cea9061579a565b80601f0160208091040260200160405190810160405280929190818152602001828054611d169061579a565b8015611d635780601f10611d3857610100808354040283529160200191611d63565b820191906000526020600020905b815481529060010190602001808311611d4657829003601f168201915b50505050508152505081526020019060010190611b4d565b50505050815260200160048201548152602001600582015481526020016006820154815260200160078201548152505081526020019060010190611a5e565b5050505081526020016003820154815250509050919050565b60046020526000908152604090208054600182018054919291611df59061579a565b80601f0160208091040260200160405190810160405280929190818152602001828054611e219061579a565b8015611e6e5780601f10611e4357610100808354040283529160200191611e6e565b820191906000526020600020905b815481529060010190602001808311611e5157829003601f168201915b50505050600283015460038401546004909401549293909290915060ff1685565b600080611e9c8484612bfc565b80519091501561139c576001915050610e15565b611eb8614983565b600083815260016020908152604080832060020180548251818502810185019093528083529192909190849084015b8282101561224357838290600052602060002090600802016040518061010001604052908160008201548152602001600182018054611f259061579a565b80601f0160208091040260200160405190810160405280929190818152602001828054611f519061579a565b8015611f9e5780601f10611f7357610100808354040283529160200191611f9e565b820191906000526020600020905b815481529060010190602001808311611f8157829003601f168201915b505050505081526020016002820154815260200160038201805480602002602001604051908101604052809291908181526020016000905b82821015612204578382906000526020600020906009020160405180610120016040529081600082015481526020016001820180546120149061579a565b80601f01602080910402602001604051908101604052809291908181526020018280546120409061579a565b801561208d5780601f106120625761010080835404028352916020019161208d565b820191906000526020600020905b81548152906001019060200180831161207057829003601f168201915b505050505081526020016002820180546120a69061579a565b80601f01602080910402602001604051908101604052809291908181526020018280546120d29061579a565b801561211f5780601f106120f45761010080835404028352916020019161211f565b820191906000526020600020905b81548152906001019060200180831161210257829003601f168201915b505050918352505060038201546020820152600482015460408201526005820154606082015260068201546080820152600782015460ff16151560a082015260088201805460c0909201916121739061579a565b80601f016020809104026020016040519081016040528092919081815260200182805461219f9061579a565b80156121ec5780601f106121c1576101008083540402835291602001916121ec565b820191906000526020600020905b8154815290600101906020018083116121cf57829003601f168201915b50505050508152505081526020019060010190611fd6565b50505050815260200160048201548152602001600582015481526020016006820154815260200160078201548152505081526020019060010190611ee7565b505050509050606060005b82518110156122ae578483828151811061226a5761226a615784565b6020026020010151600001510361229c5782818151811061228d5761228d615784565b60200260200101516060015191505b806122a6816157ce565b91505061224e565b506000816000815181106122c4576122c4615784565b6020026020010151905060005b600183516122df91906158fd565b81101561235257826122f282600161576c565b8151811061230257612302615784565b602002602001015160c001518260c001511015612340578261232582600161576c565b8151811061233557612335615784565b602002602001015191505b8061234a816157ce565b9150506122d1565b50600160e082015295945050505050565b60008681526001602052604081205490036123905760405162461bcd60e51b81526004016109f6906157e7565b61239a86866112fa565b6123dd5760405162461bcd60e51b8152602060048201526014602482015273115d995b9d08191bd95cc81b9bdd08195e1a5cdd60621b60448201526064016109f6565b6123e8868684614405565b156124355760405162461bcd60e51b815260206004820152601860248201527f43616e64696461746520616c726561647920657869737473000000000000000060448201526064016109f6565b6006816040516124459190615914565b9081526040519081900360200190205460ff16156124a55760405162461bcd60e51b815260206004820152601e60248201527f496d6167652066696c65206e616d6520616c726561647920696e20757365000060448201526064016109f6565b6001600860008282546124b8919061576c565b9091555050604080516101208101825260085481526020808201879052818301869052606082018590526080820189905260a08201889052600060c0830181905260e083018190526101008301859052898152600190915291822090915b6002820154811015612677578782600201828154811061253857612538615784565b906000526020600020906008020160000154036126655781600201818154811061256457612564615784565b600091825260208083206003600890930201919091018054600181810183559184529282902086516009909402019283558582015180518794936125ac9385019201906148ff565b50604082015180516125c89160028401916020909101906148ff565b50606082015160038201556080820151600482015560a0820151600582015560c0820151600682015560e082015160078201805460ff191691151591909117905561010082015180516126259160088401916020909101906148ff565b505050600182600201828154811061263f5761263f615784565b9060005260206000209060080201600401600082825461265f919061576c565b90915550505b8061266f816157ce565b915050612516565b50600160068460405161268a9190615914565b908152604051908190036020019020805491151560ff199092169190911790555050505050505050565b600082815260016020526040812054900361270c5760405162461bcd60e51b815260206004820152601860248201527743617465676f727920646f6573206e6f742065786973747360401b60448201526064016109f6565b6009546000036127565760405162461bcd60e51b81526020600482015260156024820152744576656e7420646f6573206e6f742065786973747360581b60448201526064016109f6565b612761828285613f60565b15156001146127b25760405162461bcd60e51b815260206004820152601a60248201527f43616e6469646174657320646f6573206e6f742065786973747300000000000060448201526064016109f6565b60015b600a548111612899576000818152600460205260409081902090516127dd916001019061581e565b6040518091039020858051906020012014801561280a575060008181526004602052604090206002015483145b8015612826575060008181526004602052604090206003015482145b15612887576000818152600460208190526040909120015460ff16156128825760405162461bcd60e51b8152602060048201526011602482015270165bdd48185b1c9958591e481d9bdd1959607a1b60448201526064016109f6565b612899565b80612891816157ce565b9150506127b5565b506001600a60008282546128ad919061576c565b90915550506040805160a081018252600a548082526020808301888152838501879052606084018690526001608085018190526000938452600483529490922083518155915180519394859461290a9391850192909101906148ff565b5060408201516002820155606082015160038201556080909101516004909101805460ff191691151591909117905561294284614708565b61294d838386614732565b604080516020810185905280820184905281518082038301815260609091019182905290859061297e908390615914565b6040518091039020876040516129949190615914565b604051908190038120907f336badd820d33e68eff2381e343928896ff7147adf09b298939d0a7b001f072e90600090a4505050505050565b60408082015160009081526001602052908120549003612a295760405162461bcd60e51b815260206004820152601860248201527743617465676f727920646f6573206e6f742065786973747360401b60448201526064016109f6565b612a3b816040015182600001516112fa565b612a7f5760405162461bcd60e51b81526020600482015260156024820152744576656e7420646f6573206e6f742065786973742160581b60448201526064016109f6565b6000600160008360400151815260200190815260200160002060020160018360000151612aac91906158fd565b81548110612abc57612abc615784565b906000526020600020906008020190508160200151816001019080519060200190612ae89291906148ff565b5060e090910151600790910155565b6000848152600160205260408120549003612b245760405162461bcd60e51b81526004016109f690615930565b612b2e84846113a6565b15612b725760405162461bcd60e51b81526020600482015260146024820152734576656e7420616c72656164792065786973747360601b60448201526064016109f6565b6000848152600160208190526040822060098054919392918390612b9790849061576c565b9182905550600284018054600181810183556000928352602092839020600890920290910183815589519395509350612bd692908401918901906148ff565b506002810196909655505060016007850155600584019190915560069092019190915550565b612c3f6040518060e00160405280600081526020016060815260200160608152602001600080191681526020016060815260200160008152602001606081525090565b600082604051602001612c529190615914565b60408051601f198184030181529190528051602090910120905060015b600b548111612f7057600081815260056020526040908190209051612c97916002019061581e565b60405180910390208580519060200120148015612ccc5750600081815260056020526040902060030154612ccc908390614842565b15612f5e57600560008281526020019081526020016000206040518060e001604052908160008201548152602001600182018054612d099061579a565b80601f0160208091040260200160405190810160405280929190818152602001828054612d359061579a565b8015612d825780601f10612d5757610100808354040283529160200191612d82565b820191906000526020600020905b815481529060010190602001808311612d6557829003601f168201915b50505050508152602001600282018054612d9b9061579a565b80601f0160208091040260200160405190810160405280929190818152602001828054612dc79061579a565b8015612e145780601f10612de957610100808354040283529160200191612e14565b820191906000526020600020905b815481529060010190602001808311612df757829003601f168201915b5050505050815260200160038201548152602001600482018054612e379061579a565b80601f0160208091040260200160405190810160405280929190818152602001828054612e639061579a565b8015612eb05780601f10612e8557610100808354040283529160200191612eb0565b820191906000526020600020905b815481529060010190602001808311612e9357829003601f168201915b5050505050815260200160058201548152602001600682018054612ed39061579a565b80601f0160208091040260200160405190810160405280929190818152602001828054612eff9061579a565b8015612f4c5780601f10612f2157610100808354040283529160200191612f4c565b820191906000526020600020905b815481529060010190602001808311612f2f57829003601f168201915b50505050508152505092505050610e15565b80612f68816157ce565b915050612c6f565b50506040805160e08101825260008082528251602080820185528282528084019190915283518082018552828152838501526060830182905283518082018552828152608084015260a083018290528351908101909352825260c08101919091529392505050565b6000600682604051612fea9190615914565b9081526040519081900360200190205460ff1692915050565b606060006007546001600160401b0381111561302157613021614bf6565b60405190808252806020026020018201604052801561307d57816020015b61306a6040518060800160405280600081526020016060815260200160608152602001600081525090565b81526020019060019003908161303f5790505b50905060015b600754811161350e57600081815260016020818152604092839020835160808101909452805484529182018054918401916130bd9061579a565b80601f01602080910402602001604051908101604052809291908181526020018280546130e99061579a565b80156131365780601f1061310b57610100808354040283529160200191613136565b820191906000526020600020905b81548152906001019060200180831161311957829003601f168201915b5050505050815260200160028201805480602002602001604051908101604052809291908181526020016000905b828210156134c0578382906000526020600020906008020160405180610100016040529081600082015481526020016001820180546131a29061579a565b80601f01602080910402602001604051908101604052809291908181526020018280546131ce9061579a565b801561321b5780601f106131f05761010080835404028352916020019161321b565b820191906000526020600020905b8154815290600101906020018083116131fe57829003601f168201915b505050505081526020016002820154815260200160038201805480602002602001604051908101604052809291908181526020016000905b82821015613481578382906000526020600020906009020160405180610120016040529081600082015481526020016001820180546132919061579a565b80601f01602080910402602001604051908101604052809291908181526020018280546132bd9061579a565b801561330a5780601f106132df5761010080835404028352916020019161330a565b820191906000526020600020905b8154815290600101906020018083116132ed57829003601f168201915b505050505081526020016002820180546133239061579a565b80601f016020809104026020016040519081016040528092919081815260200182805461334f9061579a565b801561339c5780601f106133715761010080835404028352916020019161339c565b820191906000526020600020905b81548152906001019060200180831161337f57829003601f168201915b505050918352505060038201546020820152600482015460408201526005820154606082015260068201546080820152600782015460ff16151560a082015260088201805460c0909201916133f09061579a565b80601f016020809104026020016040519081016040528092919081815260200182805461341c9061579a565b80156134695780601f1061343e57610100808354040283529160200191613469565b820191906000526020600020905b81548152906001019060200180831161344c57829003601f168201915b50505050508152505081526020019060010190613253565b50505050815260200160048201548152602001600582015481526020016006820154815260200160078201548152505081526020019060010190613164565b505050508152602001600382015481525050826001836134e091906158fd565b815181106134f0576134f0615784565b60200260200101819052508080613506906157ce565b915050613083565b50919050565b61351c6148ba565b600083815260016020818152604080842081516080810190925280548252928301805491939284019161354e9061579a565b80601f016020809104026020016040519081016040528092919081815260200182805461357a9061579a565b80156135c75780601f1061359c576101008083540402835291602001916135c7565b820191906000526020600020905b8154815290600101906020018083116135aa57829003601f168201915b5050505050815260200160028201805480602002602001604051908101604052809291908181526020016000905b82821015613951578382906000526020600020906008020160405180610100016040529081600082015481526020016001820180546136339061579a565b80601f016020809104026020016040519081016040528092919081815260200182805461365f9061579a565b80156136ac5780601f10613681576101008083540402835291602001916136ac565b820191906000526020600020905b81548152906001019060200180831161368f57829003601f168201915b505050505081526020016002820154815260200160038201805480602002602001604051908101604052809291908181526020016000905b82821015613912578382906000526020600020906009020160405180610120016040529081600082015481526020016001820180546137229061579a565b80601f016020809104026020016040519081016040528092919081815260200182805461374e9061579a565b801561379b5780601f106137705761010080835404028352916020019161379b565b820191906000526020600020905b81548152906001019060200180831161377e57829003601f168201915b505050505081526020016002820180546137b49061579a565b80601f01602080910402602001604051908101604052809291908181526020018280546137e09061579a565b801561382d5780601f106138025761010080835404028352916020019161382d565b820191906000526020600020905b81548152906001019060200180831161381057829003601f168201915b505050918352505060038201546020820152600482015460408201526005820154606082015260068201546080820152600782015460ff16151560a082015260088201805460c0909201916138819061579a565b80601f01602080910402602001604051908101604052809291908181526020018280546138ad9061579a565b80156138fa5780601f106138cf576101008083540402835291602001916138fa565b820191906000526020600020905b8154815290600101906020018083116138dd57829003601f168201915b505050505081525050815260200190600101906136e4565b505050508152602001600482015481526020016005820154815260200160068201548152602001600782015481525050815260200190600101906135f5565b505050508152602001600382015481525050905061396d6148ba565b60005b8260400151518110156139d857848360400151828151811061399457613994615784565b602002602001015160000151036139c657826040015181815181106139bb576139bb615784565b602002602001015191505b806139d0816157ce565b915050613970565b50949350505050565b6001600090815260056020527f1471eb6eb2c5e789fc3de43f8ce62938c7d1836ec861730447e2ada8fd81017b548103613a555760405162461bcd60e51b81526020600482015260156024820152744e6f20766f74657220696e20746865206c6973742160581b60448201526064016109f6565b60015b600b5481116114c257600081815260056020526040908190209051613a80916006019061581e565b6040518091039020838051906020012003613ab35760009081526005602081905260409091206001910181905592915050565b80613abd816157ce565b915050613a58565b6000828152600160209081526040808320600201805482518185028101850190935280835260609493849084015b82821015613e4f57838290600052602060002090600802016040518061010001604052908160008201548152602001600182018054613b319061579a565b80601f0160208091040260200160405190810160405280929190818152602001828054613b5d9061579a565b8015613baa5780601f10613b7f57610100808354040283529160200191613baa565b820191906000526020600020905b815481529060010190602001808311613b8d57829003601f168201915b505050505081526020016002820154815260200160038201805480602002602001604051908101604052809291908181526020016000905b82821015613e1057838290600052602060002090600902016040518061012001604052908160008201548152602001600182018054613c209061579a565b80601f0160208091040260200160405190810160405280929190818152602001828054613c4c9061579a565b8015613c995780601f10613c6e57610100808354040283529160200191613c99565b820191906000526020600020905b815481529060010190602001808311613c7c57829003601f168201915b50505050508152602001600282018054613cb29061579a565b80601f0160208091040260200160405190810160405280929190818152602001828054613cde9061579a565b8015613d2b5780601f10613d0057610100808354040283529160200191613d2b565b820191906000526020600020905b815481529060010190602001808311613d0e57829003601f168201915b505050918352505060038201546020820152600482015460408201526005820154606082015260068201546080820152600782015460ff16151560a082015260088201805460c090920191613d7f9061579a565b80601f0160208091040260200160405190810160405280929190818152602001828054613dab9061579a565b8015613df85780601f10613dcd57610100808354040283529160200191613df8565b820191906000526020600020905b815481529060010190602001808311613ddb57829003601f168201915b50505050508152505081526020019060010190613be2565b50505050815260200160048201548152602001600582015481526020016006820154815260200160078201548152505081526020019060010190613af3565b50505050905060005b8151811015613ebe5783828281518110613e7457613e74615784565b60200260200101516000015103613eac57818181518110613e9757613e97615784565b60200260200101516060015192505050610e15565b80613eb6816157ce565b915050613e58565b5060408051600080825260208201909252906139d8565b613edd614983565b815260200190600190039081613ed557905050949350505050565b80516000908152600160205260408120549003613f275760405162461bcd60e51b81526004016109f690615930565b805160009081526001602081815260409092208284015180519193613f51938501929101906148ff565b50606090910151600390910155565b6000838152600160205260408120548103613f8d5760405162461bcd60e51b81526004016109f6906157e7565b6000613f9985856115bf565b905060005b8151811015613fe85783828281518110613fba57613fba615784565b60200260200101516000015103613fd657600192505050610b2a565b80613fe0816157ce565b915050613f9e565b50600095945050505050565b608081015160009081526001602052604081205490036140265760405162461bcd60e51b81526004016109f690615930565b61403881608001518260a001516112fa565b15156001146140805760405162461bcd60e51b81526020600482015260146024820152734576656e7420686173206e6f742065786973747360601b60448201526064016109f6565b61409781608001518260a001518360600151614405565b15156001146140e85760405162461bcd60e51b815260206004820152601a60248201527f43616e64696461746520646f6573206e6f74206578697374656400000000000060448201526064016109f6565b60808101516000908152600160208190526040822060a0840151600290910191614111916158fd565b8154811061412157614121615784565b90600052602060002090600802016003016001836000015161414391906158fd565b8154811061415357614153615784565b90600052602060002090600902019050816020015181600101908051906020019061417f9291906148ff565b5060608201516003820155604082015180516141a59160028401916020909101906148ff565b505050565b600560205260009081526040902080546001820180549192916141cc9061579a565b80601f01602080910402602001604051908101604052809291908181526020018280546141f89061579a565b80156142455780601f1061421a57610100808354040283529160200191614245565b820191906000526020600020905b81548152906001019060200180831161422857829003601f168201915b50505050509080600201805461425a9061579a565b80601f01602080910402602001604051908101604052809291908181526020018280546142869061579a565b80156142d35780601f106142a8576101008083540402835291602001916142d3565b820191906000526020600020905b8154815290600101906020018083116142b657829003601f168201915b5050505050908060030154908060040180546142ee9061579a565b80601f016020809104026020016040519081016040528092919081815260200182805461431a9061579a565b80156143675780601f1061433c57610100808354040283529160200191614367565b820191906000526020600020905b81548152906001019060200180831161434a57829003601f168201915b5050505050908060050154908060060180546143829061579a565b80601f01602080910402602001604051908101604052809291908181526020018280546143ae9061579a565b80156143fb5780601f106143d0576101008083540402835291602001916143fb565b820191906000526020600020905b8154815290600101906020018083116143de57829003601f168201915b5050505050905087565b60008381526001602052604081205481036144325760405162461bcd60e51b81526004016109f6906157e7565b600061443e85856115bf565b905060005b8151811015613fe8578382828151811061445f5761445f615784565b6020026020010151606001510361447b57600192505050610b2a565b80614485816157ce565b915050614443565b61449682611465565b6144d95760405162461bcd60e51b81526020600482015260146024820152735573657220646f6573206e6f742065786973747360601b60448201526064016109f6565b6000816040516020016144ec9190615914565b60408051601f198184030181529190528051602090910120905060015b600b54811161456d57600081815260056020526040908190209051614531916001019061581e565b604051809103902084805190602001200361455b5760008181526005602052604090206003018290555b80614565816157ce565b915050614509565b50505050565b60015b600b5481116146045760008181526005602052604090819020905161459e916001019061581e565b60405180910390208680519060200120036145f25760405162461bcd60e51b8152602060048201526014602482015273566f74657220616c72656164792065786973747360601b60448201526064016109f6565b806145fc816157ce565b915050614576565b506001600b6000828254614618919061576c565b9091555050604051600090614631908590602001615914565b60408051601f198184030181529181528151602092830120600b5460008181526005855292909220918255885190935090916146749160018401918a01906148ff565b50855161468a90600283019060208901906148ff565b506003810182905583516146a790600483019060208701906148ff565b506000600582015582516146c490600683019060208601906148ff565b50600b547f56729c826fe77eec184059336ced13d9ef79d10126212c90a4d2b724391e14e2886040516146f79190614f70565b60405180910390a250505050505050565b600081815260036020526040812060060180546001929061472a90849061576c565b909155505050565b6000838152600160205260408120600201905b815481101561483b578382828154811061476157614761615784565b9060005260206000209060080201600001540361482957600082828154811061478c5761478c615784565b9060005260206000209060080201600301905060005b815481101561482657848282815481106147be576147be615784565b906000526020600020906009020160000154036148145760018282815481106147e9576147e9615784565b90600052602060002090600902016006016000828254614809919061576c565b909155506148269050565b8061481e816157ce565b9150506147a2565b50505b80614833816157ce565b915050614745565b5050505050565b6000805b60208110156148b05782816020811061486157614861615784565b1a60f81b6001600160f81b03191684826020811061488157614881615784565b1a60f81b6001600160f81b0319161461489e576000915050610e15565b806148a8816157ce565b915050614846565b5060019392505050565b60405180610100016040528060008152602001606081526020016000815260200160608152602001600081526020016000815260200160008152602001600081525090565b82805461490b9061579a565b90600052602060002090601f01602090048101928261492d5760008555614973565b82601f1061494657805160ff1916838001178555614973565b82800160010185558215614973579182015b82811115614973578251825591602001919060010190614958565b5061497f9291506149d1565b5090565b60405180610120016040528060008152602001606081526020016060815260200160008152602001600081526020016000815260200160008152602001600015158152602001606081525090565b5b8082111561497f57600081556001016149d2565b60005b83811015614a015781810151838201526020016149e9565b8381111561456d5750506000910152565b60008151808452614a2a8160208601602086016149e6565b601f01601f19169290920160200192915050565b6000610120825184526020830151816020860152614a5e82860182614a12565b91505060408301518482036040860152614a788282614a12565b915050606083015160608501526080830151608085015260a083015160a085015260c083015160c085015260e0830151614ab660e086018215159052565b506101008084015185830382870152614acf8382614a12565b9695505050505050565b6000610100825184526020808401518282870152614af983870182614a12565b92505060408401516040860152606084015185830360608701528281518085528385019150838160051b860101848401935060005b82811015614b5c57601f19878303018452614b4a828651614a3e565b94860194938601939150600101614b2e565b50608088015160808a015260a088015160a08a015260c088015160c08a015260e088015160e08a015280965050505050505092915050565b6000602080830181845280855180835260408601915060408160051b870101925083870160005b82811015614be957603f19888603018452614bd7858351614ad9565b94509285019290850190600101614bbb565b5092979650505050505050565b634e487b7160e01b600052604160045260246000fd5b60405161012081016001600160401b0381118282101715614c2f57614c2f614bf6565b60405290565b60405161010081016001600160401b0381118282101715614c2f57614c2f614bf6565b604051608081016001600160401b0381118282101715614c2f57614c2f614bf6565b604051601f8201601f191681016001600160401b0381118282101715614ca257614ca2614bf6565b604052919050565b600082601f830112614cbb57600080fd5b81356001600160401b03811115614cd457614cd4614bf6565b614ce7601f8201601f1916602001614c7a565b818152846020838601011115614cfc57600080fd5b816020850160208301376000918101602001919091529392505050565b600080600060608486031215614d2e57600080fd5b8335925060208401356001600160401b03811115614d4b57600080fd5b614d5786828701614caa565b925050604084013590509250925092565b600060208284031215614d7a57600080fd5b81356001600160401b03811115614d9057600080fd5b614d9c84828501614caa565b949350505050565b6000602080830181845280855180835260408601915060408160051b870101925083870160005b82811015614be957603f19888603018452614de7858351614a3e565b94509285019290850190600101614dcb565b60008060408385031215614e0c57600080fd5b82356001600160401b0380821115614e2357600080fd5b614e2f86838701614caa565b93506020850135915080821115614e4557600080fd5b50614e5285828601614caa565b9150509250929050565b60208152815160208201526000602083015160e06040840152614e83610100840182614a12565b90506040840151601f1980858403016060860152614ea18383614a12565b92506060860151608086015260808601519150808584030160a0860152614ec88383614a12565b925060a086015160c086015260c08601519150808584030160e086015250614ef08282614a12565b95945050505050565b600060208284031215614f0b57600080fd5b5035919050565b60008060408385031215614f2557600080fd5b50508035926020909101359150565b60008060408385031215614f4757600080fd5b8235915060208301356001600160401b03811115614f6457600080fd5b614e5285828601614caa565b602081526000610b2a6020830184614a12565b805182526000602080830151608082860152614fa26080860182614a12565b9050604084015185820360408701528181518084528484019150848160051b850101858401935060005b82811015614ffa57601f19868303018452614fe8828651614ad9565b94870194938701939150600101614fcc565b50606088015160608a015280965050505050505092915050565b602081526000610b2a6020830184614f83565b85815260a06020820152600061504060a0830187614a12565b6040830195909552506060810192909252151560809091015292915050565b602081526000610b2a6020830184614a3e565b60008060008060008060c0878903121561508b57600080fd5b863595506020870135945060408701356001600160401b03808211156150b057600080fd5b6150bc8a838b01614caa565b955060608901359150808211156150d257600080fd5b6150de8a838b01614caa565b94506080890135935060a08901359150808211156150fb57600080fd5b5061510889828a01614caa565b9150509295509295509295565b6000806000806080858703121561512b57600080fd5b84356001600160401b0381111561514157600080fd5b61514d87828801614caa565b97602087013597506040870135966060013595509350505050565b60006001600160401b0382111561518157615181614bf6565b5060051b60200190565b8035801515811461519b57600080fd5b919050565b600061012082840312156151b357600080fd5b6151bb614c0c565b90508135815260208201356001600160401b03808211156151db57600080fd5b6151e785838601614caa565b6020840152604084013591508082111561520057600080fd5b61520c85838601614caa565b6040840152606084013560608401526080840135608084015260a084013560a084015260c084013560c084015261524560e0850161518b565b60e08401526101009150818401358181111561526057600080fd5b61526c86828701614caa565b8385015250505092915050565b600082601f83011261528a57600080fd5b8135602061529f61529a83615168565b614c7a565b82815260059290921b840181019181810190868411156152be57600080fd5b8286015b848110156152fd5780356001600160401b038111156152e15760008081fd5b6152ef8986838b01016151a0565b8452509183019183016152c2565b509695505050505050565b6000610100828403121561531b57600080fd5b615323614c35565b90508135815260208201356001600160401b038082111561534357600080fd5b61534f85838601614caa565b602084015260408401356040840152606084013591508082111561537257600080fd5b5061537f84828501615279565b6060830152506080820135608082015260a082013560a082015260c082013560c082015260e082013560e082015292915050565b6000602082840312156153c557600080fd5b81356001600160401b038111156153db57600080fd5b614d9c84828501615308565b600080600080608085870312156153fd57600080fd5b8435935060208501356001600160401b0381111561541a57600080fd5b61542687828801614caa565b949794965050505060408301359260600135919050565b6000602080830181845280855180835260408601915060408160051b870101925083870160005b82811015614be957603f19888603018452615480858351614f83565b94509285019290850190600101615464565b602081526000610b2a6020830184614ad9565b600060208083850312156154b857600080fd5b82356001600160401b03808211156154cf57600080fd5b90840190608082870312156154e357600080fd5b6154eb614c58565b82358152838301358281111561550057600080fd5b61550c88828601614caa565b858301525060408301358281111561552357600080fd5b8301601f8101881361553457600080fd5b803561554261529a82615168565b81815260059190911b8201860190868101908a83111561556157600080fd5b8784015b838110156155995780358781111561557d5760008081fd5b61558b8d8b83890101615308565b845250918801918801615565565b5060408501525050506060928301359281019290925250949350505050565b6000806000606084860312156155cd57600080fd5b505081359360208301359350604090920135919050565b6000602082840312156155f657600080fd5b81356001600160401b0381111561560c57600080fd5b614d9c848285016151a0565b87815260e06020820152600061563160e0830189614a12565b82810360408401526156438189614a12565b9050866060840152828103608084015261565d8187614a12565b90508460a084015282810360c08401526156778185614a12565b9a9950505050505050505050565b600080600080600060a0868803121561569d57600080fd5b85356001600160401b03808211156156b457600080fd5b6156c089838a01614caa565b965060208801359150808211156156d657600080fd5b6156e289838a01614caa565b955060408801359150808211156156f857600080fd5b61570489838a01614caa565b9450606088013591508082111561571a57600080fd5b61572689838a01614caa565b9350608088013591508082111561573c57600080fd5b5061574988828901614caa565b9150509295509295909350565b634e487b7160e01b600052601160045260246000fd5b6000821982111561577f5761577f615756565b500190565b634e487b7160e01b600052603260045260246000fd5b600181811c908216806157ae57607f821691505b60208210810361350e57634e487b7160e01b600052602260045260246000fd5b6000600182016157e0576157e0615756565b5060010190565b60208082526017908201527f43617465676f727920646f6573206e6f74206578697374000000000000000000604082015260600190565b600080835481600182811c91508083168061583a57607f831692505b6020808410820361585957634e487b7160e01b86526022600452602486fd5b81801561586d576001811461587e576158ab565b60ff198616895284890196506158ab565b60008a81526020902060005b868110156158a35781548b82015290850190830161588a565b505084890196505b509498975050505050505050565b60208082526024908201527f596f757220656d61696c206f722070617373776f726420697320696e636f72726040820152636563742160e01b606082015260800190565b60008282101561590f5761590f615756565b500390565b600082516159268184602087016149e6565b9190910192915050565b60208082526017908201527f43617465676f727920686173206e6f742065786973747300000000000000000060408201526060019056fea2646970667358221220017776b262c28de84d8788e3d79e9ed5a0a09b66b73aa37beb44b2c1435a74ed64736f6c634300080d0033",
  "immutableReferences": {},
  "source": "// SPDX-License-Identifier: MIT\r\npragma solidity >=0.4.22 <0.9.0;\r\n\r\ncontract VotingSystem {\r\n    address public owner;\r\n    struct Voter {\r\n        uint256 id;\r\n        string key;\r\n        string email;\r\n        bytes32 password;\r\n        string role;\r\n        uint256 status; // 0: no verify, 1: verified, 2:banned\r\n        string token;\r\n    }\r\n\r\n    struct Event {\r\n        uint256 eventId;\r\n        string eventName;\r\n        uint256 categoryId;\r\n        Candidate[] candidates;\r\n        uint256 candidateCount;\r\n        uint256 startDateTime;\r\n        uint256 endDateTime;\r\n        uint256 status; // 1: Upcoming, 2: In Progress, 3: Completed, 4 Cancel\r\n    }\r\n\r\n    struct Category {\r\n        uint256 categoryId;\r\n        string categoryName;\r\n        Event[] events; //category has many event\r\n        uint256 status;\r\n    }\r\n\r\n    struct Candidate {\r\n        uint256 id;\r\n        string name;\r\n        string description;\r\n        uint256 studentId;\r\n        uint256 categoryId;\r\n        uint256 eventId;\r\n        uint256 voteCount;\r\n        bool win;\r\n        string imageFileName;\r\n    }\r\n\r\n    struct voteEventStruct {\r\n        uint256 id;\r\n        string voterKey;\r\n        uint256 categoryId;\r\n        uint256 eventId;\r\n        bool voted;\r\n    }\r\n\r\n    event CategoryAdded(uint256 indexed categoryId, string categoryName);\r\n\r\n    event VoterAdded(uint256 indexed voterId, string voter_key);\r\n    event EventAdded(uint256 indexed eventId, string eventName);\r\n\r\n    event CandidateAdded(uint256 indexed eventId, string eventName);\r\n\r\n    event VoteEvent(\r\n        string indexed _voterKey,\r\n        string indexed categoryEvent,\r\n        uint256 indexed candidate\r\n    );\r\n\r\n    mapping(uint256 => Category) categories;\r\n    mapping(uint256 => Event) events;\r\n    mapping(uint256 => Candidate) candidates;\r\n    mapping(uint256 => voteEventStruct) public voteEvents;\r\n    mapping(uint256 => Voter) public voters;\r\n    mapping(string => bool) private usedImageFileNames;\r\n\r\n    uint256 categoryCount;\r\n    uint256 candidateCount;\r\n    uint256 eventCount;\r\n    uint256 voteEventCount;\r\n    uint256 voterCount;\r\n\r\n    constructor() {\r\n        owner = msg.sender;\r\n    }\r\n\r\n    function addVoter(\r\n        string memory _key,\r\n        string memory _email,\r\n        string memory _password,\r\n        string memory _role,\r\n        string memory _token\r\n    ) public {\r\n        for (uint256 i = 1; i <= voterCount; i++) {\r\n            require(\r\n                keccak256(bytes(_key)) != keccak256(bytes(voters[i].key)),\r\n                \"Voter already exists\"\r\n            );\r\n        }\r\n\r\n        // total category plus 1, use it as the category's id\r\n        voterCount += 1;\r\n\r\n        bytes32 hashedPassword = keccak256(abi.encodePacked(_password));\r\n\r\n        // add the category details in the category list\r\n        Voter storage voter = voters[voterCount];\r\n        voter.id = voterCount;\r\n        voter.key = _key;\r\n        voter.email = _email;\r\n        voter.password = hashedPassword;\r\n        voter.role = _role;\r\n        voter.status = 0;\r\n        voter.token = _token;\r\n\r\n        // emit the category added event\r\n        emit VoterAdded(voterCount, _key);\r\n    }\r\n\r\n    function loginVoter(string memory _email, string memory _password)\r\n        public\r\n        view\r\n        returns (Voter memory)\r\n    {\r\n        Voter memory voterFound = getVoterByEmailPassword(_email, _password);\r\n        require(voterFound.id != 0, \"Your email or password is incorrect!\");\r\n        require(\r\n            voterFound.status == 1,\r\n            \"Your account was banned or not verify!\"\r\n        );\r\n        return voterFound;\r\n    }\r\n\r\n    function compareHashesPassword(bytes32 inputPassword, bytes32 password)\r\n        internal\r\n        pure\r\n        returns (bool)\r\n    {\r\n        for (uint256 i = 0; i < 32; i++) {\r\n            if (inputPassword[i] != password[i]) {\r\n                return false;\r\n            }\r\n        }\r\n        return true;\r\n    }\r\n\r\n    function getVoterByEmailPassword(\r\n        string memory _email,\r\n        string memory _password\r\n    ) public view returns (Voter memory) {\r\n        bytes32 hashedPassword = keccak256(abi.encodePacked(_password));\r\n        for (uint256 i = 1; i <= voterCount; i++) {\r\n            if (\r\n                keccak256(bytes(_email)) == keccak256(bytes(voters[i].email)) &&\r\n                compareHashesPassword(hashedPassword, voters[i].password)\r\n            ) {\r\n                return voters[i];\r\n            }\r\n        }\r\n\r\n        // Event not found in the specified category\r\n        return Voter(0, \"\", \"\", \"\", \"\", 0, \"\");\r\n    }\r\n\r\n    function getVoterEmailById(uint256 _voterId)\r\n        public\r\n        view\r\n        returns (string memory)\r\n    {\r\n        require(_voterId > 0 && _voterId <= voterCount, \"Invalid voter ID\");\r\n        return voters[_voterId].email;\r\n    }\r\n\r\n    function updateVoterPassword(string memory _key, string memory _password)\r\n        public\r\n    {\r\n        require(isVoterExist(_key), \"User does not exists\");\r\n\r\n        bytes32 hashedPassword = keccak256(abi.encodePacked(_password));\r\n        for (uint256 i = 1; i <= voterCount; i++) {\r\n            if (keccak256(bytes(_key)) == keccak256(bytes(voters[i].key))) {\r\n                voters[i].password = hashedPassword;\r\n            }\r\n        }\r\n    }\r\n\r\n    function verifyVoterAccount(string memory _token) public returns (bool) {\r\n        require(voters[1].id != 0, \"No voter in the list!\");\r\n        for (uint256 i = 1; i <= voterCount; i++) {\r\n            if (keccak256(bytes(_token)) == keccak256(bytes(voters[i].token))) {\r\n                voters[i].status = 1;\r\n                return true;\r\n            }\r\n        }\r\n        return false;\r\n    }\r\n\r\n    function getVoterStatus(string memory _email, string memory _password)\r\n        public\r\n        view\r\n        returns (uint256 status)\r\n    {\r\n        Voter memory voterFound = getVoterByEmailPassword(_email, _password);\r\n        require(voterFound.id != 0, \"Your email or password is incorrect!\");\r\n        return voterFound.status;\r\n    }\r\n\r\n    function checkVoterEmailPassword(\r\n        string memory _email,\r\n        string memory _password\r\n    ) public view returns (bool foundVoter) {\r\n        Voter memory voterFound = getVoterByEmailPassword(_email, _password);\r\n\r\n        if (voterFound.id != 0) {\r\n            return true;\r\n        }\r\n        return false;\r\n    }\r\n\r\n    function isVoterExist(string memory _key) public view returns (bool) {\r\n        for (uint256 i = 1; i <= voterCount; i++) {\r\n            if (keccak256(bytes(_key)) == keccak256(bytes(voters[i].key))) {\r\n                return true;\r\n            }\r\n        }\r\n        return false;\r\n    }\r\n\r\n    function addCategory(string memory _categoryName) public {\r\n        // check if the category is exist\r\n        for (uint256 i = 1; i <= categoryCount; i++) {\r\n            require(\r\n                keccak256(bytes(_categoryName)) !=\r\n                    keccak256(bytes(categories[i].categoryName)),\r\n                \"Category already exists\"\r\n            );\r\n        }\r\n\r\n        // total category plus 1, use it as the category's id\r\n        categoryCount += 1;\r\n\r\n        // add the category details in the category list\r\n        Category storage category = categories[categoryCount];\r\n        category.categoryName = _categoryName;\r\n        category.categoryId = categoryCount;\r\n        category.status = 1;\r\n\r\n        // emit the category added event\r\n        emit CategoryAdded(categoryCount, _categoryName);\r\n    }\r\n\r\n    function updateCategory(Category memory _category) public {\r\n        // check if the category is exist\r\n        require(\r\n            categories[_category.categoryId].categoryId != 0,\r\n            \"Category has not exists\"\r\n        );\r\n\r\n        // add the category details in the category list\r\n        Category storage category = categories[_category.categoryId];\r\n        category.categoryName = _category.categoryName;\r\n        category.status = _category.status;\r\n    }\r\n\r\n    function addEvent(\r\n        uint256 _categoryId,\r\n        string memory _eventName,\r\n        uint256 _startDateTime,\r\n        uint256 _endDateTime\r\n    ) public {\r\n        // check if the category has exists\r\n        require(\r\n            categories[_categoryId].categoryId != 0,\r\n            \"Category has not exists\"\r\n        );\r\n\r\n        require(\r\n            isEventExists(_categoryId, _eventName) == false,\r\n            \"Event already exists\"\r\n        );\r\n\r\n        // find out the category in list by using the paramerter category name\r\n        Category storage category = categories[_categoryId];\r\n\r\n        // add the event in the category list\r\n        uint256 eventId = eventCount += 1;\r\n\r\n        Event storage newEvent = category.events.push();\r\n        newEvent.eventId = eventId;\r\n        newEvent.eventName = _eventName;\r\n        newEvent.categoryId = _categoryId;\r\n        newEvent.status = 1;\r\n        newEvent.startDateTime = _startDateTime;\r\n        newEvent.endDateTime = _endDateTime;\r\n    }\r\n\r\n    function isEventExists(uint256 _categoryId, string memory _eventName)\r\n        public\r\n        view\r\n        returns (bool)\r\n    {\r\n        // Check if the category exists\r\n        require(\r\n            categories[_categoryId].categoryId != 0,\r\n            \"Category does not exist\"\r\n        );\r\n\r\n        // Loop through the events in the specified category\r\n        for (uint256 i = 0; i < categories[_categoryId].events.length; i++) {\r\n            if (\r\n                keccak256(bytes(categories[_categoryId].events[i].eventName)) ==\r\n                keccak256(bytes(_eventName))\r\n            ) {\r\n                // Event found\r\n                return true;\r\n            }\r\n        }\r\n\r\n        // Event not found in the specified category\r\n        return false;\r\n    }\r\n\r\n    function isEventStart(\r\n        uint256 _categoryId,\r\n        string memory _eventName,\r\n        uint256 _startDateTime\r\n    ) public view returns (bool) {\r\n        // Check if the category exists\r\n        require(\r\n            categories[_categoryId].categoryId != 0,\r\n            \"Category does not exist\"\r\n        );\r\n\r\n        require(\r\n            isEventExists(_categoryId, _eventName) == true,\r\n            \"Event does not exist\"\r\n        );\r\n\r\n        // Loop through the events in the specified category\r\n        for (uint256 i = 0; i < categories[_categoryId].events.length; i++) {\r\n            if (\r\n                (keccak256(\r\n                    bytes(categories[_categoryId].events[i].eventName)\r\n                ) ==\r\n                    keccak256(bytes(_eventName)) &&\r\n                    (_startDateTime >=\r\n                        categories[_categoryId].events[i].startDateTime))\r\n            ) {\r\n                \r\n                return true;\r\n            }\r\n        }\r\n\r\n        // Event not found in the specified category\r\n        return false;\r\n    }\r\n\r\n    function updateEvent(Event memory _event) public {\r\n        // check if the category is exist\r\n        require(\r\n            categories[_event.categoryId].categoryId != 0,\r\n            \"Category does not exists\"\r\n        );\r\n        require(\r\n            isEventExists(_event.categoryId, _event.eventId),\r\n            \"Event does not exist!\"\r\n        );\r\n        // add the category details in the category list\r\n        Event storage eventToUpdate = categories[_event.categoryId].events[\r\n            _event.eventId - 1\r\n        ];\r\n\r\n        eventToUpdate.eventName = _event.eventName;\r\n        eventToUpdate.status = _event.status;\r\n    }\r\n\r\n    function addCandidateToEvent(\r\n        uint256 _categoryId,\r\n        uint256 _eventId,\r\n        string memory _candidateName,\r\n        string memory _description,\r\n        uint256 _studentId,\r\n        string memory _imageFileName\r\n    ) public {\r\n        require(\r\n            categories[_categoryId].categoryId != 0,\r\n            \"Category does not exist\"\r\n        );\r\n        require(isEventExists(_categoryId, _eventId), \"Event does not exist\");\r\n        require(\r\n            !isCandidateExistsInEvent(_categoryId, _eventId, _studentId),\r\n            \"Candidate already exists\"\r\n        );\r\n        // Check if the image file name is already used\r\n        require(\r\n            !usedImageFileNames[_imageFileName],\r\n            \"Image file name already in use\"\r\n        );\r\n\r\n        candidateCount += 1;\r\n\r\n        // Create a new candidate\r\n        Candidate memory newCandidate = Candidate({\r\n            id: candidateCount,\r\n            name: _candidateName,\r\n            studentId: _studentId,\r\n            categoryId: _categoryId,\r\n            eventId: _eventId,\r\n            description: _description,\r\n            win: false,\r\n            voteCount: 0,\r\n            imageFileName: _imageFileName\r\n        });\r\n\r\n        // find the certain category\r\n        Category storage category = categories[_categoryId];\r\n        // find the certain event in certain category\r\n        for (uint256 i = 0; i < category.events.length; i++) {\r\n            if (category.events[i].eventId == _eventId) {\r\n                category.events[i].candidates.push(newCandidate);\r\n                category.events[i].candidateCount += 1;\r\n            }\r\n        }\r\n\r\n        // Mark the image file name as used\r\n        usedImageFileNames[_imageFileName] = true;\r\n    }\r\n\r\n    function updateCandidate(Candidate memory _candidate) public {\r\n        require(\r\n            categories[_candidate.categoryId].categoryId != 0,\r\n            \"Category has not exists\"\r\n        );\r\n\r\n        require(\r\n            isEventExists(_candidate.categoryId, _candidate.eventId) == true,\r\n            \"Event has not exists\"\r\n        );\r\n\r\n        require(\r\n            isCandidateExistsInEvent(\r\n                _candidate.categoryId,\r\n                _candidate.eventId,\r\n                _candidate.studentId\r\n            ) == true,\r\n            \"Candidate does not existed\"\r\n        );\r\n\r\n        Candidate storage candidateToUpdate = categories[_candidate.categoryId]\r\n            .events[_candidate.eventId - 1]\r\n            .candidates[_candidate.id - 1];\r\n\r\n        candidateToUpdate.name = _candidate.name;\r\n        candidateToUpdate.studentId = _candidate.studentId;\r\n        candidateToUpdate.description = _candidate.description;\r\n    }\r\n\r\n    function isImageFileNameUsed(string memory _imageFileName)\r\n        public\r\n        view\r\n        returns (bool)\r\n    {\r\n        return usedImageFileNames[_imageFileName];\r\n    }\r\n\r\n    function isCandidateExistsInEvent(\r\n        uint256 _categoryId,\r\n        uint256 _eventId,\r\n        uint256 _studentId\r\n    ) public view returns (bool) {\r\n        // Check if the category exists\r\n        require(\r\n            categories[_categoryId].categoryId != 0,\r\n            \"Category does not exist\"\r\n        );\r\n\r\n        Candidate[] memory candidatesFound = getAllCandidatesInEvent(\r\n            _categoryId,\r\n            _eventId\r\n        );\r\n\r\n        // Loop through the events in the specified category\r\n\r\n        for (uint256 i = 0; i < candidatesFound.length; i++) {\r\n            if (candidatesFound[i].studentId == _studentId) {\r\n                return true;\r\n            }\r\n        }\r\n\r\n        // Event not found in the specified category\r\n        return false;\r\n    }\r\n\r\n    function isCandidateExistsInEventById(\r\n        uint256 _categoryId,\r\n        uint256 _eventId,\r\n        uint256 _candidateId\r\n    ) public view returns (bool) {\r\n        // Check if the category exists\r\n        require(\r\n            categories[_categoryId].categoryId != 0,\r\n            \"Category does not exist\"\r\n        );\r\n\r\n        Candidate[] memory candidatesFound = getAllCandidatesInEvent(\r\n            _categoryId,\r\n            _eventId\r\n        );\r\n\r\n        // Loop through the events in the specified category\r\n\r\n        for (uint256 i = 0; i < candidatesFound.length; i++) {\r\n            if (candidatesFound[i].id == _candidateId) {\r\n                return true;\r\n            }\r\n        }\r\n\r\n        // Event not found in the specified category\r\n        return false;\r\n    }\r\n\r\n    function isEventExists(uint256 _categoryId, uint256 _eventId)\r\n        public\r\n        view\r\n        returns (bool)\r\n    {\r\n        // Check if the category exists\r\n        require(\r\n            categories[_categoryId].categoryId != 0,\r\n            \"Category does not exist\"\r\n        );\r\n\r\n        // Loop through the events in the specified category\r\n        for (uint256 i = 0; i < categories[_categoryId].events.length; i++) {\r\n            if (categories[_categoryId].events[i].eventId == _eventId) {\r\n                // Event found\r\n                return true;\r\n            }\r\n        }\r\n\r\n        // Event not found in the specified category\r\n        return false;\r\n    }\r\n\r\n    function getAllCategoryEvent(uint256 _categoryId)\r\n        public\r\n        view\r\n        returns (Event[] memory foundEvent)\r\n    {\r\n        // find the certain category\r\n        Category storage category = categories[_categoryId];\r\n\r\n        // declare an array variable for storing events\r\n        Event[] memory eventsFound = new Event[](category.events.length);\r\n\r\n        // get all the event name by searching the event in list\r\n        for (uint256 i = 0; i < category.events.length; i++) {\r\n            eventsFound[i] = category.events[i];\r\n        }\r\n\r\n        return (eventsFound);\r\n    }\r\n\r\n    function getAllCandidatesInEvent(uint256 _categoryId, uint256 _eventId)\r\n        public\r\n        view\r\n        returns (Candidate[] memory foundCandidates)\r\n    {\r\n        // find the certain category\r\n        Category storage category = categories[_categoryId];\r\n        // find the certain event in certain category\r\n        for (uint256 i = 0; i < category.events.length; i++) {\r\n            if (category.events[i].eventId == _eventId) {\r\n                Candidate[] memory candidatesFound = new Candidate[](\r\n                    category.events[i].candidateCount\r\n                );\r\n\r\n                for (\r\n                    uint256 j = 0;\r\n                    j < category.events[i].candidates.length;\r\n                    j++\r\n                ) {\r\n                    candidatesFound[j] = category.events[i].candidates[j];\r\n                }\r\n                return (candidatesFound);\r\n            }\r\n        }\r\n    }\r\n\r\n    function getAllCandidates() public view returns (Candidate[] memory) {\r\n        Candidate[] memory candidatesFound = new Candidate[](candidateCount);\r\n        Event[] memory eventFound = new Event[](eventCount);\r\n\r\n        // get all the events\r\n        eventFound = getAllEvent();\r\n        uint256 count = 0;\r\n        // find the candidates inside all the event\r\n        for (uint256 i = 0; i < eventCount; i++) {\r\n            for (uint256 j = 0; j < eventFound[i].candidates.length; j++) {\r\n                candidatesFound[count] = eventFound[i].candidates[j];\r\n                count += 1;\r\n            }\r\n        }\r\n\r\n        return candidatesFound;\r\n    }\r\n\r\n    function getAllCategory() public view returns (Category[] memory) {\r\n        //Candidate[] memory candidatesFound = new Candidate[](candidateCount);\r\n        Category[] memory categoriesFound = new Category[](categoryCount);\r\n        // Iterate through all stored structs\r\n        for (uint256 i = 1; i <= categoryCount; i++) {\r\n            categoriesFound[i - 1] = categories[i];\r\n        }\r\n\r\n        return categoriesFound;\r\n    }\r\n\r\n    function getCategoryById(uint256 _categoryId)\r\n        public\r\n        view\r\n        returns (Category memory)\r\n    {\r\n        return categories[_categoryId];\r\n    }\r\n\r\n    function getAllEvent() public view returns (Event[] memory) {\r\n        // Initialize the array with the correct size\r\n        Event[] memory eventFound = new Event[](eventCount);\r\n        uint256 count = 0;\r\n\r\n        // Iterate through all categories and events\r\n        for (uint256 i = 0; i < categoryCount; i++) {\r\n            for (uint256 j = 0; j < categories[i + 1].events.length; j++) {\r\n                eventFound[count] = categories[i + 1].events[j];\r\n                count += 1;\r\n            }\r\n        }\r\n\r\n        return eventFound;\r\n    }\r\n\r\n    function getEventById(uint256 _categoryId, uint256 _eventId)\r\n        public\r\n        view\r\n        returns (Event memory)\r\n    {\r\n        Category memory categoriesFound = categories[_categoryId];\r\n        Event memory eventFound;\r\n        // Iterate through all stored structs\r\n        for (uint256 i = 0; i < categoriesFound.events.length; i++) {\r\n            if (categoriesFound.events[i].eventId == _eventId) {\r\n                eventFound = categoriesFound.events[i];\r\n            }\r\n        }\r\n\r\n        return eventFound;\r\n    }\r\n\r\n    function vote(\r\n        string memory _voterKey,\r\n        uint256 _candidateId,\r\n        uint256 _categoryId,\r\n        uint256 _eventId\r\n    ) external {\r\n        require(\r\n            categories[_categoryId].categoryId != 0,\r\n            \"Category does not exists\"\r\n        );\r\n\r\n        require(eventCount != 0, \"Event does not exists\");\r\n\r\n        // for (uint256 i = 1; i <= categories[_categoryId].events.length; i++) {\r\n        //     require(categories[_categoryId].events[i-0].eventId == _eventId, \"noobbbbb\");\r\n        // }\r\n\r\n        require(\r\n            isCandidateExistsInEventById(_categoryId, _eventId, _candidateId) ==\r\n                true,\r\n            \"Candidates does not exists\"\r\n        );\r\n\r\n        // check if has voted\r\n        for (uint256 i = 1; i <= voteEventCount; i++) {\r\n            if (\r\n                keccak256(bytes(_voterKey)) ==\r\n                keccak256(bytes(voteEvents[i].voterKey)) &&\r\n                _categoryId == voteEvents[i].categoryId &&\r\n                _eventId == voteEvents[i].eventId\r\n            ) {\r\n                require(!voteEvents[i].voted, \"You already voted\");\r\n                break;\r\n            }\r\n        }\r\n\r\n        // add count on the candidate\r\n        voteEventCount += 1;\r\n\r\n        // Create a new voteEventStruct\r\n        voteEventStruct memory newVoteEvent = voteEventStruct({\r\n            id: voteEventCount,\r\n            voterKey: _voterKey,\r\n            categoryId: _categoryId,\r\n            eventId: _eventId,\r\n            voted: true\r\n        });\r\n\r\n        voteEvents[voteEventCount] = newVoteEvent;\r\n\r\n        // add the vote count of the chosen candidate\r\n        addVoteCount(_candidateId);\r\n        addVoteCountIn(_categoryId, _eventId, _candidateId);\r\n\r\n        string memory concatenatedValues = string(\r\n            abi.encodePacked(_categoryId, _eventId)\r\n        );\r\n\r\n        emit VoteEvent(_voterKey, concatenatedValues, _candidateId);\r\n    }\r\n\r\n    function addVoteCount(uint256 _candidateId) internal {\r\n        candidates[_candidateId].voteCount += 1;\r\n    }\r\n\r\n    function addVoteCountIn(\r\n        uint256 _categoryId,\r\n        uint256 _eventId,\r\n        uint256 _candidateId\r\n    ) internal {\r\n        // get the events inside the categories\r\n        Event[] storage eventsFound = categories[_categoryId].events;\r\n\r\n        // find the event with param\r\n        for (uint256 i = 0; i < eventsFound.length; i++) {\r\n            if (eventsFound[i].eventId == _eventId) {\r\n                // get the candidate inside the event\r\n                Candidate[] storage candidatesFound = eventsFound[i].candidates;\r\n                // find the candidate\r\n                for (uint256 j = 0; j < candidatesFound.length; j++) {\r\n                    if (candidatesFound[j].id == _candidateId) {\r\n                        // found the candidate and plus 1 at the voteCount\r\n                        candidatesFound[j].voteCount += 1;\r\n                        break;\r\n                    }\r\n                }\r\n            }\r\n        }\r\n    }\r\n\r\n    function getCandidateVoteCount(uint256 _candidateId)\r\n        public\r\n        view\r\n        returns (uint256 count)\r\n    {\r\n        return candidates[_candidateId].voteCount;\r\n    }\r\n\r\n    function getVoteEventCandidate(uint256 _categoryId, uint256 _eventId)\r\n        public\r\n        view\r\n        returns (Candidate[] memory)\r\n    {\r\n        Event[] memory eventsFound = categories[_categoryId].events;\r\n\r\n        for (uint256 i = 0; i < eventsFound.length; i++) {\r\n            if (eventsFound[i].eventId == _eventId) {\r\n                return eventsFound[i].candidates;\r\n            }\r\n        }\r\n\r\n        // If the event is not found, return an empty array or handle the situation accordingly\r\n        return new Candidate[](0);\r\n    }\r\n\r\n    function whoIsTheWinner(uint256 _categoryId, uint256 _eventId)\r\n        public\r\n        view\r\n        returns (Candidate memory)\r\n    {\r\n        Event[] memory eventsFound = categories[_categoryId].events;\r\n        Candidate[] memory candidatesFound;\r\n\r\n        for (uint256 i = 0; i < eventsFound.length; i++) {\r\n            if (eventsFound[i].eventId == _eventId) {\r\n                candidatesFound = eventsFound[i].candidates;\r\n            }\r\n        }\r\n\r\n        Candidate memory winner = candidatesFound[0];\r\n\r\n        for (uint256 i = 0; i < candidatesFound.length - 1; i++) {\r\n            if (winner.voteCount < candidatesFound[i + 1].voteCount) {\r\n                winner = candidatesFound[i + 1];\r\n            }\r\n        }\r\n\r\n        winner.win = true;\r\n\r\n        // If the event is not found, return an empty array or handle the situation accordingly\r\n        return winner;\r\n    }\r\n}\r\n",
  "sourcePath": "C:\\xampp\\htdocs\\Online-Voting-System-Blockchain\\contracts\\VotingSystem.sol",
  "compiler": {
    "name": "solc",
    "version": "0.8.13+commit.abaa5c0e.Emscripten.clang"
  },
  "schemaVersion": "3.4.16",
  "updatedAt": "2023-12-09T09:47:34.664Z",
  "networkType": "ethereum",
  "devdoc": {
    "kind": "dev",
    "methods": {},
    "version": 1
  },
  "userdoc": {
    "kind": "user",
    "methods": {},
    "version": 1
  }
}