{
  "contractName": "VotingSystem",
  "abi": [
    {
      "anonymous": false,
      "inputs": [
        {
          "indexed": true,
          "internalType": "uint256",
          "name": "eventId",
          "type": "uint256"
        },
        {
          "indexed": false,
          "internalType": "string",
          "name": "eventName",
          "type": "string"
        }
      ],
      "name": "CandidateAdded",
      "type": "event"
    },
    {
      "anonymous": false,
      "inputs": [
        {
          "indexed": true,
          "internalType": "uint256",
          "name": "categoryId",
          "type": "uint256"
        },
        {
          "indexed": false,
          "internalType": "string",
          "name": "categoryName",
          "type": "string"
        }
      ],
      "name": "CategoryAdded",
      "type": "event"
    },
    {
      "anonymous": false,
      "inputs": [
        {
          "indexed": true,
          "internalType": "uint256",
          "name": "eventId",
          "type": "uint256"
        },
        {
          "indexed": false,
          "internalType": "string",
          "name": "eventName",
          "type": "string"
        }
      ],
      "name": "EventAdded",
      "type": "event"
    },
    {
      "anonymous": false,
      "inputs": [
        {
          "indexed": true,
          "internalType": "uint256",
          "name": "voterId",
          "type": "uint256"
        },
        {
          "indexed": true,
          "internalType": "string",
          "name": "categoryEvent",
          "type": "string"
        },
        {
          "indexed": true,
          "internalType": "uint256",
          "name": "candidate",
          "type": "uint256"
        }
      ],
      "name": "VoteEvent",
      "type": "event"
    },
    {
      "inputs": [
        {
          "internalType": "uint256",
          "name": "",
          "type": "uint256"
        }
      ],
      "name": "voteEvents",
      "outputs": [
        {
          "internalType": "uint256",
          "name": "id",
          "type": "uint256"
        },
        {
          "internalType": "uint256",
          "name": "voterId",
          "type": "uint256"
        },
        {
          "internalType": "uint256",
          "name": "categoryId",
          "type": "uint256"
        },
        {
          "internalType": "uint256",
          "name": "eventId",
          "type": "uint256"
        },
        {
          "internalType": "bool",
          "name": "voted",
          "type": "bool"
        }
      ],
      "stateMutability": "view",
      "type": "function",
      "constant": true
    },
    {
      "inputs": [
        {
          "internalType": "string",
          "name": "_categoryName",
          "type": "string"
        }
      ],
      "name": "addCategory",
      "outputs": [],
      "stateMutability": "nonpayable",
      "type": "function"
    },
    {
      "inputs": [
        {
          "internalType": "uint256",
          "name": "_categoryId",
          "type": "uint256"
        },
        {
          "internalType": "string",
          "name": "_eventName",
          "type": "string"
        }
      ],
      "name": "addEvent",
      "outputs": [],
      "stateMutability": "nonpayable",
      "type": "function"
    },
    {
      "inputs": [
        {
          "internalType": "uint256",
          "name": "_categoryId",
          "type": "uint256"
        },
        {
          "internalType": "uint256",
          "name": "_eventId",
          "type": "uint256"
        },
        {
          "internalType": "string",
          "name": "_candidateName",
          "type": "string"
        },
        {
          "internalType": "string",
          "name": "_description",
          "type": "string"
        }
      ],
      "name": "addCandidateToEvent",
      "outputs": [],
      "stateMutability": "nonpayable",
      "type": "function"
    },
    {
      "inputs": [
        {
          "internalType": "uint256",
          "name": "_categoryId",
          "type": "uint256"
        },
        {
          "internalType": "uint256",
          "name": "_eventId",
          "type": "uint256"
        }
      ],
      "name": "isEventExists",
      "outputs": [
        {
          "internalType": "bool",
          "name": "",
          "type": "bool"
        }
      ],
      "stateMutability": "view",
      "type": "function",
      "constant": true
    },
    {
      "inputs": [
        {
          "internalType": "uint256",
          "name": "_categoryId",
          "type": "uint256"
        },
        {
          "internalType": "string",
          "name": "_eventName",
          "type": "string"
        }
      ],
      "name": "isEventExists",
      "outputs": [
        {
          "internalType": "bool",
          "name": "",
          "type": "bool"
        }
      ],
      "stateMutability": "view",
      "type": "function",
      "constant": true
    },
    {
      "inputs": [
        {
          "internalType": "uint256",
          "name": "_categoryId",
          "type": "uint256"
        }
      ],
      "name": "getAllCategoryEvent",
      "outputs": [
        {
          "components": [
            {
              "internalType": "uint256",
              "name": "eventId",
              "type": "uint256"
            },
            {
              "internalType": "string",
              "name": "eventName",
              "type": "string"
            },
            {
              "internalType": "uint256",
              "name": "categoryId",
              "type": "uint256"
            },
            {
              "components": [
                {
                  "internalType": "uint256",
                  "name": "id",
                  "type": "uint256"
                },
                {
                  "internalType": "string",
                  "name": "name",
                  "type": "string"
                },
                {
                  "internalType": "string",
                  "name": "description",
                  "type": "string"
                },
                {
                  "internalType": "uint256",
                  "name": "CategoryId",
                  "type": "uint256"
                },
                {
                  "internalType": "uint256",
                  "name": "eventId",
                  "type": "uint256"
                },
                {
                  "internalType": "uint256",
                  "name": "voteCount",
                  "type": "uint256"
                }
              ],
              "internalType": "struct VotingSystem.Candidate[]",
              "name": "candidates",
              "type": "tuple[]"
            },
            {
              "internalType": "uint256",
              "name": "candidateCount",
              "type": "uint256"
            }
          ],
          "internalType": "struct VotingSystem.Event[]",
          "name": "foundEvent",
          "type": "tuple[]"
        }
      ],
      "stateMutability": "view",
      "type": "function",
      "constant": true
    },
    {
      "inputs": [
        {
          "internalType": "uint256",
          "name": "_categoryId",
          "type": "uint256"
        },
        {
          "internalType": "string",
          "name": "_eventName",
          "type": "string"
        }
      ],
      "name": "getAllCategoryEventCandidate",
      "outputs": [
        {
          "internalType": "string[]",
          "name": "candidatesFound",
          "type": "string[]"
        }
      ],
      "stateMutability": "view",
      "type": "function",
      "constant": true
    },
    {
      "inputs": [],
      "name": "getAllCandidates",
      "outputs": [
        {
          "components": [
            {
              "internalType": "uint256",
              "name": "id",
              "type": "uint256"
            },
            {
              "internalType": "string",
              "name": "name",
              "type": "string"
            },
            {
              "internalType": "string",
              "name": "description",
              "type": "string"
            },
            {
              "internalType": "uint256",
              "name": "CategoryId",
              "type": "uint256"
            },
            {
              "internalType": "uint256",
              "name": "eventId",
              "type": "uint256"
            },
            {
              "internalType": "uint256",
              "name": "voteCount",
              "type": "uint256"
            }
          ],
          "internalType": "struct VotingSystem.Candidate[]",
          "name": "",
          "type": "tuple[]"
        }
      ],
      "stateMutability": "view",
      "type": "function",
      "constant": true
    },
    {
      "inputs": [],
      "name": "getAllCategory",
      "outputs": [
        {
          "components": [
            {
              "internalType": "uint256",
              "name": "categoryId",
              "type": "uint256"
            },
            {
              "internalType": "string",
              "name": "categoryName",
              "type": "string"
            },
            {
              "components": [
                {
                  "internalType": "uint256",
                  "name": "eventId",
                  "type": "uint256"
                },
                {
                  "internalType": "string",
                  "name": "eventName",
                  "type": "string"
                },
                {
                  "internalType": "uint256",
                  "name": "categoryId",
                  "type": "uint256"
                },
                {
                  "components": [
                    {
                      "internalType": "uint256",
                      "name": "id",
                      "type": "uint256"
                    },
                    {
                      "internalType": "string",
                      "name": "name",
                      "type": "string"
                    },
                    {
                      "internalType": "string",
                      "name": "description",
                      "type": "string"
                    },
                    {
                      "internalType": "uint256",
                      "name": "CategoryId",
                      "type": "uint256"
                    },
                    {
                      "internalType": "uint256",
                      "name": "eventId",
                      "type": "uint256"
                    },
                    {
                      "internalType": "uint256",
                      "name": "voteCount",
                      "type": "uint256"
                    }
                  ],
                  "internalType": "struct VotingSystem.Candidate[]",
                  "name": "candidates",
                  "type": "tuple[]"
                },
                {
                  "internalType": "uint256",
                  "name": "candidateCount",
                  "type": "uint256"
                }
              ],
              "internalType": "struct VotingSystem.Event[]",
              "name": "events",
              "type": "tuple[]"
            }
          ],
          "internalType": "struct VotingSystem.Category[]",
          "name": "",
          "type": "tuple[]"
        }
      ],
      "stateMutability": "view",
      "type": "function",
      "constant": true
    },
    {
      "inputs": [
        {
          "internalType": "uint256",
          "name": "_categoryId",
          "type": "uint256"
        }
      ],
      "name": "getCategoryById",
      "outputs": [
        {
          "components": [
            {
              "internalType": "uint256",
              "name": "categoryId",
              "type": "uint256"
            },
            {
              "internalType": "string",
              "name": "categoryName",
              "type": "string"
            },
            {
              "components": [
                {
                  "internalType": "uint256",
                  "name": "eventId",
                  "type": "uint256"
                },
                {
                  "internalType": "string",
                  "name": "eventName",
                  "type": "string"
                },
                {
                  "internalType": "uint256",
                  "name": "categoryId",
                  "type": "uint256"
                },
                {
                  "components": [
                    {
                      "internalType": "uint256",
                      "name": "id",
                      "type": "uint256"
                    },
                    {
                      "internalType": "string",
                      "name": "name",
                      "type": "string"
                    },
                    {
                      "internalType": "string",
                      "name": "description",
                      "type": "string"
                    },
                    {
                      "internalType": "uint256",
                      "name": "CategoryId",
                      "type": "uint256"
                    },
                    {
                      "internalType": "uint256",
                      "name": "eventId",
                      "type": "uint256"
                    },
                    {
                      "internalType": "uint256",
                      "name": "voteCount",
                      "type": "uint256"
                    }
                  ],
                  "internalType": "struct VotingSystem.Candidate[]",
                  "name": "candidates",
                  "type": "tuple[]"
                },
                {
                  "internalType": "uint256",
                  "name": "candidateCount",
                  "type": "uint256"
                }
              ],
              "internalType": "struct VotingSystem.Event[]",
              "name": "events",
              "type": "tuple[]"
            }
          ],
          "internalType": "struct VotingSystem.Category",
          "name": "",
          "type": "tuple"
        }
      ],
      "stateMutability": "view",
      "type": "function",
      "constant": true
    },
    {
      "inputs": [],
      "name": "getAllEvent",
      "outputs": [
        {
          "components": [
            {
              "internalType": "uint256",
              "name": "eventId",
              "type": "uint256"
            },
            {
              "internalType": "string",
              "name": "eventName",
              "type": "string"
            },
            {
              "internalType": "uint256",
              "name": "categoryId",
              "type": "uint256"
            },
            {
              "components": [
                {
                  "internalType": "uint256",
                  "name": "id",
                  "type": "uint256"
                },
                {
                  "internalType": "string",
                  "name": "name",
                  "type": "string"
                },
                {
                  "internalType": "string",
                  "name": "description",
                  "type": "string"
                },
                {
                  "internalType": "uint256",
                  "name": "CategoryId",
                  "type": "uint256"
                },
                {
                  "internalType": "uint256",
                  "name": "eventId",
                  "type": "uint256"
                },
                {
                  "internalType": "uint256",
                  "name": "voteCount",
                  "type": "uint256"
                }
              ],
              "internalType": "struct VotingSystem.Candidate[]",
              "name": "candidates",
              "type": "tuple[]"
            },
            {
              "internalType": "uint256",
              "name": "candidateCount",
              "type": "uint256"
            }
          ],
          "internalType": "struct VotingSystem.Event[]",
          "name": "",
          "type": "tuple[]"
        }
      ],
      "stateMutability": "view",
      "type": "function",
      "constant": true
    },
    {
      "inputs": [
        {
          "internalType": "uint256",
          "name": "_voterId",
          "type": "uint256"
        },
        {
          "internalType": "uint256",
          "name": "_candidateId",
          "type": "uint256"
        },
        {
          "internalType": "uint256",
          "name": "_categoryId",
          "type": "uint256"
        },
        {
          "internalType": "uint256",
          "name": "_eventId",
          "type": "uint256"
        }
      ],
      "name": "vote",
      "outputs": [],
      "stateMutability": "nonpayable",
      "type": "function"
    },
    {
      "inputs": [
        {
          "internalType": "uint256",
          "name": "_candidateId",
          "type": "uint256"
        }
      ],
      "name": "getCandidateVoteCount",
      "outputs": [
        {
          "internalType": "uint256",
          "name": "count",
          "type": "uint256"
        }
      ],
      "stateMutability": "view",
      "type": "function",
      "constant": true
    },
    {
      "inputs": [
        {
          "internalType": "uint256",
          "name": "_categoryId",
          "type": "uint256"
        },
        {
          "internalType": "uint256",
          "name": "_eventId",
          "type": "uint256"
        }
      ],
      "name": "getVoteEventCandidate",
      "outputs": [
        {
          "components": [
            {
              "internalType": "uint256",
              "name": "id",
              "type": "uint256"
            },
            {
              "internalType": "string",
              "name": "name",
              "type": "string"
            },
            {
              "internalType": "string",
              "name": "description",
              "type": "string"
            },
            {
              "internalType": "uint256",
              "name": "CategoryId",
              "type": "uint256"
            },
            {
              "internalType": "uint256",
              "name": "eventId",
              "type": "uint256"
            },
            {
              "internalType": "uint256",
              "name": "voteCount",
              "type": "uint256"
            }
          ],
          "internalType": "struct VotingSystem.Candidate[]",
          "name": "",
          "type": "tuple[]"
        }
      ],
      "stateMutability": "view",
      "type": "function",
      "constant": true
    },
    {
      "inputs": [
        {
          "internalType": "uint256",
          "name": "_categoryId",
          "type": "uint256"
        },
        {
          "internalType": "uint256",
          "name": "_eventId",
          "type": "uint256"
        }
      ],
      "name": "whoIsTheWinner",
      "outputs": [
        {
          "components": [
            {
              "internalType": "uint256",
              "name": "id",
              "type": "uint256"
            },
            {
              "internalType": "string",
              "name": "name",
              "type": "string"
            },
            {
              "internalType": "string",
              "name": "description",
              "type": "string"
            },
            {
              "internalType": "uint256",
              "name": "CategoryId",
              "type": "uint256"
            },
            {
              "internalType": "uint256",
              "name": "eventId",
              "type": "uint256"
            },
            {
              "internalType": "uint256",
              "name": "voteCount",
              "type": "uint256"
            }
          ],
          "internalType": "struct VotingSystem.Candidate",
          "name": "",
          "type": "tuple"
        }
      ],
      "stateMutability": "view",
      "type": "function",
      "constant": true
    }
  ],
  "bytecode": "0x608060405234801561001057600080fd5b50612f8b806100206000396000f3fe608060405234801561001057600080fd5b50600436106101005760003560e01c806368c9e38811610097578063a7e62d1b11610066578063a7e62d1b1461027c578063b315c5971461028f578063c2dfedfa146102c0578063ffdd108b146102e057600080fd5b806368c9e38814610221578063748f55a8146102345780638f2c2805146102545780639eabca3d1461026957600080fd5b80634fb43250116100d35780634fb432501461016057806350515a771461018357806360e93f3c14610196578063642d20ad146101b657600080fd5b80631002cdd4146101055780632e0dcbf7146101235780632e6997fe14610138578063401a52dd1461014d575b600080fd5b61010d6102f3565b60405161011a9190612973565b60405180910390f35b610136610131366004612abd565b6106ad565b005b6101406107cf565b60405161011a9190612afa565b61010d61015b366004612b14565b61097d565b61017361016e366004612b2d565b610ce2565b604051901515815260200161011a565b610173610191366004612b4f565b610dbb565b6101a96101a4366004612b14565b610ea3565b60405161011a9190612c5d565b6101f76101c4366004612b14565b60036020819052600091825260409091208054600182015460028301549383015460049093015491939092909160ff1685565b6040805195865260208601949094529284019190915260608301521515608082015260a00161011a565b61013661022f366004612c70565b611296565b610247610242366004612b2d565b61156a565b60405161011a9190612ca2565b61025c611945565b60405161011a9190612cb5565b610136610277366004612d17565b611d75565b61014061028a366004612b2d565b611fa2565b6102b261029d366004612b14565b60009081526002602052604090206005015490565b60405190815260200161011a565b6102d36102ce366004612b4f565b612305565b60405161011a9190612d8e565b6101366102ee366004612b4f565b61253c565b6060600060065467ffffffffffffffff81111561031257610312612a1a565b60405190808252806020026020018201604052801561037557816020015b6103626040518060a0016040528060008152602001606081526020016000815260200160608152602001600081525090565b8152602001906001900390816103305790505b5090506000805b6004548110156106a55760005b600080610397846001612df9565b8152602081019190915260400160002060020154811015610692576000806103c0846001612df9565b815260200190815260200160002060020181815481106103e2576103e2612e11565b90600052602060002090600502016040518060a00160405290816000820154815260200160018201805461041590612e27565b80601f016020809104026020016040519081016040528092919081815260200182805461044190612e27565b801561048e5780601f106104635761010080835404028352916020019161048e565b820191906000526020600020905b81548152906001019060200180831161047157829003601f168201915b505050505081526020016002820154815260200160038201805480602002602001604051908101604052809291908181526020016000905b8282101561064457838290600052602060002090600602016040518060c00160405290816000820154815260200160018201805461050390612e27565b80601f016020809104026020016040519081016040528092919081815260200182805461052f90612e27565b801561057c5780601f106105515761010080835404028352916020019161057c565b820191906000526020600020905b81548152906001019060200180831161055f57829003601f168201915b5050505050815260200160028201805461059590612e27565b80601f01602080910402602001604051908101604052809291908181526020018280546105c190612e27565b801561060e5780601f106105e35761010080835404028352916020019161060e565b820191906000526020600020905b8154815290600101906020018083116105f157829003601f168201915b505050505081526020016003820154815260200160048201548152602001600582015481525050815260200190600101906104c6565b50505050815260200160048201548152505084848151811061066857610668612e11565b602090810291909101015261067e600184612df9565b92508061068a81612e5b565b915050610389565b508061069d81612e5b565b91505061037c565b509092915050565b60015b600454811161074c576000818152602081905260409081902090516106d89160010190612e74565b604051809103902082805190602001200361073a5760405162461bcd60e51b815260206004820152601760248201527f43617465676f727920616c72656164792065786973747300000000000000000060448201526064015b60405180910390fd5b8061074481612e5b565b9150506106b0565b506001600460008282546107609190612df9565b90915550506004546000908152602081815260409091208251909161078c91600184019185019061278d565b506004548082556040517f5bae3f75753ef0a1c0ea0f6c51d7b43a4b8d116572b8b7b5cb771f9ad32d4ae5906107c3908590612f0f565b60405180910390a25050565b6060600060055467ffffffffffffffff8111156107ee576107ee612a1a565b60405190808252806020026020018201604052801561082757816020015b610814612811565b81526020019060019003908161080c5790505b509050600060065467ffffffffffffffff81111561084757610847612a1a565b6040519080825280602002602001820160405280156108aa57816020015b6108976040518060a0016040528060008152602001606081526020016000815260200160608152602001600081525090565b8152602001906001900390816108655790505b5090506108b56102f3565b90506000805b6006548110156109745760005b8382815181106108da576108da612e11565b602002602001015160600151518110156109615783828151811061090057610900612e11565b602002602001015160600151818151811061091d5761091d612e11565b602002602001015185848151811061093757610937612e11565b602090810291909101015261094d600184612df9565b92508061095981612e5b565b9150506108c8565b508061096c81612e5b565b9150506108bb565b50919392505050565b600081815260208190526040812060028101546060929067ffffffffffffffff8111156109ac576109ac612a1a565b604051908082528060200260200182016040528015610a0f57816020015b6109fc6040518060a0016040528060008152602001606081526020016000815260200160608152602001600081525090565b8152602001906001900390816109ca5790505b50905060005b6002830154811015610cda57826002018181548110610a3657610a36612e11565b90600052602060002090600502016040518060a001604052908160008201548152602001600182018054610a6990612e27565b80601f0160208091040260200160405190810160405280929190818152602001828054610a9590612e27565b8015610ae25780601f10610ab757610100808354040283529160200191610ae2565b820191906000526020600020905b815481529060010190602001808311610ac557829003601f168201915b505050505081526020016002820154815260200160038201805480602002602001604051908101604052809291908181526020016000905b82821015610c9857838290600052602060002090600602016040518060c001604052908160008201548152602001600182018054610b5790612e27565b80601f0160208091040260200160405190810160405280929190818152602001828054610b8390612e27565b8015610bd05780601f10610ba557610100808354040283529160200191610bd0565b820191906000526020600020905b815481529060010190602001808311610bb357829003601f168201915b50505050508152602001600282018054610be990612e27565b80601f0160208091040260200160405190810160405280929190818152602001828054610c1590612e27565b8015610c625780601f10610c3757610100808354040283529160200191610c62565b820191906000526020600020905b815481529060010190602001808311610c4557829003601f168201915b50505050508152602001600382015481526020016004820154815260200160058201548152505081526020019060010190610b1a565b505050508152602001600482015481525050828281518110610cbc57610cbc612e11565b60200260200101819052508080610cd290612e5b565b915050610a15565b509392505050565b6000828152602081905260408120548103610d395760405162461bcd60e51b815260206004820152601760248201527610d85d1959dbdc9e48191bd95cc81b9bdd08195e1a5cdd604a1b6044820152606401610731565b60005b600084815260208190526040902060020154811015610daf57826000808681526020019081526020016000206002018281548110610d7c57610d7c612e11565b90600052602060002090600502016000015403610d9d576001915050610db5565b80610da781612e5b565b915050610d3c565b50600090505b92915050565b6000828152602081905260408120548103610e125760405162461bcd60e51b815260206004820152601760248201527610d85d1959dbdc9e48191bd95cc81b9bdd08195e1a5cdd604a1b6044820152606401610731565b60005b600084815260208190526040902060020154811015610daf5782805190602001206000808681526020019081526020016000206002018281548110610e5c57610e5c612e11565b9060005260206000209060050201600101604051610e7a9190612e74565b604051809103902003610e91576001915050610db5565b80610e9b81612e5b565b915050610e15565b610ec760405180606001604052806000815260200160608152602001606081525090565b610eeb60405180606001604052806000815260200160608152602001606081525090565b60015b600454811161128f5760008181526020819052604090205484900361127d5760008181526020818152604091829020825160608101909352805483526001810180549192840191610f3e90612e27565b80601f0160208091040260200160405190810160405280929190818152602001828054610f6a90612e27565b8015610fb75780601f10610f8c57610100808354040283529160200191610fb7565b820191906000526020600020905b815481529060010190602001808311610f9a57829003601f168201915b5050505050815260200160028201805480602002602001604051908101604052809291908181526020016000905b8282101561127257838290600052602060002090600502016040518060a00160405290816000820154815260200160018201805461102290612e27565b80601f016020809104026020016040519081016040528092919081815260200182805461104e90612e27565b801561109b5780601f106110705761010080835404028352916020019161109b565b820191906000526020600020905b81548152906001019060200180831161107e57829003601f168201915b505050505081526020016002820154815260200160038201805480602002602001604051908101604052809291908181526020016000905b8282101561125157838290600052602060002090600602016040518060c00160405290816000820154815260200160018201805461111090612e27565b80601f016020809104026020016040519081016040528092919081815260200182805461113c90612e27565b80156111895780601f1061115e57610100808354040283529160200191611189565b820191906000526020600020905b81548152906001019060200180831161116c57829003601f168201915b505050505081526020016002820180546111a290612e27565b80601f01602080910402602001604051908101604052809291908181526020018280546111ce90612e27565b801561121b5780601f106111f05761010080835404028352916020019161121b565b820191906000526020600020905b8154815290600101906020018083116111fe57829003601f168201915b505050505081526020016003820154815260200160048201548152602001600582015481525050815260200190600101906110d3565b50505050815260200160048201548152505081526020019060010190610fe5565b505050508152505091505b8061128781612e5b565b915050610eee565b5092915050565b60008281526020819052604081205490036112f35760405162461bcd60e51b815260206004820152601860248201527f43617465676f727920646f6573206e6f742065786973747300000000000000006044820152606401610731565b60065460000361133d5760405162461bcd60e51b81526020600482015260156024820152744576656e7420646f6573206e6f742065786973747360581b6044820152606401610731565b600083815260026020526040812054900361139a5760405162461bcd60e51b815260206004820152601a60248201527f43616e6469646174657320646f6573206e6f74206578697374730000000000006044820152606401610731565b60015b600754811161146557600081815260036020526040902060010154851480156113d6575060008181526003602052604090206002015483145b80156113f357506000818152600360208190526040909120015482145b156114535760008181526003602052604090206004015460ff161561144e5760405162461bcd60e51b8152602060048201526011602482015270165bdd48185b1c9958591e481d9bdd1959607a1b6044820152606401610731565b611465565b8061145d81612e5b565b91505061139d565b506001600760008282546114799190612df9565b90915550506040805160a0810182526007548082526020808301888152838501878152606085018781526001608087018181526000968752600395869052979095208651815592519483019490945551600282015591519082015591516004909201805460ff1916921515929092179091556114f484612653565b6114ff83838661267d565b6040805160208101859052808201849052815180820383018152606090910191829052908590611530908390612f22565b6040519081900381209088907fdd0629bf37ec3179d8b6727c2eb4d0f297cf08a85b960c1520666db55feb5b3990600090a4505050505050565b611572612811565b60008381526020818152604080832060020180548251818502810185019093528083529192909190849084015b8282101561182c57838290600052602060002090600502016040518060a0016040529081600082015481526020016001820180546115dc90612e27565b80601f016020809104026020016040519081016040528092919081815260200182805461160890612e27565b80156116555780601f1061162a57610100808354040283529160200191611655565b820191906000526020600020905b81548152906001019060200180831161163857829003601f168201915b505050505081526020016002820154815260200160038201805480602002602001604051908101604052809291908181526020016000905b8282101561180b57838290600052602060002090600602016040518060c0016040529081600082015481526020016001820180546116ca90612e27565b80601f01602080910402602001604051908101604052809291908181526020018280546116f690612e27565b80156117435780601f1061171857610100808354040283529160200191611743565b820191906000526020600020905b81548152906001019060200180831161172657829003601f168201915b5050505050815260200160028201805461175c90612e27565b80601f016020809104026020016040519081016040528092919081815260200182805461178890612e27565b80156117d55780601f106117aa576101008083540402835291602001916117d5565b820191906000526020600020905b8154815290600101906020018083116117b857829003601f168201915b5050505050815260200160038201548152602001600482015481526020016005820154815250508152602001906001019061168d565b5050505081526020016004820154815250508152602001906001019061159f565b505050509050606060005b8251811015611897578483828151811061185357611853612e11565b602002602001015160000151036118855782818151811061187657611876612e11565b60200260200101516060015191505b8061188f81612e5b565b915050611837565b506000816000815181106118ad576118ad612e11565b6020026020010151905060005b600183516118c89190612f3e565b81101561193b57826118db826001612df9565b815181106118eb576118eb612e11565b602002602001015160a001518260a001511015611929578261190e826001612df9565b8151811061191e5761191e612e11565b602002602001015191505b8061193381612e5b565b9150506118ba565b5095945050505050565b6060600060045467ffffffffffffffff81111561196457611964612a1a565b6040519080825280602002602001820160405280156119b957816020015b6119a660405180606001604052806000815260200160608152602001606081525090565b8152602001906001900390816119825790505b50905060015b6004548111611d6f57600081815260208181526040918290208251606081019093528054835260018101805491928401916119f990612e27565b80601f0160208091040260200160405190810160405280929190818152602001828054611a2590612e27565b8015611a725780601f10611a4757610100808354040283529160200191611a72565b820191906000526020600020905b815481529060010190602001808311611a5557829003601f168201915b5050505050815260200160028201805480602002602001604051908101604052809291908181526020016000905b82821015611d2d57838290600052602060002090600502016040518060a001604052908160008201548152602001600182018054611add90612e27565b80601f0160208091040260200160405190810160405280929190818152602001828054611b0990612e27565b8015611b565780601f10611b2b57610100808354040283529160200191611b56565b820191906000526020600020905b815481529060010190602001808311611b3957829003601f168201915b505050505081526020016002820154815260200160038201805480602002602001604051908101604052809291908181526020016000905b82821015611d0c57838290600052602060002090600602016040518060c001604052908160008201548152602001600182018054611bcb90612e27565b80601f0160208091040260200160405190810160405280929190818152602001828054611bf790612e27565b8015611c445780601f10611c1957610100808354040283529160200191611c44565b820191906000526020600020905b815481529060010190602001808311611c2757829003601f168201915b50505050508152602001600282018054611c5d90612e27565b80601f0160208091040260200160405190810160405280929190818152602001828054611c8990612e27565b8015611cd65780601f10611cab57610100808354040283529160200191611cd6565b820191906000526020600020905b815481529060010190602001808311611cb957829003601f168201915b50505050508152602001600382015481526020016004820154815260200160058201548152505081526020019060010190611b8e565b50505050815260200160048201548152505081526020019060010190611aa0565b505050915250839050611d41600184612f3e565b81518110611d5157611d51612e11565b60200260200101819052508080611d6790612e5b565b9150506119bf565b50919050565b6000848152602081905260408120549003611dcc5760405162461bcd60e51b815260206004820152601760248201527643617465676f727920686173206e6f742065786973747360481b6044820152606401610731565b611dd68484610ce2565b1515600114611e1e5760405162461bcd60e51b81526020600482015260146024820152734576656e7420686173206e6f742065786973747360601b6044820152606401610731565b600160056000828254611e319190612df9565b90915550506040805160c081018252600554815260208082018590528183018490526060820187905260808201869052600060a083018190528781529081905291822090915b6002820154811015611f995785826002018281548110611e9957611e99612e11565b90600052602060002090600502016000015403611f8757816002018181548110611ec557611ec5612e11565b60009182526020808320600360059093020191909101805460018181018355918452928290208651600690940201928355858201518051879493611f0d93850192019061278d565b5060408201518051611f2991600284019160209091019061278d565b50606082015181600301556080820151816004015560a0820151816005015550506001826002018281548110611f6157611f61612e11565b90600052602060002090600502016004016000828254611f819190612df9565b90915550505b80611f9181612e5b565b915050611e77565b50505050505050565b600082815260208181526040808320600201805482518185028101850190935280835260609493849084015b8282101561225b57838290600052602060002090600502016040518060a00160405290816000820154815260200160018201805461200b90612e27565b80601f016020809104026020016040519081016040528092919081815260200182805461203790612e27565b80156120845780601f1061205957610100808354040283529160200191612084565b820191906000526020600020905b81548152906001019060200180831161206757829003601f168201915b505050505081526020016002820154815260200160038201805480602002602001604051908101604052809291908181526020016000905b8282101561223a57838290600052602060002090600602016040518060c0016040529081600082015481526020016001820180546120f990612e27565b80601f016020809104026020016040519081016040528092919081815260200182805461212590612e27565b80156121725780601f1061214757610100808354040283529160200191612172565b820191906000526020600020905b81548152906001019060200180831161215557829003601f168201915b5050505050815260200160028201805461218b90612e27565b80601f01602080910402602001604051908101604052809291908181526020018280546121b790612e27565b80156122045780601f106121d957610100808354040283529160200191612204565b820191906000526020600020905b8154815290600101906020018083116121e757829003601f168201915b505050505081526020016003820154815260200160048201548152602001600582015481525050815260200190600101906120bc565b50505050815260200160048201548152505081526020019060010190611fce565b50505050905060005b81518110156122ca578382828151811061228057612280612e11565b602002602001015160000151036122b8578181815181106122a3576122a3612e11565b60200260200101516060015192505050610db5565b806122c281612e5b565b915050612264565b5060408051600080825260208201909252906122fc565b6122e9612811565b8152602001906001900390816122e15790505b50949350505050565b60008281526020819052604081206060915b600282015481101561253457838051906020012082600201828154811061234057612340612e11565b906000526020600020906005020160010160405161235e9190612e74565b60405180910390200361252257600082600201828154811061238257612382612e11565b90600052602060002090600502016004015467ffffffffffffffff8111156123ac576123ac612a1a565b6040519080825280602002602001820160405280156123df57816020015b60608152602001906001900390816123ca5790505b50905060005b8360020183815481106123fa576123fa612e11565b9060005260206000209060050201600301805490508110156125175783600201838154811061242b5761242b612e11565b9060005260206000209060050201600301818154811061244d5761244d612e11565b9060005260206000209060060201600101805461246990612e27565b80601f016020809104026020016040519081016040528092919081815260200182805461249590612e27565b80156124e25780601f106124b7576101008083540402835291602001916124e2565b820191906000526020600020905b8154815290600101906020018083116124c557829003601f168201915b50505050508282815181106124f9576124f9612e11565b6020026020010181905250808061250f90612e5b565b9150506123e5565b509250610db5915050565b8061252c81612e5b565b915050612317565b505092915050565b60008281526020819052604081205490036125935760405162461bcd60e51b815260206004820152601760248201527643617465676f727920686173206e6f742065786973747360481b6044820152606401610731565b61259d8282610dbb565b156125e15760405162461bcd60e51b81526020600482015260146024820152734576656e7420616c72656164792065786973747360601b6044820152606401610731565b600082815260208190526040812060068054919291600191908390612607908490612df9565b9182905550600284018054600181810183556000928352602092839020600590920290910183815587519395509350612646929084019187019061278d565b5060020193909355505050565b6000818152600260205260408120600501805460019290612675908490612df9565b909155505050565b6000838152602081905260408120600201905b815481101561278657838282815481106126ac576126ac612e11565b906000526020600020906005020160000154036127745760008282815481106126d7576126d7612e11565b9060005260206000209060050201600301905060005b8154811015612771578482828154811061270957612709612e11565b9060005260206000209060060201600001540361275f57600182828154811061273457612734612e11565b906000526020600020906006020160050160008282546127549190612df9565b909155506127719050565b8061276981612e5b565b9150506126ed565b50505b8061277e81612e5b565b915050612690565b5050505050565b82805461279990612e27565b90600052602060002090601f0160209004810192826127bb5760008555612801565b82601f106127d457805160ff1916838001178555612801565b82800160010185558215612801579182015b828111156128015782518255916020019190600101906127e6565b5061280d929150612847565b5090565b6040518060c001604052806000815260200160608152602001606081526020016000815260200160008152602001600081525090565b5b8082111561280d5760008155600101612848565b60005b8381101561287757818101518382015260200161285f565b83811115612886576000848401525b50505050565b600081518084526128a481602086016020860161285c565b601f01601f19169290920160200192915050565b805182526000602082015160c060208501526128d760c085018261288c565b9050604083015184820360408601526128f0828261288c565b915050606083015160608501526080830151608085015260a083015160a08501528091505092915050565b600082825180855260208086019550808260051b84010181860160005b8481101561296657601f198684030189526129548383516128b8565b98840198925090830190600101612938565b5090979650505050505050565b60006020808301818452808551808352604092508286019150828160051b87010184880160005b83811015612a0c57603f19898403018552815160a08151855288820151818a8701526129c88287018261288c565b9150508782015188860152606080830151868303828801526129ea838261291b565b608094850151979094019690965250509487019492509086019060010161299a565b509098975050505050505050565b634e487b7160e01b600052604160045260246000fd5b600082601f830112612a4157600080fd5b813567ffffffffffffffff80821115612a5c57612a5c612a1a565b604051601f8301601f19908116603f01168101908282118183101715612a8457612a84612a1a565b81604052838152866020858801011115612a9d57600080fd5b836020870160208301376000602085830101528094505050505092915050565b600060208284031215612acf57600080fd5b813567ffffffffffffffff811115612ae657600080fd5b612af284828501612a30565b949350505050565b602081526000612b0d602083018461291b565b9392505050565b600060208284031215612b2657600080fd5b5035919050565b60008060408385031215612b4057600080fd5b50508035926020909101359150565b60008060408385031215612b6257600080fd5b82359150602083013567ffffffffffffffff811115612b8057600080fd5b612b8c85828601612a30565b9150509250929050565b60006060825184526020808401518282870152612bb58387018261288c565b9050604080860151878303828901528281518085528585019150858160051b860101868401935060005b82811015612c4e57601f19878303018452845160a08151845289820151818b860152612c0d8286018261288c565b91505087820151888501528a8201518482038c860152612c2d828261291b565b60809384015195909301949094525094880194938801939150600101612bdf565b509a9950505050505050505050565b602081526000612b0d6020830184612b96565b60008060008060808587031215612c8657600080fd5b5050823594602084013594506040840135936060013592509050565b602081526000612b0d60208301846128b8565b6000602080830181845280855180835260408601915060408160051b870101925083870160005b82811015612d0a57603f19888603018452612cf8858351612b96565b94509285019290850190600101612cdc565b5092979650505050505050565b60008060008060808587031215612d2d57600080fd5b8435935060208501359250604085013567ffffffffffffffff80821115612d5357600080fd5b612d5f88838901612a30565b93506060870135915080821115612d7557600080fd5b50612d8287828801612a30565b91505092959194509250565b6000602080830181845280855180835260408601915060408160051b870101925083870160005b82811015612d0a57603f19888603018452612dd185835161288c565b94509285019290850190600101612db5565b634e487b7160e01b600052601160045260246000fd5b60008219821115612e0c57612e0c612de3565b500190565b634e487b7160e01b600052603260045260246000fd5b600181811c90821680612e3b57607f821691505b602082108103611d6f57634e487b7160e01b600052602260045260246000fd5b600060018201612e6d57612e6d612de3565b5060010190565b600080835481600182811c915080831680612e9057607f831692505b60208084108203612eaf57634e487b7160e01b86526022600452602486fd5b818015612ec35760018114612ed457612f01565b60ff19861689528489019650612f01565b60008a81526020902060005b86811015612ef95781548b820152908501908301612ee0565b505084890196505b509498975050505050505050565b602081526000612b0d602083018461288c565b60008251612f3481846020870161285c565b9190910192915050565b600082821015612f5057612f50612de3565b50039056fea26469706673582212208c9419593fd84597aa1deb89c0f1ba72cc7f68715dbadc2c76f9d95b01f3d70164736f6c634300080d0033",
  "immutableReferences": {},
  "source": "// SPDX-License-Identifier: MIT\npragma solidity >=0.4.22 <0.9.0;\n\ncontract VotingSystem {\n    struct Event {\n        uint256 eventId;\n        string eventName;\n        uint256 categoryId;\n        Candidate[] candidates;\n        uint256 candidateCount;\n    }\n\n    struct Category {\n        uint256 categoryId;\n        string categoryName;\n        Event[] events; //category has many event\n    }\n\n    struct Candidate {\n        uint256 id;\n        string name;\n        string description;\n        uint256 CategoryId;\n        uint256 eventId;\n        uint256 voteCount;\n    }\n\n    struct voteEventStruct {\n        uint256 id;\n        uint256 voterId;\n        uint256 categoryId;\n        uint256 eventId;\n        bool voted;\n    }\n\n    event CategoryAdded(uint256 indexed categoryId, string categoryName);\n    event EventAdded(uint256 indexed eventId, string eventName);\n    event CandidateAdded(uint256 indexed eventId, string eventName);\n\n    mapping(uint256 => Category) categories;\n    mapping(uint256 => Event) events;\n    mapping(uint256 => Candidate) candidates;\n    mapping(uint256 => voteEventStruct) public voteEvents;\n\n    uint256 categoryCount;\n    uint256 candidateCount;\n    uint256 eventCount;\n    uint256 voteEventCount;\n\n    event VoteEvent(\n        uint256 indexed voterId,\n        string indexed categoryEvent,\n        uint256 indexed candidate\n    );\n\n    function addCategory(string memory _categoryName) public {\n        // check if the category is exist\n        for (uint256 i = 1; i <= categoryCount; i++) {\n            require(\n                keccak256(bytes(_categoryName)) !=\n                    keccak256(bytes(categories[i].categoryName)),\n                \"Category already exists\"\n            );\n        }\n\n        // total category plus 1, use it as the category's id\n        categoryCount += 1;\n\n        // add the category details in the category list\n        Category storage category = categories[categoryCount];\n        category.categoryName = _categoryName;\n        category.categoryId = categoryCount;\n\n        // emit the category added event\n        emit CategoryAdded(categoryCount, _categoryName);\n    }\n\n    function addEvent(uint256 _categoryId, string memory _eventName) public {\n        // check if the category has exists\n        require(\n            categories[_categoryId].categoryId != 0,\n            \"Category has not exists\"\n        );\n\n        require(\n            isEventExists(_categoryId, _eventName) == false,\n            \"Event already exists\"\n        );\n\n        // find out the category in list by using the paramerter category name\n        Category storage category = categories[_categoryId];\n\n        // add the event in the category list\n        uint256 eventId = eventCount += 1;\n\n        Event storage newEvent = category.events.push();\n        newEvent.eventId = eventId;\n        newEvent.eventName = _eventName;\n        newEvent.categoryId = _categoryId;\n\n        // // Add candidates to the event\n        // for (uint256 i = 0; i < _candidateNames.length; i++) {\n        //     string memory candidateName = _candidateNames[i];\n        //     candidateCount += 1;\n        //     // Create a new candidate\n        //     Candidate memory newCandidate = Candidate({\n        //         id: candidateCount,\n        //         name: candidateName,\n        //         CategoryId: _categoryId,\n        //         eventName: _eventName,\n        //         voteCount: 0\n        //     });\n        //     // Push the new candidate to the candidates array\n        //     candidates[candidateCount] = newCandidate;\n        //     listEvent.candidates.push(newCandidate);\n        //     newEvent.candidates.push(newCandidate);\n        // }\n    }\n\n    function isEventExists(uint256 _categoryId, string memory _eventName)\n        public\n        view\n        returns (bool)\n    {\n        // Check if the category exists\n        require(\n            categories[_categoryId].categoryId != 0,\n            \"Category does not exist\"\n        );\n\n        // Loop through the events in the specified category\n        for (uint256 i = 0; i < categories[_categoryId].events.length; i++) {\n            if (\n                keccak256(bytes(categories[_categoryId].events[i].eventName)) ==\n                keccak256(bytes(_eventName))\n            ) {\n                // Event found\n                return true;\n            }\n        }\n\n        // Event not found in the specified category\n        return false;\n    }\n\n    function addCandidateToEvent(\n        uint256 _categoryId,\n        uint256 _eventId,\n        string memory _candidateName,\n        string memory _description\n    ) public {\n        require(\n            categories[_categoryId].categoryId != 0,\n            \"Category has not exists\"\n        );\n\n        require(\n            isEventExists(_categoryId, _eventId) == true,\n            \"Event has not exists\"\n        );\n\n        candidateCount += 1;\n        // Create a new candidate\n        Candidate memory newCandidate = Candidate({\n            id: candidateCount,\n            name: _candidateName,\n            CategoryId: _categoryId,\n            eventId: _eventId,\n            description: _description,\n            voteCount: 0\n        });\n\n        // find the certain category\n        Category storage category = categories[_categoryId];\n        // find the certain event in certain category\n        for (uint256 i = 0; i < category.events.length; i++) {\n            if (category.events[i].eventId == _eventId) {\n                category.events[i].candidates.push(newCandidate);\n                category.events[i].candidateCount += 1;\n            }\n        }\n    }\n\n    function isEventExists(uint256 _categoryId, uint256 _eventId)\n        public\n        view\n        returns (bool)\n    {\n        // Check if the category exists\n        require(\n            categories[_categoryId].categoryId != 0,\n            \"Category does not exist\"\n        );\n\n        // Loop through the events in the specified category\n        for (uint256 i = 0; i < categories[_categoryId].events.length; i++) {\n            if (categories[_categoryId].events[i].eventId == _eventId) {\n                // Event found\n                return true;\n            }\n        }\n\n        // Event not found in the specified category\n        return false;\n    }\n\n    function getAllCategoryEvent(uint256 _categoryId)\n        public\n        view\n        returns (Event[] memory foundEvent)\n    {\n        // find the certain category\n        Category storage category = categories[_categoryId];\n\n        // declare an array variable for storing events\n        Event[] memory eventsFound = new Event[](category.events.length);\n\n        // get all the event name by searching the event in list\n        for (uint256 i = 0; i < category.events.length; i++) {\n            eventsFound[i] = category.events[i];\n        }\n\n        return (eventsFound);\n    }\n\n    function getAllCategoryEventCandidate(\n        uint256 _categoryId,\n        string memory _eventName\n    ) public view returns (string[] memory candidatesFound) {\n        // find the certain category\n        Category storage category = categories[_categoryId];\n        // find the certain event in certain category\n        for (uint256 i = 0; i < category.events.length; i++) {\n            if (\n                keccak256(bytes(category.events[i].eventName)) ==\n                keccak256(bytes(_eventName))\n            ) {\n                string[] memory candidatesName = new string[](\n                    category.events[i].candidateCount\n                );\n\n                for (\n                    uint256 j = 0;\n                    j < category.events[i].candidates.length;\n                    j++\n                ) {\n                    candidatesName[j] = category.events[i].candidates[j].name;\n                }\n                return (candidatesName);\n            }\n        }\n    }\n\n    function getAllCandidates() public view returns (Candidate[] memory) {\n        Candidate[] memory candidatesFound = new Candidate[](candidateCount);\n        Event[] memory eventFound = new Event[](eventCount);\n\n        // get all the events\n        eventFound = getAllEvent();\n        uint256 count = 0;\n        // find the candidates inside all the event\n        for (uint256 i = 0; i < eventCount; i++) {\n            for (uint256 j = 0; j < eventFound[i].candidates.length; j++) {\n                candidatesFound[count] = eventFound[i].candidates[j];\n                count += 1;\n            }\n        }\n\n        return candidatesFound;\n    }\n\n    function getAllCategory() public view returns (Category[] memory) {\n        //Candidate[] memory candidatesFound = new Candidate[](candidateCount);\n        Category[] memory categoriesFound = new Category[](categoryCount);\n        // Iterate through all stored structs\n        for (uint256 i = 1; i <= categoryCount; i++) {\n            categoriesFound[i - 1] = categories[i];\n        }\n\n        return categoriesFound;\n    }\n\n    function getCategoryById(uint256 _categoryId)\n        public\n        view\n        returns (Category memory)\n    {\n        Category memory categoriesFound;\n        // Iterate through all stored structs\n        for (uint256 i = 1; i <= categoryCount; i++) {\n            if (categories[i].categoryId == _categoryId) {\n                categoriesFound = categories[i];\n            }\n        }\n\n        return categoriesFound;\n    }\n\n    function getAllEvent() public view returns (Event[] memory) {\n        // Initialize the array with the correct size\n        Event[] memory eventFound = new Event[](eventCount);\n        uint256 count = 0;\n\n        // Iterate through all categories and events\n        for (uint256 i = 0; i < categoryCount; i++) {\n            for (uint256 j = 0; j < categories[i + 1].events.length; j++) {\n                eventFound[count] = categories[i + 1].events[j];\n                count += 1;\n            }\n        }\n\n        return eventFound;\n    }\n\n    function vote(\n        uint256 _voterId,\n        uint256 _candidateId,\n        uint256 _categoryId,\n        uint256 _eventId\n    ) external {\n        require(\n            categories[_categoryId].categoryId != 0,\n            \"Category does not exists\"\n        );\n\n        require(eventCount != 0, \"Event does not exists\");\n\n        // for (uint256 i = 1; i <= categories[_categoryId].events.length; i++) {\n        //     require(categories[_categoryId].events[i-0].eventId == _eventId, \"noobbbbb\");\n        // }\n\n        require(candidates[_candidateId].id != 0, \"Candidates does not exists\");\n\n        // check if has voted\n        for (uint256 i = 1; i <= voteEventCount; i++) {\n            if (\n                _voterId == voteEvents[i].voterId &&\n                _categoryId == voteEvents[i].categoryId &&\n                _eventId == voteEvents[i].eventId\n            ) {\n                require(!voteEvents[i].voted, \"You already voted\");\n                break;\n            }\n        }\n\n        // add count on the candidate\n        voteEventCount += 1;\n\n        // Create a new voteEventStruct\n        voteEventStruct memory newVoteEvent = voteEventStruct({\n            id: voteEventCount,\n            voterId: _voterId,\n            categoryId: _categoryId,\n            eventId: _eventId,\n            voted: true\n        });\n\n        voteEvents[voteEventCount] = newVoteEvent;\n\n        // add the vote count of the chosen candidate\n        addVoteCount(_candidateId);\n        addVoteCountIn(_categoryId, _eventId, _candidateId);\n\n        string memory concatenatedValues = string(\n            abi.encodePacked(_categoryId, _eventId)\n        );\n\n        emit VoteEvent(_voterId, concatenatedValues, _candidateId);\n    }\n\n    function addVoteCount(uint256 _candidateId) internal {\n        candidates[_candidateId].voteCount += 1;\n    }\n\n    function addVoteCountIn(\n        uint256 _categoryId,\n        uint256 _eventId,\n        uint256 _candidateId\n    ) internal {\n        // get the events inside the categories\n        Event[] storage eventsFound = categories[_categoryId].events;\n\n        // find the event with param\n        for (uint256 i = 0; i < eventsFound.length; i++) {\n            if (eventsFound[i].eventId == _eventId) {\n                // get the candidate inside the event\n                Candidate[] storage candidatesFound = eventsFound[i].candidates;\n                // find the candidate\n                for (uint256 j = 0; j < candidatesFound.length; j++) {\n                    if (candidatesFound[j].id == _candidateId) {\n                        // found the candidate and plus 1 at the voteCount\n                        candidatesFound[j].voteCount += 1;\n                        break;\n                    }\n                }\n            }\n        }\n    }\n\n    function getCandidateVoteCount(uint256 _candidateId)\n        public\n        view\n        returns (uint256 count)\n    {\n        return candidates[_candidateId].voteCount;\n    }\n\n    function getVoteEventCandidate(uint256 _categoryId, uint256 _eventId)\n        public\n        view\n        returns (Candidate[] memory)\n    {\n        Event[] memory eventsFound = categories[_categoryId].events;\n\n        for (uint256 i = 0; i < eventsFound.length; i++) {\n            if (eventsFound[i].eventId == _eventId) {\n                return eventsFound[i].candidates;\n            }\n        }\n\n        // If the event is not found, return an empty array or handle the situation accordingly\n        return new Candidate[](0);\n    }\n\n    function whoIsTheWinner(uint256 _categoryId, uint256 _eventId)\n        public\n        view\n        returns (Candidate memory)\n    {\n        Event[] memory eventsFound = categories[_categoryId].events;\n        Candidate[] memory candidatesFound;\n\n        for (uint256 i = 0; i < eventsFound.length; i++) {\n            if (eventsFound[i].eventId == _eventId) {\n                candidatesFound = eventsFound[i].candidates;\n            }\n        }\n\n        Candidate memory winner = candidatesFound[0];\n\n        for (uint256 i = 0; i < candidatesFound.length - 1; i++) {\n            if (winner.voteCount < candidatesFound[i + 1].voteCount) {\n                winner = candidatesFound[i + 1];\n            }\n        }\n\n        // If the event is not found, return an empty array or handle the situation accordingly\n        return winner;\n    }\n}\n",
  "sourcePath": "C:\\xampp\\htdocs\\Online-Voting-System-Blockchain\\contracts\\VotingSystem.sol",
  "compiler": {
    "name": "solc",
    "version": "0.8.13+commit.abaa5c0e.Emscripten.clang"
  },
  "schemaVersion": "3.4.16",
  "updatedAt": "2023-12-04T13:57:33.926Z",
  "networkType": "ethereum",
  "devdoc": {
    "kind": "dev",
    "methods": {},
    "version": 1
  },
  "userdoc": {
    "kind": "user",
    "methods": {},
    "version": 1
  }
}