{
  "contractName": "VotingSystem",
  "abi": [
    {
      "inputs": [],
      "stateMutability": "nonpayable",
      "type": "constructor"
    },
    {
      "anonymous": false,
      "inputs": [
        {
          "indexed": true,
          "internalType": "uint256",
          "name": "eventId",
          "type": "uint256"
        },
        {
          "indexed": false,
          "internalType": "string",
          "name": "eventName",
          "type": "string"
        }
      ],
      "name": "CandidateAdded",
      "type": "event"
    },
    {
      "anonymous": false,
      "inputs": [
        {
          "indexed": true,
          "internalType": "uint256",
          "name": "categoryId",
          "type": "uint256"
        },
        {
          "indexed": false,
          "internalType": "string",
          "name": "categoryName",
          "type": "string"
        }
      ],
      "name": "CategoryAdded",
      "type": "event"
    },
    {
      "anonymous": false,
      "inputs": [
        {
          "indexed": true,
          "internalType": "uint256",
          "name": "eventId",
          "type": "uint256"
        },
        {
          "indexed": false,
          "internalType": "string",
          "name": "eventName",
          "type": "string"
        }
      ],
      "name": "EventAdded",
      "type": "event"
    },
    {
      "anonymous": false,
      "inputs": [
        {
          "indexed": true,
          "internalType": "string",
          "name": "_voterKey",
          "type": "string"
        },
        {
          "indexed": true,
          "internalType": "string",
          "name": "categoryEvent",
          "type": "string"
        },
        {
          "indexed": true,
          "internalType": "uint256",
          "name": "candidate",
          "type": "uint256"
        }
      ],
      "name": "VoteEvent",
      "type": "event"
    },
    {
      "anonymous": false,
      "inputs": [
        {
          "indexed": true,
          "internalType": "uint256",
          "name": "voterId",
          "type": "uint256"
        },
        {
          "indexed": false,
          "internalType": "string",
          "name": "voter_key",
          "type": "string"
        }
      ],
      "name": "VoterAdded",
      "type": "event"
    },
    {
      "inputs": [],
      "name": "owner",
      "outputs": [
        {
          "internalType": "address",
          "name": "",
          "type": "address"
        }
      ],
      "stateMutability": "view",
      "type": "function"
    },
    {
      "inputs": [
        {
          "internalType": "uint256",
          "name": "",
          "type": "uint256"
        }
      ],
      "name": "voteEvents",
      "outputs": [
        {
          "internalType": "uint256",
          "name": "id",
          "type": "uint256"
        },
        {
          "internalType": "string",
          "name": "voterKey",
          "type": "string"
        },
        {
          "internalType": "uint256",
          "name": "categoryId",
          "type": "uint256"
        },
        {
          "internalType": "uint256",
          "name": "eventId",
          "type": "uint256"
        },
        {
          "internalType": "uint256",
          "name": "votedCandidateId",
          "type": "uint256"
        },
        {
          "internalType": "bool",
          "name": "voted",
          "type": "bool"
        }
      ],
      "stateMutability": "view",
      "type": "function"
    },
    {
      "inputs": [
        {
          "internalType": "uint256",
          "name": "",
          "type": "uint256"
        }
      ],
      "name": "voters",
      "outputs": [
        {
          "internalType": "uint256",
          "name": "id",
          "type": "uint256"
        },
        {
          "internalType": "string",
          "name": "key",
          "type": "string"
        },
        {
          "internalType": "string",
          "name": "email",
          "type": "string"
        },
        {
          "internalType": "bytes32",
          "name": "password",
          "type": "bytes32"
        },
        {
          "internalType": "string",
          "name": "role",
          "type": "string"
        },
        {
          "internalType": "uint256",
          "name": "status",
          "type": "uint256"
        },
        {
          "internalType": "string",
          "name": "token",
          "type": "string"
        }
      ],
      "stateMutability": "view",
      "type": "function"
    },
    {
      "inputs": [
        {
          "internalType": "string",
          "name": "_key",
          "type": "string"
        },
        {
          "internalType": "string",
          "name": "_email",
          "type": "string"
        },
        {
          "internalType": "string",
          "name": "_password",
          "type": "string"
        },
        {
          "internalType": "string",
          "name": "_role",
          "type": "string"
        },
        {
          "internalType": "string",
          "name": "_token",
          "type": "string"
        }
      ],
      "name": "addVoter",
      "outputs": [],
      "stateMutability": "nonpayable",
      "type": "function"
    },
    {
      "inputs": [
        {
          "internalType": "string",
          "name": "_email",
          "type": "string"
        },
        {
          "internalType": "string",
          "name": "_password",
          "type": "string"
        }
      ],
      "name": "getVoterByEmailPassword",
      "outputs": [
        {
          "components": [
            {
              "internalType": "uint256",
              "name": "id",
              "type": "uint256"
            },
            {
              "internalType": "string",
              "name": "key",
              "type": "string"
            },
            {
              "internalType": "string",
              "name": "email",
              "type": "string"
            },
            {
              "internalType": "bytes32",
              "name": "password",
              "type": "bytes32"
            },
            {
              "internalType": "string",
              "name": "role",
              "type": "string"
            },
            {
              "internalType": "uint256",
              "name": "status",
              "type": "uint256"
            },
            {
              "internalType": "string",
              "name": "token",
              "type": "string"
            }
          ],
          "internalType": "struct VotingSystem.Voter",
          "name": "",
          "type": "tuple"
        }
      ],
      "stateMutability": "view",
      "type": "function"
    },
    {
      "inputs": [
        {
          "internalType": "uint256",
          "name": "_voterId",
          "type": "uint256"
        }
      ],
      "name": "getVoterEmailById",
      "outputs": [
        {
          "internalType": "string",
          "name": "",
          "type": "string"
        }
      ],
      "stateMutability": "view",
      "type": "function"
    },
    {
      "inputs": [
        {
          "internalType": "string",
          "name": "_key",
          "type": "string"
        },
        {
          "internalType": "string",
          "name": "_password",
          "type": "string"
        }
      ],
      "name": "updateVoterPassword",
      "outputs": [],
      "stateMutability": "nonpayable",
      "type": "function"
    },
    {
      "inputs": [
        {
          "internalType": "string",
          "name": "_token",
          "type": "string"
        }
      ],
      "name": "verifyVoterAccount",
      "outputs": [
        {
          "internalType": "bool",
          "name": "",
          "type": "bool"
        }
      ],
      "stateMutability": "nonpayable",
      "type": "function"
    },
    {
      "inputs": [
        {
          "internalType": "string",
          "name": "_key",
          "type": "string"
        }
      ],
      "name": "isVoterExist",
      "outputs": [
        {
          "internalType": "bool",
          "name": "",
          "type": "bool"
        }
      ],
      "stateMutability": "view",
      "type": "function"
    },
    {
      "inputs": [],
      "name": "getAllVoter",
      "outputs": [
        {
          "components": [
            {
              "internalType": "uint256",
              "name": "id",
              "type": "uint256"
            },
            {
              "internalType": "string",
              "name": "key",
              "type": "string"
            },
            {
              "internalType": "string",
              "name": "email",
              "type": "string"
            },
            {
              "internalType": "bytes32",
              "name": "password",
              "type": "bytes32"
            },
            {
              "internalType": "string",
              "name": "role",
              "type": "string"
            },
            {
              "internalType": "uint256",
              "name": "status",
              "type": "uint256"
            },
            {
              "internalType": "string",
              "name": "token",
              "type": "string"
            }
          ],
          "internalType": "struct VotingSystem.Voter[]",
          "name": "",
          "type": "tuple[]"
        }
      ],
      "stateMutability": "view",
      "type": "function"
    },
    {
      "inputs": [
        {
          "internalType": "uint256",
          "name": "_id",
          "type": "uint256"
        },
        {
          "internalType": "uint256",
          "name": "_status",
          "type": "uint256"
        }
      ],
      "name": "editUserStatus",
      "outputs": [],
      "stateMutability": "nonpayable",
      "type": "function"
    },
    {
      "inputs": [
        {
          "internalType": "string",
          "name": "_email",
          "type": "string"
        },
        {
          "internalType": "string",
          "name": "_newToken",
          "type": "string"
        }
      ],
      "name": "updateVoterTokenByEmail",
      "outputs": [],
      "stateMutability": "nonpayable",
      "type": "function"
    },
    {
      "inputs": [
        {
          "internalType": "string",
          "name": "_categoryName",
          "type": "string"
        }
      ],
      "name": "addCategory",
      "outputs": [],
      "stateMutability": "nonpayable",
      "type": "function"
    },
    {
      "inputs": [
        {
          "internalType": "uint256",
          "name": "_categoryId",
          "type": "uint256"
        },
        {
          "internalType": "string",
          "name": "_categoryName",
          "type": "string"
        }
      ],
      "name": "updateCategory",
      "outputs": [],
      "stateMutability": "nonpayable",
      "type": "function"
    },
    {
      "inputs": [
        {
          "internalType": "uint256",
          "name": "_categoryId",
          "type": "uint256"
        }
      ],
      "name": "deleteCategory",
      "outputs": [],
      "stateMutability": "nonpayable",
      "type": "function"
    },
    {
      "inputs": [],
      "name": "getAllCategory",
      "outputs": [
        {
          "components": [
            {
              "internalType": "uint256",
              "name": "categoryId",
              "type": "uint256"
            },
            {
              "internalType": "string",
              "name": "categoryName",
              "type": "string"
            },
            {
              "components": [
                {
                  "internalType": "uint256",
                  "name": "eventId",
                  "type": "uint256"
                },
                {
                  "internalType": "string",
                  "name": "eventName",
                  "type": "string"
                },
                {
                  "internalType": "uint256",
                  "name": "categoryId",
                  "type": "uint256"
                },
                {
                  "components": [
                    {
                      "internalType": "uint256",
                      "name": "id",
                      "type": "uint256"
                    },
                    {
                      "internalType": "string",
                      "name": "name",
                      "type": "string"
                    },
                    {
                      "internalType": "string",
                      "name": "description",
                      "type": "string"
                    },
                    {
                      "internalType": "uint256",
                      "name": "studentId",
                      "type": "uint256"
                    },
                    {
                      "internalType": "uint256",
                      "name": "categoryId",
                      "type": "uint256"
                    },
                    {
                      "internalType": "uint256",
                      "name": "eventId",
                      "type": "uint256"
                    },
                    {
                      "internalType": "uint256",
                      "name": "voteCount",
                      "type": "uint256"
                    },
                    {
                      "internalType": "bool",
                      "name": "win",
                      "type": "bool"
                    },
                    {
                      "internalType": "string",
                      "name": "imageFileName",
                      "type": "string"
                    }
                  ],
                  "internalType": "struct VotingSystem.Candidate[]",
                  "name": "candidates",
                  "type": "tuple[]"
                },
                {
                  "internalType": "uint256",
                  "name": "candidateCount",
                  "type": "uint256"
                },
                {
                  "internalType": "uint256",
                  "name": "startDateTime",
                  "type": "uint256"
                },
                {
                  "internalType": "uint256",
                  "name": "endDateTime",
                  "type": "uint256"
                },
                {
                  "internalType": "uint256",
                  "name": "status",
                  "type": "uint256"
                },
                {
                  "internalType": "string",
                  "name": "eventDesc",
                  "type": "string"
                }
              ],
              "internalType": "struct VotingSystem.Event[]",
              "name": "events",
              "type": "tuple[]"
            },
            {
              "internalType": "uint256",
              "name": "status",
              "type": "uint256"
            }
          ],
          "internalType": "struct VotingSystem.Category[]",
          "name": "",
          "type": "tuple[]"
        }
      ],
      "stateMutability": "view",
      "type": "function"
    },
    {
      "inputs": [
        {
          "internalType": "uint256",
          "name": "_categoryId",
          "type": "uint256"
        }
      ],
      "name": "getCategoryById",
      "outputs": [
        {
          "components": [
            {
              "internalType": "uint256",
              "name": "categoryId",
              "type": "uint256"
            },
            {
              "internalType": "string",
              "name": "categoryName",
              "type": "string"
            },
            {
              "components": [
                {
                  "internalType": "uint256",
                  "name": "eventId",
                  "type": "uint256"
                },
                {
                  "internalType": "string",
                  "name": "eventName",
                  "type": "string"
                },
                {
                  "internalType": "uint256",
                  "name": "categoryId",
                  "type": "uint256"
                },
                {
                  "components": [
                    {
                      "internalType": "uint256",
                      "name": "id",
                      "type": "uint256"
                    },
                    {
                      "internalType": "string",
                      "name": "name",
                      "type": "string"
                    },
                    {
                      "internalType": "string",
                      "name": "description",
                      "type": "string"
                    },
                    {
                      "internalType": "uint256",
                      "name": "studentId",
                      "type": "uint256"
                    },
                    {
                      "internalType": "uint256",
                      "name": "categoryId",
                      "type": "uint256"
                    },
                    {
                      "internalType": "uint256",
                      "name": "eventId",
                      "type": "uint256"
                    },
                    {
                      "internalType": "uint256",
                      "name": "voteCount",
                      "type": "uint256"
                    },
                    {
                      "internalType": "bool",
                      "name": "win",
                      "type": "bool"
                    },
                    {
                      "internalType": "string",
                      "name": "imageFileName",
                      "type": "string"
                    }
                  ],
                  "internalType": "struct VotingSystem.Candidate[]",
                  "name": "candidates",
                  "type": "tuple[]"
                },
                {
                  "internalType": "uint256",
                  "name": "candidateCount",
                  "type": "uint256"
                },
                {
                  "internalType": "uint256",
                  "name": "startDateTime",
                  "type": "uint256"
                },
                {
                  "internalType": "uint256",
                  "name": "endDateTime",
                  "type": "uint256"
                },
                {
                  "internalType": "uint256",
                  "name": "status",
                  "type": "uint256"
                },
                {
                  "internalType": "string",
                  "name": "eventDesc",
                  "type": "string"
                }
              ],
              "internalType": "struct VotingSystem.Event[]",
              "name": "events",
              "type": "tuple[]"
            },
            {
              "internalType": "uint256",
              "name": "status",
              "type": "uint256"
            }
          ],
          "internalType": "struct VotingSystem.Category",
          "name": "",
          "type": "tuple"
        }
      ],
      "stateMutability": "view",
      "type": "function"
    },
    {
      "inputs": [],
      "name": "getAllEvent",
      "outputs": [
        {
          "components": [
            {
              "internalType": "uint256",
              "name": "eventId",
              "type": "uint256"
            },
            {
              "internalType": "string",
              "name": "eventName",
              "type": "string"
            },
            {
              "internalType": "uint256",
              "name": "categoryId",
              "type": "uint256"
            },
            {
              "components": [
                {
                  "internalType": "uint256",
                  "name": "id",
                  "type": "uint256"
                },
                {
                  "internalType": "string",
                  "name": "name",
                  "type": "string"
                },
                {
                  "internalType": "string",
                  "name": "description",
                  "type": "string"
                },
                {
                  "internalType": "uint256",
                  "name": "studentId",
                  "type": "uint256"
                },
                {
                  "internalType": "uint256",
                  "name": "categoryId",
                  "type": "uint256"
                },
                {
                  "internalType": "uint256",
                  "name": "eventId",
                  "type": "uint256"
                },
                {
                  "internalType": "uint256",
                  "name": "voteCount",
                  "type": "uint256"
                },
                {
                  "internalType": "bool",
                  "name": "win",
                  "type": "bool"
                },
                {
                  "internalType": "string",
                  "name": "imageFileName",
                  "type": "string"
                }
              ],
              "internalType": "struct VotingSystem.Candidate[]",
              "name": "candidates",
              "type": "tuple[]"
            },
            {
              "internalType": "uint256",
              "name": "candidateCount",
              "type": "uint256"
            },
            {
              "internalType": "uint256",
              "name": "startDateTime",
              "type": "uint256"
            },
            {
              "internalType": "uint256",
              "name": "endDateTime",
              "type": "uint256"
            },
            {
              "internalType": "uint256",
              "name": "status",
              "type": "uint256"
            },
            {
              "internalType": "string",
              "name": "eventDesc",
              "type": "string"
            }
          ],
          "internalType": "struct VotingSystem.Event[]",
          "name": "",
          "type": "tuple[]"
        }
      ],
      "stateMutability": "view",
      "type": "function"
    },
    {
      "inputs": [
        {
          "internalType": "uint256",
          "name": "_categoryId",
          "type": "uint256"
        },
        {
          "internalType": "string",
          "name": "_eventName",
          "type": "string"
        },
        {
          "internalType": "string",
          "name": "_eventDesc",
          "type": "string"
        },
        {
          "internalType": "uint256",
          "name": "_startDateTime",
          "type": "uint256"
        },
        {
          "internalType": "uint256",
          "name": "_endDateTime",
          "type": "uint256"
        }
      ],
      "name": "addEvent",
      "outputs": [],
      "stateMutability": "nonpayable",
      "type": "function"
    },
    {
      "inputs": [
        {
          "internalType": "uint256",
          "name": "_categoryId",
          "type": "uint256"
        },
        {
          "internalType": "uint256",
          "name": "_eventId",
          "type": "uint256"
        },
        {
          "internalType": "string",
          "name": "_eventName",
          "type": "string"
        },
        {
          "internalType": "string",
          "name": "_eventDesc",
          "type": "string"
        },
        {
          "internalType": "uint256",
          "name": "_startDateTime",
          "type": "uint256"
        },
        {
          "internalType": "uint256",
          "name": "_endDateTime",
          "type": "uint256"
        }
      ],
      "name": "updateEventDetails",
      "outputs": [],
      "stateMutability": "nonpayable",
      "type": "function"
    },
    {
      "inputs": [
        {
          "internalType": "uint256",
          "name": "_categoryId",
          "type": "uint256"
        },
        {
          "internalType": "uint256",
          "name": "_eventId",
          "type": "uint256"
        }
      ],
      "name": "deleteEvent",
      "outputs": [],
      "stateMutability": "nonpayable",
      "type": "function"
    },
    {
      "inputs": [
        {
          "components": [
            {
              "internalType": "uint256",
              "name": "eventId",
              "type": "uint256"
            },
            {
              "internalType": "string",
              "name": "eventName",
              "type": "string"
            },
            {
              "internalType": "uint256",
              "name": "categoryId",
              "type": "uint256"
            },
            {
              "components": [
                {
                  "internalType": "uint256",
                  "name": "id",
                  "type": "uint256"
                },
                {
                  "internalType": "string",
                  "name": "name",
                  "type": "string"
                },
                {
                  "internalType": "string",
                  "name": "description",
                  "type": "string"
                },
                {
                  "internalType": "uint256",
                  "name": "studentId",
                  "type": "uint256"
                },
                {
                  "internalType": "uint256",
                  "name": "categoryId",
                  "type": "uint256"
                },
                {
                  "internalType": "uint256",
                  "name": "eventId",
                  "type": "uint256"
                },
                {
                  "internalType": "uint256",
                  "name": "voteCount",
                  "type": "uint256"
                },
                {
                  "internalType": "bool",
                  "name": "win",
                  "type": "bool"
                },
                {
                  "internalType": "string",
                  "name": "imageFileName",
                  "type": "string"
                }
              ],
              "internalType": "struct VotingSystem.Candidate[]",
              "name": "candidates",
              "type": "tuple[]"
            },
            {
              "internalType": "uint256",
              "name": "candidateCount",
              "type": "uint256"
            },
            {
              "internalType": "uint256",
              "name": "startDateTime",
              "type": "uint256"
            },
            {
              "internalType": "uint256",
              "name": "endDateTime",
              "type": "uint256"
            },
            {
              "internalType": "uint256",
              "name": "status",
              "type": "uint256"
            },
            {
              "internalType": "string",
              "name": "eventDesc",
              "type": "string"
            }
          ],
          "internalType": "struct VotingSystem.Event",
          "name": "_event",
          "type": "tuple"
        }
      ],
      "name": "updateEvent",
      "outputs": [],
      "stateMutability": "nonpayable",
      "type": "function"
    },
    {
      "inputs": [
        {
          "internalType": "uint256",
          "name": "_categoryId",
          "type": "uint256"
        }
      ],
      "name": "getAllCategoryEvent",
      "outputs": [
        {
          "components": [
            {
              "internalType": "uint256",
              "name": "eventId",
              "type": "uint256"
            },
            {
              "internalType": "string",
              "name": "eventName",
              "type": "string"
            },
            {
              "internalType": "uint256",
              "name": "categoryId",
              "type": "uint256"
            },
            {
              "components": [
                {
                  "internalType": "uint256",
                  "name": "id",
                  "type": "uint256"
                },
                {
                  "internalType": "string",
                  "name": "name",
                  "type": "string"
                },
                {
                  "internalType": "string",
                  "name": "description",
                  "type": "string"
                },
                {
                  "internalType": "uint256",
                  "name": "studentId",
                  "type": "uint256"
                },
                {
                  "internalType": "uint256",
                  "name": "categoryId",
                  "type": "uint256"
                },
                {
                  "internalType": "uint256",
                  "name": "eventId",
                  "type": "uint256"
                },
                {
                  "internalType": "uint256",
                  "name": "voteCount",
                  "type": "uint256"
                },
                {
                  "internalType": "bool",
                  "name": "win",
                  "type": "bool"
                },
                {
                  "internalType": "string",
                  "name": "imageFileName",
                  "type": "string"
                }
              ],
              "internalType": "struct VotingSystem.Candidate[]",
              "name": "candidates",
              "type": "tuple[]"
            },
            {
              "internalType": "uint256",
              "name": "candidateCount",
              "type": "uint256"
            },
            {
              "internalType": "uint256",
              "name": "startDateTime",
              "type": "uint256"
            },
            {
              "internalType": "uint256",
              "name": "endDateTime",
              "type": "uint256"
            },
            {
              "internalType": "uint256",
              "name": "status",
              "type": "uint256"
            },
            {
              "internalType": "string",
              "name": "eventDesc",
              "type": "string"
            }
          ],
          "internalType": "struct VotingSystem.Event[]",
          "name": "foundEvent",
          "type": "tuple[]"
        }
      ],
      "stateMutability": "view",
      "type": "function"
    },
    {
      "inputs": [
        {
          "internalType": "uint256",
          "name": "_categoryId",
          "type": "uint256"
        },
        {
          "internalType": "uint256",
          "name": "_eventId",
          "type": "uint256"
        }
      ],
      "name": "getEventById",
      "outputs": [
        {
          "components": [
            {
              "internalType": "uint256",
              "name": "eventId",
              "type": "uint256"
            },
            {
              "internalType": "string",
              "name": "eventName",
              "type": "string"
            },
            {
              "internalType": "uint256",
              "name": "categoryId",
              "type": "uint256"
            },
            {
              "components": [
                {
                  "internalType": "uint256",
                  "name": "id",
                  "type": "uint256"
                },
                {
                  "internalType": "string",
                  "name": "name",
                  "type": "string"
                },
                {
                  "internalType": "string",
                  "name": "description",
                  "type": "string"
                },
                {
                  "internalType": "uint256",
                  "name": "studentId",
                  "type": "uint256"
                },
                {
                  "internalType": "uint256",
                  "name": "categoryId",
                  "type": "uint256"
                },
                {
                  "internalType": "uint256",
                  "name": "eventId",
                  "type": "uint256"
                },
                {
                  "internalType": "uint256",
                  "name": "voteCount",
                  "type": "uint256"
                },
                {
                  "internalType": "bool",
                  "name": "win",
                  "type": "bool"
                },
                {
                  "internalType": "string",
                  "name": "imageFileName",
                  "type": "string"
                }
              ],
              "internalType": "struct VotingSystem.Candidate[]",
              "name": "candidates",
              "type": "tuple[]"
            },
            {
              "internalType": "uint256",
              "name": "candidateCount",
              "type": "uint256"
            },
            {
              "internalType": "uint256",
              "name": "startDateTime",
              "type": "uint256"
            },
            {
              "internalType": "uint256",
              "name": "endDateTime",
              "type": "uint256"
            },
            {
              "internalType": "uint256",
              "name": "status",
              "type": "uint256"
            },
            {
              "internalType": "string",
              "name": "eventDesc",
              "type": "string"
            }
          ],
          "internalType": "struct VotingSystem.Event",
          "name": "",
          "type": "tuple"
        }
      ],
      "stateMutability": "view",
      "type": "function"
    },
    {
      "inputs": [
        {
          "internalType": "uint256",
          "name": "_categoryId",
          "type": "uint256"
        },
        {
          "internalType": "uint256",
          "name": "_eventId",
          "type": "uint256"
        }
      ],
      "name": "isEventExists",
      "outputs": [
        {
          "internalType": "bool",
          "name": "",
          "type": "bool"
        }
      ],
      "stateMutability": "view",
      "type": "function"
    },
    {
      "inputs": [
        {
          "internalType": "uint256",
          "name": "_categoryId",
          "type": "uint256"
        },
        {
          "internalType": "uint256",
          "name": "_eventId",
          "type": "uint256"
        },
        {
          "internalType": "string",
          "name": "_candidateName",
          "type": "string"
        },
        {
          "internalType": "string",
          "name": "_description",
          "type": "string"
        },
        {
          "internalType": "uint256",
          "name": "_studentId",
          "type": "uint256"
        },
        {
          "internalType": "string",
          "name": "_imageFileName",
          "type": "string"
        }
      ],
      "name": "addCandidateToEvent",
      "outputs": [],
      "stateMutability": "nonpayable",
      "type": "function"
    },
    {
      "inputs": [
        {
          "internalType": "uint256",
          "name": "_id",
          "type": "uint256"
        },
        {
          "internalType": "string",
          "name": "_name",
          "type": "string"
        },
        {
          "internalType": "string",
          "name": "_description",
          "type": "string"
        },
        {
          "internalType": "uint256",
          "name": "_studentId",
          "type": "uint256"
        },
        {
          "internalType": "uint256",
          "name": "_categoryId",
          "type": "uint256"
        },
        {
          "internalType": "uint256",
          "name": "_eventId",
          "type": "uint256"
        },
        {
          "internalType": "string",
          "name": "_imageFileName",
          "type": "string"
        }
      ],
      "name": "updateCandidateDetails",
      "outputs": [],
      "stateMutability": "nonpayable",
      "type": "function"
    },
    {
      "inputs": [
        {
          "internalType": "uint256",
          "name": "_categoryId",
          "type": "uint256"
        },
        {
          "internalType": "uint256",
          "name": "_eventId",
          "type": "uint256"
        },
        {
          "internalType": "uint256",
          "name": "_candidateId",
          "type": "uint256"
        }
      ],
      "name": "deleteCandidate",
      "outputs": [],
      "stateMutability": "nonpayable",
      "type": "function"
    },
    {
      "inputs": [
        {
          "internalType": "uint256",
          "name": "_categoryId",
          "type": "uint256"
        },
        {
          "internalType": "uint256",
          "name": "_eventId",
          "type": "uint256"
        },
        {
          "internalType": "uint256",
          "name": "_candidateId",
          "type": "uint256"
        }
      ],
      "name": "getCandidateById",
      "outputs": [
        {
          "components": [
            {
              "internalType": "uint256",
              "name": "id",
              "type": "uint256"
            },
            {
              "internalType": "string",
              "name": "name",
              "type": "string"
            },
            {
              "internalType": "string",
              "name": "description",
              "type": "string"
            },
            {
              "internalType": "uint256",
              "name": "studentId",
              "type": "uint256"
            },
            {
              "internalType": "uint256",
              "name": "categoryId",
              "type": "uint256"
            },
            {
              "internalType": "uint256",
              "name": "eventId",
              "type": "uint256"
            },
            {
              "internalType": "uint256",
              "name": "voteCount",
              "type": "uint256"
            },
            {
              "internalType": "bool",
              "name": "win",
              "type": "bool"
            },
            {
              "internalType": "string",
              "name": "imageFileName",
              "type": "string"
            }
          ],
          "internalType": "struct VotingSystem.Candidate",
          "name": "",
          "type": "tuple"
        }
      ],
      "stateMutability": "view",
      "type": "function"
    },
    {
      "inputs": [
        {
          "internalType": "uint256",
          "name": "_categoryId",
          "type": "uint256"
        },
        {
          "internalType": "uint256",
          "name": "_eventId",
          "type": "uint256"
        },
        {
          "internalType": "uint256",
          "name": "_studentId",
          "type": "uint256"
        }
      ],
      "name": "isCandidateExistsInEvent",
      "outputs": [
        {
          "internalType": "bool",
          "name": "",
          "type": "bool"
        }
      ],
      "stateMutability": "view",
      "type": "function"
    },
    {
      "inputs": [
        {
          "internalType": "uint256",
          "name": "_categoryId",
          "type": "uint256"
        },
        {
          "internalType": "uint256",
          "name": "_eventId",
          "type": "uint256"
        }
      ],
      "name": "getAllCandidatesInEvent",
      "outputs": [
        {
          "components": [
            {
              "internalType": "uint256",
              "name": "id",
              "type": "uint256"
            },
            {
              "internalType": "string",
              "name": "name",
              "type": "string"
            },
            {
              "internalType": "string",
              "name": "description",
              "type": "string"
            },
            {
              "internalType": "uint256",
              "name": "studentId",
              "type": "uint256"
            },
            {
              "internalType": "uint256",
              "name": "categoryId",
              "type": "uint256"
            },
            {
              "internalType": "uint256",
              "name": "eventId",
              "type": "uint256"
            },
            {
              "internalType": "uint256",
              "name": "voteCount",
              "type": "uint256"
            },
            {
              "internalType": "bool",
              "name": "win",
              "type": "bool"
            },
            {
              "internalType": "string",
              "name": "imageFileName",
              "type": "string"
            }
          ],
          "internalType": "struct VotingSystem.Candidate[]",
          "name": "foundCandidates",
          "type": "tuple[]"
        }
      ],
      "stateMutability": "view",
      "type": "function"
    },
    {
      "inputs": [],
      "name": "getAllCandidates",
      "outputs": [
        {
          "components": [
            {
              "internalType": "uint256",
              "name": "id",
              "type": "uint256"
            },
            {
              "internalType": "string",
              "name": "name",
              "type": "string"
            },
            {
              "internalType": "string",
              "name": "description",
              "type": "string"
            },
            {
              "internalType": "uint256",
              "name": "studentId",
              "type": "uint256"
            },
            {
              "internalType": "uint256",
              "name": "categoryId",
              "type": "uint256"
            },
            {
              "internalType": "uint256",
              "name": "eventId",
              "type": "uint256"
            },
            {
              "internalType": "uint256",
              "name": "voteCount",
              "type": "uint256"
            },
            {
              "internalType": "bool",
              "name": "win",
              "type": "bool"
            },
            {
              "internalType": "string",
              "name": "imageFileName",
              "type": "string"
            }
          ],
          "internalType": "struct VotingSystem.Candidate[]",
          "name": "",
          "type": "tuple[]"
        }
      ],
      "stateMutability": "view",
      "type": "function"
    },
    {
      "inputs": [
        {
          "internalType": "string",
          "name": "_voterKey",
          "type": "string"
        },
        {
          "internalType": "uint256",
          "name": "_candidateId",
          "type": "uint256"
        },
        {
          "internalType": "uint256",
          "name": "_categoryId",
          "type": "uint256"
        },
        {
          "internalType": "uint256",
          "name": "_eventId",
          "type": "uint256"
        }
      ],
      "name": "vote",
      "outputs": [],
      "stateMutability": "nonpayable",
      "type": "function"
    },
    {
      "inputs": [],
      "name": "getAllVotedHistory",
      "outputs": [
        {
          "components": [
            {
              "internalType": "uint256",
              "name": "id",
              "type": "uint256"
            },
            {
              "internalType": "string",
              "name": "voterKey",
              "type": "string"
            },
            {
              "internalType": "uint256",
              "name": "categoryId",
              "type": "uint256"
            },
            {
              "internalType": "uint256",
              "name": "eventId",
              "type": "uint256"
            },
            {
              "internalType": "uint256",
              "name": "votedCandidateId",
              "type": "uint256"
            },
            {
              "internalType": "bool",
              "name": "voted",
              "type": "bool"
            }
          ],
          "internalType": "struct VotingSystem.voteEventStruct[]",
          "name": "",
          "type": "tuple[]"
        }
      ],
      "stateMutability": "view",
      "type": "function"
    },
    {
      "inputs": [
        {
          "internalType": "uint256",
          "name": "_categoryId",
          "type": "uint256"
        },
        {
          "internalType": "uint256",
          "name": "_eventId",
          "type": "uint256"
        }
      ],
      "name": "markWinner",
      "outputs": [],
      "stateMutability": "nonpayable",
      "type": "function"
    }
  ],
  "bytecode": "0x60806040523480156200001157600080fd5b50600080546001600160a01b03191633178155604080516020808201835283825282518084018452601481527f737570657261646d696e40676d61696c2e636f6d0000000000000000000000008183015283518085018552600e81526d537570657241646d696e2131323360901b818401528451808601865260018152605360f81b818501528551938401909552948252620000b29492939092916200015f565b620001596040518060400160405280600b81526020016a30b1bb3d3c31b3b0b9b23360a91b8152506040518060400160405280600f81526020016e766f74657240676d61696c2e636f6d60881b81525060405180604001604052806008815260200167105898d7cc4c8ccd60c21b815250604051806040016040528060018152602001605560f81b815250604051806020016040528060008152506200015f60201b60201c565b62000467565b6001600b600082825462000174919062000255565b90915550506040516000906200018f908590602001620002a3565b60408051601f198184030181529181528151602092830120600b54600081815260059094529190922090815590915060018101620001ce888262000366565b5060028101620001df878262000366565b506003810182905560048101620001f7858262000366565b5060006005820155600681016200020f848262000366565b50600b547f56729c826fe77eec184059336ced13d9ef79d10126212c90a4d2b724391e14e28860405162000244919062000432565b60405180910390a250505050505050565b808201808211156200027757634e487b7160e01b600052601160045260246000fd5b92915050565b60005b838110156200029a57818101518382015260200162000280565b50506000910152565b60008251620002b78184602087016200027d565b9190910192915050565b634e487b7160e01b600052604160045260246000fd5b600181811c90821680620002ec57607f821691505b6020821081036200030d57634e487b7160e01b600052602260045260246000fd5b50919050565b601f8211156200036157600081815260208120601f850160051c810160208610156200033c5750805b601f850160051c820191505b818110156200035d5782815560010162000348565b5050505b505050565b81516001600160401b03811115620003825762000382620002c1565b6200039a81620003938454620002d7565b8462000313565b602080601f831160018114620003d25760008415620003b95750858301515b600019600386901b1c1916600185901b1785556200035d565b600085815260208120601f198616915b828110156200040357888601518255948401946001909101908401620003e2565b5085821015620004225787850151600019600388901b60f8161c191681555b5050505050600190811b01905550565b6020815260008251806020840152620004538160408501602087016200027d565b601f01601f19169190910160400192915050565b615fc080620004776000396000f3fe608060405234801561001057600080fd5b50600436106102115760003560e01c80638669537d11610125578063ceca737f116100ad578063dfdffaf41161007c578063dfdffaf414610503578063f29565ed14610516578063f44f4e1414610529578063f731d0e91461053e578063fdf9c14a1461055157600080fd5b8063ceca737f146104a4578063d0337914146104b7578063d8478604146104ca578063da58c7d9146104dd57600080fd5b8063909f8502116100f4578063909f8502146104265780639974dc2014610446578063a1a025641461046b578063c0d75cdd1461047e578063cb9b1ba11461049157600080fd5b80638669537d146103b15780638801b5b6146103c65780638da5cb5b146103e65780638f2c28051461041157600080fd5b8063531f142b116101a857806361e8486e1161017757806361e8486e14610333578063642d20ad146103535780637630498414610378578063776a657b1461038b57806378697e5b1461039e57600080fd5b8063531f142b146102cd5780635a8ffc79146102e05780635b4d727c1461030057806360e93f3c1461031357600080fd5b8063401a52dd116101e4578063401a52dd14610271578063448a144f146102845780634fb4325014610297578063514fc62a146102ba57600080fd5b80631002cdd4146102165780632e0dcbf7146102345780632e6997fe146102495780634009074f1461025e575b600080fd5b61021e610564565b60405161022b919061500a565b60405180910390f35b61024761024236600461514a565b610a54565b005b610251610ad8565b60405161022b9190615186565b61024761026c3660046151db565b610c5a565b61021e61027f366004615289565b610e70565b6102476102923660046152a2565b61130b565b6102aa6102a5366004615305565b611383565b604051901515815260200161022b565b6102aa6102c836600461514a565b611460565b6102476102db3660046154a9565b6114c6565b6102f36102ee366004615289565b61164a565b60405161022b919061559e565b61025161030e366004615305565b61173e565b610326610321366004615289565b611ada565b60405161022b9190615642565b610346610341366004615655565b611fe4565b60405161022b9190615681565b610366610361366004615289565b612308565b60405161022b96959493929190615694565b6102476103863660046156d4565b6123c9565b610247610399366004615777565b61261c565b6102476103ac3660046157ca565b6128dc565b6103b96128f8565b60405161022b9190615806565b6103d96103d43660046152a2565b612ab9565b60405161022b9190615930565b6000546103f9906001600160a01b031681565b6040516001600160a01b03909116815260200161022b565b610419612e95565b60405161022b9190615943565b610439610434366004615305565b613432565b60405161022b9190615998565b610247610454366004615305565b600091825260056020819052604090922090910155565b6102aa61047936600461514a565b613894565b61024761048c366004615305565b61398b565b61024761049f3660046159ab565b613b95565b6102476104b2366004615289565b613c27565b6102476104c5366004615655565b613c63565b6102476104d8366004615305565b613ecd565b6104f06104eb366004615289565b6140bd565b60405161022b9796959493929190615a29565b6102aa610511366004615655565b614318565b6102476105243660046152a2565b6143d6565b6105316144c5565b60405161022b9190615a96565b61024761054c366004615aeb565b614826565b61024761055f366004615bbc565b61490e565b606060006009546001600160401b038111156105825761058261506c565b6040519080825280602002602001820160405280156105bb57816020015b6105a8614b67565b8152602001906001900390816105a05790505b5090506000805b600754811015610a4c5760005b600160006105dd8483615c5a565b8152602081019190915260400160002060020154811015610a3957600160006106068483615c5a565b8152602001908152602001600020600201818154811061062857610628615c6d565b9060005260206000209060090201604051806101200160405290816000820154815260200160018201805461065c90615c83565b80601f016020809104026020016040519081016040528092919081815260200182805461068890615c83565b80156106d55780601f106106aa576101008083540402835291602001916106d5565b820191906000526020600020905b8154815290600101906020018083116106b857829003601f168201915b505050505081526020016002820154815260200160038201805480602002602001604051908101604052809291908181526020016000905b8282101561093b5783829060005260206000209060090201604051806101200160405290816000820154815260200160018201805461074b90615c83565b80601f016020809104026020016040519081016040528092919081815260200182805461077790615c83565b80156107c45780601f10610799576101008083540402835291602001916107c4565b820191906000526020600020905b8154815290600101906020018083116107a757829003601f168201915b505050505081526020016002820180546107dd90615c83565b80601f016020809104026020016040519081016040528092919081815260200182805461080990615c83565b80156108565780601f1061082b57610100808354040283529160200191610856565b820191906000526020600020905b81548152906001019060200180831161083957829003601f168201915b505050918352505060038201546020820152600482015460408201526005820154606082015260068201546080820152600782015460ff16151560a082015260088201805460c0909201916108aa90615c83565b80601f01602080910402602001604051908101604052809291908181526020018280546108d690615c83565b80156109235780601f106108f857610100808354040283529160200191610923565b820191906000526020600020905b81548152906001019060200180831161090657829003601f168201915b5050505050815250508152602001906001019061070d565b5050505081526020016004820154815260200160058201548152602001600682015481526020016007820154815260200160088201805461097b90615c83565b80601f01602080910402602001604051908101604052809291908181526020018280546109a790615c83565b80156109f45780601f106109c9576101008083540402835291602001916109f4565b820191906000526020600020905b8154815290600101906020018083116109d757829003601f168201915b505050505081525050848481518110610a0f57610a0f615c6d565b6020908102919091010152610a25600184615c5a565b925080610a3181615cb7565b9150506105cf565b5080610a4481615cb7565b9150506105c2565b509092915050565b600160076000828254610a679190615c5a565b90915550506007546000908152600160208190526040909120908101610a8d8382615d1e565b5060078054825560016003830155546040517f5bae3f75753ef0a1c0ea0f6c51d7b43a4b8d116572b8b7b5cb771f9ad32d4ae590610acc90859061559e565b60405180910390a25050565b606060006008546001600160401b03811115610af657610af661506c565b604051908082528060200260200182016040528015610b2f57816020015b610b1c614bb3565b815260200190600190039081610b145790505b50905060006009546001600160401b03811115610b4e57610b4e61506c565b604051908082528060200260200182016040528015610b8757816020015b610b74614b67565b815260200190600190039081610b6c5790505b509050610b92610564565b90506000805b600954811015610c515760005b838281518110610bb757610bb7615c6d565b60200260200101516060015151811015610c3e57838281518110610bdd57610bdd615c6d565b6020026020010151606001518181518110610bfa57610bfa615c6d565b6020026020010151858481518110610c1457610c14615c6d565b6020908102919091010152610c2a600184615c5a565b925080610c3681615cb7565b915050610ba5565b5080610c4981615cb7565b915050610b98565b50919392505050565b60005b600084815260016020526040902060020154811015610e65576000848152600160205260409020600201805484919083908110610c9c57610c9c615c6d565b90600052602060002090600902016000015403610e53576000848152600160205260408120600201805483908110610cd657610cd6615c6d565b9060005260206000209060090201905060005b6003820154811015610e505789826003018281548110610d0b57610d0b615c6d565b90600052602060002090600902016000015403610e3e576000826003018281548110610d3957610d39615c6d565b9060005260206000209060090201905089816001019081610d5a9190615d1e565b5060028101610d698a82615d1e565b5060038101889055845115801590610d9f575084516020860120604051610d94906008840190615e50565b604051809103902014155b15610e35576000816008018054610db590615c83565b90501115610df3576000600682600801604051610dd29190615e50565b908152604051908190036020019020805491151560ff199092169190911790555b60088101610e018682615d1e565b506001600686604051610e149190615e5c565b908152604051908190036020019020805491151560ff199092169190911790555b50505050610e67565b80610e4881615cb7565b915050610ce9565b50505b80610e5d81615cb7565b915050610c5d565b505b50505050505050565b60008181526001602052604081206002810154606092906001600160401b03811115610e9e57610e9e61506c565b604051908082528060200260200182016040528015610ed757816020015b610ec4614b67565b815260200190600190039081610ebc5790505b50905060005b600283015481101561130357826002018181548110610efe57610efe615c6d565b90600052602060002090600902016040518061012001604052908160008201548152602001600182018054610f3290615c83565b80601f0160208091040260200160405190810160405280929190818152602001828054610f5e90615c83565b8015610fab5780601f10610f8057610100808354040283529160200191610fab565b820191906000526020600020905b815481529060010190602001808311610f8e57829003601f168201915b505050505081526020016002820154815260200160038201805480602002602001604051908101604052809291908181526020016000905b828210156112115783829060005260206000209060090201604051806101200160405290816000820154815260200160018201805461102190615c83565b80601f016020809104026020016040519081016040528092919081815260200182805461104d90615c83565b801561109a5780601f1061106f5761010080835404028352916020019161109a565b820191906000526020600020905b81548152906001019060200180831161107d57829003601f168201915b505050505081526020016002820180546110b390615c83565b80601f01602080910402602001604051908101604052809291908181526020018280546110df90615c83565b801561112c5780601f106111015761010080835404028352916020019161112c565b820191906000526020600020905b81548152906001019060200180831161110f57829003601f168201915b505050918352505060038201546020820152600482015460408201526005820154606082015260068201546080820152600782015460ff16151560a082015260088201805460c09092019161118090615c83565b80601f01602080910402602001604051908101604052809291908181526020018280546111ac90615c83565b80156111f95780601f106111ce576101008083540402835291602001916111f9565b820191906000526020600020905b8154815290600101906020018083116111dc57829003601f168201915b50505050508152505081526020019060010190610fe3565b5050505081526020016004820154815260200160058201548152602001600682015481526020016007820154815260200160088201805461125190615c83565b80601f016020809104026020016040519081016040528092919081815260200182805461127d90615c83565b80156112ca5780601f1061129f576101008083540402835291602001916112ca565b820191906000526020600020905b8154815290600101906020018083116112ad57829003601f168201915b5050505050815250508282815181106112e5576112e5615c6d565b602002602001018190525080806112fb90615cb7565b915050610edd565b509392505050565b60015b600b54811161137e576000818152600560205260409081902090516113369160020190615e50565b604051809103902083805190602001200361136c5760008181526005602052604090206006016113668382615d1e565b50505050565b8061137681615cb7565b91505061130e565b505050565b60008281526001602052604081205481036113df5760405162461bcd60e51b815260206004820152601760248201527610d85d1959dbdc9e48191bd95cc81b9bdd08195e1a5cdd604a1b60448201526064015b60405180910390fd5b60005b60008481526001602052604090206002015481101561145457600084815260016020526040902060020180548491908390811061142157611421615c6d565b9060005260206000209060090201600001540361144257600191505061145a565b8061144c81615cb7565b9150506113e2565b50600090505b92915050565b600060015b600b5481116114bd5760008181526005602052604090819020905161148d9160010190615e50565b60405180910390208380519060200120036114ab5750600192915050565b806114b581615cb7565b915050611465565b50600092915050565b604080820151600090815260016020529081205490036115235760405162461bcd60e51b815260206004820152601860248201527743617465676f727920646f6573206e6f742065786973747360401b60448201526064016113d6565b61153581604001518260000151611383565b6115795760405162461bcd60e51b81526020600482015260156024820152744576656e7420646f6573206e6f742065786973742160581b60448201526064016113d6565b60005b60408083015160009081526001602052206002015481101561164657815160408084015160009081526001602052206002018054839081106115c0576115c0615c6d565b9060005260206000209060090201600001540361163457604080830151600090815260016020529081206002018054839081106115ff576115ff615c6d565b9060005260206000209060090201905082602001518160010190816116249190615d1e565b5060e08301516007909101555050565b8061163e81615cb7565b91505061157c565b5050565b606060008211801561165e5750600b548211155b61169d5760405162461bcd60e51b815260206004820152601060248201526f125b9d985b1a59081d9bdd195c88125160821b60448201526064016113d6565b600082815260056020526040902060020180546116b990615c83565b80601f01602080910402602001604051908101604052809291908181526020018280546116e590615c83565b80156117325780601f1061170757610100808354040283529160200191611732565b820191906000526020600020905b81548152906001019060200180831161171557829003601f168201915b50505050509050919050565b60008281526001602052604081206060915b6002820154811015611ad2578382600201828154811061177257611772615c6d565b90600052602060002090600902016000015403611ac05760008260020182815481106117a0576117a0615c6d565b9060005260206000209060090201600401546001600160401b038111156117c9576117c961506c565b60405190808252806020026020018201604052801561180257816020015b6117ef614bb3565b8152602001906001900390816117e75790505b50905060005b83600201838154811061181d5761181d615c6d565b906000526020600020906009020160030180549050811015611ab55783600201838154811061184e5761184e615c6d565b9060005260206000209060090201600301818154811061187057611870615c6d565b906000526020600020906009020160405180610120016040529081600082015481526020016001820180546118a490615c83565b80601f01602080910402602001604051908101604052809291908181526020018280546118d090615c83565b801561191d5780601f106118f25761010080835404028352916020019161191d565b820191906000526020600020905b81548152906001019060200180831161190057829003601f168201915b5050505050815260200160028201805461193690615c83565b80601f016020809104026020016040519081016040528092919081815260200182805461196290615c83565b80156119af5780601f10611984576101008083540402835291602001916119af565b820191906000526020600020905b81548152906001019060200180831161199257829003601f168201915b505050918352505060038201546020820152600482015460408201526005820154606082015260068201546080820152600782015460ff16151560a082015260088201805460c090920191611a0390615c83565b80601f0160208091040260200160405190810160405280929190818152602001828054611a2f90615c83565b8015611a7c5780601f10611a5157610100808354040283529160200191611a7c565b820191906000526020600020905b815481529060010190602001808311611a5f57829003601f168201915b505050505081525050828281518110611a9757611a97615c6d565b60200260200101819052508080611aad90615cb7565b915050611808565b50925061145a915050565b80611aca81615cb7565b915050611750565b505092915050565b611b056040518060800160405280600081526020016060815260200160608152602001600081525090565b60008281526001602081815260409283902083516080810190945280548452918201805491840191611b3690615c83565b80601f0160208091040260200160405190810160405280929190818152602001828054611b6290615c83565b8015611baf5780601f10611b8457610100808354040283529160200191611baf565b820191906000526020600020905b815481529060010190602001808311611b9257829003601f168201915b5050505050815260200160028201805480602002602001604051908101604052809291908181526020016000905b82821015611fcb57838290600052602060002090600902016040518061012001604052908160008201548152602001600182018054611c1b90615c83565b80601f0160208091040260200160405190810160405280929190818152602001828054611c4790615c83565b8015611c945780601f10611c6957610100808354040283529160200191611c94565b820191906000526020600020905b815481529060010190602001808311611c7757829003601f168201915b505050505081526020016002820154815260200160038201805480602002602001604051908101604052809291908181526020016000905b82821015611efa57838290600052602060002090600902016040518061012001604052908160008201548152602001600182018054611d0a90615c83565b80601f0160208091040260200160405190810160405280929190818152602001828054611d3690615c83565b8015611d835780601f10611d5857610100808354040283529160200191611d83565b820191906000526020600020905b815481529060010190602001808311611d6657829003601f168201915b50505050508152602001600282018054611d9c90615c83565b80601f0160208091040260200160405190810160405280929190818152602001828054611dc890615c83565b8015611e155780601f10611dea57610100808354040283529160200191611e15565b820191906000526020600020905b815481529060010190602001808311611df857829003601f168201915b505050918352505060038201546020820152600482015460408201526005820154606082015260068201546080820152600782015460ff16151560a082015260088201805460c090920191611e6990615c83565b80601f0160208091040260200160405190810160405280929190818152602001828054611e9590615c83565b8015611ee25780601f10611eb757610100808354040283529160200191611ee2565b820191906000526020600020905b815481529060010190602001808311611ec557829003601f168201915b50505050508152505081526020019060010190611ccc565b50505050815260200160048201548152602001600582015481526020016006820154815260200160078201548152602001600882018054611f3a90615c83565b80601f0160208091040260200160405190810160405280929190818152602001828054611f6690615c83565b8015611fb35780601f10611f8857610100808354040283529160200191611fb3565b820191906000526020600020905b815481529060010190602001808311611f9657829003601f168201915b50505050508152505081526020019060010190611bdd565b5050505081526020016003820154815250509050919050565b611fec614bb3565b600084815260016020526040812090612003614bb3565b60005b60028401548110156122fb578684600201828154811061202857612028615c6d565b906000526020600020906009020160000154036122e95783600201818154811061205457612054615c6d565b9060005260206000209060090201925060005b60038401548110156122e3578684600301828154811061208957612089615c6d565b906000526020600020906009020160000154036122d1578360030181815481106120b5576120b5615c6d565b906000526020600020906009020160405180610120016040529081600082015481526020016001820180546120e990615c83565b80601f016020809104026020016040519081016040528092919081815260200182805461211590615c83565b80156121625780601f1061213757610100808354040283529160200191612162565b820191906000526020600020905b81548152906001019060200180831161214557829003601f168201915b5050505050815260200160028201805461217b90615c83565b80601f01602080910402602001604051908101604052809291908181526020018280546121a790615c83565b80156121f45780601f106121c9576101008083540402835291602001916121f4565b820191906000526020600020905b8154815290600101906020018083116121d757829003601f168201915b505050918352505060038201546020820152600482015460408201526005820154606082015260068201546080820152600782015460ff16151560a082015260088201805460c09092019161224890615c83565b80601f016020809104026020016040519081016040528092919081815260200182805461227490615c83565b80156122c15780601f10612296576101008083540402835291602001916122c1565b820191906000526020600020905b8154815290600101906020018083116122a457829003601f168201915b50505050508152505092506122e3565b806122db81615cb7565b915050612067565b506122fb565b806122f381615cb7565b915050612006565b50925050505b9392505050565b6004602052600090815260409020805460018201805491929161232a90615c83565b80601f016020809104026020016040519081016040528092919081815260200182805461235690615c83565b80156123a35780601f10612378576101008083540402835291602001916123a3565b820191906000526020600020905b81548152906001019060200180831161238657829003601f168201915b505050506002830154600384015460048501546005909501549394919390925060ff1686565b6123d4868684614318565b156124215760405162461bcd60e51b815260206004820152601960248201527f43616e6469646174657320616c7265616479206578697374730000000000000060448201526064016113d6565b6001600860008282546124349190615c5a565b9091555050604080516101208101825260085481526020808201879052818301869052606082018590526080820189905260a08201889052600060c0830181905260e083018190526101008301859052898152600190915291822090915b60028201548110156125df57878260020182815481106124b4576124b4615c6d565b906000526020600020906009020160000154036125cd578160020181815481106124e0576124e0615c6d565b60009182526020808320600992830201600301805460018082018355918552938290208751949093029092019283558501518592918201906125229082615d1e565b50604082015160028201906125379082615d1e565b50606082015160038201556080820151600482015560a0820151600582015560c0820151600682015560e082015160078201805460ff1916911515919091179055610100820151600882019061258d9082615d1e565b50505060018260020182815481106125a7576125a7615c6d565b906000526020600020906009020160040160008282546125c79190615c5a565b90915550505b806125d781615cb7565b915050612492565b5060016006846040516125f29190615e5c565b908152604051908190036020019020805491151560ff199092169190911790555050505050505050565b60008281526001602052604081205490036126745760405162461bcd60e51b815260206004820152601860248201527743617465676f727920646f6573206e6f742065786973747360401b60448201526064016113d6565b6009546000036126be5760405162461bcd60e51b81526020600482015260156024820152744576656e7420646f6573206e6f742065786973747360581b60448201526064016113d6565b60015b600a5481116127a4576000818152600460205260409081902090516126e99160010190615e50565b60405180910390208580519060200120148015612716575060008181526004602052604090206002015483145b8015612732575060008181526004602052604090206003015482145b156127925760008181526004602052604090206005015460ff161561278d5760405162461bcd60e51b8152602060048201526011602482015270165bdd48185b1c9958591e481d9bdd1959607a1b60448201526064016113d6565b6127a4565b8061279c81615cb7565b9150506126c1565b506001600a60008282546127b89190615c5a565b90915550506040805160c081018252600a5480825260208083018881528385018790526060840186905260808401889052600160a0850181905260009384526004909252939091208251815592519192839290918201906128199082615d1e565b5060408201516002820155606082015160038201556080820151600482015560a0909101516005909101805460ff191691151591909117905561285d8383866149df565b604080516020810185905280820184905281518082038301815260609091019182905290859061288e908390615e5c565b6040518091039020876040516128a49190615e5c565b604051908190038120907f336badd820d33e68eff2381e343928896ff7147adf09b298939d0a7b001f072e90600090a4505050505050565b60008281526001602081905260409091200161137e8282615d1e565b60606000600a546001600160401b038111156129165761291661506c565b60405190808252806020026020018201604052801561298257816020015b61296f6040518060c0016040528060008152602001606081526020016000815260200160008152602001600081526020016000151581525090565b8152602001906001900390816129345790505b50905060015b600a548111612ab357600460008281526020019081526020016000206040518060c0016040529081600082015481526020016001820180546129c990615c83565b80601f01602080910402602001604051908101604052809291908181526020018280546129f590615c83565b8015612a425780601f10612a1757610100808354040283529160200191612a42565b820191906000526020600020905b815481529060010190602001808311612a2557829003601f168201915b505050918352505060028201546020820152600382015460408201526004820154606082015260059091015460ff16151560809091015282612a85600184615e78565b81518110612a9557612a95615c6d565b60200260200101819052508080612aab90615cb7565b915050612988565b50919050565b612afc6040518060e00160405280600081526020016060815260200160608152602001600080191681526020016060815260200160008152602001606081525090565b600082604051602001612b0f9190615e5c565b60408051601f198184030181529190528051602090910120905060015b600b548111612e2d57600081815260056020526040908190209051612b549160020190615e50565b60405180910390208580519060200120148015612b895750600081815260056020526040902060030154612b89908390614aef565b15612e1b57600560008281526020019081526020016000206040518060e001604052908160008201548152602001600182018054612bc690615c83565b80601f0160208091040260200160405190810160405280929190818152602001828054612bf290615c83565b8015612c3f5780601f10612c1457610100808354040283529160200191612c3f565b820191906000526020600020905b815481529060010190602001808311612c2257829003601f168201915b50505050508152602001600282018054612c5890615c83565b80601f0160208091040260200160405190810160405280929190818152602001828054612c8490615c83565b8015612cd15780601f10612ca657610100808354040283529160200191612cd1565b820191906000526020600020905b815481529060010190602001808311612cb457829003601f168201915b5050505050815260200160038201548152602001600482018054612cf490615c83565b80601f0160208091040260200160405190810160405280929190818152602001828054612d2090615c83565b8015612d6d5780601f10612d4257610100808354040283529160200191612d6d565b820191906000526020600020905b815481529060010190602001808311612d5057829003601f168201915b5050505050815260200160058201548152602001600682018054612d9090615c83565b80601f0160208091040260200160405190810160405280929190818152602001828054612dbc90615c83565b8015612e095780601f10612dde57610100808354040283529160200191612e09565b820191906000526020600020905b815481529060010190602001808311612dec57829003601f168201915b5050505050815250509250505061145a565b80612e2581615cb7565b915050612b2c565b50506040805160e08101825260008082528251602080820185528282528084019190915283518082018552828152838501526060830182905283518082018552828152608084015260a083018290528351908101909352825260c08101919091529392505050565b606060006007546001600160401b03811115612eb357612eb361506c565b604051908082528060200260200182016040528015612f0f57816020015b612efc6040518060800160405280600081526020016060815260200160608152602001600081525090565b815260200190600190039081612ed15790505b50905060015b6007548111612ab35760008181526001602081815260409283902083516080810190945280548452918201805491840191612f4f90615c83565b80601f0160208091040260200160405190810160405280929190818152602001828054612f7b90615c83565b8015612fc85780601f10612f9d57610100808354040283529160200191612fc8565b820191906000526020600020905b815481529060010190602001808311612fab57829003601f168201915b5050505050815260200160028201805480602002602001604051908101604052809291908181526020016000905b828210156133e45783829060005260206000209060090201604051806101200160405290816000820154815260200160018201805461303490615c83565b80601f016020809104026020016040519081016040528092919081815260200182805461306090615c83565b80156130ad5780601f10613082576101008083540402835291602001916130ad565b820191906000526020600020905b81548152906001019060200180831161309057829003601f168201915b505050505081526020016002820154815260200160038201805480602002602001604051908101604052809291908181526020016000905b828210156133135783829060005260206000209060090201604051806101200160405290816000820154815260200160018201805461312390615c83565b80601f016020809104026020016040519081016040528092919081815260200182805461314f90615c83565b801561319c5780601f106131715761010080835404028352916020019161319c565b820191906000526020600020905b81548152906001019060200180831161317f57829003601f168201915b505050505081526020016002820180546131b590615c83565b80601f01602080910402602001604051908101604052809291908181526020018280546131e190615c83565b801561322e5780601f106132035761010080835404028352916020019161322e565b820191906000526020600020905b81548152906001019060200180831161321157829003601f168201915b505050918352505060038201546020820152600482015460408201526005820154606082015260068201546080820152600782015460ff16151560a082015260088201805460c09092019161328290615c83565b80601f01602080910402602001604051908101604052809291908181526020018280546132ae90615c83565b80156132fb5780601f106132d0576101008083540402835291602001916132fb565b820191906000526020600020905b8154815290600101906020018083116132de57829003601f168201915b505050505081525050815260200190600101906130e5565b5050505081526020016004820154815260200160058201548152602001600682015481526020016007820154815260200160088201805461335390615c83565b80601f016020809104026020016040519081016040528092919081815260200182805461337f90615c83565b80156133cc5780601f106133a1576101008083540402835291602001916133cc565b820191906000526020600020905b8154815290600101906020018083116133af57829003601f168201915b50505050508152505081526020019060010190612ff6565b505050508152602001600382015481525050826001836134049190615e78565b8151811061341457613414615c6d565b6020026020010181905250808061342a90615cb7565b915050612f15565b61343a614b67565b6000838152600160205260409020613450614b67565b60005b600283015481101561388b578483600201828154811061347557613475615c6d565b90600052602060002090600902016000015403613879578260020181815481106134a1576134a1615c6d565b906000526020600020906009020160405180610120016040529081600082015481526020016001820180546134d590615c83565b80601f016020809104026020016040519081016040528092919081815260200182805461350190615c83565b801561354e5780601f106135235761010080835404028352916020019161354e565b820191906000526020600020905b81548152906001019060200180831161353157829003601f168201915b505050505081526020016002820154815260200160038201805480602002602001604051908101604052809291908181526020016000905b828210156137b4578382906000526020600020906009020160405180610120016040529081600082015481526020016001820180546135c490615c83565b80601f01602080910402602001604051908101604052809291908181526020018280546135f090615c83565b801561363d5780601f106136125761010080835404028352916020019161363d565b820191906000526020600020905b81548152906001019060200180831161362057829003601f168201915b5050505050815260200160028201805461365690615c83565b80601f016020809104026020016040519081016040528092919081815260200182805461368290615c83565b80156136cf5780601f106136a4576101008083540402835291602001916136cf565b820191906000526020600020905b8154815290600101906020018083116136b257829003601f168201915b505050918352505060038201546020820152600482015460408201526005820154606082015260068201546080820152600782015460ff16151560a082015260088201805460c09092019161372390615c83565b80601f016020809104026020016040519081016040528092919081815260200182805461374f90615c83565b801561379c5780601f106137715761010080835404028352916020019161379c565b820191906000526020600020905b81548152906001019060200180831161377f57829003601f168201915b50505050508152505081526020019060010190613586565b505050508152602001600482015481526020016005820154815260200160068201548152602001600782015481526020016008820180546137f490615c83565b80601f016020809104026020016040519081016040528092919081815260200182805461382090615c83565b801561386d5780601f106138425761010080835404028352916020019161386d565b820191906000526020600020905b81548152906001019060200180831161385057829003601f168201915b50505050508152505091505b8061388381615cb7565b915050613453565b50949350505050565b6001600090815260056020527f1471eb6eb2c5e789fc3de43f8ce62938c7d1836ec861730447e2ada8fd81017b5481036139085760405162461bcd60e51b81526020600482015260156024820152744e6f20766f74657220696e20746865206c6973742160581b60448201526064016113d6565b60015b600b5481116114bd576000818152600560205260409081902090516139339160060190615e50565b6040518091039020838051906020012003613979576000818152600560208190526040822060019181019190915561397091600690910190614c01565b50600192915050565b8061398381615cb7565b91505061390b565b600082815260016020525b60008381526001602052604090206002015481101561137e5760008381526001602052604090206002018054839190839081106139d5576139d5615c6d565b90600052602060002090600902016000015403613b83576000838152600160205260408120600201805483908110613a0f57613a0f615c6d565b9060005260206000209060090201600301600081548110613a3257613a32615c6d565b9060005260206000209060090201905060005b6000858152600160208190526040909120600201805485908110613a6b57613a6b615c6d565b906000526020600020906009020160030180549050613a8a9190615e78565b811015613b73576000858152600160205260409020600201805484908110613ab457613ab4615c6d565b9060005260206000209060090201600301816001613ad29190615c5a565b81548110613ae257613ae2615c6d565b90600052602060002090600902016006015482600601541015613b61576000858152600160205260409020600201805484908110613b2257613b22615c6d565b9060005260206000209060090201600301816001613b409190615c5a565b81548110613b5057613b50615c6d565b906000526020600020906009020191505b80613b6b81615cb7565b915050613a45565b50600701805460ff191660011790555b80613b8d81615cb7565b915050613996565b6000858152600160208190526040822060098054919392918390613bba908490615c5a565b918290555060028401805460018181018355600092835260209092206009909102018281559193509091508101613bf18882615d1e565b5060088101613c008782615d1e565b50600281019790975550506001600786015560058501919091556006909301929092555050565b600081815260016020819052604082208281559190613c4890830182614c01565b613c56600283016000614c3e565b6003820160009055505050565b60005b600084815260016020526040902060020154811015611366576000848152600160205260409020600201805484919083908110613ca557613ca5615c6d565b90600052602060002090600902016000015403613ebb576000848152600160205260408120600201805483908110613cdf57613cdf615c6d565b9060005260206000209060090201905060005b6003820154811015613eb85783826003018281548110613d1457613d14615c6d565b90600052602060002090600902016000015403613ea657600482018054906000613d3d83615e8b565b9091555050600382018054613d5490600190615e78565b81548110613d6457613d64615c6d565b9060005260206000209060090201826003018281548110613d8757613d87615c6d565b600091825260209091208254600990920201908155600180820190613dae90840182615ea2565b50600281810190613dc190840182615ea2565b5060038281015490820155600480830154908201556005808301549082015560068083015490820155600780830154908201805460ff191660ff9092161515919091179055600880820190613e1890840182615ea2565b50505060038201805480613e2e57613e2e615f74565b60008281526020812060096000199093019283020181815590613e546001830182614c01565b613e62600283016000614c01565b60006003830181905560048301819055600583018190556006830181905560078301805460ff19169055613e9a906008840190614c01565b50509055505050505050565b80613eb081615cb7565b915050613cf2565b50505b80613ec581615cb7565b915050613c66565b60005b60008381526001602052604090206002015481101561137e576000838152600160205260409020600201805483919083908110613f0f57613f0f615c6d565b906000526020600020906009020160000154036140ab57600083815260016020819052604090912060020180549091613f4791615e78565b81548110613f5757613f57615c6d565b9060005260206000209060090201600160008581526020019081526020016000206002018281548110613f8c57613f8c615c6d565b600091825260209091208254600990920201908155600180820190613fb390840182615ea2565b50600282015481600201556003820181600301908054613fd4929190614c5f565b5060048201548160040155600582015481600501556006820154816006015560078201548160070155600882018160080190816140119190615ea2565b505050600083815260016020526040902060020180548061403457614034615f74565b6000828152602081206009600019909301928302018181559061405a6001830182614c01565b60028201600090556003820160006140729190614d36565b60048201600090556005820160009055600682016000905560078201600090556008820160006140a29190614c01565b50509055505050565b806140b581615cb7565b915050613ed0565b600560205260009081526040902080546001820180549192916140df90615c83565b80601f016020809104026020016040519081016040528092919081815260200182805461410b90615c83565b80156141585780601f1061412d57610100808354040283529160200191614158565b820191906000526020600020905b81548152906001019060200180831161413b57829003601f168201915b50505050509080600201805461416d90615c83565b80601f016020809104026020016040519081016040528092919081815260200182805461419990615c83565b80156141e65780601f106141bb576101008083540402835291602001916141e6565b820191906000526020600020905b8154815290600101906020018083116141c957829003601f168201915b50505050509080600301549080600401805461420190615c83565b80601f016020809104026020016040519081016040528092919081815260200182805461422d90615c83565b801561427a5780601f1061424f5761010080835404028352916020019161427a565b820191906000526020600020905b81548152906001019060200180831161425d57829003601f168201915b50505050509080600501549080600601805461429590615c83565b80601f01602080910402602001604051908101604052809291908181526020018280546142c190615c83565b801561430e5780601f106142e35761010080835404028352916020019161430e565b820191906000526020600020905b8154815290600101906020018083116142f157829003601f168201915b5050505050905087565b600083815260016020526040812054810361436f5760405162461bcd60e51b815260206004820152601760248201527610d85d1959dbdc9e48191bd95cc81b9bdd08195e1a5cdd604a1b60448201526064016113d6565b600061437b858561173e565b905060005b81518110156143ca578382828151811061439c5761439c615c6d565b602002602001015160600151036143b857600192505050612301565b806143c281615cb7565b915050614380565b50600095945050505050565b6143df82611460565b6144225760405162461bcd60e51b81526020600482015260146024820152735573657220646f6573206e6f742065786973747360601b60448201526064016113d6565b6000816040516020016144359190615e5c565b60408051601f198184030181529190528051602090910120905060015b600b5481116113665760008181526005602052604090819020905161447a9160010190615e50565b60405180910390208480519060200120036144b3576000818152600560205260408120600381018490556144b391600690910190614c01565b806144bd81615cb7565b915050614452565b60606000600b546001600160401b038111156144e3576144e361506c565b60405190808252806020026020018201604052801561455757816020015b6145446040518060e00160405280600081526020016060815260200160608152602001600080191681526020016060815260200160008152602001606081525090565b8152602001906001900390816145015790505b50905060015b600b548111612ab357600560008281526020019081526020016000206040518060e00160405290816000820154815260200160018201805461459e90615c83565b80601f01602080910402602001604051908101604052809291908181526020018280546145ca90615c83565b80156146175780601f106145ec57610100808354040283529160200191614617565b820191906000526020600020905b8154815290600101906020018083116145fa57829003601f168201915b5050505050815260200160028201805461463090615c83565b80601f016020809104026020016040519081016040528092919081815260200182805461465c90615c83565b80156146a95780601f1061467e576101008083540402835291602001916146a9565b820191906000526020600020905b81548152906001019060200180831161468c57829003601f168201915b50505050508152602001600382015481526020016004820180546146cc90615c83565b80601f01602080910402602001604051908101604052809291908181526020018280546146f890615c83565b80156147455780601f1061471a57610100808354040283529160200191614745565b820191906000526020600020905b81548152906001019060200180831161472857829003601f168201915b505050505081526020016005820154815260200160068201805461476890615c83565b80601f016020809104026020016040519081016040528092919081815260200182805461479490615c83565b80156147e15780601f106147b6576101008083540402835291602001916147e1565b820191906000526020600020905b8154815290600101906020018083116147c457829003601f168201915b505050505081525050826001836147f89190615e78565b8151811061480857614808615c6d565b6020026020010181905250808061481e90615cb7565b91505061455d565b6001600b60008282546148399190615c5a565b9091555050604051600090614852908590602001615e5c565b60408051601f198184030181529181528151602092830120600b5460008181526005909452919092209081559091506001810161488f8882615d1e565b506002810161489e8782615d1e565b5060038101829055600481016148b48582615d1e565b5060006005820155600681016148ca8482615d1e565b50600b547f56729c826fe77eec184059336ced13d9ef79d10126212c90a4d2b724391e14e2886040516148fd919061559e565b60405180910390a250505050505050565b60005b600087815260016020526040902060020154811015610e6757600087815260016020526040902060020180548791908390811061495057614950615c6d565b906000526020600020906009020160000154036149cd57600087815260016020526040812060020180548390811061498a5761498a615c6d565b90600052602060002090600902019050858160010190816149ab9190615d1e565b50600881016149ba8682615d1e565b5060058101849055600601829055610e67565b806149d781615cb7565b915050614911565b6000838152600160205260408120600201905b8154811015614ae85783828281548110614a0e57614a0e615c6d565b90600052602060002090600902016000015403614ad6576000828281548110614a3957614a39615c6d565b9060005260206000209060090201600301905060005b8154811015614ad35784828281548110614a6b57614a6b615c6d565b90600052602060002090600902016000015403614ac1576001828281548110614a9657614a96615c6d565b90600052602060002090600902016006016000828254614ab69190615c5a565b90915550614ad39050565b80614acb81615cb7565b915050614a4f565b50505b80614ae081615cb7565b9150506149f2565b5050505050565b6000805b6020811015614b5d57828160208110614b0e57614b0e615c6d565b1a60f81b6001600160f81b031916848260208110614b2e57614b2e615c6d565b1a60f81b6001600160f81b03191614614b4b57600091505061145a565b80614b5581615cb7565b915050614af3565b5060019392505050565b6040518061012001604052806000815260200160608152602001600081526020016060815260200160008152602001600081526020016000815260200160008152602001606081525090565b60405180610120016040528060008152602001606081526020016060815260200160008152602001600081526020016000815260200160008152602001600015158152602001606081525090565b508054614c0d90615c83565b6000825580601f10614c1d575050565b601f016020900490600052602060002090810190614c3b9190614d57565b50565b5080546000825560090290600052602060002090810190614c3b9190614d6c565b828054828255906000526020600020906009028101928215614d265760005260206000209160090282015b82811115614d2657825482558282600180820190614caa90840182615ea2565b50600281810190614cbd90840182615ea2565b5060038281015490820155600480830154908201556005808301549082015560068083015490820155600780830154908201805460ff191660ff9092161515919091179055600880820190614d1490840182615ea2565b50505091600901919060090190614c8a565b50614d32929150614dd7565b5090565b5080546000825560090290600052602060002090810190614c3b9190614dd7565b5b80821115614d325760008155600101614d58565b80821115614d32576000808255614d866001830182614c01565b6002820160009055600382016000614d9e9190614d36565b6004820160009055600582016000905560068201600090556007820160009055600882016000614dce9190614c01565b50600901614d6c565b80821115614d32576000808255614df16001830182614c01565b614dff600283016000614c01565b60006003830181905560048301819055600583018190556006830181905560078301805460ff19169055614e37906008840190614c01565b50600901614dd7565b60005b83811015614e5b578181015183820152602001614e43565b50506000910152565b60008151808452614e7c816020860160208601614e40565b601f01601f19169290920160200192915050565b6000610120825184526020830151816020860152614eb082860182614e64565b91505060408301518482036040860152614eca8282614e64565b915050606083015160608501526080830151608085015260a083015160a085015260c083015160c085015260e0830151614f0860e086018215159052565b506101008084015185830382870152614f218382614e64565b9695505050505050565b600082825180855260208086019550808260051b84010181860160005b84811015614f7657601f19868403018952614f64838351614e90565b98840198925090830190600101614f48565b5090979650505050505050565b6000610120825184526020830151816020860152614fa382860182614e64565b9150506040830151604085015260608301518482036060860152614fc78282614f2b565b9150506080830151608085015260a083015160a085015260c083015160c085015260e083015160e08501526101008084015185830382870152614f218382614e64565b6000602080830181845280855180835260408601915060408160051b870101925083870160005b8281101561505f57603f1988860301845261504d858351614f83565b94509285019290850190600101615031565b5092979650505050505050565b634e487b7160e01b600052604160045260246000fd5b60405161012081016001600160401b03811182821017156150a5576150a561506c565b60405290565b604051601f8201601f191681016001600160401b03811182821017156150d3576150d361506c565b604052919050565b600082601f8301126150ec57600080fd5b81356001600160401b038111156151055761510561506c565b615118601f8201601f19166020016150ab565b81815284602083860101111561512d57600080fd5b816020850160208301376000918101602001919091529392505050565b60006020828403121561515c57600080fd5b81356001600160401b0381111561517257600080fd5b61517e848285016150db565b949350505050565b6000602080830181845280855180835260408601915060408160051b870101925083870160005b8281101561505f57603f198886030184526151c9858351614e90565b945092850192908501906001016151ad565b600080600080600080600060e0888a0312156151f657600080fd5b8735965060208801356001600160401b038082111561521457600080fd5b6152208b838c016150db565b975060408a013591508082111561523657600080fd5b6152428b838c016150db565b965060608a0135955060808a0135945060a08a0135935060c08a013591508082111561526d57600080fd5b5061527a8a828b016150db565b91505092959891949750929550565b60006020828403121561529b57600080fd5b5035919050565b600080604083850312156152b557600080fd5b82356001600160401b03808211156152cc57600080fd5b6152d8868387016150db565b935060208501359150808211156152ee57600080fd5b506152fb858286016150db565b9150509250929050565b6000806040838503121561531857600080fd5b50508035926020909101359150565b8035801515811461533757600080fd5b919050565b600082601f83011261534d57600080fd5b813560206001600160401b03808311156153695761536961506c565b8260051b6153788382016150ab565b938452858101830193838101908886111561539257600080fd5b84880192505b8583101561549d578235848111156153b05760008081fd5b8801610120818b03601f19018113156153c95760008081fd5b6153d1615082565b878301358152604080840135888111156153eb5760008081fd5b6153f98e8b838801016150db565b8a84015250606080850135898111156154125760008081fd5b6154208f8c838901016150db565b83850152506080915081850135818401525060a0808501358284015260c0915081850135818401525060e080850135828401526101009150615463828601615327565b9083015291830135918783111561547a5760008081fd5b6154888d8a858701016150db565b90820152845250509184019190840190615398565b98975050505050505050565b6000602082840312156154bb57600080fd5b81356001600160401b03808211156154d257600080fd5b9083019061012082860312156154e757600080fd5b6154ef615082565b8235815260208301358281111561550557600080fd5b615511878286016150db565b6020830152506040830135604082015260608301358281111561553357600080fd5b61553f8782860161533c565b6060830152506080830135608082015260a083013560a082015260c083013560c082015260e083013560e0820152610100808401358381111561558157600080fd5b61558d888287016150db565b918301919091525095945050505050565b6020815260006123016020830184614e64565b8051825260006020808301516080828601526155d06080860182614e64565b9050604084015185820360408701528181518084528484019150848160051b850101858401935060005b8281101561562857601f19868303018452615616828651614f83565b948701949387019391506001016155fa565b50606088015160608a015280965050505050505092915050565b60208152600061230160208301846155b1565b60008060006060848603121561566a57600080fd5b505081359360208301359350604090920135919050565b6020815260006123016020830184614e90565b86815260c0602082015260006156ad60c0830188614e64565b905085604083015284606083015283608083015282151560a0830152979650505050505050565b60008060008060008060c087890312156156ed57600080fd5b863595506020870135945060408701356001600160401b038082111561571257600080fd5b61571e8a838b016150db565b9550606089013591508082111561573457600080fd5b6157408a838b016150db565b94506080890135935060a089013591508082111561575d57600080fd5b5061576a89828a016150db565b9150509295509295509295565b6000806000806080858703121561578d57600080fd5b84356001600160401b038111156157a357600080fd5b6157af878288016150db565b97602087013597506040870135966060013595509350505050565b600080604083850312156157dd57600080fd5b8235915060208301356001600160401b038111156157fa57600080fd5b6152fb858286016150db565b60006020808301818452808551808352604092508286019150828160051b87010184880160005b8381101561589957603f19898403018552815160c08151855288820151818a87015261585b82870182614e64565b838a0151878b0152606080850151908801526080808501519088015260a093840151151593909601929092525050938601939086019060010161582d565b509098975050505050505050565b805182526000602082015160e060208501526158c660e0850182614e64565b9050604083015184820360408601526158df8282614e64565b91505060608301516060850152608083015184820360808601526159038282614e64565b91505060a083015160a085015260c083015184820360c08601526159278282614e64565b95945050505050565b60208152600061230160208301846158a7565b6000602080830181845280855180835260408601915060408160051b870101925083870160005b8281101561505f57603f198886030184526159868583516155b1565b9450928501929085019060010161596a565b6020815260006123016020830184614f83565b600080600080600060a086880312156159c357600080fd5b8535945060208601356001600160401b03808211156159e157600080fd5b6159ed89838a016150db565b95506040880135915080821115615a0357600080fd5b50615a10888289016150db565b9598949750949560608101359550608001359392505050565b87815260e060208201526000615a4260e0830189614e64565b8281036040840152615a548189614e64565b90508660608401528281036080840152615a6e8187614e64565b90508460a084015282810360c0840152615a888185614e64565b9a9950505050505050505050565b6000602080830181845280855180835260408601915060408160051b870101925083870160005b8281101561505f57603f19888603018452615ad98583516158a7565b94509285019290850190600101615abd565b600080600080600060a08688031215615b0357600080fd5b85356001600160401b0380821115615b1a57600080fd5b615b2689838a016150db565b96506020880135915080821115615b3c57600080fd5b615b4889838a016150db565b95506040880135915080821115615b5e57600080fd5b615b6a89838a016150db565b94506060880135915080821115615b8057600080fd5b615b8c89838a016150db565b93506080880135915080821115615ba257600080fd5b50615baf888289016150db565b9150509295509295909350565b60008060008060008060c08789031215615bd557600080fd5b863595506020870135945060408701356001600160401b0380821115615bfa57600080fd5b615c068a838b016150db565b95506060890135915080821115615c1c57600080fd5b50615c2989828a016150db565b9350506080870135915060a087013590509295509295509295565b634e487b7160e01b600052601160045260246000fd5b8082018082111561145a5761145a615c44565b634e487b7160e01b600052603260045260246000fd5b600181811c90821680615c9757607f821691505b602082108103612ab357634e487b7160e01b600052602260045260246000fd5b600060018201615cc957615cc9615c44565b5060010190565b601f82111561137e57600081815260208120601f850160051c81016020861015615cf75750805b601f850160051c820191505b81811015615d1657828155600101615d03565b505050505050565b81516001600160401b03811115615d3757615d3761506c565b615d4b81615d458454615c83565b84615cd0565b602080601f831160018114615d805760008415615d685750858301515b600019600386901b1c1916600185901b178555615d16565b600085815260208120601f198616915b82811015615daf57888601518255948401946001909101908401615d90565b5085821015615dcd5787850151600019600388901b60f8161c191681555b5050505050600190811b01905550565b60008154615dea81615c83565b60018281168015615e025760018114615e1757615e46565b60ff1984168752821515830287019450615e46565b8560005260208060002060005b85811015615e3d5781548a820152908401908201615e24565b50505082870194505b5050505092915050565b60006123018284615ddd565b60008251615e6e818460208701614e40565b9190910192915050565b8181038181111561145a5761145a615c44565b600081615e9a57615e9a615c44565b506000190190565b818103615ead575050565b615eb78254615c83565b6001600160401b03811115615ece57615ece61506c565b615edc81615d458454615c83565b6000601f821160018114615f105760008315615ef85750848201545b600019600385901b1c1916600184901b178455614ae8565b600085815260209020601f19841690600086815260209020845b83811015615f4a5782860154825560019586019590910190602001615f2a565b5085831015615dcd5793015460001960f8600387901b161c19169092555050600190811b01905550565b634e487b7160e01b600052603160045260246000fdfea26469706673582212200fb43c2840bf4f82e8e4747abe2097829adb62a1eefe8fe35e2555097f41bdd764736f6c63430008130033",
  "immutableReferences": {},
  "source": "// SPDX-License-Identifier: MIT\r\npragma solidity >=0.4.22 <0.9.0;\r\n\r\ncontract VotingSystem {\r\n    address public owner;\r\n    struct Voter {\r\n        uint256 id;\r\n        string key;\r\n        string email;\r\n        bytes32 password;\r\n        string role;\r\n        uint256 status; // 0: no verify, 1: verified, 2:banned\r\n        string token;\r\n    }\r\n\r\n    struct Event {\r\n        uint256 eventId;\r\n        string eventName;\r\n        uint256 categoryId;\r\n        Candidate[] candidates;\r\n        uint256 candidateCount;\r\n        uint256 startDateTime;\r\n        uint256 endDateTime;\r\n        uint256 status; // 1: Upcoming, 2: In Progress, 3: Completed, 4 Cancel\r\n        string eventDesc;\r\n    }\r\n\r\n    struct Category {\r\n        uint256 categoryId;\r\n        string categoryName;\r\n        Event[] events; //category has many event\r\n        uint256 status;\r\n    }\r\n\r\n    struct Candidate {\r\n        uint256 id;\r\n        string name;\r\n        string description;\r\n        uint256 studentId;\r\n        uint256 categoryId;\r\n        uint256 eventId;\r\n        uint256 voteCount;\r\n        bool win;\r\n        string imageFileName;\r\n    }\r\n\r\n    struct voteEventStruct {\r\n        uint256 id;\r\n        string voterKey;\r\n        uint256 categoryId;\r\n        uint256 eventId;\r\n        uint256 votedCandidateId;\r\n        bool voted;\r\n    }\r\n\r\n    event CategoryAdded(uint256 indexed categoryId, string categoryName);\r\n\r\n    event VoterAdded(uint256 indexed voterId, string voter_key);\r\n    event EventAdded(uint256 indexed eventId, string eventName);\r\n\r\n    event CandidateAdded(uint256 indexed eventId, string eventName);\r\n\r\n    event VoteEvent(\r\n        string indexed _voterKey,\r\n        string indexed categoryEvent,\r\n        uint256 indexed candidate\r\n    );\r\n\r\n    mapping(uint256 => Category) categories;\r\n    mapping(uint256 => Event) events;\r\n    mapping(uint256 => Candidate) candidates;\r\n    mapping(uint256 => voteEventStruct) public voteEvents;\r\n    mapping(uint256 => Voter) public voters;\r\n    mapping(string => bool) private usedImageFileNames;\r\n\r\n    uint256 categoryCount;\r\n    uint256 candidateCount;\r\n    uint256 eventCount;\r\n    uint256 voteEventCount;\r\n    uint256 voterCount;\r\n\r\n    constructor() {\r\n        owner = msg.sender;\r\n        addVoter(\"\", \"superadmin@gmail.com\", \"SuperAdmin!123\", \"S\", \"\");\r\n        addVoter(\"acvzxcgasdf\", \"voter@gmail.com\", \"Abc_1234\", \"U\", \"\");\r\n    }\r\n\r\n    function addVoter(\r\n        string memory _key,\r\n        string memory _email,\r\n        string memory _password,\r\n        string memory _role,\r\n        string memory _token\r\n    ) public {\r\n        // total category plus 1, use it as the category's id\r\n        voterCount += 1;\r\n\r\n        bytes32 hashedPassword = keccak256(abi.encodePacked(_password));\r\n\r\n        // add the category details in the category list\r\n        Voter storage voter = voters[voterCount];\r\n        voter.id = voterCount;\r\n        voter.key = _key;\r\n        voter.email = _email;\r\n        voter.password = hashedPassword;\r\n        voter.role = _role;\r\n        voter.status = 0;\r\n        voter.token = _token;\r\n\r\n        // emit the category added event\r\n        emit VoterAdded(voterCount, _key);\r\n    }\r\n\r\n    // function loginVoter(string memory _email, string memory _password)\r\n    //     public\r\n    //     view\r\n    //     returns (Voter memory)\r\n    // {\r\n    //     Voter memory voterFound = getVoterByEmailPassword(_email, _password);\r\n    //     require(voterFound.id != 0, \"Your email or password is incorrect!\");\r\n    //     require(\r\n    //         voterFound.status == 1,\r\n    //         \"Your account was banned or not verify!\"\r\n    //     );\r\n    //     return voterFound;\r\n    // }\r\n\r\n    function compareHashesPassword(\r\n        bytes32 inputPassword,\r\n        bytes32 password\r\n    ) internal pure returns (bool) {\r\n        for (uint256 i = 0; i < 32; i++) {\r\n            if (inputPassword[i] != password[i]) {\r\n                return false;\r\n            }\r\n        }\r\n        return true;\r\n    }\r\n\r\n    function getVoterByEmailPassword(\r\n        string memory _email,\r\n        string memory _password\r\n    ) public view returns (Voter memory) {\r\n        bytes32 hashedPassword = keccak256(abi.encodePacked(_password));\r\n        for (uint256 i = 1; i <= voterCount; i++) {\r\n            if (\r\n                keccak256(bytes(_email)) == keccak256(bytes(voters[i].email)) &&\r\n                compareHashesPassword(hashedPassword, voters[i].password)\r\n            ) {\r\n                return voters[i];\r\n            }\r\n        }\r\n\r\n        // Event not found in the specified category\r\n        return Voter(0, \"\", \"\", \"\", \"\", 0, \"\");\r\n    }\r\n\r\n    function getVoterEmailById(\r\n        uint256 _voterId\r\n    ) public view returns (string memory) {\r\n        require(_voterId > 0 && _voterId <= voterCount, \"Invalid voter ID\");\r\n        return voters[_voterId].email;\r\n    }\r\n\r\n    function updateVoterPassword(\r\n        string memory _key,\r\n        string memory _password\r\n    ) public {\r\n        require(isVoterExist(_key), \"User does not exists\");\r\n\r\n        bytes32 hashedPassword = keccak256(abi.encodePacked(_password));\r\n        for (uint256 i = 1; i <= voterCount; i++) {\r\n            if (keccak256(bytes(_key)) == keccak256(bytes(voters[i].key))) {\r\n                voters[i].password = hashedPassword;\r\n                delete voters[i].token;\r\n            }\r\n        }\r\n    }\r\n\r\n    function verifyVoterAccount(string memory _token) public returns (bool) {\r\n        require(voters[1].id != 0, \"No voter in the list!\");\r\n        for (uint256 i = 1; i <= voterCount; i++) {\r\n            if (keccak256(bytes(_token)) == keccak256(bytes(voters[i].token))) {\r\n                voters[i].status = 1;\r\n                delete voters[i].token;\r\n                return true;\r\n            }\r\n        }\r\n        return false;\r\n    }\r\n\r\n    //\r\n    //     function getVoterStatus(string memory _email, string memory _password)\r\n    //         public\r\n    //         view\r\n    //         returns (uint256 status)\r\n    //     {\r\n    //         Voter memory voterFound = getVoterByEmailPassword(_email, _password);\r\n    //         require(voterFound.id != 0, \"Your email or password is incorrect!\");\r\n    //         return voterFound.status;\r\n    //     }\r\n\r\n    function isVoterExist(string memory _key) public view returns (bool) {\r\n        for (uint256 i = 1; i <= voterCount; i++) {\r\n            if (keccak256(bytes(_key)) == keccak256(bytes(voters[i].key))) {\r\n                return true;\r\n            }\r\n        }\r\n        return false;\r\n    }\r\n\r\n    function getAllVoter() public view returns (Voter[] memory) {\r\n        Voter[] memory allVoters = new Voter[](voterCount);\r\n        for (uint256 i = 1; i <= voterCount; i++) {\r\n            allVoters[i - 1] = voters[i];\r\n        }\r\n        return allVoters;\r\n    }\r\n\r\n    function editUserStatus(uint256 _id, uint256 _status) public {\r\n        // require(_id > 0 && _id <= voterCount, \"User does not exist.\");\r\n\r\n        voters[_id].status = _status;\r\n    }\r\n\r\n    // Function to update the token of a voter based on their email\r\n    function updateVoterTokenByEmail(\r\n        string memory _email,\r\n        string memory _newToken\r\n    ) public {\r\n        for (uint256 i = 1; i <= voterCount; i++) {\r\n            // Update the token if the email matches\r\n            if (keccak256(bytes(_email)) == keccak256(bytes(voters[i].email))) {\r\n                voters[i].token = _newToken;\r\n                break;\r\n            }\r\n        }\r\n    }\r\n\r\n    function addCategory(string memory _categoryName) public {\r\n        // total category plus 1, use it as the category's id\r\n        categoryCount += 1;\r\n\r\n        // add the category details in the category list\r\n        Category storage category = categories[categoryCount];\r\n        category.categoryName = _categoryName;\r\n        category.categoryId = categoryCount;\r\n        category.status = 1;\r\n\r\n        // emit the category added event\r\n        emit CategoryAdded(categoryCount, _categoryName);\r\n    }\r\n\r\n    function updateCategory(\r\n        uint256 _categoryId,\r\n        string memory _categoryName\r\n    ) public {\r\n        categories[_categoryId].categoryName = _categoryName;\r\n    }\r\n\r\n    function deleteCategory(uint256 _categoryId) public {\r\n        // If no associated events, candidates, or vote events, delete the category\r\n        delete categories[_categoryId];\r\n    }\r\n\r\n    function getAllCategory() public view returns (Category[] memory) {\r\n        //Candidate[] memory candidatesFound = new Candidate[](candidateCount);\r\n        Category[] memory categoriesFound = new Category[](categoryCount);\r\n        // Iterate through all stored structs\r\n        for (uint256 i = 1; i <= categoryCount; i++) {\r\n            categoriesFound[i - 1] = categories[i];\r\n        }\r\n\r\n        return categoriesFound;\r\n    }\r\n\r\n    function getCategoryById(\r\n        uint256 _categoryId\r\n    ) public view returns (Category memory) {\r\n        return categories[_categoryId];\r\n    }\r\n\r\n    function getAllEvent() public view returns (Event[] memory) {\r\n        // Initialize the array with the correct size\r\n        Event[] memory eventFound = new Event[](eventCount);\r\n        uint256 count = 0;\r\n\r\n        // Iterate through all categories and events\r\n        for (uint256 i = 0; i < categoryCount; i++) {\r\n            for (uint256 j = 0; j < categories[i + 1].events.length; j++) {\r\n                eventFound[count] = categories[i + 1].events[j];\r\n                count += 1;\r\n            }\r\n        }\r\n\r\n        return eventFound;\r\n    }\r\n\r\n    function addEvent(\r\n        uint256 _categoryId,\r\n        string memory _eventName,\r\n        string memory _eventDesc,\r\n        uint256 _startDateTime,\r\n        uint256 _endDateTime\r\n    ) public {\r\n        // find out the category in list by using the paramerter category name\r\n        Category storage category = categories[_categoryId];\r\n\r\n        // add the event in the category list\r\n        uint256 eventId = eventCount += 1;\r\n\r\n        Event storage newEvent = category.events.push();\r\n        newEvent.eventId = eventId;\r\n        newEvent.eventName = _eventName;\r\n        newEvent.eventDesc = _eventDesc;\r\n        newEvent.categoryId = _categoryId;\r\n        newEvent.status = 1;\r\n        newEvent.startDateTime = _startDateTime;\r\n        newEvent.endDateTime = _endDateTime;\r\n    }\r\n\r\n    /*\r\n    function isEventExists(uint256 _categoryId, string memory _eventName)\r\n        public\r\n        view\r\n        returns (bool)\r\n    {\r\n        // Check if the category exists\r\n        require(\r\n            categories[_categoryId].categoryId != 0,\r\n            \"Category does not exist\"\r\n        );\r\n\r\n        // Loop through the events in the specified category\r\n        for (uint256 i = 0; i < categories[_categoryId].events.length; i++) {\r\n            if (\r\n                keccak256(bytes(categories[_categoryId].events[i].eventName)) ==\r\n                keccak256(bytes(_eventName))\r\n            ) {\r\n                // Event found\r\n                return true;\r\n            }\r\n        }\r\n        // Event not found in the specified category\r\n        return false;\r\n    } */\r\n\r\n    // function isEventStart(\r\n    //     uint256 _categoryId,\r\n    //     string memory _eventName,\r\n    //     uint256 _startDateTime\r\n    // ) public view returns (bool) {\r\n    //     // Check if the category exists\r\n    //     require(\r\n    //         categories[_categoryId].categoryId != 0,\r\n    //         \"Category does not exist\"\r\n    //     );\r\n\r\n    //     require(\r\n    //         isEventExists(_categoryId, _eventName) == true,\r\n    //         \"Event does not exist\"\r\n    //     );\r\n\r\n    //     // Loop through the events in the specified category\r\n    //     for (uint256 i = 0; i < categories[_categoryId].events.length; i++) {\r\n    //         if (\r\n    //             (keccak256(\r\n    //                 bytes(categories[_categoryId].events[i].eventName)\r\n    //             ) ==\r\n    //                 keccak256(bytes(_eventName)) &&\r\n    //                 (_startDateTime >=\r\n    //                     categories[_categoryId].events[i].startDateTime))\r\n    //         ) {\r\n    //             return true;\r\n    //         }\r\n    //     }\r\n\r\n    //     // Event not found in the specified category\r\n    //     return false;\r\n    // }\r\n\r\n    function updateEventDetails(\r\n        uint256 _categoryId,\r\n        uint256 _eventId,\r\n        string memory _eventName,\r\n        string memory _eventDesc,\r\n        uint256 _startDateTime,\r\n        uint256 _endDateTime\r\n    ) public {\r\n        for (uint256 i = 0; i < categories[_categoryId].events.length; i++) {\r\n            if (categories[_categoryId].events[i].eventId == _eventId) {\r\n                Event storage eventToUpdate = categories[_categoryId].events[i];\r\n                // Update the event details\r\n                eventToUpdate.eventName = _eventName;\r\n                eventToUpdate.eventDesc = _eventDesc;\r\n                eventToUpdate.startDateTime = _startDateTime;\r\n                eventToUpdate.endDateTime = _endDateTime;\r\n                break;\r\n            }\r\n        }\r\n    }\r\n\r\n    function deleteEvent(uint256 _categoryId, uint256 _eventId) public {\r\n        for (uint256 i = 0; i < categories[_categoryId].events.length; i++) {\r\n            if (categories[_categoryId].events[i].eventId == _eventId) {\r\n                categories[_categoryId].events[i] = categories[_categoryId]\r\n                    .events[categories[_categoryId].events.length - 1];\r\n                categories[_categoryId].events.pop();\r\n                break;\r\n            }\r\n        }\r\n    }\r\n\r\n    function updateEvent(Event memory _event) public {\r\n        //check if the category is exist\r\n        require(\r\n            categories[_event.categoryId].categoryId != 0,\r\n            \"Category does not exists\"\r\n        );\r\n        require(\r\n            isEventExists(_event.categoryId, _event.eventId),\r\n            \"Event does not exist!\"\r\n        );\r\n\r\n        for (\r\n            uint256 i = 0;\r\n            i < categories[_event.categoryId].events.length;\r\n            i++\r\n        ) {\r\n            if (\r\n                categories[_event.categoryId].events[i].eventId ==\r\n                _event.eventId\r\n            ) {\r\n                Event storage eventToUpdate = categories[_event.categoryId]\r\n                    .events[i];\r\n                // Update the event details\r\n                eventToUpdate.eventName = _event.eventName;\r\n                eventToUpdate.status = _event.status;\r\n                break;\r\n            }\r\n        }\r\n    }\r\n\r\n    function getAllCategoryEvent(\r\n        uint256 _categoryId\r\n    ) public view returns (Event[] memory foundEvent) {\r\n        // find the certain category\r\n        Category storage category = categories[_categoryId];\r\n\r\n        // declare an array variable for storing events\r\n        Event[] memory eventsFound = new Event[](category.events.length);\r\n\r\n        // get all the event name by searching the event in list\r\n        for (uint256 i = 0; i < category.events.length; i++) {\r\n            eventsFound[i] = category.events[i];\r\n        }\r\n\r\n        return (eventsFound);\r\n    }\r\n\r\n    function getEventById(\r\n        uint256 _categoryId,\r\n        uint256 _eventId\r\n    ) public view returns (Event memory) {\r\n        Category storage categoriesFound = categories[_categoryId];\r\n        Event memory eventFound;\r\n        // Iterate through all stored structs\r\n        for (uint256 i = 0; i < categoriesFound.events.length; i++) {\r\n            if (categoriesFound.events[i].eventId == _eventId) {\r\n                eventFound = categoriesFound.events[i];\r\n            }\r\n        }\r\n\r\n        return eventFound;\r\n    }\r\n\r\n    function isEventExists(\r\n        uint256 _categoryId,\r\n        uint256 _eventId\r\n    ) public view returns (bool) {\r\n        // Check if the category exists\r\n        require(\r\n            categories[_categoryId].categoryId != 0,\r\n            \"Category does not exist\"\r\n        );\r\n\r\n        // Loop through the events in the specified category\r\n        for (uint256 i = 0; i < categories[_categoryId].events.length; i++) {\r\n            if (categories[_categoryId].events[i].eventId == _eventId) {\r\n                // Event found\r\n                return true;\r\n            }\r\n        }\r\n\r\n        // Event not found in the specified category\r\n        return false;\r\n    }\r\n\r\n    function addCandidateToEvent(\r\n        uint256 _categoryId,\r\n        uint256 _eventId,\r\n        string memory _candidateName,\r\n        string memory _description,\r\n        uint256 _studentId,\r\n        string memory _imageFileName\r\n    ) public {\r\n        require(\r\n            isCandidateExistsInEvent(_categoryId, _eventId, _studentId) ==\r\n                false,\r\n            \"Candidates already exists\"\r\n        );\r\n        candidateCount += 1;\r\n        // Create a new candidate\r\n        Candidate memory newCandidate = Candidate({\r\n            id: candidateCount,\r\n            name: _candidateName,\r\n            studentId: _studentId,\r\n            categoryId: _categoryId,\r\n            eventId: _eventId,\r\n            description: _description,\r\n            win: false,\r\n            voteCount: 0,\r\n            imageFileName: _imageFileName\r\n        });\r\n\r\n        // find the certain category\r\n        Category storage category = categories[_categoryId];\r\n        // find the certain event in certain category\r\n        for (uint256 i = 0; i < category.events.length; i++) {\r\n            if (category.events[i].eventId == _eventId) {\r\n                category.events[i].candidates.push(newCandidate);\r\n                category.events[i].candidateCount += 1;\r\n            }\r\n        }\r\n\r\n        // Mark the image file name as used\r\n        usedImageFileNames[_imageFileName] = true;\r\n    }\r\n\r\n    function updateCandidateDetails(\r\n        uint256 _id,\r\n        string memory _name,\r\n        string memory _description,\r\n        uint256 _studentId,\r\n        uint256 _categoryId,\r\n        uint256 _eventId,\r\n        string memory _imageFileName\r\n    ) public {\r\n        for (uint256 i = 0; i < categories[_categoryId].events.length; i++) {\r\n            if (categories[_categoryId].events[i].eventId == _eventId) {\r\n                Event storage myEvent = categories[_categoryId].events[i];\r\n\r\n                for (uint256 j = 0; j < myEvent.candidates.length; j++) {\r\n                    if (myEvent.candidates[j].id == _id) {\r\n                        Candidate storage candidateToUpdate = myEvent\r\n                            .candidates[j];\r\n                        candidateToUpdate.name = _name;\r\n                        candidateToUpdate.description = _description;\r\n                        candidateToUpdate.studentId = _studentId;\r\n\r\n                        if (\r\n                            bytes(_imageFileName).length > 0 &&\r\n                            keccak256(bytes(candidateToUpdate.imageFileName)) !=\r\n                            keccak256(bytes(_imageFileName))\r\n                        ) {\r\n                            if (\r\n                                bytes(candidateToUpdate.imageFileName).length >\r\n                                0\r\n                            ) {\r\n                                usedImageFileNames[\r\n                                    candidateToUpdate.imageFileName\r\n                                ] = false;\r\n                            }\r\n                            candidateToUpdate.imageFileName = _imageFileName;\r\n                            usedImageFileNames[_imageFileName] = true;\r\n                        }\r\n                        return;\r\n                    }\r\n                }\r\n            }\r\n        }\r\n    }\r\n\r\n    function deleteCandidate(\r\n        uint256 _categoryId,\r\n        uint256 _eventId,\r\n        uint256 _candidateId\r\n    ) public {\r\n        for (uint256 i = 0; i < categories[_categoryId].events.length; i++) {\r\n            if (categories[_categoryId].events[i].eventId == _eventId) {\r\n                Event storage myEvent = categories[_categoryId].events[i];\r\n\r\n                for (uint256 j = 0; j < myEvent.candidates.length; j++) {\r\n                    if (myEvent.candidates[j].id == _candidateId) {\r\n                        myEvent.candidateCount--;\r\n                        myEvent.candidates[j] = myEvent.candidates[\r\n                            myEvent.candidates.length - 1\r\n                        ];\r\n                        myEvent.candidates.pop();\r\n                        return;\r\n                    }\r\n                }\r\n            }\r\n        }\r\n    }\r\n\r\n    function getCandidateById(\r\n        uint256 _categoryId,\r\n        uint256 _eventId,\r\n        uint256 _candidateId\r\n    ) public view returns (Candidate memory) {\r\n        Category storage categoryFound = categories[_categoryId];\r\n        Event storage eventFound;\r\n        Candidate memory candidateFound;\r\n\r\n        for (uint256 i = 0; i < categoryFound.events.length; i++) {\r\n            if (categoryFound.events[i].eventId == _eventId) {\r\n                eventFound = categoryFound.events[i];\r\n                for (uint256 j = 0; j < eventFound.candidates.length; j++) {\r\n                    if (eventFound.candidates[j].id == _candidateId) {\r\n                        candidateFound = eventFound.candidates[j];\r\n                        break; // Candidate found, break from the inner loop\r\n                    }\r\n                }\r\n                break; // Event found, break from the outer loop\r\n            }\r\n        }\r\n\r\n        return candidateFound;\r\n    }\r\n\r\n    // function isImageFileNameUsed(string memory _imageFileName)\r\n    //     public\r\n    //     view\r\n    //     returns (bool)\r\n    // {\r\n    //     return usedImageFileNames[_imageFileName];\r\n    // }\r\n\r\n    function isCandidateExistsInEvent(\r\n        uint256 _categoryId,\r\n        uint256 _eventId,\r\n        uint256 _studentId\r\n    ) public view returns (bool) {\r\n        // Check if the category exists\r\n        require(\r\n            categories[_categoryId].categoryId != 0,\r\n            \"Category does not exist\"\r\n        );\r\n\r\n        Candidate[] memory candidatesFound = getAllCandidatesInEvent(\r\n            _categoryId,\r\n            _eventId\r\n        );\r\n\r\n        // Loop through the events in the specified category\r\n\r\n        for (uint256 i = 0; i < candidatesFound.length; i++) {\r\n            if (candidatesFound[i].studentId == _studentId) {\r\n                return true;\r\n            }\r\n        }\r\n\r\n        // Event not found in the specified category\r\n        return false;\r\n    }\r\n\r\n    function getAllCandidatesInEvent(\r\n        uint256 _categoryId,\r\n        uint256 _eventId\r\n    ) public view returns (Candidate[] memory foundCandidates) {\r\n        // find the certain category\r\n        Category storage category = categories[_categoryId];\r\n        // find the certain event in certain category\r\n        for (uint256 i = 0; i < category.events.length; i++) {\r\n            if (category.events[i].eventId == _eventId) {\r\n                Candidate[] memory candidatesFound = new Candidate[](\r\n                    category.events[i].candidateCount\r\n                );\r\n\r\n                for (\r\n                    uint256 j = 0;\r\n                    j < category.events[i].candidates.length;\r\n                    j++\r\n                ) {\r\n                    candidatesFound[j] = category.events[i].candidates[j];\r\n                }\r\n                return (candidatesFound);\r\n            }\r\n        }\r\n    }\r\n\r\n    function getAllCandidates() public view returns (Candidate[] memory) {\r\n        Candidate[] memory candidatesFound = new Candidate[](candidateCount);\r\n        Event[] memory eventFound = new Event[](eventCount);\r\n\r\n        // get all the events\r\n        eventFound = getAllEvent();\r\n        uint256 count = 0;\r\n        // find the candidates inside all the event\r\n        for (uint256 i = 0; i < eventCount; i++) {\r\n            for (uint256 j = 0; j < eventFound[i].candidates.length; j++) {\r\n                candidatesFound[count] = eventFound[i].candidates[j];\r\n                count += 1;\r\n            }\r\n        }\r\n\r\n        return candidatesFound;\r\n    }\r\n\r\n    function vote(\r\n        string memory _voterKey,\r\n        uint256 _candidateId,\r\n        uint256 _categoryId,\r\n        uint256 _eventId\r\n    ) external {\r\n        require(\r\n            categories[_categoryId].categoryId != 0,\r\n            \"Category does not exists\"\r\n        );\r\n\r\n        require(eventCount != 0, \"Event does not exists\");\r\n\r\n        // for (uint256 i = 1; i <= categories[_categoryId].events.length; i++) {\r\n        //     require(categories[_categoryId].events[i-0].eventId == _eventId, \"noobbbbb\");\r\n        // }\r\n\r\n        // require(\r\n        //     isCandidateExistsInEventById(_categoryId, _eventId, _candidateId) ==\r\n        //         true,\r\n        //     \"Candidates does not exists\"\r\n        // );\r\n\r\n        // check if has voted\r\n        for (uint256 i = 1; i <= voteEventCount; i++) {\r\n            if (\r\n                keccak256(bytes(_voterKey)) ==\r\n                keccak256(bytes(voteEvents[i].voterKey)) &&\r\n                _categoryId == voteEvents[i].categoryId &&\r\n                _eventId == voteEvents[i].eventId\r\n            ) {\r\n                require(!voteEvents[i].voted, \"You already voted\");\r\n                break;\r\n            }\r\n        }\r\n\r\n        // add count on the candidate\r\n        voteEventCount += 1;\r\n\r\n        // Create a new voteEventStruct\r\n        voteEventStruct memory newVoteEvent = voteEventStruct({\r\n            id: voteEventCount,\r\n            voterKey: _voterKey,\r\n            categoryId: _categoryId,\r\n            eventId: _eventId,\r\n            votedCandidateId: _candidateId,\r\n            voted: true\r\n        });\r\n\r\n        voteEvents[voteEventCount] = newVoteEvent;\r\n\r\n        // add the vote count of the chosen candidate\r\n        addVoteCountIn(_categoryId, _eventId, _candidateId);\r\n\r\n        string memory concatenatedValues = string(\r\n            abi.encodePacked(_categoryId, _eventId)\r\n        );\r\n\r\n        emit VoteEvent(_voterKey, concatenatedValues, _candidateId);\r\n    }\r\n\r\n    function addVoteCountIn(\r\n        uint256 _categoryId,\r\n        uint256 _eventId,\r\n        uint256 _candidateId\r\n    ) internal {\r\n        // get the events inside the categories\r\n        Event[] storage eventsFound = categories[_categoryId].events;\r\n\r\n        // find the event with param\r\n        for (uint256 i = 0; i < eventsFound.length; i++) {\r\n            if (eventsFound[i].eventId == _eventId) {\r\n                // get the candidate inside the event\r\n                Candidate[] storage candidatesFound = eventsFound[i].candidates;\r\n                // find the candidate\r\n                for (uint256 j = 0; j < candidatesFound.length; j++) {\r\n                    if (candidatesFound[j].id == _candidateId) {\r\n                        // found the candidate and plus 1 at the voteCount\r\n                        candidatesFound[j].voteCount += 1;\r\n                        break;\r\n                    }\r\n                }\r\n            }\r\n        }\r\n    }\r\n\r\n    function getAllVotedHistory()\r\n        public\r\n        view\r\n        returns (voteEventStruct[] memory)\r\n    {\r\n        voteEventStruct[] memory allVoteEvent = new voteEventStruct[](\r\n            voteEventCount\r\n        );\r\n        for (uint256 i = 1; i <= voteEventCount; i++) {\r\n            allVoteEvent[i - 1] = voteEvents[i];\r\n        }\r\n        return allVoteEvent;\r\n    }\r\n\r\n    // function isVoted(\r\n    //     uint256 _categoryId,\r\n    //     uint256 _eventId,\r\n    //     string memory _voterKey\r\n    // ) public view returns (bool) {\r\n    //     // Check if the category exists\r\n    //     require(\r\n    //         categories[_categoryId].categoryId != 0,\r\n    //         \"Category does not exist\"\r\n    //     );\r\n\r\n    //     for (uint256 i = 1; i <= voteEventCount; i++) {\r\n    //         if (\r\n    //             voteEvents[i].categoryId == _categoryId &&\r\n    //             voteEvents[i].eventId == _eventId &&\r\n    //             keccak256(bytes(voteEvents[i].voterKey)) ==\r\n    //             keccak256(bytes(_voterKey))\r\n    //         ) {\r\n    //             return voteEvents[i].voted;\r\n    //         }\r\n    //     }\r\n\r\n    //     return false;\r\n    // }\r\n\r\n    // function getVoteEventCandidate(uint256 _categoryId, uint256 _eventId)\r\n    //     public\r\n    //     view\r\n    //     returns (Candidate[] memory)\r\n    // {\r\n    //     Event[] storage eventsFound = categories[_categoryId].events;\r\n\r\n    //     for (uint256 i = 0; i < eventsFound.length; i++) {\r\n    //         if (eventsFound[i].eventId == _eventId) {\r\n    //             return eventsFound[i].candidates;\r\n    //         }\r\n    //     }\r\n\r\n    //     // If the event is not found, return an empty array or handle the situation accordingly\r\n    //     return new Candidate[](0);\r\n    // }\r\n\r\n    function markWinner(uint256 _categoryId, uint256 _eventId) public {\r\n        categories[_categoryId].events;\r\n\r\n        for (uint256 i = 0; i < categories[_categoryId].events.length; i++) {\r\n            if (categories[_categoryId].events[i].eventId == _eventId) {\r\n                Candidate storage winner = categories[_categoryId]\r\n                    .events[i]\r\n                    .candidates[0];\r\n                for (\r\n                    uint256 j = 0;\r\n                    j < categories[_categoryId].events[i].candidates.length - 1;\r\n                    j++\r\n                ) {\r\n                    if (\r\n                        winner.voteCount <\r\n                        categories[_categoryId]\r\n                            .events[i]\r\n                            .candidates[j + 1]\r\n                            .voteCount\r\n                    ) {\r\n                        winner = categories[_categoryId].events[i].candidates[\r\n                            j + 1\r\n                        ];\r\n                    }\r\n                }\r\n                winner.win = true;\r\n            }\r\n        }\r\n    }\r\n\r\n    // function isMarkWinner(uint256 _categoryId, uint256 _eventId)\r\n    //     public\r\n    //     view\r\n    //     returns (bool isMarket)\r\n    // {\r\n    //     Event[] memory eventsFound = categories[_categoryId].events;\r\n    //     Candidate[] memory candidatesFound;\r\n\r\n    //     for (uint256 i = 0; i < eventsFound.length; i++) {\r\n    //         if (eventsFound[i].eventId == _eventId) {\r\n    //             candidatesFound = eventsFound[i].candidates;\r\n    //         }\r\n    //     }\r\n\r\n    //     for (uint256 i = 0; i < candidatesFound.length - 1; i++) {\r\n    //         if (candidatesFound[i].win == true) {\r\n    //             return true;\r\n    //         }\r\n    //     }\r\n    //     return false;\r\n    // }\r\n\r\n    // function whoIsTheWinner(uint256 _categoryId, uint256 _eventId)\r\n    //     public\r\n    //     view\r\n    //     returns (Candidate memory)\r\n    // {\r\n    //     Event[] memory eventsFound = categories[_categoryId].events;\r\n    //     Candidate[] memory candidatesFound;\r\n\r\n    //     for (uint256 i = 0; i < eventsFound.length; i++) {\r\n    //         if (eventsFound[i].eventId == _eventId) {\r\n    //             candidatesFound = eventsFound[i].candidates;\r\n    //         }\r\n    //     }\r\n\r\n    //     Candidate memory winner = candidatesFound[0];\r\n\r\n    //     for (uint256 i = 0; i < candidatesFound.length - 1; i++) {\r\n    //         if (winner.voteCount < candidatesFound[i + 1].voteCount) {\r\n    //             winner = candidatesFound[i + 1];\r\n    //         }\r\n    //     }\r\n\r\n    //     winner.win = true;\r\n\r\n    //     return winner;\r\n    // }\r\n}\r\n",
  "sourcePath": "C:\\Users\\User\\FYP1\\contracts\\VotingSystem.sol",
  "compiler": {
    "name": "solc",
    "version": "0.8.19+commit.7dd6d404.Emscripten.clang"
  },
  "schemaVersion": "3.4.16",
  "updatedAt": "2023-12-30T05:56:09.066Z",
  "devdoc": {
    "kind": "dev",
    "methods": {},
    "version": 1
  },
  "userdoc": {
    "kind": "user",
    "methods": {},
    "version": 1
  }
}