{
  "contractName": "VotingSystem",
  "abi": [
    {
      "anonymous": false,
      "inputs": [
        {
          "indexed": true,
          "internalType": "uint256",
          "name": "eventId",
          "type": "uint256"
        },
        {
          "indexed": false,
          "internalType": "string",
          "name": "eventName",
          "type": "string"
        }
      ],
      "name": "CandidateAdded",
      "type": "event"
    },
    {
      "anonymous": false,
      "inputs": [
        {
          "indexed": true,
          "internalType": "uint256",
          "name": "categoryId",
          "type": "uint256"
        },
        {
          "indexed": false,
          "internalType": "string",
          "name": "categoryName",
          "type": "string"
        }
      ],
      "name": "CategoryAdded",
      "type": "event"
    },
    {
      "anonymous": false,
      "inputs": [
        {
          "indexed": true,
          "internalType": "uint256",
          "name": "eventId",
          "type": "uint256"
        },
        {
          "indexed": false,
          "internalType": "string",
          "name": "eventName",
          "type": "string"
        }
      ],
      "name": "EventAdded",
      "type": "event"
    },
    {
      "anonymous": false,
      "inputs": [
        {
          "indexed": true,
          "internalType": "uint256",
          "name": "voterId",
          "type": "uint256"
        },
        {
          "indexed": true,
          "internalType": "string",
          "name": "categoryEvent",
          "type": "string"
        },
        {
          "indexed": true,
          "internalType": "uint256",
          "name": "candidate",
          "type": "uint256"
        }
      ],
      "name": "VoteEvent",
      "type": "event"
    },
    {
      "inputs": [
        {
          "internalType": "uint256",
          "name": "",
          "type": "uint256"
        }
      ],
      "name": "voteEvents",
      "outputs": [
        {
          "internalType": "uint256",
          "name": "id",
          "type": "uint256"
        },
        {
          "internalType": "uint256",
          "name": "voterId",
          "type": "uint256"
        },
        {
          "internalType": "uint256",
          "name": "categoryId",
          "type": "uint256"
        },
        {
          "internalType": "uint256",
          "name": "eventId",
          "type": "uint256"
        },
        {
          "internalType": "bool",
          "name": "voted",
          "type": "bool"
        }
      ],
      "stateMutability": "view",
      "type": "function",
      "constant": true
    },
    {
      "inputs": [
        {
          "internalType": "string",
          "name": "_categoryName",
          "type": "string"
        }
      ],
      "name": "addCategory",
      "outputs": [],
      "stateMutability": "nonpayable",
      "type": "function"
    },
    {
      "inputs": [
        {
          "internalType": "uint256",
          "name": "_categoryId",
          "type": "uint256"
        },
        {
          "internalType": "string",
          "name": "_eventName",
          "type": "string"
        },
        {
          "internalType": "string[]",
          "name": "_candidateNames",
          "type": "string[]"
        }
      ],
      "name": "addEvent",
      "outputs": [],
      "stateMutability": "nonpayable",
      "type": "function"
    },
    {
      "inputs": [
        {
          "internalType": "uint256",
          "name": "_categoryId",
          "type": "uint256"
        }
      ],
      "name": "getAllCategoryEvent",
      "outputs": [
        {
          "internalType": "string[]",
          "name": "foundEvent",
          "type": "string[]"
        }
      ],
      "stateMutability": "view",
      "type": "function",
      "constant": true
    },
    {
      "inputs": [
        {
          "internalType": "uint256",
          "name": "_categoryId",
          "type": "uint256"
        },
        {
          "internalType": "string",
          "name": "_eventName",
          "type": "string"
        }
      ],
      "name": "getAllCategoryEventCandidate",
      "outputs": [
        {
          "internalType": "string[]",
          "name": "candidatesFound",
          "type": "string[]"
        }
      ],
      "stateMutability": "view",
      "type": "function",
      "constant": true
    },
    {
      "inputs": [],
      "name": "getAllCandidates",
      "outputs": [
        {
          "internalType": "string[]",
          "name": "",
          "type": "string[]"
        }
      ],
      "stateMutability": "view",
      "type": "function",
      "constant": true
    },
    {
      "inputs": [],
      "name": "getAllCategory",
      "outputs": [
        {
          "components": [
            {
              "internalType": "uint256",
              "name": "categoryId",
              "type": "uint256"
            },
            {
              "internalType": "string",
              "name": "categoryName",
              "type": "string"
            },
            {
              "components": [
                {
                  "internalType": "uint256",
                  "name": "eventId",
                  "type": "uint256"
                },
                {
                  "internalType": "string",
                  "name": "eventName",
                  "type": "string"
                },
                {
                  "components": [
                    {
                      "internalType": "uint256",
                      "name": "id",
                      "type": "uint256"
                    },
                    {
                      "internalType": "string",
                      "name": "name",
                      "type": "string"
                    },
                    {
                      "internalType": "uint256",
                      "name": "CategoryId",
                      "type": "uint256"
                    },
                    {
                      "internalType": "string",
                      "name": "eventName",
                      "type": "string"
                    },
                    {
                      "internalType": "uint256",
                      "name": "voteCount",
                      "type": "uint256"
                    }
                  ],
                  "internalType": "struct VotingSystem.Candidate[]",
                  "name": "candidates",
                  "type": "tuple[]"
                },
                {
                  "internalType": "uint256",
                  "name": "candidateCount",
                  "type": "uint256"
                }
              ],
              "internalType": "struct VotingSystem.Event[]",
              "name": "events",
              "type": "tuple[]"
            }
          ],
          "internalType": "struct VotingSystem.Category[]",
          "name": "",
          "type": "tuple[]"
        }
      ],
      "stateMutability": "view",
      "type": "function",
      "constant": true
    },
    {
      "inputs": [],
      "name": "getAllEvent",
      "outputs": [
        {
          "components": [
            {
              "internalType": "uint256",
              "name": "eventId",
              "type": "uint256"
            },
            {
              "internalType": "string",
              "name": "eventName",
              "type": "string"
            },
            {
              "components": [
                {
                  "internalType": "uint256",
                  "name": "id",
                  "type": "uint256"
                },
                {
                  "internalType": "string",
                  "name": "name",
                  "type": "string"
                },
                {
                  "internalType": "uint256",
                  "name": "CategoryId",
                  "type": "uint256"
                },
                {
                  "internalType": "string",
                  "name": "eventName",
                  "type": "string"
                },
                {
                  "internalType": "uint256",
                  "name": "voteCount",
                  "type": "uint256"
                }
              ],
              "internalType": "struct VotingSystem.Candidate[]",
              "name": "candidates",
              "type": "tuple[]"
            },
            {
              "internalType": "uint256",
              "name": "candidateCount",
              "type": "uint256"
            }
          ],
          "internalType": "struct VotingSystem.Event[]",
          "name": "",
          "type": "tuple[]"
        }
      ],
      "stateMutability": "view",
      "type": "function",
      "constant": true
    },
    {
      "inputs": [
        {
          "internalType": "uint256",
          "name": "_voterId",
          "type": "uint256"
        },
        {
          "internalType": "uint256",
          "name": "_candidateId",
          "type": "uint256"
        },
        {
          "internalType": "uint256",
          "name": "_categoryId",
          "type": "uint256"
        },
        {
          "internalType": "uint256",
          "name": "_eventId",
          "type": "uint256"
        }
      ],
      "name": "vote",
      "outputs": [],
      "stateMutability": "nonpayable",
      "type": "function"
    },
    {
      "inputs": [
        {
          "internalType": "uint256",
          "name": "_candidateId",
          "type": "uint256"
        }
      ],
      "name": "getCandidateVoteCount",
      "outputs": [
        {
          "internalType": "uint256",
          "name": "count",
          "type": "uint256"
        }
      ],
      "stateMutability": "view",
      "type": "function",
      "constant": true
    },
    {
      "inputs": [
        {
          "internalType": "uint256",
          "name": "_categoryId",
          "type": "uint256"
        },
        {
          "internalType": "uint256",
          "name": "_eventId",
          "type": "uint256"
        }
      ],
      "name": "getVoteEventCandidate",
      "outputs": [
        {
          "components": [
            {
              "internalType": "uint256",
              "name": "id",
              "type": "uint256"
            },
            {
              "internalType": "string",
              "name": "name",
              "type": "string"
            },
            {
              "internalType": "uint256",
              "name": "CategoryId",
              "type": "uint256"
            },
            {
              "internalType": "string",
              "name": "eventName",
              "type": "string"
            },
            {
              "internalType": "uint256",
              "name": "voteCount",
              "type": "uint256"
            }
          ],
          "internalType": "struct VotingSystem.Candidate[]",
          "name": "",
          "type": "tuple[]"
        }
      ],
      "stateMutability": "view",
      "type": "function",
      "constant": true
    },
    {
      "inputs": [
        {
          "internalType": "uint256",
          "name": "_categoryId",
          "type": "uint256"
        },
        {
          "internalType": "uint256",
          "name": "_eventId",
          "type": "uint256"
        }
      ],
      "name": "whoIsTheWinner",
      "outputs": [
        {
          "components": [
            {
              "internalType": "uint256",
              "name": "id",
              "type": "uint256"
            },
            {
              "internalType": "string",
              "name": "name",
              "type": "string"
            },
            {
              "internalType": "uint256",
              "name": "CategoryId",
              "type": "uint256"
            },
            {
              "internalType": "string",
              "name": "eventName",
              "type": "string"
            },
            {
              "internalType": "uint256",
              "name": "voteCount",
              "type": "uint256"
            }
          ],
          "internalType": "struct VotingSystem.Candidate",
          "name": "",
          "type": "tuple"
        }
      ],
      "stateMutability": "view",
      "type": "function",
      "constant": true
    }
  ],
  "bytecode": "0x608060405234801561001057600080fd5b506126f2806100206000396000f3fe608060405234801561001057600080fd5b50600436106100b45760003560e01c806368c9e3881161007157806368c9e38814610192578063748f55a8146101a55780638f2c2805146101c5578063a7e62d1b146101da578063b315c597146101fa578063c2dfedfa1461022b57600080fd5b80631002cdd4146100b95780632e0dcbf7146100d75780632e6997fe146100ec578063401a52dd146101015780634beecb1a14610114578063642d20ad14610127575b600080fd5b6100c161023e565b6040516100ce9190611f99565b60405180910390f35b6100ea6100e5366004612130565b610568565b005b6100f461068a565b6040516100ce919061216d565b6100f461010f3660046121cf565b6107c1565b6100ea6101223660046121e8565b61091c565b6101686101353660046121cf565b60036020819052600091825260409091208054600182015460028301549383015460049093015491939092909160ff1685565b6040805195865260208601949094529284019190915260608301521515608082015260a0016100ce565b6100ea6101a03660046122db565b610c84565b6101b86101b336600461230d565b610f58565b6040516100ce919061232f565b6101cd61134b565b6040516100ce9190612349565b6101ed6101e836600461230d565b611761565b6040516100ce91906124ae565b61021d6102083660046121cf565b60009081526002602052604090206004015490565b6040519081526020016100ce565b6100f4610239366004612503565b611ada565b6060600060065467ffffffffffffffff81111561025d5761025d612079565b6040519080825280602002602001820160405280156102b957816020015b6102a66040518060800160405280600081526020016060815260200160608152602001600081525090565b81526020019060019003908161027b5790505b50905060015b600654811161056257600081815260016020818152604092839020835160808101909452805484529182018054918401916102f99061254a565b80601f01602080910402602001604051908101604052809291908181526020018280546103259061254a565b80156103725780601f1061034757610100808354040283529160200191610372565b820191906000526020600020905b81548152906001019060200180831161035557829003601f168201915b5050505050815260200160028201805480602002602001604051908101604052809291908181526020016000905b8282101561051457838290600052602060002090600502016040518060a0016040529081600082015481526020016001820180546103dd9061254a565b80601f01602080910402602001604051908101604052809291908181526020018280546104099061254a565b80156104565780601f1061042b57610100808354040283529160200191610456565b820191906000526020600020905b81548152906001019060200180831161043957829003601f168201915b50505050508152602001600282015481526020016003820180546104799061254a565b80601f01602080910402602001604051908101604052809291908181526020018280546104a59061254a565b80156104f25780601f106104c7576101008083540402835291602001916104f2565b820191906000526020600020905b8154815290600101906020018083116104d557829003601f168201915b50505050508152602001600482015481525050815260200190600101906103a0565b505050508152602001600382015481525050826001836105349190612594565b81518110610544576105446125ab565b6020026020010181905250808061055a906125c1565b9150506102bf565b50919050565b60015b60045481116106075760008181526020819052604090819020905161059391600101906125da565b60405180910390208280519060200120036105f55760405162461bcd60e51b815260206004820152601760248201527f43617465676f727920616c72656164792065786973747300000000000000000060448201526064015b60405180910390fd5b806105ff816125c1565b91505061056b565b5060016004600082825461061b9190612675565b909155505060045460009081526020818152604090912082519091610647916001840191850190611e4b565b506004548082556040517f5bae3f75753ef0a1c0ea0f6c51d7b43a4b8d116572b8b7b5cb771f9ad32d4ae59061067e90859061268d565b60405180910390a25050565b6060600060055467ffffffffffffffff8111156106a9576106a9612079565b6040519080825280602002602001820160405280156106dc57816020015b60608152602001906001900390816106c75790505b50905060015b600554811161056257600081815260026020526040902060010180546107079061254a565b80601f01602080910402602001604051908101604052809291908181526020018280546107339061254a565b80156107805780601f1061075557610100808354040283529160200191610780565b820191906000526020600020905b81548152906001019060200180831161076357829003601f168201915b5050505050826001836107939190612594565b815181106107a3576107a36125ab565b602002602001018190525080806107b9906125c1565b9150506106e2565b600081815260208190526040812060028101546060929067ffffffffffffffff8111156107f0576107f0612079565b60405190808252806020026020018201604052801561082357816020015b606081526020019060019003908161080e5790505b50905060005b60028301548110156109145782600201818154811061084a5761084a6125ab565b906000526020600020906004020160010180546108669061254a565b80601f01602080910402602001604051908101604052809291908181526020018280546108929061254a565b80156108df5780601f106108b4576101008083540402835291602001916108df565b820191906000526020600020905b8154815290600101906020018083116108c257829003601f168201915b50505050508282815181106108f6576108f66125ab565b6020026020010181905250808061090c906125c1565b915050610829565b509392505050565b60008381526020819052604081205490036109795760405162461bcd60e51b815260206004820152601760248201527f43617465676f727920686173206e6f742065786973747300000000000000000060448201526064016105ec565b6000838152602081905260408120905b6002820154811015610a2e5783805190602001208260020182815481106109b2576109b26125ab565b90600052602060002090600402016001016040516109d091906125da565b604051809103902003610a1c5760405162461bcd60e51b81526020600482015260146024820152734576656e7420616c72656164792065786973747360601b60448201526064016105ec565b80610a26816125c1565b915050610989565b506000600160066000828254610a449190612675565b9182905550600284018054600181810183556000928352602092839020600490920290910183815588519395509350610a839290840191880190611e4b565b5083516003820155600654600090815260016020818152604090922084815587519092610ab69284019190890190611e4b565b508451600382015560005b8551811015610c7a576000868281518110610ade57610ade6125ab565b60200260200101519050600160056000828254610afb9190612675565b90915550506040805160a08101825260055480825260208083018581528385018e9052606084018d905260006080850181905292835260028252939091208251815592518051929384939092610b58926001850192910190611e4b565b506040820151600282015560608201518051610b7e916003840191602090910190611e4b565b506080919091015160049091015560028401805460018181018355600092835260209283902084516005909302019182558284015180518594610bc5938501920190611e4b565b506040820151600282015560608201518051610beb916003840191602090910190611e4b565b506080919091015160049091015560028501805460018181018355600092835260209283902084516005909302019182558284015180518594610c32938501920190611e4b565b506040820151600282015560608201518051610c58916003840191602090910190611e4b565b5060808201518160040155505050508080610c72906125c1565b915050610ac1565b5050505050505050565b6000828152602081905260408120549003610ce15760405162461bcd60e51b815260206004820152601860248201527f43617465676f727920646f6573206e6f7420657869737473000000000000000060448201526064016105ec565b600654600003610d2b5760405162461bcd60e51b81526020600482015260156024820152744576656e7420646f6573206e6f742065786973747360581b60448201526064016105ec565b6000838152600260205260408120549003610d885760405162461bcd60e51b815260206004820152601a60248201527f43616e6469646174657320646f6573206e6f742065786973747300000000000060448201526064016105ec565b60015b6007548111610e535760008181526003602052604090206001015485148015610dc4575060008181526003602052604090206002015483145b8015610de157506000818152600360208190526040909120015482145b15610e415760008181526003602052604090206004015460ff1615610e3c5760405162461bcd60e51b8152602060048201526011602482015270165bdd48185b1c9958591e481d9bdd1959607a1b60448201526064016105ec565b610e53565b80610e4b816125c1565b915050610d8b565b50600160076000828254610e679190612675565b90915550506040805160a0810182526007548082526020808301888152838501878152606085018781526001608087018181526000968752600395869052979095208651815592519483019490945551600282015591519082015591516004909201805460ff191692151592909217909155610ee284611d11565b610eed838386611d3b565b6040805160208101859052808201849052815180820383018152606090910191829052908590610f1e9083906126a0565b6040519081900381209088907fdd0629bf37ec3179d8b6727c2eb4d0f297cf08a85b960c1520666db55feb5b3990600090a4505050505050565b610f8a6040518060a0016040528060008152602001606081526020016000815260200160608152602001600081525090565b60008381526020818152604080832060020180548251818502810185019093528083529192909190849084015b82821015611230578382906000526020600020906004020160405180608001604052908160008201548152602001600182018054610ff49061254a565b80601f01602080910402602001604051908101604052809291908181526020018280546110209061254a565b801561106d5780601f106110425761010080835404028352916020019161106d565b820191906000526020600020905b81548152906001019060200180831161105057829003601f168201915b5050505050815260200160028201805480602002602001604051908101604052809291908181526020016000905b8282101561120f57838290600052602060002090600502016040518060a0016040529081600082015481526020016001820180546110d89061254a565b80601f01602080910402602001604051908101604052809291908181526020018280546111049061254a565b80156111515780601f1061112657610100808354040283529160200191611151565b820191906000526020600020905b81548152906001019060200180831161113457829003601f168201915b50505050508152602001600282015481526020016003820180546111749061254a565b80601f01602080910402602001604051908101604052809291908181526020018280546111a09061254a565b80156111ed5780601f106111c2576101008083540402835291602001916111ed565b820191906000526020600020905b8154815290600101906020018083116111d057829003601f168201915b505050505081526020016004820154815250508152602001906001019061109b565b50505050815260200160038201548152505081526020019060010190610fb7565b505050509050606060005b825181101561129b5784838281518110611257576112576125ab565b602002602001015160000151036112895782818151811061127a5761127a6125ab565b60200260200101516040015191505b80611293816125c1565b91505061123b565b506000816000815181106112b1576112b16125ab565b6020026020010151905060005b600183516112cc9190612594565b81101561133f57826112df826001612675565b815181106112ef576112ef6125ab565b6020026020010151608001518260800151101561132d5782611312826001612675565b81518110611322576113226125ab565b602002602001015191505b80611337816125c1565b9150506112be565b50925050505b92915050565b6060600060045467ffffffffffffffff81111561136a5761136a612079565b6040519080825280602002602001820160405280156113bf57816020015b6113ac60405180606001604052806000815260200160608152602001606081525090565b8152602001906001900390816113885790505b50905060015b600454811161056257600081815260208181526040918290208251606081019093528054835260018101805491928401916113ff9061254a565b80601f016020809104026020016040519081016040528092919081815260200182805461142b9061254a565b80156114785780601f1061144d57610100808354040283529160200191611478565b820191906000526020600020905b81548152906001019060200180831161145b57829003601f168201915b5050505050815260200160028201805480602002602001604051908101604052809291908181526020016000905b8282101561171f5783829060005260206000209060040201604051806080016040529081600082015481526020016001820180546114e39061254a565b80601f016020809104026020016040519081016040528092919081815260200182805461150f9061254a565b801561155c5780601f106115315761010080835404028352916020019161155c565b820191906000526020600020905b81548152906001019060200180831161153f57829003601f168201915b5050505050815260200160028201805480602002602001604051908101604052809291908181526020016000905b828210156116fe57838290600052602060002090600502016040518060a0016040529081600082015481526020016001820180546115c79061254a565b80601f01602080910402602001604051908101604052809291908181526020018280546115f39061254a565b80156116405780601f1061161557610100808354040283529160200191611640565b820191906000526020600020905b81548152906001019060200180831161162357829003601f168201915b50505050508152602001600282015481526020016003820180546116639061254a565b80601f016020809104026020016040519081016040528092919081815260200182805461168f9061254a565b80156116dc5780601f106116b1576101008083540402835291602001916116dc565b820191906000526020600020905b8154815290600101906020018083116116bf57829003601f168201915b505050505081526020016004820154815250508152602001906001019061158a565b505050508152602001600382015481525050815260200190600101906114a6565b505050915250839050611733600184612594565b81518110611743576117436125ab565b60200260200101819052508080611759906125c1565b9150506113c5565b600082815260208181526040808320600201805482518185028101850190935280835260609493849084015b82821015611a065783829060005260206000209060040201604051806080016040529081600082015481526020016001820180546117ca9061254a565b80601f01602080910402602001604051908101604052809291908181526020018280546117f69061254a565b80156118435780601f1061181857610100808354040283529160200191611843565b820191906000526020600020905b81548152906001019060200180831161182657829003601f168201915b5050505050815260200160028201805480602002602001604051908101604052809291908181526020016000905b828210156119e557838290600052602060002090600502016040518060a0016040529081600082015481526020016001820180546118ae9061254a565b80601f01602080910402602001604051908101604052809291908181526020018280546118da9061254a565b80156119275780601f106118fc57610100808354040283529160200191611927565b820191906000526020600020905b81548152906001019060200180831161190a57829003601f168201915b505050505081526020016002820154815260200160038201805461194a9061254a565b80601f01602080910402602001604051908101604052809291908181526020018280546119769061254a565b80156119c35780601f10611998576101008083540402835291602001916119c3565b820191906000526020600020905b8154815290600101906020018083116119a657829003601f168201915b5050505050815260200160048201548152505081526020019060010190611871565b5050505081526020016003820154815250508152602001906001019061178d565b50505050905060005b8151811015611a755783828281518110611a2b57611a2b6125ab565b60200260200101516000015103611a6357818181518110611a4e57611a4e6125ab565b60200260200101516040015192505050611345565b80611a6d816125c1565b915050611a0f565b506040805160008082526020820190925290611ad1565b611abe6040518060a0016040528060008152602001606081526020016000815260200160608152602001600081525090565b815260200190600190039081611a8c5790505b50949350505050565b60008281526020819052604081206060915b6002820154811015611d09578380519060200120826002018281548110611b1557611b156125ab565b9060005260206000209060040201600101604051611b3391906125da565b604051809103902003611cf7576000826002018281548110611b5757611b576125ab565b90600052602060002090600402016003015467ffffffffffffffff811115611b8157611b81612079565b604051908082528060200260200182016040528015611bb457816020015b6060815260200190600190039081611b9f5790505b50905060005b836002018381548110611bcf57611bcf6125ab565b906000526020600020906004020160020180549050811015611cec57836002018381548110611c0057611c006125ab565b90600052602060002090600402016002018181548110611c2257611c226125ab565b90600052602060002090600502016001018054611c3e9061254a565b80601f0160208091040260200160405190810160405280929190818152602001828054611c6a9061254a565b8015611cb75780601f10611c8c57610100808354040283529160200191611cb7565b820191906000526020600020905b815481529060010190602001808311611c9a57829003601f168201915b5050505050828281518110611cce57611cce6125ab565b60200260200101819052508080611ce4906125c1565b915050611bba565b509250611345915050565b80611d01816125c1565b915050611aec565b505092915050565b6000818152600260205260408120600401805460019290611d33908490612675565b909155505050565b6000838152602081905260408120600201905b8154811015611e445783828281548110611d6a57611d6a6125ab565b90600052602060002090600402016000015403611e32576000828281548110611d9557611d956125ab565b9060005260206000209060040201600201905060005b8154811015611e2f5784828281548110611dc757611dc76125ab565b90600052602060002090600502016000015403611e1d576001828281548110611df257611df26125ab565b90600052602060002090600502016004016000828254611e129190612675565b90915550611e2f9050565b80611e27816125c1565b915050611dab565b50505b80611e3c816125c1565b915050611d4e565b5050505050565b828054611e579061254a565b90600052602060002090601f016020900481019282611e795760008555611ebf565b82601f10611e9257805160ff1916838001178555611ebf565b82800160010185558215611ebf579182015b82811115611ebf578251825591602001919060010190611ea4565b50611ecb929150611ecf565b5090565b5b80821115611ecb5760008155600101611ed0565b60005b83811015611eff578181015183820152602001611ee7565b83811115611f0e576000848401525b50505050565b60008151808452611f2c816020860160208601611ee4565b601f01601f19169290920160200192915050565b805182526000602082015160a06020850152611f5f60a0850182611f14565b90506040830151604085015260608301518482036060860152611f828282611f14565b915050608083015160808501528091505092915050565b602080825282518282018190526000919060409081850190600581811b8701840188860187805b8581101561206957603f198b850301875282516080815186528a820151818c880152611fee82880182611f14565b838c0151888203898e015280518083529193508d0191508c830190808a1b84018e01875b8281101561204557601f1986830301845261202e828651611f40565b91508f850194508f84019350600181019050612012565b50606095860151999095019890985250505096890196935091880191600101611fc0565b50919a9950505050505050505050565b634e487b7160e01b600052604160045260246000fd5b604051601f8201601f1916810167ffffffffffffffff811182821017156120b8576120b8612079565b604052919050565b600082601f8301126120d157600080fd5b813567ffffffffffffffff8111156120eb576120eb612079565b6120fe601f8201601f191660200161208f565b81815284602083860101111561211357600080fd5b816020850160208301376000918101602001919091529392505050565b60006020828403121561214257600080fd5b813567ffffffffffffffff81111561215957600080fd5b612165848285016120c0565b949350505050565b6000602080830181845280855180835260408601915060408160051b870101925083870160005b828110156121c257603f198886030184526121b0858351611f14565b94509285019290850190600101612194565b5092979650505050505050565b6000602082840312156121e157600080fd5b5035919050565b6000806000606084860312156121fd57600080fd5b8335925060208085013567ffffffffffffffff8082111561221d57600080fd5b612229888389016120c0565b9450604087013591508082111561223f57600080fd5b818701915087601f83011261225357600080fd5b81358181111561226557612265612079565b8060051b61227485820161208f565b918252838101850191858101908b84111561228e57600080fd5b86860192505b838310156122ca578235858111156122ac5760008081fd5b6122ba8d89838a01016120c0565b8352509186019190860190612294565b809750505050505050509250925092565b600080600080608085870312156122f157600080fd5b5050823594602084013594506040840135936060013592509050565b6000806040838503121561232057600080fd5b50508035926020909101359150565b6020815260006123426020830184611f40565b9392505050565b60208152600060208201835180825260408401915060408160051b8501016020860160005b838110156124a257603f1987840301855281518051845260208101516060602086015261239e6060860182611f14565b905060408201519150848103604086015280825180835260208301915060208160051b84010160208501945060005b8281101561248257601f198583030184528551805183526020810151608060208501526123fd6080850182611f14565b90506040820151848203604086015281815180845260208401915060208160051b85010160208401935060005b8281101561245b57601f19868303018452612446828651611f40565b6020958601959490940193915060010161242a565b506060958601519790950196909652505050602096870196949094019391506001016123cd565b50809750505050505060208201915060208501945060018101905061236e565b50909695505050505050565b6000602080830181845280855180835260408601915060408160051b870101925083870160005b828110156121c257603f198886030184526124f1858351611f40565b945092850192908501906001016124d5565b6000806040838503121561251657600080fd5b82359150602083013567ffffffffffffffff81111561253457600080fd5b612540858286016120c0565b9150509250929050565b600181811c9082168061255e57607f821691505b60208210810361056257634e487b7160e01b600052602260045260246000fd5b634e487b7160e01b600052601160045260246000fd5b6000828210156125a6576125a661257e565b500390565b634e487b7160e01b600052603260045260246000fd5b6000600182016125d3576125d361257e565b5060010190565b600080835481600182811c9150808316806125f657607f831692505b6020808410820361261557634e487b7160e01b86526022600452602486fd5b818015612629576001811461263a57612667565b60ff19861689528489019650612667565b60008a81526020902060005b8681101561265f5781548b820152908501908301612646565b505084890196505b509498975050505050505050565b600082198211156126885761268861257e565b500190565b6020815260006123426020830184611f14565b600082516126b2818460208701611ee4565b919091019291505056fea26469706673582212208bcb2aaf14ed2f2b39bce01cec35a7646d54fdcfb59faee1ac3cc13d8777e32c64736f6c634300080d0033",
  "immutableReferences": {},
  "source": "// SPDX-License-Identifier: MIT\npragma solidity >=0.4.22 <0.9.0;\n\ncontract VotingSystem {\n    struct Event {\n        uint256 eventId;\n        string eventName;\n        Candidate[] candidates;\n        uint256 candidateCount;\n    }\n\n    struct Category {\n        uint256 categoryId;\n        string categoryName;\n        Event[] events; //category has many event\n    }\n\n    struct Candidate {\n        uint256 id;\n        string name;  \n        uint256 CategoryId;\n        string eventName;\n        uint256 voteCount;\n    }\n\n    struct voteEventStruct {\n        uint256 id;\n        uint256 voterId;\n        uint256 categoryId;\n        uint256 eventId;\n        bool voted;\n    }\n\n    event CategoryAdded(uint256 indexed categoryId, string categoryName);\n    event EventAdded(uint256 indexed eventId, string eventName);\n    event CandidateAdded(uint256 indexed eventId, string eventName);\n\n    mapping(uint256 => Category) categories;\n    mapping(uint256 => Event) events;\n    mapping(uint256 => Candidate) candidates;\n    mapping(uint256 => voteEventStruct) public voteEvents;\n\n    uint256  categoryCount;\n    uint256  candidateCount;\n    uint256  eventCount;\n    uint256  voteEventCount;\n\n    event VoteEvent(\n        uint256 indexed voterId,\n        string indexed categoryEvent,\n        uint256 indexed candidate\n    );\n\n    function addCategory(string memory _categoryName) public {\n        // check if the category is exist\n        for (uint256 i = 1; i <= categoryCount; i++) {\n            require(\n                keccak256(bytes(_categoryName)) !=\n                    keccak256(bytes(categories[i].categoryName)),\n                \"Category already exists\"\n            );\n        }\n\n        // total category plus 1, use it as the category's id\n        categoryCount += 1;\n\n        // add the category details in the category list\n        Category storage category = categories[categoryCount];\n        category.categoryName = _categoryName;\n        category.categoryId = categoryCount;\n\n        // emit the category added event\n        emit CategoryAdded(categoryCount, _categoryName);\n    }\n\n    function addEvent(\n        uint256 _categoryId,\n        string memory _eventName,\n        string[] memory _candidateNames\n    ) public {\n        // check if the category has exists\n        require(\n            categories[_categoryId].categoryId != 0,\n            \"Category has not exists\"\n        );\n\n        // find out the category in list by using the paramerter category name\n        Category storage category = categories[_categoryId];\n\n        // search the event has been declare in the category\n        for (uint256 i = 0; i < category.events.length; i++) {\n            require(\n                keccak256(bytes(category.events[i].eventName)) !=\n                    keccak256(bytes(_eventName)),\n                \"Event already exists\"\n            );\n        }\n\n        // add the event in the category list\n        uint256 eventId = eventCount += 1;\n\n        Event storage newEvent = category.events.push();\n        newEvent.eventId = eventId;\n        newEvent.eventName = _eventName;\n        newEvent.candidateCount = _candidateNames.length;\n\n        // event list\n        Event storage listEvent = events[eventCount];\n        listEvent.eventId = eventId;\n        listEvent.eventName = _eventName;\n        listEvent.candidateCount = _candidateNames.length;\n\n        // Add candidates to the event\n        for (uint256 i = 0; i < _candidateNames.length; i++) {\n            string memory candidateName = _candidateNames[i];\n            candidateCount += 1;\n            // Create a new candidate\n            Candidate memory newCandidate = Candidate({\n                id: candidateCount,\n                name: candidateName,\n                CategoryId: _categoryId,\n                eventName: _eventName,\n                voteCount: 0\n            });\n            // Push the new candidate to the candidates array\n            candidates[candidateCount] = newCandidate;\n            listEvent.candidates.push(newCandidate);\n            newEvent.candidates.push(newCandidate);\n        }\n    }\n\n    function getAllCategoryEvent(uint256 _categoryId)\n        public\n        view\n        returns (string[] memory foundEvent)\n    {\n        // find the certain category\n        Category storage category = categories[_categoryId];\n\n        // declare an array variable for storing events\n        string[] memory eventsName = new string[](category.events.length);\n\n        // get all the event name by searching the event in list\n        for (uint256 i = 0; i < category.events.length; i++) {\n            eventsName[i] = category.events[i].eventName;\n        }\n\n        return (eventsName);\n    }\n\n    function getAllCategoryEventCandidate(\n        uint256 _categoryId,\n        string memory _eventName\n    ) public view returns (string[] memory candidatesFound) {\n        // find the certain category\n        Category storage category = categories[_categoryId];\n        // find the certain event in certain category\n        for (uint256 i = 0; i < category.events.length; i++) {\n            if (\n                keccak256(bytes(category.events[i].eventName)) ==\n                keccak256(bytes(_eventName))\n            ) {\n                string[] memory candidatesName = new string[](\n                    category.events[i].candidateCount\n                );\n\n                for (\n                    uint256 j = 0;\n                    j < category.events[i].candidates.length;\n                    j++\n                ) {\n                    candidatesName[j] = category.events[i].candidates[j].name;\n                }\n                return (candidatesName);\n            }\n        }\n    }\n\n    function getAllCandidates() public view returns (string[] memory) {\n        //Candidate[] memory candidatesFound = new Candidate[](candidateCount);\n        string[] memory name = new string[](candidateCount);\n        // Iterate through all stored structs\n        for (uint256 i = 1; i <= candidateCount; i++) {\n            name[i - 1] = candidates[i].name;\n        }\n\n        return name;\n    }\n\n    function getAllCategory() public view returns (Category[] memory) {\n        //Candidate[] memory candidatesFound = new Candidate[](candidateCount);\n        Category[] memory categoriesFound = new Category[](categoryCount);\n        // Iterate through all stored structs\n        for (uint256 i = 1; i <= categoryCount; i++) {\n            categoriesFound[i-1] = categories[i];\n        }\n\n        return categoriesFound;\n    }\n\n    function getAllEvent() public view returns (Event[] memory) {\n        //Candidate[] memory candidatesFound = new Candidate[](candidateCount);\n        Event[] memory eventFound = new Event[](eventCount);\n        // Iterate through all stored structs\n        for (uint256 i = 1; i <= eventCount; i++) {\n            eventFound[i - 1] = events[i];\n        }\n\n        return eventFound;\n    }\n\n    function vote(\n        uint256 _voterId,\n        uint256 _candidateId,\n        uint256 _categoryId,\n        uint256 _eventId\n    ) external {\n        require(\n            categories[_categoryId].categoryId != 0,\n            \"Category does not exists\"\n        );\n\n        require(eventCount != 0, \"Event does not exists\");\n\n        // for (uint256 i = 1; i <= categories[_categoryId].events.length; i++) {\n        //     require(categories[_categoryId].events[i-0].eventId == _eventId, \"noobbbbb\");\n        // }\n\n        require(candidates[_candidateId].id != 0, \"Candidates does not exists\");\n\n        // check if has voted\n        for (uint256 i = 1; i <= voteEventCount; i++) {\n            if (\n                _voterId == voteEvents[i].voterId &&\n                _categoryId == voteEvents[i].categoryId &&\n                _eventId == voteEvents[i].eventId\n            ) {\n                require(!voteEvents[i].voted, \"You already voted\");\n                break;\n            }\n        }\n\n        // add count on the candidate\n        voteEventCount += 1;\n\n        // Create a new voteEventStruct\n        voteEventStruct memory newVoteEvent = voteEventStruct({\n            id: voteEventCount,\n            voterId: _voterId,\n            categoryId: _categoryId,\n            eventId: _eventId,\n            voted: true\n        });\n\n        voteEvents[voteEventCount] = newVoteEvent;\n\n        // add the vote count of the chosen candidate\n        addVoteCount(_candidateId);\n        addVoteCountIn(_categoryId, _eventId, _candidateId);\n\n        string memory concatenatedValues = string(\n            abi.encodePacked(_categoryId, _eventId)\n        );\n\n        emit VoteEvent(_voterId, concatenatedValues, _candidateId);\n    }\n\n    function addVoteCount(uint256 _candidateId) internal {\n        candidates[_candidateId].voteCount += 1;\n    }\n\n    function addVoteCountIn(\n        uint256 _categoryId,\n        uint256 _eventId,\n        uint256 _candidateId\n    ) internal {\n        // get the events inside the categories\n        Event[] storage eventsFound = categories[_categoryId].events;\n\n        // find the event with param\n        for (uint256 i = 0; i < eventsFound.length; i++) {\n            if (eventsFound[i].eventId == _eventId) {\n                // get the candidate inside the event\n                Candidate[] storage candidatesFound = eventsFound[i].candidates;\n                // find the candidate\n                for (uint256 j = 0; j < candidatesFound.length; j++) {\n                    if (candidatesFound[j].id == _candidateId) {\n                        // found the candidate and plus 1 at the voteCount\n                        candidatesFound[j].voteCount += 1;\n                        break;\n                    }\n                }\n            }\n        }\n    }\n\n    function getCandidateVoteCount(uint256 _candidateId)\n        public\n        view\n        returns (uint256 count)\n    {\n        return candidates[_candidateId].voteCount;\n    }\n\n    function getVoteEventCandidate(uint256 _categoryId, uint256 _eventId)\n        public\n        view\n        returns (Candidate[] memory)\n    {\n        Event[] memory eventsFound = categories[_categoryId].events;\n\n        for (uint256 i = 0; i < eventsFound.length; i++) {\n            if (eventsFound[i].eventId == _eventId) {\n                return eventsFound[i].candidates;\n            }\n        }\n\n        // If the event is not found, return an empty array or handle the situation accordingly\n        return new Candidate[](0);\n    }\n\n    function whoIsTheWinner(uint256 _categoryId, uint256 _eventId)\n        public\n        view\n        returns (Candidate memory)\n    {\n        Event[] memory eventsFound = categories[_categoryId].events;\n        Candidate[] memory candidatesFound;\n\n        for (uint256 i = 0; i < eventsFound.length; i++) {\n            if (eventsFound[i].eventId == _eventId) {\n               candidatesFound = eventsFound[i].candidates;\n            }\n        }\n\n        Candidate memory winner = candidatesFound[0];\n\n         for (uint256 i = 0; i < candidatesFound.length-1; i++) {\n            if(winner.voteCount < candidatesFound[i+1].voteCount){\n                winner = candidatesFound[i+1];\n            }\n         }\n\n        // If the event is not found, return an empty array or handle the situation accordingly\n        return winner;\n    }\n}\n",
  "sourcePath": "C:\\xampp\\htdocs\\Online-Voting-System-Blockchain\\contracts\\VotingSystem.sol",
  "compiler": {
    "name": "solc",
    "version": "0.8.13+commit.abaa5c0e.Emscripten.clang"
  },
  "schemaVersion": "3.4.16",
  "updatedAt": "2023-12-03T12:17:26.425Z",
  "networkType": "ethereum",
  "devdoc": {
    "kind": "dev",
    "methods": {},
    "version": 1
  },
  "userdoc": {
    "kind": "user",
    "methods": {},
    "version": 1
  }
}