{
  "contractName": "VotingSystem",
  "abi": [
    {
      "inputs": [],
      "stateMutability": "nonpayable",
      "type": "constructor"
    },
    {
      "anonymous": false,
      "inputs": [
        {
          "indexed": true,
          "internalType": "uint256",
          "name": "eventId",
          "type": "uint256"
        },
        {
          "indexed": false,
          "internalType": "string",
          "name": "eventName",
          "type": "string"
        }
      ],
      "name": "CandidateAdded",
      "type": "event"
    },
    {
      "anonymous": false,
      "inputs": [
        {
          "indexed": true,
          "internalType": "uint256",
          "name": "categoryId",
          "type": "uint256"
        },
        {
          "indexed": false,
          "internalType": "string",
          "name": "categoryName",
          "type": "string"
        }
      ],
      "name": "CategoryAdded",
      "type": "event"
    },
    {
      "anonymous": false,
      "inputs": [
        {
          "indexed": true,
          "internalType": "uint256",
          "name": "eventId",
          "type": "uint256"
        },
        {
          "indexed": false,
          "internalType": "string",
          "name": "eventName",
          "type": "string"
        }
      ],
      "name": "EventAdded",
      "type": "event"
    },
    {
      "anonymous": false,
      "inputs": [
        {
          "indexed": true,
          "internalType": "string",
          "name": "_voterKey",
          "type": "string"
        },
        {
          "indexed": true,
          "internalType": "string",
          "name": "categoryEvent",
          "type": "string"
        },
        {
          "indexed": true,
          "internalType": "uint256",
          "name": "candidate",
          "type": "uint256"
        }
      ],
      "name": "VoteEvent",
      "type": "event"
    },
    {
      "anonymous": false,
      "inputs": [
        {
          "indexed": true,
          "internalType": "uint256",
          "name": "voterId",
          "type": "uint256"
        },
        {
          "indexed": false,
          "internalType": "string",
          "name": "voter_key",
          "type": "string"
        }
      ],
      "name": "VoterAdded",
      "type": "event"
    },
    {
      "inputs": [],
      "name": "owner",
      "outputs": [
        {
          "internalType": "address",
          "name": "",
          "type": "address"
        }
      ],
      "stateMutability": "view",
      "type": "function"
    },
    {
      "inputs": [
        {
          "internalType": "uint256",
          "name": "",
          "type": "uint256"
        }
      ],
      "name": "voteEvents",
      "outputs": [
        {
          "internalType": "uint256",
          "name": "id",
          "type": "uint256"
        },
        {
          "internalType": "string",
          "name": "voterKey",
          "type": "string"
        },
        {
          "internalType": "uint256",
          "name": "categoryId",
          "type": "uint256"
        },
        {
          "internalType": "uint256",
          "name": "eventId",
          "type": "uint256"
        },
        {
          "internalType": "uint256",
          "name": "votedCandidateId",
          "type": "uint256"
        },
        {
          "internalType": "bool",
          "name": "voted",
          "type": "bool"
        }
      ],
      "stateMutability": "view",
      "type": "function"
    },
    {
      "inputs": [
        {
          "internalType": "uint256",
          "name": "",
          "type": "uint256"
        }
      ],
      "name": "voters",
      "outputs": [
        {
          "internalType": "uint256",
          "name": "id",
          "type": "uint256"
        },
        {
          "internalType": "string",
          "name": "key",
          "type": "string"
        },
        {
          "internalType": "string",
          "name": "email",
          "type": "string"
        },
        {
          "internalType": "bytes32",
          "name": "password",
          "type": "bytes32"
        },
        {
          "internalType": "string",
          "name": "role",
          "type": "string"
        },
        {
          "internalType": "uint256",
          "name": "status",
          "type": "uint256"
        },
        {
          "internalType": "string",
          "name": "token",
          "type": "string"
        }
      ],
      "stateMutability": "view",
      "type": "function"
    },
    {
      "inputs": [
        {
          "internalType": "string",
          "name": "_email",
          "type": "string"
        },
        {
          "internalType": "string",
          "name": "_password",
          "type": "string"
        }
      ],
      "name": "loginVoter",
      "outputs": [
        {
          "components": [
            {
              "internalType": "uint256",
              "name": "id",
              "type": "uint256"
            },
            {
              "internalType": "string",
              "name": "key",
              "type": "string"
            },
            {
              "internalType": "string",
              "name": "email",
              "type": "string"
            },
            {
              "internalType": "bytes32",
              "name": "password",
              "type": "bytes32"
            },
            {
              "internalType": "string",
              "name": "role",
              "type": "string"
            },
            {
              "internalType": "uint256",
              "name": "status",
              "type": "uint256"
            },
            {
              "internalType": "string",
              "name": "token",
              "type": "string"
            }
          ],
          "internalType": "struct VotingSystem.Voter",
          "name": "",
          "type": "tuple"
        }
      ],
      "stateMutability": "view",
      "type": "function"
    },
    {
      "inputs": [
        {
          "internalType": "string",
          "name": "_email",
          "type": "string"
        },
        {
          "internalType": "string",
          "name": "_password",
          "type": "string"
        }
      ],
      "name": "getVoterByEmailPassword",
      "outputs": [
        {
          "components": [
            {
              "internalType": "uint256",
              "name": "id",
              "type": "uint256"
            },
            {
              "internalType": "string",
              "name": "key",
              "type": "string"
            },
            {
              "internalType": "string",
              "name": "email",
              "type": "string"
            },
            {
              "internalType": "bytes32",
              "name": "password",
              "type": "bytes32"
            },
            {
              "internalType": "string",
              "name": "role",
              "type": "string"
            },
            {
              "internalType": "uint256",
              "name": "status",
              "type": "uint256"
            },
            {
              "internalType": "string",
              "name": "token",
              "type": "string"
            }
          ],
          "internalType": "struct VotingSystem.Voter",
          "name": "",
          "type": "tuple"
        }
      ],
      "stateMutability": "view",
      "type": "function"
    },
    {
      "inputs": [
        {
          "internalType": "uint256",
          "name": "_voterId",
          "type": "uint256"
        }
      ],
      "name": "getVoterEmailById",
      "outputs": [
        {
          "internalType": "string",
          "name": "",
          "type": "string"
        }
      ],
      "stateMutability": "view",
      "type": "function"
    },
    {
      "inputs": [
        {
          "internalType": "string",
          "name": "_key",
          "type": "string"
        },
        {
          "internalType": "string",
          "name": "_password",
          "type": "string"
        }
      ],
      "name": "updateVoterPassword",
      "outputs": [],
      "stateMutability": "nonpayable",
      "type": "function"
    },
    {
      "inputs": [
        {
          "internalType": "string",
          "name": "_token",
          "type": "string"
        }
      ],
      "name": "verifyVoterAccount",
      "outputs": [
        {
          "internalType": "bool",
          "name": "",
          "type": "bool"
        }
      ],
      "stateMutability": "nonpayable",
      "type": "function"
    },
    {
      "inputs": [
        {
          "internalType": "string",
          "name": "_email",
          "type": "string"
        },
        {
          "internalType": "string",
          "name": "_password",
          "type": "string"
        }
      ],
      "name": "getVoterStatus",
      "outputs": [
        {
          "internalType": "uint256",
          "name": "status",
          "type": "uint256"
        }
      ],
      "stateMutability": "view",
      "type": "function"
    },
    {
      "inputs": [
        {
          "internalType": "string",
          "name": "_email",
          "type": "string"
        },
        {
          "internalType": "string",
          "name": "_password",
          "type": "string"
        }
      ],
      "name": "checkVoterEmailPassword",
      "outputs": [
        {
          "internalType": "bool",
          "name": "foundVoter",
          "type": "bool"
        }
      ],
      "stateMutability": "view",
      "type": "function"
    },
    {
      "inputs": [
        {
          "internalType": "string",
          "name": "_key",
          "type": "string"
        }
      ],
      "name": "isVoterExist",
      "outputs": [
        {
          "internalType": "bool",
          "name": "",
          "type": "bool"
        }
      ],
      "stateMutability": "view",
      "type": "function"
    },
    {
      "inputs": [
        {
          "internalType": "string",
          "name": "_categoryName",
          "type": "string"
        }
      ],
      "name": "addCategory",
      "outputs": [],
      "stateMutability": "nonpayable",
      "type": "function"
    },
    {
      "inputs": [
        {
          "components": [
            {
              "internalType": "uint256",
              "name": "categoryId",
              "type": "uint256"
            },
            {
              "internalType": "string",
              "name": "categoryName",
              "type": "string"
            },
            {
              "components": [
                {
                  "internalType": "uint256",
                  "name": "eventId",
                  "type": "uint256"
                },
                {
                  "internalType": "string",
                  "name": "eventName",
                  "type": "string"
                },
                {
                  "internalType": "uint256",
                  "name": "categoryId",
                  "type": "uint256"
                },
                {
                  "components": [
                    {
                      "internalType": "uint256",
                      "name": "id",
                      "type": "uint256"
                    },
                    {
                      "internalType": "string",
                      "name": "name",
                      "type": "string"
                    },
                    {
                      "internalType": "string",
                      "name": "description",
                      "type": "string"
                    },
                    {
                      "internalType": "uint256",
                      "name": "studentId",
                      "type": "uint256"
                    },
                    {
                      "internalType": "uint256",
                      "name": "categoryId",
                      "type": "uint256"
                    },
                    {
                      "internalType": "uint256",
                      "name": "eventId",
                      "type": "uint256"
                    },
                    {
                      "internalType": "uint256",
                      "name": "voteCount",
                      "type": "uint256"
                    },
                    {
                      "internalType": "bool",
                      "name": "win",
                      "type": "bool"
                    },
                    {
                      "internalType": "string",
                      "name": "imageFileName",
                      "type": "string"
                    }
                  ],
                  "internalType": "struct VotingSystem.Candidate[]",
                  "name": "candidates",
                  "type": "tuple[]"
                },
                {
                  "internalType": "uint256",
                  "name": "candidateCount",
                  "type": "uint256"
                },
                {
                  "internalType": "uint256",
                  "name": "startDateTime",
                  "type": "uint256"
                },
                {
                  "internalType": "uint256",
                  "name": "endDateTime",
                  "type": "uint256"
                },
                {
                  "internalType": "uint256",
                  "name": "status",
                  "type": "uint256"
                }
              ],
              "internalType": "struct VotingSystem.Event[]",
              "name": "events",
              "type": "tuple[]"
            },
            {
              "internalType": "uint256",
              "name": "status",
              "type": "uint256"
            }
          ],
          "internalType": "struct VotingSystem.Category",
          "name": "_category",
          "type": "tuple"
        }
      ],
      "name": "updateCategory",
      "outputs": [],
      "stateMutability": "nonpayable",
      "type": "function"
    },
    {
      "inputs": [
        {
          "internalType": "uint256",
          "name": "_categoryId",
          "type": "uint256"
        },
        {
          "internalType": "string",
          "name": "_newCategoryName",
          "type": "string"
        }
      ],
      "name": "updateCategoryName",
      "outputs": [],
      "stateMutability": "nonpayable",
      "type": "function"
    },
    {
      "inputs": [
        {
          "internalType": "string",
          "name": "_userKey",
          "type": "string"
        }
      ],
      "name": "getAllVotedHistory",
      "outputs": [
        {
          "components": [
            {
              "internalType": "uint256",
              "name": "id",
              "type": "uint256"
            },
            {
              "internalType": "string",
              "name": "voterKey",
              "type": "string"
            },
            {
              "internalType": "uint256",
              "name": "categoryId",
              "type": "uint256"
            },
            {
              "internalType": "uint256",
              "name": "eventId",
              "type": "uint256"
            },
            {
              "internalType": "uint256",
              "name": "votedCandidateId",
              "type": "uint256"
            },
            {
              "internalType": "bool",
              "name": "voted",
              "type": "bool"
            }
          ],
          "internalType": "struct VotingSystem.voteEventStruct[]",
          "name": "",
          "type": "tuple[]"
        }
      ],
      "stateMutability": "view",
      "type": "function"
    },
    {
      "inputs": [
        {
          "internalType": "uint256",
          "name": "_categoryId",
          "type": "uint256"
        },
        {
          "internalType": "string",
          "name": "_eventName",
          "type": "string"
        },
        {
          "internalType": "uint256",
          "name": "_startDateTime",
          "type": "uint256"
        },
        {
          "internalType": "uint256",
          "name": "_endDateTime",
          "type": "uint256"
        }
      ],
      "name": "addEvent",
      "outputs": [],
      "stateMutability": "nonpayable",
      "type": "function"
    },
    {
      "inputs": [
        {
          "components": [
            {
              "internalType": "uint256",
              "name": "eventId",
              "type": "uint256"
            },
            {
              "internalType": "string",
              "name": "eventName",
              "type": "string"
            },
            {
              "internalType": "uint256",
              "name": "categoryId",
              "type": "uint256"
            },
            {
              "components": [
                {
                  "internalType": "uint256",
                  "name": "id",
                  "type": "uint256"
                },
                {
                  "internalType": "string",
                  "name": "name",
                  "type": "string"
                },
                {
                  "internalType": "string",
                  "name": "description",
                  "type": "string"
                },
                {
                  "internalType": "uint256",
                  "name": "studentId",
                  "type": "uint256"
                },
                {
                  "internalType": "uint256",
                  "name": "categoryId",
                  "type": "uint256"
                },
                {
                  "internalType": "uint256",
                  "name": "eventId",
                  "type": "uint256"
                },
                {
                  "internalType": "uint256",
                  "name": "voteCount",
                  "type": "uint256"
                },
                {
                  "internalType": "bool",
                  "name": "win",
                  "type": "bool"
                },
                {
                  "internalType": "string",
                  "name": "imageFileName",
                  "type": "string"
                }
              ],
              "internalType": "struct VotingSystem.Candidate[]",
              "name": "candidates",
              "type": "tuple[]"
            },
            {
              "internalType": "uint256",
              "name": "candidateCount",
              "type": "uint256"
            },
            {
              "internalType": "uint256",
              "name": "startDateTime",
              "type": "uint256"
            },
            {
              "internalType": "uint256",
              "name": "endDateTime",
              "type": "uint256"
            },
            {
              "internalType": "uint256",
              "name": "status",
              "type": "uint256"
            }
          ],
          "internalType": "struct VotingSystem.Event",
          "name": "_event",
          "type": "tuple"
        }
      ],
      "name": "updateEvent",
      "outputs": [],
      "stateMutability": "nonpayable",
      "type": "function"
    },
    {
      "inputs": [
        {
          "internalType": "uint256",
          "name": "_categoryId",
          "type": "uint256"
        },
        {
          "internalType": "uint256",
          "name": "_eventId",
          "type": "uint256"
        },
        {
          "internalType": "string",
          "name": "_candidateName",
          "type": "string"
        },
        {
          "internalType": "string",
          "name": "_description",
          "type": "string"
        },
        {
          "internalType": "uint256",
          "name": "_studentId",
          "type": "uint256"
        },
        {
          "internalType": "string",
          "name": "_imageFileName",
          "type": "string"
        }
      ],
      "name": "addCandidateToEvent",
      "outputs": [],
      "stateMutability": "nonpayable",
      "type": "function"
    },
    {
      "inputs": [
        {
          "internalType": "string",
          "name": "_imageFileName",
          "type": "string"
        }
      ],
      "name": "isImageFileNameUsed",
      "outputs": [
        {
          "internalType": "bool",
          "name": "",
          "type": "bool"
        }
      ],
      "stateMutability": "view",
      "type": "function"
    },
    {
      "inputs": [
        {
          "internalType": "uint256",
          "name": "_categoryId",
          "type": "uint256"
        },
        {
          "internalType": "uint256",
          "name": "_eventId",
          "type": "uint256"
        },
        {
          "internalType": "uint256",
          "name": "_studentId",
          "type": "uint256"
        }
      ],
      "name": "isCandidateExistsInEvent",
      "outputs": [
        {
          "internalType": "bool",
          "name": "",
          "type": "bool"
        }
      ],
      "stateMutability": "view",
      "type": "function"
    },
    {
      "inputs": [
        {
          "internalType": "uint256",
          "name": "_categoryId",
          "type": "uint256"
        },
        {
          "internalType": "uint256",
          "name": "_eventId",
          "type": "uint256"
        },
        {
          "internalType": "uint256",
          "name": "_candidateId",
          "type": "uint256"
        }
      ],
      "name": "isCandidateExistsInEventById",
      "outputs": [
        {
          "internalType": "bool",
          "name": "",
          "type": "bool"
        }
      ],
      "stateMutability": "view",
      "type": "function"
    },
    {
      "inputs": [
        {
          "internalType": "uint256",
          "name": "_categoryId",
          "type": "uint256"
        },
        {
          "internalType": "uint256",
          "name": "_eventId",
          "type": "uint256"
        }
      ],
      "name": "isEventExists",
      "outputs": [
        {
          "internalType": "bool",
          "name": "",
          "type": "bool"
        }
      ],
      "stateMutability": "view",
      "type": "function"
    },
    {
      "inputs": [
        {
          "internalType": "uint256",
          "name": "_categoryId",
          "type": "uint256"
        },
        {
          "internalType": "string",
          "name": "_eventName",
          "type": "string"
        }
      ],
      "name": "isEventExists",
      "outputs": [
        {
          "internalType": "bool",
          "name": "",
          "type": "bool"
        }
      ],
      "stateMutability": "view",
      "type": "function"
    },
    {
      "inputs": [
        {
          "internalType": "uint256",
          "name": "_categoryId",
          "type": "uint256"
        }
      ],
      "name": "getAllCategoryEvent",
      "outputs": [
        {
          "components": [
            {
              "internalType": "uint256",
              "name": "eventId",
              "type": "uint256"
            },
            {
              "internalType": "string",
              "name": "eventName",
              "type": "string"
            },
            {
              "internalType": "uint256",
              "name": "categoryId",
              "type": "uint256"
            },
            {
              "components": [
                {
                  "internalType": "uint256",
                  "name": "id",
                  "type": "uint256"
                },
                {
                  "internalType": "string",
                  "name": "name",
                  "type": "string"
                },
                {
                  "internalType": "string",
                  "name": "description",
                  "type": "string"
                },
                {
                  "internalType": "uint256",
                  "name": "studentId",
                  "type": "uint256"
                },
                {
                  "internalType": "uint256",
                  "name": "categoryId",
                  "type": "uint256"
                },
                {
                  "internalType": "uint256",
                  "name": "eventId",
                  "type": "uint256"
                },
                {
                  "internalType": "uint256",
                  "name": "voteCount",
                  "type": "uint256"
                },
                {
                  "internalType": "bool",
                  "name": "win",
                  "type": "bool"
                },
                {
                  "internalType": "string",
                  "name": "imageFileName",
                  "type": "string"
                }
              ],
              "internalType": "struct VotingSystem.Candidate[]",
              "name": "candidates",
              "type": "tuple[]"
            },
            {
              "internalType": "uint256",
              "name": "candidateCount",
              "type": "uint256"
            },
            {
              "internalType": "uint256",
              "name": "startDateTime",
              "type": "uint256"
            },
            {
              "internalType": "uint256",
              "name": "endDateTime",
              "type": "uint256"
            },
            {
              "internalType": "uint256",
              "name": "status",
              "type": "uint256"
            }
          ],
          "internalType": "struct VotingSystem.Event[]",
          "name": "foundEvent",
          "type": "tuple[]"
        }
      ],
      "stateMutability": "view",
      "type": "function"
    },
    {
      "inputs": [
        {
          "internalType": "uint256",
          "name": "_categoryId",
          "type": "uint256"
        },
        {
          "internalType": "uint256",
          "name": "_eventId",
          "type": "uint256"
        }
      ],
      "name": "getAllCandidatesInEvent",
      "outputs": [
        {
          "components": [
            {
              "internalType": "uint256",
              "name": "id",
              "type": "uint256"
            },
            {
              "internalType": "string",
              "name": "name",
              "type": "string"
            },
            {
              "internalType": "string",
              "name": "description",
              "type": "string"
            },
            {
              "internalType": "uint256",
              "name": "studentId",
              "type": "uint256"
            },
            {
              "internalType": "uint256",
              "name": "categoryId",
              "type": "uint256"
            },
            {
              "internalType": "uint256",
              "name": "eventId",
              "type": "uint256"
            },
            {
              "internalType": "uint256",
              "name": "voteCount",
              "type": "uint256"
            },
            {
              "internalType": "bool",
              "name": "win",
              "type": "bool"
            },
            {
              "internalType": "string",
              "name": "imageFileName",
              "type": "string"
            }
          ],
          "internalType": "struct VotingSystem.Candidate[]",
          "name": "foundCandidates",
          "type": "tuple[]"
        }
      ],
      "stateMutability": "view",
      "type": "function"
    },
    {
      "inputs": [],
      "name": "getAllCandidates",
      "outputs": [
        {
          "components": [
            {
              "internalType": "uint256",
              "name": "id",
              "type": "uint256"
            },
            {
              "internalType": "string",
              "name": "name",
              "type": "string"
            },
            {
              "internalType": "string",
              "name": "description",
              "type": "string"
            },
            {
              "internalType": "uint256",
              "name": "studentId",
              "type": "uint256"
            },
            {
              "internalType": "uint256",
              "name": "categoryId",
              "type": "uint256"
            },
            {
              "internalType": "uint256",
              "name": "eventId",
              "type": "uint256"
            },
            {
              "internalType": "uint256",
              "name": "voteCount",
              "type": "uint256"
            },
            {
              "internalType": "bool",
              "name": "win",
              "type": "bool"
            },
            {
              "internalType": "string",
              "name": "imageFileName",
              "type": "string"
            }
          ],
          "internalType": "struct VotingSystem.Candidate[]",
          "name": "",
          "type": "tuple[]"
        }
      ],
      "stateMutability": "view",
      "type": "function"
    },
    {
      "inputs": [],
      "name": "getAllCategory",
      "outputs": [
        {
          "components": [
            {
              "internalType": "uint256",
              "name": "categoryId",
              "type": "uint256"
            },
            {
              "internalType": "string",
              "name": "categoryName",
              "type": "string"
            },
            {
              "components": [
                {
                  "internalType": "uint256",
                  "name": "eventId",
                  "type": "uint256"
                },
                {
                  "internalType": "string",
                  "name": "eventName",
                  "type": "string"
                },
                {
                  "internalType": "uint256",
                  "name": "categoryId",
                  "type": "uint256"
                },
                {
                  "components": [
                    {
                      "internalType": "uint256",
                      "name": "id",
                      "type": "uint256"
                    },
                    {
                      "internalType": "string",
                      "name": "name",
                      "type": "string"
                    },
                    {
                      "internalType": "string",
                      "name": "description",
                      "type": "string"
                    },
                    {
                      "internalType": "uint256",
                      "name": "studentId",
                      "type": "uint256"
                    },
                    {
                      "internalType": "uint256",
                      "name": "categoryId",
                      "type": "uint256"
                    },
                    {
                      "internalType": "uint256",
                      "name": "eventId",
                      "type": "uint256"
                    },
                    {
                      "internalType": "uint256",
                      "name": "voteCount",
                      "type": "uint256"
                    },
                    {
                      "internalType": "bool",
                      "name": "win",
                      "type": "bool"
                    },
                    {
                      "internalType": "string",
                      "name": "imageFileName",
                      "type": "string"
                    }
                  ],
                  "internalType": "struct VotingSystem.Candidate[]",
                  "name": "candidates",
                  "type": "tuple[]"
                },
                {
                  "internalType": "uint256",
                  "name": "candidateCount",
                  "type": "uint256"
                },
                {
                  "internalType": "uint256",
                  "name": "startDateTime",
                  "type": "uint256"
                },
                {
                  "internalType": "uint256",
                  "name": "endDateTime",
                  "type": "uint256"
                },
                {
                  "internalType": "uint256",
                  "name": "status",
                  "type": "uint256"
                }
              ],
              "internalType": "struct VotingSystem.Event[]",
              "name": "events",
              "type": "tuple[]"
            },
            {
              "internalType": "uint256",
              "name": "status",
              "type": "uint256"
            }
          ],
          "internalType": "struct VotingSystem.Category[]",
          "name": "",
          "type": "tuple[]"
        }
      ],
      "stateMutability": "view",
      "type": "function"
    },
    {
      "inputs": [
        {
          "internalType": "uint256",
          "name": "_categoryId",
          "type": "uint256"
        }
      ],
      "name": "getCategoryById",
      "outputs": [
        {
          "components": [
            {
              "internalType": "uint256",
              "name": "categoryId",
              "type": "uint256"
            },
            {
              "internalType": "string",
              "name": "categoryName",
              "type": "string"
            },
            {
              "components": [
                {
                  "internalType": "uint256",
                  "name": "eventId",
                  "type": "uint256"
                },
                {
                  "internalType": "string",
                  "name": "eventName",
                  "type": "string"
                },
                {
                  "internalType": "uint256",
                  "name": "categoryId",
                  "type": "uint256"
                },
                {
                  "components": [
                    {
                      "internalType": "uint256",
                      "name": "id",
                      "type": "uint256"
                    },
                    {
                      "internalType": "string",
                      "name": "name",
                      "type": "string"
                    },
                    {
                      "internalType": "string",
                      "name": "description",
                      "type": "string"
                    },
                    {
                      "internalType": "uint256",
                      "name": "studentId",
                      "type": "uint256"
                    },
                    {
                      "internalType": "uint256",
                      "name": "categoryId",
                      "type": "uint256"
                    },
                    {
                      "internalType": "uint256",
                      "name": "eventId",
                      "type": "uint256"
                    },
                    {
                      "internalType": "uint256",
                      "name": "voteCount",
                      "type": "uint256"
                    },
                    {
                      "internalType": "bool",
                      "name": "win",
                      "type": "bool"
                    },
                    {
                      "internalType": "string",
                      "name": "imageFileName",
                      "type": "string"
                    }
                  ],
                  "internalType": "struct VotingSystem.Candidate[]",
                  "name": "candidates",
                  "type": "tuple[]"
                },
                {
                  "internalType": "uint256",
                  "name": "candidateCount",
                  "type": "uint256"
                },
                {
                  "internalType": "uint256",
                  "name": "startDateTime",
                  "type": "uint256"
                },
                {
                  "internalType": "uint256",
                  "name": "endDateTime",
                  "type": "uint256"
                },
                {
                  "internalType": "uint256",
                  "name": "status",
                  "type": "uint256"
                }
              ],
              "internalType": "struct VotingSystem.Event[]",
              "name": "events",
              "type": "tuple[]"
            },
            {
              "internalType": "uint256",
              "name": "status",
              "type": "uint256"
            }
          ],
          "internalType": "struct VotingSystem.Category",
          "name": "",
          "type": "tuple"
        }
      ],
      "stateMutability": "view",
      "type": "function"
    },
    {
      "inputs": [],
      "name": "getAllEvent",
      "outputs": [
        {
          "components": [
            {
              "internalType": "uint256",
              "name": "eventId",
              "type": "uint256"
            },
            {
              "internalType": "string",
              "name": "eventName",
              "type": "string"
            },
            {
              "internalType": "uint256",
              "name": "categoryId",
              "type": "uint256"
            },
            {
              "components": [
                {
                  "internalType": "uint256",
                  "name": "id",
                  "type": "uint256"
                },
                {
                  "internalType": "string",
                  "name": "name",
                  "type": "string"
                },
                {
                  "internalType": "string",
                  "name": "description",
                  "type": "string"
                },
                {
                  "internalType": "uint256",
                  "name": "studentId",
                  "type": "uint256"
                },
                {
                  "internalType": "uint256",
                  "name": "categoryId",
                  "type": "uint256"
                },
                {
                  "internalType": "uint256",
                  "name": "eventId",
                  "type": "uint256"
                },
                {
                  "internalType": "uint256",
                  "name": "voteCount",
                  "type": "uint256"
                },
                {
                  "internalType": "bool",
                  "name": "win",
                  "type": "bool"
                },
                {
                  "internalType": "string",
                  "name": "imageFileName",
                  "type": "string"
                }
              ],
              "internalType": "struct VotingSystem.Candidate[]",
              "name": "candidates",
              "type": "tuple[]"
            },
            {
              "internalType": "uint256",
              "name": "candidateCount",
              "type": "uint256"
            },
            {
              "internalType": "uint256",
              "name": "startDateTime",
              "type": "uint256"
            },
            {
              "internalType": "uint256",
              "name": "endDateTime",
              "type": "uint256"
            },
            {
              "internalType": "uint256",
              "name": "status",
              "type": "uint256"
            }
          ],
          "internalType": "struct VotingSystem.Event[]",
          "name": "",
          "type": "tuple[]"
        }
      ],
      "stateMutability": "view",
      "type": "function"
    },
    {
      "inputs": [
        {
          "internalType": "uint256",
          "name": "_categoryId",
          "type": "uint256"
        },
        {
          "internalType": "uint256",
          "name": "_eventId",
          "type": "uint256"
        }
      ],
      "name": "getEventById",
      "outputs": [
        {
          "components": [
            {
              "internalType": "uint256",
              "name": "eventId",
              "type": "uint256"
            },
            {
              "internalType": "string",
              "name": "eventName",
              "type": "string"
            },
            {
              "internalType": "uint256",
              "name": "categoryId",
              "type": "uint256"
            },
            {
              "components": [
                {
                  "internalType": "uint256",
                  "name": "id",
                  "type": "uint256"
                },
                {
                  "internalType": "string",
                  "name": "name",
                  "type": "string"
                },
                {
                  "internalType": "string",
                  "name": "description",
                  "type": "string"
                },
                {
                  "internalType": "uint256",
                  "name": "studentId",
                  "type": "uint256"
                },
                {
                  "internalType": "uint256",
                  "name": "categoryId",
                  "type": "uint256"
                },
                {
                  "internalType": "uint256",
                  "name": "eventId",
                  "type": "uint256"
                },
                {
                  "internalType": "uint256",
                  "name": "voteCount",
                  "type": "uint256"
                },
                {
                  "internalType": "bool",
                  "name": "win",
                  "type": "bool"
                },
                {
                  "internalType": "string",
                  "name": "imageFileName",
                  "type": "string"
                }
              ],
              "internalType": "struct VotingSystem.Candidate[]",
              "name": "candidates",
              "type": "tuple[]"
            },
            {
              "internalType": "uint256",
              "name": "candidateCount",
              "type": "uint256"
            },
            {
              "internalType": "uint256",
              "name": "startDateTime",
              "type": "uint256"
            },
            {
              "internalType": "uint256",
              "name": "endDateTime",
              "type": "uint256"
            },
            {
              "internalType": "uint256",
              "name": "status",
              "type": "uint256"
            }
          ],
          "internalType": "struct VotingSystem.Event",
          "name": "",
          "type": "tuple"
        }
      ],
      "stateMutability": "view",
      "type": "function"
    },
    {
      "inputs": [
        {
          "internalType": "string",
          "name": "_voterKey",
          "type": "string"
        },
        {
          "internalType": "uint256",
          "name": "_candidateId",
          "type": "uint256"
        },
        {
          "internalType": "uint256",
          "name": "_categoryId",
          "type": "uint256"
        },
        {
          "internalType": "uint256",
          "name": "_eventId",
          "type": "uint256"
        }
      ],
      "name": "vote",
      "outputs": [],
      "stateMutability": "nonpayable",
      "type": "function"
    },
    {
      "inputs": [
        {
          "internalType": "uint256",
          "name": "_categoryId",
          "type": "uint256"
        },
        {
          "internalType": "uint256",
          "name": "_eventId",
          "type": "uint256"
        },
        {
          "internalType": "string",
          "name": "_voterKey",
          "type": "string"
        }
      ],
      "name": "isVoted",
      "outputs": [
        {
          "internalType": "bool",
          "name": "",
          "type": "bool"
        }
      ],
      "stateMutability": "view",
      "type": "function"
    },
    {
      "inputs": [
        {
          "internalType": "uint256",
          "name": "_categoryId",
          "type": "uint256"
        },
        {
          "internalType": "uint256",
          "name": "_eventId",
          "type": "uint256"
        }
      ],
      "name": "getVoteEventCandidate",
      "outputs": [
        {
          "components": [
            {
              "internalType": "uint256",
              "name": "id",
              "type": "uint256"
            },
            {
              "internalType": "string",
              "name": "name",
              "type": "string"
            },
            {
              "internalType": "string",
              "name": "description",
              "type": "string"
            },
            {
              "internalType": "uint256",
              "name": "studentId",
              "type": "uint256"
            },
            {
              "internalType": "uint256",
              "name": "categoryId",
              "type": "uint256"
            },
            {
              "internalType": "uint256",
              "name": "eventId",
              "type": "uint256"
            },
            {
              "internalType": "uint256",
              "name": "voteCount",
              "type": "uint256"
            },
            {
              "internalType": "bool",
              "name": "win",
              "type": "bool"
            },
            {
              "internalType": "string",
              "name": "imageFileName",
              "type": "string"
            }
          ],
          "internalType": "struct VotingSystem.Candidate[]",
          "name": "",
          "type": "tuple[]"
        }
      ],
      "stateMutability": "view",
      "type": "function"
    },
    {
      "inputs": [
        {
          "internalType": "uint256",
          "name": "_categoryId",
          "type": "uint256"
        },
        {
          "internalType": "uint256",
          "name": "_eventId",
          "type": "uint256"
        }
      ],
      "name": "markWinner",
      "outputs": [],
      "stateMutability": "nonpayable",
      "type": "function"
    },
    {
      "inputs": [
        {
          "internalType": "uint256",
          "name": "_categoryId",
          "type": "uint256"
        },
        {
          "internalType": "uint256",
          "name": "_eventId",
          "type": "uint256"
        }
      ],
      "name": "isMarkWinner",
      "outputs": [
        {
          "internalType": "bool",
          "name": "isMarket",
          "type": "bool"
        }
      ],
      "stateMutability": "view",
      "type": "function"
    },
    {
      "inputs": [
        {
          "internalType": "uint256",
          "name": "_categoryId",
          "type": "uint256"
        },
        {
          "internalType": "uint256",
          "name": "_eventId",
          "type": "uint256"
        }
      ],
      "name": "whoIsTheWinner",
      "outputs": [
        {
          "components": [
            {
              "internalType": "uint256",
              "name": "id",
              "type": "uint256"
            },
            {
              "internalType": "string",
              "name": "name",
              "type": "string"
            },
            {
              "internalType": "string",
              "name": "description",
              "type": "string"
            },
            {
              "internalType": "uint256",
              "name": "studentId",
              "type": "uint256"
            },
            {
              "internalType": "uint256",
              "name": "categoryId",
              "type": "uint256"
            },
            {
              "internalType": "uint256",
              "name": "eventId",
              "type": "uint256"
            },
            {
              "internalType": "uint256",
              "name": "voteCount",
              "type": "uint256"
            },
            {
              "internalType": "bool",
              "name": "win",
              "type": "bool"
            },
            {
              "internalType": "string",
              "name": "imageFileName",
              "type": "string"
            }
          ],
          "internalType": "struct VotingSystem.Candidate",
          "name": "",
          "type": "tuple"
        }
      ],
      "stateMutability": "view",
      "type": "function"
    }
  ],
  "bytecode": "0x608060405234801561001057600080fd5b50600080546001600160a01b03191633179055615eef80620000336000396000f3fe608060405234801561001057600080fd5b506004361061021c5760003560e01c8063776a657b11610125578063a7e62d1b116100ad578063c0d75cdd1161007c578063c0d75cdd14610508578063cd1d56cd1461051b578063da58c7d91461053b578063dfdffaf414610561578063f29565ed1461057457600080fd5b8063a7e62d1b146104bc578063b62b3e93146104cf578063bf03f677146104e2578063bf196e16146104f557600080fd5b806388ad4376116100f457806388ad4376146104365780638da5cb5b146104495780638f2c280514610474578063909f850214610489578063a1a02564146104a957600080fd5b8063776a657b146103ea57806379cf6ecd146103fd578063819ac74c146104105780638801b5b61461042357600080fd5b806350515a77116101a857806360e93f3c1161017757806360e93f3c1461035f578063642d20ad1461037f578063689b6fbf146103a4578063748f55a8146103b757806376304984146103d757600080fd5b806350515a7714610306578063514fc62a146103195780635a8ffc791461032c5780635b4d727c1461034c57600080fd5b8063400af02a116101ef578063400af02a1461028a578063401a52dd146102aa57806340776e58146102bd5780634ba31db6146102e05780634fb43250146102f357600080fd5b80631002cdd4146102215780632e0dcbf71461023f5780632e6997fe146102545780633e60e2f514610269575b600080fd5b610229610587565b604051610236919061517f565b60405180910390f35b61025261024d366004615304565b6109e5565b005b61025c610b14565b6040516102369190615340565b61027c610277366004615395565b610c96565b604051908152602001610236565b61029d610298366004615395565b610cd4565b60405161023691906153f8565b6102296102b8366004615495565b610db1565b6102d06102cb3660046154ae565b6111ba565b6040519015158152602001610236565b6102d06102ee3660046154d0565b611619565b6102d06103013660046154ae565b6116fc565b6102d061031436600461551f565b6117a8565b6102d0610327366004615304565b611867565b61033f61033a366004615495565b6118cd565b604051610236919061555b565b61025c61035a3660046154ae565b6119c1565b61037261036d366004615495565b611d5d565b60405161023691906155ff565b61039261038d366004615495565b6121d5565b60405161023696959493929190615612565b6102d06103b2366004615395565b612296565b6103ca6103c53660046154ae565b6122b7565b6040516102369190615652565b6102526103e5366004615665565b61276a565b6102526103f8366004615708565b612abb565b61025261040b3660046159a0565b612dda565b61025261041e3660046159d4565b612f05565b61029d610431366004615395565b613034565b6102d0610444366004615304565b613410565b60005461045c906001600160a01b031681565b6040516001600160a01b039091168152602001610236565b61047c61343b565b6040516102369190615a2a565b61049c6104973660046154ae565b61394c565b6040516102369190615a7f565b6102d06104b7366004615304565b613e19565b61025c6104ca3660046154ae565b613efd565b6102526104dd366004615a92565b614330565b6102d06104f0366004615ba5565b6143c2565b61025261050336600461551f565b61444a565b6102526105163660046154ae565b614547565b61052e610529366004615304565b614751565b6040516102369190615bd1565b61054e610549366004615495565b614954565b6040516102369796959493929190615c72565b6102d061056f366004615ba5565b614baf565b610252610582366004615395565b614c37565b606060006009546001600160401b038111156105a5576105a56151e1565b6040519080825280602002602001820160405280156105de57816020015b6105cb614ea5565b8152602001906001900390816105c35790505b5090506000805b6007548110156109dd5760005b600160006106008483615cf5565b81526020810191909152604001600020600201548110156109ca57600160006106298483615cf5565b8152602001908152602001600020600201818154811061064b5761064b615d0d565b9060005260206000209060080201604051806101000160405290816000820154815260200160018201805461067f90615d23565b80601f01602080910402602001604051908101604052809291908181526020018280546106ab90615d23565b80156106f85780601f106106cd576101008083540402835291602001916106f8565b820191906000526020600020905b8154815290600101906020018083116106db57829003601f168201915b505050505081526020016002820154815260200160038201805480602002602001604051908101604052809291908181526020016000905b8282101561095e5783829060005260206000209060090201604051806101200160405290816000820154815260200160018201805461076e90615d23565b80601f016020809104026020016040519081016040528092919081815260200182805461079a90615d23565b80156107e75780601f106107bc576101008083540402835291602001916107e7565b820191906000526020600020905b8154815290600101906020018083116107ca57829003601f168201915b5050505050815260200160028201805461080090615d23565b80601f016020809104026020016040519081016040528092919081815260200182805461082c90615d23565b80156108795780601f1061084e57610100808354040283529160200191610879565b820191906000526020600020905b81548152906001019060200180831161085c57829003601f168201915b505050918352505060038201546020820152600482015460408201526005820154606082015260068201546080820152600782015460ff16151560a082015260088201805460c0909201916108cd90615d23565b80601f01602080910402602001604051908101604052809291908181526020018280546108f990615d23565b80156109465780601f1061091b57610100808354040283529160200191610946565b820191906000526020600020905b81548152906001019060200180831161092957829003601f168201915b50505050508152505081526020019060010190610730565b5050505081526020016004820154815260200160058201548152602001600682015481526020016007820154815250508484815181106109a0576109a0615d0d565b60209081029190910101526109b6600184615cf5565b9250806109c281615d57565b9150506105f2565b50806109d581615d57565b9150506105e5565b509092915050565b60015b6007548111610a885760016000828152602001908152602001600020600101604051610a149190615d70565b6040518091039020828051906020012003610a765760405162461bcd60e51b815260206004820152601760248201527f43617465676f727920616c72656164792065786973747300000000000000000060448201526064015b60405180910390fd5b80610a8081615d57565b9150506109e8565b50600160076000828254610a9c9190615cf5565b9091555050600754600090815260016020818152604090922083519092610ac99284019190850190614eea565b5060078054825560016003830155546040517f5bae3f75753ef0a1c0ea0f6c51d7b43a4b8d116572b8b7b5cb771f9ad32d4ae590610b0890859061555b565b60405180910390a25050565b606060006008546001600160401b03811115610b3257610b326151e1565b604051908082528060200260200182016040528015610b6b57816020015b610b58614f6e565b815260200190600190039081610b505790505b50905060006009546001600160401b03811115610b8a57610b8a6151e1565b604051908082528060200260200182016040528015610bc357816020015b610bb0614ea5565b815260200190600190039081610ba85790505b509050610bce610587565b90506000805b600954811015610c8d5760005b838281518110610bf357610bf3615d0d565b60200260200101516060015151811015610c7a57838281518110610c1957610c19615d0d565b6020026020010151606001518181518110610c3657610c36615d0d565b6020026020010151858481518110610c5057610c50615d0d565b6020908102919091010152610c66600184615cf5565b925080610c7281615d57565b915050610be1565b5080610c8581615d57565b915050610bd4565b50919392505050565b600080610ca38484613034565b8051909150600003610cc75760405162461bcd60e51b8152600401610a6d90615e0b565b60a0015190505b92915050565b610d176040518060e00160405280600081526020016060815260200160608152602001600080191681526020016060815260200160008152602001606081525090565b6000610d238484613034565b8051909150600003610d475760405162461bcd60e51b8152600401610a6d90615e0b565b8060a00151600114610daa5760405162461bcd60e51b815260206004820152602660248201527f596f7572206163636f756e74207761732062616e6e6564206f72206e6f74207660448201526565726966792160d01b6064820152608401610a6d565b9392505050565b60008181526001602052604081206002810154606092906001600160401b03811115610ddf57610ddf6151e1565b604051908082528060200260200182016040528015610e1857816020015b610e05614ea5565b815260200190600190039081610dfd5790505b50905060005b60028301548110156111b257826002018181548110610e3f57610e3f615d0d565b90600052602060002090600802016040518061010001604052908160008201548152602001600182018054610e7390615d23565b80601f0160208091040260200160405190810160405280929190818152602001828054610e9f90615d23565b8015610eec5780601f10610ec157610100808354040283529160200191610eec565b820191906000526020600020905b815481529060010190602001808311610ecf57829003601f168201915b505050505081526020016002820154815260200160038201805480602002602001604051908101604052809291908181526020016000905b8282101561115257838290600052602060002090600902016040518061012001604052908160008201548152602001600182018054610f6290615d23565b80601f0160208091040260200160405190810160405280929190818152602001828054610f8e90615d23565b8015610fdb5780601f10610fb057610100808354040283529160200191610fdb565b820191906000526020600020905b815481529060010190602001808311610fbe57829003601f168201915b50505050508152602001600282018054610ff490615d23565b80601f016020809104026020016040519081016040528092919081815260200182805461102090615d23565b801561106d5780601f106110425761010080835404028352916020019161106d565b820191906000526020600020905b81548152906001019060200180831161105057829003601f168201915b505050918352505060038201546020820152600482015460408201526005820154606082015260068201546080820152600782015460ff16151560a082015260088201805460c0909201916110c190615d23565b80601f01602080910402602001604051908101604052809291908181526020018280546110ed90615d23565b801561113a5780601f1061110f5761010080835404028352916020019161113a565b820191906000526020600020905b81548152906001019060200180831161111d57829003601f168201915b50505050508152505081526020019060010190610f24565b50505050815260200160048201548152602001600582015481526020016006820154815260200160078201548152505082828151811061119457611194615d0d565b602002602001018190525080806111aa90615d57565b915050610e1e565b509392505050565b600082815260016020908152604080832060020180548251818502810185019093528083528493849084015b828210156115425783829060005260206000209060080201604051806101000160405290816000820154815260200160018201805461122490615d23565b80601f016020809104026020016040519081016040528092919081815260200182805461125090615d23565b801561129d5780601f106112725761010080835404028352916020019161129d565b820191906000526020600020905b81548152906001019060200180831161128057829003601f168201915b505050505081526020016002820154815260200160038201805480602002602001604051908101604052809291908181526020016000905b828210156115035783829060005260206000209060090201604051806101200160405290816000820154815260200160018201805461131390615d23565b80601f016020809104026020016040519081016040528092919081815260200182805461133f90615d23565b801561138c5780601f106113615761010080835404028352916020019161138c565b820191906000526020600020905b81548152906001019060200180831161136f57829003601f168201915b505050505081526020016002820180546113a590615d23565b80601f01602080910402602001604051908101604052809291908181526020018280546113d190615d23565b801561141e5780601f106113f35761010080835404028352916020019161141e565b820191906000526020600020905b81548152906001019060200180831161140157829003601f168201915b505050918352505060038201546020820152600482015460408201526005820154606082015260068201546080820152600782015460ff16151560a082015260088201805460c09092019161147290615d23565b80601f016020809104026020016040519081016040528092919081815260200182805461149e90615d23565b80156114eb5780601f106114c0576101008083540402835291602001916114eb565b820191906000526020600020905b8154815290600101906020018083116114ce57829003601f168201915b505050505081525050815260200190600101906112d5565b505050508152602001600482015481526020016005820154815260200160068201548152602001600782015481525050815260200190600101906111e6565b505050509050606060005b82518110156115ad578483828151811061156957611569615d0d565b6020026020010151600001510361159b5782818151811061158c5761158c615d0d565b60200260200101516060015191505b806115a581615d57565b91505061154d565b5060005b600182516115bf9190615e4f565b81101561160d578181815181106115d8576115d8615d0d565b602002602001015160e00151151560011515036115fb5760019350505050610cce565b8061160581615d57565b9150506115b1565b50600095945050505050565b60008381526001602052604081205481036116465760405162461bcd60e51b8152600401610a6d90615e66565b60015b600a5481116116f15760008181526004602052604090206002015485148015611682575060008181526004602052604090206003015484145b80156116be57508280519060200120600460008381526020019081526020016000206001016040516116b49190615d70565b6040518091039020145b156116df5760009081526004602052604090206005015460ff169050610daa565b806116e981615d57565b915050611649565b506000949350505050565b60008281526001602052604081205481036117295760405162461bcd60e51b8152600401610a6d90615e66565b60005b60008481526001602052604090206002015481101561179e57600084815260016020526040902060020180548491908390811061176b5761176b615d0d565b9060005260206000209060080201600001540361178c576001915050610cce565b8061179681615d57565b91505061172c565b5060009392505050565b60008281526001602052604081205481036117d55760405162461bcd60e51b8152600401610a6d90615e66565b60005b60008481526001602052604090206002015481101561179e57828051906020012060016000868152602001908152602001600020600201828154811061182057611820615d0d565b906000526020600020906008020160010160405161183e9190615d70565b604051809103902003611855576001915050610cce565b8061185f81615d57565b9150506117d8565b600060015b600b5481116118c4576000818152600560205260409081902090516118949160010190615d70565b60405180910390208380519060200120036118b25750600192915050565b806118bc81615d57565b91505061186c565b50600092915050565b60606000821180156118e15750600b548211155b6119205760405162461bcd60e51b815260206004820152601060248201526f125b9d985b1a59081d9bdd195c88125160821b6044820152606401610a6d565b6000828152600560205260409020600201805461193c90615d23565b80601f016020809104026020016040519081016040528092919081815260200182805461196890615d23565b80156119b55780601f1061198a576101008083540402835291602001916119b5565b820191906000526020600020905b81548152906001019060200180831161199857829003601f168201915b50505050509050919050565b60008281526001602052604081206060915b6002820154811015611d5557838260020182815481106119f5576119f5615d0d565b90600052602060002090600802016000015403611d43576000826002018281548110611a2357611a23615d0d565b9060005260206000209060080201600401546001600160401b03811115611a4c57611a4c6151e1565b604051908082528060200260200182016040528015611a8557816020015b611a72614f6e565b815260200190600190039081611a6a5790505b50905060005b836002018381548110611aa057611aa0615d0d565b906000526020600020906008020160030180549050811015611d3857836002018381548110611ad157611ad1615d0d565b90600052602060002090600802016003018181548110611af357611af3615d0d565b90600052602060002090600902016040518061012001604052908160008201548152602001600182018054611b2790615d23565b80601f0160208091040260200160405190810160405280929190818152602001828054611b5390615d23565b8015611ba05780601f10611b7557610100808354040283529160200191611ba0565b820191906000526020600020905b815481529060010190602001808311611b8357829003601f168201915b50505050508152602001600282018054611bb990615d23565b80601f0160208091040260200160405190810160405280929190818152602001828054611be590615d23565b8015611c325780601f10611c0757610100808354040283529160200191611c32565b820191906000526020600020905b815481529060010190602001808311611c1557829003601f168201915b505050918352505060038201546020820152600482015460408201526005820154606082015260068201546080820152600782015460ff16151560a082015260088201805460c090920191611c8690615d23565b80601f0160208091040260200160405190810160405280929190818152602001828054611cb290615d23565b8015611cff5780601f10611cd457610100808354040283529160200191611cff565b820191906000526020600020905b815481529060010190602001808311611ce257829003601f168201915b505050505081525050828281518110611d1a57611d1a615d0d565b60200260200101819052508080611d3090615d57565b915050611a8b565b509250610cce915050565b80611d4d81615d57565b9150506119d3565b505092915050565b611d886040518060800160405280600081526020016060815260200160608152602001600081525090565b60008281526001602081815260409283902083516080810190945280548452918201805491840191611db990615d23565b80601f0160208091040260200160405190810160405280929190818152602001828054611de590615d23565b8015611e325780601f10611e0757610100808354040283529160200191611e32565b820191906000526020600020905b815481529060010190602001808311611e1557829003601f168201915b5050505050815260200160028201805480602002602001604051908101604052809291908181526020016000905b828210156121bc57838290600052602060002090600802016040518061010001604052908160008201548152602001600182018054611e9e90615d23565b80601f0160208091040260200160405190810160405280929190818152602001828054611eca90615d23565b8015611f175780601f10611eec57610100808354040283529160200191611f17565b820191906000526020600020905b815481529060010190602001808311611efa57829003601f168201915b505050505081526020016002820154815260200160038201805480602002602001604051908101604052809291908181526020016000905b8282101561217d57838290600052602060002090600902016040518061012001604052908160008201548152602001600182018054611f8d90615d23565b80601f0160208091040260200160405190810160405280929190818152602001828054611fb990615d23565b80156120065780601f10611fdb57610100808354040283529160200191612006565b820191906000526020600020905b815481529060010190602001808311611fe957829003601f168201915b5050505050815260200160028201805461201f90615d23565b80601f016020809104026020016040519081016040528092919081815260200182805461204b90615d23565b80156120985780601f1061206d57610100808354040283529160200191612098565b820191906000526020600020905b81548152906001019060200180831161207b57829003601f168201915b505050918352505060038201546020820152600482015460408201526005820154606082015260068201546080820152600782015460ff16151560a082015260088201805460c0909201916120ec90615d23565b80601f016020809104026020016040519081016040528092919081815260200182805461211890615d23565b80156121655780601f1061213a57610100808354040283529160200191612165565b820191906000526020600020905b81548152906001019060200180831161214857829003601f168201915b50505050508152505081526020019060010190611f4f565b50505050815260200160048201548152602001600582015481526020016006820154815260200160078201548152505081526020019060010190611e60565b5050505081526020016003820154815250509050919050565b600460205260009081526040902080546001820180549192916121f790615d23565b80601f016020809104026020016040519081016040528092919081815260200182805461222390615d23565b80156122705780601f1061224557610100808354040283529160200191612270565b820191906000526020600020905b81548152906001019060200180831161225357829003601f168201915b505050506002830154600384015460048501546005909501549394919390925060ff1686565b6000806122a38484613034565b80519091501561179e576001915050610cce565b6122bf614f6e565b600083815260016020908152604080832060020180548251818502810185019093528083529192909190849084015b8282101561264a5783829060005260206000209060080201604051806101000160405290816000820154815260200160018201805461232c90615d23565b80601f016020809104026020016040519081016040528092919081815260200182805461235890615d23565b80156123a55780601f1061237a576101008083540402835291602001916123a5565b820191906000526020600020905b81548152906001019060200180831161238857829003601f168201915b505050505081526020016002820154815260200160038201805480602002602001604051908101604052809291908181526020016000905b8282101561260b5783829060005260206000209060090201604051806101200160405290816000820154815260200160018201805461241b90615d23565b80601f016020809104026020016040519081016040528092919081815260200182805461244790615d23565b80156124945780601f1061246957610100808354040283529160200191612494565b820191906000526020600020905b81548152906001019060200180831161247757829003601f168201915b505050505081526020016002820180546124ad90615d23565b80601f01602080910402602001604051908101604052809291908181526020018280546124d990615d23565b80156125265780601f106124fb57610100808354040283529160200191612526565b820191906000526020600020905b81548152906001019060200180831161250957829003601f168201915b505050918352505060038201546020820152600482015460408201526005820154606082015260068201546080820152600782015460ff16151560a082015260088201805460c09092019161257a90615d23565b80601f01602080910402602001604051908101604052809291908181526020018280546125a690615d23565b80156125f35780601f106125c8576101008083540402835291602001916125f3565b820191906000526020600020905b8154815290600101906020018083116125d657829003601f168201915b505050505081525050815260200190600101906123dd565b505050508152602001600482015481526020016005820154815260200160068201548152602001600782015481525050815260200190600101906122ee565b505050509050606060005b82518110156126b5578483828151811061267157612671615d0d565b602002602001015160000151036126a35782818151811061269457612694615d0d565b60200260200101516060015191505b806126ad81615d57565b915050612655565b506000816000815181106126cb576126cb615d0d565b6020026020010151905060005b600183516126e69190615e4f565b81101561275957826126f9826001615cf5565b8151811061270957612709615d0d565b602002602001015160c001518260c001511015612747578261272c826001615cf5565b8151811061273c5761273c615d0d565b602002602001015191505b8061275181615d57565b9150506126d8565b50600160e082015295945050505050565b60008681526001602052604081205490036127975760405162461bcd60e51b8152600401610a6d90615e66565b6127a186866116fc565b6127e45760405162461bcd60e51b8152602060048201526014602482015273115d995b9d08191bd95cc81b9bdd08195e1a5cdd60621b6044820152606401610a6d565b6127ef868684614baf565b1561283c5760405162461bcd60e51b815260206004820152601860248201527f43616e64696461746520616c72656164792065786973747300000000000000006044820152606401610a6d565b60068160405161284c9190615e9d565b9081526040519081900360200190205460ff16156128ac5760405162461bcd60e51b815260206004820152601e60248201527f496d6167652066696c65206e616d6520616c726561647920696e2075736500006044820152606401610a6d565b6001600860008282546128bf9190615cf5565b9091555050604080516101208101825260085481526020808201879052818301869052606082018590526080820189905260a08201889052600060c0830181905260e083018190526101008301859052898152600190915291822090915b6002820154811015612a7e578782600201828154811061293f5761293f615d0d565b90600052602060002090600802016000015403612a6c5781600201818154811061296b5761296b615d0d565b600091825260208083206003600890930201919091018054600181810183559184529282902086516009909402019283558582015180518794936129b3938501920190614eea565b50604082015180516129cf916002840191602090910190614eea565b50606082015160038201556080820151600482015560a0820151600582015560c0820151600682015560e082015160078201805460ff19169115159190911790556101008201518051612a2c916008840191602090910190614eea565b5050506001826002018281548110612a4657612a46615d0d565b90600052602060002090600802016004016000828254612a669190615cf5565b90915550505b80612a7681615d57565b91505061291d565b506001600684604051612a919190615e9d565b908152604051908190036020019020805491151560ff199092169190911790555050505050505050565b6000828152600160205260408120549003612b135760405162461bcd60e51b815260206004820152601860248201527743617465676f727920646f6573206e6f742065786973747360401b6044820152606401610a6d565b600954600003612b5d5760405162461bcd60e51b81526020600482015260156024820152744576656e7420646f6573206e6f742065786973747360581b6044820152606401610a6d565b612b688282856143c2565b1515600114612bb95760405162461bcd60e51b815260206004820152601a60248201527f43616e6469646174657320646f6573206e6f74206578697374730000000000006044820152606401610a6d565b60015b600a548111612c9f57600081815260046020526040908190209051612be49160010190615d70565b60405180910390208580519060200120148015612c11575060008181526004602052604090206002015483145b8015612c2d575060008181526004602052604090206003015482145b15612c8d5760008181526004602052604090206005015460ff1615612c885760405162461bcd60e51b8152602060048201526011602482015270165bdd48185b1c9958591e481d9bdd1959607a1b6044820152606401610a6d565b612c9f565b80612c9781615d57565b915050612bbc565b506001600a6000828254612cb39190615cf5565b90915550506040805160c081018252600a5480825260208083018881528385018790526060840186905260808401889052600160a0850181905260009384526004835294909220835181559151805193948594612d17939185019290910190614eea565b5060408201516002820155606082015160038201556080820151600482015560a0909101516005909101805460ff1916911515919091179055612d5b838386614d1d565b6040805160208101859052808201849052815180820383018152606090910191829052908590612d8c908390615e9d565b604051809103902087604051612da29190615e9d565b604051908190038120907f336badd820d33e68eff2381e343928896ff7147adf09b298939d0a7b001f072e90600090a4505050505050565b60408082015160009081526001602052908120549003612e375760405162461bcd60e51b815260206004820152601860248201527743617465676f727920646f6573206e6f742065786973747360401b6044820152606401610a6d565b612e49816040015182600001516116fc565b612e8d5760405162461bcd60e51b81526020600482015260156024820152744576656e7420646f6573206e6f742065786973742160581b6044820152606401610a6d565b6000600160008360400151815260200190815260200160002060020160018360000151612eba9190615e4f565b81548110612eca57612eca615d0d565b906000526020600020906008020190508160200151816001019080519060200190612ef6929190614eea565b5060e090910151600790910155565b6000848152600160205260408120549003612f5c5760405162461bcd60e51b815260206004820152601760248201527643617465676f727920686173206e6f742065786973747360481b6044820152606401610a6d565b612f6684846117a8565b15612faa5760405162461bcd60e51b81526020600482015260146024820152734576656e7420616c72656164792065786973747360601b6044820152606401610a6d565b6000848152600160208190526040822060098054919392918390612fcf908490615cf5565b918290555060028401805460018181018355600092835260209283902060089092029091018381558951939550935061300e9290840191890190614eea565b506002810196909655505060016007850155600584019190915560069092019190915550565b6130776040518060e00160405280600081526020016060815260200160608152602001600080191681526020016060815260200160008152602001606081525090565b60008260405160200161308a9190615e9d565b60408051601f198184030181529190528051602090910120905060015b600b5481116133a8576000818152600560205260409081902090516130cf9160020190615d70565b604051809103902085805190602001201480156131045750600081815260056020526040902060030154613104908390614e2d565b1561339657600560008281526020019081526020016000206040518060e00160405290816000820154815260200160018201805461314190615d23565b80601f016020809104026020016040519081016040528092919081815260200182805461316d90615d23565b80156131ba5780601f1061318f576101008083540402835291602001916131ba565b820191906000526020600020905b81548152906001019060200180831161319d57829003601f168201915b505050505081526020016002820180546131d390615d23565b80601f01602080910402602001604051908101604052809291908181526020018280546131ff90615d23565b801561324c5780601f106132215761010080835404028352916020019161324c565b820191906000526020600020905b81548152906001019060200180831161322f57829003601f168201915b505050505081526020016003820154815260200160048201805461326f90615d23565b80601f016020809104026020016040519081016040528092919081815260200182805461329b90615d23565b80156132e85780601f106132bd576101008083540402835291602001916132e8565b820191906000526020600020905b8154815290600101906020018083116132cb57829003601f168201915b505050505081526020016005820154815260200160068201805461330b90615d23565b80601f016020809104026020016040519081016040528092919081815260200182805461333790615d23565b80156133845780601f1061335957610100808354040283529160200191613384565b820191906000526020600020905b81548152906001019060200180831161336757829003601f168201915b50505050508152505092505050610cce565b806133a081615d57565b9150506130a7565b50506040805160e08101825260008082528251602080820185528282528084019190915283518082018552828152838501526060830182905283518082018552828152608084015260a083018290528351908101909352825260c08101919091529392505050565b60006006826040516134229190615e9d565b9081526040519081900360200190205460ff1692915050565b606060006007546001600160401b03811115613459576134596151e1565b6040519080825280602002602001820160405280156134b557816020015b6134a26040518060800160405280600081526020016060815260200160608152602001600081525090565b8152602001906001900390816134775790505b50905060015b600754811161394657600081815260016020818152604092839020835160808101909452805484529182018054918401916134f590615d23565b80601f016020809104026020016040519081016040528092919081815260200182805461352190615d23565b801561356e5780601f106135435761010080835404028352916020019161356e565b820191906000526020600020905b81548152906001019060200180831161355157829003601f168201915b5050505050815260200160028201805480602002602001604051908101604052809291908181526020016000905b828210156138f8578382906000526020600020906008020160405180610100016040529081600082015481526020016001820180546135da90615d23565b80601f016020809104026020016040519081016040528092919081815260200182805461360690615d23565b80156136535780601f1061362857610100808354040283529160200191613653565b820191906000526020600020905b81548152906001019060200180831161363657829003601f168201915b505050505081526020016002820154815260200160038201805480602002602001604051908101604052809291908181526020016000905b828210156138b9578382906000526020600020906009020160405180610120016040529081600082015481526020016001820180546136c990615d23565b80601f01602080910402602001604051908101604052809291908181526020018280546136f590615d23565b80156137425780601f1061371757610100808354040283529160200191613742565b820191906000526020600020905b81548152906001019060200180831161372557829003601f168201915b5050505050815260200160028201805461375b90615d23565b80601f016020809104026020016040519081016040528092919081815260200182805461378790615d23565b80156137d45780601f106137a9576101008083540402835291602001916137d4565b820191906000526020600020905b8154815290600101906020018083116137b757829003601f168201915b505050918352505060038201546020820152600482015460408201526005820154606082015260068201546080820152600782015460ff16151560a082015260088201805460c09092019161382890615d23565b80601f016020809104026020016040519081016040528092919081815260200182805461385490615d23565b80156138a15780601f10613876576101008083540402835291602001916138a1565b820191906000526020600020905b81548152906001019060200180831161388457829003601f168201915b5050505050815250508152602001906001019061368b565b5050505081526020016004820154815260200160058201548152602001600682015481526020016007820154815250508152602001906001019061359c565b505050508152602001600382015481525050826001836139189190615e4f565b8151811061392857613928615d0d565b6020026020010181905250808061393e90615d57565b9150506134bb565b50919050565b613954614ea5565b600083815260016020818152604080842081516080810190925280548252928301805491939284019161398690615d23565b80601f01602080910402602001604051908101604052809291908181526020018280546139b290615d23565b80156139ff5780601f106139d4576101008083540402835291602001916139ff565b820191906000526020600020905b8154815290600101906020018083116139e257829003601f168201915b5050505050815260200160028201805480602002602001604051908101604052809291908181526020016000905b82821015613d8957838290600052602060002090600802016040518061010001604052908160008201548152602001600182018054613a6b90615d23565b80601f0160208091040260200160405190810160405280929190818152602001828054613a9790615d23565b8015613ae45780601f10613ab957610100808354040283529160200191613ae4565b820191906000526020600020905b815481529060010190602001808311613ac757829003601f168201915b505050505081526020016002820154815260200160038201805480602002602001604051908101604052809291908181526020016000905b82821015613d4a57838290600052602060002090600902016040518061012001604052908160008201548152602001600182018054613b5a90615d23565b80601f0160208091040260200160405190810160405280929190818152602001828054613b8690615d23565b8015613bd35780601f10613ba857610100808354040283529160200191613bd3565b820191906000526020600020905b815481529060010190602001808311613bb657829003601f168201915b50505050508152602001600282018054613bec90615d23565b80601f0160208091040260200160405190810160405280929190818152602001828054613c1890615d23565b8015613c655780601f10613c3a57610100808354040283529160200191613c65565b820191906000526020600020905b815481529060010190602001808311613c4857829003601f168201915b505050918352505060038201546020820152600482015460408201526005820154606082015260068201546080820152600782015460ff16151560a082015260088201805460c090920191613cb990615d23565b80601f0160208091040260200160405190810160405280929190818152602001828054613ce590615d23565b8015613d325780601f10613d0757610100808354040283529160200191613d32565b820191906000526020600020905b815481529060010190602001808311613d1557829003601f168201915b50505050508152505081526020019060010190613b1c565b50505050815260200160048201548152602001600582015481526020016006820154815260200160078201548152505081526020019060010190613a2d565b5050505081526020016003820154815250509050613da5614ea5565b60005b826040015151811015613e10578483604001518281518110613dcc57613dcc615d0d565b60200260200101516000015103613dfe5782604001518181518110613df357613df3615d0d565b602002602001015191505b80613e0881615d57565b915050613da8565b50949350505050565b6001600090815260056020527f1471eb6eb2c5e789fc3de43f8ce62938c7d1836ec861730447e2ada8fd81017b548103613e8d5760405162461bcd60e51b81526020600482015260156024820152744e6f20766f74657220696e20746865206c6973742160581b6044820152606401610a6d565b60015b600b5481116118c457600081815260056020526040908190209051613eb89160060190615d70565b6040518091039020838051906020012003613eeb5760009081526005602081905260409091206001910181905592915050565b80613ef581615d57565b915050613e90565b6000828152600160209081526040808320600201805482518185028101850190935280835260609493849084015b8282101561428757838290600052602060002090600802016040518061010001604052908160008201548152602001600182018054613f6990615d23565b80601f0160208091040260200160405190810160405280929190818152602001828054613f9590615d23565b8015613fe25780601f10613fb757610100808354040283529160200191613fe2565b820191906000526020600020905b815481529060010190602001808311613fc557829003601f168201915b505050505081526020016002820154815260200160038201805480602002602001604051908101604052809291908181526020016000905b828210156142485783829060005260206000209060090201604051806101200160405290816000820154815260200160018201805461405890615d23565b80601f016020809104026020016040519081016040528092919081815260200182805461408490615d23565b80156140d15780601f106140a6576101008083540402835291602001916140d1565b820191906000526020600020905b8154815290600101906020018083116140b457829003601f168201915b505050505081526020016002820180546140ea90615d23565b80601f016020809104026020016040519081016040528092919081815260200182805461411690615d23565b80156141635780601f1061413857610100808354040283529160200191614163565b820191906000526020600020905b81548152906001019060200180831161414657829003601f168201915b505050918352505060038201546020820152600482015460408201526005820154606082015260068201546080820152600782015460ff16151560a082015260088201805460c0909201916141b790615d23565b80601f01602080910402602001604051908101604052809291908181526020018280546141e390615d23565b80156142305780601f1061420557610100808354040283529160200191614230565b820191906000526020600020905b81548152906001019060200180831161421357829003601f168201915b5050505050815250508152602001906001019061401a565b50505050815260200160048201548152602001600582015481526020016006820154815260200160078201548152505081526020019060010190613f2b565b50505050905060005b81518110156142f657838282815181106142ac576142ac615d0d565b602002602001015160000151036142e4578181815181106142cf576142cf615d0d565b60200260200101516060015192505050610cce565b806142ee81615d57565b915050614290565b506040805160008082526020820190925290613e10565b614315614f6e565b81526020019060019003908161430d57905050949350505050565b805160009081526001602052604081205490036143895760405162461bcd60e51b815260206004820152601760248201527643617465676f727920686173206e6f742065786973747360481b6044820152606401610a6d565b8051600090815260016020818152604090922082840151805191936143b393850192910190614eea565b50606090910151600390910155565b60008381526001602052604081205481036143ef5760405162461bcd60e51b8152600401610a6d90615e66565b60006143fb85856119c1565b905060005b815181101561160d578382828151811061441c5761441c615d0d565b6020026020010151600001510361443857600192505050610daa565b8061444281615d57565b915050614400565b60008281526001602052604081205490036144775760405162461bcd60e51b8152600401610a6d90615e66565b60015b600754811161451c5782811461450a57600160008281526020019081526020016000206001016040516144ad9190615d70565b604051809103902082805190602001200361450a5760405162461bcd60e51b815260206004820152601c60248201527f43617465676f7279206e616d6520616c726561647920657869737473000000006044820152606401610a6d565b8061451481615d57565b91505061447a565b506000828152600160208181526040909220835161454293919092019190840190614eea565b505050565b600082815260016020525b60008381526001602052604090206002015481101561454257600083815260016020526040902060020180548391908390811061459157614591615d0d565b9060005260206000209060080201600001540361473f5760008381526001602052604081206002018054839081106145cb576145cb615d0d565b90600052602060002090600802016003016000815481106145ee576145ee615d0d565b9060005260206000209060090201905060005b600085815260016020819052604090912060020180548590811061462757614627615d0d565b9060005260206000209060080201600301805490506146469190615e4f565b81101561472f57600085815260016020526040902060020180548490811061467057614670615d0d565b906000526020600020906008020160030181600161468e9190615cf5565b8154811061469e5761469e615d0d565b9060005260206000209060090201600601548260060154101561471d5760008581526001602052604090206002018054849081106146de576146de615d0d565b90600052602060002090600802016003018160016146fc9190615cf5565b8154811061470c5761470c615d0d565b906000526020600020906009020191505b8061472781615d57565b915050614601565b50600701805460ff191660011790555b8061474981615d57565b915050614552565b60606000600a546001600160401b0381111561476f5761476f6151e1565b6040519080825280602002602001820160405280156147db57816020015b6147c86040518060c0016040528060008152602001606081526020016000815260200160008152602001600081526020016000151581525090565b81526020019060019003908161478d5790505b509050600060015b600a54811161494b578480519060200120600460008381526020019081526020016000206001016040516148179190615d70565b60405180910390200361493957600460008281526020019081526020016000206040518060c00160405290816000820154815260200160018201805461485c90615d23565b80601f016020809104026020016040519081016040528092919081815260200182805461488890615d23565b80156148d55780601f106148aa576101008083540402835291602001916148d5565b820191906000526020600020905b8154815290600101906020018083116148b857829003601f168201915b505050918352505060028201546020820152600382015460408201526004820154606082015260059091015460ff161515608090910152835184908490811061492057614920615d0d565b6020908102919091010152614936600183615cf5565b91505b8061494381615d57565b9150506147e3565b50815292915050565b6005602052600090815260409020805460018201805491929161497690615d23565b80601f01602080910402602001604051908101604052809291908181526020018280546149a290615d23565b80156149ef5780601f106149c4576101008083540402835291602001916149ef565b820191906000526020600020905b8154815290600101906020018083116149d257829003601f168201915b505050505090806002018054614a0490615d23565b80601f0160208091040260200160405190810160405280929190818152602001828054614a3090615d23565b8015614a7d5780601f10614a5257610100808354040283529160200191614a7d565b820191906000526020600020905b815481529060010190602001808311614a6057829003601f168201915b505050505090806003015490806004018054614a9890615d23565b80601f0160208091040260200160405190810160405280929190818152602001828054614ac490615d23565b8015614b115780601f10614ae657610100808354040283529160200191614b11565b820191906000526020600020905b815481529060010190602001808311614af457829003601f168201915b505050505090806005015490806006018054614b2c90615d23565b80601f0160208091040260200160405190810160405280929190818152602001828054614b5890615d23565b8015614ba55780601f10614b7a57610100808354040283529160200191614ba5565b820191906000526020600020905b815481529060010190602001808311614b8857829003601f168201915b5050505050905087565b6000838152600160205260408120548103614bdc5760405162461bcd60e51b8152600401610a6d90615e66565b6000614be885856119c1565b905060005b815181101561160d5783828281518110614c0957614c09615d0d565b60200260200101516060015103614c2557600192505050610daa565b80614c2f81615d57565b915050614bed565b614c4082611867565b614c835760405162461bcd60e51b81526020600482015260146024820152735573657220646f6573206e6f742065786973747360601b6044820152606401610a6d565b600081604051602001614c969190615e9d565b60408051601f198184030181529190528051602090910120905060015b600b548111614d1757600081815260056020526040908190209051614cdb9160010190615d70565b6040518091039020848051906020012003614d055760008181526005602052604090206003018290555b80614d0f81615d57565b915050614cb3565b50505050565b6000838152600160205260408120600201905b8154811015614e265783828281548110614d4c57614d4c615d0d565b90600052602060002090600802016000015403614e14576000828281548110614d7757614d77615d0d565b9060005260206000209060080201600301905060005b8154811015614e115784828281548110614da957614da9615d0d565b90600052602060002090600902016000015403614dff576001828281548110614dd457614dd4615d0d565b90600052602060002090600902016006016000828254614df49190615cf5565b90915550614e119050565b80614e0981615d57565b915050614d8d565b50505b80614e1e81615d57565b915050614d30565b5050505050565b6000805b6020811015614e9b57828160208110614e4c57614e4c615d0d565b1a60f81b6001600160f81b031916848260208110614e6c57614e6c615d0d565b1a60f81b6001600160f81b03191614614e89576000915050610cce565b80614e9381615d57565b915050614e31565b5060019392505050565b60405180610100016040528060008152602001606081526020016000815260200160608152602001600081526020016000815260200160008152602001600081525090565b828054614ef690615d23565b90600052602060002090601f016020900481019282614f185760008555614f5e565b82601f10614f3157805160ff1916838001178555614f5e565b82800160010185558215614f5e579182015b82811115614f5e578251825591602001919060010190614f43565b50614f6a929150614fbc565b5090565b60405180610120016040528060008152602001606081526020016060815260200160008152602001600081526020016000815260200160008152602001600015158152602001606081525090565b5b80821115614f6a5760008155600101614fbd565b60005b83811015614fec578181015183820152602001614fd4565b83811115614d175750506000910152565b60008151808452615015816020860160208601614fd1565b601f01601f19169290920160200192915050565b600061012082518452602083015181602086015261504982860182614ffd565b915050604083015184820360408601526150638282614ffd565b915050606083015160608501526080830151608085015260a083015160a085015260c083015160c085015260e08301516150a160e086018215159052565b5061010080840151858303828701526150ba8382614ffd565b9695505050505050565b60006101008251845260208084015182828701526150e483870182614ffd565b92505060408401516040860152606084015185830360608701528281518085528385019150838160051b860101848401935060005b8281101561514757601f19878303018452615135828651615029565b94860194938601939150600101615119565b50608088015160808a015260a088015160a08a015260c088015160c08a015260e088015160e08a015280965050505050505092915050565b6000602080830181845280855180835260408601915060408160051b870101925083870160005b828110156151d457603f198886030184526151c28583516150c4565b945092850192908501906001016151a6565b5092979650505050505050565b634e487b7160e01b600052604160045260246000fd5b60405161012081016001600160401b038111828210171561521a5761521a6151e1565b60405290565b60405161010081016001600160401b038111828210171561521a5761521a6151e1565b604051608081016001600160401b038111828210171561521a5761521a6151e1565b604051601f8201601f191681016001600160401b038111828210171561528d5761528d6151e1565b604052919050565b600082601f8301126152a657600080fd5b81356001600160401b038111156152bf576152bf6151e1565b6152d2601f8201601f1916602001615265565b8181528460208386010111156152e757600080fd5b816020850160208301376000918101602001919091529392505050565b60006020828403121561531657600080fd5b81356001600160401b0381111561532c57600080fd5b61533884828501615295565b949350505050565b6000602080830181845280855180835260408601915060408160051b870101925083870160005b828110156151d457603f19888603018452615383858351615029565b94509285019290850190600101615367565b600080604083850312156153a857600080fd5b82356001600160401b03808211156153bf57600080fd5b6153cb86838701615295565b935060208501359150808211156153e157600080fd5b506153ee85828601615295565b9150509250929050565b60208152815160208201526000602083015160e0604084015261541f610100840182614ffd565b90506040840151601f198085840301606086015261543d8383614ffd565b92506060860151608086015260808601519150808584030160a08601526154648383614ffd565b925060a086015160c086015260c08601519150808584030160e08601525061548c8282614ffd565b95945050505050565b6000602082840312156154a757600080fd5b5035919050565b600080604083850312156154c157600080fd5b50508035926020909101359150565b6000806000606084860312156154e557600080fd5b833592506020840135915060408401356001600160401b0381111561550957600080fd5b61551586828701615295565b9150509250925092565b6000806040838503121561553257600080fd5b8235915060208301356001600160401b0381111561554f57600080fd5b6153ee85828601615295565b602081526000610daa6020830184614ffd565b80518252600060208083015160808286015261558d6080860182614ffd565b9050604084015185820360408701528181518084528484019150848160051b850101858401935060005b828110156155e557601f198683030184526155d38286516150c4565b948701949387019391506001016155b7565b50606088015160608a015280965050505050505092915050565b602081526000610daa602083018461556e565b86815260c06020820152600061562b60c0830188614ffd565b905085604083015284606083015283608083015282151560a0830152979650505050505050565b602081526000610daa6020830184615029565b60008060008060008060c0878903121561567e57600080fd5b863595506020870135945060408701356001600160401b03808211156156a357600080fd5b6156af8a838b01615295565b955060608901359150808211156156c557600080fd5b6156d18a838b01615295565b94506080890135935060a08901359150808211156156ee57600080fd5b506156fb89828a01615295565b9150509295509295509295565b6000806000806080858703121561571e57600080fd5b84356001600160401b0381111561573457600080fd5b61574087828801615295565b97602087013597506040870135966060013595509350505050565b60006001600160401b03821115615774576157746151e1565b5060051b60200190565b8035801515811461578e57600080fd5b919050565b600082601f8301126157a457600080fd5b813560206157b96157b48361575b565b615265565b82815260059290921b840181019181810190868411156157d857600080fd5b8286015b848110156158ea5780356001600160401b03808211156157fc5760008081fd5b90880190610120828b03601f19018113156158175760008081fd5b61581f6151f7565b878401358152604080850135848111156158395760008081fd5b6158478e8b83890101615295565b8a84015250606080860135858111156158605760008081fd5b61586e8f8c838a0101615295565b83850152506080915081860135818401525060a0808601358284015260c0915081860135818401525060e0808601358284015261010091506158b182870161577e565b908301529184013591838311156158c85760008081fd5b6158d68d8a85880101615295565b9082015286525050509183019183016157dc565b509695505050505050565b6000610100828403121561590857600080fd5b615910615220565b90508135815260208201356001600160401b038082111561593057600080fd5b61593c85838601615295565b602084015260408401356040840152606084013591508082111561595f57600080fd5b5061596c84828501615793565b6060830152506080820135608082015260a082013560a082015260c082013560c082015260e082013560e082015292915050565b6000602082840312156159b257600080fd5b81356001600160401b038111156159c857600080fd5b615338848285016158f5565b600080600080608085870312156159ea57600080fd5b8435935060208501356001600160401b03811115615a0757600080fd5b615a1387828801615295565b949794965050505060408301359260600135919050565b6000602080830181845280855180835260408601915060408160051b870101925083870160005b828110156151d457603f19888603018452615a6d85835161556e565b94509285019290850190600101615a51565b602081526000610daa60208301846150c4565b60006020808385031215615aa557600080fd5b82356001600160401b0380821115615abc57600080fd5b9084019060808287031215615ad057600080fd5b615ad8615243565b823581528383013582811115615aed57600080fd5b615af988828601615295565b8583015250604083013582811115615b1057600080fd5b8301601f81018813615b2157600080fd5b8035615b2f6157b48261575b565b81815260059190911b8201860190868101908a831115615b4e57600080fd5b8784015b83811015615b8657803587811115615b6a5760008081fd5b615b788d8b838901016158f5565b845250918801918801615b52565b5060408501525050506060928301359281019290925250949350505050565b600080600060608486031215615bba57600080fd5b505081359360208301359350604090920135919050565b60006020808301818452808551808352604092508286019150828160051b87010184880160005b83811015615c6457603f19898403018552815160c08151855288820151818a870152615c2682870182614ffd565b838a0151878b0152606080850151908801526080808501519088015260a0938401511515939096019290925250509386019390860190600101615bf8565b509098975050505050505050565b87815260e060208201526000615c8b60e0830189614ffd565b8281036040840152615c9d8189614ffd565b90508660608401528281036080840152615cb78187614ffd565b90508460a084015282810360c0840152615cd18185614ffd565b9a9950505050505050505050565b634e487b7160e01b600052601160045260246000fd5b60008219821115615d0857615d08615cdf565b500190565b634e487b7160e01b600052603260045260246000fd5b600181811c90821680615d3757607f821691505b60208210810361394657634e487b7160e01b600052602260045260246000fd5b600060018201615d6957615d69615cdf565b5060010190565b600080835481600182811c915080831680615d8c57607f831692505b60208084108203615dab57634e487b7160e01b86526022600452602486fd5b818015615dbf5760018114615dd057615dfd565b60ff19861689528489019650615dfd565b60008a81526020902060005b86811015615df55781548b820152908501908301615ddc565b505084890196505b509498975050505050505050565b60208082526024908201527f596f757220656d61696c206f722070617373776f726420697320696e636f72726040820152636563742160e01b606082015260800190565b600082821015615e6157615e61615cdf565b500390565b60208082526017908201527f43617465676f727920646f6573206e6f74206578697374000000000000000000604082015260600190565b60008251615eaf818460208701614fd1565b919091019291505056fea2646970667358221220323eec71b97f6cd02121263d5083ab5cd9d963c7a107f47e350d48bb834e53ec64736f6c634300080d0033",
  "immutableReferences": {},
  "source": "// SPDX-License-Identifier: MIT\r\npragma solidity >=0.4.22 <0.9.0;\r\n\r\ncontract VotingSystem {\r\n    address public owner;\r\n    struct Voter {\r\n        uint256 id;\r\n        string key;\r\n        string email;\r\n        bytes32 password;\r\n        string role;\r\n        uint256 status; // 0: no verify, 1: verified, 2:banned\r\n        string token;\r\n    }\r\n\r\n    struct Event {\r\n        uint256 eventId;\r\n        string eventName;\r\n        uint256 categoryId;\r\n        Candidate[] candidates;\r\n        uint256 candidateCount;\r\n        uint256 startDateTime;\r\n        uint256 endDateTime;\r\n        uint256 status; // 1: Upcoming, 2: In Progress, 3: Completed, 4 Cancel\r\n    }\r\n\r\n    struct Category {\r\n        uint256 categoryId;\r\n        string categoryName;\r\n        Event[] events; //category has many event\r\n        uint256 status;\r\n    }\r\n\r\n    struct Candidate {\r\n        uint256 id;\r\n        string name;\r\n        string description;\r\n        uint256 studentId;\r\n        uint256 categoryId;\r\n        uint256 eventId;\r\n        uint256 voteCount;\r\n        bool win;\r\n        string imageFileName;\r\n    }\r\n\r\n    struct voteEventStruct {\r\n        uint256 id;\r\n        string voterKey;\r\n        uint256 categoryId;\r\n        uint256 eventId;\r\n        uint256 votedCandidateId;\r\n        bool voted;\r\n    }\r\n\r\n    event CategoryAdded(uint256 indexed categoryId, string categoryName);\r\n\r\n    event VoterAdded(uint256 indexed voterId, string voter_key);\r\n    event EventAdded(uint256 indexed eventId, string eventName);\r\n\r\n    event CandidateAdded(uint256 indexed eventId, string eventName);\r\n\r\n    event VoteEvent(\r\n        string indexed _voterKey,\r\n        string indexed categoryEvent,\r\n        uint256 indexed candidate\r\n    );\r\n\r\n    mapping(uint256 => Category) categories;\r\n    mapping(uint256 => Event) events;\r\n    mapping(uint256 => Candidate) candidates;\r\n    mapping(uint256 => voteEventStruct) public voteEvents;\r\n    mapping(uint256 => Voter) public voters;\r\n    mapping(string => bool) private usedImageFileNames;\r\n\r\n    uint256 categoryCount;\r\n    uint256 candidateCount;\r\n    uint256 eventCount;\r\n    uint256 voteEventCount;\r\n    uint256 voterCount;\r\n\r\n    constructor() {\r\n        owner = msg.sender;\r\n    }\r\n\r\n    // function addVoter(\r\n    //     string memory _key,\r\n    //     string memory _email,\r\n    //     string memory _password,\r\n    //     string memory _role,\r\n    //     string memory _token\r\n    // ) public {\r\n    //     for (uint256 i = 1; i <= voterCount; i++) {\r\n    //         require(\r\n    //             keccak256(bytes(_key)) != keccak256(bytes(voters[i].key)),\r\n    //             \"Voter already exists\"\r\n    //         );\r\n    //     }\r\n\r\n    //     // total category plus 1, use it as the category's id\r\n    //     voterCount += 1;\r\n\r\n    //     bytes32 hashedPassword = keccak256(abi.encodePacked(_password));\r\n\r\n    //     // add the category details in the category list\r\n    //     Voter storage voter = voters[voterCount];\r\n    //     voter.id = voterCount;\r\n    //     voter.key = _key;\r\n    //     voter.email = _email;\r\n    //     voter.password = hashedPassword;\r\n    //     voter.role = _role;\r\n    //     voter.status = 0;\r\n    //     voter.token = _token;\r\n\r\n    //     // emit the category added event\r\n    //     emit VoterAdded(voterCount, _key);\r\n    // }\r\n\r\n    function loginVoter(string memory _email, string memory _password)\r\n        public\r\n        view\r\n        returns (Voter memory)\r\n    {\r\n        Voter memory voterFound = getVoterByEmailPassword(_email, _password);\r\n        require(voterFound.id != 0, \"Your email or password is incorrect!\");\r\n        require(\r\n            voterFound.status == 1,\r\n            \"Your account was banned or not verify!\"\r\n        );\r\n        return voterFound;\r\n    }\r\n\r\n    function compareHashesPassword(bytes32 inputPassword, bytes32 password)\r\n        internal\r\n        pure\r\n        returns (bool)\r\n    {\r\n        for (uint256 i = 0; i < 32; i++) {\r\n            if (inputPassword[i] != password[i]) {\r\n                return false;\r\n            }\r\n        }\r\n        return true;\r\n    }\r\n\r\n    function getVoterByEmailPassword(\r\n        string memory _email,\r\n        string memory _password\r\n    ) public view returns (Voter memory) {\r\n        bytes32 hashedPassword = keccak256(abi.encodePacked(_password));\r\n        for (uint256 i = 1; i <= voterCount; i++) {\r\n            if (\r\n                keccak256(bytes(_email)) == keccak256(bytes(voters[i].email)) &&\r\n                compareHashesPassword(hashedPassword, voters[i].password)\r\n            ) {\r\n                return voters[i];\r\n            }\r\n        }\r\n\r\n        // Event not found in the specified category\r\n        return Voter(0, \"\", \"\", \"\", \"\", 0, \"\");\r\n    }\r\n\r\n    function getVoterEmailById(uint256 _voterId)\r\n        public\r\n        view\r\n        returns (string memory)\r\n    {\r\n        require(_voterId > 0 && _voterId <= voterCount, \"Invalid voter ID\");\r\n        return voters[_voterId].email;\r\n    }\r\n\r\n    function updateVoterPassword(string memory _key, string memory _password)\r\n        public\r\n    {\r\n        require(isVoterExist(_key), \"User does not exists\");\r\n\r\n        bytes32 hashedPassword = keccak256(abi.encodePacked(_password));\r\n        for (uint256 i = 1; i <= voterCount; i++) {\r\n            if (keccak256(bytes(_key)) == keccak256(bytes(voters[i].key))) {\r\n                voters[i].password = hashedPassword;\r\n            }\r\n        }\r\n    }\r\n\r\n    function verifyVoterAccount(string memory _token) public returns (bool) {\r\n        require(voters[1].id != 0, \"No voter in the list!\");\r\n        for (uint256 i = 1; i <= voterCount; i++) {\r\n            if (keccak256(bytes(_token)) == keccak256(bytes(voters[i].token))) {\r\n                voters[i].status = 1;\r\n                return true;\r\n            }\r\n        }\r\n        return false;\r\n    }\r\n\r\n    function getVoterStatus(string memory _email, string memory _password)\r\n        public\r\n        view\r\n        returns (uint256 status)\r\n    {\r\n        Voter memory voterFound = getVoterByEmailPassword(_email, _password);\r\n        require(voterFound.id != 0, \"Your email or password is incorrect!\");\r\n        return voterFound.status;\r\n    }\r\n\r\n    function checkVoterEmailPassword(\r\n        string memory _email,\r\n        string memory _password\r\n    ) public view returns (bool foundVoter) {\r\n        Voter memory voterFound = getVoterByEmailPassword(_email, _password);\r\n\r\n        if (voterFound.id != 0) {\r\n            return true;\r\n        }\r\n        return false;\r\n    }\r\n\r\n    function isVoterExist(string memory _key) public view returns (bool) {\r\n        for (uint256 i = 1; i <= voterCount; i++) {\r\n            if (keccak256(bytes(_key)) == keccak256(bytes(voters[i].key))) {\r\n                return true;\r\n            }\r\n        }\r\n        return false;\r\n    }\r\n\r\n    function addCategory(string memory _categoryName) public {\r\n        // check if the category is exist\r\n        for (uint256 i = 1; i <= categoryCount; i++) {\r\n            require(\r\n                keccak256(bytes(_categoryName)) !=\r\n                    keccak256(bytes(categories[i].categoryName)),\r\n                \"Category already exists\"\r\n            );\r\n        }\r\n\r\n        // total category plus 1, use it as the category's id\r\n        categoryCount += 1;\r\n\r\n        // add the category details in the category list\r\n        Category storage category = categories[categoryCount];\r\n        category.categoryName = _categoryName;\r\n        category.categoryId = categoryCount;\r\n        category.status = 1;\r\n\r\n        // emit the category added event\r\n        emit CategoryAdded(categoryCount, _categoryName);\r\n    }\r\n\r\n    function updateCategory(Category memory _category) public {\r\n        // check if the category is exist\r\n        require(\r\n            categories[_category.categoryId].categoryId != 0,\r\n            \"Category has not exists\"\r\n        );\r\n\r\n        // add the category details in the category list\r\n        Category storage category = categories[_category.categoryId];\r\n        category.categoryName = _category.categoryName;\r\n        category.status = _category.status;\r\n    }\r\n\r\n    function updateCategoryName(\r\n        uint256 _categoryId,\r\n        string memory _newCategoryName\r\n    ) public {\r\n        // Check if the category exists\r\n        require(\r\n            categories[_categoryId].categoryId != 0,\r\n            \"Category does not exist\"\r\n        );\r\n\r\n        // Check if the new category name is different from the existing name in the list\r\n        // and not the same as the current category name being updated\r\n        for (uint256 i = 1; i <= categoryCount; i++) {\r\n            if (i != _categoryId) {\r\n                require(\r\n                    keccak256(bytes(_newCategoryName)) !=\r\n                        keccak256(bytes(categories[i].categoryName)),\r\n                    \"Category name already exists\"\r\n                );\r\n            }\r\n        }\r\n\r\n        // Update the category name\r\n        categories[_categoryId].categoryName = _newCategoryName;\r\n    }\r\n\r\n    // function deleteCategory(uint256 _categoryId) public {\r\n    //     require(\r\n    //         categories[_categoryId].categoryId != 0,\r\n    //         \"Category does not exist\"\r\n    //     );\r\n\r\n    //     // Check if there are any events associated with the category\r\n    //     require(\r\n    //         categories[_categoryId].events.length == 0,\r\n    //         \"Cannot delete category with events\"\r\n    //     );\r\n\r\n    //     // Check if there are any candidates associated with the category\r\n    //     for (uint256 i = 1; i <= eventCount; i++) {\r\n    //         Event storage currentEvent = events[i];\r\n    //         if (\r\n    //             currentEvent.categoryId == _categoryId &&\r\n    //             currentEvent.candidates.length > 0\r\n    //         ) {\r\n    //             revert(\"Cannot delete category with candidates\");\r\n    //         }\r\n    //     }\r\n\r\n    //     // Check if there are any vote events associated with the category\r\n    //     for (uint256 i = 1; i <= voteEventCount; i++) {\r\n    //         if (voteEvents[i].categoryId == _categoryId) {\r\n    //             revert(\"Cannot delete category with vote events\");\r\n    //         }\r\n    //     }\r\n\r\n    //     // If no associated events, candidates, or vote events, delete the category\r\n    //     delete categories[_categoryId];\r\n    // }\r\n\r\n    function getAllVotedHistory(string memory _userKey) public view returns (voteEventStruct[] memory) {\r\n        // Check if there are any candidates associated with the category\r\n        voteEventStruct[] memory voteEventFound = new voteEventStruct[](\r\n            voteEventCount\r\n        );\r\n        uint256 count = 0;\r\n        for (uint256 i = 1; i <= voteEventCount; i++) {\r\n            if ( keccak256(bytes(voteEvents[i].voterKey)) ==  keccak256(bytes(_userKey))) {\r\n                // Store the matching vote event in the array\r\n                voteEventFound[count] = voteEvents[i];\r\n                count += 1;\r\n            }\r\n        }\r\n\r\n        // Resize the array to remove any unused slots\r\n        assembly {\r\n            mstore(voteEventFound, count)\r\n        }\r\n\r\n        // Return the dynamic array of matching vote events\r\n        return voteEventFound;\r\n    }\r\n\r\n    function addEvent(\r\n        uint256 _categoryId,\r\n        string memory _eventName,\r\n        uint256 _startDateTime,\r\n        uint256 _endDateTime\r\n    ) public {\r\n        // check if the category has exists\r\n        require(\r\n            categories[_categoryId].categoryId != 0,\r\n            \"Category has not exists\"\r\n        );\r\n\r\n        require(\r\n            isEventExists(_categoryId, _eventName) == false,\r\n            \"Event already exists\"\r\n        );\r\n\r\n        // find out the category in list by using the paramerter category name\r\n        Category storage category = categories[_categoryId];\r\n\r\n        // add the event in the category list\r\n        uint256 eventId = eventCount += 1;\r\n\r\n        Event storage newEvent = category.events.push();\r\n        newEvent.eventId = eventId;\r\n        newEvent.eventName = _eventName;\r\n        newEvent.categoryId = _categoryId;\r\n        newEvent.status = 1;\r\n        newEvent.startDateTime = _startDateTime;\r\n        newEvent.endDateTime = _endDateTime;\r\n    }\r\n\r\n    function isEventExists(uint256 _categoryId, string memory _eventName)\r\n        public\r\n        view\r\n        returns (bool)\r\n    {\r\n        // Check if the category exists\r\n        require(\r\n            categories[_categoryId].categoryId != 0,\r\n            \"Category does not exist\"\r\n        );\r\n\r\n        // Loop through the events in the specified category\r\n        for (uint256 i = 0; i < categories[_categoryId].events.length; i++) {\r\n            if (\r\n                keccak256(bytes(categories[_categoryId].events[i].eventName)) ==\r\n                keccak256(bytes(_eventName))\r\n            ) {\r\n                // Event found\r\n                return true;\r\n            }\r\n        }\r\n        // Event not found in the specified category\r\n        return false;\r\n    }\r\n\r\n    // function isEventStart(\r\n    //     uint256 _categoryId,\r\n    //     string memory _eventName,\r\n    //     uint256 _startDateTime\r\n    // ) public view returns (bool) {\r\n    //     // Check if the category exists\r\n    //     require(\r\n    //         categories[_categoryId].categoryId != 0,\r\n    //         \"Category does not exist\"\r\n    //     );\r\n\r\n    //     require(\r\n    //         isEventExists(_categoryId, _eventName) == true,\r\n    //         \"Event does not exist\"\r\n    //     );\r\n\r\n    //     // Loop through the events in the specified category\r\n    //     for (uint256 i = 0; i < categories[_categoryId].events.length; i++) {\r\n    //         if (\r\n    //             (keccak256(\r\n    //                 bytes(categories[_categoryId].events[i].eventName)\r\n    //             ) ==\r\n    //                 keccak256(bytes(_eventName)) &&\r\n    //                 (_startDateTime >=\r\n    //                     categories[_categoryId].events[i].startDateTime))\r\n    //         ) {\r\n    //             return true;\r\n    //         }\r\n    //     }\r\n\r\n    //     // Event not found in the specified category\r\n    //     return false;\r\n    // }\r\n\r\n    function updateEvent(Event memory _event) public {\r\n        // check if the category is exist\r\n        require(\r\n            categories[_event.categoryId].categoryId != 0,\r\n            \"Category does not exists\"\r\n        );\r\n        require(\r\n            isEventExists(_event.categoryId, _event.eventId),\r\n            \"Event does not exist!\"\r\n        );\r\n        // add the category details in the category list\r\n        Event storage eventToUpdate = categories[_event.categoryId].events[\r\n            _event.eventId - 1\r\n        ];\r\n\r\n        eventToUpdate.eventName = _event.eventName;\r\n        eventToUpdate.status = _event.status;\r\n    }\r\n\r\n    function addCandidateToEvent(\r\n        uint256 _categoryId,\r\n        uint256 _eventId,\r\n        string memory _candidateName,\r\n        string memory _description,\r\n        uint256 _studentId,\r\n        string memory _imageFileName\r\n    ) public {\r\n        require(\r\n            categories[_categoryId].categoryId != 0,\r\n            \"Category does not exist\"\r\n        );\r\n        require(isEventExists(_categoryId, _eventId), \"Event does not exist\");\r\n        require(\r\n            !isCandidateExistsInEvent(_categoryId, _eventId, _studentId),\r\n            \"Candidate already exists\"\r\n        );\r\n        // Check if the image file name is already used\r\n        require(\r\n            !usedImageFileNames[_imageFileName],\r\n            \"Image file name already in use\"\r\n        );\r\n\r\n        candidateCount += 1;\r\n\r\n        // Create a new candidate\r\n        Candidate memory newCandidate = Candidate({\r\n            id: candidateCount,\r\n            name: _candidateName,\r\n            studentId: _studentId,\r\n            categoryId: _categoryId,\r\n            eventId: _eventId,\r\n            description: _description,\r\n            win: false,\r\n            voteCount: 0,\r\n            imageFileName: _imageFileName\r\n        });\r\n\r\n        // find the certain category\r\n        Category storage category = categories[_categoryId];\r\n        // find the certain event in certain category\r\n        for (uint256 i = 0; i < category.events.length; i++) {\r\n            if (category.events[i].eventId == _eventId) {\r\n                category.events[i].candidates.push(newCandidate);\r\n                category.events[i].candidateCount += 1;\r\n            }\r\n        }\r\n\r\n        // Mark the image file name as used\r\n        usedImageFileNames[_imageFileName] = true;\r\n    }\r\n\r\n    // function updateCandidate(Candidate memory _candidate) public {\r\n    //     require(\r\n    //         categories[_candidate.categoryId].categoryId != 0,\r\n    //         \"Category has not exists\"\r\n    //     );\r\n\r\n    //     require(\r\n    //         isEventExists(_candidate.categoryId, _candidate.eventId) == true,\r\n    //         \"Event has not exists\"\r\n    //     );\r\n\r\n    //     require(\r\n    //         isCandidateExistsInEvent(\r\n    //             _candidate.categoryId,\r\n    //             _candidate.eventId,\r\n    //             _candidate.studentId\r\n    //         ) == true,\r\n    //         \"Candidate does not existed\"\r\n    //     );\r\n\r\n    //     Candidate storage candidateToUpdate = categories[_candidate.categoryId]\r\n    //         .events[_candidate.eventId - 1]\r\n    //         .candidates[_candidate.id - 1];\r\n\r\n    //     candidateToUpdate.name = _candidate.name;\r\n    //     candidateToUpdate.studentId = _candidate.studentId;\r\n    //     candidateToUpdate.description = _candidate.description;\r\n    // }\r\n\r\n    function isImageFileNameUsed(string memory _imageFileName)\r\n        public\r\n        view\r\n        returns (bool)\r\n    {\r\n        return usedImageFileNames[_imageFileName];\r\n    }\r\n\r\n    function isCandidateExistsInEvent(\r\n        uint256 _categoryId,\r\n        uint256 _eventId,\r\n        uint256 _studentId\r\n    ) public view returns (bool) {\r\n        // Check if the category exists\r\n        require(\r\n            categories[_categoryId].categoryId != 0,\r\n            \"Category does not exist\"\r\n        );\r\n\r\n        Candidate[] memory candidatesFound = getAllCandidatesInEvent(\r\n            _categoryId,\r\n            _eventId\r\n        );\r\n\r\n        // Loop through the events in the specified category\r\n\r\n        for (uint256 i = 0; i < candidatesFound.length; i++) {\r\n            if (candidatesFound[i].studentId == _studentId) {\r\n                return true;\r\n            }\r\n        }\r\n\r\n        // Event not found in the specified category\r\n        return false;\r\n    }\r\n\r\n    function isCandidateExistsInEventById(\r\n        uint256 _categoryId,\r\n        uint256 _eventId,\r\n        uint256 _candidateId\r\n    ) public view returns (bool) {\r\n        // Check if the category exists\r\n        require(\r\n            categories[_categoryId].categoryId != 0,\r\n            \"Category does not exist\"\r\n        );\r\n\r\n        Candidate[] memory candidatesFound = getAllCandidatesInEvent(\r\n            _categoryId,\r\n            _eventId\r\n        );\r\n\r\n        // Loop through the events in the specified category\r\n\r\n        for (uint256 i = 0; i < candidatesFound.length; i++) {\r\n            if (candidatesFound[i].id == _candidateId) {\r\n                return true;\r\n            }\r\n        }\r\n\r\n        // Event not found in the specified category\r\n        return false;\r\n    }\r\n\r\n    function isEventExists(uint256 _categoryId, uint256 _eventId)\r\n        public\r\n        view\r\n        returns (bool)\r\n    {\r\n        // Check if the category exists\r\n        require(\r\n            categories[_categoryId].categoryId != 0,\r\n            \"Category does not exist\"\r\n        );\r\n\r\n        // Loop through the events in the specified category\r\n        for (uint256 i = 0; i < categories[_categoryId].events.length; i++) {\r\n            if (categories[_categoryId].events[i].eventId == _eventId) {\r\n                // Event found\r\n                return true;\r\n            }\r\n        }\r\n\r\n        // Event not found in the specified category\r\n        return false;\r\n    }\r\n\r\n    function getAllCategoryEvent(uint256 _categoryId)\r\n        public\r\n        view\r\n        returns (Event[] memory foundEvent)\r\n    {\r\n        // find the certain category\r\n        Category storage category = categories[_categoryId];\r\n\r\n        // declare an array variable for storing events\r\n        Event[] memory eventsFound = new Event[](category.events.length);\r\n\r\n        // get all the event name by searching the event in list\r\n        for (uint256 i = 0; i < category.events.length; i++) {\r\n            eventsFound[i] = category.events[i];\r\n        }\r\n\r\n        return (eventsFound);\r\n    }\r\n\r\n    function getAllCandidatesInEvent(uint256 _categoryId, uint256 _eventId)\r\n        public\r\n        view\r\n        returns (Candidate[] memory foundCandidates)\r\n    {\r\n        // find the certain category\r\n        Category storage category = categories[_categoryId];\r\n        // find the certain event in certain category\r\n        for (uint256 i = 0; i < category.events.length; i++) {\r\n            if (category.events[i].eventId == _eventId) {\r\n                Candidate[] memory candidatesFound = new Candidate[](\r\n                    category.events[i].candidateCount\r\n                );\r\n\r\n                for (\r\n                    uint256 j = 0;\r\n                    j < category.events[i].candidates.length;\r\n                    j++\r\n                ) {\r\n                    candidatesFound[j] = category.events[i].candidates[j];\r\n                }\r\n                return (candidatesFound);\r\n            }\r\n        }\r\n    }\r\n\r\n    function getAllCandidates() public view returns (Candidate[] memory) {\r\n        Candidate[] memory candidatesFound = new Candidate[](candidateCount);\r\n        Event[] memory eventFound = new Event[](eventCount);\r\n\r\n        // get all the events\r\n        eventFound = getAllEvent();\r\n        uint256 count = 0;\r\n        // find the candidates inside all the event\r\n        for (uint256 i = 0; i < eventCount; i++) {\r\n            for (uint256 j = 0; j < eventFound[i].candidates.length; j++) {\r\n                candidatesFound[count] = eventFound[i].candidates[j];\r\n                count += 1;\r\n            }\r\n        }\r\n\r\n        return candidatesFound;\r\n    }\r\n\r\n    function getAllCategory() public view returns (Category[] memory) {\r\n        //Candidate[] memory candidatesFound = new Candidate[](candidateCount);\r\n        Category[] memory categoriesFound = new Category[](categoryCount);\r\n        // Iterate through all stored structs\r\n        for (uint256 i = 1; i <= categoryCount; i++) {\r\n            categoriesFound[i - 1] = categories[i];\r\n        }\r\n\r\n        return categoriesFound;\r\n    }\r\n\r\n    function getCategoryById(uint256 _categoryId)\r\n        public\r\n        view\r\n        returns (Category memory)\r\n    {\r\n        return categories[_categoryId];\r\n    }\r\n\r\n    function getAllEvent() public view returns (Event[] memory) {\r\n        // Initialize the array with the correct size\r\n        Event[] memory eventFound = new Event[](eventCount);\r\n        uint256 count = 0;\r\n\r\n        // Iterate through all categories and events\r\n        for (uint256 i = 0; i < categoryCount; i++) {\r\n            for (uint256 j = 0; j < categories[i + 1].events.length; j++) {\r\n                eventFound[count] = categories[i + 1].events[j];\r\n                count += 1;\r\n            }\r\n        }\r\n\r\n        return eventFound;\r\n    }\r\n\r\n    function getEventById(uint256 _categoryId, uint256 _eventId)\r\n        public\r\n        view\r\n        returns (Event memory)\r\n    {\r\n        Category memory categoriesFound = categories[_categoryId];\r\n        Event memory eventFound;\r\n        // Iterate through all stored structs\r\n        for (uint256 i = 0; i < categoriesFound.events.length; i++) {\r\n            if (categoriesFound.events[i].eventId == _eventId) {\r\n                eventFound = categoriesFound.events[i];\r\n            }\r\n        }\r\n\r\n        return eventFound;\r\n    }\r\n\r\n    function vote(\r\n        string memory _voterKey,\r\n        uint256 _candidateId,\r\n        uint256 _categoryId,\r\n        uint256 _eventId\r\n    ) external {\r\n        require(\r\n            categories[_categoryId].categoryId != 0,\r\n            \"Category does not exists\"\r\n        );\r\n\r\n        require(eventCount != 0, \"Event does not exists\");\r\n\r\n        // for (uint256 i = 1; i <= categories[_categoryId].events.length; i++) {\r\n        //     require(categories[_categoryId].events[i-0].eventId == _eventId, \"noobbbbb\");\r\n        // }\r\n\r\n        require(\r\n            isCandidateExistsInEventById(_categoryId, _eventId, _candidateId) ==\r\n                true,\r\n            \"Candidates does not exists\"\r\n        );\r\n\r\n        // check if has voted\r\n        for (uint256 i = 1; i <= voteEventCount; i++) {\r\n            if (\r\n                keccak256(bytes(_voterKey)) ==\r\n                keccak256(bytes(voteEvents[i].voterKey)) &&\r\n                _categoryId == voteEvents[i].categoryId &&\r\n                _eventId == voteEvents[i].eventId\r\n            ) {\r\n                require(!voteEvents[i].voted, \"You already voted\");\r\n                break;\r\n            }\r\n        }\r\n\r\n        // add count on the candidate\r\n        voteEventCount += 1;\r\n\r\n        // Create a new voteEventStruct\r\n        voteEventStruct memory newVoteEvent = voteEventStruct({\r\n            id: voteEventCount,\r\n            voterKey: _voterKey,\r\n            categoryId: _categoryId,\r\n            eventId: _eventId,\r\n            votedCandidateId : _candidateId,\r\n            voted: true\r\n        });\r\n\r\n        voteEvents[voteEventCount] = newVoteEvent;\r\n\r\n        // add the vote count of the chosen candidate\r\n        addVoteCountIn(_categoryId, _eventId, _candidateId);\r\n\r\n        string memory concatenatedValues = string(\r\n            abi.encodePacked(_categoryId, _eventId)\r\n        );\r\n\r\n        emit VoteEvent(_voterKey, concatenatedValues, _candidateId);\r\n    }\r\n\r\n    function addVoteCountIn(\r\n        uint256 _categoryId,\r\n        uint256 _eventId,\r\n        uint256 _candidateId\r\n    ) internal {\r\n        // get the events inside the categories\r\n        Event[] storage eventsFound = categories[_categoryId].events;\r\n\r\n        // find the event with param\r\n        for (uint256 i = 0; i < eventsFound.length; i++) {\r\n            if (eventsFound[i].eventId == _eventId) {\r\n                // get the candidate inside the event\r\n                Candidate[] storage candidatesFound = eventsFound[i].candidates;\r\n                // find the candidate\r\n                for (uint256 j = 0; j < candidatesFound.length; j++) {\r\n                    if (candidatesFound[j].id == _candidateId) {\r\n                        // found the candidate and plus 1 at the voteCount\r\n                        candidatesFound[j].voteCount += 1;\r\n                        break;\r\n                    }\r\n                }\r\n            }\r\n        }\r\n    }\r\n\r\n    function isVoted(\r\n        uint256 _categoryId,\r\n        uint256 _eventId,\r\n        string memory _voterKey\r\n    ) public view returns (bool) {\r\n        // Check if the category exists\r\n        require(\r\n            categories[_categoryId].categoryId != 0,\r\n            \"Category does not exist\"\r\n        );\r\n\r\n        for (uint256 i = 1; i <= voteEventCount; i++) {\r\n            if (\r\n                voteEvents[i].categoryId == _categoryId &&\r\n                voteEvents[i].eventId == _eventId &&\r\n                keccak256(bytes(voteEvents[i].voterKey)) ==\r\n                keccak256(bytes(_voterKey))\r\n            ) {\r\n                return voteEvents[i].voted;\r\n            }\r\n        }\r\n\r\n        return false;\r\n    }\r\n\r\n    function getVoteEventCandidate(uint256 _categoryId, uint256 _eventId)\r\n        public\r\n        view\r\n        returns (Candidate[] memory)\r\n    {\r\n        Event[] memory eventsFound = categories[_categoryId].events;\r\n\r\n        for (uint256 i = 0; i < eventsFound.length; i++) {\r\n            if (eventsFound[i].eventId == _eventId) {\r\n                return eventsFound[i].candidates;\r\n            }\r\n        }\r\n\r\n        // If the event is not found, return an empty array or handle the situation accordingly\r\n        return new Candidate[](0);\r\n    }\r\n\r\n    function markWinner(uint256 _categoryId, uint256 _eventId) public {\r\n        categories[_categoryId].events;\r\n\r\n        for (uint256 i = 0; i < categories[_categoryId].events.length; i++) {\r\n            if (categories[_categoryId].events[i].eventId == _eventId) {\r\n                Candidate storage winner = categories[_categoryId]\r\n                    .events[i]\r\n                    .candidates[0];\r\n                for (\r\n                    uint256 j = 0;\r\n                    j < categories[_categoryId].events[i].candidates.length - 1;\r\n                    j++\r\n                ) {\r\n                    if (\r\n                        winner.voteCount <\r\n                        categories[_categoryId]\r\n                            .events[i]\r\n                            .candidates[j + 1]\r\n                            .voteCount\r\n                    ) {\r\n                        winner = categories[_categoryId].events[i].candidates[\r\n                            j + 1\r\n                        ];\r\n                    }\r\n                }\r\n                winner.win = true;\r\n            }\r\n        }\r\n    }\r\n\r\n    function isMarkWinner(uint256 _categoryId, uint256 _eventId)\r\n        public\r\n        view\r\n        returns (bool isMarket)\r\n    {\r\n        Event[] memory eventsFound = categories[_categoryId].events;\r\n        Candidate[] memory candidatesFound;\r\n\r\n        for (uint256 i = 0; i < eventsFound.length; i++) {\r\n            if (eventsFound[i].eventId == _eventId) {\r\n                candidatesFound = eventsFound[i].candidates;\r\n            }\r\n        }\r\n\r\n        for (uint256 i = 0; i < candidatesFound.length - 1; i++) {\r\n            if (candidatesFound[i].win == true) {\r\n                return true;\r\n            }\r\n        }\r\n        return false;\r\n    }\r\n\r\n    function whoIsTheWinner(uint256 _categoryId, uint256 _eventId)\r\n        public\r\n        view\r\n        returns (Candidate memory)\r\n    {\r\n        Event[] memory eventsFound = categories[_categoryId].events;\r\n        Candidate[] memory candidatesFound;\r\n\r\n        for (uint256 i = 0; i < eventsFound.length; i++) {\r\n            if (eventsFound[i].eventId == _eventId) {\r\n                candidatesFound = eventsFound[i].candidates;\r\n            }\r\n        }\r\n\r\n        Candidate memory winner = candidatesFound[0];\r\n\r\n        for (uint256 i = 0; i < candidatesFound.length - 1; i++) {\r\n            if (winner.voteCount < candidatesFound[i + 1].voteCount) {\r\n                winner = candidatesFound[i + 1];\r\n            }\r\n        }\r\n\r\n        winner.win = true;\r\n\r\n        return winner;\r\n    }\r\n}\r\n",
  "sourcePath": "C:\\xampp\\htdocs\\Online-Voting-System-Blockchain\\contracts\\VotingSystem.sol",
  "compiler": {
    "name": "solc",
    "version": "0.8.13+commit.abaa5c0e.Emscripten.clang"
  },
  "schemaVersion": "3.4.16",
  "updatedAt": "2023-12-18T03:23:22.263Z",
  "devdoc": {
    "kind": "dev",
    "methods": {},
    "version": 1
  },
  "userdoc": {
    "kind": "user",
    "methods": {},
    "version": 1
  }
}