{
  "contractName": "VotingSystem",
  "abi": [
    {
      "inputs": [],
      "stateMutability": "nonpayable",
      "type": "constructor"
    },
    {
      "anonymous": false,
      "inputs": [
        {
          "indexed": true,
          "internalType": "uint256",
          "name": "eventId",
          "type": "uint256"
        },
        {
          "indexed": false,
          "internalType": "string",
          "name": "eventName",
          "type": "string"
        }
      ],
      "name": "CandidateAdded",
      "type": "event"
    },
    {
      "anonymous": false,
      "inputs": [
        {
          "indexed": true,
          "internalType": "uint256",
          "name": "categoryId",
          "type": "uint256"
        },
        {
          "indexed": false,
          "internalType": "string",
          "name": "categoryName",
          "type": "string"
        }
      ],
      "name": "CategoryAdded",
      "type": "event"
    },
    {
      "anonymous": false,
      "inputs": [
        {
          "indexed": true,
          "internalType": "uint256",
          "name": "eventId",
          "type": "uint256"
        },
        {
          "indexed": false,
          "internalType": "string",
          "name": "eventName",
          "type": "string"
        }
      ],
      "name": "EventAdded",
      "type": "event"
    },
    {
      "anonymous": false,
      "inputs": [
        {
          "indexed": true,
          "internalType": "string",
          "name": "_voterKey",
          "type": "string"
        },
        {
          "indexed": true,
          "internalType": "string",
          "name": "categoryEvent",
          "type": "string"
        },
        {
          "indexed": true,
          "internalType": "uint256",
          "name": "candidate",
          "type": "uint256"
        }
      ],
      "name": "VoteEvent",
      "type": "event"
    },
    {
      "anonymous": false,
      "inputs": [
        {
          "indexed": true,
          "internalType": "uint256",
          "name": "voterId",
          "type": "uint256"
        },
        {
          "indexed": false,
          "internalType": "string",
          "name": "voter_key",
          "type": "string"
        }
      ],
      "name": "VoterAdded",
      "type": "event"
    },
    {
      "inputs": [],
      "name": "owner",
      "outputs": [
        {
          "internalType": "address",
          "name": "",
          "type": "address"
        }
      ],
      "stateMutability": "view",
      "type": "function",
      "constant": true
    },
    {
      "inputs": [
        {
          "internalType": "uint256",
          "name": "",
          "type": "uint256"
        }
      ],
      "name": "voteEvents",
      "outputs": [
        {
          "internalType": "uint256",
          "name": "id",
          "type": "uint256"
        },
        {
          "internalType": "string",
          "name": "voterKey",
          "type": "string"
        },
        {
          "internalType": "uint256",
          "name": "categoryId",
          "type": "uint256"
        },
        {
          "internalType": "uint256",
          "name": "eventId",
          "type": "uint256"
        },
        {
          "internalType": "bool",
          "name": "voted",
          "type": "bool"
        }
      ],
      "stateMutability": "view",
      "type": "function",
      "constant": true
    },
    {
      "inputs": [
        {
          "internalType": "uint256",
          "name": "",
          "type": "uint256"
        }
      ],
      "name": "voters",
      "outputs": [
        {
          "internalType": "uint256",
          "name": "id",
          "type": "uint256"
        },
        {
          "internalType": "string",
          "name": "key",
          "type": "string"
        },
        {
          "internalType": "string",
          "name": "email",
          "type": "string"
        },
        {
          "internalType": "bytes32",
          "name": "password",
          "type": "bytes32"
        },
        {
          "internalType": "string",
          "name": "role",
          "type": "string"
        },
        {
          "internalType": "uint256",
          "name": "status",
          "type": "uint256"
        },
        {
          "internalType": "string",
          "name": "token",
          "type": "string"
        }
      ],
      "stateMutability": "view",
      "type": "function",
      "constant": true
    },
    {
      "inputs": [
        {
          "internalType": "string",
          "name": "_key",
          "type": "string"
        },
        {
          "internalType": "string",
          "name": "_email",
          "type": "string"
        },
        {
          "internalType": "string",
          "name": "_password",
          "type": "string"
        },
        {
          "internalType": "string",
          "name": "_role",
          "type": "string"
        },
        {
          "internalType": "string",
          "name": "_token",
          "type": "string"
        }
      ],
      "name": "addVoter",
      "outputs": [],
      "stateMutability": "nonpayable",
      "type": "function"
    },
    {
      "inputs": [
        {
          "internalType": "string",
          "name": "_email",
          "type": "string"
        },
        {
          "internalType": "string",
          "name": "_password",
          "type": "string"
        }
      ],
      "name": "loginVoter",
      "outputs": [
        {
          "components": [
            {
              "internalType": "uint256",
              "name": "id",
              "type": "uint256"
            },
            {
              "internalType": "string",
              "name": "key",
              "type": "string"
            },
            {
              "internalType": "string",
              "name": "email",
              "type": "string"
            },
            {
              "internalType": "bytes32",
              "name": "password",
              "type": "bytes32"
            },
            {
              "internalType": "string",
              "name": "role",
              "type": "string"
            },
            {
              "internalType": "uint256",
              "name": "status",
              "type": "uint256"
            },
            {
              "internalType": "string",
              "name": "token",
              "type": "string"
            }
          ],
          "internalType": "struct VotingSystem.Voter",
          "name": "",
          "type": "tuple"
        }
      ],
      "stateMutability": "view",
      "type": "function",
      "constant": true
    },
    {
      "inputs": [
        {
          "internalType": "string",
          "name": "_email",
          "type": "string"
        },
        {
          "internalType": "string",
          "name": "_password",
          "type": "string"
        }
      ],
      "name": "getVoterByEmailPassword",
      "outputs": [
        {
          "components": [
            {
              "internalType": "uint256",
              "name": "id",
              "type": "uint256"
            },
            {
              "internalType": "string",
              "name": "key",
              "type": "string"
            },
            {
              "internalType": "string",
              "name": "email",
              "type": "string"
            },
            {
              "internalType": "bytes32",
              "name": "password",
              "type": "bytes32"
            },
            {
              "internalType": "string",
              "name": "role",
              "type": "string"
            },
            {
              "internalType": "uint256",
              "name": "status",
              "type": "uint256"
            },
            {
              "internalType": "string",
              "name": "token",
              "type": "string"
            }
          ],
          "internalType": "struct VotingSystem.Voter",
          "name": "",
          "type": "tuple"
        }
      ],
      "stateMutability": "view",
      "type": "function",
      "constant": true
    },
    {
      "inputs": [
        {
          "internalType": "uint256",
          "name": "_voterId",
          "type": "uint256"
        }
      ],
      "name": "getVoterEmailById",
      "outputs": [
        {
          "internalType": "string",
          "name": "",
          "type": "string"
        }
      ],
      "stateMutability": "view",
      "type": "function",
      "constant": true
    },
    {
      "inputs": [
        {
          "internalType": "string",
          "name": "_key",
          "type": "string"
        },
        {
          "internalType": "string",
          "name": "_password",
          "type": "string"
        }
      ],
      "name": "updateVoterPassword",
      "outputs": [],
      "stateMutability": "nonpayable",
      "type": "function"
    },
    {
      "inputs": [
        {
          "internalType": "string",
          "name": "_token",
          "type": "string"
        }
      ],
      "name": "verifyVoterAccount",
      "outputs": [
        {
          "internalType": "bool",
          "name": "",
          "type": "bool"
        }
      ],
      "stateMutability": "nonpayable",
      "type": "function"
    },
    {
      "inputs": [
        {
          "internalType": "string",
          "name": "_email",
          "type": "string"
        },
        {
          "internalType": "string",
          "name": "_password",
          "type": "string"
        }
      ],
      "name": "getVoterStatus",
      "outputs": [
        {
          "internalType": "uint256",
          "name": "status",
          "type": "uint256"
        }
      ],
      "stateMutability": "view",
      "type": "function",
      "constant": true
    },
    {
      "inputs": [
        {
          "internalType": "string",
          "name": "_email",
          "type": "string"
        },
        {
          "internalType": "string",
          "name": "_password",
          "type": "string"
        }
      ],
      "name": "checkVoterEmailPassword",
      "outputs": [
        {
          "internalType": "bool",
          "name": "foundVoter",
          "type": "bool"
        }
      ],
      "stateMutability": "view",
      "type": "function",
      "constant": true
    },
    {
      "inputs": [
        {
          "internalType": "string",
          "name": "_key",
          "type": "string"
        }
      ],
      "name": "isVoterExist",
      "outputs": [
        {
          "internalType": "bool",
          "name": "",
          "type": "bool"
        }
      ],
      "stateMutability": "view",
      "type": "function",
      "constant": true
    },
    {
      "inputs": [
        {
          "internalType": "string",
          "name": "_categoryName",
          "type": "string"
        }
      ],
      "name": "addCategory",
      "outputs": [],
      "stateMutability": "nonpayable",
      "type": "function"
    },
    {
      "inputs": [
        {
          "components": [
            {
              "internalType": "uint256",
              "name": "categoryId",
              "type": "uint256"
            },
            {
              "internalType": "string",
              "name": "categoryName",
              "type": "string"
            },
            {
              "components": [
                {
                  "internalType": "uint256",
                  "name": "eventId",
                  "type": "uint256"
                },
                {
                  "internalType": "string",
                  "name": "eventName",
                  "type": "string"
                },
                {
                  "internalType": "uint256",
                  "name": "categoryId",
                  "type": "uint256"
                },
                {
                  "components": [
                    {
                      "internalType": "uint256",
                      "name": "id",
                      "type": "uint256"
                    },
                    {
                      "internalType": "string",
                      "name": "name",
                      "type": "string"
                    },
                    {
                      "internalType": "string",
                      "name": "description",
                      "type": "string"
                    },
                    {
                      "internalType": "uint256",
                      "name": "studentId",
                      "type": "uint256"
                    },
                    {
                      "internalType": "uint256",
                      "name": "categoryId",
                      "type": "uint256"
                    },
                    {
                      "internalType": "uint256",
                      "name": "eventId",
                      "type": "uint256"
                    },
                    {
                      "internalType": "uint256",
                      "name": "voteCount",
                      "type": "uint256"
                    },
                    {
                      "internalType": "bool",
                      "name": "win",
                      "type": "bool"
                    },
                    {
                      "internalType": "string",
                      "name": "imageFileName",
                      "type": "string"
                    }
                  ],
                  "internalType": "struct VotingSystem.Candidate[]",
                  "name": "candidates",
                  "type": "tuple[]"
                },
                {
                  "internalType": "uint256",
                  "name": "candidateCount",
                  "type": "uint256"
                },
                {
                  "internalType": "uint256",
                  "name": "status",
                  "type": "uint256"
                }
              ],
              "internalType": "struct VotingSystem.Event[]",
              "name": "events",
              "type": "tuple[]"
            },
            {
              "internalType": "uint256",
              "name": "status",
              "type": "uint256"
            }
          ],
          "internalType": "struct VotingSystem.Category",
          "name": "_category",
          "type": "tuple"
        }
      ],
      "name": "updateCategory",
      "outputs": [],
      "stateMutability": "nonpayable",
      "type": "function"
    },
    {
      "inputs": [
        {
          "internalType": "uint256",
          "name": "_categoryId",
          "type": "uint256"
        },
        {
          "internalType": "string",
          "name": "_newCategoryName",
          "type": "string"
        }
      ],
      "name": "updateCategoryName",
      "outputs": [],
      "stateMutability": "nonpayable",
      "type": "function"
    },
    {
      "inputs": [
        {
          "internalType": "uint256",
          "name": "_categoryId",
          "type": "uint256"
        }
      ],
      "name": "deleteCategory",
      "outputs": [],
      "stateMutability": "nonpayable",
      "type": "function"
    },
    {
      "inputs": [
        {
          "internalType": "uint256",
          "name": "_categoryId",
          "type": "uint256"
        },
        {
          "internalType": "string",
          "name": "_eventName",
          "type": "string"
        }
      ],
      "name": "addEvent",
      "outputs": [],
      "stateMutability": "nonpayable",
      "type": "function"
    },
    {
      "inputs": [
        {
          "components": [
            {
              "internalType": "uint256",
              "name": "eventId",
              "type": "uint256"
            },
            {
              "internalType": "string",
              "name": "eventName",
              "type": "string"
            },
            {
              "internalType": "uint256",
              "name": "categoryId",
              "type": "uint256"
            },
            {
              "components": [
                {
                  "internalType": "uint256",
                  "name": "id",
                  "type": "uint256"
                },
                {
                  "internalType": "string",
                  "name": "name",
                  "type": "string"
                },
                {
                  "internalType": "string",
                  "name": "description",
                  "type": "string"
                },
                {
                  "internalType": "uint256",
                  "name": "studentId",
                  "type": "uint256"
                },
                {
                  "internalType": "uint256",
                  "name": "categoryId",
                  "type": "uint256"
                },
                {
                  "internalType": "uint256",
                  "name": "eventId",
                  "type": "uint256"
                },
                {
                  "internalType": "uint256",
                  "name": "voteCount",
                  "type": "uint256"
                },
                {
                  "internalType": "bool",
                  "name": "win",
                  "type": "bool"
                },
                {
                  "internalType": "string",
                  "name": "imageFileName",
                  "type": "string"
                }
              ],
              "internalType": "struct VotingSystem.Candidate[]",
              "name": "candidates",
              "type": "tuple[]"
            },
            {
              "internalType": "uint256",
              "name": "candidateCount",
              "type": "uint256"
            },
            {
              "internalType": "uint256",
              "name": "status",
              "type": "uint256"
            }
          ],
          "internalType": "struct VotingSystem.Event",
          "name": "_event",
          "type": "tuple"
        }
      ],
      "name": "updateEvent",
      "outputs": [],
      "stateMutability": "nonpayable",
      "type": "function"
    },
    {
      "inputs": [
        {
          "internalType": "uint256",
          "name": "_categoryId",
          "type": "uint256"
        },
        {
          "internalType": "uint256",
          "name": "_eventId",
          "type": "uint256"
        },
        {
          "internalType": "string",
          "name": "_candidateName",
          "type": "string"
        },
        {
          "internalType": "string",
          "name": "_description",
          "type": "string"
        },
        {
          "internalType": "uint256",
          "name": "_studentId",
          "type": "uint256"
        },
        {
          "internalType": "string",
          "name": "_imageFileName",
          "type": "string"
        }
      ],
      "name": "addCandidateToEvent",
      "outputs": [],
      "stateMutability": "nonpayable",
      "type": "function"
    },
    {
      "inputs": [
        {
          "components": [
            {
              "internalType": "uint256",
              "name": "id",
              "type": "uint256"
            },
            {
              "internalType": "string",
              "name": "name",
              "type": "string"
            },
            {
              "internalType": "string",
              "name": "description",
              "type": "string"
            },
            {
              "internalType": "uint256",
              "name": "studentId",
              "type": "uint256"
            },
            {
              "internalType": "uint256",
              "name": "categoryId",
              "type": "uint256"
            },
            {
              "internalType": "uint256",
              "name": "eventId",
              "type": "uint256"
            },
            {
              "internalType": "uint256",
              "name": "voteCount",
              "type": "uint256"
            },
            {
              "internalType": "bool",
              "name": "win",
              "type": "bool"
            },
            {
              "internalType": "string",
              "name": "imageFileName",
              "type": "string"
            }
          ],
          "internalType": "struct VotingSystem.Candidate",
          "name": "_candidate",
          "type": "tuple"
        }
      ],
      "name": "updateCandidate",
      "outputs": [],
      "stateMutability": "nonpayable",
      "type": "function"
    },
    {
      "inputs": [
        {
          "internalType": "string",
          "name": "_imageFileName",
          "type": "string"
        }
      ],
      "name": "isImageFileNameUsed",
      "outputs": [
        {
          "internalType": "bool",
          "name": "",
          "type": "bool"
        }
      ],
      "stateMutability": "view",
      "type": "function",
      "constant": true
    },
    {
      "inputs": [
        {
          "internalType": "uint256",
          "name": "_categoryId",
          "type": "uint256"
        },
        {
          "internalType": "uint256",
          "name": "_eventId",
          "type": "uint256"
        },
        {
          "internalType": "uint256",
          "name": "_studentId",
          "type": "uint256"
        }
      ],
      "name": "isCandidateExistsInEvent",
      "outputs": [
        {
          "internalType": "bool",
          "name": "",
          "type": "bool"
        }
      ],
      "stateMutability": "view",
      "type": "function",
      "constant": true
    },
    {
      "inputs": [
        {
          "internalType": "uint256",
          "name": "_categoryId",
          "type": "uint256"
        },
        {
          "internalType": "uint256",
          "name": "_eventId",
          "type": "uint256"
        },
        {
          "internalType": "uint256",
          "name": "_candidateId",
          "type": "uint256"
        }
      ],
      "name": "isCandidateExistsInEventById",
      "outputs": [
        {
          "internalType": "bool",
          "name": "",
          "type": "bool"
        }
      ],
      "stateMutability": "view",
      "type": "function",
      "constant": true
    },
    {
      "inputs": [
        {
          "internalType": "uint256",
          "name": "_categoryId",
          "type": "uint256"
        },
        {
          "internalType": "uint256",
          "name": "_eventId",
          "type": "uint256"
        }
      ],
      "name": "isEventExists",
      "outputs": [
        {
          "internalType": "bool",
          "name": "",
          "type": "bool"
        }
      ],
      "stateMutability": "view",
      "type": "function",
      "constant": true
    },
    {
      "inputs": [
        {
          "internalType": "uint256",
          "name": "_categoryId",
          "type": "uint256"
        },
        {
          "internalType": "string",
          "name": "_eventName",
          "type": "string"
        }
      ],
      "name": "isEventExists",
      "outputs": [
        {
          "internalType": "bool",
          "name": "",
          "type": "bool"
        }
      ],
      "stateMutability": "view",
      "type": "function",
      "constant": true
    },
    {
      "inputs": [
        {
          "internalType": "uint256",
          "name": "_categoryId",
          "type": "uint256"
        }
      ],
      "name": "getAllCategoryEvent",
      "outputs": [
        {
          "components": [
            {
              "internalType": "uint256",
              "name": "eventId",
              "type": "uint256"
            },
            {
              "internalType": "string",
              "name": "eventName",
              "type": "string"
            },
            {
              "internalType": "uint256",
              "name": "categoryId",
              "type": "uint256"
            },
            {
              "components": [
                {
                  "internalType": "uint256",
                  "name": "id",
                  "type": "uint256"
                },
                {
                  "internalType": "string",
                  "name": "name",
                  "type": "string"
                },
                {
                  "internalType": "string",
                  "name": "description",
                  "type": "string"
                },
                {
                  "internalType": "uint256",
                  "name": "studentId",
                  "type": "uint256"
                },
                {
                  "internalType": "uint256",
                  "name": "categoryId",
                  "type": "uint256"
                },
                {
                  "internalType": "uint256",
                  "name": "eventId",
                  "type": "uint256"
                },
                {
                  "internalType": "uint256",
                  "name": "voteCount",
                  "type": "uint256"
                },
                {
                  "internalType": "bool",
                  "name": "win",
                  "type": "bool"
                },
                {
                  "internalType": "string",
                  "name": "imageFileName",
                  "type": "string"
                }
              ],
              "internalType": "struct VotingSystem.Candidate[]",
              "name": "candidates",
              "type": "tuple[]"
            },
            {
              "internalType": "uint256",
              "name": "candidateCount",
              "type": "uint256"
            },
            {
              "internalType": "uint256",
              "name": "status",
              "type": "uint256"
            }
          ],
          "internalType": "struct VotingSystem.Event[]",
          "name": "foundEvent",
          "type": "tuple[]"
        }
      ],
      "stateMutability": "view",
      "type": "function",
      "constant": true
    },
    {
      "inputs": [
        {
          "internalType": "uint256",
          "name": "_categoryId",
          "type": "uint256"
        },
        {
          "internalType": "uint256",
          "name": "_eventId",
          "type": "uint256"
        }
      ],
      "name": "getAllCandidatesInEvent",
      "outputs": [
        {
          "components": [
            {
              "internalType": "uint256",
              "name": "id",
              "type": "uint256"
            },
            {
              "internalType": "string",
              "name": "name",
              "type": "string"
            },
            {
              "internalType": "string",
              "name": "description",
              "type": "string"
            },
            {
              "internalType": "uint256",
              "name": "studentId",
              "type": "uint256"
            },
            {
              "internalType": "uint256",
              "name": "categoryId",
              "type": "uint256"
            },
            {
              "internalType": "uint256",
              "name": "eventId",
              "type": "uint256"
            },
            {
              "internalType": "uint256",
              "name": "voteCount",
              "type": "uint256"
            },
            {
              "internalType": "bool",
              "name": "win",
              "type": "bool"
            },
            {
              "internalType": "string",
              "name": "imageFileName",
              "type": "string"
            }
          ],
          "internalType": "struct VotingSystem.Candidate[]",
          "name": "foundCandidates",
          "type": "tuple[]"
        }
      ],
      "stateMutability": "view",
      "type": "function",
      "constant": true
    },
    {
      "inputs": [],
      "name": "getAllCandidates",
      "outputs": [
        {
          "components": [
            {
              "internalType": "uint256",
              "name": "id",
              "type": "uint256"
            },
            {
              "internalType": "string",
              "name": "name",
              "type": "string"
            },
            {
              "internalType": "string",
              "name": "description",
              "type": "string"
            },
            {
              "internalType": "uint256",
              "name": "studentId",
              "type": "uint256"
            },
            {
              "internalType": "uint256",
              "name": "categoryId",
              "type": "uint256"
            },
            {
              "internalType": "uint256",
              "name": "eventId",
              "type": "uint256"
            },
            {
              "internalType": "uint256",
              "name": "voteCount",
              "type": "uint256"
            },
            {
              "internalType": "bool",
              "name": "win",
              "type": "bool"
            },
            {
              "internalType": "string",
              "name": "imageFileName",
              "type": "string"
            }
          ],
          "internalType": "struct VotingSystem.Candidate[]",
          "name": "",
          "type": "tuple[]"
        }
      ],
      "stateMutability": "view",
      "type": "function",
      "constant": true
    },
    {
      "inputs": [],
      "name": "getAllCategory",
      "outputs": [
        {
          "components": [
            {
              "internalType": "uint256",
              "name": "categoryId",
              "type": "uint256"
            },
            {
              "internalType": "string",
              "name": "categoryName",
              "type": "string"
            },
            {
              "components": [
                {
                  "internalType": "uint256",
                  "name": "eventId",
                  "type": "uint256"
                },
                {
                  "internalType": "string",
                  "name": "eventName",
                  "type": "string"
                },
                {
                  "internalType": "uint256",
                  "name": "categoryId",
                  "type": "uint256"
                },
                {
                  "components": [
                    {
                      "internalType": "uint256",
                      "name": "id",
                      "type": "uint256"
                    },
                    {
                      "internalType": "string",
                      "name": "name",
                      "type": "string"
                    },
                    {
                      "internalType": "string",
                      "name": "description",
                      "type": "string"
                    },
                    {
                      "internalType": "uint256",
                      "name": "studentId",
                      "type": "uint256"
                    },
                    {
                      "internalType": "uint256",
                      "name": "categoryId",
                      "type": "uint256"
                    },
                    {
                      "internalType": "uint256",
                      "name": "eventId",
                      "type": "uint256"
                    },
                    {
                      "internalType": "uint256",
                      "name": "voteCount",
                      "type": "uint256"
                    },
                    {
                      "internalType": "bool",
                      "name": "win",
                      "type": "bool"
                    },
                    {
                      "internalType": "string",
                      "name": "imageFileName",
                      "type": "string"
                    }
                  ],
                  "internalType": "struct VotingSystem.Candidate[]",
                  "name": "candidates",
                  "type": "tuple[]"
                },
                {
                  "internalType": "uint256",
                  "name": "candidateCount",
                  "type": "uint256"
                },
                {
                  "internalType": "uint256",
                  "name": "status",
                  "type": "uint256"
                }
              ],
              "internalType": "struct VotingSystem.Event[]",
              "name": "events",
              "type": "tuple[]"
            },
            {
              "internalType": "uint256",
              "name": "status",
              "type": "uint256"
            }
          ],
          "internalType": "struct VotingSystem.Category[]",
          "name": "",
          "type": "tuple[]"
        }
      ],
      "stateMutability": "view",
      "type": "function",
      "constant": true
    },
    {
      "inputs": [
        {
          "internalType": "uint256",
          "name": "_categoryId",
          "type": "uint256"
        }
      ],
      "name": "getCategoryById",
      "outputs": [
        {
          "components": [
            {
              "internalType": "uint256",
              "name": "categoryId",
              "type": "uint256"
            },
            {
              "internalType": "string",
              "name": "categoryName",
              "type": "string"
            },
            {
              "components": [
                {
                  "internalType": "uint256",
                  "name": "eventId",
                  "type": "uint256"
                },
                {
                  "internalType": "string",
                  "name": "eventName",
                  "type": "string"
                },
                {
                  "internalType": "uint256",
                  "name": "categoryId",
                  "type": "uint256"
                },
                {
                  "components": [
                    {
                      "internalType": "uint256",
                      "name": "id",
                      "type": "uint256"
                    },
                    {
                      "internalType": "string",
                      "name": "name",
                      "type": "string"
                    },
                    {
                      "internalType": "string",
                      "name": "description",
                      "type": "string"
                    },
                    {
                      "internalType": "uint256",
                      "name": "studentId",
                      "type": "uint256"
                    },
                    {
                      "internalType": "uint256",
                      "name": "categoryId",
                      "type": "uint256"
                    },
                    {
                      "internalType": "uint256",
                      "name": "eventId",
                      "type": "uint256"
                    },
                    {
                      "internalType": "uint256",
                      "name": "voteCount",
                      "type": "uint256"
                    },
                    {
                      "internalType": "bool",
                      "name": "win",
                      "type": "bool"
                    },
                    {
                      "internalType": "string",
                      "name": "imageFileName",
                      "type": "string"
                    }
                  ],
                  "internalType": "struct VotingSystem.Candidate[]",
                  "name": "candidates",
                  "type": "tuple[]"
                },
                {
                  "internalType": "uint256",
                  "name": "candidateCount",
                  "type": "uint256"
                },
                {
                  "internalType": "uint256",
                  "name": "status",
                  "type": "uint256"
                }
              ],
              "internalType": "struct VotingSystem.Event[]",
              "name": "events",
              "type": "tuple[]"
            },
            {
              "internalType": "uint256",
              "name": "status",
              "type": "uint256"
            }
          ],
          "internalType": "struct VotingSystem.Category",
          "name": "",
          "type": "tuple"
        }
      ],
      "stateMutability": "view",
      "type": "function",
      "constant": true
    },
    {
      "inputs": [],
      "name": "getAllEvent",
      "outputs": [
        {
          "components": [
            {
              "internalType": "uint256",
              "name": "eventId",
              "type": "uint256"
            },
            {
              "internalType": "string",
              "name": "eventName",
              "type": "string"
            },
            {
              "internalType": "uint256",
              "name": "categoryId",
              "type": "uint256"
            },
            {
              "components": [
                {
                  "internalType": "uint256",
                  "name": "id",
                  "type": "uint256"
                },
                {
                  "internalType": "string",
                  "name": "name",
                  "type": "string"
                },
                {
                  "internalType": "string",
                  "name": "description",
                  "type": "string"
                },
                {
                  "internalType": "uint256",
                  "name": "studentId",
                  "type": "uint256"
                },
                {
                  "internalType": "uint256",
                  "name": "categoryId",
                  "type": "uint256"
                },
                {
                  "internalType": "uint256",
                  "name": "eventId",
                  "type": "uint256"
                },
                {
                  "internalType": "uint256",
                  "name": "voteCount",
                  "type": "uint256"
                },
                {
                  "internalType": "bool",
                  "name": "win",
                  "type": "bool"
                },
                {
                  "internalType": "string",
                  "name": "imageFileName",
                  "type": "string"
                }
              ],
              "internalType": "struct VotingSystem.Candidate[]",
              "name": "candidates",
              "type": "tuple[]"
            },
            {
              "internalType": "uint256",
              "name": "candidateCount",
              "type": "uint256"
            },
            {
              "internalType": "uint256",
              "name": "status",
              "type": "uint256"
            }
          ],
          "internalType": "struct VotingSystem.Event[]",
          "name": "",
          "type": "tuple[]"
        }
      ],
      "stateMutability": "view",
      "type": "function",
      "constant": true
    },
    {
      "inputs": [
        {
          "internalType": "uint256",
          "name": "_categoryId",
          "type": "uint256"
        },
        {
          "internalType": "uint256",
          "name": "_eventId",
          "type": "uint256"
        }
      ],
      "name": "getEventById",
      "outputs": [
        {
          "components": [
            {
              "internalType": "uint256",
              "name": "eventId",
              "type": "uint256"
            },
            {
              "internalType": "string",
              "name": "eventName",
              "type": "string"
            },
            {
              "internalType": "uint256",
              "name": "categoryId",
              "type": "uint256"
            },
            {
              "components": [
                {
                  "internalType": "uint256",
                  "name": "id",
                  "type": "uint256"
                },
                {
                  "internalType": "string",
                  "name": "name",
                  "type": "string"
                },
                {
                  "internalType": "string",
                  "name": "description",
                  "type": "string"
                },
                {
                  "internalType": "uint256",
                  "name": "studentId",
                  "type": "uint256"
                },
                {
                  "internalType": "uint256",
                  "name": "categoryId",
                  "type": "uint256"
                },
                {
                  "internalType": "uint256",
                  "name": "eventId",
                  "type": "uint256"
                },
                {
                  "internalType": "uint256",
                  "name": "voteCount",
                  "type": "uint256"
                },
                {
                  "internalType": "bool",
                  "name": "win",
                  "type": "bool"
                },
                {
                  "internalType": "string",
                  "name": "imageFileName",
                  "type": "string"
                }
              ],
              "internalType": "struct VotingSystem.Candidate[]",
              "name": "candidates",
              "type": "tuple[]"
            },
            {
              "internalType": "uint256",
              "name": "candidateCount",
              "type": "uint256"
            },
            {
              "internalType": "uint256",
              "name": "status",
              "type": "uint256"
            }
          ],
          "internalType": "struct VotingSystem.Event",
          "name": "",
          "type": "tuple"
        }
      ],
      "stateMutability": "view",
      "type": "function",
      "constant": true
    },
    {
      "inputs": [
        {
          "internalType": "string",
          "name": "_voterKey",
          "type": "string"
        },
        {
          "internalType": "uint256",
          "name": "_candidateId",
          "type": "uint256"
        },
        {
          "internalType": "uint256",
          "name": "_categoryId",
          "type": "uint256"
        },
        {
          "internalType": "uint256",
          "name": "_eventId",
          "type": "uint256"
        }
      ],
      "name": "vote",
      "outputs": [],
      "stateMutability": "nonpayable",
      "type": "function"
    },
    {
      "inputs": [
        {
          "internalType": "uint256",
          "name": "_candidateId",
          "type": "uint256"
        }
      ],
      "name": "getCandidateVoteCount",
      "outputs": [
        {
          "internalType": "uint256",
          "name": "count",
          "type": "uint256"
        }
      ],
      "stateMutability": "view",
      "type": "function",
      "constant": true
    },
    {
      "inputs": [
        {
          "internalType": "uint256",
          "name": "_categoryId",
          "type": "uint256"
        },
        {
          "internalType": "uint256",
          "name": "_eventId",
          "type": "uint256"
        }
      ],
      "name": "getVoteEventCandidate",
      "outputs": [
        {
          "components": [
            {
              "internalType": "uint256",
              "name": "id",
              "type": "uint256"
            },
            {
              "internalType": "string",
              "name": "name",
              "type": "string"
            },
            {
              "internalType": "string",
              "name": "description",
              "type": "string"
            },
            {
              "internalType": "uint256",
              "name": "studentId",
              "type": "uint256"
            },
            {
              "internalType": "uint256",
              "name": "categoryId",
              "type": "uint256"
            },
            {
              "internalType": "uint256",
              "name": "eventId",
              "type": "uint256"
            },
            {
              "internalType": "uint256",
              "name": "voteCount",
              "type": "uint256"
            },
            {
              "internalType": "bool",
              "name": "win",
              "type": "bool"
            },
            {
              "internalType": "string",
              "name": "imageFileName",
              "type": "string"
            }
          ],
          "internalType": "struct VotingSystem.Candidate[]",
          "name": "",
          "type": "tuple[]"
        }
      ],
      "stateMutability": "view",
      "type": "function",
      "constant": true
    },
    {
      "inputs": [
        {
          "internalType": "uint256",
          "name": "_categoryId",
          "type": "uint256"
        },
        {
          "internalType": "uint256",
          "name": "_eventId",
          "type": "uint256"
        }
      ],
      "name": "whoIsTheWinner",
      "outputs": [
        {
          "components": [
            {
              "internalType": "uint256",
              "name": "id",
              "type": "uint256"
            },
            {
              "internalType": "string",
              "name": "name",
              "type": "string"
            },
            {
              "internalType": "string",
              "name": "description",
              "type": "string"
            },
            {
              "internalType": "uint256",
              "name": "studentId",
              "type": "uint256"
            },
            {
              "internalType": "uint256",
              "name": "categoryId",
              "type": "uint256"
            },
            {
              "internalType": "uint256",
              "name": "eventId",
              "type": "uint256"
            },
            {
              "internalType": "uint256",
              "name": "voteCount",
              "type": "uint256"
            },
            {
              "internalType": "bool",
              "name": "win",
              "type": "bool"
            },
            {
              "internalType": "string",
              "name": "imageFileName",
              "type": "string"
            }
          ],
          "internalType": "struct VotingSystem.Candidate",
          "name": "",
          "type": "tuple"
        }
      ],
      "stateMutability": "view",
      "type": "function",
      "constant": true
    }
  ],
  "bytecode": "0x608060405234801561001057600080fd5b50600080546001600160a01b0319163317905561596d80620000336000396000f3fe608060405234801561001057600080fd5b506004361061021c5760003560e01c8063776a657b11610125578063bf03f677116100ad578063da58c7d91161007c578063da58c7d914610517578063dfdffaf41461053d578063f29565ed14610550578063f731d0e914610563578063ffdd108b1461057657600080fd5b8063bf03f677146104cb578063bf196e16146104de578063c8011280146104f1578063ceca737f1461050457600080fd5b80638f2c2805116100f45780638f2c28051461044d578063909f850214610462578063a1a0256414610482578063a7e62d1b14610495578063b315c597146104a857600080fd5b8063776a657b146103e95780638801b5b6146103fc57806388ad43761461040f5780638da5cb5b1461042257600080fd5b806350515a77116101a857806360e93f3c1161017757806360e93f3c1461035f578063642d20ad1461037f578063689b6fbf146103a3578063748f55a8146103b657806376304984146103d657600080fd5b806350515a7714610306578063514fc62a146103195780635a8ffc791461032c5780635b4d727c1461034c57600080fd5b80633e60e2f5116101ef5780633e60e2f51461027c578063400af02a1461029d578063401a52dd146102bd5780634fb43250146102d05780634ffd25f6146102f357600080fd5b80631002cdd4146102215780632e0dcbf71461023f5780632e6997fe146102545780633a637c2014610269575b600080fd5b610229610589565b6040516102369190614c1f565b60405180910390f35b61025261024d366004614da3565b6109d2565b005b61025c610b01565b6040516102369190614ddf565b61025261027736600461506a565b610c83565b61028f61028a36600461517d565b610ceb565b604051908152602001610236565b6102b06102ab36600461517d565b610d29565b60405161023691906151e0565b6102296102cb36600461527d565b610e06565b6102e36102de366004615296565b6111fa565b6040519015158152602001610236565b6102526103013660046152b8565b6112a6565b6102e36103143660046152ec565b6113d1565b6102e3610327366004614da3565b611490565b61033f61033a36600461527d565b6114f6565b6040516102369190615328565b61025c61035a366004615296565b6115ea565b61037261036d36600461527d565b611986565b60405161023691906153cc565b61039261038d36600461527d565b611de9565b6040516102369594939291906153df565b6102e36103b136600461517d565b611ea5565b6103c96103c4366004615296565b611ec6565b6040516102369190615417565b6102526103e436600461542a565b612364565b6102526103f73660046154cd565b6126b5565b6102b061040a36600461517d565b6129cd565b6102e361041d366004614da3565b612da9565b600054610435906001600160a01b031681565b6040516001600160a01b039091168152602001610236565b610455612dd4565b6040516102369190615520565b610475610470366004615296565b6132d0565b6040516102369190615575565b6102e3610490366004614da3565b613788565b61025c6104a3366004615296565b61386c565b61028f6104b636600461527d565b60009081526003602052604090206006015490565b6102e36104d9366004615588565b613c8a565b6102526104ec3660046152ec565b613d1e565b6102526104ff3660046155b4565b613e1b565b61025261051236600461527d565b613fcc565b61052a61052536600461527d565b614035565b60405161023697969594939291906155e8565b6102e361054b366004615588565b614290565b61025261055e36600461517d565b614318565b610252610571366004615655565b6143fe565b6102526105843660046152ec565b614593565b606060006009546001600160401b038111156105a7576105a7614c81565b6040519080825280602002602001820160405280156105e057816020015b6105cd61483d565b8152602001906001900390816105c55790505b5090506000805b6007548110156109ca5760005b60016000610602848361573c565b81526020810191909152604001600020600201548110156109b7576001600061062b848361573c565b8152602001908152602001600020600201818154811061064d5761064d615754565b90600052602060002090600602016040518060c0016040529081600082015481526020016001820180546106809061576a565b80601f01602080910402602001604051908101604052809291908181526020018280546106ac9061576a565b80156106f95780601f106106ce576101008083540402835291602001916106f9565b820191906000526020600020905b8154815290600101906020018083116106dc57829003601f168201915b505050505081526020016002820154815260200160038201805480602002602001604051908101604052809291908181526020016000905b8282101561095f5783829060005260206000209060090201604051806101200160405290816000820154815260200160018201805461076f9061576a565b80601f016020809104026020016040519081016040528092919081815260200182805461079b9061576a565b80156107e85780601f106107bd576101008083540402835291602001916107e8565b820191906000526020600020905b8154815290600101906020018083116107cb57829003601f168201915b505050505081526020016002820180546108019061576a565b80601f016020809104026020016040519081016040528092919081815260200182805461082d9061576a565b801561087a5780601f1061084f5761010080835404028352916020019161087a565b820191906000526020600020905b81548152906001019060200180831161085d57829003601f168201915b505050918352505060038201546020820152600482015460408201526005820154606082015260068201546080820152600782015460ff16151560a082015260088201805460c0909201916108ce9061576a565b80601f01602080910402602001604051908101604052809291908181526020018280546108fa9061576a565b80156109475780601f1061091c57610100808354040283529160200191610947565b820191906000526020600020905b81548152906001019060200180831161092a57829003601f168201915b50505050508152505081526020019060010190610731565b5050505081526020016004820154815260200160058201548152505084848151811061098d5761098d615754565b60209081029190910101526109a360018461573c565b9250806109af8161579e565b9150506105f4565b50806109c28161579e565b9150506105e7565b509092915050565b60015b6007548111610a755760016000828152602001908152602001600020600101604051610a0191906157b7565b6040518091039020828051906020012003610a635760405162461bcd60e51b815260206004820152601760248201527f43617465676f727920616c72656164792065786973747300000000000000000060448201526064015b60405180910390fd5b80610a6d8161579e565b9150506109d5565b50600160076000828254610a89919061573c565b9091555050600754600090815260016020818152604090922083519092610ab69284019190850190614873565b5060078054825560016003830155546040517f5bae3f75753ef0a1c0ea0f6c51d7b43a4b8d116572b8b7b5cb771f9ad32d4ae590610af5908590615328565b60405180910390a25050565b606060006008546001600160401b03811115610b1f57610b1f614c81565b604051908082528060200260200182016040528015610b5857816020015b610b456148f7565b815260200190600190039081610b3d5790505b50905060006009546001600160401b03811115610b7757610b77614c81565b604051908082528060200260200182016040528015610bb057816020015b610b9d61483d565b815260200190600190039081610b955790505b509050610bbb610589565b90506000805b600954811015610c7a5760005b838281518110610be057610be0615754565b60200260200101516060015151811015610c6757838281518110610c0657610c06615754565b6020026020010151606001518181518110610c2357610c23615754565b6020026020010151858481518110610c3d57610c3d615754565b6020908102919091010152610c5360018461573c565b925080610c5f8161579e565b915050610bce565b5080610c728161579e565b915050610bc1565b50919392505050565b80516000908152600160205260408120549003610cb25760405162461bcd60e51b8152600401610a5a90615852565b805160009081526001602081815260409092208284015180519193610cdc93850192910190614873565b50606090910151600390910155565b600080610cf884846129cd565b8051909150600003610d1c5760405162461bcd60e51b8152600401610a5a90615889565b60a0015190505b92915050565b610d6c6040518060e00160405280600081526020016060815260200160608152602001600080191681526020016060815260200160008152602001606081525090565b6000610d7884846129cd565b8051909150600003610d9c5760405162461bcd60e51b8152600401610a5a90615889565b8060a00151600114610dff5760405162461bcd60e51b815260206004820152602660248201527f596f7572206163636f756e74207761732062616e6e6564206f72206e6f74207660448201526565726966792160d01b6064820152608401610a5a565b9392505050565b60008181526001602052604081206002810154606092906001600160401b03811115610e3457610e34614c81565b604051908082528060200260200182016040528015610e6d57816020015b610e5a61483d565b815260200190600190039081610e525790505b50905060005b60028301548110156111f257826002018181548110610e9457610e94615754565b90600052602060002090600602016040518060c001604052908160008201548152602001600182018054610ec79061576a565b80601f0160208091040260200160405190810160405280929190818152602001828054610ef39061576a565b8015610f405780601f10610f1557610100808354040283529160200191610f40565b820191906000526020600020905b815481529060010190602001808311610f2357829003601f168201915b505050505081526020016002820154815260200160038201805480602002602001604051908101604052809291908181526020016000905b828210156111a657838290600052602060002090600902016040518061012001604052908160008201548152602001600182018054610fb69061576a565b80601f0160208091040260200160405190810160405280929190818152602001828054610fe29061576a565b801561102f5780601f106110045761010080835404028352916020019161102f565b820191906000526020600020905b81548152906001019060200180831161101257829003601f168201915b505050505081526020016002820180546110489061576a565b80601f01602080910402602001604051908101604052809291908181526020018280546110749061576a565b80156110c15780601f10611096576101008083540402835291602001916110c1565b820191906000526020600020905b8154815290600101906020018083116110a457829003601f168201915b505050918352505060038201546020820152600482015460408201526005820154606082015260068201546080820152600782015460ff16151560a082015260088201805460c0909201916111159061576a565b80601f01602080910402602001604051908101604052809291908181526020018280546111419061576a565b801561118e5780601f106111635761010080835404028352916020019161118e565b820191906000526020600020905b81548152906001019060200180831161117157829003601f168201915b50505050508152505081526020019060010190610f78565b505050508152602001600482015481526020016005820154815250508282815181106111d4576111d4615754565b602002602001018190525080806111ea9061579e565b915050610e73565b509392505050565b60008281526001602052604081205481036112275760405162461bcd60e51b8152600401610a5a906158cd565b60005b60008481526001602052604090206002015481101561129c57600084815260016020526040902060020180548491908390811061126957611269615754565b9060005260206000209060060201600001540361128a576001915050610d23565b806112948161579e565b91505061122a565b5060009392505050565b604080820151600090815260016020529081205490036113035760405162461bcd60e51b815260206004820152601860248201527743617465676f727920646f6573206e6f742065786973747360401b6044820152606401610a5a565b611315816040015182600001516111fa565b6113595760405162461bcd60e51b81526020600482015260156024820152744576656e7420646f6573206e6f742065786973742160581b6044820152606401610a5a565b60006001600083604001518152602001908152602001600020600201600183600001516113869190615904565b8154811061139657611396615754565b9060005260206000209060060201905081602001518160010190805190602001906113c2929190614873565b5060a090910151600590910155565b60008281526001602052604081205481036113fe5760405162461bcd60e51b8152600401610a5a906158cd565b60005b60008481526001602052604090206002015481101561129c57828051906020012060016000868152602001908152602001600020600201828154811061144957611449615754565b906000526020600020906006020160010160405161146791906157b7565b60405180910390200361147e576001915050610d23565b806114888161579e565b915050611401565b600060015b600b5481116114ed576000818152600560205260409081902090516114bd91600101906157b7565b60405180910390208380519060200120036114db5750600192915050565b806114e58161579e565b915050611495565b50600092915050565b606060008211801561150a5750600b548211155b6115495760405162461bcd60e51b815260206004820152601060248201526f125b9d985b1a59081d9bdd195c88125160821b6044820152606401610a5a565b600082815260056020526040902060020180546115659061576a565b80601f01602080910402602001604051908101604052809291908181526020018280546115919061576a565b80156115de5780601f106115b3576101008083540402835291602001916115de565b820191906000526020600020905b8154815290600101906020018083116115c157829003601f168201915b50505050509050919050565b60008281526001602052604081206060915b600282015481101561197e578382600201828154811061161e5761161e615754565b9060005260206000209060060201600001540361196c57600082600201828154811061164c5761164c615754565b9060005260206000209060060201600401546001600160401b0381111561167557611675614c81565b6040519080825280602002602001820160405280156116ae57816020015b61169b6148f7565b8152602001906001900390816116935790505b50905060005b8360020183815481106116c9576116c9615754565b906000526020600020906006020160030180549050811015611961578360020183815481106116fa576116fa615754565b9060005260206000209060060201600301818154811061171c5761171c615754565b906000526020600020906009020160405180610120016040529081600082015481526020016001820180546117509061576a565b80601f016020809104026020016040519081016040528092919081815260200182805461177c9061576a565b80156117c95780601f1061179e576101008083540402835291602001916117c9565b820191906000526020600020905b8154815290600101906020018083116117ac57829003601f168201915b505050505081526020016002820180546117e29061576a565b80601f016020809104026020016040519081016040528092919081815260200182805461180e9061576a565b801561185b5780601f106118305761010080835404028352916020019161185b565b820191906000526020600020905b81548152906001019060200180831161183e57829003601f168201915b505050918352505060038201546020820152600482015460408201526005820154606082015260068201546080820152600782015460ff16151560a082015260088201805460c0909201916118af9061576a565b80601f01602080910402602001604051908101604052809291908181526020018280546118db9061576a565b80156119285780601f106118fd57610100808354040283529160200191611928565b820191906000526020600020905b81548152906001019060200180831161190b57829003601f168201915b50505050508152505082828151811061194357611943615754565b602002602001018190525080806119599061579e565b9150506116b4565b509250610d23915050565b806119768161579e565b9150506115fc565b505092915050565b6119b16040518060800160405280600081526020016060815260200160608152602001600081525090565b600082815260016020818152604092839020835160808101909452805484529182018054918401916119e29061576a565b80601f0160208091040260200160405190810160405280929190818152602001828054611a0e9061576a565b8015611a5b5780601f10611a3057610100808354040283529160200191611a5b565b820191906000526020600020905b815481529060010190602001808311611a3e57829003601f168201915b5050505050815260200160028201805480602002602001604051908101604052809291908181526020016000905b82821015611dd057838290600052602060002090600602016040518060c001604052908160008201548152602001600182018054611ac69061576a565b80601f0160208091040260200160405190810160405280929190818152602001828054611af29061576a565b8015611b3f5780601f10611b1457610100808354040283529160200191611b3f565b820191906000526020600020905b815481529060010190602001808311611b2257829003601f168201915b505050505081526020016002820154815260200160038201805480602002602001604051908101604052809291908181526020016000905b82821015611da557838290600052602060002090600902016040518061012001604052908160008201548152602001600182018054611bb59061576a565b80601f0160208091040260200160405190810160405280929190818152602001828054611be19061576a565b8015611c2e5780601f10611c0357610100808354040283529160200191611c2e565b820191906000526020600020905b815481529060010190602001808311611c1157829003601f168201915b50505050508152602001600282018054611c479061576a565b80601f0160208091040260200160405190810160405280929190818152602001828054611c739061576a565b8015611cc05780601f10611c9557610100808354040283529160200191611cc0565b820191906000526020600020905b815481529060010190602001808311611ca357829003601f168201915b505050918352505060038201546020820152600482015460408201526005820154606082015260068201546080820152600782015460ff16151560a082015260088201805460c090920191611d149061576a565b80601f0160208091040260200160405190810160405280929190818152602001828054611d409061576a565b8015611d8d5780601f10611d6257610100808354040283529160200191611d8d565b820191906000526020600020905b815481529060010190602001808311611d7057829003601f168201915b50505050508152505081526020019060010190611b77565b5050505081526020016004820154815260200160058201548152505081526020019060010190611a89565b5050505081526020016003820154815250509050919050565b60046020526000908152604090208054600182018054919291611e0b9061576a565b80601f0160208091040260200160405190810160405280929190818152602001828054611e379061576a565b8015611e845780601f10611e5957610100808354040283529160200191611e84565b820191906000526020600020905b815481529060010190602001808311611e6757829003601f168201915b50505050600283015460038401546004909401549293909290915060ff1685565b600080611eb284846129cd565b80519091501561129c576001915050610d23565b611ece6148f7565b600083815260016020908152604080832060020180548251818502810185019093528083529192909190849084015b8282101561224457838290600052602060002090600602016040518060c001604052908160008201548152602001600182018054611f3a9061576a565b80601f0160208091040260200160405190810160405280929190818152602001828054611f669061576a565b8015611fb35780601f10611f8857610100808354040283529160200191611fb3565b820191906000526020600020905b815481529060010190602001808311611f9657829003601f168201915b505050505081526020016002820154815260200160038201805480602002602001604051908101604052809291908181526020016000905b82821015612219578382906000526020600020906009020160405180610120016040529081600082015481526020016001820180546120299061576a565b80601f01602080910402602001604051908101604052809291908181526020018280546120559061576a565b80156120a25780601f10612077576101008083540402835291602001916120a2565b820191906000526020600020905b81548152906001019060200180831161208557829003601f168201915b505050505081526020016002820180546120bb9061576a565b80601f01602080910402602001604051908101604052809291908181526020018280546120e79061576a565b80156121345780601f1061210957610100808354040283529160200191612134565b820191906000526020600020905b81548152906001019060200180831161211757829003601f168201915b505050918352505060038201546020820152600482015460408201526005820154606082015260068201546080820152600782015460ff16151560a082015260088201805460c0909201916121889061576a565b80601f01602080910402602001604051908101604052809291908181526020018280546121b49061576a565b80156122015780601f106121d657610100808354040283529160200191612201565b820191906000526020600020905b8154815290600101906020018083116121e457829003601f168201915b50505050508152505081526020019060010190611feb565b5050505081526020016004820154815260200160058201548152505081526020019060010190611efd565b505050509050606060005b82518110156122af578483828151811061226b5761226b615754565b6020026020010151600001510361229d5782818151811061228e5761228e615754565b60200260200101516060015191505b806122a78161579e565b91505061224f565b506000816000815181106122c5576122c5615754565b6020026020010151905060005b600183516122e09190615904565b81101561235357826122f382600161573c565b8151811061230357612303615754565b602002602001015160c001518260c001511015612341578261232682600161573c565b8151811061233657612336615754565b602002602001015191505b8061234b8161579e565b9150506122d2565b50600160e082015295945050505050565b60008681526001602052604081205490036123915760405162461bcd60e51b8152600401610a5a906158cd565b61239b86866111fa565b6123de5760405162461bcd60e51b8152602060048201526014602482015273115d995b9d08191bd95cc81b9bdd08195e1a5cdd60621b6044820152606401610a5a565b6123e9868684614290565b156124365760405162461bcd60e51b815260206004820152601860248201527f43616e64696461746520616c72656164792065786973747300000000000000006044820152606401610a5a565b600681604051612446919061591b565b9081526040519081900360200190205460ff16156124a65760405162461bcd60e51b815260206004820152601e60248201527f496d6167652066696c65206e616d6520616c726561647920696e2075736500006044820152606401610a5a565b6001600860008282546124b9919061573c565b9091555050604080516101208101825260085481526020808201879052818301869052606082018590526080820189905260a08201889052600060c0830181905260e083018190526101008301859052898152600190915291822090915b6002820154811015612678578782600201828154811061253957612539615754565b906000526020600020906006020160000154036126665781600201818154811061256557612565615754565b600091825260208083206003600690930201919091018054600181810183559184529282902086516009909402019283558582015180518794936125ad938501920190614873565b50604082015180516125c9916002840191602090910190614873565b50606082015160038201556080820151600482015560a0820151600582015560c0820151600682015560e082015160078201805460ff19169115159190911790556101008201518051612626916008840191602090910190614873565b505050600182600201828154811061264057612640615754565b90600052602060002090600602016004016000828254612660919061573c565b90915550505b806126708161579e565b915050612517565b50600160068460405161268b919061591b565b908152604051908190036020019020805491151560ff199092169190911790555050505050505050565b600082815260016020526040812054900361270d5760405162461bcd60e51b815260206004820152601860248201527743617465676f727920646f6573206e6f742065786973747360401b6044820152606401610a5a565b6009546000036127575760405162461bcd60e51b81526020600482015260156024820152744576656e7420646f6573206e6f742065786973747360581b6044820152606401610a5a565b612762828285613c8a565b15156001146127b35760405162461bcd60e51b815260206004820152601a60248201527f43616e6469646174657320646f6573206e6f74206578697374730000000000006044820152606401610a5a565b60015b600a54811161289a576000818152600460205260409081902090516127de91600101906157b7565b6040518091039020858051906020012014801561280b575060008181526004602052604090206002015483145b8015612827575060008181526004602052604090206003015482145b15612888576000818152600460208190526040909120015460ff16156128835760405162461bcd60e51b8152602060048201526011602482015270165bdd48185b1c9958591e481d9bdd1959607a1b6044820152606401610a5a565b61289a565b806128928161579e565b9150506127b6565b506001600a60008282546128ae919061573c565b90915550506040805160a081018252600a548082526020808301888152838501879052606084018690526001608085018190526000938452600483529490922083518155915180519394859461290b939185019290910190614873565b5060408201516002820155606082015160038201556080909101516004909101805460ff19169115159190911790556129438461468b565b61294e8383866146b5565b604080516020810185905280820184905281518082038301815260609091019182905290859061297f90839061591b565b604051809103902087604051612995919061591b565b604051908190038120907f336badd820d33e68eff2381e343928896ff7147adf09b298939d0a7b001f072e90600090a4505050505050565b612a106040518060e00160405280600081526020016060815260200160608152602001600080191681526020016060815260200160008152602001606081525090565b600082604051602001612a23919061591b565b60408051601f198184030181529190528051602090910120905060015b600b548111612d4157600081815260056020526040908190209051612a6891600201906157b7565b60405180910390208580519060200120148015612a9d5750600081815260056020526040902060030154612a9d9083906147c5565b15612d2f57600560008281526020019081526020016000206040518060e001604052908160008201548152602001600182018054612ada9061576a565b80601f0160208091040260200160405190810160405280929190818152602001828054612b069061576a565b8015612b535780601f10612b2857610100808354040283529160200191612b53565b820191906000526020600020905b815481529060010190602001808311612b3657829003601f168201915b50505050508152602001600282018054612b6c9061576a565b80601f0160208091040260200160405190810160405280929190818152602001828054612b989061576a565b8015612be55780601f10612bba57610100808354040283529160200191612be5565b820191906000526020600020905b815481529060010190602001808311612bc857829003601f168201915b5050505050815260200160038201548152602001600482018054612c089061576a565b80601f0160208091040260200160405190810160405280929190818152602001828054612c349061576a565b8015612c815780601f10612c5657610100808354040283529160200191612c81565b820191906000526020600020905b815481529060010190602001808311612c6457829003601f168201915b5050505050815260200160058201548152602001600682018054612ca49061576a565b80601f0160208091040260200160405190810160405280929190818152602001828054612cd09061576a565b8015612d1d5780601f10612cf257610100808354040283529160200191612d1d565b820191906000526020600020905b815481529060010190602001808311612d0057829003601f168201915b50505050508152505092505050610d23565b80612d398161579e565b915050612a40565b50506040805160e08101825260008082528251602080820185528282528084019190915283518082018552828152838501526060830182905283518082018552828152608084015260a083018290528351908101909352825260c08101919091529392505050565b6000600682604051612dbb919061591b565b9081526040519081900360200190205460ff1692915050565b606060006007546001600160401b03811115612df257612df2614c81565b604051908082528060200260200182016040528015612e4e57816020015b612e3b6040518060800160405280600081526020016060815260200160608152602001600081525090565b815260200190600190039081612e105790505b50905060015b60075481116132ca5760008181526001602081815260409283902083516080810190945280548452918201805491840191612e8e9061576a565b80601f0160208091040260200160405190810160405280929190818152602001828054612eba9061576a565b8015612f075780601f10612edc57610100808354040283529160200191612f07565b820191906000526020600020905b815481529060010190602001808311612eea57829003601f168201915b5050505050815260200160028201805480602002602001604051908101604052809291908181526020016000905b8282101561327c57838290600052602060002090600602016040518060c001604052908160008201548152602001600182018054612f729061576a565b80601f0160208091040260200160405190810160405280929190818152602001828054612f9e9061576a565b8015612feb5780601f10612fc057610100808354040283529160200191612feb565b820191906000526020600020905b815481529060010190602001808311612fce57829003601f168201915b505050505081526020016002820154815260200160038201805480602002602001604051908101604052809291908181526020016000905b82821015613251578382906000526020600020906009020160405180610120016040529081600082015481526020016001820180546130619061576a565b80601f016020809104026020016040519081016040528092919081815260200182805461308d9061576a565b80156130da5780601f106130af576101008083540402835291602001916130da565b820191906000526020600020905b8154815290600101906020018083116130bd57829003601f168201915b505050505081526020016002820180546130f39061576a565b80601f016020809104026020016040519081016040528092919081815260200182805461311f9061576a565b801561316c5780601f106131415761010080835404028352916020019161316c565b820191906000526020600020905b81548152906001019060200180831161314f57829003601f168201915b505050918352505060038201546020820152600482015460408201526005820154606082015260068201546080820152600782015460ff16151560a082015260088201805460c0909201916131c09061576a565b80601f01602080910402602001604051908101604052809291908181526020018280546131ec9061576a565b80156132395780601f1061320e57610100808354040283529160200191613239565b820191906000526020600020905b81548152906001019060200180831161321c57829003601f168201915b50505050508152505081526020019060010190613023565b5050505081526020016004820154815260200160058201548152505081526020019060010190612f35565b5050505081526020016003820154815250508260018361329c9190615904565b815181106132ac576132ac615754565b602002602001018190525080806132c29061579e565b915050612e54565b50919050565b6132d861483d565b600083815260016020818152604080842081516080810190925280548252928301805491939284019161330a9061576a565b80601f01602080910402602001604051908101604052809291908181526020018280546133369061576a565b80156133835780601f1061335857610100808354040283529160200191613383565b820191906000526020600020905b81548152906001019060200180831161336657829003601f168201915b5050505050815260200160028201805480602002602001604051908101604052809291908181526020016000905b828210156136f857838290600052602060002090600602016040518060c0016040529081600082015481526020016001820180546133ee9061576a565b80601f016020809104026020016040519081016040528092919081815260200182805461341a9061576a565b80156134675780601f1061343c57610100808354040283529160200191613467565b820191906000526020600020905b81548152906001019060200180831161344a57829003601f168201915b505050505081526020016002820154815260200160038201805480602002602001604051908101604052809291908181526020016000905b828210156136cd578382906000526020600020906009020160405180610120016040529081600082015481526020016001820180546134dd9061576a565b80601f01602080910402602001604051908101604052809291908181526020018280546135099061576a565b80156135565780601f1061352b57610100808354040283529160200191613556565b820191906000526020600020905b81548152906001019060200180831161353957829003601f168201915b5050505050815260200160028201805461356f9061576a565b80601f016020809104026020016040519081016040528092919081815260200182805461359b9061576a565b80156135e85780601f106135bd576101008083540402835291602001916135e8565b820191906000526020600020905b8154815290600101906020018083116135cb57829003601f168201915b505050918352505060038201546020820152600482015460408201526005820154606082015260068201546080820152600782015460ff16151560a082015260088201805460c09092019161363c9061576a565b80601f01602080910402602001604051908101604052809291908181526020018280546136689061576a565b80156136b55780601f1061368a576101008083540402835291602001916136b5565b820191906000526020600020905b81548152906001019060200180831161369857829003601f168201915b5050505050815250508152602001906001019061349f565b50505050815260200160048201548152602001600582015481525050815260200190600101906133b1565b505050508152602001600382015481525050905061371461483d565b60005b82604001515181101561377f57848360400151828151811061373b5761373b615754565b6020026020010151600001510361376d578260400151818151811061376257613762615754565b602002602001015191505b806137778161579e565b915050613717565b50949350505050565b6001600090815260056020527f1471eb6eb2c5e789fc3de43f8ce62938c7d1836ec861730447e2ada8fd81017b5481036137fc5760405162461bcd60e51b81526020600482015260156024820152744e6f20766f74657220696e20746865206c6973742160581b6044820152606401610a5a565b60015b600b5481116114ed5760008181526005602052604090819020905161382791600601906157b7565b604051809103902083805190602001200361385a5760009081526005602081905260409091206001910181905592915050565b806138648161579e565b9150506137ff565b6000828152600160209081526040808320600201805482518185028101850190935280835260609493849084015b82821015613be157838290600052602060002090600602016040518060c0016040529081600082015481526020016001820180546138d79061576a565b80601f01602080910402602001604051908101604052809291908181526020018280546139039061576a565b80156139505780601f1061392557610100808354040283529160200191613950565b820191906000526020600020905b81548152906001019060200180831161393357829003601f168201915b505050505081526020016002820154815260200160038201805480602002602001604051908101604052809291908181526020016000905b82821015613bb6578382906000526020600020906009020160405180610120016040529081600082015481526020016001820180546139c69061576a565b80601f01602080910402602001604051908101604052809291908181526020018280546139f29061576a565b8015613a3f5780601f10613a1457610100808354040283529160200191613a3f565b820191906000526020600020905b815481529060010190602001808311613a2257829003601f168201915b50505050508152602001600282018054613a589061576a565b80601f0160208091040260200160405190810160405280929190818152602001828054613a849061576a565b8015613ad15780601f10613aa657610100808354040283529160200191613ad1565b820191906000526020600020905b815481529060010190602001808311613ab457829003601f168201915b505050918352505060038201546020820152600482015460408201526005820154606082015260068201546080820152600782015460ff16151560a082015260088201805460c090920191613b259061576a565b80601f0160208091040260200160405190810160405280929190818152602001828054613b519061576a565b8015613b9e5780601f10613b7357610100808354040283529160200191613b9e565b820191906000526020600020905b815481529060010190602001808311613b8157829003601f168201915b50505050508152505081526020019060010190613988565b505050508152602001600482015481526020016005820154815250508152602001906001019061389a565b50505050905060005b8151811015613c505783828281518110613c0657613c06615754565b60200260200101516000015103613c3e57818181518110613c2957613c29615754565b60200260200101516060015192505050610d23565b80613c488161579e565b915050613bea565b50604080516000808252602082019092529061377f565b613c6f6148f7565b815260200190600190039081613c6757905050949350505050565b6000838152600160205260408120548103613cb75760405162461bcd60e51b8152600401610a5a906158cd565b6000613cc385856115ea565b905060005b8151811015613d125783828281518110613ce457613ce4615754565b60200260200101516000015103613d0057600192505050610dff565b80613d0a8161579e565b915050613cc8565b50600095945050505050565b6000828152600160205260408120549003613d4b5760405162461bcd60e51b8152600401610a5a906158cd565b60015b6007548111613df057828114613dde5760016000828152602001908152602001600020600101604051613d8191906157b7565b6040518091039020828051906020012003613dde5760405162461bcd60e51b815260206004820152601c60248201527f43617465676f7279206e616d6520616c726561647920657869737473000000006044820152606401610a5a565b80613de88161579e565b915050613d4e565b5060008281526001602081815260409092208351613e1693919092019190840190614873565b505050565b60808101516000908152600160205260408120549003613e4d5760405162461bcd60e51b8152600401610a5a90615852565b613e5f81608001518260a001516111fa565b1515600114613ea75760405162461bcd60e51b81526020600482015260146024820152734576656e7420686173206e6f742065786973747360601b6044820152606401610a5a565b613ebe81608001518260a001518360600151614290565b1515600114613f0f5760405162461bcd60e51b815260206004820152601a60248201527f43616e64696461746520646f6573206e6f7420657869737465640000000000006044820152606401610a5a565b60808101516000908152600160208190526040822060a0840151600290910191613f3891615904565b81548110613f4857613f48615754565b906000526020600020906006020160030160018360000151613f6a9190615904565b81548110613f7a57613f7a615754565b906000526020600020906009020190508160200151816001019080519060200190613fa6929190614873565b506060820151600382015560408201518051613e16916002840191602090910190614873565b6000818152600160205260408120549003613ff95760405162461bcd60e51b8152600401610a5a906158cd565b60008181526001602081905260408220828155919061401a90830182614945565b614028600283016000614982565b6003820160009055505050565b600560205260009081526040902080546001820180549192916140579061576a565b80601f01602080910402602001604051908101604052809291908181526020018280546140839061576a565b80156140d05780601f106140a5576101008083540402835291602001916140d0565b820191906000526020600020905b8154815290600101906020018083116140b357829003601f168201915b5050505050908060020180546140e59061576a565b80601f01602080910402602001604051908101604052809291908181526020018280546141119061576a565b801561415e5780601f106141335761010080835404028352916020019161415e565b820191906000526020600020905b81548152906001019060200180831161414157829003601f168201915b5050505050908060030154908060040180546141799061576a565b80601f01602080910402602001604051908101604052809291908181526020018280546141a59061576a565b80156141f25780601f106141c7576101008083540402835291602001916141f2565b820191906000526020600020905b8154815290600101906020018083116141d557829003601f168201915b50505050509080600501549080600601805461420d9061576a565b80601f01602080910402602001604051908101604052809291908181526020018280546142399061576a565b80156142865780601f1061425b57610100808354040283529160200191614286565b820191906000526020600020905b81548152906001019060200180831161426957829003601f168201915b5050505050905087565b60008381526001602052604081205481036142bd5760405162461bcd60e51b8152600401610a5a906158cd565b60006142c985856115ea565b905060005b8151811015613d1257838282815181106142ea576142ea615754565b6020026020010151606001510361430657600192505050610dff565b806143108161579e565b9150506142ce565b61432182611490565b6143645760405162461bcd60e51b81526020600482015260146024820152735573657220646f6573206e6f742065786973747360601b6044820152606401610a5a565b600081604051602001614377919061591b565b60408051601f198184030181529190528051602090910120905060015b600b5481116143f8576000818152600560205260409081902090516143bc91600101906157b7565b60405180910390208480519060200120036143e65760008181526005602052604090206003018290555b806143f08161579e565b915050614394565b50505050565b60015b600b54811161448f5760008181526005602052604090819020905161442991600101906157b7565b604051809103902086805190602001200361447d5760405162461bcd60e51b8152602060048201526014602482015273566f74657220616c72656164792065786973747360601b6044820152606401610a5a565b806144878161579e565b915050614401565b506001600b60008282546144a3919061573c565b90915550506040516000906144bc90859060200161591b565b60408051601f198184030181529181528151602092830120600b5460008181526005855292909220918255885190935090916144ff9160018401918a0190614873565b5085516145159060028301906020890190614873565b506003810182905583516145329060048301906020870190614873565b5060006005820155825161454f9060068301906020860190614873565b50600b547f56729c826fe77eec184059336ced13d9ef79d10126212c90a4d2b724391e14e2886040516145829190615328565b60405180910390a250505050505050565b60008281526001602052604081205490036145c05760405162461bcd60e51b8152600401610a5a90615852565b6145ca82826113d1565b1561460e5760405162461bcd60e51b81526020600482015260146024820152734576656e7420616c72656164792065786973747360601b6044820152606401610a5a565b600082815260016020819052604082206009805491939291839061463390849061573c565b91829055506002840180546001818101835560009283526020928390206006909202909101838155875193955093506146729290840191870190614873565b5060028101949094555050600160059092019190915550565b60008181526003602052604081206006018054600192906146ad90849061573c565b909155505050565b6000838152600160205260408120600201905b81548110156147be57838282815481106146e4576146e4615754565b906000526020600020906006020160000154036147ac57600082828154811061470f5761470f615754565b9060005260206000209060060201600301905060005b81548110156147a9578482828154811061474157614741615754565b9060005260206000209060090201600001540361479757600182828154811061476c5761476c615754565b9060005260206000209060090201600601600082825461478c919061573c565b909155506147a99050565b806147a18161579e565b915050614725565b50505b806147b68161579e565b9150506146c8565b5050505050565b6000805b6020811015614833578281602081106147e4576147e4615754565b1a60f81b6001600160f81b03191684826020811061480457614804615754565b1a60f81b6001600160f81b03191614614821576000915050610d23565b8061482b8161579e565b9150506147c9565b5060019392505050565b6040518060c001604052806000815260200160608152602001600081526020016060815260200160008152602001600081525090565b82805461487f9061576a565b90600052602060002090601f0160209004810192826148a157600085556148e7565b82601f106148ba57805160ff19168380011785556148e7565b828001600101855582156148e7579182015b828111156148e75782518255916020019190600101906148cc565b506148f39291506149a3565b5090565b60405180610120016040528060008152602001606081526020016060815260200160008152602001600081526020016000815260200160008152602001600015158152602001606081525090565b5080546149519061576a565b6000825580601f10614961575050565b601f01602090049060005260206000209081019061497f91906149a3565b50565b508054600082556006029060005260206000209081019061497f91906149b8565b5b808211156148f357600081556001016149a4565b808211156148f35760008082556149d26001830182614945565b60028201600090556003820160006149ea9190614a01565b5060006004820181905560058201556006016149b8565b508054600082556009029060005260206000209081019061497f91905b808211156148f3576000808255614a386001830182614945565b614a46600283016000614945565b60006003830181905560048301819055600583018190556006830181905560078301805460ff19169055614a7e906008840190614945565b50600901614a1e565b60005b83811015614aa2578181015183820152602001614a8a565b838111156143f85750506000910152565b60008151808452614acb816020860160208601614a87565b601f01601f19169290920160200192915050565b6000610120825184526020830151816020860152614aff82860182614ab3565b91505060408301518482036040860152614b198282614ab3565b915050606083015160608501526080830151608085015260a083015160a085015260c083015160c085015260e0830151614b5760e086018215159052565b506101008084015185830382870152614b708382614ab3565b9695505050505050565b80518252600060208083015160c082860152614b9960c0860182614ab3565b905060408401516040860152606084015185820360608701528181518084528484019150848160051b850101858401935060005b82811015614bfb57601f19868303018452614be9828651614adf565b94870194938701939150600101614bcd565b50608088015160808a015260a088015160a08a015280965050505050505092915050565b6000602080830181845280855180835260408601915060408160051b870101925083870160005b82811015614c7457603f19888603018452614c62858351614b7a565b94509285019290850190600101614c46565b5092979650505050505050565b634e487b7160e01b600052604160045260246000fd5b60405161012081016001600160401b0381118282101715614cba57614cba614c81565b60405290565b60405160c081016001600160401b0381118282101715614cba57614cba614c81565b604051608081016001600160401b0381118282101715614cba57614cba614c81565b604051601f8201601f191681016001600160401b0381118282101715614d2c57614d2c614c81565b604052919050565b600082601f830112614d4557600080fd5b81356001600160401b03811115614d5e57614d5e614c81565b614d71601f8201601f1916602001614d04565b818152846020838601011115614d8657600080fd5b816020850160208301376000918101602001919091529392505050565b600060208284031215614db557600080fd5b81356001600160401b03811115614dcb57600080fd5b614dd784828501614d34565b949350505050565b6000602080830181845280855180835260408601915060408160051b870101925083870160005b82811015614c7457603f19888603018452614e22858351614adf565b94509285019290850190600101614e06565b60006001600160401b03821115614e4d57614e4d614c81565b5060051b60200190565b80358015158114614e6757600080fd5b919050565b60006101208284031215614e7f57600080fd5b614e87614c97565b90508135815260208201356001600160401b0380821115614ea757600080fd5b614eb385838601614d34565b60208401526040840135915080821115614ecc57600080fd5b614ed885838601614d34565b6040840152606084013560608401526080840135608084015260a084013560a084015260c084013560c0840152614f1160e08501614e57565b60e084015261010091508184013581811115614f2c57600080fd5b614f3886828701614d34565b8385015250505092915050565b600082601f830112614f5657600080fd5b81356020614f6b614f6683614e34565b614d04565b82815260059290921b84018101918181019086841115614f8a57600080fd5b8286015b84811015614fc95780356001600160401b03811115614fad5760008081fd5b614fbb8986838b0101614e6c565b845250918301918301614f8e565b509695505050505050565b600060c08284031215614fe657600080fd5b614fee614cc0565b90508135815260208201356001600160401b038082111561500e57600080fd5b61501a85838601614d34565b602084015260408401356040840152606084013591508082111561503d57600080fd5b5061504a84828501614f45565b6060830152506080820135608082015260a082013560a082015292915050565b6000602080838503121561507d57600080fd5b82356001600160401b038082111561509457600080fd5b90840190608082870312156150a857600080fd5b6150b0614ce2565b8235815283830135828111156150c557600080fd5b6150d188828601614d34565b85830152506040830135828111156150e857600080fd5b8301601f810188136150f957600080fd5b8035615107614f6682614e34565b81815260059190911b8201860190868101908a83111561512657600080fd5b8784015b8381101561515e578035878111156151425760008081fd5b6151508d8b83890101614fd4565b84525091880191880161512a565b5060408501525050506060928301359281019290925250949350505050565b6000806040838503121561519057600080fd5b82356001600160401b03808211156151a757600080fd5b6151b386838701614d34565b935060208501359150808211156151c957600080fd5b506151d685828601614d34565b9150509250929050565b60208152815160208201526000602083015160e06040840152615207610100840182614ab3565b90506040840151601f19808584030160608601526152258383614ab3565b92506060860151608086015260808601519150808584030160a086015261524c8383614ab3565b925060a086015160c086015260c08601519150808584030160e0860152506152748282614ab3565b95945050505050565b60006020828403121561528f57600080fd5b5035919050565b600080604083850312156152a957600080fd5b50508035926020909101359150565b6000602082840312156152ca57600080fd5b81356001600160401b038111156152e057600080fd5b614dd784828501614fd4565b600080604083850312156152ff57600080fd5b8235915060208301356001600160401b0381111561531c57600080fd5b6151d685828601614d34565b602081526000610dff6020830184614ab3565b80518252600060208083015160808286015261535a6080860182614ab3565b9050604084015185820360408701528181518084528484019150848160051b850101858401935060005b828110156153b257601f198683030184526153a0828651614b7a565b94870194938701939150600101615384565b50606088015160608a015280965050505050505092915050565b602081526000610dff602083018461533b565b85815260a0602082015260006153f860a0830187614ab3565b6040830195909552506060810192909252151560809091015292915050565b602081526000610dff6020830184614adf565b60008060008060008060c0878903121561544357600080fd5b863595506020870135945060408701356001600160401b038082111561546857600080fd5b6154748a838b01614d34565b9550606089013591508082111561548a57600080fd5b6154968a838b01614d34565b94506080890135935060a08901359150808211156154b357600080fd5b506154c089828a01614d34565b9150509295509295509295565b600080600080608085870312156154e357600080fd5b84356001600160401b038111156154f957600080fd5b61550587828801614d34565b97602087013597506040870135966060013595509350505050565b6000602080830181845280855180835260408601915060408160051b870101925083870160005b82811015614c7457603f1988860301845261556385835161533b565b94509285019290850190600101615547565b602081526000610dff6020830184614b7a565b60008060006060848603121561559d57600080fd5b505081359360208301359350604090920135919050565b6000602082840312156155c657600080fd5b81356001600160401b038111156155dc57600080fd5b614dd784828501614e6c565b87815260e06020820152600061560160e0830189614ab3565b82810360408401526156138189614ab3565b9050866060840152828103608084015261562d8187614ab3565b90508460a084015282810360c08401526156478185614ab3565b9a9950505050505050505050565b600080600080600060a0868803121561566d57600080fd5b85356001600160401b038082111561568457600080fd5b61569089838a01614d34565b965060208801359150808211156156a657600080fd5b6156b289838a01614d34565b955060408801359150808211156156c857600080fd5b6156d489838a01614d34565b945060608801359150808211156156ea57600080fd5b6156f689838a01614d34565b9350608088013591508082111561570c57600080fd5b5061571988828901614d34565b9150509295509295909350565b634e487b7160e01b600052601160045260246000fd5b6000821982111561574f5761574f615726565b500190565b634e487b7160e01b600052603260045260246000fd5b600181811c9082168061577e57607f821691505b6020821081036132ca57634e487b7160e01b600052602260045260246000fd5b6000600182016157b0576157b0615726565b5060010190565b600080835481600182811c9150808316806157d357607f831692505b602080841082036157f257634e487b7160e01b86526022600452602486fd5b818015615806576001811461581757615844565b60ff19861689528489019650615844565b60008a81526020902060005b8681101561583c5781548b820152908501908301615823565b505084890196505b509498975050505050505050565b60208082526017908201527f43617465676f727920686173206e6f7420657869737473000000000000000000604082015260600190565b60208082526024908201527f596f757220656d61696c206f722070617373776f726420697320696e636f72726040820152636563742160e01b606082015260800190565b60208082526017908201527f43617465676f727920646f6573206e6f74206578697374000000000000000000604082015260600190565b60008282101561591657615916615726565b500390565b6000825161592d818460208701614a87565b919091019291505056fea2646970667358221220faa2432158d736acfee0bd9e5905ca98eff1f031dc5b777d0feca36bc7c381c564736f6c634300080d0033",
  "immutableReferences": {},
  "source": "// SPDX-License-Identifier: MIT\r\npragma solidity >=0.4.22 <0.9.0;\r\n\r\ncontract VotingSystem {\r\n    address public owner;\r\n    struct Voter {\r\n        uint256 id;\r\n        string key;\r\n        string email;\r\n        bytes32 password;\r\n        string role;\r\n        uint256 status; // 0: no verify, 1: verified, 2:banned\r\n        string token;\r\n    }\r\n\r\n    struct Event {\r\n        uint256 eventId;\r\n        string eventName;\r\n        uint256 categoryId;\r\n        Candidate[] candidates;\r\n        uint256 candidateCount;\r\n        uint256 status; // 1: Upcoming, 2: In Progress, 3: Completed, 4 Cancel\r\n    }\r\n\r\n    struct Category {\r\n        uint256 categoryId;\r\n        string categoryName;\r\n        Event[] events; //category has many event\r\n        uint256 status;\r\n    }\r\n\r\n    struct Candidate {\r\n        uint256 id;\r\n        string name;\r\n        string description;\r\n        uint256 studentId;\r\n        uint256 categoryId;\r\n        uint256 eventId;\r\n        uint256 voteCount;\r\n        bool win;\r\n        string imageFileName;\r\n    }\r\n\r\n    struct voteEventStruct {\r\n        uint256 id;\r\n        string voterKey;\r\n        uint256 categoryId;\r\n        uint256 eventId;\r\n        bool voted;\r\n    }\r\n\r\n    event CategoryAdded(uint256 indexed categoryId, string categoryName);\r\n\r\n    event VoterAdded(uint256 indexed voterId, string voter_key);\r\n    event EventAdded(uint256 indexed eventId, string eventName);\r\n\r\n    event CandidateAdded(uint256 indexed eventId, string eventName);\r\n\r\n    event VoteEvent(\r\n        string indexed _voterKey,\r\n        string indexed categoryEvent,\r\n        uint256 indexed candidate\r\n    );\r\n\r\n    mapping(uint256 => Category) categories;\r\n    mapping(uint256 => Event) events;\r\n    mapping(uint256 => Candidate) candidates;\r\n    mapping(uint256 => voteEventStruct) public voteEvents;\r\n    mapping(uint256 => Voter) public voters;\r\n    mapping(string => bool) private usedImageFileNames;\r\n\r\n    uint256 categoryCount;\r\n    uint256 candidateCount;\r\n    uint256 eventCount;\r\n    uint256 voteEventCount;\r\n    uint256 voterCount;\r\n\r\n    constructor() {\r\n        owner = msg.sender;\r\n    }\r\n\r\n    function addVoter(\r\n        string memory _key,\r\n        string memory _email,\r\n        string memory _password,\r\n        string memory _role,\r\n        string memory _token\r\n    ) public {\r\n        for (uint256 i = 1; i <= voterCount; i++) {\r\n            require(\r\n                keccak256(bytes(_key)) != keccak256(bytes(voters[i].key)),\r\n                \"Voter already exists\"\r\n            );\r\n        }\r\n\r\n        // total category plus 1, use it as the category's id\r\n        voterCount += 1;\r\n\r\n        bytes32 hashedPassword = keccak256(abi.encodePacked(_password));\r\n\r\n        // add the category details in the category list\r\n        Voter storage voter = voters[voterCount];\r\n        voter.id = voterCount;\r\n        voter.key = _key;\r\n        voter.email = _email;\r\n        voter.password = hashedPassword;\r\n        voter.role = _role;\r\n        voter.status = 0;\r\n        voter.token = _token;\r\n\r\n        // emit the category added event\r\n        emit VoterAdded(voterCount, _key);\r\n    }\r\n\r\n    function loginVoter(string memory _email, string memory _password)\r\n        public\r\n        view\r\n        returns (Voter memory)\r\n    {\r\n        Voter memory voterFound = getVoterByEmailPassword(_email, _password);\r\n        require(voterFound.id != 0, \"Your email or password is incorrect!\");\r\n        require(\r\n            voterFound.status == 1,\r\n            \"Your account was banned or not verify!\"\r\n        );\r\n        return voterFound;\r\n    }\r\n\r\n    function compareHashesPassword(bytes32 inputPassword, bytes32 password)\r\n        internal\r\n        pure\r\n        returns (bool)\r\n    {\r\n        for (uint256 i = 0; i < 32; i++) {\r\n            if (inputPassword[i] != password[i]) {\r\n                return false;\r\n            }\r\n        }\r\n        return true;\r\n    }\r\n\r\n    function getVoterByEmailPassword(\r\n        string memory _email,\r\n        string memory _password\r\n    ) public view returns (Voter memory) {\r\n        bytes32 hashedPassword = keccak256(abi.encodePacked(_password));\r\n        for (uint256 i = 1; i <= voterCount; i++) {\r\n            if (\r\n                keccak256(bytes(_email)) == keccak256(bytes(voters[i].email)) &&\r\n                compareHashesPassword(hashedPassword, voters[i].password)\r\n            ) {\r\n                return voters[i];\r\n            }\r\n        }\r\n\r\n        // Event not found in the specified category\r\n        return Voter(0, \"\", \"\", \"\", \"\", 0, \"\");\r\n    }\r\n\r\n    function getVoterEmailById(uint256 _voterId) public view returns (string memory) {\r\n    require(_voterId > 0 && _voterId <= voterCount, \"Invalid voter ID\");\r\n    return voters[_voterId].email;\r\n    }\r\n\r\n\r\n    function updateVoterPassword(string memory _key, string memory _password)\r\n        public\r\n    {\r\n        require(isVoterExist(_key), \"User does not exists\");\r\n\r\n        bytes32 hashedPassword = keccak256(abi.encodePacked(_password));\r\n        for (uint256 i = 1; i <= voterCount; i++) {\r\n            if (keccak256(bytes(_key)) == keccak256(bytes(voters[i].key))) {\r\n                voters[i].password = hashedPassword;\r\n            }\r\n        }\r\n    }\r\n\r\n    function verifyVoterAccount(string memory _token) public returns (bool) {\r\n        require(voters[1].id != 0, \"No voter in the list!\");\r\n        for (uint256 i = 1; i <= voterCount; i++) {\r\n            if (keccak256(bytes(_token)) == keccak256(bytes(voters[i].token))) {\r\n                voters[i].status = 1;\r\n                return true;\r\n            }\r\n        }\r\n        return false;\r\n    }\r\n\r\n    function getVoterStatus(string memory _email, string memory _password)\r\n        public\r\n        view\r\n        returns (uint256 status)\r\n    {\r\n        Voter memory voterFound = getVoterByEmailPassword(_email, _password);\r\n        require(voterFound.id != 0, \"Your email or password is incorrect!\");\r\n        return voterFound.status;\r\n    }\r\n\r\n    function checkVoterEmailPassword(\r\n        string memory _email,\r\n        string memory _password\r\n    ) public view returns (bool foundVoter) {\r\n        Voter memory voterFound = getVoterByEmailPassword(_email, _password);\r\n\r\n        if (voterFound.id != 0) {\r\n            return true;\r\n        }\r\n        return false;\r\n    }\r\n\r\n    function isVoterExist(string memory _key) public view returns (bool) {\r\n        for (uint256 i = 1; i <= voterCount; i++) {\r\n            if (keccak256(bytes(_key)) == keccak256(bytes(voters[i].key))) {\r\n                return true;\r\n            }\r\n        }\r\n        return false;\r\n    }\r\n\r\n    function addCategory(string memory _categoryName) public {\r\n        // check if the category is exist\r\n        for (uint256 i = 1; i <= categoryCount; i++) {\r\n            require(\r\n                keccak256(bytes(_categoryName)) !=\r\n                    keccak256(bytes(categories[i].categoryName)),\r\n                \"Category already exists\"\r\n            );\r\n        }\r\n\r\n        // total category plus 1, use it as the category's id\r\n        categoryCount += 1;\r\n\r\n        // add the category details in the category list\r\n        Category storage category = categories[categoryCount];\r\n        category.categoryName = _categoryName;\r\n        category.categoryId = categoryCount;\r\n        category.status = 1;\r\n\r\n        // emit the category added event\r\n        emit CategoryAdded(categoryCount, _categoryName);\r\n    }\r\n\r\n    function updateCategory(Category memory _category) public {\r\n        // check if the category is exist\r\n        require(\r\n            categories[_category.categoryId].categoryId != 0,\r\n            \"Category has not exists\"\r\n        );\r\n\r\n        // add the category details in the category list\r\n        Category storage category = categories[_category.categoryId];\r\n        category.categoryName = _category.categoryName;\r\n        category.status = _category.status;\r\n    }\r\n\r\n    function updateCategoryName(uint256 _categoryId, string memory _newCategoryName) public {\r\n        // Check if the category exists\r\n        require(categories[_categoryId].categoryId != 0, \"Category does not exist\");\r\n\r\n        // Check if the new category name is different from the existing name in the list\r\n        // and not the same as the current category name being updated\r\n        for (uint256 i = 1; i <= categoryCount; i++) {\r\n            if (i != _categoryId) {\r\n                require(\r\n                    keccak256(bytes(_newCategoryName)) !=\r\n                    keccak256(bytes(categories[i].categoryName)),\r\n                    \"Category name already exists\"\r\n                );\r\n            }\r\n        }\r\n\r\n        // Update the category name\r\n        categories[_categoryId].categoryName = _newCategoryName;\r\n    }\r\n\r\n    function deleteCategory(uint256 _categoryId) public {\r\n        require(categories[_categoryId].categoryId != 0, \"Category does not exist\");\r\n\r\n        // Delete the category and reset the storage\r\n        delete categories[_categoryId];\r\n    }\r\n\r\n    function addEvent(uint256 _categoryId, string memory _eventName) public {\r\n        // check if the category has exists\r\n        require(\r\n            categories[_categoryId].categoryId != 0,\r\n            \"Category has not exists\"\r\n        );\r\n\r\n        require(\r\n            isEventExists(_categoryId, _eventName) == false,\r\n            \"Event already exists\"\r\n        );\r\n\r\n        // find out the category in list by using the paramerter category name\r\n        Category storage category = categories[_categoryId];\r\n\r\n        // add the event in the category list\r\n        uint256 eventId = eventCount += 1;\r\n\r\n        Event storage newEvent = category.events.push();\r\n        newEvent.eventId = eventId;\r\n        newEvent.eventName = _eventName;\r\n        newEvent.categoryId = _categoryId;\r\n        newEvent.status = 1;\r\n    }\r\n\r\n    function isEventExists(uint256 _categoryId, string memory _eventName)\r\n        public\r\n        view\r\n        returns (bool)\r\n    {\r\n        // Check if the category exists\r\n        require(\r\n            categories[_categoryId].categoryId != 0,\r\n            \"Category does not exist\"\r\n        );\r\n\r\n        // Loop through the events in the specified category\r\n        for (uint256 i = 0; i < categories[_categoryId].events.length; i++) {\r\n            if (\r\n                keccak256(bytes(categories[_categoryId].events[i].eventName)) ==\r\n                keccak256(bytes(_eventName))\r\n            ) {\r\n                // Event found\r\n                return true;\r\n            }\r\n        }\r\n\r\n        // Event not found in the specified category\r\n        return false;\r\n    }\r\n\r\n    function updateEvent(Event memory _event) public {\r\n        // check if the category is exist\r\n        require(\r\n            categories[_event.categoryId].categoryId != 0,\r\n            \"Category does not exists\"\r\n        );\r\n        require(\r\n            isEventExists(_event.categoryId, _event.eventId),\r\n            \"Event does not exist!\"\r\n        );\r\n        // add the category details in the category list\r\n        Event storage eventToUpdate = categories[_event.categoryId].events[\r\n            _event.eventId - 1\r\n        ];\r\n\r\n        eventToUpdate.eventName = _event.eventName;\r\n        eventToUpdate.status = _event.status;\r\n    }\r\n\r\n     function addCandidateToEvent(\r\n        uint256 _categoryId,\r\n        uint256 _eventId,\r\n        string memory _candidateName,\r\n        string memory _description,\r\n        uint256 _studentId,\r\n        string memory _imageFileName\r\n    ) public {\r\n        require(\r\n            categories[_categoryId].categoryId != 0,\r\n            \"Category does not exist\"\r\n        );\r\n        require(\r\n            isEventExists(_categoryId, _eventId),\r\n            \"Event does not exist\"\r\n        );\r\n        require(\r\n            !isCandidateExistsInEvent(_categoryId, _eventId, _studentId),\r\n            \"Candidate already exists\"\r\n        );\r\n        // Check if the image file name is already used\r\n        require(\r\n            !usedImageFileNames[_imageFileName],\r\n            \"Image file name already in use\"\r\n        );\r\n\r\n        candidateCount += 1;\r\n\r\n        // Create a new candidate\r\n        Candidate memory newCandidate = Candidate({\r\n            id: candidateCount,\r\n            name: _candidateName,\r\n            studentId: _studentId,\r\n            categoryId: _categoryId,\r\n            eventId: _eventId,\r\n            description: _description,\r\n            win: false,\r\n            voteCount: 0,\r\n            imageFileName: _imageFileName\r\n        });\r\n\r\n        // find the certain category\r\n        Category storage category = categories[_categoryId];\r\n        // find the certain event in certain category\r\n        for (uint256 i = 0; i < category.events.length; i++) {\r\n            if (category.events[i].eventId == _eventId) {\r\n                category.events[i].candidates.push(newCandidate);\r\n                category.events[i].candidateCount += 1;\r\n            }\r\n        }\r\n\r\n        // Mark the image file name as used\r\n        usedImageFileNames[_imageFileName] = true;\r\n    }\r\n\r\n    function updateCandidate(Candidate memory _candidate) public {\r\n        require(\r\n            categories[_candidate.categoryId].categoryId != 0,\r\n            \"Category has not exists\"\r\n        );\r\n\r\n        require(\r\n            isEventExists(_candidate.categoryId, _candidate.eventId) == true,\r\n            \"Event has not exists\"\r\n        );\r\n\r\n        require(\r\n            isCandidateExistsInEvent(\r\n                _candidate.categoryId,\r\n                _candidate.eventId,\r\n                _candidate.studentId\r\n            ) == true,\r\n            \"Candidate does not existed\"\r\n        );\r\n\r\n        Candidate storage candidateToUpdate = categories[_candidate.categoryId]\r\n            .events[_candidate.eventId - 1]\r\n            .candidates[_candidate.id - 1];\r\n\r\n        candidateToUpdate.name = _candidate.name;\r\n        candidateToUpdate.studentId = _candidate.studentId;\r\n        candidateToUpdate.description = _candidate.description;\r\n    }\r\n\r\n    function isImageFileNameUsed(string memory _imageFileName) public view returns (bool) {\r\n        return usedImageFileNames[_imageFileName];\r\n    }\r\n\r\n    function isCandidateExistsInEvent(\r\n        uint256 _categoryId,\r\n        uint256 _eventId,\r\n        uint256 _studentId\r\n    ) public view returns (bool) {\r\n        // Check if the category exists\r\n        require(\r\n            categories[_categoryId].categoryId != 0,\r\n            \"Category does not exist\"\r\n        );\r\n\r\n        Candidate[] memory candidatesFound = getAllCandidatesInEvent(\r\n            _categoryId,\r\n            _eventId\r\n        );\r\n\r\n        // Loop through the events in the specified category\r\n\r\n        for (uint256 i = 0; i < candidatesFound.length; i++) {\r\n            if (candidatesFound[i].studentId == _studentId) {\r\n                return true;\r\n            }\r\n        }\r\n\r\n        // Event not found in the specified category\r\n        return false;\r\n    }\r\n\r\n    function isCandidateExistsInEventById(\r\n        uint256 _categoryId,\r\n        uint256 _eventId,\r\n        uint256 _candidateId\r\n    ) public view returns (bool) {\r\n        // Check if the category exists\r\n        require(\r\n            categories[_categoryId].categoryId != 0,\r\n            \"Category does not exist\"\r\n        );\r\n\r\n        Candidate[] memory candidatesFound = getAllCandidatesInEvent(\r\n            _categoryId,\r\n            _eventId\r\n        );\r\n\r\n        // Loop through the events in the specified category\r\n\r\n        for (uint256 i = 0; i < candidatesFound.length; i++) {\r\n            if (candidatesFound[i].id == _candidateId) {\r\n                return true;\r\n            }\r\n        }\r\n\r\n        // Event not found in the specified category\r\n        return false;\r\n    }\r\n\r\n    function isEventExists(uint256 _categoryId, uint256 _eventId)\r\n        public\r\n        view\r\n        returns (bool)\r\n    {\r\n        // Check if the category exists\r\n        require(\r\n            categories[_categoryId].categoryId != 0,\r\n            \"Category does not exist\"\r\n        );\r\n\r\n        // Loop through the events in the specified category\r\n        for (uint256 i = 0; i < categories[_categoryId].events.length; i++) {\r\n            if (categories[_categoryId].events[i].eventId == _eventId) {\r\n                // Event found\r\n                return true;\r\n            }\r\n        }\r\n\r\n        // Event not found in the specified category\r\n        return false;\r\n    }\r\n\r\n    function getAllCategoryEvent(uint256 _categoryId)\r\n        public\r\n        view\r\n        returns (Event[] memory foundEvent)\r\n    {\r\n        // find the certain category\r\n        Category storage category = categories[_categoryId];\r\n\r\n        // declare an array variable for storing events\r\n        Event[] memory eventsFound = new Event[](category.events.length);\r\n\r\n        // get all the event name by searching the event in list\r\n        for (uint256 i = 0; i < category.events.length; i++) {\r\n            eventsFound[i] = category.events[i];\r\n        }\r\n\r\n        return (eventsFound);\r\n    }\r\n\r\n    function getAllCandidatesInEvent(uint256 _categoryId, uint256 _eventId)\r\n        public\r\n        view\r\n        returns (Candidate[] memory foundCandidates)\r\n    {\r\n        // find the certain category\r\n        Category storage category = categories[_categoryId];\r\n        // find the certain event in certain category\r\n        for (uint256 i = 0; i < category.events.length; i++) {\r\n            if (category.events[i].eventId == _eventId) {\r\n                Candidate[] memory candidatesFound = new Candidate[](\r\n                    category.events[i].candidateCount\r\n                );\r\n\r\n                for (\r\n                    uint256 j = 0;\r\n                    j < category.events[i].candidates.length;\r\n                    j++\r\n                ) {\r\n                    candidatesFound[j] = category.events[i].candidates[j];\r\n                }\r\n                return (candidatesFound);\r\n            }\r\n        }\r\n    }\r\n\r\n    function getAllCandidates() public view returns (Candidate[] memory) {\r\n        Candidate[] memory candidatesFound = new Candidate[](candidateCount);\r\n        Event[] memory eventFound = new Event[](eventCount);\r\n\r\n        // get all the events\r\n        eventFound = getAllEvent();\r\n        uint256 count = 0;\r\n        // find the candidates inside all the event\r\n        for (uint256 i = 0; i < eventCount; i++) {\r\n            for (uint256 j = 0; j < eventFound[i].candidates.length; j++) {\r\n                candidatesFound[count] = eventFound[i].candidates[j];\r\n                count += 1;\r\n            }\r\n        }\r\n\r\n        return candidatesFound;\r\n    }\r\n\r\n    function getAllCategory() public view returns (Category[] memory) {\r\n        //Candidate[] memory candidatesFound = new Candidate[](candidateCount);\r\n        Category[] memory categoriesFound = new Category[](categoryCount);\r\n        // Iterate through all stored structs\r\n        for (uint256 i = 1; i <= categoryCount; i++) {\r\n            categoriesFound[i - 1] = categories[i];\r\n        }\r\n\r\n        return categoriesFound;\r\n    }\r\n\r\n    function getCategoryById(uint256 _categoryId)\r\n        public\r\n        view\r\n        returns (Category memory)\r\n    {\r\n        return categories[_categoryId];\r\n    }\r\n\r\n    function getAllEvent() public view returns (Event[] memory) {\r\n        // Initialize the array with the correct size\r\n        Event[] memory eventFound = new Event[](eventCount);\r\n        uint256 count = 0;\r\n\r\n        // Iterate through all categories and events\r\n        for (uint256 i = 0; i < categoryCount; i++) {\r\n            for (uint256 j = 0; j < categories[i + 1].events.length; j++) {\r\n                eventFound[count] = categories[i + 1].events[j];\r\n                count += 1;\r\n            }\r\n        }\r\n\r\n        return eventFound;\r\n    }\r\n\r\n    function getEventById(uint256 _categoryId, uint256 _eventId)\r\n        public\r\n        view\r\n        returns (Event memory)\r\n    {\r\n        Category memory categoriesFound = categories[_categoryId];\r\n        Event memory eventFound;\r\n        // Iterate through all stored structs\r\n        for (uint256 i = 0; i < categoriesFound.events.length; i++) {\r\n            if (categoriesFound.events[i].eventId == _eventId) {\r\n                eventFound = categoriesFound.events[i];\r\n            }\r\n        }\r\n\r\n        return eventFound;\r\n    }\r\n\r\n    function vote(\r\n        string memory _voterKey,\r\n        uint256 _candidateId,\r\n        uint256 _categoryId,\r\n        uint256 _eventId\r\n    ) external {\r\n        require(\r\n            categories[_categoryId].categoryId != 0,\r\n            \"Category does not exists\"\r\n        );\r\n\r\n        require(eventCount != 0, \"Event does not exists\");\r\n\r\n        // for (uint256 i = 1; i <= categories[_categoryId].events.length; i++) {\r\n        //     require(categories[_categoryId].events[i-0].eventId == _eventId, \"noobbbbb\");\r\n        // }\r\n\r\n        require(\r\n            isCandidateExistsInEventById(_categoryId, _eventId, _candidateId) ==\r\n                true,\r\n            \"Candidates does not exists\"\r\n        );\r\n\r\n        // check if has voted\r\n        for (uint256 i = 1; i <= voteEventCount; i++) {\r\n            if (\r\n                 keccak256(bytes(_voterKey)) ==  keccak256(bytes(voteEvents[i].voterKey)) &&\r\n                _categoryId == voteEvents[i].categoryId &&\r\n                _eventId == voteEvents[i].eventId\r\n            ) {\r\n                require(!voteEvents[i].voted, \"You already voted\");\r\n                break;\r\n            }\r\n        }\r\n\r\n        // add count on the candidate\r\n        voteEventCount += 1;\r\n\r\n        // Create a new voteEventStruct\r\n        voteEventStruct memory newVoteEvent = voteEventStruct({\r\n            id: voteEventCount,\r\n            voterKey: _voterKey,\r\n            categoryId: _categoryId,\r\n            eventId: _eventId,\r\n            voted: true\r\n        });\r\n\r\n        voteEvents[voteEventCount] = newVoteEvent;\r\n\r\n        // add the vote count of the chosen candidate\r\n        addVoteCount(_candidateId);\r\n        addVoteCountIn(_categoryId, _eventId, _candidateId);\r\n\r\n        string memory concatenatedValues = string(\r\n            abi.encodePacked(_categoryId, _eventId)\r\n        );\r\n\r\n        emit VoteEvent(_voterKey, concatenatedValues, _candidateId);\r\n    }\r\n\r\n    function addVoteCount(uint256 _candidateId) internal {\r\n        candidates[_candidateId].voteCount += 1;\r\n    }\r\n\r\n    function addVoteCountIn(\r\n        uint256 _categoryId,\r\n        uint256 _eventId,\r\n        uint256 _candidateId\r\n    ) internal {\r\n        // get the events inside the categories\r\n        Event[] storage eventsFound = categories[_categoryId].events;\r\n\r\n        // find the event with param\r\n        for (uint256 i = 0; i < eventsFound.length; i++) {\r\n            if (eventsFound[i].eventId == _eventId) {\r\n                // get the candidate inside the event\r\n                Candidate[] storage candidatesFound = eventsFound[i].candidates;\r\n                // find the candidate\r\n                for (uint256 j = 0; j < candidatesFound.length; j++) {\r\n                    if (candidatesFound[j].id == _candidateId) {\r\n                        // found the candidate and plus 1 at the voteCount\r\n                        candidatesFound[j].voteCount += 1;\r\n                        break;\r\n                    }\r\n                }\r\n            }\r\n        }\r\n    }\r\n\r\n    function getCandidateVoteCount(uint256 _candidateId)\r\n        public\r\n        view\r\n        returns (uint256 count)\r\n    {\r\n        return candidates[_candidateId].voteCount;\r\n    }\r\n\r\n    function getVoteEventCandidate(uint256 _categoryId, uint256 _eventId)\r\n        public\r\n        view\r\n        returns (Candidate[] memory)\r\n    {\r\n        Event[] memory eventsFound = categories[_categoryId].events;\r\n\r\n        for (uint256 i = 0; i < eventsFound.length; i++) {\r\n            if (eventsFound[i].eventId == _eventId) {\r\n                return eventsFound[i].candidates;\r\n            }\r\n        }\r\n\r\n        // If the event is not found, return an empty array or handle the situation accordingly\r\n        return new Candidate[](0);\r\n    }\r\n\r\n    function whoIsTheWinner(uint256 _categoryId, uint256 _eventId)\r\n        public\r\n        view\r\n        returns (Candidate memory)\r\n    {\r\n        Event[] memory eventsFound = categories[_categoryId].events;\r\n        Candidate[] memory candidatesFound;\r\n\r\n        for (uint256 i = 0; i < eventsFound.length; i++) {\r\n            if (eventsFound[i].eventId == _eventId) {\r\n                candidatesFound = eventsFound[i].candidates;\r\n            }\r\n        }\r\n\r\n        Candidate memory winner = candidatesFound[0];\r\n\r\n        for (uint256 i = 0; i < candidatesFound.length - 1; i++) {\r\n            if (winner.voteCount < candidatesFound[i + 1].voteCount) {\r\n                winner = candidatesFound[i + 1];\r\n            }\r\n        }\r\n\r\n        winner.win = true;\r\n\r\n        // If the event is not found, return an empty array or handle the situation accordingly\r\n        return winner;\r\n    }\r\n}\r\n",
  "sourcePath": "C:\\Users\\User\\FYP1\\contracts\\VotingSystem.sol",
  "compiler": {
    "name": "solc",
    "version": "0.8.13+commit.abaa5c0e.Emscripten.clang"
  },
  "schemaVersion": "3.4.16",
  "updatedAt": "2023-12-09T09:28:14.111Z",
  "networkType": "ethereum",
  "devdoc": {
    "kind": "dev",
    "methods": {},
    "version": 1
  },
  "userdoc": {
    "kind": "user",
    "methods": {},
    "version": 1
  }
}