{
  "contractName": "VotingSystem",
  "abi": [
    {
      "inputs": [],
      "stateMutability": "nonpayable",
      "type": "constructor"
    },
    {
      "anonymous": false,
      "inputs": [
        {
          "indexed": true,
          "internalType": "uint256",
          "name": "eventId",
          "type": "uint256"
        },
        {
          "indexed": false,
          "internalType": "string",
          "name": "eventName",
          "type": "string"
        }
      ],
      "name": "CandidateAdded",
      "type": "event"
    },
    {
      "anonymous": false,
      "inputs": [
        {
          "indexed": true,
          "internalType": "uint256",
          "name": "categoryId",
          "type": "uint256"
        },
        {
          "indexed": false,
          "internalType": "string",
          "name": "categoryName",
          "type": "string"
        }
      ],
      "name": "CategoryAdded",
      "type": "event"
    },
    {
      "anonymous": false,
      "inputs": [
        {
          "indexed": true,
          "internalType": "uint256",
          "name": "eventId",
          "type": "uint256"
        },
        {
          "indexed": false,
          "internalType": "string",
          "name": "eventName",
          "type": "string"
        }
      ],
      "name": "EventAdded",
      "type": "event"
    },
    {
      "anonymous": false,
      "inputs": [
        {
          "indexed": true,
          "internalType": "string",
          "name": "_voterKey",
          "type": "string"
        },
        {
          "indexed": true,
          "internalType": "string",
          "name": "categoryEvent",
          "type": "string"
        },
        {
          "indexed": true,
          "internalType": "uint256",
          "name": "candidate",
          "type": "uint256"
        }
      ],
      "name": "VoteEvent",
      "type": "event"
    },
    {
      "anonymous": false,
      "inputs": [
        {
          "indexed": true,
          "internalType": "uint256",
          "name": "voterId",
          "type": "uint256"
        },
        {
          "indexed": false,
          "internalType": "string",
          "name": "voter_key",
          "type": "string"
        }
      ],
      "name": "VoterAdded",
      "type": "event"
    },
    {
      "inputs": [],
      "name": "owner",
      "outputs": [
        {
          "internalType": "address",
          "name": "",
          "type": "address"
        }
      ],
      "stateMutability": "view",
      "type": "function",
      "constant": true
    },
    {
      "inputs": [
        {
          "internalType": "uint256",
          "name": "",
          "type": "uint256"
        }
      ],
      "name": "voteEvents",
      "outputs": [
        {
          "internalType": "uint256",
          "name": "id",
          "type": "uint256"
        },
        {
          "internalType": "string",
          "name": "voterKey",
          "type": "string"
        },
        {
          "internalType": "uint256",
          "name": "categoryId",
          "type": "uint256"
        },
        {
          "internalType": "uint256",
          "name": "eventId",
          "type": "uint256"
        },
        {
          "internalType": "bool",
          "name": "voted",
          "type": "bool"
        }
      ],
      "stateMutability": "view",
      "type": "function",
      "constant": true
    },
    {
      "inputs": [
        {
          "internalType": "uint256",
          "name": "",
          "type": "uint256"
        }
      ],
      "name": "voters",
      "outputs": [
        {
          "internalType": "uint256",
          "name": "id",
          "type": "uint256"
        },
        {
          "internalType": "string",
          "name": "key",
          "type": "string"
        },
        {
          "internalType": "string",
          "name": "email",
          "type": "string"
        },
        {
          "internalType": "bytes32",
          "name": "password",
          "type": "bytes32"
        },
        {
          "internalType": "string",
          "name": "role",
          "type": "string"
        },
        {
          "internalType": "uint256",
          "name": "status",
          "type": "uint256"
        },
        {
          "internalType": "string",
          "name": "token",
          "type": "string"
        }
      ],
      "stateMutability": "view",
      "type": "function",
      "constant": true
    },
    {
      "inputs": [
        {
          "internalType": "string",
          "name": "_key",
          "type": "string"
        },
        {
          "internalType": "string",
          "name": "_email",
          "type": "string"
        },
        {
          "internalType": "string",
          "name": "_password",
          "type": "string"
        },
        {
          "internalType": "string",
          "name": "_role",
          "type": "string"
        },
        {
          "internalType": "string",
          "name": "_token",
          "type": "string"
        }
      ],
      "name": "addVoter",
      "outputs": [],
      "stateMutability": "nonpayable",
      "type": "function"
    },
    {
      "inputs": [
        {
          "internalType": "string",
          "name": "_email",
          "type": "string"
        },
        {
          "internalType": "string",
          "name": "_password",
          "type": "string"
        }
      ],
      "name": "loginVoter",
      "outputs": [
        {
          "components": [
            {
              "internalType": "uint256",
              "name": "id",
              "type": "uint256"
            },
            {
              "internalType": "string",
              "name": "key",
              "type": "string"
            },
            {
              "internalType": "string",
              "name": "email",
              "type": "string"
            },
            {
              "internalType": "bytes32",
              "name": "password",
              "type": "bytes32"
            },
            {
              "internalType": "string",
              "name": "role",
              "type": "string"
            },
            {
              "internalType": "uint256",
              "name": "status",
              "type": "uint256"
            },
            {
              "internalType": "string",
              "name": "token",
              "type": "string"
            }
          ],
          "internalType": "struct VotingSystem.Voter",
          "name": "",
          "type": "tuple"
        }
      ],
      "stateMutability": "view",
      "type": "function",
      "constant": true
    },
    {
      "inputs": [
        {
          "internalType": "string",
          "name": "_email",
          "type": "string"
        },
        {
          "internalType": "string",
          "name": "_password",
          "type": "string"
        }
      ],
      "name": "getVoterByEmailPassword",
      "outputs": [
        {
          "components": [
            {
              "internalType": "uint256",
              "name": "id",
              "type": "uint256"
            },
            {
              "internalType": "string",
              "name": "key",
              "type": "string"
            },
            {
              "internalType": "string",
              "name": "email",
              "type": "string"
            },
            {
              "internalType": "bytes32",
              "name": "password",
              "type": "bytes32"
            },
            {
              "internalType": "string",
              "name": "role",
              "type": "string"
            },
            {
              "internalType": "uint256",
              "name": "status",
              "type": "uint256"
            },
            {
              "internalType": "string",
              "name": "token",
              "type": "string"
            }
          ],
          "internalType": "struct VotingSystem.Voter",
          "name": "",
          "type": "tuple"
        }
      ],
      "stateMutability": "view",
      "type": "function",
      "constant": true
    },
    {
      "inputs": [
        {
          "internalType": "uint256",
          "name": "_voterId",
          "type": "uint256"
        }
      ],
      "name": "getVoterEmailById",
      "outputs": [
        {
          "internalType": "string",
          "name": "",
          "type": "string"
        }
      ],
      "stateMutability": "view",
      "type": "function",
      "constant": true
    },
    {
      "inputs": [
        {
          "internalType": "string",
          "name": "_key",
          "type": "string"
        },
        {
          "internalType": "string",
          "name": "_password",
          "type": "string"
        }
      ],
      "name": "updateVoterPassword",
      "outputs": [],
      "stateMutability": "nonpayable",
      "type": "function"
    },
    {
      "inputs": [
        {
          "internalType": "string",
          "name": "_token",
          "type": "string"
        }
      ],
      "name": "verifyVoterAccount",
      "outputs": [
        {
          "internalType": "bool",
          "name": "",
          "type": "bool"
        }
      ],
      "stateMutability": "nonpayable",
      "type": "function"
    },
    {
      "inputs": [
        {
          "internalType": "string",
          "name": "_email",
          "type": "string"
        },
        {
          "internalType": "string",
          "name": "_password",
          "type": "string"
        }
      ],
      "name": "getVoterStatus",
      "outputs": [
        {
          "internalType": "uint256",
          "name": "status",
          "type": "uint256"
        }
      ],
      "stateMutability": "view",
      "type": "function",
      "constant": true
    },
    {
      "inputs": [
        {
          "internalType": "string",
          "name": "_email",
          "type": "string"
        },
        {
          "internalType": "string",
          "name": "_password",
          "type": "string"
        }
      ],
      "name": "checkVoterEmailPassword",
      "outputs": [
        {
          "internalType": "bool",
          "name": "foundVoter",
          "type": "bool"
        }
      ],
      "stateMutability": "view",
      "type": "function",
      "constant": true
    },
    {
      "inputs": [
        {
          "internalType": "string",
          "name": "_key",
          "type": "string"
        }
      ],
      "name": "isVoterExist",
      "outputs": [
        {
          "internalType": "bool",
          "name": "",
          "type": "bool"
        }
      ],
      "stateMutability": "view",
      "type": "function",
      "constant": true
    },
    {
      "inputs": [
        {
          "internalType": "string",
          "name": "_categoryName",
          "type": "string"
        }
      ],
      "name": "addCategory",
      "outputs": [],
      "stateMutability": "nonpayable",
      "type": "function"
    },
    {
      "inputs": [
        {
          "components": [
            {
              "internalType": "uint256",
              "name": "categoryId",
              "type": "uint256"
            },
            {
              "internalType": "string",
              "name": "categoryName",
              "type": "string"
            },
            {
              "components": [
                {
                  "internalType": "uint256",
                  "name": "eventId",
                  "type": "uint256"
                },
                {
                  "internalType": "string",
                  "name": "eventName",
                  "type": "string"
                },
                {
                  "internalType": "uint256",
                  "name": "categoryId",
                  "type": "uint256"
                },
                {
                  "components": [
                    {
                      "internalType": "uint256",
                      "name": "id",
                      "type": "uint256"
                    },
                    {
                      "internalType": "string",
                      "name": "name",
                      "type": "string"
                    },
                    {
                      "internalType": "string",
                      "name": "description",
                      "type": "string"
                    },
                    {
                      "internalType": "uint256",
                      "name": "studentId",
                      "type": "uint256"
                    },
                    {
                      "internalType": "uint256",
                      "name": "categoryId",
                      "type": "uint256"
                    },
                    {
                      "internalType": "uint256",
                      "name": "eventId",
                      "type": "uint256"
                    },
                    {
                      "internalType": "uint256",
                      "name": "voteCount",
                      "type": "uint256"
                    },
                    {
                      "internalType": "bool",
                      "name": "win",
                      "type": "bool"
                    },
                    {
                      "internalType": "string",
                      "name": "imageFileName",
                      "type": "string"
                    }
                  ],
                  "internalType": "struct VotingSystem.Candidate[]",
                  "name": "candidates",
                  "type": "tuple[]"
                },
                {
                  "internalType": "uint256",
                  "name": "candidateCount",
                  "type": "uint256"
                },
                {
                  "internalType": "uint256",
                  "name": "startDateTime",
                  "type": "uint256"
                },
                {
                  "internalType": "uint256",
                  "name": "endDateTime",
                  "type": "uint256"
                },
                {
                  "internalType": "uint256",
                  "name": "status",
                  "type": "uint256"
                }
              ],
              "internalType": "struct VotingSystem.Event[]",
              "name": "events",
              "type": "tuple[]"
            },
            {
              "internalType": "uint256",
              "name": "status",
              "type": "uint256"
            }
          ],
          "internalType": "struct VotingSystem.Category",
          "name": "_category",
          "type": "tuple"
        }
      ],
      "name": "updateCategory",
      "outputs": [],
      "stateMutability": "nonpayable",
      "type": "function"
    },
    {
      "inputs": [
        {
          "internalType": "uint256",
          "name": "_categoryId",
          "type": "uint256"
        },
        {
          "internalType": "string",
          "name": "_newCategoryName",
          "type": "string"
        }
      ],
      "name": "updateCategoryName",
      "outputs": [],
      "stateMutability": "nonpayable",
      "type": "function"
    },
    {
      "inputs": [
        {
          "internalType": "uint256",
          "name": "_categoryId",
          "type": "uint256"
        }
      ],
      "name": "deleteCategory",
      "outputs": [],
      "stateMutability": "nonpayable",
      "type": "function"
    },
    {
      "inputs": [
        {
          "internalType": "uint256",
          "name": "_categoryId",
          "type": "uint256"
        },
        {
          "internalType": "string",
          "name": "_eventName",
          "type": "string"
        },
        {
          "internalType": "uint256",
          "name": "_startDateTime",
          "type": "uint256"
        },
        {
          "internalType": "uint256",
          "name": "_endDateTime",
          "type": "uint256"
        }
      ],
      "name": "addEvent",
      "outputs": [],
      "stateMutability": "nonpayable",
      "type": "function"
    },
    {
      "inputs": [
        {
          "internalType": "uint256",
          "name": "_categoryId",
          "type": "uint256"
        },
        {
          "internalType": "string",
          "name": "_eventName",
          "type": "string"
        },
        {
          "internalType": "uint256",
          "name": "_startDateTime",
          "type": "uint256"
        }
      ],
      "name": "isEventStart",
      "outputs": [
        {
          "internalType": "bool",
          "name": "",
          "type": "bool"
        }
      ],
      "stateMutability": "view",
      "type": "function",
      "constant": true
    },
    {
      "inputs": [
        {
          "components": [
            {
              "internalType": "uint256",
              "name": "eventId",
              "type": "uint256"
            },
            {
              "internalType": "string",
              "name": "eventName",
              "type": "string"
            },
            {
              "internalType": "uint256",
              "name": "categoryId",
              "type": "uint256"
            },
            {
              "components": [
                {
                  "internalType": "uint256",
                  "name": "id",
                  "type": "uint256"
                },
                {
                  "internalType": "string",
                  "name": "name",
                  "type": "string"
                },
                {
                  "internalType": "string",
                  "name": "description",
                  "type": "string"
                },
                {
                  "internalType": "uint256",
                  "name": "studentId",
                  "type": "uint256"
                },
                {
                  "internalType": "uint256",
                  "name": "categoryId",
                  "type": "uint256"
                },
                {
                  "internalType": "uint256",
                  "name": "eventId",
                  "type": "uint256"
                },
                {
                  "internalType": "uint256",
                  "name": "voteCount",
                  "type": "uint256"
                },
                {
                  "internalType": "bool",
                  "name": "win",
                  "type": "bool"
                },
                {
                  "internalType": "string",
                  "name": "imageFileName",
                  "type": "string"
                }
              ],
              "internalType": "struct VotingSystem.Candidate[]",
              "name": "candidates",
              "type": "tuple[]"
            },
            {
              "internalType": "uint256",
              "name": "candidateCount",
              "type": "uint256"
            },
            {
              "internalType": "uint256",
              "name": "startDateTime",
              "type": "uint256"
            },
            {
              "internalType": "uint256",
              "name": "endDateTime",
              "type": "uint256"
            },
            {
              "internalType": "uint256",
              "name": "status",
              "type": "uint256"
            }
          ],
          "internalType": "struct VotingSystem.Event",
          "name": "_event",
          "type": "tuple"
        }
      ],
      "name": "updateEvent",
      "outputs": [],
      "stateMutability": "nonpayable",
      "type": "function"
    },
    {
      "inputs": [
        {
          "internalType": "uint256",
          "name": "_categoryId",
          "type": "uint256"
        },
        {
          "internalType": "uint256",
          "name": "_eventId",
          "type": "uint256"
        },
        {
          "internalType": "string",
          "name": "_candidateName",
          "type": "string"
        },
        {
          "internalType": "string",
          "name": "_description",
          "type": "string"
        },
        {
          "internalType": "uint256",
          "name": "_studentId",
          "type": "uint256"
        },
        {
          "internalType": "string",
          "name": "_imageFileName",
          "type": "string"
        }
      ],
      "name": "addCandidateToEvent",
      "outputs": [],
      "stateMutability": "nonpayable",
      "type": "function"
    },
    {
      "inputs": [
        {
          "components": [
            {
              "internalType": "uint256",
              "name": "id",
              "type": "uint256"
            },
            {
              "internalType": "string",
              "name": "name",
              "type": "string"
            },
            {
              "internalType": "string",
              "name": "description",
              "type": "string"
            },
            {
              "internalType": "uint256",
              "name": "studentId",
              "type": "uint256"
            },
            {
              "internalType": "uint256",
              "name": "categoryId",
              "type": "uint256"
            },
            {
              "internalType": "uint256",
              "name": "eventId",
              "type": "uint256"
            },
            {
              "internalType": "uint256",
              "name": "voteCount",
              "type": "uint256"
            },
            {
              "internalType": "bool",
              "name": "win",
              "type": "bool"
            },
            {
              "internalType": "string",
              "name": "imageFileName",
              "type": "string"
            }
          ],
          "internalType": "struct VotingSystem.Candidate",
          "name": "_candidate",
          "type": "tuple"
        }
      ],
      "name": "updateCandidate",
      "outputs": [],
      "stateMutability": "nonpayable",
      "type": "function"
    },
    {
      "inputs": [
        {
          "internalType": "string",
          "name": "_imageFileName",
          "type": "string"
        }
      ],
      "name": "isImageFileNameUsed",
      "outputs": [
        {
          "internalType": "bool",
          "name": "",
          "type": "bool"
        }
      ],
      "stateMutability": "view",
      "type": "function",
      "constant": true
    },
    {
      "inputs": [
        {
          "internalType": "uint256",
          "name": "_categoryId",
          "type": "uint256"
        },
        {
          "internalType": "uint256",
          "name": "_eventId",
          "type": "uint256"
        },
        {
          "internalType": "uint256",
          "name": "_studentId",
          "type": "uint256"
        }
      ],
      "name": "isCandidateExistsInEvent",
      "outputs": [
        {
          "internalType": "bool",
          "name": "",
          "type": "bool"
        }
      ],
      "stateMutability": "view",
      "type": "function",
      "constant": true
    },
    {
      "inputs": [
        {
          "internalType": "uint256",
          "name": "_categoryId",
          "type": "uint256"
        },
        {
          "internalType": "uint256",
          "name": "_eventId",
          "type": "uint256"
        },
        {
          "internalType": "uint256",
          "name": "_candidateId",
          "type": "uint256"
        }
      ],
      "name": "isCandidateExistsInEventById",
      "outputs": [
        {
          "internalType": "bool",
          "name": "",
          "type": "bool"
        }
      ],
      "stateMutability": "view",
      "type": "function",
      "constant": true
    },
    {
      "inputs": [
        {
          "internalType": "uint256",
          "name": "_categoryId",
          "type": "uint256"
        },
        {
          "internalType": "uint256",
          "name": "_eventId",
          "type": "uint256"
        }
      ],
      "name": "isEventExists",
      "outputs": [
        {
          "internalType": "bool",
          "name": "",
          "type": "bool"
        }
      ],
      "stateMutability": "view",
      "type": "function",
      "constant": true
    },
    {
      "inputs": [
        {
          "internalType": "uint256",
          "name": "_categoryId",
          "type": "uint256"
        },
        {
          "internalType": "string",
          "name": "_eventName",
          "type": "string"
        }
      ],
      "name": "isEventExists",
      "outputs": [
        {
          "internalType": "bool",
          "name": "",
          "type": "bool"
        }
      ],
      "stateMutability": "view",
      "type": "function",
      "constant": true
    },
    {
      "inputs": [
        {
          "internalType": "uint256",
          "name": "_categoryId",
          "type": "uint256"
        }
      ],
      "name": "getAllCategoryEvent",
      "outputs": [
        {
          "components": [
            {
              "internalType": "uint256",
              "name": "eventId",
              "type": "uint256"
            },
            {
              "internalType": "string",
              "name": "eventName",
              "type": "string"
            },
            {
              "internalType": "uint256",
              "name": "categoryId",
              "type": "uint256"
            },
            {
              "components": [
                {
                  "internalType": "uint256",
                  "name": "id",
                  "type": "uint256"
                },
                {
                  "internalType": "string",
                  "name": "name",
                  "type": "string"
                },
                {
                  "internalType": "string",
                  "name": "description",
                  "type": "string"
                },
                {
                  "internalType": "uint256",
                  "name": "studentId",
                  "type": "uint256"
                },
                {
                  "internalType": "uint256",
                  "name": "categoryId",
                  "type": "uint256"
                },
                {
                  "internalType": "uint256",
                  "name": "eventId",
                  "type": "uint256"
                },
                {
                  "internalType": "uint256",
                  "name": "voteCount",
                  "type": "uint256"
                },
                {
                  "internalType": "bool",
                  "name": "win",
                  "type": "bool"
                },
                {
                  "internalType": "string",
                  "name": "imageFileName",
                  "type": "string"
                }
              ],
              "internalType": "struct VotingSystem.Candidate[]",
              "name": "candidates",
              "type": "tuple[]"
            },
            {
              "internalType": "uint256",
              "name": "candidateCount",
              "type": "uint256"
            },
            {
              "internalType": "uint256",
              "name": "startDateTime",
              "type": "uint256"
            },
            {
              "internalType": "uint256",
              "name": "endDateTime",
              "type": "uint256"
            },
            {
              "internalType": "uint256",
              "name": "status",
              "type": "uint256"
            }
          ],
          "internalType": "struct VotingSystem.Event[]",
          "name": "foundEvent",
          "type": "tuple[]"
        }
      ],
      "stateMutability": "view",
      "type": "function",
      "constant": true
    },
    {
      "inputs": [
        {
          "internalType": "uint256",
          "name": "_categoryId",
          "type": "uint256"
        },
        {
          "internalType": "uint256",
          "name": "_eventId",
          "type": "uint256"
        }
      ],
      "name": "getAllCandidatesInEvent",
      "outputs": [
        {
          "components": [
            {
              "internalType": "uint256",
              "name": "id",
              "type": "uint256"
            },
            {
              "internalType": "string",
              "name": "name",
              "type": "string"
            },
            {
              "internalType": "string",
              "name": "description",
              "type": "string"
            },
            {
              "internalType": "uint256",
              "name": "studentId",
              "type": "uint256"
            },
            {
              "internalType": "uint256",
              "name": "categoryId",
              "type": "uint256"
            },
            {
              "internalType": "uint256",
              "name": "eventId",
              "type": "uint256"
            },
            {
              "internalType": "uint256",
              "name": "voteCount",
              "type": "uint256"
            },
            {
              "internalType": "bool",
              "name": "win",
              "type": "bool"
            },
            {
              "internalType": "string",
              "name": "imageFileName",
              "type": "string"
            }
          ],
          "internalType": "struct VotingSystem.Candidate[]",
          "name": "foundCandidates",
          "type": "tuple[]"
        }
      ],
      "stateMutability": "view",
      "type": "function",
      "constant": true
    },
    {
      "inputs": [],
      "name": "getAllCandidates",
      "outputs": [
        {
          "components": [
            {
              "internalType": "uint256",
              "name": "id",
              "type": "uint256"
            },
            {
              "internalType": "string",
              "name": "name",
              "type": "string"
            },
            {
              "internalType": "string",
              "name": "description",
              "type": "string"
            },
            {
              "internalType": "uint256",
              "name": "studentId",
              "type": "uint256"
            },
            {
              "internalType": "uint256",
              "name": "categoryId",
              "type": "uint256"
            },
            {
              "internalType": "uint256",
              "name": "eventId",
              "type": "uint256"
            },
            {
              "internalType": "uint256",
              "name": "voteCount",
              "type": "uint256"
            },
            {
              "internalType": "bool",
              "name": "win",
              "type": "bool"
            },
            {
              "internalType": "string",
              "name": "imageFileName",
              "type": "string"
            }
          ],
          "internalType": "struct VotingSystem.Candidate[]",
          "name": "",
          "type": "tuple[]"
        }
      ],
      "stateMutability": "view",
      "type": "function",
      "constant": true
    },
    {
      "inputs": [],
      "name": "getAllCategory",
      "outputs": [
        {
          "components": [
            {
              "internalType": "uint256",
              "name": "categoryId",
              "type": "uint256"
            },
            {
              "internalType": "string",
              "name": "categoryName",
              "type": "string"
            },
            {
              "components": [
                {
                  "internalType": "uint256",
                  "name": "eventId",
                  "type": "uint256"
                },
                {
                  "internalType": "string",
                  "name": "eventName",
                  "type": "string"
                },
                {
                  "internalType": "uint256",
                  "name": "categoryId",
                  "type": "uint256"
                },
                {
                  "components": [
                    {
                      "internalType": "uint256",
                      "name": "id",
                      "type": "uint256"
                    },
                    {
                      "internalType": "string",
                      "name": "name",
                      "type": "string"
                    },
                    {
                      "internalType": "string",
                      "name": "description",
                      "type": "string"
                    },
                    {
                      "internalType": "uint256",
                      "name": "studentId",
                      "type": "uint256"
                    },
                    {
                      "internalType": "uint256",
                      "name": "categoryId",
                      "type": "uint256"
                    },
                    {
                      "internalType": "uint256",
                      "name": "eventId",
                      "type": "uint256"
                    },
                    {
                      "internalType": "uint256",
                      "name": "voteCount",
                      "type": "uint256"
                    },
                    {
                      "internalType": "bool",
                      "name": "win",
                      "type": "bool"
                    },
                    {
                      "internalType": "string",
                      "name": "imageFileName",
                      "type": "string"
                    }
                  ],
                  "internalType": "struct VotingSystem.Candidate[]",
                  "name": "candidates",
                  "type": "tuple[]"
                },
                {
                  "internalType": "uint256",
                  "name": "candidateCount",
                  "type": "uint256"
                },
                {
                  "internalType": "uint256",
                  "name": "startDateTime",
                  "type": "uint256"
                },
                {
                  "internalType": "uint256",
                  "name": "endDateTime",
                  "type": "uint256"
                },
                {
                  "internalType": "uint256",
                  "name": "status",
                  "type": "uint256"
                }
              ],
              "internalType": "struct VotingSystem.Event[]",
              "name": "events",
              "type": "tuple[]"
            },
            {
              "internalType": "uint256",
              "name": "status",
              "type": "uint256"
            }
          ],
          "internalType": "struct VotingSystem.Category[]",
          "name": "",
          "type": "tuple[]"
        }
      ],
      "stateMutability": "view",
      "type": "function",
      "constant": true
    },
    {
      "inputs": [
        {
          "internalType": "uint256",
          "name": "_categoryId",
          "type": "uint256"
        }
      ],
      "name": "getCategoryById",
      "outputs": [
        {
          "components": [
            {
              "internalType": "uint256",
              "name": "categoryId",
              "type": "uint256"
            },
            {
              "internalType": "string",
              "name": "categoryName",
              "type": "string"
            },
            {
              "components": [
                {
                  "internalType": "uint256",
                  "name": "eventId",
                  "type": "uint256"
                },
                {
                  "internalType": "string",
                  "name": "eventName",
                  "type": "string"
                },
                {
                  "internalType": "uint256",
                  "name": "categoryId",
                  "type": "uint256"
                },
                {
                  "components": [
                    {
                      "internalType": "uint256",
                      "name": "id",
                      "type": "uint256"
                    },
                    {
                      "internalType": "string",
                      "name": "name",
                      "type": "string"
                    },
                    {
                      "internalType": "string",
                      "name": "description",
                      "type": "string"
                    },
                    {
                      "internalType": "uint256",
                      "name": "studentId",
                      "type": "uint256"
                    },
                    {
                      "internalType": "uint256",
                      "name": "categoryId",
                      "type": "uint256"
                    },
                    {
                      "internalType": "uint256",
                      "name": "eventId",
                      "type": "uint256"
                    },
                    {
                      "internalType": "uint256",
                      "name": "voteCount",
                      "type": "uint256"
                    },
                    {
                      "internalType": "bool",
                      "name": "win",
                      "type": "bool"
                    },
                    {
                      "internalType": "string",
                      "name": "imageFileName",
                      "type": "string"
                    }
                  ],
                  "internalType": "struct VotingSystem.Candidate[]",
                  "name": "candidates",
                  "type": "tuple[]"
                },
                {
                  "internalType": "uint256",
                  "name": "candidateCount",
                  "type": "uint256"
                },
                {
                  "internalType": "uint256",
                  "name": "startDateTime",
                  "type": "uint256"
                },
                {
                  "internalType": "uint256",
                  "name": "endDateTime",
                  "type": "uint256"
                },
                {
                  "internalType": "uint256",
                  "name": "status",
                  "type": "uint256"
                }
              ],
              "internalType": "struct VotingSystem.Event[]",
              "name": "events",
              "type": "tuple[]"
            },
            {
              "internalType": "uint256",
              "name": "status",
              "type": "uint256"
            }
          ],
          "internalType": "struct VotingSystem.Category",
          "name": "",
          "type": "tuple"
        }
      ],
      "stateMutability": "view",
      "type": "function",
      "constant": true
    },
    {
      "inputs": [],
      "name": "getAllEvent",
      "outputs": [
        {
          "components": [
            {
              "internalType": "uint256",
              "name": "eventId",
              "type": "uint256"
            },
            {
              "internalType": "string",
              "name": "eventName",
              "type": "string"
            },
            {
              "internalType": "uint256",
              "name": "categoryId",
              "type": "uint256"
            },
            {
              "components": [
                {
                  "internalType": "uint256",
                  "name": "id",
                  "type": "uint256"
                },
                {
                  "internalType": "string",
                  "name": "name",
                  "type": "string"
                },
                {
                  "internalType": "string",
                  "name": "description",
                  "type": "string"
                },
                {
                  "internalType": "uint256",
                  "name": "studentId",
                  "type": "uint256"
                },
                {
                  "internalType": "uint256",
                  "name": "categoryId",
                  "type": "uint256"
                },
                {
                  "internalType": "uint256",
                  "name": "eventId",
                  "type": "uint256"
                },
                {
                  "internalType": "uint256",
                  "name": "voteCount",
                  "type": "uint256"
                },
                {
                  "internalType": "bool",
                  "name": "win",
                  "type": "bool"
                },
                {
                  "internalType": "string",
                  "name": "imageFileName",
                  "type": "string"
                }
              ],
              "internalType": "struct VotingSystem.Candidate[]",
              "name": "candidates",
              "type": "tuple[]"
            },
            {
              "internalType": "uint256",
              "name": "candidateCount",
              "type": "uint256"
            },
            {
              "internalType": "uint256",
              "name": "startDateTime",
              "type": "uint256"
            },
            {
              "internalType": "uint256",
              "name": "endDateTime",
              "type": "uint256"
            },
            {
              "internalType": "uint256",
              "name": "status",
              "type": "uint256"
            }
          ],
          "internalType": "struct VotingSystem.Event[]",
          "name": "",
          "type": "tuple[]"
        }
      ],
      "stateMutability": "view",
      "type": "function",
      "constant": true
    },
    {
      "inputs": [
        {
          "internalType": "uint256",
          "name": "_categoryId",
          "type": "uint256"
        },
        {
          "internalType": "uint256",
          "name": "_eventId",
          "type": "uint256"
        }
      ],
      "name": "getEventById",
      "outputs": [
        {
          "components": [
            {
              "internalType": "uint256",
              "name": "eventId",
              "type": "uint256"
            },
            {
              "internalType": "string",
              "name": "eventName",
              "type": "string"
            },
            {
              "internalType": "uint256",
              "name": "categoryId",
              "type": "uint256"
            },
            {
              "components": [
                {
                  "internalType": "uint256",
                  "name": "id",
                  "type": "uint256"
                },
                {
                  "internalType": "string",
                  "name": "name",
                  "type": "string"
                },
                {
                  "internalType": "string",
                  "name": "description",
                  "type": "string"
                },
                {
                  "internalType": "uint256",
                  "name": "studentId",
                  "type": "uint256"
                },
                {
                  "internalType": "uint256",
                  "name": "categoryId",
                  "type": "uint256"
                },
                {
                  "internalType": "uint256",
                  "name": "eventId",
                  "type": "uint256"
                },
                {
                  "internalType": "uint256",
                  "name": "voteCount",
                  "type": "uint256"
                },
                {
                  "internalType": "bool",
                  "name": "win",
                  "type": "bool"
                },
                {
                  "internalType": "string",
                  "name": "imageFileName",
                  "type": "string"
                }
              ],
              "internalType": "struct VotingSystem.Candidate[]",
              "name": "candidates",
              "type": "tuple[]"
            },
            {
              "internalType": "uint256",
              "name": "candidateCount",
              "type": "uint256"
            },
            {
              "internalType": "uint256",
              "name": "startDateTime",
              "type": "uint256"
            },
            {
              "internalType": "uint256",
              "name": "endDateTime",
              "type": "uint256"
            },
            {
              "internalType": "uint256",
              "name": "status",
              "type": "uint256"
            }
          ],
          "internalType": "struct VotingSystem.Event",
          "name": "",
          "type": "tuple"
        }
      ],
      "stateMutability": "view",
      "type": "function",
      "constant": true
    },
    {
      "inputs": [
        {
          "internalType": "string",
          "name": "_voterKey",
          "type": "string"
        },
        {
          "internalType": "uint256",
          "name": "_candidateId",
          "type": "uint256"
        },
        {
          "internalType": "uint256",
          "name": "_categoryId",
          "type": "uint256"
        },
        {
          "internalType": "uint256",
          "name": "_eventId",
          "type": "uint256"
        }
      ],
      "name": "vote",
      "outputs": [],
      "stateMutability": "nonpayable",
      "type": "function"
    },
    {
      "inputs": [
        {
          "internalType": "uint256",
          "name": "_categoryId",
          "type": "uint256"
        },
        {
          "internalType": "uint256",
          "name": "_eventId",
          "type": "uint256"
        },
        {
          "internalType": "string",
          "name": "_voterKey",
          "type": "string"
        }
      ],
      "name": "isVoted",
      "outputs": [
        {
          "internalType": "bool",
          "name": "",
          "type": "bool"
        }
      ],
      "stateMutability": "view",
      "type": "function",
      "constant": true
    },
    {
      "inputs": [
        {
          "internalType": "uint256",
          "name": "_categoryId",
          "type": "uint256"
        },
        {
          "internalType": "uint256",
          "name": "_eventId",
          "type": "uint256"
        }
      ],
      "name": "markWinner",
      "outputs": [],
      "stateMutability": "nonpayable",
      "type": "function"
    },
    {
      "inputs": [
        {
          "internalType": "uint256",
          "name": "_categoryId",
          "type": "uint256"
        },
        {
          "internalType": "uint256",
          "name": "_eventId",
          "type": "uint256"
        }
      ],
      "name": "whoIsTheWinner",
      "outputs": [
        {
          "components": [
            {
              "internalType": "uint256",
              "name": "id",
              "type": "uint256"
            },
            {
              "internalType": "string",
              "name": "name",
              "type": "string"
            },
            {
              "internalType": "string",
              "name": "description",
              "type": "string"
            },
            {
              "internalType": "uint256",
              "name": "studentId",
              "type": "uint256"
            },
            {
              "internalType": "uint256",
              "name": "categoryId",
              "type": "uint256"
            },
            {
              "internalType": "uint256",
              "name": "eventId",
              "type": "uint256"
            },
            {
              "internalType": "uint256",
              "name": "voteCount",
              "type": "uint256"
            },
            {
              "internalType": "bool",
              "name": "win",
              "type": "bool"
            },
            {
              "internalType": "string",
              "name": "imageFileName",
              "type": "string"
            }
          ],
          "internalType": "struct VotingSystem.Candidate",
          "name": "",
          "type": "tuple"
        }
      ],
      "stateMutability": "view",
      "type": "function",
      "constant": true
    }
  ],
  "bytecode": "0x608060405234801561001057600080fd5b50600080546001600160a01b03191633179055615ccd80620000336000396000f3fe608060405234801561001057600080fd5b50600436106102275760003560e01c8063776a657b11610130578063b62b3e93116100b8578063ceca737f1161007c578063ceca737f14610525578063da58c7d914610538578063dfdffaf41461055e578063f29565ed14610571578063f731d0e91461058457600080fd5b8063b62b3e93146104c6578063bf03f677146104d9578063bf196e16146104ec578063c0d75cdd146104ff578063c80112801461051257600080fd5b806388ad4376116100ff57806388ad4376146104405780638da5cb5b146104535780638f2c28051461047e578063909f850214610493578063a1a02564146104b357600080fd5b8063776a657b146103f457806379cf6ecd14610407578063819ac74c1461041a5780638801b5b61461042d57600080fd5b806350515a77116101b357806360e93f3c1161018257806360e93f3c1461036a578063642d20ad1461038a578063689b6fbf146103ae578063748f55a8146103c157806376304984146103e157600080fd5b806350515a7714610311578063514fc62a146103245780635a8ffc79146103375780635b4d727c1461035757600080fd5b80633e60e2f5116101fa5780633e60e2f514610297578063400af02a146102b8578063401a52dd146102d85780634ba31db6146102eb5780634fb43250146102fe57600080fd5b80631002cdd41461022c5780631b3e93301461024a5780632e0dcbf71461026d5780632e6997fe14610282575b600080fd5b610234610597565b6040516102419190614e75565b60405180910390f35b61025d610258366004614ffa565b6109f5565b6040519015158152602001610241565b61028061027b366004615049565b610b5d565b005b61028a610c87565b6040516102419190615085565b6102aa6102a53660046150da565b610e09565b604051908152602001610241565b6102cb6102c63660046150da565b610e47565b604051610241919061513d565b6102346102e63660046151da565b610f1d565b61025d6102f93660046151f3565b611326565b61025d61030c366004615242565b6113ff565b61025d61031f366004615264565b6114ab565b61025d610332366004615049565b61156a565b61034a6103453660046151da565b6115d0565b60405161024191906152a0565b61028a610365366004615242565b6116c4565b61037d6103783660046151da565b611a60565b6040516102419190615344565b61039d6103983660046151da565b611ed8565b604051610241959493929190615357565b61025d6103bc3660046150da565b611f94565b6103d46103cf366004615242565b611fb5565b604051610241919061538f565b6102806103ef3660046153a2565b612468565b610280610402366004615445565b6127b9565b6102806104153660046156e3565b612ac8565b610280610428366004615717565b612bf3565b6102cb61043b3660046150da565b612cf8565b61025d61044e366004615049565b6130d4565b600054610466906001600160a01b031681565b6040516001600160a01b039091168152602001610241565b6104866130ff565b604051610241919061576d565b6104a66104a1366004615242565b613610565b60405161024191906157c2565b61025d6104c1366004615049565b613add565b6102806104d43660046157d5565b613bc1565b61025d6104e73660046158e8565b613c29565b6102806104fa366004615264565b613cbd565b61028061050d366004615242565b613dba565b610280610520366004615914565b613fc4565b6102806105333660046151da565b614175565b61054b6105463660046151da565b61437a565b6040516102419796959493929190615948565b61025d61056c3660046158e8565b6145d5565b61028061057f3660046150da565b61465d565b6102806105923660046159b5565b614743565b606060006009546001600160401b038111156105b5576105b5614ed7565b6040519080825280602002602001820160405280156105ee57816020015b6105db614a60565b8152602001906001900390816105d35790505b5090506000805b6007548110156109ed5760005b600160006106108483615a9c565b81526020810191909152604001600020600201548110156109da57600160006106398483615a9c565b8152602001908152602001600020600201818154811061065b5761065b615ab4565b9060005260206000209060080201604051806101000160405290816000820154815260200160018201805461068f90615aca565b80601f01602080910402602001604051908101604052809291908181526020018280546106bb90615aca565b80156107085780601f106106dd57610100808354040283529160200191610708565b820191906000526020600020905b8154815290600101906020018083116106eb57829003601f168201915b505050505081526020016002820154815260200160038201805480602002602001604051908101604052809291908181526020016000905b8282101561096e5783829060005260206000209060090201604051806101200160405290816000820154815260200160018201805461077e90615aca565b80601f01602080910402602001604051908101604052809291908181526020018280546107aa90615aca565b80156107f75780601f106107cc576101008083540402835291602001916107f7565b820191906000526020600020905b8154815290600101906020018083116107da57829003601f168201915b5050505050815260200160028201805461081090615aca565b80601f016020809104026020016040519081016040528092919081815260200182805461083c90615aca565b80156108895780601f1061085e57610100808354040283529160200191610889565b820191906000526020600020905b81548152906001019060200180831161086c57829003601f168201915b505050918352505060038201546020820152600482015460408201526005820154606082015260068201546080820152600782015460ff16151560a082015260088201805460c0909201916108dd90615aca565b80601f016020809104026020016040519081016040528092919081815260200182805461090990615aca565b80156109565780601f1061092b57610100808354040283529160200191610956565b820191906000526020600020905b81548152906001019060200180831161093957829003601f168201915b50505050508152505081526020019060010190610740565b5050505081526020016004820154815260200160058201548152602001600682015481526020016007820154815250508484815181106109b0576109b0615ab4565b60209081029190910101526109c6600184615a9c565b9250806109d281615afe565b915050610602565b50806109e581615afe565b9150506105f5565b509092915050565b6000838152600160205260408120548103610a2b5760405162461bcd60e51b8152600401610a2290615b17565b60405180910390fd5b610a3584846114ab565b1515600114610a7d5760405162461bcd60e51b8152602060048201526014602482015273115d995b9d08191bd95cc81b9bdd08195e1a5cdd60621b6044820152606401610a22565b60005b600085815260016020526040902060020154811015610b50578380519060200120600160008781526020019081526020016000206002018281548110610ac857610ac8615ab4565b9060005260206000209060080201600101604051610ae69190615b4e565b6040518091039020148015610b2f57506000858152600160205260409020600201805482908110610b1957610b19615ab4565b9060005260206000209060080201600501548310155b15610b3e576001915050610b56565b80610b4881615afe565b915050610a80565b50600090505b9392505050565b60015b6007548111610bfb5760016000828152602001908152602001600020600101604051610b8c9190615b4e565b6040518091039020828051906020012003610be95760405162461bcd60e51b815260206004820152601760248201527f43617465676f727920616c7265616479206578697374730000000000000000006044820152606401610a22565b80610bf381615afe565b915050610b60565b50600160076000828254610c0f9190615a9c565b9091555050600754600090815260016020818152604090922083519092610c3c9284019190850190614aa5565b5060078054825560016003830155546040517f5bae3f75753ef0a1c0ea0f6c51d7b43a4b8d116572b8b7b5cb771f9ad32d4ae590610c7b9085906152a0565b60405180910390a25050565b606060006008546001600160401b03811115610ca557610ca5614ed7565b604051908082528060200260200182016040528015610cde57816020015b610ccb614b29565b815260200190600190039081610cc35790505b50905060006009546001600160401b03811115610cfd57610cfd614ed7565b604051908082528060200260200182016040528015610d3657816020015b610d23614a60565b815260200190600190039081610d1b5790505b509050610d41610597565b90506000805b600954811015610e005760005b838281518110610d6657610d66615ab4565b60200260200101516060015151811015610ded57838281518110610d8c57610d8c615ab4565b6020026020010151606001518181518110610da957610da9615ab4565b6020026020010151858481518110610dc357610dc3615ab4565b6020908102919091010152610dd9600184615a9c565b925080610de581615afe565b915050610d54565b5080610df881615afe565b915050610d47565b50919392505050565b600080610e168484612cf8565b8051909150600003610e3a5760405162461bcd60e51b8152600401610a2290615be9565b60a0015190505b92915050565b610e8a6040518060e00160405280600081526020016060815260200160608152602001600080191681526020016060815260200160008152602001606081525090565b6000610e968484612cf8565b8051909150600003610eba5760405162461bcd60e51b8152600401610a2290615be9565b8060a00151600114610b565760405162461bcd60e51b815260206004820152602660248201527f596f7572206163636f756e74207761732062616e6e6564206f72206e6f74207660448201526565726966792160d01b6064820152608401610a22565b60008181526001602052604081206002810154606092906001600160401b03811115610f4b57610f4b614ed7565b604051908082528060200260200182016040528015610f8457816020015b610f71614a60565b815260200190600190039081610f695790505b50905060005b600283015481101561131e57826002018181548110610fab57610fab615ab4565b90600052602060002090600802016040518061010001604052908160008201548152602001600182018054610fdf90615aca565b80601f016020809104026020016040519081016040528092919081815260200182805461100b90615aca565b80156110585780601f1061102d57610100808354040283529160200191611058565b820191906000526020600020905b81548152906001019060200180831161103b57829003601f168201915b505050505081526020016002820154815260200160038201805480602002602001604051908101604052809291908181526020016000905b828210156112be578382906000526020600020906009020160405180610120016040529081600082015481526020016001820180546110ce90615aca565b80601f01602080910402602001604051908101604052809291908181526020018280546110fa90615aca565b80156111475780601f1061111c57610100808354040283529160200191611147565b820191906000526020600020905b81548152906001019060200180831161112a57829003601f168201915b5050505050815260200160028201805461116090615aca565b80601f016020809104026020016040519081016040528092919081815260200182805461118c90615aca565b80156111d95780601f106111ae576101008083540402835291602001916111d9565b820191906000526020600020905b8154815290600101906020018083116111bc57829003601f168201915b505050918352505060038201546020820152600482015460408201526005820154606082015260068201546080820152600782015460ff16151560a082015260088201805460c09092019161122d90615aca565b80601f016020809104026020016040519081016040528092919081815260200182805461125990615aca565b80156112a65780601f1061127b576101008083540402835291602001916112a6565b820191906000526020600020905b81548152906001019060200180831161128957829003601f168201915b50505050508152505081526020019060010190611090565b50505050815260200160048201548152602001600582015481526020016006820154815260200160078201548152505082828151811061130057611300615ab4565b6020026020010181905250808061131690615afe565b915050610f8a565b509392505050565b60008381526001602052604081205481036113535760405162461bcd60e51b8152600401610a2290615b17565b60015b600a548111610b50576000818152600460205260409020600201548514801561138f575060008181526004602052604090206003015484145b80156113cb57508280519060200120600460008381526020019081526020016000206001016040516113c19190615b4e565b6040518091039020145b156113ed576000908152600460208190526040909120015460ff169050610b56565b806113f781615afe565b915050611356565b600082815260016020526040812054810361142c5760405162461bcd60e51b8152600401610a2290615b17565b60005b6000848152600160205260409020600201548110156114a157600084815260016020526040902060020180548491908390811061146e5761146e615ab4565b9060005260206000209060080201600001540361148f576001915050610e41565b8061149981615afe565b91505061142f565b5060009392505050565b60008281526001602052604081205481036114d85760405162461bcd60e51b8152600401610a2290615b17565b60005b6000848152600160205260409020600201548110156114a157828051906020012060016000868152602001908152602001600020600201828154811061152357611523615ab4565b90600052602060002090600802016001016040516115419190615b4e565b604051809103902003611558576001915050610e41565b8061156281615afe565b9150506114db565b600060015b600b5481116115c7576000818152600560205260409081902090516115979160010190615b4e565b60405180910390208380519060200120036115b55750600192915050565b806115bf81615afe565b91505061156f565b50600092915050565b60606000821180156115e45750600b548211155b6116235760405162461bcd60e51b815260206004820152601060248201526f125b9d985b1a59081d9bdd195c88125160821b6044820152606401610a22565b6000828152600560205260409020600201805461163f90615aca565b80601f016020809104026020016040519081016040528092919081815260200182805461166b90615aca565b80156116b85780601f1061168d576101008083540402835291602001916116b8565b820191906000526020600020905b81548152906001019060200180831161169b57829003601f168201915b50505050509050919050565b60008281526001602052604081206060915b6002820154811015611a5857838260020182815481106116f8576116f8615ab4565b90600052602060002090600802016000015403611a4657600082600201828154811061172657611726615ab4565b9060005260206000209060080201600401546001600160401b0381111561174f5761174f614ed7565b60405190808252806020026020018201604052801561178857816020015b611775614b29565b81526020019060019003908161176d5790505b50905060005b8360020183815481106117a3576117a3615ab4565b906000526020600020906008020160030180549050811015611a3b578360020183815481106117d4576117d4615ab4565b906000526020600020906008020160030181815481106117f6576117f6615ab4565b9060005260206000209060090201604051806101200160405290816000820154815260200160018201805461182a90615aca565b80601f016020809104026020016040519081016040528092919081815260200182805461185690615aca565b80156118a35780601f10611878576101008083540402835291602001916118a3565b820191906000526020600020905b81548152906001019060200180831161188657829003601f168201915b505050505081526020016002820180546118bc90615aca565b80601f01602080910402602001604051908101604052809291908181526020018280546118e890615aca565b80156119355780601f1061190a57610100808354040283529160200191611935565b820191906000526020600020905b81548152906001019060200180831161191857829003601f168201915b505050918352505060038201546020820152600482015460408201526005820154606082015260068201546080820152600782015460ff16151560a082015260088201805460c09092019161198990615aca565b80601f01602080910402602001604051908101604052809291908181526020018280546119b590615aca565b8015611a025780601f106119d757610100808354040283529160200191611a02565b820191906000526020600020905b8154815290600101906020018083116119e557829003601f168201915b505050505081525050828281518110611a1d57611a1d615ab4565b60200260200101819052508080611a3390615afe565b91505061178e565b509250610e41915050565b80611a5081615afe565b9150506116d6565b505092915050565b611a8b6040518060800160405280600081526020016060815260200160608152602001600081525090565b60008281526001602081815260409283902083516080810190945280548452918201805491840191611abc90615aca565b80601f0160208091040260200160405190810160405280929190818152602001828054611ae890615aca565b8015611b355780601f10611b0a57610100808354040283529160200191611b35565b820191906000526020600020905b815481529060010190602001808311611b1857829003601f168201915b5050505050815260200160028201805480602002602001604051908101604052809291908181526020016000905b82821015611ebf57838290600052602060002090600802016040518061010001604052908160008201548152602001600182018054611ba190615aca565b80601f0160208091040260200160405190810160405280929190818152602001828054611bcd90615aca565b8015611c1a5780601f10611bef57610100808354040283529160200191611c1a565b820191906000526020600020905b815481529060010190602001808311611bfd57829003601f168201915b505050505081526020016002820154815260200160038201805480602002602001604051908101604052809291908181526020016000905b82821015611e8057838290600052602060002090600902016040518061012001604052908160008201548152602001600182018054611c9090615aca565b80601f0160208091040260200160405190810160405280929190818152602001828054611cbc90615aca565b8015611d095780601f10611cde57610100808354040283529160200191611d09565b820191906000526020600020905b815481529060010190602001808311611cec57829003601f168201915b50505050508152602001600282018054611d2290615aca565b80601f0160208091040260200160405190810160405280929190818152602001828054611d4e90615aca565b8015611d9b5780601f10611d7057610100808354040283529160200191611d9b565b820191906000526020600020905b815481529060010190602001808311611d7e57829003601f168201915b505050918352505060038201546020820152600482015460408201526005820154606082015260068201546080820152600782015460ff16151560a082015260088201805460c090920191611def90615aca565b80601f0160208091040260200160405190810160405280929190818152602001828054611e1b90615aca565b8015611e685780601f10611e3d57610100808354040283529160200191611e68565b820191906000526020600020905b815481529060010190602001808311611e4b57829003601f168201915b50505050508152505081526020019060010190611c52565b50505050815260200160048201548152602001600582015481526020016006820154815260200160078201548152505081526020019060010190611b63565b5050505081526020016003820154815250509050919050565b60046020526000908152604090208054600182018054919291611efa90615aca565b80601f0160208091040260200160405190810160405280929190818152602001828054611f2690615aca565b8015611f735780601f10611f4857610100808354040283529160200191611f73565b820191906000526020600020905b815481529060010190602001808311611f5657829003601f168201915b50505050600283015460038401546004909401549293909290915060ff1685565b600080611fa18484612cf8565b8051909150156114a1576001915050610e41565b611fbd614b29565b600083815260016020908152604080832060020180548251818502810185019093528083529192909190849084015b828210156123485783829060005260206000209060080201604051806101000160405290816000820154815260200160018201805461202a90615aca565b80601f016020809104026020016040519081016040528092919081815260200182805461205690615aca565b80156120a35780601f10612078576101008083540402835291602001916120a3565b820191906000526020600020905b81548152906001019060200180831161208657829003601f168201915b505050505081526020016002820154815260200160038201805480602002602001604051908101604052809291908181526020016000905b828210156123095783829060005260206000209060090201604051806101200160405290816000820154815260200160018201805461211990615aca565b80601f016020809104026020016040519081016040528092919081815260200182805461214590615aca565b80156121925780601f1061216757610100808354040283529160200191612192565b820191906000526020600020905b81548152906001019060200180831161217557829003601f168201915b505050505081526020016002820180546121ab90615aca565b80601f01602080910402602001604051908101604052809291908181526020018280546121d790615aca565b80156122245780601f106121f957610100808354040283529160200191612224565b820191906000526020600020905b81548152906001019060200180831161220757829003601f168201915b505050918352505060038201546020820152600482015460408201526005820154606082015260068201546080820152600782015460ff16151560a082015260088201805460c09092019161227890615aca565b80601f01602080910402602001604051908101604052809291908181526020018280546122a490615aca565b80156122f15780601f106122c6576101008083540402835291602001916122f1565b820191906000526020600020905b8154815290600101906020018083116122d457829003601f168201915b505050505081525050815260200190600101906120db565b50505050815260200160048201548152602001600582015481526020016006820154815260200160078201548152505081526020019060010190611fec565b505050509050606060005b82518110156123b3578483828151811061236f5761236f615ab4565b602002602001015160000151036123a15782818151811061239257612392615ab4565b60200260200101516060015191505b806123ab81615afe565b915050612353565b506000816000815181106123c9576123c9615ab4565b6020026020010151905060005b600183516123e49190615c2d565b81101561245757826123f7826001615a9c565b8151811061240757612407615ab4565b602002602001015160c001518260c001511015612445578261242a826001615a9c565b8151811061243a5761243a615ab4565b602002602001015191505b8061244f81615afe565b9150506123d6565b50600160e082015295945050505050565b60008681526001602052604081205490036124955760405162461bcd60e51b8152600401610a2290615b17565b61249f86866113ff565b6124e25760405162461bcd60e51b8152602060048201526014602482015273115d995b9d08191bd95cc81b9bdd08195e1a5cdd60621b6044820152606401610a22565b6124ed8686846145d5565b1561253a5760405162461bcd60e51b815260206004820152601860248201527f43616e64696461746520616c72656164792065786973747300000000000000006044820152606401610a22565b60068160405161254a9190615c44565b9081526040519081900360200190205460ff16156125aa5760405162461bcd60e51b815260206004820152601e60248201527f496d6167652066696c65206e616d6520616c726561647920696e2075736500006044820152606401610a22565b6001600860008282546125bd9190615a9c565b9091555050604080516101208101825260085481526020808201879052818301869052606082018590526080820189905260a08201889052600060c0830181905260e083018190526101008301859052898152600190915291822090915b600282015481101561277c578782600201828154811061263d5761263d615ab4565b9060005260206000209060080201600001540361276a5781600201818154811061266957612669615ab4565b600091825260208083206003600890930201919091018054600181810183559184529282902086516009909402019283558582015180518794936126b1938501920190614aa5565b50604082015180516126cd916002840191602090910190614aa5565b50606082015160038201556080820151600482015560a0820151600582015560c0820151600682015560e082015160078201805460ff1916911515919091179055610100820151805161272a916008840191602090910190614aa5565b505050600182600201828154811061274457612744615ab4565b906000526020600020906008020160040160008282546127649190615a9c565b90915550505b8061277481615afe565b91505061261b565b50600160068460405161278f9190615c44565b908152604051908190036020019020805491151560ff199092169190911790555050505050505050565b60008281526001602052604081205490036128115760405162461bcd60e51b815260206004820152601860248201527743617465676f727920646f6573206e6f742065786973747360401b6044820152606401610a22565b60095460000361285b5760405162461bcd60e51b81526020600482015260156024820152744576656e7420646f6573206e6f742065786973747360581b6044820152606401610a22565b612866828285613c29565b15156001146128b75760405162461bcd60e51b815260206004820152601a60248201527f43616e6469646174657320646f6573206e6f74206578697374730000000000006044820152606401610a22565b60015b600a54811161299e576000818152600460205260409081902090516128e29160010190615b4e565b6040518091039020858051906020012014801561290f575060008181526004602052604090206002015483145b801561292b575060008181526004602052604090206003015482145b1561298c576000818152600460208190526040909120015460ff16156129875760405162461bcd60e51b8152602060048201526011602482015270165bdd48185b1c9958591e481d9bdd1959607a1b6044820152606401610a22565b61299e565b8061299681615afe565b9150506128ba565b506001600a60008282546129b29190615a9c565b90915550506040805160a081018252600a5480825260208083018881528385018790526060840186905260016080850181905260009384526004835294909220835181559151805193948594612a0f939185019290910190614aa5565b5060408201516002820155606082015160038201556080909101516004909101805460ff1916911515919091179055612a498383866148d8565b6040805160208101859052808201849052815180820383018152606090910191829052908590612a7a908390615c44565b604051809103902087604051612a909190615c44565b604051908190038120907f336badd820d33e68eff2381e343928896ff7147adf09b298939d0a7b001f072e90600090a4505050505050565b60408082015160009081526001602052908120549003612b255760405162461bcd60e51b815260206004820152601860248201527743617465676f727920646f6573206e6f742065786973747360401b6044820152606401610a22565b612b37816040015182600001516113ff565b612b7b5760405162461bcd60e51b81526020600482015260156024820152744576656e7420646f6573206e6f742065786973742160581b6044820152606401610a22565b6000600160008360400151815260200190815260200160002060020160018360000151612ba89190615c2d565b81548110612bb857612bb8615ab4565b906000526020600020906008020190508160200151816001019080519060200190612be4929190614aa5565b5060e090910151600790910155565b6000848152600160205260408120549003612c205760405162461bcd60e51b8152600401610a2290615c60565b612c2a84846114ab565b15612c6e5760405162461bcd60e51b81526020600482015260146024820152734576656e7420616c72656164792065786973747360601b6044820152606401610a22565b6000848152600160208190526040822060098054919392918390612c93908490615a9c565b9182905550600284018054600181810183556000928352602092839020600890920290910183815589519395509350612cd29290840191890190614aa5565b506002810196909655505060016007850155600584019190915560069092019190915550565b612d3b6040518060e00160405280600081526020016060815260200160608152602001600080191681526020016060815260200160008152602001606081525090565b600082604051602001612d4e9190615c44565b60408051601f198184030181529190528051602090910120905060015b600b54811161306c57600081815260056020526040908190209051612d939160020190615b4e565b60405180910390208580519060200120148015612dc85750600081815260056020526040902060030154612dc89083906149e8565b1561305a57600560008281526020019081526020016000206040518060e001604052908160008201548152602001600182018054612e0590615aca565b80601f0160208091040260200160405190810160405280929190818152602001828054612e3190615aca565b8015612e7e5780601f10612e5357610100808354040283529160200191612e7e565b820191906000526020600020905b815481529060010190602001808311612e6157829003601f168201915b50505050508152602001600282018054612e9790615aca565b80601f0160208091040260200160405190810160405280929190818152602001828054612ec390615aca565b8015612f105780601f10612ee557610100808354040283529160200191612f10565b820191906000526020600020905b815481529060010190602001808311612ef357829003601f168201915b5050505050815260200160038201548152602001600482018054612f3390615aca565b80601f0160208091040260200160405190810160405280929190818152602001828054612f5f90615aca565b8015612fac5780601f10612f8157610100808354040283529160200191612fac565b820191906000526020600020905b815481529060010190602001808311612f8f57829003601f168201915b5050505050815260200160058201548152602001600682018054612fcf90615aca565b80601f0160208091040260200160405190810160405280929190818152602001828054612ffb90615aca565b80156130485780601f1061301d57610100808354040283529160200191613048565b820191906000526020600020905b81548152906001019060200180831161302b57829003601f168201915b50505050508152505092505050610e41565b8061306481615afe565b915050612d6b565b50506040805160e08101825260008082528251602080820185528282528084019190915283518082018552828152838501526060830182905283518082018552828152608084015260a083018290528351908101909352825260c08101919091529392505050565b60006006826040516130e69190615c44565b9081526040519081900360200190205460ff1692915050565b606060006007546001600160401b0381111561311d5761311d614ed7565b60405190808252806020026020018201604052801561317957816020015b6131666040518060800160405280600081526020016060815260200160608152602001600081525090565b81526020019060019003908161313b5790505b50905060015b600754811161360a57600081815260016020818152604092839020835160808101909452805484529182018054918401916131b990615aca565b80601f01602080910402602001604051908101604052809291908181526020018280546131e590615aca565b80156132325780601f1061320757610100808354040283529160200191613232565b820191906000526020600020905b81548152906001019060200180831161321557829003601f168201915b5050505050815260200160028201805480602002602001604051908101604052809291908181526020016000905b828210156135bc5783829060005260206000209060080201604051806101000160405290816000820154815260200160018201805461329e90615aca565b80601f01602080910402602001604051908101604052809291908181526020018280546132ca90615aca565b80156133175780601f106132ec57610100808354040283529160200191613317565b820191906000526020600020905b8154815290600101906020018083116132fa57829003601f168201915b505050505081526020016002820154815260200160038201805480602002602001604051908101604052809291908181526020016000905b8282101561357d5783829060005260206000209060090201604051806101200160405290816000820154815260200160018201805461338d90615aca565b80601f01602080910402602001604051908101604052809291908181526020018280546133b990615aca565b80156134065780601f106133db57610100808354040283529160200191613406565b820191906000526020600020905b8154815290600101906020018083116133e957829003601f168201915b5050505050815260200160028201805461341f90615aca565b80601f016020809104026020016040519081016040528092919081815260200182805461344b90615aca565b80156134985780601f1061346d57610100808354040283529160200191613498565b820191906000526020600020905b81548152906001019060200180831161347b57829003601f168201915b505050918352505060038201546020820152600482015460408201526005820154606082015260068201546080820152600782015460ff16151560a082015260088201805460c0909201916134ec90615aca565b80601f016020809104026020016040519081016040528092919081815260200182805461351890615aca565b80156135655780601f1061353a57610100808354040283529160200191613565565b820191906000526020600020905b81548152906001019060200180831161354857829003601f168201915b5050505050815250508152602001906001019061334f565b50505050815260200160048201548152602001600582015481526020016006820154815260200160078201548152505081526020019060010190613260565b505050508152602001600382015481525050826001836135dc9190615c2d565b815181106135ec576135ec615ab4565b6020026020010181905250808061360290615afe565b91505061317f565b50919050565b613618614a60565b600083815260016020818152604080842081516080810190925280548252928301805491939284019161364a90615aca565b80601f016020809104026020016040519081016040528092919081815260200182805461367690615aca565b80156136c35780601f10613698576101008083540402835291602001916136c3565b820191906000526020600020905b8154815290600101906020018083116136a657829003601f168201915b5050505050815260200160028201805480602002602001604051908101604052809291908181526020016000905b82821015613a4d5783829060005260206000209060080201604051806101000160405290816000820154815260200160018201805461372f90615aca565b80601f016020809104026020016040519081016040528092919081815260200182805461375b90615aca565b80156137a85780601f1061377d576101008083540402835291602001916137a8565b820191906000526020600020905b81548152906001019060200180831161378b57829003601f168201915b505050505081526020016002820154815260200160038201805480602002602001604051908101604052809291908181526020016000905b82821015613a0e5783829060005260206000209060090201604051806101200160405290816000820154815260200160018201805461381e90615aca565b80601f016020809104026020016040519081016040528092919081815260200182805461384a90615aca565b80156138975780601f1061386c57610100808354040283529160200191613897565b820191906000526020600020905b81548152906001019060200180831161387a57829003601f168201915b505050505081526020016002820180546138b090615aca565b80601f01602080910402602001604051908101604052809291908181526020018280546138dc90615aca565b80156139295780601f106138fe57610100808354040283529160200191613929565b820191906000526020600020905b81548152906001019060200180831161390c57829003601f168201915b505050918352505060038201546020820152600482015460408201526005820154606082015260068201546080820152600782015460ff16151560a082015260088201805460c09092019161397d90615aca565b80601f01602080910402602001604051908101604052809291908181526020018280546139a990615aca565b80156139f65780601f106139cb576101008083540402835291602001916139f6565b820191906000526020600020905b8154815290600101906020018083116139d957829003601f168201915b505050505081525050815260200190600101906137e0565b505050508152602001600482015481526020016005820154815260200160068201548152602001600782015481525050815260200190600101906136f1565b5050505081526020016003820154815250509050613a69614a60565b60005b826040015151811015613ad4578483604001518281518110613a9057613a90615ab4565b60200260200101516000015103613ac25782604001518181518110613ab757613ab7615ab4565b602002602001015191505b80613acc81615afe565b915050613a6c565b50949350505050565b6001600090815260056020527f1471eb6eb2c5e789fc3de43f8ce62938c7d1836ec861730447e2ada8fd81017b548103613b515760405162461bcd60e51b81526020600482015260156024820152744e6f20766f74657220696e20746865206c6973742160581b6044820152606401610a22565b60015b600b5481116115c757600081815260056020526040908190209051613b7c9160060190615b4e565b6040518091039020838051906020012003613baf5760009081526005602081905260409091206001910181905592915050565b80613bb981615afe565b915050613b54565b80516000908152600160205260408120549003613bf05760405162461bcd60e51b8152600401610a2290615c60565b805160009081526001602081815260409092208284015180519193613c1a93850192910190614aa5565b50606090910151600390910155565b6000838152600160205260408120548103613c565760405162461bcd60e51b8152600401610a2290615b17565b6000613c6285856116c4565b905060005b8151811015613cb15783828281518110613c8357613c83615ab4565b60200260200101516000015103613c9f57600192505050610b56565b80613ca981615afe565b915050613c67565b50600095945050505050565b6000828152600160205260408120549003613cea5760405162461bcd60e51b8152600401610a2290615b17565b60015b6007548111613d8f57828114613d7d5760016000828152602001908152602001600020600101604051613d209190615b4e565b6040518091039020828051906020012003613d7d5760405162461bcd60e51b815260206004820152601c60248201527f43617465676f7279206e616d6520616c726561647920657869737473000000006044820152606401610a22565b80613d8781615afe565b915050613ced565b5060008281526001602081815260409092208351613db593919092019190840190614aa5565b505050565b600082815260016020525b600083815260016020526040902060020154811015613db5576000838152600160205260409020600201805483919083908110613e0457613e04615ab4565b90600052602060002090600802016000015403613fb2576000838152600160205260408120600201805483908110613e3e57613e3e615ab4565b9060005260206000209060080201600301600081548110613e6157613e61615ab4565b9060005260206000209060090201905060005b6000858152600160208190526040909120600201805485908110613e9a57613e9a615ab4565b906000526020600020906008020160030180549050613eb99190615c2d565b811015613fa2576000858152600160205260409020600201805484908110613ee357613ee3615ab4565b9060005260206000209060080201600301816001613f019190615a9c565b81548110613f1157613f11615ab4565b90600052602060002090600902016006015482600601541015613f90576000858152600160205260409020600201805484908110613f5157613f51615ab4565b9060005260206000209060080201600301816001613f6f9190615a9c565b81548110613f7f57613f7f615ab4565b906000526020600020906009020191505b80613f9a81615afe565b915050613e74565b50600701805460ff191660011790555b80613fbc81615afe565b915050613dc5565b60808101516000908152600160205260408120549003613ff65760405162461bcd60e51b8152600401610a2290615c60565b61400881608001518260a001516113ff565b15156001146140505760405162461bcd60e51b81526020600482015260146024820152734576656e7420686173206e6f742065786973747360601b6044820152606401610a22565b61406781608001518260a0015183606001516145d5565b15156001146140b85760405162461bcd60e51b815260206004820152601a60248201527f43616e64696461746520646f6573206e6f7420657869737465640000000000006044820152606401610a22565b60808101516000908152600160208190526040822060a08401516002909101916140e191615c2d565b815481106140f1576140f1615ab4565b9060005260206000209060080201600301600183600001516141139190615c2d565b8154811061412357614123615ab4565b90600052602060002090600902019050816020015181600101908051906020019061414f929190614aa5565b506060820151600382015560408201518051613db5916002840191602090910190614aa5565b60008181526001602052604081205490036141a25760405162461bcd60e51b8152600401610a2290615b17565b6000818152600160205260409020600201541561420c5760405162461bcd60e51b815260206004820152602260248201527f43616e6e6f742064656c6574652063617465676f72792077697468206576656e604482015261747360f01b6064820152608401610a22565b60015b60095481116142ad576000818152600260208190526040909120908101548314801561423e5750600381015415155b1561429a5760405162461bcd60e51b815260206004820152602660248201527f43616e6e6f742064656c6574652063617465676f727920776974682063616e6460448201526569646174657360d01b6064820152608401610a22565b50806142a581615afe565b91505061420f565b5060015b600a54811161433d5760008181526004602052604090206002015482900361432b5760405162461bcd60e51b815260206004820152602760248201527f43616e6e6f742064656c6574652063617465676f7279207769746820766f7465604482015266206576656e747360c81b6064820152608401610a22565b8061433581615afe565b9150506142b1565b5060008181526001602081905260408220828155919061435f90830182614b77565b61436d600283016000614bb4565b6003820160009055505050565b6005602052600090815260409020805460018201805491929161439c90615aca565b80601f01602080910402602001604051908101604052809291908181526020018280546143c890615aca565b80156144155780601f106143ea57610100808354040283529160200191614415565b820191906000526020600020905b8154815290600101906020018083116143f857829003601f168201915b50505050509080600201805461442a90615aca565b80601f016020809104026020016040519081016040528092919081815260200182805461445690615aca565b80156144a35780601f10614478576101008083540402835291602001916144a3565b820191906000526020600020905b81548152906001019060200180831161448657829003601f168201915b5050505050908060030154908060040180546144be90615aca565b80601f01602080910402602001604051908101604052809291908181526020018280546144ea90615aca565b80156145375780601f1061450c57610100808354040283529160200191614537565b820191906000526020600020905b81548152906001019060200180831161451a57829003601f168201915b50505050509080600501549080600601805461455290615aca565b80601f016020809104026020016040519081016040528092919081815260200182805461457e90615aca565b80156145cb5780601f106145a0576101008083540402835291602001916145cb565b820191906000526020600020905b8154815290600101906020018083116145ae57829003601f168201915b5050505050905087565b60008381526001602052604081205481036146025760405162461bcd60e51b8152600401610a2290615b17565b600061460e85856116c4565b905060005b8151811015613cb1578382828151811061462f5761462f615ab4565b6020026020010151606001510361464b57600192505050610b56565b8061465581615afe565b915050614613565b6146668261156a565b6146a95760405162461bcd60e51b81526020600482015260146024820152735573657220646f6573206e6f742065786973747360601b6044820152606401610a22565b6000816040516020016146bc9190615c44565b60408051601f198184030181529190528051602090910120905060015b600b54811161473d576000818152600560205260409081902090516147019160010190615b4e565b604051809103902084805190602001200361472b5760008181526005602052604090206003018290555b8061473581615afe565b9150506146d9565b50505050565b60015b600b5481116147d45760008181526005602052604090819020905161476e9160010190615b4e565b60405180910390208680519060200120036147c25760405162461bcd60e51b8152602060048201526014602482015273566f74657220616c72656164792065786973747360601b6044820152606401610a22565b806147cc81615afe565b915050614746565b506001600b60008282546147e89190615a9c565b9091555050604051600090614801908590602001615c44565b60408051601f198184030181529181528151602092830120600b5460008181526005855292909220918255885190935090916148449160018401918a0190614aa5565b50855161485a9060028301906020890190614aa5565b506003810182905583516148779060048301906020870190614aa5565b506000600582015582516148949060068301906020860190614aa5565b50600b547f56729c826fe77eec184059336ced13d9ef79d10126212c90a4d2b724391e14e2886040516148c791906152a0565b60405180910390a250505050505050565b6000838152600160205260408120600201905b81548110156149e1578382828154811061490757614907615ab4565b906000526020600020906008020160000154036149cf57600082828154811061493257614932615ab4565b9060005260206000209060080201600301905060005b81548110156149cc578482828154811061496457614964615ab4565b906000526020600020906009020160000154036149ba57600182828154811061498f5761498f615ab4565b906000526020600020906009020160060160008282546149af9190615a9c565b909155506149cc9050565b806149c481615afe565b915050614948565b50505b806149d981615afe565b9150506148eb565b5050505050565b6000805b6020811015614a5657828160208110614a0757614a07615ab4565b1a60f81b6001600160f81b031916848260208110614a2757614a27615ab4565b1a60f81b6001600160f81b03191614614a44576000915050610e41565b80614a4e81615afe565b9150506149ec565b5060019392505050565b60405180610100016040528060008152602001606081526020016000815260200160608152602001600081526020016000815260200160008152602001600081525090565b828054614ab190615aca565b90600052602060002090601f016020900481019282614ad35760008555614b19565b82601f10614aec57805160ff1916838001178555614b19565b82800160010185558215614b19579182015b82811115614b19578251825591602001919060010190614afe565b50614b25929150614bd5565b5090565b60405180610120016040528060008152602001606081526020016060815260200160008152602001600081526020016000815260200160008152602001600015158152602001606081525090565b508054614b8390615aca565b6000825580601f10614b93575050565b601f016020900490600052602060002090810190614bb19190614bd5565b50565b5080546000825560080290600052602060002090810190614bb19190614bea565b5b80821115614b255760008155600101614bd6565b80821115614b25576000808255614c046001830182614b77565b6002820160009055600382016000614c1c9190614c41565b5060006004820181905560058201819055600682018190556007820155600801614bea565b5080546000825560090290600052602060002090810190614bb191905b80821115614b25576000808255614c786001830182614b77565b614c86600283016000614b77565b60006003830181905560048301819055600583018190556006830181905560078301805460ff19169055614cbe906008840190614b77565b50600901614c5e565b60005b83811015614ce2578181015183820152602001614cca565b8381111561473d5750506000910152565b60008151808452614d0b816020860160208601614cc7565b601f01601f19169290920160200192915050565b6000610120825184526020830151816020860152614d3f82860182614cf3565b91505060408301518482036040860152614d598282614cf3565b915050606083015160608501526080830151608085015260a083015160a085015260c083015160c085015260e0830151614d9760e086018215159052565b506101008084015185830382870152614db08382614cf3565b9695505050505050565b6000610100825184526020808401518282870152614dda83870182614cf3565b92505060408401516040860152606084015185830360608701528281518085528385019150838160051b860101848401935060005b82811015614e3d57601f19878303018452614e2b828651614d1f565b94860194938601939150600101614e0f565b50608088015160808a015260a088015160a08a015260c088015160c08a015260e088015160e08a015280965050505050505092915050565b6000602080830181845280855180835260408601915060408160051b870101925083870160005b82811015614eca57603f19888603018452614eb8858351614dba565b94509285019290850190600101614e9c565b5092979650505050505050565b634e487b7160e01b600052604160045260246000fd5b60405161012081016001600160401b0381118282101715614f1057614f10614ed7565b60405290565b60405161010081016001600160401b0381118282101715614f1057614f10614ed7565b604051608081016001600160401b0381118282101715614f1057614f10614ed7565b604051601f8201601f191681016001600160401b0381118282101715614f8357614f83614ed7565b604052919050565b600082601f830112614f9c57600080fd5b81356001600160401b03811115614fb557614fb5614ed7565b614fc8601f8201601f1916602001614f5b565b818152846020838601011115614fdd57600080fd5b816020850160208301376000918101602001919091529392505050565b60008060006060848603121561500f57600080fd5b8335925060208401356001600160401b0381111561502c57600080fd5b61503886828701614f8b565b925050604084013590509250925092565b60006020828403121561505b57600080fd5b81356001600160401b0381111561507157600080fd5b61507d84828501614f8b565b949350505050565b6000602080830181845280855180835260408601915060408160051b870101925083870160005b82811015614eca57603f198886030184526150c8858351614d1f565b945092850192908501906001016150ac565b600080604083850312156150ed57600080fd5b82356001600160401b038082111561510457600080fd5b61511086838701614f8b565b9350602085013591508082111561512657600080fd5b5061513385828601614f8b565b9150509250929050565b60208152815160208201526000602083015160e06040840152615164610100840182614cf3565b90506040840151601f19808584030160608601526151828383614cf3565b92506060860151608086015260808601519150808584030160a08601526151a98383614cf3565b925060a086015160c086015260c08601519150808584030160e0860152506151d18282614cf3565b95945050505050565b6000602082840312156151ec57600080fd5b5035919050565b60008060006060848603121561520857600080fd5b833592506020840135915060408401356001600160401b0381111561522c57600080fd5b61523886828701614f8b565b9150509250925092565b6000806040838503121561525557600080fd5b50508035926020909101359150565b6000806040838503121561527757600080fd5b8235915060208301356001600160401b0381111561529457600080fd5b61513385828601614f8b565b602081526000610b566020830184614cf3565b8051825260006020808301516080828601526152d26080860182614cf3565b9050604084015185820360408701528181518084528484019150848160051b850101858401935060005b8281101561532a57601f19868303018452615318828651614dba565b948701949387019391506001016152fc565b50606088015160608a015280965050505050505092915050565b602081526000610b5660208301846152b3565b85815260a06020820152600061537060a0830187614cf3565b6040830195909552506060810192909252151560809091015292915050565b602081526000610b566020830184614d1f565b60008060008060008060c087890312156153bb57600080fd5b863595506020870135945060408701356001600160401b03808211156153e057600080fd5b6153ec8a838b01614f8b565b9550606089013591508082111561540257600080fd5b61540e8a838b01614f8b565b94506080890135935060a089013591508082111561542b57600080fd5b5061543889828a01614f8b565b9150509295509295509295565b6000806000806080858703121561545b57600080fd5b84356001600160401b0381111561547157600080fd5b61547d87828801614f8b565b97602087013597506040870135966060013595509350505050565b60006001600160401b038211156154b1576154b1614ed7565b5060051b60200190565b803580151581146154cb57600080fd5b919050565b600061012082840312156154e357600080fd5b6154eb614eed565b90508135815260208201356001600160401b038082111561550b57600080fd5b61551785838601614f8b565b6020840152604084013591508082111561553057600080fd5b61553c85838601614f8b565b6040840152606084013560608401526080840135608084015260a084013560a084015260c084013560c084015261557560e085016154bb565b60e08401526101009150818401358181111561559057600080fd5b61559c86828701614f8b565b8385015250505092915050565b600082601f8301126155ba57600080fd5b813560206155cf6155ca83615498565b614f5b565b82815260059290921b840181019181810190868411156155ee57600080fd5b8286015b8481101561562d5780356001600160401b038111156156115760008081fd5b61561f8986838b01016154d0565b8452509183019183016155f2565b509695505050505050565b6000610100828403121561564b57600080fd5b615653614f16565b90508135815260208201356001600160401b038082111561567357600080fd5b61567f85838601614f8b565b60208401526040840135604084015260608401359150808211156156a257600080fd5b506156af848285016155a9565b6060830152506080820135608082015260a082013560a082015260c082013560c082015260e082013560e082015292915050565b6000602082840312156156f557600080fd5b81356001600160401b0381111561570b57600080fd5b61507d84828501615638565b6000806000806080858703121561572d57600080fd5b8435935060208501356001600160401b0381111561574a57600080fd5b61575687828801614f8b565b949794965050505060408301359260600135919050565b6000602080830181845280855180835260408601915060408160051b870101925083870160005b82811015614eca57603f198886030184526157b08583516152b3565b94509285019290850190600101615794565b602081526000610b566020830184614dba565b600060208083850312156157e857600080fd5b82356001600160401b03808211156157ff57600080fd5b908401906080828703121561581357600080fd5b61581b614f39565b82358152838301358281111561583057600080fd5b61583c88828601614f8b565b858301525060408301358281111561585357600080fd5b8301601f8101881361586457600080fd5b80356158726155ca82615498565b81815260059190911b8201860190868101908a83111561589157600080fd5b8784015b838110156158c9578035878111156158ad5760008081fd5b6158bb8d8b83890101615638565b845250918801918801615895565b5060408501525050506060928301359281019290925250949350505050565b6000806000606084860312156158fd57600080fd5b505081359360208301359350604090920135919050565b60006020828403121561592657600080fd5b81356001600160401b0381111561593c57600080fd5b61507d848285016154d0565b87815260e06020820152600061596160e0830189614cf3565b82810360408401526159738189614cf3565b9050866060840152828103608084015261598d8187614cf3565b90508460a084015282810360c08401526159a78185614cf3565b9a9950505050505050505050565b600080600080600060a086880312156159cd57600080fd5b85356001600160401b03808211156159e457600080fd5b6159f089838a01614f8b565b96506020880135915080821115615a0657600080fd5b615a1289838a01614f8b565b95506040880135915080821115615a2857600080fd5b615a3489838a01614f8b565b94506060880135915080821115615a4a57600080fd5b615a5689838a01614f8b565b93506080880135915080821115615a6c57600080fd5b50615a7988828901614f8b565b9150509295509295909350565b634e487b7160e01b600052601160045260246000fd5b60008219821115615aaf57615aaf615a86565b500190565b634e487b7160e01b600052603260045260246000fd5b600181811c90821680615ade57607f821691505b60208210810361360a57634e487b7160e01b600052602260045260246000fd5b600060018201615b1057615b10615a86565b5060010190565b60208082526017908201527f43617465676f727920646f6573206e6f74206578697374000000000000000000604082015260600190565b600080835481600182811c915080831680615b6a57607f831692505b60208084108203615b8957634e487b7160e01b86526022600452602486fd5b818015615b9d5760018114615bae57615bdb565b60ff19861689528489019650615bdb565b60008a81526020902060005b86811015615bd35781548b820152908501908301615bba565b505084890196505b509498975050505050505050565b60208082526024908201527f596f757220656d61696c206f722070617373776f726420697320696e636f72726040820152636563742160e01b606082015260800190565b600082821015615c3f57615c3f615a86565b500390565b60008251615c56818460208701614cc7565b9190910192915050565b60208082526017908201527f43617465676f727920686173206e6f742065786973747300000000000000000060408201526060019056fea264697066735822122018fbbf3acfbd32f486212042f4810e89feb9d6cbd02d86f8af138febc0f0820164736f6c634300080d0033",
  "immutableReferences": {},
  "source": "// SPDX-License-Identifier: MIT\r\npragma solidity >=0.4.22 <0.9.0;\r\n\r\ncontract VotingSystem {\r\n    address public owner;\r\n    struct Voter {\r\n        uint256 id;\r\n        string key;\r\n        string email;\r\n        bytes32 password;\r\n        string role;\r\n        uint256 status; // 0: no verify, 1: verified, 2:banned\r\n        string token;\r\n    }\r\n\r\n    struct Event {\r\n        uint256 eventId;\r\n        string eventName;\r\n        uint256 categoryId;\r\n        Candidate[] candidates;\r\n        uint256 candidateCount;\r\n        uint256 startDateTime;\r\n        uint256 endDateTime;\r\n        uint256 status; // 1: Upcoming, 2: In Progress, 3: Completed, 4 Cancel\r\n    }\r\n\r\n    struct Category {\r\n        uint256 categoryId;\r\n        string categoryName;\r\n        Event[] events; //category has many event\r\n        uint256 status;\r\n    }\r\n\r\n    struct Candidate {\r\n        uint256 id;\r\n        string name;\r\n        string description;\r\n        uint256 studentId;\r\n        uint256 categoryId;\r\n        uint256 eventId;\r\n        uint256 voteCount;\r\n        bool win;\r\n        string imageFileName;\r\n    }\r\n\r\n    struct voteEventStruct {\r\n        uint256 id;\r\n        string voterKey;\r\n        uint256 categoryId;\r\n        uint256 eventId;\r\n        bool voted;\r\n    }\r\n\r\n    event CategoryAdded(uint256 indexed categoryId, string categoryName);\r\n\r\n    event VoterAdded(uint256 indexed voterId, string voter_key);\r\n    event EventAdded(uint256 indexed eventId, string eventName);\r\n\r\n    event CandidateAdded(uint256 indexed eventId, string eventName);\r\n\r\n    event VoteEvent(\r\n        string indexed _voterKey,\r\n        string indexed categoryEvent,\r\n        uint256 indexed candidate\r\n    );\r\n\r\n    mapping(uint256 => Category) categories;\r\n    mapping(uint256 => Event) events;\r\n    mapping(uint256 => Candidate) candidates;\r\n    mapping(uint256 => voteEventStruct) public voteEvents;\r\n    mapping(uint256 => Voter) public voters;\r\n    mapping(string => bool) private usedImageFileNames;\r\n\r\n    uint256 categoryCount;\r\n    uint256 candidateCount;\r\n    uint256 eventCount;\r\n    uint256 voteEventCount;\r\n    uint256 voterCount;\r\n\r\n    constructor() {\r\n        owner = msg.sender;\r\n    }\r\n\r\n    function addVoter(\r\n        string memory _key,\r\n        string memory _email,\r\n        string memory _password,\r\n        string memory _role,\r\n        string memory _token\r\n    ) public {\r\n        for (uint256 i = 1; i <= voterCount; i++) {\r\n            require(\r\n                keccak256(bytes(_key)) != keccak256(bytes(voters[i].key)),\r\n                \"Voter already exists\"\r\n            );\r\n        }\r\n\r\n        // total category plus 1, use it as the category's id\r\n        voterCount += 1;\r\n\r\n        bytes32 hashedPassword = keccak256(abi.encodePacked(_password));\r\n\r\n        // add the category details in the category list\r\n        Voter storage voter = voters[voterCount];\r\n        voter.id = voterCount;\r\n        voter.key = _key;\r\n        voter.email = _email;\r\n        voter.password = hashedPassword;\r\n        voter.role = _role;\r\n        voter.status = 0;\r\n        voter.token = _token;\r\n\r\n        // emit the category added event\r\n        emit VoterAdded(voterCount, _key);\r\n    }\r\n\r\n    function loginVoter(string memory _email, string memory _password)\r\n        public\r\n        view\r\n        returns (Voter memory)\r\n    {\r\n        Voter memory voterFound = getVoterByEmailPassword(_email, _password);\r\n        require(voterFound.id != 0, \"Your email or password is incorrect!\");\r\n        require(\r\n            voterFound.status == 1,\r\n            \"Your account was banned or not verify!\"\r\n        );\r\n        return voterFound;\r\n    }\r\n\r\n    function compareHashesPassword(bytes32 inputPassword, bytes32 password)\r\n        internal\r\n        pure\r\n        returns (bool)\r\n    {\r\n        for (uint256 i = 0; i < 32; i++) {\r\n            if (inputPassword[i] != password[i]) {\r\n                return false;\r\n            }\r\n        }\r\n        return true;\r\n    }\r\n\r\n    function getVoterByEmailPassword(\r\n        string memory _email,\r\n        string memory _password\r\n    ) public view returns (Voter memory) {\r\n        bytes32 hashedPassword = keccak256(abi.encodePacked(_password));\r\n        for (uint256 i = 1; i <= voterCount; i++) {\r\n            if (\r\n                keccak256(bytes(_email)) == keccak256(bytes(voters[i].email)) &&\r\n                compareHashesPassword(hashedPassword, voters[i].password)\r\n            ) {\r\n                return voters[i];\r\n            }\r\n        }\r\n\r\n        // Event not found in the specified category\r\n        return Voter(0, \"\", \"\", \"\", \"\", 0, \"\");\r\n    }\r\n\r\n    function getVoterEmailById(uint256 _voterId)\r\n        public\r\n        view\r\n        returns (string memory)\r\n    {\r\n        require(_voterId > 0 && _voterId <= voterCount, \"Invalid voter ID\");\r\n        return voters[_voterId].email;\r\n    }\r\n\r\n    function updateVoterPassword(string memory _key, string memory _password)\r\n        public\r\n    {\r\n        require(isVoterExist(_key), \"User does not exists\");\r\n\r\n        bytes32 hashedPassword = keccak256(abi.encodePacked(_password));\r\n        for (uint256 i = 1; i <= voterCount; i++) {\r\n            if (keccak256(bytes(_key)) == keccak256(bytes(voters[i].key))) {\r\n                voters[i].password = hashedPassword;\r\n            }\r\n        }\r\n    }\r\n\r\n    function verifyVoterAccount(string memory _token) public returns (bool) {\r\n        require(voters[1].id != 0, \"No voter in the list!\");\r\n        for (uint256 i = 1; i <= voterCount; i++) {\r\n            if (keccak256(bytes(_token)) == keccak256(bytes(voters[i].token))) {\r\n                voters[i].status = 1;\r\n                return true;\r\n            }\r\n        }\r\n        return false;\r\n    }\r\n\r\n    function getVoterStatus(string memory _email, string memory _password)\r\n        public\r\n        view\r\n        returns (uint256 status)\r\n    {\r\n        Voter memory voterFound = getVoterByEmailPassword(_email, _password);\r\n        require(voterFound.id != 0, \"Your email or password is incorrect!\");\r\n        return voterFound.status;\r\n    }\r\n\r\n    function checkVoterEmailPassword(\r\n        string memory _email,\r\n        string memory _password\r\n    ) public view returns (bool foundVoter) {\r\n        Voter memory voterFound = getVoterByEmailPassword(_email, _password);\r\n\r\n        if (voterFound.id != 0) {\r\n            return true;\r\n        }\r\n        return false;\r\n    }\r\n\r\n    function isVoterExist(string memory _key) public view returns (bool) {\r\n        for (uint256 i = 1; i <= voterCount; i++) {\r\n            if (keccak256(bytes(_key)) == keccak256(bytes(voters[i].key))) {\r\n                return true;\r\n            }\r\n        }\r\n        return false;\r\n    }\r\n\r\n    function addCategory(string memory _categoryName) public {\r\n        // check if the category is exist\r\n        for (uint256 i = 1; i <= categoryCount; i++) {\r\n            require(\r\n                keccak256(bytes(_categoryName)) !=\r\n                    keccak256(bytes(categories[i].categoryName)),\r\n                \"Category already exists\"\r\n            );\r\n        }\r\n\r\n        // total category plus 1, use it as the category's id\r\n        categoryCount += 1;\r\n\r\n        // add the category details in the category list\r\n        Category storage category = categories[categoryCount];\r\n        category.categoryName = _categoryName;\r\n        category.categoryId = categoryCount;\r\n        category.status = 1;\r\n\r\n        // emit the category added event\r\n        emit CategoryAdded(categoryCount, _categoryName);\r\n    }\r\n\r\n    function updateCategory(Category memory _category) public {\r\n        // check if the category is exist\r\n        require(\r\n            categories[_category.categoryId].categoryId != 0,\r\n            \"Category has not exists\"\r\n        );\r\n\r\n        // add the category details in the category list\r\n        Category storage category = categories[_category.categoryId];\r\n        category.categoryName = _category.categoryName;\r\n        category.status = _category.status;\r\n    }\r\n\r\n    function updateCategoryName(\r\n        uint256 _categoryId,\r\n        string memory _newCategoryName\r\n    ) public {\r\n        // Check if the category exists\r\n        require(\r\n            categories[_categoryId].categoryId != 0,\r\n            \"Category does not exist\"\r\n        );\r\n\r\n        // Check if the new category name is different from the existing name in the list\r\n        // and not the same as the current category name being updated\r\n        for (uint256 i = 1; i <= categoryCount; i++) {\r\n            if (i != _categoryId) {\r\n                require(\r\n                    keccak256(bytes(_newCategoryName)) !=\r\n                        keccak256(bytes(categories[i].categoryName)),\r\n                    \"Category name already exists\"\r\n                );\r\n            }\r\n        }\r\n\r\n        // Update the category name\r\n        categories[_categoryId].categoryName = _newCategoryName;\r\n    }\r\n\r\n    function deleteCategory(uint256 _categoryId) public {\r\n        require(\r\n            categories[_categoryId].categoryId != 0,\r\n            \"Category does not exist\"\r\n        );\r\n\r\n        // Check if there are any events associated with the category\r\n        require(\r\n            categories[_categoryId].events.length == 0,\r\n            \"Cannot delete category with events\"\r\n        );\r\n\r\n        // Check if there are any candidates associated with the category\r\n        for (uint256 i = 1; i <= eventCount; i++) {\r\n            Event storage currentEvent = events[i];\r\n            if (\r\n                currentEvent.categoryId == _categoryId &&\r\n                currentEvent.candidates.length > 0\r\n            ) {\r\n                revert(\"Cannot delete category with candidates\");\r\n            }\r\n        }\r\n\r\n        // Check if there are any vote events associated with the category\r\n        for (uint256 i = 1; i <= voteEventCount; i++) {\r\n            if (voteEvents[i].categoryId == _categoryId) {\r\n                revert(\"Cannot delete category with vote events\");\r\n            }\r\n        }\r\n\r\n        // If no associated events, candidates, or vote events, delete the category\r\n        delete categories[_categoryId];\r\n    }\r\n\r\n    function addEvent(\r\n        uint256 _categoryId,\r\n        string memory _eventName,\r\n        uint256 _startDateTime,\r\n        uint256 _endDateTime\r\n    ) public {\r\n        // check if the category has exists\r\n        require(\r\n            categories[_categoryId].categoryId != 0,\r\n            \"Category has not exists\"\r\n        );\r\n\r\n        require(\r\n            isEventExists(_categoryId, _eventName) == false,\r\n            \"Event already exists\"\r\n        );\r\n\r\n        // find out the category in list by using the paramerter category name\r\n        Category storage category = categories[_categoryId];\r\n\r\n        // add the event in the category list\r\n        uint256 eventId = eventCount += 1;\r\n\r\n        Event storage newEvent = category.events.push();\r\n        newEvent.eventId = eventId;\r\n        newEvent.eventName = _eventName;\r\n        newEvent.categoryId = _categoryId;\r\n        newEvent.status = 1;\r\n        newEvent.startDateTime = _startDateTime;\r\n        newEvent.endDateTime = _endDateTime;\r\n    }\r\n\r\n    function isEventExists(uint256 _categoryId, string memory _eventName)\r\n        public\r\n        view\r\n        returns (bool)\r\n    {\r\n        // Check if the category exists\r\n        require(\r\n            categories[_categoryId].categoryId != 0,\r\n            \"Category does not exist\"\r\n        );\r\n\r\n        // Loop through the events in the specified category\r\n        for (uint256 i = 0; i < categories[_categoryId].events.length; i++) {\r\n            if (\r\n                keccak256(bytes(categories[_categoryId].events[i].eventName)) ==\r\n                keccak256(bytes(_eventName))\r\n            ) {\r\n                // Event found\r\n                return true;\r\n            }\r\n        }\r\n\r\n        // Event not found in the specified category\r\n        return false;\r\n    }\r\n\r\n    function isEventStart(\r\n        uint256 _categoryId,\r\n        string memory _eventName,\r\n        uint256 _startDateTime\r\n    ) public view returns (bool) {\r\n        // Check if the category exists\r\n        require(\r\n            categories[_categoryId].categoryId != 0,\r\n            \"Category does not exist\"\r\n        );\r\n\r\n        require(\r\n            isEventExists(_categoryId, _eventName) == true,\r\n            \"Event does not exist\"\r\n        );\r\n\r\n        // Loop through the events in the specified category\r\n        for (uint256 i = 0; i < categories[_categoryId].events.length; i++) {\r\n            if (\r\n                (keccak256(\r\n                    bytes(categories[_categoryId].events[i].eventName)\r\n                ) ==\r\n                    keccak256(bytes(_eventName)) &&\r\n                    (_startDateTime >=\r\n                        categories[_categoryId].events[i].startDateTime))\r\n            ) {\r\n                return true;\r\n            }\r\n        }\r\n\r\n        // Event not found in the specified category\r\n        return false;\r\n    }\r\n\r\n    function updateEvent(Event memory _event) public {\r\n        // check if the category is exist\r\n        require(\r\n            categories[_event.categoryId].categoryId != 0,\r\n            \"Category does not exists\"\r\n        );\r\n        require(\r\n            isEventExists(_event.categoryId, _event.eventId),\r\n            \"Event does not exist!\"\r\n        );\r\n        // add the category details in the category list\r\n        Event storage eventToUpdate = categories[_event.categoryId].events[\r\n            _event.eventId - 1\r\n        ];\r\n\r\n        eventToUpdate.eventName = _event.eventName;\r\n        eventToUpdate.status = _event.status;\r\n    }\r\n\r\n    function addCandidateToEvent(\r\n        uint256 _categoryId,\r\n        uint256 _eventId,\r\n        string memory _candidateName,\r\n        string memory _description,\r\n        uint256 _studentId,\r\n        string memory _imageFileName\r\n    ) public {\r\n        require(\r\n            categories[_categoryId].categoryId != 0,\r\n            \"Category does not exist\"\r\n        );\r\n        require(isEventExists(_categoryId, _eventId), \"Event does not exist\");\r\n        require(\r\n            !isCandidateExistsInEvent(_categoryId, _eventId, _studentId),\r\n            \"Candidate already exists\"\r\n        );\r\n        // Check if the image file name is already used\r\n        require(\r\n            !usedImageFileNames[_imageFileName],\r\n            \"Image file name already in use\"\r\n        );\r\n\r\n        candidateCount += 1;\r\n\r\n        // Create a new candidate\r\n        Candidate memory newCandidate = Candidate({\r\n            id: candidateCount,\r\n            name: _candidateName,\r\n            studentId: _studentId,\r\n            categoryId: _categoryId,\r\n            eventId: _eventId,\r\n            description: _description,\r\n            win: false,\r\n            voteCount: 0,\r\n            imageFileName: _imageFileName\r\n        });\r\n\r\n        // find the certain category\r\n        Category storage category = categories[_categoryId];\r\n        // find the certain event in certain category\r\n        for (uint256 i = 0; i < category.events.length; i++) {\r\n            if (category.events[i].eventId == _eventId) {\r\n                category.events[i].candidates.push(newCandidate);\r\n                category.events[i].candidateCount += 1;\r\n            }\r\n        }\r\n\r\n        // Mark the image file name as used\r\n        usedImageFileNames[_imageFileName] = true;\r\n    }\r\n\r\n    function updateCandidate(Candidate memory _candidate) public {\r\n        require(\r\n            categories[_candidate.categoryId].categoryId != 0,\r\n            \"Category has not exists\"\r\n        );\r\n\r\n        require(\r\n            isEventExists(_candidate.categoryId, _candidate.eventId) == true,\r\n            \"Event has not exists\"\r\n        );\r\n\r\n        require(\r\n            isCandidateExistsInEvent(\r\n                _candidate.categoryId,\r\n                _candidate.eventId,\r\n                _candidate.studentId\r\n            ) == true,\r\n            \"Candidate does not existed\"\r\n        );\r\n\r\n        Candidate storage candidateToUpdate = categories[_candidate.categoryId]\r\n            .events[_candidate.eventId - 1]\r\n            .candidates[_candidate.id - 1];\r\n\r\n        candidateToUpdate.name = _candidate.name;\r\n        candidateToUpdate.studentId = _candidate.studentId;\r\n        candidateToUpdate.description = _candidate.description;\r\n    }\r\n\r\n    function isImageFileNameUsed(string memory _imageFileName)\r\n        public\r\n        view\r\n        returns (bool)\r\n    {\r\n        return usedImageFileNames[_imageFileName];\r\n    }\r\n\r\n    function isCandidateExistsInEvent(\r\n        uint256 _categoryId,\r\n        uint256 _eventId,\r\n        uint256 _studentId\r\n    ) public view returns (bool) {\r\n        // Check if the category exists\r\n        require(\r\n            categories[_categoryId].categoryId != 0,\r\n            \"Category does not exist\"\r\n        );\r\n\r\n        Candidate[] memory candidatesFound = getAllCandidatesInEvent(\r\n            _categoryId,\r\n            _eventId\r\n        );\r\n\r\n        // Loop through the events in the specified category\r\n\r\n        for (uint256 i = 0; i < candidatesFound.length; i++) {\r\n            if (candidatesFound[i].studentId == _studentId) {\r\n                return true;\r\n            }\r\n        }\r\n\r\n        // Event not found in the specified category\r\n        return false;\r\n    }\r\n\r\n    function isCandidateExistsInEventById(\r\n        uint256 _categoryId,\r\n        uint256 _eventId,\r\n        uint256 _candidateId\r\n    ) public view returns (bool) {\r\n        // Check if the category exists\r\n        require(\r\n            categories[_categoryId].categoryId != 0,\r\n            \"Category does not exist\"\r\n        );\r\n\r\n        Candidate[] memory candidatesFound = getAllCandidatesInEvent(\r\n            _categoryId,\r\n            _eventId\r\n        );\r\n\r\n        // Loop through the events in the specified category\r\n\r\n        for (uint256 i = 0; i < candidatesFound.length; i++) {\r\n            if (candidatesFound[i].id == _candidateId) {\r\n                return true;\r\n            }\r\n        }\r\n\r\n        // Event not found in the specified category\r\n        return false;\r\n    }\r\n\r\n    function isEventExists(uint256 _categoryId, uint256 _eventId)\r\n        public\r\n        view\r\n        returns (bool)\r\n    {\r\n        // Check if the category exists\r\n        require(\r\n            categories[_categoryId].categoryId != 0,\r\n            \"Category does not exist\"\r\n        );\r\n\r\n        // Loop through the events in the specified category\r\n        for (uint256 i = 0; i < categories[_categoryId].events.length; i++) {\r\n            if (categories[_categoryId].events[i].eventId == _eventId) {\r\n                // Event found\r\n                return true;\r\n            }\r\n        }\r\n\r\n        // Event not found in the specified category\r\n        return false;\r\n    }\r\n\r\n    function getAllCategoryEvent(uint256 _categoryId)\r\n        public\r\n        view\r\n        returns (Event[] memory foundEvent)\r\n    {\r\n        // find the certain category\r\n        Category storage category = categories[_categoryId];\r\n\r\n        // declare an array variable for storing events\r\n        Event[] memory eventsFound = new Event[](category.events.length);\r\n\r\n        // get all the event name by searching the event in list\r\n        for (uint256 i = 0; i < category.events.length; i++) {\r\n            eventsFound[i] = category.events[i];\r\n        }\r\n\r\n        return (eventsFound);\r\n    }\r\n\r\n    function getAllCandidatesInEvent(uint256 _categoryId, uint256 _eventId)\r\n        public\r\n        view\r\n        returns (Candidate[] memory foundCandidates)\r\n    {\r\n        // find the certain category\r\n        Category storage category = categories[_categoryId];\r\n        // find the certain event in certain category\r\n        for (uint256 i = 0; i < category.events.length; i++) {\r\n            if (category.events[i].eventId == _eventId) {\r\n                Candidate[] memory candidatesFound = new Candidate[](\r\n                    category.events[i].candidateCount\r\n                );\r\n\r\n                for (\r\n                    uint256 j = 0;\r\n                    j < category.events[i].candidates.length;\r\n                    j++\r\n                ) {\r\n                    candidatesFound[j] = category.events[i].candidates[j];\r\n                }\r\n                return (candidatesFound);\r\n            }\r\n        }\r\n    }\r\n\r\n    function getAllCandidates() public view returns (Candidate[] memory) {\r\n        Candidate[] memory candidatesFound = new Candidate[](candidateCount);\r\n        Event[] memory eventFound = new Event[](eventCount);\r\n\r\n        // get all the events\r\n        eventFound = getAllEvent();\r\n        uint256 count = 0;\r\n        // find the candidates inside all the event\r\n        for (uint256 i = 0; i < eventCount; i++) {\r\n            for (uint256 j = 0; j < eventFound[i].candidates.length; j++) {\r\n                candidatesFound[count] = eventFound[i].candidates[j];\r\n                count += 1;\r\n            }\r\n        }\r\n\r\n        return candidatesFound;\r\n    }\r\n\r\n    function getAllCategory() public view returns (Category[] memory) {\r\n        //Candidate[] memory candidatesFound = new Candidate[](candidateCount);\r\n        Category[] memory categoriesFound = new Category[](categoryCount);\r\n        // Iterate through all stored structs\r\n        for (uint256 i = 1; i <= categoryCount; i++) {\r\n            categoriesFound[i - 1] = categories[i];\r\n        }\r\n\r\n        return categoriesFound;\r\n    }\r\n\r\n    function getCategoryById(uint256 _categoryId)\r\n        public\r\n        view\r\n        returns (Category memory)\r\n    {\r\n        return categories[_categoryId];\r\n    }\r\n\r\n    function getAllEvent() public view returns (Event[] memory) {\r\n        // Initialize the array with the correct size\r\n        Event[] memory eventFound = new Event[](eventCount);\r\n        uint256 count = 0;\r\n\r\n        // Iterate through all categories and events\r\n        for (uint256 i = 0; i < categoryCount; i++) {\r\n            for (uint256 j = 0; j < categories[i + 1].events.length; j++) {\r\n                eventFound[count] = categories[i + 1].events[j];\r\n                count += 1;\r\n            }\r\n        }\r\n\r\n        return eventFound;\r\n    }\r\n\r\n    function getEventById(uint256 _categoryId, uint256 _eventId)\r\n        public\r\n        view\r\n        returns (Event memory)\r\n    {\r\n        Category memory categoriesFound = categories[_categoryId];\r\n        Event memory eventFound;\r\n        // Iterate through all stored structs\r\n        for (uint256 i = 0; i < categoriesFound.events.length; i++) {\r\n            if (categoriesFound.events[i].eventId == _eventId) {\r\n                eventFound = categoriesFound.events[i];\r\n            }\r\n        }\r\n\r\n        return eventFound;\r\n    }\r\n\r\n    function vote(\r\n        string memory _voterKey,\r\n        uint256 _candidateId,\r\n        uint256 _categoryId,\r\n        uint256 _eventId\r\n    ) external {\r\n        require(\r\n            categories[_categoryId].categoryId != 0,\r\n            \"Category does not exists\"\r\n        );\r\n\r\n        require(eventCount != 0, \"Event does not exists\");\r\n\r\n        // for (uint256 i = 1; i <= categories[_categoryId].events.length; i++) {\r\n        //     require(categories[_categoryId].events[i-0].eventId == _eventId, \"noobbbbb\");\r\n        // }\r\n\r\n        require(\r\n            isCandidateExistsInEventById(_categoryId, _eventId, _candidateId) ==\r\n                true,\r\n            \"Candidates does not exists\"\r\n        );\r\n\r\n        // check if has voted\r\n        for (uint256 i = 1; i <= voteEventCount; i++) {\r\n            if (\r\n                keccak256(bytes(_voterKey)) ==\r\n                keccak256(bytes(voteEvents[i].voterKey)) &&\r\n                _categoryId == voteEvents[i].categoryId &&\r\n                _eventId == voteEvents[i].eventId\r\n            ) {\r\n                require(!voteEvents[i].voted, \"You already voted\");\r\n                break;\r\n            }\r\n        }\r\n\r\n        // add count on the candidate\r\n        voteEventCount += 1;\r\n\r\n        // Create a new voteEventStruct\r\n        voteEventStruct memory newVoteEvent = voteEventStruct({\r\n            id: voteEventCount,\r\n            voterKey: _voterKey,\r\n            categoryId: _categoryId,\r\n            eventId: _eventId,\r\n            voted: true\r\n        });\r\n\r\n        voteEvents[voteEventCount] = newVoteEvent;\r\n\r\n        // add the vote count of the chosen candidate\r\n        addVoteCountIn(_categoryId, _eventId, _candidateId);\r\n\r\n        string memory concatenatedValues = string(\r\n            abi.encodePacked(_categoryId, _eventId)\r\n        );\r\n\r\n        emit VoteEvent(_voterKey, concatenatedValues, _candidateId);\r\n    }\r\n\r\n    function addVoteCountIn(\r\n        uint256 _categoryId,\r\n        uint256 _eventId,\r\n        uint256 _candidateId\r\n    ) internal {\r\n        // get the events inside the categories\r\n        Event[] storage eventsFound = categories[_categoryId].events;\r\n\r\n        // find the event with param\r\n        for (uint256 i = 0; i < eventsFound.length; i++) {\r\n            if (eventsFound[i].eventId == _eventId) {\r\n                // get the candidate inside the event\r\n                Candidate[] storage candidatesFound = eventsFound[i].candidates;\r\n                // find the candidate\r\n                for (uint256 j = 0; j < candidatesFound.length; j++) {\r\n                    if (candidatesFound[j].id == _candidateId) {\r\n                        // found the candidate and plus 1 at the voteCount\r\n                        candidatesFound[j].voteCount += 1;\r\n                        break;\r\n                    }\r\n                }\r\n            }\r\n        }\r\n    }\r\n\r\n    function isVoted(\r\n        uint256 _categoryId,\r\n        uint256 _eventId,\r\n        string memory _voterKey\r\n    ) public view returns (bool) {\r\n        // Check if the category exists\r\n        require(\r\n            categories[_categoryId].categoryId != 0,\r\n            \"Category does not exist\"\r\n        );\r\n\r\n        for (uint256 i = 1; i <= voteEventCount; i++) {\r\n            if (\r\n                voteEvents[i].categoryId == _categoryId &&\r\n                voteEvents[i].eventId == _eventId &&\r\n                keccak256(bytes(voteEvents[i].voterKey)) ==\r\n                keccak256(bytes(_voterKey))\r\n            ) {\r\n                return voteEvents[i].voted;\r\n            }\r\n        }\r\n\r\n        return false;\r\n    }\r\n\r\n    // function getVoteEventCandidate(uint256 _categoryId, uint256 _eventId)\r\n    //     public\r\n    //     view\r\n    //     returns (Candidate[] memory)\r\n    // {\r\n    //     Event[] memory eventsFound = categories[_categoryId].events;\r\n\r\n    //     for (uint256 i = 0; i < eventsFound.length; i++) {\r\n    //         if (eventsFound[i].eventId == _eventId) {\r\n    //             return eventsFound[i].candidates;\r\n    //         }\r\n    //     }\r\n\r\n    //     // If the event is not found, return an empty array or handle the situation accordingly\r\n    //     return new Candidate[](0);\r\n    // }\r\n\r\n    function markWinner(uint256 _categoryId, uint256 _eventId) public {\r\n        categories[_categoryId].events;\r\n\r\n        for (uint256 i = 0; i < categories[_categoryId].events.length; i++) {\r\n            if (categories[_categoryId].events[i].eventId == _eventId) {\r\n                Candidate storage winner = categories[_categoryId]\r\n                    .events[i]\r\n                    .candidates[0];\r\n                for (\r\n                    uint256 j = 0;\r\n                    j < categories[_categoryId].events[i].candidates.length-1;\r\n                    j++\r\n                ) {\r\n                    if (\r\n                        winner.voteCount <\r\n                        categories[_categoryId]\r\n                            .events[i]\r\n                            .candidates[j + 1]\r\n                            .voteCount\r\n                    ) {\r\n                        winner = categories[_categoryId].events[i].candidates[\r\n                            j + 1\r\n                        ];\r\n                    }\r\n                }\r\n                winner.win = true;\r\n            }\r\n        }\r\n    }\r\n\r\n    function whoIsTheWinner(uint256 _categoryId, uint256 _eventId)\r\n        public\r\n        view\r\n        returns (Candidate memory)\r\n    {\r\n        Event[] memory eventsFound = categories[_categoryId].events;\r\n        Candidate[] memory candidatesFound;\r\n\r\n        for (uint256 i = 0; i < eventsFound.length; i++) {\r\n            if (eventsFound[i].eventId == _eventId) {\r\n                candidatesFound = eventsFound[i].candidates;\r\n            }\r\n        }\r\n\r\n        Candidate memory winner = candidatesFound[0];\r\n\r\n        for (uint256 i = 0; i < candidatesFound.length - 1; i++) {\r\n            if (winner.voteCount < candidatesFound[i + 1].voteCount) {\r\n                winner = candidatesFound[i + 1];\r\n            }\r\n        }\r\n\r\n        winner.win = true;\r\n\r\n        // If the event is not found, return an empty array or handle the situation accordingly\r\n        return winner;\r\n    }\r\n}\r\n",
  "sourcePath": "C:\\xampp\\htdocs\\Online-Voting-System-Blockchain\\contracts\\VotingSystem.sol",
  "compiler": {
    "name": "solc",
    "version": "0.8.13+commit.abaa5c0e.Emscripten.clang"
  },
  "schemaVersion": "3.4.16",
  "updatedAt": "2023-12-10T03:44:16.607Z",
  "networkType": "ethereum",
  "devdoc": {
    "kind": "dev",
    "methods": {},
    "version": 1
  },
  "userdoc": {
    "kind": "user",
    "methods": {},
    "version": 1
  }
}