{
  "contractName": "VotingSystem",
  "abi": [
    {
      "inputs": [],
      "stateMutability": "nonpayable",
      "type": "constructor"
    },
    {
      "anonymous": false,
      "inputs": [
        {
          "indexed": true,
          "internalType": "uint256",
          "name": "eventId",
          "type": "uint256"
        },
        {
          "indexed": false,
          "internalType": "string",
          "name": "eventName",
          "type": "string"
        }
      ],
      "name": "CandidateAdded",
      "type": "event"
    },
    {
      "anonymous": false,
      "inputs": [
        {
          "indexed": true,
          "internalType": "uint256",
          "name": "categoryId",
          "type": "uint256"
        },
        {
          "indexed": false,
          "internalType": "string",
          "name": "categoryName",
          "type": "string"
        }
      ],
      "name": "CategoryAdded",
      "type": "event"
    },
    {
      "anonymous": false,
      "inputs": [
        {
          "indexed": true,
          "internalType": "uint256",
          "name": "eventId",
          "type": "uint256"
        },
        {
          "indexed": false,
          "internalType": "string",
          "name": "eventName",
          "type": "string"
        }
      ],
      "name": "EventAdded",
      "type": "event"
    },
    {
      "anonymous": false,
      "inputs": [
        {
          "indexed": true,
          "internalType": "string",
          "name": "_voterKey",
          "type": "string"
        },
        {
          "indexed": true,
          "internalType": "string",
          "name": "categoryEvent",
          "type": "string"
        },
        {
          "indexed": true,
          "internalType": "uint256",
          "name": "candidate",
          "type": "uint256"
        }
      ],
      "name": "VoteEvent",
      "type": "event"
    },
    {
      "anonymous": false,
      "inputs": [
        {
          "indexed": true,
          "internalType": "uint256",
          "name": "voterId",
          "type": "uint256"
        },
        {
          "indexed": false,
          "internalType": "string",
          "name": "voter_key",
          "type": "string"
        }
      ],
      "name": "VoterAdded",
      "type": "event"
    },
    {
      "inputs": [],
      "name": "owner",
      "outputs": [
        {
          "internalType": "address",
          "name": "",
          "type": "address"
        }
      ],
      "stateMutability": "view",
      "type": "function",
      "constant": true
    },
    {
      "inputs": [
        {
          "internalType": "uint256",
          "name": "",
          "type": "uint256"
        }
      ],
      "name": "voteEvents",
      "outputs": [
        {
          "internalType": "uint256",
          "name": "id",
          "type": "uint256"
        },
        {
          "internalType": "string",
          "name": "voterKey",
          "type": "string"
        },
        {
          "internalType": "uint256",
          "name": "categoryId",
          "type": "uint256"
        },
        {
          "internalType": "uint256",
          "name": "eventId",
          "type": "uint256"
        },
        {
          "internalType": "uint256",
          "name": "votedCandidateId",
          "type": "uint256"
        },
        {
          "internalType": "bool",
          "name": "voted",
          "type": "bool"
        }
      ],
      "stateMutability": "view",
      "type": "function",
      "constant": true
    },
    {
      "inputs": [
        {
          "internalType": "uint256",
          "name": "",
          "type": "uint256"
        }
      ],
      "name": "voters",
      "outputs": [
        {
          "internalType": "uint256",
          "name": "id",
          "type": "uint256"
        },
        {
          "internalType": "string",
          "name": "key",
          "type": "string"
        },
        {
          "internalType": "string",
          "name": "email",
          "type": "string"
        },
        {
          "internalType": "bytes32",
          "name": "password",
          "type": "bytes32"
        },
        {
          "internalType": "string",
          "name": "role",
          "type": "string"
        },
        {
          "internalType": "uint256",
          "name": "status",
          "type": "uint256"
        },
        {
          "internalType": "string",
          "name": "token",
          "type": "string"
        }
      ],
      "stateMutability": "view",
      "type": "function",
      "constant": true
    },
    {
      "inputs": [
        {
          "internalType": "string",
          "name": "_key",
          "type": "string"
        },
        {
          "internalType": "string",
          "name": "_email",
          "type": "string"
        },
        {
          "internalType": "string",
          "name": "_password",
          "type": "string"
        },
        {
          "internalType": "string",
          "name": "_role",
          "type": "string"
        },
        {
          "internalType": "string",
          "name": "_token",
          "type": "string"
        }
      ],
      "name": "addVoter",
      "outputs": [],
      "stateMutability": "nonpayable",
      "type": "function"
    },
    {
      "inputs": [
        {
          "internalType": "string",
          "name": "_email",
          "type": "string"
        },
        {
          "internalType": "string",
          "name": "_password",
          "type": "string"
        }
      ],
      "name": "getVoterByEmailPassword",
      "outputs": [
        {
          "components": [
            {
              "internalType": "uint256",
              "name": "id",
              "type": "uint256"
            },
            {
              "internalType": "string",
              "name": "key",
              "type": "string"
            },
            {
              "internalType": "string",
              "name": "email",
              "type": "string"
            },
            {
              "internalType": "bytes32",
              "name": "password",
              "type": "bytes32"
            },
            {
              "internalType": "string",
              "name": "role",
              "type": "string"
            },
            {
              "internalType": "uint256",
              "name": "status",
              "type": "uint256"
            },
            {
              "internalType": "string",
              "name": "token",
              "type": "string"
            }
          ],
          "internalType": "struct VotingSystem.Voter",
          "name": "",
          "type": "tuple"
        }
      ],
      "stateMutability": "view",
      "type": "function",
      "constant": true
    },
    {
      "inputs": [
        {
          "internalType": "uint256",
          "name": "_voterId",
          "type": "uint256"
        }
      ],
      "name": "getVoterEmailById",
      "outputs": [
        {
          "internalType": "string",
          "name": "",
          "type": "string"
        }
      ],
      "stateMutability": "view",
      "type": "function",
      "constant": true
    },
    {
      "inputs": [
        {
          "internalType": "string",
          "name": "_key",
          "type": "string"
        },
        {
          "internalType": "string",
          "name": "_password",
          "type": "string"
        }
      ],
      "name": "updateVoterPassword",
      "outputs": [],
      "stateMutability": "nonpayable",
      "type": "function"
    },
    {
      "inputs": [
        {
          "internalType": "string",
          "name": "_token",
          "type": "string"
        }
      ],
      "name": "verifyVoterAccount",
      "outputs": [
        {
          "internalType": "bool",
          "name": "",
          "type": "bool"
        }
      ],
      "stateMutability": "nonpayable",
      "type": "function"
    },
    {
      "inputs": [
        {
          "internalType": "string",
          "name": "_key",
          "type": "string"
        }
      ],
      "name": "isVoterExist",
      "outputs": [
        {
          "internalType": "bool",
          "name": "",
          "type": "bool"
        }
      ],
      "stateMutability": "view",
      "type": "function",
      "constant": true
    },
    {
      "inputs": [],
      "name": "getAllVoter",
      "outputs": [
        {
          "components": [
            {
              "internalType": "uint256",
              "name": "id",
              "type": "uint256"
            },
            {
              "internalType": "string",
              "name": "key",
              "type": "string"
            },
            {
              "internalType": "string",
              "name": "email",
              "type": "string"
            },
            {
              "internalType": "bytes32",
              "name": "password",
              "type": "bytes32"
            },
            {
              "internalType": "string",
              "name": "role",
              "type": "string"
            },
            {
              "internalType": "uint256",
              "name": "status",
              "type": "uint256"
            },
            {
              "internalType": "string",
              "name": "token",
              "type": "string"
            }
          ],
          "internalType": "struct VotingSystem.Voter[]",
          "name": "",
          "type": "tuple[]"
        }
      ],
      "stateMutability": "view",
      "type": "function",
      "constant": true
    },
    {
      "inputs": [
        {
          "internalType": "uint256",
          "name": "_id",
          "type": "uint256"
        },
        {
          "internalType": "uint256",
          "name": "_status",
          "type": "uint256"
        }
      ],
      "name": "editUserStatus",
      "outputs": [],
      "stateMutability": "nonpayable",
      "type": "function"
    },
    {
      "inputs": [
        {
          "internalType": "string",
          "name": "_email",
          "type": "string"
        },
        {
          "internalType": "string",
          "name": "_newToken",
          "type": "string"
        }
      ],
      "name": "updateVoterTokenByEmail",
      "outputs": [],
      "stateMutability": "nonpayable",
      "type": "function"
    },
    {
      "inputs": [
        {
          "internalType": "string",
          "name": "_categoryName",
          "type": "string"
        }
      ],
      "name": "addCategory",
      "outputs": [],
      "stateMutability": "nonpayable",
      "type": "function"
    },
    {
      "inputs": [
        {
          "internalType": "uint256",
          "name": "_categoryId",
          "type": "uint256"
        },
        {
          "internalType": "string",
          "name": "_categoryName",
          "type": "string"
        }
      ],
      "name": "updateCategory",
      "outputs": [],
      "stateMutability": "nonpayable",
      "type": "function"
    },
    {
      "inputs": [
        {
          "internalType": "uint256",
          "name": "_categoryId",
          "type": "uint256"
        }
      ],
      "name": "deleteCategory",
      "outputs": [],
      "stateMutability": "nonpayable",
      "type": "function"
    },
    {
      "inputs": [],
      "name": "getAllCategory",
      "outputs": [
        {
          "components": [
            {
              "internalType": "uint256",
              "name": "categoryId",
              "type": "uint256"
            },
            {
              "internalType": "string",
              "name": "categoryName",
              "type": "string"
            },
            {
              "components": [
                {
                  "internalType": "uint256",
                  "name": "eventId",
                  "type": "uint256"
                },
                {
                  "internalType": "string",
                  "name": "eventName",
                  "type": "string"
                },
                {
                  "internalType": "uint256",
                  "name": "categoryId",
                  "type": "uint256"
                },
                {
                  "components": [
                    {
                      "internalType": "uint256",
                      "name": "id",
                      "type": "uint256"
                    },
                    {
                      "internalType": "string",
                      "name": "name",
                      "type": "string"
                    },
                    {
                      "internalType": "string",
                      "name": "description",
                      "type": "string"
                    },
                    {
                      "internalType": "uint256",
                      "name": "studentId",
                      "type": "uint256"
                    },
                    {
                      "internalType": "uint256",
                      "name": "categoryId",
                      "type": "uint256"
                    },
                    {
                      "internalType": "uint256",
                      "name": "eventId",
                      "type": "uint256"
                    },
                    {
                      "internalType": "uint256",
                      "name": "voteCount",
                      "type": "uint256"
                    },
                    {
                      "internalType": "bool",
                      "name": "win",
                      "type": "bool"
                    },
                    {
                      "internalType": "string",
                      "name": "imageFileName",
                      "type": "string"
                    }
                  ],
                  "internalType": "struct VotingSystem.Candidate[]",
                  "name": "candidates",
                  "type": "tuple[]"
                },
                {
                  "internalType": "uint256",
                  "name": "candidateCount",
                  "type": "uint256"
                },
                {
                  "internalType": "uint256",
                  "name": "startDateTime",
                  "type": "uint256"
                },
                {
                  "internalType": "uint256",
                  "name": "endDateTime",
                  "type": "uint256"
                },
                {
                  "internalType": "uint256",
                  "name": "status",
                  "type": "uint256"
                },
                {
                  "internalType": "string",
                  "name": "eventDesc",
                  "type": "string"
                }
              ],
              "internalType": "struct VotingSystem.Event[]",
              "name": "events",
              "type": "tuple[]"
            },
            {
              "internalType": "uint256",
              "name": "status",
              "type": "uint256"
            }
          ],
          "internalType": "struct VotingSystem.Category[]",
          "name": "",
          "type": "tuple[]"
        }
      ],
      "stateMutability": "view",
      "type": "function",
      "constant": true
    },
    {
      "inputs": [
        {
          "internalType": "uint256",
          "name": "_categoryId",
          "type": "uint256"
        }
      ],
      "name": "getCategoryById",
      "outputs": [
        {
          "components": [
            {
              "internalType": "uint256",
              "name": "categoryId",
              "type": "uint256"
            },
            {
              "internalType": "string",
              "name": "categoryName",
              "type": "string"
            },
            {
              "components": [
                {
                  "internalType": "uint256",
                  "name": "eventId",
                  "type": "uint256"
                },
                {
                  "internalType": "string",
                  "name": "eventName",
                  "type": "string"
                },
                {
                  "internalType": "uint256",
                  "name": "categoryId",
                  "type": "uint256"
                },
                {
                  "components": [
                    {
                      "internalType": "uint256",
                      "name": "id",
                      "type": "uint256"
                    },
                    {
                      "internalType": "string",
                      "name": "name",
                      "type": "string"
                    },
                    {
                      "internalType": "string",
                      "name": "description",
                      "type": "string"
                    },
                    {
                      "internalType": "uint256",
                      "name": "studentId",
                      "type": "uint256"
                    },
                    {
                      "internalType": "uint256",
                      "name": "categoryId",
                      "type": "uint256"
                    },
                    {
                      "internalType": "uint256",
                      "name": "eventId",
                      "type": "uint256"
                    },
                    {
                      "internalType": "uint256",
                      "name": "voteCount",
                      "type": "uint256"
                    },
                    {
                      "internalType": "bool",
                      "name": "win",
                      "type": "bool"
                    },
                    {
                      "internalType": "string",
                      "name": "imageFileName",
                      "type": "string"
                    }
                  ],
                  "internalType": "struct VotingSystem.Candidate[]",
                  "name": "candidates",
                  "type": "tuple[]"
                },
                {
                  "internalType": "uint256",
                  "name": "candidateCount",
                  "type": "uint256"
                },
                {
                  "internalType": "uint256",
                  "name": "startDateTime",
                  "type": "uint256"
                },
                {
                  "internalType": "uint256",
                  "name": "endDateTime",
                  "type": "uint256"
                },
                {
                  "internalType": "uint256",
                  "name": "status",
                  "type": "uint256"
                },
                {
                  "internalType": "string",
                  "name": "eventDesc",
                  "type": "string"
                }
              ],
              "internalType": "struct VotingSystem.Event[]",
              "name": "events",
              "type": "tuple[]"
            },
            {
              "internalType": "uint256",
              "name": "status",
              "type": "uint256"
            }
          ],
          "internalType": "struct VotingSystem.Category",
          "name": "",
          "type": "tuple"
        }
      ],
      "stateMutability": "view",
      "type": "function",
      "constant": true
    },
    {
      "inputs": [],
      "name": "getAllEvent",
      "outputs": [
        {
          "components": [
            {
              "internalType": "uint256",
              "name": "eventId",
              "type": "uint256"
            },
            {
              "internalType": "string",
              "name": "eventName",
              "type": "string"
            },
            {
              "internalType": "uint256",
              "name": "categoryId",
              "type": "uint256"
            },
            {
              "components": [
                {
                  "internalType": "uint256",
                  "name": "id",
                  "type": "uint256"
                },
                {
                  "internalType": "string",
                  "name": "name",
                  "type": "string"
                },
                {
                  "internalType": "string",
                  "name": "description",
                  "type": "string"
                },
                {
                  "internalType": "uint256",
                  "name": "studentId",
                  "type": "uint256"
                },
                {
                  "internalType": "uint256",
                  "name": "categoryId",
                  "type": "uint256"
                },
                {
                  "internalType": "uint256",
                  "name": "eventId",
                  "type": "uint256"
                },
                {
                  "internalType": "uint256",
                  "name": "voteCount",
                  "type": "uint256"
                },
                {
                  "internalType": "bool",
                  "name": "win",
                  "type": "bool"
                },
                {
                  "internalType": "string",
                  "name": "imageFileName",
                  "type": "string"
                }
              ],
              "internalType": "struct VotingSystem.Candidate[]",
              "name": "candidates",
              "type": "tuple[]"
            },
            {
              "internalType": "uint256",
              "name": "candidateCount",
              "type": "uint256"
            },
            {
              "internalType": "uint256",
              "name": "startDateTime",
              "type": "uint256"
            },
            {
              "internalType": "uint256",
              "name": "endDateTime",
              "type": "uint256"
            },
            {
              "internalType": "uint256",
              "name": "status",
              "type": "uint256"
            },
            {
              "internalType": "string",
              "name": "eventDesc",
              "type": "string"
            }
          ],
          "internalType": "struct VotingSystem.Event[]",
          "name": "",
          "type": "tuple[]"
        }
      ],
      "stateMutability": "view",
      "type": "function",
      "constant": true
    },
    {
      "inputs": [
        {
          "internalType": "uint256",
          "name": "_categoryId",
          "type": "uint256"
        },
        {
          "internalType": "string",
          "name": "_eventName",
          "type": "string"
        },
        {
          "internalType": "string",
          "name": "_eventDesc",
          "type": "string"
        },
        {
          "internalType": "uint256",
          "name": "_startDateTime",
          "type": "uint256"
        },
        {
          "internalType": "uint256",
          "name": "_endDateTime",
          "type": "uint256"
        }
      ],
      "name": "addEvent",
      "outputs": [],
      "stateMutability": "nonpayable",
      "type": "function"
    },
    {
      "inputs": [
        {
          "internalType": "uint256",
          "name": "_categoryId",
          "type": "uint256"
        },
        {
          "internalType": "uint256",
          "name": "_eventId",
          "type": "uint256"
        },
        {
          "internalType": "string",
          "name": "_eventName",
          "type": "string"
        },
        {
          "internalType": "string",
          "name": "_eventDesc",
          "type": "string"
        },
        {
          "internalType": "uint256",
          "name": "_startDateTime",
          "type": "uint256"
        },
        {
          "internalType": "uint256",
          "name": "_endDateTime",
          "type": "uint256"
        }
      ],
      "name": "updateEventDetails",
      "outputs": [],
      "stateMutability": "nonpayable",
      "type": "function"
    },
    {
      "inputs": [
        {
          "internalType": "uint256",
          "name": "_categoryId",
          "type": "uint256"
        },
        {
          "internalType": "uint256",
          "name": "_eventId",
          "type": "uint256"
        }
      ],
      "name": "deleteEvent",
      "outputs": [],
      "stateMutability": "nonpayable",
      "type": "function"
    },
    {
      "inputs": [
        {
          "components": [
            {
              "internalType": "uint256",
              "name": "eventId",
              "type": "uint256"
            },
            {
              "internalType": "string",
              "name": "eventName",
              "type": "string"
            },
            {
              "internalType": "uint256",
              "name": "categoryId",
              "type": "uint256"
            },
            {
              "components": [
                {
                  "internalType": "uint256",
                  "name": "id",
                  "type": "uint256"
                },
                {
                  "internalType": "string",
                  "name": "name",
                  "type": "string"
                },
                {
                  "internalType": "string",
                  "name": "description",
                  "type": "string"
                },
                {
                  "internalType": "uint256",
                  "name": "studentId",
                  "type": "uint256"
                },
                {
                  "internalType": "uint256",
                  "name": "categoryId",
                  "type": "uint256"
                },
                {
                  "internalType": "uint256",
                  "name": "eventId",
                  "type": "uint256"
                },
                {
                  "internalType": "uint256",
                  "name": "voteCount",
                  "type": "uint256"
                },
                {
                  "internalType": "bool",
                  "name": "win",
                  "type": "bool"
                },
                {
                  "internalType": "string",
                  "name": "imageFileName",
                  "type": "string"
                }
              ],
              "internalType": "struct VotingSystem.Candidate[]",
              "name": "candidates",
              "type": "tuple[]"
            },
            {
              "internalType": "uint256",
              "name": "candidateCount",
              "type": "uint256"
            },
            {
              "internalType": "uint256",
              "name": "startDateTime",
              "type": "uint256"
            },
            {
              "internalType": "uint256",
              "name": "endDateTime",
              "type": "uint256"
            },
            {
              "internalType": "uint256",
              "name": "status",
              "type": "uint256"
            },
            {
              "internalType": "string",
              "name": "eventDesc",
              "type": "string"
            }
          ],
          "internalType": "struct VotingSystem.Event",
          "name": "_event",
          "type": "tuple"
        }
      ],
      "name": "updateEvent",
      "outputs": [],
      "stateMutability": "nonpayable",
      "type": "function"
    },
    {
      "inputs": [
        {
          "internalType": "uint256",
          "name": "_categoryId",
          "type": "uint256"
        }
      ],
      "name": "getAllCategoryEvent",
      "outputs": [
        {
          "components": [
            {
              "internalType": "uint256",
              "name": "eventId",
              "type": "uint256"
            },
            {
              "internalType": "string",
              "name": "eventName",
              "type": "string"
            },
            {
              "internalType": "uint256",
              "name": "categoryId",
              "type": "uint256"
            },
            {
              "components": [
                {
                  "internalType": "uint256",
                  "name": "id",
                  "type": "uint256"
                },
                {
                  "internalType": "string",
                  "name": "name",
                  "type": "string"
                },
                {
                  "internalType": "string",
                  "name": "description",
                  "type": "string"
                },
                {
                  "internalType": "uint256",
                  "name": "studentId",
                  "type": "uint256"
                },
                {
                  "internalType": "uint256",
                  "name": "categoryId",
                  "type": "uint256"
                },
                {
                  "internalType": "uint256",
                  "name": "eventId",
                  "type": "uint256"
                },
                {
                  "internalType": "uint256",
                  "name": "voteCount",
                  "type": "uint256"
                },
                {
                  "internalType": "bool",
                  "name": "win",
                  "type": "bool"
                },
                {
                  "internalType": "string",
                  "name": "imageFileName",
                  "type": "string"
                }
              ],
              "internalType": "struct VotingSystem.Candidate[]",
              "name": "candidates",
              "type": "tuple[]"
            },
            {
              "internalType": "uint256",
              "name": "candidateCount",
              "type": "uint256"
            },
            {
              "internalType": "uint256",
              "name": "startDateTime",
              "type": "uint256"
            },
            {
              "internalType": "uint256",
              "name": "endDateTime",
              "type": "uint256"
            },
            {
              "internalType": "uint256",
              "name": "status",
              "type": "uint256"
            },
            {
              "internalType": "string",
              "name": "eventDesc",
              "type": "string"
            }
          ],
          "internalType": "struct VotingSystem.Event[]",
          "name": "foundEvent",
          "type": "tuple[]"
        }
      ],
      "stateMutability": "view",
      "type": "function",
      "constant": true
    },
    {
      "inputs": [
        {
          "internalType": "uint256",
          "name": "_categoryId",
          "type": "uint256"
        },
        {
          "internalType": "uint256",
          "name": "_eventId",
          "type": "uint256"
        }
      ],
      "name": "getEventById",
      "outputs": [
        {
          "components": [
            {
              "internalType": "uint256",
              "name": "eventId",
              "type": "uint256"
            },
            {
              "internalType": "string",
              "name": "eventName",
              "type": "string"
            },
            {
              "internalType": "uint256",
              "name": "categoryId",
              "type": "uint256"
            },
            {
              "components": [
                {
                  "internalType": "uint256",
                  "name": "id",
                  "type": "uint256"
                },
                {
                  "internalType": "string",
                  "name": "name",
                  "type": "string"
                },
                {
                  "internalType": "string",
                  "name": "description",
                  "type": "string"
                },
                {
                  "internalType": "uint256",
                  "name": "studentId",
                  "type": "uint256"
                },
                {
                  "internalType": "uint256",
                  "name": "categoryId",
                  "type": "uint256"
                },
                {
                  "internalType": "uint256",
                  "name": "eventId",
                  "type": "uint256"
                },
                {
                  "internalType": "uint256",
                  "name": "voteCount",
                  "type": "uint256"
                },
                {
                  "internalType": "bool",
                  "name": "win",
                  "type": "bool"
                },
                {
                  "internalType": "string",
                  "name": "imageFileName",
                  "type": "string"
                }
              ],
              "internalType": "struct VotingSystem.Candidate[]",
              "name": "candidates",
              "type": "tuple[]"
            },
            {
              "internalType": "uint256",
              "name": "candidateCount",
              "type": "uint256"
            },
            {
              "internalType": "uint256",
              "name": "startDateTime",
              "type": "uint256"
            },
            {
              "internalType": "uint256",
              "name": "endDateTime",
              "type": "uint256"
            },
            {
              "internalType": "uint256",
              "name": "status",
              "type": "uint256"
            },
            {
              "internalType": "string",
              "name": "eventDesc",
              "type": "string"
            }
          ],
          "internalType": "struct VotingSystem.Event",
          "name": "",
          "type": "tuple"
        }
      ],
      "stateMutability": "view",
      "type": "function",
      "constant": true
    },
    {
      "inputs": [
        {
          "internalType": "uint256",
          "name": "_categoryId",
          "type": "uint256"
        },
        {
          "internalType": "uint256",
          "name": "_eventId",
          "type": "uint256"
        }
      ],
      "name": "isEventExists",
      "outputs": [
        {
          "internalType": "bool",
          "name": "",
          "type": "bool"
        }
      ],
      "stateMutability": "view",
      "type": "function",
      "constant": true
    },
    {
      "inputs": [
        {
          "internalType": "uint256",
          "name": "_categoryId",
          "type": "uint256"
        },
        {
          "internalType": "uint256",
          "name": "_eventId",
          "type": "uint256"
        },
        {
          "internalType": "string",
          "name": "_candidateName",
          "type": "string"
        },
        {
          "internalType": "string",
          "name": "_description",
          "type": "string"
        },
        {
          "internalType": "uint256",
          "name": "_studentId",
          "type": "uint256"
        },
        {
          "internalType": "string",
          "name": "_imageFileName",
          "type": "string"
        }
      ],
      "name": "addCandidateToEvent",
      "outputs": [],
      "stateMutability": "nonpayable",
      "type": "function"
    },
    {
      "inputs": [
        {
          "internalType": "uint256",
          "name": "_id",
          "type": "uint256"
        },
        {
          "internalType": "string",
          "name": "_name",
          "type": "string"
        },
        {
          "internalType": "string",
          "name": "_description",
          "type": "string"
        },
        {
          "internalType": "uint256",
          "name": "_studentId",
          "type": "uint256"
        },
        {
          "internalType": "uint256",
          "name": "_categoryId",
          "type": "uint256"
        },
        {
          "internalType": "uint256",
          "name": "_eventId",
          "type": "uint256"
        },
        {
          "internalType": "string",
          "name": "_imageFileName",
          "type": "string"
        }
      ],
      "name": "updateCandidateDetails",
      "outputs": [],
      "stateMutability": "nonpayable",
      "type": "function"
    },
    {
      "inputs": [
        {
          "internalType": "uint256",
          "name": "_categoryId",
          "type": "uint256"
        },
        {
          "internalType": "uint256",
          "name": "_eventId",
          "type": "uint256"
        },
        {
          "internalType": "uint256",
          "name": "_candidateId",
          "type": "uint256"
        }
      ],
      "name": "deleteCandidate",
      "outputs": [],
      "stateMutability": "nonpayable",
      "type": "function"
    },
    {
      "inputs": [
        {
          "internalType": "uint256",
          "name": "_categoryId",
          "type": "uint256"
        },
        {
          "internalType": "uint256",
          "name": "_eventId",
          "type": "uint256"
        },
        {
          "internalType": "uint256",
          "name": "_candidateId",
          "type": "uint256"
        }
      ],
      "name": "getCandidateById",
      "outputs": [
        {
          "components": [
            {
              "internalType": "uint256",
              "name": "id",
              "type": "uint256"
            },
            {
              "internalType": "string",
              "name": "name",
              "type": "string"
            },
            {
              "internalType": "string",
              "name": "description",
              "type": "string"
            },
            {
              "internalType": "uint256",
              "name": "studentId",
              "type": "uint256"
            },
            {
              "internalType": "uint256",
              "name": "categoryId",
              "type": "uint256"
            },
            {
              "internalType": "uint256",
              "name": "eventId",
              "type": "uint256"
            },
            {
              "internalType": "uint256",
              "name": "voteCount",
              "type": "uint256"
            },
            {
              "internalType": "bool",
              "name": "win",
              "type": "bool"
            },
            {
              "internalType": "string",
              "name": "imageFileName",
              "type": "string"
            }
          ],
          "internalType": "struct VotingSystem.Candidate",
          "name": "",
          "type": "tuple"
        }
      ],
      "stateMutability": "view",
      "type": "function",
      "constant": true
    },
    {
      "inputs": [
        {
          "internalType": "string",
          "name": "_imageFileName",
          "type": "string"
        }
      ],
      "name": "isImageFileNameUsed",
      "outputs": [
        {
          "internalType": "bool",
          "name": "",
          "type": "bool"
        }
      ],
      "stateMutability": "view",
      "type": "function",
      "constant": true
    },
    {
      "inputs": [
        {
          "internalType": "uint256",
          "name": "_categoryId",
          "type": "uint256"
        },
        {
          "internalType": "uint256",
          "name": "_eventId",
          "type": "uint256"
        },
        {
          "internalType": "uint256",
          "name": "_studentId",
          "type": "uint256"
        }
      ],
      "name": "isCandidateExistsInEvent",
      "outputs": [
        {
          "internalType": "bool",
          "name": "",
          "type": "bool"
        }
      ],
      "stateMutability": "view",
      "type": "function",
      "constant": true
    },
    {
      "inputs": [
        {
          "internalType": "uint256",
          "name": "_categoryId",
          "type": "uint256"
        },
        {
          "internalType": "uint256",
          "name": "_eventId",
          "type": "uint256"
        }
      ],
      "name": "getAllCandidatesInEvent",
      "outputs": [
        {
          "components": [
            {
              "internalType": "uint256",
              "name": "id",
              "type": "uint256"
            },
            {
              "internalType": "string",
              "name": "name",
              "type": "string"
            },
            {
              "internalType": "string",
              "name": "description",
              "type": "string"
            },
            {
              "internalType": "uint256",
              "name": "studentId",
              "type": "uint256"
            },
            {
              "internalType": "uint256",
              "name": "categoryId",
              "type": "uint256"
            },
            {
              "internalType": "uint256",
              "name": "eventId",
              "type": "uint256"
            },
            {
              "internalType": "uint256",
              "name": "voteCount",
              "type": "uint256"
            },
            {
              "internalType": "bool",
              "name": "win",
              "type": "bool"
            },
            {
              "internalType": "string",
              "name": "imageFileName",
              "type": "string"
            }
          ],
          "internalType": "struct VotingSystem.Candidate[]",
          "name": "foundCandidates",
          "type": "tuple[]"
        }
      ],
      "stateMutability": "view",
      "type": "function",
      "constant": true
    },
    {
      "inputs": [],
      "name": "getAllCandidates",
      "outputs": [
        {
          "components": [
            {
              "internalType": "uint256",
              "name": "id",
              "type": "uint256"
            },
            {
              "internalType": "string",
              "name": "name",
              "type": "string"
            },
            {
              "internalType": "string",
              "name": "description",
              "type": "string"
            },
            {
              "internalType": "uint256",
              "name": "studentId",
              "type": "uint256"
            },
            {
              "internalType": "uint256",
              "name": "categoryId",
              "type": "uint256"
            },
            {
              "internalType": "uint256",
              "name": "eventId",
              "type": "uint256"
            },
            {
              "internalType": "uint256",
              "name": "voteCount",
              "type": "uint256"
            },
            {
              "internalType": "bool",
              "name": "win",
              "type": "bool"
            },
            {
              "internalType": "string",
              "name": "imageFileName",
              "type": "string"
            }
          ],
          "internalType": "struct VotingSystem.Candidate[]",
          "name": "",
          "type": "tuple[]"
        }
      ],
      "stateMutability": "view",
      "type": "function",
      "constant": true
    },
    {
      "inputs": [
        {
          "internalType": "string",
          "name": "_voterKey",
          "type": "string"
        },
        {
          "internalType": "uint256",
          "name": "_candidateId",
          "type": "uint256"
        },
        {
          "internalType": "uint256",
          "name": "_categoryId",
          "type": "uint256"
        },
        {
          "internalType": "uint256",
          "name": "_eventId",
          "type": "uint256"
        }
      ],
      "name": "vote",
      "outputs": [],
      "stateMutability": "nonpayable",
      "type": "function"
    },
    {
      "inputs": [],
      "name": "getAllVotedHistory",
      "outputs": [
        {
          "components": [
            {
              "internalType": "uint256",
              "name": "id",
              "type": "uint256"
            },
            {
              "internalType": "string",
              "name": "voterKey",
              "type": "string"
            },
            {
              "internalType": "uint256",
              "name": "categoryId",
              "type": "uint256"
            },
            {
              "internalType": "uint256",
              "name": "eventId",
              "type": "uint256"
            },
            {
              "internalType": "uint256",
              "name": "votedCandidateId",
              "type": "uint256"
            },
            {
              "internalType": "bool",
              "name": "voted",
              "type": "bool"
            }
          ],
          "internalType": "struct VotingSystem.voteEventStruct[]",
          "name": "",
          "type": "tuple[]"
        }
      ],
      "stateMutability": "view",
      "type": "function",
      "constant": true
    },
    {
      "inputs": [
        {
          "internalType": "uint256",
          "name": "_categoryId",
          "type": "uint256"
        },
        {
          "internalType": "uint256",
          "name": "_eventId",
          "type": "uint256"
        }
      ],
      "name": "markWinner",
      "outputs": [],
      "stateMutability": "nonpayable",
      "type": "function"
    }
  ],
  "bytecode": "0x60806040523480156200001157600080fd5b50600080546001600160a01b03191633178155604080516020808201835283825282518084018452601481527f737570657261646d696e40676d61696c2e636f6d0000000000000000000000008183015283518085018552600e81526d537570657241646d696e2131323360901b818401528451808601865260018152605360f81b818501528551938401909552948252620000b29492939092916200015f565b620001596040518060400160405280600b81526020016a30b1bb3d3c31b3b0b9b23360a91b8152506040518060400160405280600f81526020016e766f74657240676d61696c2e636f6d60881b81525060405180604001604052806008815260200167105898d7cc4c8ccd60c21b815250604051806040016040528060018152602001605560f81b815250604051806020016040528060008152506200015f60201b60201c565b62000467565b6001600b600082825462000174919062000255565b90915550506040516000906200018f908590602001620002a3565b60408051601f198184030181529181528151602092830120600b54600081815260059094529190922090815590915060018101620001ce888262000366565b5060028101620001df878262000366565b506003810182905560048101620001f7858262000366565b5060006005820155600681016200020f848262000366565b50600b547f56729c826fe77eec184059336ced13d9ef79d10126212c90a4d2b724391e14e28860405162000244919062000432565b60405180910390a250505050505050565b808201808211156200027757634e487b7160e01b600052601160045260246000fd5b92915050565b60005b838110156200029a57818101518382015260200162000280565b50506000910152565b60008251620002b78184602087016200027d565b9190910192915050565b634e487b7160e01b600052604160045260246000fd5b600181811c90821680620002ec57607f821691505b6020821081036200030d57634e487b7160e01b600052602260045260246000fd5b50919050565b601f8211156200036157600081815260208120601f850160051c810160208610156200033c5750805b601f850160051c820191505b818110156200035d5782815560010162000348565b5050505b505050565b81516001600160401b03811115620003825762000382620002c1565b6200039a81620003938454620002d7565b8462000313565b602080601f831160018114620003d25760008415620003b95750858301515b600019600386901b1c1916600185901b1785556200035d565b600085815260208120601f198616915b828110156200040357888601518255948401946001909101908401620003e2565b5085821015620004225787850151600019600388901b60f8161c191681555b5050505050600190811b01905550565b6020815260008251806020840152620004538160408501602087016200027d565b601f01601f19169190910160400192915050565b615f5880620004776000396000f3fe608060405234801561001057600080fd5b506004361061021c5760003560e01c80638801b5b611610125578063ceca737f116100ad578063dfdffaf41161007c578063dfdffaf414610521578063f29565ed14610534578063f44f4e1414610547578063f731d0e91461055c578063fdf9c14a1461056f57600080fd5b8063ceca737f146104c2578063d0337914146104d5578063d8478604146104e8578063da58c7d9146104fb57600080fd5b8063909f8502116100f4578063909f8502146104445780639974dc2014610464578063a1a0256414610489578063c0d75cdd1461049c578063cb9b1ba1146104af57600080fd5b80638801b5b6146103d157806388ad4376146103f15780638da5cb5b146104045780638f2c28051461042f57600080fd5b80635a8ffc79116101a8578063642d20ad11610177578063642d20ad1461035e5780637630498414610383578063776a657b1461039657806378697e5b146103a95780638669537d146103bc57600080fd5b80635a8ffc79146102eb5780635b4d727c1461030b57806360e93f3c1461031e57806361e8486e1461033e57600080fd5b8063401a52dd116101ef578063401a52dd1461027c578063448a144f1461028f5780634fb43250146102a2578063514fc62a146102c5578063531f142b146102d857600080fd5b80631002cdd4146102215780632e0dcbf71461023f5780632e6997fe146102545780634009074f14610269575b600080fd5b610229610582565b6040516102369190614fa2565b60405180910390f35b61025261024d3660046150e2565b610a72565b005b61025c610af6565b604051610236919061511e565b610252610277366004615173565b610c78565b61022961028a366004615221565b610e8e565b61025261029d36600461523a565b611329565b6102b56102b036600461529d565b6113a1565b6040519015158152602001610236565b6102b56102d33660046150e2565b61147e565b6102526102e6366004615441565b6114e4565b6102fe6102f9366004615221565b6115b5565b6040516102369190615536565b61025c61031936600461529d565b6116a9565b61033161032c366004615221565b611a45565b60405161023691906155da565b61035161034c3660046155ed565b611f4f565b6040516102369190615619565b61037161036c366004615221565b612273565b6040516102369695949392919061562c565b61025261039136600461566c565b612334565b6102526103a436600461570f565b612587565b6102526103b7366004615762565b61284c565b6103c4612868565b604051610236919061579e565b6103e46103df36600461523a565b612a29565b60405161023691906158c8565b6102b56103ff3660046150e2565b612e05565b600054610417906001600160a01b031681565b6040516001600160a01b039091168152602001610236565b610437612e30565b60405161023691906158db565b61045761045236600461529d565b6133cd565b6040516102369190615930565b61025261047236600461529d565b600091825260056020819052604090922090910155565b6102b56104973660046150e2565b61382f565b6102526104aa36600461529d565b613926565b6102526104bd366004615943565b613b30565b6102526104d0366004615221565b613bc2565b6102526104e33660046155ed565b613bfe565b6102526104f636600461529d565b613e68565b61050e610509366004615221565b614058565b60405161023697969594939291906159c1565b6102b561052f3660046155ed565b6142b3565b61025261054236600461523a565b614371565b61054f614460565b6040516102369190615a2e565b61025261056a366004615a83565b6147c1565b61025261057d366004615b54565b6148a9565b606060006009546001600160401b038111156105a0576105a0615004565b6040519080825280602002602001820160405280156105d957816020015b6105c6614b02565b8152602001906001900390816105be5790505b5090506000805b600754811015610a6a5760005b600160006105fb8483615bf2565b8152602081019190915260400160002060020154811015610a5757600160006106248483615bf2565b8152602001908152602001600020600201818154811061064657610646615c05565b9060005260206000209060090201604051806101200160405290816000820154815260200160018201805461067a90615c1b565b80601f01602080910402602001604051908101604052809291908181526020018280546106a690615c1b565b80156106f35780601f106106c8576101008083540402835291602001916106f3565b820191906000526020600020905b8154815290600101906020018083116106d657829003601f168201915b505050505081526020016002820154815260200160038201805480602002602001604051908101604052809291908181526020016000905b828210156109595783829060005260206000209060090201604051806101200160405290816000820154815260200160018201805461076990615c1b565b80601f016020809104026020016040519081016040528092919081815260200182805461079590615c1b565b80156107e25780601f106107b7576101008083540402835291602001916107e2565b820191906000526020600020905b8154815290600101906020018083116107c557829003601f168201915b505050505081526020016002820180546107fb90615c1b565b80601f016020809104026020016040519081016040528092919081815260200182805461082790615c1b565b80156108745780601f1061084957610100808354040283529160200191610874565b820191906000526020600020905b81548152906001019060200180831161085757829003601f168201915b505050918352505060038201546020820152600482015460408201526005820154606082015260068201546080820152600782015460ff16151560a082015260088201805460c0909201916108c890615c1b565b80601f01602080910402602001604051908101604052809291908181526020018280546108f490615c1b565b80156109415780601f1061091657610100808354040283529160200191610941565b820191906000526020600020905b81548152906001019060200180831161092457829003601f168201915b5050505050815250508152602001906001019061072b565b5050505081526020016004820154815260200160058201548152602001600682015481526020016007820154815260200160088201805461099990615c1b565b80601f01602080910402602001604051908101604052809291908181526020018280546109c590615c1b565b8015610a125780601f106109e757610100808354040283529160200191610a12565b820191906000526020600020905b8154815290600101906020018083116109f557829003601f168201915b505050505081525050848481518110610a2d57610a2d615c05565b6020908102919091010152610a43600184615bf2565b925080610a4f81615c4f565b9150506105ed565b5080610a6281615c4f565b9150506105e0565b509092915050565b600160076000828254610a859190615bf2565b90915550506007546000908152600160208190526040909120908101610aab8382615cb6565b5060078054825560016003830155546040517f5bae3f75753ef0a1c0ea0f6c51d7b43a4b8d116572b8b7b5cb771f9ad32d4ae590610aea908590615536565b60405180910390a25050565b606060006008546001600160401b03811115610b1457610b14615004565b604051908082528060200260200182016040528015610b4d57816020015b610b3a614b4e565b815260200190600190039081610b325790505b50905060006009546001600160401b03811115610b6c57610b6c615004565b604051908082528060200260200182016040528015610ba557816020015b610b92614b02565b815260200190600190039081610b8a5790505b509050610bb0610582565b90506000805b600954811015610c6f5760005b838281518110610bd557610bd5615c05565b60200260200101516060015151811015610c5c57838281518110610bfb57610bfb615c05565b6020026020010151606001518181518110610c1857610c18615c05565b6020026020010151858481518110610c3257610c32615c05565b6020908102919091010152610c48600184615bf2565b925080610c5481615c4f565b915050610bc3565b5080610c6781615c4f565b915050610bb6565b50919392505050565b60005b600084815260016020526040902060020154811015610e83576000848152600160205260409020600201805484919083908110610cba57610cba615c05565b90600052602060002090600902016000015403610e71576000848152600160205260408120600201805483908110610cf457610cf4615c05565b9060005260206000209060090201905060005b6003820154811015610e6e5789826003018281548110610d2957610d29615c05565b90600052602060002090600902016000015403610e5c576000826003018281548110610d5757610d57615c05565b9060005260206000209060090201905089816001019081610d789190615cb6565b5060028101610d878a82615cb6565b5060038101889055845115801590610dbd575084516020860120604051610db2906008840190615de8565b604051809103902014155b15610e53576000816008018054610dd390615c1b565b90501115610e11576000600682600801604051610df09190615de8565b908152604051908190036020019020805491151560ff199092169190911790555b60088101610e1f8682615cb6565b506001600686604051610e329190615df4565b908152604051908190036020019020805491151560ff199092169190911790555b50505050610e85565b80610e6681615c4f565b915050610d07565b50505b80610e7b81615c4f565b915050610c7b565b505b50505050505050565b60008181526001602052604081206002810154606092906001600160401b03811115610ebc57610ebc615004565b604051908082528060200260200182016040528015610ef557816020015b610ee2614b02565b815260200190600190039081610eda5790505b50905060005b600283015481101561132157826002018181548110610f1c57610f1c615c05565b90600052602060002090600902016040518061012001604052908160008201548152602001600182018054610f5090615c1b565b80601f0160208091040260200160405190810160405280929190818152602001828054610f7c90615c1b565b8015610fc95780601f10610f9e57610100808354040283529160200191610fc9565b820191906000526020600020905b815481529060010190602001808311610fac57829003601f168201915b505050505081526020016002820154815260200160038201805480602002602001604051908101604052809291908181526020016000905b8282101561122f5783829060005260206000209060090201604051806101200160405290816000820154815260200160018201805461103f90615c1b565b80601f016020809104026020016040519081016040528092919081815260200182805461106b90615c1b565b80156110b85780601f1061108d576101008083540402835291602001916110b8565b820191906000526020600020905b81548152906001019060200180831161109b57829003601f168201915b505050505081526020016002820180546110d190615c1b565b80601f01602080910402602001604051908101604052809291908181526020018280546110fd90615c1b565b801561114a5780601f1061111f5761010080835404028352916020019161114a565b820191906000526020600020905b81548152906001019060200180831161112d57829003601f168201915b505050918352505060038201546020820152600482015460408201526005820154606082015260068201546080820152600782015460ff16151560a082015260088201805460c09092019161119e90615c1b565b80601f01602080910402602001604051908101604052809291908181526020018280546111ca90615c1b565b80156112175780601f106111ec57610100808354040283529160200191611217565b820191906000526020600020905b8154815290600101906020018083116111fa57829003601f168201915b50505050508152505081526020019060010190611001565b5050505081526020016004820154815260200160058201548152602001600682015481526020016007820154815260200160088201805461126f90615c1b565b80601f016020809104026020016040519081016040528092919081815260200182805461129b90615c1b565b80156112e85780601f106112bd576101008083540402835291602001916112e8565b820191906000526020600020905b8154815290600101906020018083116112cb57829003601f168201915b50505050508152505082828151811061130357611303615c05565b6020026020010181905250808061131990615c4f565b915050610efb565b509392505050565b60015b600b54811161139c576000818152600560205260409081902090516113549160020190615de8565b604051809103902083805190602001200361138a5760008181526005602052604090206006016113848382615cb6565b50505050565b8061139481615c4f565b91505061132c565b505050565b60008281526001602052604081205481036113fd5760405162461bcd60e51b815260206004820152601760248201527610d85d1959dbdc9e48191bd95cc81b9bdd08195e1a5cdd604a1b60448201526064015b60405180910390fd5b60005b60008481526001602052604090206002015481101561147257600084815260016020526040902060020180548491908390811061143f5761143f615c05565b90600052602060002090600902016000015403611460576001915050611478565b8061146a81615c4f565b915050611400565b50600090505b92915050565b600060015b600b5481116114db576000818152600560205260409081902090516114ab9160010190615de8565b60405180910390208380519060200120036114c95750600192915050565b806114d381615c4f565b915050611483565b50600092915050565b60005b6040808301516000908152600160205220600201548110156115b1578151604080840151600090815260016020522060020180548390811061152b5761152b615c05565b9060005260206000209060090201600001540361159f576040808301516000908152600160205290812060020180548390811061156a5761156a615c05565b90600052602060002090600902019050826020015181600101908161158f9190615cb6565b5060e08301516007909101555050565b806115a981615c4f565b9150506114e7565b5050565b60606000821180156115c95750600b548211155b6116085760405162461bcd60e51b815260206004820152601060248201526f125b9d985b1a59081d9bdd195c88125160821b60448201526064016113f4565b6000828152600560205260409020600201805461162490615c1b565b80601f016020809104026020016040519081016040528092919081815260200182805461165090615c1b565b801561169d5780601f106116725761010080835404028352916020019161169d565b820191906000526020600020905b81548152906001019060200180831161168057829003601f168201915b50505050509050919050565b60008281526001602052604081206060915b6002820154811015611a3d57838260020182815481106116dd576116dd615c05565b90600052602060002090600902016000015403611a2b57600082600201828154811061170b5761170b615c05565b9060005260206000209060090201600401546001600160401b0381111561173457611734615004565b60405190808252806020026020018201604052801561176d57816020015b61175a614b4e565b8152602001906001900390816117525790505b50905060005b83600201838154811061178857611788615c05565b906000526020600020906009020160030180549050811015611a20578360020183815481106117b9576117b9615c05565b906000526020600020906009020160030181815481106117db576117db615c05565b9060005260206000209060090201604051806101200160405290816000820154815260200160018201805461180f90615c1b565b80601f016020809104026020016040519081016040528092919081815260200182805461183b90615c1b565b80156118885780601f1061185d57610100808354040283529160200191611888565b820191906000526020600020905b81548152906001019060200180831161186b57829003601f168201915b505050505081526020016002820180546118a190615c1b565b80601f01602080910402602001604051908101604052809291908181526020018280546118cd90615c1b565b801561191a5780601f106118ef5761010080835404028352916020019161191a565b820191906000526020600020905b8154815290600101906020018083116118fd57829003601f168201915b505050918352505060038201546020820152600482015460408201526005820154606082015260068201546080820152600782015460ff16151560a082015260088201805460c09092019161196e90615c1b565b80601f016020809104026020016040519081016040528092919081815260200182805461199a90615c1b565b80156119e75780601f106119bc576101008083540402835291602001916119e7565b820191906000526020600020905b8154815290600101906020018083116119ca57829003601f168201915b505050505081525050828281518110611a0257611a02615c05565b60200260200101819052508080611a1890615c4f565b915050611773565b509250611478915050565b80611a3581615c4f565b9150506116bb565b505092915050565b611a706040518060800160405280600081526020016060815260200160608152602001600081525090565b60008281526001602081815260409283902083516080810190945280548452918201805491840191611aa190615c1b565b80601f0160208091040260200160405190810160405280929190818152602001828054611acd90615c1b565b8015611b1a5780601f10611aef57610100808354040283529160200191611b1a565b820191906000526020600020905b815481529060010190602001808311611afd57829003601f168201915b5050505050815260200160028201805480602002602001604051908101604052809291908181526020016000905b82821015611f3657838290600052602060002090600902016040518061012001604052908160008201548152602001600182018054611b8690615c1b565b80601f0160208091040260200160405190810160405280929190818152602001828054611bb290615c1b565b8015611bff5780601f10611bd457610100808354040283529160200191611bff565b820191906000526020600020905b815481529060010190602001808311611be257829003601f168201915b505050505081526020016002820154815260200160038201805480602002602001604051908101604052809291908181526020016000905b82821015611e6557838290600052602060002090600902016040518061012001604052908160008201548152602001600182018054611c7590615c1b565b80601f0160208091040260200160405190810160405280929190818152602001828054611ca190615c1b565b8015611cee5780601f10611cc357610100808354040283529160200191611cee565b820191906000526020600020905b815481529060010190602001808311611cd157829003601f168201915b50505050508152602001600282018054611d0790615c1b565b80601f0160208091040260200160405190810160405280929190818152602001828054611d3390615c1b565b8015611d805780601f10611d5557610100808354040283529160200191611d80565b820191906000526020600020905b815481529060010190602001808311611d6357829003601f168201915b505050918352505060038201546020820152600482015460408201526005820154606082015260068201546080820152600782015460ff16151560a082015260088201805460c090920191611dd490615c1b565b80601f0160208091040260200160405190810160405280929190818152602001828054611e0090615c1b565b8015611e4d5780601f10611e2257610100808354040283529160200191611e4d565b820191906000526020600020905b815481529060010190602001808311611e3057829003601f168201915b50505050508152505081526020019060010190611c37565b50505050815260200160048201548152602001600582015481526020016006820154815260200160078201548152602001600882018054611ea590615c1b565b80601f0160208091040260200160405190810160405280929190818152602001828054611ed190615c1b565b8015611f1e5780601f10611ef357610100808354040283529160200191611f1e565b820191906000526020600020905b815481529060010190602001808311611f0157829003601f168201915b50505050508152505081526020019060010190611b48565b5050505081526020016003820154815250509050919050565b611f57614b4e565b600084815260016020526040812090611f6e614b4e565b60005b60028401548110156122665786846002018281548110611f9357611f93615c05565b9060005260206000209060090201600001540361225457836002018181548110611fbf57611fbf615c05565b9060005260206000209060090201925060005b600384015481101561224e5786846003018281548110611ff457611ff4615c05565b9060005260206000209060090201600001540361223c5783600301818154811061202057612020615c05565b9060005260206000209060090201604051806101200160405290816000820154815260200160018201805461205490615c1b565b80601f016020809104026020016040519081016040528092919081815260200182805461208090615c1b565b80156120cd5780601f106120a2576101008083540402835291602001916120cd565b820191906000526020600020905b8154815290600101906020018083116120b057829003601f168201915b505050505081526020016002820180546120e690615c1b565b80601f016020809104026020016040519081016040528092919081815260200182805461211290615c1b565b801561215f5780601f106121345761010080835404028352916020019161215f565b820191906000526020600020905b81548152906001019060200180831161214257829003601f168201915b505050918352505060038201546020820152600482015460408201526005820154606082015260068201546080820152600782015460ff16151560a082015260088201805460c0909201916121b390615c1b565b80601f01602080910402602001604051908101604052809291908181526020018280546121df90615c1b565b801561222c5780601f106122015761010080835404028352916020019161222c565b820191906000526020600020905b81548152906001019060200180831161220f57829003601f168201915b505050505081525050925061224e565b8061224681615c4f565b915050611fd2565b50612266565b8061225e81615c4f565b915050611f71565b50925050505b9392505050565b6004602052600090815260409020805460018201805491929161229590615c1b565b80601f01602080910402602001604051908101604052809291908181526020018280546122c190615c1b565b801561230e5780601f106122e35761010080835404028352916020019161230e565b820191906000526020600020905b8154815290600101906020018083116122f157829003601f168201915b505050506002830154600384015460048501546005909501549394919390925060ff1686565b61233f8686846142b3565b1561238c5760405162461bcd60e51b815260206004820152601960248201527f43616e6469646174657320616c7265616479206578697374730000000000000060448201526064016113f4565b60016008600082825461239f9190615bf2565b9091555050604080516101208101825260085481526020808201879052818301869052606082018590526080820189905260a08201889052600060c0830181905260e083018190526101008301859052898152600190915291822090915b600282015481101561254a578782600201828154811061241f5761241f615c05565b906000526020600020906009020160000154036125385781600201818154811061244b5761244b615c05565b600091825260208083206009928302016003018054600180820183559185529382902087519490930290920192835585015185929182019061248d9082615cb6565b50604082015160028201906124a29082615cb6565b50606082015160038201556080820151600482015560a0820151600582015560c0820151600682015560e082015160078201805460ff191691151591909117905561010082015160088201906124f89082615cb6565b505050600182600201828154811061251257612512615c05565b906000526020600020906009020160040160008282546125329190615bf2565b90915550505b8061254281615c4f565b9150506123fd565b50600160068460405161255d9190615df4565b908152604051908190036020019020805491151560ff199092169190911790555050505050505050565b60008281526001602052604081205490036125e45760405162461bcd60e51b815260206004820152601860248201527f43617465676f727920646f6573206e6f7420657869737473000000000000000060448201526064016113f4565b60095460000361262e5760405162461bcd60e51b81526020600482015260156024820152744576656e7420646f6573206e6f742065786973747360581b60448201526064016113f4565b60015b600a548111612714576000818152600460205260409081902090516126599160010190615de8565b60405180910390208580519060200120148015612686575060008181526004602052604090206002015483145b80156126a2575060008181526004602052604090206003015482145b156127025760008181526004602052604090206005015460ff16156126fd5760405162461bcd60e51b8152602060048201526011602482015270165bdd48185b1c9958591e481d9bdd1959607a1b60448201526064016113f4565b612714565b8061270c81615c4f565b915050612631565b506001600a60008282546127289190615bf2565b90915550506040805160c081018252600a5480825260208083018881528385018790526060840186905260808401889052600160a0850181905260009384526004909252939091208251815592519192839290918201906127899082615cb6565b5060408201516002820155606082015160038201556080820151600482015560a0909101516005909101805460ff19169115159190911790556127cd83838661497a565b60408051602081018590528082018490528151808203830181526060909101918290529085906127fe908390615df4565b6040518091039020876040516128149190615df4565b604051908190038120907f336badd820d33e68eff2381e343928896ff7147adf09b298939d0a7b001f072e90600090a4505050505050565b60008281526001602081905260409091200161139c8282615cb6565b60606000600a546001600160401b0381111561288657612886615004565b6040519080825280602002602001820160405280156128f257816020015b6128df6040518060c0016040528060008152602001606081526020016000815260200160008152602001600081526020016000151581525090565b8152602001906001900390816128a45790505b50905060015b600a548111612a2357600460008281526020019081526020016000206040518060c00160405290816000820154815260200160018201805461293990615c1b565b80601f016020809104026020016040519081016040528092919081815260200182805461296590615c1b565b80156129b25780601f10612987576101008083540402835291602001916129b2565b820191906000526020600020905b81548152906001019060200180831161299557829003601f168201915b505050918352505060028201546020820152600382015460408201526004820154606082015260059091015460ff161515608090910152826129f5600184615e10565b81518110612a0557612a05615c05565b60200260200101819052508080612a1b90615c4f565b9150506128f8565b50919050565b612a6c6040518060e00160405280600081526020016060815260200160608152602001600080191681526020016060815260200160008152602001606081525090565b600082604051602001612a7f9190615df4565b60408051601f198184030181529190528051602090910120905060015b600b548111612d9d57600081815260056020526040908190209051612ac49160020190615de8565b60405180910390208580519060200120148015612af95750600081815260056020526040902060030154612af9908390614a8a565b15612d8b57600560008281526020019081526020016000206040518060e001604052908160008201548152602001600182018054612b3690615c1b565b80601f0160208091040260200160405190810160405280929190818152602001828054612b6290615c1b565b8015612baf5780601f10612b8457610100808354040283529160200191612baf565b820191906000526020600020905b815481529060010190602001808311612b9257829003601f168201915b50505050508152602001600282018054612bc890615c1b565b80601f0160208091040260200160405190810160405280929190818152602001828054612bf490615c1b565b8015612c415780601f10612c1657610100808354040283529160200191612c41565b820191906000526020600020905b815481529060010190602001808311612c2457829003601f168201915b5050505050815260200160038201548152602001600482018054612c6490615c1b565b80601f0160208091040260200160405190810160405280929190818152602001828054612c9090615c1b565b8015612cdd5780601f10612cb257610100808354040283529160200191612cdd565b820191906000526020600020905b815481529060010190602001808311612cc057829003601f168201915b5050505050815260200160058201548152602001600682018054612d0090615c1b565b80601f0160208091040260200160405190810160405280929190818152602001828054612d2c90615c1b565b8015612d795780601f10612d4e57610100808354040283529160200191612d79565b820191906000526020600020905b815481529060010190602001808311612d5c57829003601f168201915b50505050508152505092505050611478565b80612d9581615c4f565b915050612a9c565b50506040805160e08101825260008082528251602080820185528282528084019190915283518082018552828152838501526060830182905283518082018552828152608084015260a083018290528351908101909352825260c08101919091529392505050565b6000600682604051612e179190615df4565b9081526040519081900360200190205460ff1692915050565b606060006007546001600160401b03811115612e4e57612e4e615004565b604051908082528060200260200182016040528015612eaa57816020015b612e976040518060800160405280600081526020016060815260200160608152602001600081525090565b815260200190600190039081612e6c5790505b50905060015b6007548111612a235760008181526001602081815260409283902083516080810190945280548452918201805491840191612eea90615c1b565b80601f0160208091040260200160405190810160405280929190818152602001828054612f1690615c1b565b8015612f635780601f10612f3857610100808354040283529160200191612f63565b820191906000526020600020905b815481529060010190602001808311612f4657829003601f168201915b5050505050815260200160028201805480602002602001604051908101604052809291908181526020016000905b8282101561337f57838290600052602060002090600902016040518061012001604052908160008201548152602001600182018054612fcf90615c1b565b80601f0160208091040260200160405190810160405280929190818152602001828054612ffb90615c1b565b80156130485780601f1061301d57610100808354040283529160200191613048565b820191906000526020600020905b81548152906001019060200180831161302b57829003601f168201915b505050505081526020016002820154815260200160038201805480602002602001604051908101604052809291908181526020016000905b828210156132ae578382906000526020600020906009020160405180610120016040529081600082015481526020016001820180546130be90615c1b565b80601f01602080910402602001604051908101604052809291908181526020018280546130ea90615c1b565b80156131375780601f1061310c57610100808354040283529160200191613137565b820191906000526020600020905b81548152906001019060200180831161311a57829003601f168201915b5050505050815260200160028201805461315090615c1b565b80601f016020809104026020016040519081016040528092919081815260200182805461317c90615c1b565b80156131c95780601f1061319e576101008083540402835291602001916131c9565b820191906000526020600020905b8154815290600101906020018083116131ac57829003601f168201915b505050918352505060038201546020820152600482015460408201526005820154606082015260068201546080820152600782015460ff16151560a082015260088201805460c09092019161321d90615c1b565b80601f016020809104026020016040519081016040528092919081815260200182805461324990615c1b565b80156132965780601f1061326b57610100808354040283529160200191613296565b820191906000526020600020905b81548152906001019060200180831161327957829003601f168201915b50505050508152505081526020019060010190613080565b505050508152602001600482015481526020016005820154815260200160068201548152602001600782015481526020016008820180546132ee90615c1b565b80601f016020809104026020016040519081016040528092919081815260200182805461331a90615c1b565b80156133675780601f1061333c57610100808354040283529160200191613367565b820191906000526020600020905b81548152906001019060200180831161334a57829003601f168201915b50505050508152505081526020019060010190612f91565b5050505081526020016003820154815250508260018361339f9190615e10565b815181106133af576133af615c05565b602002602001018190525080806133c590615c4f565b915050612eb0565b6133d5614b02565b60008381526001602052604090206133eb614b02565b60005b6002830154811015613826578483600201828154811061341057613410615c05565b906000526020600020906009020160000154036138145782600201818154811061343c5761343c615c05565b9060005260206000209060090201604051806101200160405290816000820154815260200160018201805461347090615c1b565b80601f016020809104026020016040519081016040528092919081815260200182805461349c90615c1b565b80156134e95780601f106134be576101008083540402835291602001916134e9565b820191906000526020600020905b8154815290600101906020018083116134cc57829003601f168201915b505050505081526020016002820154815260200160038201805480602002602001604051908101604052809291908181526020016000905b8282101561374f5783829060005260206000209060090201604051806101200160405290816000820154815260200160018201805461355f90615c1b565b80601f016020809104026020016040519081016040528092919081815260200182805461358b90615c1b565b80156135d85780601f106135ad576101008083540402835291602001916135d8565b820191906000526020600020905b8154815290600101906020018083116135bb57829003601f168201915b505050505081526020016002820180546135f190615c1b565b80601f016020809104026020016040519081016040528092919081815260200182805461361d90615c1b565b801561366a5780601f1061363f5761010080835404028352916020019161366a565b820191906000526020600020905b81548152906001019060200180831161364d57829003601f168201915b505050918352505060038201546020820152600482015460408201526005820154606082015260068201546080820152600782015460ff16151560a082015260088201805460c0909201916136be90615c1b565b80601f01602080910402602001604051908101604052809291908181526020018280546136ea90615c1b565b80156137375780601f1061370c57610100808354040283529160200191613737565b820191906000526020600020905b81548152906001019060200180831161371a57829003601f168201915b50505050508152505081526020019060010190613521565b5050505081526020016004820154815260200160058201548152602001600682015481526020016007820154815260200160088201805461378f90615c1b565b80601f01602080910402602001604051908101604052809291908181526020018280546137bb90615c1b565b80156138085780601f106137dd57610100808354040283529160200191613808565b820191906000526020600020905b8154815290600101906020018083116137eb57829003601f168201915b50505050508152505091505b8061381e81615c4f565b9150506133ee565b50949350505050565b6001600090815260056020527f1471eb6eb2c5e789fc3de43f8ce62938c7d1836ec861730447e2ada8fd81017b5481036138a35760405162461bcd60e51b81526020600482015260156024820152744e6f20766f74657220696e20746865206c6973742160581b60448201526064016113f4565b60015b600b5481116114db576000818152600560205260409081902090516138ce9160060190615de8565b6040518091039020838051906020012003613914576000818152600560208190526040822060019181019190915561390b91600690910190614b9c565b50600192915050565b8061391e81615c4f565b9150506138a6565b600082815260016020525b60008381526001602052604090206002015481101561139c57600083815260016020526040902060020180548391908390811061397057613970615c05565b90600052602060002090600902016000015403613b1e5760008381526001602052604081206002018054839081106139aa576139aa615c05565b90600052602060002090600902016003016000815481106139cd576139cd615c05565b9060005260206000209060090201905060005b6000858152600160208190526040909120600201805485908110613a0657613a06615c05565b906000526020600020906009020160030180549050613a259190615e10565b811015613b0e576000858152600160205260409020600201805484908110613a4f57613a4f615c05565b9060005260206000209060090201600301816001613a6d9190615bf2565b81548110613a7d57613a7d615c05565b90600052602060002090600902016006015482600601541015613afc576000858152600160205260409020600201805484908110613abd57613abd615c05565b9060005260206000209060090201600301816001613adb9190615bf2565b81548110613aeb57613aeb615c05565b906000526020600020906009020191505b80613b0681615c4f565b9150506139e0565b50600701805460ff191660011790555b80613b2881615c4f565b915050613931565b6000858152600160208190526040822060098054919392918390613b55908490615bf2565b918290555060028401805460018181018355600092835260209092206009909102018281559193509091508101613b8c8882615cb6565b5060088101613b9b8782615cb6565b50600281019790975550506001600786015560058501919091556006909301929092555050565b600081815260016020819052604082208281559190613be390830182614b9c565b613bf1600283016000614bd9565b6003820160009055505050565b60005b600084815260016020526040902060020154811015611384576000848152600160205260409020600201805484919083908110613c4057613c40615c05565b90600052602060002090600902016000015403613e56576000848152600160205260408120600201805483908110613c7a57613c7a615c05565b9060005260206000209060090201905060005b6003820154811015613e535783826003018281548110613caf57613caf615c05565b90600052602060002090600902016000015403613e4157600482018054906000613cd883615e23565b9091555050600382018054613cef90600190615e10565b81548110613cff57613cff615c05565b9060005260206000209060090201826003018281548110613d2257613d22615c05565b600091825260209091208254600990920201908155600180820190613d4990840182615e3a565b50600281810190613d5c90840182615e3a565b5060038281015490820155600480830154908201556005808301549082015560068083015490820155600780830154908201805460ff191660ff9092161515919091179055600880820190613db390840182615e3a565b50505060038201805480613dc957613dc9615f0c565b60008281526020812060096000199093019283020181815590613def6001830182614b9c565b613dfd600283016000614b9c565b60006003830181905560048301819055600583018190556006830181905560078301805460ff19169055613e35906008840190614b9c565b50509055505050505050565b80613e4b81615c4f565b915050613c8d565b50505b80613e6081615c4f565b915050613c01565b60005b60008381526001602052604090206002015481101561139c576000838152600160205260409020600201805483919083908110613eaa57613eaa615c05565b9060005260206000209060090201600001540361404657600083815260016020819052604090912060020180549091613ee291615e10565b81548110613ef257613ef2615c05565b9060005260206000209060090201600160008581526020019081526020016000206002018281548110613f2757613f27615c05565b600091825260209091208254600990920201908155600180820190613f4e90840182615e3a565b50600282015481600201556003820181600301908054613f6f929190614bfa565b506004820154816004015560058201548160050155600682015481600601556007820154816007015560088201816008019081613fac9190615e3a565b5050506000838152600160205260409020600201805480613fcf57613fcf615f0c565b60008281526020812060096000199093019283020181815590613ff56001830182614b9c565b600282016000905560038201600061400d9190614cd1565b600482016000905560058201600090556006820160009055600782016000905560088201600061403d9190614b9c565b50509055505050565b8061405081615c4f565b915050613e6b565b6005602052600090815260409020805460018201805491929161407a90615c1b565b80601f01602080910402602001604051908101604052809291908181526020018280546140a690615c1b565b80156140f35780601f106140c8576101008083540402835291602001916140f3565b820191906000526020600020905b8154815290600101906020018083116140d657829003601f168201915b50505050509080600201805461410890615c1b565b80601f016020809104026020016040519081016040528092919081815260200182805461413490615c1b565b80156141815780601f1061415657610100808354040283529160200191614181565b820191906000526020600020905b81548152906001019060200180831161416457829003601f168201915b50505050509080600301549080600401805461419c90615c1b565b80601f01602080910402602001604051908101604052809291908181526020018280546141c890615c1b565b80156142155780601f106141ea57610100808354040283529160200191614215565b820191906000526020600020905b8154815290600101906020018083116141f857829003601f168201915b50505050509080600501549080600601805461423090615c1b565b80601f016020809104026020016040519081016040528092919081815260200182805461425c90615c1b565b80156142a95780601f1061427e576101008083540402835291602001916142a9565b820191906000526020600020905b81548152906001019060200180831161428c57829003601f168201915b5050505050905087565b600083815260016020526040812054810361430a5760405162461bcd60e51b815260206004820152601760248201527610d85d1959dbdc9e48191bd95cc81b9bdd08195e1a5cdd604a1b60448201526064016113f4565b600061431685856116a9565b905060005b8151811015614365578382828151811061433757614337615c05565b602002602001015160600151036143535760019250505061226c565b8061435d81615c4f565b91505061431b565b50600095945050505050565b61437a8261147e565b6143bd5760405162461bcd60e51b81526020600482015260146024820152735573657220646f6573206e6f742065786973747360601b60448201526064016113f4565b6000816040516020016143d09190615df4565b60408051601f198184030181529190528051602090910120905060015b600b548111611384576000818152600560205260409081902090516144159160010190615de8565b604051809103902084805190602001200361444e5760008181526005602052604081206003810184905561444e91600690910190614b9c565b8061445881615c4f565b9150506143ed565b60606000600b546001600160401b0381111561447e5761447e615004565b6040519080825280602002602001820160405280156144f257816020015b6144df6040518060e00160405280600081526020016060815260200160608152602001600080191681526020016060815260200160008152602001606081525090565b81526020019060019003908161449c5790505b50905060015b600b548111612a2357600560008281526020019081526020016000206040518060e00160405290816000820154815260200160018201805461453990615c1b565b80601f016020809104026020016040519081016040528092919081815260200182805461456590615c1b565b80156145b25780601f10614587576101008083540402835291602001916145b2565b820191906000526020600020905b81548152906001019060200180831161459557829003601f168201915b505050505081526020016002820180546145cb90615c1b565b80601f01602080910402602001604051908101604052809291908181526020018280546145f790615c1b565b80156146445780601f1061461957610100808354040283529160200191614644565b820191906000526020600020905b81548152906001019060200180831161462757829003601f168201915b505050505081526020016003820154815260200160048201805461466790615c1b565b80601f016020809104026020016040519081016040528092919081815260200182805461469390615c1b565b80156146e05780601f106146b5576101008083540402835291602001916146e0565b820191906000526020600020905b8154815290600101906020018083116146c357829003601f168201915b505050505081526020016005820154815260200160068201805461470390615c1b565b80601f016020809104026020016040519081016040528092919081815260200182805461472f90615c1b565b801561477c5780601f106147515761010080835404028352916020019161477c565b820191906000526020600020905b81548152906001019060200180831161475f57829003601f168201915b505050505081525050826001836147939190615e10565b815181106147a3576147a3615c05565b602002602001018190525080806147b990615c4f565b9150506144f8565b6001600b60008282546147d49190615bf2565b90915550506040516000906147ed908590602001615df4565b60408051601f198184030181529181528151602092830120600b5460008181526005909452919092209081559091506001810161482a8882615cb6565b50600281016148398782615cb6565b50600381018290556004810161484f8582615cb6565b5060006005820155600681016148658482615cb6565b50600b547f56729c826fe77eec184059336ced13d9ef79d10126212c90a4d2b724391e14e2886040516148989190615536565b60405180910390a250505050505050565b60005b600087815260016020526040902060020154811015610e855760008781526001602052604090206002018054879190839081106148eb576148eb615c05565b9060005260206000209060090201600001540361496857600087815260016020526040812060020180548390811061492557614925615c05565b90600052602060002090600902019050858160010190816149469190615cb6565b50600881016149558682615cb6565b5060058101849055600601829055610e85565b8061497281615c4f565b9150506148ac565b6000838152600160205260408120600201905b8154811015614a8357838282815481106149a9576149a9615c05565b90600052602060002090600902016000015403614a715760008282815481106149d4576149d4615c05565b9060005260206000209060090201600301905060005b8154811015614a6e5784828281548110614a0657614a06615c05565b90600052602060002090600902016000015403614a5c576001828281548110614a3157614a31615c05565b90600052602060002090600902016006016000828254614a519190615bf2565b90915550614a6e9050565b80614a6681615c4f565b9150506149ea565b50505b80614a7b81615c4f565b91505061498d565b5050505050565b6000805b6020811015614af857828160208110614aa957614aa9615c05565b1a60f81b6001600160f81b031916848260208110614ac957614ac9615c05565b1a60f81b6001600160f81b03191614614ae6576000915050611478565b80614af081615c4f565b915050614a8e565b5060019392505050565b6040518061012001604052806000815260200160608152602001600081526020016060815260200160008152602001600081526020016000815260200160008152602001606081525090565b60405180610120016040528060008152602001606081526020016060815260200160008152602001600081526020016000815260200160008152602001600015158152602001606081525090565b508054614ba890615c1b565b6000825580601f10614bb8575050565b601f016020900490600052602060002090810190614bd69190614cf2565b50565b5080546000825560090290600052602060002090810190614bd69190614d07565b828054828255906000526020600020906009028101928215614cc15760005260206000209160090282015b82811115614cc157825482558282600180820190614c4590840182615e3a565b50600281810190614c5890840182615e3a565b5060038281015490820155600480830154908201556005808301549082015560068083015490820155600780830154908201805460ff191660ff9092161515919091179055600880820190614caf90840182615e3a565b50505091600901919060090190614c25565b50614ccd929150614d72565b5090565b5080546000825560090290600052602060002090810190614bd69190614d72565b5b80821115614ccd5760008155600101614cf3565b80821115614ccd576000808255614d216001830182614b9c565b6002820160009055600382016000614d399190614cd1565b6004820160009055600582016000905560068201600090556007820160009055600882016000614d699190614b9c565b50600901614d07565b80821115614ccd576000808255614d8c6001830182614b9c565b614d9a600283016000614b9c565b60006003830181905560048301819055600583018190556006830181905560078301805460ff19169055614dd2906008840190614b9c565b50600901614d72565b60005b83811015614df6578181015183820152602001614dde565b50506000910152565b60008151808452614e17816020860160208601614ddb565b601f01601f19169290920160200192915050565b6000610120825184526020830151816020860152614e4b82860182614dff565b91505060408301518482036040860152614e658282614dff565b915050606083015160608501526080830151608085015260a083015160a085015260c083015160c085015260e0830151614ea360e086018215159052565b506101008084015185830382870152614ebc8382614dff565b9695505050505050565b600081518084526020808501808196508360051b8101915082860160005b85811015614f0e578284038952614efc848351614e2b565b98850198935090840190600101614ee4565b5091979650505050505050565b6000610120825184526020830151816020860152614f3b82860182614dff565b9150506040830151604085015260608301518482036060860152614f5f8282614ec6565b9150506080830151608085015260a083015160a085015260c083015160c085015260e083015160e08501526101008084015185830382870152614ebc8382614dff565b6000602080830181845280855180835260408601915060408160051b870101925083870160005b82811015614ff757603f19888603018452614fe5858351614f1b565b94509285019290850190600101614fc9565b5092979650505050505050565b634e487b7160e01b600052604160045260246000fd5b60405161012081016001600160401b038111828210171561503d5761503d615004565b60405290565b604051601f8201601f191681016001600160401b038111828210171561506b5761506b615004565b604052919050565b600082601f83011261508457600080fd5b81356001600160401b0381111561509d5761509d615004565b6150b0601f8201601f1916602001615043565b8181528460208386010111156150c557600080fd5b816020850160208301376000918101602001919091529392505050565b6000602082840312156150f457600080fd5b81356001600160401b0381111561510a57600080fd5b61511684828501615073565b949350505050565b6000602080830181845280855180835260408601915060408160051b870101925083870160005b82811015614ff757603f19888603018452615161858351614e2b565b94509285019290850190600101615145565b600080600080600080600060e0888a03121561518e57600080fd5b8735965060208801356001600160401b03808211156151ac57600080fd5b6151b88b838c01615073565b975060408a01359150808211156151ce57600080fd5b6151da8b838c01615073565b965060608a0135955060808a0135945060a08a0135935060c08a013591508082111561520557600080fd5b506152128a828b01615073565b91505092959891949750929550565b60006020828403121561523357600080fd5b5035919050565b6000806040838503121561524d57600080fd5b82356001600160401b038082111561526457600080fd5b61527086838701615073565b9350602085013591508082111561528657600080fd5b5061529385828601615073565b9150509250929050565b600080604083850312156152b057600080fd5b50508035926020909101359150565b803580151581146152cf57600080fd5b919050565b600082601f8301126152e557600080fd5b813560206001600160401b038083111561530157615301615004565b8260051b615310838201615043565b938452858101830193838101908886111561532a57600080fd5b84880192505b85831015615435578235848111156153485760008081fd5b8801610120818b03601f19018113156153615760008081fd5b61536961501a565b878301358152604080840135888111156153835760008081fd5b6153918e8b83880101615073565b8a84015250606080850135898111156153aa5760008081fd5b6153b88f8c83890101615073565b83850152506080915081850135818401525060a0808501358284015260c0915081850135818401525060e0808501358284015261010091506153fb8286016152bf565b908301529183013591878311156154125760008081fd5b6154208d8a85870101615073565b90820152845250509184019190840190615330565b98975050505050505050565b60006020828403121561545357600080fd5b81356001600160401b038082111561546a57600080fd5b90830190610120828603121561547f57600080fd5b61548761501a565b8235815260208301358281111561549d57600080fd5b6154a987828601615073565b602083015250604083013560408201526060830135828111156154cb57600080fd5b6154d7878286016152d4565b6060830152506080830135608082015260a083013560a082015260c083013560c082015260e083013560e0820152610100808401358381111561551957600080fd5b61552588828701615073565b918301919091525095945050505050565b60208152600061226c6020830184614dff565b8051825260006020808301516080828601526155686080860182614dff565b9050604084015185820360408701528181518084528484019150848160051b850101858401935060005b828110156155c057601f198683030184526155ae828651614f1b565b94870194938701939150600101615592565b50606088015160608a015280965050505050505092915050565b60208152600061226c6020830184615549565b60008060006060848603121561560257600080fd5b505081359360208301359350604090920135919050565b60208152600061226c6020830184614e2b565b86815260c06020820152600061564560c0830188614dff565b905085604083015284606083015283608083015282151560a0830152979650505050505050565b60008060008060008060c0878903121561568557600080fd5b863595506020870135945060408701356001600160401b03808211156156aa57600080fd5b6156b68a838b01615073565b955060608901359150808211156156cc57600080fd5b6156d88a838b01615073565b94506080890135935060a08901359150808211156156f557600080fd5b5061570289828a01615073565b9150509295509295509295565b6000806000806080858703121561572557600080fd5b84356001600160401b0381111561573b57600080fd5b61574787828801615073565b97602087013597506040870135966060013595509350505050565b6000806040838503121561577557600080fd5b8235915060208301356001600160401b0381111561579257600080fd5b61529385828601615073565b60006020808301818452808551808352604092508286019150828160051b87010184880160005b8381101561583157603f19898403018552815160c08151855288820151818a8701526157f382870182614dff565b838a0151878b0152606080850151908801526080808501519088015260a09384015115159390960192909252505093860193908601906001016157c5565b509098975050505050505050565b805182526000602082015160e0602085015261585e60e0850182614dff565b9050604083015184820360408601526158778282614dff565b915050606083015160608501526080830151848203608086015261589b8282614dff565b91505060a083015160a085015260c083015184820360c08601526158bf8282614dff565b95945050505050565b60208152600061226c602083018461583f565b6000602080830181845280855180835260408601915060408160051b870101925083870160005b82811015614ff757603f1988860301845261591e858351615549565b94509285019290850190600101615902565b60208152600061226c6020830184614f1b565b600080600080600060a0868803121561595b57600080fd5b8535945060208601356001600160401b038082111561597957600080fd5b61598589838a01615073565b9550604088013591508082111561599b57600080fd5b506159a888828901615073565b9598949750949560608101359550608001359392505050565b87815260e0602082015260006159da60e0830189614dff565b82810360408401526159ec8189614dff565b90508660608401528281036080840152615a068187614dff565b90508460a084015282810360c0840152615a208185614dff565b9a9950505050505050505050565b6000602080830181845280855180835260408601915060408160051b870101925083870160005b82811015614ff757603f19888603018452615a7185835161583f565b94509285019290850190600101615a55565b600080600080600060a08688031215615a9b57600080fd5b85356001600160401b0380821115615ab257600080fd5b615abe89838a01615073565b96506020880135915080821115615ad457600080fd5b615ae089838a01615073565b95506040880135915080821115615af657600080fd5b615b0289838a01615073565b94506060880135915080821115615b1857600080fd5b615b2489838a01615073565b93506080880135915080821115615b3a57600080fd5b50615b4788828901615073565b9150509295509295909350565b60008060008060008060c08789031215615b6d57600080fd5b863595506020870135945060408701356001600160401b0380821115615b9257600080fd5b615b9e8a838b01615073565b95506060890135915080821115615bb457600080fd5b50615bc189828a01615073565b9350506080870135915060a087013590509295509295509295565b634e487b7160e01b600052601160045260246000fd5b8082018082111561147857611478615bdc565b634e487b7160e01b600052603260045260246000fd5b600181811c90821680615c2f57607f821691505b602082108103612a2357634e487b7160e01b600052602260045260246000fd5b600060018201615c6157615c61615bdc565b5060010190565b601f82111561139c57600081815260208120601f850160051c81016020861015615c8f5750805b601f850160051c820191505b81811015615cae57828155600101615c9b565b505050505050565b81516001600160401b03811115615ccf57615ccf615004565b615ce381615cdd8454615c1b565b84615c68565b602080601f831160018114615d185760008415615d005750858301515b600019600386901b1c1916600185901b178555615cae565b600085815260208120601f198616915b82811015615d4757888601518255948401946001909101908401615d28565b5085821015615d655787850151600019600388901b60f8161c191681555b5050505050600190811b01905550565b60008154615d8281615c1b565b60018281168015615d9a5760018114615daf57615dde565b60ff1984168752821515830287019450615dde565b8560005260208060002060005b85811015615dd55781548a820152908401908201615dbc565b50505082870194505b5050505092915050565b600061226c8284615d75565b60008251615e06818460208701614ddb565b9190910192915050565b8181038181111561147857611478615bdc565b600081615e3257615e32615bdc565b506000190190565b818103615e45575050565b615e4f8254615c1b565b6001600160401b03811115615e6657615e66615004565b615e7481615cdd8454615c1b565b6000601f821160018114615ea85760008315615e905750848201545b600019600385901b1c1916600184901b178455614a83565b600085815260209020601f19841690600086815260209020845b83811015615ee25782860154825560019586019590910190602001615ec2565b5085831015615d655793015460001960f8600387901b161c19169092555050600190811b01905550565b634e487b7160e01b600052603160045260246000fdfea264697066735822122023088fd8271f304b511c0a72900018085d12b28bf3e768cddd2681c6d4cd3cd264736f6c63430008130033",
  "immutableReferences": {},
  "source": "// SPDX-License-Identifier: MIT\r\npragma solidity >=0.4.22 <0.9.0;\r\n\r\ncontract VotingSystem {\r\n    address public owner;\r\n    struct Voter {\r\n        uint256 id;\r\n        string key;\r\n        string email;\r\n        bytes32 password;\r\n        string role;\r\n        uint256 status; // 0: no verify, 1: verified, 2:banned\r\n        string token;\r\n    }\r\n\r\n    struct Event {\r\n        uint256 eventId;\r\n        string eventName;\r\n        uint256 categoryId;\r\n        Candidate[] candidates;\r\n        uint256 candidateCount;\r\n        uint256 startDateTime;\r\n        uint256 endDateTime;\r\n        uint256 status; // 1: Upcoming, 2: In Progress, 3: Completed, 4 Cancel\r\n        string eventDesc;\r\n    }\r\n\r\n    struct Category {\r\n        uint256 categoryId;\r\n        string categoryName;\r\n        Event[] events; //category has many event\r\n        uint256 status;\r\n    }\r\n\r\n    struct Candidate {\r\n        uint256 id;\r\n        string name;\r\n        string description;\r\n        uint256 studentId;\r\n        uint256 categoryId;\r\n        uint256 eventId;\r\n        uint256 voteCount;\r\n        bool win;\r\n        string imageFileName;\r\n    }\r\n\r\n    struct voteEventStruct {\r\n        uint256 id;\r\n        string voterKey;\r\n        uint256 categoryId;\r\n        uint256 eventId;\r\n        uint256 votedCandidateId;\r\n        bool voted;\r\n    }\r\n\r\n    event CategoryAdded(uint256 indexed categoryId, string categoryName);\r\n\r\n    event VoterAdded(uint256 indexed voterId, string voter_key);\r\n    event EventAdded(uint256 indexed eventId, string eventName);\r\n\r\n    event CandidateAdded(uint256 indexed eventId, string eventName);\r\n\r\n    event VoteEvent(\r\n        string indexed _voterKey,\r\n        string indexed categoryEvent,\r\n        uint256 indexed candidate\r\n    );\r\n\r\n    mapping(uint256 => Category) categories;\r\n    mapping(uint256 => Event) events;\r\n    mapping(uint256 => Candidate) candidates;\r\n    mapping(uint256 => voteEventStruct) public voteEvents;\r\n    mapping(uint256 => Voter) public voters;\r\n    mapping(string => bool) private usedImageFileNames;\r\n\r\n    uint256 categoryCount;\r\n    uint256 candidateCount;\r\n    uint256 eventCount;\r\n    uint256 voteEventCount;\r\n    uint256 voterCount;\r\n\r\n    constructor() {\r\n        owner = msg.sender;\r\n        addVoter(\"\", \"superadmin@gmail.com\", \"SuperAdmin!123\", \"S\", \"\");\r\n        addVoter(\"acvzxcgasdf\", \"voter@gmail.com\", \"Abc_1234\", \"U\", \"\");\r\n    }\r\n\r\n    function addVoter(\r\n        string memory _key,\r\n        string memory _email,\r\n        string memory _password,\r\n        string memory _role,\r\n        string memory _token\r\n    ) public {\r\n        // total category plus 1, use it as the category's id\r\n        voterCount += 1;\r\n\r\n        bytes32 hashedPassword = keccak256(abi.encodePacked(_password));\r\n\r\n        // add the category details in the category list\r\n        Voter storage voter = voters[voterCount];\r\n        voter.id = voterCount;\r\n        voter.key = _key;\r\n        voter.email = _email;\r\n        voter.password = hashedPassword;\r\n        voter.role = _role;\r\n        voter.status = 0;\r\n        voter.token = _token;\r\n\r\n        // emit the category added event\r\n        emit VoterAdded(voterCount, _key);\r\n    }\r\n\r\n    // function loginVoter(string memory _email, string memory _password)\r\n    //     public\r\n    //     view\r\n    //     returns (Voter memory)\r\n    // {\r\n    //     Voter memory voterFound = getVoterByEmailPassword(_email, _password);\r\n    //     require(voterFound.id != 0, \"Your email or password is incorrect!\");\r\n    //     require(\r\n    //         voterFound.status == 1,\r\n    //         \"Your account was banned or not verify!\"\r\n    //     );\r\n    //     return voterFound;\r\n    // }\r\n\r\n    function compareHashesPassword(\r\n        bytes32 inputPassword,\r\n        bytes32 password\r\n    ) internal pure returns (bool) {\r\n        for (uint256 i = 0; i < 32; i++) {\r\n            if (inputPassword[i] != password[i]) {\r\n                return false;\r\n            }\r\n        }\r\n        return true;\r\n    }\r\n\r\n    function getVoterByEmailPassword(\r\n        string memory _email,\r\n        string memory _password\r\n    ) public view returns (Voter memory) {\r\n        bytes32 hashedPassword = keccak256(abi.encodePacked(_password));\r\n        for (uint256 i = 1; i <= voterCount; i++) {\r\n            if (\r\n                keccak256(bytes(_email)) == keccak256(bytes(voters[i].email)) &&\r\n                compareHashesPassword(hashedPassword, voters[i].password)\r\n            ) {\r\n                return voters[i];\r\n            }\r\n        }\r\n\r\n        // Event not found in the specified category\r\n        return Voter(0, \"\", \"\", \"\", \"\", 0, \"\");\r\n    }\r\n\r\n    function getVoterEmailById(\r\n        uint256 _voterId\r\n    ) public view returns (string memory) {\r\n        require(_voterId > 0 && _voterId <= voterCount, \"Invalid voter ID\");\r\n        return voters[_voterId].email;\r\n    }\r\n\r\n    function updateVoterPassword(\r\n        string memory _key,\r\n        string memory _password\r\n    ) public {\r\n        require(isVoterExist(_key), \"User does not exists\");\r\n\r\n        bytes32 hashedPassword = keccak256(abi.encodePacked(_password));\r\n        for (uint256 i = 1; i <= voterCount; i++) {\r\n            if (keccak256(bytes(_key)) == keccak256(bytes(voters[i].key))) {\r\n                voters[i].password = hashedPassword;\r\n                delete voters[i].token;\r\n            }\r\n        }\r\n    }\r\n\r\n    function verifyVoterAccount(string memory _token) public returns (bool) {\r\n        require(voters[1].id != 0, \"No voter in the list!\");\r\n        for (uint256 i = 1; i <= voterCount; i++) {\r\n            if (keccak256(bytes(_token)) == keccak256(bytes(voters[i].token))) {\r\n                voters[i].status = 1;\r\n                delete voters[i].token;\r\n                return true;\r\n            }\r\n        }\r\n        return false;\r\n    }\r\n\r\n    //\r\n    //     function getVoterStatus(string memory _email, string memory _password)\r\n    //         public\r\n    //         view\r\n    //         returns (uint256 status)\r\n    //     {\r\n    //         Voter memory voterFound = getVoterByEmailPassword(_email, _password);\r\n    //         require(voterFound.id != 0, \"Your email or password is incorrect!\");\r\n    //         return voterFound.status;\r\n    //     }\r\n\r\n    function isVoterExist(string memory _key) public view returns (bool) {\r\n        for (uint256 i = 1; i <= voterCount; i++) {\r\n            if (keccak256(bytes(_key)) == keccak256(bytes(voters[i].key))) {\r\n                return true;\r\n            }\r\n        }\r\n        return false;\r\n    }\r\n\r\n    function getAllVoter() public view returns (Voter[] memory) {\r\n        Voter[] memory allVoters = new Voter[](voterCount);\r\n        for (uint256 i = 1; i <= voterCount; i++) {\r\n            allVoters[i - 1] = voters[i];\r\n        }\r\n        return allVoters;\r\n    }\r\n\r\n    function editUserStatus(uint256 _id, uint256 _status) public {\r\n        // require(_id > 0 && _id <= voterCount, \"User does not exist.\");\r\n\r\n        voters[_id].status = _status;\r\n    }\r\n\r\n    // Function to update the token of a voter based on their email\r\n    function updateVoterTokenByEmail(\r\n        string memory _email,\r\n        string memory _newToken\r\n    ) public {\r\n        for (uint256 i = 1; i <= voterCount; i++) {\r\n            // Update the token if the email matches\r\n            if (keccak256(bytes(_email)) == keccak256(bytes(voters[i].email))) {\r\n                voters[i].token = _newToken;\r\n                break;\r\n            }\r\n        }\r\n    }\r\n\r\n    function addCategory(string memory _categoryName) public {\r\n        // total category plus 1, use it as the category's id\r\n        categoryCount += 1;\r\n\r\n        // add the category details in the category list\r\n        Category storage category = categories[categoryCount];\r\n        category.categoryName = _categoryName;\r\n        category.categoryId = categoryCount;\r\n        category.status = 1;\r\n\r\n        // emit the category added event\r\n        emit CategoryAdded(categoryCount, _categoryName);\r\n    }\r\n\r\n    function updateCategory(\r\n        uint256 _categoryId,\r\n        string memory _categoryName\r\n    ) public {\r\n        categories[_categoryId].categoryName = _categoryName;\r\n    }\r\n\r\n    function deleteCategory(uint256 _categoryId) public {\r\n        // If no associated events, candidates, or vote events, delete the category\r\n        delete categories[_categoryId];\r\n    }\r\n\r\n    function getAllCategory() public view returns (Category[] memory) {\r\n        //Candidate[] memory candidatesFound = new Candidate[](candidateCount);\r\n        Category[] memory categoriesFound = new Category[](categoryCount);\r\n        // Iterate through all stored structs\r\n        for (uint256 i = 1; i <= categoryCount; i++) {\r\n            categoriesFound[i - 1] = categories[i];\r\n        }\r\n\r\n        return categoriesFound;\r\n    }\r\n\r\n    function getCategoryById(\r\n        uint256 _categoryId\r\n    ) public view returns (Category memory) {\r\n        return categories[_categoryId];\r\n    }\r\n\r\n    function getAllEvent() public view returns (Event[] memory) {\r\n        // Initialize the array with the correct size\r\n        Event[] memory eventFound = new Event[](eventCount);\r\n        uint256 count = 0;\r\n\r\n        // Iterate through all categories and events\r\n        for (uint256 i = 0; i < categoryCount; i++) {\r\n            for (uint256 j = 0; j < categories[i + 1].events.length; j++) {\r\n                eventFound[count] = categories[i + 1].events[j];\r\n                count += 1;\r\n            }\r\n        }\r\n\r\n        return eventFound;\r\n    }\r\n\r\n    function addEvent(\r\n        uint256 _categoryId,\r\n        string memory _eventName,\r\n        string memory _eventDesc,\r\n        uint256 _startDateTime,\r\n        uint256 _endDateTime\r\n    ) public {\r\n        // find out the category in list by using the paramerter category name\r\n        Category storage category = categories[_categoryId];\r\n\r\n        // add the event in the category list\r\n        uint256 eventId = eventCount += 1;\r\n\r\n        Event storage newEvent = category.events.push();\r\n        newEvent.eventId = eventId;\r\n        newEvent.eventName = _eventName;\r\n        newEvent.eventDesc = _eventDesc;\r\n        newEvent.categoryId = _categoryId;\r\n        newEvent.status = 1;\r\n        newEvent.startDateTime = _startDateTime;\r\n        newEvent.endDateTime = _endDateTime;\r\n    }\r\n\r\n    /*\r\n    function isEventExists(uint256 _categoryId, string memory _eventName)\r\n        public\r\n        view\r\n        returns (bool)\r\n    {\r\n        // Check if the category exists\r\n        require(\r\n            categories[_categoryId].categoryId != 0,\r\n            \"Category does not exist\"\r\n        );\r\n\r\n        // Loop through the events in the specified category\r\n        for (uint256 i = 0; i < categories[_categoryId].events.length; i++) {\r\n            if (\r\n                keccak256(bytes(categories[_categoryId].events[i].eventName)) ==\r\n                keccak256(bytes(_eventName))\r\n            ) {\r\n                // Event found\r\n                return true;\r\n            }\r\n        }\r\n        // Event not found in the specified category\r\n        return false;\r\n    } */\r\n\r\n    // function isEventStart(\r\n    //     uint256 _categoryId,\r\n    //     string memory _eventName,\r\n    //     uint256 _startDateTime\r\n    // ) public view returns (bool) {\r\n    //     // Check if the category exists\r\n    //     require(\r\n    //         categories[_categoryId].categoryId != 0,\r\n    //         \"Category does not exist\"\r\n    //     );\r\n\r\n    //     require(\r\n    //         isEventExists(_categoryId, _eventName) == true,\r\n    //         \"Event does not exist\"\r\n    //     );\r\n\r\n    //     // Loop through the events in the specified category\r\n    //     for (uint256 i = 0; i < categories[_categoryId].events.length; i++) {\r\n    //         if (\r\n    //             (keccak256(\r\n    //                 bytes(categories[_categoryId].events[i].eventName)\r\n    //             ) ==\r\n    //                 keccak256(bytes(_eventName)) &&\r\n    //                 (_startDateTime >=\r\n    //                     categories[_categoryId].events[i].startDateTime))\r\n    //         ) {\r\n    //             return true;\r\n    //         }\r\n    //     }\r\n\r\n    //     // Event not found in the specified category\r\n    //     return false;\r\n    // }\r\n\r\n    function updateEventDetails(\r\n        uint256 _categoryId,\r\n        uint256 _eventId,\r\n        string memory _eventName,\r\n        string memory _eventDesc,\r\n        uint256 _startDateTime,\r\n        uint256 _endDateTime\r\n    ) public {\r\n        for (uint256 i = 0; i < categories[_categoryId].events.length; i++) {\r\n            if (categories[_categoryId].events[i].eventId == _eventId) {\r\n                Event storage eventToUpdate = categories[_categoryId].events[i];\r\n                // Update the event details\r\n                eventToUpdate.eventName = _eventName;\r\n                eventToUpdate.eventDesc = _eventDesc;\r\n                eventToUpdate.startDateTime = _startDateTime;\r\n                eventToUpdate.endDateTime = _endDateTime;\r\n                break;\r\n            }\r\n        }\r\n    }\r\n\r\n    function deleteEvent(uint256 _categoryId, uint256 _eventId) public {\r\n        for (uint256 i = 0; i < categories[_categoryId].events.length; i++) {\r\n            if (categories[_categoryId].events[i].eventId == _eventId) {\r\n                categories[_categoryId].events[i] = categories[_categoryId]\r\n                    .events[categories[_categoryId].events.length - 1];\r\n                categories[_categoryId].events.pop();\r\n                break;\r\n            }\r\n        }\r\n    }\r\n\r\n    function updateEvent(Event memory _event) public {\r\n        // check if the category is exist\r\n        // require(\r\n        //     categories[_event.categoryId].categoryId != 0,\r\n        //     \"Category does not exists\"\r\n        // );\r\n        // require(\r\n        //     isEventExists(_event.categoryId, _event.eventId),\r\n        //     \"Event does not exist!\"\r\n        // );\r\n\r\n        for (\r\n            uint256 i = 0;\r\n            i < categories[_event.categoryId].events.length;\r\n            i++\r\n        ) {\r\n            if (\r\n                categories[_event.categoryId].events[i].eventId ==\r\n                _event.eventId\r\n            ) {\r\n                Event storage eventToUpdate = categories[_event.categoryId]\r\n                    .events[i];\r\n                // Update the event details\r\n                eventToUpdate.eventName = _event.eventName;\r\n                eventToUpdate.status = _event.status;\r\n                break;\r\n            }\r\n        }\r\n    }\r\n\r\n    function getAllCategoryEvent(\r\n        uint256 _categoryId\r\n    ) public view returns (Event[] memory foundEvent) {\r\n        // find the certain category\r\n        Category storage category = categories[_categoryId];\r\n\r\n        // declare an array variable for storing events\r\n        Event[] memory eventsFound = new Event[](category.events.length);\r\n\r\n        // get all the event name by searching the event in list\r\n        for (uint256 i = 0; i < category.events.length; i++) {\r\n            eventsFound[i] = category.events[i];\r\n        }\r\n\r\n        return (eventsFound);\r\n    }\r\n\r\n    function getEventById(\r\n        uint256 _categoryId,\r\n        uint256 _eventId\r\n    ) public view returns (Event memory) {\r\n        Category storage categoriesFound = categories[_categoryId];\r\n        Event memory eventFound;\r\n        // Iterate through all stored structs\r\n        for (uint256 i = 0; i < categoriesFound.events.length; i++) {\r\n            if (categoriesFound.events[i].eventId == _eventId) {\r\n                eventFound = categoriesFound.events[i];\r\n            }\r\n        }\r\n\r\n        return eventFound;\r\n    }\r\n\r\n    function isEventExists(\r\n        uint256 _categoryId,\r\n        uint256 _eventId\r\n    ) public view returns (bool) {\r\n        // Check if the category exists\r\n        require(\r\n            categories[_categoryId].categoryId != 0,\r\n            \"Category does not exist\"\r\n        );\r\n\r\n        // Loop through the events in the specified category\r\n        for (uint256 i = 0; i < categories[_categoryId].events.length; i++) {\r\n            if (categories[_categoryId].events[i].eventId == _eventId) {\r\n                // Event found\r\n                return true;\r\n            }\r\n        }\r\n\r\n        // Event not found in the specified category\r\n        return false;\r\n    }\r\n\r\n    function addCandidateToEvent(\r\n        uint256 _categoryId,\r\n        uint256 _eventId,\r\n        string memory _candidateName,\r\n        string memory _description,\r\n        uint256 _studentId,\r\n        string memory _imageFileName\r\n    ) public {\r\n        require(\r\n            isCandidateExistsInEvent(_categoryId, _eventId, _studentId) ==\r\n                false,\r\n            \"Candidates already exists\"\r\n        );\r\n        candidateCount += 1;\r\n        // Create a new candidate\r\n        Candidate memory newCandidate = Candidate({\r\n            id: candidateCount,\r\n            name: _candidateName,\r\n            studentId: _studentId,\r\n            categoryId: _categoryId,\r\n            eventId: _eventId,\r\n            description: _description,\r\n            win: false,\r\n            voteCount: 0,\r\n            imageFileName: _imageFileName\r\n        });\r\n\r\n        // find the certain category\r\n        Category storage category = categories[_categoryId];\r\n        // find the certain event in certain category\r\n        for (uint256 i = 0; i < category.events.length; i++) {\r\n            if (category.events[i].eventId == _eventId) {\r\n                category.events[i].candidates.push(newCandidate);\r\n                category.events[i].candidateCount += 1;\r\n            }\r\n        }\r\n\r\n        // Mark the image file name as used\r\n        usedImageFileNames[_imageFileName] = true;\r\n    }\r\n\r\n    function updateCandidateDetails(\r\n        uint256 _id,\r\n        string memory _name,\r\n        string memory _description,\r\n        uint256 _studentId,\r\n        uint256 _categoryId,\r\n        uint256 _eventId,\r\n        string memory _imageFileName\r\n    ) public {\r\n        for (uint256 i = 0; i < categories[_categoryId].events.length; i++) {\r\n            if (categories[_categoryId].events[i].eventId == _eventId) {\r\n                Event storage myEvent = categories[_categoryId].events[i];\r\n\r\n                for (uint256 j = 0; j < myEvent.candidates.length; j++) {\r\n                    if (myEvent.candidates[j].id == _id) {\r\n                        Candidate storage candidateToUpdate = myEvent\r\n                            .candidates[j];\r\n                        candidateToUpdate.name = _name;\r\n                        candidateToUpdate.description = _description;\r\n                        candidateToUpdate.studentId = _studentId;\r\n\r\n                        if (\r\n                            bytes(_imageFileName).length > 0 &&\r\n                            keccak256(bytes(candidateToUpdate.imageFileName)) !=\r\n                            keccak256(bytes(_imageFileName))\r\n                        ) {\r\n                            if (\r\n                                bytes(candidateToUpdate.imageFileName).length >\r\n                                0\r\n                            ) {\r\n                                usedImageFileNames[\r\n                                    candidateToUpdate.imageFileName\r\n                                ] = false;\r\n                            }\r\n                            candidateToUpdate.imageFileName = _imageFileName;\r\n                            usedImageFileNames[_imageFileName] = true;\r\n                        }\r\n                        return;\r\n                    }\r\n                }\r\n            }\r\n        }\r\n    }\r\n\r\n    function deleteCandidate(\r\n        uint256 _categoryId,\r\n        uint256 _eventId,\r\n        uint256 _candidateId\r\n    ) public {\r\n        for (uint256 i = 0; i < categories[_categoryId].events.length; i++) {\r\n            if (categories[_categoryId].events[i].eventId == _eventId) {\r\n                Event storage myEvent = categories[_categoryId].events[i];\r\n\r\n                for (uint256 j = 0; j < myEvent.candidates.length; j++) {\r\n                    if (myEvent.candidates[j].id == _candidateId) {\r\n                        myEvent.candidateCount--;\r\n                        myEvent.candidates[j] = myEvent.candidates[\r\n                            myEvent.candidates.length - 1\r\n                        ];\r\n                        myEvent.candidates.pop();\r\n                        return;\r\n                    }\r\n                }\r\n            }\r\n        }\r\n    }\r\n\r\n    function getCandidateById(\r\n        uint256 _categoryId,\r\n        uint256 _eventId,\r\n        uint256 _candidateId\r\n    ) public view returns (Candidate memory) {\r\n        Category storage categoryFound = categories[_categoryId];\r\n        Event storage eventFound;\r\n        Candidate memory candidateFound;\r\n\r\n        for (uint256 i = 0; i < categoryFound.events.length; i++) {\r\n            if (categoryFound.events[i].eventId == _eventId) {\r\n                eventFound = categoryFound.events[i];\r\n                for (uint256 j = 0; j < eventFound.candidates.length; j++) {\r\n                    if (eventFound.candidates[j].id == _candidateId) {\r\n                        candidateFound = eventFound.candidates[j];\r\n                        break; // Candidate found, break from the inner loop\r\n                    }\r\n                }\r\n                break; // Event found, break from the outer loop\r\n            }\r\n        }\r\n\r\n        return candidateFound;\r\n    }\r\n\r\n    function isImageFileNameUsed(\r\n        string memory _imageFileName\r\n    ) public view returns (bool) {\r\n        return usedImageFileNames[_imageFileName];\r\n    }\r\n\r\n    function isCandidateExistsInEvent(\r\n        uint256 _categoryId,\r\n        uint256 _eventId,\r\n        uint256 _studentId\r\n    ) public view returns (bool) {\r\n        // Check if the category exists\r\n        require(\r\n            categories[_categoryId].categoryId != 0,\r\n            \"Category does not exist\"\r\n        );\r\n\r\n        Candidate[] memory candidatesFound = getAllCandidatesInEvent(\r\n            _categoryId,\r\n            _eventId\r\n        );\r\n\r\n        // Loop through the events in the specified category\r\n\r\n        for (uint256 i = 0; i < candidatesFound.length; i++) {\r\n            if (candidatesFound[i].studentId == _studentId) {\r\n                return true;\r\n            }\r\n        }\r\n\r\n        // Event not found in the specified category\r\n        return false;\r\n    }\r\n\r\n    function getAllCandidatesInEvent(\r\n        uint256 _categoryId,\r\n        uint256 _eventId\r\n    ) public view returns (Candidate[] memory foundCandidates) {\r\n        // find the certain category\r\n        Category storage category = categories[_categoryId];\r\n        // find the certain event in certain category\r\n        for (uint256 i = 0; i < category.events.length; i++) {\r\n            if (category.events[i].eventId == _eventId) {\r\n                Candidate[] memory candidatesFound = new Candidate[](\r\n                    category.events[i].candidateCount\r\n                );\r\n\r\n                for (\r\n                    uint256 j = 0;\r\n                    j < category.events[i].candidates.length;\r\n                    j++\r\n                ) {\r\n                    candidatesFound[j] = category.events[i].candidates[j];\r\n                }\r\n                return (candidatesFound);\r\n            }\r\n        }\r\n    }\r\n\r\n    function getAllCandidates() public view returns (Candidate[] memory) {\r\n        Candidate[] memory candidatesFound = new Candidate[](candidateCount);\r\n        Event[] memory eventFound = new Event[](eventCount);\r\n\r\n        // get all the events\r\n        eventFound = getAllEvent();\r\n        uint256 count = 0;\r\n        // find the candidates inside all the event\r\n        for (uint256 i = 0; i < eventCount; i++) {\r\n            for (uint256 j = 0; j < eventFound[i].candidates.length; j++) {\r\n                candidatesFound[count] = eventFound[i].candidates[j];\r\n                count += 1;\r\n            }\r\n        }\r\n\r\n        return candidatesFound;\r\n    }\r\n\r\n    function vote(\r\n        string memory _voterKey,\r\n        uint256 _candidateId,\r\n        uint256 _categoryId,\r\n        uint256 _eventId\r\n    ) external {\r\n        require(\r\n            categories[_categoryId].categoryId != 0,\r\n            \"Category does not exists\"\r\n        );\r\n\r\n        require(eventCount != 0, \"Event does not exists\");\r\n\r\n        // for (uint256 i = 1; i <= categories[_categoryId].events.length; i++) {\r\n        //     require(categories[_categoryId].events[i-0].eventId == _eventId, \"noobbbbb\");\r\n        // }\r\n\r\n        // require(\r\n        //     isCandidateExistsInEventById(_categoryId, _eventId, _candidateId) ==\r\n        //         true,\r\n        //     \"Candidates does not exists\"\r\n        // );\r\n\r\n        // check if has voted\r\n        for (uint256 i = 1; i <= voteEventCount; i++) {\r\n            if (\r\n                keccak256(bytes(_voterKey)) ==\r\n                keccak256(bytes(voteEvents[i].voterKey)) &&\r\n                _categoryId == voteEvents[i].categoryId &&\r\n                _eventId == voteEvents[i].eventId\r\n            ) {\r\n                require(!voteEvents[i].voted, \"You already voted\");\r\n                break;\r\n            }\r\n        }\r\n\r\n        // add count on the candidate\r\n        voteEventCount += 1;\r\n\r\n        // Create a new voteEventStruct\r\n        voteEventStruct memory newVoteEvent = voteEventStruct({\r\n            id: voteEventCount,\r\n            voterKey: _voterKey,\r\n            categoryId: _categoryId,\r\n            eventId: _eventId,\r\n            votedCandidateId: _candidateId,\r\n            voted: true\r\n        });\r\n\r\n        voteEvents[voteEventCount] = newVoteEvent;\r\n\r\n        // add the vote count of the chosen candidate\r\n        addVoteCountIn(_categoryId, _eventId, _candidateId);\r\n\r\n        string memory concatenatedValues = string(\r\n            abi.encodePacked(_categoryId, _eventId)\r\n        );\r\n\r\n        emit VoteEvent(_voterKey, concatenatedValues, _candidateId);\r\n    }\r\n\r\n    function addVoteCountIn(\r\n        uint256 _categoryId,\r\n        uint256 _eventId,\r\n        uint256 _candidateId\r\n    ) internal {\r\n        // get the events inside the categories\r\n        Event[] storage eventsFound = categories[_categoryId].events;\r\n\r\n        // find the event with param\r\n        for (uint256 i = 0; i < eventsFound.length; i++) {\r\n            if (eventsFound[i].eventId == _eventId) {\r\n                // get the candidate inside the event\r\n                Candidate[] storage candidatesFound = eventsFound[i].candidates;\r\n                // find the candidate\r\n                for (uint256 j = 0; j < candidatesFound.length; j++) {\r\n                    if (candidatesFound[j].id == _candidateId) {\r\n                        // found the candidate and plus 1 at the voteCount\r\n                        candidatesFound[j].voteCount += 1;\r\n                        break;\r\n                    }\r\n                }\r\n            }\r\n        }\r\n    }\r\n\r\n    function getAllVotedHistory()\r\n        public\r\n        view\r\n        returns (voteEventStruct[] memory)\r\n    {\r\n        voteEventStruct[] memory allVoteEvent = new voteEventStruct[](\r\n            voteEventCount\r\n        );\r\n        for (uint256 i = 1; i <= voteEventCount; i++) {\r\n            allVoteEvent[i - 1] = voteEvents[i];\r\n        }\r\n        return allVoteEvent;\r\n    }\r\n\r\n    // function isVoted(\r\n    //     uint256 _categoryId,\r\n    //     uint256 _eventId,\r\n    //     string memory _voterKey\r\n    // ) public view returns (bool) {\r\n    //     // Check if the category exists\r\n    //     require(\r\n    //         categories[_categoryId].categoryId != 0,\r\n    //         \"Category does not exist\"\r\n    //     );\r\n\r\n    //     for (uint256 i = 1; i <= voteEventCount; i++) {\r\n    //         if (\r\n    //             voteEvents[i].categoryId == _categoryId &&\r\n    //             voteEvents[i].eventId == _eventId &&\r\n    //             keccak256(bytes(voteEvents[i].voterKey)) ==\r\n    //             keccak256(bytes(_voterKey))\r\n    //         ) {\r\n    //             return voteEvents[i].voted;\r\n    //         }\r\n    //     }\r\n\r\n    //     return false;\r\n    // }\r\n\r\n    // function getVoteEventCandidate(uint256 _categoryId, uint256 _eventId)\r\n    //     public\r\n    //     view\r\n    //     returns (Candidate[] memory)\r\n    // {\r\n    //     Event[] storage eventsFound = categories[_categoryId].events;\r\n\r\n    //     for (uint256 i = 0; i < eventsFound.length; i++) {\r\n    //         if (eventsFound[i].eventId == _eventId) {\r\n    //             return eventsFound[i].candidates;\r\n    //         }\r\n    //     }\r\n\r\n    //     // If the event is not found, return an empty array or handle the situation accordingly\r\n    //     return new Candidate[](0);\r\n    // }\r\n\r\n    function markWinner(uint256 _categoryId, uint256 _eventId) public {\r\n        categories[_categoryId].events;\r\n\r\n        for (uint256 i = 0; i < categories[_categoryId].events.length; i++) {\r\n            if (categories[_categoryId].events[i].eventId == _eventId) {\r\n                Candidate storage winner = categories[_categoryId]\r\n                    .events[i]\r\n                    .candidates[0];\r\n                for (\r\n                    uint256 j = 0;\r\n                    j < categories[_categoryId].events[i].candidates.length - 1;\r\n                    j++\r\n                ) {\r\n                    if (\r\n                        winner.voteCount <\r\n                        categories[_categoryId]\r\n                            .events[i]\r\n                            .candidates[j + 1]\r\n                            .voteCount\r\n                    ) {\r\n                        winner = categories[_categoryId].events[i].candidates[\r\n                            j + 1\r\n                        ];\r\n                    }\r\n                }\r\n                winner.win = true;\r\n            }\r\n        }\r\n    }\r\n\r\n    // function isMarkWinner(uint256 _categoryId, uint256 _eventId)\r\n    //     public\r\n    //     view\r\n    //     returns (bool isMarket)\r\n    // {\r\n    //     Event[] memory eventsFound = categories[_categoryId].events;\r\n    //     Candidate[] memory candidatesFound;\r\n\r\n    //     for (uint256 i = 0; i < eventsFound.length; i++) {\r\n    //         if (eventsFound[i].eventId == _eventId) {\r\n    //             candidatesFound = eventsFound[i].candidates;\r\n    //         }\r\n    //     }\r\n\r\n    //     for (uint256 i = 0; i < candidatesFound.length - 1; i++) {\r\n    //         if (candidatesFound[i].win == true) {\r\n    //             return true;\r\n    //         }\r\n    //     }\r\n    //     return false;\r\n    // }\r\n\r\n    // function whoIsTheWinner(uint256 _categoryId, uint256 _eventId)\r\n    //     public\r\n    //     view\r\n    //     returns (Candidate memory)\r\n    // {\r\n    //     Event[] memory eventsFound = categories[_categoryId].events;\r\n    //     Candidate[] memory candidatesFound;\r\n\r\n    //     for (uint256 i = 0; i < eventsFound.length; i++) {\r\n    //         if (eventsFound[i].eventId == _eventId) {\r\n    //             candidatesFound = eventsFound[i].candidates;\r\n    //         }\r\n    //     }\r\n\r\n    //     Candidate memory winner = candidatesFound[0];\r\n\r\n    //     for (uint256 i = 0; i < candidatesFound.length - 1; i++) {\r\n    //         if (winner.voteCount < candidatesFound[i + 1].voteCount) {\r\n    //             winner = candidatesFound[i + 1];\r\n    //         }\r\n    //     }\r\n\r\n    //     winner.win = true;\r\n\r\n    //     return winner;\r\n    // }\r\n}\r\n",
  "sourcePath": "C:\\Users\\User\\FYP1\\contracts\\VotingSystem.sol",
  "compiler": {
    "name": "solc",
    "version": "0.8.19+commit.7dd6d404.Emscripten.clang"
  },
  "schemaVersion": "3.4.16",
  "updatedAt": "2023-12-25T10:04:00.454Z",
  "networkType": "ethereum",
  "devdoc": {
    "kind": "dev",
    "methods": {},
    "version": 1
  },
  "userdoc": {
    "kind": "user",
    "methods": {},
    "version": 1
  }
}