{
  "contractName": "VotingSystem",
  "abi": [
    {
      "inputs": [],
      "stateMutability": "nonpayable",
      "type": "constructor"
    },
    {
      "anonymous": false,
      "inputs": [
        {
          "indexed": true,
          "internalType": "uint256",
          "name": "eventId",
          "type": "uint256"
        },
        {
          "indexed": false,
          "internalType": "string",
          "name": "eventName",
          "type": "string"
        }
      ],
      "name": "CandidateAdded",
      "type": "event"
    },
    {
      "anonymous": false,
      "inputs": [
        {
          "indexed": true,
          "internalType": "uint256",
          "name": "categoryId",
          "type": "uint256"
        },
        {
          "indexed": false,
          "internalType": "string",
          "name": "categoryName",
          "type": "string"
        }
      ],
      "name": "CategoryAdded",
      "type": "event"
    },
    {
      "anonymous": false,
      "inputs": [
        {
          "indexed": true,
          "internalType": "uint256",
          "name": "eventId",
          "type": "uint256"
        },
        {
          "indexed": false,
          "internalType": "string",
          "name": "eventName",
          "type": "string"
        }
      ],
      "name": "EventAdded",
      "type": "event"
    },
    {
      "anonymous": false,
      "inputs": [
        {
          "indexed": true,
          "internalType": "string",
          "name": "_voterKey",
          "type": "string"
        },
        {
          "indexed": true,
          "internalType": "string",
          "name": "categoryEvent",
          "type": "string"
        },
        {
          "indexed": true,
          "internalType": "uint256",
          "name": "candidate",
          "type": "uint256"
        }
      ],
      "name": "VoteEvent",
      "type": "event"
    },
    {
      "anonymous": false,
      "inputs": [
        {
          "indexed": true,
          "internalType": "uint256",
          "name": "voterId",
          "type": "uint256"
        },
        {
          "indexed": false,
          "internalType": "string",
          "name": "voter_key",
          "type": "string"
        }
      ],
      "name": "VoterAdded",
      "type": "event"
    },
    {
      "inputs": [],
      "name": "owner",
      "outputs": [
        {
          "internalType": "address",
          "name": "",
          "type": "address"
        }
      ],
      "stateMutability": "view",
      "type": "function",
      "constant": true
    },
    {
      "inputs": [
        {
          "internalType": "uint256",
          "name": "",
          "type": "uint256"
        }
      ],
      "name": "voteEvents",
      "outputs": [
        {
          "internalType": "uint256",
          "name": "id",
          "type": "uint256"
        },
        {
          "internalType": "string",
          "name": "voterKey",
          "type": "string"
        },
        {
          "internalType": "uint256",
          "name": "categoryId",
          "type": "uint256"
        },
        {
          "internalType": "uint256",
          "name": "eventId",
          "type": "uint256"
        },
        {
          "internalType": "bool",
          "name": "voted",
          "type": "bool"
        }
      ],
      "stateMutability": "view",
      "type": "function",
      "constant": true
    },
    {
      "inputs": [
        {
          "internalType": "uint256",
          "name": "",
          "type": "uint256"
        }
      ],
      "name": "voters",
      "outputs": [
        {
          "internalType": "uint256",
          "name": "id",
          "type": "uint256"
        },
        {
          "internalType": "string",
          "name": "key",
          "type": "string"
        },
        {
          "internalType": "string",
          "name": "email",
          "type": "string"
        },
        {
          "internalType": "bytes32",
          "name": "password",
          "type": "bytes32"
        },
        {
          "internalType": "string",
          "name": "role",
          "type": "string"
        },
        {
          "internalType": "uint256",
          "name": "status",
          "type": "uint256"
        },
        {
          "internalType": "string",
          "name": "token",
          "type": "string"
        }
      ],
      "stateMutability": "view",
      "type": "function",
      "constant": true
    },
    {
      "inputs": [
        {
          "internalType": "string",
          "name": "_email",
          "type": "string"
        },
        {
          "internalType": "string",
          "name": "_password",
          "type": "string"
        }
      ],
      "name": "loginVoter",
      "outputs": [
        {
          "components": [
            {
              "internalType": "uint256",
              "name": "id",
              "type": "uint256"
            },
            {
              "internalType": "string",
              "name": "key",
              "type": "string"
            },
            {
              "internalType": "string",
              "name": "email",
              "type": "string"
            },
            {
              "internalType": "bytes32",
              "name": "password",
              "type": "bytes32"
            },
            {
              "internalType": "string",
              "name": "role",
              "type": "string"
            },
            {
              "internalType": "uint256",
              "name": "status",
              "type": "uint256"
            },
            {
              "internalType": "string",
              "name": "token",
              "type": "string"
            }
          ],
          "internalType": "struct VotingSystem.Voter",
          "name": "",
          "type": "tuple"
        }
      ],
      "stateMutability": "view",
      "type": "function",
      "constant": true
    },
    {
      "inputs": [
        {
          "internalType": "string",
          "name": "_email",
          "type": "string"
        },
        {
          "internalType": "string",
          "name": "_password",
          "type": "string"
        }
      ],
      "name": "getVoterByEmailPassword",
      "outputs": [
        {
          "components": [
            {
              "internalType": "uint256",
              "name": "id",
              "type": "uint256"
            },
            {
              "internalType": "string",
              "name": "key",
              "type": "string"
            },
            {
              "internalType": "string",
              "name": "email",
              "type": "string"
            },
            {
              "internalType": "bytes32",
              "name": "password",
              "type": "bytes32"
            },
            {
              "internalType": "string",
              "name": "role",
              "type": "string"
            },
            {
              "internalType": "uint256",
              "name": "status",
              "type": "uint256"
            },
            {
              "internalType": "string",
              "name": "token",
              "type": "string"
            }
          ],
          "internalType": "struct VotingSystem.Voter",
          "name": "",
          "type": "tuple"
        }
      ],
      "stateMutability": "view",
      "type": "function",
      "constant": true
    },
    {
      "inputs": [
        {
          "internalType": "uint256",
          "name": "_voterId",
          "type": "uint256"
        }
      ],
      "name": "getVoterEmailById",
      "outputs": [
        {
          "internalType": "string",
          "name": "",
          "type": "string"
        }
      ],
      "stateMutability": "view",
      "type": "function",
      "constant": true
    },
    {
      "inputs": [
        {
          "internalType": "string",
          "name": "_key",
          "type": "string"
        },
        {
          "internalType": "string",
          "name": "_password",
          "type": "string"
        }
      ],
      "name": "updateVoterPassword",
      "outputs": [],
      "stateMutability": "nonpayable",
      "type": "function"
    },
    {
      "inputs": [
        {
          "internalType": "string",
          "name": "_token",
          "type": "string"
        }
      ],
      "name": "verifyVoterAccount",
      "outputs": [
        {
          "internalType": "bool",
          "name": "",
          "type": "bool"
        }
      ],
      "stateMutability": "nonpayable",
      "type": "function"
    },
    {
      "inputs": [
        {
          "internalType": "string",
          "name": "_email",
          "type": "string"
        },
        {
          "internalType": "string",
          "name": "_password",
          "type": "string"
        }
      ],
      "name": "getVoterStatus",
      "outputs": [
        {
          "internalType": "uint256",
          "name": "status",
          "type": "uint256"
        }
      ],
      "stateMutability": "view",
      "type": "function",
      "constant": true
    },
    {
      "inputs": [
        {
          "internalType": "string",
          "name": "_email",
          "type": "string"
        },
        {
          "internalType": "string",
          "name": "_password",
          "type": "string"
        }
      ],
      "name": "checkVoterEmailPassword",
      "outputs": [
        {
          "internalType": "bool",
          "name": "foundVoter",
          "type": "bool"
        }
      ],
      "stateMutability": "view",
      "type": "function",
      "constant": true
    },
    {
      "inputs": [
        {
          "internalType": "string",
          "name": "_key",
          "type": "string"
        }
      ],
      "name": "isVoterExist",
      "outputs": [
        {
          "internalType": "bool",
          "name": "",
          "type": "bool"
        }
      ],
      "stateMutability": "view",
      "type": "function",
      "constant": true
    },
    {
      "inputs": [
        {
          "internalType": "string",
          "name": "_categoryName",
          "type": "string"
        }
      ],
      "name": "addCategory",
      "outputs": [],
      "stateMutability": "nonpayable",
      "type": "function"
    },
    {
      "inputs": [
        {
          "components": [
            {
              "internalType": "uint256",
              "name": "categoryId",
              "type": "uint256"
            },
            {
              "internalType": "string",
              "name": "categoryName",
              "type": "string"
            },
            {
              "components": [
                {
                  "internalType": "uint256",
                  "name": "eventId",
                  "type": "uint256"
                },
                {
                  "internalType": "string",
                  "name": "eventName",
                  "type": "string"
                },
                {
                  "internalType": "uint256",
                  "name": "categoryId",
                  "type": "uint256"
                },
                {
                  "components": [
                    {
                      "internalType": "uint256",
                      "name": "id",
                      "type": "uint256"
                    },
                    {
                      "internalType": "string",
                      "name": "name",
                      "type": "string"
                    },
                    {
                      "internalType": "string",
                      "name": "description",
                      "type": "string"
                    },
                    {
                      "internalType": "uint256",
                      "name": "studentId",
                      "type": "uint256"
                    },
                    {
                      "internalType": "uint256",
                      "name": "categoryId",
                      "type": "uint256"
                    },
                    {
                      "internalType": "uint256",
                      "name": "eventId",
                      "type": "uint256"
                    },
                    {
                      "internalType": "uint256",
                      "name": "voteCount",
                      "type": "uint256"
                    },
                    {
                      "internalType": "bool",
                      "name": "win",
                      "type": "bool"
                    },
                    {
                      "internalType": "string",
                      "name": "imageFileName",
                      "type": "string"
                    }
                  ],
                  "internalType": "struct VotingSystem.Candidate[]",
                  "name": "candidates",
                  "type": "tuple[]"
                },
                {
                  "internalType": "uint256",
                  "name": "candidateCount",
                  "type": "uint256"
                },
                {
                  "internalType": "uint256",
                  "name": "startDateTime",
                  "type": "uint256"
                },
                {
                  "internalType": "uint256",
                  "name": "endDateTime",
                  "type": "uint256"
                },
                {
                  "internalType": "uint256",
                  "name": "status",
                  "type": "uint256"
                }
              ],
              "internalType": "struct VotingSystem.Event[]",
              "name": "events",
              "type": "tuple[]"
            },
            {
              "internalType": "uint256",
              "name": "status",
              "type": "uint256"
            }
          ],
          "internalType": "struct VotingSystem.Category",
          "name": "_category",
          "type": "tuple"
        }
      ],
      "name": "updateCategory",
      "outputs": [],
      "stateMutability": "nonpayable",
      "type": "function"
    },
    {
      "inputs": [
        {
          "internalType": "uint256",
          "name": "_categoryId",
          "type": "uint256"
        },
        {
          "internalType": "string",
          "name": "_newCategoryName",
          "type": "string"
        }
      ],
      "name": "updateCategoryName",
      "outputs": [],
      "stateMutability": "nonpayable",
      "type": "function"
    },
    {
      "inputs": [
        {
          "internalType": "uint256",
          "name": "_categoryId",
          "type": "uint256"
        }
      ],
      "name": "deleteCategory",
      "outputs": [],
      "stateMutability": "nonpayable",
      "type": "function"
    },
    {
      "inputs": [
        {
          "internalType": "uint256",
          "name": "_categoryId",
          "type": "uint256"
        },
        {
          "internalType": "string",
          "name": "_eventName",
          "type": "string"
        },
        {
          "internalType": "uint256",
          "name": "_startDateTime",
          "type": "uint256"
        },
        {
          "internalType": "uint256",
          "name": "_endDateTime",
          "type": "uint256"
        }
      ],
      "name": "addEvent",
      "outputs": [],
      "stateMutability": "nonpayable",
      "type": "function"
    },
    {
      "inputs": [
        {
          "components": [
            {
              "internalType": "uint256",
              "name": "eventId",
              "type": "uint256"
            },
            {
              "internalType": "string",
              "name": "eventName",
              "type": "string"
            },
            {
              "internalType": "uint256",
              "name": "categoryId",
              "type": "uint256"
            },
            {
              "components": [
                {
                  "internalType": "uint256",
                  "name": "id",
                  "type": "uint256"
                },
                {
                  "internalType": "string",
                  "name": "name",
                  "type": "string"
                },
                {
                  "internalType": "string",
                  "name": "description",
                  "type": "string"
                },
                {
                  "internalType": "uint256",
                  "name": "studentId",
                  "type": "uint256"
                },
                {
                  "internalType": "uint256",
                  "name": "categoryId",
                  "type": "uint256"
                },
                {
                  "internalType": "uint256",
                  "name": "eventId",
                  "type": "uint256"
                },
                {
                  "internalType": "uint256",
                  "name": "voteCount",
                  "type": "uint256"
                },
                {
                  "internalType": "bool",
                  "name": "win",
                  "type": "bool"
                },
                {
                  "internalType": "string",
                  "name": "imageFileName",
                  "type": "string"
                }
              ],
              "internalType": "struct VotingSystem.Candidate[]",
              "name": "candidates",
              "type": "tuple[]"
            },
            {
              "internalType": "uint256",
              "name": "candidateCount",
              "type": "uint256"
            },
            {
              "internalType": "uint256",
              "name": "startDateTime",
              "type": "uint256"
            },
            {
              "internalType": "uint256",
              "name": "endDateTime",
              "type": "uint256"
            },
            {
              "internalType": "uint256",
              "name": "status",
              "type": "uint256"
            }
          ],
          "internalType": "struct VotingSystem.Event",
          "name": "_event",
          "type": "tuple"
        }
      ],
      "name": "updateEvent",
      "outputs": [],
      "stateMutability": "nonpayable",
      "type": "function"
    },
    {
      "inputs": [
        {
          "internalType": "uint256",
          "name": "_categoryId",
          "type": "uint256"
        },
        {
          "internalType": "uint256",
          "name": "_eventId",
          "type": "uint256"
        },
        {
          "internalType": "string",
          "name": "_candidateName",
          "type": "string"
        },
        {
          "internalType": "string",
          "name": "_description",
          "type": "string"
        },
        {
          "internalType": "uint256",
          "name": "_studentId",
          "type": "uint256"
        },
        {
          "internalType": "string",
          "name": "_imageFileName",
          "type": "string"
        }
      ],
      "name": "addCandidateToEvent",
      "outputs": [],
      "stateMutability": "nonpayable",
      "type": "function"
    },
    {
      "inputs": [
        {
          "internalType": "string",
          "name": "_imageFileName",
          "type": "string"
        }
      ],
      "name": "isImageFileNameUsed",
      "outputs": [
        {
          "internalType": "bool",
          "name": "",
          "type": "bool"
        }
      ],
      "stateMutability": "view",
      "type": "function",
      "constant": true
    },
    {
      "inputs": [
        {
          "internalType": "uint256",
          "name": "_categoryId",
          "type": "uint256"
        },
        {
          "internalType": "uint256",
          "name": "_eventId",
          "type": "uint256"
        },
        {
          "internalType": "uint256",
          "name": "_studentId",
          "type": "uint256"
        }
      ],
      "name": "isCandidateExistsInEvent",
      "outputs": [
        {
          "internalType": "bool",
          "name": "",
          "type": "bool"
        }
      ],
      "stateMutability": "view",
      "type": "function",
      "constant": true
    },
    {
      "inputs": [
        {
          "internalType": "uint256",
          "name": "_categoryId",
          "type": "uint256"
        },
        {
          "internalType": "uint256",
          "name": "_eventId",
          "type": "uint256"
        },
        {
          "internalType": "uint256",
          "name": "_candidateId",
          "type": "uint256"
        }
      ],
      "name": "isCandidateExistsInEventById",
      "outputs": [
        {
          "internalType": "bool",
          "name": "",
          "type": "bool"
        }
      ],
      "stateMutability": "view",
      "type": "function",
      "constant": true
    },
    {
      "inputs": [
        {
          "internalType": "uint256",
          "name": "_categoryId",
          "type": "uint256"
        },
        {
          "internalType": "uint256",
          "name": "_eventId",
          "type": "uint256"
        }
      ],
      "name": "isEventExists",
      "outputs": [
        {
          "internalType": "bool",
          "name": "",
          "type": "bool"
        }
      ],
      "stateMutability": "view",
      "type": "function",
      "constant": true
    },
    {
      "inputs": [
        {
          "internalType": "uint256",
          "name": "_categoryId",
          "type": "uint256"
        },
        {
          "internalType": "string",
          "name": "_eventName",
          "type": "string"
        }
      ],
      "name": "isEventExists",
      "outputs": [
        {
          "internalType": "bool",
          "name": "",
          "type": "bool"
        }
      ],
      "stateMutability": "view",
      "type": "function",
      "constant": true
    },
    {
      "inputs": [
        {
          "internalType": "uint256",
          "name": "_categoryId",
          "type": "uint256"
        }
      ],
      "name": "getAllCategoryEvent",
      "outputs": [
        {
          "components": [
            {
              "internalType": "uint256",
              "name": "eventId",
              "type": "uint256"
            },
            {
              "internalType": "string",
              "name": "eventName",
              "type": "string"
            },
            {
              "internalType": "uint256",
              "name": "categoryId",
              "type": "uint256"
            },
            {
              "components": [
                {
                  "internalType": "uint256",
                  "name": "id",
                  "type": "uint256"
                },
                {
                  "internalType": "string",
                  "name": "name",
                  "type": "string"
                },
                {
                  "internalType": "string",
                  "name": "description",
                  "type": "string"
                },
                {
                  "internalType": "uint256",
                  "name": "studentId",
                  "type": "uint256"
                },
                {
                  "internalType": "uint256",
                  "name": "categoryId",
                  "type": "uint256"
                },
                {
                  "internalType": "uint256",
                  "name": "eventId",
                  "type": "uint256"
                },
                {
                  "internalType": "uint256",
                  "name": "voteCount",
                  "type": "uint256"
                },
                {
                  "internalType": "bool",
                  "name": "win",
                  "type": "bool"
                },
                {
                  "internalType": "string",
                  "name": "imageFileName",
                  "type": "string"
                }
              ],
              "internalType": "struct VotingSystem.Candidate[]",
              "name": "candidates",
              "type": "tuple[]"
            },
            {
              "internalType": "uint256",
              "name": "candidateCount",
              "type": "uint256"
            },
            {
              "internalType": "uint256",
              "name": "startDateTime",
              "type": "uint256"
            },
            {
              "internalType": "uint256",
              "name": "endDateTime",
              "type": "uint256"
            },
            {
              "internalType": "uint256",
              "name": "status",
              "type": "uint256"
            }
          ],
          "internalType": "struct VotingSystem.Event[]",
          "name": "foundEvent",
          "type": "tuple[]"
        }
      ],
      "stateMutability": "view",
      "type": "function",
      "constant": true
    },
    {
      "inputs": [
        {
          "internalType": "uint256",
          "name": "_categoryId",
          "type": "uint256"
        },
        {
          "internalType": "uint256",
          "name": "_eventId",
          "type": "uint256"
        }
      ],
      "name": "getAllCandidatesInEvent",
      "outputs": [
        {
          "components": [
            {
              "internalType": "uint256",
              "name": "id",
              "type": "uint256"
            },
            {
              "internalType": "string",
              "name": "name",
              "type": "string"
            },
            {
              "internalType": "string",
              "name": "description",
              "type": "string"
            },
            {
              "internalType": "uint256",
              "name": "studentId",
              "type": "uint256"
            },
            {
              "internalType": "uint256",
              "name": "categoryId",
              "type": "uint256"
            },
            {
              "internalType": "uint256",
              "name": "eventId",
              "type": "uint256"
            },
            {
              "internalType": "uint256",
              "name": "voteCount",
              "type": "uint256"
            },
            {
              "internalType": "bool",
              "name": "win",
              "type": "bool"
            },
            {
              "internalType": "string",
              "name": "imageFileName",
              "type": "string"
            }
          ],
          "internalType": "struct VotingSystem.Candidate[]",
          "name": "foundCandidates",
          "type": "tuple[]"
        }
      ],
      "stateMutability": "view",
      "type": "function",
      "constant": true
    },
    {
      "inputs": [],
      "name": "getAllCandidates",
      "outputs": [
        {
          "components": [
            {
              "internalType": "uint256",
              "name": "id",
              "type": "uint256"
            },
            {
              "internalType": "string",
              "name": "name",
              "type": "string"
            },
            {
              "internalType": "string",
              "name": "description",
              "type": "string"
            },
            {
              "internalType": "uint256",
              "name": "studentId",
              "type": "uint256"
            },
            {
              "internalType": "uint256",
              "name": "categoryId",
              "type": "uint256"
            },
            {
              "internalType": "uint256",
              "name": "eventId",
              "type": "uint256"
            },
            {
              "internalType": "uint256",
              "name": "voteCount",
              "type": "uint256"
            },
            {
              "internalType": "bool",
              "name": "win",
              "type": "bool"
            },
            {
              "internalType": "string",
              "name": "imageFileName",
              "type": "string"
            }
          ],
          "internalType": "struct VotingSystem.Candidate[]",
          "name": "",
          "type": "tuple[]"
        }
      ],
      "stateMutability": "view",
      "type": "function",
      "constant": true
    },
    {
      "inputs": [],
      "name": "getAllCategory",
      "outputs": [
        {
          "components": [
            {
              "internalType": "uint256",
              "name": "categoryId",
              "type": "uint256"
            },
            {
              "internalType": "string",
              "name": "categoryName",
              "type": "string"
            },
            {
              "components": [
                {
                  "internalType": "uint256",
                  "name": "eventId",
                  "type": "uint256"
                },
                {
                  "internalType": "string",
                  "name": "eventName",
                  "type": "string"
                },
                {
                  "internalType": "uint256",
                  "name": "categoryId",
                  "type": "uint256"
                },
                {
                  "components": [
                    {
                      "internalType": "uint256",
                      "name": "id",
                      "type": "uint256"
                    },
                    {
                      "internalType": "string",
                      "name": "name",
                      "type": "string"
                    },
                    {
                      "internalType": "string",
                      "name": "description",
                      "type": "string"
                    },
                    {
                      "internalType": "uint256",
                      "name": "studentId",
                      "type": "uint256"
                    },
                    {
                      "internalType": "uint256",
                      "name": "categoryId",
                      "type": "uint256"
                    },
                    {
                      "internalType": "uint256",
                      "name": "eventId",
                      "type": "uint256"
                    },
                    {
                      "internalType": "uint256",
                      "name": "voteCount",
                      "type": "uint256"
                    },
                    {
                      "internalType": "bool",
                      "name": "win",
                      "type": "bool"
                    },
                    {
                      "internalType": "string",
                      "name": "imageFileName",
                      "type": "string"
                    }
                  ],
                  "internalType": "struct VotingSystem.Candidate[]",
                  "name": "candidates",
                  "type": "tuple[]"
                },
                {
                  "internalType": "uint256",
                  "name": "candidateCount",
                  "type": "uint256"
                },
                {
                  "internalType": "uint256",
                  "name": "startDateTime",
                  "type": "uint256"
                },
                {
                  "internalType": "uint256",
                  "name": "endDateTime",
                  "type": "uint256"
                },
                {
                  "internalType": "uint256",
                  "name": "status",
                  "type": "uint256"
                }
              ],
              "internalType": "struct VotingSystem.Event[]",
              "name": "events",
              "type": "tuple[]"
            },
            {
              "internalType": "uint256",
              "name": "status",
              "type": "uint256"
            }
          ],
          "internalType": "struct VotingSystem.Category[]",
          "name": "",
          "type": "tuple[]"
        }
      ],
      "stateMutability": "view",
      "type": "function",
      "constant": true
    },
    {
      "inputs": [
        {
          "internalType": "uint256",
          "name": "_categoryId",
          "type": "uint256"
        }
      ],
      "name": "getCategoryById",
      "outputs": [
        {
          "components": [
            {
              "internalType": "uint256",
              "name": "categoryId",
              "type": "uint256"
            },
            {
              "internalType": "string",
              "name": "categoryName",
              "type": "string"
            },
            {
              "components": [
                {
                  "internalType": "uint256",
                  "name": "eventId",
                  "type": "uint256"
                },
                {
                  "internalType": "string",
                  "name": "eventName",
                  "type": "string"
                },
                {
                  "internalType": "uint256",
                  "name": "categoryId",
                  "type": "uint256"
                },
                {
                  "components": [
                    {
                      "internalType": "uint256",
                      "name": "id",
                      "type": "uint256"
                    },
                    {
                      "internalType": "string",
                      "name": "name",
                      "type": "string"
                    },
                    {
                      "internalType": "string",
                      "name": "description",
                      "type": "string"
                    },
                    {
                      "internalType": "uint256",
                      "name": "studentId",
                      "type": "uint256"
                    },
                    {
                      "internalType": "uint256",
                      "name": "categoryId",
                      "type": "uint256"
                    },
                    {
                      "internalType": "uint256",
                      "name": "eventId",
                      "type": "uint256"
                    },
                    {
                      "internalType": "uint256",
                      "name": "voteCount",
                      "type": "uint256"
                    },
                    {
                      "internalType": "bool",
                      "name": "win",
                      "type": "bool"
                    },
                    {
                      "internalType": "string",
                      "name": "imageFileName",
                      "type": "string"
                    }
                  ],
                  "internalType": "struct VotingSystem.Candidate[]",
                  "name": "candidates",
                  "type": "tuple[]"
                },
                {
                  "internalType": "uint256",
                  "name": "candidateCount",
                  "type": "uint256"
                },
                {
                  "internalType": "uint256",
                  "name": "startDateTime",
                  "type": "uint256"
                },
                {
                  "internalType": "uint256",
                  "name": "endDateTime",
                  "type": "uint256"
                },
                {
                  "internalType": "uint256",
                  "name": "status",
                  "type": "uint256"
                }
              ],
              "internalType": "struct VotingSystem.Event[]",
              "name": "events",
              "type": "tuple[]"
            },
            {
              "internalType": "uint256",
              "name": "status",
              "type": "uint256"
            }
          ],
          "internalType": "struct VotingSystem.Category",
          "name": "",
          "type": "tuple"
        }
      ],
      "stateMutability": "view",
      "type": "function",
      "constant": true
    },
    {
      "inputs": [],
      "name": "getAllEvent",
      "outputs": [
        {
          "components": [
            {
              "internalType": "uint256",
              "name": "eventId",
              "type": "uint256"
            },
            {
              "internalType": "string",
              "name": "eventName",
              "type": "string"
            },
            {
              "internalType": "uint256",
              "name": "categoryId",
              "type": "uint256"
            },
            {
              "components": [
                {
                  "internalType": "uint256",
                  "name": "id",
                  "type": "uint256"
                },
                {
                  "internalType": "string",
                  "name": "name",
                  "type": "string"
                },
                {
                  "internalType": "string",
                  "name": "description",
                  "type": "string"
                },
                {
                  "internalType": "uint256",
                  "name": "studentId",
                  "type": "uint256"
                },
                {
                  "internalType": "uint256",
                  "name": "categoryId",
                  "type": "uint256"
                },
                {
                  "internalType": "uint256",
                  "name": "eventId",
                  "type": "uint256"
                },
                {
                  "internalType": "uint256",
                  "name": "voteCount",
                  "type": "uint256"
                },
                {
                  "internalType": "bool",
                  "name": "win",
                  "type": "bool"
                },
                {
                  "internalType": "string",
                  "name": "imageFileName",
                  "type": "string"
                }
              ],
              "internalType": "struct VotingSystem.Candidate[]",
              "name": "candidates",
              "type": "tuple[]"
            },
            {
              "internalType": "uint256",
              "name": "candidateCount",
              "type": "uint256"
            },
            {
              "internalType": "uint256",
              "name": "startDateTime",
              "type": "uint256"
            },
            {
              "internalType": "uint256",
              "name": "endDateTime",
              "type": "uint256"
            },
            {
              "internalType": "uint256",
              "name": "status",
              "type": "uint256"
            }
          ],
          "internalType": "struct VotingSystem.Event[]",
          "name": "",
          "type": "tuple[]"
        }
      ],
      "stateMutability": "view",
      "type": "function",
      "constant": true
    },
    {
      "inputs": [
        {
          "internalType": "uint256",
          "name": "_categoryId",
          "type": "uint256"
        },
        {
          "internalType": "uint256",
          "name": "_eventId",
          "type": "uint256"
        }
      ],
      "name": "getEventById",
      "outputs": [
        {
          "components": [
            {
              "internalType": "uint256",
              "name": "eventId",
              "type": "uint256"
            },
            {
              "internalType": "string",
              "name": "eventName",
              "type": "string"
            },
            {
              "internalType": "uint256",
              "name": "categoryId",
              "type": "uint256"
            },
            {
              "components": [
                {
                  "internalType": "uint256",
                  "name": "id",
                  "type": "uint256"
                },
                {
                  "internalType": "string",
                  "name": "name",
                  "type": "string"
                },
                {
                  "internalType": "string",
                  "name": "description",
                  "type": "string"
                },
                {
                  "internalType": "uint256",
                  "name": "studentId",
                  "type": "uint256"
                },
                {
                  "internalType": "uint256",
                  "name": "categoryId",
                  "type": "uint256"
                },
                {
                  "internalType": "uint256",
                  "name": "eventId",
                  "type": "uint256"
                },
                {
                  "internalType": "uint256",
                  "name": "voteCount",
                  "type": "uint256"
                },
                {
                  "internalType": "bool",
                  "name": "win",
                  "type": "bool"
                },
                {
                  "internalType": "string",
                  "name": "imageFileName",
                  "type": "string"
                }
              ],
              "internalType": "struct VotingSystem.Candidate[]",
              "name": "candidates",
              "type": "tuple[]"
            },
            {
              "internalType": "uint256",
              "name": "candidateCount",
              "type": "uint256"
            },
            {
              "internalType": "uint256",
              "name": "startDateTime",
              "type": "uint256"
            },
            {
              "internalType": "uint256",
              "name": "endDateTime",
              "type": "uint256"
            },
            {
              "internalType": "uint256",
              "name": "status",
              "type": "uint256"
            }
          ],
          "internalType": "struct VotingSystem.Event",
          "name": "",
          "type": "tuple"
        }
      ],
      "stateMutability": "view",
      "type": "function",
      "constant": true
    },
    {
      "inputs": [
        {
          "internalType": "string",
          "name": "_voterKey",
          "type": "string"
        },
        {
          "internalType": "uint256",
          "name": "_candidateId",
          "type": "uint256"
        },
        {
          "internalType": "uint256",
          "name": "_categoryId",
          "type": "uint256"
        },
        {
          "internalType": "uint256",
          "name": "_eventId",
          "type": "uint256"
        }
      ],
      "name": "vote",
      "outputs": [],
      "stateMutability": "nonpayable",
      "type": "function"
    },
    {
      "inputs": [
        {
          "internalType": "uint256",
          "name": "_categoryId",
          "type": "uint256"
        },
        {
          "internalType": "uint256",
          "name": "_eventId",
          "type": "uint256"
        },
        {
          "internalType": "string",
          "name": "_voterKey",
          "type": "string"
        }
      ],
      "name": "isVoted",
      "outputs": [
        {
          "internalType": "bool",
          "name": "",
          "type": "bool"
        }
      ],
      "stateMutability": "view",
      "type": "function",
      "constant": true
    },
    {
      "inputs": [
        {
          "internalType": "uint256",
          "name": "_categoryId",
          "type": "uint256"
        },
        {
          "internalType": "uint256",
          "name": "_eventId",
          "type": "uint256"
        }
      ],
      "name": "getVoteEventCandidate",
      "outputs": [
        {
          "components": [
            {
              "internalType": "uint256",
              "name": "id",
              "type": "uint256"
            },
            {
              "internalType": "string",
              "name": "name",
              "type": "string"
            },
            {
              "internalType": "string",
              "name": "description",
              "type": "string"
            },
            {
              "internalType": "uint256",
              "name": "studentId",
              "type": "uint256"
            },
            {
              "internalType": "uint256",
              "name": "categoryId",
              "type": "uint256"
            },
            {
              "internalType": "uint256",
              "name": "eventId",
              "type": "uint256"
            },
            {
              "internalType": "uint256",
              "name": "voteCount",
              "type": "uint256"
            },
            {
              "internalType": "bool",
              "name": "win",
              "type": "bool"
            },
            {
              "internalType": "string",
              "name": "imageFileName",
              "type": "string"
            }
          ],
          "internalType": "struct VotingSystem.Candidate[]",
          "name": "",
          "type": "tuple[]"
        }
      ],
      "stateMutability": "view",
      "type": "function",
      "constant": true
    },
    {
      "inputs": [
        {
          "internalType": "uint256",
          "name": "_categoryId",
          "type": "uint256"
        },
        {
          "internalType": "uint256",
          "name": "_eventId",
          "type": "uint256"
        }
      ],
      "name": "markWinner",
      "outputs": [],
      "stateMutability": "nonpayable",
      "type": "function"
    },
    {
      "inputs": [
        {
          "internalType": "uint256",
          "name": "_categoryId",
          "type": "uint256"
        },
        {
          "internalType": "uint256",
          "name": "_eventId",
          "type": "uint256"
        }
      ],
      "name": "isMarkWinner",
      "outputs": [
        {
          "internalType": "bool",
          "name": "isMarket",
          "type": "bool"
        }
      ],
      "stateMutability": "view",
      "type": "function",
      "constant": true
    },
    {
      "inputs": [
        {
          "internalType": "uint256",
          "name": "_categoryId",
          "type": "uint256"
        },
        {
          "internalType": "uint256",
          "name": "_eventId",
          "type": "uint256"
        }
      ],
      "name": "whoIsTheWinner",
      "outputs": [
        {
          "components": [
            {
              "internalType": "uint256",
              "name": "id",
              "type": "uint256"
            },
            {
              "internalType": "string",
              "name": "name",
              "type": "string"
            },
            {
              "internalType": "string",
              "name": "description",
              "type": "string"
            },
            {
              "internalType": "uint256",
              "name": "studentId",
              "type": "uint256"
            },
            {
              "internalType": "uint256",
              "name": "categoryId",
              "type": "uint256"
            },
            {
              "internalType": "uint256",
              "name": "eventId",
              "type": "uint256"
            },
            {
              "internalType": "uint256",
              "name": "voteCount",
              "type": "uint256"
            },
            {
              "internalType": "bool",
              "name": "win",
              "type": "bool"
            },
            {
              "internalType": "string",
              "name": "imageFileName",
              "type": "string"
            }
          ],
          "internalType": "struct VotingSystem.Candidate",
          "name": "",
          "type": "tuple"
        }
      ],
      "stateMutability": "view",
      "type": "function",
      "constant": true
    }
  ],
  "bytecode": "0x608060405234801561001057600080fd5b50600080546001600160a01b03191633179055615f6180620000336000396000f3fe608060405234801561001057600080fd5b506004361061021c5760003560e01c8063776a657b11610125578063a7e62d1b116100ad578063c0d75cdd1161007c578063c0d75cdd14610507578063ceca737f1461051a578063da58c7d91461052d578063dfdffaf414610553578063f29565ed1461056657600080fd5b8063a7e62d1b146104bb578063b62b3e93146104ce578063bf03f677146104e1578063bf196e16146104f457600080fd5b806388ad4376116100f457806388ad4376146104355780638da5cb5b146104485780638f2c280514610473578063909f850214610488578063a1a02564146104a857600080fd5b8063776a657b146103e957806379cf6ecd146103fc578063819ac74c1461040f5780638801b5b61461042257600080fd5b806350515a77116101a857806360e93f3c1161017757806360e93f3c1461035f578063642d20ad1461037f578063689b6fbf146103a3578063748f55a8146103b657806376304984146103d657600080fd5b806350515a7714610306578063514fc62a146103195780635a8ffc791461032c5780635b4d727c1461034c57600080fd5b8063400af02a116101ef578063400af02a1461028a578063401a52dd146102aa57806340776e58146102bd5780634ba31db6146102e05780634fb43250146102f357600080fd5b80631002cdd4146102215780632e0dcbf71461023f5780632e6997fe146102545780633e60e2f514610269575b600080fd5b610229610579565b604051610236919061529a565b60405180910390f35b61025261024d36600461541f565b6109d7565b005b61025c610b06565b604051610236919061545b565b61027c6102773660046154b0565b610c88565b604051908152602001610236565b61029d6102983660046154b0565b610cc6565b6040516102369190615513565b6102296102b83660046155b0565b610da3565b6102d06102cb3660046155c9565b6111ac565b6040519015158152602001610236565b6102d06102ee3660046155eb565b61160b565b6102d06103013660046155c9565b6116ef565b6102d061031436600461563a565b61179b565b6102d061032736600461541f565b61185a565b61033f61033a3660046155b0565b6118c0565b6040516102369190615676565b61025c61035a3660046155c9565b6119b4565b61037261036d3660046155b0565b611d50565b604051610236919061571a565b61039261038d3660046155b0565b6121c8565b60405161023695949392919061572d565b6102d06103b13660046154b0565b612284565b6103c96103c43660046155c9565b6122a5565b6040516102369190615765565b6102526103e4366004615778565b612758565b6102526103f736600461581b565b612aa9565b61025261040a366004615ab3565b612db8565b61025261041d366004615ae7565b612ee3565b61029d6104303660046154b0565b613012565b6102d061044336600461541f565b6133ee565b60005461045b906001600160a01b031681565b6040516001600160a01b039091168152602001610236565b61047b613419565b6040516102369190615b3d565b61049b6104963660046155c9565b61392a565b6040516102369190615b92565b6102d06104b636600461541f565b613df7565b61025c6104c93660046155c9565b613edb565b6102526104dc366004615ba5565b61430e565b6102d06104ef366004615cb8565b6143a0565b61025261050236600461563a565b614428565b6102526105153660046155c9565b614525565b6102526105283660046155b0565b61472f565b61054061053b3660046155b0565b614934565b6040516102369796959493929190615ce4565b6102d0610561366004615cb8565b614b8f565b6102526105743660046154b0565b614c17565b606060006009546001600160401b03811115610597576105976152fc565b6040519080825280602002602001820160405280156105d057816020015b6105bd614e85565b8152602001906001900390816105b55790505b5090506000805b6007548110156109cf5760005b600160006105f28483615d67565b81526020810191909152604001600020600201548110156109bc576001600061061b8483615d67565b8152602001908152602001600020600201818154811061063d5761063d615d7f565b9060005260206000209060080201604051806101000160405290816000820154815260200160018201805461067190615d95565b80601f016020809104026020016040519081016040528092919081815260200182805461069d90615d95565b80156106ea5780601f106106bf576101008083540402835291602001916106ea565b820191906000526020600020905b8154815290600101906020018083116106cd57829003601f168201915b505050505081526020016002820154815260200160038201805480602002602001604051908101604052809291908181526020016000905b828210156109505783829060005260206000209060090201604051806101200160405290816000820154815260200160018201805461076090615d95565b80601f016020809104026020016040519081016040528092919081815260200182805461078c90615d95565b80156107d95780601f106107ae576101008083540402835291602001916107d9565b820191906000526020600020905b8154815290600101906020018083116107bc57829003601f168201915b505050505081526020016002820180546107f290615d95565b80601f016020809104026020016040519081016040528092919081815260200182805461081e90615d95565b801561086b5780601f106108405761010080835404028352916020019161086b565b820191906000526020600020905b81548152906001019060200180831161084e57829003601f168201915b505050918352505060038201546020820152600482015460408201526005820154606082015260068201546080820152600782015460ff16151560a082015260088201805460c0909201916108bf90615d95565b80601f01602080910402602001604051908101604052809291908181526020018280546108eb90615d95565b80156109385780601f1061090d57610100808354040283529160200191610938565b820191906000526020600020905b81548152906001019060200180831161091b57829003601f168201915b50505050508152505081526020019060010190610722565b50505050815260200160048201548152602001600582015481526020016006820154815260200160078201548152505084848151811061099257610992615d7f565b60209081029190910101526109a8600184615d67565b9250806109b481615dc9565b9150506105e4565b50806109c781615dc9565b9150506105d7565b509092915050565b60015b6007548111610a7a5760016000828152602001908152602001600020600101604051610a069190615de2565b6040518091039020828051906020012003610a685760405162461bcd60e51b815260206004820152601760248201527f43617465676f727920616c72656164792065786973747300000000000000000060448201526064015b60405180910390fd5b80610a7281615dc9565b9150506109da565b50600160076000828254610a8e9190615d67565b9091555050600754600090815260016020818152604090922083519092610abb9284019190850190614eca565b5060078054825560016003830155546040517f5bae3f75753ef0a1c0ea0f6c51d7b43a4b8d116572b8b7b5cb771f9ad32d4ae590610afa908590615676565b60405180910390a25050565b606060006008546001600160401b03811115610b2457610b246152fc565b604051908082528060200260200182016040528015610b5d57816020015b610b4a614f4e565b815260200190600190039081610b425790505b50905060006009546001600160401b03811115610b7c57610b7c6152fc565b604051908082528060200260200182016040528015610bb557816020015b610ba2614e85565b815260200190600190039081610b9a5790505b509050610bc0610579565b90506000805b600954811015610c7f5760005b838281518110610be557610be5615d7f565b60200260200101516060015151811015610c6c57838281518110610c0b57610c0b615d7f565b6020026020010151606001518181518110610c2857610c28615d7f565b6020026020010151858481518110610c4257610c42615d7f565b6020908102919091010152610c58600184615d67565b925080610c6481615dc9565b915050610bd3565b5080610c7781615dc9565b915050610bc6565b50919392505050565b600080610c958484613012565b8051909150600003610cb95760405162461bcd60e51b8152600401610a5f90615e7d565b60a0015190505b92915050565b610d096040518060e00160405280600081526020016060815260200160608152602001600080191681526020016060815260200160008152602001606081525090565b6000610d158484613012565b8051909150600003610d395760405162461bcd60e51b8152600401610a5f90615e7d565b8060a00151600114610d9c5760405162461bcd60e51b815260206004820152602660248201527f596f7572206163636f756e74207761732062616e6e6564206f72206e6f74207660448201526565726966792160d01b6064820152608401610a5f565b9392505050565b60008181526001602052604081206002810154606092906001600160401b03811115610dd157610dd16152fc565b604051908082528060200260200182016040528015610e0a57816020015b610df7614e85565b815260200190600190039081610def5790505b50905060005b60028301548110156111a457826002018181548110610e3157610e31615d7f565b90600052602060002090600802016040518061010001604052908160008201548152602001600182018054610e6590615d95565b80601f0160208091040260200160405190810160405280929190818152602001828054610e9190615d95565b8015610ede5780601f10610eb357610100808354040283529160200191610ede565b820191906000526020600020905b815481529060010190602001808311610ec157829003601f168201915b505050505081526020016002820154815260200160038201805480602002602001604051908101604052809291908181526020016000905b8282101561114457838290600052602060002090600902016040518061012001604052908160008201548152602001600182018054610f5490615d95565b80601f0160208091040260200160405190810160405280929190818152602001828054610f8090615d95565b8015610fcd5780601f10610fa257610100808354040283529160200191610fcd565b820191906000526020600020905b815481529060010190602001808311610fb057829003601f168201915b50505050508152602001600282018054610fe690615d95565b80601f016020809104026020016040519081016040528092919081815260200182805461101290615d95565b801561105f5780601f106110345761010080835404028352916020019161105f565b820191906000526020600020905b81548152906001019060200180831161104257829003601f168201915b505050918352505060038201546020820152600482015460408201526005820154606082015260068201546080820152600782015460ff16151560a082015260088201805460c0909201916110b390615d95565b80601f01602080910402602001604051908101604052809291908181526020018280546110df90615d95565b801561112c5780601f106111015761010080835404028352916020019161112c565b820191906000526020600020905b81548152906001019060200180831161110f57829003601f168201915b50505050508152505081526020019060010190610f16565b50505050815260200160048201548152602001600582015481526020016006820154815260200160078201548152505082828151811061118657611186615d7f565b6020026020010181905250808061119c90615dc9565b915050610e10565b509392505050565b600082815260016020908152604080832060020180548251818502810185019093528083528493849084015b828210156115345783829060005260206000209060080201604051806101000160405290816000820154815260200160018201805461121690615d95565b80601f016020809104026020016040519081016040528092919081815260200182805461124290615d95565b801561128f5780601f106112645761010080835404028352916020019161128f565b820191906000526020600020905b81548152906001019060200180831161127257829003601f168201915b505050505081526020016002820154815260200160038201805480602002602001604051908101604052809291908181526020016000905b828210156114f55783829060005260206000209060090201604051806101200160405290816000820154815260200160018201805461130590615d95565b80601f016020809104026020016040519081016040528092919081815260200182805461133190615d95565b801561137e5780601f106113535761010080835404028352916020019161137e565b820191906000526020600020905b81548152906001019060200180831161136157829003601f168201915b5050505050815260200160028201805461139790615d95565b80601f01602080910402602001604051908101604052809291908181526020018280546113c390615d95565b80156114105780601f106113e557610100808354040283529160200191611410565b820191906000526020600020905b8154815290600101906020018083116113f357829003601f168201915b505050918352505060038201546020820152600482015460408201526005820154606082015260068201546080820152600782015460ff16151560a082015260088201805460c09092019161146490615d95565b80601f016020809104026020016040519081016040528092919081815260200182805461149090615d95565b80156114dd5780601f106114b2576101008083540402835291602001916114dd565b820191906000526020600020905b8154815290600101906020018083116114c057829003601f168201915b505050505081525050815260200190600101906112c7565b505050508152602001600482015481526020016005820154815260200160068201548152602001600782015481525050815260200190600101906111d8565b505050509050606060005b825181101561159f578483828151811061155b5761155b615d7f565b6020026020010151600001510361158d5782818151811061157e5761157e615d7f565b60200260200101516060015191505b8061159781615dc9565b91505061153f565b5060005b600182516115b19190615ec1565b8110156115ff578181815181106115ca576115ca615d7f565b602002602001015160e00151151560011515036115ed5760019350505050610cc0565b806115f781615dc9565b9150506115a3565b50600095945050505050565b60008381526001602052604081205481036116385760405162461bcd60e51b8152600401610a5f90615ed8565b60015b600a5481116116e45760008181526004602052604090206002015485148015611674575060008181526004602052604090206003015484145b80156116b057508280519060200120600460008381526020019081526020016000206001016040516116a69190615de2565b6040518091039020145b156116d2576000908152600460208190526040909120015460ff169050610d9c565b806116dc81615dc9565b91505061163b565b506000949350505050565b600082815260016020526040812054810361171c5760405162461bcd60e51b8152600401610a5f90615ed8565b60005b60008481526001602052604090206002015481101561179157600084815260016020526040902060020180548491908390811061175e5761175e615d7f565b9060005260206000209060080201600001540361177f576001915050610cc0565b8061178981615dc9565b91505061171f565b5060009392505050565b60008281526001602052604081205481036117c85760405162461bcd60e51b8152600401610a5f90615ed8565b60005b60008481526001602052604090206002015481101561179157828051906020012060016000868152602001908152602001600020600201828154811061181357611813615d7f565b90600052602060002090600802016001016040516118319190615de2565b604051809103902003611848576001915050610cc0565b8061185281615dc9565b9150506117cb565b600060015b600b5481116118b7576000818152600560205260409081902090516118879160010190615de2565b60405180910390208380519060200120036118a55750600192915050565b806118af81615dc9565b91505061185f565b50600092915050565b60606000821180156118d45750600b548211155b6119135760405162461bcd60e51b815260206004820152601060248201526f125b9d985b1a59081d9bdd195c88125160821b6044820152606401610a5f565b6000828152600560205260409020600201805461192f90615d95565b80601f016020809104026020016040519081016040528092919081815260200182805461195b90615d95565b80156119a85780601f1061197d576101008083540402835291602001916119a8565b820191906000526020600020905b81548152906001019060200180831161198b57829003601f168201915b50505050509050919050565b60008281526001602052604081206060915b6002820154811015611d4857838260020182815481106119e8576119e8615d7f565b90600052602060002090600802016000015403611d36576000826002018281548110611a1657611a16615d7f565b9060005260206000209060080201600401546001600160401b03811115611a3f57611a3f6152fc565b604051908082528060200260200182016040528015611a7857816020015b611a65614f4e565b815260200190600190039081611a5d5790505b50905060005b836002018381548110611a9357611a93615d7f565b906000526020600020906008020160030180549050811015611d2b57836002018381548110611ac457611ac4615d7f565b90600052602060002090600802016003018181548110611ae657611ae6615d7f565b90600052602060002090600902016040518061012001604052908160008201548152602001600182018054611b1a90615d95565b80601f0160208091040260200160405190810160405280929190818152602001828054611b4690615d95565b8015611b935780601f10611b6857610100808354040283529160200191611b93565b820191906000526020600020905b815481529060010190602001808311611b7657829003601f168201915b50505050508152602001600282018054611bac90615d95565b80601f0160208091040260200160405190810160405280929190818152602001828054611bd890615d95565b8015611c255780601f10611bfa57610100808354040283529160200191611c25565b820191906000526020600020905b815481529060010190602001808311611c0857829003601f168201915b505050918352505060038201546020820152600482015460408201526005820154606082015260068201546080820152600782015460ff16151560a082015260088201805460c090920191611c7990615d95565b80601f0160208091040260200160405190810160405280929190818152602001828054611ca590615d95565b8015611cf25780601f10611cc757610100808354040283529160200191611cf2565b820191906000526020600020905b815481529060010190602001808311611cd557829003601f168201915b505050505081525050828281518110611d0d57611d0d615d7f565b60200260200101819052508080611d2390615dc9565b915050611a7e565b509250610cc0915050565b80611d4081615dc9565b9150506119c6565b505092915050565b611d7b6040518060800160405280600081526020016060815260200160608152602001600081525090565b60008281526001602081815260409283902083516080810190945280548452918201805491840191611dac90615d95565b80601f0160208091040260200160405190810160405280929190818152602001828054611dd890615d95565b8015611e255780601f10611dfa57610100808354040283529160200191611e25565b820191906000526020600020905b815481529060010190602001808311611e0857829003601f168201915b5050505050815260200160028201805480602002602001604051908101604052809291908181526020016000905b828210156121af57838290600052602060002090600802016040518061010001604052908160008201548152602001600182018054611e9190615d95565b80601f0160208091040260200160405190810160405280929190818152602001828054611ebd90615d95565b8015611f0a5780601f10611edf57610100808354040283529160200191611f0a565b820191906000526020600020905b815481529060010190602001808311611eed57829003601f168201915b505050505081526020016002820154815260200160038201805480602002602001604051908101604052809291908181526020016000905b8282101561217057838290600052602060002090600902016040518061012001604052908160008201548152602001600182018054611f8090615d95565b80601f0160208091040260200160405190810160405280929190818152602001828054611fac90615d95565b8015611ff95780601f10611fce57610100808354040283529160200191611ff9565b820191906000526020600020905b815481529060010190602001808311611fdc57829003601f168201915b5050505050815260200160028201805461201290615d95565b80601f016020809104026020016040519081016040528092919081815260200182805461203e90615d95565b801561208b5780601f106120605761010080835404028352916020019161208b565b820191906000526020600020905b81548152906001019060200180831161206e57829003601f168201915b505050918352505060038201546020820152600482015460408201526005820154606082015260068201546080820152600782015460ff16151560a082015260088201805460c0909201916120df90615d95565b80601f016020809104026020016040519081016040528092919081815260200182805461210b90615d95565b80156121585780601f1061212d57610100808354040283529160200191612158565b820191906000526020600020905b81548152906001019060200180831161213b57829003601f168201915b50505050508152505081526020019060010190611f42565b50505050815260200160048201548152602001600582015481526020016006820154815260200160078201548152505081526020019060010190611e53565b5050505081526020016003820154815250509050919050565b600460205260009081526040902080546001820180549192916121ea90615d95565b80601f016020809104026020016040519081016040528092919081815260200182805461221690615d95565b80156122635780601f1061223857610100808354040283529160200191612263565b820191906000526020600020905b81548152906001019060200180831161224657829003601f168201915b50505050600283015460038401546004909401549293909290915060ff1685565b6000806122918484613012565b805190915015611791576001915050610cc0565b6122ad614f4e565b600083815260016020908152604080832060020180548251818502810185019093528083529192909190849084015b828210156126385783829060005260206000209060080201604051806101000160405290816000820154815260200160018201805461231a90615d95565b80601f016020809104026020016040519081016040528092919081815260200182805461234690615d95565b80156123935780601f1061236857610100808354040283529160200191612393565b820191906000526020600020905b81548152906001019060200180831161237657829003601f168201915b505050505081526020016002820154815260200160038201805480602002602001604051908101604052809291908181526020016000905b828210156125f95783829060005260206000209060090201604051806101200160405290816000820154815260200160018201805461240990615d95565b80601f016020809104026020016040519081016040528092919081815260200182805461243590615d95565b80156124825780601f1061245757610100808354040283529160200191612482565b820191906000526020600020905b81548152906001019060200180831161246557829003601f168201915b5050505050815260200160028201805461249b90615d95565b80601f01602080910402602001604051908101604052809291908181526020018280546124c790615d95565b80156125145780601f106124e957610100808354040283529160200191612514565b820191906000526020600020905b8154815290600101906020018083116124f757829003601f168201915b505050918352505060038201546020820152600482015460408201526005820154606082015260068201546080820152600782015460ff16151560a082015260088201805460c09092019161256890615d95565b80601f016020809104026020016040519081016040528092919081815260200182805461259490615d95565b80156125e15780601f106125b6576101008083540402835291602001916125e1565b820191906000526020600020905b8154815290600101906020018083116125c457829003601f168201915b505050505081525050815260200190600101906123cb565b505050508152602001600482015481526020016005820154815260200160068201548152602001600782015481525050815260200190600101906122dc565b505050509050606060005b82518110156126a3578483828151811061265f5761265f615d7f565b602002602001015160000151036126915782818151811061268257612682615d7f565b60200260200101516060015191505b8061269b81615dc9565b915050612643565b506000816000815181106126b9576126b9615d7f565b6020026020010151905060005b600183516126d49190615ec1565b81101561274757826126e7826001615d67565b815181106126f7576126f7615d7f565b602002602001015160c001518260c001511015612735578261271a826001615d67565b8151811061272a5761272a615d7f565b602002602001015191505b8061273f81615dc9565b9150506126c6565b50600160e082015295945050505050565b60008681526001602052604081205490036127855760405162461bcd60e51b8152600401610a5f90615ed8565b61278f86866116ef565b6127d25760405162461bcd60e51b8152602060048201526014602482015273115d995b9d08191bd95cc81b9bdd08195e1a5cdd60621b6044820152606401610a5f565b6127dd868684614b8f565b1561282a5760405162461bcd60e51b815260206004820152601860248201527f43616e64696461746520616c72656164792065786973747300000000000000006044820152606401610a5f565b60068160405161283a9190615f0f565b9081526040519081900360200190205460ff161561289a5760405162461bcd60e51b815260206004820152601e60248201527f496d6167652066696c65206e616d6520616c726561647920696e2075736500006044820152606401610a5f565b6001600860008282546128ad9190615d67565b9091555050604080516101208101825260085481526020808201879052818301869052606082018590526080820189905260a08201889052600060c0830181905260e083018190526101008301859052898152600190915291822090915b6002820154811015612a6c578782600201828154811061292d5761292d615d7f565b90600052602060002090600802016000015403612a5a5781600201818154811061295957612959615d7f565b600091825260208083206003600890930201919091018054600181810183559184529282902086516009909402019283558582015180518794936129a1938501920190614eca565b50604082015180516129bd916002840191602090910190614eca565b50606082015160038201556080820151600482015560a0820151600582015560c0820151600682015560e082015160078201805460ff19169115159190911790556101008201518051612a1a916008840191602090910190614eca565b5050506001826002018281548110612a3457612a34615d7f565b90600052602060002090600802016004016000828254612a549190615d67565b90915550505b80612a6481615dc9565b91505061290b565b506001600684604051612a7f9190615f0f565b908152604051908190036020019020805491151560ff199092169190911790555050505050505050565b6000828152600160205260408120549003612b015760405162461bcd60e51b815260206004820152601860248201527743617465676f727920646f6573206e6f742065786973747360401b6044820152606401610a5f565b600954600003612b4b5760405162461bcd60e51b81526020600482015260156024820152744576656e7420646f6573206e6f742065786973747360581b6044820152606401610a5f565b612b568282856143a0565b1515600114612ba75760405162461bcd60e51b815260206004820152601a60248201527f43616e6469646174657320646f6573206e6f74206578697374730000000000006044820152606401610a5f565b60015b600a548111612c8e57600081815260046020526040908190209051612bd29160010190615de2565b60405180910390208580519060200120148015612bff575060008181526004602052604090206002015483145b8015612c1b575060008181526004602052604090206003015482145b15612c7c576000818152600460208190526040909120015460ff1615612c775760405162461bcd60e51b8152602060048201526011602482015270165bdd48185b1c9958591e481d9bdd1959607a1b6044820152606401610a5f565b612c8e565b80612c8681615dc9565b915050612baa565b506001600a6000828254612ca29190615d67565b90915550506040805160a081018252600a5480825260208083018881528385018790526060840186905260016080850181905260009384526004835294909220835181559151805193948594612cff939185019290910190614eca565b5060408201516002820155606082015160038201556080909101516004909101805460ff1916911515919091179055612d39838386614cfd565b6040805160208101859052808201849052815180820383018152606090910191829052908590612d6a908390615f0f565b604051809103902087604051612d809190615f0f565b604051908190038120907f336badd820d33e68eff2381e343928896ff7147adf09b298939d0a7b001f072e90600090a4505050505050565b60408082015160009081526001602052908120549003612e155760405162461bcd60e51b815260206004820152601860248201527743617465676f727920646f6573206e6f742065786973747360401b6044820152606401610a5f565b612e27816040015182600001516116ef565b612e6b5760405162461bcd60e51b81526020600482015260156024820152744576656e7420646f6573206e6f742065786973742160581b6044820152606401610a5f565b6000600160008360400151815260200190815260200160002060020160018360000151612e989190615ec1565b81548110612ea857612ea8615d7f565b906000526020600020906008020190508160200151816001019080519060200190612ed4929190614eca565b5060e090910151600790910155565b6000848152600160205260408120549003612f3a5760405162461bcd60e51b815260206004820152601760248201527643617465676f727920686173206e6f742065786973747360481b6044820152606401610a5f565b612f44848461179b565b15612f885760405162461bcd60e51b81526020600482015260146024820152734576656e7420616c72656164792065786973747360601b6044820152606401610a5f565b6000848152600160208190526040822060098054919392918390612fad908490615d67565b9182905550600284018054600181810183556000928352602092839020600890920290910183815589519395509350612fec9290840191890190614eca565b506002810196909655505060016007850155600584019190915560069092019190915550565b6130556040518060e00160405280600081526020016060815260200160608152602001600080191681526020016060815260200160008152602001606081525090565b6000826040516020016130689190615f0f565b60408051601f198184030181529190528051602090910120905060015b600b548111613386576000818152600560205260409081902090516130ad9160020190615de2565b604051809103902085805190602001201480156130e257506000818152600560205260409020600301546130e2908390614e0d565b1561337457600560008281526020019081526020016000206040518060e00160405290816000820154815260200160018201805461311f90615d95565b80601f016020809104026020016040519081016040528092919081815260200182805461314b90615d95565b80156131985780601f1061316d57610100808354040283529160200191613198565b820191906000526020600020905b81548152906001019060200180831161317b57829003601f168201915b505050505081526020016002820180546131b190615d95565b80601f01602080910402602001604051908101604052809291908181526020018280546131dd90615d95565b801561322a5780601f106131ff5761010080835404028352916020019161322a565b820191906000526020600020905b81548152906001019060200180831161320d57829003601f168201915b505050505081526020016003820154815260200160048201805461324d90615d95565b80601f016020809104026020016040519081016040528092919081815260200182805461327990615d95565b80156132c65780601f1061329b576101008083540402835291602001916132c6565b820191906000526020600020905b8154815290600101906020018083116132a957829003601f168201915b50505050508152602001600582015481526020016006820180546132e990615d95565b80601f016020809104026020016040519081016040528092919081815260200182805461331590615d95565b80156133625780601f1061333757610100808354040283529160200191613362565b820191906000526020600020905b81548152906001019060200180831161334557829003601f168201915b50505050508152505092505050610cc0565b8061337e81615dc9565b915050613085565b50506040805160e08101825260008082528251602080820185528282528084019190915283518082018552828152838501526060830182905283518082018552828152608084015260a083018290528351908101909352825260c08101919091529392505050565b60006006826040516134009190615f0f565b9081526040519081900360200190205460ff1692915050565b606060006007546001600160401b03811115613437576134376152fc565b60405190808252806020026020018201604052801561349357816020015b6134806040518060800160405280600081526020016060815260200160608152602001600081525090565b8152602001906001900390816134555790505b50905060015b600754811161392457600081815260016020818152604092839020835160808101909452805484529182018054918401916134d390615d95565b80601f01602080910402602001604051908101604052809291908181526020018280546134ff90615d95565b801561354c5780601f106135215761010080835404028352916020019161354c565b820191906000526020600020905b81548152906001019060200180831161352f57829003601f168201915b5050505050815260200160028201805480602002602001604051908101604052809291908181526020016000905b828210156138d6578382906000526020600020906008020160405180610100016040529081600082015481526020016001820180546135b890615d95565b80601f01602080910402602001604051908101604052809291908181526020018280546135e490615d95565b80156136315780601f1061360657610100808354040283529160200191613631565b820191906000526020600020905b81548152906001019060200180831161361457829003601f168201915b505050505081526020016002820154815260200160038201805480602002602001604051908101604052809291908181526020016000905b82821015613897578382906000526020600020906009020160405180610120016040529081600082015481526020016001820180546136a790615d95565b80601f01602080910402602001604051908101604052809291908181526020018280546136d390615d95565b80156137205780601f106136f557610100808354040283529160200191613720565b820191906000526020600020905b81548152906001019060200180831161370357829003601f168201915b5050505050815260200160028201805461373990615d95565b80601f016020809104026020016040519081016040528092919081815260200182805461376590615d95565b80156137b25780601f10613787576101008083540402835291602001916137b2565b820191906000526020600020905b81548152906001019060200180831161379557829003601f168201915b505050918352505060038201546020820152600482015460408201526005820154606082015260068201546080820152600782015460ff16151560a082015260088201805460c09092019161380690615d95565b80601f016020809104026020016040519081016040528092919081815260200182805461383290615d95565b801561387f5780601f106138545761010080835404028352916020019161387f565b820191906000526020600020905b81548152906001019060200180831161386257829003601f168201915b50505050508152505081526020019060010190613669565b5050505081526020016004820154815260200160058201548152602001600682015481526020016007820154815250508152602001906001019061357a565b505050508152602001600382015481525050826001836138f69190615ec1565b8151811061390657613906615d7f565b6020026020010181905250808061391c90615dc9565b915050613499565b50919050565b613932614e85565b600083815260016020818152604080842081516080810190925280548252928301805491939284019161396490615d95565b80601f016020809104026020016040519081016040528092919081815260200182805461399090615d95565b80156139dd5780601f106139b2576101008083540402835291602001916139dd565b820191906000526020600020905b8154815290600101906020018083116139c057829003601f168201915b5050505050815260200160028201805480602002602001604051908101604052809291908181526020016000905b82821015613d6757838290600052602060002090600802016040518061010001604052908160008201548152602001600182018054613a4990615d95565b80601f0160208091040260200160405190810160405280929190818152602001828054613a7590615d95565b8015613ac25780601f10613a9757610100808354040283529160200191613ac2565b820191906000526020600020905b815481529060010190602001808311613aa557829003601f168201915b505050505081526020016002820154815260200160038201805480602002602001604051908101604052809291908181526020016000905b82821015613d2857838290600052602060002090600902016040518061012001604052908160008201548152602001600182018054613b3890615d95565b80601f0160208091040260200160405190810160405280929190818152602001828054613b6490615d95565b8015613bb15780601f10613b8657610100808354040283529160200191613bb1565b820191906000526020600020905b815481529060010190602001808311613b9457829003601f168201915b50505050508152602001600282018054613bca90615d95565b80601f0160208091040260200160405190810160405280929190818152602001828054613bf690615d95565b8015613c435780601f10613c1857610100808354040283529160200191613c43565b820191906000526020600020905b815481529060010190602001808311613c2657829003601f168201915b505050918352505060038201546020820152600482015460408201526005820154606082015260068201546080820152600782015460ff16151560a082015260088201805460c090920191613c9790615d95565b80601f0160208091040260200160405190810160405280929190818152602001828054613cc390615d95565b8015613d105780601f10613ce557610100808354040283529160200191613d10565b820191906000526020600020905b815481529060010190602001808311613cf357829003601f168201915b50505050508152505081526020019060010190613afa565b50505050815260200160048201548152602001600582015481526020016006820154815260200160078201548152505081526020019060010190613a0b565b5050505081526020016003820154815250509050613d83614e85565b60005b826040015151811015613dee578483604001518281518110613daa57613daa615d7f565b60200260200101516000015103613ddc5782604001518181518110613dd157613dd1615d7f565b602002602001015191505b80613de681615dc9565b915050613d86565b50949350505050565b6001600090815260056020527f1471eb6eb2c5e789fc3de43f8ce62938c7d1836ec861730447e2ada8fd81017b548103613e6b5760405162461bcd60e51b81526020600482015260156024820152744e6f20766f74657220696e20746865206c6973742160581b6044820152606401610a5f565b60015b600b5481116118b757600081815260056020526040908190209051613e969160060190615de2565b6040518091039020838051906020012003613ec95760009081526005602081905260409091206001910181905592915050565b80613ed381615dc9565b915050613e6e565b6000828152600160209081526040808320600201805482518185028101850190935280835260609493849084015b8282101561426557838290600052602060002090600802016040518061010001604052908160008201548152602001600182018054613f4790615d95565b80601f0160208091040260200160405190810160405280929190818152602001828054613f7390615d95565b8015613fc05780601f10613f9557610100808354040283529160200191613fc0565b820191906000526020600020905b815481529060010190602001808311613fa357829003601f168201915b505050505081526020016002820154815260200160038201805480602002602001604051908101604052809291908181526020016000905b828210156142265783829060005260206000209060090201604051806101200160405290816000820154815260200160018201805461403690615d95565b80601f016020809104026020016040519081016040528092919081815260200182805461406290615d95565b80156140af5780601f10614084576101008083540402835291602001916140af565b820191906000526020600020905b81548152906001019060200180831161409257829003601f168201915b505050505081526020016002820180546140c890615d95565b80601f01602080910402602001604051908101604052809291908181526020018280546140f490615d95565b80156141415780601f1061411657610100808354040283529160200191614141565b820191906000526020600020905b81548152906001019060200180831161412457829003601f168201915b505050918352505060038201546020820152600482015460408201526005820154606082015260068201546080820152600782015460ff16151560a082015260088201805460c09092019161419590615d95565b80601f01602080910402602001604051908101604052809291908181526020018280546141c190615d95565b801561420e5780601f106141e35761010080835404028352916020019161420e565b820191906000526020600020905b8154815290600101906020018083116141f157829003601f168201915b50505050508152505081526020019060010190613ff8565b50505050815260200160048201548152602001600582015481526020016006820154815260200160078201548152505081526020019060010190613f09565b50505050905060005b81518110156142d4578382828151811061428a5761428a615d7f565b602002602001015160000151036142c2578181815181106142ad576142ad615d7f565b60200260200101516060015192505050610cc0565b806142cc81615dc9565b91505061426e565b506040805160008082526020820190925290613dee565b6142f3614f4e565b8152602001906001900390816142eb57905050949350505050565b805160009081526001602052604081205490036143675760405162461bcd60e51b815260206004820152601760248201527643617465676f727920686173206e6f742065786973747360481b6044820152606401610a5f565b80516000908152600160208181526040909220828401518051919361439193850192910190614eca565b50606090910151600390910155565b60008381526001602052604081205481036143cd5760405162461bcd60e51b8152600401610a5f90615ed8565b60006143d985856119b4565b905060005b81518110156115ff57838282815181106143fa576143fa615d7f565b6020026020010151600001510361441657600192505050610d9c565b8061442081615dc9565b9150506143de565b60008281526001602052604081205490036144555760405162461bcd60e51b8152600401610a5f90615ed8565b60015b60075481116144fa578281146144e8576001600082815260200190815260200160002060010160405161448b9190615de2565b60405180910390208280519060200120036144e85760405162461bcd60e51b815260206004820152601c60248201527f43617465676f7279206e616d6520616c726561647920657869737473000000006044820152606401610a5f565b806144f281615dc9565b915050614458565b506000828152600160208181526040909220835161452093919092019190840190614eca565b505050565b600082815260016020525b60008381526001602052604090206002015481101561452057600083815260016020526040902060020180548391908390811061456f5761456f615d7f565b9060005260206000209060080201600001540361471d5760008381526001602052604081206002018054839081106145a9576145a9615d7f565b90600052602060002090600802016003016000815481106145cc576145cc615d7f565b9060005260206000209060090201905060005b600085815260016020819052604090912060020180548590811061460557614605615d7f565b9060005260206000209060080201600301805490506146249190615ec1565b81101561470d57600085815260016020526040902060020180548490811061464e5761464e615d7f565b906000526020600020906008020160030181600161466c9190615d67565b8154811061467c5761467c615d7f565b906000526020600020906009020160060154826006015410156146fb5760008581526001602052604090206002018054849081106146bc576146bc615d7f565b90600052602060002090600802016003018160016146da9190615d67565b815481106146ea576146ea615d7f565b906000526020600020906009020191505b8061470581615dc9565b9150506145df565b50600701805460ff191660011790555b8061472781615dc9565b915050614530565b600081815260016020526040812054900361475c5760405162461bcd60e51b8152600401610a5f90615ed8565b600081815260016020526040902060020154156147c65760405162461bcd60e51b815260206004820152602260248201527f43616e6e6f742064656c6574652063617465676f72792077697468206576656e604482015261747360f01b6064820152608401610a5f565b60015b600954811161486757600081815260026020819052604090912090810154831480156147f85750600381015415155b156148545760405162461bcd60e51b815260206004820152602660248201527f43616e6e6f742064656c6574652063617465676f727920776974682063616e6460448201526569646174657360d01b6064820152608401610a5f565b508061485f81615dc9565b9150506147c9565b5060015b600a5481116148f7576000818152600460205260409020600201548290036148e55760405162461bcd60e51b815260206004820152602760248201527f43616e6e6f742064656c6574652063617465676f7279207769746820766f7465604482015266206576656e747360c81b6064820152608401610a5f565b806148ef81615dc9565b91505061486b565b5060008181526001602081905260408220828155919061491990830182614f9c565b614927600283016000614fd9565b6003820160009055505050565b6005602052600090815260409020805460018201805491929161495690615d95565b80601f016020809104026020016040519081016040528092919081815260200182805461498290615d95565b80156149cf5780601f106149a4576101008083540402835291602001916149cf565b820191906000526020600020905b8154815290600101906020018083116149b257829003601f168201915b5050505050908060020180546149e490615d95565b80601f0160208091040260200160405190810160405280929190818152602001828054614a1090615d95565b8015614a5d5780601f10614a3257610100808354040283529160200191614a5d565b820191906000526020600020905b815481529060010190602001808311614a4057829003601f168201915b505050505090806003015490806004018054614a7890615d95565b80601f0160208091040260200160405190810160405280929190818152602001828054614aa490615d95565b8015614af15780601f10614ac657610100808354040283529160200191614af1565b820191906000526020600020905b815481529060010190602001808311614ad457829003601f168201915b505050505090806005015490806006018054614b0c90615d95565b80601f0160208091040260200160405190810160405280929190818152602001828054614b3890615d95565b8015614b855780601f10614b5a57610100808354040283529160200191614b85565b820191906000526020600020905b815481529060010190602001808311614b6857829003601f168201915b5050505050905087565b6000838152600160205260408120548103614bbc5760405162461bcd60e51b8152600401610a5f90615ed8565b6000614bc885856119b4565b905060005b81518110156115ff5783828281518110614be957614be9615d7f565b60200260200101516060015103614c0557600192505050610d9c565b80614c0f81615dc9565b915050614bcd565b614c208261185a565b614c635760405162461bcd60e51b81526020600482015260146024820152735573657220646f6573206e6f742065786973747360601b6044820152606401610a5f565b600081604051602001614c769190615f0f565b60408051601f198184030181529190528051602090910120905060015b600b548111614cf757600081815260056020526040908190209051614cbb9160010190615de2565b6040518091039020848051906020012003614ce55760008181526005602052604090206003018290555b80614cef81615dc9565b915050614c93565b50505050565b6000838152600160205260408120600201905b8154811015614e065783828281548110614d2c57614d2c615d7f565b90600052602060002090600802016000015403614df4576000828281548110614d5757614d57615d7f565b9060005260206000209060080201600301905060005b8154811015614df15784828281548110614d8957614d89615d7f565b90600052602060002090600902016000015403614ddf576001828281548110614db457614db4615d7f565b90600052602060002090600902016006016000828254614dd49190615d67565b90915550614df19050565b80614de981615dc9565b915050614d6d565b50505b80614dfe81615dc9565b915050614d10565b5050505050565b6000805b6020811015614e7b57828160208110614e2c57614e2c615d7f565b1a60f81b6001600160f81b031916848260208110614e4c57614e4c615d7f565b1a60f81b6001600160f81b03191614614e69576000915050610cc0565b80614e7381615dc9565b915050614e11565b5060019392505050565b60405180610100016040528060008152602001606081526020016000815260200160608152602001600081526020016000815260200160008152602001600081525090565b828054614ed690615d95565b90600052602060002090601f016020900481019282614ef85760008555614f3e565b82601f10614f1157805160ff1916838001178555614f3e565b82800160010185558215614f3e579182015b82811115614f3e578251825591602001919060010190614f23565b50614f4a929150614ffa565b5090565b60405180610120016040528060008152602001606081526020016060815260200160008152602001600081526020016000815260200160008152602001600015158152602001606081525090565b508054614fa890615d95565b6000825580601f10614fb8575050565b601f016020900490600052602060002090810190614fd69190614ffa565b50565b5080546000825560080290600052602060002090810190614fd6919061500f565b5b80821115614f4a5760008155600101614ffb565b80821115614f4a5760008082556150296001830182614f9c565b60028201600090556003820160006150419190615066565b506000600482018190556005820181905560068201819055600782015560080161500f565b5080546000825560090290600052602060002090810190614fd691905b80821115614f4a57600080825561509d6001830182614f9c565b6150ab600283016000614f9c565b60006003830181905560048301819055600583018190556006830181905560078301805460ff191690556150e3906008840190614f9c565b50600901615083565b60005b838110156151075781810151838201526020016150ef565b83811115614cf75750506000910152565b600081518084526151308160208601602086016150ec565b601f01601f19169290920160200192915050565b600061012082518452602083015181602086015261516482860182615118565b9150506040830151848203604086015261517e8282615118565b915050606083015160608501526080830151608085015260a083015160a085015260c083015160c085015260e08301516151bc60e086018215159052565b5061010080840151858303828701526151d58382615118565b9695505050505050565b60006101008251845260208084015182828701526151ff83870182615118565b92505060408401516040860152606084015185830360608701528281518085528385019150838160051b860101848401935060005b8281101561526257601f19878303018452615250828651615144565b94860194938601939150600101615234565b50608088015160808a015260a088015160a08a015260c088015160c08a015260e088015160e08a015280965050505050505092915050565b6000602080830181845280855180835260408601915060408160051b870101925083870160005b828110156152ef57603f198886030184526152dd8583516151df565b945092850192908501906001016152c1565b5092979650505050505050565b634e487b7160e01b600052604160045260246000fd5b60405161012081016001600160401b0381118282101715615335576153356152fc565b60405290565b60405161010081016001600160401b0381118282101715615335576153356152fc565b604051608081016001600160401b0381118282101715615335576153356152fc565b604051601f8201601f191681016001600160401b03811182821017156153a8576153a86152fc565b604052919050565b600082601f8301126153c157600080fd5b81356001600160401b038111156153da576153da6152fc565b6153ed601f8201601f1916602001615380565b81815284602083860101111561540257600080fd5b816020850160208301376000918101602001919091529392505050565b60006020828403121561543157600080fd5b81356001600160401b0381111561544757600080fd5b615453848285016153b0565b949350505050565b6000602080830181845280855180835260408601915060408160051b870101925083870160005b828110156152ef57603f1988860301845261549e858351615144565b94509285019290850190600101615482565b600080604083850312156154c357600080fd5b82356001600160401b03808211156154da57600080fd5b6154e6868387016153b0565b935060208501359150808211156154fc57600080fd5b50615509858286016153b0565b9150509250929050565b60208152815160208201526000602083015160e0604084015261553a610100840182615118565b90506040840151601f19808584030160608601526155588383615118565b92506060860151608086015260808601519150808584030160a086015261557f8383615118565b925060a086015160c086015260c08601519150808584030160e0860152506155a78282615118565b95945050505050565b6000602082840312156155c257600080fd5b5035919050565b600080604083850312156155dc57600080fd5b50508035926020909101359150565b60008060006060848603121561560057600080fd5b833592506020840135915060408401356001600160401b0381111561562457600080fd5b615630868287016153b0565b9150509250925092565b6000806040838503121561564d57600080fd5b8235915060208301356001600160401b0381111561566a57600080fd5b615509858286016153b0565b602081526000610d9c6020830184615118565b8051825260006020808301516080828601526156a86080860182615118565b9050604084015185820360408701528181518084528484019150848160051b850101858401935060005b8281101561570057601f198683030184526156ee8286516151df565b948701949387019391506001016156d2565b50606088015160608a015280965050505050505092915050565b602081526000610d9c6020830184615689565b85815260a06020820152600061574660a0830187615118565b6040830195909552506060810192909252151560809091015292915050565b602081526000610d9c6020830184615144565b60008060008060008060c0878903121561579157600080fd5b863595506020870135945060408701356001600160401b03808211156157b657600080fd5b6157c28a838b016153b0565b955060608901359150808211156157d857600080fd5b6157e48a838b016153b0565b94506080890135935060a089013591508082111561580157600080fd5b5061580e89828a016153b0565b9150509295509295509295565b6000806000806080858703121561583157600080fd5b84356001600160401b0381111561584757600080fd5b615853878288016153b0565b97602087013597506040870135966060013595509350505050565b60006001600160401b03821115615887576158876152fc565b5060051b60200190565b803580151581146158a157600080fd5b919050565b600082601f8301126158b757600080fd5b813560206158cc6158c78361586e565b615380565b82815260059290921b840181019181810190868411156158eb57600080fd5b8286015b848110156159fd5780356001600160401b038082111561590f5760008081fd5b90880190610120828b03601f190181131561592a5760008081fd5b615932615312565b8784013581526040808501358481111561594c5760008081fd5b61595a8e8b838901016153b0565b8a84015250606080860135858111156159735760008081fd5b6159818f8c838a01016153b0565b83850152506080915081860135818401525060a0808601358284015260c0915081860135818401525060e0808601358284015261010091506159c4828701615891565b908301529184013591838311156159db5760008081fd5b6159e98d8a858801016153b0565b9082015286525050509183019183016158ef565b509695505050505050565b60006101008284031215615a1b57600080fd5b615a2361533b565b90508135815260208201356001600160401b0380821115615a4357600080fd5b615a4f858386016153b0565b6020840152604084013560408401526060840135915080821115615a7257600080fd5b50615a7f848285016158a6565b6060830152506080820135608082015260a082013560a082015260c082013560c082015260e082013560e082015292915050565b600060208284031215615ac557600080fd5b81356001600160401b03811115615adb57600080fd5b61545384828501615a08565b60008060008060808587031215615afd57600080fd5b8435935060208501356001600160401b03811115615b1a57600080fd5b615b26878288016153b0565b949794965050505060408301359260600135919050565b6000602080830181845280855180835260408601915060408160051b870101925083870160005b828110156152ef57603f19888603018452615b80858351615689565b94509285019290850190600101615b64565b602081526000610d9c60208301846151df565b60006020808385031215615bb857600080fd5b82356001600160401b0380821115615bcf57600080fd5b9084019060808287031215615be357600080fd5b615beb61535e565b823581528383013582811115615c0057600080fd5b615c0c888286016153b0565b8583015250604083013582811115615c2357600080fd5b8301601f81018813615c3457600080fd5b8035615c426158c78261586e565b81815260059190911b8201860190868101908a831115615c6157600080fd5b8784015b83811015615c9957803587811115615c7d5760008081fd5b615c8b8d8b83890101615a08565b845250918801918801615c65565b5060408501525050506060928301359281019290925250949350505050565b600080600060608486031215615ccd57600080fd5b505081359360208301359350604090920135919050565b87815260e060208201526000615cfd60e0830189615118565b8281036040840152615d0f8189615118565b90508660608401528281036080840152615d298187615118565b90508460a084015282810360c0840152615d438185615118565b9a9950505050505050505050565b634e487b7160e01b600052601160045260246000fd5b60008219821115615d7a57615d7a615d51565b500190565b634e487b7160e01b600052603260045260246000fd5b600181811c90821680615da957607f821691505b60208210810361392457634e487b7160e01b600052602260045260246000fd5b600060018201615ddb57615ddb615d51565b5060010190565b600080835481600182811c915080831680615dfe57607f831692505b60208084108203615e1d57634e487b7160e01b86526022600452602486fd5b818015615e315760018114615e4257615e6f565b60ff19861689528489019650615e6f565b60008a81526020902060005b86811015615e675781548b820152908501908301615e4e565b505084890196505b509498975050505050505050565b60208082526024908201527f596f757220656d61696c206f722070617373776f726420697320696e636f72726040820152636563742160e01b606082015260800190565b600082821015615ed357615ed3615d51565b500390565b60208082526017908201527f43617465676f727920646f6573206e6f74206578697374000000000000000000604082015260600190565b60008251615f218184602087016150ec565b919091019291505056fea2646970667358221220d282236539d964571fdb5d1f473ced92264b72acfd2c232514f26f8cee0d0e9064736f6c634300080d0033",
  "immutableReferences": {},
  "source": "// SPDX-License-Identifier: MIT\r\npragma solidity >=0.4.22 <0.9.0;\r\n\r\ncontract VotingSystem {\r\n    address public owner;\r\n    struct Voter {\r\n        uint256 id;\r\n        string key;\r\n        string email;\r\n        bytes32 password;\r\n        string role;\r\n        uint256 status; // 0: no verify, 1: verified, 2:banned\r\n        string token;\r\n    }\r\n\r\n    struct Event {\r\n        uint256 eventId;\r\n        string eventName;\r\n        uint256 categoryId;\r\n        Candidate[] candidates;\r\n        uint256 candidateCount;\r\n        uint256 startDateTime;\r\n        uint256 endDateTime;\r\n        uint256 status; // 1: Upcoming, 2: In Progress, 3: Completed, 4 Cancel\r\n    }\r\n\r\n    struct Category {\r\n        uint256 categoryId;\r\n        string categoryName;\r\n        Event[] events; //category has many event\r\n        uint256 status;\r\n    }\r\n\r\n    struct Candidate {\r\n        uint256 id;\r\n        string name;\r\n        string description;\r\n        uint256 studentId;\r\n        uint256 categoryId;\r\n        uint256 eventId;\r\n        uint256 voteCount;\r\n        bool win;\r\n        string imageFileName;\r\n    }\r\n\r\n    struct voteEventStruct {\r\n        uint256 id;\r\n        string voterKey;\r\n        uint256 categoryId;\r\n        uint256 eventId;\r\n        bool voted;\r\n    }\r\n\r\n    event CategoryAdded(uint256 indexed categoryId, string categoryName);\r\n\r\n    event VoterAdded(uint256 indexed voterId, string voter_key);\r\n    event EventAdded(uint256 indexed eventId, string eventName);\r\n\r\n    event CandidateAdded(uint256 indexed eventId, string eventName);\r\n\r\n    event VoteEvent(\r\n        string indexed _voterKey,\r\n        string indexed categoryEvent,\r\n        uint256 indexed candidate\r\n    );\r\n\r\n    mapping(uint256 => Category) categories;\r\n    mapping(uint256 => Event) events;\r\n    mapping(uint256 => Candidate) candidates;\r\n    mapping(uint256 => voteEventStruct) public voteEvents;\r\n    mapping(uint256 => Voter) public voters;\r\n    mapping(string => bool) private usedImageFileNames;\r\n\r\n    uint256 categoryCount;\r\n    uint256 candidateCount;\r\n    uint256 eventCount;\r\n    uint256 voteEventCount;\r\n    uint256 voterCount;\r\n\r\n    constructor() {\r\n        owner = msg.sender;\r\n    }\r\n\r\n    // function addVoter(\r\n    //     string memory _key,\r\n    //     string memory _email,\r\n    //     string memory _password,\r\n    //     string memory _role,\r\n    //     string memory _token\r\n    // ) public {\r\n    //     for (uint256 i = 1; i <= voterCount; i++) {\r\n    //         require(\r\n    //             keccak256(bytes(_key)) != keccak256(bytes(voters[i].key)),\r\n    //             \"Voter already exists\"\r\n    //         );\r\n    //     }\r\n\r\n    //     // total category plus 1, use it as the category's id\r\n    //     voterCount += 1;\r\n\r\n    //     bytes32 hashedPassword = keccak256(abi.encodePacked(_password));\r\n\r\n    //     // add the category details in the category list\r\n    //     Voter storage voter = voters[voterCount];\r\n    //     voter.id = voterCount;\r\n    //     voter.key = _key;\r\n    //     voter.email = _email;\r\n    //     voter.password = hashedPassword;\r\n    //     voter.role = _role;\r\n    //     voter.status = 0;\r\n    //     voter.token = _token;\r\n\r\n    //     // emit the category added event\r\n    //     emit VoterAdded(voterCount, _key);\r\n    // }\r\n\r\n    function loginVoter(string memory _email, string memory _password)\r\n        public\r\n        view\r\n        returns (Voter memory)\r\n    {\r\n        Voter memory voterFound = getVoterByEmailPassword(_email, _password);\r\n        require(voterFound.id != 0, \"Your email or password is incorrect!\");\r\n        require(\r\n            voterFound.status == 1,\r\n            \"Your account was banned or not verify!\"\r\n        );\r\n        return voterFound;\r\n    }\r\n\r\n    function compareHashesPassword(bytes32 inputPassword, bytes32 password)\r\n        internal\r\n        pure\r\n        returns (bool)\r\n    {\r\n        for (uint256 i = 0; i < 32; i++) {\r\n            if (inputPassword[i] != password[i]) {\r\n                return false;\r\n            }\r\n        }\r\n        return true;\r\n    }\r\n\r\n    function getVoterByEmailPassword(\r\n        string memory _email,\r\n        string memory _password\r\n    ) public view returns (Voter memory) {\r\n        bytes32 hashedPassword = keccak256(abi.encodePacked(_password));\r\n        for (uint256 i = 1; i <= voterCount; i++) {\r\n            if (\r\n                keccak256(bytes(_email)) == keccak256(bytes(voters[i].email)) &&\r\n                compareHashesPassword(hashedPassword, voters[i].password)\r\n            ) {\r\n                return voters[i];\r\n            }\r\n        }\r\n\r\n        // Event not found in the specified category\r\n        return Voter(0, \"\", \"\", \"\", \"\", 0, \"\");\r\n    }\r\n\r\n    function getVoterEmailById(uint256 _voterId)\r\n        public\r\n        view\r\n        returns (string memory)\r\n    {\r\n        require(_voterId > 0 && _voterId <= voterCount, \"Invalid voter ID\");\r\n        return voters[_voterId].email;\r\n    }\r\n\r\n    function updateVoterPassword(string memory _key, string memory _password)\r\n        public\r\n    {\r\n        require(isVoterExist(_key), \"User does not exists\");\r\n\r\n        bytes32 hashedPassword = keccak256(abi.encodePacked(_password));\r\n        for (uint256 i = 1; i <= voterCount; i++) {\r\n            if (keccak256(bytes(_key)) == keccak256(bytes(voters[i].key))) {\r\n                voters[i].password = hashedPassword;\r\n            }\r\n        }\r\n    }\r\n\r\n    function verifyVoterAccount(string memory _token) public returns (bool) {\r\n        require(voters[1].id != 0, \"No voter in the list!\");\r\n        for (uint256 i = 1; i <= voterCount; i++) {\r\n            if (keccak256(bytes(_token)) == keccak256(bytes(voters[i].token))) {\r\n                voters[i].status = 1;\r\n                return true;\r\n            }\r\n        }\r\n        return false;\r\n    }\r\n\r\n    function getVoterStatus(string memory _email, string memory _password)\r\n        public\r\n        view\r\n        returns (uint256 status)\r\n    {\r\n        Voter memory voterFound = getVoterByEmailPassword(_email, _password);\r\n        require(voterFound.id != 0, \"Your email or password is incorrect!\");\r\n        return voterFound.status;\r\n    }\r\n\r\n    function checkVoterEmailPassword(\r\n        string memory _email,\r\n        string memory _password\r\n    ) public view returns (bool foundVoter) {\r\n        Voter memory voterFound = getVoterByEmailPassword(_email, _password);\r\n\r\n        if (voterFound.id != 0) {\r\n            return true;\r\n        }\r\n        return false;\r\n    }\r\n\r\n    function isVoterExist(string memory _key) public view returns (bool) {\r\n        for (uint256 i = 1; i <= voterCount; i++) {\r\n            if (keccak256(bytes(_key)) == keccak256(bytes(voters[i].key))) {\r\n                return true;\r\n            }\r\n        }\r\n        return false;\r\n    }\r\n\r\n    function addCategory(string memory _categoryName) public {\r\n        // check if the category is exist\r\n        for (uint256 i = 1; i <= categoryCount; i++) {\r\n            require(\r\n                keccak256(bytes(_categoryName)) !=\r\n                    keccak256(bytes(categories[i].categoryName)),\r\n                \"Category already exists\"\r\n            );\r\n        }\r\n\r\n        // total category plus 1, use it as the category's id\r\n        categoryCount += 1;\r\n\r\n        // add the category details in the category list\r\n        Category storage category = categories[categoryCount];\r\n        category.categoryName = _categoryName;\r\n        category.categoryId = categoryCount;\r\n        category.status = 1;\r\n\r\n        // emit the category added event\r\n        emit CategoryAdded(categoryCount, _categoryName);\r\n    }\r\n\r\n    function updateCategory(Category memory _category) public {\r\n        // check if the category is exist\r\n        require(\r\n            categories[_category.categoryId].categoryId != 0,\r\n            \"Category has not exists\"\r\n        );\r\n\r\n        // add the category details in the category list\r\n        Category storage category = categories[_category.categoryId];\r\n        category.categoryName = _category.categoryName;\r\n        category.status = _category.status;\r\n    }\r\n\r\n    function updateCategoryName(\r\n        uint256 _categoryId,\r\n        string memory _newCategoryName\r\n    ) public {\r\n        // Check if the category exists\r\n        require(\r\n            categories[_categoryId].categoryId != 0,\r\n            \"Category does not exist\"\r\n        );\r\n\r\n        // Check if the new category name is different from the existing name in the list\r\n        // and not the same as the current category name being updated\r\n        for (uint256 i = 1; i <= categoryCount; i++) {\r\n            if (i != _categoryId) {\r\n                require(\r\n                    keccak256(bytes(_newCategoryName)) !=\r\n                        keccak256(bytes(categories[i].categoryName)),\r\n                    \"Category name already exists\"\r\n                );\r\n            }\r\n        }\r\n\r\n        // Update the category name\r\n        categories[_categoryId].categoryName = _newCategoryName;\r\n    }\r\n\r\n    function deleteCategory(uint256 _categoryId) public {\r\n        require(\r\n            categories[_categoryId].categoryId != 0,\r\n            \"Category does not exist\"\r\n        );\r\n\r\n        // Check if there are any events associated with the category\r\n        require(\r\n            categories[_categoryId].events.length == 0,\r\n            \"Cannot delete category with events\"\r\n        );\r\n\r\n        // Check if there are any candidates associated with the category\r\n        for (uint256 i = 1; i <= eventCount; i++) {\r\n            Event storage currentEvent = events[i];\r\n            if (\r\n                currentEvent.categoryId == _categoryId &&\r\n                currentEvent.candidates.length > 0\r\n            ) {\r\n                revert(\"Cannot delete category with candidates\");\r\n            }\r\n        }\r\n\r\n        // Check if there are any vote events associated with the category\r\n        for (uint256 i = 1; i <= voteEventCount; i++) {\r\n            if (voteEvents[i].categoryId == _categoryId) {\r\n                revert(\"Cannot delete category with vote events\");\r\n            }\r\n        }\r\n\r\n        // If no associated events, candidates, or vote events, delete the category\r\n        delete categories[_categoryId];\r\n    }\r\n\r\n    function addEvent(\r\n        uint256 _categoryId,\r\n        string memory _eventName,\r\n        uint256 _startDateTime,\r\n        uint256 _endDateTime\r\n    ) public {\r\n        // check if the category has exists\r\n        require(\r\n            categories[_categoryId].categoryId != 0,\r\n            \"Category has not exists\"\r\n        );\r\n\r\n        require(\r\n            isEventExists(_categoryId, _eventName) == false,\r\n            \"Event already exists\"\r\n        );\r\n\r\n        // find out the category in list by using the paramerter category name\r\n        Category storage category = categories[_categoryId];\r\n\r\n        // add the event in the category list\r\n        uint256 eventId = eventCount += 1;\r\n\r\n        Event storage newEvent = category.events.push();\r\n        newEvent.eventId = eventId;\r\n        newEvent.eventName = _eventName;\r\n        newEvent.categoryId = _categoryId;\r\n        newEvent.status = 1;\r\n        newEvent.startDateTime = _startDateTime;\r\n        newEvent.endDateTime = _endDateTime;\r\n    }\r\n\r\n    function isEventExists(uint256 _categoryId, string memory _eventName)\r\n        public\r\n        view\r\n        returns (bool)\r\n    {\r\n        // Check if the category exists\r\n        require(\r\n            categories[_categoryId].categoryId != 0,\r\n            \"Category does not exist\"\r\n        );\r\n\r\n        // Loop through the events in the specified category\r\n        for (uint256 i = 0; i < categories[_categoryId].events.length; i++) {\r\n            if (\r\n                keccak256(bytes(categories[_categoryId].events[i].eventName)) ==\r\n                keccak256(bytes(_eventName))\r\n            ) {\r\n                // Event found\r\n                return true;\r\n            }\r\n        }\r\n        // Event not found in the specified category\r\n        return false;\r\n    }\r\n\r\n    // function isEventStart(\r\n    //     uint256 _categoryId,\r\n    //     string memory _eventName,\r\n    //     uint256 _startDateTime\r\n    // ) public view returns (bool) {\r\n    //     // Check if the category exists\r\n    //     require(\r\n    //         categories[_categoryId].categoryId != 0,\r\n    //         \"Category does not exist\"\r\n    //     );\r\n\r\n    //     require(\r\n    //         isEventExists(_categoryId, _eventName) == true,\r\n    //         \"Event does not exist\"\r\n    //     );\r\n\r\n    //     // Loop through the events in the specified category\r\n    //     for (uint256 i = 0; i < categories[_categoryId].events.length; i++) {\r\n    //         if (\r\n    //             (keccak256(\r\n    //                 bytes(categories[_categoryId].events[i].eventName)\r\n    //             ) ==\r\n    //                 keccak256(bytes(_eventName)) &&\r\n    //                 (_startDateTime >=\r\n    //                     categories[_categoryId].events[i].startDateTime))\r\n    //         ) {\r\n    //             return true;\r\n    //         }\r\n    //     }\r\n\r\n    //     // Event not found in the specified category\r\n    //     return false;\r\n    // }\r\n\r\n    function updateEvent(Event memory _event) public {\r\n        // check if the category is exist\r\n        require(\r\n            categories[_event.categoryId].categoryId != 0,\r\n            \"Category does not exists\"\r\n        );\r\n        require(\r\n            isEventExists(_event.categoryId, _event.eventId),\r\n            \"Event does not exist!\"\r\n        );\r\n        // add the category details in the category list\r\n        Event storage eventToUpdate = categories[_event.categoryId].events[\r\n            _event.eventId - 1\r\n        ];\r\n\r\n        eventToUpdate.eventName = _event.eventName;\r\n        eventToUpdate.status = _event.status;\r\n    }\r\n\r\n    function addCandidateToEvent(\r\n        uint256 _categoryId,\r\n        uint256 _eventId,\r\n        string memory _candidateName,\r\n        string memory _description,\r\n        uint256 _studentId,\r\n        string memory _imageFileName\r\n    ) public {\r\n        require(\r\n            categories[_categoryId].categoryId != 0,\r\n            \"Category does not exist\"\r\n        );\r\n        require(isEventExists(_categoryId, _eventId), \"Event does not exist\");\r\n        require(\r\n            !isCandidateExistsInEvent(_categoryId, _eventId, _studentId),\r\n            \"Candidate already exists\"\r\n        );\r\n        // Check if the image file name is already used\r\n        require(\r\n            !usedImageFileNames[_imageFileName],\r\n            \"Image file name already in use\"\r\n        );\r\n\r\n        candidateCount += 1;\r\n\r\n        // Create a new candidate\r\n        Candidate memory newCandidate = Candidate({\r\n            id: candidateCount,\r\n            name: _candidateName,\r\n            studentId: _studentId,\r\n            categoryId: _categoryId,\r\n            eventId: _eventId,\r\n            description: _description,\r\n            win: false,\r\n            voteCount: 0,\r\n            imageFileName: _imageFileName\r\n        });\r\n\r\n        // find the certain category\r\n        Category storage category = categories[_categoryId];\r\n        // find the certain event in certain category\r\n        for (uint256 i = 0; i < category.events.length; i++) {\r\n            if (category.events[i].eventId == _eventId) {\r\n                category.events[i].candidates.push(newCandidate);\r\n                category.events[i].candidateCount += 1;\r\n            }\r\n        }\r\n\r\n        // Mark the image file name as used\r\n        usedImageFileNames[_imageFileName] = true;\r\n    }\r\n\r\n    // function updateCandidate(Candidate memory _candidate) public {\r\n    //     require(\r\n    //         categories[_candidate.categoryId].categoryId != 0,\r\n    //         \"Category has not exists\"\r\n    //     );\r\n\r\n    //     require(\r\n    //         isEventExists(_candidate.categoryId, _candidate.eventId) == true,\r\n    //         \"Event has not exists\"\r\n    //     );\r\n\r\n    //     require(\r\n    //         isCandidateExistsInEvent(\r\n    //             _candidate.categoryId,\r\n    //             _candidate.eventId,\r\n    //             _candidate.studentId\r\n    //         ) == true,\r\n    //         \"Candidate does not existed\"\r\n    //     );\r\n\r\n    //     Candidate storage candidateToUpdate = categories[_candidate.categoryId]\r\n    //         .events[_candidate.eventId - 1]\r\n    //         .candidates[_candidate.id - 1];\r\n\r\n    //     candidateToUpdate.name = _candidate.name;\r\n    //     candidateToUpdate.studentId = _candidate.studentId;\r\n    //     candidateToUpdate.description = _candidate.description;\r\n    // }\r\n\r\n    function isImageFileNameUsed(string memory _imageFileName)\r\n        public\r\n        view\r\n        returns (bool)\r\n    {\r\n        return usedImageFileNames[_imageFileName];\r\n    }\r\n\r\n    function isCandidateExistsInEvent(\r\n        uint256 _categoryId,\r\n        uint256 _eventId,\r\n        uint256 _studentId\r\n    ) public view returns (bool) {\r\n        // Check if the category exists\r\n        require(\r\n            categories[_categoryId].categoryId != 0,\r\n            \"Category does not exist\"\r\n        );\r\n\r\n        Candidate[] memory candidatesFound = getAllCandidatesInEvent(\r\n            _categoryId,\r\n            _eventId\r\n        );\r\n\r\n        // Loop through the events in the specified category\r\n\r\n        for (uint256 i = 0; i < candidatesFound.length; i++) {\r\n            if (candidatesFound[i].studentId == _studentId) {\r\n                return true;\r\n            }\r\n        }\r\n\r\n        // Event not found in the specified category\r\n        return false;\r\n    }\r\n\r\n    function isCandidateExistsInEventById(\r\n        uint256 _categoryId,\r\n        uint256 _eventId,\r\n        uint256 _candidateId\r\n    ) public view returns (bool) {\r\n        // Check if the category exists\r\n        require(\r\n            categories[_categoryId].categoryId != 0,\r\n            \"Category does not exist\"\r\n        );\r\n\r\n        Candidate[] memory candidatesFound = getAllCandidatesInEvent(\r\n            _categoryId,\r\n            _eventId\r\n        );\r\n\r\n        // Loop through the events in the specified category\r\n\r\n        for (uint256 i = 0; i < candidatesFound.length; i++) {\r\n            if (candidatesFound[i].id == _candidateId) {\r\n                return true;\r\n            }\r\n        }\r\n\r\n        // Event not found in the specified category\r\n        return false;\r\n    }\r\n\r\n    function isEventExists(uint256 _categoryId, uint256 _eventId)\r\n        public\r\n        view\r\n        returns (bool)\r\n    {\r\n        // Check if the category exists\r\n        require(\r\n            categories[_categoryId].categoryId != 0,\r\n            \"Category does not exist\"\r\n        );\r\n\r\n        // Loop through the events in the specified category\r\n        for (uint256 i = 0; i < categories[_categoryId].events.length; i++) {\r\n            if (categories[_categoryId].events[i].eventId == _eventId) {\r\n                // Event found\r\n                return true;\r\n            }\r\n        }\r\n\r\n        // Event not found in the specified category\r\n        return false;\r\n    }\r\n\r\n    function getAllCategoryEvent(uint256 _categoryId)\r\n        public\r\n        view\r\n        returns (Event[] memory foundEvent)\r\n    {\r\n        // find the certain category\r\n        Category storage category = categories[_categoryId];\r\n\r\n        // declare an array variable for storing events\r\n        Event[] memory eventsFound = new Event[](category.events.length);\r\n\r\n        // get all the event name by searching the event in list\r\n        for (uint256 i = 0; i < category.events.length; i++) {\r\n            eventsFound[i] = category.events[i];\r\n        }\r\n\r\n        return (eventsFound);\r\n    }\r\n\r\n    function getAllCandidatesInEvent(uint256 _categoryId, uint256 _eventId)\r\n        public\r\n        view\r\n        returns (Candidate[] memory foundCandidates)\r\n    {\r\n        // find the certain category\r\n        Category storage category = categories[_categoryId];\r\n        // find the certain event in certain category\r\n        for (uint256 i = 0; i < category.events.length; i++) {\r\n            if (category.events[i].eventId == _eventId) {\r\n                Candidate[] memory candidatesFound = new Candidate[](\r\n                    category.events[i].candidateCount\r\n                );\r\n\r\n                for (\r\n                    uint256 j = 0;\r\n                    j < category.events[i].candidates.length;\r\n                    j++\r\n                ) {\r\n                    candidatesFound[j] = category.events[i].candidates[j];\r\n                }\r\n                return (candidatesFound);\r\n            }\r\n        }\r\n    }\r\n\r\n    function getAllCandidates() public view returns (Candidate[] memory) {\r\n        Candidate[] memory candidatesFound = new Candidate[](candidateCount);\r\n        Event[] memory eventFound = new Event[](eventCount);\r\n\r\n        // get all the events\r\n        eventFound = getAllEvent();\r\n        uint256 count = 0;\r\n        // find the candidates inside all the event\r\n        for (uint256 i = 0; i < eventCount; i++) {\r\n            for (uint256 j = 0; j < eventFound[i].candidates.length; j++) {\r\n                candidatesFound[count] = eventFound[i].candidates[j];\r\n                count += 1;\r\n            }\r\n        }\r\n\r\n        return candidatesFound;\r\n    }\r\n\r\n    function getAllCategory() public view returns (Category[] memory) {\r\n        //Candidate[] memory candidatesFound = new Candidate[](candidateCount);\r\n        Category[] memory categoriesFound = new Category[](categoryCount);\r\n        // Iterate through all stored structs\r\n        for (uint256 i = 1; i <= categoryCount; i++) {\r\n            categoriesFound[i - 1] = categories[i];\r\n        }\r\n\r\n        return categoriesFound;\r\n    }\r\n\r\n    function getCategoryById(uint256 _categoryId)\r\n        public\r\n        view\r\n        returns (Category memory)\r\n    {\r\n        return categories[_categoryId];\r\n    }\r\n\r\n    function getAllEvent() public view returns (Event[] memory) {\r\n        // Initialize the array with the correct size\r\n        Event[] memory eventFound = new Event[](eventCount);\r\n        uint256 count = 0;\r\n\r\n        // Iterate through all categories and events\r\n        for (uint256 i = 0; i < categoryCount; i++) {\r\n            for (uint256 j = 0; j < categories[i + 1].events.length; j++) {\r\n                eventFound[count] = categories[i + 1].events[j];\r\n                count += 1;\r\n            }\r\n        }\r\n\r\n        return eventFound;\r\n    }\r\n\r\n    function getEventById(uint256 _categoryId, uint256 _eventId)\r\n        public\r\n        view\r\n        returns (Event memory)\r\n    {\r\n        Category memory categoriesFound = categories[_categoryId];\r\n        Event memory eventFound;\r\n        // Iterate through all stored structs\r\n        for (uint256 i = 0; i < categoriesFound.events.length; i++) {\r\n            if (categoriesFound.events[i].eventId == _eventId) {\r\n                eventFound = categoriesFound.events[i];\r\n            }\r\n        }\r\n\r\n        return eventFound;\r\n    }\r\n\r\n    function vote(\r\n        string memory _voterKey,\r\n        uint256 _candidateId,\r\n        uint256 _categoryId,\r\n        uint256 _eventId\r\n    ) external {\r\n        require(\r\n            categories[_categoryId].categoryId != 0,\r\n            \"Category does not exists\"\r\n        );\r\n\r\n        require(eventCount != 0, \"Event does not exists\");\r\n\r\n        // for (uint256 i = 1; i <= categories[_categoryId].events.length; i++) {\r\n        //     require(categories[_categoryId].events[i-0].eventId == _eventId, \"noobbbbb\");\r\n        // }\r\n\r\n        require(\r\n            isCandidateExistsInEventById(_categoryId, _eventId, _candidateId) ==\r\n                true,\r\n            \"Candidates does not exists\"\r\n        );\r\n\r\n        // check if has voted\r\n        for (uint256 i = 1; i <= voteEventCount; i++) {\r\n            if (\r\n                keccak256(bytes(_voterKey)) ==\r\n                keccak256(bytes(voteEvents[i].voterKey)) &&\r\n                _categoryId == voteEvents[i].categoryId &&\r\n                _eventId == voteEvents[i].eventId\r\n            ) {\r\n                require(!voteEvents[i].voted, \"You already voted\");\r\n                break;\r\n            }\r\n        }\r\n\r\n        // add count on the candidate\r\n        voteEventCount += 1;\r\n\r\n        // Create a new voteEventStruct\r\n        voteEventStruct memory newVoteEvent = voteEventStruct({\r\n            id: voteEventCount,\r\n            voterKey: _voterKey,\r\n            categoryId: _categoryId,\r\n            eventId: _eventId,\r\n            voted: true\r\n        });\r\n\r\n        voteEvents[voteEventCount] = newVoteEvent;\r\n\r\n        // add the vote count of the chosen candidate\r\n        addVoteCountIn(_categoryId, _eventId, _candidateId);\r\n\r\n        string memory concatenatedValues = string(\r\n            abi.encodePacked(_categoryId, _eventId)\r\n        );\r\n\r\n        emit VoteEvent(_voterKey, concatenatedValues, _candidateId);\r\n    }\r\n\r\n    function addVoteCountIn(\r\n        uint256 _categoryId,\r\n        uint256 _eventId,\r\n        uint256 _candidateId\r\n    ) internal {\r\n        // get the events inside the categories\r\n        Event[] storage eventsFound = categories[_categoryId].events;\r\n\r\n        // find the event with param\r\n        for (uint256 i = 0; i < eventsFound.length; i++) {\r\n            if (eventsFound[i].eventId == _eventId) {\r\n                // get the candidate inside the event\r\n                Candidate[] storage candidatesFound = eventsFound[i].candidates;\r\n                // find the candidate\r\n                for (uint256 j = 0; j < candidatesFound.length; j++) {\r\n                    if (candidatesFound[j].id == _candidateId) {\r\n                        // found the candidate and plus 1 at the voteCount\r\n                        candidatesFound[j].voteCount += 1;\r\n                        break;\r\n                    }\r\n                }\r\n            }\r\n        }\r\n    }\r\n\r\n    function isVoted(\r\n        uint256 _categoryId,\r\n        uint256 _eventId,\r\n        string memory _voterKey\r\n    ) public view returns (bool) {\r\n        // Check if the category exists\r\n        require(\r\n            categories[_categoryId].categoryId != 0,\r\n            \"Category does not exist\"\r\n        );\r\n\r\n        for (uint256 i = 1; i <= voteEventCount; i++) {\r\n            if (\r\n                voteEvents[i].categoryId == _categoryId &&\r\n                voteEvents[i].eventId == _eventId &&\r\n                keccak256(bytes(voteEvents[i].voterKey)) ==\r\n                keccak256(bytes(_voterKey))\r\n            ) {\r\n                return voteEvents[i].voted;\r\n            }\r\n        }\r\n\r\n        return false;\r\n    }\r\n\r\n    function getVoteEventCandidate(uint256 _categoryId, uint256 _eventId)\r\n        public\r\n        view\r\n        returns (Candidate[] memory)\r\n    {\r\n        Event[] memory eventsFound = categories[_categoryId].events;\r\n\r\n        for (uint256 i = 0; i < eventsFound.length; i++) {\r\n            if (eventsFound[i].eventId == _eventId) {\r\n                return eventsFound[i].candidates;\r\n            }\r\n        }\r\n\r\n        // If the event is not found, return an empty array or handle the situation accordingly\r\n        return new Candidate[](0);\r\n    }\r\n\r\n    function markWinner(uint256 _categoryId, uint256 _eventId) public {\r\n        categories[_categoryId].events;\r\n\r\n        for (uint256 i = 0; i < categories[_categoryId].events.length; i++) {\r\n            if (categories[_categoryId].events[i].eventId == _eventId) {\r\n                Candidate storage winner = categories[_categoryId]\r\n                    .events[i]\r\n                    .candidates[0];\r\n                for (\r\n                    uint256 j = 0;\r\n                    j < categories[_categoryId].events[i].candidates.length - 1;\r\n                    j++\r\n                ) {\r\n                    if (\r\n                        winner.voteCount <\r\n                        categories[_categoryId]\r\n                            .events[i]\r\n                            .candidates[j + 1]\r\n                            .voteCount\r\n                    ) {\r\n                        winner = categories[_categoryId].events[i].candidates[\r\n                            j + 1\r\n                        ];\r\n                    }\r\n                }\r\n                winner.win = true;\r\n            }\r\n        }\r\n    }\r\n\r\n    function isMarkWinner(uint256 _categoryId, uint256 _eventId)\r\n        public\r\n        view\r\n        returns (bool isMarket)\r\n    {\r\n        Event[] memory eventsFound = categories[_categoryId].events;\r\n        Candidate[] memory candidatesFound;\r\n\r\n        for (uint256 i = 0; i < eventsFound.length; i++) {\r\n            if (eventsFound[i].eventId == _eventId) {\r\n                candidatesFound = eventsFound[i].candidates;\r\n            }\r\n        }\r\n\r\n        for (uint256 i = 0; i < candidatesFound.length - 1; i++) {\r\n            if (candidatesFound[i].win == true) {\r\n                return true;\r\n            }\r\n        }\r\n        return false;\r\n    }\r\n\r\n    function whoIsTheWinner(uint256 _categoryId, uint256 _eventId)\r\n        public\r\n        view\r\n        returns (Candidate memory)\r\n    {\r\n        Event[] memory eventsFound = categories[_categoryId].events;\r\n        Candidate[] memory candidatesFound;\r\n\r\n        for (uint256 i = 0; i < eventsFound.length; i++) {\r\n            if (eventsFound[i].eventId == _eventId) {\r\n                candidatesFound = eventsFound[i].candidates;\r\n            }\r\n        }\r\n\r\n        Candidate memory winner = candidatesFound[0];\r\n\r\n        for (uint256 i = 0; i < candidatesFound.length - 1; i++) {\r\n            if (winner.voteCount < candidatesFound[i + 1].voteCount) {\r\n                winner = candidatesFound[i + 1];\r\n            }\r\n        }\r\n\r\n        winner.win = true;\r\n\r\n        return winner;\r\n    }\r\n}\r\n",
  "sourcePath": "C:\\xampp\\htdocs\\Online-Voting-System-Blockchain\\contracts\\VotingSystem.sol",
  "compiler": {
    "name": "solc",
    "version": "0.8.13+commit.abaa5c0e.Emscripten.clang"
  },
  "schemaVersion": "3.4.16",
  "updatedAt": "2023-12-11T03:10:29.373Z",
  "networkType": "ethereum",
  "devdoc": {
    "kind": "dev",
    "methods": {},
    "version": 1
  },
  "userdoc": {
    "kind": "user",
    "methods": {},
    "version": 1
  }
}