{
  "contractName": "VotingSystem",
  "abi": [
    {
      "inputs": [],
      "stateMutability": "nonpayable",
      "type": "constructor"
    },
    {
      "anonymous": false,
      "inputs": [
        {
          "indexed": true,
          "internalType": "uint256",
          "name": "eventId",
          "type": "uint256"
        },
        {
          "indexed": false,
          "internalType": "string",
          "name": "eventName",
          "type": "string"
        }
      ],
      "name": "CandidateAdded",
      "type": "event"
    },
    {
      "anonymous": false,
      "inputs": [
        {
          "indexed": true,
          "internalType": "uint256",
          "name": "categoryId",
          "type": "uint256"
        },
        {
          "indexed": false,
          "internalType": "string",
          "name": "categoryName",
          "type": "string"
        }
      ],
      "name": "CategoryAdded",
      "type": "event"
    },
    {
      "anonymous": false,
      "inputs": [
        {
          "indexed": true,
          "internalType": "uint256",
          "name": "eventId",
          "type": "uint256"
        },
        {
          "indexed": false,
          "internalType": "string",
          "name": "eventName",
          "type": "string"
        }
      ],
      "name": "EventAdded",
      "type": "event"
    },
    {
      "anonymous": false,
      "inputs": [
        {
          "indexed": true,
          "internalType": "uint256",
          "name": "voterId",
          "type": "uint256"
        },
        {
          "indexed": true,
          "internalType": "string",
          "name": "categoryEvent",
          "type": "string"
        },
        {
          "indexed": true,
          "internalType": "uint256",
          "name": "candidate",
          "type": "uint256"
        }
      ],
      "name": "VoteEvent",
      "type": "event"
    },
    {
      "anonymous": false,
      "inputs": [
        {
          "indexed": true,
          "internalType": "uint256",
          "name": "voterId",
          "type": "uint256"
        },
        {
          "indexed": false,
          "internalType": "string",
          "name": "voter_key",
          "type": "string"
        }
      ],
      "name": "VoterAdded",
      "type": "event"
    },
    {
      "inputs": [],
      "name": "owner",
      "outputs": [
        {
          "internalType": "address",
          "name": "",
          "type": "address"
        }
      ],
      "stateMutability": "view",
      "type": "function",
      "constant": true
    },
    {
      "inputs": [
        {
          "internalType": "uint256",
          "name": "",
          "type": "uint256"
        }
      ],
      "name": "voteEvents",
      "outputs": [
        {
          "internalType": "uint256",
          "name": "id",
          "type": "uint256"
        },
        {
          "internalType": "uint256",
          "name": "voterId",
          "type": "uint256"
        },
        {
          "internalType": "uint256",
          "name": "categoryId",
          "type": "uint256"
        },
        {
          "internalType": "uint256",
          "name": "eventId",
          "type": "uint256"
        },
        {
          "internalType": "bool",
          "name": "voted",
          "type": "bool"
        }
      ],
      "stateMutability": "view",
      "type": "function",
      "constant": true
    },
    {
      "inputs": [
        {
          "internalType": "uint256",
          "name": "",
          "type": "uint256"
        }
      ],
      "name": "voters",
      "outputs": [
        {
          "internalType": "uint256",
          "name": "id",
          "type": "uint256"
        },
        {
          "internalType": "string",
          "name": "key",
          "type": "string"
        },
        {
          "internalType": "string",
          "name": "email",
          "type": "string"
        },
        {
          "internalType": "bytes32",
          "name": "password",
          "type": "bytes32"
        },
        {
          "internalType": "string",
          "name": "role",
          "type": "string"
        },
        {
          "internalType": "uint256",
          "name": "status",
          "type": "uint256"
        },
        {
          "internalType": "string",
          "name": "token",
          "type": "string"
        }
      ],
      "stateMutability": "view",
      "type": "function",
      "constant": true
    },
    {
      "inputs": [
        {
          "internalType": "string",
          "name": "_key",
          "type": "string"
        },
        {
          "internalType": "string",
          "name": "_email",
          "type": "string"
        },
        {
          "internalType": "string",
          "name": "_password",
          "type": "string"
        },
        {
          "internalType": "string",
          "name": "_role",
          "type": "string"
        },
        {
          "internalType": "string",
          "name": "_token",
          "type": "string"
        }
      ],
      "name": "addVoter",
      "outputs": [],
      "stateMutability": "nonpayable",
      "type": "function"
    },
    {
      "inputs": [
        {
          "internalType": "string",
          "name": "_email",
          "type": "string"
        },
        {
          "internalType": "string",
          "name": "_password",
          "type": "string"
        }
      ],
      "name": "loginVoter",
      "outputs": [
        {
          "components": [
            {
              "internalType": "uint256",
              "name": "id",
              "type": "uint256"
            },
            {
              "internalType": "string",
              "name": "key",
              "type": "string"
            },
            {
              "internalType": "string",
              "name": "email",
              "type": "string"
            },
            {
              "internalType": "bytes32",
              "name": "password",
              "type": "bytes32"
            },
            {
              "internalType": "string",
              "name": "role",
              "type": "string"
            },
            {
              "internalType": "uint256",
              "name": "status",
              "type": "uint256"
            },
            {
              "internalType": "string",
              "name": "token",
              "type": "string"
            }
          ],
          "internalType": "struct VotingSystem.Voter",
          "name": "",
          "type": "tuple"
        }
      ],
      "stateMutability": "view",
      "type": "function",
      "constant": true
    },
    {
      "inputs": [
        {
          "internalType": "string",
          "name": "_email",
          "type": "string"
        },
        {
          "internalType": "string",
          "name": "_password",
          "type": "string"
        }
      ],
      "name": "getVoterByEmailPassword",
      "outputs": [
        {
          "components": [
            {
              "internalType": "uint256",
              "name": "id",
              "type": "uint256"
            },
            {
              "internalType": "string",
              "name": "key",
              "type": "string"
            },
            {
              "internalType": "string",
              "name": "email",
              "type": "string"
            },
            {
              "internalType": "bytes32",
              "name": "password",
              "type": "bytes32"
            },
            {
              "internalType": "string",
              "name": "role",
              "type": "string"
            },
            {
              "internalType": "uint256",
              "name": "status",
              "type": "uint256"
            },
            {
              "internalType": "string",
              "name": "token",
              "type": "string"
            }
          ],
          "internalType": "struct VotingSystem.Voter",
          "name": "",
          "type": "tuple"
        }
      ],
      "stateMutability": "view",
      "type": "function",
      "constant": true
    },
    {
      "inputs": [
        {
          "internalType": "string",
          "name": "_key",
          "type": "string"
        },
        {
          "internalType": "string",
          "name": "_password",
          "type": "string"
        }
      ],
      "name": "updateVoterPassword",
      "outputs": [],
      "stateMutability": "nonpayable",
      "type": "function"
    },
    {
      "inputs": [
        {
          "internalType": "string",
          "name": "_token",
          "type": "string"
        }
      ],
      "name": "verifyVoterAccount",
      "outputs": [
        {
          "internalType": "bool",
          "name": "",
          "type": "bool"
        }
      ],
      "stateMutability": "nonpayable",
      "type": "function"
    },
    {
      "inputs": [
        {
          "internalType": "string",
          "name": "_email",
          "type": "string"
        },
        {
          "internalType": "string",
          "name": "_password",
          "type": "string"
        }
      ],
      "name": "getVoterStatus",
      "outputs": [
        {
          "internalType": "uint256",
          "name": "status",
          "type": "uint256"
        }
      ],
      "stateMutability": "view",
      "type": "function",
      "constant": true
    },
    {
      "inputs": [
        {
          "internalType": "string",
          "name": "_email",
          "type": "string"
        },
        {
          "internalType": "string",
          "name": "_password",
          "type": "string"
        }
      ],
      "name": "checkVoterEmailPassword",
      "outputs": [
        {
          "internalType": "bool",
          "name": "foundVoter",
          "type": "bool"
        }
      ],
      "stateMutability": "view",
      "type": "function",
      "constant": true
    },
    {
      "inputs": [
        {
          "internalType": "string",
          "name": "_key",
          "type": "string"
        }
      ],
      "name": "isVoterExist",
      "outputs": [
        {
          "internalType": "bool",
          "name": "",
          "type": "bool"
        }
      ],
      "stateMutability": "view",
      "type": "function",
      "constant": true
    },
    {
      "inputs": [
        {
          "internalType": "string",
          "name": "_categoryName",
          "type": "string"
        }
      ],
      "name": "addCategory",
      "outputs": [],
      "stateMutability": "nonpayable",
      "type": "function"
    },
    {
      "inputs": [
        {
          "components": [
            {
              "internalType": "uint256",
              "name": "categoryId",
              "type": "uint256"
            },
            {
              "internalType": "string",
              "name": "categoryName",
              "type": "string"
            },
            {
              "components": [
                {
                  "internalType": "uint256",
                  "name": "eventId",
                  "type": "uint256"
                },
                {
                  "internalType": "string",
                  "name": "eventName",
                  "type": "string"
                },
                {
                  "internalType": "uint256",
                  "name": "categoryId",
                  "type": "uint256"
                },
                {
                  "components": [
                    {
                      "internalType": "uint256",
                      "name": "id",
                      "type": "uint256"
                    },
                    {
                      "internalType": "string",
                      "name": "name",
                      "type": "string"
                    },
                    {
                      "internalType": "string",
                      "name": "description",
                      "type": "string"
                    },
                    {
                      "internalType": "uint256",
                      "name": "studentId",
                      "type": "uint256"
                    },
                    {
                      "internalType": "uint256",
                      "name": "categoryId",
                      "type": "uint256"
                    },
                    {
                      "internalType": "uint256",
                      "name": "eventId",
                      "type": "uint256"
                    },
                    {
                      "internalType": "uint256",
                      "name": "voteCount",
                      "type": "uint256"
                    },
                    {
                      "internalType": "bool",
                      "name": "win",
                      "type": "bool"
                    },
                    {
                      "internalType": "string",
                      "name": "imageFileName",
                      "type": "string"
                    }
                  ],
                  "internalType": "struct VotingSystem.Candidate[]",
                  "name": "candidates",
                  "type": "tuple[]"
                },
                {
                  "internalType": "uint256",
                  "name": "candidateCount",
                  "type": "uint256"
                },
                {
                  "internalType": "uint256",
                  "name": "status",
                  "type": "uint256"
                }
              ],
              "internalType": "struct VotingSystem.Event[]",
              "name": "events",
              "type": "tuple[]"
            },
            {
              "internalType": "uint256",
              "name": "status",
              "type": "uint256"
            }
          ],
          "internalType": "struct VotingSystem.Category",
          "name": "_category",
          "type": "tuple"
        }
      ],
      "name": "updateCategory",
      "outputs": [],
      "stateMutability": "nonpayable",
      "type": "function"
    },
    {
      "inputs": [
        {
          "internalType": "uint256",
          "name": "_categoryId",
          "type": "uint256"
        },
        {
          "internalType": "string",
          "name": "_eventName",
          "type": "string"
        }
      ],
      "name": "addEvent",
      "outputs": [],
      "stateMutability": "nonpayable",
      "type": "function"
    },
    {
      "inputs": [
        {
          "components": [
            {
              "internalType": "uint256",
              "name": "eventId",
              "type": "uint256"
            },
            {
              "internalType": "string",
              "name": "eventName",
              "type": "string"
            },
            {
              "internalType": "uint256",
              "name": "categoryId",
              "type": "uint256"
            },
            {
              "components": [
                {
                  "internalType": "uint256",
                  "name": "id",
                  "type": "uint256"
                },
                {
                  "internalType": "string",
                  "name": "name",
                  "type": "string"
                },
                {
                  "internalType": "string",
                  "name": "description",
                  "type": "string"
                },
                {
                  "internalType": "uint256",
                  "name": "studentId",
                  "type": "uint256"
                },
                {
                  "internalType": "uint256",
                  "name": "categoryId",
                  "type": "uint256"
                },
                {
                  "internalType": "uint256",
                  "name": "eventId",
                  "type": "uint256"
                },
                {
                  "internalType": "uint256",
                  "name": "voteCount",
                  "type": "uint256"
                },
                {
                  "internalType": "bool",
                  "name": "win",
                  "type": "bool"
                },
                {
                  "internalType": "string",
                  "name": "imageFileName",
                  "type": "string"
                }
              ],
              "internalType": "struct VotingSystem.Candidate[]",
              "name": "candidates",
              "type": "tuple[]"
            },
            {
              "internalType": "uint256",
              "name": "candidateCount",
              "type": "uint256"
            },
            {
              "internalType": "uint256",
              "name": "status",
              "type": "uint256"
            }
          ],
          "internalType": "struct VotingSystem.Event",
          "name": "_event",
          "type": "tuple"
        }
      ],
      "name": "updateEvent",
      "outputs": [],
      "stateMutability": "nonpayable",
      "type": "function"
    },
    {
      "inputs": [
        {
          "internalType": "uint256",
          "name": "_categoryId",
          "type": "uint256"
        },
        {
          "internalType": "uint256",
          "name": "_eventId",
          "type": "uint256"
        },
        {
          "internalType": "string",
          "name": "_candidateName",
          "type": "string"
        },
        {
          "internalType": "string",
          "name": "_description",
          "type": "string"
        },
        {
          "internalType": "uint256",
          "name": "_studentId",
          "type": "uint256"
        },
        {
          "internalType": "string",
          "name": "_imageFileName",
          "type": "string"
        }
      ],
      "name": "addCandidateToEvent",
      "outputs": [],
      "stateMutability": "nonpayable",
      "type": "function"
    },
    {
      "inputs": [
        {
          "components": [
            {
              "internalType": "uint256",
              "name": "id",
              "type": "uint256"
            },
            {
              "internalType": "string",
              "name": "name",
              "type": "string"
            },
            {
              "internalType": "string",
              "name": "description",
              "type": "string"
            },
            {
              "internalType": "uint256",
              "name": "studentId",
              "type": "uint256"
            },
            {
              "internalType": "uint256",
              "name": "categoryId",
              "type": "uint256"
            },
            {
              "internalType": "uint256",
              "name": "eventId",
              "type": "uint256"
            },
            {
              "internalType": "uint256",
              "name": "voteCount",
              "type": "uint256"
            },
            {
              "internalType": "bool",
              "name": "win",
              "type": "bool"
            },
            {
              "internalType": "string",
              "name": "imageFileName",
              "type": "string"
            }
          ],
          "internalType": "struct VotingSystem.Candidate",
          "name": "_candidate",
          "type": "tuple"
        }
      ],
      "name": "updateCandidate",
      "outputs": [],
      "stateMutability": "nonpayable",
      "type": "function"
    },
    {
      "inputs": [
        {
          "internalType": "uint256",
          "name": "_categoryId",
          "type": "uint256"
        },
        {
          "internalType": "uint256",
          "name": "_eventId",
          "type": "uint256"
        },
        {
          "internalType": "uint256",
          "name": "_studentId",
          "type": "uint256"
        }
      ],
      "name": "isCandidateExistsInEvent",
      "outputs": [
        {
          "internalType": "bool",
          "name": "",
          "type": "bool"
        }
      ],
      "stateMutability": "view",
      "type": "function",
      "constant": true
    },
    {
      "inputs": [
        {
          "internalType": "uint256",
          "name": "_categoryId",
          "type": "uint256"
        },
        {
          "internalType": "uint256",
          "name": "_eventId",
          "type": "uint256"
        },
        {
          "internalType": "uint256",
          "name": "_candidateId",
          "type": "uint256"
        }
      ],
      "name": "isCandidateExistsInEventById",
      "outputs": [
        {
          "internalType": "bool",
          "name": "",
          "type": "bool"
        }
      ],
      "stateMutability": "view",
      "type": "function",
      "constant": true
    },
    {
      "inputs": [
        {
          "internalType": "uint256",
          "name": "_categoryId",
          "type": "uint256"
        },
        {
          "internalType": "uint256",
          "name": "_eventId",
          "type": "uint256"
        }
      ],
      "name": "isEventExists",
      "outputs": [
        {
          "internalType": "bool",
          "name": "",
          "type": "bool"
        }
      ],
      "stateMutability": "view",
      "type": "function",
      "constant": true
    },
    {
      "inputs": [
        {
          "internalType": "uint256",
          "name": "_categoryId",
          "type": "uint256"
        },
        {
          "internalType": "string",
          "name": "_eventName",
          "type": "string"
        }
      ],
      "name": "isEventExists",
      "outputs": [
        {
          "internalType": "bool",
          "name": "",
          "type": "bool"
        }
      ],
      "stateMutability": "view",
      "type": "function",
      "constant": true
    },
    {
      "inputs": [
        {
          "internalType": "uint256",
          "name": "_categoryId",
          "type": "uint256"
        }
      ],
      "name": "getAllCategoryEvent",
      "outputs": [
        {
          "components": [
            {
              "internalType": "uint256",
              "name": "eventId",
              "type": "uint256"
            },
            {
              "internalType": "string",
              "name": "eventName",
              "type": "string"
            },
            {
              "internalType": "uint256",
              "name": "categoryId",
              "type": "uint256"
            },
            {
              "components": [
                {
                  "internalType": "uint256",
                  "name": "id",
                  "type": "uint256"
                },
                {
                  "internalType": "string",
                  "name": "name",
                  "type": "string"
                },
                {
                  "internalType": "string",
                  "name": "description",
                  "type": "string"
                },
                {
                  "internalType": "uint256",
                  "name": "studentId",
                  "type": "uint256"
                },
                {
                  "internalType": "uint256",
                  "name": "categoryId",
                  "type": "uint256"
                },
                {
                  "internalType": "uint256",
                  "name": "eventId",
                  "type": "uint256"
                },
                {
                  "internalType": "uint256",
                  "name": "voteCount",
                  "type": "uint256"
                },
                {
                  "internalType": "bool",
                  "name": "win",
                  "type": "bool"
                },
                {
                  "internalType": "string",
                  "name": "imageFileName",
                  "type": "string"
                }
              ],
              "internalType": "struct VotingSystem.Candidate[]",
              "name": "candidates",
              "type": "tuple[]"
            },
            {
              "internalType": "uint256",
              "name": "candidateCount",
              "type": "uint256"
            },
            {
              "internalType": "uint256",
              "name": "status",
              "type": "uint256"
            }
          ],
          "internalType": "struct VotingSystem.Event[]",
          "name": "foundEvent",
          "type": "tuple[]"
        }
      ],
      "stateMutability": "view",
      "type": "function",
      "constant": true
    },
    {
      "inputs": [
        {
          "internalType": "uint256",
          "name": "_categoryId",
          "type": "uint256"
        },
        {
          "internalType": "uint256",
          "name": "_eventId",
          "type": "uint256"
        }
      ],
      "name": "getAllCandidatesInEvent",
      "outputs": [
        {
          "components": [
            {
              "internalType": "uint256",
              "name": "id",
              "type": "uint256"
            },
            {
              "internalType": "string",
              "name": "name",
              "type": "string"
            },
            {
              "internalType": "string",
              "name": "description",
              "type": "string"
            },
            {
              "internalType": "uint256",
              "name": "studentId",
              "type": "uint256"
            },
            {
              "internalType": "uint256",
              "name": "categoryId",
              "type": "uint256"
            },
            {
              "internalType": "uint256",
              "name": "eventId",
              "type": "uint256"
            },
            {
              "internalType": "uint256",
              "name": "voteCount",
              "type": "uint256"
            },
            {
              "internalType": "bool",
              "name": "win",
              "type": "bool"
            },
            {
              "internalType": "string",
              "name": "imageFileName",
              "type": "string"
            }
          ],
          "internalType": "struct VotingSystem.Candidate[]",
          "name": "foundCandidates",
          "type": "tuple[]"
        }
      ],
      "stateMutability": "view",
      "type": "function",
      "constant": true
    },
    {
      "inputs": [],
      "name": "getAllCandidates",
      "outputs": [
        {
          "components": [
            {
              "internalType": "uint256",
              "name": "id",
              "type": "uint256"
            },
            {
              "internalType": "string",
              "name": "name",
              "type": "string"
            },
            {
              "internalType": "string",
              "name": "description",
              "type": "string"
            },
            {
              "internalType": "uint256",
              "name": "studentId",
              "type": "uint256"
            },
            {
              "internalType": "uint256",
              "name": "categoryId",
              "type": "uint256"
            },
            {
              "internalType": "uint256",
              "name": "eventId",
              "type": "uint256"
            },
            {
              "internalType": "uint256",
              "name": "voteCount",
              "type": "uint256"
            },
            {
              "internalType": "bool",
              "name": "win",
              "type": "bool"
            },
            {
              "internalType": "string",
              "name": "imageFileName",
              "type": "string"
            }
          ],
          "internalType": "struct VotingSystem.Candidate[]",
          "name": "",
          "type": "tuple[]"
        }
      ],
      "stateMutability": "view",
      "type": "function",
      "constant": true
    },
    {
      "inputs": [],
      "name": "getAllCategory",
      "outputs": [
        {
          "components": [
            {
              "internalType": "uint256",
              "name": "categoryId",
              "type": "uint256"
            },
            {
              "internalType": "string",
              "name": "categoryName",
              "type": "string"
            },
            {
              "components": [
                {
                  "internalType": "uint256",
                  "name": "eventId",
                  "type": "uint256"
                },
                {
                  "internalType": "string",
                  "name": "eventName",
                  "type": "string"
                },
                {
                  "internalType": "uint256",
                  "name": "categoryId",
                  "type": "uint256"
                },
                {
                  "components": [
                    {
                      "internalType": "uint256",
                      "name": "id",
                      "type": "uint256"
                    },
                    {
                      "internalType": "string",
                      "name": "name",
                      "type": "string"
                    },
                    {
                      "internalType": "string",
                      "name": "description",
                      "type": "string"
                    },
                    {
                      "internalType": "uint256",
                      "name": "studentId",
                      "type": "uint256"
                    },
                    {
                      "internalType": "uint256",
                      "name": "categoryId",
                      "type": "uint256"
                    },
                    {
                      "internalType": "uint256",
                      "name": "eventId",
                      "type": "uint256"
                    },
                    {
                      "internalType": "uint256",
                      "name": "voteCount",
                      "type": "uint256"
                    },
                    {
                      "internalType": "bool",
                      "name": "win",
                      "type": "bool"
                    },
                    {
                      "internalType": "string",
                      "name": "imageFileName",
                      "type": "string"
                    }
                  ],
                  "internalType": "struct VotingSystem.Candidate[]",
                  "name": "candidates",
                  "type": "tuple[]"
                },
                {
                  "internalType": "uint256",
                  "name": "candidateCount",
                  "type": "uint256"
                },
                {
                  "internalType": "uint256",
                  "name": "status",
                  "type": "uint256"
                }
              ],
              "internalType": "struct VotingSystem.Event[]",
              "name": "events",
              "type": "tuple[]"
            },
            {
              "internalType": "uint256",
              "name": "status",
              "type": "uint256"
            }
          ],
          "internalType": "struct VotingSystem.Category[]",
          "name": "",
          "type": "tuple[]"
        }
      ],
      "stateMutability": "view",
      "type": "function",
      "constant": true
    },
    {
      "inputs": [
        {
          "internalType": "uint256",
          "name": "_categoryId",
          "type": "uint256"
        }
      ],
      "name": "getCategoryById",
      "outputs": [
        {
          "components": [
            {
              "internalType": "uint256",
              "name": "categoryId",
              "type": "uint256"
            },
            {
              "internalType": "string",
              "name": "categoryName",
              "type": "string"
            },
            {
              "components": [
                {
                  "internalType": "uint256",
                  "name": "eventId",
                  "type": "uint256"
                },
                {
                  "internalType": "string",
                  "name": "eventName",
                  "type": "string"
                },
                {
                  "internalType": "uint256",
                  "name": "categoryId",
                  "type": "uint256"
                },
                {
                  "components": [
                    {
                      "internalType": "uint256",
                      "name": "id",
                      "type": "uint256"
                    },
                    {
                      "internalType": "string",
                      "name": "name",
                      "type": "string"
                    },
                    {
                      "internalType": "string",
                      "name": "description",
                      "type": "string"
                    },
                    {
                      "internalType": "uint256",
                      "name": "studentId",
                      "type": "uint256"
                    },
                    {
                      "internalType": "uint256",
                      "name": "categoryId",
                      "type": "uint256"
                    },
                    {
                      "internalType": "uint256",
                      "name": "eventId",
                      "type": "uint256"
                    },
                    {
                      "internalType": "uint256",
                      "name": "voteCount",
                      "type": "uint256"
                    },
                    {
                      "internalType": "bool",
                      "name": "win",
                      "type": "bool"
                    },
                    {
                      "internalType": "string",
                      "name": "imageFileName",
                      "type": "string"
                    }
                  ],
                  "internalType": "struct VotingSystem.Candidate[]",
                  "name": "candidates",
                  "type": "tuple[]"
                },
                {
                  "internalType": "uint256",
                  "name": "candidateCount",
                  "type": "uint256"
                },
                {
                  "internalType": "uint256",
                  "name": "status",
                  "type": "uint256"
                }
              ],
              "internalType": "struct VotingSystem.Event[]",
              "name": "events",
              "type": "tuple[]"
            },
            {
              "internalType": "uint256",
              "name": "status",
              "type": "uint256"
            }
          ],
          "internalType": "struct VotingSystem.Category",
          "name": "",
          "type": "tuple"
        }
      ],
      "stateMutability": "view",
      "type": "function",
      "constant": true
    },
    {
      "inputs": [],
      "name": "getAllEvent",
      "outputs": [
        {
          "components": [
            {
              "internalType": "uint256",
              "name": "eventId",
              "type": "uint256"
            },
            {
              "internalType": "string",
              "name": "eventName",
              "type": "string"
            },
            {
              "internalType": "uint256",
              "name": "categoryId",
              "type": "uint256"
            },
            {
              "components": [
                {
                  "internalType": "uint256",
                  "name": "id",
                  "type": "uint256"
                },
                {
                  "internalType": "string",
                  "name": "name",
                  "type": "string"
                },
                {
                  "internalType": "string",
                  "name": "description",
                  "type": "string"
                },
                {
                  "internalType": "uint256",
                  "name": "studentId",
                  "type": "uint256"
                },
                {
                  "internalType": "uint256",
                  "name": "categoryId",
                  "type": "uint256"
                },
                {
                  "internalType": "uint256",
                  "name": "eventId",
                  "type": "uint256"
                },
                {
                  "internalType": "uint256",
                  "name": "voteCount",
                  "type": "uint256"
                },
                {
                  "internalType": "bool",
                  "name": "win",
                  "type": "bool"
                },
                {
                  "internalType": "string",
                  "name": "imageFileName",
                  "type": "string"
                }
              ],
              "internalType": "struct VotingSystem.Candidate[]",
              "name": "candidates",
              "type": "tuple[]"
            },
            {
              "internalType": "uint256",
              "name": "candidateCount",
              "type": "uint256"
            },
            {
              "internalType": "uint256",
              "name": "status",
              "type": "uint256"
            }
          ],
          "internalType": "struct VotingSystem.Event[]",
          "name": "",
          "type": "tuple[]"
        }
      ],
      "stateMutability": "view",
      "type": "function",
      "constant": true
    },
    {
      "inputs": [
        {
          "internalType": "uint256",
          "name": "_categoryId",
          "type": "uint256"
        },
        {
          "internalType": "uint256",
          "name": "_eventId",
          "type": "uint256"
        }
      ],
      "name": "getEventById",
      "outputs": [
        {
          "components": [
            {
              "internalType": "uint256",
              "name": "eventId",
              "type": "uint256"
            },
            {
              "internalType": "string",
              "name": "eventName",
              "type": "string"
            },
            {
              "internalType": "uint256",
              "name": "categoryId",
              "type": "uint256"
            },
            {
              "components": [
                {
                  "internalType": "uint256",
                  "name": "id",
                  "type": "uint256"
                },
                {
                  "internalType": "string",
                  "name": "name",
                  "type": "string"
                },
                {
                  "internalType": "string",
                  "name": "description",
                  "type": "string"
                },
                {
                  "internalType": "uint256",
                  "name": "studentId",
                  "type": "uint256"
                },
                {
                  "internalType": "uint256",
                  "name": "categoryId",
                  "type": "uint256"
                },
                {
                  "internalType": "uint256",
                  "name": "eventId",
                  "type": "uint256"
                },
                {
                  "internalType": "uint256",
                  "name": "voteCount",
                  "type": "uint256"
                },
                {
                  "internalType": "bool",
                  "name": "win",
                  "type": "bool"
                },
                {
                  "internalType": "string",
                  "name": "imageFileName",
                  "type": "string"
                }
              ],
              "internalType": "struct VotingSystem.Candidate[]",
              "name": "candidates",
              "type": "tuple[]"
            },
            {
              "internalType": "uint256",
              "name": "candidateCount",
              "type": "uint256"
            },
            {
              "internalType": "uint256",
              "name": "status",
              "type": "uint256"
            }
          ],
          "internalType": "struct VotingSystem.Event",
          "name": "",
          "type": "tuple"
        }
      ],
      "stateMutability": "view",
      "type": "function",
      "constant": true
    },
    {
      "inputs": [
        {
          "internalType": "uint256",
          "name": "_voterId",
          "type": "uint256"
        },
        {
          "internalType": "uint256",
          "name": "_candidateId",
          "type": "uint256"
        },
        {
          "internalType": "uint256",
          "name": "_categoryId",
          "type": "uint256"
        },
        {
          "internalType": "uint256",
          "name": "_eventId",
          "type": "uint256"
        }
      ],
      "name": "vote",
      "outputs": [],
      "stateMutability": "nonpayable",
      "type": "function"
    },
    {
      "inputs": [
        {
          "internalType": "uint256",
          "name": "_candidateId",
          "type": "uint256"
        }
      ],
      "name": "getCandidateVoteCount",
      "outputs": [
        {
          "internalType": "uint256",
          "name": "count",
          "type": "uint256"
        }
      ],
      "stateMutability": "view",
      "type": "function",
      "constant": true
    },
    {
      "inputs": [
        {
          "internalType": "uint256",
          "name": "_categoryId",
          "type": "uint256"
        },
        {
          "internalType": "uint256",
          "name": "_eventId",
          "type": "uint256"
        }
      ],
      "name": "getVoteEventCandidate",
      "outputs": [
        {
          "components": [
            {
              "internalType": "uint256",
              "name": "id",
              "type": "uint256"
            },
            {
              "internalType": "string",
              "name": "name",
              "type": "string"
            },
            {
              "internalType": "string",
              "name": "description",
              "type": "string"
            },
            {
              "internalType": "uint256",
              "name": "studentId",
              "type": "uint256"
            },
            {
              "internalType": "uint256",
              "name": "categoryId",
              "type": "uint256"
            },
            {
              "internalType": "uint256",
              "name": "eventId",
              "type": "uint256"
            },
            {
              "internalType": "uint256",
              "name": "voteCount",
              "type": "uint256"
            },
            {
              "internalType": "bool",
              "name": "win",
              "type": "bool"
            },
            {
              "internalType": "string",
              "name": "imageFileName",
              "type": "string"
            }
          ],
          "internalType": "struct VotingSystem.Candidate[]",
          "name": "",
          "type": "tuple[]"
        }
      ],
      "stateMutability": "view",
      "type": "function",
      "constant": true
    },
    {
      "inputs": [
        {
          "internalType": "uint256",
          "name": "_categoryId",
          "type": "uint256"
        },
        {
          "internalType": "uint256",
          "name": "_eventId",
          "type": "uint256"
        }
      ],
      "name": "whoIsTheWinner",
      "outputs": [
        {
          "components": [
            {
              "internalType": "uint256",
              "name": "id",
              "type": "uint256"
            },
            {
              "internalType": "string",
              "name": "name",
              "type": "string"
            },
            {
              "internalType": "string",
              "name": "description",
              "type": "string"
            },
            {
              "internalType": "uint256",
              "name": "studentId",
              "type": "uint256"
            },
            {
              "internalType": "uint256",
              "name": "categoryId",
              "type": "uint256"
            },
            {
              "internalType": "uint256",
              "name": "eventId",
              "type": "uint256"
            },
            {
              "internalType": "uint256",
              "name": "voteCount",
              "type": "uint256"
            },
            {
              "internalType": "bool",
              "name": "win",
              "type": "bool"
            },
            {
              "internalType": "string",
              "name": "imageFileName",
              "type": "string"
            }
          ],
          "internalType": "struct VotingSystem.Candidate",
          "name": "",
          "type": "tuple"
        }
      ],
      "stateMutability": "view",
      "type": "function",
      "constant": true
    }
  ],
  "bytecode": "0x608060405234801561001057600080fd5b50600080546001600160a01b03191633179055615378806100326000396000f3fe608060405234801561001057600080fd5b50600436106101f05760003560e01c8063748f55a81161010f578063b315c597116100a2578063dfdffaf411610071578063dfdffaf4146104ff578063f29565ed14610512578063f731d0e914610525578063ffdd108b1461053857600080fd5b8063b315c59714610490578063bf03f677146104b3578063c8011280146104c6578063da58c7d9146104d957600080fd5b80638f2c2805116100de5780638f2c280514610435578063909f85021461044a578063a1a025641461046a578063a7e62d1b1461047d57600080fd5b8063748f55a8146103c457806376304984146103e45780638801b5b6146103f75780638da5cb5b1461040a57600080fd5b80634ffd25f61161018757806360e93f3c1161015657806360e93f3c14610313578063642d20ad14610333578063689b6fbf1461039e57806368c9e388146103b157600080fd5b80634ffd25f6146102c757806350515a77146102da578063514fc62a146102ed5780635b4d727c1461030057600080fd5b80633e60e2f5116101c35780633e60e2f514610250578063400af02a14610271578063401a52dd146102915780634fb43250146102a457600080fd5b80631002cdd4146101f55780632e0dcbf7146102135780632e6997fe146102285780633a637c201461023d575b600080fd5b6101fd61054b565b60405161020a9190614683565b60405180910390f35b610226610221366004614807565b610994565b005b610230610ac3565b60405161020a9190614843565b61022661024b366004614ace565b610c45565b61026361025e366004614be1565b610cad565b60405190815260200161020a565b61028461027f366004614be1565b610ceb565b60405161020a9190614c44565b6101fd61029f366004614ce1565b610dc8565b6102b76102b2366004614cfa565b6111bc565b604051901515815260200161020a565b6102266102d5366004614d1c565b611268565b6102b76102e8366004614d50565b611393565b6102b76102fb366004614807565b611452565b61023061030e366004614cfa565b6114b8565b610326610321366004614ce1565b611854565b60405161020a9190614e1d565b610374610341366004614ce1565b60046020819052600091825260409091208054600182015460028301546003840154939094015491939092909160ff1685565b6040805195865260208601949094529284019190915260608301521515608082015260a00161020a565b6102b76103ac366004614be1565b611cb7565b6102266103bf366004614e30565b611cd8565b6103d76103d2366004614cfa565b611fa4565b60405161020a9190614e62565b6102266103f2366004614e75565b612442565b610284610405366004614be1565b6126ea565b60005461041d906001600160a01b031681565b6040516001600160a01b03909116815260200161020a565b61043d612ac6565b60405161020a9190614f18565b61045d610458366004614cfa565b612fc2565b60405161020a9190614f6d565b6102b7610478366004614807565b61347a565b61023061048b366004614cfa565b61355e565b61026361049e366004614ce1565b60009081526003602052604090206006015490565b6102b76104c1366004614f80565b61397c565b6102266104d4366004614fac565b613a10565b6104ec6104e7366004614ce1565b613bc6565b60405161020a9796959493929190614fe0565b6102b761050d366004614f80565b613e21565b610226610520366004614be1565b613ea9565b61022661053336600461504d565b613f8f565b610226610546366004614d50565b614124565b606060006009546001600160401b03811115610569576105696146e5565b6040519080825280602002602001820160405280156105a257816020015b61058f6143ce565b8152602001906001900390816105875790505b5090506000805b60075481101561098c5760005b600160006105c48483615134565b815260208101919091526040016000206002015481101561097957600160006105ed8483615134565b8152602001908152602001600020600201818154811061060f5761060f61514c565b90600052602060002090600602016040518060c00160405290816000820154815260200160018201805461064290615162565b80601f016020809104026020016040519081016040528092919081815260200182805461066e90615162565b80156106bb5780601f10610690576101008083540402835291602001916106bb565b820191906000526020600020905b81548152906001019060200180831161069e57829003601f168201915b505050505081526020016002820154815260200160038201805480602002602001604051908101604052809291908181526020016000905b828210156109215783829060005260206000209060090201604051806101200160405290816000820154815260200160018201805461073190615162565b80601f016020809104026020016040519081016040528092919081815260200182805461075d90615162565b80156107aa5780601f1061077f576101008083540402835291602001916107aa565b820191906000526020600020905b81548152906001019060200180831161078d57829003601f168201915b505050505081526020016002820180546107c390615162565b80601f01602080910402602001604051908101604052809291908181526020018280546107ef90615162565b801561083c5780601f106108115761010080835404028352916020019161083c565b820191906000526020600020905b81548152906001019060200180831161081f57829003601f168201915b505050918352505060038201546020820152600482015460408201526005820154606082015260068201546080820152600782015460ff16151560a082015260088201805460c09092019161089090615162565b80601f01602080910402602001604051908101604052809291908181526020018280546108bc90615162565b80156109095780601f106108de57610100808354040283529160200191610909565b820191906000526020600020905b8154815290600101906020018083116108ec57829003601f168201915b505050505081525050815260200190600101906106f3565b5050505081526020016004820154815260200160058201548152505084848151811061094f5761094f61514c565b6020908102919091010152610965600184615134565b92508061097181615196565b9150506105b6565b508061098481615196565b9150506105a9565b509092915050565b60015b6007548111610a3757600160008281526020019081526020016000206001016040516109c391906151af565b6040518091039020828051906020012003610a255760405162461bcd60e51b815260206004820152601760248201527f43617465676f727920616c72656164792065786973747300000000000000000060448201526064015b60405180910390fd5b80610a2f81615196565b915050610997565b50600160076000828254610a4b9190615134565b9091555050600754600090815260016020818152604090922083519092610a789284019190850190614404565b5060078054825560016003830155546040517f5bae3f75753ef0a1c0ea0f6c51d7b43a4b8d116572b8b7b5cb771f9ad32d4ae590610ab790859061524a565b60405180910390a25050565b606060006008546001600160401b03811115610ae157610ae16146e5565b604051908082528060200260200182016040528015610b1a57816020015b610b07614488565b815260200190600190039081610aff5790505b50905060006009546001600160401b03811115610b3957610b396146e5565b604051908082528060200260200182016040528015610b7257816020015b610b5f6143ce565b815260200190600190039081610b575790505b509050610b7d61054b565b90506000805b600954811015610c3c5760005b838281518110610ba257610ba261514c565b60200260200101516060015151811015610c2957838281518110610bc857610bc861514c565b6020026020010151606001518181518110610be557610be561514c565b6020026020010151858481518110610bff57610bff61514c565b6020908102919091010152610c15600184615134565b925080610c2181615196565b915050610b90565b5080610c3481615196565b915050610b83565b50919392505050565b80516000908152600160205260408120549003610c745760405162461bcd60e51b8152600401610a1c9061525d565b805160009081526001602081815260409092208284015180519193610c9e93850192910190614404565b50606090910151600390910155565b600080610cba84846126ea565b8051909150600003610cde5760405162461bcd60e51b8152600401610a1c90615294565b60a0015190505b92915050565b610d2e6040518060e00160405280600081526020016060815260200160608152602001600080191681526020016060815260200160008152602001606081525090565b6000610d3a84846126ea565b8051909150600003610d5e5760405162461bcd60e51b8152600401610a1c90615294565b8060a00151600114610dc15760405162461bcd60e51b815260206004820152602660248201527f596f7572206163636f756e74207761732062616e6e6564206f72206e6f74207660448201526565726966792160d01b6064820152608401610a1c565b9392505050565b60008181526001602052604081206002810154606092906001600160401b03811115610df657610df66146e5565b604051908082528060200260200182016040528015610e2f57816020015b610e1c6143ce565b815260200190600190039081610e145790505b50905060005b60028301548110156111b457826002018181548110610e5657610e5661514c565b90600052602060002090600602016040518060c001604052908160008201548152602001600182018054610e8990615162565b80601f0160208091040260200160405190810160405280929190818152602001828054610eb590615162565b8015610f025780601f10610ed757610100808354040283529160200191610f02565b820191906000526020600020905b815481529060010190602001808311610ee557829003601f168201915b505050505081526020016002820154815260200160038201805480602002602001604051908101604052809291908181526020016000905b8282101561116857838290600052602060002090600902016040518061012001604052908160008201548152602001600182018054610f7890615162565b80601f0160208091040260200160405190810160405280929190818152602001828054610fa490615162565b8015610ff15780601f10610fc657610100808354040283529160200191610ff1565b820191906000526020600020905b815481529060010190602001808311610fd457829003601f168201915b5050505050815260200160028201805461100a90615162565b80601f016020809104026020016040519081016040528092919081815260200182805461103690615162565b80156110835780601f1061105857610100808354040283529160200191611083565b820191906000526020600020905b81548152906001019060200180831161106657829003601f168201915b505050918352505060038201546020820152600482015460408201526005820154606082015260068201546080820152600782015460ff16151560a082015260088201805460c0909201916110d790615162565b80601f016020809104026020016040519081016040528092919081815260200182805461110390615162565b80156111505780601f1061112557610100808354040283529160200191611150565b820191906000526020600020905b81548152906001019060200180831161113357829003601f168201915b50505050508152505081526020019060010190610f3a565b505050508152602001600482015481526020016005820154815250508282815181106111965761119661514c565b602002602001018190525080806111ac90615196565b915050610e35565b509392505050565b60008281526001602052604081205481036111e95760405162461bcd60e51b8152600401610a1c906152d8565b60005b60008481526001602052604090206002015481101561125e57600084815260016020526040902060020180548491908390811061122b5761122b61514c565b9060005260206000209060060201600001540361124c576001915050610ce5565b8061125681615196565b9150506111ec565b5060009392505050565b604080820151600090815260016020529081205490036112c55760405162461bcd60e51b815260206004820152601860248201527743617465676f727920646f6573206e6f742065786973747360401b6044820152606401610a1c565b6112d7816040015182600001516111bc565b61131b5760405162461bcd60e51b81526020600482015260156024820152744576656e7420646f6573206e6f742065786973742160581b6044820152606401610a1c565b6000600160008360400151815260200190815260200160002060020160018360000151611348919061530f565b815481106113585761135861514c565b906000526020600020906006020190508160200151816001019080519060200190611384929190614404565b5060a090910151600590910155565b60008281526001602052604081205481036113c05760405162461bcd60e51b8152600401610a1c906152d8565b60005b60008481526001602052604090206002015481101561125e57828051906020012060016000868152602001908152602001600020600201828154811061140b5761140b61514c565b906000526020600020906006020160010160405161142991906151af565b604051809103902003611440576001915050610ce5565b8061144a81615196565b9150506113c3565b600060015b600b5481116114af5760008181526005602052604090819020905161147f91600101906151af565b604051809103902083805190602001200361149d5750600192915050565b806114a781615196565b915050611457565b50600092915050565b60008281526001602052604081206060915b600282015481101561184c57838260020182815481106114ec576114ec61514c565b9060005260206000209060060201600001540361183a57600082600201828154811061151a5761151a61514c565b9060005260206000209060060201600401546001600160401b03811115611543576115436146e5565b60405190808252806020026020018201604052801561157c57816020015b611569614488565b8152602001906001900390816115615790505b50905060005b8360020183815481106115975761159761514c565b90600052602060002090600602016003018054905081101561182f578360020183815481106115c8576115c861514c565b906000526020600020906006020160030181815481106115ea576115ea61514c565b9060005260206000209060090201604051806101200160405290816000820154815260200160018201805461161e90615162565b80601f016020809104026020016040519081016040528092919081815260200182805461164a90615162565b80156116975780601f1061166c57610100808354040283529160200191611697565b820191906000526020600020905b81548152906001019060200180831161167a57829003601f168201915b505050505081526020016002820180546116b090615162565b80601f01602080910402602001604051908101604052809291908181526020018280546116dc90615162565b80156117295780601f106116fe57610100808354040283529160200191611729565b820191906000526020600020905b81548152906001019060200180831161170c57829003601f168201915b505050918352505060038201546020820152600482015460408201526005820154606082015260068201546080820152600782015460ff16151560a082015260088201805460c09092019161177d90615162565b80601f01602080910402602001604051908101604052809291908181526020018280546117a990615162565b80156117f65780601f106117cb576101008083540402835291602001916117f6565b820191906000526020600020905b8154815290600101906020018083116117d957829003601f168201915b5050505050815250508282815181106118115761181161514c565b6020026020010181905250808061182790615196565b915050611582565b509250610ce5915050565b8061184481615196565b9150506114ca565b505092915050565b61187f6040518060800160405280600081526020016060815260200160608152602001600081525090565b600082815260016020818152604092839020835160808101909452805484529182018054918401916118b090615162565b80601f01602080910402602001604051908101604052809291908181526020018280546118dc90615162565b80156119295780601f106118fe57610100808354040283529160200191611929565b820191906000526020600020905b81548152906001019060200180831161190c57829003601f168201915b5050505050815260200160028201805480602002602001604051908101604052809291908181526020016000905b82821015611c9e57838290600052602060002090600602016040518060c00160405290816000820154815260200160018201805461199490615162565b80601f01602080910402602001604051908101604052809291908181526020018280546119c090615162565b8015611a0d5780601f106119e257610100808354040283529160200191611a0d565b820191906000526020600020905b8154815290600101906020018083116119f057829003601f168201915b505050505081526020016002820154815260200160038201805480602002602001604051908101604052809291908181526020016000905b82821015611c7357838290600052602060002090600902016040518061012001604052908160008201548152602001600182018054611a8390615162565b80601f0160208091040260200160405190810160405280929190818152602001828054611aaf90615162565b8015611afc5780601f10611ad157610100808354040283529160200191611afc565b820191906000526020600020905b815481529060010190602001808311611adf57829003601f168201915b50505050508152602001600282018054611b1590615162565b80601f0160208091040260200160405190810160405280929190818152602001828054611b4190615162565b8015611b8e5780601f10611b6357610100808354040283529160200191611b8e565b820191906000526020600020905b815481529060010190602001808311611b7157829003601f168201915b505050918352505060038201546020820152600482015460408201526005820154606082015260068201546080820152600782015460ff16151560a082015260088201805460c090920191611be290615162565b80601f0160208091040260200160405190810160405280929190818152602001828054611c0e90615162565b8015611c5b5780601f10611c3057610100808354040283529160200191611c5b565b820191906000526020600020905b815481529060010190602001808311611c3e57829003601f168201915b50505050508152505081526020019060010190611a45565b5050505081526020016004820154815260200160058201548152505081526020019060010190611957565b5050505081526020016003820154815250509050919050565b600080611cc484846126ea565b80519091501561125e576001915050610ce5565b6000828152600160205260408120549003611d305760405162461bcd60e51b815260206004820152601860248201527743617465676f727920646f6573206e6f742065786973747360401b6044820152606401610a1c565b600954600003611d7a5760405162461bcd60e51b81526020600482015260156024820152744576656e7420646f6573206e6f742065786973747360581b6044820152606401610a1c565b611d8582828561397c565b1515600114611dd65760405162461bcd60e51b815260206004820152601a60248201527f43616e6469646174657320646f6573206e6f74206578697374730000000000006044820152606401610a1c565b60015b600a548111611ea15760008181526004602052604090206001015485148015611e12575060008181526004602052604090206002015483145b8015611e2e575060008181526004602052604090206003015482145b15611e8f576000818152600460208190526040909120015460ff1615611e8a5760405162461bcd60e51b8152602060048201526011602482015270165bdd48185b1c9958591e481d9bdd1959607a1b6044820152606401610a1c565b611ea1565b80611e9981615196565b915050611dd9565b506001600a6000828254611eb59190615134565b90915550506040805160a081018252600a54808252602080830188815283850187815260608501878152600160808701818152600096875260049586905297909520865181559251948301949094555160028201559151600383015592519201805460ff191692151592909217909155611f2e8461421c565b611f39838386614246565b6040805160208101859052808201849052815180820383018152606090910191829052908590611f6a908390615326565b6040519081900381209088907fdd0629bf37ec3179d8b6727c2eb4d0f297cf08a85b960c1520666db55feb5b3990600090a4505050505050565b611fac614488565b600083815260016020908152604080832060020180548251818502810185019093528083529192909190849084015b8282101561232257838290600052602060002090600602016040518060c00160405290816000820154815260200160018201805461201890615162565b80601f016020809104026020016040519081016040528092919081815260200182805461204490615162565b80156120915780601f1061206657610100808354040283529160200191612091565b820191906000526020600020905b81548152906001019060200180831161207457829003601f168201915b505050505081526020016002820154815260200160038201805480602002602001604051908101604052809291908181526020016000905b828210156122f75783829060005260206000209060090201604051806101200160405290816000820154815260200160018201805461210790615162565b80601f016020809104026020016040519081016040528092919081815260200182805461213390615162565b80156121805780601f1061215557610100808354040283529160200191612180565b820191906000526020600020905b81548152906001019060200180831161216357829003601f168201915b5050505050815260200160028201805461219990615162565b80601f01602080910402602001604051908101604052809291908181526020018280546121c590615162565b80156122125780601f106121e757610100808354040283529160200191612212565b820191906000526020600020905b8154815290600101906020018083116121f557829003601f168201915b505050918352505060038201546020820152600482015460408201526005820154606082015260068201546080820152600782015460ff16151560a082015260088201805460c09092019161226690615162565b80601f016020809104026020016040519081016040528092919081815260200182805461229290615162565b80156122df5780601f106122b4576101008083540402835291602001916122df565b820191906000526020600020905b8154815290600101906020018083116122c257829003601f168201915b505050505081525050815260200190600101906120c9565b5050505081526020016004820154815260200160058201548152505081526020019060010190611fdb565b505050509050606060005b825181101561238d57848382815181106123495761234961514c565b6020026020010151600001510361237b5782818151811061236c5761236c61514c565b60200260200101516060015191505b8061238581615196565b91505061232d565b506000816000815181106123a3576123a361514c565b6020026020010151905060005b600183516123be919061530f565b81101561243157826123d1826001615134565b815181106123e1576123e161514c565b602002602001015160c001518260c00151101561241f5782612404826001615134565b815181106124145761241461514c565b602002602001015191505b8061242981615196565b9150506123b0565b50600160e082015295945050505050565b600086815260016020526040812054900361246f5760405162461bcd60e51b8152600401610a1c9061525d565b61247986866111bc565b15156001146124c15760405162461bcd60e51b81526020600482015260146024820152734576656e7420686173206e6f742065786973747360601b6044820152606401610a1c565b6124cc868684613e21565b1561250d5760405162461bcd60e51b815260206004820152601160248201527010d85b991a59185d1948195e1a5cdd1959607a1b6044820152606401610a1c565b6001600860008282546125209190615134565b9091555050604080516101208101825260085481526020808201879052818301869052606082018590526080820189905260a08201889052600060c0830181905260e083018190526101008301859052898152600190915291822090915b60028201548110156126df57878260020182815481106125a0576125a061514c565b906000526020600020906006020160000154036126cd578160020181815481106125cc576125cc61514c565b60009182526020808320600360069093020191909101805460018181018355918452928290208651600990940201928355858201518051879493612614938501920190614404565b5060408201518051612630916002840191602090910190614404565b50606082015160038201556080820151600482015560a0820151600582015560c0820151600682015560e082015160078201805460ff1916911515919091179055610100820151805161268d916008840191602090910190614404565b50505060018260020182815481106126a7576126a761514c565b906000526020600020906006020160040160008282546126c79190615134565b90915550505b806126d781615196565b91505061257e565b505050505050505050565b61272d6040518060e00160405280600081526020016060815260200160608152602001600080191681526020016060815260200160008152602001606081525090565b6000826040516020016127409190615326565b60408051601f198184030181529190528051602090910120905060015b600b548111612a5e5760008181526005602052604090819020905161278591600201906151af565b604051809103902085805190602001201480156127ba57506000818152600560205260409020600301546127ba908390614356565b15612a4c57600560008281526020019081526020016000206040518060e0016040529081600082015481526020016001820180546127f790615162565b80601f016020809104026020016040519081016040528092919081815260200182805461282390615162565b80156128705780601f1061284557610100808354040283529160200191612870565b820191906000526020600020905b81548152906001019060200180831161285357829003601f168201915b5050505050815260200160028201805461288990615162565b80601f01602080910402602001604051908101604052809291908181526020018280546128b590615162565b80156129025780601f106128d757610100808354040283529160200191612902565b820191906000526020600020905b8154815290600101906020018083116128e557829003601f168201915b505050505081526020016003820154815260200160048201805461292590615162565b80601f016020809104026020016040519081016040528092919081815260200182805461295190615162565b801561299e5780601f106129735761010080835404028352916020019161299e565b820191906000526020600020905b81548152906001019060200180831161298157829003601f168201915b50505050508152602001600582015481526020016006820180546129c190615162565b80601f01602080910402602001604051908101604052809291908181526020018280546129ed90615162565b8015612a3a5780601f10612a0f57610100808354040283529160200191612a3a565b820191906000526020600020905b815481529060010190602001808311612a1d57829003601f168201915b50505050508152505092505050610ce5565b80612a5681615196565b91505061275d565b50506040805160e08101825260008082528251602080820185528282528084019190915283518082018552828152838501526060830182905283518082018552828152608084015260a083018290528351908101909352825260c08101919091529392505050565b606060006007546001600160401b03811115612ae457612ae46146e5565b604051908082528060200260200182016040528015612b4057816020015b612b2d6040518060800160405280600081526020016060815260200160608152602001600081525090565b815260200190600190039081612b025790505b50905060015b6007548111612fbc5760008181526001602081815260409283902083516080810190945280548452918201805491840191612b8090615162565b80601f0160208091040260200160405190810160405280929190818152602001828054612bac90615162565b8015612bf95780601f10612bce57610100808354040283529160200191612bf9565b820191906000526020600020905b815481529060010190602001808311612bdc57829003601f168201915b5050505050815260200160028201805480602002602001604051908101604052809291908181526020016000905b82821015612f6e57838290600052602060002090600602016040518060c001604052908160008201548152602001600182018054612c6490615162565b80601f0160208091040260200160405190810160405280929190818152602001828054612c9090615162565b8015612cdd5780601f10612cb257610100808354040283529160200191612cdd565b820191906000526020600020905b815481529060010190602001808311612cc057829003601f168201915b505050505081526020016002820154815260200160038201805480602002602001604051908101604052809291908181526020016000905b82821015612f4357838290600052602060002090600902016040518061012001604052908160008201548152602001600182018054612d5390615162565b80601f0160208091040260200160405190810160405280929190818152602001828054612d7f90615162565b8015612dcc5780601f10612da157610100808354040283529160200191612dcc565b820191906000526020600020905b815481529060010190602001808311612daf57829003601f168201915b50505050508152602001600282018054612de590615162565b80601f0160208091040260200160405190810160405280929190818152602001828054612e1190615162565b8015612e5e5780601f10612e3357610100808354040283529160200191612e5e565b820191906000526020600020905b815481529060010190602001808311612e4157829003601f168201915b505050918352505060038201546020820152600482015460408201526005820154606082015260068201546080820152600782015460ff16151560a082015260088201805460c090920191612eb290615162565b80601f0160208091040260200160405190810160405280929190818152602001828054612ede90615162565b8015612f2b5780601f10612f0057610100808354040283529160200191612f2b565b820191906000526020600020905b815481529060010190602001808311612f0e57829003601f168201915b50505050508152505081526020019060010190612d15565b5050505081526020016004820154815260200160058201548152505081526020019060010190612c27565b50505050815260200160038201548152505082600183612f8e919061530f565b81518110612f9e57612f9e61514c565b60200260200101819052508080612fb490615196565b915050612b46565b50919050565b612fca6143ce565b6000838152600160208181526040808420815160808101909252805482529283018054919392840191612ffc90615162565b80601f016020809104026020016040519081016040528092919081815260200182805461302890615162565b80156130755780601f1061304a57610100808354040283529160200191613075565b820191906000526020600020905b81548152906001019060200180831161305857829003601f168201915b5050505050815260200160028201805480602002602001604051908101604052809291908181526020016000905b828210156133ea57838290600052602060002090600602016040518060c0016040529081600082015481526020016001820180546130e090615162565b80601f016020809104026020016040519081016040528092919081815260200182805461310c90615162565b80156131595780601f1061312e57610100808354040283529160200191613159565b820191906000526020600020905b81548152906001019060200180831161313c57829003601f168201915b505050505081526020016002820154815260200160038201805480602002602001604051908101604052809291908181526020016000905b828210156133bf578382906000526020600020906009020160405180610120016040529081600082015481526020016001820180546131cf90615162565b80601f01602080910402602001604051908101604052809291908181526020018280546131fb90615162565b80156132485780601f1061321d57610100808354040283529160200191613248565b820191906000526020600020905b81548152906001019060200180831161322b57829003601f168201915b5050505050815260200160028201805461326190615162565b80601f016020809104026020016040519081016040528092919081815260200182805461328d90615162565b80156132da5780601f106132af576101008083540402835291602001916132da565b820191906000526020600020905b8154815290600101906020018083116132bd57829003601f168201915b505050918352505060038201546020820152600482015460408201526005820154606082015260068201546080820152600782015460ff16151560a082015260088201805460c09092019161332e90615162565b80601f016020809104026020016040519081016040528092919081815260200182805461335a90615162565b80156133a75780601f1061337c576101008083540402835291602001916133a7565b820191906000526020600020905b81548152906001019060200180831161338a57829003601f168201915b50505050508152505081526020019060010190613191565b50505050815260200160048201548152602001600582015481525050815260200190600101906130a3565b50505050815260200160038201548152505090506134066143ce565b60005b82604001515181101561347157848360400151828151811061342d5761342d61514c565b6020026020010151600001510361345f57826040015181815181106134545761345461514c565b602002602001015191505b8061346981615196565b915050613409565b50949350505050565b6001600090815260056020527f1471eb6eb2c5e789fc3de43f8ce62938c7d1836ec861730447e2ada8fd81017b5481036134ee5760405162461bcd60e51b81526020600482015260156024820152744e6f20766f74657220696e20746865206c6973742160581b6044820152606401610a1c565b60015b600b5481116114af5760008181526005602052604090819020905161351991600601906151af565b604051809103902083805190602001200361354c5760009081526005602081905260409091206001910181905592915050565b8061355681615196565b9150506134f1565b6000828152600160209081526040808320600201805482518185028101850190935280835260609493849084015b828210156138d357838290600052602060002090600602016040518060c0016040529081600082015481526020016001820180546135c990615162565b80601f01602080910402602001604051908101604052809291908181526020018280546135f590615162565b80156136425780601f1061361757610100808354040283529160200191613642565b820191906000526020600020905b81548152906001019060200180831161362557829003601f168201915b505050505081526020016002820154815260200160038201805480602002602001604051908101604052809291908181526020016000905b828210156138a8578382906000526020600020906009020160405180610120016040529081600082015481526020016001820180546136b890615162565b80601f01602080910402602001604051908101604052809291908181526020018280546136e490615162565b80156137315780601f1061370657610100808354040283529160200191613731565b820191906000526020600020905b81548152906001019060200180831161371457829003601f168201915b5050505050815260200160028201805461374a90615162565b80601f016020809104026020016040519081016040528092919081815260200182805461377690615162565b80156137c35780601f10613798576101008083540402835291602001916137c3565b820191906000526020600020905b8154815290600101906020018083116137a657829003601f168201915b505050918352505060038201546020820152600482015460408201526005820154606082015260068201546080820152600782015460ff16151560a082015260088201805460c09092019161381790615162565b80601f016020809104026020016040519081016040528092919081815260200182805461384390615162565b80156138905780601f1061386557610100808354040283529160200191613890565b820191906000526020600020905b81548152906001019060200180831161387357829003601f168201915b5050505050815250508152602001906001019061367a565b505050508152602001600482015481526020016005820154815250508152602001906001019061358c565b50505050905060005b815181101561394257838282815181106138f8576138f861514c565b602002602001015160000151036139305781818151811061391b5761391b61514c565b60200260200101516060015192505050610ce5565b8061393a81615196565b9150506138dc565b506040805160008082526020820190925290613471565b613961614488565b81526020019060019003908161395957905050949350505050565b60008381526001602052604081205481036139a95760405162461bcd60e51b8152600401610a1c906152d8565b60006139b585856114b8565b905060005b8151811015613a0457838282815181106139d6576139d661514c565b602002602001015160000151036139f257600192505050610dc1565b806139fc81615196565b9150506139ba565b50600095945050505050565b60808101516000908152600160205260408120549003613a425760405162461bcd60e51b8152600401610a1c9061525d565b613a5481608001518260a001516111bc565b1515600114613a9c5760405162461bcd60e51b81526020600482015260146024820152734576656e7420686173206e6f742065786973747360601b6044820152606401610a1c565b613ab381608001518260a001518360600151613e21565b1515600114613b045760405162461bcd60e51b815260206004820152601a60248201527f43616e64696461746520646f6573206e6f7420657869737465640000000000006044820152606401610a1c565b60808101516000908152600160208190526040822060a0840151600290910191613b2d9161530f565b81548110613b3d57613b3d61514c565b906000526020600020906006020160030160018360000151613b5f919061530f565b81548110613b6f57613b6f61514c565b906000526020600020906009020190508160200151816001019080519060200190613b9b929190614404565b506060820151600382015560408201518051613bc1916002840191602090910190614404565b505050565b60056020526000908152604090208054600182018054919291613be890615162565b80601f0160208091040260200160405190810160405280929190818152602001828054613c1490615162565b8015613c615780601f10613c3657610100808354040283529160200191613c61565b820191906000526020600020905b815481529060010190602001808311613c4457829003601f168201915b505050505090806002018054613c7690615162565b80601f0160208091040260200160405190810160405280929190818152602001828054613ca290615162565b8015613cef5780601f10613cc457610100808354040283529160200191613cef565b820191906000526020600020905b815481529060010190602001808311613cd257829003601f168201915b505050505090806003015490806004018054613d0a90615162565b80601f0160208091040260200160405190810160405280929190818152602001828054613d3690615162565b8015613d835780601f10613d5857610100808354040283529160200191613d83565b820191906000526020600020905b815481529060010190602001808311613d6657829003601f168201915b505050505090806005015490806006018054613d9e90615162565b80601f0160208091040260200160405190810160405280929190818152602001828054613dca90615162565b8015613e175780601f10613dec57610100808354040283529160200191613e17565b820191906000526020600020905b815481529060010190602001808311613dfa57829003601f168201915b5050505050905087565b6000838152600160205260408120548103613e4e5760405162461bcd60e51b8152600401610a1c906152d8565b6000613e5a85856114b8565b905060005b8151811015613a045783828281518110613e7b57613e7b61514c565b60200260200101516060015103613e9757600192505050610dc1565b80613ea181615196565b915050613e5f565b613eb282611452565b613ef55760405162461bcd60e51b81526020600482015260146024820152735573657220646f6573206e6f742065786973747360601b6044820152606401610a1c565b600081604051602001613f089190615326565b60408051601f198184030181529190528051602090910120905060015b600b548111613f8957600081815260056020526040908190209051613f4d91600101906151af565b6040518091039020848051906020012003613f775760008181526005602052604090206003018290555b80613f8181615196565b915050613f25565b50505050565b60015b600b54811161402057600081815260056020526040908190209051613fba91600101906151af565b604051809103902086805190602001200361400e5760405162461bcd60e51b8152602060048201526014602482015273566f74657220616c72656164792065786973747360601b6044820152606401610a1c565b8061401881615196565b915050613f92565b506001600b60008282546140349190615134565b909155505060405160009061404d908590602001615326565b60408051601f198184030181529181528151602092830120600b5460008181526005855292909220918255885190935090916140909160018401918a0190614404565b5085516140a69060028301906020890190614404565b506003810182905583516140c39060048301906020870190614404565b506000600582015582516140e09060068301906020860190614404565b50600b547f56729c826fe77eec184059336ced13d9ef79d10126212c90a4d2b724391e14e288604051614113919061524a565b60405180910390a250505050505050565b60008281526001602052604081205490036141515760405162461bcd60e51b8152600401610a1c9061525d565b61415b8282611393565b1561419f5760405162461bcd60e51b81526020600482015260146024820152734576656e7420616c72656164792065786973747360601b6044820152606401610a1c565b60008281526001602081905260408220600980549193929183906141c4908490615134565b91829055506002840180546001818101835560009283526020928390206006909202909101838155875193955093506142039290840191870190614404565b5060028101949094555050600160059092019190915550565b600081815260036020526040812060060180546001929061423e908490615134565b909155505050565b6000838152600160205260408120600201905b815481101561434f57838282815481106142755761427561514c565b9060005260206000209060060201600001540361433d5760008282815481106142a0576142a061514c565b9060005260206000209060060201600301905060005b815481101561433a57848282815481106142d2576142d261514c565b906000526020600020906009020160000154036143285760018282815481106142fd576142fd61514c565b9060005260206000209060090201600601600082825461431d9190615134565b9091555061433a9050565b8061433281615196565b9150506142b6565b50505b8061434781615196565b915050614259565b5050505050565b6000805b60208110156143c4578281602081106143755761437561514c565b1a60f81b6001600160f81b0319168482602081106143955761439561514c565b1a60f81b6001600160f81b031916146143b2576000915050610ce5565b806143bc81615196565b91505061435a565b5060019392505050565b6040518060c001604052806000815260200160608152602001600081526020016060815260200160008152602001600081525090565b82805461441090615162565b90600052602060002090601f0160209004810192826144325760008555614478565b82601f1061444b57805160ff1916838001178555614478565b82800160010185558215614478579182015b8281111561447857825182559160200191906001019061445d565b506144849291506144d6565b5090565b60405180610120016040528060008152602001606081526020016060815260200160008152602001600081526020016000815260200160008152602001600015158152602001606081525090565b5b8082111561448457600081556001016144d7565b60005b838110156145065781810151838201526020016144ee565b83811115613f895750506000910152565b6000815180845261452f8160208601602086016144eb565b601f01601f19169290920160200192915050565b600061012082518452602083015181602086015261456382860182614517565b9150506040830151848203604086015261457d8282614517565b915050606083015160608501526080830151608085015260a083015160a085015260c083015160c085015260e08301516145bb60e086018215159052565b5061010080840151858303828701526145d48382614517565b9695505050505050565b80518252600060208083015160c0828601526145fd60c0860182614517565b905060408401516040860152606084015185820360608701528181518084528484019150848160051b850101858401935060005b8281101561465f57601f1986830301845261464d828651614543565b94870194938701939150600101614631565b50608088015160808a015260a088015160a08a015280965050505050505092915050565b6000602080830181845280855180835260408601915060408160051b870101925083870160005b828110156146d857603f198886030184526146c68583516145de565b945092850192908501906001016146aa565b5092979650505050505050565b634e487b7160e01b600052604160045260246000fd5b60405161012081016001600160401b038111828210171561471e5761471e6146e5565b60405290565b60405160c081016001600160401b038111828210171561471e5761471e6146e5565b604051608081016001600160401b038111828210171561471e5761471e6146e5565b604051601f8201601f191681016001600160401b0381118282101715614790576147906146e5565b604052919050565b600082601f8301126147a957600080fd5b81356001600160401b038111156147c2576147c26146e5565b6147d5601f8201601f1916602001614768565b8181528460208386010111156147ea57600080fd5b816020850160208301376000918101602001919091529392505050565b60006020828403121561481957600080fd5b81356001600160401b0381111561482f57600080fd5b61483b84828501614798565b949350505050565b6000602080830181845280855180835260408601915060408160051b870101925083870160005b828110156146d857603f19888603018452614886858351614543565b9450928501929085019060010161486a565b60006001600160401b038211156148b1576148b16146e5565b5060051b60200190565b803580151581146148cb57600080fd5b919050565b600061012082840312156148e357600080fd5b6148eb6146fb565b90508135815260208201356001600160401b038082111561490b57600080fd5b61491785838601614798565b6020840152604084013591508082111561493057600080fd5b61493c85838601614798565b6040840152606084013560608401526080840135608084015260a084013560a084015260c084013560c084015261497560e085016148bb565b60e08401526101009150818401358181111561499057600080fd5b61499c86828701614798565b8385015250505092915050565b600082601f8301126149ba57600080fd5b813560206149cf6149ca83614898565b614768565b82815260059290921b840181019181810190868411156149ee57600080fd5b8286015b84811015614a2d5780356001600160401b03811115614a115760008081fd5b614a1f8986838b01016148d0565b8452509183019183016149f2565b509695505050505050565b600060c08284031215614a4a57600080fd5b614a52614724565b90508135815260208201356001600160401b0380821115614a7257600080fd5b614a7e85838601614798565b6020840152604084013560408401526060840135915080821115614aa157600080fd5b50614aae848285016149a9565b6060830152506080820135608082015260a082013560a082015292915050565b60006020808385031215614ae157600080fd5b82356001600160401b0380821115614af857600080fd5b9084019060808287031215614b0c57600080fd5b614b14614746565b823581528383013582811115614b2957600080fd5b614b3588828601614798565b8583015250604083013582811115614b4c57600080fd5b8301601f81018813614b5d57600080fd5b8035614b6b6149ca82614898565b81815260059190911b8201860190868101908a831115614b8a57600080fd5b8784015b83811015614bc257803587811115614ba65760008081fd5b614bb48d8b83890101614a38565b845250918801918801614b8e565b5060408501525050506060928301359281019290925250949350505050565b60008060408385031215614bf457600080fd5b82356001600160401b0380821115614c0b57600080fd5b614c1786838701614798565b93506020850135915080821115614c2d57600080fd5b50614c3a85828601614798565b9150509250929050565b60208152815160208201526000602083015160e06040840152614c6b610100840182614517565b90506040840151601f1980858403016060860152614c898383614517565b92506060860151608086015260808601519150808584030160a0860152614cb08383614517565b925060a086015160c086015260c08601519150808584030160e086015250614cd88282614517565b95945050505050565b600060208284031215614cf357600080fd5b5035919050565b60008060408385031215614d0d57600080fd5b50508035926020909101359150565b600060208284031215614d2e57600080fd5b81356001600160401b03811115614d4457600080fd5b61483b84828501614a38565b60008060408385031215614d6357600080fd5b8235915060208301356001600160401b03811115614d8057600080fd5b614c3a85828601614798565b805182526000602080830151608082860152614dab6080860182614517565b9050604084015185820360408701528181518084528484019150848160051b850101858401935060005b82811015614e0357601f19868303018452614df18286516145de565b94870194938701939150600101614dd5565b50606088015160608a015280965050505050505092915050565b602081526000610dc16020830184614d8c565b60008060008060808587031215614e4657600080fd5b5050823594602084013594506040840135936060013592509050565b602081526000610dc16020830184614543565b60008060008060008060c08789031215614e8e57600080fd5b863595506020870135945060408701356001600160401b0380821115614eb357600080fd5b614ebf8a838b01614798565b95506060890135915080821115614ed557600080fd5b614ee18a838b01614798565b94506080890135935060a0890135915080821115614efe57600080fd5b50614f0b89828a01614798565b9150509295509295509295565b6000602080830181845280855180835260408601915060408160051b870101925083870160005b828110156146d857603f19888603018452614f5b858351614d8c565b94509285019290850190600101614f3f565b602081526000610dc160208301846145de565b600080600060608486031215614f9557600080fd5b505081359360208301359350604090920135919050565b600060208284031215614fbe57600080fd5b81356001600160401b03811115614fd457600080fd5b61483b848285016148d0565b87815260e060208201526000614ff960e0830189614517565b828103604084015261500b8189614517565b905086606084015282810360808401526150258187614517565b90508460a084015282810360c084015261503f8185614517565b9a9950505050505050505050565b600080600080600060a0868803121561506557600080fd5b85356001600160401b038082111561507c57600080fd5b61508889838a01614798565b9650602088013591508082111561509e57600080fd5b6150aa89838a01614798565b955060408801359150808211156150c057600080fd5b6150cc89838a01614798565b945060608801359150808211156150e257600080fd5b6150ee89838a01614798565b9350608088013591508082111561510457600080fd5b5061511188828901614798565b9150509295509295909350565b634e487b7160e01b600052601160045260246000fd5b600082198211156151475761514761511e565b500190565b634e487b7160e01b600052603260045260246000fd5b600181811c9082168061517657607f821691505b602082108103612fbc57634e487b7160e01b600052602260045260246000fd5b6000600182016151a8576151a861511e565b5060010190565b600080835481600182811c9150808316806151cb57607f831692505b602080841082036151ea57634e487b7160e01b86526022600452602486fd5b8180156151fe576001811461520f5761523c565b60ff1986168952848901965061523c565b60008a81526020902060005b868110156152345781548b82015290850190830161521b565b505084890196505b509498975050505050505050565b602081526000610dc16020830184614517565b60208082526017908201527f43617465676f727920686173206e6f7420657869737473000000000000000000604082015260600190565b60208082526024908201527f596f757220656d61696c206f722070617373776f726420697320696e636f72726040820152636563742160e01b606082015260800190565b60208082526017908201527f43617465676f727920646f6573206e6f74206578697374000000000000000000604082015260600190565b6000828210156153215761532161511e565b500390565b600082516153388184602087016144eb565b919091019291505056fea264697066735822122055540ecd56e07a0ebc3701810f26b4e9cad2c0dbc36c1a362f5fdd1b79a046b664736f6c634300080d0033",
  "immutableReferences": {},
  "source": "// SPDX-License-Identifier: MIT\r\npragma solidity >=0.4.22 <0.9.0;\r\n\r\ncontract VotingSystem {\r\n    address public owner;\r\n    struct Voter {\r\n        uint256 id;\r\n        string key;\r\n        string email;\r\n        bytes32 password;\r\n        string role;\r\n        uint256 status; // 0: no verify, 1: verified, 2:banned\r\n        string token;\r\n    }\r\n\r\n    struct Event {\r\n        uint256 eventId;\r\n        string eventName;\r\n        uint256 categoryId;\r\n        Candidate[] candidates;\r\n        uint256 candidateCount;\r\n        uint256 status; // 1: Upcoming, 2: In Progress, 3: Completed, 4 Cancel\r\n    }\r\n\r\n    struct Category {\r\n        uint256 categoryId;\r\n        string categoryName;\r\n        Event[] events; //category has many event\r\n        uint256 status;\r\n    }\r\n\r\n    struct Candidate {\r\n        uint256 id;\r\n        string name;\r\n        string description;\r\n        uint256 studentId;\r\n        uint256 categoryId;\r\n        uint256 eventId;\r\n        uint256 voteCount;\r\n        bool win;\r\n        string imageFileName;\r\n    }\r\n\r\n    struct voteEventStruct {\r\n        uint256 id;\r\n        uint256 voterId;\r\n        uint256 categoryId;\r\n        uint256 eventId;\r\n        bool voted;\r\n    }\r\n\r\n    event CategoryAdded(uint256 indexed categoryId, string categoryName);\r\n\r\n    event VoterAdded(uint256 indexed voterId, string voter_key);\r\n    event EventAdded(uint256 indexed eventId, string eventName);\r\n\r\n    event CandidateAdded(uint256 indexed eventId, string eventName);\r\n\r\n    event VoteEvent(\r\n        uint256 indexed voterId,\r\n        string indexed categoryEvent,\r\n        uint256 indexed candidate\r\n    );\r\n\r\n    mapping(uint256 => Category) categories;\r\n    mapping(uint256 => Event) events;\r\n    mapping(uint256 => Candidate) candidates;\r\n    mapping(uint256 => voteEventStruct) public voteEvents;\r\n    mapping(uint256 => Voter) public voters;\r\n    mapping(string => bool) private usedImageFileNames;\r\n\r\n    uint256 categoryCount;\r\n    uint256 candidateCount;\r\n    uint256 eventCount;\r\n    uint256 voteEventCount;\r\n    uint256 voterCount;\r\n\r\n    constructor() {\r\n        owner = msg.sender;\r\n    }\r\n\r\n    function addVoter(\r\n        string memory _key,\r\n        string memory _email,\r\n        string memory _password,\r\n        string memory _role,\r\n        string memory _token\r\n    ) public {\r\n        for (uint256 i = 1; i <= voterCount; i++) {\r\n            require(\r\n                keccak256(bytes(_key)) != keccak256(bytes(voters[i].key)),\r\n                \"Voter already exists\"\r\n            );\r\n        }\r\n\r\n        // total category plus 1, use it as the category's id\r\n        voterCount += 1;\r\n\r\n        bytes32 hashedPassword = keccak256(abi.encodePacked(_password));\r\n\r\n        // add the category details in the category list\r\n        Voter storage voter = voters[voterCount];\r\n        voter.id = voterCount;\r\n        voter.key = _key;\r\n        voter.email = _email;\r\n        voter.password = hashedPassword;\r\n        voter.role = _role;\r\n        voter.status = 0;\r\n        voter.token = _token;\r\n\r\n        // emit the category added event\r\n        emit VoterAdded(voterCount, _key);\r\n    }\r\n\r\n    function loginVoter(string memory _email, string memory _password)\r\n        public\r\n        view\r\n        returns (Voter memory)\r\n    {\r\n        Voter memory voterFound = getVoterByEmailPassword(_email, _password);\r\n        require(voterFound.id != 0, \"Your email or password is incorrect!\");\r\n        require(\r\n            voterFound.status == 1,\r\n            \"Your account was banned or not verify!\"\r\n        );\r\n        return voterFound;\r\n    }\r\n\r\n    function compareHashesPassword(bytes32 inputPassword, bytes32 password)\r\n        internal\r\n        pure\r\n        returns (bool)\r\n    {\r\n        for (uint256 i = 0; i < 32; i++) {\r\n            if (inputPassword[i] != password[i]) {\r\n                return false;\r\n            }\r\n        }\r\n        return true;\r\n    }\r\n\r\n    function getVoterByEmailPassword(\r\n        string memory _email,\r\n        string memory _password\r\n    ) public view returns (Voter memory) {\r\n        bytes32 hashedPassword = keccak256(abi.encodePacked(_password));\r\n        for (uint256 i = 1; i <= voterCount; i++) {\r\n            if (\r\n                keccak256(bytes(_email)) == keccak256(bytes(voters[i].email)) &&\r\n                compareHashesPassword(hashedPassword, voters[i].password)\r\n            ) {\r\n                return voters[i];\r\n            }\r\n        }\r\n\r\n        // Event not found in the specified category\r\n        return Voter(0, \"\", \"\", \"\", \"\", 0, \"\");\r\n    }\r\n\r\n    function updateVoterPassword(string memory _key, string memory _password)\r\n        public\r\n    {\r\n        require(isVoterExist(_key), \"User does not exists\");\r\n\r\n        bytes32 hashedPassword = keccak256(abi.encodePacked(_password));\r\n        for (uint256 i = 1; i <= voterCount; i++) {\r\n            if (keccak256(bytes(_key)) == keccak256(bytes(voters[i].key))) {\r\n                voters[i].password = hashedPassword;\r\n            }\r\n        }\r\n    }\r\n\r\n    function verifyVoterAccount(string memory _token) public returns (bool) {\r\n        require(voters[1].id != 0, \"No voter in the list!\");\r\n        for (uint256 i = 1; i <= voterCount; i++) {\r\n            if (keccak256(bytes(_token)) == keccak256(bytes(voters[i].token))) {\r\n                voters[i].status = 1;\r\n                return true;\r\n            }\r\n        }\r\n        return false;\r\n    }\r\n\r\n    function getVoterStatus(string memory _email, string memory _password)\r\n        public\r\n        view\r\n        returns (uint256 status)\r\n    {\r\n        Voter memory voterFound = getVoterByEmailPassword(_email, _password);\r\n        require(voterFound.id != 0, \"Your email or password is incorrect!\");\r\n        return voterFound.status;\r\n    }\r\n\r\n    function checkVoterEmailPassword(\r\n        string memory _email,\r\n        string memory _password\r\n    ) public view returns (bool foundVoter) {\r\n        Voter memory voterFound = getVoterByEmailPassword(_email, _password);\r\n\r\n        if (voterFound.id != 0) {\r\n            return true;\r\n        }\r\n        return false;\r\n    }\r\n\r\n    function isVoterExist(string memory _key) public view returns (bool) {\r\n        for (uint256 i = 1; i <= voterCount; i++) {\r\n            if (keccak256(bytes(_key)) == keccak256(bytes(voters[i].key))) {\r\n                return true;\r\n            }\r\n        }\r\n        return false;\r\n    }\r\n\r\n    function addCategory(string memory _categoryName) public {\r\n        // check if the category is exist\r\n        for (uint256 i = 1; i <= categoryCount; i++) {\r\n            require(\r\n                keccak256(bytes(_categoryName)) !=\r\n                    keccak256(bytes(categories[i].categoryName)),\r\n                \"Category already exists\"\r\n            );\r\n        }\r\n\r\n        // total category plus 1, use it as the category's id\r\n        categoryCount += 1;\r\n\r\n        // add the category details in the category list\r\n        Category storage category = categories[categoryCount];\r\n        category.categoryName = _categoryName;\r\n        category.categoryId = categoryCount;\r\n        category.status = 1;\r\n\r\n        // emit the category added event\r\n        emit CategoryAdded(categoryCount, _categoryName);\r\n    }\r\n\r\n    function updateCategory(Category memory _category) public {\r\n        // check if the category is exist\r\n        require(\r\n            categories[_category.categoryId].categoryId != 0,\r\n            \"Category has not exists\"\r\n        );\r\n\r\n        // add the category details in the category list\r\n        Category storage category = categories[_category.categoryId];\r\n        category.categoryName = _category.categoryName;\r\n        category.status = _category.status;\r\n    }\r\n\r\n    function addEvent(uint256 _categoryId, string memory _eventName) public {\r\n        // check if the category has exists\r\n        require(\r\n            categories[_categoryId].categoryId != 0,\r\n            \"Category has not exists\"\r\n        );\r\n\r\n        require(\r\n            isEventExists(_categoryId, _eventName) == false,\r\n            \"Event already exists\"\r\n        );\r\n\r\n        // find out the category in list by using the paramerter category name\r\n        Category storage category = categories[_categoryId];\r\n\r\n        // add the event in the category list\r\n        uint256 eventId = eventCount += 1;\r\n\r\n        Event storage newEvent = category.events.push();\r\n        newEvent.eventId = eventId;\r\n        newEvent.eventName = _eventName;\r\n        newEvent.categoryId = _categoryId;\r\n        newEvent.status = 1;\r\n    }\r\n\r\n    function isEventExists(uint256 _categoryId, string memory _eventName)\r\n        public\r\n        view\r\n        returns (bool)\r\n    {\r\n        // Check if the category exists\r\n        require(\r\n            categories[_categoryId].categoryId != 0,\r\n            \"Category does not exist\"\r\n        );\r\n\r\n        // Loop through the events in the specified category\r\n        for (uint256 i = 0; i < categories[_categoryId].events.length; i++) {\r\n            if (\r\n                keccak256(bytes(categories[_categoryId].events[i].eventName)) ==\r\n                keccak256(bytes(_eventName))\r\n            ) {\r\n                // Event found\r\n                return true;\r\n            }\r\n        }\r\n\r\n        // Event not found in the specified category\r\n        return false;\r\n    }\r\n\r\n    function updateEvent(Event memory _event) public {\r\n        // check if the category is exist\r\n        require(\r\n            categories[_event.categoryId].categoryId != 0,\r\n            \"Category does not exists\"\r\n        );\r\n        require(\r\n            isEventExists(_event.categoryId, _event.eventId),\r\n            \"Event does not exist!\"\r\n        );\r\n        // add the category details in the category list\r\n        Event storage eventToUpdate = categories[_event.categoryId].events[\r\n            _event.eventId - 1\r\n        ];\r\n\r\n        eventToUpdate.eventName = _event.eventName;\r\n        eventToUpdate.status = _event.status;\r\n    }\r\n\r\n    function addCandidateToEvent(\r\n        uint256 _categoryId,\r\n        uint256 _eventId,\r\n        string memory _candidateName,\r\n        string memory _description,\r\n        uint256 _studentId,\r\n        string memory _imageFileName\r\n    ) public {\r\n        require(\r\n            categories[_categoryId].categoryId != 0,\r\n            \"Category has not exists\"\r\n        );\r\n\r\n        require(\r\n            isEventExists(_categoryId, _eventId) == true,\r\n            \"Event has not exists\"\r\n        );\r\n\r\n        require(\r\n            isCandidateExistsInEvent(_categoryId, _eventId, _studentId) ==\r\n                false,\r\n            \"Candidate existed\"\r\n        );\r\n\r\n        candidateCount += 1;\r\n\r\n        // Create a new candidate\r\n        Candidate memory newCandidate = Candidate({\r\n            id: candidateCount,\r\n            name: _candidateName,\r\n            studentId: _studentId,\r\n            categoryId: _categoryId,\r\n            eventId: _eventId,\r\n            description: _description,\r\n            win: false,\r\n            voteCount: 0,\r\n            imageFileName: _imageFileName\r\n        });\r\n\r\n        // find the certain category\r\n        Category storage category = categories[_categoryId];\r\n        // find the certain event in certain category\r\n        for (uint256 i = 0; i < category.events.length; i++) {\r\n            if (category.events[i].eventId == _eventId) {\r\n                category.events[i].candidates.push(newCandidate);\r\n                category.events[i].candidateCount += 1;\r\n            }\r\n        }\r\n    }\r\n\r\n    function updateCandidate(Candidate memory _candidate) public {\r\n        require(\r\n            categories[_candidate.categoryId].categoryId != 0,\r\n            \"Category has not exists\"\r\n        );\r\n\r\n        require(\r\n            isEventExists(_candidate.categoryId, _candidate.eventId) == true,\r\n            \"Event has not exists\"\r\n        );\r\n\r\n        require(\r\n            isCandidateExistsInEvent(\r\n                _candidate.categoryId,\r\n                _candidate.eventId,\r\n                _candidate.studentId\r\n            ) == true,\r\n            \"Candidate does not existed\"\r\n        );\r\n\r\n        Candidate storage candidateToUpdate = categories[_candidate.categoryId]\r\n            .events[_candidate.eventId - 1]\r\n            .candidates[_candidate.id - 1];\r\n\r\n        candidateToUpdate.name = _candidate.name;\r\n        candidateToUpdate.studentId = _candidate.studentId;\r\n        candidateToUpdate.description = _candidate.description;\r\n    }\r\n\r\n    function isCandidateExistsInEvent(\r\n        uint256 _categoryId,\r\n        uint256 _eventId,\r\n        uint256 _studentId\r\n    ) public view returns (bool) {\r\n        // Check if the category exists\r\n        require(\r\n            categories[_categoryId].categoryId != 0,\r\n            \"Category does not exist\"\r\n        );\r\n\r\n        Candidate[] memory candidatesFound = getAllCandidatesInEvent(\r\n            _categoryId,\r\n            _eventId\r\n        );\r\n\r\n        // Loop through the events in the specified category\r\n\r\n        for (uint256 i = 0; i < candidatesFound.length; i++) {\r\n            if (candidatesFound[i].studentId == _studentId) {\r\n                return true;\r\n            }\r\n        }\r\n\r\n        // Event not found in the specified category\r\n        return false;\r\n    }\r\n\r\n    function isCandidateExistsInEventById(\r\n        uint256 _categoryId,\r\n        uint256 _eventId,\r\n        uint256 _candidateId\r\n    ) public view returns (bool) {\r\n        // Check if the category exists\r\n        require(\r\n            categories[_categoryId].categoryId != 0,\r\n            \"Category does not exist\"\r\n        );\r\n\r\n        Candidate[] memory candidatesFound = getAllCandidatesInEvent(\r\n            _categoryId,\r\n            _eventId\r\n        );\r\n\r\n        // Loop through the events in the specified category\r\n\r\n        for (uint256 i = 0; i < candidatesFound.length; i++) {\r\n            if (candidatesFound[i].id == _candidateId) {\r\n                return true;\r\n            }\r\n        }\r\n\r\n        // Event not found in the specified category\r\n        return false;\r\n    }\r\n\r\n    function isEventExists(uint256 _categoryId, uint256 _eventId)\r\n        public\r\n        view\r\n        returns (bool)\r\n    {\r\n        // Check if the category exists\r\n        require(\r\n            categories[_categoryId].categoryId != 0,\r\n            \"Category does not exist\"\r\n        );\r\n\r\n        // Loop through the events in the specified category\r\n        for (uint256 i = 0; i < categories[_categoryId].events.length; i++) {\r\n            if (categories[_categoryId].events[i].eventId == _eventId) {\r\n                // Event found\r\n                return true;\r\n            }\r\n        }\r\n\r\n        // Event not found in the specified category\r\n        return false;\r\n    }\r\n\r\n    function getAllCategoryEvent(uint256 _categoryId)\r\n        public\r\n        view\r\n        returns (Event[] memory foundEvent)\r\n    {\r\n        // find the certain category\r\n        Category storage category = categories[_categoryId];\r\n\r\n        // declare an array variable for storing events\r\n        Event[] memory eventsFound = new Event[](category.events.length);\r\n\r\n        // get all the event name by searching the event in list\r\n        for (uint256 i = 0; i < category.events.length; i++) {\r\n            eventsFound[i] = category.events[i];\r\n        }\r\n\r\n        return (eventsFound);\r\n    }\r\n\r\n    function getAllCandidatesInEvent(uint256 _categoryId, uint256 _eventId)\r\n        public\r\n        view\r\n        returns (Candidate[] memory foundCandidates)\r\n    {\r\n        // find the certain category\r\n        Category storage category = categories[_categoryId];\r\n        // find the certain event in certain category\r\n        for (uint256 i = 0; i < category.events.length; i++) {\r\n            if (category.events[i].eventId == _eventId) {\r\n                Candidate[] memory candidatesFound = new Candidate[](\r\n                    category.events[i].candidateCount\r\n                );\r\n\r\n                for (\r\n                    uint256 j = 0;\r\n                    j < category.events[i].candidates.length;\r\n                    j++\r\n                ) {\r\n                    candidatesFound[j] = category.events[i].candidates[j];\r\n                }\r\n                return (candidatesFound);\r\n            }\r\n        }\r\n    }\r\n\r\n    function getAllCandidates() public view returns (Candidate[] memory) {\r\n        Candidate[] memory candidatesFound = new Candidate[](candidateCount);\r\n        Event[] memory eventFound = new Event[](eventCount);\r\n\r\n        // get all the events\r\n        eventFound = getAllEvent();\r\n        uint256 count = 0;\r\n        // find the candidates inside all the event\r\n        for (uint256 i = 0; i < eventCount; i++) {\r\n            for (uint256 j = 0; j < eventFound[i].candidates.length; j++) {\r\n                candidatesFound[count] = eventFound[i].candidates[j];\r\n                count += 1;\r\n            }\r\n        }\r\n\r\n        return candidatesFound;\r\n    }\r\n\r\n    function getAllCategory() public view returns (Category[] memory) {\r\n        //Candidate[] memory candidatesFound = new Candidate[](candidateCount);\r\n        Category[] memory categoriesFound = new Category[](categoryCount);\r\n        // Iterate through all stored structs\r\n        for (uint256 i = 1; i <= categoryCount; i++) {\r\n            categoriesFound[i - 1] = categories[i];\r\n        }\r\n\r\n        return categoriesFound;\r\n    }\r\n\r\n    function getCategoryById(uint256 _categoryId)\r\n        public\r\n        view\r\n        returns (Category memory)\r\n    {\r\n        return categories[_categoryId];\r\n    }\r\n\r\n    function getAllEvent() public view returns (Event[] memory) {\r\n        // Initialize the array with the correct size\r\n        Event[] memory eventFound = new Event[](eventCount);\r\n        uint256 count = 0;\r\n\r\n        // Iterate through all categories and events\r\n        for (uint256 i = 0; i < categoryCount; i++) {\r\n            for (uint256 j = 0; j < categories[i + 1].events.length; j++) {\r\n                eventFound[count] = categories[i + 1].events[j];\r\n                count += 1;\r\n            }\r\n        }\r\n\r\n        return eventFound;\r\n    }\r\n\r\n    function getEventById(uint256 _categoryId, uint256 _eventId)\r\n        public\r\n        view\r\n        returns (Event memory)\r\n    {\r\n        Category memory categoriesFound = categories[_categoryId];\r\n        Event memory eventFound;\r\n        // Iterate through all stored structs\r\n        for (uint256 i = 0; i < categoriesFound.events.length; i++) {\r\n            if (categoriesFound.events[i].eventId == _eventId) {\r\n                eventFound = categoriesFound.events[i];\r\n            }\r\n        }\r\n\r\n        return eventFound;\r\n    }\r\n\r\n    function vote(\r\n        uint256 _voterId,\r\n        uint256 _candidateId,\r\n        uint256 _categoryId,\r\n        uint256 _eventId\r\n    ) external {\r\n        require(\r\n            categories[_categoryId].categoryId != 0,\r\n            \"Category does not exists\"\r\n        );\r\n\r\n        require(eventCount != 0, \"Event does not exists\");\r\n\r\n        // for (uint256 i = 1; i <= categories[_categoryId].events.length; i++) {\r\n        //     require(categories[_categoryId].events[i-0].eventId == _eventId, \"noobbbbb\");\r\n        // }\r\n\r\n        require(\r\n            isCandidateExistsInEventById(_categoryId, _eventId, _candidateId) ==\r\n                true,\r\n            \"Candidates does not exists\"\r\n        );\r\n\r\n        // check if has voted\r\n        for (uint256 i = 1; i <= voteEventCount; i++) {\r\n            if (\r\n                _voterId == voteEvents[i].voterId &&\r\n                _categoryId == voteEvents[i].categoryId &&\r\n                _eventId == voteEvents[i].eventId\r\n            ) {\r\n                require(!voteEvents[i].voted, \"You already voted\");\r\n                break;\r\n            }\r\n        }\r\n\r\n        // add count on the candidate\r\n        voteEventCount += 1;\r\n\r\n        // Create a new voteEventStruct\r\n        voteEventStruct memory newVoteEvent = voteEventStruct({\r\n            id: voteEventCount,\r\n            voterId: _voterId,\r\n            categoryId: _categoryId,\r\n            eventId: _eventId,\r\n            voted: true\r\n        });\r\n\r\n        voteEvents[voteEventCount] = newVoteEvent;\r\n\r\n        // add the vote count of the chosen candidate\r\n        addVoteCount(_candidateId);\r\n        addVoteCountIn(_categoryId, _eventId, _candidateId);\r\n\r\n        string memory concatenatedValues = string(\r\n            abi.encodePacked(_categoryId, _eventId)\r\n        );\r\n\r\n        emit VoteEvent(_voterId, concatenatedValues, _candidateId);\r\n    }\r\n\r\n    function addVoteCount(uint256 _candidateId) internal {\r\n        candidates[_candidateId].voteCount += 1;\r\n    }\r\n\r\n    function addVoteCountIn(\r\n        uint256 _categoryId,\r\n        uint256 _eventId,\r\n        uint256 _candidateId\r\n    ) internal {\r\n        // get the events inside the categories\r\n        Event[] storage eventsFound = categories[_categoryId].events;\r\n\r\n        // find the event with param\r\n        for (uint256 i = 0; i < eventsFound.length; i++) {\r\n            if (eventsFound[i].eventId == _eventId) {\r\n                // get the candidate inside the event\r\n                Candidate[] storage candidatesFound = eventsFound[i].candidates;\r\n                // find the candidate\r\n                for (uint256 j = 0; j < candidatesFound.length; j++) {\r\n                    if (candidatesFound[j].id == _candidateId) {\r\n                        // found the candidate and plus 1 at the voteCount\r\n                        candidatesFound[j].voteCount += 1;\r\n                        break;\r\n                    }\r\n                }\r\n            }\r\n        }\r\n    }\r\n\r\n    function getCandidateVoteCount(uint256 _candidateId)\r\n        public\r\n        view\r\n        returns (uint256 count)\r\n    {\r\n        return candidates[_candidateId].voteCount;\r\n    }\r\n\r\n    function getVoteEventCandidate(uint256 _categoryId, uint256 _eventId)\r\n        public\r\n        view\r\n        returns (Candidate[] memory)\r\n    {\r\n        Event[] memory eventsFound = categories[_categoryId].events;\r\n\r\n        for (uint256 i = 0; i < eventsFound.length; i++) {\r\n            if (eventsFound[i].eventId == _eventId) {\r\n                return eventsFound[i].candidates;\r\n            }\r\n        }\r\n\r\n        // If the event is not found, return an empty array or handle the situation accordingly\r\n        return new Candidate[](0);\r\n    }\r\n\r\n    function whoIsTheWinner(uint256 _categoryId, uint256 _eventId)\r\n        public\r\n        view\r\n        returns (Candidate memory)\r\n    {\r\n        Event[] memory eventsFound = categories[_categoryId].events;\r\n        Candidate[] memory candidatesFound;\r\n\r\n        for (uint256 i = 0; i < eventsFound.length; i++) {\r\n            if (eventsFound[i].eventId == _eventId) {\r\n                candidatesFound = eventsFound[i].candidates;\r\n            }\r\n        }\r\n\r\n        Candidate memory winner = candidatesFound[0];\r\n\r\n        for (uint256 i = 0; i < candidatesFound.length - 1; i++) {\r\n            if (winner.voteCount < candidatesFound[i + 1].voteCount) {\r\n                winner = candidatesFound[i + 1];\r\n            }\r\n        }\r\n\r\n        winner.win = true;\r\n\r\n        // If the event is not found, return an empty array or handle the situation accordingly\r\n        return winner;\r\n    }\r\n}",
  "sourcePath": "C:\\Users\\User\\FYP1\\contracts\\VotingSystem.sol",
  "compiler": {
    "name": "solc",
    "version": "0.8.13+commit.abaa5c0e.Emscripten.clang"
  },
  "schemaVersion": "3.4.16",
  "updatedAt": "2023-12-07T15:30:24.618Z",
  "networkType": "ethereum",
  "devdoc": {
    "kind": "dev",
    "methods": {},
    "version": 1
  },
  "userdoc": {
    "kind": "user",
    "methods": {},
    "version": 1
  }
}