{
  "contractName": "VotingSystem",
  "abi": [
    {
      "inputs": [],
      "stateMutability": "nonpayable",
      "type": "constructor"
    },
    {
      "anonymous": false,
      "inputs": [
        {
          "indexed": true,
          "internalType": "uint256",
          "name": "eventId",
          "type": "uint256"
        },
        {
          "indexed": false,
          "internalType": "string",
          "name": "eventName",
          "type": "string"
        }
      ],
      "name": "CandidateAdded",
      "type": "event"
    },
    {
      "anonymous": false,
      "inputs": [
        {
          "indexed": true,
          "internalType": "uint256",
          "name": "categoryId",
          "type": "uint256"
        },
        {
          "indexed": false,
          "internalType": "string",
          "name": "categoryName",
          "type": "string"
        }
      ],
      "name": "CategoryAdded",
      "type": "event"
    },
    {
      "anonymous": false,
      "inputs": [
        {
          "indexed": true,
          "internalType": "uint256",
          "name": "eventId",
          "type": "uint256"
        },
        {
          "indexed": false,
          "internalType": "string",
          "name": "eventName",
          "type": "string"
        }
      ],
      "name": "EventAdded",
      "type": "event"
    },
    {
      "anonymous": false,
      "inputs": [
        {
          "indexed": true,
          "internalType": "uint256",
          "name": "voterId",
          "type": "uint256"
        },
        {
          "indexed": true,
          "internalType": "string",
          "name": "categoryEvent",
          "type": "string"
        },
        {
          "indexed": true,
          "internalType": "uint256",
          "name": "candidate",
          "type": "uint256"
        }
      ],
      "name": "VoteEvent",
      "type": "event"
    },
    {
      "anonymous": false,
      "inputs": [
        {
          "indexed": true,
          "internalType": "uint256",
          "name": "voterId",
          "type": "uint256"
        },
        {
          "indexed": false,
          "internalType": "string",
          "name": "voter_key",
          "type": "string"
        }
      ],
      "name": "VoterAdded",
      "type": "event"
    },
    {
      "inputs": [],
      "name": "owner",
      "outputs": [
        {
          "internalType": "address",
          "name": "",
          "type": "address"
        }
      ],
      "stateMutability": "view",
      "type": "function",
      "constant": true
    },
    {
      "inputs": [
        {
          "internalType": "uint256",
          "name": "",
          "type": "uint256"
        }
      ],
      "name": "voteEvents",
      "outputs": [
        {
          "internalType": "uint256",
          "name": "id",
          "type": "uint256"
        },
        {
          "internalType": "uint256",
          "name": "voterId",
          "type": "uint256"
        },
        {
          "internalType": "uint256",
          "name": "categoryId",
          "type": "uint256"
        },
        {
          "internalType": "uint256",
          "name": "eventId",
          "type": "uint256"
        },
        {
          "internalType": "bool",
          "name": "voted",
          "type": "bool"
        }
      ],
      "stateMutability": "view",
      "type": "function",
      "constant": true
    },
    {
      "inputs": [
        {
          "internalType": "uint256",
          "name": "",
          "type": "uint256"
        }
      ],
      "name": "voters",
      "outputs": [
        {
          "internalType": "uint256",
          "name": "id",
          "type": "uint256"
        },
        {
          "internalType": "string",
          "name": "key",
          "type": "string"
        },
        {
          "internalType": "string",
          "name": "email",
          "type": "string"
        },
        {
          "internalType": "bytes32",
          "name": "password",
          "type": "bytes32"
        },
        {
          "internalType": "string",
          "name": "role",
          "type": "string"
        },
        {
          "internalType": "uint256",
          "name": "status",
          "type": "uint256"
        },
        {
          "internalType": "string",
          "name": "token",
          "type": "string"
        }
      ],
      "stateMutability": "view",
      "type": "function",
      "constant": true
    },
    {
      "inputs": [
        {
          "internalType": "string",
          "name": "_key",
          "type": "string"
        },
        {
          "internalType": "string",
          "name": "_email",
          "type": "string"
        },
        {
          "internalType": "string",
          "name": "_password",
          "type": "string"
        },
        {
          "internalType": "string",
          "name": "_role",
          "type": "string"
        },
        {
          "internalType": "string",
          "name": "_token",
          "type": "string"
        }
      ],
      "name": "addVoter",
      "outputs": [],
      "stateMutability": "nonpayable",
      "type": "function"
    },
    {
      "inputs": [
        {
          "internalType": "string",
          "name": "_email",
          "type": "string"
        },
        {
          "internalType": "string",
          "name": "_password",
          "type": "string"
        }
      ],
      "name": "loginVoter",
      "outputs": [
        {
          "components": [
            {
              "internalType": "uint256",
              "name": "id",
              "type": "uint256"
            },
            {
              "internalType": "string",
              "name": "key",
              "type": "string"
            },
            {
              "internalType": "string",
              "name": "email",
              "type": "string"
            },
            {
              "internalType": "bytes32",
              "name": "password",
              "type": "bytes32"
            },
            {
              "internalType": "string",
              "name": "role",
              "type": "string"
            },
            {
              "internalType": "uint256",
              "name": "status",
              "type": "uint256"
            },
            {
              "internalType": "string",
              "name": "token",
              "type": "string"
            }
          ],
          "internalType": "struct VotingSystem.Voter",
          "name": "",
          "type": "tuple"
        }
      ],
      "stateMutability": "view",
      "type": "function",
      "constant": true
    },
    {
      "inputs": [
        {
          "internalType": "string",
          "name": "_email",
          "type": "string"
        },
        {
          "internalType": "string",
          "name": "_password",
          "type": "string"
        }
      ],
      "name": "getVoterByEmailPassword",
      "outputs": [
        {
          "components": [
            {
              "internalType": "uint256",
              "name": "id",
              "type": "uint256"
            },
            {
              "internalType": "string",
              "name": "key",
              "type": "string"
            },
            {
              "internalType": "string",
              "name": "email",
              "type": "string"
            },
            {
              "internalType": "bytes32",
              "name": "password",
              "type": "bytes32"
            },
            {
              "internalType": "string",
              "name": "role",
              "type": "string"
            },
            {
              "internalType": "uint256",
              "name": "status",
              "type": "uint256"
            },
            {
              "internalType": "string",
              "name": "token",
              "type": "string"
            }
          ],
          "internalType": "struct VotingSystem.Voter",
          "name": "",
          "type": "tuple"
        }
      ],
      "stateMutability": "view",
      "type": "function",
      "constant": true
    },
    {
      "inputs": [
        {
          "internalType": "string",
          "name": "_key",
          "type": "string"
        },
        {
          "internalType": "string",
          "name": "_password",
          "type": "string"
        }
      ],
      "name": "updateVoterPassword",
      "outputs": [],
      "stateMutability": "nonpayable",
      "type": "function"
    },
    {
      "inputs": [
        {
          "internalType": "string",
          "name": "_token",
          "type": "string"
        }
      ],
      "name": "verifyVoterAccount",
      "outputs": [
        {
          "internalType": "bool",
          "name": "",
          "type": "bool"
        }
      ],
      "stateMutability": "nonpayable",
      "type": "function"
    },
    {
      "inputs": [
        {
          "internalType": "string",
          "name": "_email",
          "type": "string"
        },
        {
          "internalType": "string",
          "name": "_password",
          "type": "string"
        }
      ],
      "name": "getVoterStatus",
      "outputs": [
        {
          "internalType": "uint256",
          "name": "status",
          "type": "uint256"
        }
      ],
      "stateMutability": "view",
      "type": "function",
      "constant": true
    },
    {
      "inputs": [
        {
          "internalType": "string",
          "name": "_email",
          "type": "string"
        },
        {
          "internalType": "string",
          "name": "_password",
          "type": "string"
        }
      ],
      "name": "checkVoterEmailPassword",
      "outputs": [
        {
          "internalType": "bool",
          "name": "foundVoter",
          "type": "bool"
        }
      ],
      "stateMutability": "view",
      "type": "function",
      "constant": true
    },
    {
      "inputs": [
        {
          "internalType": "string",
          "name": "_key",
          "type": "string"
        }
      ],
      "name": "isVoterExist",
      "outputs": [
        {
          "internalType": "bool",
          "name": "",
          "type": "bool"
        }
      ],
      "stateMutability": "view",
      "type": "function",
      "constant": true
    },
    {
      "inputs": [
        {
          "internalType": "string",
          "name": "_categoryName",
          "type": "string"
        }
      ],
      "name": "addCategory",
      "outputs": [],
      "stateMutability": "nonpayable",
      "type": "function"
    },
    {
      "inputs": [
        {
          "components": [
            {
              "internalType": "uint256",
              "name": "categoryId",
              "type": "uint256"
            },
            {
              "internalType": "string",
              "name": "categoryName",
              "type": "string"
            },
            {
              "components": [
                {
                  "internalType": "uint256",
                  "name": "eventId",
                  "type": "uint256"
                },
                {
                  "internalType": "string",
                  "name": "eventName",
                  "type": "string"
                },
                {
                  "internalType": "uint256",
                  "name": "categoryId",
                  "type": "uint256"
                },
                {
                  "components": [
                    {
                      "internalType": "uint256",
                      "name": "id",
                      "type": "uint256"
                    },
                    {
                      "internalType": "string",
                      "name": "name",
                      "type": "string"
                    },
                    {
                      "internalType": "string",
                      "name": "description",
                      "type": "string"
                    },
                    {
                      "internalType": "uint256",
                      "name": "studentId",
                      "type": "uint256"
                    },
                    {
                      "internalType": "uint256",
                      "name": "categoryId",
                      "type": "uint256"
                    },
                    {
                      "internalType": "uint256",
                      "name": "eventId",
                      "type": "uint256"
                    },
                    {
                      "internalType": "uint256",
                      "name": "voteCount",
                      "type": "uint256"
                    },
                    {
                      "internalType": "bool",
                      "name": "win",
                      "type": "bool"
                    }
                  ],
                  "internalType": "struct VotingSystem.Candidate[]",
                  "name": "candidates",
                  "type": "tuple[]"
                },
                {
                  "internalType": "uint256",
                  "name": "candidateCount",
                  "type": "uint256"
                },
                {
                  "internalType": "uint256",
                  "name": "status",
                  "type": "uint256"
                }
              ],
              "internalType": "struct VotingSystem.Event[]",
              "name": "events",
              "type": "tuple[]"
            },
            {
              "internalType": "uint256",
              "name": "status",
              "type": "uint256"
            }
          ],
          "internalType": "struct VotingSystem.Category",
          "name": "_category",
          "type": "tuple"
        }
      ],
      "name": "updateCategory",
      "outputs": [],
      "stateMutability": "nonpayable",
      "type": "function"
    },
    {
      "inputs": [
        {
          "internalType": "uint256",
          "name": "_categoryId",
          "type": "uint256"
        },
        {
          "internalType": "string",
          "name": "_newCategoryName",
          "type": "string"
        }
      ],
      "name": "updateCategory",
      "outputs": [],
      "stateMutability": "nonpayable",
      "type": "function"
    },
    {
      "inputs": [
        {
          "internalType": "uint256",
          "name": "_categoryId",
          "type": "uint256"
        },
        {
          "internalType": "string",
          "name": "_eventName",
          "type": "string"
        }
      ],
      "name": "addEvent",
      "outputs": [],
      "stateMutability": "nonpayable",
      "type": "function"
    },
    {
      "inputs": [
        {
          "components": [
            {
              "internalType": "uint256",
              "name": "eventId",
              "type": "uint256"
            },
            {
              "internalType": "string",
              "name": "eventName",
              "type": "string"
            },
            {
              "internalType": "uint256",
              "name": "categoryId",
              "type": "uint256"
            },
            {
              "components": [
                {
                  "internalType": "uint256",
                  "name": "id",
                  "type": "uint256"
                },
                {
                  "internalType": "string",
                  "name": "name",
                  "type": "string"
                },
                {
                  "internalType": "string",
                  "name": "description",
                  "type": "string"
                },
                {
                  "internalType": "uint256",
                  "name": "studentId",
                  "type": "uint256"
                },
                {
                  "internalType": "uint256",
                  "name": "categoryId",
                  "type": "uint256"
                },
                {
                  "internalType": "uint256",
                  "name": "eventId",
                  "type": "uint256"
                },
                {
                  "internalType": "uint256",
                  "name": "voteCount",
                  "type": "uint256"
                },
                {
                  "internalType": "bool",
                  "name": "win",
                  "type": "bool"
                }
              ],
              "internalType": "struct VotingSystem.Candidate[]",
              "name": "candidates",
              "type": "tuple[]"
            },
            {
              "internalType": "uint256",
              "name": "candidateCount",
              "type": "uint256"
            },
            {
              "internalType": "uint256",
              "name": "status",
              "type": "uint256"
            }
          ],
          "internalType": "struct VotingSystem.Event",
          "name": "_event",
          "type": "tuple"
        }
      ],
      "name": "updateEvent",
      "outputs": [],
      "stateMutability": "nonpayable",
      "type": "function"
    },
    {
      "inputs": [
        {
          "internalType": "uint256",
          "name": "_categoryId",
          "type": "uint256"
        },
        {
          "internalType": "uint256",
          "name": "_eventId",
          "type": "uint256"
        },
        {
          "internalType": "string",
          "name": "_candidateName",
          "type": "string"
        },
        {
          "internalType": "string",
          "name": "_description",
          "type": "string"
        },
        {
          "internalType": "uint256",
          "name": "_studentId",
          "type": "uint256"
        }
      ],
      "name": "addCandidateToEvent",
      "outputs": [],
      "stateMutability": "nonpayable",
      "type": "function"
    },
    {
      "inputs": [
        {
          "components": [
            {
              "internalType": "uint256",
              "name": "id",
              "type": "uint256"
            },
            {
              "internalType": "string",
              "name": "name",
              "type": "string"
            },
            {
              "internalType": "string",
              "name": "description",
              "type": "string"
            },
            {
              "internalType": "uint256",
              "name": "studentId",
              "type": "uint256"
            },
            {
              "internalType": "uint256",
              "name": "categoryId",
              "type": "uint256"
            },
            {
              "internalType": "uint256",
              "name": "eventId",
              "type": "uint256"
            },
            {
              "internalType": "uint256",
              "name": "voteCount",
              "type": "uint256"
            },
            {
              "internalType": "bool",
              "name": "win",
              "type": "bool"
            }
          ],
          "internalType": "struct VotingSystem.Candidate",
          "name": "_candidate",
          "type": "tuple"
        }
      ],
      "name": "updateCandidate",
      "outputs": [],
      "stateMutability": "nonpayable",
      "type": "function"
    },
    {
      "inputs": [
        {
          "internalType": "uint256",
          "name": "_categoryId",
          "type": "uint256"
        },
        {
          "internalType": "uint256",
          "name": "_eventId",
          "type": "uint256"
        },
        {
          "internalType": "uint256",
          "name": "_studentId",
          "type": "uint256"
        }
      ],
      "name": "isCandidateExistsInEvent",
      "outputs": [
        {
          "internalType": "bool",
          "name": "",
          "type": "bool"
        }
      ],
      "stateMutability": "view",
      "type": "function",
      "constant": true
    },
    {
      "inputs": [
        {
          "internalType": "uint256",
          "name": "_categoryId",
          "type": "uint256"
        },
        {
          "internalType": "uint256",
          "name": "_eventId",
          "type": "uint256"
        },
        {
          "internalType": "uint256",
          "name": "_candidateId",
          "type": "uint256"
        }
      ],
      "name": "isCandidateExistsInEventById",
      "outputs": [
        {
          "internalType": "bool",
          "name": "",
          "type": "bool"
        }
      ],
      "stateMutability": "view",
      "type": "function",
      "constant": true
    },
    {
      "inputs": [
        {
          "internalType": "uint256",
          "name": "_categoryId",
          "type": "uint256"
        },
        {
          "internalType": "uint256",
          "name": "_eventId",
          "type": "uint256"
        }
      ],
      "name": "isEventExists",
      "outputs": [
        {
          "internalType": "bool",
          "name": "",
          "type": "bool"
        }
      ],
      "stateMutability": "view",
      "type": "function",
      "constant": true
    },
    {
      "inputs": [
        {
          "internalType": "uint256",
          "name": "_categoryId",
          "type": "uint256"
        },
        {
          "internalType": "string",
          "name": "_eventName",
          "type": "string"
        }
      ],
      "name": "isEventExists",
      "outputs": [
        {
          "internalType": "bool",
          "name": "",
          "type": "bool"
        }
      ],
      "stateMutability": "view",
      "type": "function",
      "constant": true
    },
    {
      "inputs": [
        {
          "internalType": "uint256",
          "name": "_categoryId",
          "type": "uint256"
        }
      ],
      "name": "getAllCategoryEvent",
      "outputs": [
        {
          "components": [
            {
              "internalType": "uint256",
              "name": "eventId",
              "type": "uint256"
            },
            {
              "internalType": "string",
              "name": "eventName",
              "type": "string"
            },
            {
              "internalType": "uint256",
              "name": "categoryId",
              "type": "uint256"
            },
            {
              "components": [
                {
                  "internalType": "uint256",
                  "name": "id",
                  "type": "uint256"
                },
                {
                  "internalType": "string",
                  "name": "name",
                  "type": "string"
                },
                {
                  "internalType": "string",
                  "name": "description",
                  "type": "string"
                },
                {
                  "internalType": "uint256",
                  "name": "studentId",
                  "type": "uint256"
                },
                {
                  "internalType": "uint256",
                  "name": "categoryId",
                  "type": "uint256"
                },
                {
                  "internalType": "uint256",
                  "name": "eventId",
                  "type": "uint256"
                },
                {
                  "internalType": "uint256",
                  "name": "voteCount",
                  "type": "uint256"
                },
                {
                  "internalType": "bool",
                  "name": "win",
                  "type": "bool"
                }
              ],
              "internalType": "struct VotingSystem.Candidate[]",
              "name": "candidates",
              "type": "tuple[]"
            },
            {
              "internalType": "uint256",
              "name": "candidateCount",
              "type": "uint256"
            },
            {
              "internalType": "uint256",
              "name": "status",
              "type": "uint256"
            }
          ],
          "internalType": "struct VotingSystem.Event[]",
          "name": "foundEvent",
          "type": "tuple[]"
        }
      ],
      "stateMutability": "view",
      "type": "function",
      "constant": true
    },
    {
      "inputs": [
        {
          "internalType": "uint256",
          "name": "_categoryId",
          "type": "uint256"
        },
        {
          "internalType": "uint256",
          "name": "_eventId",
          "type": "uint256"
        }
      ],
      "name": "getAllCandidatesInEvent",
      "outputs": [
        {
          "components": [
            {
              "internalType": "uint256",
              "name": "id",
              "type": "uint256"
            },
            {
              "internalType": "string",
              "name": "name",
              "type": "string"
            },
            {
              "internalType": "string",
              "name": "description",
              "type": "string"
            },
            {
              "internalType": "uint256",
              "name": "studentId",
              "type": "uint256"
            },
            {
              "internalType": "uint256",
              "name": "categoryId",
              "type": "uint256"
            },
            {
              "internalType": "uint256",
              "name": "eventId",
              "type": "uint256"
            },
            {
              "internalType": "uint256",
              "name": "voteCount",
              "type": "uint256"
            },
            {
              "internalType": "bool",
              "name": "win",
              "type": "bool"
            }
          ],
          "internalType": "struct VotingSystem.Candidate[]",
          "name": "foundCandidates",
          "type": "tuple[]"
        }
      ],
      "stateMutability": "view",
      "type": "function",
      "constant": true
    },
    {
      "inputs": [],
      "name": "getAllCandidates",
      "outputs": [
        {
          "components": [
            {
              "internalType": "uint256",
              "name": "id",
              "type": "uint256"
            },
            {
              "internalType": "string",
              "name": "name",
              "type": "string"
            },
            {
              "internalType": "string",
              "name": "description",
              "type": "string"
            },
            {
              "internalType": "uint256",
              "name": "studentId",
              "type": "uint256"
            },
            {
              "internalType": "uint256",
              "name": "categoryId",
              "type": "uint256"
            },
            {
              "internalType": "uint256",
              "name": "eventId",
              "type": "uint256"
            },
            {
              "internalType": "uint256",
              "name": "voteCount",
              "type": "uint256"
            },
            {
              "internalType": "bool",
              "name": "win",
              "type": "bool"
            }
          ],
          "internalType": "struct VotingSystem.Candidate[]",
          "name": "",
          "type": "tuple[]"
        }
      ],
      "stateMutability": "view",
      "type": "function",
      "constant": true
    },
    {
      "inputs": [],
      "name": "getAllCategory",
      "outputs": [
        {
          "components": [
            {
              "internalType": "uint256",
              "name": "categoryId",
              "type": "uint256"
            },
            {
              "internalType": "string",
              "name": "categoryName",
              "type": "string"
            },
            {
              "components": [
                {
                  "internalType": "uint256",
                  "name": "eventId",
                  "type": "uint256"
                },
                {
                  "internalType": "string",
                  "name": "eventName",
                  "type": "string"
                },
                {
                  "internalType": "uint256",
                  "name": "categoryId",
                  "type": "uint256"
                },
                {
                  "components": [
                    {
                      "internalType": "uint256",
                      "name": "id",
                      "type": "uint256"
                    },
                    {
                      "internalType": "string",
                      "name": "name",
                      "type": "string"
                    },
                    {
                      "internalType": "string",
                      "name": "description",
                      "type": "string"
                    },
                    {
                      "internalType": "uint256",
                      "name": "studentId",
                      "type": "uint256"
                    },
                    {
                      "internalType": "uint256",
                      "name": "categoryId",
                      "type": "uint256"
                    },
                    {
                      "internalType": "uint256",
                      "name": "eventId",
                      "type": "uint256"
                    },
                    {
                      "internalType": "uint256",
                      "name": "voteCount",
                      "type": "uint256"
                    },
                    {
                      "internalType": "bool",
                      "name": "win",
                      "type": "bool"
                    }
                  ],
                  "internalType": "struct VotingSystem.Candidate[]",
                  "name": "candidates",
                  "type": "tuple[]"
                },
                {
                  "internalType": "uint256",
                  "name": "candidateCount",
                  "type": "uint256"
                },
                {
                  "internalType": "uint256",
                  "name": "status",
                  "type": "uint256"
                }
              ],
              "internalType": "struct VotingSystem.Event[]",
              "name": "events",
              "type": "tuple[]"
            },
            {
              "internalType": "uint256",
              "name": "status",
              "type": "uint256"
            }
          ],
          "internalType": "struct VotingSystem.Category[]",
          "name": "",
          "type": "tuple[]"
        }
      ],
      "stateMutability": "view",
      "type": "function",
      "constant": true
    },
    {
      "inputs": [
        {
          "internalType": "uint256",
          "name": "_categoryId",
          "type": "uint256"
        }
      ],
      "name": "getCategoryById",
      "outputs": [
        {
          "components": [
            {
              "internalType": "uint256",
              "name": "categoryId",
              "type": "uint256"
            },
            {
              "internalType": "string",
              "name": "categoryName",
              "type": "string"
            },
            {
              "components": [
                {
                  "internalType": "uint256",
                  "name": "eventId",
                  "type": "uint256"
                },
                {
                  "internalType": "string",
                  "name": "eventName",
                  "type": "string"
                },
                {
                  "internalType": "uint256",
                  "name": "categoryId",
                  "type": "uint256"
                },
                {
                  "components": [
                    {
                      "internalType": "uint256",
                      "name": "id",
                      "type": "uint256"
                    },
                    {
                      "internalType": "string",
                      "name": "name",
                      "type": "string"
                    },
                    {
                      "internalType": "string",
                      "name": "description",
                      "type": "string"
                    },
                    {
                      "internalType": "uint256",
                      "name": "studentId",
                      "type": "uint256"
                    },
                    {
                      "internalType": "uint256",
                      "name": "categoryId",
                      "type": "uint256"
                    },
                    {
                      "internalType": "uint256",
                      "name": "eventId",
                      "type": "uint256"
                    },
                    {
                      "internalType": "uint256",
                      "name": "voteCount",
                      "type": "uint256"
                    },
                    {
                      "internalType": "bool",
                      "name": "win",
                      "type": "bool"
                    }
                  ],
                  "internalType": "struct VotingSystem.Candidate[]",
                  "name": "candidates",
                  "type": "tuple[]"
                },
                {
                  "internalType": "uint256",
                  "name": "candidateCount",
                  "type": "uint256"
                },
                {
                  "internalType": "uint256",
                  "name": "status",
                  "type": "uint256"
                }
              ],
              "internalType": "struct VotingSystem.Event[]",
              "name": "events",
              "type": "tuple[]"
            },
            {
              "internalType": "uint256",
              "name": "status",
              "type": "uint256"
            }
          ],
          "internalType": "struct VotingSystem.Category",
          "name": "",
          "type": "tuple"
        }
      ],
      "stateMutability": "view",
      "type": "function",
      "constant": true
    },
    {
      "inputs": [],
      "name": "getAllEvent",
      "outputs": [
        {
          "components": [
            {
              "internalType": "uint256",
              "name": "eventId",
              "type": "uint256"
            },
            {
              "internalType": "string",
              "name": "eventName",
              "type": "string"
            },
            {
              "internalType": "uint256",
              "name": "categoryId",
              "type": "uint256"
            },
            {
              "components": [
                {
                  "internalType": "uint256",
                  "name": "id",
                  "type": "uint256"
                },
                {
                  "internalType": "string",
                  "name": "name",
                  "type": "string"
                },
                {
                  "internalType": "string",
                  "name": "description",
                  "type": "string"
                },
                {
                  "internalType": "uint256",
                  "name": "studentId",
                  "type": "uint256"
                },
                {
                  "internalType": "uint256",
                  "name": "categoryId",
                  "type": "uint256"
                },
                {
                  "internalType": "uint256",
                  "name": "eventId",
                  "type": "uint256"
                },
                {
                  "internalType": "uint256",
                  "name": "voteCount",
                  "type": "uint256"
                },
                {
                  "internalType": "bool",
                  "name": "win",
                  "type": "bool"
                }
              ],
              "internalType": "struct VotingSystem.Candidate[]",
              "name": "candidates",
              "type": "tuple[]"
            },
            {
              "internalType": "uint256",
              "name": "candidateCount",
              "type": "uint256"
            },
            {
              "internalType": "uint256",
              "name": "status",
              "type": "uint256"
            }
          ],
          "internalType": "struct VotingSystem.Event[]",
          "name": "",
          "type": "tuple[]"
        }
      ],
      "stateMutability": "view",
      "type": "function",
      "constant": true
    },
    {
      "inputs": [
        {
          "internalType": "uint256",
          "name": "_categoryId",
          "type": "uint256"
        },
        {
          "internalType": "uint256",
          "name": "_eventId",
          "type": "uint256"
        }
      ],
      "name": "getEventById",
      "outputs": [
        {
          "components": [
            {
              "internalType": "uint256",
              "name": "eventId",
              "type": "uint256"
            },
            {
              "internalType": "string",
              "name": "eventName",
              "type": "string"
            },
            {
              "internalType": "uint256",
              "name": "categoryId",
              "type": "uint256"
            },
            {
              "components": [
                {
                  "internalType": "uint256",
                  "name": "id",
                  "type": "uint256"
                },
                {
                  "internalType": "string",
                  "name": "name",
                  "type": "string"
                },
                {
                  "internalType": "string",
                  "name": "description",
                  "type": "string"
                },
                {
                  "internalType": "uint256",
                  "name": "studentId",
                  "type": "uint256"
                },
                {
                  "internalType": "uint256",
                  "name": "categoryId",
                  "type": "uint256"
                },
                {
                  "internalType": "uint256",
                  "name": "eventId",
                  "type": "uint256"
                },
                {
                  "internalType": "uint256",
                  "name": "voteCount",
                  "type": "uint256"
                },
                {
                  "internalType": "bool",
                  "name": "win",
                  "type": "bool"
                }
              ],
              "internalType": "struct VotingSystem.Candidate[]",
              "name": "candidates",
              "type": "tuple[]"
            },
            {
              "internalType": "uint256",
              "name": "candidateCount",
              "type": "uint256"
            },
            {
              "internalType": "uint256",
              "name": "status",
              "type": "uint256"
            }
          ],
          "internalType": "struct VotingSystem.Event",
          "name": "",
          "type": "tuple"
        }
      ],
      "stateMutability": "view",
      "type": "function",
      "constant": true
    },
    {
      "inputs": [
        {
          "internalType": "uint256",
          "name": "_voterId",
          "type": "uint256"
        },
        {
          "internalType": "uint256",
          "name": "_candidateId",
          "type": "uint256"
        },
        {
          "internalType": "uint256",
          "name": "_categoryId",
          "type": "uint256"
        },
        {
          "internalType": "uint256",
          "name": "_eventId",
          "type": "uint256"
        }
      ],
      "name": "vote",
      "outputs": [],
      "stateMutability": "nonpayable",
      "type": "function"
    },
    {
      "inputs": [
        {
          "internalType": "uint256",
          "name": "_candidateId",
          "type": "uint256"
        }
      ],
      "name": "getCandidateVoteCount",
      "outputs": [
        {
          "internalType": "uint256",
          "name": "count",
          "type": "uint256"
        }
      ],
      "stateMutability": "view",
      "type": "function",
      "constant": true
    },
    {
      "inputs": [
        {
          "internalType": "uint256",
          "name": "_categoryId",
          "type": "uint256"
        },
        {
          "internalType": "uint256",
          "name": "_eventId",
          "type": "uint256"
        }
      ],
      "name": "getVoteEventCandidate",
      "outputs": [
        {
          "components": [
            {
              "internalType": "uint256",
              "name": "id",
              "type": "uint256"
            },
            {
              "internalType": "string",
              "name": "name",
              "type": "string"
            },
            {
              "internalType": "string",
              "name": "description",
              "type": "string"
            },
            {
              "internalType": "uint256",
              "name": "studentId",
              "type": "uint256"
            },
            {
              "internalType": "uint256",
              "name": "categoryId",
              "type": "uint256"
            },
            {
              "internalType": "uint256",
              "name": "eventId",
              "type": "uint256"
            },
            {
              "internalType": "uint256",
              "name": "voteCount",
              "type": "uint256"
            },
            {
              "internalType": "bool",
              "name": "win",
              "type": "bool"
            }
          ],
          "internalType": "struct VotingSystem.Candidate[]",
          "name": "",
          "type": "tuple[]"
        }
      ],
      "stateMutability": "view",
      "type": "function",
      "constant": true
    },
    {
      "inputs": [
        {
          "internalType": "uint256",
          "name": "_categoryId",
          "type": "uint256"
        },
        {
          "internalType": "uint256",
          "name": "_eventId",
          "type": "uint256"
        }
      ],
      "name": "whoIsTheWinner",
      "outputs": [
        {
          "components": [
            {
              "internalType": "uint256",
              "name": "id",
              "type": "uint256"
            },
            {
              "internalType": "string",
              "name": "name",
              "type": "string"
            },
            {
              "internalType": "string",
              "name": "description",
              "type": "string"
            },
            {
              "internalType": "uint256",
              "name": "studentId",
              "type": "uint256"
            },
            {
              "internalType": "uint256",
              "name": "categoryId",
              "type": "uint256"
            },
            {
              "internalType": "uint256",
              "name": "eventId",
              "type": "uint256"
            },
            {
              "internalType": "uint256",
              "name": "voteCount",
              "type": "uint256"
            },
            {
              "internalType": "bool",
              "name": "win",
              "type": "bool"
            }
          ],
          "internalType": "struct VotingSystem.Candidate",
          "name": "",
          "type": "tuple"
        }
      ],
      "stateMutability": "view",
      "type": "function",
      "constant": true
    }
  ],
  "bytecode": "0x608060405234801561001057600080fd5b50600080546001600160a01b03191633179055614e5f806100326000396000f3fe608060405234801561001057600080fd5b50600436106101f05760003560e01c80638da5cb5b1161010f578063bf03f677116100a2578063dfdffaf411610071578063dfdffaf4146104ff578063f29565ed14610512578063f731d0e914610525578063ffdd108b1461053857600080fd5b8063bf03f677146104a0578063c4352bb0146104b3578063c8dcfa57146104c6578063da58c7d9146104d957600080fd5b8063a1a02564116100de578063a1a0256414610444578063a39eab6c14610457578063a7e62d1b1461046a578063b315c5971461047d57600080fd5b80638da5cb5b146103d15780638f2c2805146103fc578063909f8502146104115780639e41a12f1461043157600080fd5b8063514fc62a11610187578063689b6fbf11610156578063689b6fbf1461037857806368c9e3881461038b578063748f55a81461039e5780638801b5b6146103be57600080fd5b8063514fc62a146102c75780635b4d727c146102da57806360e93f3c146102ed578063642d20ad1461030d57600080fd5b8063400af02a116101c3578063400af02a1461025e578063401a52dd1461027e5780634fb432501461029157806350515a77146102b457600080fd5b80631002cdd4146101f55780632e0dcbf7146102135780632e6997fe146102285780633e60e2f51461023d575b600080fd5b6101fd61054b565b60405161020a91906141b6565b60405180910390f35b61022661022136600461433a565b610904565b005b610230610a33565b60405161020a9190614376565b61025061024b3660046143cb565b610bb5565b60405190815260200161020a565b61027161026c3660046143cb565b610bf3565b60405161020a919061442e565b6101fd61028c3660046144cb565b610cd0565b6102a461029f3660046144e4565b611034565b604051901515815260200161020a565b6102a46102c2366004614506565b6110e0565b6102a46102d536600461433a565b61119f565b6102306102e83660046144e4565b611205565b6103006102fb3660046144cb565b61150e565b60405161020a91906145d3565b61034e61031b3660046144cb565b60046020819052600091825260409091208054600182015460028301546003840154939094015491939092909160ff1685565b6040805195865260208601949094529284019190915260608301521515608082015260a00161020a565b6102a46103863660046143cb565b6118e1565b6102266103993660046145e6565b611902565b6103b16103ac3660046144e4565b611bce565b60405161020a9190614618565b6102716103cc3660046143cb565b611fdc565b6000546103e4906001600160a01b031681565b6040516001600160a01b03909116815260200161020a565b6104046123b8565b60405161020a919061462b565b61042461041f3660046144e4565b612824565b60405161020a9190614680565b61022661043f366004614693565b612c4c565b6102a461045236600461433a565b612ed1565b610226610465366004614920565b612fb5565b6102306104783660046144e4565b61301d565b61025061048b3660046144cb565b60009081526003602052604090206006015490565b6102a46104ae366004614a33565b6133ab565b6102266104c1366004614a5f565b61343f565b6102266104d4366004614a93565b61356a565b6104ec6104e73660046144cb565b613720565b60405161020a9796959493929190614ac7565b6102a461050d366004614a33565b61397b565b6102266105203660046143cb565b613a03565b610226610533366004614b34565b613ae9565b610226610546366004614506565b613c7e565b606060006008546001600160401b0381111561056957610569614218565b6040519080825280602002602001820160405280156105a257816020015b61058f613f28565b8152602001906001900390816105875790505b5090506000805b6006548110156108fc5760005b600160006105c48483614c1b565b81526020810191909152604001600020600201548110156108e957600160006105ed8483614c1b565b8152602001908152602001600020600201818154811061060f5761060f614c33565b90600052602060002090600602016040518060c00160405290816000820154815260200160018201805461064290614c49565b80601f016020809104026020016040519081016040528092919081815260200182805461066e90614c49565b80156106bb5780601f10610690576101008083540402835291602001916106bb565b820191906000526020600020905b81548152906001019060200180831161069e57829003601f168201915b505050505081526020016002820154815260200160038201805480602002602001604051908101604052809291908181526020016000905b828210156108915783829060005260206000209060080201604051806101000160405290816000820154815260200160018201805461073190614c49565b80601f016020809104026020016040519081016040528092919081815260200182805461075d90614c49565b80156107aa5780601f1061077f576101008083540402835291602001916107aa565b820191906000526020600020905b81548152906001019060200180831161078d57829003601f168201915b505050505081526020016002820180546107c390614c49565b80601f01602080910402602001604051908101604052809291908181526020018280546107ef90614c49565b801561083c5780601f106108115761010080835404028352916020019161083c565b820191906000526020600020905b81548152906001019060200180831161081f57829003601f168201915b5050509183525050600382015460208083019190915260048301546040830152600583015460608301526006830154608083015260079092015460ff16151560a09091015290825260019290920191016106f3565b505050508152602001600482015481526020016005820154815250508484815181106108bf576108bf614c33565b60209081029190910101526108d5600184614c1b565b9250806108e181614c7d565b9150506105b6565b50806108f481614c7d565b9150506105a9565b509092915050565b60015b60065481116109a757600160008281526020019081526020016000206001016040516109339190614c96565b60405180910390208280519060200120036109955760405162461bcd60e51b815260206004820152601760248201527f43617465676f727920616c72656164792065786973747300000000000000000060448201526064015b60405180910390fd5b8061099f81614c7d565b915050610907565b506001600660008282546109bb9190614c1b565b90915550506006546000908152600160208181526040909220835190926109e89284019190850190613f5e565b5060068054825560016003830155546040517f5bae3f75753ef0a1c0ea0f6c51d7b43a4b8d116572b8b7b5cb771f9ad32d4ae590610a27908590614d31565b60405180910390a25050565b606060006007546001600160401b03811115610a5157610a51614218565b604051908082528060200260200182016040528015610a8a57816020015b610a77613fe2565b815260200190600190039081610a6f5790505b50905060006008546001600160401b03811115610aa957610aa9614218565b604051908082528060200260200182016040528015610ae257816020015b610acf613f28565b815260200190600190039081610ac75790505b509050610aed61054b565b90506000805b600854811015610bac5760005b838281518110610b1257610b12614c33565b60200260200101516060015151811015610b9957838281518110610b3857610b38614c33565b6020026020010151606001518181518110610b5557610b55614c33565b6020026020010151858481518110610b6f57610b6f614c33565b6020908102919091010152610b85600184614c1b565b925080610b9181614c7d565b915050610b00565b5080610ba481614c7d565b915050610af3565b50919392505050565b600080610bc28484611fdc565b8051909150600003610be65760405162461bcd60e51b815260040161098c90614d44565b60a0015190505b92915050565b610c366040518060e00160405280600081526020016060815260200160608152602001600080191681526020016060815260200160008152602001606081525090565b6000610c428484611fdc565b8051909150600003610c665760405162461bcd60e51b815260040161098c90614d44565b8060a00151600114610cc95760405162461bcd60e51b815260206004820152602660248201527f596f7572206163636f756e74207761732062616e6e6564206f72206e6f74207660448201526565726966792160d01b606482015260840161098c565b9392505050565b60008181526001602052604081206002810154606092906001600160401b03811115610cfe57610cfe614218565b604051908082528060200260200182016040528015610d3757816020015b610d24613f28565b815260200190600190039081610d1c5790505b50905060005b600283015481101561102c57826002018181548110610d5e57610d5e614c33565b90600052602060002090600602016040518060c001604052908160008201548152602001600182018054610d9190614c49565b80601f0160208091040260200160405190810160405280929190818152602001828054610dbd90614c49565b8015610e0a5780601f10610ddf57610100808354040283529160200191610e0a565b820191906000526020600020905b815481529060010190602001808311610ded57829003601f168201915b505050505081526020016002820154815260200160038201805480602002602001604051908101604052809291908181526020016000905b82821015610fe057838290600052602060002090600802016040518061010001604052908160008201548152602001600182018054610e8090614c49565b80601f0160208091040260200160405190810160405280929190818152602001828054610eac90614c49565b8015610ef95780601f10610ece57610100808354040283529160200191610ef9565b820191906000526020600020905b815481529060010190602001808311610edc57829003601f168201915b50505050508152602001600282018054610f1290614c49565b80601f0160208091040260200160405190810160405280929190818152602001828054610f3e90614c49565b8015610f8b5780601f10610f6057610100808354040283529160200191610f8b565b820191906000526020600020905b815481529060010190602001808311610f6e57829003601f168201915b5050509183525050600382015460208083019190915260048301546040830152600583015460608301526006830154608083015260079092015460ff16151560a0909101529082526001929092019101610e42565b5050505081526020016004820154815260200160058201548152505082828151811061100e5761100e614c33565b6020026020010181905250808061102490614c7d565b915050610d3d565b509392505050565b60008281526001602052604081205481036110615760405162461bcd60e51b815260040161098c90614d88565b60005b6000848152600160205260409020600201548110156110d65760008481526001602052604090206002018054849190839081106110a3576110a3614c33565b906000526020600020906006020160000154036110c4576001915050610bed565b806110ce81614c7d565b915050611064565b5060009392505050565b600082815260016020526040812054810361110d5760405162461bcd60e51b815260040161098c90614d88565b60005b6000848152600160205260409020600201548110156110d657828051906020012060016000868152602001908152602001600020600201828154811061115857611158614c33565b90600052602060002090600602016001016040516111769190614c96565b60405180910390200361118d576001915050610bed565b8061119781614c7d565b915050611110565b600060015b600a5481116111fc576000818152600560205260409081902090516111cc9160010190614c96565b60405180910390208380519060200120036111ea5750600192915050565b806111f481614c7d565b9150506111a4565b50600092915050565b60008281526001602052604081206060915b6002820154811015611506578382600201828154811061123957611239614c33565b906000526020600020906006020160000154036114f457600082600201828154811061126757611267614c33565b9060005260206000209060060201600401546001600160401b0381111561129057611290614218565b6040519080825280602002602001820160405280156112c957816020015b6112b6613fe2565b8152602001906001900390816112ae5790505b50905060005b8360020183815481106112e4576112e4614c33565b9060005260206000209060060201600301805490508110156114e95783600201838154811061131557611315614c33565b9060005260206000209060060201600301818154811061133757611337614c33565b9060005260206000209060080201604051806101000160405290816000820154815260200160018201805461136b90614c49565b80601f016020809104026020016040519081016040528092919081815260200182805461139790614c49565b80156113e45780601f106113b9576101008083540402835291602001916113e4565b820191906000526020600020905b8154815290600101906020018083116113c757829003601f168201915b505050505081526020016002820180546113fd90614c49565b80601f016020809104026020016040519081016040528092919081815260200182805461142990614c49565b80156114765780601f1061144b57610100808354040283529160200191611476565b820191906000526020600020905b81548152906001019060200180831161145957829003601f168201915b50505091835250506003820154602082015260048201546040820152600582015460608201526006820154608082015260079091015460ff16151560a09091015282518390839081106114cb576114cb614c33565b602002602001018190525080806114e190614c7d565b9150506112cf565b509250610bed915050565b806114fe81614c7d565b915050611217565b505092915050565b6115396040518060800160405280600081526020016060815260200160608152602001600081525090565b6000828152600160208181526040928390208351608081019094528054845291820180549184019161156a90614c49565b80601f016020809104026020016040519081016040528092919081815260200182805461159690614c49565b80156115e35780601f106115b8576101008083540402835291602001916115e3565b820191906000526020600020905b8154815290600101906020018083116115c657829003601f168201915b5050505050815260200160028201805480602002602001604051908101604052809291908181526020016000905b828210156118c857838290600052602060002090600602016040518060c00160405290816000820154815260200160018201805461164e90614c49565b80601f016020809104026020016040519081016040528092919081815260200182805461167a90614c49565b80156116c75780601f1061169c576101008083540402835291602001916116c7565b820191906000526020600020905b8154815290600101906020018083116116aa57829003601f168201915b505050505081526020016002820154815260200160038201805480602002602001604051908101604052809291908181526020016000905b8282101561189d5783829060005260206000209060080201604051806101000160405290816000820154815260200160018201805461173d90614c49565b80601f016020809104026020016040519081016040528092919081815260200182805461176990614c49565b80156117b65780601f1061178b576101008083540402835291602001916117b6565b820191906000526020600020905b81548152906001019060200180831161179957829003601f168201915b505050505081526020016002820180546117cf90614c49565b80601f01602080910402602001604051908101604052809291908181526020018280546117fb90614c49565b80156118485780601f1061181d57610100808354040283529160200191611848565b820191906000526020600020905b81548152906001019060200180831161182b57829003601f168201915b5050509183525050600382015460208083019190915260048301546040830152600583015460608301526006830154608083015260079092015460ff16151560a09091015290825260019290920191016116ff565b5050505081526020016004820154815260200160058201548152505081526020019060010190611611565b5050505081526020016003820154815250509050919050565b6000806118ee8484611fdc565b8051909150156110d6576001915050610bed565b600082815260016020526040812054900361195a5760405162461bcd60e51b815260206004820152601860248201527743617465676f727920646f6573206e6f742065786973747360401b604482015260640161098c565b6008546000036119a45760405162461bcd60e51b81526020600482015260156024820152744576656e7420646f6573206e6f742065786973747360581b604482015260640161098c565b6119af8282856133ab565b1515600114611a005760405162461bcd60e51b815260206004820152601a60248201527f43616e6469646174657320646f6573206e6f7420657869737473000000000000604482015260640161098c565b60015b6009548111611acb5760008181526004602052604090206001015485148015611a3c575060008181526004602052604090206002015483145b8015611a58575060008181526004602052604090206003015482145b15611ab9576000818152600460208190526040909120015460ff1615611ab45760405162461bcd60e51b8152602060048201526011602482015270165bdd48185b1c9958591e481d9bdd1959607a1b604482015260640161098c565b611acb565b80611ac381614c7d565b915050611a03565b50600160096000828254611adf9190614c1b565b90915550506040805160a081018252600954808252602080830188815283850187815260608501878152600160808701818152600096875260049586905297909520865181559251948301949094555160028201559151600383015592519201805460ff191692151592909217909155611b5884613d76565b611b63838386613da0565b6040805160208101859052808201849052815180820383018152606090910191829052908590611b94908390614dbf565b6040519081900381209088907fdd0629bf37ec3179d8b6727c2eb4d0f297cf08a85b960c1520666db55feb5b3990600090a4505050505050565b611bd6613fe2565b600083815260016020908152604080832060020180548251818502810185019093528083529192909190849084015b82821015611ebc57838290600052602060002090600602016040518060c001604052908160008201548152602001600182018054611c4290614c49565b80601f0160208091040260200160405190810160405280929190818152602001828054611c6e90614c49565b8015611cbb5780601f10611c9057610100808354040283529160200191611cbb565b820191906000526020600020905b815481529060010190602001808311611c9e57829003601f168201915b505050505081526020016002820154815260200160038201805480602002602001604051908101604052809291908181526020016000905b82821015611e9157838290600052602060002090600802016040518061010001604052908160008201548152602001600182018054611d3190614c49565b80601f0160208091040260200160405190810160405280929190818152602001828054611d5d90614c49565b8015611daa5780601f10611d7f57610100808354040283529160200191611daa565b820191906000526020600020905b815481529060010190602001808311611d8d57829003601f168201915b50505050508152602001600282018054611dc390614c49565b80601f0160208091040260200160405190810160405280929190818152602001828054611def90614c49565b8015611e3c5780601f10611e1157610100808354040283529160200191611e3c565b820191906000526020600020905b815481529060010190602001808311611e1f57829003601f168201915b5050509183525050600382015460208083019190915260048301546040830152600583015460608301526006830154608083015260079092015460ff16151560a0909101529082526001929092019101611cf3565b5050505081526020016004820154815260200160058201548152505081526020019060010190611c05565b505050509050606060005b8251811015611f275784838281518110611ee357611ee3614c33565b60200260200101516000015103611f1557828181518110611f0657611f06614c33565b60200260200101516060015191505b80611f1f81614c7d565b915050611ec7565b50600081600081518110611f3d57611f3d614c33565b6020026020010151905060005b60018351611f589190614ddb565b811015611fcb5782611f6b826001614c1b565b81518110611f7b57611f7b614c33565b602002602001015160c001518260c001511015611fb95782611f9e826001614c1b565b81518110611fae57611fae614c33565b602002602001015191505b80611fc381614c7d565b915050611f4a565b50600160e082015295945050505050565b61201f6040518060e00160405280600081526020016060815260200160608152602001600080191681526020016060815260200160008152602001606081525090565b6000826040516020016120329190614dbf565b60408051601f198184030181529190528051602090910120905060015b600a548111612350576000818152600560205260409081902090516120779160020190614c96565b604051809103902085805190602001201480156120ac57506000818152600560205260409020600301546120ac908390613eb0565b1561233e57600560008281526020019081526020016000206040518060e0016040529081600082015481526020016001820180546120e990614c49565b80601f016020809104026020016040519081016040528092919081815260200182805461211590614c49565b80156121625780601f1061213757610100808354040283529160200191612162565b820191906000526020600020905b81548152906001019060200180831161214557829003601f168201915b5050505050815260200160028201805461217b90614c49565b80601f01602080910402602001604051908101604052809291908181526020018280546121a790614c49565b80156121f45780601f106121c9576101008083540402835291602001916121f4565b820191906000526020600020905b8154815290600101906020018083116121d757829003601f168201915b505050505081526020016003820154815260200160048201805461221790614c49565b80601f016020809104026020016040519081016040528092919081815260200182805461224390614c49565b80156122905780601f1061226557610100808354040283529160200191612290565b820191906000526020600020905b81548152906001019060200180831161227357829003601f168201915b50505050508152602001600582015481526020016006820180546122b390614c49565b80601f01602080910402602001604051908101604052809291908181526020018280546122df90614c49565b801561232c5780601f106123015761010080835404028352916020019161232c565b820191906000526020600020905b81548152906001019060200180831161230f57829003601f168201915b50505050508152505092505050610bed565b8061234881614c7d565b91505061204f565b50506040805160e08101825260008082528251602080820185528282528084019190915283518082018552828152838501526060830182905283518082018552828152608084015260a083018290528351908101909352825260c08101919091529392505050565b606060006006546001600160401b038111156123d6576123d6614218565b60405190808252806020026020018201604052801561243257816020015b61241f6040518060800160405280600081526020016060815260200160608152602001600081525090565b8152602001906001900390816123f45790505b50905060015b600654811161281e576000818152600160208181526040928390208351608081019094528054845291820180549184019161247290614c49565b80601f016020809104026020016040519081016040528092919081815260200182805461249e90614c49565b80156124eb5780601f106124c0576101008083540402835291602001916124eb565b820191906000526020600020905b8154815290600101906020018083116124ce57829003601f168201915b5050505050815260200160028201805480602002602001604051908101604052809291908181526020016000905b828210156127d057838290600052602060002090600602016040518060c00160405290816000820154815260200160018201805461255690614c49565b80601f016020809104026020016040519081016040528092919081815260200182805461258290614c49565b80156125cf5780601f106125a4576101008083540402835291602001916125cf565b820191906000526020600020905b8154815290600101906020018083116125b257829003601f168201915b505050505081526020016002820154815260200160038201805480602002602001604051908101604052809291908181526020016000905b828210156127a55783829060005260206000209060080201604051806101000160405290816000820154815260200160018201805461264590614c49565b80601f016020809104026020016040519081016040528092919081815260200182805461267190614c49565b80156126be5780601f10612693576101008083540402835291602001916126be565b820191906000526020600020905b8154815290600101906020018083116126a157829003601f168201915b505050505081526020016002820180546126d790614c49565b80601f016020809104026020016040519081016040528092919081815260200182805461270390614c49565b80156127505780601f1061272557610100808354040283529160200191612750565b820191906000526020600020905b81548152906001019060200180831161273357829003601f168201915b5050509183525050600382015460208083019190915260048301546040830152600583015460608301526006830154608083015260079092015460ff16151560a0909101529082526001929092019101612607565b5050505081526020016004820154815260200160058201548152505081526020019060010190612519565b505050508152602001600382015481525050826001836127f09190614ddb565b8151811061280057612800614c33565b6020026020010181905250808061281690614c7d565b915050612438565b50919050565b61282c613f28565b600083815260016020818152604080842081516080810190925280548252928301805491939284019161285e90614c49565b80601f016020809104026020016040519081016040528092919081815260200182805461288a90614c49565b80156128d75780601f106128ac576101008083540402835291602001916128d7565b820191906000526020600020905b8154815290600101906020018083116128ba57829003601f168201915b5050505050815260200160028201805480602002602001604051908101604052809291908181526020016000905b82821015612bbc57838290600052602060002090600602016040518060c00160405290816000820154815260200160018201805461294290614c49565b80601f016020809104026020016040519081016040528092919081815260200182805461296e90614c49565b80156129bb5780601f10612990576101008083540402835291602001916129bb565b820191906000526020600020905b81548152906001019060200180831161299e57829003601f168201915b505050505081526020016002820154815260200160038201805480602002602001604051908101604052809291908181526020016000905b82821015612b9157838290600052602060002090600802016040518061010001604052908160008201548152602001600182018054612a3190614c49565b80601f0160208091040260200160405190810160405280929190818152602001828054612a5d90614c49565b8015612aaa5780601f10612a7f57610100808354040283529160200191612aaa565b820191906000526020600020905b815481529060010190602001808311612a8d57829003601f168201915b50505050508152602001600282018054612ac390614c49565b80601f0160208091040260200160405190810160405280929190818152602001828054612aef90614c49565b8015612b3c5780601f10612b1157610100808354040283529160200191612b3c565b820191906000526020600020905b815481529060010190602001808311612b1f57829003601f168201915b5050509183525050600382015460208083019190915260048301546040830152600583015460608301526006830154608083015260079092015460ff16151560a09091015290825260019290920191016129f3565b5050505081526020016004820154815260200160058201548152505081526020019060010190612905565b5050505081526020016003820154815250509050612bd8613f28565b60005b826040015151811015612c43578483604001518281518110612bff57612bff614c33565b60200260200101516000015103612c315782604001518181518110612c2657612c26614c33565b602002602001015191505b80612c3b81614c7d565b915050612bdb565b50949350505050565b6000858152600160205260408120549003612c795760405162461bcd60e51b815260040161098c90614df2565b612c838585611034565b1515600114612ccb5760405162461bcd60e51b81526020600482015260146024820152734576656e7420686173206e6f742065786973747360601b604482015260640161098c565b612cd685858361397b565b15612d175760405162461bcd60e51b815260206004820152601160248201527010d85b991a59185d1948195e1a5cdd1959607a1b604482015260640161098c565b600160076000828254612d2a9190614c1b565b9091555050604080516101008101825260075481526020808201869052818301859052606082018490526080820188905260a08201879052600060c0830181905260e08301819052888152600190915291822090915b6002820154811015612ec75786826002018281548110612da257612da2614c33565b90600052602060002090600602016000015403612eb557816002018181548110612dce57612dce614c33565b60009182526020808320600360069093020191909101805460018181018355918452928290208651600890940201928355858201518051879493612e16938501920190613f5e565b5060408201518051612e32916002840191602090910190613f5e565b50606082015160038201556080820151600482015560a0820151600582015560c0820151600682015560e0909101516007909101805460ff19169115159190911790556002820180546001919083908110612e8f57612e8f614c33565b90600052602060002090600602016004016000828254612eaf9190614c1b565b90915550505b80612ebf81614c7d565b915050612d80565b5050505050505050565b6001600090815260056020527f1471eb6eb2c5e789fc3de43f8ce62938c7d1836ec861730447e2ada8fd81017b548103612f455760405162461bcd60e51b81526020600482015260156024820152744e6f20766f74657220696e20746865206c6973742160581b604482015260640161098c565b60015b600a5481116111fc57600081815260056020526040908190209051612f709160060190614c96565b6040518091039020838051906020012003612fa35760009081526005602081905260409091206001910181905592915050565b80612fad81614c7d565b915050612f48565b80516000908152600160205260408120549003612fe45760405162461bcd60e51b815260040161098c90614df2565b80516000908152600160208181526040909220828401518051919361300e93850192910190613f5e565b50606090910151600390910155565b6000828152600160209081526040808320600201805482518185028101850190935280835260609493849084015b8282101561330257838290600052602060002090600602016040518060c00160405290816000820154815260200160018201805461308890614c49565b80601f01602080910402602001604051908101604052809291908181526020018280546130b490614c49565b80156131015780601f106130d657610100808354040283529160200191613101565b820191906000526020600020905b8154815290600101906020018083116130e457829003601f168201915b505050505081526020016002820154815260200160038201805480602002602001604051908101604052809291908181526020016000905b828210156132d75783829060005260206000209060080201604051806101000160405290816000820154815260200160018201805461317790614c49565b80601f01602080910402602001604051908101604052809291908181526020018280546131a390614c49565b80156131f05780601f106131c5576101008083540402835291602001916131f0565b820191906000526020600020905b8154815290600101906020018083116131d357829003601f168201915b5050505050815260200160028201805461320990614c49565b80601f016020809104026020016040519081016040528092919081815260200182805461323590614c49565b80156132825780601f1061325757610100808354040283529160200191613282565b820191906000526020600020905b81548152906001019060200180831161326557829003601f168201915b5050509183525050600382015460208083019190915260048301546040830152600583015460608301526006830154608083015260079092015460ff16151560a0909101529082526001929092019101613139565b505050508152602001600482015481526020016005820154815250508152602001906001019061304b565b50505050905060005b8151811015613371578382828151811061332757613327614c33565b6020026020010151600001510361335f5781818151811061334a5761334a614c33565b60200260200101516060015192505050610bed565b8061336981614c7d565b91505061330b565b506040805160008082526020820190925290612c43565b613390613fe2565b81526020019060019003908161338857905050949350505050565b60008381526001602052604081205481036133d85760405162461bcd60e51b815260040161098c90614d88565b60006133e48585611205565b905060005b8151811015613433578382828151811061340557613405614c33565b6020026020010151600001510361342157600192505050610cc9565b8061342b81614c7d565b9150506133e9565b50600095945050505050565b6040808201516000908152600160205290812054900361349c5760405162461bcd60e51b815260206004820152601860248201527743617465676f727920646f6573206e6f742065786973747360401b604482015260640161098c565b6134ae81604001518260000151611034565b6134f25760405162461bcd60e51b81526020600482015260156024820152744576656e7420646f6573206e6f742065786973742160581b604482015260640161098c565b600060016000836040015181526020019081526020016000206002016001836000015161351f9190614ddb565b8154811061352f5761352f614c33565b90600052602060002090600602019050816020015181600101908051906020019061355b929190613f5e565b5060a090910151600590910155565b6080810151600090815260016020526040812054900361359c5760405162461bcd60e51b815260040161098c90614df2565b6135ae81608001518260a00151611034565b15156001146135f65760405162461bcd60e51b81526020600482015260146024820152734576656e7420686173206e6f742065786973747360601b604482015260640161098c565b61360d81608001518260a00151836060015161397b565b151560011461365e5760405162461bcd60e51b815260206004820152601a60248201527f43616e64696461746520646f6573206e6f742065786973746564000000000000604482015260640161098c565b60808101516000908152600160208190526040822060a084015160029091019161368791614ddb565b8154811061369757613697614c33565b9060005260206000209060060201600301600183600001516136b99190614ddb565b815481106136c9576136c9614c33565b9060005260206000209060080201905081602001518160010190805190602001906136f5929190613f5e565b50606082015160038201556040820151805161371b916002840191602090910190613f5e565b505050565b6005602052600090815260409020805460018201805491929161374290614c49565b80601f016020809104026020016040519081016040528092919081815260200182805461376e90614c49565b80156137bb5780601f10613790576101008083540402835291602001916137bb565b820191906000526020600020905b81548152906001019060200180831161379e57829003601f168201915b5050505050908060020180546137d090614c49565b80601f01602080910402602001604051908101604052809291908181526020018280546137fc90614c49565b80156138495780601f1061381e57610100808354040283529160200191613849565b820191906000526020600020905b81548152906001019060200180831161382c57829003601f168201915b50505050509080600301549080600401805461386490614c49565b80601f016020809104026020016040519081016040528092919081815260200182805461389090614c49565b80156138dd5780601f106138b2576101008083540402835291602001916138dd565b820191906000526020600020905b8154815290600101906020018083116138c057829003601f168201915b5050505050908060050154908060060180546138f890614c49565b80601f016020809104026020016040519081016040528092919081815260200182805461392490614c49565b80156139715780601f1061394657610100808354040283529160200191613971565b820191906000526020600020905b81548152906001019060200180831161395457829003601f168201915b5050505050905087565b60008381526001602052604081205481036139a85760405162461bcd60e51b815260040161098c90614d88565b60006139b48585611205565b905060005b815181101561343357838282815181106139d5576139d5614c33565b602002602001015160600151036139f157600192505050610cc9565b806139fb81614c7d565b9150506139b9565b613a0c8261119f565b613a4f5760405162461bcd60e51b81526020600482015260146024820152735573657220646f6573206e6f742065786973747360601b604482015260640161098c565b600081604051602001613a629190614dbf565b60408051601f198184030181529190528051602090910120905060015b600a548111613ae357600081815260056020526040908190209051613aa79160010190614c96565b6040518091039020848051906020012003613ad15760008181526005602052604090206003018290555b80613adb81614c7d565b915050613a7f565b50505050565b60015b600a548111613b7a57600081815260056020526040908190209051613b149160010190614c96565b6040518091039020868051906020012003613b685760405162461bcd60e51b8152602060048201526014602482015273566f74657220616c72656164792065786973747360601b604482015260640161098c565b80613b7281614c7d565b915050613aec565b506001600a6000828254613b8e9190614c1b565b9091555050604051600090613ba7908590602001614dbf565b60408051601f198184030181529181528151602092830120600a546000818152600585529290922091825588519093509091613bea9160018401918a0190613f5e565b508551613c009060028301906020890190613f5e565b50600381018290558351613c1d9060048301906020870190613f5e565b50600060058201558251613c3a9060068301906020860190613f5e565b50600a547f56729c826fe77eec184059336ced13d9ef79d10126212c90a4d2b724391e14e288604051613c6d9190614d31565b60405180910390a250505050505050565b6000828152600160205260408120549003613cab5760405162461bcd60e51b815260040161098c90614df2565b613cb582826110e0565b15613cf95760405162461bcd60e51b81526020600482015260146024820152734576656e7420616c72656164792065786973747360601b604482015260640161098c565b6000828152600160208190526040822060088054919392918390613d1e908490614c1b565b9182905550600284018054600181810183556000928352602092839020600690920290910183815587519395509350613d5d9290840191870190613f5e565b5060028101949094555050600160059092019190915550565b6000818152600360205260408120600601805460019290613d98908490614c1b565b909155505050565b6000838152600160205260408120600201905b8154811015613ea95783828281548110613dcf57613dcf614c33565b90600052602060002090600602016000015403613e97576000828281548110613dfa57613dfa614c33565b9060005260206000209060060201600301905060005b8154811015613e945784828281548110613e2c57613e2c614c33565b90600052602060002090600802016000015403613e82576001828281548110613e5757613e57614c33565b90600052602060002090600802016006016000828254613e779190614c1b565b90915550613e949050565b80613e8c81614c7d565b915050613e10565b50505b80613ea181614c7d565b915050613db3565b5050505050565b6000805b6020811015613f1e57828160208110613ecf57613ecf614c33565b1a60f81b6001600160f81b031916848260208110613eef57613eef614c33565b1a60f81b6001600160f81b03191614613f0c576000915050610bed565b80613f1681614c7d565b915050613eb4565b5060019392505050565b6040518060c001604052806000815260200160608152602001600081526020016060815260200160008152602001600081525090565b828054613f6a90614c49565b90600052602060002090601f016020900481019282613f8c5760008555613fd2565b82601f10613fa557805160ff1916838001178555613fd2565b82800160010185558215613fd2579182015b82811115613fd2578251825591602001919060010190613fb7565b50613fde929150614029565b5090565b604051806101000160405280600081526020016060815260200160608152602001600081526020016000815260200160008152602001600081526020016000151581525090565b5b80821115613fde576000815560010161402a565b60005b83811015614059578181015183820152602001614041565b83811115613ae35750506000910152565b6000815180845261408281602086016020860161403e565b601f01601f19169290920160200192915050565b60006101008251845260208301518160208601526140b68286018261406a565b915050604083015184820360408601526140d0828261406a565b915050606083015160608501526080830151608085015260a083015160a085015260c083015160c085015260e0830151151560e08501528091505092915050565b80518252600060208083015160c08286015261413060c086018261406a565b905060408401516040860152606084015185820360608701528181518084528484019150848160051b850101858401935060005b8281101561419257601f19868303018452614180828651614096565b94870194938701939150600101614164565b50608088015160808a015260a088015160a08a015280965050505050505092915050565b6000602080830181845280855180835260408601915060408160051b870101925083870160005b8281101561420b57603f198886030184526141f9858351614111565b945092850192908501906001016141dd565b5092979650505050505050565b634e487b7160e01b600052604160045260246000fd5b60405161010081016001600160401b038111828210171561425157614251614218565b60405290565b60405160c081016001600160401b038111828210171561425157614251614218565b604051608081016001600160401b038111828210171561425157614251614218565b604051601f8201601f191681016001600160401b03811182821017156142c3576142c3614218565b604052919050565b600082601f8301126142dc57600080fd5b81356001600160401b038111156142f5576142f5614218565b614308601f8201601f191660200161429b565b81815284602083860101111561431d57600080fd5b816020850160208301376000918101602001919091529392505050565b60006020828403121561434c57600080fd5b81356001600160401b0381111561436257600080fd5b61436e848285016142cb565b949350505050565b6000602080830181845280855180835260408601915060408160051b870101925083870160005b8281101561420b57603f198886030184526143b9858351614096565b9450928501929085019060010161439d565b600080604083850312156143de57600080fd5b82356001600160401b03808211156143f557600080fd5b614401868387016142cb565b9350602085013591508082111561441757600080fd5b50614424858286016142cb565b9150509250929050565b60208152815160208201526000602083015160e0604084015261445561010084018261406a565b90506040840151601f1980858403016060860152614473838361406a565b92506060860151608086015260808601519150808584030160a086015261449a838361406a565b925060a086015160c086015260c08601519150808584030160e0860152506144c2828261406a565b95945050505050565b6000602082840312156144dd57600080fd5b5035919050565b600080604083850312156144f757600080fd5b50508035926020909101359150565b6000806040838503121561451957600080fd5b8235915060208301356001600160401b0381111561453657600080fd5b614424858286016142cb565b805182526000602080830151608082860152614561608086018261406a565b9050604084015185820360408701528181518084528484019150848160051b850101858401935060005b828110156145b957601f198683030184526145a7828651614111565b9487019493870193915060010161458b565b50606088015160608a015280965050505050505092915050565b602081526000610cc96020830184614542565b600080600080608085870312156145fc57600080fd5b5050823594602084013594506040840135936060013592509050565b602081526000610cc96020830184614096565b6000602080830181845280855180835260408601915060408160051b870101925083870160005b8281101561420b57603f1988860301845261466e858351614542565b94509285019290850190600101614652565b602081526000610cc96020830184614111565b600080600080600060a086880312156146ab57600080fd5b853594506020860135935060408601356001600160401b03808211156146d057600080fd5b6146dc89838a016142cb565b945060608801359150808211156146f257600080fd5b506146ff888289016142cb565b95989497509295608001359392505050565b60006001600160401b0382111561472a5761472a614218565b5060051b60200190565b8035801515811461474457600080fd5b919050565b6000610100828403121561475c57600080fd5b61476461422e565b90508135815260208201356001600160401b038082111561478457600080fd5b614790858386016142cb565b602084015260408401359150808211156147a957600080fd5b506147b6848285016142cb565b604083015250606082013560608201526080820135608082015260a082013560a082015260c082013560c08201526147f060e08301614734565b60e082015292915050565b600082601f83011261480c57600080fd5b8135602061482161481c83614711565b61429b565b82815260059290921b8401810191818101908684111561484057600080fd5b8286015b8481101561487f5780356001600160401b038111156148635760008081fd5b6148718986838b0101614749565b845250918301918301614844565b509695505050505050565b600060c0828403121561489c57600080fd5b6148a4614257565b90508135815260208201356001600160401b03808211156148c457600080fd5b6148d0858386016142cb565b60208401526040840135604084015260608401359150808211156148f357600080fd5b50614900848285016147fb565b6060830152506080820135608082015260a082013560a082015292915050565b6000602080838503121561493357600080fd5b82356001600160401b038082111561494a57600080fd5b908401906080828703121561495e57600080fd5b614966614279565b82358152838301358281111561497b57600080fd5b614987888286016142cb565b858301525060408301358281111561499e57600080fd5b8301601f810188136149af57600080fd5b80356149bd61481c82614711565b81815260059190911b8201860190868101908a8311156149dc57600080fd5b8784015b83811015614a14578035878111156149f85760008081fd5b614a068d8b8389010161488a565b8452509188019188016149e0565b5060408501525050506060928301359281019290925250949350505050565b600080600060608486031215614a4857600080fd5b505081359360208301359350604090920135919050565b600060208284031215614a7157600080fd5b81356001600160401b03811115614a8757600080fd5b61436e8482850161488a565b600060208284031215614aa557600080fd5b81356001600160401b03811115614abb57600080fd5b61436e84828501614749565b87815260e060208201526000614ae060e083018961406a565b8281036040840152614af2818961406a565b90508660608401528281036080840152614b0c818761406a565b90508460a084015282810360c0840152614b26818561406a565b9a9950505050505050505050565b600080600080600060a08688031215614b4c57600080fd5b85356001600160401b0380821115614b6357600080fd5b614b6f89838a016142cb565b96506020880135915080821115614b8557600080fd5b614b9189838a016142cb565b95506040880135915080821115614ba757600080fd5b614bb389838a016142cb565b94506060880135915080821115614bc957600080fd5b614bd589838a016142cb565b93506080880135915080821115614beb57600080fd5b50614bf8888289016142cb565b9150509295509295909350565b634e487b7160e01b600052601160045260246000fd5b60008219821115614c2e57614c2e614c05565b500190565b634e487b7160e01b600052603260045260246000fd5b600181811c90821680614c5d57607f821691505b60208210810361281e57634e487b7160e01b600052602260045260246000fd5b600060018201614c8f57614c8f614c05565b5060010190565b600080835481600182811c915080831680614cb257607f831692505b60208084108203614cd157634e487b7160e01b86526022600452602486fd5b818015614ce55760018114614cf657614d23565b60ff19861689528489019650614d23565b60008a81526020902060005b86811015614d1b5781548b820152908501908301614d02565b505084890196505b509498975050505050505050565b602081526000610cc9602083018461406a565b60208082526024908201527f596f757220656d61696c206f722070617373776f726420697320696e636f72726040820152636563742160e01b606082015260800190565b60208082526017908201527f43617465676f727920646f6573206e6f74206578697374000000000000000000604082015260600190565b60008251614dd181846020870161403e565b9190910192915050565b600082821015614ded57614ded614c05565b500390565b60208082526017908201527f43617465676f727920686173206e6f742065786973747300000000000000000060408201526060019056fea26469706673582212203edec433d88d86c03b0d272bb30f23146cdf162f4a4a18abb11e9be616c5022b64736f6c634300080d0033",
  "immutableReferences": {},
  "source": "// SPDX-License-Identifier: MIT\npragma solidity >=0.4.22 <0.9.0;\n\ncontract VotingSystem {\n    address public owner;\n    struct Voter {\n        uint256 id;\n        string key;\n        string email;\n        bytes32 password;\n        string role;\n        uint256 status; // 0: no verify, 1: verified, 2:banned\n        string token;\n    }\n\n    struct Event {\n        uint256 eventId;\n        string eventName;\n        uint256 categoryId;\n        Candidate[] candidates;\n        uint256 candidateCount;\n        uint256 status; // 1: Upcoming, 2: In Progress, 3: Completed, 4 Cancel\n    }\n\n    struct Category {\n        uint256 categoryId;\n        string categoryName;\n        Event[] events; //category has many event\n        uint256 status;\n    }\n\n    struct Candidate {\n        uint256 id;\n        string name;\n        string description;\n        uint256 studentId;\n        uint256 categoryId;\n        uint256 eventId;\n        uint256 voteCount;\n        bool win;\n    }\n\n    struct voteEventStruct {\n        uint256 id;\n        uint256 voterId;\n        uint256 categoryId;\n        uint256 eventId;\n        bool voted;\n    }\n\n    event CategoryAdded(uint256 indexed categoryId, string categoryName);\n\n    event VoterAdded(uint256 indexed voterId, string voter_key);\n    event EventAdded(uint256 indexed eventId, string eventName);\n\n    event CandidateAdded(uint256 indexed eventId, string eventName);\n\n    event VoteEvent(\n        uint256 indexed voterId,\n        string indexed categoryEvent,\n        uint256 indexed candidate\n    );\n\n    mapping(uint256 => Category) categories;\n    mapping(uint256 => Event) events;\n    mapping(uint256 => Candidate) candidates;\n    mapping(uint256 => voteEventStruct) public voteEvents;\n    mapping(uint256 => Voter) public voters;\n\n    uint256 categoryCount;\n    uint256 candidateCount;\n    uint256 eventCount;\n    uint256 voteEventCount;\n    uint256 voterCount;\n\n    constructor() {\n        owner = msg.sender;\n    }\n\n    function addVoter(\n        string memory _key,\n        string memory _email,\n        string memory _password,\n        string memory _role,\n        string memory _token\n    ) public {\n        for (uint256 i = 1; i <= voterCount; i++) {\n            require(\n                keccak256(bytes(_key)) != keccak256(bytes(voters[i].key)),\n                \"Voter already exists\"\n            );\n        }\n\n        // total category plus 1, use it as the category's id\n        voterCount += 1;\n\n        bytes32 hashedPassword = keccak256(abi.encodePacked(_password));\n\n        // add the category details in the category list\n        Voter storage voter = voters[voterCount];\n        voter.id = voterCount;\n        voter.key = _key;\n        voter.email = _email;\n        voter.password = hashedPassword;\n        voter.role = _role;\n        voter.status = 0;\n        voter.token = _token;\n\n        // emit the category added event\n        emit VoterAdded(voterCount, _key);\n    }\n\n    function loginVoter(string memory _email, string memory _password)\n        public\n        view\n        returns (Voter memory)\n    {\n        Voter memory voterFound = getVoterByEmailPassword(_email, _password);\n        require(voterFound.id != 0, \"Your email or password is incorrect!\");\n        require(\n            voterFound.status == 1,\n            \"Your account was banned or not verify!\"\n        );\n        return voterFound;\n    }\n\n    function compareHashesPassword(bytes32 inputPassword, bytes32 password)\n        internal\n        pure\n        returns (bool)\n    {\n        for (uint256 i = 0; i < 32; i++) {\n            if (inputPassword[i] != password[i]) {\n                return false;\n            }\n        }\n        return true;\n    }\n\n    function getVoterByEmailPassword(\n        string memory _email,\n        string memory _password\n    ) public view returns (Voter memory) {\n        bytes32 hashedPassword = keccak256(abi.encodePacked(_password));\n        for (uint256 i = 1; i <= voterCount; i++) {\n            if (\n                keccak256(bytes(_email)) == keccak256(bytes(voters[i].email)) &&\n                compareHashesPassword(hashedPassword, voters[i].password)\n            ) {\n                return voters[i];\n            }\n        }\n\n        // Event not found in the specified category\n        return Voter(0, \"\", \"\", \"\", \"\", 0, \"\");\n    }\n\n    function updateVoterPassword(string memory _key, string memory _password)\n        public\n    {\n        require(isVoterExist(_key), \"User does not exists\");\n\n        bytes32 hashedPassword = keccak256(abi.encodePacked(_password));\n        for (uint256 i = 1; i <= voterCount; i++) {\n            if (keccak256(bytes(_key)) == keccak256(bytes(voters[i].key))) {\n                voters[i].password = hashedPassword;\n            }\n        }\n    }\n\n    function verifyVoterAccount(string memory _token) public returns (bool) {\n        require(voters[1].id != 0, \"No voter in the list!\");\n        for (uint256 i = 1; i <= voterCount; i++) {\n            if (keccak256(bytes(_token)) == keccak256(bytes(voters[i].token))) {\n                voters[i].status = 1;\n                return true;\n            }\n        }\n        return false;\n    }\n\n    function getVoterStatus(string memory _email, string memory _password)\n        public\n        view\n        returns (uint256 status)\n    {\n        Voter memory voterFound = getVoterByEmailPassword(_email, _password);\n        require(voterFound.id != 0, \"Your email or password is incorrect!\");\n        return voterFound.status;\n    }\n\n    function checkVoterEmailPassword(\n        string memory _email,\n        string memory _password\n    ) public view returns (bool foundVoter) {\n        Voter memory voterFound = getVoterByEmailPassword(_email, _password);\n\n        if (voterFound.id != 0) {\n            return true;\n        }\n        return false;\n    }\n\n    function isVoterExist(string memory _key) public view returns (bool) {\n        for (uint256 i = 1; i <= voterCount; i++) {\n            if (keccak256(bytes(_key)) == keccak256(bytes(voters[i].key))) {\n                return true;\n            }\n        }\n        return false;\n    }\n\n    function addCategory(string memory _categoryName) public {\n        // check if the category is exist\n        for (uint256 i = 1; i <= categoryCount; i++) {\n            require(\n                keccak256(bytes(_categoryName)) !=\n                    keccak256(bytes(categories[i].categoryName)),\n                \"Category already exists\"\n            );\n        }\n\n        // total category plus 1, use it as the category's id\n        categoryCount += 1;\n\n        // add the category details in the category list\n        Category storage category = categories[categoryCount];\n        category.categoryName = _categoryName;\n        category.categoryId = categoryCount;\n        category.status = 1;\n\n        // emit the category added event\n        emit CategoryAdded(categoryCount, _categoryName);\n    }\n\n    function updateCategory(Category memory _category) public {\n        // check if the category is exist\n        require(\n            categories[_category.categoryId].categoryId != 0,\n            \"Category has not exists\"\n        );\n\n        // add the category details in the category list\n        Category storage category = categories[_category.categoryId];\n        category.categoryName = _category.categoryName;\n        category.status = _category.status;\n    }\n\n    function addEvent(uint256 _categoryId, string memory _eventName) public {\n        // check if the category has exists\n        require(\n            categories[_categoryId].categoryId != 0,\n            \"Category has not exists\"\n        );\n\n        require(\n            isEventExists(_categoryId, _eventName) == false,\n            \"Event already exists\"\n        );\n\n        // find out the category in list by using the paramerter category name\n        Category storage category = categories[_categoryId];\n\n        // add the event in the category list\n        uint256 eventId = eventCount += 1;\n\n        Event storage newEvent = category.events.push();\n        newEvent.eventId = eventId;\n        newEvent.eventName = _eventName;\n        newEvent.categoryId = _categoryId;\n        newEvent.status = 1;\n    }\n\n    function isEventExists(uint256 _categoryId, string memory _eventName)\n        public\n        view\n        returns (bool)\n    {\n        // Check if the category exists\n        require(\n            categories[_categoryId].categoryId != 0,\n            \"Category does not exist\"\n        );\n\n        // Loop through the events in the specified category\n        for (uint256 i = 0; i < categories[_categoryId].events.length; i++) {\n            if (\n                keccak256(bytes(categories[_categoryId].events[i].eventName)) ==\n                keccak256(bytes(_eventName))\n            ) {\n                // Event found\n                return true;\n            }\n        }\n\n        // Event not found in the specified category\n        return false;\n    }\n\n    function updateEvent(Event memory _event) public {\n        // check if the category is exist\n        require(\n            categories[_event.categoryId].categoryId != 0,\n            \"Category does not exists\"\n        );\n        require(\n            isEventExists(_event.categoryId, _event.eventId),\n            \"Event does not exist!\"\n        );\n        // add the category details in the category list\n        Event storage eventToUpdate = categories[_event.categoryId].events[\n            _event.eventId - 1\n        ];\n\n        eventToUpdate.eventName = _event.eventName;\n        eventToUpdate.status = _event.status;\n    }\n\n    function addCandidateToEvent(\n        uint256 _categoryId,\n        uint256 _eventId,\n        string memory _candidateName,\n        string memory _description,\n        uint256 _studentId\n    ) public {\n        require(\n            categories[_categoryId].categoryId != 0,\n            \"Category has not exists\"\n        );\n\n        require(\n            isEventExists(_categoryId, _eventId) == true,\n            \"Event has not exists\"\n        );\n\n        require(\n            isCandidateExistsInEvent(_categoryId, _eventId, _studentId) ==\n                false,\n            \"Candidate existed\"\n        );\n\n        candidateCount += 1;\n\n        // Create a new candidate\n        Candidate memory newCandidate = Candidate({\n            id: candidateCount,\n            name: _candidateName,\n            studentId: _studentId,\n            categoryId: _categoryId,\n            eventId: _eventId,\n            description: _description,\n            win: false,\n            voteCount: 0\n        });\n\n        // find the certain category\n        Category storage category = categories[_categoryId];\n        // find the certain event in certain category\n        for (uint256 i = 0; i < category.events.length; i++) {\n            if (category.events[i].eventId == _eventId) {\n                category.events[i].candidates.push(newCandidate);\n                category.events[i].candidateCount += 1;\n            }\n        }\n    }\n\n    function updateCandidate(Candidate memory _candidate) public {\n        require(\n            categories[_candidate.categoryId].categoryId != 0,\n            \"Category has not exists\"\n        );\n\n        require(\n            isEventExists(_candidate.categoryId, _candidate.eventId) == true,\n            \"Event has not exists\"\n        );\n\n        require(\n            isCandidateExistsInEvent(\n                _candidate.categoryId,\n                _candidate.eventId,\n                _candidate.studentId\n            ) == true,\n            \"Candidate does not existed\"\n        );\n\n        Candidate storage candidateToUpdate = categories[_candidate.categoryId]\n            .events[_candidate.eventId - 1]\n            .candidates[_candidate.id - 1];\n\n        candidateToUpdate.name = _candidate.name;\n        candidateToUpdate.studentId = _candidate.studentId;\n        candidateToUpdate.description = _candidate.description;\n    }\n\n    function isCandidateExistsInEvent(\n        uint256 _categoryId,\n        uint256 _eventId,\n        uint256 _studentId\n    ) public view returns (bool) {\n        // Check if the category exists\n        require(\n            categories[_categoryId].categoryId != 0,\n            \"Category does not exist\"\n        );\n\n        Candidate[] memory candidatesFound = getAllCandidatesInEvent(\n            _categoryId,\n            _eventId\n        );\n\n        // Loop through the events in the specified category\n\n        for (uint256 i = 0; i < candidatesFound.length; i++) {\n            if (candidatesFound[i].studentId == _studentId) {\n                return true;\n            }\n        }\n\n        // Event not found in the specified category\n        return false;\n    }\n\n    function isCandidateExistsInEventById(\n        uint256 _categoryId,\n        uint256 _eventId,\n        uint256 _candidateId\n    ) public view returns (bool) {\n        // Check if the category exists\n        require(\n            categories[_categoryId].categoryId != 0,\n            \"Category does not exist\"\n        );\n\n        Candidate[] memory candidatesFound = getAllCandidatesInEvent(\n            _categoryId,\n            _eventId\n        );\n\n        // Loop through the events in the specified category\n\n        for (uint256 i = 0; i < candidatesFound.length; i++) {\n            if (candidatesFound[i].id == _candidateId) {\n                return true;\n            }\n        }\n\n        // Event not found in the specified category\n        return false;\n    }\n\n    function isEventExists(uint256 _categoryId, uint256 _eventId)\n        public\n        view\n        returns (bool)\n    {\n        // Check if the category exists\n        require(\n            categories[_categoryId].categoryId != 0,\n            \"Category does not exist\"\n        );\n\n        // Loop through the events in the specified category\n        for (uint256 i = 0; i < categories[_categoryId].events.length; i++) {\n            if (categories[_categoryId].events[i].eventId == _eventId) {\n                // Event found\n                return true;\n            }\n        }\n\n        // Event not found in the specified category\n        return false;\n    }\n\n    function getAllCategoryEvent(uint256 _categoryId)\n        public\n        view\n        returns (Event[] memory foundEvent)\n    {\n        // find the certain category\n        Category storage category = categories[_categoryId];\n\n        // declare an array variable for storing events\n        Event[] memory eventsFound = new Event[](category.events.length);\n\n        // get all the event name by searching the event in list\n        for (uint256 i = 0; i < category.events.length; i++) {\n            eventsFound[i] = category.events[i];\n        }\n\n        return (eventsFound);\n    }\n\n    function getAllCandidatesInEvent(uint256 _categoryId, uint256 _eventId)\n        public\n        view\n        returns (Candidate[] memory foundCandidates)\n    {\n        // find the certain category\n        Category storage category = categories[_categoryId];\n        // find the certain event in certain category\n        for (uint256 i = 0; i < category.events.length; i++) {\n            if (category.events[i].eventId == _eventId) {\n                Candidate[] memory candidatesFound = new Candidate[](\n                    category.events[i].candidateCount\n                );\n\n                for (\n                    uint256 j = 0;\n                    j < category.events[i].candidates.length;\n                    j++\n                ) {\n                    candidatesFound[j] = category.events[i].candidates[j];\n                }\n                return (candidatesFound);\n            }\n        }\n    }\n\n    function getAllCandidates() public view returns (Candidate[] memory) {\n        Candidate[] memory candidatesFound = new Candidate[](candidateCount);\n        Event[] memory eventFound = new Event[](eventCount);\n\n        // get all the events\n        eventFound = getAllEvent();\n        uint256 count = 0;\n        // find the candidates inside all the event\n        for (uint256 i = 0; i < eventCount; i++) {\n            for (uint256 j = 0; j < eventFound[i].candidates.length; j++) {\n                candidatesFound[count] = eventFound[i].candidates[j];\n                count += 1;\n            }\n        }\n\n        return candidatesFound;\n    }\n\n    function getAllCategory() public view returns (Category[] memory) {\n        //Candidate[] memory candidatesFound = new Candidate[](candidateCount);\n        Category[] memory categoriesFound = new Category[](categoryCount);\n        // Iterate through all stored structs\n        for (uint256 i = 1; i <= categoryCount; i++) {\n            categoriesFound[i - 1] = categories[i];\n        }\n\n        return categoriesFound;\n    }\n\n    function getCategoryById(uint256 _categoryId)\n        public\n        view\n        returns (Category memory)\n    {\n        return categories[_categoryId];\n    }\n\n    function getAllEvent() public view returns (Event[] memory) {\n        // Initialize the array with the correct size\n        Event[] memory eventFound = new Event[](eventCount);\n        uint256 count = 0;\n\n        // Iterate through all categories and events\n        for (uint256 i = 0; i < categoryCount; i++) {\n            for (uint256 j = 0; j < categories[i + 1].events.length; j++) {\n                eventFound[count] = categories[i + 1].events[j];\n                count += 1;\n            }\n        }\n\n        return eventFound;\n    }\n\n    function getEventById(uint256 _categoryId, uint256 _eventId)\n        public\n        view\n        returns (Event memory)\n    {\n        Category memory categoriesFound = categories[_categoryId];\n        Event memory eventFound;\n        // Iterate through all stored structs\n        for (uint256 i = 0; i < categoriesFound.events.length; i++) {\n            if (categoriesFound.events[i].eventId == _eventId) {\n                eventFound = categoriesFound.events[i];\n            }\n        }\n\n        return eventFound;\n    }\n\n    function vote(\n        uint256 _voterId,\n        uint256 _candidateId,\n        uint256 _categoryId,\n        uint256 _eventId\n    ) external {\n        require(\n            categories[_categoryId].categoryId != 0,\n            \"Category does not exists\"\n        );\n\n        require(eventCount != 0, \"Event does not exists\");\n\n        // for (uint256 i = 1; i <= categories[_categoryId].events.length; i++) {\n        //     require(categories[_categoryId].events[i-0].eventId == _eventId, \"noobbbbb\");\n        // }\n\n        require(\n            isCandidateExistsInEventById(_categoryId, _eventId, _candidateId) ==\n                true,\n            \"Candidates does not exists\"\n        );\n\n        // check if has voted\n        for (uint256 i = 1; i <= voteEventCount; i++) {\n            if (\n                _voterId == voteEvents[i].voterId &&\n                _categoryId == voteEvents[i].categoryId &&\n                _eventId == voteEvents[i].eventId\n            ) {\n                require(!voteEvents[i].voted, \"You already voted\");\n                break;\n            }\n        }\n\n        // add count on the candidate\n        voteEventCount += 1;\n\n        // Create a new voteEventStruct\n        voteEventStruct memory newVoteEvent = voteEventStruct({\n            id: voteEventCount,\n            voterId: _voterId,\n            categoryId: _categoryId,\n            eventId: _eventId,\n            voted: true\n        });\n\n        voteEvents[voteEventCount] = newVoteEvent;\n\n        // add the vote count of the chosen candidate\n        addVoteCount(_candidateId);\n        addVoteCountIn(_categoryId, _eventId, _candidateId);\n\n        string memory concatenatedValues = string(\n            abi.encodePacked(_categoryId, _eventId)\n        );\n\n        emit VoteEvent(_voterId, concatenatedValues, _candidateId);\n    }\n\n    function addVoteCount(uint256 _candidateId) internal {\n        candidates[_candidateId].voteCount += 1;\n    }\n\n    function addVoteCountIn(\n        uint256 _categoryId,\n        uint256 _eventId,\n        uint256 _candidateId\n    ) internal {\n        // get the events inside the categories\n        Event[] storage eventsFound = categories[_categoryId].events;\n\n        // find the event with param\n        for (uint256 i = 0; i < eventsFound.length; i++) {\n            if (eventsFound[i].eventId == _eventId) {\n                // get the candidate inside the event\n                Candidate[] storage candidatesFound = eventsFound[i].candidates;\n                // find the candidate\n                for (uint256 j = 0; j < candidatesFound.length; j++) {\n                    if (candidatesFound[j].id == _candidateId) {\n                        // found the candidate and plus 1 at the voteCount\n                        candidatesFound[j].voteCount += 1;\n                        break;\n                    }\n                }\n            }\n        }\n    }\n\n    function getCandidateVoteCount(uint256 _candidateId)\n        public\n        view\n        returns (uint256 count)\n    {\n        return candidates[_candidateId].voteCount;\n    }\n\n    function getVoteEventCandidate(uint256 _categoryId, uint256 _eventId)\n        public\n        view\n        returns (Candidate[] memory)\n    {\n        Event[] memory eventsFound = categories[_categoryId].events;\n\n        for (uint256 i = 0; i < eventsFound.length; i++) {\n            if (eventsFound[i].eventId == _eventId) {\n                return eventsFound[i].candidates;\n            }\n        }\n\n        // If the event is not found, return an empty array or handle the situation accordingly\n        return new Candidate[](0);\n    }\n\n    function whoIsTheWinner(uint256 _categoryId, uint256 _eventId)\n        public\n        view\n        returns (Candidate memory)\n    {\n        Event[] memory eventsFound = categories[_categoryId].events;\n        Candidate[] memory candidatesFound;\n\n        for (uint256 i = 0; i < eventsFound.length; i++) {\n            if (eventsFound[i].eventId == _eventId) {\n                candidatesFound = eventsFound[i].candidates;\n            }\n        }\n\n        Candidate memory winner = candidatesFound[0];\n\n        for (uint256 i = 0; i < candidatesFound.length - 1; i++) {\n            if (winner.voteCount < candidatesFound[i + 1].voteCount) {\n                winner = candidatesFound[i + 1];\n            }\n        }\n\n        winner.win = true;\n\n        // If the event is not found, return an empty array or handle the situation accordingly\n        return winner;\n    }\n}\n",
  "sourcePath": "C:\\xampp\\htdocs\\Online-Voting-System-Blockchain\\contracts\\VotingSystem.sol",
  "compiler": {
    "name": "solc",
    "version": "0.8.13+commit.abaa5c0e.Emscripten.clang"
  },
  "schemaVersion": "3.4.16",
  "updatedAt": "2023-12-07T07:29:54.963Z",
  "networkType": "ethereum",
  "devdoc": {
    "kind": "dev",
    "methods": {},
    "version": 1
  },
  "userdoc": {
    "kind": "user",
    "methods": {},
    "version": 1
  }
}