{
  "contractName": "VotingSystem",
  "abi": [
    {
      "inputs": [],
      "stateMutability": "nonpayable",
      "type": "constructor"
    },
    {
      "anonymous": false,
      "inputs": [
        {
          "indexed": true,
          "internalType": "uint256",
          "name": "eventId",
          "type": "uint256"
        },
        {
          "indexed": false,
          "internalType": "string",
          "name": "eventName",
          "type": "string"
        }
      ],
      "name": "CandidateAdded",
      "type": "event"
    },
    {
      "anonymous": false,
      "inputs": [
        {
          "indexed": true,
          "internalType": "uint256",
          "name": "categoryId",
          "type": "uint256"
        },
        {
          "indexed": false,
          "internalType": "string",
          "name": "categoryName",
          "type": "string"
        }
      ],
      "name": "CategoryAdded",
      "type": "event"
    },
    {
      "anonymous": false,
      "inputs": [
        {
          "indexed": true,
          "internalType": "uint256",
          "name": "eventId",
          "type": "uint256"
        },
        {
          "indexed": false,
          "internalType": "string",
          "name": "eventName",
          "type": "string"
        }
      ],
      "name": "EventAdded",
      "type": "event"
    },
    {
      "anonymous": false,
      "inputs": [
        {
          "indexed": true,
          "internalType": "string",
          "name": "_voterKey",
          "type": "string"
        },
        {
          "indexed": true,
          "internalType": "string",
          "name": "categoryEvent",
          "type": "string"
        },
        {
          "indexed": true,
          "internalType": "uint256",
          "name": "candidate",
          "type": "uint256"
        }
      ],
      "name": "VoteEvent",
      "type": "event"
    },
    {
      "anonymous": false,
      "inputs": [
        {
          "indexed": true,
          "internalType": "uint256",
          "name": "voterId",
          "type": "uint256"
        },
        {
          "indexed": false,
          "internalType": "string",
          "name": "voter_key",
          "type": "string"
        }
      ],
      "name": "VoterAdded",
      "type": "event"
    },
    {
      "inputs": [],
      "name": "owner",
      "outputs": [
        {
          "internalType": "address",
          "name": "",
          "type": "address"
        }
      ],
      "stateMutability": "view",
      "type": "function",
      "constant": true
    },
    {
      "inputs": [
        {
          "internalType": "uint256",
          "name": "",
          "type": "uint256"
        }
      ],
      "name": "voteEvents",
      "outputs": [
        {
          "internalType": "uint256",
          "name": "id",
          "type": "uint256"
        },
        {
          "internalType": "string",
          "name": "voterKey",
          "type": "string"
        },
        {
          "internalType": "uint256",
          "name": "categoryId",
          "type": "uint256"
        },
        {
          "internalType": "uint256",
          "name": "eventId",
          "type": "uint256"
        },
        {
          "internalType": "uint256",
          "name": "votedCandidateId",
          "type": "uint256"
        },
        {
          "internalType": "bool",
          "name": "voted",
          "type": "bool"
        }
      ],
      "stateMutability": "view",
      "type": "function",
      "constant": true
    },
    {
      "inputs": [
        {
          "internalType": "uint256",
          "name": "",
          "type": "uint256"
        }
      ],
      "name": "voters",
      "outputs": [
        {
          "internalType": "uint256",
          "name": "id",
          "type": "uint256"
        },
        {
          "internalType": "string",
          "name": "key",
          "type": "string"
        },
        {
          "internalType": "string",
          "name": "email",
          "type": "string"
        },
        {
          "internalType": "bytes32",
          "name": "password",
          "type": "bytes32"
        },
        {
          "internalType": "string",
          "name": "role",
          "type": "string"
        },
        {
          "internalType": "uint256",
          "name": "status",
          "type": "uint256"
        },
        {
          "internalType": "string",
          "name": "token",
          "type": "string"
        }
      ],
      "stateMutability": "view",
      "type": "function",
      "constant": true
    },
    {
      "inputs": [
        {
          "internalType": "string",
          "name": "_key",
          "type": "string"
        },
        {
          "internalType": "string",
          "name": "_email",
          "type": "string"
        },
        {
          "internalType": "string",
          "name": "_password",
          "type": "string"
        },
        {
          "internalType": "string",
          "name": "_role",
          "type": "string"
        },
        {
          "internalType": "string",
          "name": "_token",
          "type": "string"
        }
      ],
      "name": "addVoter",
      "outputs": [],
      "stateMutability": "nonpayable",
      "type": "function"
    },
    {
      "inputs": [
        {
          "internalType": "string",
          "name": "_email",
          "type": "string"
        },
        {
          "internalType": "string",
          "name": "_password",
          "type": "string"
        }
      ],
      "name": "loginVoter",
      "outputs": [
        {
          "components": [
            {
              "internalType": "uint256",
              "name": "id",
              "type": "uint256"
            },
            {
              "internalType": "string",
              "name": "key",
              "type": "string"
            },
            {
              "internalType": "string",
              "name": "email",
              "type": "string"
            },
            {
              "internalType": "bytes32",
              "name": "password",
              "type": "bytes32"
            },
            {
              "internalType": "string",
              "name": "role",
              "type": "string"
            },
            {
              "internalType": "uint256",
              "name": "status",
              "type": "uint256"
            },
            {
              "internalType": "string",
              "name": "token",
              "type": "string"
            }
          ],
          "internalType": "struct VotingSystem.Voter",
          "name": "",
          "type": "tuple"
        }
      ],
      "stateMutability": "view",
      "type": "function",
      "constant": true
    },
    {
      "inputs": [
        {
          "internalType": "string",
          "name": "_email",
          "type": "string"
        },
        {
          "internalType": "string",
          "name": "_password",
          "type": "string"
        }
      ],
      "name": "getVoterByEmailPassword",
      "outputs": [
        {
          "components": [
            {
              "internalType": "uint256",
              "name": "id",
              "type": "uint256"
            },
            {
              "internalType": "string",
              "name": "key",
              "type": "string"
            },
            {
              "internalType": "string",
              "name": "email",
              "type": "string"
            },
            {
              "internalType": "bytes32",
              "name": "password",
              "type": "bytes32"
            },
            {
              "internalType": "string",
              "name": "role",
              "type": "string"
            },
            {
              "internalType": "uint256",
              "name": "status",
              "type": "uint256"
            },
            {
              "internalType": "string",
              "name": "token",
              "type": "string"
            }
          ],
          "internalType": "struct VotingSystem.Voter",
          "name": "",
          "type": "tuple"
        }
      ],
      "stateMutability": "view",
      "type": "function",
      "constant": true
    },
    {
      "inputs": [
        {
          "internalType": "uint256",
          "name": "_voterId",
          "type": "uint256"
        }
      ],
      "name": "getVoterEmailById",
      "outputs": [
        {
          "internalType": "string",
          "name": "",
          "type": "string"
        }
      ],
      "stateMutability": "view",
      "type": "function",
      "constant": true
    },
    {
      "inputs": [
        {
          "internalType": "string",
          "name": "_key",
          "type": "string"
        },
        {
          "internalType": "string",
          "name": "_password",
          "type": "string"
        }
      ],
      "name": "updateVoterPassword",
      "outputs": [],
      "stateMutability": "nonpayable",
      "type": "function"
    },
    {
      "inputs": [
        {
          "internalType": "string",
          "name": "_token",
          "type": "string"
        }
      ],
      "name": "verifyVoterAccount",
      "outputs": [
        {
          "internalType": "bool",
          "name": "",
          "type": "bool"
        }
      ],
      "stateMutability": "nonpayable",
      "type": "function"
    },
    {
      "inputs": [
        {
          "internalType": "string",
          "name": "_email",
          "type": "string"
        },
        {
          "internalType": "string",
          "name": "_password",
          "type": "string"
        }
      ],
      "name": "getVoterStatus",
      "outputs": [
        {
          "internalType": "uint256",
          "name": "status",
          "type": "uint256"
        }
      ],
      "stateMutability": "view",
      "type": "function",
      "constant": true
    },
    {
      "inputs": [
        {
          "internalType": "string",
          "name": "_email",
          "type": "string"
        },
        {
          "internalType": "string",
          "name": "_password",
          "type": "string"
        }
      ],
      "name": "checkVoterEmailPassword",
      "outputs": [
        {
          "internalType": "bool",
          "name": "foundVoter",
          "type": "bool"
        }
      ],
      "stateMutability": "view",
      "type": "function",
      "constant": true
    },
    {
      "inputs": [
        {
          "internalType": "string",
          "name": "_key",
          "type": "string"
        }
      ],
      "name": "isVoterExist",
      "outputs": [
        {
          "internalType": "bool",
          "name": "",
          "type": "bool"
        }
      ],
      "stateMutability": "view",
      "type": "function",
      "constant": true
    },
    {
      "inputs": [],
      "name": "getAllVoter",
      "outputs": [
        {
          "components": [
            {
              "internalType": "uint256",
              "name": "id",
              "type": "uint256"
            },
            {
              "internalType": "string",
              "name": "key",
              "type": "string"
            },
            {
              "internalType": "string",
              "name": "email",
              "type": "string"
            },
            {
              "internalType": "bytes32",
              "name": "password",
              "type": "bytes32"
            },
            {
              "internalType": "string",
              "name": "role",
              "type": "string"
            },
            {
              "internalType": "uint256",
              "name": "status",
              "type": "uint256"
            },
            {
              "internalType": "string",
              "name": "token",
              "type": "string"
            }
          ],
          "internalType": "struct VotingSystem.Voter[]",
          "name": "",
          "type": "tuple[]"
        }
      ],
      "stateMutability": "view",
      "type": "function",
      "constant": true
    },
    {
      "inputs": [
        {
          "internalType": "string",
          "name": "_email",
          "type": "string"
        },
        {
          "internalType": "string",
          "name": "_newToken",
          "type": "string"
        }
      ],
      "name": "updateVoterTokenByEmail",
      "outputs": [],
      "stateMutability": "nonpayable",
      "type": "function"
    },
    {
      "inputs": [
        {
          "internalType": "string",
          "name": "_categoryName",
          "type": "string"
        }
      ],
      "name": "addCategory",
      "outputs": [],
      "stateMutability": "nonpayable",
      "type": "function"
    },
    {
      "inputs": [
        {
          "internalType": "uint256",
          "name": "_categoryId",
          "type": "uint256"
        },
        {
          "internalType": "string",
          "name": "_categoryName",
          "type": "string"
        }
      ],
      "name": "updateCategory",
      "outputs": [],
      "stateMutability": "nonpayable",
      "type": "function"
    },
    {
      "inputs": [
        {
          "internalType": "uint256",
          "name": "_categoryId",
          "type": "uint256"
        }
      ],
      "name": "deleteCategory",
      "outputs": [],
      "stateMutability": "nonpayable",
      "type": "function"
    },
    {
      "inputs": [
        {
          "internalType": "string",
          "name": "_userKey",
          "type": "string"
        }
      ],
      "name": "getAllVotedHistory",
      "outputs": [
        {
          "components": [
            {
              "internalType": "uint256",
              "name": "id",
              "type": "uint256"
            },
            {
              "internalType": "string",
              "name": "voterKey",
              "type": "string"
            },
            {
              "internalType": "uint256",
              "name": "categoryId",
              "type": "uint256"
            },
            {
              "internalType": "uint256",
              "name": "eventId",
              "type": "uint256"
            },
            {
              "internalType": "uint256",
              "name": "votedCandidateId",
              "type": "uint256"
            },
            {
              "internalType": "bool",
              "name": "voted",
              "type": "bool"
            }
          ],
          "internalType": "struct VotingSystem.voteEventStruct[]",
          "name": "",
          "type": "tuple[]"
        }
      ],
      "stateMutability": "view",
      "type": "function",
      "constant": true
    },
    {
      "inputs": [
        {
          "internalType": "uint256",
          "name": "_categoryId",
          "type": "uint256"
        },
        {
          "internalType": "string",
          "name": "_eventName",
          "type": "string"
        },
        {
          "internalType": "string",
          "name": "_eventDesc",
          "type": "string"
        },
        {
          "internalType": "uint256",
          "name": "_startDateTime",
          "type": "uint256"
        },
        {
          "internalType": "uint256",
          "name": "_endDateTime",
          "type": "uint256"
        }
      ],
      "name": "addEvent",
      "outputs": [],
      "stateMutability": "nonpayable",
      "type": "function"
    },
    {
      "inputs": [
        {
          "internalType": "uint256",
          "name": "_categoryId",
          "type": "uint256"
        },
        {
          "internalType": "uint256",
          "name": "_eventId",
          "type": "uint256"
        },
        {
          "internalType": "string",
          "name": "_eventName",
          "type": "string"
        },
        {
          "internalType": "string",
          "name": "_eventDesc",
          "type": "string"
        },
        {
          "internalType": "uint256",
          "name": "_startDateTime",
          "type": "uint256"
        },
        {
          "internalType": "uint256",
          "name": "_endDateTime",
          "type": "uint256"
        }
      ],
      "name": "updateEventDetails",
      "outputs": [],
      "stateMutability": "nonpayable",
      "type": "function"
    },
    {
      "inputs": [
        {
          "internalType": "uint256",
          "name": "_categoryId",
          "type": "uint256"
        },
        {
          "internalType": "uint256",
          "name": "_eventId",
          "type": "uint256"
        }
      ],
      "name": "deleteEvent",
      "outputs": [],
      "stateMutability": "nonpayable",
      "type": "function"
    },
    {
      "inputs": [
        {
          "components": [
            {
              "internalType": "uint256",
              "name": "eventId",
              "type": "uint256"
            },
            {
              "internalType": "string",
              "name": "eventName",
              "type": "string"
            },
            {
              "internalType": "uint256",
              "name": "categoryId",
              "type": "uint256"
            },
            {
              "components": [
                {
                  "internalType": "uint256",
                  "name": "id",
                  "type": "uint256"
                },
                {
                  "internalType": "string",
                  "name": "name",
                  "type": "string"
                },
                {
                  "internalType": "string",
                  "name": "description",
                  "type": "string"
                },
                {
                  "internalType": "uint256",
                  "name": "studentId",
                  "type": "uint256"
                },
                {
                  "internalType": "uint256",
                  "name": "categoryId",
                  "type": "uint256"
                },
                {
                  "internalType": "uint256",
                  "name": "eventId",
                  "type": "uint256"
                },
                {
                  "internalType": "uint256",
                  "name": "voteCount",
                  "type": "uint256"
                },
                {
                  "internalType": "bool",
                  "name": "win",
                  "type": "bool"
                },
                {
                  "internalType": "string",
                  "name": "imageFileName",
                  "type": "string"
                }
              ],
              "internalType": "struct VotingSystem.Candidate[]",
              "name": "candidates",
              "type": "tuple[]"
            },
            {
              "internalType": "uint256",
              "name": "candidateCount",
              "type": "uint256"
            },
            {
              "internalType": "uint256",
              "name": "startDateTime",
              "type": "uint256"
            },
            {
              "internalType": "uint256",
              "name": "endDateTime",
              "type": "uint256"
            },
            {
              "internalType": "uint256",
              "name": "status",
              "type": "uint256"
            },
            {
              "internalType": "string",
              "name": "eventDesc",
              "type": "string"
            }
          ],
          "internalType": "struct VotingSystem.Event",
          "name": "_event",
          "type": "tuple"
        }
      ],
      "name": "updateEvent",
      "outputs": [],
      "stateMutability": "nonpayable",
      "type": "function"
    },
    {
      "inputs": [
        {
          "internalType": "uint256",
          "name": "_categoryId",
          "type": "uint256"
        },
        {
          "internalType": "uint256",
          "name": "_eventId",
          "type": "uint256"
        },
        {
          "internalType": "string",
          "name": "_candidateName",
          "type": "string"
        },
        {
          "internalType": "string",
          "name": "_description",
          "type": "string"
        },
        {
          "internalType": "uint256",
          "name": "_studentId",
          "type": "uint256"
        },
        {
          "internalType": "string",
          "name": "_imageFileName",
          "type": "string"
        }
      ],
      "name": "addCandidateToEvent",
      "outputs": [],
      "stateMutability": "nonpayable",
      "type": "function"
    },
    {
      "inputs": [
        {
          "internalType": "uint256",
          "name": "_id",
          "type": "uint256"
        },
        {
          "internalType": "string",
          "name": "_name",
          "type": "string"
        },
        {
          "internalType": "string",
          "name": "_description",
          "type": "string"
        },
        {
          "internalType": "uint256",
          "name": "_studentId",
          "type": "uint256"
        },
        {
          "internalType": "uint256",
          "name": "_categoryId",
          "type": "uint256"
        },
        {
          "internalType": "uint256",
          "name": "_eventId",
          "type": "uint256"
        },
        {
          "internalType": "string",
          "name": "_imageFileName",
          "type": "string"
        }
      ],
      "name": "updateCandidateDetails",
      "outputs": [],
      "stateMutability": "nonpayable",
      "type": "function"
    },
    {
      "inputs": [
        {
          "internalType": "uint256",
          "name": "_categoryId",
          "type": "uint256"
        },
        {
          "internalType": "uint256",
          "name": "_eventId",
          "type": "uint256"
        },
        {
          "internalType": "uint256",
          "name": "_candidateId",
          "type": "uint256"
        }
      ],
      "name": "deleteCandidate",
      "outputs": [],
      "stateMutability": "nonpayable",
      "type": "function"
    },
    {
      "inputs": [
        {
          "internalType": "string",
          "name": "_imageFileName",
          "type": "string"
        }
      ],
      "name": "isImageFileNameUsed",
      "outputs": [
        {
          "internalType": "bool",
          "name": "",
          "type": "bool"
        }
      ],
      "stateMutability": "view",
      "type": "function",
      "constant": true
    },
    {
      "inputs": [
        {
          "internalType": "uint256",
          "name": "_categoryId",
          "type": "uint256"
        },
        {
          "internalType": "uint256",
          "name": "_eventId",
          "type": "uint256"
        },
        {
          "internalType": "uint256",
          "name": "_studentId",
          "type": "uint256"
        }
      ],
      "name": "isCandidateExistsInEvent",
      "outputs": [
        {
          "internalType": "bool",
          "name": "",
          "type": "bool"
        }
      ],
      "stateMutability": "view",
      "type": "function",
      "constant": true
    },
    {
      "inputs": [
        {
          "internalType": "uint256",
          "name": "_categoryId",
          "type": "uint256"
        },
        {
          "internalType": "uint256",
          "name": "_eventId",
          "type": "uint256"
        },
        {
          "internalType": "uint256",
          "name": "_candidateId",
          "type": "uint256"
        }
      ],
      "name": "isCandidateExistsInEventById",
      "outputs": [
        {
          "internalType": "bool",
          "name": "",
          "type": "bool"
        }
      ],
      "stateMutability": "view",
      "type": "function",
      "constant": true
    },
    {
      "inputs": [
        {
          "internalType": "uint256",
          "name": "_categoryId",
          "type": "uint256"
        },
        {
          "internalType": "uint256",
          "name": "_eventId",
          "type": "uint256"
        }
      ],
      "name": "isEventExists",
      "outputs": [
        {
          "internalType": "bool",
          "name": "",
          "type": "bool"
        }
      ],
      "stateMutability": "view",
      "type": "function",
      "constant": true
    },
    {
      "inputs": [
        {
          "internalType": "uint256",
          "name": "_categoryId",
          "type": "uint256"
        }
      ],
      "name": "getAllCategoryEvent",
      "outputs": [
        {
          "components": [
            {
              "internalType": "uint256",
              "name": "eventId",
              "type": "uint256"
            },
            {
              "internalType": "string",
              "name": "eventName",
              "type": "string"
            },
            {
              "internalType": "uint256",
              "name": "categoryId",
              "type": "uint256"
            },
            {
              "components": [
                {
                  "internalType": "uint256",
                  "name": "id",
                  "type": "uint256"
                },
                {
                  "internalType": "string",
                  "name": "name",
                  "type": "string"
                },
                {
                  "internalType": "string",
                  "name": "description",
                  "type": "string"
                },
                {
                  "internalType": "uint256",
                  "name": "studentId",
                  "type": "uint256"
                },
                {
                  "internalType": "uint256",
                  "name": "categoryId",
                  "type": "uint256"
                },
                {
                  "internalType": "uint256",
                  "name": "eventId",
                  "type": "uint256"
                },
                {
                  "internalType": "uint256",
                  "name": "voteCount",
                  "type": "uint256"
                },
                {
                  "internalType": "bool",
                  "name": "win",
                  "type": "bool"
                },
                {
                  "internalType": "string",
                  "name": "imageFileName",
                  "type": "string"
                }
              ],
              "internalType": "struct VotingSystem.Candidate[]",
              "name": "candidates",
              "type": "tuple[]"
            },
            {
              "internalType": "uint256",
              "name": "candidateCount",
              "type": "uint256"
            },
            {
              "internalType": "uint256",
              "name": "startDateTime",
              "type": "uint256"
            },
            {
              "internalType": "uint256",
              "name": "endDateTime",
              "type": "uint256"
            },
            {
              "internalType": "uint256",
              "name": "status",
              "type": "uint256"
            },
            {
              "internalType": "string",
              "name": "eventDesc",
              "type": "string"
            }
          ],
          "internalType": "struct VotingSystem.Event[]",
          "name": "foundEvent",
          "type": "tuple[]"
        }
      ],
      "stateMutability": "view",
      "type": "function",
      "constant": true
    },
    {
      "inputs": [
        {
          "internalType": "uint256",
          "name": "_categoryId",
          "type": "uint256"
        },
        {
          "internalType": "uint256",
          "name": "_eventId",
          "type": "uint256"
        }
      ],
      "name": "getAllCandidatesInEvent",
      "outputs": [
        {
          "components": [
            {
              "internalType": "uint256",
              "name": "id",
              "type": "uint256"
            },
            {
              "internalType": "string",
              "name": "name",
              "type": "string"
            },
            {
              "internalType": "string",
              "name": "description",
              "type": "string"
            },
            {
              "internalType": "uint256",
              "name": "studentId",
              "type": "uint256"
            },
            {
              "internalType": "uint256",
              "name": "categoryId",
              "type": "uint256"
            },
            {
              "internalType": "uint256",
              "name": "eventId",
              "type": "uint256"
            },
            {
              "internalType": "uint256",
              "name": "voteCount",
              "type": "uint256"
            },
            {
              "internalType": "bool",
              "name": "win",
              "type": "bool"
            },
            {
              "internalType": "string",
              "name": "imageFileName",
              "type": "string"
            }
          ],
          "internalType": "struct VotingSystem.Candidate[]",
          "name": "foundCandidates",
          "type": "tuple[]"
        }
      ],
      "stateMutability": "view",
      "type": "function",
      "constant": true
    },
    {
      "inputs": [],
      "name": "getAllCandidates",
      "outputs": [
        {
          "components": [
            {
              "internalType": "uint256",
              "name": "id",
              "type": "uint256"
            },
            {
              "internalType": "string",
              "name": "name",
              "type": "string"
            },
            {
              "internalType": "string",
              "name": "description",
              "type": "string"
            },
            {
              "internalType": "uint256",
              "name": "studentId",
              "type": "uint256"
            },
            {
              "internalType": "uint256",
              "name": "categoryId",
              "type": "uint256"
            },
            {
              "internalType": "uint256",
              "name": "eventId",
              "type": "uint256"
            },
            {
              "internalType": "uint256",
              "name": "voteCount",
              "type": "uint256"
            },
            {
              "internalType": "bool",
              "name": "win",
              "type": "bool"
            },
            {
              "internalType": "string",
              "name": "imageFileName",
              "type": "string"
            }
          ],
          "internalType": "struct VotingSystem.Candidate[]",
          "name": "",
          "type": "tuple[]"
        }
      ],
      "stateMutability": "view",
      "type": "function",
      "constant": true
    },
    {
      "inputs": [],
      "name": "getAllCategory",
      "outputs": [
        {
          "components": [
            {
              "internalType": "uint256",
              "name": "categoryId",
              "type": "uint256"
            },
            {
              "internalType": "string",
              "name": "categoryName",
              "type": "string"
            },
            {
              "components": [
                {
                  "internalType": "uint256",
                  "name": "eventId",
                  "type": "uint256"
                },
                {
                  "internalType": "string",
                  "name": "eventName",
                  "type": "string"
                },
                {
                  "internalType": "uint256",
                  "name": "categoryId",
                  "type": "uint256"
                },
                {
                  "components": [
                    {
                      "internalType": "uint256",
                      "name": "id",
                      "type": "uint256"
                    },
                    {
                      "internalType": "string",
                      "name": "name",
                      "type": "string"
                    },
                    {
                      "internalType": "string",
                      "name": "description",
                      "type": "string"
                    },
                    {
                      "internalType": "uint256",
                      "name": "studentId",
                      "type": "uint256"
                    },
                    {
                      "internalType": "uint256",
                      "name": "categoryId",
                      "type": "uint256"
                    },
                    {
                      "internalType": "uint256",
                      "name": "eventId",
                      "type": "uint256"
                    },
                    {
                      "internalType": "uint256",
                      "name": "voteCount",
                      "type": "uint256"
                    },
                    {
                      "internalType": "bool",
                      "name": "win",
                      "type": "bool"
                    },
                    {
                      "internalType": "string",
                      "name": "imageFileName",
                      "type": "string"
                    }
                  ],
                  "internalType": "struct VotingSystem.Candidate[]",
                  "name": "candidates",
                  "type": "tuple[]"
                },
                {
                  "internalType": "uint256",
                  "name": "candidateCount",
                  "type": "uint256"
                },
                {
                  "internalType": "uint256",
                  "name": "startDateTime",
                  "type": "uint256"
                },
                {
                  "internalType": "uint256",
                  "name": "endDateTime",
                  "type": "uint256"
                },
                {
                  "internalType": "uint256",
                  "name": "status",
                  "type": "uint256"
                },
                {
                  "internalType": "string",
                  "name": "eventDesc",
                  "type": "string"
                }
              ],
              "internalType": "struct VotingSystem.Event[]",
              "name": "events",
              "type": "tuple[]"
            },
            {
              "internalType": "uint256",
              "name": "status",
              "type": "uint256"
            }
          ],
          "internalType": "struct VotingSystem.Category[]",
          "name": "",
          "type": "tuple[]"
        }
      ],
      "stateMutability": "view",
      "type": "function",
      "constant": true
    },
    {
      "inputs": [
        {
          "internalType": "uint256",
          "name": "_categoryId",
          "type": "uint256"
        }
      ],
      "name": "getCategoryById",
      "outputs": [
        {
          "components": [
            {
              "internalType": "uint256",
              "name": "categoryId",
              "type": "uint256"
            },
            {
              "internalType": "string",
              "name": "categoryName",
              "type": "string"
            },
            {
              "components": [
                {
                  "internalType": "uint256",
                  "name": "eventId",
                  "type": "uint256"
                },
                {
                  "internalType": "string",
                  "name": "eventName",
                  "type": "string"
                },
                {
                  "internalType": "uint256",
                  "name": "categoryId",
                  "type": "uint256"
                },
                {
                  "components": [
                    {
                      "internalType": "uint256",
                      "name": "id",
                      "type": "uint256"
                    },
                    {
                      "internalType": "string",
                      "name": "name",
                      "type": "string"
                    },
                    {
                      "internalType": "string",
                      "name": "description",
                      "type": "string"
                    },
                    {
                      "internalType": "uint256",
                      "name": "studentId",
                      "type": "uint256"
                    },
                    {
                      "internalType": "uint256",
                      "name": "categoryId",
                      "type": "uint256"
                    },
                    {
                      "internalType": "uint256",
                      "name": "eventId",
                      "type": "uint256"
                    },
                    {
                      "internalType": "uint256",
                      "name": "voteCount",
                      "type": "uint256"
                    },
                    {
                      "internalType": "bool",
                      "name": "win",
                      "type": "bool"
                    },
                    {
                      "internalType": "string",
                      "name": "imageFileName",
                      "type": "string"
                    }
                  ],
                  "internalType": "struct VotingSystem.Candidate[]",
                  "name": "candidates",
                  "type": "tuple[]"
                },
                {
                  "internalType": "uint256",
                  "name": "candidateCount",
                  "type": "uint256"
                },
                {
                  "internalType": "uint256",
                  "name": "startDateTime",
                  "type": "uint256"
                },
                {
                  "internalType": "uint256",
                  "name": "endDateTime",
                  "type": "uint256"
                },
                {
                  "internalType": "uint256",
                  "name": "status",
                  "type": "uint256"
                },
                {
                  "internalType": "string",
                  "name": "eventDesc",
                  "type": "string"
                }
              ],
              "internalType": "struct VotingSystem.Event[]",
              "name": "events",
              "type": "tuple[]"
            },
            {
              "internalType": "uint256",
              "name": "status",
              "type": "uint256"
            }
          ],
          "internalType": "struct VotingSystem.Category",
          "name": "",
          "type": "tuple"
        }
      ],
      "stateMutability": "view",
      "type": "function",
      "constant": true
    },
    {
      "inputs": [],
      "name": "getAllEvent",
      "outputs": [
        {
          "components": [
            {
              "internalType": "uint256",
              "name": "eventId",
              "type": "uint256"
            },
            {
              "internalType": "string",
              "name": "eventName",
              "type": "string"
            },
            {
              "internalType": "uint256",
              "name": "categoryId",
              "type": "uint256"
            },
            {
              "components": [
                {
                  "internalType": "uint256",
                  "name": "id",
                  "type": "uint256"
                },
                {
                  "internalType": "string",
                  "name": "name",
                  "type": "string"
                },
                {
                  "internalType": "string",
                  "name": "description",
                  "type": "string"
                },
                {
                  "internalType": "uint256",
                  "name": "studentId",
                  "type": "uint256"
                },
                {
                  "internalType": "uint256",
                  "name": "categoryId",
                  "type": "uint256"
                },
                {
                  "internalType": "uint256",
                  "name": "eventId",
                  "type": "uint256"
                },
                {
                  "internalType": "uint256",
                  "name": "voteCount",
                  "type": "uint256"
                },
                {
                  "internalType": "bool",
                  "name": "win",
                  "type": "bool"
                },
                {
                  "internalType": "string",
                  "name": "imageFileName",
                  "type": "string"
                }
              ],
              "internalType": "struct VotingSystem.Candidate[]",
              "name": "candidates",
              "type": "tuple[]"
            },
            {
              "internalType": "uint256",
              "name": "candidateCount",
              "type": "uint256"
            },
            {
              "internalType": "uint256",
              "name": "startDateTime",
              "type": "uint256"
            },
            {
              "internalType": "uint256",
              "name": "endDateTime",
              "type": "uint256"
            },
            {
              "internalType": "uint256",
              "name": "status",
              "type": "uint256"
            },
            {
              "internalType": "string",
              "name": "eventDesc",
              "type": "string"
            }
          ],
          "internalType": "struct VotingSystem.Event[]",
          "name": "",
          "type": "tuple[]"
        }
      ],
      "stateMutability": "view",
      "type": "function",
      "constant": true
    },
    {
      "inputs": [
        {
          "internalType": "uint256",
          "name": "_categoryId",
          "type": "uint256"
        },
        {
          "internalType": "uint256",
          "name": "_eventId",
          "type": "uint256"
        }
      ],
      "name": "getEventById",
      "outputs": [
        {
          "components": [
            {
              "internalType": "uint256",
              "name": "eventId",
              "type": "uint256"
            },
            {
              "internalType": "string",
              "name": "eventName",
              "type": "string"
            },
            {
              "internalType": "uint256",
              "name": "categoryId",
              "type": "uint256"
            },
            {
              "components": [
                {
                  "internalType": "uint256",
                  "name": "id",
                  "type": "uint256"
                },
                {
                  "internalType": "string",
                  "name": "name",
                  "type": "string"
                },
                {
                  "internalType": "string",
                  "name": "description",
                  "type": "string"
                },
                {
                  "internalType": "uint256",
                  "name": "studentId",
                  "type": "uint256"
                },
                {
                  "internalType": "uint256",
                  "name": "categoryId",
                  "type": "uint256"
                },
                {
                  "internalType": "uint256",
                  "name": "eventId",
                  "type": "uint256"
                },
                {
                  "internalType": "uint256",
                  "name": "voteCount",
                  "type": "uint256"
                },
                {
                  "internalType": "bool",
                  "name": "win",
                  "type": "bool"
                },
                {
                  "internalType": "string",
                  "name": "imageFileName",
                  "type": "string"
                }
              ],
              "internalType": "struct VotingSystem.Candidate[]",
              "name": "candidates",
              "type": "tuple[]"
            },
            {
              "internalType": "uint256",
              "name": "candidateCount",
              "type": "uint256"
            },
            {
              "internalType": "uint256",
              "name": "startDateTime",
              "type": "uint256"
            },
            {
              "internalType": "uint256",
              "name": "endDateTime",
              "type": "uint256"
            },
            {
              "internalType": "uint256",
              "name": "status",
              "type": "uint256"
            },
            {
              "internalType": "string",
              "name": "eventDesc",
              "type": "string"
            }
          ],
          "internalType": "struct VotingSystem.Event",
          "name": "",
          "type": "tuple"
        }
      ],
      "stateMutability": "view",
      "type": "function",
      "constant": true
    },
    {
      "inputs": [
        {
          "internalType": "uint256",
          "name": "_categoryId",
          "type": "uint256"
        },
        {
          "internalType": "uint256",
          "name": "_eventId",
          "type": "uint256"
        },
        {
          "internalType": "uint256",
          "name": "_candidateId",
          "type": "uint256"
        }
      ],
      "name": "getCandidateById",
      "outputs": [
        {
          "components": [
            {
              "internalType": "uint256",
              "name": "id",
              "type": "uint256"
            },
            {
              "internalType": "string",
              "name": "name",
              "type": "string"
            },
            {
              "internalType": "string",
              "name": "description",
              "type": "string"
            },
            {
              "internalType": "uint256",
              "name": "studentId",
              "type": "uint256"
            },
            {
              "internalType": "uint256",
              "name": "categoryId",
              "type": "uint256"
            },
            {
              "internalType": "uint256",
              "name": "eventId",
              "type": "uint256"
            },
            {
              "internalType": "uint256",
              "name": "voteCount",
              "type": "uint256"
            },
            {
              "internalType": "bool",
              "name": "win",
              "type": "bool"
            },
            {
              "internalType": "string",
              "name": "imageFileName",
              "type": "string"
            }
          ],
          "internalType": "struct VotingSystem.Candidate",
          "name": "",
          "type": "tuple"
        }
      ],
      "stateMutability": "view",
      "type": "function",
      "constant": true
    }
  ],
  "bytecode": "0x60806040523480156200001157600080fd5b50600080546001600160a01b03191633178155604080516020808201835283825282518084018452601481527f737570657261646d696e40676d61696c2e636f6d0000000000000000000000008183015283518085018552600e81526d537570657241646d696e2131323360901b818401528451808601865260018152605360f81b818501528551938401909552948252620000b2949293909291620000b8565b620004c7565b60015b600b5481116200015d57600081815260056020526040908190209051620000e6916002019062000351565b6040518091039020858051906020012003620001485760405162461bcd60e51b815260206004820152601360248201527f5573657220616c72656164792065786973747300000000000000000000000000604482015260640160405180910390fd5b8062000154816200040a565b915050620000bb565b506001600b600082825462000173919062000426565b90915550506040516000906200018e90859060200162000474565b60408051601f198184030181529181528151602092830120600b546000818152600585529290922091825588519093509091620001d39160018401918a01906200026f565b508551620001eb90600283019060208901906200026f565b506003810182905583516200020a90600483019060208701906200026f565b506000600582015582516200022990600683019060208601906200026f565b50600b547f56729c826fe77eec184059336ced13d9ef79d10126212c90a4d2b724391e14e2886040516200025e919062000492565b60405180910390a250505050505050565b8280546200027d9062000315565b90600052602060002090601f016020900481019282620002a15760008555620002ec565b82601f10620002bc57805160ff1916838001178555620002ec565b82800160010185558215620002ec579182015b82811115620002ec578251825591602001919060010190620002cf565b50620002fa929150620002fe565b5090565b5b80821115620002fa5760008155600101620002ff565b600181811c908216806200032a57607f821691505b6020821081036200034b57634e487b7160e01b600052602260045260246000fd5b50919050565b600080835481600182811c9150808316806200036e57607f831692505b602080841082036200038e57634e487b7160e01b86526022600452602486fd5b818015620003a55760018114620003b757620003e6565b60ff19861689528489019650620003e6565b60008a81526020902060005b86811015620003de5781548b820152908501908301620003c3565b505084890196505b509498975050505050505050565b634e487b7160e01b600052601160045260246000fd5b6000600182016200041f576200041f620003f4565b5060010190565b600082198211156200043c576200043c620003f4565b500190565b60005b838110156200045e57818101518382015260200162000444565b838111156200046e576000848401525b50505050565b600082516200048881846020870162000441565b9190910192915050565b6020815260008251806020840152620004b381604085016020870162000441565b601f01601f19169190910160400192915050565b615f9a80620004d76000396000f3fe608060405234801561001057600080fd5b50600436106102275760003560e01c806378697e5b11610130578063cd1d56cd116100b8578063dfdffaf41161007c578063dfdffaf414610546578063f29565ed14610559578063f44f4e141461056c578063f731d0e914610581578063fdf9c14a1461059457600080fd5b8063cd1d56cd146104c7578063ceca737f146104e7578063d0337914146104fa578063d84786041461050d578063da58c7d91461052057600080fd5b80638f2c2805116100ff5780638f2c280514610459578063909f85021461046e578063a1a025641461048e578063bf03f677146104a1578063cb9b1ba1146104b457600080fd5b806378697e5b146103f55780638801b5b61461040857806388ad43761461041b5780638da5cb5b1461042e57600080fd5b8063514fc62a116101b357806360e93f3c1161018257806360e93f3c1461036a57806361e8486e1461038a578063642d20ad146103aa578063689b6fbf146103cf57806376304984146103e257600080fd5b8063514fc62a14610311578063531f142b146103245780635a8ffc79146103375780635b4d727c1461035757600080fd5b80634009074f116101fa5780634009074f14610295578063400af02a146102a8578063401a52dd146102c8578063448a144f146102db5780634fb43250146102ee57600080fd5b80631002cdd41461022c5780632e0dcbf71461024a5780632e6997fe1461025f5780633e60e2f514610274575b600080fd5b6102346105a7565b604051610241919061516d565b60405180910390f35b61025d6102583660046152ad565b610a97565b005b610267610b22565b60405161024191906152e9565b61028761028236600461533e565b610ca4565b604051908152602001610241565b61025d6102a33660046153a1565b610ceb565b6102bb6102b636600461533e565b610f16565b60405161024191906154d8565b6102346102d63660046154eb565b610fb8565b61025d6102e936600461533e565b611453565b6103016102fc366004615504565b6114d5565b6040519015158152602001610241565b61030161031f3660046152ad565b611581565b61025d6103323660046156a8565b6115e7565b61034a6103453660046154eb565b611717565b604051610241919061579d565b610267610365366004615504565b61180b565b61037d6103783660046154eb565b611ba7565b6040516102419190615841565b61039d610398366004615854565b6120b1565b6040516102419190615880565b6103bd6103b83660046154eb565b61268e565b60405161024196959493929190615893565b6103016103dd36600461533e565b61274f565b61025d6103f03660046158d3565b612770565b61025d610403366004615976565b61297e565b6102bb61041636600461533e565b6129a3565b6103016104293660046152ad565b612d44565b600054610441906001600160a01b031681565b6040516001600160a01b039091168152602001610241565b610461612d6f565b60405161024191906159b2565b61048161047c366004615504565b613312565b6040516102419190615a07565b61030161049c3660046152ad565b613871565b6103016104af366004615854565b613968565b61025d6104c2366004615a1a565b6139fc565b6104da6104d53660046152ad565b613a9d565b6040516102419190615a98565b61025d6104f53660046154eb565b613ca0565b61025d610508366004615854565b613cdc565b61025d61051b366004615504565b613f70565b61053361052e3660046154eb565b61417b565b6040516102419796959493929190615b39565b610301610554366004615854565b6143d6565b61025d61056736600461533e565b61445e565b61057461454d565b6040516102419190615ba6565b61025d61058f366004615bfb565b614873565b61025d6105a2366004615ccc565b614a07565b606060006009546001600160401b038111156105c5576105c56151cf565b6040519080825280602002602001820160405280156105fe57816020015b6105eb614b5e565b8152602001906001900390816105e35790505b5090506000805b600754811015610a8f5760005b600160006106208483615d6a565b8152602081019190915260400160002060020154811015610a7c57600160006106498483615d6a565b8152602001908152602001600020600201818154811061066b5761066b615d82565b9060005260206000209060090201604051806101200160405290816000820154815260200160018201805461069f90615d98565b80601f01602080910402602001604051908101604052809291908181526020018280546106cb90615d98565b80156107185780601f106106ed57610100808354040283529160200191610718565b820191906000526020600020905b8154815290600101906020018083116106fb57829003601f168201915b505050505081526020016002820154815260200160038201805480602002602001604051908101604052809291908181526020016000905b8282101561097e5783829060005260206000209060090201604051806101200160405290816000820154815260200160018201805461078e90615d98565b80601f01602080910402602001604051908101604052809291908181526020018280546107ba90615d98565b80156108075780601f106107dc57610100808354040283529160200191610807565b820191906000526020600020905b8154815290600101906020018083116107ea57829003601f168201915b5050505050815260200160028201805461082090615d98565b80601f016020809104026020016040519081016040528092919081815260200182805461084c90615d98565b80156108995780601f1061086e57610100808354040283529160200191610899565b820191906000526020600020905b81548152906001019060200180831161087c57829003601f168201915b505050918352505060038201546020820152600482015460408201526005820154606082015260068201546080820152600782015460ff16151560a082015260088201805460c0909201916108ed90615d98565b80601f016020809104026020016040519081016040528092919081815260200182805461091990615d98565b80156109665780601f1061093b57610100808354040283529160200191610966565b820191906000526020600020905b81548152906001019060200180831161094957829003601f168201915b50505050508152505081526020019060010190610750565b505050508152602001600482015481526020016005820154815260200160068201548152602001600782015481526020016008820180546109be90615d98565b80601f01602080910402602001604051908101604052809291908181526020018280546109ea90615d98565b8015610a375780601f10610a0c57610100808354040283529160200191610a37565b820191906000526020600020905b815481529060010190602001808311610a1a57829003601f168201915b505050505081525050848481518110610a5257610a52615d82565b6020908102919091010152610a68600184615d6a565b925080610a7481615dcc565b915050610612565b5080610a8781615dcc565b915050610605565b509092915050565b600160076000828254610aaa9190615d6a565b9091555050600754600090815260016020818152604090922083519092610ad79284019190850190614baa565b5060078054825560016003830155546040517f5bae3f75753ef0a1c0ea0f6c51d7b43a4b8d116572b8b7b5cb771f9ad32d4ae590610b1690859061579d565b60405180910390a25050565b606060006008546001600160401b03811115610b4057610b406151cf565b604051908082528060200260200182016040528015610b7957816020015b610b66614c2e565b815260200190600190039081610b5e5790505b50905060006009546001600160401b03811115610b9857610b986151cf565b604051908082528060200260200182016040528015610bd157816020015b610bbe614b5e565b815260200190600190039081610bb65790505b509050610bdc6105a7565b90506000805b600954811015610c9b5760005b838281518110610c0157610c01615d82565b60200260200101516060015151811015610c8857838281518110610c2757610c27615d82565b6020026020010151606001518181518110610c4457610c44615d82565b6020026020010151858481518110610c5e57610c5e615d82565b6020908102919091010152610c74600184615d6a565b925080610c8081615dcc565b915050610bef565b5080610c9381615dcc565b915050610be2565b50919392505050565b600080610cb184846129a3565b8051909150600003610cde5760405162461bcd60e51b8152600401610cd590615de5565b60405180910390fd5b60a0015190505b92915050565b60005b600084815260016020526040902060020154811015610f0b576000848152600160205260409020600201805484919083908110610d2d57610d2d615d82565b90600052602060002090600902016000015403610ef9576000848152600160205260408120600201805483908110610d6757610d67615d82565b9060005260206000209060090201905060005b6003820154811015610ef65789826003018281548110610d9c57610d9c615d82565b90600052602060002090600902016000015403610ee4576000826003018281548110610dca57610dca615d82565b9060005260206000209060090201905089816001019080519060200190610df2929190614baa565b508851610e0890600283019060208c0190614baa565b5060038101889055845115801590610e3e575084516020860120604051610e33906008840190615ec1565b604051809103902014155b15610edb576000816008018054610e5490615d98565b90501115610e92576000600682600801604051610e719190615ec1565b908152604051908190036020019020805491151560ff199092169190911790555b8451610ea79060088301906020880190614baa565b506001600686604051610eba9190615ecd565b908152604051908190036020019020805491151560ff199092169190911790555b50505050610f0d565b80610eee81615dcc565b915050610d7a565b50505b80610f0381615dcc565b915050610cee565b505b50505050505050565b610f1e614c7c565b6000610f2a84846129a3565b8051909150600003610f4e5760405162461bcd60e51b8152600401610cd590615de5565b8060a00151600114610fb15760405162461bcd60e51b815260206004820152602660248201527f596f7572206163636f756e74207761732062616e6e6564206f72206e6f74207660448201526565726966792160d01b6064820152608401610cd5565b9392505050565b60008181526001602052604081206002810154606092906001600160401b03811115610fe657610fe66151cf565b60405190808252806020026020018201604052801561101f57816020015b61100c614b5e565b8152602001906001900390816110045790505b50905060005b600283015481101561144b5782600201818154811061104657611046615d82565b9060005260206000209060090201604051806101200160405290816000820154815260200160018201805461107a90615d98565b80601f01602080910402602001604051908101604052809291908181526020018280546110a690615d98565b80156110f35780601f106110c8576101008083540402835291602001916110f3565b820191906000526020600020905b8154815290600101906020018083116110d657829003601f168201915b505050505081526020016002820154815260200160038201805480602002602001604051908101604052809291908181526020016000905b828210156113595783829060005260206000209060090201604051806101200160405290816000820154815260200160018201805461116990615d98565b80601f016020809104026020016040519081016040528092919081815260200182805461119590615d98565b80156111e25780601f106111b7576101008083540402835291602001916111e2565b820191906000526020600020905b8154815290600101906020018083116111c557829003601f168201915b505050505081526020016002820180546111fb90615d98565b80601f016020809104026020016040519081016040528092919081815260200182805461122790615d98565b80156112745780601f1061124957610100808354040283529160200191611274565b820191906000526020600020905b81548152906001019060200180831161125757829003601f168201915b505050918352505060038201546020820152600482015460408201526005820154606082015260068201546080820152600782015460ff16151560a082015260088201805460c0909201916112c890615d98565b80601f01602080910402602001604051908101604052809291908181526020018280546112f490615d98565b80156113415780601f1061131657610100808354040283529160200191611341565b820191906000526020600020905b81548152906001019060200180831161132457829003601f168201915b5050505050815250508152602001906001019061112b565b5050505081526020016004820154815260200160058201548152602001600682015481526020016007820154815260200160088201805461139990615d98565b80601f01602080910402602001604051908101604052809291908181526020018280546113c590615d98565b80156114125780601f106113e757610100808354040283529160200191611412565b820191906000526020600020905b8154815290600101906020018083116113f557829003601f168201915b50505050508152505082828151811061142d5761142d615d82565b6020026020010181905250808061144390615dcc565b915050611025565b509392505050565b60015b600b5481116114d05760008181526005602052604090819020905161147e9160020190615ec1565b60405180910390208380519060200120036114be57600081815260056020908152604090912083516114b892600690920191850190614baa565b50505050565b806114c881615dcc565b915050611456565b505050565b60008281526001602052604081205481036115025760405162461bcd60e51b8152600401610cd590615ee9565b60005b60008481526001602052604090206002015481101561157757600084815260016020526040902060020180548491908390811061154457611544615d82565b90600052602060002090600902016000015403611565576001915050610ce5565b8061156f81615dcc565b915050611505565b5060009392505050565b600060015b600b5481116115de576000818152600560205260409081902090516115ae9160010190615ec1565b60405180910390208380519060200120036115cc5750600192915050565b806115d681615dcc565b915050611586565b50600092915050565b604080820151600090815260016020529081205490036116495760405162461bcd60e51b815260206004820152601860248201527f43617465676f727920646f6573206e6f742065786973747300000000000000006044820152606401610cd5565b61165b816040015182600001516114d5565b61169f5760405162461bcd60e51b81526020600482015260156024820152744576656e7420646f6573206e6f742065786973742160581b6044820152606401610cd5565b60006001600083604001518152602001908152602001600020600201600183600001516116cc9190615f20565b815481106116dc576116dc615d82565b906000526020600020906009020190508160200151816001019080519060200190611708929190614baa565b5060e090910151600790910155565b606060008211801561172b5750600b548211155b61176a5760405162461bcd60e51b815260206004820152601060248201526f125b9d985b1a59081d9bdd195c88125160821b6044820152606401610cd5565b6000828152600560205260409020600201805461178690615d98565b80601f01602080910402602001604051908101604052809291908181526020018280546117b290615d98565b80156117ff5780601f106117d4576101008083540402835291602001916117ff565b820191906000526020600020905b8154815290600101906020018083116117e257829003601f168201915b50505050509050919050565b60008281526001602052604081206060915b6002820154811015611b9f578382600201828154811061183f5761183f615d82565b90600052602060002090600902016000015403611b8d57600082600201828154811061186d5761186d615d82565b9060005260206000209060090201600401546001600160401b03811115611896576118966151cf565b6040519080825280602002602001820160405280156118cf57816020015b6118bc614c2e565b8152602001906001900390816118b45790505b50905060005b8360020183815481106118ea576118ea615d82565b906000526020600020906009020160030180549050811015611b825783600201838154811061191b5761191b615d82565b9060005260206000209060090201600301818154811061193d5761193d615d82565b9060005260206000209060090201604051806101200160405290816000820154815260200160018201805461197190615d98565b80601f016020809104026020016040519081016040528092919081815260200182805461199d90615d98565b80156119ea5780601f106119bf576101008083540402835291602001916119ea565b820191906000526020600020905b8154815290600101906020018083116119cd57829003601f168201915b50505050508152602001600282018054611a0390615d98565b80601f0160208091040260200160405190810160405280929190818152602001828054611a2f90615d98565b8015611a7c5780601f10611a5157610100808354040283529160200191611a7c565b820191906000526020600020905b815481529060010190602001808311611a5f57829003601f168201915b505050918352505060038201546020820152600482015460408201526005820154606082015260068201546080820152600782015460ff16151560a082015260088201805460c090920191611ad090615d98565b80601f0160208091040260200160405190810160405280929190818152602001828054611afc90615d98565b8015611b495780601f10611b1e57610100808354040283529160200191611b49565b820191906000526020600020905b815481529060010190602001808311611b2c57829003601f168201915b505050505081525050828281518110611b6457611b64615d82565b60200260200101819052508080611b7a90615dcc565b9150506118d5565b509250610ce5915050565b80611b9781615dcc565b91505061181d565b505092915050565b611bd26040518060800160405280600081526020016060815260200160608152602001600081525090565b60008281526001602081815260409283902083516080810190945280548452918201805491840191611c0390615d98565b80601f0160208091040260200160405190810160405280929190818152602001828054611c2f90615d98565b8015611c7c5780601f10611c5157610100808354040283529160200191611c7c565b820191906000526020600020905b815481529060010190602001808311611c5f57829003601f168201915b5050505050815260200160028201805480602002602001604051908101604052809291908181526020016000905b8282101561209857838290600052602060002090600902016040518061012001604052908160008201548152602001600182018054611ce890615d98565b80601f0160208091040260200160405190810160405280929190818152602001828054611d1490615d98565b8015611d615780601f10611d3657610100808354040283529160200191611d61565b820191906000526020600020905b815481529060010190602001808311611d4457829003601f168201915b505050505081526020016002820154815260200160038201805480602002602001604051908101604052809291908181526020016000905b82821015611fc757838290600052602060002090600902016040518061012001604052908160008201548152602001600182018054611dd790615d98565b80601f0160208091040260200160405190810160405280929190818152602001828054611e0390615d98565b8015611e505780601f10611e2557610100808354040283529160200191611e50565b820191906000526020600020905b815481529060010190602001808311611e3357829003601f168201915b50505050508152602001600282018054611e6990615d98565b80601f0160208091040260200160405190810160405280929190818152602001828054611e9590615d98565b8015611ee25780601f10611eb757610100808354040283529160200191611ee2565b820191906000526020600020905b815481529060010190602001808311611ec557829003601f168201915b505050918352505060038201546020820152600482015460408201526005820154606082015260068201546080820152600782015460ff16151560a082015260088201805460c090920191611f3690615d98565b80601f0160208091040260200160405190810160405280929190818152602001828054611f6290615d98565b8015611faf5780601f10611f8457610100808354040283529160200191611faf565b820191906000526020600020905b815481529060010190602001808311611f9257829003601f168201915b50505050508152505081526020019060010190611d99565b5050505081526020016004820154815260200160058201548152602001600682015481526020016007820154815260200160088201805461200790615d98565b80601f016020809104026020016040519081016040528092919081815260200182805461203390615d98565b80156120805780601f1061205557610100808354040283529160200191612080565b820191906000526020600020905b81548152906001019060200180831161206357829003601f168201915b50505050508152505081526020019060010190611caa565b5050505081526020016003820154815250509050919050565b6120b9614c2e565b60008481526001602081815260408084208151608081019092528054825292830180549193928401916120eb90615d98565b80601f016020809104026020016040519081016040528092919081815260200182805461211790615d98565b80156121645780601f1061213957610100808354040283529160200191612164565b820191906000526020600020905b81548152906001019060200180831161214757829003601f168201915b5050505050815260200160028201805480602002602001604051908101604052809291908181526020016000905b82821015612580578382906000526020600020906009020160405180610120016040529081600082015481526020016001820180546121d090615d98565b80601f01602080910402602001604051908101604052809291908181526020018280546121fc90615d98565b80156122495780601f1061221e57610100808354040283529160200191612249565b820191906000526020600020905b81548152906001019060200180831161222c57829003601f168201915b505050505081526020016002820154815260200160038201805480602002602001604051908101604052809291908181526020016000905b828210156124af578382906000526020600020906009020160405180610120016040529081600082015481526020016001820180546122bf90615d98565b80601f01602080910402602001604051908101604052809291908181526020018280546122eb90615d98565b80156123385780601f1061230d57610100808354040283529160200191612338565b820191906000526020600020905b81548152906001019060200180831161231b57829003601f168201915b5050505050815260200160028201805461235190615d98565b80601f016020809104026020016040519081016040528092919081815260200182805461237d90615d98565b80156123ca5780601f1061239f576101008083540402835291602001916123ca565b820191906000526020600020905b8154815290600101906020018083116123ad57829003601f168201915b505050918352505060038201546020820152600482015460408201526005820154606082015260068201546080820152600782015460ff16151560a082015260088201805460c09092019161241e90615d98565b80601f016020809104026020016040519081016040528092919081815260200182805461244a90615d98565b80156124975780601f1061246c57610100808354040283529160200191612497565b820191906000526020600020905b81548152906001019060200180831161247a57829003601f168201915b50505050508152505081526020019060010190612281565b505050508152602001600482015481526020016005820154815260200160068201548152602001600782015481526020016008820180546124ef90615d98565b80601f016020809104026020016040519081016040528092919081815260200182805461251b90615d98565b80156125685780601f1061253d57610100808354040283529160200191612568565b820191906000526020600020905b81548152906001019060200180831161254b57829003601f168201915b50505050508152505081526020019060010190612192565b505050508152602001600382015481525050905061259c614b5e565b6125a4614c2e565b60005b8360400151518110156126835786846040015182815181106125cb576125cb615d82565b6020026020010151600001510361267157836040015181815181106125f2576125f2615d82565b6020026020010151925060005b83606001515181101561266b57868460600151828151811061262357612623615d82565b60200260200101516000015103612659578360600151818151811061264a5761264a615d82565b6020026020010151925061266b565b8061266381615dcc565b9150506125ff565b50612683565b8061267b81615dcc565b9150506125a7565b509695505050505050565b600460205260009081526040902080546001820180549192916126b090615d98565b80601f01602080910402602001604051908101604052809291908181526020018280546126dc90615d98565b80156127295780601f106126fe57610100808354040283529160200191612729565b820191906000526020600020905b81548152906001019060200180831161270c57829003601f168201915b505050506002830154600384015460048501546005909501549394919390925060ff1686565b60008061275c84846129a3565b805190915015611577576001915050610ce5565b6001600860008282546127839190615d6a565b9091555050604080516101208101825260085481526020808201879052818301869052606082018590526080820189905260a08201889052600060c0830181905260e083018190526101008301859052898152600190915291822090915b6002820154811015612941578782600201828154811061280357612803615d82565b9060005260206000209060090201600001540361292f5781600201818154811061282f5761282f615d82565b600091825260208083206009928302016003018054600180820183559185529382902087519490930290920192835585810151805187949361287693908501920190614baa565b5060408201518051612892916002840191602090910190614baa565b50606082015160038201556080820151600482015560a0820151600582015560c0820151600682015560e082015160078201805460ff191691151591909117905561010082015180516128ef916008840191602090910190614baa565b505050600182600201828154811061290957612909615d82565b906000526020600020906009020160040160008282546129299190615d6a565b90915550505b8061293981615dcc565b9150506127e1565b5060016006846040516129549190615ecd565b908152604051908190036020019020805491151560ff199092169190911790555050505050505050565b600082815260016020818152604090922083516114d093919092019190840190614baa565b6129ab614c7c565b6000826040516020016129be9190615ecd565b60408051601f198184030181529190528051602090910120905060015b600b548111612cdc57600081815260056020526040908190209051612a039160020190615ec1565b60405180910390208580519060200120148015612a385750600081815260056020526040902060030154612a38908390614ae6565b15612cca57600560008281526020019081526020016000206040518060e001604052908160008201548152602001600182018054612a7590615d98565b80601f0160208091040260200160405190810160405280929190818152602001828054612aa190615d98565b8015612aee5780601f10612ac357610100808354040283529160200191612aee565b820191906000526020600020905b815481529060010190602001808311612ad157829003601f168201915b50505050508152602001600282018054612b0790615d98565b80601f0160208091040260200160405190810160405280929190818152602001828054612b3390615d98565b8015612b805780601f10612b5557610100808354040283529160200191612b80565b820191906000526020600020905b815481529060010190602001808311612b6357829003601f168201915b5050505050815260200160038201548152602001600482018054612ba390615d98565b80601f0160208091040260200160405190810160405280929190818152602001828054612bcf90615d98565b8015612c1c5780601f10612bf157610100808354040283529160200191612c1c565b820191906000526020600020905b815481529060010190602001808311612bff57829003601f168201915b5050505050815260200160058201548152602001600682018054612c3f90615d98565b80601f0160208091040260200160405190810160405280929190818152602001828054612c6b90615d98565b8015612cb85780601f10612c8d57610100808354040283529160200191612cb8565b820191906000526020600020905b815481529060010190602001808311612c9b57829003601f168201915b50505050508152505092505050610ce5565b80612cd481615dcc565b9150506129db565b50506040805160e08101825260008082528251602080820185528282528084019190915283518082018552828152838501526060830182905283518082018552828152608084015260a083018290528351908101909352825260c08101919091529392505050565b6000600682604051612d569190615ecd565b9081526040519081900360200190205460ff1692915050565b606060006007546001600160401b03811115612d8d57612d8d6151cf565b604051908082528060200260200182016040528015612de957816020015b612dd66040518060800160405280600081526020016060815260200160608152602001600081525090565b815260200190600190039081612dab5790505b50905060015b600754811161330c5760008181526001602081815260409283902083516080810190945280548452918201805491840191612e2990615d98565b80601f0160208091040260200160405190810160405280929190818152602001828054612e5590615d98565b8015612ea25780601f10612e7757610100808354040283529160200191612ea2565b820191906000526020600020905b815481529060010190602001808311612e8557829003601f168201915b5050505050815260200160028201805480602002602001604051908101604052809291908181526020016000905b828210156132be57838290600052602060002090600902016040518061012001604052908160008201548152602001600182018054612f0e90615d98565b80601f0160208091040260200160405190810160405280929190818152602001828054612f3a90615d98565b8015612f875780601f10612f5c57610100808354040283529160200191612f87565b820191906000526020600020905b815481529060010190602001808311612f6a57829003601f168201915b505050505081526020016002820154815260200160038201805480602002602001604051908101604052809291908181526020016000905b828210156131ed57838290600052602060002090600902016040518061012001604052908160008201548152602001600182018054612ffd90615d98565b80601f016020809104026020016040519081016040528092919081815260200182805461302990615d98565b80156130765780601f1061304b57610100808354040283529160200191613076565b820191906000526020600020905b81548152906001019060200180831161305957829003601f168201915b5050505050815260200160028201805461308f90615d98565b80601f01602080910402602001604051908101604052809291908181526020018280546130bb90615d98565b80156131085780601f106130dd57610100808354040283529160200191613108565b820191906000526020600020905b8154815290600101906020018083116130eb57829003601f168201915b505050918352505060038201546020820152600482015460408201526005820154606082015260068201546080820152600782015460ff16151560a082015260088201805460c09092019161315c90615d98565b80601f016020809104026020016040519081016040528092919081815260200182805461318890615d98565b80156131d55780601f106131aa576101008083540402835291602001916131d5565b820191906000526020600020905b8154815290600101906020018083116131b857829003601f168201915b50505050508152505081526020019060010190612fbf565b5050505081526020016004820154815260200160058201548152602001600682015481526020016007820154815260200160088201805461322d90615d98565b80601f016020809104026020016040519081016040528092919081815260200182805461325990615d98565b80156132a65780601f1061327b576101008083540402835291602001916132a6565b820191906000526020600020905b81548152906001019060200180831161328957829003601f168201915b50505050508152505081526020019060010190612ed0565b505050508152602001600382015481525050826001836132de9190615f20565b815181106132ee576132ee615d82565b6020026020010181905250808061330490615dcc565b915050612def565b50919050565b61331a614b5e565b600083815260016020818152604080842081516080810190925280548252928301805491939284019161334c90615d98565b80601f016020809104026020016040519081016040528092919081815260200182805461337890615d98565b80156133c55780601f1061339a576101008083540402835291602001916133c5565b820191906000526020600020905b8154815290600101906020018083116133a857829003601f168201915b5050505050815260200160028201805480602002602001604051908101604052809291908181526020016000905b828210156137e15783829060005260206000209060090201604051806101200160405290816000820154815260200160018201805461343190615d98565b80601f016020809104026020016040519081016040528092919081815260200182805461345d90615d98565b80156134aa5780601f1061347f576101008083540402835291602001916134aa565b820191906000526020600020905b81548152906001019060200180831161348d57829003601f168201915b505050505081526020016002820154815260200160038201805480602002602001604051908101604052809291908181526020016000905b828210156137105783829060005260206000209060090201604051806101200160405290816000820154815260200160018201805461352090615d98565b80601f016020809104026020016040519081016040528092919081815260200182805461354c90615d98565b80156135995780601f1061356e57610100808354040283529160200191613599565b820191906000526020600020905b81548152906001019060200180831161357c57829003601f168201915b505050505081526020016002820180546135b290615d98565b80601f01602080910402602001604051908101604052809291908181526020018280546135de90615d98565b801561362b5780601f106136005761010080835404028352916020019161362b565b820191906000526020600020905b81548152906001019060200180831161360e57829003601f168201915b505050918352505060038201546020820152600482015460408201526005820154606082015260068201546080820152600782015460ff16151560a082015260088201805460c09092019161367f90615d98565b80601f01602080910402602001604051908101604052809291908181526020018280546136ab90615d98565b80156136f85780601f106136cd576101008083540402835291602001916136f8565b820191906000526020600020905b8154815290600101906020018083116136db57829003601f168201915b505050505081525050815260200190600101906134e2565b5050505081526020016004820154815260200160058201548152602001600682015481526020016007820154815260200160088201805461375090615d98565b80601f016020809104026020016040519081016040528092919081815260200182805461377c90615d98565b80156137c95780601f1061379e576101008083540402835291602001916137c9565b820191906000526020600020905b8154815290600101906020018083116137ac57829003601f168201915b505050505081525050815260200190600101906133f3565b50505050815260200160038201548152505090506137fd614b5e565b60005b82604001515181101561386857848360400151828151811061382457613824615d82565b60200260200101516000015103613856578260400151818151811061384b5761384b615d82565b602002602001015191505b8061386081615dcc565b915050613800565b50949350505050565b6001600090815260056020527f1471eb6eb2c5e789fc3de43f8ce62938c7d1836ec861730447e2ada8fd81017b5481036138e55760405162461bcd60e51b81526020600482015260156024820152744e6f20766f74657220696e20746865206c6973742160581b6044820152606401610cd5565b60015b600b5481116115de576000818152600560205260409081902090516139109160060190615ec1565b6040518091039020838051906020012003613956576000818152600560208190526040822060019181019190915561394d91600690910190614cbc565b50600192915050565b8061396081615dcc565b9150506138e8565b60008381526001602052604081205481036139955760405162461bcd60e51b8152600401610cd590615ee9565b60006139a1858561180b565b905060005b81518110156139f057838282815181106139c2576139c2615d82565b602002602001015160000151036139de57600192505050610fb1565b806139e881615dcc565b9150506139a6565b50600095945050505050565b6000858152600160208190526040822060098054919392918390613a21908490615d6a565b918290555060028401805460018181018355600092835260209283902060099092029091018381558a519395509350613a6092908401918a0190614baa565b508551613a769060088301906020890190614baa565b50600281019790975550506001600786015560058501919091556006909301929092555050565b60606000600a546001600160401b03811115613abb57613abb6151cf565b604051908082528060200260200182016040528015613b2757816020015b613b146040518060c0016040528060008152602001606081526020016000815260200160008152602001600081526020016000151581525090565b815260200190600190039081613ad95790505b509050600060015b600a548111613c9757848051906020012060046000838152602001908152602001600020600101604051613b639190615ec1565b604051809103902003613c8557600460008281526020019081526020016000206040518060c001604052908160008201548152602001600182018054613ba890615d98565b80601f0160208091040260200160405190810160405280929190818152602001828054613bd490615d98565b8015613c215780601f10613bf657610100808354040283529160200191613c21565b820191906000526020600020905b815481529060010190602001808311613c0457829003601f168201915b505050918352505060028201546020820152600382015460408201526004820154606082015260059091015460ff1615156080909101528351849084908110613c6c57613c6c615d82565b6020908102919091010152613c82600183615d6a565b91505b80613c8f81615dcc565b915050613b2f565b50815292915050565b600081815260016020819052604082208281559190613cc190830182614cbc565b613ccf600283016000614cf9565b6003820160009055505050565b60005b6000848152600160205260409020600201548110156114b8576000848152600160205260409020600201805484919083908110613d1e57613d1e615d82565b90600052602060002090600902016000015403613f5e576000848152600160205260408120600201805483908110613d5857613d58615d82565b9060005260206000209060090201905060005b6003820154811015613f5b5783826003018281548110613d8d57613d8d615d82565b90600052602060002090600902016000015403613f4957600482018054906000613db683615f37565b9091555050600382018054613dcd90600190615f20565b81548110613ddd57613ddd615d82565b9060005260206000209060090201826003018281548110613e0057613e00615d82565b9060005260206000209060090201600082015481600001556001820181600101908054613e2c90615d98565b613e37929190614d1a565b506002820181600201908054613e4c90615d98565b613e57929190614d1a565b5060038281015490820155600480830154908201556005808301549082015560068083015490820155600780830154908201805460ff191660ff90921615159190911790556008808301805491830191613eb090615d98565b613ebb929190614d1a565b50505060038201805480613ed157613ed1615f4e565b60008281526020812060096000199093019283020181815590613ef76001830182614cbc565b613f05600283016000614cbc565b60006003830181905560048301819055600583018190556006830181905560078301805460ff19169055613f3d906008840190614cbc565b50509055505050505050565b80613f5381615dcc565b915050613d6b565b50505b80613f6881615dcc565b915050613cdf565b60005b6000838152600160205260409020600201548110156114d0576000838152600160205260409020600201805483919083908110613fb257613fb2615d82565b9060005260206000209060090201600001540361416957600083815260016020819052604090912060020180549091613fea91615f20565b81548110613ffa57613ffa615d82565b906000526020600020906009020160016000858152602001908152602001600020600201828154811061402f5761402f615d82565b906000526020600020906009020160008201548160000155600182018160010190805461405b90615d98565b614066929190614d1a565b50600282015481600201556003820181600301908054614087929190614d95565b506004820154816004015560058201548160050155600682015481600601556007820154816007015560088201816008019080546140c490615d98565b6140cf929190614d1a565b50505060008381526001602052604090206002018054806140f2576140f2615f4e565b600082815260208120600960001990930192830201818155906141186001830182614cbc565b60028201600090556003820160006141309190614e91565b60048201600090556005820160009055600682016000905560078201600090556008820160006141609190614cbc565b50509055505050565b8061417381615dcc565b915050613f73565b6005602052600090815260409020805460018201805491929161419d90615d98565b80601f01602080910402602001604051908101604052809291908181526020018280546141c990615d98565b80156142165780601f106141eb57610100808354040283529160200191614216565b820191906000526020600020905b8154815290600101906020018083116141f957829003601f168201915b50505050509080600201805461422b90615d98565b80601f016020809104026020016040519081016040528092919081815260200182805461425790615d98565b80156142a45780601f10614279576101008083540402835291602001916142a4565b820191906000526020600020905b81548152906001019060200180831161428757829003601f168201915b5050505050908060030154908060040180546142bf90615d98565b80601f01602080910402602001604051908101604052809291908181526020018280546142eb90615d98565b80156143385780601f1061430d57610100808354040283529160200191614338565b820191906000526020600020905b81548152906001019060200180831161431b57829003601f168201915b50505050509080600501549080600601805461435390615d98565b80601f016020809104026020016040519081016040528092919081815260200182805461437f90615d98565b80156143cc5780601f106143a1576101008083540402835291602001916143cc565b820191906000526020600020905b8154815290600101906020018083116143af57829003601f168201915b5050505050905087565b60008381526001602052604081205481036144035760405162461bcd60e51b8152600401610cd590615ee9565b600061440f858561180b565b905060005b81518110156139f0578382828151811061443057614430615d82565b6020026020010151606001510361444c57600192505050610fb1565b8061445681615dcc565b915050614414565b61446782611581565b6144aa5760405162461bcd60e51b81526020600482015260146024820152735573657220646f6573206e6f742065786973747360601b6044820152606401610cd5565b6000816040516020016144bd9190615ecd565b60408051601f198184030181529190528051602090910120905060015b600b5481116114b8576000818152600560205260409081902090516145029160010190615ec1565b604051809103902084805190602001200361453b5760008181526005602052604081206003810184905561453b91600690910190614cbc565b8061454581615dcc565b9150506144da565b60606000600b546001600160401b0381111561456b5761456b6151cf565b6040519080825280602002602001820160405280156145a457816020015b614591614c7c565b8152602001906001900390816145895790505b50905060015b600b54811161330c57600560008281526020019081526020016000206040518060e0016040529081600082015481526020016001820180546145eb90615d98565b80601f016020809104026020016040519081016040528092919081815260200182805461461790615d98565b80156146645780601f1061463957610100808354040283529160200191614664565b820191906000526020600020905b81548152906001019060200180831161464757829003601f168201915b5050505050815260200160028201805461467d90615d98565b80601f01602080910402602001604051908101604052809291908181526020018280546146a990615d98565b80156146f65780601f106146cb576101008083540402835291602001916146f6565b820191906000526020600020905b8154815290600101906020018083116146d957829003601f168201915b505050505081526020016003820154815260200160048201805461471990615d98565b80601f016020809104026020016040519081016040528092919081815260200182805461474590615d98565b80156147925780601f1061476757610100808354040283529160200191614792565b820191906000526020600020905b81548152906001019060200180831161477557829003601f168201915b50505050508152602001600582015481526020016006820180546147b590615d98565b80601f01602080910402602001604051908101604052809291908181526020018280546147e190615d98565b801561482e5780601f106148035761010080835404028352916020019161482e565b820191906000526020600020905b81548152906001019060200180831161481157829003601f168201915b505050505081525050826001836148459190615f20565b8151811061485557614855615d82565b6020026020010181905250808061486b90615dcc565b9150506145aa565b60015b600b5481116149035760008181526005602052604090819020905161489e9160020190615ec1565b60405180910390208580519060200120036148f15760405162461bcd60e51b81526020600482015260136024820152725573657220616c72656164792065786973747360681b6044820152606401610cd5565b806148fb81615dcc565b915050614876565b506001600b60008282546149179190615d6a565b9091555050604051600090614930908590602001615ecd565b60408051601f198184030181529181528151602092830120600b5460008181526005855292909220918255885190935090916149739160018401918a0190614baa565b5085516149899060028301906020890190614baa565b506003810182905583516149a69060048301906020870190614baa565b506000600582015582516149c39060068301906020860190614baa565b50600b547f56729c826fe77eec184059336ced13d9ef79d10126212c90a4d2b724391e14e2886040516149f6919061579d565b60405180910390a250505050505050565b60005b600087815260016020526040902060020154811015610f0d576000878152600160205260409020600201805487919083908110614a4957614a49615d82565b90600052602060002090600902016000015403614ad4576000878152600160205260408120600201805483908110614a8357614a83615d82565b9060005260206000209060090201905085816001019080519060200190614aab929190614baa565b508451614ac19060088301906020880190614baa565b5060058101849055600601829055610f0d565b80614ade81615dcc565b915050614a0a565b6000805b6020811015614b5457828160208110614b0557614b05615d82565b1a60f81b6001600160f81b031916848260208110614b2557614b25615d82565b1a60f81b6001600160f81b03191614614b42576000915050610ce5565b80614b4c81615dcc565b915050614aea565b5060019392505050565b6040518061012001604052806000815260200160608152602001600081526020016060815260200160008152602001600081526020016000815260200160008152602001606081525090565b828054614bb690615d98565b90600052602060002090601f016020900481019282614bd85760008555614c1e565b82601f10614bf157805160ff1916838001178555614c1e565b82800160010185558215614c1e579182015b82811115614c1e578251825591602001919060010190614c03565b50614c2a929150614eb2565b5090565b60405180610120016040528060008152602001606081526020016060815260200160008152602001600081526020016000815260200160008152602001600015158152602001606081525090565b6040518060e00160405280600081526020016060815260200160608152602001600080191681526020016060815260200160008152602001606081525090565b508054614cc890615d98565b6000825580601f10614cd8575050565b601f016020900490600052602060002090810190614cf69190614eb2565b50565b5080546000825560090290600052602060002090810190614cf69190614ec7565b828054614d2690615d98565b90600052602060002090601f016020900481019282614d485760008555614c1e565b82601f10614d595780548555614c1e565b82800160010185558215614c1e57600052602060002091601f016020900482015b82811115614c1e578254825591600101919060010190614d7a565b828054828255906000526020600020906009028101928215614e855760005260206000209160090282015b82811115614e855782548255600180840180548592859290830191614de490615d98565b614def929190614d1a565b506002820181600201908054614e0490615d98565b614e0f929190614d1a565b5060038281015490820155600480830154908201556005808301549082015560068083015490820155600780830154908201805460ff191660ff90921615159190911790556008808301805491830191614e6890615d98565b614e73929190614d1a565b50505091600901919060090190614dc0565b50614c2a929150614f32565b5080546000825560090290600052602060002090810190614cf69190614f32565b5b80821115614c2a5760008155600101614eb3565b80821115614c2a576000808255614ee16001830182614cbc565b6002820160009055600382016000614ef99190614e91565b6004820160009055600582016000905560068201600090556007820160009055600882016000614f299190614cbc565b50600901614ec7565b80821115614c2a576000808255614f4c6001830182614cbc565b614f5a600283016000614cbc565b60006003830181905560048301819055600583018190556006830181905560078301805460ff19169055614f92906008840190614cbc565b50600901614f32565b60005b83811015614fb6578181015183820152602001614f9e565b838111156114b85750506000910152565b60008151808452614fdf816020860160208601614f9b565b601f01601f19169290920160200192915050565b600061012082518452602083015181602086015261501382860182614fc7565b9150506040830151848203604086015261502d8282614fc7565b915050606083015160608501526080830151608085015260a083015160a085015260c083015160c085015260e083015161506b60e086018215159052565b5061010080840151858303828701526150848382614fc7565b9695505050505050565b600082825180855260208086019550808260051b84010181860160005b848110156150d957601f198684030189526150c7838351614ff3565b988401989250908301906001016150ab565b5090979650505050505050565b600061012082518452602083015181602086015261510682860182614fc7565b915050604083015160408501526060830151848203606086015261512a828261508e565b9150506080830151608085015260a083015160a085015260c083015160c085015260e083015160e085015261010080840151858303828701526150848382614fc7565b6000602080830181845280855180835260408601915060408160051b870101925083870160005b828110156151c257603f198886030184526151b08583516150e6565b94509285019290850190600101615194565b5092979650505050505050565b634e487b7160e01b600052604160045260246000fd5b60405161012081016001600160401b0381118282101715615208576152086151cf565b60405290565b604051601f8201601f191681016001600160401b0381118282101715615236576152366151cf565b604052919050565b600082601f83011261524f57600080fd5b81356001600160401b03811115615268576152686151cf565b61527b601f8201601f191660200161520e565b81815284602083860101111561529057600080fd5b816020850160208301376000918101602001919091529392505050565b6000602082840312156152bf57600080fd5b81356001600160401b038111156152d557600080fd5b6152e18482850161523e565b949350505050565b6000602080830181845280855180835260408601915060408160051b870101925083870160005b828110156151c257603f1988860301845261532c858351614ff3565b94509285019290850190600101615310565b6000806040838503121561535157600080fd5b82356001600160401b038082111561536857600080fd5b6153748683870161523e565b9350602085013591508082111561538a57600080fd5b506153978582860161523e565b9150509250929050565b600080600080600080600060e0888a0312156153bc57600080fd5b8735965060208801356001600160401b03808211156153da57600080fd5b6153e68b838c0161523e565b975060408a01359150808211156153fc57600080fd5b6154088b838c0161523e565b965060608a0135955060808a0135945060a08a0135935060c08a013591508082111561543357600080fd5b506154408a828b0161523e565b91505092959891949750929550565b805182526000602082015160e0602085015261546e60e0850182614fc7565b9050604083015184820360408601526154878282614fc7565b91505060608301516060850152608083015184820360808601526154ab8282614fc7565b91505060a083015160a085015260c083015184820360c08601526154cf8282614fc7565b95945050505050565b602081526000610fb1602083018461544f565b6000602082840312156154fd57600080fd5b5035919050565b6000806040838503121561551757600080fd5b50508035926020909101359150565b8035801515811461553657600080fd5b919050565b600082601f83011261554c57600080fd5b813560206001600160401b0380831115615568576155686151cf565b8260051b61557783820161520e565b938452858101830193838101908886111561559157600080fd5b84880192505b8583101561569c578235848111156155af5760008081fd5b8801610120818b03601f19018113156155c85760008081fd5b6155d06151e5565b878301358152604080840135888111156155ea5760008081fd5b6155f88e8b8388010161523e565b8a84015250606080850135898111156156115760008081fd5b61561f8f8c8389010161523e565b83850152506080915081850135818401525060a0808501358284015260c0915081850135818401525060e080850135828401526101009150615662828601615526565b908301529183013591878311156156795760008081fd5b6156878d8a8587010161523e565b90820152845250509184019190840190615597565b98975050505050505050565b6000602082840312156156ba57600080fd5b81356001600160401b03808211156156d157600080fd5b9083019061012082860312156156e657600080fd5b6156ee6151e5565b8235815260208301358281111561570457600080fd5b6157108782860161523e565b6020830152506040830135604082015260608301358281111561573257600080fd5b61573e8782860161553b565b6060830152506080830135608082015260a083013560a082015260c083013560c082015260e083013560e0820152610100808401358381111561578057600080fd5b61578c8882870161523e565b918301919091525095945050505050565b602081526000610fb16020830184614fc7565b8051825260006020808301516080828601526157cf6080860182614fc7565b9050604084015185820360408701528181518084528484019150848160051b850101858401935060005b8281101561582757601f198683030184526158158286516150e6565b948701949387019391506001016157f9565b50606088015160608a015280965050505050505092915050565b602081526000610fb160208301846157b0565b60008060006060848603121561586957600080fd5b505081359360208301359350604090920135919050565b602081526000610fb16020830184614ff3565b86815260c0602082015260006158ac60c0830188614fc7565b905085604083015284606083015283608083015282151560a0830152979650505050505050565b60008060008060008060c087890312156158ec57600080fd5b863595506020870135945060408701356001600160401b038082111561591157600080fd5b61591d8a838b0161523e565b9550606089013591508082111561593357600080fd5b61593f8a838b0161523e565b94506080890135935060a089013591508082111561595c57600080fd5b5061596989828a0161523e565b9150509295509295509295565b6000806040838503121561598957600080fd5b8235915060208301356001600160401b038111156159a657600080fd5b6153978582860161523e565b6000602080830181845280855180835260408601915060408160051b870101925083870160005b828110156151c257603f198886030184526159f58583516157b0565b945092850192908501906001016159d9565b602081526000610fb160208301846150e6565b600080600080600060a08688031215615a3257600080fd5b8535945060208601356001600160401b0380821115615a5057600080fd5b615a5c89838a0161523e565b95506040880135915080821115615a7257600080fd5b50615a7f8882890161523e565b9598949750949560608101359550608001359392505050565b60006020808301818452808551808352604092508286019150828160051b87010184880160005b83811015615b2b57603f19898403018552815160c08151855288820151818a870152615aed82870182614fc7565b838a0151878b0152606080850151908801526080808501519088015260a0938401511515939096019290925250509386019390860190600101615abf565b509098975050505050505050565b87815260e060208201526000615b5260e0830189614fc7565b8281036040840152615b648189614fc7565b90508660608401528281036080840152615b7e8187614fc7565b90508460a084015282810360c0840152615b988185614fc7565b9a9950505050505050505050565b6000602080830181845280855180835260408601915060408160051b870101925083870160005b828110156151c257603f19888603018452615be985835161544f565b94509285019290850190600101615bcd565b600080600080600060a08688031215615c1357600080fd5b85356001600160401b0380821115615c2a57600080fd5b615c3689838a0161523e565b96506020880135915080821115615c4c57600080fd5b615c5889838a0161523e565b95506040880135915080821115615c6e57600080fd5b615c7a89838a0161523e565b94506060880135915080821115615c9057600080fd5b615c9c89838a0161523e565b93506080880135915080821115615cb257600080fd5b50615cbf8882890161523e565b9150509295509295909350565b60008060008060008060c08789031215615ce557600080fd5b863595506020870135945060408701356001600160401b0380821115615d0a57600080fd5b615d168a838b0161523e565b95506060890135915080821115615d2c57600080fd5b50615d3989828a0161523e565b9350506080870135915060a087013590509295509295509295565b634e487b7160e01b600052601160045260246000fd5b60008219821115615d7d57615d7d615d54565b500190565b634e487b7160e01b600052603260045260246000fd5b600181811c90821680615dac57607f821691505b60208210810361330c57634e487b7160e01b600052602260045260246000fd5b600060018201615dde57615dde615d54565b5060010190565b60208082526024908201527f596f757220656d61696c206f722070617373776f726420697320696e636f72726040820152636563742160e01b606082015260800190565b8054600090600181811c9080831680615e4357607f831692505b60208084108203615e6457634e487b7160e01b600052602260045260246000fd5b818015615e785760018114615e8957615eb5565b60ff19861689528489019650615eb5565b876000528160002060005b86811015615ead5781548b820152908501908301615e94565b505084890196505b50505050505092915050565b6000610fb18284615e29565b60008251615edf818460208701614f9b565b9190910192915050565b60208082526017908201527f43617465676f727920646f6573206e6f74206578697374000000000000000000604082015260600190565b600082821015615f3257615f32615d54565b500390565b600081615f4657615f46615d54565b506000190190565b634e487b7160e01b600052603160045260246000fdfea26469706673582212209ea54def4764a4ec0702b475d4b9a8c23f281f5eb6be323256beac1dcd8b32c164736f6c634300080d0033",
  "immutableReferences": {},
  "source": "// SPDX-License-Identifier: MIT\r\npragma solidity >=0.4.22 <0.9.0;\r\n\r\ncontract VotingSystem {\r\n    address public owner;\r\n    struct Voter {\r\n        uint256 id;\r\n        string key;\r\n        string email;\r\n        bytes32 password;\r\n        string role;\r\n        uint256 status; // 0: no verify, 1: verified, 2:banned\r\n        string token;\r\n    }\r\n\r\n    struct Event {\r\n        uint256 eventId;\r\n        string eventName;\r\n        uint256 categoryId;\r\n        Candidate[] candidates;\r\n        uint256 candidateCount;\r\n        uint256 startDateTime;\r\n        uint256 endDateTime;\r\n        uint256 status; // 1: Upcoming, 2: In Progress, 3: Completed, 4 Cancel\r\n        string eventDesc;\r\n    }\r\n\r\n    struct Category {\r\n        uint256 categoryId;\r\n        string categoryName;\r\n        Event[] events; //category has many event\r\n        uint256 status;\r\n    }\r\n\r\n    struct Candidate {\r\n        uint256 id;\r\n        string name;\r\n        string description;\r\n        uint256 studentId;\r\n        uint256 categoryId;\r\n        uint256 eventId;\r\n        uint256 voteCount;\r\n        bool win;\r\n        string imageFileName;\r\n    }\r\n\r\n    struct voteEventStruct {\r\n        uint256 id;\r\n        string voterKey;\r\n        uint256 categoryId;\r\n        uint256 eventId;\r\n        uint256 votedCandidateId;\r\n        bool voted;\r\n    }\r\n\r\n    event CategoryAdded(uint256 indexed categoryId, string categoryName);\r\n\r\n    event VoterAdded(uint256 indexed voterId, string voter_key);\r\n    event EventAdded(uint256 indexed eventId, string eventName);\r\n\r\n    event CandidateAdded(uint256 indexed eventId, string eventName);\r\n\r\n    event VoteEvent(\r\n        string indexed _voterKey,\r\n        string indexed categoryEvent,\r\n        uint256 indexed candidate\r\n    );\r\n\r\n    mapping(uint256 => Category) categories;\r\n    mapping(uint256 => Event) events;\r\n    mapping(uint256 => Candidate) candidates;\r\n    mapping(uint256 => voteEventStruct) public voteEvents;\r\n    mapping(uint256 => Voter) public voters;\r\n    mapping(string => bool) private usedImageFileNames;\r\n\r\n    uint256 categoryCount;\r\n    uint256 candidateCount;\r\n    uint256 eventCount;\r\n    uint256 voteEventCount;\r\n    uint256 voterCount;\r\n\r\n    constructor() {\r\n        owner = msg.sender;\r\n        addVoter(\"\", \"superadmin@gmail.com\", \"SuperAdmin!123\", \"S\", \"\");\r\n    }\r\n\r\n    function addVoter(\r\n         string memory _key,\r\n         string memory _email,\r\n         string memory _password,\r\n         string memory _role,\r\n         string memory _token\r\n    ) public {\r\n         for (uint256 i = 1; i <= voterCount; i++) {\r\n            require(\r\n                keccak256(bytes(_email)) != keccak256(bytes(voters[i].email)),\r\n                \"User already exists\"\r\n            );\r\n         }\r\n\r\n         // total category plus 1, use it as the category's id\r\n         voterCount += 1;\r\n\r\n         bytes32 hashedPassword = keccak256(abi.encodePacked(_password));\r\n\r\n         // add the category details in the category list\r\n         Voter storage voter = voters[voterCount];\r\n         voter.id = voterCount;\r\n         voter.key = _key;\r\n         voter.email = _email;\r\n         voter.password = hashedPassword;\r\n         voter.role = _role;\r\n         voter.status = 0;\r\n         voter.token = _token;\r\n\r\n         // emit the category added event\r\n         emit VoterAdded(voterCount, _key);\r\n    }\r\n\r\n    function loginVoter(string memory _email, string memory _password)\r\n        public\r\n        view\r\n        returns (Voter memory)\r\n    {\r\n        Voter memory voterFound = getVoterByEmailPassword(_email, _password);\r\n        require(voterFound.id != 0, \"Your email or password is incorrect!\");\r\n        require(\r\n            voterFound.status == 1,\r\n            \"Your account was banned or not verify!\"\r\n        );\r\n        return voterFound;\r\n    }\r\n\r\n    function compareHashesPassword(bytes32 inputPassword, bytes32 password)\r\n        internal\r\n        pure\r\n        returns (bool)\r\n    {\r\n        for (uint256 i = 0; i < 32; i++) {\r\n            if (inputPassword[i] != password[i]) {\r\n                return false;\r\n            }\r\n        }\r\n        return true;\r\n    }\r\n\r\n    function getVoterByEmailPassword(\r\n        string memory _email,\r\n        string memory _password\r\n    ) public view returns (Voter memory) {\r\n        bytes32 hashedPassword = keccak256(abi.encodePacked(_password));\r\n        for (uint256 i = 1; i <= voterCount; i++) {\r\n            if (\r\n                keccak256(bytes(_email)) == keccak256(bytes(voters[i].email)) &&\r\n                compareHashesPassword(hashedPassword, voters[i].password)\r\n            ) {\r\n                return voters[i];\r\n            }\r\n        }\r\n\r\n        // Event not found in the specified category\r\n        return Voter(0, \"\", \"\", \"\", \"\", 0, \"\");\r\n    }\r\n\r\n    function getVoterEmailById(uint256 _voterId)\r\n        public\r\n        view\r\n        returns (string memory)\r\n    {\r\n        require(_voterId > 0 && _voterId <= voterCount, \"Invalid voter ID\");\r\n        return voters[_voterId].email;\r\n    }\r\n\r\n    function updateVoterPassword(string memory _key, string memory _password)\r\n        public\r\n    {\r\n        require(isVoterExist(_key), \"User does not exists\");\r\n\r\n        bytes32 hashedPassword = keccak256(abi.encodePacked(_password));\r\n        for (uint256 i = 1; i <= voterCount; i++) {\r\n            if (keccak256(bytes(_key)) == keccak256(bytes(voters[i].key))) {\r\n                voters[i].password = hashedPassword;\r\n                delete voters[i].token;\r\n            }\r\n        }\r\n    } \r\n\r\n    function verifyVoterAccount(string memory _token) public returns (bool) {\r\n        require(voters[1].id != 0, \"No voter in the list!\");\r\n        for (uint256 i = 1; i <= voterCount; i++) {\r\n            if (keccak256(bytes(_token)) == keccak256(bytes(voters[i].token))) {\r\n                voters[i].status = 1;\r\n                delete voters[i].token;\r\n                return true;\r\n            }\r\n        }\r\n        return false;\r\n    }\r\n\r\n    function getVoterStatus(string memory _email, string memory _password)\r\n        public\r\n        view\r\n        returns (uint256 status)\r\n    {\r\n        Voter memory voterFound = getVoterByEmailPassword(_email, _password);\r\n        require(voterFound.id != 0, \"Your email or password is incorrect!\");\r\n        return voterFound.status;\r\n    }\r\n\r\n    function checkVoterEmailPassword(\r\n        string memory _email,\r\n        string memory _password\r\n    ) public view returns (bool foundVoter) {\r\n        Voter memory voterFound = getVoterByEmailPassword(_email, _password);\r\n\r\n        if (voterFound.id != 0) {\r\n            return true;\r\n        }\r\n        return false;\r\n    }\r\n\r\n    function isVoterExist(string memory _key) public view returns (bool) {\r\n        for (uint256 i = 1; i <= voterCount; i++) {\r\n            if (keccak256(bytes(_key)) == keccak256(bytes(voters[i].key))) {\r\n                return true;\r\n            }\r\n        }\r\n        return false;\r\n    } \r\n\r\n    function getAllVoter() public view returns (Voter[] memory) {\r\n        Voter[] memory allVoters = new Voter[](voterCount);\r\n        for (uint256 i = 1; i <= voterCount; i++) {\r\n            allVoters[i - 1] = voters[i];\r\n        }\r\n        return allVoters;\r\n    }\r\n\r\n    /* function editUserStatus(uint256 _id, uint256 _status) public {\r\n        require(_id > 0 && _id <= voterCount, \"User does not exist.\");\r\n\r\n        voters[_id].status = _status;\r\n    } */\r\n\r\n    // Function to update the token of a voter based on their email\r\n    function updateVoterTokenByEmail(string memory _email, string memory _newToken) public {\r\n        for (uint256 i = 1; i <= voterCount; i++) {\r\n            // Update the token if the email matches\r\n            if (keccak256(bytes(_email)) == keccak256(bytes(voters[i].email))) {\r\n                voters[i].token = _newToken;\r\n                break;\r\n            }\r\n        }\r\n    }\r\n\r\n    function addCategory(string memory _categoryName) public {\r\n        // total category plus 1, use it as the category's id\r\n        categoryCount += 1;\r\n\r\n        // add the category details in the category list\r\n        Category storage category = categories[categoryCount];\r\n        category.categoryName = _categoryName;\r\n        category.categoryId = categoryCount;\r\n        category.status = 1;\r\n\r\n        // emit the category added event\r\n        emit CategoryAdded(categoryCount, _categoryName);\r\n    } \r\n\r\n    function updateCategory(uint256 _categoryId, string memory _categoryName) public {\r\n            categories[_categoryId].categoryName = _categoryName;\r\n    } \r\n\r\n    function deleteCategory(uint256 _categoryId) public {\r\n        // If no associated events, candidates, or vote events, delete the category\r\n        delete categories[_categoryId];\r\n    } \r\n\r\n    function getAllVotedHistory(string memory _userKey) public view returns (voteEventStruct[] memory) {\r\n        // Check if there are any candidates associated with the category\r\n        voteEventStruct[] memory voteEventFound = new voteEventStruct[](\r\n            voteEventCount\r\n        );\r\n        uint256 count = 0;\r\n        for (uint256 i = 1; i <= voteEventCount; i++) {\r\n            if ( keccak256(bytes(voteEvents[i].voterKey)) ==  keccak256(bytes(_userKey))) {\r\n                // Store the matching vote event in the array\r\n                voteEventFound[count] = voteEvents[i];\r\n                count += 1;\r\n            }\r\n        }\r\n\r\n        // Resize the array to remove any unused slots\r\n        assembly {\r\n            mstore(voteEventFound, count)\r\n        }\r\n\r\n        // Return the dynamic array of matching vote events\r\n        return voteEventFound;\r\n    }\r\n\r\n    function addEvent(\r\n        uint256 _categoryId,\r\n        string memory _eventName,\r\n        string memory _eventDesc,\r\n        uint256 _startDateTime,\r\n        uint256 _endDateTime\r\n    ) public {\r\n        // find out the category in list by using the paramerter category name\r\n        Category storage category = categories[_categoryId];\r\n\r\n        // add the event in the category list\r\n        uint256 eventId = eventCount += 1;\r\n\r\n        Event storage newEvent = category.events.push();\r\n        newEvent.eventId = eventId;\r\n        newEvent.eventName = _eventName;\r\n        newEvent.eventDesc = _eventDesc;\r\n        newEvent.categoryId = _categoryId;\r\n        newEvent.status = 1;\r\n        newEvent.startDateTime = _startDateTime;\r\n        newEvent.endDateTime = _endDateTime;\r\n    }\r\n\r\n/*\r\n    function isEventExists(uint256 _categoryId, string memory _eventName)\r\n        public\r\n        view\r\n        returns (bool)\r\n    {\r\n        // Check if the category exists\r\n        require(\r\n            categories[_categoryId].categoryId != 0,\r\n            \"Category does not exist\"\r\n        );\r\n\r\n        // Loop through the events in the specified category\r\n        for (uint256 i = 0; i < categories[_categoryId].events.length; i++) {\r\n            if (\r\n                keccak256(bytes(categories[_categoryId].events[i].eventName)) ==\r\n                keccak256(bytes(_eventName))\r\n            ) {\r\n                // Event found\r\n                return true;\r\n            }\r\n        }\r\n        // Event not found in the specified category\r\n        return false;\r\n    } */\r\n\r\n    // function isEventStart(\r\n    //     uint256 _categoryId,\r\n    //     string memory _eventName,\r\n    //     uint256 _startDateTime\r\n    // ) public view returns (bool) {\r\n    //     // Check if the category exists\r\n    //     require(\r\n    //         categories[_categoryId].categoryId != 0,\r\n    //         \"Category does not exist\"\r\n    //     );\r\n\r\n    //     require(\r\n    //         isEventExists(_categoryId, _eventName) == true,\r\n    //         \"Event does not exist\"\r\n    //     );\r\n\r\n    //     // Loop through the events in the specified category\r\n    //     for (uint256 i = 0; i < categories[_categoryId].events.length; i++) {\r\n    //         if (\r\n    //             (keccak256(\r\n    //                 bytes(categories[_categoryId].events[i].eventName)\r\n    //             ) ==\r\n    //                 keccak256(bytes(_eventName)) &&\r\n    //                 (_startDateTime >=\r\n    //                     categories[_categoryId].events[i].startDateTime))\r\n    //         ) {\r\n    //             return true;\r\n    //         }\r\n    //     }\r\n\r\n    //     // Event not found in the specified category\r\n    //     return false;\r\n    // }\r\n\r\n    function updateEventDetails(\r\n        uint256 _categoryId,\r\n        uint256 _eventId,\r\n        string memory _eventName,\r\n        string memory _eventDesc,\r\n        uint256 _startDateTime,\r\n        uint256 _endDateTime\r\n    ) public {\r\n        for (uint256 i = 0; i < categories[_categoryId].events.length; i++) {\r\n            if (categories[_categoryId].events[i].eventId == _eventId) {\r\n                Event storage eventToUpdate = categories[_categoryId].events[i];\r\n                // Update the event details\r\n                eventToUpdate.eventName = _eventName;\r\n                eventToUpdate.eventDesc = _eventDesc;\r\n                eventToUpdate.startDateTime = _startDateTime;\r\n                eventToUpdate.endDateTime = _endDateTime;\r\n                break;\r\n            }\r\n        }\r\n    }\r\n\r\n    function deleteEvent(uint256 _categoryId, uint256 _eventId) public {\r\n        for (uint256 i = 0; i < categories[_categoryId].events.length; i++) {\r\n            if (categories[_categoryId].events[i].eventId == _eventId) {\r\n                categories[_categoryId].events[i] = categories[_categoryId].events[categories[_categoryId].events.length - 1];\r\n                categories[_categoryId].events.pop();\r\n                break;\r\n            }\r\n        }\r\n    }\r\n\r\n    function updateEvent(Event memory _event) public {\r\n        // check if the category is exist\r\n        require(\r\n            categories[_event.categoryId].categoryId != 0,\r\n            \"Category does not exists\"\r\n        );\r\n        require(\r\n            isEventExists(_event.categoryId, _event.eventId),\r\n            \"Event does not exist!\"\r\n        );\r\n        // add the category details in the category list\r\n        Event storage eventToUpdate = categories[_event.categoryId].events[\r\n            _event.eventId - 1\r\n        ];\r\n\r\n        eventToUpdate.eventName = _event.eventName;\r\n        eventToUpdate.status = _event.status;\r\n    }\r\n\r\n    function addCandidateToEvent(\r\n        uint256 _categoryId,\r\n        uint256 _eventId,\r\n        string memory _candidateName,\r\n        string memory _description,\r\n        uint256 _studentId,\r\n        string memory _imageFileName\r\n    ) public {\r\n        candidateCount += 1;\r\n\r\n        // Create a new candidate\r\n        Candidate memory newCandidate = Candidate({\r\n            id: candidateCount,\r\n            name: _candidateName,\r\n            studentId: _studentId,\r\n            categoryId: _categoryId,\r\n            eventId: _eventId,\r\n            description: _description,\r\n            win: false,\r\n            voteCount: 0,\r\n            imageFileName: _imageFileName\r\n        });\r\n\r\n        // find the certain category\r\n        Category storage category = categories[_categoryId];\r\n        // find the certain event in certain category\r\n        for (uint256 i = 0; i < category.events.length; i++) {\r\n            if (category.events[i].eventId == _eventId) {\r\n                category.events[i].candidates.push(newCandidate);\r\n                category.events[i].candidateCount += 1;\r\n            }\r\n        }\r\n\r\n        // Mark the image file name as used\r\n        usedImageFileNames[_imageFileName] = true;\r\n    } \r\n\r\n    function updateCandidateDetails(\r\n        uint256 _id,\r\n        string memory _name,\r\n        string memory _description,\r\n        uint256 _studentId,\r\n        uint256 _categoryId,\r\n        uint256 _eventId,\r\n        string memory _imageFileName\r\n    ) public {\r\n        for (uint256 i = 0; i < categories[_categoryId].events.length; i++) {\r\n            if (categories[_categoryId].events[i].eventId == _eventId) {\r\n                Event storage myEvent = categories[_categoryId].events[i];\r\n\r\n                for (uint256 j = 0; j < myEvent.candidates.length; j++) {\r\n                    if (myEvent.candidates[j].id == _id) {\r\n                        Candidate storage candidateToUpdate = myEvent.candidates[j];\r\n                        candidateToUpdate.name = _name;\r\n                        candidateToUpdate.description = _description;\r\n                        candidateToUpdate.studentId = _studentId;\r\n\r\n                        if (bytes(_imageFileName).length > 0 && keccak256(bytes(candidateToUpdate.imageFileName)) != keccak256(bytes(_imageFileName))) {\r\n                            if (bytes(candidateToUpdate.imageFileName).length > 0) {\r\n                                usedImageFileNames[candidateToUpdate.imageFileName] = false;\r\n                            }\r\n                            candidateToUpdate.imageFileName = _imageFileName;\r\n                            usedImageFileNames[_imageFileName] = true;\r\n                        }\r\n                        return;\r\n                    }\r\n                }\r\n            }\r\n        }\r\n    }\r\n\r\n    function deleteCandidate(uint256 _categoryId, uint256 _eventId, uint256 _candidateId) public {\r\n        for (uint256 i = 0; i < categories[_categoryId].events.length; i++) {\r\n            if (categories[_categoryId].events[i].eventId == _eventId) {\r\n                Event storage myEvent = categories[_categoryId].events[i];\r\n\r\n                for (uint256 j = 0; j < myEvent.candidates.length; j++) {\r\n                    if (myEvent.candidates[j].id == _candidateId) {\r\n                        myEvent.candidateCount--;\r\n                        myEvent.candidates[j] = myEvent.candidates[myEvent.candidates.length - 1];\r\n                        myEvent.candidates.pop();\r\n                        return;\r\n                    }\r\n                }\r\n            }\r\n        }\r\n    }\r\n\r\n    function isImageFileNameUsed(string memory _imageFileName)\r\n        public\r\n        view\r\n        returns (bool)\r\n    {\r\n        return usedImageFileNames[_imageFileName];\r\n    } \r\n\r\n    function isCandidateExistsInEvent(\r\n        uint256 _categoryId,\r\n        uint256 _eventId,\r\n        uint256 _studentId\r\n    ) public view returns (bool) {\r\n        // Check if the category exists\r\n        require(\r\n            categories[_categoryId].categoryId != 0,\r\n            \"Category does not exist\"\r\n        );\r\n\r\n        Candidate[] memory candidatesFound = getAllCandidatesInEvent(\r\n            _categoryId,\r\n            _eventId\r\n        );\r\n\r\n        // Loop through the events in the specified category\r\n\r\n        for (uint256 i = 0; i < candidatesFound.length; i++) {\r\n            if (candidatesFound[i].studentId == _studentId) {\r\n                return true;\r\n            }\r\n        }\r\n\r\n        // Event not found in the specified category\r\n        return false;\r\n    }\r\n\r\n    function isCandidateExistsInEventById(\r\n        uint256 _categoryId,\r\n        uint256 _eventId,\r\n        uint256 _candidateId\r\n    ) public view returns (bool) {\r\n        // Check if the category exists\r\n        require(\r\n            categories[_categoryId].categoryId != 0,\r\n            \"Category does not exist\"\r\n        );\r\n\r\n        Candidate[] memory candidatesFound = getAllCandidatesInEvent(\r\n            _categoryId,\r\n            _eventId\r\n        );\r\n\r\n        // Loop through the events in the specified category\r\n\r\n        for (uint256 i = 0; i < candidatesFound.length; i++) {\r\n            if (candidatesFound[i].id == _candidateId) {\r\n                return true;\r\n            }\r\n        }\r\n\r\n        // Event not found in the specified category\r\n        return false;\r\n    }\r\n\r\n    function isEventExists(uint256 _categoryId, uint256 _eventId)\r\n        public\r\n        view\r\n        returns (bool)\r\n    {\r\n        // Check if the category exists\r\n        require(\r\n            categories[_categoryId].categoryId != 0,\r\n            \"Category does not exist\"\r\n        );\r\n\r\n        // Loop through the events in the specified category\r\n        for (uint256 i = 0; i < categories[_categoryId].events.length; i++) {\r\n            if (categories[_categoryId].events[i].eventId == _eventId) {\r\n                // Event found\r\n                return true;\r\n            }\r\n        }\r\n\r\n        // Event not found in the specified category\r\n        return false;\r\n    }\r\n\r\n    function getAllCategoryEvent(uint256 _categoryId)\r\n        public\r\n        view\r\n        returns (Event[] memory foundEvent)\r\n    {\r\n        // find the certain category\r\n        Category storage category = categories[_categoryId];\r\n\r\n        // declare an array variable for storing events\r\n        Event[] memory eventsFound = new Event[](category.events.length);\r\n\r\n        // get all the event name by searching the event in list\r\n        for (uint256 i = 0; i < category.events.length; i++) {\r\n            eventsFound[i] = category.events[i];\r\n        }\r\n\r\n        return (eventsFound);\r\n    }\r\n\r\n    function getAllCandidatesInEvent(uint256 _categoryId, uint256 _eventId)\r\n        public\r\n        view\r\n        returns (Candidate[] memory foundCandidates)\r\n    {\r\n        // find the certain category\r\n        Category storage category = categories[_categoryId];\r\n        // find the certain event in certain category\r\n        for (uint256 i = 0; i < category.events.length; i++) {\r\n            if (category.events[i].eventId == _eventId) {\r\n                Candidate[] memory candidatesFound = new Candidate[](\r\n                    category.events[i].candidateCount\r\n                );\r\n\r\n                for (\r\n                    uint256 j = 0;\r\n                    j < category.events[i].candidates.length;\r\n                    j++\r\n                ) {\r\n                    candidatesFound[j] = category.events[i].candidates[j];\r\n                }\r\n                return (candidatesFound);\r\n            }\r\n        }\r\n    }\r\n\r\n    function getAllCandidates() public view returns (Candidate[] memory) {\r\n        Candidate[] memory candidatesFound = new Candidate[](candidateCount);\r\n        Event[] memory eventFound = new Event[](eventCount);\r\n\r\n        // get all the events\r\n        eventFound = getAllEvent();\r\n        uint256 count = 0;\r\n        // find the candidates inside all the event\r\n        for (uint256 i = 0; i < eventCount; i++) {\r\n            for (uint256 j = 0; j < eventFound[i].candidates.length; j++) {\r\n                candidatesFound[count] = eventFound[i].candidates[j];\r\n                count += 1;\r\n            }\r\n        }\r\n\r\n        return candidatesFound;\r\n    }\r\n\r\n    function getAllCategory() public view returns (Category[] memory) {\r\n        //Candidate[] memory candidatesFound = new Candidate[](candidateCount);\r\n        Category[] memory categoriesFound = new Category[](categoryCount);\r\n        // Iterate through all stored structs\r\n        for (uint256 i = 1; i <= categoryCount; i++) {\r\n            categoriesFound[i - 1] = categories[i];\r\n        }\r\n\r\n        return categoriesFound;\r\n    }\r\n\r\n    function getCategoryById(uint256 _categoryId)\r\n        public\r\n        view\r\n        returns (Category memory)\r\n    {\r\n        return categories[_categoryId];\r\n    }\r\n\r\n    function getAllEvent() public view returns (Event[] memory) {\r\n        // Initialize the array with the correct size\r\n        Event[] memory eventFound = new Event[](eventCount);\r\n        uint256 count = 0;\r\n\r\n        // Iterate through all categories and events\r\n        for (uint256 i = 0; i < categoryCount; i++) {\r\n            for (uint256 j = 0; j < categories[i + 1].events.length; j++) {\r\n                eventFound[count] = categories[i + 1].events[j];\r\n                count += 1;\r\n            }\r\n        }\r\n\r\n        return eventFound;\r\n    }\r\n\r\n    function getEventById(uint256 _categoryId, uint256 _eventId)\r\n        public\r\n        view\r\n        returns (Event memory)\r\n    {\r\n        Category memory categoriesFound = categories[_categoryId];\r\n        Event memory eventFound;\r\n        // Iterate through all stored structs\r\n        for (uint256 i = 0; i < categoriesFound.events.length; i++) {\r\n            if (categoriesFound.events[i].eventId == _eventId) {\r\n                eventFound = categoriesFound.events[i];\r\n            }\r\n        }\r\n\r\n        return eventFound;\r\n    }\r\n\r\n\r\n    function getCandidateById(uint256 _categoryId, uint256 _eventId, uint256 _candidateId)\r\n        public\r\n        view\r\n        returns (Candidate memory)\r\n    {\r\n        Category memory categoryFound = categories[_categoryId];\r\n        Event memory eventFound;\r\n        Candidate memory candidateFound;\r\n\r\n        for (uint256 i = 0; i < categoryFound.events.length; i++) {\r\n            if (categoryFound.events[i].eventId == _eventId) {\r\n                eventFound = categoryFound.events[i];\r\n                for (uint256 j = 0; j < eventFound.candidates.length; j++) {\r\n                    if (eventFound.candidates[j].id == _candidateId) {\r\n                        candidateFound = eventFound.candidates[j];\r\n                        break; // Candidate found, break from the inner loop\r\n                    }\r\n                }\r\n                break; // Event found, break from the outer loop\r\n            }\r\n        }\r\n\r\n        return candidateFound;\r\n    }\r\n\r\n    /* function vote(\r\n        string memory _voterKey,\r\n        uint256 _candidateId,\r\n        uint256 _categoryId,\r\n        uint256 _eventId\r\n    ) external {\r\n        require(\r\n            categories[_categoryId].categoryId != 0,\r\n            \"Category does not exists\"\r\n        );\r\n\r\n        require(eventCount != 0, \"Event does not exists\");\r\n\r\n        // for (uint256 i = 1; i <= categories[_categoryId].events.length; i++) {\r\n        //     require(categories[_categoryId].events[i-0].eventId == _eventId, \"noobbbbb\");\r\n        // }\r\n\r\n        require(\r\n            isCandidateExistsInEventById(_categoryId, _eventId, _candidateId) ==\r\n                true,\r\n            \"Candidates does not exists\"\r\n        );\r\n\r\n        // check if has voted\r\n        for (uint256 i = 1; i <= voteEventCount; i++) {\r\n            if (\r\n                keccak256(bytes(_voterKey)) ==\r\n                keccak256(bytes(voteEvents[i].voterKey)) &&\r\n                _categoryId == voteEvents[i].categoryId &&\r\n                _eventId == voteEvents[i].eventId\r\n            ) {\r\n                require(!voteEvents[i].voted, \"You already voted\");\r\n                break;\r\n            }\r\n        }\r\n\r\n        // add count on the candidate\r\n        voteEventCount += 1;\r\n\r\n        // Create a new voteEventStruct\r\n        voteEventStruct memory newVoteEvent = voteEventStruct({\r\n            id: voteEventCount,\r\n            voterKey: _voterKey,\r\n            categoryId: _categoryId,\r\n            eventId: _eventId,\r\n            votedCandidateId : _candidateId,\r\n            voted: true\r\n        });\r\n\r\n        voteEvents[voteEventCount] = newVoteEvent;\r\n\r\n        // add the vote count of the chosen candidate\r\n        addVoteCountIn(_categoryId, _eventId, _candidateId);\r\n\r\n        string memory concatenatedValues = string(\r\n            abi.encodePacked(_categoryId, _eventId)\r\n        );\r\n\r\n        emit VoteEvent(_voterKey, concatenatedValues, _candidateId);\r\n    }\r\n\r\n    function addVoteCountIn(\r\n        uint256 _categoryId,\r\n        uint256 _eventId,\r\n        uint256 _candidateId\r\n    ) internal {\r\n        // get the events inside the categories\r\n        Event[] storage eventsFound = categories[_categoryId].events;\r\n\r\n        // find the event with param\r\n        for (uint256 i = 0; i < eventsFound.length; i++) {\r\n            if (eventsFound[i].eventId == _eventId) {\r\n                // get the candidate inside the event\r\n                Candidate[] storage candidatesFound = eventsFound[i].candidates;\r\n                // find the candidate\r\n                for (uint256 j = 0; j < candidatesFound.length; j++) {\r\n                    if (candidatesFound[j].id == _candidateId) {\r\n                        // found the candidate and plus 1 at the voteCount\r\n                        candidatesFound[j].voteCount += 1;\r\n                        break;\r\n                    }\r\n                }\r\n            }\r\n        }\r\n    }\r\n\r\n    function isVoted(\r\n        uint256 _categoryId,\r\n        uint256 _eventId,\r\n        string memory _voterKey\r\n    ) public view returns (bool) {\r\n        // Check if the category exists\r\n        require(\r\n            categories[_categoryId].categoryId != 0,\r\n            \"Category does not exist\"\r\n        );\r\n\r\n        for (uint256 i = 1; i <= voteEventCount; i++) {\r\n            if (\r\n                voteEvents[i].categoryId == _categoryId &&\r\n                voteEvents[i].eventId == _eventId &&\r\n                keccak256(bytes(voteEvents[i].voterKey)) ==\r\n                keccak256(bytes(_voterKey))\r\n            ) {\r\n                return voteEvents[i].voted;\r\n            }\r\n        }\r\n\r\n        return false;\r\n    }\r\n\r\n    function getVoteEventCandidate(uint256 _categoryId, uint256 _eventId)\r\n        public\r\n        view\r\n        returns (Candidate[] memory)\r\n    {\r\n        Event[] memory eventsFound = categories[_categoryId].events;\r\n\r\n        for (uint256 i = 0; i < eventsFound.length; i++) {\r\n            if (eventsFound[i].eventId == _eventId) {\r\n                return eventsFound[i].candidates;\r\n            }\r\n        }\r\n\r\n        // If the event is not found, return an empty array or handle the situation accordingly\r\n        return new Candidate[](0);\r\n    }\r\n\r\n    function markWinner(uint256 _categoryId, uint256 _eventId) public {\r\n        categories[_categoryId].events;\r\n\r\n        for (uint256 i = 0; i < categories[_categoryId].events.length; i++) {\r\n            if (categories[_categoryId].events[i].eventId == _eventId) {\r\n                Candidate storage winner = categories[_categoryId]\r\n                    .events[i]\r\n                    .candidates[0];\r\n                for (\r\n                    uint256 j = 0;\r\n                    j < categories[_categoryId].events[i].candidates.length - 1;\r\n                    j++\r\n                ) {\r\n                    if (\r\n                        winner.voteCount <\r\n                        categories[_categoryId]\r\n                            .events[i]\r\n                            .candidates[j + 1]\r\n                            .voteCount\r\n                    ) {\r\n                        winner = categories[_categoryId].events[i].candidates[\r\n                            j + 1\r\n                        ];\r\n                    }\r\n                }\r\n                winner.win = true;\r\n            }\r\n        }\r\n    }\r\n\r\n    function isMarkWinner(uint256 _categoryId, uint256 _eventId)\r\n        public\r\n        view\r\n        returns (bool isMarket)\r\n    {\r\n        Event[] memory eventsFound = categories[_categoryId].events;\r\n        Candidate[] memory candidatesFound;\r\n\r\n        for (uint256 i = 0; i < eventsFound.length; i++) {\r\n            if (eventsFound[i].eventId == _eventId) {\r\n                candidatesFound = eventsFound[i].candidates;\r\n            }\r\n        }\r\n\r\n        for (uint256 i = 0; i < candidatesFound.length - 1; i++) {\r\n            if (candidatesFound[i].win == true) {\r\n                return true;\r\n            }\r\n        }\r\n        return false;\r\n    }\r\n\r\n    function whoIsTheWinner(uint256 _categoryId, uint256 _eventId)\r\n        public\r\n        view\r\n        returns (Candidate memory)\r\n    {\r\n        Event[] memory eventsFound = categories[_categoryId].events;\r\n        Candidate[] memory candidatesFound;\r\n\r\n        for (uint256 i = 0; i < eventsFound.length; i++) {\r\n            if (eventsFound[i].eventId == _eventId) {\r\n                candidatesFound = eventsFound[i].candidates;\r\n            }\r\n        }\r\n\r\n        Candidate memory winner = candidatesFound[0];\r\n\r\n        for (uint256 i = 0; i < candidatesFound.length - 1; i++) {\r\n            if (winner.voteCount < candidatesFound[i + 1].voteCount) {\r\n                winner = candidatesFound[i + 1];\r\n            }\r\n        }\r\n\r\n        winner.win = true;\r\n\r\n        return winner;\r\n    } */\r\n}",
  "sourcePath": "C:\\Users\\User\\FYP1\\contracts\\VotingSystem.sol",
  "compiler": {
    "name": "solc",
    "version": "0.8.13+commit.abaa5c0e.Emscripten.clang"
  },
  "schemaVersion": "3.4.16",
  "updatedAt": "2023-12-21T12:30:59.958Z",
  "networkType": "ethereum",
  "devdoc": {
    "kind": "dev",
    "methods": {},
    "version": 1
  },
  "userdoc": {
    "kind": "user",
    "methods": {},
    "version": 1
  }
}