{
  "contractName": "VotingSystem",
  "abi": [
    {
      "anonymous": false,
      "inputs": [
        {
          "indexed": true,
          "internalType": "uint256",
          "name": "eventId",
          "type": "uint256"
        },
        {
          "indexed": false,
          "internalType": "string",
          "name": "eventName",
          "type": "string"
        }
      ],
      "name": "CandidateAdded",
      "type": "event"
    },
    {
      "anonymous": false,
      "inputs": [
        {
          "indexed": true,
          "internalType": "uint256",
          "name": "categoryId",
          "type": "uint256"
        },
        {
          "indexed": false,
          "internalType": "string",
          "name": "categoryName",
          "type": "string"
        }
      ],
      "name": "CategoryAdded",
      "type": "event"
    },
    {
      "anonymous": false,
      "inputs": [
        {
          "indexed": true,
          "internalType": "uint256",
          "name": "eventId",
          "type": "uint256"
        },
        {
          "indexed": false,
          "internalType": "string",
          "name": "eventName",
          "type": "string"
        }
      ],
      "name": "EventAdded",
      "type": "event"
    },
    {
      "anonymous": false,
      "inputs": [
        {
          "indexed": true,
          "internalType": "uint256",
          "name": "voterId",
          "type": "uint256"
        },
        {
          "indexed": true,
          "internalType": "string",
          "name": "categoryEvent",
          "type": "string"
        },
        {
          "indexed": true,
          "internalType": "uint256",
          "name": "candidate",
          "type": "uint256"
        }
      ],
      "name": "VoteEvent",
      "type": "event"
    },
    {
      "inputs": [
        {
          "internalType": "uint256",
          "name": "",
          "type": "uint256"
        }
      ],
      "name": "voteEvents",
      "outputs": [
        {
          "internalType": "uint256",
          "name": "id",
          "type": "uint256"
        },
        {
          "internalType": "uint256",
          "name": "voterId",
          "type": "uint256"
        },
        {
          "internalType": "uint256",
          "name": "categoryId",
          "type": "uint256"
        },
        {
          "internalType": "uint256",
          "name": "eventId",
          "type": "uint256"
        },
        {
          "internalType": "bool",
          "name": "voted",
          "type": "bool"
        }
      ],
      "stateMutability": "view",
      "type": "function"
    },
    {
      "inputs": [
        {
          "internalType": "string",
          "name": "_categoryName",
          "type": "string"
        }
      ],
      "name": "addCategory",
      "outputs": [],
      "stateMutability": "nonpayable",
      "type": "function"
    },
    {
      "inputs": [
        {
          "internalType": "uint256",
          "name": "_categoryId",
          "type": "uint256"
        },
        {
          "internalType": "string",
          "name": "_eventName",
          "type": "string"
        }
      ],
      "name": "addEvent",
      "outputs": [],
      "stateMutability": "nonpayable",
      "type": "function"
    },
    {
      "inputs": [
        {
          "internalType": "uint256",
          "name": "_categoryId",
          "type": "uint256"
        },
        {
          "internalType": "uint256",
          "name": "_eventId",
          "type": "uint256"
        },
        {
          "internalType": "string",
          "name": "_candidateName",
          "type": "string"
        },
        {
          "internalType": "string",
          "name": "_description",
          "type": "string"
        },
        {
          "internalType": "uint256",
          "name": "_studentId",
          "type": "uint256"
        }
      ],
      "name": "addCandidateToEvent",
      "outputs": [],
      "stateMutability": "nonpayable",
      "type": "function"
    },
    {
      "inputs": [
        {
          "internalType": "uint256",
          "name": "_categoryId",
          "type": "uint256"
        },
        {
          "internalType": "uint256",
          "name": "_eventId",
          "type": "uint256"
        },
        {
          "internalType": "uint256",
          "name": "_studentId",
          "type": "uint256"
        }
      ],
      "name": "isCandidateExistsInEvent",
      "outputs": [
        {
          "internalType": "bool",
          "name": "",
          "type": "bool"
        }
      ],
      "stateMutability": "view",
      "type": "function"
    },
    {
      "inputs": [
        {
          "internalType": "uint256",
          "name": "_categoryId",
          "type": "uint256"
        },
        {
          "internalType": "uint256",
          "name": "_eventId",
          "type": "uint256"
        },
        {
          "internalType": "uint256",
          "name": "_candidateId",
          "type": "uint256"
        }
      ],
      "name": "isCandidateExistsInEventById",
      "outputs": [
        {
          "internalType": "bool",
          "name": "",
          "type": "bool"
        }
      ],
      "stateMutability": "view",
      "type": "function"
    },
    {
      "inputs": [
        {
          "internalType": "uint256",
          "name": "_categoryId",
          "type": "uint256"
        },
        {
          "internalType": "uint256",
          "name": "_eventId",
          "type": "uint256"
        }
      ],
      "name": "isEventExists",
      "outputs": [
        {
          "internalType": "bool",
          "name": "",
          "type": "bool"
        }
      ],
      "stateMutability": "view",
      "type": "function"
    },
    {
      "inputs": [
        {
          "internalType": "uint256",
          "name": "_categoryId",
          "type": "uint256"
        },
        {
          "internalType": "string",
          "name": "_eventName",
          "type": "string"
        }
      ],
      "name": "isEventExists",
      "outputs": [
        {
          "internalType": "bool",
          "name": "",
          "type": "bool"
        }
      ],
      "stateMutability": "view",
      "type": "function"
    },
    {
      "inputs": [
        {
          "internalType": "uint256",
          "name": "_categoryId",
          "type": "uint256"
        }
      ],
      "name": "getAllCategoryEvent",
      "outputs": [
        {
          "components": [
            {
              "internalType": "uint256",
              "name": "eventId",
              "type": "uint256"
            },
            {
              "internalType": "string",
              "name": "eventName",
              "type": "string"
            },
            {
              "internalType": "uint256",
              "name": "categoryId",
              "type": "uint256"
            },
            {
              "components": [
                {
                  "internalType": "uint256",
                  "name": "id",
                  "type": "uint256"
                },
                {
                  "internalType": "string",
                  "name": "name",
                  "type": "string"
                },
                {
                  "internalType": "string",
                  "name": "description",
                  "type": "string"
                },
                {
                  "internalType": "uint256",
                  "name": "studentId",
                  "type": "uint256"
                },
                {
                  "internalType": "uint256",
                  "name": "categoryId",
                  "type": "uint256"
                },
                {
                  "internalType": "uint256",
                  "name": "eventId",
                  "type": "uint256"
                },
                {
                  "internalType": "uint256",
                  "name": "voteCount",
                  "type": "uint256"
                },
                {
                  "internalType": "bool",
                  "name": "win",
                  "type": "bool"
                }
              ],
              "internalType": "struct VotingSystem.Candidate[]",
              "name": "candidates",
              "type": "tuple[]"
            },
            {
              "internalType": "uint256",
              "name": "candidateCount",
              "type": "uint256"
            }
          ],
          "internalType": "struct VotingSystem.Event[]",
          "name": "foundEvent",
          "type": "tuple[]"
        }
      ],
      "stateMutability": "view",
      "type": "function"
    },
    {
      "inputs": [
        {
          "internalType": "uint256",
          "name": "_categoryId",
          "type": "uint256"
        },
        {
          "internalType": "uint256",
          "name": "_eventId",
          "type": "uint256"
        }
      ],
      "name": "getAllCandidatesInEvent",
      "outputs": [
        {
          "components": [
            {
              "internalType": "uint256",
              "name": "id",
              "type": "uint256"
            },
            {
              "internalType": "string",
              "name": "name",
              "type": "string"
            },
            {
              "internalType": "string",
              "name": "description",
              "type": "string"
            },
            {
              "internalType": "uint256",
              "name": "studentId",
              "type": "uint256"
            },
            {
              "internalType": "uint256",
              "name": "categoryId",
              "type": "uint256"
            },
            {
              "internalType": "uint256",
              "name": "eventId",
              "type": "uint256"
            },
            {
              "internalType": "uint256",
              "name": "voteCount",
              "type": "uint256"
            },
            {
              "internalType": "bool",
              "name": "win",
              "type": "bool"
            }
          ],
          "internalType": "struct VotingSystem.Candidate[]",
          "name": "foundCandidates",
          "type": "tuple[]"
        }
      ],
      "stateMutability": "view",
      "type": "function"
    },
    {
      "inputs": [],
      "name": "getAllCandidates",
      "outputs": [
        {
          "components": [
            {
              "internalType": "uint256",
              "name": "id",
              "type": "uint256"
            },
            {
              "internalType": "string",
              "name": "name",
              "type": "string"
            },
            {
              "internalType": "string",
              "name": "description",
              "type": "string"
            },
            {
              "internalType": "uint256",
              "name": "studentId",
              "type": "uint256"
            },
            {
              "internalType": "uint256",
              "name": "categoryId",
              "type": "uint256"
            },
            {
              "internalType": "uint256",
              "name": "eventId",
              "type": "uint256"
            },
            {
              "internalType": "uint256",
              "name": "voteCount",
              "type": "uint256"
            },
            {
              "internalType": "bool",
              "name": "win",
              "type": "bool"
            }
          ],
          "internalType": "struct VotingSystem.Candidate[]",
          "name": "",
          "type": "tuple[]"
        }
      ],
      "stateMutability": "view",
      "type": "function"
    },
    {
      "inputs": [],
      "name": "getAllCategory",
      "outputs": [
        {
          "components": [
            {
              "internalType": "uint256",
              "name": "categoryId",
              "type": "uint256"
            },
            {
              "internalType": "string",
              "name": "categoryName",
              "type": "string"
            },
            {
              "components": [
                {
                  "internalType": "uint256",
                  "name": "eventId",
                  "type": "uint256"
                },
                {
                  "internalType": "string",
                  "name": "eventName",
                  "type": "string"
                },
                {
                  "internalType": "uint256",
                  "name": "categoryId",
                  "type": "uint256"
                },
                {
                  "components": [
                    {
                      "internalType": "uint256",
                      "name": "id",
                      "type": "uint256"
                    },
                    {
                      "internalType": "string",
                      "name": "name",
                      "type": "string"
                    },
                    {
                      "internalType": "string",
                      "name": "description",
                      "type": "string"
                    },
                    {
                      "internalType": "uint256",
                      "name": "studentId",
                      "type": "uint256"
                    },
                    {
                      "internalType": "uint256",
                      "name": "categoryId",
                      "type": "uint256"
                    },
                    {
                      "internalType": "uint256",
                      "name": "eventId",
                      "type": "uint256"
                    },
                    {
                      "internalType": "uint256",
                      "name": "voteCount",
                      "type": "uint256"
                    },
                    {
                      "internalType": "bool",
                      "name": "win",
                      "type": "bool"
                    }
                  ],
                  "internalType": "struct VotingSystem.Candidate[]",
                  "name": "candidates",
                  "type": "tuple[]"
                },
                {
                  "internalType": "uint256",
                  "name": "candidateCount",
                  "type": "uint256"
                }
              ],
              "internalType": "struct VotingSystem.Event[]",
              "name": "events",
              "type": "tuple[]"
            }
          ],
          "internalType": "struct VotingSystem.Category[]",
          "name": "",
          "type": "tuple[]"
        }
      ],
      "stateMutability": "view",
      "type": "function"
    },
    {
      "inputs": [
        {
          "internalType": "uint256",
          "name": "_categoryId",
          "type": "uint256"
        }
      ],
      "name": "getCategoryById",
      "outputs": [
        {
          "components": [
            {
              "internalType": "uint256",
              "name": "categoryId",
              "type": "uint256"
            },
            {
              "internalType": "string",
              "name": "categoryName",
              "type": "string"
            },
            {
              "components": [
                {
                  "internalType": "uint256",
                  "name": "eventId",
                  "type": "uint256"
                },
                {
                  "internalType": "string",
                  "name": "eventName",
                  "type": "string"
                },
                {
                  "internalType": "uint256",
                  "name": "categoryId",
                  "type": "uint256"
                },
                {
                  "components": [
                    {
                      "internalType": "uint256",
                      "name": "id",
                      "type": "uint256"
                    },
                    {
                      "internalType": "string",
                      "name": "name",
                      "type": "string"
                    },
                    {
                      "internalType": "string",
                      "name": "description",
                      "type": "string"
                    },
                    {
                      "internalType": "uint256",
                      "name": "studentId",
                      "type": "uint256"
                    },
                    {
                      "internalType": "uint256",
                      "name": "categoryId",
                      "type": "uint256"
                    },
                    {
                      "internalType": "uint256",
                      "name": "eventId",
                      "type": "uint256"
                    },
                    {
                      "internalType": "uint256",
                      "name": "voteCount",
                      "type": "uint256"
                    },
                    {
                      "internalType": "bool",
                      "name": "win",
                      "type": "bool"
                    }
                  ],
                  "internalType": "struct VotingSystem.Candidate[]",
                  "name": "candidates",
                  "type": "tuple[]"
                },
                {
                  "internalType": "uint256",
                  "name": "candidateCount",
                  "type": "uint256"
                }
              ],
              "internalType": "struct VotingSystem.Event[]",
              "name": "events",
              "type": "tuple[]"
            }
          ],
          "internalType": "struct VotingSystem.Category",
          "name": "",
          "type": "tuple"
        }
      ],
      "stateMutability": "view",
      "type": "function"
    },
    {
      "inputs": [],
      "name": "getAllEvent",
      "outputs": [
        {
          "components": [
            {
              "internalType": "uint256",
              "name": "eventId",
              "type": "uint256"
            },
            {
              "internalType": "string",
              "name": "eventName",
              "type": "string"
            },
            {
              "internalType": "uint256",
              "name": "categoryId",
              "type": "uint256"
            },
            {
              "components": [
                {
                  "internalType": "uint256",
                  "name": "id",
                  "type": "uint256"
                },
                {
                  "internalType": "string",
                  "name": "name",
                  "type": "string"
                },
                {
                  "internalType": "string",
                  "name": "description",
                  "type": "string"
                },
                {
                  "internalType": "uint256",
                  "name": "studentId",
                  "type": "uint256"
                },
                {
                  "internalType": "uint256",
                  "name": "categoryId",
                  "type": "uint256"
                },
                {
                  "internalType": "uint256",
                  "name": "eventId",
                  "type": "uint256"
                },
                {
                  "internalType": "uint256",
                  "name": "voteCount",
                  "type": "uint256"
                },
                {
                  "internalType": "bool",
                  "name": "win",
                  "type": "bool"
                }
              ],
              "internalType": "struct VotingSystem.Candidate[]",
              "name": "candidates",
              "type": "tuple[]"
            },
            {
              "internalType": "uint256",
              "name": "candidateCount",
              "type": "uint256"
            }
          ],
          "internalType": "struct VotingSystem.Event[]",
          "name": "",
          "type": "tuple[]"
        }
      ],
      "stateMutability": "view",
      "type": "function"
    },
    {
      "inputs": [
        {
          "internalType": "uint256",
          "name": "_categoryId",
          "type": "uint256"
        },
        {
          "internalType": "uint256",
          "name": "_eventId",
          "type": "uint256"
        }
      ],
      "name": "getEventById",
      "outputs": [
        {
          "components": [
            {
              "internalType": "uint256",
              "name": "eventId",
              "type": "uint256"
            },
            {
              "internalType": "string",
              "name": "eventName",
              "type": "string"
            },
            {
              "internalType": "uint256",
              "name": "categoryId",
              "type": "uint256"
            },
            {
              "components": [
                {
                  "internalType": "uint256",
                  "name": "id",
                  "type": "uint256"
                },
                {
                  "internalType": "string",
                  "name": "name",
                  "type": "string"
                },
                {
                  "internalType": "string",
                  "name": "description",
                  "type": "string"
                },
                {
                  "internalType": "uint256",
                  "name": "studentId",
                  "type": "uint256"
                },
                {
                  "internalType": "uint256",
                  "name": "categoryId",
                  "type": "uint256"
                },
                {
                  "internalType": "uint256",
                  "name": "eventId",
                  "type": "uint256"
                },
                {
                  "internalType": "uint256",
                  "name": "voteCount",
                  "type": "uint256"
                },
                {
                  "internalType": "bool",
                  "name": "win",
                  "type": "bool"
                }
              ],
              "internalType": "struct VotingSystem.Candidate[]",
              "name": "candidates",
              "type": "tuple[]"
            },
            {
              "internalType": "uint256",
              "name": "candidateCount",
              "type": "uint256"
            }
          ],
          "internalType": "struct VotingSystem.Event",
          "name": "",
          "type": "tuple"
        }
      ],
      "stateMutability": "view",
      "type": "function"
    },
    {
      "inputs": [
        {
          "internalType": "uint256",
          "name": "_voterId",
          "type": "uint256"
        },
        {
          "internalType": "uint256",
          "name": "_candidateId",
          "type": "uint256"
        },
        {
          "internalType": "uint256",
          "name": "_categoryId",
          "type": "uint256"
        },
        {
          "internalType": "uint256",
          "name": "_eventId",
          "type": "uint256"
        }
      ],
      "name": "vote",
      "outputs": [],
      "stateMutability": "nonpayable",
      "type": "function"
    },
    {
      "inputs": [
        {
          "internalType": "uint256",
          "name": "_candidateId",
          "type": "uint256"
        }
      ],
      "name": "getCandidateVoteCount",
      "outputs": [
        {
          "internalType": "uint256",
          "name": "count",
          "type": "uint256"
        }
      ],
      "stateMutability": "view",
      "type": "function"
    },
    {
      "inputs": [
        {
          "internalType": "uint256",
          "name": "_categoryId",
          "type": "uint256"
        },
        {
          "internalType": "uint256",
          "name": "_eventId",
          "type": "uint256"
        }
      ],
      "name": "getVoteEventCandidate",
      "outputs": [
        {
          "components": [
            {
              "internalType": "uint256",
              "name": "id",
              "type": "uint256"
            },
            {
              "internalType": "string",
              "name": "name",
              "type": "string"
            },
            {
              "internalType": "string",
              "name": "description",
              "type": "string"
            },
            {
              "internalType": "uint256",
              "name": "studentId",
              "type": "uint256"
            },
            {
              "internalType": "uint256",
              "name": "categoryId",
              "type": "uint256"
            },
            {
              "internalType": "uint256",
              "name": "eventId",
              "type": "uint256"
            },
            {
              "internalType": "uint256",
              "name": "voteCount",
              "type": "uint256"
            },
            {
              "internalType": "bool",
              "name": "win",
              "type": "bool"
            }
          ],
          "internalType": "struct VotingSystem.Candidate[]",
          "name": "",
          "type": "tuple[]"
        }
      ],
      "stateMutability": "view",
      "type": "function"
    },
    {
      "inputs": [
        {
          "internalType": "uint256",
          "name": "_categoryId",
          "type": "uint256"
        },
        {
          "internalType": "uint256",
          "name": "_eventId",
          "type": "uint256"
        }
      ],
      "name": "whoIsTheWinner",
      "outputs": [
        {
          "components": [
            {
              "internalType": "uint256",
              "name": "id",
              "type": "uint256"
            },
            {
              "internalType": "string",
              "name": "name",
              "type": "string"
            },
            {
              "internalType": "string",
              "name": "description",
              "type": "string"
            },
            {
              "internalType": "uint256",
              "name": "studentId",
              "type": "uint256"
            },
            {
              "internalType": "uint256",
              "name": "categoryId",
              "type": "uint256"
            },
            {
              "internalType": "uint256",
              "name": "eventId",
              "type": "uint256"
            },
            {
              "internalType": "uint256",
              "name": "voteCount",
              "type": "uint256"
            },
            {
              "internalType": "bool",
              "name": "win",
              "type": "bool"
            }
          ],
          "internalType": "struct VotingSystem.Candidate",
          "name": "",
          "type": "tuple"
        }
      ],
      "stateMutability": "view",
      "type": "function"
    }
  ],
  "bytecode": "0x608060405234801561001057600080fd5b50613673806100206000396000f3fe608060405234801561001057600080fd5b50600436106101215760003560e01c806368c9e388116100ad578063a7e62d1b11610071578063a7e62d1b146102d0578063b315c597146102e3578063bf03f67714610314578063dfdffaf414610327578063ffdd108b1461033a57600080fd5b806368c9e38814610255578063748f55a8146102685780638f2c280514610288578063909f85021461029d5780639e41a12f146102bd57600080fd5b80634fb43250116100f45780634fb432501461018157806350515a77146101a45780635b4d727c146101b757806360e93f3c146101ca578063642d20ad146101ea57600080fd5b80631002cdd4146101265780632e0dcbf7146101445780632e6997fe14610159578063401a52dd1461016e575b600080fd5b61012e61034d565b60405161013b919061308c565b60405180910390f35b610157610152366004613191565b6106fd565b005b61016161081f565b60405161013b91906131ce565b61012e61017c366004613223565b6109a3565b61019461018f36600461323c565b610cfe565b604051901515815260200161013b565b6101946101b236600461325e565b610dad565b6101616101c536600461323c565b610e6b565b6101dd6101d8366004613223565b611175565b60405161013b9190613329565b61022b6101f8366004613223565b60036020819052600091825260409091208054600182015460028301549383015460049093015491939092909160ff1685565b6040805195865260208601949094529284019190915260608301521515608082015260a00161013b565b61015761026336600461333c565b61152c565b61027b61027636600461323c565b6117ff565b60405161013b919061336e565b610290611c01565b60405161013b9190613381565b6102b06102ab36600461323c565b612051565b60405161013b91906133d6565b6101576102cb3660046133e9565b61246c565b6101616102de36600461323c565b61271a565b6103066102f1366004613223565b60009081526002602052604090206006015490565b60405190815260200161013b565b610194610322366004613468565b612a9c565b610194610335366004613468565b612b32565b61015761034836600461325e565b612bba565b6060600060065467ffffffffffffffff81111561036c5761036c6130ee565b6040519080825280602002602001820160405280156103a557816020015b610392612e0b565b81526020019060019003908161038a5790505b5090506000805b6004548110156106f55760005b6000806103c78460016134aa565b81526020810191909152604001600020600201548110156106e2576000806103f08460016134aa565b81526020019081526020016000206002018181548110610412576104126134c2565b90600052602060002090600502016040518060a001604052908160008201548152602001600182018054610445906134d8565b80601f0160208091040260200160405190810160405280929190818152602001828054610471906134d8565b80156104be5780601f10610493576101008083540402835291602001916104be565b820191906000526020600020905b8154815290600101906020018083116104a157829003601f168201915b505050505081526020016002820154815260200160038201805480602002602001604051908101604052809291908181526020016000905b8282101561069457838290600052602060002090600802016040518061010001604052908160008201548152602001600182018054610534906134d8565b80601f0160208091040260200160405190810160405280929190818152602001828054610560906134d8565b80156105ad5780601f10610582576101008083540402835291602001916105ad565b820191906000526020600020905b81548152906001019060200180831161059057829003601f168201915b505050505081526020016002820180546105c6906134d8565b80601f01602080910402602001604051908101604052809291908181526020018280546105f2906134d8565b801561063f5780601f106106145761010080835404028352916020019161063f565b820191906000526020600020905b81548152906001019060200180831161062257829003601f168201915b5050509183525050600382015460208083019190915260048301546040830152600583015460608301526006830154608083015260079092015460ff16151560a09091015290825260019290920191016104f6565b5050505081526020016004820154815250508484815181106106b8576106b86134c2565b60209081029190910101526106ce6001846134aa565b9250806106da8161350c565b9150506103b9565b50806106ed8161350c565b9150506103ac565b509092915050565b60015b600454811161079c576000818152602081905260409081902090516107289160010190613525565b604051809103902082805190602001200361078a5760405162461bcd60e51b815260206004820152601760248201527f43617465676f727920616c72656164792065786973747300000000000000000060448201526064015b60405180910390fd5b806107948161350c565b915050610700565b506001600460008282546107b091906134aa565b9091555050600454600090815260208181526040909120825190916107dc916001840191850190612e3a565b506004548082556040517f5bae3f75753ef0a1c0ea0f6c51d7b43a4b8d116572b8b7b5cb771f9ad32d4ae5906108139085906135c0565b60405180910390a25050565b6060600060055467ffffffffffffffff81111561083e5761083e6130ee565b60405190808252806020026020018201604052801561087757816020015b610864612ebe565b81526020019060019003908161085c5790505b509050600060065467ffffffffffffffff811115610897576108976130ee565b6040519080825280602002602001820160405280156108d057816020015b6108bd612e0b565b8152602001906001900390816108b55790505b5090506108db61034d565b90506000805b60065481101561099a5760005b838281518110610900576109006134c2565b6020026020010151606001515181101561098757838281518110610926576109266134c2565b6020026020010151606001518181518110610943576109436134c2565b602002602001015185848151811061095d5761095d6134c2565b60209081029190910101526109736001846134aa565b92508061097f8161350c565b9150506108ee565b50806109928161350c565b9150506108e1565b50919392505050565b600081815260208190526040812060028101546060929067ffffffffffffffff8111156109d2576109d26130ee565b604051908082528060200260200182016040528015610a0b57816020015b6109f8612e0b565b8152602001906001900390816109f05790505b50905060005b6002830154811015610cf657826002018181548110610a3257610a326134c2565b90600052602060002090600502016040518060a001604052908160008201548152602001600182018054610a65906134d8565b80601f0160208091040260200160405190810160405280929190818152602001828054610a91906134d8565b8015610ade5780601f10610ab357610100808354040283529160200191610ade565b820191906000526020600020905b815481529060010190602001808311610ac157829003601f168201915b505050505081526020016002820154815260200160038201805480602002602001604051908101604052809291908181526020016000905b82821015610cb457838290600052602060002090600802016040518061010001604052908160008201548152602001600182018054610b54906134d8565b80601f0160208091040260200160405190810160405280929190818152602001828054610b80906134d8565b8015610bcd5780601f10610ba257610100808354040283529160200191610bcd565b820191906000526020600020905b815481529060010190602001808311610bb057829003601f168201915b50505050508152602001600282018054610be6906134d8565b80601f0160208091040260200160405190810160405280929190818152602001828054610c12906134d8565b8015610c5f5780601f10610c3457610100808354040283529160200191610c5f565b820191906000526020600020905b815481529060010190602001808311610c4257829003601f168201915b5050509183525050600382015460208083019190915260048301546040830152600583015460608301526006830154608083015260079092015460ff16151560a0909101529082526001929092019101610b16565b505050508152602001600482015481525050828281518110610cd857610cd86134c2565b60200260200101819052508080610cee9061350c565b915050610a11565b509392505050565b6000828152602081905260408120548103610d2b5760405162461bcd60e51b8152600401610781906135d3565b60005b600084815260208190526040902060020154811015610da157826000808681526020019081526020016000206002018281548110610d6e57610d6e6134c2565b90600052602060002090600502016000015403610d8f576001915050610da7565b80610d998161350c565b915050610d2e565b50600090505b92915050565b6000828152602081905260408120548103610dda5760405162461bcd60e51b8152600401610781906135d3565b60005b600084815260208190526040902060020154811015610da15782805190602001206000808681526020019081526020016000206002018281548110610e2457610e246134c2565b9060005260206000209060050201600101604051610e429190613525565b604051809103902003610e59576001915050610da7565b80610e638161350c565b915050610ddd565b60008281526020819052604081206060915b600282015481101561116d5783826002018281548110610e9f57610e9f6134c2565b9060005260206000209060050201600001540361115b576000826002018281548110610ecd57610ecd6134c2565b90600052602060002090600502016004015467ffffffffffffffff811115610ef757610ef76130ee565b604051908082528060200260200182016040528015610f3057816020015b610f1d612ebe565b815260200190600190039081610f155790505b50905060005b836002018381548110610f4b57610f4b6134c2565b90600052602060002090600502016003018054905081101561115057836002018381548110610f7c57610f7c6134c2565b90600052602060002090600502016003018181548110610f9e57610f9e6134c2565b90600052602060002090600802016040518061010001604052908160008201548152602001600182018054610fd2906134d8565b80601f0160208091040260200160405190810160405280929190818152602001828054610ffe906134d8565b801561104b5780601f106110205761010080835404028352916020019161104b565b820191906000526020600020905b81548152906001019060200180831161102e57829003601f168201915b50505050508152602001600282018054611064906134d8565b80601f0160208091040260200160405190810160405280929190818152602001828054611090906134d8565b80156110dd5780601f106110b2576101008083540402835291602001916110dd565b820191906000526020600020905b8154815290600101906020018083116110c057829003601f168201915b50505091835250506003820154602082015260048201546040820152600582015460608201526006820154608082015260079091015460ff16151560a0909101528251839083908110611132576111326134c2565b602002602001018190525080806111489061350c565b915050610f36565b509250610da7915050565b806111658161350c565b915050610e7d565b505092915050565b61119960405180606001604052806000815260200160608152602001606081525090565b600082815260208181526040918290208251606081019093528054835260018101805491928401916111ca906134d8565b80601f01602080910402602001604051908101604052809291908181526020018280546111f6906134d8565b80156112435780601f1061121857610100808354040283529160200191611243565b820191906000526020600020905b81548152906001019060200180831161122657829003601f168201915b5050505050815260200160028201805480602002602001604051908101604052809291908181526020016000905b8282101561151e57838290600052602060002090600502016040518060a0016040529081600082015481526020016001820180546112ae906134d8565b80601f01602080910402602001604051908101604052809291908181526020018280546112da906134d8565b80156113275780601f106112fc57610100808354040283529160200191611327565b820191906000526020600020905b81548152906001019060200180831161130a57829003601f168201915b505050505081526020016002820154815260200160038201805480602002602001604051908101604052809291908181526020016000905b828210156114fd5783829060005260206000209060080201604051806101000160405290816000820154815260200160018201805461139d906134d8565b80601f01602080910402602001604051908101604052809291908181526020018280546113c9906134d8565b80156114165780601f106113eb57610100808354040283529160200191611416565b820191906000526020600020905b8154815290600101906020018083116113f957829003601f168201915b5050505050815260200160028201805461142f906134d8565b80601f016020809104026020016040519081016040528092919081815260200182805461145b906134d8565b80156114a85780601f1061147d576101008083540402835291602001916114a8565b820191906000526020600020905b81548152906001019060200180831161148b57829003601f168201915b5050509183525050600382015460208083019190915260048301546040830152600583015460608301526006830154608083015260079092015460ff16151560a090910152908252600192909201910161135f565b50505050815260200160048201548152505081526020019060010190611271565b505050915250909392505050565b60008281526020819052604081205490036115895760405162461bcd60e51b815260206004820152601860248201527f43617465676f727920646f6573206e6f742065786973747300000000000000006044820152606401610781565b6006546000036115d35760405162461bcd60e51b81526020600482015260156024820152744576656e7420646f6573206e6f742065786973747360581b6044820152606401610781565b6115de828285612a9c565b151560011461162f5760405162461bcd60e51b815260206004820152601a60248201527f43616e6469646174657320646f6573206e6f74206578697374730000000000006044820152606401610781565b60015b60075481116116fa576000818152600360205260409020600101548514801561166b575060008181526003602052604090206002015483145b801561168857506000818152600360208190526040909120015482145b156116e85760008181526003602052604090206004015460ff16156116e35760405162461bcd60e51b8152602060048201526011602482015270165bdd48185b1c9958591e481d9bdd1959607a1b6044820152606401610781565b6116fa565b806116f28161350c565b915050611632565b5060016007600082825461170e91906134aa565b90915550506040805160a0810182526007548082526020808301888152838501878152606085018781526001608087018181526000968752600395869052979095208651815592519483019490945551600282015591519082015591516004909201805460ff19169215159290921790915561178984612cd1565b611794838386612cfb565b60408051602081018590528082018490528151808203830181526060909101918290529085906117c590839061360a565b6040519081900381209088907fdd0629bf37ec3179d8b6727c2eb4d0f297cf08a85b960c1520666db55feb5b3990600090a4505050505050565b611807612ebe565b60008381526020818152604080832060020180548251818502810185019093528083529192909190849084015b82821015611ae157838290600052602060002090600502016040518060a001604052908160008201548152602001600182018054611871906134d8565b80601f016020809104026020016040519081016040528092919081815260200182805461189d906134d8565b80156118ea5780601f106118bf576101008083540402835291602001916118ea565b820191906000526020600020905b8154815290600101906020018083116118cd57829003601f168201915b505050505081526020016002820154815260200160038201805480602002602001604051908101604052809291908181526020016000905b82821015611ac057838290600052602060002090600802016040518061010001604052908160008201548152602001600182018054611960906134d8565b80601f016020809104026020016040519081016040528092919081815260200182805461198c906134d8565b80156119d95780601f106119ae576101008083540402835291602001916119d9565b820191906000526020600020905b8154815290600101906020018083116119bc57829003601f168201915b505050505081526020016002820180546119f2906134d8565b80601f0160208091040260200160405190810160405280929190818152602001828054611a1e906134d8565b8015611a6b5780601f10611a4057610100808354040283529160200191611a6b565b820191906000526020600020905b815481529060010190602001808311611a4e57829003601f168201915b5050509183525050600382015460208083019190915260048301546040830152600583015460608301526006830154608083015260079092015460ff16151560a0909101529082526001929092019101611922565b50505050815260200160048201548152505081526020019060010190611834565b505050509050606060005b8251811015611b4c5784838281518110611b0857611b086134c2565b60200260200101516000015103611b3a57828181518110611b2b57611b2b6134c2565b60200260200101516060015191505b80611b448161350c565b915050611aec565b50600081600081518110611b6257611b626134c2565b6020026020010151905060005b60018351611b7d9190613626565b811015611bf05782611b908260016134aa565b81518110611ba057611ba06134c2565b602002602001015160c001518260c001511015611bde5782611bc38260016134aa565b81518110611bd357611bd36134c2565b602002602001015191505b80611be88161350c565b915050611b6f565b50600160e082015295945050505050565b6060600060045467ffffffffffffffff811115611c2057611c206130ee565b604051908082528060200260200182016040528015611c7557816020015b611c6260405180606001604052806000815260200160608152602001606081525090565b815260200190600190039081611c3e5790505b50905060015b600454811161204b5760008181526020818152604091829020825160608101909352805483526001810180549192840191611cb5906134d8565b80601f0160208091040260200160405190810160405280929190818152602001828054611ce1906134d8565b8015611d2e5780601f10611d0357610100808354040283529160200191611d2e565b820191906000526020600020905b815481529060010190602001808311611d1157829003601f168201915b5050505050815260200160028201805480602002602001604051908101604052809291908181526020016000905b8282101561200957838290600052602060002090600502016040518060a001604052908160008201548152602001600182018054611d99906134d8565b80601f0160208091040260200160405190810160405280929190818152602001828054611dc5906134d8565b8015611e125780601f10611de757610100808354040283529160200191611e12565b820191906000526020600020905b815481529060010190602001808311611df557829003601f168201915b505050505081526020016002820154815260200160038201805480602002602001604051908101604052809291908181526020016000905b82821015611fe857838290600052602060002090600802016040518061010001604052908160008201548152602001600182018054611e88906134d8565b80601f0160208091040260200160405190810160405280929190818152602001828054611eb4906134d8565b8015611f015780601f10611ed657610100808354040283529160200191611f01565b820191906000526020600020905b815481529060010190602001808311611ee457829003601f168201915b50505050508152602001600282018054611f1a906134d8565b80601f0160208091040260200160405190810160405280929190818152602001828054611f46906134d8565b8015611f935780601f10611f6857610100808354040283529160200191611f93565b820191906000526020600020905b815481529060010190602001808311611f7657829003601f168201915b5050509183525050600382015460208083019190915260048301546040830152600583015460608301526006830154608083015260079092015460ff16151560a0909101529082526001929092019101611e4a565b50505050815260200160048201548152505081526020019060010190611d5c565b50505091525083905061201d600184613626565b8151811061202d5761202d6134c2565b602002602001018190525080806120439061350c565b915050611c7b565b50919050565b612059612e0b565b600080600085815260200190815260200160002060405180606001604052908160008201548152602001600182018054612092906134d8565b80601f01602080910402602001604051908101604052809291908181526020018280546120be906134d8565b801561210b5780601f106120e05761010080835404028352916020019161210b565b820191906000526020600020905b8154815290600101906020018083116120ee57829003601f168201915b5050505050815260200160028201805480602002602001604051908101604052809291908181526020016000905b828210156123e657838290600052602060002090600502016040518060a001604052908160008201548152602001600182018054612176906134d8565b80601f01602080910402602001604051908101604052809291908181526020018280546121a2906134d8565b80156121ef5780601f106121c4576101008083540402835291602001916121ef565b820191906000526020600020905b8154815290600101906020018083116121d257829003601f168201915b505050505081526020016002820154815260200160038201805480602002602001604051908101604052809291908181526020016000905b828210156123c557838290600052602060002090600802016040518061010001604052908160008201548152602001600182018054612265906134d8565b80601f0160208091040260200160405190810160405280929190818152602001828054612291906134d8565b80156122de5780601f106122b3576101008083540402835291602001916122de565b820191906000526020600020905b8154815290600101906020018083116122c157829003601f168201915b505050505081526020016002820180546122f7906134d8565b80601f0160208091040260200160405190810160405280929190818152602001828054612323906134d8565b80156123705780601f1061234557610100808354040283529160200191612370565b820191906000526020600020905b81548152906001019060200180831161235357829003601f168201915b5050509183525050600382015460208083019190915260048301546040830152600583015460608301526006830154608083015260079092015460ff16151560a0909101529082526001929092019101612227565b50505050815260200160048201548152505081526020019060010190612139565b505050508152505090506123f8612e0b565b60005b82604001515181101561246357848360400151828151811061241f5761241f6134c2565b602002602001015160000151036124515782604001518181518110612446576124466134c2565b602002602001015191505b8061245b8161350c565b9150506123fb565b50949350505050565b60008581526020819052604081205490036124c35760405162461bcd60e51b815260206004820152601760248201527643617465676f727920686173206e6f742065786973747360481b6044820152606401610781565b6124cd8585610cfe565b15156001146125155760405162461bcd60e51b81526020600482015260146024820152734576656e7420686173206e6f742065786973747360601b6044820152606401610781565b612520858583612b32565b156125615760405162461bcd60e51b815260206004820152601160248201527010d85b991a59185d1948195e1a5cdd1959607a1b6044820152606401610781565b60016005600082825461257491906134aa565b9091555050604080516101008101825260055481526020808201869052818301859052606082018490526080820188905260a08201879052600060c0830181905260e083018190528881529081905291822090915b600282015481101561271057868260020182815481106125eb576125eb6134c2565b906000526020600020906005020160000154036126fe57816002018181548110612617576126176134c2565b6000918252602080832060036005909302019190910180546001818101835591845292829020865160089094020192835585820151805187949361265f938501920190612e3a565b506040820151805161267b916002840191602090910190612e3a565b50606082015160038201556080820151600482015560a0820151600582015560c0820151600682015560e0909101516007909101805460ff191691151591909117905560028201805460019190839081106126d8576126d86134c2565b906000526020600020906005020160040160008282546126f891906134aa565b90915550505b806127088161350c565b9150506125c9565b5050505050505050565b600082815260208181526040808320600201805482518185028101850190935280835260609493849084015b828210156129f357838290600052602060002090600502016040518060a001604052908160008201548152602001600182018054612783906134d8565b80601f01602080910402602001604051908101604052809291908181526020018280546127af906134d8565b80156127fc5780601f106127d1576101008083540402835291602001916127fc565b820191906000526020600020905b8154815290600101906020018083116127df57829003601f168201915b505050505081526020016002820154815260200160038201805480602002602001604051908101604052809291908181526020016000905b828210156129d257838290600052602060002090600802016040518061010001604052908160008201548152602001600182018054612872906134d8565b80601f016020809104026020016040519081016040528092919081815260200182805461289e906134d8565b80156128eb5780601f106128c0576101008083540402835291602001916128eb565b820191906000526020600020905b8154815290600101906020018083116128ce57829003601f168201915b50505050508152602001600282018054612904906134d8565b80601f0160208091040260200160405190810160405280929190818152602001828054612930906134d8565b801561297d5780601f106129525761010080835404028352916020019161297d565b820191906000526020600020905b81548152906001019060200180831161296057829003601f168201915b5050509183525050600382015460208083019190915260048301546040830152600583015460608301526006830154608083015260079092015460ff16151560a0909101529082526001929092019101612834565b50505050815260200160048201548152505081526020019060010190612746565b50505050905060005b8151811015612a625783828281518110612a1857612a186134c2565b60200260200101516000015103612a5057818181518110612a3b57612a3b6134c2565b60200260200101516060015192505050610da7565b80612a5a8161350c565b9150506129fc565b506040805160008082526020820190925290612463565b612a81612ebe565b815260200190600190039081612a7957905050949350505050565b6000838152602081905260408120548103612ac95760405162461bcd60e51b8152600401610781906135d3565b6000612ad58585610e6b565b905060005b8151811015612b245783828281518110612af657612af66134c2565b60200260200101516000015103612b1257600192505050612b2b565b80612b1c8161350c565b915050612ada565b5060009150505b9392505050565b6000838152602081905260408120548103612b5f5760405162461bcd60e51b8152600401610781906135d3565b6000612b6b8585610e6b565b905060005b8151811015612b245783828281518110612b8c57612b8c6134c2565b60200260200101516060015103612ba857600192505050612b2b565b80612bb28161350c565b915050612b70565b6000828152602081905260408120549003612c115760405162461bcd60e51b815260206004820152601760248201527643617465676f727920686173206e6f742065786973747360481b6044820152606401610781565b612c1b8282610dad565b15612c5f5760405162461bcd60e51b81526020600482015260146024820152734576656e7420616c72656164792065786973747360601b6044820152606401610781565b600082815260208190526040812060068054919291600191908390612c859084906134aa565b9182905550600284018054600181810183556000928352602092839020600590920290910183815587519395509350612cc49290840191870190612e3a565b5060020193909355505050565b6000818152600260205260408120600601805460019290612cf39084906134aa565b909155505050565b6000838152602081905260408120600201905b8154811015612e045783828281548110612d2a57612d2a6134c2565b90600052602060002090600502016000015403612df2576000828281548110612d5557612d556134c2565b9060005260206000209060050201600301905060005b8154811015612def5784828281548110612d8757612d876134c2565b90600052602060002090600802016000015403612ddd576001828281548110612db257612db26134c2565b90600052602060002090600802016006016000828254612dd291906134aa565b90915550612def9050565b80612de78161350c565b915050612d6b565b50505b80612dfc8161350c565b915050612d0e565b5050505050565b6040518060a0016040528060008152602001606081526020016000815260200160608152602001600081525090565b828054612e46906134d8565b90600052602060002090601f016020900481019282612e685760008555612eae565b82601f10612e8157805160ff1916838001178555612eae565b82800160010185558215612eae579182015b82811115612eae578251825591602001919060010190612e93565b50612eba929150612f05565b5090565b604051806101000160405280600081526020016060815260200160608152602001600081526020016000815260200160008152602001600081526020016000151581525090565b5b80821115612eba5760008155600101612f06565b60005b83811015612f35578181015183820152602001612f1d565b83811115612f44576000848401525b50505050565b60008151808452612f62816020860160208601612f1a565b601f01601f19169290920160200192915050565b6000610100825184526020830151816020860152612f9682860182612f4a565b91505060408301518482036040860152612fb08282612f4a565b915050606083015160608501526080830151608085015260a083015160a085015260c083015160c085015260e0830151151560e08501528091505092915050565b80518252600060208083015160a08286015261301060a0860182612f4a565b905060408401516040860152606084015185820360608701528181518084528484019150848160051b850101858401935060005b8281101561307257601f19868303018452613060828651612f76565b94870194938701939150600101613044565b50608088015160808a015280965050505050505092915050565b6000602080830181845280855180835260408601915060408160051b870101925083870160005b828110156130e157603f198886030184526130cf858351612ff1565b945092850192908501906001016130b3565b5092979650505050505050565b634e487b7160e01b600052604160045260246000fd5b600082601f83011261311557600080fd5b813567ffffffffffffffff80821115613130576131306130ee565b604051601f8301601f19908116603f01168101908282118183101715613158576131586130ee565b8160405283815286602085880101111561317157600080fd5b836020870160208301376000602085830101528094505050505092915050565b6000602082840312156131a357600080fd5b813567ffffffffffffffff8111156131ba57600080fd5b6131c684828501613104565b949350505050565b6000602080830181845280855180835260408601915060408160051b870101925083870160005b828110156130e157603f19888603018452613211858351612f76565b945092850192908501906001016131f5565b60006020828403121561323557600080fd5b5035919050565b6000806040838503121561324f57600080fd5b50508035926020909101359150565b6000806040838503121561327157600080fd5b82359150602083013567ffffffffffffffff81111561328f57600080fd5b61329b85828601613104565b9150509250929050565b8051825260006020808301516060828601526132c46060860182612f4a565b9050604084015185820360408701528181518084528484019150848160051b850101858401935060005b8281101561331c57601f1986830301845261330a828651612ff1565b948701949387019391506001016132ee565b5098975050505050505050565b602081526000612b2b60208301846132a5565b6000806000806080858703121561335257600080fd5b5050823594602084013594506040840135936060013592509050565b602081526000612b2b6020830184612f76565b6000602080830181845280855180835260408601915060408160051b870101925083870160005b828110156130e157603f198886030184526133c48583516132a5565b945092850192908501906001016133a8565b602081526000612b2b6020830184612ff1565b600080600080600060a0868803121561340157600080fd5b8535945060208601359350604086013567ffffffffffffffff8082111561342757600080fd5b61343389838a01613104565b9450606088013591508082111561344957600080fd5b5061345688828901613104565b95989497509295608001359392505050565b60008060006060848603121561347d57600080fd5b505081359360208301359350604090920135919050565b634e487b7160e01b600052601160045260246000fd5b600082198211156134bd576134bd613494565b500190565b634e487b7160e01b600052603260045260246000fd5b600181811c908216806134ec57607f821691505b60208210810361204b57634e487b7160e01b600052602260045260246000fd5b60006001820161351e5761351e613494565b5060010190565b600080835481600182811c91508083168061354157607f831692505b6020808410820361356057634e487b7160e01b86526022600452602486fd5b8180156135745760018114613585576135b2565b60ff198616895284890196506135b2565b60008a81526020902060005b868110156135aa5781548b820152908501908301613591565b505084890196505b509498975050505050505050565b602081526000612b2b6020830184612f4a565b60208082526017908201527f43617465676f727920646f6573206e6f74206578697374000000000000000000604082015260600190565b6000825161361c818460208701612f1a565b9190910192915050565b60008282101561363857613638613494565b50039056fea264697066735822122033d642da46e190f029e4b8c1432d40cff469ddc4d817d2b19cfedc168753e29b64736f6c634300080d0033",
  "immutableReferences": {},
  "source": "// SPDX-License-Identifier: MIT\npragma solidity >=0.4.22 <0.9.0;\n\ncontract VotingSystem {\n    struct Event {\n        uint256 eventId;\n        string eventName;\n        uint256 categoryId;\n        Candidate[] candidates;\n        uint256 candidateCount;\n    }\n\n    struct Category {\n        uint256 categoryId;\n        string categoryName;\n        Event[] events; //category has many event\n    }\n\n    struct Candidate {\n        uint256 id;\n        string name;\n        string description;\n        uint256 studentId;\n        uint256 categoryId;\n        uint256 eventId;\n        uint256 voteCount;\n        bool win;\n    }\n\n    struct voteEventStruct {\n        uint256 id;\n        uint256 voterId;\n        uint256 categoryId;\n        uint256 eventId;\n        bool voted;\n    }\n\n    event CategoryAdded(uint256 indexed categoryId, string categoryName);\n    event EventAdded(uint256 indexed eventId, string eventName);\n    event CandidateAdded(uint256 indexed eventId, string eventName);\n\n    mapping(uint256 => Category) categories;\n    mapping(uint256 => Event) events;\n    mapping(uint256 => Candidate) candidates;\n    mapping(uint256 => voteEventStruct) public voteEvents;\n\n    uint256 categoryCount;\n    uint256 candidateCount;\n    uint256 eventCount;\n    uint256 voteEventCount;\n\n    event VoteEvent(\n        uint256 indexed voterId,\n        string indexed categoryEvent,\n        uint256 indexed candidate\n    );\n\n    function addCategory(string memory _categoryName) public {\n        // check if the category is exist\n        for (uint256 i = 1; i <= categoryCount; i++) {\n            require(\n                keccak256(bytes(_categoryName)) !=\n                    keccak256(bytes(categories[i].categoryName)),\n                \"Category already exists\"\n            );\n        }\n\n        // total category plus 1, use it as the category's id\n        categoryCount += 1;\n\n        // add the category details in the category list\n        Category storage category = categories[categoryCount];\n        category.categoryName = _categoryName;\n        category.categoryId = categoryCount;\n\n        // emit the category added event\n        emit CategoryAdded(categoryCount, _categoryName);\n    }\n\n    function addEvent(uint256 _categoryId, string memory _eventName) public {\n        // check if the category has exists\n        require(\n            categories[_categoryId].categoryId != 0,\n            \"Category has not exists\"\n        );\n\n        require(\n            isEventExists(_categoryId, _eventName) == false,\n            \"Event already exists\"\n        );\n\n        // find out the category in list by using the paramerter category name\n        Category storage category = categories[_categoryId];\n\n        // add the event in the category list\n        uint256 eventId = eventCount += 1;\n\n        Event storage newEvent = category.events.push();\n        newEvent.eventId = eventId;\n        newEvent.eventName = _eventName;\n        newEvent.categoryId = _categoryId;\n\n        // // Add candidates to the event\n        // for (uint256 i = 0; i < _candidateNames.length; i++) {\n        //     string memory candidateName = _candidateNames[i];\n        //     candidateCount += 1;\n        //     // Create a new candidate\n        //     Candidate memory newCandidate = Candidate({\n        //         id: candidateCount,\n        //         name: candidateName,\n        //         CategoryId: _categoryId,\n        //         eventName: _eventName,\n        //         voteCount: 0\n        //     });\n        //     // Push the new candidate to the candidates array\n        //     candidates[candidateCount] = newCandidate;\n        //     listEvent.candidates.push(newCandidate);\n        //     newEvent.candidates.push(newCandidate);\n        // }\n    }\n\n    function isEventExists(uint256 _categoryId, string memory _eventName)\n        public\n        view\n        returns (bool)\n    {\n        // Check if the category exists\n        require(\n            categories[_categoryId].categoryId != 0,\n            \"Category does not exist\"\n        );\n\n        // Loop through the events in the specified category\n        for (uint256 i = 0; i < categories[_categoryId].events.length; i++) {\n            if (\n                keccak256(bytes(categories[_categoryId].events[i].eventName)) ==\n                keccak256(bytes(_eventName))\n            ) {\n                // Event found\n                return true;\n            }\n        }\n\n        // Event not found in the specified category\n        return false;\n    }\n\n    function addCandidateToEvent(\n        uint256 _categoryId,\n        uint256 _eventId,\n        string memory _candidateName,\n        string memory _description,\n        uint256 _studentId\n    ) public {\n        require(\n            categories[_categoryId].categoryId != 0,\n            \"Category has not exists\"\n        );\n\n        require(\n            isEventExists(_categoryId, _eventId) == true,\n            \"Event has not exists\"\n        );\n\n        require(\n            isCandidateExistsInEvent(_categoryId, _eventId, _studentId) ==\n                false,\n            \"Candidate existed\"\n        );\n\n        candidateCount += 1;\n\n        // Create a new candidate\n        Candidate memory newCandidate = Candidate({\n            id: candidateCount,\n            name: _candidateName,\n            studentId: _studentId,\n            categoryId: _categoryId,\n            eventId: _eventId,\n            description: _description,\n            win: false,\n            voteCount: 0\n        });\n\n        // find the certain category\n        Category storage category = categories[_categoryId];\n        // find the certain event in certain category\n        for (uint256 i = 0; i < category.events.length; i++) {\n            if (category.events[i].eventId == _eventId) {\n                category.events[i].candidates.push(newCandidate);\n                category.events[i].candidateCount += 1;\n            }\n        }\n    }\n\n    function isCandidateExistsInEvent(\n        uint256 _categoryId,\n        uint256 _eventId,\n        uint256 _studentId\n    ) public view returns (bool) {\n        // Check if the category exists\n        require(\n            categories[_categoryId].categoryId != 0,\n            \"Category does not exist\"\n        );\n\n        Candidate[] memory candidatesFound = getAllCandidatesInEvent(\n            _categoryId,\n            _eventId\n        );\n\n        // Loop through the events in the specified category\n\n        for (uint256 i = 0; i < candidatesFound.length; i++) {\n            if (candidatesFound[i].studentId == _studentId) {\n                return true;\n            }\n        }\n\n        // Event not found in the specified category\n        return false;\n    }\n\n     function isCandidateExistsInEventById(\n        uint256 _categoryId,\n        uint256 _eventId,\n        uint256 _candidateId\n    ) public view returns (bool) {\n        // Check if the category exists\n        require(\n            categories[_categoryId].categoryId != 0,\n            \"Category does not exist\"\n        );\n\n        Candidate[] memory candidatesFound = getAllCandidatesInEvent(\n            _categoryId,\n            _eventId\n        );\n\n        // Loop through the events in the specified category\n\n        for (uint256 i = 0; i < candidatesFound.length; i++) {\n            if (candidatesFound[i].id == _candidateId) {\n                return true;\n            }\n        }\n\n        // Event not found in the specified category\n        return false;\n    }\n\n    function isEventExists(uint256 _categoryId, uint256 _eventId)\n        public\n        view\n        returns (bool)\n    {\n        // Check if the category exists\n        require(\n            categories[_categoryId].categoryId != 0,\n            \"Category does not exist\"\n        );\n\n        // Loop through the events in the specified category\n        for (uint256 i = 0; i < categories[_categoryId].events.length; i++) {\n            if (categories[_categoryId].events[i].eventId == _eventId) {\n                // Event found\n                return true;\n            }\n        }\n\n        // Event not found in the specified category\n        return false;\n    }\n\n    function getAllCategoryEvent(uint256 _categoryId)\n        public\n        view\n        returns (Event[] memory foundEvent)\n    {\n        // find the certain category\n        Category storage category = categories[_categoryId];\n\n        // declare an array variable for storing events\n        Event[] memory eventsFound = new Event[](category.events.length);\n\n        // get all the event name by searching the event in list\n        for (uint256 i = 0; i < category.events.length; i++) {\n            eventsFound[i] = category.events[i];\n        }\n\n        return (eventsFound);\n    }\n\n    function getAllCandidatesInEvent(uint256 _categoryId, uint256 _eventId)\n        public\n        view\n        returns (Candidate[] memory foundCandidates)\n    {\n        // find the certain category\n        Category storage category = categories[_categoryId];\n        // find the certain event in certain category\n        for (uint256 i = 0; i < category.events.length; i++) {\n            if (category.events[i].eventId == _eventId) {\n                Candidate[] memory candidatesFound = new Candidate[](\n                    category.events[i].candidateCount\n                );\n\n                for (\n                    uint256 j = 0;\n                    j < category.events[i].candidates.length;\n                    j++\n                ) {\n                    candidatesFound[j] = category.events[i].candidates[j];\n                }\n                return (candidatesFound);\n            }\n        }\n    }\n\n    function getAllCandidates() public view returns (Candidate[] memory) {\n        Candidate[] memory candidatesFound = new Candidate[](candidateCount);\n        Event[] memory eventFound = new Event[](eventCount);\n\n        // get all the events\n        eventFound = getAllEvent();\n        uint256 count = 0;\n        // find the candidates inside all the event\n        for (uint256 i = 0; i < eventCount; i++) {\n            for (uint256 j = 0; j < eventFound[i].candidates.length; j++) {\n                candidatesFound[count] = eventFound[i].candidates[j];\n                count += 1;\n            }\n        }\n\n        return candidatesFound;\n    }\n\n    function getAllCategory() public view returns (Category[] memory) {\n        //Candidate[] memory candidatesFound = new Candidate[](candidateCount);\n        Category[] memory categoriesFound = new Category[](categoryCount);\n        // Iterate through all stored structs\n        for (uint256 i = 1; i <= categoryCount; i++) {\n            categoriesFound[i - 1] = categories[i];\n        }\n\n        return categoriesFound;\n    }\n\n    function getCategoryById(uint256 _categoryId)\n        public\n        view\n        returns (Category memory)\n    {\n        return categories[_categoryId];\n    }\n\n    function getAllEvent() public view returns (Event[] memory) {\n        // Initialize the array with the correct size\n        Event[] memory eventFound = new Event[](eventCount);\n        uint256 count = 0;\n\n        // Iterate through all categories and events\n        for (uint256 i = 0; i < categoryCount; i++) {\n            for (uint256 j = 0; j < categories[i + 1].events.length; j++) {\n                eventFound[count] = categories[i + 1].events[j];\n                count += 1;\n            }\n        }\n\n        return eventFound;\n    }\n\n    function getEventById(uint256 _categoryId, uint256 _eventId)\n        public\n        view\n        returns (Event memory)\n    {\n        Category memory categoriesFound = categories[_categoryId];\n        Event memory eventFound;\n        // Iterate through all stored structs\n        for (uint256 i = 0; i < categoriesFound.events.length; i++) {\n            if (categoriesFound.events[i].eventId == _eventId) {\n                eventFound = categoriesFound.events[i];\n            }\n        }\n\n        return eventFound;\n    }\n\n    function vote(\n        uint256 _voterId,\n        uint256 _candidateId,\n        uint256 _categoryId,\n        uint256 _eventId\n    ) external {\n        require(\n            categories[_categoryId].categoryId != 0,\n            \"Category does not exists\"\n        );\n\n        require(eventCount != 0, \"Event does not exists\");\n\n        // for (uint256 i = 1; i <= categories[_categoryId].events.length; i++) {\n        //     require(categories[_categoryId].events[i-0].eventId == _eventId, \"noobbbbb\");\n        // }\n\n        require(\n            isCandidateExistsInEventById(_categoryId, _eventId, _candidateId) ==\n                true,\n            \"Candidates does not exists\"\n        );\n\n        // check if has voted\n        for (uint256 i = 1; i <= voteEventCount; i++) {\n            if (\n                _voterId == voteEvents[i].voterId &&\n                _categoryId == voteEvents[i].categoryId &&\n                _eventId == voteEvents[i].eventId\n            ) {\n                require(!voteEvents[i].voted, \"You already voted\");\n                break;\n            }\n        }\n\n        // add count on the candidate\n        voteEventCount += 1;\n\n        // Create a new voteEventStruct\n        voteEventStruct memory newVoteEvent = voteEventStruct({\n            id: voteEventCount,\n            voterId: _voterId,\n            categoryId: _categoryId,\n            eventId: _eventId,\n            voted: true\n        });\n\n        voteEvents[voteEventCount] = newVoteEvent;\n\n        // add the vote count of the chosen candidate\n        addVoteCount(_candidateId);\n        addVoteCountIn(_categoryId, _eventId, _candidateId);\n\n        string memory concatenatedValues = string(\n            abi.encodePacked(_categoryId, _eventId)\n        );\n\n        emit VoteEvent(_voterId, concatenatedValues, _candidateId);\n    }\n\n    function addVoteCount(uint256 _candidateId) internal {\n        candidates[_candidateId].voteCount += 1;\n    }\n\n    function addVoteCountIn(\n        uint256 _categoryId,\n        uint256 _eventId,\n        uint256 _candidateId\n    ) internal {\n        // get the events inside the categories\n        Event[] storage eventsFound = categories[_categoryId].events;\n\n        // find the event with param\n        for (uint256 i = 0; i < eventsFound.length; i++) {\n            if (eventsFound[i].eventId == _eventId) {\n                // get the candidate inside the event\n                Candidate[] storage candidatesFound = eventsFound[i].candidates;\n                // find the candidate\n                for (uint256 j = 0; j < candidatesFound.length; j++) {\n                    if (candidatesFound[j].id == _candidateId) {\n                        // found the candidate and plus 1 at the voteCount\n                        candidatesFound[j].voteCount += 1;\n                        break;\n                    }\n                }\n            }\n        }\n    }\n\n    function getCandidateVoteCount(uint256 _candidateId)\n        public\n        view\n        returns (uint256 count)\n    {\n        return candidates[_candidateId].voteCount;\n    }\n\n    function getVoteEventCandidate(uint256 _categoryId, uint256 _eventId)\n        public\n        view\n        returns (Candidate[] memory)\n    {\n        Event[] memory eventsFound = categories[_categoryId].events;\n\n        for (uint256 i = 0; i < eventsFound.length; i++) {\n            if (eventsFound[i].eventId == _eventId) {\n                return eventsFound[i].candidates;\n            }\n        }\n\n        // If the event is not found, return an empty array or handle the situation accordingly\n        return new Candidate[](0);\n    }\n\n    function whoIsTheWinner(uint256 _categoryId, uint256 _eventId)\n        public\n        view\n        returns (Candidate memory)\n    {\n        Event[] memory eventsFound = categories[_categoryId].events;\n        Candidate[] memory candidatesFound;\n\n        for (uint256 i = 0; i < eventsFound.length; i++) {\n            if (eventsFound[i].eventId == _eventId) {\n                candidatesFound = eventsFound[i].candidates;\n            }\n        }\n\n        Candidate memory winner = candidatesFound[0];\n\n        for (uint256 i = 0; i < candidatesFound.length - 1; i++) {\n            if (winner.voteCount < candidatesFound[i + 1].voteCount) {\n                winner = candidatesFound[i + 1];\n            }\n        }\n\n        winner.win = true;\n\n        // If the event is not found, return an empty array or handle the situation accordingly\n        return winner;\n    }\n}\n",
  "sourcePath": "C:\\xampp\\htdocs\\Online-Voting-System-Blockchain\\contracts\\VotingSystem.sol",
  "compiler": {
    "name": "solc",
    "version": "0.8.13+commit.abaa5c0e.Emscripten.clang"
  },
  "schemaVersion": "3.4.16",
  "updatedAt": "2023-12-04T23:14:48.486Z",
  "devdoc": {
    "kind": "dev",
    "methods": {},
    "version": 1
  },
  "userdoc": {
    "kind": "user",
    "methods": {},
    "version": 1
  }
}