{
  "contractName": "VotingSystem",
  "abi": [
    {
      "inputs": [],
      "stateMutability": "nonpayable",
      "type": "constructor"
    },
    {
      "anonymous": false,
      "inputs": [
        {
          "indexed": true,
          "internalType": "uint256",
          "name": "eventId",
          "type": "uint256"
        },
        {
          "indexed": false,
          "internalType": "string",
          "name": "eventName",
          "type": "string"
        }
      ],
      "name": "CandidateAdded",
      "type": "event"
    },
    {
      "anonymous": false,
      "inputs": [
        {
          "indexed": true,
          "internalType": "uint256",
          "name": "categoryId",
          "type": "uint256"
        },
        {
          "indexed": false,
          "internalType": "string",
          "name": "categoryName",
          "type": "string"
        }
      ],
      "name": "CategoryAdded",
      "type": "event"
    },
    {
      "anonymous": false,
      "inputs": [
        {
          "indexed": true,
          "internalType": "uint256",
          "name": "eventId",
          "type": "uint256"
        },
        {
          "indexed": false,
          "internalType": "string",
          "name": "eventName",
          "type": "string"
        }
      ],
      "name": "EventAdded",
      "type": "event"
    },
    {
      "anonymous": false,
      "inputs": [
        {
          "indexed": true,
          "internalType": "string",
          "name": "_voterKey",
          "type": "string"
        },
        {
          "indexed": true,
          "internalType": "string",
          "name": "categoryEvent",
          "type": "string"
        },
        {
          "indexed": true,
          "internalType": "uint256",
          "name": "candidate",
          "type": "uint256"
        }
      ],
      "name": "VoteEvent",
      "type": "event"
    },
    {
      "anonymous": false,
      "inputs": [
        {
          "indexed": true,
          "internalType": "uint256",
          "name": "voterId",
          "type": "uint256"
        },
        {
          "indexed": false,
          "internalType": "string",
          "name": "voter_key",
          "type": "string"
        }
      ],
      "name": "VoterAdded",
      "type": "event"
    },
    {
      "inputs": [],
      "name": "owner",
      "outputs": [
        {
          "internalType": "address",
          "name": "",
          "type": "address"
        }
      ],
      "stateMutability": "view",
      "type": "function",
      "constant": true
    },
    {
      "inputs": [
        {
          "internalType": "string",
          "name": "",
          "type": "string"
        }
      ],
      "name": "resetPasswords",
      "outputs": [
        {
          "internalType": "string",
          "name": "email",
          "type": "string"
        },
        {
          "internalType": "string",
          "name": "token",
          "type": "string"
        },
        {
          "internalType": "uint256",
          "name": "code",
          "type": "uint256"
        },
        {
          "internalType": "uint256",
          "name": "createdTime",
          "type": "uint256"
        }
      ],
      "stateMutability": "view",
      "type": "function",
      "constant": true
    },
    {
      "inputs": [
        {
          "internalType": "uint256",
          "name": "",
          "type": "uint256"
        }
      ],
      "name": "voteEvents",
      "outputs": [
        {
          "internalType": "uint256",
          "name": "id",
          "type": "uint256"
        },
        {
          "internalType": "string",
          "name": "voterKey",
          "type": "string"
        },
        {
          "internalType": "uint256",
          "name": "categoryId",
          "type": "uint256"
        },
        {
          "internalType": "uint256",
          "name": "eventId",
          "type": "uint256"
        },
        {
          "internalType": "uint256",
          "name": "votedCandidateId",
          "type": "uint256"
        },
        {
          "internalType": "bool",
          "name": "voted",
          "type": "bool"
        }
      ],
      "stateMutability": "view",
      "type": "function",
      "constant": true
    },
    {
      "inputs": [
        {
          "internalType": "uint256",
          "name": "",
          "type": "uint256"
        }
      ],
      "name": "voters",
      "outputs": [
        {
          "internalType": "uint256",
          "name": "id",
          "type": "uint256"
        },
        {
          "internalType": "string",
          "name": "key",
          "type": "string"
        },
        {
          "internalType": "string",
          "name": "email",
          "type": "string"
        },
        {
          "internalType": "bytes32",
          "name": "password",
          "type": "bytes32"
        },
        {
          "internalType": "string",
          "name": "role",
          "type": "string"
        },
        {
          "internalType": "uint256",
          "name": "status",
          "type": "uint256"
        },
        {
          "internalType": "string",
          "name": "token",
          "type": "string"
        }
      ],
      "stateMutability": "view",
      "type": "function",
      "constant": true
    },
    {
      "inputs": [
        {
          "internalType": "uint256",
          "name": "_categoryId",
          "type": "uint256"
        }
      ],
      "name": "getEventsByCategory",
      "outputs": [
        {
          "components": [
            {
              "internalType": "uint256",
              "name": "eventId",
              "type": "uint256"
            },
            {
              "internalType": "string",
              "name": "eventName",
              "type": "string"
            },
            {
              "internalType": "uint256",
              "name": "categoryId",
              "type": "uint256"
            },
            {
              "components": [
                {
                  "internalType": "uint256",
                  "name": "id",
                  "type": "uint256"
                },
                {
                  "internalType": "string",
                  "name": "name",
                  "type": "string"
                },
                {
                  "internalType": "string",
                  "name": "description",
                  "type": "string"
                },
                {
                  "internalType": "uint256",
                  "name": "studentId",
                  "type": "uint256"
                },
                {
                  "internalType": "uint256",
                  "name": "categoryId",
                  "type": "uint256"
                },
                {
                  "internalType": "uint256",
                  "name": "eventId",
                  "type": "uint256"
                },
                {
                  "internalType": "uint256",
                  "name": "voteCount",
                  "type": "uint256"
                },
                {
                  "internalType": "bool",
                  "name": "win",
                  "type": "bool"
                },
                {
                  "internalType": "string",
                  "name": "imageFileName",
                  "type": "string"
                }
              ],
              "internalType": "struct VotingSystem.Candidate[]",
              "name": "candidates",
              "type": "tuple[]"
            },
            {
              "internalType": "uint256",
              "name": "candidateCount",
              "type": "uint256"
            },
            {
              "internalType": "uint256",
              "name": "startDateTime",
              "type": "uint256"
            },
            {
              "internalType": "uint256",
              "name": "endDateTime",
              "type": "uint256"
            },
            {
              "internalType": "uint256",
              "name": "status",
              "type": "uint256"
            },
            {
              "internalType": "string",
              "name": "eventDesc",
              "type": "string"
            }
          ],
          "internalType": "struct VotingSystem.Event[]",
          "name": "",
          "type": "tuple[]"
        }
      ],
      "stateMutability": "view",
      "type": "function",
      "constant": true
    },
    {
      "inputs": [
        {
          "internalType": "uint256",
          "name": "_categoryId",
          "type": "uint256"
        },
        {
          "internalType": "uint256",
          "name": "_eventId",
          "type": "uint256"
        }
      ],
      "name": "getCandidatesByEvent",
      "outputs": [
        {
          "components": [
            {
              "internalType": "uint256",
              "name": "id",
              "type": "uint256"
            },
            {
              "internalType": "string",
              "name": "name",
              "type": "string"
            },
            {
              "internalType": "string",
              "name": "description",
              "type": "string"
            },
            {
              "internalType": "uint256",
              "name": "studentId",
              "type": "uint256"
            },
            {
              "internalType": "uint256",
              "name": "categoryId",
              "type": "uint256"
            },
            {
              "internalType": "uint256",
              "name": "eventId",
              "type": "uint256"
            },
            {
              "internalType": "uint256",
              "name": "voteCount",
              "type": "uint256"
            },
            {
              "internalType": "bool",
              "name": "win",
              "type": "bool"
            },
            {
              "internalType": "string",
              "name": "imageFileName",
              "type": "string"
            }
          ],
          "internalType": "struct VotingSystem.Candidate[]",
          "name": "",
          "type": "tuple[]"
        }
      ],
      "stateMutability": "view",
      "type": "function",
      "constant": true
    },
    {
      "inputs": [
        {
          "internalType": "uint256",
          "name": "categoryId",
          "type": "uint256"
        },
        {
          "internalType": "uint256",
          "name": "year",
          "type": "uint256"
        }
      ],
      "name": "getPositionVotes",
      "outputs": [
        {
          "internalType": "uint256[]",
          "name": "",
          "type": "uint256[]"
        },
        {
          "internalType": "uint256[]",
          "name": "",
          "type": "uint256[]"
        }
      ],
      "stateMutability": "view",
      "type": "function",
      "constant": true
    },
    {
      "inputs": [
        {
          "internalType": "uint256",
          "name": "_categoryId",
          "type": "uint256"
        },
        {
          "internalType": "uint256",
          "name": "_eventId",
          "type": "uint256"
        }
      ],
      "name": "getEventById",
      "outputs": [
        {
          "components": [
            {
              "internalType": "uint256",
              "name": "eventId",
              "type": "uint256"
            },
            {
              "internalType": "string",
              "name": "eventName",
              "type": "string"
            },
            {
              "internalType": "uint256",
              "name": "categoryId",
              "type": "uint256"
            },
            {
              "components": [
                {
                  "internalType": "uint256",
                  "name": "id",
                  "type": "uint256"
                },
                {
                  "internalType": "string",
                  "name": "name",
                  "type": "string"
                },
                {
                  "internalType": "string",
                  "name": "description",
                  "type": "string"
                },
                {
                  "internalType": "uint256",
                  "name": "studentId",
                  "type": "uint256"
                },
                {
                  "internalType": "uint256",
                  "name": "categoryId",
                  "type": "uint256"
                },
                {
                  "internalType": "uint256",
                  "name": "eventId",
                  "type": "uint256"
                },
                {
                  "internalType": "uint256",
                  "name": "voteCount",
                  "type": "uint256"
                },
                {
                  "internalType": "bool",
                  "name": "win",
                  "type": "bool"
                },
                {
                  "internalType": "string",
                  "name": "imageFileName",
                  "type": "string"
                }
              ],
              "internalType": "struct VotingSystem.Candidate[]",
              "name": "candidates",
              "type": "tuple[]"
            },
            {
              "internalType": "uint256",
              "name": "candidateCount",
              "type": "uint256"
            },
            {
              "internalType": "uint256",
              "name": "startDateTime",
              "type": "uint256"
            },
            {
              "internalType": "uint256",
              "name": "endDateTime",
              "type": "uint256"
            },
            {
              "internalType": "uint256",
              "name": "status",
              "type": "uint256"
            },
            {
              "internalType": "string",
              "name": "eventDesc",
              "type": "string"
            }
          ],
          "internalType": "struct VotingSystem.Event",
          "name": "",
          "type": "tuple"
        }
      ],
      "stateMutability": "view",
      "type": "function",
      "constant": true
    },
    {
      "inputs": [
        {
          "internalType": "uint256",
          "name": "year",
          "type": "uint256"
        }
      ],
      "name": "getCategoriesInYear",
      "outputs": [
        {
          "components": [
            {
              "internalType": "uint256",
              "name": "categoryId",
              "type": "uint256"
            },
            {
              "internalType": "string",
              "name": "categoryName",
              "type": "string"
            },
            {
              "components": [
                {
                  "internalType": "uint256",
                  "name": "eventId",
                  "type": "uint256"
                },
                {
                  "internalType": "string",
                  "name": "eventName",
                  "type": "string"
                },
                {
                  "internalType": "uint256",
                  "name": "categoryId",
                  "type": "uint256"
                },
                {
                  "components": [
                    {
                      "internalType": "uint256",
                      "name": "id",
                      "type": "uint256"
                    },
                    {
                      "internalType": "string",
                      "name": "name",
                      "type": "string"
                    },
                    {
                      "internalType": "string",
                      "name": "description",
                      "type": "string"
                    },
                    {
                      "internalType": "uint256",
                      "name": "studentId",
                      "type": "uint256"
                    },
                    {
                      "internalType": "uint256",
                      "name": "categoryId",
                      "type": "uint256"
                    },
                    {
                      "internalType": "uint256",
                      "name": "eventId",
                      "type": "uint256"
                    },
                    {
                      "internalType": "uint256",
                      "name": "voteCount",
                      "type": "uint256"
                    },
                    {
                      "internalType": "bool",
                      "name": "win",
                      "type": "bool"
                    },
                    {
                      "internalType": "string",
                      "name": "imageFileName",
                      "type": "string"
                    }
                  ],
                  "internalType": "struct VotingSystem.Candidate[]",
                  "name": "candidates",
                  "type": "tuple[]"
                },
                {
                  "internalType": "uint256",
                  "name": "candidateCount",
                  "type": "uint256"
                },
                {
                  "internalType": "uint256",
                  "name": "startDateTime",
                  "type": "uint256"
                },
                {
                  "internalType": "uint256",
                  "name": "endDateTime",
                  "type": "uint256"
                },
                {
                  "internalType": "uint256",
                  "name": "status",
                  "type": "uint256"
                },
                {
                  "internalType": "string",
                  "name": "eventDesc",
                  "type": "string"
                }
              ],
              "internalType": "struct VotingSystem.Event[]",
              "name": "events",
              "type": "tuple[]"
            },
            {
              "internalType": "uint256",
              "name": "status",
              "type": "uint256"
            }
          ],
          "internalType": "struct VotingSystem.Category[]",
          "name": "",
          "type": "tuple[]"
        }
      ],
      "stateMutability": "view",
      "type": "function",
      "constant": true
    },
    {
      "inputs": [
        {
          "internalType": "uint256",
          "name": "_categoryId",
          "type": "uint256"
        },
        {
          "internalType": "uint256",
          "name": "_year",
          "type": "uint256"
        }
      ],
      "name": "getCategoryYearlyVoteCount",
      "outputs": [
        {
          "internalType": "uint256",
          "name": "",
          "type": "uint256"
        }
      ],
      "stateMutability": "view",
      "type": "function",
      "constant": true
    },
    {
      "inputs": [],
      "name": "getAvailableYears",
      "outputs": [
        {
          "internalType": "uint256[]",
          "name": "",
          "type": "uint256[]"
        }
      ],
      "stateMutability": "view",
      "type": "function",
      "constant": true
    },
    {
      "inputs": [
        {
          "internalType": "string",
          "name": "_categoryName",
          "type": "string"
        }
      ],
      "name": "addCategory",
      "outputs": [],
      "stateMutability": "nonpayable",
      "type": "function"
    },
    {
      "inputs": [
        {
          "internalType": "uint256",
          "name": "_categoryId",
          "type": "uint256"
        },
        {
          "internalType": "string",
          "name": "_eventName",
          "type": "string"
        },
        {
          "internalType": "string",
          "name": "_eventDesc",
          "type": "string"
        },
        {
          "internalType": "uint256",
          "name": "_startDateTime",
          "type": "uint256"
        },
        {
          "internalType": "uint256",
          "name": "_endDateTime",
          "type": "uint256"
        }
      ],
      "name": "addEvent",
      "outputs": [],
      "stateMutability": "nonpayable",
      "type": "function"
    },
    {
      "inputs": [
        {
          "internalType": "uint256",
          "name": "_categoryId",
          "type": "uint256"
        },
        {
          "internalType": "string",
          "name": "_eventName",
          "type": "string"
        }
      ],
      "name": "isEventExists",
      "outputs": [
        {
          "internalType": "bool",
          "name": "",
          "type": "bool"
        }
      ],
      "stateMutability": "view",
      "type": "function",
      "constant": true
    },
    {
      "inputs": [
        {
          "internalType": "uint256",
          "name": "_categoryId",
          "type": "uint256"
        },
        {
          "internalType": "string",
          "name": "_eventName",
          "type": "string"
        },
        {
          "internalType": "uint256",
          "name": "_startDateTime",
          "type": "uint256"
        }
      ],
      "name": "isEventStart",
      "outputs": [
        {
          "internalType": "bool",
          "name": "",
          "type": "bool"
        }
      ],
      "stateMutability": "view",
      "type": "function",
      "constant": true
    },
    {
      "inputs": [
        {
          "components": [
            {
              "internalType": "uint256",
              "name": "eventId",
              "type": "uint256"
            },
            {
              "internalType": "string",
              "name": "eventName",
              "type": "string"
            },
            {
              "internalType": "uint256",
              "name": "categoryId",
              "type": "uint256"
            },
            {
              "components": [
                {
                  "internalType": "uint256",
                  "name": "id",
                  "type": "uint256"
                },
                {
                  "internalType": "string",
                  "name": "name",
                  "type": "string"
                },
                {
                  "internalType": "string",
                  "name": "description",
                  "type": "string"
                },
                {
                  "internalType": "uint256",
                  "name": "studentId",
                  "type": "uint256"
                },
                {
                  "internalType": "uint256",
                  "name": "categoryId",
                  "type": "uint256"
                },
                {
                  "internalType": "uint256",
                  "name": "eventId",
                  "type": "uint256"
                },
                {
                  "internalType": "uint256",
                  "name": "voteCount",
                  "type": "uint256"
                },
                {
                  "internalType": "bool",
                  "name": "win",
                  "type": "bool"
                },
                {
                  "internalType": "string",
                  "name": "imageFileName",
                  "type": "string"
                }
              ],
              "internalType": "struct VotingSystem.Candidate[]",
              "name": "candidates",
              "type": "tuple[]"
            },
            {
              "internalType": "uint256",
              "name": "candidateCount",
              "type": "uint256"
            },
            {
              "internalType": "uint256",
              "name": "startDateTime",
              "type": "uint256"
            },
            {
              "internalType": "uint256",
              "name": "endDateTime",
              "type": "uint256"
            },
            {
              "internalType": "uint256",
              "name": "status",
              "type": "uint256"
            },
            {
              "internalType": "string",
              "name": "eventDesc",
              "type": "string"
            }
          ],
          "internalType": "struct VotingSystem.Event",
          "name": "_event",
          "type": "tuple"
        }
      ],
      "name": "updateEvent",
      "outputs": [],
      "stateMutability": "nonpayable",
      "type": "function"
    },
    {
      "inputs": [
        {
          "internalType": "uint256",
          "name": "_categoryId",
          "type": "uint256"
        },
        {
          "internalType": "uint256",
          "name": "_eventId",
          "type": "uint256"
        },
        {
          "internalType": "string",
          "name": "_candidateName",
          "type": "string"
        },
        {
          "internalType": "string",
          "name": "_description",
          "type": "string"
        },
        {
          "internalType": "uint256",
          "name": "_studentId",
          "type": "uint256"
        },
        {
          "internalType": "string",
          "name": "_imageFileName",
          "type": "string"
        }
      ],
      "name": "addCandidateToEvent",
      "outputs": [],
      "stateMutability": "nonpayable",
      "type": "function"
    },
    {
      "inputs": [
        {
          "internalType": "uint256",
          "name": "_categoryId",
          "type": "uint256"
        },
        {
          "internalType": "uint256",
          "name": "_eventId",
          "type": "uint256"
        },
        {
          "internalType": "uint256",
          "name": "_studentId",
          "type": "uint256"
        }
      ],
      "name": "isCandidateExistsInEvent",
      "outputs": [
        {
          "internalType": "bool",
          "name": "",
          "type": "bool"
        }
      ],
      "stateMutability": "view",
      "type": "function",
      "constant": true
    },
    {
      "inputs": [
        {
          "internalType": "uint256",
          "name": "_categoryId",
          "type": "uint256"
        },
        {
          "internalType": "uint256",
          "name": "_eventId",
          "type": "uint256"
        },
        {
          "internalType": "uint256",
          "name": "_candidateId",
          "type": "uint256"
        }
      ],
      "name": "isCandidateExistsInEventById",
      "outputs": [
        {
          "internalType": "bool",
          "name": "",
          "type": "bool"
        }
      ],
      "stateMutability": "view",
      "type": "function",
      "constant": true
    },
    {
      "inputs": [
        {
          "internalType": "uint256",
          "name": "_categoryId",
          "type": "uint256"
        },
        {
          "internalType": "uint256",
          "name": "_eventId",
          "type": "uint256"
        }
      ],
      "name": "isEventExistsById",
      "outputs": [
        {
          "internalType": "bool",
          "name": "",
          "type": "bool"
        }
      ],
      "stateMutability": "view",
      "type": "function",
      "constant": true
    },
    {
      "inputs": [
        {
          "internalType": "uint256",
          "name": "_categoryId",
          "type": "uint256"
        },
        {
          "internalType": "uint256",
          "name": "_eventId",
          "type": "uint256"
        }
      ],
      "name": "getAllCandidatesInEvent",
      "outputs": [
        {
          "components": [
            {
              "internalType": "uint256",
              "name": "id",
              "type": "uint256"
            },
            {
              "internalType": "string",
              "name": "name",
              "type": "string"
            },
            {
              "internalType": "string",
              "name": "description",
              "type": "string"
            },
            {
              "internalType": "uint256",
              "name": "studentId",
              "type": "uint256"
            },
            {
              "internalType": "uint256",
              "name": "categoryId",
              "type": "uint256"
            },
            {
              "internalType": "uint256",
              "name": "eventId",
              "type": "uint256"
            },
            {
              "internalType": "uint256",
              "name": "voteCount",
              "type": "uint256"
            },
            {
              "internalType": "bool",
              "name": "win",
              "type": "bool"
            },
            {
              "internalType": "string",
              "name": "imageFileName",
              "type": "string"
            }
          ],
          "internalType": "struct VotingSystem.Candidate[]",
          "name": "foundCandidates",
          "type": "tuple[]"
        }
      ],
      "stateMutability": "view",
      "type": "function",
      "constant": true
    },
    {
      "inputs": [],
      "name": "getAllCandidates",
      "outputs": [
        {
          "components": [
            {
              "internalType": "uint256",
              "name": "id",
              "type": "uint256"
            },
            {
              "internalType": "string",
              "name": "name",
              "type": "string"
            },
            {
              "internalType": "string",
              "name": "description",
              "type": "string"
            },
            {
              "internalType": "uint256",
              "name": "studentId",
              "type": "uint256"
            },
            {
              "internalType": "uint256",
              "name": "categoryId",
              "type": "uint256"
            },
            {
              "internalType": "uint256",
              "name": "eventId",
              "type": "uint256"
            },
            {
              "internalType": "uint256",
              "name": "voteCount",
              "type": "uint256"
            },
            {
              "internalType": "bool",
              "name": "win",
              "type": "bool"
            },
            {
              "internalType": "string",
              "name": "imageFileName",
              "type": "string"
            }
          ],
          "internalType": "struct VotingSystem.Candidate[]",
          "name": "",
          "type": "tuple[]"
        }
      ],
      "stateMutability": "view",
      "type": "function",
      "constant": true
    },
    {
      "inputs": [],
      "name": "getAllCategory",
      "outputs": [
        {
          "components": [
            {
              "internalType": "uint256",
              "name": "categoryId",
              "type": "uint256"
            },
            {
              "internalType": "string",
              "name": "categoryName",
              "type": "string"
            },
            {
              "components": [
                {
                  "internalType": "uint256",
                  "name": "eventId",
                  "type": "uint256"
                },
                {
                  "internalType": "string",
                  "name": "eventName",
                  "type": "string"
                },
                {
                  "internalType": "uint256",
                  "name": "categoryId",
                  "type": "uint256"
                },
                {
                  "components": [
                    {
                      "internalType": "uint256",
                      "name": "id",
                      "type": "uint256"
                    },
                    {
                      "internalType": "string",
                      "name": "name",
                      "type": "string"
                    },
                    {
                      "internalType": "string",
                      "name": "description",
                      "type": "string"
                    },
                    {
                      "internalType": "uint256",
                      "name": "studentId",
                      "type": "uint256"
                    },
                    {
                      "internalType": "uint256",
                      "name": "categoryId",
                      "type": "uint256"
                    },
                    {
                      "internalType": "uint256",
                      "name": "eventId",
                      "type": "uint256"
                    },
                    {
                      "internalType": "uint256",
                      "name": "voteCount",
                      "type": "uint256"
                    },
                    {
                      "internalType": "bool",
                      "name": "win",
                      "type": "bool"
                    },
                    {
                      "internalType": "string",
                      "name": "imageFileName",
                      "type": "string"
                    }
                  ],
                  "internalType": "struct VotingSystem.Candidate[]",
                  "name": "candidates",
                  "type": "tuple[]"
                },
                {
                  "internalType": "uint256",
                  "name": "candidateCount",
                  "type": "uint256"
                },
                {
                  "internalType": "uint256",
                  "name": "startDateTime",
                  "type": "uint256"
                },
                {
                  "internalType": "uint256",
                  "name": "endDateTime",
                  "type": "uint256"
                },
                {
                  "internalType": "uint256",
                  "name": "status",
                  "type": "uint256"
                },
                {
                  "internalType": "string",
                  "name": "eventDesc",
                  "type": "string"
                }
              ],
              "internalType": "struct VotingSystem.Event[]",
              "name": "events",
              "type": "tuple[]"
            },
            {
              "internalType": "uint256",
              "name": "status",
              "type": "uint256"
            }
          ],
          "internalType": "struct VotingSystem.Category[]",
          "name": "",
          "type": "tuple[]"
        }
      ],
      "stateMutability": "view",
      "type": "function",
      "constant": true
    },
    {
      "inputs": [
        {
          "internalType": "uint256",
          "name": "_categoryId",
          "type": "uint256"
        }
      ],
      "name": "getCategoryById",
      "outputs": [
        {
          "components": [
            {
              "internalType": "uint256",
              "name": "categoryId",
              "type": "uint256"
            },
            {
              "internalType": "string",
              "name": "categoryName",
              "type": "string"
            },
            {
              "components": [
                {
                  "internalType": "uint256",
                  "name": "eventId",
                  "type": "uint256"
                },
                {
                  "internalType": "string",
                  "name": "eventName",
                  "type": "string"
                },
                {
                  "internalType": "uint256",
                  "name": "categoryId",
                  "type": "uint256"
                },
                {
                  "components": [
                    {
                      "internalType": "uint256",
                      "name": "id",
                      "type": "uint256"
                    },
                    {
                      "internalType": "string",
                      "name": "name",
                      "type": "string"
                    },
                    {
                      "internalType": "string",
                      "name": "description",
                      "type": "string"
                    },
                    {
                      "internalType": "uint256",
                      "name": "studentId",
                      "type": "uint256"
                    },
                    {
                      "internalType": "uint256",
                      "name": "categoryId",
                      "type": "uint256"
                    },
                    {
                      "internalType": "uint256",
                      "name": "eventId",
                      "type": "uint256"
                    },
                    {
                      "internalType": "uint256",
                      "name": "voteCount",
                      "type": "uint256"
                    },
                    {
                      "internalType": "bool",
                      "name": "win",
                      "type": "bool"
                    },
                    {
                      "internalType": "string",
                      "name": "imageFileName",
                      "type": "string"
                    }
                  ],
                  "internalType": "struct VotingSystem.Candidate[]",
                  "name": "candidates",
                  "type": "tuple[]"
                },
                {
                  "internalType": "uint256",
                  "name": "candidateCount",
                  "type": "uint256"
                },
                {
                  "internalType": "uint256",
                  "name": "startDateTime",
                  "type": "uint256"
                },
                {
                  "internalType": "uint256",
                  "name": "endDateTime",
                  "type": "uint256"
                },
                {
                  "internalType": "uint256",
                  "name": "status",
                  "type": "uint256"
                },
                {
                  "internalType": "string",
                  "name": "eventDesc",
                  "type": "string"
                }
              ],
              "internalType": "struct VotingSystem.Event[]",
              "name": "events",
              "type": "tuple[]"
            },
            {
              "internalType": "uint256",
              "name": "status",
              "type": "uint256"
            }
          ],
          "internalType": "struct VotingSystem.Category",
          "name": "",
          "type": "tuple"
        }
      ],
      "stateMutability": "view",
      "type": "function",
      "constant": true
    },
    {
      "inputs": [],
      "name": "getAllEvent",
      "outputs": [
        {
          "components": [
            {
              "internalType": "uint256",
              "name": "eventId",
              "type": "uint256"
            },
            {
              "internalType": "string",
              "name": "eventName",
              "type": "string"
            },
            {
              "internalType": "uint256",
              "name": "categoryId",
              "type": "uint256"
            },
            {
              "components": [
                {
                  "internalType": "uint256",
                  "name": "id",
                  "type": "uint256"
                },
                {
                  "internalType": "string",
                  "name": "name",
                  "type": "string"
                },
                {
                  "internalType": "string",
                  "name": "description",
                  "type": "string"
                },
                {
                  "internalType": "uint256",
                  "name": "studentId",
                  "type": "uint256"
                },
                {
                  "internalType": "uint256",
                  "name": "categoryId",
                  "type": "uint256"
                },
                {
                  "internalType": "uint256",
                  "name": "eventId",
                  "type": "uint256"
                },
                {
                  "internalType": "uint256",
                  "name": "voteCount",
                  "type": "uint256"
                },
                {
                  "internalType": "bool",
                  "name": "win",
                  "type": "bool"
                },
                {
                  "internalType": "string",
                  "name": "imageFileName",
                  "type": "string"
                }
              ],
              "internalType": "struct VotingSystem.Candidate[]",
              "name": "candidates",
              "type": "tuple[]"
            },
            {
              "internalType": "uint256",
              "name": "candidateCount",
              "type": "uint256"
            },
            {
              "internalType": "uint256",
              "name": "startDateTime",
              "type": "uint256"
            },
            {
              "internalType": "uint256",
              "name": "endDateTime",
              "type": "uint256"
            },
            {
              "internalType": "uint256",
              "name": "status",
              "type": "uint256"
            },
            {
              "internalType": "string",
              "name": "eventDesc",
              "type": "string"
            }
          ],
          "internalType": "struct VotingSystem.Event[]",
          "name": "",
          "type": "tuple[]"
        }
      ],
      "stateMutability": "view",
      "type": "function",
      "constant": true
    }
  ],
  "bytecode": "0x60806040523480156200001157600080fd5b50600080546001600160a01b03191633179055604080518082019091526009815268464f4353203230323160b81b60208201526200004f90620004ac565b60408051808201909152600981526846414642203230323160b81b60208201526200007a90620004ac565b6040805180820190915260098152682327a1a9901918191960b91b6020820152620000a590620004ac565b6040805180820190915260098152682320a321101918191960b91b6020820152620000d090620004ac565b6200012f60016040518060400160405280600e81526020016d4576656e742031202d203230323160901b8152506040518060400160405280600381526020016261616160e81b8152506361a72b806361a87d00620005e860201b60201c565b620001b16001806040518060400160405280600b81526020016a43616e646964617465203160a81b8152506040518060400160405280600d81526020016c4465736372697074696f6e203160981b815250607b6040518060400160405280600a815260200169696d616765312e6a706760b01b8152506200074960201b60201c565b620002346001806040518060400160405280600b81526020016a21b0b73234b230ba32901960a91b8152506040518060400160405280600d81526020016c2232b9b1b934b83a34b7b7101960991b8152506101c86040518060400160405280600a815260200169696d616765322e6a706760b01b8152506200074960201b60201c565b620002b76001806040518060400160405280600b81526020016a43616e646964617465203360a81b8152506040518060400160405280600d81526020016c4465736372697074696f6e203360981b8152506103156040518060400160405280600a815260200169696d616765332e6a706760b01b8152506200074960201b60201c565b620002c56001808062000a75565b620002d4600180600262000a75565b620002e3600180600362000a75565b620002f2600180600262000a75565b62000301600180600362000a75565b62000310600180600362000a75565b6200036f60016040518060400160405280600e81526020016d4576656e742032202d203230323160901b8152506040518060400160405280600381526020016261616160e81b8152506361a72b856361a87d08620005e860201b60201c565b620003f3600160026040518060400160405280600b81526020016a43616e646964617465203160a81b8152506040518060400160405280600d81526020016c4465736372697074696f6e203160981b81525061022b6040518060400160405280600a815260200169696d616765342e6a706760b01b8152506200074960201b60201c565b62000477600160026040518060400160405280600b81526020016a21b0b73234b230ba32901960a91b8152506040518060400160405280600d81526020016c2232b9b1b934b83a34b7b7101960991b8152506103096040518060400160405280600a815260200169696d616765352e6a706760b01b8152506200074960201b60201c565b62000486600180600462000a75565b6200049660016002600462000a75565b620004a660016002600562000a75565b620014c6565b60015b6008548111620005565760016000828152602001908152602001600020600101604051620004de919062001324565b6040518091039020828051906020012003620005415760405162461bcd60e51b815260206004820152601760248201527f43617465676f727920616c72656164792065786973747300000000000000000060448201526064015b60405180910390fd5b806200054d81620013dd565b915050620004af565b506001600860008282546200056c9190620013f9565b90915550506008546000908152600160208181526040909220835190926200059b928401919085019062001242565b5060088054825560016003830155546040517f5bae3f75753ef0a1c0ea0f6c51d7b43a4b8d116572b8b7b5cb771f9ad32d4ae590620005dc90859062001447565b60405180910390a25050565b6000858152600160205260408120549003620006475760405162461bcd60e51b815260206004820152601760248201527f43617465676f727920686173206e6f7420657869737473000000000000000000604482015260640162000538565b62000653858562000b9e565b15620006a25760405162461bcd60e51b815260206004820152601460248201527f4576656e7420616c726561647920657869737473000000000000000000000000604482015260640162000538565b60008581526001602081905260408220600a8054919392918390620006c9908490620013f9565b918290555060028401805460018181018355600092835260209283902060099092029091018381558a5193955093506200070a92908401918a019062001242565b50855162000722906008830190602089019062001242565b50600281019790975550506001600786015560058501919091556006909301929092555050565b6000868152600160205260408120549003620007975760405162461bcd60e51b81526020600482015260176024820152600080516020620063d1833981519152604482015260640162000538565b620007a3868662000c95565b620007f15760405162461bcd60e51b815260206004820152601460248201527f4576656e7420646f6573206e6f74206578697374000000000000000000000000604482015260640162000538565b620007fe86868462000d61565b156200084d5760405162461bcd60e51b815260206004820152601860248201527f43616e64696461746520616c7265616479206578697374730000000000000000604482015260640162000538565b600160096000828254620008629190620013f9565b9091555050604080516101208101825260095481526020808201879052818301869052606082018590526080820189905260a08201889052600060c0830181905260e083018190526101008301859052898152600190915291822090915b600282015481101562000a365787826002018281548110620008e657620008e66200147c565b9060005260206000209060090201600001540362000a21578160020181815481106200091657620009166200147c565b60009182526020808320600992830201600301805460018082018355918552938290208751949093029092019283558581015180518794936200095f9390850192019062001242565b50604082015180516200097d91600284019160209091019062001242565b50606082015160038201556080820151600482015560a0820151600582015560c0820151600682015560e082015160078201805460ff19169115159190911790556101008201518051620009dc91600884019160209091019062001242565b5050506001826002018281548110620009f957620009f96200147c565b9060005260206000209060090201600401600082825462000a1b9190620013f9565b90915550505b8062000a2d81620013dd565b915050620008c0565b50600160068460405162000a4b919062001492565b908152604051908190036020019020805491151560ff199092169190911790555050505050505050565b6000838152600160205260408120600201905b815481101562000b97578382828154811062000aa85762000aa86200147c565b9060005260206000209060090201600001540362000b8257600082828154811062000ad75762000ad76200147c565b9060005260206000209060090201600301905060005b815481101562000b7f578482828154811062000b0d5762000b0d6200147c565b9060005260206000209060090201600001540362000b6a57600182828154811062000b3c5762000b3c6200147c565b9060005260206000209060090201600601600082825462000b5e9190620013f9565b9091555062000b7f9050565b8062000b7681620013dd565b91505062000aed565b50505b8062000b8e81620013dd565b91505062000a88565b5050505050565b600082815260016020526040812054810362000bec5760405162461bcd60e51b81526020600482015260176024820152600080516020620063d1833981519152604482015260640162000538565b60005b60008481526001602052604090206002015481101562000c8957828051906020012060016000868152602001908152602001600020600201828154811062000c3b5762000c3b6200147c565b906000526020600020906009020160010160405162000c5b919062001324565b60405180910390200362000c7457600191505062000c8f565b8062000c8081620013dd565b91505062000bef565b50600090505b92915050565b600082815260016020526040812054810362000ce35760405162461bcd60e51b81526020600482015260176024820152600080516020620063d1833981519152604482015260640162000538565b60005b60008481526001602052604090206002015481101562000c8957600084815260016020526040902060020180548491908390811062000d295762000d296200147c565b9060005260206000209060090201600001540362000d4c57600191505062000c8f565b8062000d5881620013dd565b91505062000ce6565b600083815260016020526040812054810362000daf5760405162461bcd60e51b81526020600482015260176024820152600080516020620063d1833981519152604482015260640162000538565b600062000dbd858562000e23565b905060005b815181101562000e15578382828151811062000de25762000de26200147c565b6020026020010151606001510362000e005760019250505062000e1c565b8062000e0c81620013dd565b91505062000dc2565b5060009150505b9392505050565b60008281526001602052604081206060915b60028201548110156200123a578382600201828154811062000e5b5762000e5b6200147c565b906000526020600020906009020160000154036200122557600082600201828154811062000e8d5762000e8d6200147c565b9060005260206000209060090201600401546001600160401b0381111562000eb95762000eb9620014b0565b60405190808252806020026020018201604052801562000f3e57816020015b62000f2a60405180610120016040528060008152602001606081526020016060815260200160008152602001600081526020016000815260200160008152602001600015158152602001606081525090565b81526020019060019003908162000ed85790505b50905060005b83600201838154811062000f5c5762000f5c6200147c565b906000526020600020906009020160030180549050811015620012195783600201838154811062000f915762000f916200147c565b9060005260206000209060090201600301818154811062000fb65762000fb66200147c565b9060005260206000209060090201604051806101200160405290816000820154815260200160018201805462000fec90620012e8565b80601f01602080910402602001604051908101604052809291908181526020018280546200101a90620012e8565b80156200106b5780601f106200103f576101008083540402835291602001916200106b565b820191906000526020600020905b8154815290600101906020018083116200104d57829003601f168201915b505050505081526020016002820180546200108690620012e8565b80601f0160208091040260200160405190810160405280929190818152602001828054620010b490620012e8565b8015620011055780601f10620010d95761010080835404028352916020019162001105565b820191906000526020600020905b815481529060010190602001808311620010e757829003601f168201915b505050918352505060038201546020820152600482015460408201526005820154606082015260068201546080820152600782015460ff16151560a082015260088201805460c0909201916200115b90620012e8565b80601f01602080910402602001604051908101604052809291908181526020018280546200118990620012e8565b8015620011da5780601f10620011ae57610100808354040283529160200191620011da565b820191906000526020600020905b815481529060010190602001808311620011bc57829003601f168201915b505050505081525050828281518110620011f857620011f86200147c565b602002602001018190525080806200121090620013dd565b91505062000f44565b50925062000c8f915050565b806200123181620013dd565b91505062000e35565b505092915050565b8280546200125090620012e8565b90600052602060002090601f016020900481019282620012745760008555620012bf565b82601f106200128f57805160ff1916838001178555620012bf565b82800160010185558215620012bf579182015b82811115620012bf578251825591602001919060010190620012a2565b50620012cd929150620012d1565b5090565b5b80821115620012cd5760008155600101620012d2565b600181811c90821680620012fd57607f821691505b6020821081036200131e57634e487b7160e01b600052602260045260246000fd5b50919050565b600080835481600182811c9150808316806200134157607f831692505b602080841082036200136157634e487b7160e01b86526022600452602486fd5b8180156200137857600181146200138a57620013b9565b60ff19861689528489019650620013b9565b60008a81526020902060005b86811015620013b15781548b82015290850190830162001396565b505084890196505b509498975050505050505050565b634e487b7160e01b600052601160045260246000fd5b600060018201620013f257620013f2620013c7565b5060010190565b600082198211156200140f576200140f620013c7565b500190565b60005b838110156200143157818101518382015260200162001417565b8381111562001441576000848401525b50505050565b60208152600082518060208401526200146881604085016020870162001414565b601f01601f19169190910160400192915050565b634e487b7160e01b600052603260045260246000fd5b60008251620014a681846020870162001414565b9190910192915050565b634e487b7160e01b600052604160045260246000fd5b614efb80620014d66000396000f3fe608060405234801561001057600080fd5b50600436106101735760003560e01c806376304984116100de5780639f00a66311610097578063cb9b1ba111610071578063cb9b1ba11461039a578063da58c7d9146103ad578063dfdffaf4146103d3578063f02526a1146103e657600080fd5b80639f00a66314610343578063b309393314610366578063bf03f6771461038757600080fd5b806376304984146102aa5780638da5cb5b146102bd5780638e0a94cd146102e85780638f2c280514610308578063909f85021461031057806397771a7c1461033057600080fd5b806339a3021e1161013057806339a3021e1461020b57806350515a771461022c578063531f142b1461023f5780635b4d727c1461025257806360e93f3c14610265578063642d20ad1461028557600080fd5b80631002cdd4146101785780631b3e933014610196578063221286ee146101b95780632c7db44f146101ce5780632e0dcbf7146101e15780632e6997fe146101f6575b600080fd5b6101806103f9565b60405161018d9190614355565b60405180910390f35b6101a96101a4366004614495565b6108e9565b604051901515815260200161018d565b6101c1610a2a565b60405161018d919061451f565b6101806101dc366004614532565b610c2f565b6101f46101ef36600461454b565b611083565b005b6101fe6111ad565b60405161018d9190614587565b61021e61021936600461466a565b61132f565b60405190815260200161018d565b6101a961023a36600461468c565b611471565b6101f461024d366004614854565b61153a565b6101fe61026036600461466a565b61166a565b610278610273366004614532565b611a06565b60405161018d91906149da565b610298610293366004614532565b611f10565b60405161018d969594939291906149ed565b6101f46102b8366004614a2d565b611fd1565b6000546102d0906001600160a01b031681565b6040516001600160a01b03909116815260200161018d565b6102fb6102f6366004614532565b61228a565b60405161018d9190614ad0565b6102fb612880565b61032361031e36600461466a565b612e23565b60405161018d9190614b25565b6101fe61033e36600461466a565b6132f1565b61035661035136600461454b565b613632565b60405161018d9493929190614b38565b61037961037436600461466a565b613775565b60405161018d929190614b71565b6101a9610395366004614b96565b613a6b565b6101f46103a8366004614bc2565b613aff565b6103c06103bb366004614532565b613c4b565b60405161018d9796959493929190614c40565b6101a96103e1366004614b96565b613ea6565b6101a96103f436600461466a565b613f2e565b60606000600a546001600160401b03811115610417576104176143b7565b60405190808252806020026020018201604052801561045057816020015b61043d61405f565b8152602001906001900390816104355790505b5090506000805b6008548110156108e15760005b600160006104728483614cc3565b81526020810191909152604001600020600201548110156108ce576001600061049b8483614cc3565b815260200190815260200160002060020181815481106104bd576104bd614cdb565b906000526020600020906009020160405180610120016040529081600082015481526020016001820180546104f190614cf1565b80601f016020809104026020016040519081016040528092919081815260200182805461051d90614cf1565b801561056a5780601f1061053f5761010080835404028352916020019161056a565b820191906000526020600020905b81548152906001019060200180831161054d57829003601f168201915b505050505081526020016002820154815260200160038201805480602002602001604051908101604052809291908181526020016000905b828210156107d0578382906000526020600020906009020160405180610120016040529081600082015481526020016001820180546105e090614cf1565b80601f016020809104026020016040519081016040528092919081815260200182805461060c90614cf1565b80156106595780601f1061062e57610100808354040283529160200191610659565b820191906000526020600020905b81548152906001019060200180831161063c57829003601f168201915b5050505050815260200160028201805461067290614cf1565b80601f016020809104026020016040519081016040528092919081815260200182805461069e90614cf1565b80156106eb5780601f106106c0576101008083540402835291602001916106eb565b820191906000526020600020905b8154815290600101906020018083116106ce57829003601f168201915b505050918352505060038201546020820152600482015460408201526005820154606082015260068201546080820152600782015460ff16151560a082015260088201805460c09092019161073f90614cf1565b80601f016020809104026020016040519081016040528092919081815260200182805461076b90614cf1565b80156107b85780601f1061078d576101008083540402835291602001916107b8565b820191906000526020600020905b81548152906001019060200180831161079b57829003601f168201915b505050505081525050815260200190600101906105a2565b5050505081526020016004820154815260200160058201548152602001600682015481526020016007820154815260200160088201805461081090614cf1565b80601f016020809104026020016040519081016040528092919081815260200182805461083c90614cf1565b80156108895780601f1061085e57610100808354040283529160200191610889565b820191906000526020600020905b81548152906001019060200180831161086c57829003601f168201915b5050505050815250508484815181106108a4576108a4614cdb565b60209081029190910101526108ba600184614cc3565b9250806108c681614d25565b915050610464565b50806108d981614d25565b915050610457565b509092915050565b600083815260016020526040812054810361091f5760405162461bcd60e51b815260040161091690614d3e565b60405180910390fd5b6109298484611471565b151560011461094a5760405162461bcd60e51b815260040161091690614d75565b60005b600085815260016020526040902060020154811015610a1d57838051906020012060016000878152602001908152602001600020600201828154811061099557610995614cdb565b90600052602060002090600902016001016040516109b39190614da3565b60405180910390201480156109fc575060008581526001602052604090206002018054829081106109e6576109e6614cdb565b9060005260206000209060090201600501548310155b15610a0b576001915050610a23565b80610a1581614d25565b91505061094d565b50600090505b9392505050565b60606000600854600a610a3d9190614e3e565b6001600160401b03811115610a5457610a546143b7565b604051908082528060200260200182016040528015610a7d578160200160208202803683370190505b509050600060015b6008548111610b8c5760005b600082815260016020526040902060020154811015610b795760008281526001602052604081206002018054610ae9919084908110610ad257610ad2614cdb565b906000526020600020906009020160050154613fd0565b90506000805b85811015610b325782878281518110610b0a57610b0a614cdb565b602002602001015103610b205760019150610b32565b80610b2a81614d25565b915050610aef565b5080610b645781868681518110610b4b57610b4b614cdb565b602090810291909101015284610b6081614d25565b9550505b50508080610b7190614d25565b915050610a91565b5080610b8481614d25565b915050610a85565b506000816001600160401b03811115610ba757610ba76143b7565b604051908082528060200260200182016040528015610bd0578160200160208202803683370190505b50905060005b82811015610c2757838181518110610bf057610bf0614cdb565b6020026020010151828281518110610c0a57610c0a614cdb565b602090810291909101015280610c1f81614d25565b915050610bd6565b509392505050565b60008181526001602052604081205460609103610c5e5760405162461bcd60e51b815260040161091690614d3e565b600082815260016020908152604080832060020180548251818502810185019093528083529193909284015b8282101561107857838290600052602060002090600902016040518061012001604052908160008201548152602001600182018054610cc890614cf1565b80601f0160208091040260200160405190810160405280929190818152602001828054610cf490614cf1565b8015610d415780601f10610d1657610100808354040283529160200191610d41565b820191906000526020600020905b815481529060010190602001808311610d2457829003601f168201915b505050505081526020016002820154815260200160038201805480602002602001604051908101604052809291908181526020016000905b82821015610fa757838290600052602060002090600902016040518061012001604052908160008201548152602001600182018054610db790614cf1565b80601f0160208091040260200160405190810160405280929190818152602001828054610de390614cf1565b8015610e305780601f10610e0557610100808354040283529160200191610e30565b820191906000526020600020905b815481529060010190602001808311610e1357829003601f168201915b50505050508152602001600282018054610e4990614cf1565b80601f0160208091040260200160405190810160405280929190818152602001828054610e7590614cf1565b8015610ec25780601f10610e9757610100808354040283529160200191610ec2565b820191906000526020600020905b815481529060010190602001808311610ea557829003601f168201915b505050918352505060038201546020820152600482015460408201526005820154606082015260068201546080820152600782015460ff16151560a082015260088201805460c090920191610f1690614cf1565b80601f0160208091040260200160405190810160405280929190818152602001828054610f4290614cf1565b8015610f8f5780601f10610f6457610100808354040283529160200191610f8f565b820191906000526020600020905b815481529060010190602001808311610f7257829003601f168201915b50505050508152505081526020019060010190610d79565b50505050815260200160048201548152602001600582015481526020016006820154815260200160078201548152602001600882018054610fe790614cf1565b80601f016020809104026020016040519081016040528092919081815260200182805461101390614cf1565b80156110605780601f1061103557610100808354040283529160200191611060565b820191906000526020600020905b81548152906001019060200180831161104357829003601f168201915b50505050508152505081526020019060010190610c8a565b505050509050919050565b60015b600854811161112157600160008281526020019081526020016000206001016040516110b29190614da3565b604051809103902082805190602001200361110f5760405162461bcd60e51b815260206004820152601760248201527f43617465676f727920616c7265616479206578697374730000000000000000006044820152606401610916565b8061111981614d25565b915050611086565b506001600860008282546111359190614cc3565b909155505060085460009081526001602081815260409092208351909261116292840191908501906140ab565b5060088054825560016003830155546040517f5bae3f75753ef0a1c0ea0f6c51d7b43a4b8d116572b8b7b5cb771f9ad32d4ae5906111a1908590614e5d565b60405180910390a25050565b606060006009546001600160401b038111156111cb576111cb6143b7565b60405190808252806020026020018201604052801561120457816020015b6111f161412f565b8152602001906001900390816111e95790505b5090506000600a546001600160401b03811115611223576112236143b7565b60405190808252806020026020018201604052801561125c57816020015b61124961405f565b8152602001906001900390816112415790505b5090506112676103f9565b90506000805b600a548110156113265760005b83828151811061128c5761128c614cdb565b60200260200101516060015151811015611313578382815181106112b2576112b2614cdb565b60200260200101516060015181815181106112cf576112cf614cdb565b60200260200101518584815181106112e9576112e9614cdb565b60209081029190910101526112ff600184614cc3565b92508061130b81614d25565b91505061127a565b508061131e81614d25565b91505061126d565b50919392505050565b600080805b60008581526001602052604090206002015481101561146757600085815260016020526040812060020180548390811061137057611370614cdb565b9060005260206000209060090201600501549050600061138f82613fd0565b90508581036114525760005b60008881526001602052604090206002018054859081106113be576113be614cdb565b9060005260206000209060090201600301805490508110156114505760008881526001602052604090206002018054859081106113fd576113fd614cdb565b9060005260206000209060090201600301818154811061141f5761141f614cdb565b9060005260206000209060090201600601548561143c9190614cc3565b94508061144881614d25565b91505061139b565b505b5050808061145f90614d25565b915050611334565b5090505b92915050565b600082815260016020526040812054810361149e5760405162461bcd60e51b815260040161091690614d3e565b60005b6000848152600160205260409020600201548110156115305782805190602001206001600086815260200190815260200160002060020182815481106114e9576114e9614cdb565b90600052602060002090600902016001016040516115079190614da3565b60405180910390200361151e57600191505061146b565b8061152881614d25565b9150506114a1565b5060009392505050565b6040808201516000908152600160205290812054900361159c5760405162461bcd60e51b815260206004820152601860248201527f43617465676f727920646f6573206e6f742065786973747300000000000000006044820152606401610916565b6115ae81604001518260000151613f2e565b6115f25760405162461bcd60e51b81526020600482015260156024820152744576656e7420646f6573206e6f742065786973742160581b6044820152606401610916565b600060016000836040015181526020019081526020016000206002016001836000015161161f9190614e70565b8154811061162f5761162f614cdb565b90600052602060002090600902019050816020015181600101908051906020019061165b9291906140ab565b5060e090910151600790910155565b60008281526001602052604081206060915b60028201548110156119fe578382600201828154811061169e5761169e614cdb565b906000526020600020906009020160000154036119ec5760008260020182815481106116cc576116cc614cdb565b9060005260206000209060090201600401546001600160401b038111156116f5576116f56143b7565b60405190808252806020026020018201604052801561172e57816020015b61171b61412f565b8152602001906001900390816117135790505b50905060005b83600201838154811061174957611749614cdb565b9060005260206000209060090201600301805490508110156119e15783600201838154811061177a5761177a614cdb565b9060005260206000209060090201600301818154811061179c5761179c614cdb565b906000526020600020906009020160405180610120016040529081600082015481526020016001820180546117d090614cf1565b80601f01602080910402602001604051908101604052809291908181526020018280546117fc90614cf1565b80156118495780601f1061181e57610100808354040283529160200191611849565b820191906000526020600020905b81548152906001019060200180831161182c57829003601f168201915b5050505050815260200160028201805461186290614cf1565b80601f016020809104026020016040519081016040528092919081815260200182805461188e90614cf1565b80156118db5780601f106118b0576101008083540402835291602001916118db565b820191906000526020600020905b8154815290600101906020018083116118be57829003601f168201915b505050918352505060038201546020820152600482015460408201526005820154606082015260068201546080820152600782015460ff16151560a082015260088201805460c09092019161192f90614cf1565b80601f016020809104026020016040519081016040528092919081815260200182805461195b90614cf1565b80156119a85780601f1061197d576101008083540402835291602001916119a8565b820191906000526020600020905b81548152906001019060200180831161198b57829003601f168201915b5050505050815250508282815181106119c3576119c3614cdb565b602002602001018190525080806119d990614d25565b915050611734565b50925061146b915050565b806119f681614d25565b91505061167c565b505092915050565b611a316040518060800160405280600081526020016060815260200160608152602001600081525090565b60008281526001602081815260409283902083516080810190945280548452918201805491840191611a6290614cf1565b80601f0160208091040260200160405190810160405280929190818152602001828054611a8e90614cf1565b8015611adb5780601f10611ab057610100808354040283529160200191611adb565b820191906000526020600020905b815481529060010190602001808311611abe57829003601f168201915b5050505050815260200160028201805480602002602001604051908101604052809291908181526020016000905b82821015611ef757838290600052602060002090600902016040518061012001604052908160008201548152602001600182018054611b4790614cf1565b80601f0160208091040260200160405190810160405280929190818152602001828054611b7390614cf1565b8015611bc05780601f10611b9557610100808354040283529160200191611bc0565b820191906000526020600020905b815481529060010190602001808311611ba357829003601f168201915b505050505081526020016002820154815260200160038201805480602002602001604051908101604052809291908181526020016000905b82821015611e2657838290600052602060002090600902016040518061012001604052908160008201548152602001600182018054611c3690614cf1565b80601f0160208091040260200160405190810160405280929190818152602001828054611c6290614cf1565b8015611caf5780601f10611c8457610100808354040283529160200191611caf565b820191906000526020600020905b815481529060010190602001808311611c9257829003601f168201915b50505050508152602001600282018054611cc890614cf1565b80601f0160208091040260200160405190810160405280929190818152602001828054611cf490614cf1565b8015611d415780601f10611d1657610100808354040283529160200191611d41565b820191906000526020600020905b815481529060010190602001808311611d2457829003601f168201915b505050918352505060038201546020820152600482015460408201526005820154606082015260068201546080820152600782015460ff16151560a082015260088201805460c090920191611d9590614cf1565b80601f0160208091040260200160405190810160405280929190818152602001828054611dc190614cf1565b8015611e0e5780601f10611de357610100808354040283529160200191611e0e565b820191906000526020600020905b815481529060010190602001808311611df157829003601f168201915b50505050508152505081526020019060010190611bf8565b50505050815260200160048201548152602001600582015481526020016006820154815260200160078201548152602001600882018054611e6690614cf1565b80601f0160208091040260200160405190810160405280929190818152602001828054611e9290614cf1565b8015611edf5780601f10611eb457610100808354040283529160200191611edf565b820191906000526020600020905b815481529060010190602001808311611ec257829003601f168201915b50505050508152505081526020019060010190611b09565b5050505081526020016003820154815250509050919050565b60046020526000908152604090208054600182018054919291611f3290614cf1565b80601f0160208091040260200160405190810160405280929190818152602001828054611f5e90614cf1565b8015611fab5780601f10611f8057610100808354040283529160200191611fab565b820191906000526020600020905b815481529060010190602001808311611f8e57829003601f168201915b505050506002830154600384015460048501546005909501549394919390925060ff1686565b6000868152600160205260408120549003611ffe5760405162461bcd60e51b815260040161091690614d3e565b6120088686613f2e565b6120245760405162461bcd60e51b815260040161091690614d75565b61202f868684613ea6565b1561207c5760405162461bcd60e51b815260206004820152601860248201527f43616e64696461746520616c72656164792065786973747300000000000000006044820152606401610916565b60016009600082825461208f9190614cc3565b9091555050604080516101208101825260095481526020808201879052818301869052606082018590526080820189905260a08201889052600060c0830181905260e083018190526101008301859052898152600190915291822090915b600282015481101561224d578782600201828154811061210f5761210f614cdb565b9060005260206000209060090201600001540361223b5781600201818154811061213b5761213b614cdb565b6000918252602080832060099283020160030180546001808201835591855293829020875194909302909201928355858101518051879493612182939085019201906140ab565b506040820151805161219e9160028401916020909101906140ab565b50606082015160038201556080820151600482015560a0820151600582015560c0820151600682015560e082015160078201805460ff191691151591909117905561010082015180516121fb9160088401916020909101906140ab565b505050600182600201828154811061221557612215614cdb565b906000526020600020906009020160040160008282546122359190614cc3565b90915550505b8061224581614d25565b9150506120ed565b5060016006846040516122609190614e87565b908152604051908190036020019020805491151560ff199092169190911790555050505050505050565b6060600060015b60085481116122c9576122a48185613ff8565b156122b757816122b381614d25565b9250505b806122c181614d25565b915050612291565b506000816001600160401b038111156122e4576122e46143b7565b60405190808252806020026020018201604052801561234057816020015b61232d6040518060800160405280600081526020016060815260200160608152602001600081525090565b8152602001906001900390816123025790505b509050600060015b60085481116128765761235b8187613ff8565b15612864576000818152600160208181526040928390208351608081019094528054845291820180549184019161239190614cf1565b80601f01602080910402602001604051908101604052809291908181526020018280546123bd90614cf1565b801561240a5780601f106123df5761010080835404028352916020019161240a565b820191906000526020600020905b8154815290600101906020018083116123ed57829003601f168201915b5050505050815260200160028201805480602002602001604051908101604052809291908181526020016000905b828210156128265783829060005260206000209060090201604051806101200160405290816000820154815260200160018201805461247690614cf1565b80601f01602080910402602001604051908101604052809291908181526020018280546124a290614cf1565b80156124ef5780601f106124c4576101008083540402835291602001916124ef565b820191906000526020600020905b8154815290600101906020018083116124d257829003601f168201915b505050505081526020016002820154815260200160038201805480602002602001604051908101604052809291908181526020016000905b828210156127555783829060005260206000209060090201604051806101200160405290816000820154815260200160018201805461256590614cf1565b80601f016020809104026020016040519081016040528092919081815260200182805461259190614cf1565b80156125de5780601f106125b3576101008083540402835291602001916125de565b820191906000526020600020905b8154815290600101906020018083116125c157829003601f168201915b505050505081526020016002820180546125f790614cf1565b80601f016020809104026020016040519081016040528092919081815260200182805461262390614cf1565b80156126705780601f1061264557610100808354040283529160200191612670565b820191906000526020600020905b81548152906001019060200180831161265357829003601f168201915b505050918352505060038201546020820152600482015460408201526005820154606082015260068201546080820152600782015460ff16151560a082015260088201805460c0909201916126c490614cf1565b80601f01602080910402602001604051908101604052809291908181526020018280546126f090614cf1565b801561273d5780601f106127125761010080835404028352916020019161273d565b820191906000526020600020905b81548152906001019060200180831161272057829003601f168201915b50505050508152505081526020019060010190612527565b5050505081526020016004820154815260200160058201548152602001600682015481526020016007820154815260200160088201805461279590614cf1565b80601f01602080910402602001604051908101604052809291908181526020018280546127c190614cf1565b801561280e5780601f106127e35761010080835404028352916020019161280e565b820191906000526020600020905b8154815290600101906020018083116127f157829003601f168201915b50505050508152505081526020019060010190612438565b50505050815260200160038201548152505083838151811061284a5761284a614cdb565b6020026020010181905250818061286090614d25565b9250505b8061286e81614d25565b915050612348565b5090949350505050565b606060006008546001600160401b0381111561289e5761289e6143b7565b6040519080825280602002602001820160405280156128fa57816020015b6128e76040518060800160405280600081526020016060815260200160608152602001600081525090565b8152602001906001900390816128bc5790505b50905060015b6008548111612e1d576000818152600160208181526040928390208351608081019094528054845291820180549184019161293a90614cf1565b80601f016020809104026020016040519081016040528092919081815260200182805461296690614cf1565b80156129b35780601f10612988576101008083540402835291602001916129b3565b820191906000526020600020905b81548152906001019060200180831161299657829003601f168201915b5050505050815260200160028201805480602002602001604051908101604052809291908181526020016000905b82821015612dcf57838290600052602060002090600902016040518061012001604052908160008201548152602001600182018054612a1f90614cf1565b80601f0160208091040260200160405190810160405280929190818152602001828054612a4b90614cf1565b8015612a985780601f10612a6d57610100808354040283529160200191612a98565b820191906000526020600020905b815481529060010190602001808311612a7b57829003601f168201915b505050505081526020016002820154815260200160038201805480602002602001604051908101604052809291908181526020016000905b82821015612cfe57838290600052602060002090600902016040518061012001604052908160008201548152602001600182018054612b0e90614cf1565b80601f0160208091040260200160405190810160405280929190818152602001828054612b3a90614cf1565b8015612b875780601f10612b5c57610100808354040283529160200191612b87565b820191906000526020600020905b815481529060010190602001808311612b6a57829003601f168201915b50505050508152602001600282018054612ba090614cf1565b80601f0160208091040260200160405190810160405280929190818152602001828054612bcc90614cf1565b8015612c195780601f10612bee57610100808354040283529160200191612c19565b820191906000526020600020905b815481529060010190602001808311612bfc57829003601f168201915b505050918352505060038201546020820152600482015460408201526005820154606082015260068201546080820152600782015460ff16151560a082015260088201805460c090920191612c6d90614cf1565b80601f0160208091040260200160405190810160405280929190818152602001828054612c9990614cf1565b8015612ce65780601f10612cbb57610100808354040283529160200191612ce6565b820191906000526020600020905b815481529060010190602001808311612cc957829003601f168201915b50505050508152505081526020019060010190612ad0565b50505050815260200160048201548152602001600582015481526020016006820154815260200160078201548152602001600882018054612d3e90614cf1565b80601f0160208091040260200160405190810160405280929190818152602001828054612d6a90614cf1565b8015612db75780601f10612d8c57610100808354040283529160200191612db7565b820191906000526020600020905b815481529060010190602001808311612d9a57829003601f168201915b505050505081525050815260200190600101906129e1565b50505050815260200160038201548152505082600183612def9190614e70565b81518110612dff57612dff614cdb565b60200260200101819052508080612e1590614d25565b915050612900565b50919050565b612e2b61405f565b6000838152600160205260408120549003612e585760405162461bcd60e51b815260040161091690614d3e565b600080805b600086815260016020526040902060020154811015612ed1576000868152600160205260409020600201805486919083908110612e9c57612e9c614cdb565b90600052602060002090600902016000015403612ebf5760019250809150612ed1565b80612ec981614d25565b915050612e5d565b5081612eef5760405162461bcd60e51b815260040161091690614d75565b6000858152600160205260409020600201805482908110612f1257612f12614cdb565b90600052602060002090600902016040518061012001604052908160008201548152602001600182018054612f4690614cf1565b80601f0160208091040260200160405190810160405280929190818152602001828054612f7290614cf1565b8015612fbf5780601f10612f9457610100808354040283529160200191612fbf565b820191906000526020600020905b815481529060010190602001808311612fa257829003601f168201915b505050505081526020016002820154815260200160038201805480602002602001604051908101604052809291908181526020016000905b828210156132255783829060005260206000209060090201604051806101200160405290816000820154815260200160018201805461303590614cf1565b80601f016020809104026020016040519081016040528092919081815260200182805461306190614cf1565b80156130ae5780601f10613083576101008083540402835291602001916130ae565b820191906000526020600020905b81548152906001019060200180831161309157829003601f168201915b505050505081526020016002820180546130c790614cf1565b80601f01602080910402602001604051908101604052809291908181526020018280546130f390614cf1565b80156131405780601f1061311557610100808354040283529160200191613140565b820191906000526020600020905b81548152906001019060200180831161312357829003601f168201915b505050918352505060038201546020820152600482015460408201526005820154606082015260068201546080820152600782015460ff16151560a082015260088201805460c09092019161319490614cf1565b80601f01602080910402602001604051908101604052809291908181526020018280546131c090614cf1565b801561320d5780601f106131e25761010080835404028352916020019161320d565b820191906000526020600020905b8154815290600101906020018083116131f057829003601f168201915b50505050508152505081526020019060010190612ff7565b5050505081526020016004820154815260200160058201548152602001600682015481526020016007820154815260200160088201805461326590614cf1565b80601f016020809104026020016040519081016040528092919081815260200182805461329190614cf1565b80156132de5780601f106132b3576101008083540402835291602001916132de565b820191906000526020600020905b8154815290600101906020018083116132c157829003601f168201915b5050505050815250509250505092915050565b600082815260016020526040812054606091036133205760405162461bcd60e51b815260040161091690614d3e565b60005b60008481526001602052604090206002015481101561361957600084815260016020526040902060020180548491908390811061336257613362614cdb565b9060005260206000209060090201600001540361360757600084815260016020526040902060020180548290811061339c5761339c614cdb565b9060005260206000209060090201600301805480602002602001604051908101604052809291908181526020016000905b828210156135fb5783829060005260206000209060090201604051806101200160405290816000820154815260200160018201805461340b90614cf1565b80601f016020809104026020016040519081016040528092919081815260200182805461343790614cf1565b80156134845780601f1061345957610100808354040283529160200191613484565b820191906000526020600020905b81548152906001019060200180831161346757829003601f168201915b5050505050815260200160028201805461349d90614cf1565b80601f01602080910402602001604051908101604052809291908181526020018280546134c990614cf1565b80156135165780601f106134eb57610100808354040283529160200191613516565b820191906000526020600020905b8154815290600101906020018083116134f957829003601f168201915b505050918352505060038201546020820152600482015460408201526005820154606082015260068201546080820152600782015460ff16151560a082015260088201805460c09092019161356a90614cf1565b80601f016020809104026020016040519081016040528092919081815260200182805461359690614cf1565b80156135e35780601f106135b8576101008083540402835291602001916135e3565b820191906000526020600020905b8154815290600101906020018083116135c657829003601f168201915b505050505081525050815260200190600101906133cd565b5050505091505061146b565b8061361181614d25565b915050613323565b5060405162461bcd60e51b815260040161091690614d75565b805160208183018101805160078252928201919093012091528054819061365890614cf1565b80601f016020809104026020016040519081016040528092919081815260200182805461368490614cf1565b80156136d15780601f106136a6576101008083540402835291602001916136d1565b820191906000526020600020905b8154815290600101906020018083116136b457829003601f168201915b5050505050908060010180546136e690614cf1565b80601f016020809104026020016040519081016040528092919081815260200182805461371290614cf1565b801561375f5780601f106137345761010080835404028352916020019161375f565b820191906000526020600020905b81548152906001019060200180831161374257829003601f168201915b5050505050908060020154908060030154905084565b60008281526001602052604081206002015460609182916001600160401b038111156137a3576137a36143b7565b6040519080825280602002602001820160405280156137cc578160200160208202803683370190505b50600086815260016020526040812060020154919250906001600160401b038111156137fa576137fa6143b7565b604051908082528060200260200182016040528015613823578160200160208202803683370190505b5090506000805b60008881526001602052604090206002015481101561394357600088815260016020526040812060020180548390811061386657613866614cdb565b90600052602060002090600902019050876138848260050154613fd0565b03613930576000805b60038301548110156138df578260030181815481106138ae576138ae614cdb565b906000526020600020906009020160060154826138cb9190614cc3565b9150806138d781614d25565b91505061388d565b5081600001548685815181106138f7576138f7614cdb565b6020026020010181815250508085858151811061391657613916614cdb565b60209081029190910101528361392b81614d25565b945050505b508061393b81614d25565b91505061382a565b506000816001600160401b0381111561395e5761395e6143b7565b604051908082528060200260200182016040528015613987578160200160208202803683370190505b5090506000826001600160401b038111156139a4576139a46143b7565b6040519080825280602002602001820160405280156139cd578160200160208202803683370190505b50905060005b83811015613a5c578581815181106139ed576139ed614cdb565b6020026020010151838281518110613a0757613a07614cdb565b602002602001018181525050848181518110613a2557613a25614cdb565b6020026020010151828281518110613a3f57613a3f614cdb565b602090810291909101015280613a5481614d25565b9150506139d3565b50909890975095505050505050565b6000838152600160205260408120548103613a985760405162461bcd60e51b815260040161091690614d3e565b6000613aa4858561166a565b905060005b8151811015613af35783828281518110613ac557613ac5614cdb565b60200260200101516000015103613ae157600192505050610a23565b80613aeb81614d25565b915050613aa9565b50600095945050505050565b6000858152600160205260408120549003613b5c5760405162461bcd60e51b815260206004820152601760248201527f43617465676f727920686173206e6f74206578697374730000000000000000006044820152606401610916565b613b668585611471565b15613baa5760405162461bcd60e51b81526020600482015260146024820152734576656e7420616c72656164792065786973747360601b6044820152606401610916565b60008581526001602081905260408220600a8054919392918390613bcf908490614cc3565b918290555060028401805460018181018355600092835260209283902060099092029091018381558a519395509350613c0e92908401918a01906140ab565b508551613c2490600883019060208901906140ab565b50600281019790975550506001600786015560058501919091556006909301929092555050565b60056020526000908152604090208054600182018054919291613c6d90614cf1565b80601f0160208091040260200160405190810160405280929190818152602001828054613c9990614cf1565b8015613ce65780601f10613cbb57610100808354040283529160200191613ce6565b820191906000526020600020905b815481529060010190602001808311613cc957829003601f168201915b505050505090806002018054613cfb90614cf1565b80601f0160208091040260200160405190810160405280929190818152602001828054613d2790614cf1565b8015613d745780601f10613d4957610100808354040283529160200191613d74565b820191906000526020600020905b815481529060010190602001808311613d5757829003601f168201915b505050505090806003015490806004018054613d8f90614cf1565b80601f0160208091040260200160405190810160405280929190818152602001828054613dbb90614cf1565b8015613e085780601f10613ddd57610100808354040283529160200191613e08565b820191906000526020600020905b815481529060010190602001808311613deb57829003601f168201915b505050505090806005015490806006018054613e2390614cf1565b80601f0160208091040260200160405190810160405280929190818152602001828054613e4f90614cf1565b8015613e9c5780601f10613e7157610100808354040283529160200191613e9c565b820191906000526020600020905b815481529060010190602001808311613e7f57829003601f168201915b5050505050905087565b6000838152600160205260408120548103613ed35760405162461bcd60e51b815260040161091690614d3e565b6000613edf858561166a565b905060005b8151811015613af35783828281518110613f0057613f00614cdb565b60200260200101516060015103613f1c57600192505050610a23565b80613f2681614d25565b915050613ee4565b6000828152600160205260408120548103613f5b5760405162461bcd60e51b815260040161091690614d3e565b60005b600084815260016020526040902060020154811015611530576000848152600160205260409020600201805484919083908110613f9d57613f9d614cdb565b90600052602060002090600902016000015403613fbe57600191505061146b565b80613fc881614d25565b915050613f5e565b60006301e133806107b282613fe58386614ea3565b613fef9083614cc3565b95945050505050565b6000805b6000848152600160205260409020600201548110156115305760008481526001602052604090206002018054849161403e9184908110610ad257610ad2614cdb565b0361404d57600191505061146b565b8061405781614d25565b915050613ffc565b6040518061012001604052806000815260200160608152602001600081526020016060815260200160008152602001600081526020016000815260200160008152602001606081525090565b8280546140b790614cf1565b90600052602060002090601f0160209004810192826140d9576000855561411f565b82601f106140f257805160ff191683800117855561411f565b8280016001018555821561411f579182015b8281111561411f578251825591602001919060010190614104565b5061412b92915061417d565b5090565b60405180610120016040528060008152602001606081526020016060815260200160008152602001600081526020016000815260200160008152602001600015158152602001606081525090565b5b8082111561412b576000815560010161417e565b60005b838110156141ad578181015183820152602001614195565b838111156141bc576000848401525b50505050565b600081518084526141da816020860160208601614192565b601f01601f19169290920160200192915050565b6000815180845260208085019450848260051b860182860160005b858110156142b7578383038952815161012081518552868201518188870152614234828701826141c2565b9150506040808301518683038288015261424e83826141c2565b606085810151908901526080808601519089015260a0808601519089015260c0808601519089015260e080860151151590890152610100948501518882039589019590955292506142a39150829050836141c2565b9a87019a9450505090840190600101614209565b5090979650505050505050565b60006101208251845260208301518160208601526142e4828601826141c2565b915050604083015160408501526060830151848203606086015261430882826141ee565b9150506080830151608085015260a083015160a085015260c083015160c085015260e083015160e0850152610100808401518583038287015261434b83826141c2565b9695505050505050565b6000602080830181845280855180835260408601915060408160051b870101925083870160005b828110156143aa57603f198886030184526143988583516142c4565b9450928501929085019060010161437c565b5092979650505050505050565b634e487b7160e01b600052604160045260246000fd5b60405161012081016001600160401b03811182821017156143f0576143f06143b7565b60405290565b604051601f8201601f191681016001600160401b038111828210171561441e5761441e6143b7565b604052919050565b600082601f83011261443757600080fd5b81356001600160401b03811115614450576144506143b7565b614463601f8201601f19166020016143f6565b81815284602083860101111561447857600080fd5b816020850160208301376000918101602001919091529392505050565b6000806000606084860312156144aa57600080fd5b8335925060208401356001600160401b038111156144c757600080fd5b6144d386828701614426565b925050604084013590509250925092565b600081518084526020808501945080840160005b83811015614514578151875295820195908201906001016144f8565b509495945050505050565b602081526000610a2360208301846144e4565b60006020828403121561454457600080fd5b5035919050565b60006020828403121561455d57600080fd5b81356001600160401b0381111561457357600080fd5b61457f84828501614426565b949350505050565b60006020808301818452808551808352604092508286019150828160051b87010184880160005b8381101561465c57603f1989840301855281516101208151855288820151818a8701526145dd828701826141c2565b91505087820151858203898701526145f582826141c2565b606084810151908801526080808501519088015260a0808501519088015260c0808501519088015260e08085015115159088015261010093840151878203948801949094529150614648905081836141c2565b9689019694505050908601906001016145ae565b509098975050505050505050565b6000806040838503121561467d57600080fd5b50508035926020909101359150565b6000806040838503121561469f57600080fd5b8235915060208301356001600160401b038111156146bc57600080fd5b6146c885828601614426565b9150509250929050565b803580151581146146e257600080fd5b919050565b600082601f8301126146f857600080fd5b813560206001600160401b0380831115614714576147146143b7565b8260051b6147238382016143f6565b938452858101830193838101908886111561473d57600080fd5b84880192505b858310156148485782358481111561475b5760008081fd5b8801610120818b03601f19018113156147745760008081fd5b61477c6143cd565b878301358152604080840135888111156147965760008081fd5b6147a48e8b83880101614426565b8a84015250606080850135898111156147bd5760008081fd5b6147cb8f8c83890101614426565b83850152506080915081850135818401525060a0808501358284015260c0915081850135818401525060e08085013582840152610100915061480e8286016146d2565b908301529183013591878311156148255760008081fd5b6148338d8a85870101614426565b90820152845250509184019190840190614743565b98975050505050505050565b60006020828403121561486657600080fd5b81356001600160401b038082111561487d57600080fd5b90830190610120828603121561489257600080fd5b61489a6143cd565b823581526020830135828111156148b057600080fd5b6148bc87828601614426565b602083015250604083013560408201526060830135828111156148de57600080fd5b6148ea878286016146e7565b6060830152506080830135608082015260a083013560a082015260c083013560c082015260e083013560e0820152610100808401358381111561492c57600080fd5b61493888828701614426565b918301919091525095945050505050565b80518252600060208083015160808286015261496860808601826141c2565b9050604084015185820360408701528181518084528484019150848160051b850101858401935060005b828110156149c057601f198683030184526149ae8286516142c4565b94870194938701939150600101614992565b50606088015160608a015280965050505050505092915050565b602081526000610a236020830184614949565b86815260c060208201526000614a0660c08301886141c2565b905085604083015284606083015283608083015282151560a0830152979650505050505050565b60008060008060008060c08789031215614a4657600080fd5b863595506020870135945060408701356001600160401b0380821115614a6b57600080fd5b614a778a838b01614426565b95506060890135915080821115614a8d57600080fd5b614a998a838b01614426565b94506080890135935060a0890135915080821115614ab657600080fd5b50614ac389828a01614426565b9150509295509295509295565b6000602080830181845280855180835260408601915060408160051b870101925083870160005b828110156143aa57603f19888603018452614b13858351614949565b94509285019290850190600101614af7565b602081526000610a2360208301846142c4565b608081526000614b4b60808301876141c2565b8281036020840152614b5d81876141c2565b604084019590955250506060015292915050565b604081526000614b8460408301856144e4565b8281036020840152613fef81856144e4565b600080600060608486031215614bab57600080fd5b505081359360208301359350604090920135919050565b600080600080600060a08688031215614bda57600080fd5b8535945060208601356001600160401b0380821115614bf857600080fd5b614c0489838a01614426565b95506040880135915080821115614c1a57600080fd5b50614c2788828901614426565b9598949750949560608101359550608001359392505050565b87815260e060208201526000614c5960e08301896141c2565b8281036040840152614c6b81896141c2565b90508660608401528281036080840152614c8581876141c2565b90508460a084015282810360c0840152614c9f81856141c2565b9a9950505050505050505050565b634e487b7160e01b600052601160045260246000fd5b60008219821115614cd657614cd6614cad565b500190565b634e487b7160e01b600052603260045260246000fd5b600181811c90821680614d0557607f821691505b602082108103612e1d57634e487b7160e01b600052602260045260246000fd5b600060018201614d3757614d37614cad565b5060010190565b60208082526017908201527f43617465676f727920646f6573206e6f74206578697374000000000000000000604082015260600190565b602080825260149082015273115d995b9d08191bd95cc81b9bdd08195e1a5cdd60621b604082015260600190565b600080835481600182811c915080831680614dbf57607f831692505b60208084108203614dde57634e487b7160e01b86526022600452602486fd5b818015614df25760018114614e0357614e30565b60ff19861689528489019650614e30565b60008a81526020902060005b86811015614e285781548b820152908501908301614e0f565b505084890196505b509498975050505050505050565b6000816000190483118215151615614e5857614e58614cad565b500290565b602081526000610a2360208301846141c2565b600082821015614e8257614e82614cad565b500390565b60008251614e99818460208701614192565b9190910192915050565b600082614ec057634e487b7160e01b600052601260045260246000fd5b50049056fea2646970667358221220f21586f84c5561598fa9ca138123ed9014b4f878ab78f516a433c9a1c97f852864736f6c634300080d003343617465676f727920646f6573206e6f74206578697374000000000000000000",
  "immutableReferences": {},
  "source": "// SPDX-License-Identifier: MIT\r\npragma solidity >=0.4.22 <0.9.0;\r\n\r\ncontract VotingSystem {\r\n    address public owner;\r\n    struct Voter {\r\n        uint256 id;\r\n        string key;\r\n        string email;\r\n        bytes32 password;\r\n        string role;\r\n        uint256 status; // 0: no verify, 1: verified, 2:banned\r\n        string token;\r\n    }\r\n\r\n    struct Event {\r\n        uint256 eventId;\r\n        string eventName;\r\n        uint256 categoryId;\r\n        Candidate[] candidates;\r\n        uint256 candidateCount;\r\n        uint256 startDateTime;\r\n        uint256 endDateTime;\r\n        uint256 status; // 1: Upcoming, 2: In Progress, 3: Completed, 4 Cancel\r\n        string eventDesc;\r\n    }\r\n\r\n    struct Category {\r\n        uint256 categoryId;\r\n        string categoryName;\r\n        Event[] events; //category has many event\r\n        uint256 status;\r\n    }\r\n\r\n    struct Candidate {\r\n        uint256 id;\r\n        string name;\r\n        string description;\r\n        uint256 studentId;\r\n        uint256 categoryId;\r\n        uint256 eventId;\r\n        uint256 voteCount;\r\n        bool win;\r\n        string imageFileName;\r\n    }\r\n\r\n    struct ResetPassword {\r\n        string email;\r\n        string token;\r\n        uint256 code;\r\n        uint256 createdTime;\r\n    }\r\n\r\n    struct voteEventStruct {\r\n        uint256 id;\r\n        string voterKey;\r\n        uint256 categoryId;\r\n        uint256 eventId;\r\n        uint256 votedCandidateId;\r\n        bool voted;\r\n    }\r\n\r\n    event CategoryAdded(uint256 indexed categoryId, string categoryName);\r\n\r\n    event VoterAdded(uint256 indexed voterId, string voter_key);\r\n    event EventAdded(uint256 indexed eventId, string eventName);\r\n\r\n    event CandidateAdded(uint256 indexed eventId, string eventName);\r\n\r\n    event VoteEvent(\r\n        string indexed _voterKey,\r\n        string indexed categoryEvent,\r\n        uint256 indexed candidate\r\n    );\r\n\r\n    mapping(uint256 => Category) categories;\r\n    mapping(uint256 => Event) events;\r\n    mapping(uint256 => Candidate) candidates;\r\n    mapping(uint256 => voteEventStruct) public voteEvents;\r\n    mapping(uint256 => Voter) public voters;\r\n    mapping(string => bool) private usedImageFileNames;\r\n    mapping(string => ResetPassword) public resetPasswords;\r\n\r\n    uint256 categoryCount;\r\n    uint256 candidateCount;\r\n    uint256 eventCount;\r\n    uint256 voteEventCount;\r\n    uint256 voterCount;\r\n\r\n    constructor() {\r\n        owner = msg.sender;\r\n        // addAdmin(\"superadmin@gmail.com\", \"SuperAdmin!123\", \"S\");\r\n\r\n        // Hard code data for report and dashboard testing\r\n        addCategory(\"FOCS 2021\");\r\n        addCategory(\"FAFB 2021\");\r\n        addCategory(\"FOCS 2022\");\r\n        addCategory(\"FAFB 2022\");\r\n\r\n        addEvent(1, \"Event 1 - 2021\", \"aaa\", 1638345600, 1638432000);\r\n        addCandidateToEvent(1, 1, \"Candidate 1\", \"Description 1\", 123, \"image1.jpg\");\r\n        addCandidateToEvent(1, 1, \"Candidate 2\", \"Description 2\", 456, \"image2.jpg\");\r\n        addCandidateToEvent(1, 1, \"Candidate 3\", \"Description 3\", 789, \"image3.jpg\");\r\n        addVoteCountIn(1,1,1);\r\n        addVoteCountIn(1,1,2);\r\n        addVoteCountIn(1,1,3);\r\n        addVoteCountIn(1,1,2);\r\n        addVoteCountIn(1,1,3);\r\n        addVoteCountIn(1,1,3);\r\n\r\n        addEvent(1, \"Event 2 - 2021\", \"aaa\", 1638345605, 1638432008);\r\n        addCandidateToEvent(1, 2, \"Candidate 1\", \"Description 1\", 555, \"image4.jpg\");\r\n        addCandidateToEvent(1, 2, \"Candidate 2\", \"Description 2\", 777, \"image5.jpg\");\r\n        addVoteCountIn(1,1,4);\r\n        addVoteCountIn(1, 2, 4); // Corrected event and candidate IDs\r\n        addVoteCountIn(1, 2, 5); // Corrected event and candidate IDs\r\n    }\r\n\r\n    //for report\r\n    function getEventsByCategory(uint256 _categoryId) public view returns (Event[] memory) {\r\n        require(categories[_categoryId].categoryId != 0, \"Category does not exist\");\r\n        return categories[_categoryId].events;\r\n    }\r\n\r\n    function getCandidatesByEvent(uint256 _categoryId, uint256 _eventId) public view returns (Candidate[] memory) {\r\n        require(categories[_categoryId].categoryId != 0, \"Category does not exist\");\r\n        \r\n        for (uint256 i = 0; i < categories[_categoryId].events.length; i++) {\r\n            if (categories[_categoryId].events[i].eventId == _eventId) {\r\n                return categories[_categoryId].events[i].candidates;\r\n            }\r\n        }\r\n        \r\n        revert(\"Event does not exist\");\r\n    }\r\n\r\n    function addVoteCountIn(\r\n        uint256 _categoryId,\r\n        uint256 _eventId,\r\n        uint256 _candidateId\r\n    ) internal {\r\n        // get the events inside the categories\r\n        Event[] storage eventsFound = categories[_categoryId].events;\r\n\r\n        // find the event with param\r\n        for (uint256 i = 0; i < eventsFound.length; i++) {\r\n            if (eventsFound[i].eventId == _eventId) {\r\n                // get the candidate inside the event\r\n                Candidate[] storage candidatesFound = eventsFound[i].candidates;\r\n                // find the candidate\r\n                for (uint256 j = 0; j < candidatesFound.length; j++) {\r\n                    if (candidatesFound[j].id == _candidateId) {\r\n                        // found the candidate and plus 1 at the voteCount\r\n                        candidatesFound[j].voteCount += 1;\r\n                        break;\r\n                    }\r\n                }\r\n            }\r\n        }\r\n    }\r\n\r\n    function getPositionVotes(uint256 categoryId, uint256 year) \r\n        public \r\n        view \r\n        returns (uint256[] memory, uint256[] memory) \r\n    {\r\n        // Initialize dynamic arrays for event IDs and vote counts\r\n        uint256[] memory eventIds = new uint256[](categories[categoryId].events.length);\r\n        uint256[] memory voteCounts = new uint256[](categories[categoryId].events.length);\r\n        uint256 count = 0;\r\n\r\n        // Iterate over the events of the given category\r\n        for (uint256 i = 0; i < categories[categoryId].events.length; i++) {\r\n            Event storage currentEvent = categories[categoryId].events[i];\r\n            if (getYear(currentEvent.startDateTime) == year) {\r\n                uint256 totalVotes = 0;\r\n\r\n                // Calculate the total votes for each candidate in the event\r\n                for (uint256 j = 0; j < currentEvent.candidates.length; j++) {\r\n                    totalVotes += currentEvent.candidates[j].voteCount;\r\n                }\r\n\r\n                eventIds[count] = currentEvent.eventId;\r\n                voteCounts[count] = totalVotes;\r\n                count++;\r\n            }\r\n        }\r\n\r\n        // Resize arrays to the actual count of events in the specified year\r\n        uint256[] memory finalEventIds = new uint256[](count);\r\n        uint256[] memory finalVoteCounts = new uint256[](count);\r\n        for (uint256 i = 0; i < count; i++) {\r\n            finalEventIds[i] = eventIds[i];\r\n            finalVoteCounts[i] = voteCounts[i];\r\n        }\r\n\r\n        return (finalEventIds, finalVoteCounts);\r\n    }\r\n\r\n    function getEventById(uint256 _categoryId, uint256 _eventId)\r\n        public\r\n        view\r\n        returns (Event memory)\r\n    {\r\n        // Check if the category exists\r\n        require(categories[_categoryId].categoryId != 0, \"Category does not exist\");\r\n\r\n        // Find the event\r\n        bool eventExists = false;\r\n        uint256 eventIndex;\r\n        for (uint256 i = 0; i < categories[_categoryId].events.length; i++) {\r\n            if (categories[_categoryId].events[i].eventId == _eventId) {\r\n                eventExists = true;\r\n                eventIndex = i;\r\n                break;\r\n            }\r\n        }\r\n        require(eventExists, \"Event does not exist\");\r\n\r\n        // Return the event details\r\n        return categories[_categoryId].events[eventIndex];\r\n    }\r\n\r\n    function getCategoriesInYear(uint256 year) public view returns (Category[] memory) {\r\n        uint256 count = 0;\r\n        for (uint256 i = 1; i <= categoryCount; i++) {\r\n            if (isCategoryInYear(i, year)) {\r\n                count++;\r\n            }\r\n        }\r\n\r\n        Category[] memory categoriesInYear = new Category[](count);\r\n        uint256 index = 0;\r\n        for (uint256 i = 1; i <= categoryCount; i++) {\r\n            if (isCategoryInYear(i, year)) {\r\n                categoriesInYear[index] = categories[i];\r\n                index++;\r\n            }\r\n        }\r\n\r\n        return categoriesInYear;\r\n    }\r\n\r\n    function isCategoryInYear(uint256 categoryId, uint256 year) internal view returns (bool) {\r\n        for (uint256 i = 0; i < categories[categoryId].events.length; i++) {\r\n            if (getYear(categories[categoryId].events[i].startDateTime) == year) {\r\n                return true;\r\n            }\r\n        }\r\n        return false;\r\n    }\r\n\r\n    function getCategoryYearlyVoteCount(uint256 _categoryId, uint256 _year) public view returns (uint256) {\r\n        uint256 totalVotes = 0;\r\n        for (uint256 i = 0; i < categories[_categoryId].events.length; i++) {\r\n            uint256 eventStart = categories[_categoryId].events[i].startDateTime;\r\n            uint256 eventYear = getYear(eventStart);\r\n            if (eventYear == _year) {\r\n                for (uint256 j = 0; j < categories[_categoryId].events[i].candidates.length; j++) {\r\n                    totalVotes += categories[_categoryId].events[i].candidates[j].voteCount;\r\n                }\r\n            }\r\n        }\r\n        return totalVotes;\r\n    }\r\n\r\n    function getYear(uint256 _timestamp) internal pure returns (uint256) {\r\n        uint256 SECONDS_PER_YEAR = 31536000; // Average seconds in a year, accounting for leap years\r\n        uint256 EPOCH_YEAR = 1970; // Start of UNIX epoch time\r\n\r\n        uint256 year = EPOCH_YEAR + _timestamp / SECONDS_PER_YEAR;\r\n        return year;\r\n    }\r\n\r\n        function getAvailableYears() public view returns (uint256[] memory) {\r\n        // Using a dynamic array to collect unique years\r\n        uint256[] memory uniqueYears = new uint256[](categoryCount * 10); // Adjust size as needed\r\n        uint256 count = 0;\r\n\r\n        // Iterate over all categories\r\n        for (uint256 i = 1; i <= categoryCount; i++) {\r\n            // Iterate over all events in each category\r\n            for (uint256 j = 0; j < categories[i].events.length; j++) {\r\n                uint256 eventYear = getYear(categories[i].events[j].startDateTime);\r\n\r\n                // Check if this year is already in the uniqueYears array\r\n                bool yearExists = false;\r\n                for (uint256 k = 0; k < count; k++) {\r\n                    if (uniqueYears[k] == eventYear) {\r\n                        yearExists = true;\r\n                        break;\r\n                    }\r\n                }\r\n\r\n                // If not, add it\r\n                if (!yearExists) {\r\n                    uniqueYears[count] = eventYear;\r\n                    count++;\r\n                }\r\n            }\r\n        }\r\n\r\n        // Copy the unique years into a new array of the correct size\r\n        uint256[] memory output = new uint256[](count);\r\n        for (uint256 i = 0; i < count; i++) {\r\n            output[i] = uniqueYears[i];\r\n        }\r\n\r\n        return output;\r\n    } \r\n\r\n    /* //for show candidate in candidate list\r\n    function getEventById(uint256 _categoryId, uint256 _eventId)\r\n        public\r\n        view\r\n        returns (Event memory)\r\n    {\r\n        // Check if the category exists\r\n        require(categories[_categoryId].categoryId != 0, \"Category does not exist\");\r\n\r\n        // Find the event\r\n        bool eventExists = false;\r\n        uint256 eventIndex;\r\n        for (uint256 i = 0; i < categories[_categoryId].events.length; i++) {\r\n            if (categories[_categoryId].events[i].eventId == _eventId) {\r\n                eventExists = true;\r\n                eventIndex = i;\r\n                break;\r\n            }\r\n        }\r\n        require(eventExists, \"Event does not exist\");\r\n\r\n        // Return the event details\r\n        return categories[_categoryId].events[eventIndex];\r\n    } */\r\n\r\n    /* \r\n    //for voter and admin\r\n    function addResetPasswordRequest(string memory _email, string memory _token, uint256 _code) public {\r\n        // Create and store the new reset password request\r\n        resetPasswords[_email] = ResetPassword({\r\n            email: _email,\r\n            token: _token,\r\n            code: _code,\r\n            createdTime: block.timestamp // Use the current block timestamp\r\n        });\r\n    }\r\n\r\n    function isRecentResetRequest(string memory _email) public view returns (bool) {\r\n        ResetPassword memory request = resetPasswords[_email];\r\n        if (request.createdTime == 0) {\r\n            return false; // No request exists\r\n        }\r\n        uint256 age = block.timestamp - request.createdTime;\r\n        return age < 24 hours;\r\n    }\r\n\r\n    function isResetPasswordTokenValid(string memory _token) public view returns (bool, string memory) {\r\n        // Ensure the token string is not empty\r\n        require(bytes(_token).length > 0, \"Token is empty\");\r\n\r\n        // Iterate through all reset password requests\r\n        for (uint256 i = 1; i <= voterCount; i++) {\r\n            // Check if the token matches and is not expired (24 hours validity)\r\n            if (keccak256(bytes(resetPasswords[voters[i].email].token)) == keccak256(bytes(_token))\r\n                && (block.timestamp - resetPasswords[voters[i].email].createdTime) < 24 hours) {\r\n                return (true, voters[i].email); // Valid token found\r\n            }\r\n        }\r\n        // No valid token found, return false and empty string\r\n        return (false, \"\");\r\n    }\r\n\r\n    function isVerificationCodeValid(uint256 _userInputCode) public view returns (bool) {\r\n        // Iterate through all reset password requests\r\n        for (uint256 i = 1; i <= voterCount; i++) {\r\n            ResetPassword memory resetRequest = resetPasswords[voters[i].email];\r\n            // Check if the input code matches the stored code and the request is not expired\r\n            if (resetRequest.code == _userInputCode && (block.timestamp - resetRequest.createdTime) < 24 hours) {\r\n                return true; // Verification code is valid and not expired\r\n            }\r\n        }\r\n        return false; // No valid verification code found\r\n    }\r\n\r\n    function updateUserPassword(string memory _email, string memory _password) public {\r\n        require(checkUserExistByEmail(_email), \"User does not exist.\");\r\n\r\n        // Ensure there is a recent reset password request\r\n        require(isRecentResetRequest(_email), \"No recent reset request found.\");\r\n\r\n        bytes32 hashedPassword = keccak256(abi.encodePacked(_password));\r\n        for (uint256 i = 1; i <= voterCount; i++) {\r\n            if (keccak256(bytes(_email)) == keccak256(bytes(voters[i].email))) {\r\n                voters[i].password = hashedPassword;\r\n\r\n                // Delete the reset password request after updating the password\r\n                delete resetPasswords[_email];\r\n            }\r\n        }\r\n    }\r\n\r\n    function addAdmin(\r\n        string memory _email,\r\n        string memory _password,\r\n        string memory _role\r\n    ) public {\r\n        // Check if the admin with the given email already exists\r\n        for (uint256 i = 1; i <= voterCount; i++) {\r\n            require(\r\n                keccak256(bytes(_email)) != keccak256(bytes(voters[i].email)),\r\n                \"Admin with this email already exists\"\r\n            );\r\n        }\r\n\r\n        // Increment the voterCount to use as the new admin's ID\r\n        voterCount += 1;\r\n\r\n        // Hash the password\r\n        bytes32 hashedPassword = keccak256(abi.encodePacked(_password));\r\n\r\n        // Create and store the new admin\r\n        Voter storage newAdmin = voters[voterCount];\r\n        newAdmin.id = voterCount;\r\n        newAdmin.email = _email;\r\n        newAdmin.password = hashedPassword;\r\n        newAdmin.role = _role;\r\n        newAdmin.status = 1; \r\n\r\n    // Emit the event for adding a new voter/admin\r\n    emit VoterAdded(voterCount, _email);\r\n    }\r\n\r\n    function getAllAdmin() public view returns (Voter[] memory) {\r\n        // Create an array to store all admins\r\n        Voter[] memory adminFound = new Voter[](voterCount);\r\n        uint256 count = 0;\r\n\r\n        // Iterate through all voters\r\n        for (uint256 i = 1; i <= voterCount; i++) {\r\n            // Check if the voter has the role \"A\" (Admin) or \"S\" (SuperAdmin)\r\n            if (\r\n                keccak256(bytes(voters[i].role)) == keccak256(bytes(\"A\")) ||\r\n                keccak256(bytes(voters[i].role)) == keccak256(bytes(\"S\"))\r\n            ) {\r\n                // Add the admin to the array\r\n                adminFound[count] = voters[i];\r\n                count += 1;\r\n            }\r\n        }\r\n\r\n        return adminFound;\r\n    }\r\n\r\n    function getAdminById(uint256 _id) public view returns (Voter memory) {\r\n        return voters[_id];\r\n    }\r\n\r\n    function editAdminEmailPassword(\r\n        uint256 _adminId, \r\n        string memory _newEmail, \r\n        string memory _newPassword\r\n    ) public {\r\n        // Check if the admin exists\r\n        require(_adminId > 0 && _adminId <= voterCount, \"Admin does not exist.\");\r\n        \r\n        // Check for email uniqueness if the email is being changed\r\n        if(keccak256(bytes(_newEmail)) != keccak256(bytes(voters[_adminId].email))) {\r\n            for (uint256 i = 1; i <= voterCount; i++) {\r\n                require(\r\n                    keccak256(bytes(_newEmail)) != keccak256(bytes(voters[i].email)),\r\n                    \"Email already in use.\"\r\n                );\r\n            }\r\n        }\r\n\r\n        voters[_adminId].email = _newEmail;\r\n        \r\n        if(bytes(_newPassword).length > 0) {\r\n            voters[_adminId].password = keccak256(abi.encodePacked(_newPassword));\r\n        }\r\n    }\r\n\r\n    function editUserStatus(uint256 _adminId, uint256 _newStatus) public {\r\n        require(_adminId > 0 && _adminId <= voterCount, \"Admin or Voter does not exist.\");\r\n\r\n        require(_newStatus <= 2, \"Invalid status.\");\r\n\r\n        voters[_adminId].status = _newStatus;\r\n    }\r\n\r\n    function getAllVoter() public view returns (Voter[] memory) {\r\n        Voter[] memory voterFound = new Voter[](voterCount);\r\n        uint256 count = 0;\r\n\r\n        // Iterate through all voters\r\n        for (uint256 i = 1; i <= voterCount; i++) {\r\n            // Check if the voter has the role \"U\" (Voter) \r\n            if (\r\n                keccak256(bytes(voters[i].role)) == keccak256(bytes(\"U\"))\r\n            ) {\r\n                voterFound[count] = voters[i];\r\n                count += 1;\r\n            }\r\n        }\r\n\r\n        return voterFound;\r\n    }\r\n    function addVoter(\r\n        string memory _key,\r\n        string memory _email,\r\n        string memory _password,\r\n        string memory _role,\r\n        string memory _token\r\n    ) public {\r\n        for (uint256 i = 1; i <= voterCount; i++) {\r\n            require(\r\n                keccak256(bytes(_key)) != keccak256(bytes(voters[i].key)),\r\n                \"Voter already exists\"\r\n            );\r\n        }\r\n\r\n        // total category plus 1, use it as the category's id\r\n        voterCount += 1;\r\n\r\n        bytes32 hashedPassword = keccak256(abi.encodePacked(_password));\r\n\r\n        // add the category details in the category list\r\n        Voter storage voter = voters[voterCount];\r\n        voter.id = voterCount;\r\n        voter.key = _key;\r\n        voter.email = _email;\r\n        voter.password = hashedPassword;\r\n        voter.role = _role;\r\n        voter.status = 0;\r\n        voter.token = _token;\r\n\r\n        // emit the category added event\r\n        emit VoterAdded(voterCount, _key);\r\n    }\r\n\r\n    function loginVoter(string memory _email, string memory _password)\r\n        public\r\n        view\r\n        returns (Voter memory)\r\n    {\r\n        Voter memory voterFound = getVoterByEmailPassword(_email, _password);\r\n        require(voterFound.id != 0, \"Your email or password is incorrect!\");\r\n        require(\r\n            voterFound.status == 1,\r\n            \"Your account was banned or not verify!\"\r\n        );\r\n        return voterFound;\r\n    }\r\n\r\n    function compareHashesPassword(bytes32 inputPassword, bytes32 password)\r\n        internal\r\n        pure\r\n        returns (bool)\r\n    {\r\n        for (uint256 i = 0; i < 32; i++) {\r\n            if (inputPassword[i] != password[i]) {\r\n                return false;\r\n            }\r\n        }\r\n        return true;\r\n    }\r\n\r\n    function getVoterByEmailPassword(\r\n        string memory _email,\r\n        string memory _password\r\n    ) public view returns (Voter memory) {\r\n        bytes32 hashedPassword = keccak256(abi.encodePacked(_password));\r\n        for (uint256 i = 1; i <= voterCount; i++) {\r\n            if (\r\n                keccak256(bytes(_email)) == keccak256(bytes(voters[i].email)) &&\r\n                compareHashesPassword(hashedPassword, voters[i].password)\r\n            ) {\r\n                return voters[i];\r\n            }\r\n        }\r\n\r\n        // Event not found in the specified category\r\n        return Voter(0, \"\", \"\", \"\", \"\", 0, \"\");\r\n    }\r\n\r\n    function getVoterEmailById(uint256 _voterId)\r\n        public\r\n        view\r\n        returns (string memory)\r\n    {\r\n        require(_voterId > 0 && _voterId <= voterCount, \"Invalid voter ID\");\r\n        return voters[_voterId].email;\r\n    }\r\n\r\n    function checkUserExistByEmail(string memory _email) public view returns (bool) {\r\n        for (uint256 i = 1; i <= voterCount; i++) {\r\n            if (keccak256(abi.encodePacked(_email)) == keccak256(abi.encodePacked(voters[i].email))) {\r\n                return true;\r\n            }\r\n        }\r\n        return false;\r\n    }\r\n\r\n    function updateVoterPassword(string memory _key, string memory _password)\r\n        public\r\n    {\r\n        require(isVoterExist(_key), \"User does not exists\");\r\n\r\n        bytes32 hashedPassword = keccak256(abi.encodePacked(_password));\r\n        for (uint256 i = 1; i <= voterCount; i++) {\r\n            if (keccak256(bytes(_key)) == keccak256(bytes(voters[i].key))) {\r\n                voters[i].password = hashedPassword;\r\n            }\r\n        }\r\n    }\r\n\r\n    function verifyVoterAccount(string memory _token) public returns (bool) {\r\n        require(voters[1].id != 0, \"No voter in the list!\");\r\n        for (uint256 i = 1; i <= voterCount; i++) {\r\n            if (keccak256(bytes(_token)) == keccak256(bytes(voters[i].token))) {\r\n                voters[i].status = 1;\r\n                return true;\r\n            }\r\n        }\r\n        return false;\r\n    }\r\n\r\n    function getVoterStatus(string memory _email, string memory _password)\r\n        public\r\n        view\r\n        returns (uint256 status)\r\n    {\r\n        Voter memory voterFound = getVoterByEmailPassword(_email, _password);\r\n        require(voterFound.id != 0, \"Your email or password is incorrect!\");\r\n        return voterFound.status;\r\n    }\r\n\r\n    function checkVoterEmailPassword(\r\n        string memory _email,\r\n        string memory _password\r\n    ) public view returns (bool foundVoter) {\r\n        Voter memory voterFound = getVoterByEmailPassword(_email, _password);\r\n\r\n        if (voterFound.id != 0) {\r\n            return true;\r\n        }\r\n        return false;\r\n    }\r\n\r\n    function isVoterExist(string memory _key) public view returns (bool) {\r\n        for (uint256 i = 1; i <= voterCount; i++) {\r\n            if (keccak256(bytes(_key)) == keccak256(bytes(voters[i].key))) {\r\n                return true;\r\n            }\r\n        }\r\n        return false;\r\n    } \r\n    */\r\n\r\n    //CRUD\r\n    function addCategory(string memory _categoryName) public {\r\n        // check if the category is exist\r\n        for (uint256 i = 1; i <= categoryCount; i++) {\r\n            require(\r\n                keccak256(bytes(_categoryName)) !=\r\n                    keccak256(bytes(categories[i].categoryName)),\r\n                \"Category already exists\"\r\n            );\r\n        }\r\n\r\n        // total category plus 1, use it as the category's id\r\n        categoryCount += 1;\r\n\r\n        // add the category details in the category list\r\n        Category storage category = categories[categoryCount];\r\n        category.categoryName = _categoryName;\r\n        category.categoryId = categoryCount;\r\n        category.status = 1;\r\n\r\n        // emit the category added event\r\n        emit CategoryAdded(categoryCount, _categoryName);\r\n    }\r\n\r\n    /* function updateCategory(uint256 _categoryId, string memory _newCategoryName) public {\r\n        // Check if the category exists\r\n        require(categories[_categoryId].categoryId != 0, \"Category does not exist\");\r\n\r\n        // Check if the new category name is different from the existing names\r\n        for (uint256 i = 1; i <= categoryCount; i++) {\r\n            if (i != _categoryId) {\r\n                require(\r\n                    keccak256(bytes(_newCategoryName)) !=\r\n                    keccak256(bytes(categories[i].categoryName)),\r\n                    \"Category name already exists\"\r\n                );\r\n            }\r\n        }\r\n\r\n        // Update the category name\r\n        categories[_categoryId].categoryName = _newCategoryName;\r\n    }\r\n\r\n    function deleteCategory(uint256 _categoryId) public {\r\n        require(categories[_categoryId].categoryId != 0, \"Category does not exist\");\r\n\r\n        // Check if there are any events associated with the category\r\n        require(categories[_categoryId].events.length == 0, \"Cannot delete category with events\");\r\n\r\n        // If no associated events, candidates, or vote events, delete the category\r\n        delete categories[_categoryId];\r\n    } */\r\n\r\n    function addEvent(\r\n        uint256 _categoryId,\r\n        string memory _eventName,\r\n        string memory _eventDesc,\r\n        uint256 _startDateTime,\r\n        uint256 _endDateTime\r\n    ) public {\r\n        // check if the category has exists\r\n        require(\r\n            categories[_categoryId].categoryId != 0,\r\n            \"Category has not exists\"\r\n        );\r\n\r\n        require(\r\n            isEventExists(_categoryId, _eventName) == false,\r\n            \"Event already exists\"\r\n        );\r\n\r\n        // find out the category in list by using the paramerter category name\r\n        Category storage category = categories[_categoryId];\r\n\r\n        // add the event in the category list\r\n        uint256 eventId = eventCount += 1;\r\n\r\n        Event storage newEvent = category.events.push();\r\n        newEvent.eventId = eventId;\r\n        newEvent.eventName = _eventName;\r\n        newEvent.eventDesc = _eventDesc;\r\n        newEvent.categoryId = _categoryId;\r\n        newEvent.status = 1;\r\n        newEvent.startDateTime = _startDateTime;\r\n        newEvent.endDateTime = _endDateTime;\r\n    }\r\n\r\n    function isEventExists(uint256 _categoryId, string memory _eventName)\r\n        public\r\n        view\r\n        returns (bool)\r\n    {\r\n        // Check if the category exists\r\n        require(\r\n            categories[_categoryId].categoryId != 0,\r\n            \"Category does not exist\"\r\n        );\r\n\r\n        // Loop through the events in the specified category\r\n        for (uint256 i = 0; i < categories[_categoryId].events.length; i++) {\r\n            if (\r\n                keccak256(bytes(categories[_categoryId].events[i].eventName)) ==\r\n                keccak256(bytes(_eventName))\r\n            ) {\r\n                // Event found\r\n                return true;\r\n            }\r\n        }\r\n\r\n        // Event not found in the specified category\r\n        return false;\r\n    }\r\n\r\n    function isEventStart(\r\n        uint256 _categoryId,\r\n        string memory _eventName,\r\n        uint256 _startDateTime\r\n    ) public view returns (bool) {\r\n        // Check if the category exists\r\n        require(\r\n            categories[_categoryId].categoryId != 0,\r\n            \"Category does not exist\"\r\n        );\r\n\r\n        require(\r\n            isEventExists(_categoryId, _eventName) == true,\r\n            \"Event does not exist\"\r\n        );\r\n\r\n        // Loop through the events in the specified category\r\n        for (uint256 i = 0; i < categories[_categoryId].events.length; i++) {\r\n            if (\r\n                (keccak256(\r\n                    bytes(categories[_categoryId].events[i].eventName)\r\n                ) ==\r\n                    keccak256(bytes(_eventName)) &&\r\n                    (_startDateTime >=\r\n                        categories[_categoryId].events[i].startDateTime))\r\n            ) {\r\n                \r\n                return true;\r\n            }\r\n        }\r\n\r\n        // Event not found in the specified category\r\n        return false;\r\n    }\r\n\r\n    /* function updateEventName(\r\n        uint256 _categoryId,\r\n        uint256 _eventId,\r\n        string memory _newEventName,\r\n        string memory _newEventDesc,\r\n        uint256 _newStartDateTime,\r\n        uint256 _newEndDateTime\r\n    ) public {\r\n        // Check if the category exists\r\n        require(categories[_categoryId].categoryId != 0, \"Category does not exist\");\r\n\r\n        // Find the event\r\n        bool eventExists = false;\r\n        uint256 eventIndex;\r\n        for (uint256 i = 0; i < categories[_categoryId].events.length; i++) {\r\n            if (categories[_categoryId].events[i].eventId == _eventId) {\r\n                eventExists = true;\r\n                eventIndex = i;\r\n                break;\r\n            }\r\n        }\r\n        require(eventExists, \"Event does not exist\");\r\n\r\n        // Check if the new event name is not the same as other events in the category\r\n        for (uint256 i = 0; i < categories[_categoryId].events.length; i++) {\r\n            if (\r\n                i != eventIndex &&\r\n                keccak256(bytes(categories[_categoryId].events[i].eventName)) ==\r\n                keccak256(bytes(_newEventName))\r\n            ) {\r\n                revert(\"Event name already exists\");\r\n            }\r\n        }\r\n\r\n        // Check if the event is not in progress (start date time is in the future)\r\n        require(\r\n            !isEventStart(_categoryId, categories[_categoryId].events[eventIndex].eventName, block.timestamp),\r\n            \"Cannot edit event when voting has started\"\r\n        );\r\n\r\n        // Update the event details\r\n        categories[_categoryId].events[eventIndex].eventName = _newEventName;\r\n        categories[_categoryId].events[eventIndex].eventDesc = _newEventDesc;\r\n        categories[_categoryId].events[eventIndex].startDateTime = _newStartDateTime;\r\n        categories[_categoryId].events[eventIndex].endDateTime = _newEndDateTime;\r\n    }\r\n\r\n    function deleteEvent(uint256 _categoryId, uint256 _eventId) public {\r\n        // Check if the category exists\r\n        require(categories[_categoryId].categoryId != 0, \"Category does not exist\");\r\n\r\n        // Find the event\r\n        bool eventExists = false;\r\n        uint256 eventIndex;\r\n        string memory eventName;\r\n        for (uint256 i = 0; i < categories[_categoryId].events.length; i++) {\r\n            if (categories[_categoryId].events[i].eventId == _eventId) {\r\n                eventExists = true;\r\n                eventIndex = i;\r\n                eventName = categories[_categoryId].events[i].eventName;\r\n                break;\r\n            }\r\n        }\r\n        require(eventExists, \"Event does not exist\");\r\n\r\n        // Check if voting has not started using isEventStart\r\n        require(\r\n            !isEventStart(_categoryId, eventName, block.timestamp),\r\n            \"Cannot delete event when voting has started\"\r\n        );\r\n\r\n        // Check if there are any candidates associated with the event\r\n        require(categories[_categoryId].events[eventIndex].candidates.length == 0, \"Cannot delete event with candidates\");\r\n\r\n        // Delete the event from the category's event list\r\n        for (uint256 i = eventIndex; i < categories[_categoryId].events.length - 1; i++) {\r\n            categories[_categoryId].events[i] = categories[_categoryId].events[i + 1];\r\n        }\r\n        categories[_categoryId].events.pop();\r\n    } */\r\n\r\n    function updateEvent(Event memory _event) public {\r\n        // check if the category is exist\r\n        require(\r\n            categories[_event.categoryId].categoryId != 0,\r\n            \"Category does not exists\"\r\n        );\r\n        require(\r\n            isEventExistsById(_event.categoryId, _event.eventId),\r\n            \"Event does not exist!\"\r\n        );\r\n        // add the category details in the category list\r\n        Event storage eventToUpdate = categories[_event.categoryId].events[\r\n            _event.eventId - 1\r\n        ];\r\n\r\n        eventToUpdate.eventName = _event.eventName;\r\n        eventToUpdate.status = _event.status;\r\n    }\r\n\r\n    function addCandidateToEvent(\r\n        uint256 _categoryId,\r\n        uint256 _eventId,\r\n        string memory _candidateName,\r\n        string memory _description,\r\n        uint256 _studentId,\r\n        string memory _imageFileName\r\n    ) public {\r\n        require(\r\n            categories[_categoryId].categoryId != 0,\r\n            \"Category does not exist\"\r\n        );\r\n        require(isEventExistsById(_categoryId, _eventId), \"Event does not exist\");\r\n        require(\r\n            !isCandidateExistsInEvent(_categoryId, _eventId, _studentId),\r\n            \"Candidate already exists\"\r\n        );\r\n\r\n        // Check if voting has started for the specified event\r\n        //require(\r\n            //!isEventStart(_categoryId, categories[_categoryId].events[_eventId - 1].eventName, block.timestamp),\r\n            //\"Voting has already started, cannot add new candidates\"\r\n        //);\r\n\r\n        candidateCount += 1;\r\n\r\n        // Create a new candidate\r\n        Candidate memory newCandidate = Candidate({\r\n            id: candidateCount,\r\n            name: _candidateName,\r\n            studentId: _studentId,\r\n            categoryId: _categoryId,\r\n            eventId: _eventId,\r\n            description: _description,\r\n            win: false,\r\n            voteCount: 0,\r\n            imageFileName: _imageFileName\r\n        });\r\n\r\n        // find the certain category\r\n        Category storage category = categories[_categoryId];\r\n        // find the certain event in certain category\r\n        for (uint256 i = 0; i < category.events.length; i++) {\r\n            if (category.events[i].eventId == _eventId) {\r\n                category.events[i].candidates.push(newCandidate);\r\n                category.events[i].candidateCount += 1;\r\n            }\r\n        }\r\n\r\n        // Mark the image file name as used\r\n        usedImageFileNames[_imageFileName] = true;\r\n    }\r\n\r\n    /* function updateCandidate(\r\n        uint256 _id,\r\n        string memory _name,\r\n        string memory _description,\r\n        uint256 _studentId,\r\n        uint256 _categoryId,\r\n        uint256 _eventId,\r\n        string memory _imageFileName\r\n    ) public {\r\n        bool eventExists = false;\r\n        uint256 eventIndex;\r\n        string memory eventName;\r\n        for (uint256 i = 0; i < categories[_categoryId].events.length; i++) {\r\n            if (categories[_categoryId].events[i].eventId == _eventId) {\r\n                eventExists = true;\r\n                eventIndex = i;\r\n                eventName = categories[_categoryId].events[i].eventName;\r\n                break;\r\n            }\r\n        }\r\n\r\n        // require(eventExists, \"Event does not exist\");\r\n\r\n        // Check if voting has not started using isEventStart\r\n        require(\r\n            !isEventStart(_categoryId, eventName, block.timestamp),\r\n            \"Cannot edit event when voting has started\"\r\n        );\r\n\r\n        bool candidateExists = false;\r\n        uint256 candidateIndex;\r\n        for (uint256 i = 0; i < categories[_categoryId].events[eventIndex].candidates.length; i++) {\r\n            if (categories[_categoryId].events[eventIndex].candidates[i].id == _id) {\r\n                candidateExists = true;\r\n                candidateIndex = i;\r\n                break;\r\n            }\r\n        }\r\n        \r\n        // require(candidateExists, \"Candidate does not exist\");\r\n\r\n        for (uint256 j = 0; j < categories[_categoryId].events[eventIndex].candidates.length; j++) {\r\n            if (j != candidateIndex) {\r\n                require(\r\n                    _studentId != categories[_categoryId].events[eventIndex].candidates[j].studentId,\r\n                    \"This student ID already exists\"\r\n                );\r\n            }\r\n        }\r\n\r\n        // Update candidate details\r\n        Candidate storage candidateToUpdate = categories[_categoryId].events[eventIndex].candidates[candidateIndex];\r\n\r\n        candidateToUpdate.name = _name;\r\n        candidateToUpdate.description = _description;\r\n        candidateToUpdate.studentId = _studentId;\r\n\r\n        // Update image file name only if a new image file name is provided\r\n        if (bytes(_imageFileName).length > 0) {\r\n            // Mark the old image file name as not used\r\n            usedImageFileNames[candidateToUpdate.imageFileName] = false;\r\n\r\n            // Update the image file name\r\n            candidateToUpdate.imageFileName = _imageFileName;\r\n\r\n            // Mark the new image file name as used\r\n            usedImageFileNames[_imageFileName] = true;\r\n        }\r\n    }\r\n\r\n\r\n    function deleteCandidate(uint256 _categoryId, uint256 _eventId, uint256 _candidateId) public {\r\n        require(categories[_categoryId].categoryId != 0, \"Category does not exist\");\r\n\r\n        // Find the event\r\n        bool eventExists = false;\r\n        uint256 eventIndex;\r\n        for (uint256 i = 0; i < categories[_categoryId].events.length; i++) {\r\n            if (categories[_categoryId].events[i].eventId == _eventId) {\r\n                eventExists = true;\r\n                eventIndex = i;\r\n                break;\r\n            }\r\n        }\r\n        require(eventExists, \"Event does not exist\");\r\n\r\n        Event storage eventToDeleteFrom = categories[_categoryId].events[eventIndex];\r\n\r\n        require(\r\n            !isEventStart(_categoryId, eventToDeleteFrom.eventName, block.timestamp),\r\n            \"Cannot delete candidate after voting has started\"\r\n        );\r\n\r\n        bool candidateFound = false;\r\n        uint256 candidateIndex;\r\n        for (uint256 i = 0; i < eventToDeleteFrom.candidates.length; i++) {\r\n            if (eventToDeleteFrom.candidates[i].id == _candidateId) {\r\n                candidateIndex = i;\r\n                candidateFound = true;\r\n                break;\r\n            }\r\n        }\r\n        require(candidateFound, \"Candidate does not exist\");\r\n\r\n        // Mark the image file name as not used\r\n        usedImageFileNames[eventToDeleteFrom.candidates[candidateIndex].imageFileName] = false;\r\n\r\n        // If the candidate was found, remove the candidate from the list\r\n        for (uint256 i = candidateIndex; i < eventToDeleteFrom.candidates.length - 1; i++) {\r\n            eventToDeleteFrom.candidates[i] = eventToDeleteFrom.candidates[i + 1];\r\n        }\r\n        eventToDeleteFrom.candidates.pop();\r\n    } \r\n\r\n    function isImageFileNameUsed(string memory _imageFileName)\r\n        public\r\n        view\r\n        returns (bool)\r\n    {\r\n        return usedImageFileNames[_imageFileName];\r\n    } */\r\n\r\n    function isCandidateExistsInEvent(\r\n        uint256 _categoryId,\r\n        uint256 _eventId,\r\n        uint256 _studentId\r\n    ) public view returns (bool) {\r\n        // Check if the category exists\r\n        require(\r\n            categories[_categoryId].categoryId != 0,\r\n            \"Category does not exist\"\r\n        );\r\n\r\n        Candidate[] memory candidatesFound = getAllCandidatesInEvent(\r\n            _categoryId,\r\n            _eventId\r\n        );\r\n\r\n        // Loop through the events in the specified category\r\n\r\n        for (uint256 i = 0; i < candidatesFound.length; i++) {\r\n            if (candidatesFound[i].studentId == _studentId) {\r\n                return true;\r\n            }\r\n        }\r\n\r\n        // Event not found in the specified category\r\n        return false;\r\n    } \r\n\r\n    function isCandidateExistsInEventById(\r\n        uint256 _categoryId,\r\n        uint256 _eventId,\r\n        uint256 _candidateId\r\n    ) public view returns (bool) {\r\n        // Check if the category exists\r\n        require(\r\n            categories[_categoryId].categoryId != 0,\r\n            \"Category does not exist\"\r\n        );\r\n\r\n        Candidate[] memory candidatesFound = getAllCandidatesInEvent(\r\n            _categoryId,\r\n            _eventId\r\n        );\r\n\r\n        // Loop through the events in the specified category\r\n\r\n        for (uint256 i = 0; i < candidatesFound.length; i++) {\r\n            if (candidatesFound[i].id == _candidateId) {\r\n                return true;\r\n            }\r\n        }\r\n\r\n        // Event not found in the specified category\r\n        return false;\r\n    }\r\n\r\n    function isEventExistsById(uint256 _categoryId, uint256 _eventId)\r\n        public\r\n        view\r\n        returns (bool)\r\n    {\r\n        // Check if the category exists\r\n        require(\r\n            categories[_categoryId].categoryId != 0,\r\n            \"Category does not exist\"\r\n        );\r\n\r\n        // Loop through the events in the specified category\r\n        for (uint256 i = 0; i < categories[_categoryId].events.length; i++) {\r\n            if (categories[_categoryId].events[i].eventId == _eventId) {\r\n                // Event found\r\n                return true;\r\n            }\r\n        }\r\n\r\n        // Event not found in the specified category\r\n        return false;\r\n    } \r\n\r\n    /* function getAllCategoryEvent(uint256 _categoryId)\r\n        public\r\n        view\r\n        returns (Event[] memory foundEvent)\r\n    {\r\n        // find the certain category\r\n        Category storage category = categories[_categoryId];\r\n\r\n        // declare an array variable for storing events\r\n        Event[] memory eventsFound = new Event[](category.events.length);\r\n\r\n        // get all the event name by searching the event in list\r\n        for (uint256 i = 0; i < category.events.length; i++) {\r\n            eventsFound[i] = category.events[i];\r\n        }\r\n\r\n        return (eventsFound);\r\n    } */\r\n\r\n    function getAllCandidatesInEvent(uint256 _categoryId, uint256 _eventId)\r\n        public\r\n        view\r\n        returns (Candidate[] memory foundCandidates)\r\n    {\r\n        // find the certain category\r\n        Category storage category = categories[_categoryId];\r\n        // find the certain event in certain category\r\n        for (uint256 i = 0; i < category.events.length; i++) {\r\n            if (category.events[i].eventId == _eventId) {\r\n                Candidate[] memory candidatesFound = new Candidate[](\r\n                    category.events[i].candidateCount\r\n                );\r\n\r\n                for (\r\n                    uint256 j = 0;\r\n                    j < category.events[i].candidates.length;\r\n                    j++\r\n                ) {\r\n                    candidatesFound[j] = category.events[i].candidates[j];\r\n                }\r\n                return (candidatesFound);\r\n            }\r\n        }\r\n    } \r\n\r\n    function getAllCandidates() public view returns (Candidate[] memory) {\r\n        Candidate[] memory candidatesFound = new Candidate[](candidateCount);\r\n        Event[] memory eventFound = new Event[](eventCount);\r\n\r\n        // get all the events\r\n        eventFound = getAllEvent();\r\n        uint256 count = 0;\r\n        // find the candidates inside all the event\r\n        for (uint256 i = 0; i < eventCount; i++) {\r\n            for (uint256 j = 0; j < eventFound[i].candidates.length; j++) {\r\n                candidatesFound[count] = eventFound[i].candidates[j];\r\n                count += 1;\r\n            }\r\n        }\r\n\r\n        return candidatesFound;\r\n    } \r\n\r\n    function getAllCategory() public view returns (Category[] memory) {\r\n        //Candidate[] memory candidatesFound = new Candidate[](candidateCount);\r\n        Category[] memory categoriesFound = new Category[](categoryCount);\r\n        // Iterate through all stored structs\r\n        for (uint256 i = 1; i <= categoryCount; i++) {\r\n            categoriesFound[i - 1] = categories[i];\r\n        }\r\n\r\n        return categoriesFound;\r\n    }\r\n\r\n    function getCategoryById(uint256 _categoryId)\r\n        public\r\n        view\r\n        returns (Category memory)\r\n    {\r\n        return categories[_categoryId];\r\n    } \r\n\r\n    function getAllEvent() public view returns (Event[] memory) {\r\n        // Initialize the array with the correct size\r\n        Event[] memory eventFound = new Event[](eventCount);\r\n        uint256 count = 0;\r\n\r\n        // Iterate through all categories and events\r\n        for (uint256 i = 0; i < categoryCount; i++) {\r\n            for (uint256 j = 0; j < categories[i + 1].events.length; j++) {\r\n                eventFound[count] = categories[i + 1].events[j];\r\n                count += 1;\r\n            }\r\n        }\r\n\r\n        return eventFound;\r\n    }\r\n\r\n    \r\n    /* function getCandidateById(uint256 _categoryId, uint256 _eventId, uint256 _candidateId)\r\n        public\r\n        view\r\n        returns (Candidate memory)\r\n    {\r\n        // Check if the category exists\r\n        require(categories[_categoryId].categoryId != 0, \"Category does not exist\");\r\n\r\n        // Find the event\r\n        bool eventExists = false;\r\n        uint256 eventIndex;\r\n        for (uint256 i = 0; i < categories[_categoryId].events.length; i++) {\r\n            if (categories[_categoryId].events[i].eventId == _eventId) {\r\n                eventExists = true;\r\n                eventIndex = i;\r\n                break;\r\n            }\r\n        }\r\n        require(eventExists, \"Event does not exist\");\r\n\r\n        // Find the candidate in the specified event\r\n        bool candidateExists = false;\r\n        uint256 candidateIndex;\r\n        for (uint256 i = 0; i < categories[_categoryId].events[eventIndex].candidates.length; i++) {\r\n            if (categories[_categoryId].events[eventIndex].candidates[i].id == _candidateId) {\r\n                candidateExists = true;\r\n                candidateIndex = i;\r\n                break;\r\n            }\r\n        }\r\n        require(candidateExists, \"Candidate does not exist\");\r\n\r\n        // Return the candidate details\r\n        return categories[_categoryId].events[eventIndex].candidates[candidateIndex];\r\n    }\r\n\r\n    function getEventsByDateRange(uint256 _startDateTime, uint256 _endDateTime)\r\n        public\r\n        view\r\n        returns (Event[] memory)\r\n    {\r\n        // Declare a dynamic array to store events within the date range\r\n        Event[] memory eventsInRange;\r\n\r\n        // Counter to keep track of the number of events within the date range\r\n        uint256 count = 0;\r\n\r\n        // Loop through all categories and events\r\n        for (uint256 i = 1; i <= categoryCount; i++) {\r\n            for (uint256 j = 0; j < categories[i].events.length; j++) {\r\n                Event storage currentEvent = categories[i].events[j];\r\n\r\n                // Check if the event's start date is on or after the specified start date\r\n                // and the event's end date is on or before the specified end date\r\n                if (\r\n                    currentEvent.startDateTime >= _startDateTime &&\r\n                    currentEvent.endDateTime <= _endDateTime\r\n                ) {\r\n                    // Resize the array and add the event\r\n                    eventsInRange = resizeAndAddEvent(eventsInRange, currentEvent, count);\r\n                    count++;\r\n                }\r\n            }\r\n        }\r\n\r\n        return eventsInRange;\r\n    }\r\n\r\n    // Helper function to resize the array and add an event\r\n    function resizeAndAddEvent(\r\n        Event[] memory array,\r\n        Event memory newEvent,\r\n        uint256 count\r\n    ) internal pure returns (Event[] memory) {\r\n        Event[] memory newArray = new Event[](count + 1);\r\n\r\n        for (uint256 i = 0; i < count; i++) {\r\n            newArray[i] = array[i];\r\n        }\r\n\r\n        newArray[count] = newEvent;\r\n\r\n        return newArray;\r\n    } */\r\n\r\n    /* \r\n    // for voting\r\n    function vote(\r\n        string memory _voterKey,\r\n        uint256 _candidateId,\r\n        uint256 _categoryId,\r\n        uint256 _eventId\r\n    ) external {\r\n        require(\r\n            categories[_categoryId].categoryId != 0,\r\n            \"Category does not exists\"\r\n        );\r\n\r\n        require(eventCount != 0, \"Event does not exists\");\r\n\r\n        // for (uint256 i = 1; i <= categories[_categoryId].events.length; i++) {\r\n        //     require(categories[_categoryId].events[i-0].eventId == _eventId, \"noobbbbb\");\r\n        // }\r\n\r\n        require(\r\n            isCandidateExistsInEventById(_categoryId, _eventId, _candidateId) ==\r\n                true,\r\n            \"Candidates does not exists\"\r\n        );\r\n\r\n        // check if has voted\r\n        for (uint256 i = 1; i <= voteEventCount; i++) {\r\n            if (\r\n                keccak256(bytes(_voterKey)) ==\r\n                keccak256(bytes(voteEvents[i].voterKey)) &&\r\n                _categoryId == voteEvents[i].categoryId &&\r\n                _eventId == voteEvents[i].eventId\r\n            ) {\r\n                require(!voteEvents[i].voted, \"You already voted\");\r\n                break;\r\n            }\r\n        }\r\n\r\n        // add count on the candidate\r\n        voteEventCount += 1;\r\n\r\n        // Create a new voteEventStruct\r\n        voteEventStruct memory newVoteEvent = voteEventStruct({\r\n            id: voteEventCount,\r\n            voterKey: _voterKey,\r\n            categoryId: _categoryId,\r\n            eventId: _eventId,\r\n            votedCandidateId : _candidateId,\r\n            voted: true\r\n        });\r\n\r\n        voteEvents[voteEventCount] = newVoteEvent;\r\n\r\n        // add the vote count of the chosen candidate\r\n        addVoteCountIn(_categoryId, _eventId, _candidateId);\r\n\r\n        string memory concatenatedValues = string(\r\n            abi.encodePacked(_categoryId, _eventId)\r\n        );\r\n\r\n        emit VoteEvent(_voterKey, concatenatedValues, _candidateId);\r\n    }\r\n\r\n     function getCandidateVoteCount(uint256 _candidateId)\r\n        public\r\n        view\r\n        returns (uint256 count)\r\n    {\r\n        return candidates[_candidateId].voteCount;\r\n    } \r\n\r\n    function isVoted(\r\n        uint256 _categoryId,\r\n        uint256 _eventId,\r\n        string memory _voterKey\r\n    ) public view returns (bool) {\r\n        // Check if the category exists\r\n        require(\r\n            categories[_categoryId].categoryId != 0,\r\n            \"Category does not exist\"\r\n        );\r\n\r\n        for (uint256 i = 1; i <= voteEventCount; i++) {\r\n            if (\r\n                voteEvents[i].categoryId == _categoryId &&\r\n                voteEvents[i].eventId == _eventId &&\r\n                keccak256(bytes(voteEvents[i].voterKey)) ==\r\n                keccak256(bytes(_voterKey))\r\n            ) {\r\n                return voteEvents[i].voted;\r\n            }\r\n        }\r\n\r\n        return false;\r\n    }\r\n\r\n    function getVoteEventCandidate(uint256 _categoryId, uint256 _eventId)\r\n        public\r\n        view\r\n        returns (Candidate[] memory)\r\n    {\r\n        Event[] memory eventsFound = categories[_categoryId].events;\r\n\r\n        for (uint256 i = 0; i < eventsFound.length; i++) {\r\n            if (eventsFound[i].eventId == _eventId) {\r\n                return eventsFound[i].candidates;\r\n            }\r\n        }\r\n\r\n        // If the event is not found, return an empty array or handle the situation accordingly\r\n        return new Candidate[](0);\r\n    }\r\n\r\n    function markWinner(uint256 _categoryId, uint256 _eventId) public {\r\n        categories[_categoryId].events;\r\n\r\n        for (uint256 i = 0; i < categories[_categoryId].events.length; i++) {\r\n            if (categories[_categoryId].events[i].eventId == _eventId) {\r\n                Candidate storage winner = categories[_categoryId]\r\n                    .events[i]\r\n                    .candidates[0];\r\n                for (\r\n                    uint256 j = 0;\r\n                    j < categories[_categoryId].events[i].candidates.length - 1;\r\n                    j++\r\n                ) {\r\n                    if (\r\n                        winner.voteCount <\r\n                        categories[_categoryId]\r\n                            .events[i]\r\n                            .candidates[j + 1]\r\n                            .voteCount\r\n                    ) {\r\n                        winner = categories[_categoryId].events[i].candidates[\r\n                            j + 1\r\n                        ];\r\n                    }\r\n                }\r\n                winner.win = true;\r\n            }\r\n        }\r\n    }\r\n\r\n    function isMarkWinner(uint256 _categoryId, uint256 _eventId)\r\n        public\r\n        view\r\n        returns (bool isMarket)\r\n    {\r\n        Event[] memory eventsFound = categories[_categoryId].events;\r\n        Candidate[] memory candidatesFound;\r\n\r\n        for (uint256 i = 0; i < eventsFound.length; i++) {\r\n            if (eventsFound[i].eventId == _eventId) {\r\n                candidatesFound = eventsFound[i].candidates;\r\n            }\r\n        }\r\n\r\n        for (uint256 i = 0; i < candidatesFound.length - 1; i++) {\r\n            if (candidatesFound[i].win == true) {\r\n                return true;\r\n            }\r\n        }\r\n        return false;\r\n    }\r\n\r\n    function whoIsTheWinner(uint256 _categoryId, uint256 _eventId)\r\n        public\r\n        view\r\n        returns (Candidate memory)\r\n    {\r\n        Event[] memory eventsFound = categories[_categoryId].events;\r\n        Candidate[] memory candidatesFound;\r\n\r\n        for (uint256 i = 0; i < eventsFound.length; i++) {\r\n            if (eventsFound[i].eventId == _eventId) {\r\n                candidatesFound = eventsFound[i].candidates;\r\n            }\r\n        }\r\n\r\n        Candidate memory winner = candidatesFound[0];\r\n\r\n        for (uint256 i = 0; i < candidatesFound.length - 1; i++) {\r\n            if (winner.voteCount < candidatesFound[i + 1].voteCount) {\r\n                winner = candidatesFound[i + 1];\r\n            }\r\n        }\r\n\r\n        winner.win = true;\r\n\r\n        // If the event is not found, return an empty array or handle the situation accordingly\r\n        return winner;\r\n    } \r\n    */\r\n}\r\n",
  "sourcePath": "C:\\Users\\User\\FYP1\\contracts\\VotingSystem.sol",
  "compiler": {
    "name": "solc",
    "version": "0.8.13+commit.abaa5c0e.Emscripten.clang"
  },
  "schemaVersion": "3.4.16",
  "updatedAt": "2023-12-19T09:30:32.409Z",
  "networkType": "ethereum",
  "devdoc": {
    "kind": "dev",
    "methods": {},
    "version": 1
  },
  "userdoc": {
    "kind": "user",
    "methods": {},
    "version": 1
  }
}