{
  "contractName": "VotingSystem",
  "abi": [
    {
      "inputs": [],
      "stateMutability": "nonpayable",
      "type": "constructor"
    },
    {
      "anonymous": false,
      "inputs": [
        {
          "indexed": true,
          "internalType": "uint256",
          "name": "eventId",
          "type": "uint256"
        },
        {
          "indexed": false,
          "internalType": "string",
          "name": "eventName",
          "type": "string"
        }
      ],
      "name": "CandidateAdded",
      "type": "event"
    },
    {
      "anonymous": false,
      "inputs": [
        {
          "indexed": true,
          "internalType": "uint256",
          "name": "categoryId",
          "type": "uint256"
        },
        {
          "indexed": false,
          "internalType": "string",
          "name": "categoryName",
          "type": "string"
        }
      ],
      "name": "CategoryAdded",
      "type": "event"
    },
    {
      "anonymous": false,
      "inputs": [
        {
          "indexed": true,
          "internalType": "uint256",
          "name": "eventId",
          "type": "uint256"
        },
        {
          "indexed": false,
          "internalType": "string",
          "name": "eventName",
          "type": "string"
        }
      ],
      "name": "EventAdded",
      "type": "event"
    },
    {
      "anonymous": false,
      "inputs": [
        {
          "indexed": true,
          "internalType": "string",
          "name": "_voterKey",
          "type": "string"
        },
        {
          "indexed": true,
          "internalType": "string",
          "name": "categoryEvent",
          "type": "string"
        },
        {
          "indexed": true,
          "internalType": "uint256",
          "name": "candidate",
          "type": "uint256"
        }
      ],
      "name": "VoteEvent",
      "type": "event"
    },
    {
      "anonymous": false,
      "inputs": [
        {
          "indexed": true,
          "internalType": "uint256",
          "name": "voterId",
          "type": "uint256"
        },
        {
          "indexed": false,
          "internalType": "string",
          "name": "voter_key",
          "type": "string"
        }
      ],
      "name": "VoterAdded",
      "type": "event"
    },
    {
      "inputs": [],
      "name": "owner",
      "outputs": [
        {
          "internalType": "address",
          "name": "",
          "type": "address"
        }
      ],
      "stateMutability": "view",
      "type": "function",
      "constant": true
    },
    {
      "inputs": [
        {
          "internalType": "uint256",
          "name": "",
          "type": "uint256"
        }
      ],
      "name": "voteEvents",
      "outputs": [
        {
          "internalType": "uint256",
          "name": "id",
          "type": "uint256"
        },
        {
          "internalType": "string",
          "name": "voterKey",
          "type": "string"
        },
        {
          "internalType": "uint256",
          "name": "categoryId",
          "type": "uint256"
        },
        {
          "internalType": "uint256",
          "name": "eventId",
          "type": "uint256"
        },
        {
          "internalType": "bool",
          "name": "voted",
          "type": "bool"
        }
      ],
      "stateMutability": "view",
      "type": "function",
      "constant": true
    },
    {
      "inputs": [
        {
          "internalType": "uint256",
          "name": "",
          "type": "uint256"
        }
      ],
      "name": "voters",
      "outputs": [
        {
          "internalType": "uint256",
          "name": "id",
          "type": "uint256"
        },
        {
          "internalType": "string",
          "name": "key",
          "type": "string"
        },
        {
          "internalType": "string",
          "name": "email",
          "type": "string"
        },
        {
          "internalType": "bytes32",
          "name": "password",
          "type": "bytes32"
        },
        {
          "internalType": "string",
          "name": "role",
          "type": "string"
        },
        {
          "internalType": "uint256",
          "name": "status",
          "type": "uint256"
        },
        {
          "internalType": "string",
          "name": "token",
          "type": "string"
        }
      ],
      "stateMutability": "view",
      "type": "function",
      "constant": true
    },
    {
      "inputs": [
        {
          "internalType": "string",
          "name": "_key",
          "type": "string"
        },
        {
          "internalType": "string",
          "name": "_email",
          "type": "string"
        },
        {
          "internalType": "string",
          "name": "_password",
          "type": "string"
        },
        {
          "internalType": "string",
          "name": "_role",
          "type": "string"
        },
        {
          "internalType": "string",
          "name": "_token",
          "type": "string"
        }
      ],
      "name": "addVoter",
      "outputs": [],
      "stateMutability": "nonpayable",
      "type": "function"
    },
    {
      "inputs": [
        {
          "internalType": "string",
          "name": "_email",
          "type": "string"
        },
        {
          "internalType": "string",
          "name": "_password",
          "type": "string"
        }
      ],
      "name": "loginVoter",
      "outputs": [
        {
          "components": [
            {
              "internalType": "uint256",
              "name": "id",
              "type": "uint256"
            },
            {
              "internalType": "string",
              "name": "key",
              "type": "string"
            },
            {
              "internalType": "string",
              "name": "email",
              "type": "string"
            },
            {
              "internalType": "bytes32",
              "name": "password",
              "type": "bytes32"
            },
            {
              "internalType": "string",
              "name": "role",
              "type": "string"
            },
            {
              "internalType": "uint256",
              "name": "status",
              "type": "uint256"
            },
            {
              "internalType": "string",
              "name": "token",
              "type": "string"
            }
          ],
          "internalType": "struct VotingSystem.Voter",
          "name": "",
          "type": "tuple"
        }
      ],
      "stateMutability": "view",
      "type": "function",
      "constant": true
    },
    {
      "inputs": [
        {
          "internalType": "string",
          "name": "_email",
          "type": "string"
        },
        {
          "internalType": "string",
          "name": "_password",
          "type": "string"
        }
      ],
      "name": "getVoterByEmailPassword",
      "outputs": [
        {
          "components": [
            {
              "internalType": "uint256",
              "name": "id",
              "type": "uint256"
            },
            {
              "internalType": "string",
              "name": "key",
              "type": "string"
            },
            {
              "internalType": "string",
              "name": "email",
              "type": "string"
            },
            {
              "internalType": "bytes32",
              "name": "password",
              "type": "bytes32"
            },
            {
              "internalType": "string",
              "name": "role",
              "type": "string"
            },
            {
              "internalType": "uint256",
              "name": "status",
              "type": "uint256"
            },
            {
              "internalType": "string",
              "name": "token",
              "type": "string"
            }
          ],
          "internalType": "struct VotingSystem.Voter",
          "name": "",
          "type": "tuple"
        }
      ],
      "stateMutability": "view",
      "type": "function",
      "constant": true
    },
    {
      "inputs": [
        {
          "internalType": "uint256",
          "name": "_voterId",
          "type": "uint256"
        }
      ],
      "name": "getVoterEmailById",
      "outputs": [
        {
          "internalType": "string",
          "name": "",
          "type": "string"
        }
      ],
      "stateMutability": "view",
      "type": "function",
      "constant": true
    },
    {
      "inputs": [
        {
          "internalType": "string",
          "name": "_key",
          "type": "string"
        },
        {
          "internalType": "string",
          "name": "_password",
          "type": "string"
        }
      ],
      "name": "updateVoterPassword",
      "outputs": [],
      "stateMutability": "nonpayable",
      "type": "function"
    },
    {
      "inputs": [
        {
          "internalType": "string",
          "name": "_token",
          "type": "string"
        }
      ],
      "name": "verifyVoterAccount",
      "outputs": [
        {
          "internalType": "bool",
          "name": "",
          "type": "bool"
        }
      ],
      "stateMutability": "nonpayable",
      "type": "function"
    },
    {
      "inputs": [
        {
          "internalType": "string",
          "name": "_email",
          "type": "string"
        },
        {
          "internalType": "string",
          "name": "_password",
          "type": "string"
        }
      ],
      "name": "getVoterStatus",
      "outputs": [
        {
          "internalType": "uint256",
          "name": "status",
          "type": "uint256"
        }
      ],
      "stateMutability": "view",
      "type": "function",
      "constant": true
    },
    {
      "inputs": [
        {
          "internalType": "string",
          "name": "_email",
          "type": "string"
        },
        {
          "internalType": "string",
          "name": "_password",
          "type": "string"
        }
      ],
      "name": "checkVoterEmailPassword",
      "outputs": [
        {
          "internalType": "bool",
          "name": "foundVoter",
          "type": "bool"
        }
      ],
      "stateMutability": "view",
      "type": "function",
      "constant": true
    },
    {
      "inputs": [
        {
          "internalType": "string",
          "name": "_key",
          "type": "string"
        }
      ],
      "name": "isVoterExist",
      "outputs": [
        {
          "internalType": "bool",
          "name": "",
          "type": "bool"
        }
      ],
      "stateMutability": "view",
      "type": "function",
      "constant": true
    },
    {
      "inputs": [
        {
          "internalType": "string",
          "name": "_categoryName",
          "type": "string"
        }
      ],
      "name": "addCategory",
      "outputs": [],
      "stateMutability": "nonpayable",
      "type": "function"
    },
    {
      "inputs": [
        {
          "components": [
            {
              "internalType": "uint256",
              "name": "categoryId",
              "type": "uint256"
            },
            {
              "internalType": "string",
              "name": "categoryName",
              "type": "string"
            },
            {
              "components": [
                {
                  "internalType": "uint256",
                  "name": "eventId",
                  "type": "uint256"
                },
                {
                  "internalType": "string",
                  "name": "eventName",
                  "type": "string"
                },
                {
                  "internalType": "uint256",
                  "name": "categoryId",
                  "type": "uint256"
                },
                {
                  "components": [
                    {
                      "internalType": "uint256",
                      "name": "id",
                      "type": "uint256"
                    },
                    {
                      "internalType": "string",
                      "name": "name",
                      "type": "string"
                    },
                    {
                      "internalType": "string",
                      "name": "description",
                      "type": "string"
                    },
                    {
                      "internalType": "uint256",
                      "name": "studentId",
                      "type": "uint256"
                    },
                    {
                      "internalType": "uint256",
                      "name": "categoryId",
                      "type": "uint256"
                    },
                    {
                      "internalType": "uint256",
                      "name": "eventId",
                      "type": "uint256"
                    },
                    {
                      "internalType": "uint256",
                      "name": "voteCount",
                      "type": "uint256"
                    },
                    {
                      "internalType": "bool",
                      "name": "win",
                      "type": "bool"
                    },
                    {
                      "internalType": "string",
                      "name": "imageFileName",
                      "type": "string"
                    }
                  ],
                  "internalType": "struct VotingSystem.Candidate[]",
                  "name": "candidates",
                  "type": "tuple[]"
                },
                {
                  "internalType": "uint256",
                  "name": "candidateCount",
                  "type": "uint256"
                },
                {
                  "internalType": "uint256",
                  "name": "status",
                  "type": "uint256"
                }
              ],
              "internalType": "struct VotingSystem.Event[]",
              "name": "events",
              "type": "tuple[]"
            },
            {
              "internalType": "uint256",
              "name": "status",
              "type": "uint256"
            }
          ],
          "internalType": "struct VotingSystem.Category",
          "name": "_category",
          "type": "tuple"
        }
      ],
      "name": "updateCategory",
      "outputs": [],
      "stateMutability": "nonpayable",
      "type": "function"
    },
    {
      "inputs": [
        {
          "internalType": "uint256",
          "name": "_categoryId",
          "type": "uint256"
        },
        {
          "internalType": "string",
          "name": "_eventName",
          "type": "string"
        }
      ],
      "name": "addEvent",
      "outputs": [],
      "stateMutability": "nonpayable",
      "type": "function"
    },
    {
      "inputs": [
        {
          "components": [
            {
              "internalType": "uint256",
              "name": "eventId",
              "type": "uint256"
            },
            {
              "internalType": "string",
              "name": "eventName",
              "type": "string"
            },
            {
              "internalType": "uint256",
              "name": "categoryId",
              "type": "uint256"
            },
            {
              "components": [
                {
                  "internalType": "uint256",
                  "name": "id",
                  "type": "uint256"
                },
                {
                  "internalType": "string",
                  "name": "name",
                  "type": "string"
                },
                {
                  "internalType": "string",
                  "name": "description",
                  "type": "string"
                },
                {
                  "internalType": "uint256",
                  "name": "studentId",
                  "type": "uint256"
                },
                {
                  "internalType": "uint256",
                  "name": "categoryId",
                  "type": "uint256"
                },
                {
                  "internalType": "uint256",
                  "name": "eventId",
                  "type": "uint256"
                },
                {
                  "internalType": "uint256",
                  "name": "voteCount",
                  "type": "uint256"
                },
                {
                  "internalType": "bool",
                  "name": "win",
                  "type": "bool"
                },
                {
                  "internalType": "string",
                  "name": "imageFileName",
                  "type": "string"
                }
              ],
              "internalType": "struct VotingSystem.Candidate[]",
              "name": "candidates",
              "type": "tuple[]"
            },
            {
              "internalType": "uint256",
              "name": "candidateCount",
              "type": "uint256"
            },
            {
              "internalType": "uint256",
              "name": "status",
              "type": "uint256"
            }
          ],
          "internalType": "struct VotingSystem.Event",
          "name": "_event",
          "type": "tuple"
        }
      ],
      "name": "updateEvent",
      "outputs": [],
      "stateMutability": "nonpayable",
      "type": "function"
    },
    {
      "inputs": [
        {
          "internalType": "uint256",
          "name": "_categoryId",
          "type": "uint256"
        },
        {
          "internalType": "uint256",
          "name": "_eventId",
          "type": "uint256"
        },
        {
          "internalType": "string",
          "name": "_candidateName",
          "type": "string"
        },
        {
          "internalType": "string",
          "name": "_description",
          "type": "string"
        },
        {
          "internalType": "uint256",
          "name": "_studentId",
          "type": "uint256"
        },
        {
          "internalType": "string",
          "name": "_imageFileName",
          "type": "string"
        }
      ],
      "name": "addCandidateToEvent",
      "outputs": [],
      "stateMutability": "nonpayable",
      "type": "function"
    },
    {
      "inputs": [
        {
          "components": [
            {
              "internalType": "uint256",
              "name": "id",
              "type": "uint256"
            },
            {
              "internalType": "string",
              "name": "name",
              "type": "string"
            },
            {
              "internalType": "string",
              "name": "description",
              "type": "string"
            },
            {
              "internalType": "uint256",
              "name": "studentId",
              "type": "uint256"
            },
            {
              "internalType": "uint256",
              "name": "categoryId",
              "type": "uint256"
            },
            {
              "internalType": "uint256",
              "name": "eventId",
              "type": "uint256"
            },
            {
              "internalType": "uint256",
              "name": "voteCount",
              "type": "uint256"
            },
            {
              "internalType": "bool",
              "name": "win",
              "type": "bool"
            },
            {
              "internalType": "string",
              "name": "imageFileName",
              "type": "string"
            }
          ],
          "internalType": "struct VotingSystem.Candidate",
          "name": "_candidate",
          "type": "tuple"
        }
      ],
      "name": "updateCandidate",
      "outputs": [],
      "stateMutability": "nonpayable",
      "type": "function"
    },
    {
      "inputs": [
        {
          "internalType": "string",
          "name": "_imageFileName",
          "type": "string"
        }
      ],
      "name": "isImageFileNameUsed",
      "outputs": [
        {
          "internalType": "bool",
          "name": "",
          "type": "bool"
        }
      ],
      "stateMutability": "view",
      "type": "function",
      "constant": true
    },
    {
      "inputs": [
        {
          "internalType": "uint256",
          "name": "_categoryId",
          "type": "uint256"
        },
        {
          "internalType": "uint256",
          "name": "_eventId",
          "type": "uint256"
        },
        {
          "internalType": "uint256",
          "name": "_studentId",
          "type": "uint256"
        }
      ],
      "name": "isCandidateExistsInEvent",
      "outputs": [
        {
          "internalType": "bool",
          "name": "",
          "type": "bool"
        }
      ],
      "stateMutability": "view",
      "type": "function",
      "constant": true
    },
    {
      "inputs": [
        {
          "internalType": "uint256",
          "name": "_categoryId",
          "type": "uint256"
        },
        {
          "internalType": "uint256",
          "name": "_eventId",
          "type": "uint256"
        },
        {
          "internalType": "uint256",
          "name": "_candidateId",
          "type": "uint256"
        }
      ],
      "name": "isCandidateExistsInEventById",
      "outputs": [
        {
          "internalType": "bool",
          "name": "",
          "type": "bool"
        }
      ],
      "stateMutability": "view",
      "type": "function",
      "constant": true
    },
    {
      "inputs": [
        {
          "internalType": "uint256",
          "name": "_categoryId",
          "type": "uint256"
        },
        {
          "internalType": "uint256",
          "name": "_eventId",
          "type": "uint256"
        }
      ],
      "name": "isEventExists",
      "outputs": [
        {
          "internalType": "bool",
          "name": "",
          "type": "bool"
        }
      ],
      "stateMutability": "view",
      "type": "function",
      "constant": true
    },
    {
      "inputs": [
        {
          "internalType": "uint256",
          "name": "_categoryId",
          "type": "uint256"
        },
        {
          "internalType": "string",
          "name": "_eventName",
          "type": "string"
        }
      ],
      "name": "isEventExists",
      "outputs": [
        {
          "internalType": "bool",
          "name": "",
          "type": "bool"
        }
      ],
      "stateMutability": "view",
      "type": "function",
      "constant": true
    },
    {
      "inputs": [
        {
          "internalType": "uint256",
          "name": "_categoryId",
          "type": "uint256"
        }
      ],
      "name": "getAllCategoryEvent",
      "outputs": [
        {
          "components": [
            {
              "internalType": "uint256",
              "name": "eventId",
              "type": "uint256"
            },
            {
              "internalType": "string",
              "name": "eventName",
              "type": "string"
            },
            {
              "internalType": "uint256",
              "name": "categoryId",
              "type": "uint256"
            },
            {
              "components": [
                {
                  "internalType": "uint256",
                  "name": "id",
                  "type": "uint256"
                },
                {
                  "internalType": "string",
                  "name": "name",
                  "type": "string"
                },
                {
                  "internalType": "string",
                  "name": "description",
                  "type": "string"
                },
                {
                  "internalType": "uint256",
                  "name": "studentId",
                  "type": "uint256"
                },
                {
                  "internalType": "uint256",
                  "name": "categoryId",
                  "type": "uint256"
                },
                {
                  "internalType": "uint256",
                  "name": "eventId",
                  "type": "uint256"
                },
                {
                  "internalType": "uint256",
                  "name": "voteCount",
                  "type": "uint256"
                },
                {
                  "internalType": "bool",
                  "name": "win",
                  "type": "bool"
                },
                {
                  "internalType": "string",
                  "name": "imageFileName",
                  "type": "string"
                }
              ],
              "internalType": "struct VotingSystem.Candidate[]",
              "name": "candidates",
              "type": "tuple[]"
            },
            {
              "internalType": "uint256",
              "name": "candidateCount",
              "type": "uint256"
            },
            {
              "internalType": "uint256",
              "name": "status",
              "type": "uint256"
            }
          ],
          "internalType": "struct VotingSystem.Event[]",
          "name": "foundEvent",
          "type": "tuple[]"
        }
      ],
      "stateMutability": "view",
      "type": "function",
      "constant": true
    },
    {
      "inputs": [
        {
          "internalType": "uint256",
          "name": "_categoryId",
          "type": "uint256"
        },
        {
          "internalType": "uint256",
          "name": "_eventId",
          "type": "uint256"
        }
      ],
      "name": "getAllCandidatesInEvent",
      "outputs": [
        {
          "components": [
            {
              "internalType": "uint256",
              "name": "id",
              "type": "uint256"
            },
            {
              "internalType": "string",
              "name": "name",
              "type": "string"
            },
            {
              "internalType": "string",
              "name": "description",
              "type": "string"
            },
            {
              "internalType": "uint256",
              "name": "studentId",
              "type": "uint256"
            },
            {
              "internalType": "uint256",
              "name": "categoryId",
              "type": "uint256"
            },
            {
              "internalType": "uint256",
              "name": "eventId",
              "type": "uint256"
            },
            {
              "internalType": "uint256",
              "name": "voteCount",
              "type": "uint256"
            },
            {
              "internalType": "bool",
              "name": "win",
              "type": "bool"
            },
            {
              "internalType": "string",
              "name": "imageFileName",
              "type": "string"
            }
          ],
          "internalType": "struct VotingSystem.Candidate[]",
          "name": "foundCandidates",
          "type": "tuple[]"
        }
      ],
      "stateMutability": "view",
      "type": "function",
      "constant": true
    },
    {
      "inputs": [],
      "name": "getAllCandidates",
      "outputs": [
        {
          "components": [
            {
              "internalType": "uint256",
              "name": "id",
              "type": "uint256"
            },
            {
              "internalType": "string",
              "name": "name",
              "type": "string"
            },
            {
              "internalType": "string",
              "name": "description",
              "type": "string"
            },
            {
              "internalType": "uint256",
              "name": "studentId",
              "type": "uint256"
            },
            {
              "internalType": "uint256",
              "name": "categoryId",
              "type": "uint256"
            },
            {
              "internalType": "uint256",
              "name": "eventId",
              "type": "uint256"
            },
            {
              "internalType": "uint256",
              "name": "voteCount",
              "type": "uint256"
            },
            {
              "internalType": "bool",
              "name": "win",
              "type": "bool"
            },
            {
              "internalType": "string",
              "name": "imageFileName",
              "type": "string"
            }
          ],
          "internalType": "struct VotingSystem.Candidate[]",
          "name": "",
          "type": "tuple[]"
        }
      ],
      "stateMutability": "view",
      "type": "function",
      "constant": true
    },
    {
      "inputs": [],
      "name": "getAllCategory",
      "outputs": [
        {
          "components": [
            {
              "internalType": "uint256",
              "name": "categoryId",
              "type": "uint256"
            },
            {
              "internalType": "string",
              "name": "categoryName",
              "type": "string"
            },
            {
              "components": [
                {
                  "internalType": "uint256",
                  "name": "eventId",
                  "type": "uint256"
                },
                {
                  "internalType": "string",
                  "name": "eventName",
                  "type": "string"
                },
                {
                  "internalType": "uint256",
                  "name": "categoryId",
                  "type": "uint256"
                },
                {
                  "components": [
                    {
                      "internalType": "uint256",
                      "name": "id",
                      "type": "uint256"
                    },
                    {
                      "internalType": "string",
                      "name": "name",
                      "type": "string"
                    },
                    {
                      "internalType": "string",
                      "name": "description",
                      "type": "string"
                    },
                    {
                      "internalType": "uint256",
                      "name": "studentId",
                      "type": "uint256"
                    },
                    {
                      "internalType": "uint256",
                      "name": "categoryId",
                      "type": "uint256"
                    },
                    {
                      "internalType": "uint256",
                      "name": "eventId",
                      "type": "uint256"
                    },
                    {
                      "internalType": "uint256",
                      "name": "voteCount",
                      "type": "uint256"
                    },
                    {
                      "internalType": "bool",
                      "name": "win",
                      "type": "bool"
                    },
                    {
                      "internalType": "string",
                      "name": "imageFileName",
                      "type": "string"
                    }
                  ],
                  "internalType": "struct VotingSystem.Candidate[]",
                  "name": "candidates",
                  "type": "tuple[]"
                },
                {
                  "internalType": "uint256",
                  "name": "candidateCount",
                  "type": "uint256"
                },
                {
                  "internalType": "uint256",
                  "name": "status",
                  "type": "uint256"
                }
              ],
              "internalType": "struct VotingSystem.Event[]",
              "name": "events",
              "type": "tuple[]"
            },
            {
              "internalType": "uint256",
              "name": "status",
              "type": "uint256"
            }
          ],
          "internalType": "struct VotingSystem.Category[]",
          "name": "",
          "type": "tuple[]"
        }
      ],
      "stateMutability": "view",
      "type": "function",
      "constant": true
    },
    {
      "inputs": [
        {
          "internalType": "uint256",
          "name": "_categoryId",
          "type": "uint256"
        }
      ],
      "name": "getCategoryById",
      "outputs": [
        {
          "components": [
            {
              "internalType": "uint256",
              "name": "categoryId",
              "type": "uint256"
            },
            {
              "internalType": "string",
              "name": "categoryName",
              "type": "string"
            },
            {
              "components": [
                {
                  "internalType": "uint256",
                  "name": "eventId",
                  "type": "uint256"
                },
                {
                  "internalType": "string",
                  "name": "eventName",
                  "type": "string"
                },
                {
                  "internalType": "uint256",
                  "name": "categoryId",
                  "type": "uint256"
                },
                {
                  "components": [
                    {
                      "internalType": "uint256",
                      "name": "id",
                      "type": "uint256"
                    },
                    {
                      "internalType": "string",
                      "name": "name",
                      "type": "string"
                    },
                    {
                      "internalType": "string",
                      "name": "description",
                      "type": "string"
                    },
                    {
                      "internalType": "uint256",
                      "name": "studentId",
                      "type": "uint256"
                    },
                    {
                      "internalType": "uint256",
                      "name": "categoryId",
                      "type": "uint256"
                    },
                    {
                      "internalType": "uint256",
                      "name": "eventId",
                      "type": "uint256"
                    },
                    {
                      "internalType": "uint256",
                      "name": "voteCount",
                      "type": "uint256"
                    },
                    {
                      "internalType": "bool",
                      "name": "win",
                      "type": "bool"
                    },
                    {
                      "internalType": "string",
                      "name": "imageFileName",
                      "type": "string"
                    }
                  ],
                  "internalType": "struct VotingSystem.Candidate[]",
                  "name": "candidates",
                  "type": "tuple[]"
                },
                {
                  "internalType": "uint256",
                  "name": "candidateCount",
                  "type": "uint256"
                },
                {
                  "internalType": "uint256",
                  "name": "status",
                  "type": "uint256"
                }
              ],
              "internalType": "struct VotingSystem.Event[]",
              "name": "events",
              "type": "tuple[]"
            },
            {
              "internalType": "uint256",
              "name": "status",
              "type": "uint256"
            }
          ],
          "internalType": "struct VotingSystem.Category",
          "name": "",
          "type": "tuple"
        }
      ],
      "stateMutability": "view",
      "type": "function",
      "constant": true
    },
    {
      "inputs": [],
      "name": "getAllEvent",
      "outputs": [
        {
          "components": [
            {
              "internalType": "uint256",
              "name": "eventId",
              "type": "uint256"
            },
            {
              "internalType": "string",
              "name": "eventName",
              "type": "string"
            },
            {
              "internalType": "uint256",
              "name": "categoryId",
              "type": "uint256"
            },
            {
              "components": [
                {
                  "internalType": "uint256",
                  "name": "id",
                  "type": "uint256"
                },
                {
                  "internalType": "string",
                  "name": "name",
                  "type": "string"
                },
                {
                  "internalType": "string",
                  "name": "description",
                  "type": "string"
                },
                {
                  "internalType": "uint256",
                  "name": "studentId",
                  "type": "uint256"
                },
                {
                  "internalType": "uint256",
                  "name": "categoryId",
                  "type": "uint256"
                },
                {
                  "internalType": "uint256",
                  "name": "eventId",
                  "type": "uint256"
                },
                {
                  "internalType": "uint256",
                  "name": "voteCount",
                  "type": "uint256"
                },
                {
                  "internalType": "bool",
                  "name": "win",
                  "type": "bool"
                },
                {
                  "internalType": "string",
                  "name": "imageFileName",
                  "type": "string"
                }
              ],
              "internalType": "struct VotingSystem.Candidate[]",
              "name": "candidates",
              "type": "tuple[]"
            },
            {
              "internalType": "uint256",
              "name": "candidateCount",
              "type": "uint256"
            },
            {
              "internalType": "uint256",
              "name": "status",
              "type": "uint256"
            }
          ],
          "internalType": "struct VotingSystem.Event[]",
          "name": "",
          "type": "tuple[]"
        }
      ],
      "stateMutability": "view",
      "type": "function",
      "constant": true
    },
    {
      "inputs": [
        {
          "internalType": "uint256",
          "name": "_categoryId",
          "type": "uint256"
        },
        {
          "internalType": "uint256",
          "name": "_eventId",
          "type": "uint256"
        }
      ],
      "name": "getEventById",
      "outputs": [
        {
          "components": [
            {
              "internalType": "uint256",
              "name": "eventId",
              "type": "uint256"
            },
            {
              "internalType": "string",
              "name": "eventName",
              "type": "string"
            },
            {
              "internalType": "uint256",
              "name": "categoryId",
              "type": "uint256"
            },
            {
              "components": [
                {
                  "internalType": "uint256",
                  "name": "id",
                  "type": "uint256"
                },
                {
                  "internalType": "string",
                  "name": "name",
                  "type": "string"
                },
                {
                  "internalType": "string",
                  "name": "description",
                  "type": "string"
                },
                {
                  "internalType": "uint256",
                  "name": "studentId",
                  "type": "uint256"
                },
                {
                  "internalType": "uint256",
                  "name": "categoryId",
                  "type": "uint256"
                },
                {
                  "internalType": "uint256",
                  "name": "eventId",
                  "type": "uint256"
                },
                {
                  "internalType": "uint256",
                  "name": "voteCount",
                  "type": "uint256"
                },
                {
                  "internalType": "bool",
                  "name": "win",
                  "type": "bool"
                },
                {
                  "internalType": "string",
                  "name": "imageFileName",
                  "type": "string"
                }
              ],
              "internalType": "struct VotingSystem.Candidate[]",
              "name": "candidates",
              "type": "tuple[]"
            },
            {
              "internalType": "uint256",
              "name": "candidateCount",
              "type": "uint256"
            },
            {
              "internalType": "uint256",
              "name": "status",
              "type": "uint256"
            }
          ],
          "internalType": "struct VotingSystem.Event",
          "name": "",
          "type": "tuple"
        }
      ],
      "stateMutability": "view",
      "type": "function",
      "constant": true
    },
    {
      "inputs": [
        {
          "internalType": "string",
          "name": "_voterKey",
          "type": "string"
        },
        {
          "internalType": "uint256",
          "name": "_candidateId",
          "type": "uint256"
        },
        {
          "internalType": "uint256",
          "name": "_categoryId",
          "type": "uint256"
        },
        {
          "internalType": "uint256",
          "name": "_eventId",
          "type": "uint256"
        }
      ],
      "name": "vote",
      "outputs": [],
      "stateMutability": "nonpayable",
      "type": "function"
    },
    {
      "inputs": [
        {
          "internalType": "uint256",
          "name": "_candidateId",
          "type": "uint256"
        }
      ],
      "name": "getCandidateVoteCount",
      "outputs": [
        {
          "internalType": "uint256",
          "name": "count",
          "type": "uint256"
        }
      ],
      "stateMutability": "view",
      "type": "function",
      "constant": true
    },
    {
      "inputs": [
        {
          "internalType": "uint256",
          "name": "_categoryId",
          "type": "uint256"
        },
        {
          "internalType": "uint256",
          "name": "_eventId",
          "type": "uint256"
        }
      ],
      "name": "getVoteEventCandidate",
      "outputs": [
        {
          "components": [
            {
              "internalType": "uint256",
              "name": "id",
              "type": "uint256"
            },
            {
              "internalType": "string",
              "name": "name",
              "type": "string"
            },
            {
              "internalType": "string",
              "name": "description",
              "type": "string"
            },
            {
              "internalType": "uint256",
              "name": "studentId",
              "type": "uint256"
            },
            {
              "internalType": "uint256",
              "name": "categoryId",
              "type": "uint256"
            },
            {
              "internalType": "uint256",
              "name": "eventId",
              "type": "uint256"
            },
            {
              "internalType": "uint256",
              "name": "voteCount",
              "type": "uint256"
            },
            {
              "internalType": "bool",
              "name": "win",
              "type": "bool"
            },
            {
              "internalType": "string",
              "name": "imageFileName",
              "type": "string"
            }
          ],
          "internalType": "struct VotingSystem.Candidate[]",
          "name": "",
          "type": "tuple[]"
        }
      ],
      "stateMutability": "view",
      "type": "function",
      "constant": true
    },
    {
      "inputs": [
        {
          "internalType": "uint256",
          "name": "_categoryId",
          "type": "uint256"
        },
        {
          "internalType": "uint256",
          "name": "_eventId",
          "type": "uint256"
        }
      ],
      "name": "whoIsTheWinner",
      "outputs": [
        {
          "components": [
            {
              "internalType": "uint256",
              "name": "id",
              "type": "uint256"
            },
            {
              "internalType": "string",
              "name": "name",
              "type": "string"
            },
            {
              "internalType": "string",
              "name": "description",
              "type": "string"
            },
            {
              "internalType": "uint256",
              "name": "studentId",
              "type": "uint256"
            },
            {
              "internalType": "uint256",
              "name": "categoryId",
              "type": "uint256"
            },
            {
              "internalType": "uint256",
              "name": "eventId",
              "type": "uint256"
            },
            {
              "internalType": "uint256",
              "name": "voteCount",
              "type": "uint256"
            },
            {
              "internalType": "bool",
              "name": "win",
              "type": "bool"
            },
            {
              "internalType": "string",
              "name": "imageFileName",
              "type": "string"
            }
          ],
          "internalType": "struct VotingSystem.Candidate",
          "name": "",
          "type": "tuple"
        }
      ],
      "stateMutability": "view",
      "type": "function",
      "constant": true
    }
  ],
  "bytecode": "0x608060405234801561001057600080fd5b50600080546001600160a01b031916331790556156a380620000336000396000f3fe608060405234801561001057600080fd5b50600436106102065760003560e01c8063763049841161011a578063a7e62d1b116100ad578063da58c7d91161007c578063da58c7d9146104db578063dfdffaf414610501578063f29565ed14610514578063f731d0e914610527578063ffdd108b1461053a57600080fd5b8063a7e62d1b1461047f578063b315c59714610492578063bf03f677146104b5578063c8011280146104c857600080fd5b80638da5cb5b116100e95780638da5cb5b1461040c5780638f2c280514610437578063909f85021461044c578063a1a025641461046c57600080fd5b806376304984146103c0578063776a657b146103d35780638801b5b6146103e657806388ad4376146103f957600080fd5b80634ffd25f61161019d5780635b4d727c1161016c5780635b4d727c1461033657806360e93f3c14610349578063642d20ad14610369578063689b6fbf1461038d578063748f55a8146103a057600080fd5b80634ffd25f6146102dd57806350515a77146102f0578063514fc62a146103035780635a8ffc791461031657600080fd5b80633e60e2f5116101d95780633e60e2f514610266578063400af02a14610287578063401a52dd146102a75780634fb43250146102ba57600080fd5b80631002cdd41461020b5780632e0dcbf7146102295780632e6997fe1461023e5780633a637c2014610253575b600080fd5b61021361054d565b6040516102209190614955565b60405180910390f35b61023c610237366004614ad9565b610996565b005b610246610ac5565b6040516102209190614b15565b61023c610261366004614da0565b610c47565b610279610274366004614eb3565b610caf565b604051908152602001610220565b61029a610295366004614eb3565b610ced565b6040516102209190614f16565b6102136102b5366004614fb3565b610dca565b6102cd6102c8366004614fcc565b6111be565b6040519015158152602001610220565b61023c6102eb366004614fee565b61126a565b6102cd6102fe366004615022565b611395565b6102cd610311366004614ad9565b611454565b610329610324366004614fb3565b6114ba565b604051610220919061505e565b610246610344366004614fcc565b6115ae565b61035c610357366004614fb3565b61194a565b6040516102209190615102565b61037c610377366004614fb3565b611dad565b604051610220959493929190615115565b6102cd61039b366004614eb3565b611e69565b6103b36103ae366004614fcc565b611e8a565b604051610220919061514d565b61023c6103ce366004615160565b612328565b61023c6103e1366004615203565b612679565b61029a6103f4366004614eb3565b612991565b6102cd610407366004614ad9565b612d6d565b60005461041f906001600160a01b031681565b6040516001600160a01b039091168152602001610220565b61043f612d98565b6040516102209190615256565b61045f61045a366004614fcc565b613294565b60405161022091906152ab565b6102cd61047a366004614ad9565b61374c565b61024661048d366004614fcc565b613830565b6102796104a0366004614fb3565b60009081526003602052604090206006015490565b6102cd6104c33660046152be565b613c4e565b61023c6104d63660046152ea565b613ce2565b6104ee6104e9366004614fb3565b613e98565b604051610220979695949392919061531e565b6102cd61050f3660046152be565b6140f3565b61023c610522366004614eb3565b61417b565b61023c61053536600461538b565b614261565b61023c610548366004615022565b6143f6565b606060006009546001600160401b0381111561056b5761056b6149b7565b6040519080825280602002602001820160405280156105a457816020015b6105916146a0565b8152602001906001900390816105895790505b5090506000805b60075481101561098e5760005b600160006105c68483615472565b815260208101919091526040016000206002015481101561097b57600160006105ef8483615472565b815260200190815260200160002060020181815481106106115761061161548a565b90600052602060002090600602016040518060c001604052908160008201548152602001600182018054610644906154a0565b80601f0160208091040260200160405190810160405280929190818152602001828054610670906154a0565b80156106bd5780601f10610692576101008083540402835291602001916106bd565b820191906000526020600020905b8154815290600101906020018083116106a057829003601f168201915b505050505081526020016002820154815260200160038201805480602002602001604051908101604052809291908181526020016000905b8282101561092357838290600052602060002090600902016040518061012001604052908160008201548152602001600182018054610733906154a0565b80601f016020809104026020016040519081016040528092919081815260200182805461075f906154a0565b80156107ac5780601f10610781576101008083540402835291602001916107ac565b820191906000526020600020905b81548152906001019060200180831161078f57829003601f168201915b505050505081526020016002820180546107c5906154a0565b80601f01602080910402602001604051908101604052809291908181526020018280546107f1906154a0565b801561083e5780601f106108135761010080835404028352916020019161083e565b820191906000526020600020905b81548152906001019060200180831161082157829003601f168201915b505050918352505060038201546020820152600482015460408201526005820154606082015260068201546080820152600782015460ff16151560a082015260088201805460c090920191610892906154a0565b80601f01602080910402602001604051908101604052809291908181526020018280546108be906154a0565b801561090b5780601f106108e05761010080835404028352916020019161090b565b820191906000526020600020905b8154815290600101906020018083116108ee57829003601f168201915b505050505081525050815260200190600101906106f5565b505050508152602001600482015481526020016005820154815250508484815181106109515761095161548a565b6020908102919091010152610967600184615472565b925080610973816154d4565b9150506105b8565b5080610986816154d4565b9150506105ab565b509092915050565b60015b6007548111610a3957600160008281526020019081526020016000206001016040516109c591906154ed565b6040518091039020828051906020012003610a275760405162461bcd60e51b815260206004820152601760248201527f43617465676f727920616c72656164792065786973747300000000000000000060448201526064015b60405180910390fd5b80610a31816154d4565b915050610999565b50600160076000828254610a4d9190615472565b9091555050600754600090815260016020818152604090922083519092610a7a92840191908501906146d6565b5060078054825560016003830155546040517f5bae3f75753ef0a1c0ea0f6c51d7b43a4b8d116572b8b7b5cb771f9ad32d4ae590610ab990859061505e565b60405180910390a25050565b606060006008546001600160401b03811115610ae357610ae36149b7565b604051908082528060200260200182016040528015610b1c57816020015b610b0961475a565b815260200190600190039081610b015790505b50905060006009546001600160401b03811115610b3b57610b3b6149b7565b604051908082528060200260200182016040528015610b7457816020015b610b616146a0565b815260200190600190039081610b595790505b509050610b7f61054d565b90506000805b600954811015610c3e5760005b838281518110610ba457610ba461548a565b60200260200101516060015151811015610c2b57838281518110610bca57610bca61548a565b6020026020010151606001518181518110610be757610be761548a565b6020026020010151858481518110610c0157610c0161548a565b6020908102919091010152610c17600184615472565b925080610c23816154d4565b915050610b92565b5080610c36816154d4565b915050610b85565b50919392505050565b80516000908152600160205260408120549003610c765760405162461bcd60e51b8152600401610a1e90615588565b805160009081526001602081815260409092208284015180519193610ca0938501929101906146d6565b50606090910151600390910155565b600080610cbc8484612991565b8051909150600003610ce05760405162461bcd60e51b8152600401610a1e906155bf565b60a0015190505b92915050565b610d306040518060e00160405280600081526020016060815260200160608152602001600080191681526020016060815260200160008152602001606081525090565b6000610d3c8484612991565b8051909150600003610d605760405162461bcd60e51b8152600401610a1e906155bf565b8060a00151600114610dc35760405162461bcd60e51b815260206004820152602660248201527f596f7572206163636f756e74207761732062616e6e6564206f72206e6f74207660448201526565726966792160d01b6064820152608401610a1e565b9392505050565b60008181526001602052604081206002810154606092906001600160401b03811115610df857610df86149b7565b604051908082528060200260200182016040528015610e3157816020015b610e1e6146a0565b815260200190600190039081610e165790505b50905060005b60028301548110156111b657826002018181548110610e5857610e5861548a565b90600052602060002090600602016040518060c001604052908160008201548152602001600182018054610e8b906154a0565b80601f0160208091040260200160405190810160405280929190818152602001828054610eb7906154a0565b8015610f045780601f10610ed957610100808354040283529160200191610f04565b820191906000526020600020905b815481529060010190602001808311610ee757829003601f168201915b505050505081526020016002820154815260200160038201805480602002602001604051908101604052809291908181526020016000905b8282101561116a57838290600052602060002090600902016040518061012001604052908160008201548152602001600182018054610f7a906154a0565b80601f0160208091040260200160405190810160405280929190818152602001828054610fa6906154a0565b8015610ff35780601f10610fc857610100808354040283529160200191610ff3565b820191906000526020600020905b815481529060010190602001808311610fd657829003601f168201915b5050505050815260200160028201805461100c906154a0565b80601f0160208091040260200160405190810160405280929190818152602001828054611038906154a0565b80156110855780601f1061105a57610100808354040283529160200191611085565b820191906000526020600020905b81548152906001019060200180831161106857829003601f168201915b505050918352505060038201546020820152600482015460408201526005820154606082015260068201546080820152600782015460ff16151560a082015260088201805460c0909201916110d9906154a0565b80601f0160208091040260200160405190810160405280929190818152602001828054611105906154a0565b80156111525780601f1061112757610100808354040283529160200191611152565b820191906000526020600020905b81548152906001019060200180831161113557829003601f168201915b50505050508152505081526020019060010190610f3c565b505050508152602001600482015481526020016005820154815250508282815181106111985761119861548a565b602002602001018190525080806111ae906154d4565b915050610e37565b509392505050565b60008281526001602052604081205481036111eb5760405162461bcd60e51b8152600401610a1e90615603565b60005b60008481526001602052604090206002015481101561126057600084815260016020526040902060020180548491908390811061122d5761122d61548a565b9060005260206000209060060201600001540361124e576001915050610ce7565b80611258816154d4565b9150506111ee565b5060009392505050565b604080820151600090815260016020529081205490036112c75760405162461bcd60e51b815260206004820152601860248201527743617465676f727920646f6573206e6f742065786973747360401b6044820152606401610a1e565b6112d9816040015182600001516111be565b61131d5760405162461bcd60e51b81526020600482015260156024820152744576656e7420646f6573206e6f742065786973742160581b6044820152606401610a1e565b600060016000836040015181526020019081526020016000206002016001836000015161134a919061563a565b8154811061135a5761135a61548a565b9060005260206000209060060201905081602001518160010190805190602001906113869291906146d6565b5060a090910151600590910155565b60008281526001602052604081205481036113c25760405162461bcd60e51b8152600401610a1e90615603565b60005b60008481526001602052604090206002015481101561126057828051906020012060016000868152602001908152602001600020600201828154811061140d5761140d61548a565b906000526020600020906006020160010160405161142b91906154ed565b604051809103902003611442576001915050610ce7565b8061144c816154d4565b9150506113c5565b600060015b600b5481116114b15760008181526005602052604090819020905161148191600101906154ed565b604051809103902083805190602001200361149f5750600192915050565b806114a9816154d4565b915050611459565b50600092915050565b60606000821180156114ce5750600b548211155b61150d5760405162461bcd60e51b815260206004820152601060248201526f125b9d985b1a59081d9bdd195c88125160821b6044820152606401610a1e565b60008281526005602052604090206002018054611529906154a0565b80601f0160208091040260200160405190810160405280929190818152602001828054611555906154a0565b80156115a25780601f10611577576101008083540402835291602001916115a2565b820191906000526020600020905b81548152906001019060200180831161158557829003601f168201915b50505050509050919050565b60008281526001602052604081206060915b600282015481101561194257838260020182815481106115e2576115e261548a565b906000526020600020906006020160000154036119305760008260020182815481106116105761161061548a565b9060005260206000209060060201600401546001600160401b03811115611639576116396149b7565b60405190808252806020026020018201604052801561167257816020015b61165f61475a565b8152602001906001900390816116575790505b50905060005b83600201838154811061168d5761168d61548a565b906000526020600020906006020160030180549050811015611925578360020183815481106116be576116be61548a565b906000526020600020906006020160030181815481106116e0576116e061548a565b90600052602060002090600902016040518061012001604052908160008201548152602001600182018054611714906154a0565b80601f0160208091040260200160405190810160405280929190818152602001828054611740906154a0565b801561178d5780601f106117625761010080835404028352916020019161178d565b820191906000526020600020905b81548152906001019060200180831161177057829003601f168201915b505050505081526020016002820180546117a6906154a0565b80601f01602080910402602001604051908101604052809291908181526020018280546117d2906154a0565b801561181f5780601f106117f45761010080835404028352916020019161181f565b820191906000526020600020905b81548152906001019060200180831161180257829003601f168201915b505050918352505060038201546020820152600482015460408201526005820154606082015260068201546080820152600782015460ff16151560a082015260088201805460c090920191611873906154a0565b80601f016020809104026020016040519081016040528092919081815260200182805461189f906154a0565b80156118ec5780601f106118c1576101008083540402835291602001916118ec565b820191906000526020600020905b8154815290600101906020018083116118cf57829003601f168201915b5050505050815250508282815181106119075761190761548a565b6020026020010181905250808061191d906154d4565b915050611678565b509250610ce7915050565b8061193a816154d4565b9150506115c0565b505092915050565b6119756040518060800160405280600081526020016060815260200160608152602001600081525090565b600082815260016020818152604092839020835160808101909452805484529182018054918401916119a6906154a0565b80601f01602080910402602001604051908101604052809291908181526020018280546119d2906154a0565b8015611a1f5780601f106119f457610100808354040283529160200191611a1f565b820191906000526020600020905b815481529060010190602001808311611a0257829003601f168201915b5050505050815260200160028201805480602002602001604051908101604052809291908181526020016000905b82821015611d9457838290600052602060002090600602016040518060c001604052908160008201548152602001600182018054611a8a906154a0565b80601f0160208091040260200160405190810160405280929190818152602001828054611ab6906154a0565b8015611b035780601f10611ad857610100808354040283529160200191611b03565b820191906000526020600020905b815481529060010190602001808311611ae657829003601f168201915b505050505081526020016002820154815260200160038201805480602002602001604051908101604052809291908181526020016000905b82821015611d6957838290600052602060002090600902016040518061012001604052908160008201548152602001600182018054611b79906154a0565b80601f0160208091040260200160405190810160405280929190818152602001828054611ba5906154a0565b8015611bf25780601f10611bc757610100808354040283529160200191611bf2565b820191906000526020600020905b815481529060010190602001808311611bd557829003601f168201915b50505050508152602001600282018054611c0b906154a0565b80601f0160208091040260200160405190810160405280929190818152602001828054611c37906154a0565b8015611c845780601f10611c5957610100808354040283529160200191611c84565b820191906000526020600020905b815481529060010190602001808311611c6757829003601f168201915b505050918352505060038201546020820152600482015460408201526005820154606082015260068201546080820152600782015460ff16151560a082015260088201805460c090920191611cd8906154a0565b80601f0160208091040260200160405190810160405280929190818152602001828054611d04906154a0565b8015611d515780601f10611d2657610100808354040283529160200191611d51565b820191906000526020600020905b815481529060010190602001808311611d3457829003601f168201915b50505050508152505081526020019060010190611b3b565b5050505081526020016004820154815260200160058201548152505081526020019060010190611a4d565b5050505081526020016003820154815250509050919050565b60046020526000908152604090208054600182018054919291611dcf906154a0565b80601f0160208091040260200160405190810160405280929190818152602001828054611dfb906154a0565b8015611e485780601f10611e1d57610100808354040283529160200191611e48565b820191906000526020600020905b815481529060010190602001808311611e2b57829003601f168201915b50505050600283015460038401546004909401549293909290915060ff1685565b600080611e768484612991565b805190915015611260576001915050610ce7565b611e9261475a565b600083815260016020908152604080832060020180548251818502810185019093528083529192909190849084015b8282101561220857838290600052602060002090600602016040518060c001604052908160008201548152602001600182018054611efe906154a0565b80601f0160208091040260200160405190810160405280929190818152602001828054611f2a906154a0565b8015611f775780601f10611f4c57610100808354040283529160200191611f77565b820191906000526020600020905b815481529060010190602001808311611f5a57829003601f168201915b505050505081526020016002820154815260200160038201805480602002602001604051908101604052809291908181526020016000905b828210156121dd57838290600052602060002090600902016040518061012001604052908160008201548152602001600182018054611fed906154a0565b80601f0160208091040260200160405190810160405280929190818152602001828054612019906154a0565b80156120665780601f1061203b57610100808354040283529160200191612066565b820191906000526020600020905b81548152906001019060200180831161204957829003601f168201915b5050505050815260200160028201805461207f906154a0565b80601f01602080910402602001604051908101604052809291908181526020018280546120ab906154a0565b80156120f85780601f106120cd576101008083540402835291602001916120f8565b820191906000526020600020905b8154815290600101906020018083116120db57829003601f168201915b505050918352505060038201546020820152600482015460408201526005820154606082015260068201546080820152600782015460ff16151560a082015260088201805460c09092019161214c906154a0565b80601f0160208091040260200160405190810160405280929190818152602001828054612178906154a0565b80156121c55780601f1061219a576101008083540402835291602001916121c5565b820191906000526020600020905b8154815290600101906020018083116121a857829003601f168201915b50505050508152505081526020019060010190611faf565b5050505081526020016004820154815260200160058201548152505081526020019060010190611ec1565b505050509050606060005b8251811015612273578483828151811061222f5761222f61548a565b60200260200101516000015103612261578281815181106122525761225261548a565b60200260200101516060015191505b8061226b816154d4565b915050612213565b506000816000815181106122895761228961548a565b6020026020010151905060005b600183516122a4919061563a565b81101561231757826122b7826001615472565b815181106122c7576122c761548a565b602002602001015160c001518260c00151101561230557826122ea826001615472565b815181106122fa576122fa61548a565b602002602001015191505b8061230f816154d4565b915050612296565b50600160e082015295945050505050565b60008681526001602052604081205490036123555760405162461bcd60e51b8152600401610a1e90615603565b61235f86866111be565b6123a25760405162461bcd60e51b8152602060048201526014602482015273115d995b9d08191bd95cc81b9bdd08195e1a5cdd60621b6044820152606401610a1e565b6123ad8686846140f3565b156123fa5760405162461bcd60e51b815260206004820152601860248201527f43616e64696461746520616c72656164792065786973747300000000000000006044820152606401610a1e565b60068160405161240a9190615651565b9081526040519081900360200190205460ff161561246a5760405162461bcd60e51b815260206004820152601e60248201527f496d6167652066696c65206e616d6520616c726561647920696e2075736500006044820152606401610a1e565b60016008600082825461247d9190615472565b9091555050604080516101208101825260085481526020808201879052818301869052606082018590526080820189905260a08201889052600060c0830181905260e083018190526101008301859052898152600190915291822090915b600282015481101561263c57878260020182815481106124fd576124fd61548a565b9060005260206000209060060201600001540361262a578160020181815481106125295761252961548a565b600091825260208083206003600690930201919091018054600181810183559184529282902086516009909402019283558582015180518794936125719385019201906146d6565b506040820151805161258d9160028401916020909101906146d6565b50606082015160038201556080820151600482015560a0820151600582015560c0820151600682015560e082015160078201805460ff191691151591909117905561010082015180516125ea9160088401916020909101906146d6565b50505060018260020182815481106126045761260461548a565b906000526020600020906006020160040160008282546126249190615472565b90915550505b80612634816154d4565b9150506124db565b50600160068460405161264f9190615651565b908152604051908190036020019020805491151560ff199092169190911790555050505050505050565b60008281526001602052604081205490036126d15760405162461bcd60e51b815260206004820152601860248201527743617465676f727920646f6573206e6f742065786973747360401b6044820152606401610a1e565b60095460000361271b5760405162461bcd60e51b81526020600482015260156024820152744576656e7420646f6573206e6f742065786973747360581b6044820152606401610a1e565b612726828285613c4e565b15156001146127775760405162461bcd60e51b815260206004820152601a60248201527f43616e6469646174657320646f6573206e6f74206578697374730000000000006044820152606401610a1e565b60015b600a54811161285e576000818152600460205260409081902090516127a291600101906154ed565b604051809103902085805190602001201480156127cf575060008181526004602052604090206002015483145b80156127eb575060008181526004602052604090206003015482145b1561284c576000818152600460208190526040909120015460ff16156128475760405162461bcd60e51b8152602060048201526011602482015270165bdd48185b1c9958591e481d9bdd1959607a1b6044820152606401610a1e565b61285e565b80612856816154d4565b91505061277a565b506001600a60008282546128729190615472565b90915550506040805160a081018252600a54808252602080830188815283850187905260608401869052600160808501819052600093845260048352949092208351815591518051939485946128cf9391850192909101906146d6565b5060408201516002820155606082015160038201556080909101516004909101805460ff1916911515919091179055612907846144ee565b612912838386614518565b6040805160208101859052808201849052815180820383018152606090910191829052908590612943908390615651565b6040518091039020876040516129599190615651565b604051908190038120907f336badd820d33e68eff2381e343928896ff7147adf09b298939d0a7b001f072e90600090a4505050505050565b6129d46040518060e00160405280600081526020016060815260200160608152602001600080191681526020016060815260200160008152602001606081525090565b6000826040516020016129e79190615651565b60408051601f198184030181529190528051602090910120905060015b600b548111612d0557600081815260056020526040908190209051612a2c91600201906154ed565b60405180910390208580519060200120148015612a615750600081815260056020526040902060030154612a61908390614628565b15612cf357600560008281526020019081526020016000206040518060e001604052908160008201548152602001600182018054612a9e906154a0565b80601f0160208091040260200160405190810160405280929190818152602001828054612aca906154a0565b8015612b175780601f10612aec57610100808354040283529160200191612b17565b820191906000526020600020905b815481529060010190602001808311612afa57829003601f168201915b50505050508152602001600282018054612b30906154a0565b80601f0160208091040260200160405190810160405280929190818152602001828054612b5c906154a0565b8015612ba95780601f10612b7e57610100808354040283529160200191612ba9565b820191906000526020600020905b815481529060010190602001808311612b8c57829003601f168201915b5050505050815260200160038201548152602001600482018054612bcc906154a0565b80601f0160208091040260200160405190810160405280929190818152602001828054612bf8906154a0565b8015612c455780601f10612c1a57610100808354040283529160200191612c45565b820191906000526020600020905b815481529060010190602001808311612c2857829003601f168201915b5050505050815260200160058201548152602001600682018054612c68906154a0565b80601f0160208091040260200160405190810160405280929190818152602001828054612c94906154a0565b8015612ce15780601f10612cb657610100808354040283529160200191612ce1565b820191906000526020600020905b815481529060010190602001808311612cc457829003601f168201915b50505050508152505092505050610ce7565b80612cfd816154d4565b915050612a04565b50506040805160e08101825260008082528251602080820185528282528084019190915283518082018552828152838501526060830182905283518082018552828152608084015260a083018290528351908101909352825260c08101919091529392505050565b6000600682604051612d7f9190615651565b9081526040519081900360200190205460ff1692915050565b606060006007546001600160401b03811115612db657612db66149b7565b604051908082528060200260200182016040528015612e1257816020015b612dff6040518060800160405280600081526020016060815260200160608152602001600081525090565b815260200190600190039081612dd45790505b50905060015b600754811161328e5760008181526001602081815260409283902083516080810190945280548452918201805491840191612e52906154a0565b80601f0160208091040260200160405190810160405280929190818152602001828054612e7e906154a0565b8015612ecb5780601f10612ea057610100808354040283529160200191612ecb565b820191906000526020600020905b815481529060010190602001808311612eae57829003601f168201915b5050505050815260200160028201805480602002602001604051908101604052809291908181526020016000905b8282101561324057838290600052602060002090600602016040518060c001604052908160008201548152602001600182018054612f36906154a0565b80601f0160208091040260200160405190810160405280929190818152602001828054612f62906154a0565b8015612faf5780601f10612f8457610100808354040283529160200191612faf565b820191906000526020600020905b815481529060010190602001808311612f9257829003601f168201915b505050505081526020016002820154815260200160038201805480602002602001604051908101604052809291908181526020016000905b8282101561321557838290600052602060002090600902016040518061012001604052908160008201548152602001600182018054613025906154a0565b80601f0160208091040260200160405190810160405280929190818152602001828054613051906154a0565b801561309e5780601f106130735761010080835404028352916020019161309e565b820191906000526020600020905b81548152906001019060200180831161308157829003601f168201915b505050505081526020016002820180546130b7906154a0565b80601f01602080910402602001604051908101604052809291908181526020018280546130e3906154a0565b80156131305780601f1061310557610100808354040283529160200191613130565b820191906000526020600020905b81548152906001019060200180831161311357829003601f168201915b505050918352505060038201546020820152600482015460408201526005820154606082015260068201546080820152600782015460ff16151560a082015260088201805460c090920191613184906154a0565b80601f01602080910402602001604051908101604052809291908181526020018280546131b0906154a0565b80156131fd5780601f106131d2576101008083540402835291602001916131fd565b820191906000526020600020905b8154815290600101906020018083116131e057829003601f168201915b50505050508152505081526020019060010190612fe7565b5050505081526020016004820154815260200160058201548152505081526020019060010190612ef9565b50505050815260200160038201548152505082600183613260919061563a565b815181106132705761327061548a565b60200260200101819052508080613286906154d4565b915050612e18565b50919050565b61329c6146a0565b60008381526001602081815260408084208151608081019092528054825292830180549193928401916132ce906154a0565b80601f01602080910402602001604051908101604052809291908181526020018280546132fa906154a0565b80156133475780601f1061331c57610100808354040283529160200191613347565b820191906000526020600020905b81548152906001019060200180831161332a57829003601f168201915b5050505050815260200160028201805480602002602001604051908101604052809291908181526020016000905b828210156136bc57838290600052602060002090600602016040518060c0016040529081600082015481526020016001820180546133b2906154a0565b80601f01602080910402602001604051908101604052809291908181526020018280546133de906154a0565b801561342b5780601f106134005761010080835404028352916020019161342b565b820191906000526020600020905b81548152906001019060200180831161340e57829003601f168201915b505050505081526020016002820154815260200160038201805480602002602001604051908101604052809291908181526020016000905b82821015613691578382906000526020600020906009020160405180610120016040529081600082015481526020016001820180546134a1906154a0565b80601f01602080910402602001604051908101604052809291908181526020018280546134cd906154a0565b801561351a5780601f106134ef5761010080835404028352916020019161351a565b820191906000526020600020905b8154815290600101906020018083116134fd57829003601f168201915b50505050508152602001600282018054613533906154a0565b80601f016020809104026020016040519081016040528092919081815260200182805461355f906154a0565b80156135ac5780601f10613581576101008083540402835291602001916135ac565b820191906000526020600020905b81548152906001019060200180831161358f57829003601f168201915b505050918352505060038201546020820152600482015460408201526005820154606082015260068201546080820152600782015460ff16151560a082015260088201805460c090920191613600906154a0565b80601f016020809104026020016040519081016040528092919081815260200182805461362c906154a0565b80156136795780601f1061364e57610100808354040283529160200191613679565b820191906000526020600020905b81548152906001019060200180831161365c57829003601f168201915b50505050508152505081526020019060010190613463565b5050505081526020016004820154815260200160058201548152505081526020019060010190613375565b50505050815260200160038201548152505090506136d86146a0565b60005b8260400151518110156137435784836040015182815181106136ff576136ff61548a565b6020026020010151600001510361373157826040015181815181106137265761372661548a565b602002602001015191505b8061373b816154d4565b9150506136db565b50949350505050565b6001600090815260056020527f1471eb6eb2c5e789fc3de43f8ce62938c7d1836ec861730447e2ada8fd81017b5481036137c05760405162461bcd60e51b81526020600482015260156024820152744e6f20766f74657220696e20746865206c6973742160581b6044820152606401610a1e565b60015b600b5481116114b1576000818152600560205260409081902090516137eb91600601906154ed565b604051809103902083805190602001200361381e5760009081526005602081905260409091206001910181905592915050565b80613828816154d4565b9150506137c3565b6000828152600160209081526040808320600201805482518185028101850190935280835260609493849084015b82821015613ba557838290600052602060002090600602016040518060c00160405290816000820154815260200160018201805461389b906154a0565b80601f01602080910402602001604051908101604052809291908181526020018280546138c7906154a0565b80156139145780601f106138e957610100808354040283529160200191613914565b820191906000526020600020905b8154815290600101906020018083116138f757829003601f168201915b505050505081526020016002820154815260200160038201805480602002602001604051908101604052809291908181526020016000905b82821015613b7a5783829060005260206000209060090201604051806101200160405290816000820154815260200160018201805461398a906154a0565b80601f01602080910402602001604051908101604052809291908181526020018280546139b6906154a0565b8015613a035780601f106139d857610100808354040283529160200191613a03565b820191906000526020600020905b8154815290600101906020018083116139e657829003601f168201915b50505050508152602001600282018054613a1c906154a0565b80601f0160208091040260200160405190810160405280929190818152602001828054613a48906154a0565b8015613a955780601f10613a6a57610100808354040283529160200191613a95565b820191906000526020600020905b815481529060010190602001808311613a7857829003601f168201915b505050918352505060038201546020820152600482015460408201526005820154606082015260068201546080820152600782015460ff16151560a082015260088201805460c090920191613ae9906154a0565b80601f0160208091040260200160405190810160405280929190818152602001828054613b15906154a0565b8015613b625780601f10613b3757610100808354040283529160200191613b62565b820191906000526020600020905b815481529060010190602001808311613b4557829003601f168201915b5050505050815250508152602001906001019061394c565b505050508152602001600482015481526020016005820154815250508152602001906001019061385e565b50505050905060005b8151811015613c145783828281518110613bca57613bca61548a565b60200260200101516000015103613c0257818181518110613bed57613bed61548a565b60200260200101516060015192505050610ce7565b80613c0c816154d4565b915050613bae565b506040805160008082526020820190925290613743565b613c3361475a565b815260200190600190039081613c2b57905050949350505050565b6000838152600160205260408120548103613c7b5760405162461bcd60e51b8152600401610a1e90615603565b6000613c8785856115ae565b905060005b8151811015613cd65783828281518110613ca857613ca861548a565b60200260200101516000015103613cc457600192505050610dc3565b80613cce816154d4565b915050613c8c565b50600095945050505050565b60808101516000908152600160205260408120549003613d145760405162461bcd60e51b8152600401610a1e90615588565b613d2681608001518260a001516111be565b1515600114613d6e5760405162461bcd60e51b81526020600482015260146024820152734576656e7420686173206e6f742065786973747360601b6044820152606401610a1e565b613d8581608001518260a0015183606001516140f3565b1515600114613dd65760405162461bcd60e51b815260206004820152601a60248201527f43616e64696461746520646f6573206e6f7420657869737465640000000000006044820152606401610a1e565b60808101516000908152600160208190526040822060a0840151600290910191613dff9161563a565b81548110613e0f57613e0f61548a565b906000526020600020906006020160030160018360000151613e31919061563a565b81548110613e4157613e4161548a565b906000526020600020906009020190508160200151816001019080519060200190613e6d9291906146d6565b506060820151600382015560408201518051613e939160028401916020909101906146d6565b505050565b60056020526000908152604090208054600182018054919291613eba906154a0565b80601f0160208091040260200160405190810160405280929190818152602001828054613ee6906154a0565b8015613f335780601f10613f0857610100808354040283529160200191613f33565b820191906000526020600020905b815481529060010190602001808311613f1657829003601f168201915b505050505090806002018054613f48906154a0565b80601f0160208091040260200160405190810160405280929190818152602001828054613f74906154a0565b8015613fc15780601f10613f9657610100808354040283529160200191613fc1565b820191906000526020600020905b815481529060010190602001808311613fa457829003601f168201915b505050505090806003015490806004018054613fdc906154a0565b80601f0160208091040260200160405190810160405280929190818152602001828054614008906154a0565b80156140555780601f1061402a57610100808354040283529160200191614055565b820191906000526020600020905b81548152906001019060200180831161403857829003601f168201915b505050505090806005015490806006018054614070906154a0565b80601f016020809104026020016040519081016040528092919081815260200182805461409c906154a0565b80156140e95780601f106140be576101008083540402835291602001916140e9565b820191906000526020600020905b8154815290600101906020018083116140cc57829003601f168201915b5050505050905087565b60008381526001602052604081205481036141205760405162461bcd60e51b8152600401610a1e90615603565b600061412c85856115ae565b905060005b8151811015613cd6578382828151811061414d5761414d61548a565b6020026020010151606001510361416957600192505050610dc3565b80614173816154d4565b915050614131565b61418482611454565b6141c75760405162461bcd60e51b81526020600482015260146024820152735573657220646f6573206e6f742065786973747360601b6044820152606401610a1e565b6000816040516020016141da9190615651565b60408051601f198184030181529190528051602090910120905060015b600b54811161425b5760008181526005602052604090819020905161421f91600101906154ed565b60405180910390208480519060200120036142495760008181526005602052604090206003018290555b80614253816154d4565b9150506141f7565b50505050565b60015b600b5481116142f25760008181526005602052604090819020905161428c91600101906154ed565b60405180910390208680519060200120036142e05760405162461bcd60e51b8152602060048201526014602482015273566f74657220616c72656164792065786973747360601b6044820152606401610a1e565b806142ea816154d4565b915050614264565b506001600b60008282546143069190615472565b909155505060405160009061431f908590602001615651565b60408051601f198184030181529181528151602092830120600b5460008181526005855292909220918255885190935090916143629160018401918a01906146d6565b50855161437890600283019060208901906146d6565b5060038101829055835161439590600483019060208701906146d6565b506000600582015582516143b290600683019060208601906146d6565b50600b547f56729c826fe77eec184059336ced13d9ef79d10126212c90a4d2b724391e14e2886040516143e5919061505e565b60405180910390a250505050505050565b60008281526001602052604081205490036144235760405162461bcd60e51b8152600401610a1e90615588565b61442d8282611395565b156144715760405162461bcd60e51b81526020600482015260146024820152734576656e7420616c72656164792065786973747360601b6044820152606401610a1e565b6000828152600160208190526040822060098054919392918390614496908490615472565b91829055506002840180546001818101835560009283526020928390206006909202909101838155875193955093506144d592908401918701906146d6565b5060028101949094555050600160059092019190915550565b6000818152600360205260408120600601805460019290614510908490615472565b909155505050565b6000838152600160205260408120600201905b815481101561462157838282815481106145475761454761548a565b9060005260206000209060060201600001540361460f5760008282815481106145725761457261548a565b9060005260206000209060060201600301905060005b815481101561460c57848282815481106145a4576145a461548a565b906000526020600020906009020160000154036145fa5760018282815481106145cf576145cf61548a565b906000526020600020906009020160060160008282546145ef9190615472565b9091555061460c9050565b80614604816154d4565b915050614588565b50505b80614619816154d4565b91505061452b565b5050505050565b6000805b6020811015614696578281602081106146475761464761548a565b1a60f81b6001600160f81b0319168482602081106146675761466761548a565b1a60f81b6001600160f81b03191614614684576000915050610ce7565b8061468e816154d4565b91505061462c565b5060019392505050565b6040518060c001604052806000815260200160608152602001600081526020016060815260200160008152602001600081525090565b8280546146e2906154a0565b90600052602060002090601f016020900481019282614704576000855561474a565b82601f1061471d57805160ff191683800117855561474a565b8280016001018555821561474a579182015b8281111561474a57825182559160200191906001019061472f565b506147569291506147a8565b5090565b60405180610120016040528060008152602001606081526020016060815260200160008152602001600081526020016000815260200160008152602001600015158152602001606081525090565b5b8082111561475657600081556001016147a9565b60005b838110156147d85781810151838201526020016147c0565b8381111561425b5750506000910152565b600081518084526148018160208601602086016147bd565b601f01601f19169290920160200192915050565b6000610120825184526020830151816020860152614835828601826147e9565b9150506040830151848203604086015261484f82826147e9565b915050606083015160608501526080830151608085015260a083015160a085015260c083015160c085015260e083015161488d60e086018215159052565b5061010080840151858303828701526148a683826147e9565b9695505050505050565b80518252600060208083015160c0828601526148cf60c08601826147e9565b905060408401516040860152606084015185820360608701528181518084528484019150848160051b850101858401935060005b8281101561493157601f1986830301845261491f828651614815565b94870194938701939150600101614903565b50608088015160808a015260a088015160a08a015280965050505050505092915050565b6000602080830181845280855180835260408601915060408160051b870101925083870160005b828110156149aa57603f198886030184526149988583516148b0565b9450928501929085019060010161497c565b5092979650505050505050565b634e487b7160e01b600052604160045260246000fd5b60405161012081016001600160401b03811182821017156149f0576149f06149b7565b60405290565b60405160c081016001600160401b03811182821017156149f0576149f06149b7565b604051608081016001600160401b03811182821017156149f0576149f06149b7565b604051601f8201601f191681016001600160401b0381118282101715614a6257614a626149b7565b604052919050565b600082601f830112614a7b57600080fd5b81356001600160401b03811115614a9457614a946149b7565b614aa7601f8201601f1916602001614a3a565b818152846020838601011115614abc57600080fd5b816020850160208301376000918101602001919091529392505050565b600060208284031215614aeb57600080fd5b81356001600160401b03811115614b0157600080fd5b614b0d84828501614a6a565b949350505050565b6000602080830181845280855180835260408601915060408160051b870101925083870160005b828110156149aa57603f19888603018452614b58858351614815565b94509285019290850190600101614b3c565b60006001600160401b03821115614b8357614b836149b7565b5060051b60200190565b80358015158114614b9d57600080fd5b919050565b60006101208284031215614bb557600080fd5b614bbd6149cd565b90508135815260208201356001600160401b0380821115614bdd57600080fd5b614be985838601614a6a565b60208401526040840135915080821115614c0257600080fd5b614c0e85838601614a6a565b6040840152606084013560608401526080840135608084015260a084013560a084015260c084013560c0840152614c4760e08501614b8d565b60e084015261010091508184013581811115614c6257600080fd5b614c6e86828701614a6a565b8385015250505092915050565b600082601f830112614c8c57600080fd5b81356020614ca1614c9c83614b6a565b614a3a565b82815260059290921b84018101918181019086841115614cc057600080fd5b8286015b84811015614cff5780356001600160401b03811115614ce35760008081fd5b614cf18986838b0101614ba2565b845250918301918301614cc4565b509695505050505050565b600060c08284031215614d1c57600080fd5b614d246149f6565b90508135815260208201356001600160401b0380821115614d4457600080fd5b614d5085838601614a6a565b6020840152604084013560408401526060840135915080821115614d7357600080fd5b50614d8084828501614c7b565b6060830152506080820135608082015260a082013560a082015292915050565b60006020808385031215614db357600080fd5b82356001600160401b0380821115614dca57600080fd5b9084019060808287031215614dde57600080fd5b614de6614a18565b823581528383013582811115614dfb57600080fd5b614e0788828601614a6a565b8583015250604083013582811115614e1e57600080fd5b8301601f81018813614e2f57600080fd5b8035614e3d614c9c82614b6a565b81815260059190911b8201860190868101908a831115614e5c57600080fd5b8784015b83811015614e9457803587811115614e785760008081fd5b614e868d8b83890101614d0a565b845250918801918801614e60565b5060408501525050506060928301359281019290925250949350505050565b60008060408385031215614ec657600080fd5b82356001600160401b0380821115614edd57600080fd5b614ee986838701614a6a565b93506020850135915080821115614eff57600080fd5b50614f0c85828601614a6a565b9150509250929050565b60208152815160208201526000602083015160e06040840152614f3d6101008401826147e9565b90506040840151601f1980858403016060860152614f5b83836147e9565b92506060860151608086015260808601519150808584030160a0860152614f8283836147e9565b925060a086015160c086015260c08601519150808584030160e086015250614faa82826147e9565b95945050505050565b600060208284031215614fc557600080fd5b5035919050565b60008060408385031215614fdf57600080fd5b50508035926020909101359150565b60006020828403121561500057600080fd5b81356001600160401b0381111561501657600080fd5b614b0d84828501614d0a565b6000806040838503121561503557600080fd5b8235915060208301356001600160401b0381111561505257600080fd5b614f0c85828601614a6a565b602081526000610dc360208301846147e9565b80518252600060208083015160808286015261509060808601826147e9565b9050604084015185820360408701528181518084528484019150848160051b850101858401935060005b828110156150e857601f198683030184526150d68286516148b0565b948701949387019391506001016150ba565b50606088015160608a015280965050505050505092915050565b602081526000610dc36020830184615071565b85815260a06020820152600061512e60a08301876147e9565b6040830195909552506060810192909252151560809091015292915050565b602081526000610dc36020830184614815565b60008060008060008060c0878903121561517957600080fd5b863595506020870135945060408701356001600160401b038082111561519e57600080fd5b6151aa8a838b01614a6a565b955060608901359150808211156151c057600080fd5b6151cc8a838b01614a6a565b94506080890135935060a08901359150808211156151e957600080fd5b506151f689828a01614a6a565b9150509295509295509295565b6000806000806080858703121561521957600080fd5b84356001600160401b0381111561522f57600080fd5b61523b87828801614a6a565b97602087013597506040870135966060013595509350505050565b6000602080830181845280855180835260408601915060408160051b870101925083870160005b828110156149aa57603f19888603018452615299858351615071565b9450928501929085019060010161527d565b602081526000610dc360208301846148b0565b6000806000606084860312156152d357600080fd5b505081359360208301359350604090920135919050565b6000602082840312156152fc57600080fd5b81356001600160401b0381111561531257600080fd5b614b0d84828501614ba2565b87815260e06020820152600061533760e08301896147e9565b828103604084015261534981896147e9565b9050866060840152828103608084015261536381876147e9565b90508460a084015282810360c084015261537d81856147e9565b9a9950505050505050505050565b600080600080600060a086880312156153a357600080fd5b85356001600160401b03808211156153ba57600080fd5b6153c689838a01614a6a565b965060208801359150808211156153dc57600080fd5b6153e889838a01614a6a565b955060408801359150808211156153fe57600080fd5b61540a89838a01614a6a565b9450606088013591508082111561542057600080fd5b61542c89838a01614a6a565b9350608088013591508082111561544257600080fd5b5061544f88828901614a6a565b9150509295509295909350565b634e487b7160e01b600052601160045260246000fd5b600082198211156154855761548561545c565b500190565b634e487b7160e01b600052603260045260246000fd5b600181811c908216806154b457607f821691505b60208210810361328e57634e487b7160e01b600052602260045260246000fd5b6000600182016154e6576154e661545c565b5060010190565b600080835481600182811c91508083168061550957607f831692505b6020808410820361552857634e487b7160e01b86526022600452602486fd5b81801561553c576001811461554d5761557a565b60ff1986168952848901965061557a565b60008a81526020902060005b868110156155725781548b820152908501908301615559565b505084890196505b509498975050505050505050565b60208082526017908201527f43617465676f727920686173206e6f7420657869737473000000000000000000604082015260600190565b60208082526024908201527f596f757220656d61696c206f722070617373776f726420697320696e636f72726040820152636563742160e01b606082015260800190565b60208082526017908201527f43617465676f727920646f6573206e6f74206578697374000000000000000000604082015260600190565b60008282101561564c5761564c61545c565b500390565b600082516156638184602087016147bd565b919091019291505056fea2646970667358221220b624d59d1f0c68c99ad991506ef1d0f74c75b454a16a94de8d5e13e0a89fe68164736f6c634300080d0033",
  "immutableReferences": {},
  "source": "// SPDX-License-Identifier: MIT\r\npragma solidity >=0.4.22 <0.9.0;\r\n\r\ncontract VotingSystem {\r\n    address public owner;\r\n    struct Voter {\r\n        uint256 id;\r\n        string key;\r\n        string email;\r\n        bytes32 password;\r\n        string role;\r\n        uint256 status; // 0: no verify, 1: verified, 2:banned\r\n        string token;\r\n    }\r\n\r\n    struct Event {\r\n        uint256 eventId;\r\n        string eventName;\r\n        uint256 categoryId;\r\n        Candidate[] candidates;\r\n        uint256 candidateCount;\r\n        uint256 status; // 1: Upcoming, 2: In Progress, 3: Completed, 4 Cancel\r\n    }\r\n\r\n    struct Category {\r\n        uint256 categoryId;\r\n        string categoryName;\r\n        Event[] events; //category has many event\r\n        uint256 status;\r\n    }\r\n\r\nstruct Candidate {\r\n        uint256 id;\r\n        string name;\r\n        string description;\r\n        uint256 studentId;\r\n        uint256 categoryId;\r\n        uint256 eventId;\r\n        uint256 voteCount;\r\n        bool win;\r\n        string imageFileName;\r\n    }\r\n\r\n    struct voteEventStruct {\r\n        uint256 id;\r\n        string voterKey;\r\n        uint256 categoryId;\r\n        uint256 eventId;\r\n        bool voted;\r\n    }\r\n\r\n    event CategoryAdded(uint256 indexed categoryId, string categoryName);\r\n\r\n    event VoterAdded(uint256 indexed voterId, string voter_key);\r\n    event EventAdded(uint256 indexed eventId, string eventName);\r\n\r\n    event CandidateAdded(uint256 indexed eventId, string eventName);\r\n\r\n    event VoteEvent(\r\n        string indexed _voterKey,\r\n        string indexed categoryEvent,\r\n        uint256 indexed candidate\r\n    );\r\n\r\n    mapping(uint256 => Category) categories;\r\n    mapping(uint256 => Event) events;\r\n    mapping(uint256 => Candidate) candidates;\r\n    mapping(uint256 => voteEventStruct) public voteEvents;\r\n    mapping(uint256 => Voter) public voters;\r\n    mapping(string => bool) private usedImageFileNames;\r\n\r\n    uint256 categoryCount;\r\n    uint256 candidateCount;\r\n    uint256 eventCount;\r\n    uint256 voteEventCount;\r\n    uint256 voterCount;\r\n\r\n    constructor() {\r\n        owner = msg.sender;\r\n    }\r\n\r\n    function addVoter(\r\n        string memory _key,\r\n        string memory _email,\r\n        string memory _password,\r\n        string memory _role,\r\n        string memory _token\r\n    ) public {\r\n        for (uint256 i = 1; i <= voterCount; i++) {\r\n            require(\r\n                keccak256(bytes(_key)) != keccak256(bytes(voters[i].key)),\r\n                \"Voter already exists\"\r\n            );\r\n        }\r\n\r\n        // total category plus 1, use it as the category's id\r\n        voterCount += 1;\r\n\r\n        bytes32 hashedPassword = keccak256(abi.encodePacked(_password));\r\n\r\n        // add the category details in the category list\r\n        Voter storage voter = voters[voterCount];\r\n        voter.id = voterCount;\r\n        voter.key = _key;\r\n        voter.email = _email;\r\n        voter.password = hashedPassword;\r\n        voter.role = _role;\r\n        voter.status = 0;\r\n        voter.token = _token;\r\n\r\n        // emit the category added event\r\n        emit VoterAdded(voterCount, _key);\r\n    }\r\n\r\n    function loginVoter(string memory _email, string memory _password)\r\n        public\r\n        view\r\n        returns (Voter memory)\r\n    {\r\n        Voter memory voterFound = getVoterByEmailPassword(_email, _password);\r\n        require(voterFound.id != 0, \"Your email or password is incorrect!\");\r\n        require(\r\n            voterFound.status == 1,\r\n            \"Your account was banned or not verify!\"\r\n        );\r\n        return voterFound;\r\n    }\r\n\r\n    function compareHashesPassword(bytes32 inputPassword, bytes32 password)\r\n        internal\r\n        pure\r\n        returns (bool)\r\n    {\r\n        for (uint256 i = 0; i < 32; i++) {\r\n            if (inputPassword[i] != password[i]) {\r\n                return false;\r\n            }\r\n        }\r\n        return true;\r\n    }\r\n\r\n    function getVoterByEmailPassword(\r\n        string memory _email,\r\n        string memory _password\r\n    ) public view returns (Voter memory) {\r\n        bytes32 hashedPassword = keccak256(abi.encodePacked(_password));\r\n        for (uint256 i = 1; i <= voterCount; i++) {\r\n            if (\r\n                keccak256(bytes(_email)) == keccak256(bytes(voters[i].email)) &&\r\n                compareHashesPassword(hashedPassword, voters[i].password)\r\n            ) {\r\n                return voters[i];\r\n            }\r\n        }\r\n\r\n        // Event not found in the specified category\r\n        return Voter(0, \"\", \"\", \"\", \"\", 0, \"\");\r\n    }\r\n\r\n    function getVoterEmailById(uint256 _voterId) public view returns (string memory) {\r\n    require(_voterId > 0 && _voterId <= voterCount, \"Invalid voter ID\");\r\n    return voters[_voterId].email;\r\n    }\r\n\r\n\r\n    function updateVoterPassword(string memory _key, string memory _password)\r\n        public\r\n    {\r\n        require(isVoterExist(_key), \"User does not exists\");\r\n\r\n        bytes32 hashedPassword = keccak256(abi.encodePacked(_password));\r\n        for (uint256 i = 1; i <= voterCount; i++) {\r\n            if (keccak256(bytes(_key)) == keccak256(bytes(voters[i].key))) {\r\n                voters[i].password = hashedPassword;\r\n            }\r\n        }\r\n    }\r\n\r\n    function verifyVoterAccount(string memory _token) public returns (bool) {\r\n        require(voters[1].id != 0, \"No voter in the list!\");\r\n        for (uint256 i = 1; i <= voterCount; i++) {\r\n            if (keccak256(bytes(_token)) == keccak256(bytes(voters[i].token))) {\r\n                voters[i].status = 1;\r\n                return true;\r\n            }\r\n        }\r\n        return false;\r\n    }\r\n\r\n    function getVoterStatus(string memory _email, string memory _password)\r\n        public\r\n        view\r\n        returns (uint256 status)\r\n    {\r\n        Voter memory voterFound = getVoterByEmailPassword(_email, _password);\r\n        require(voterFound.id != 0, \"Your email or password is incorrect!\");\r\n        return voterFound.status;\r\n    }\r\n\r\n    function checkVoterEmailPassword(\r\n        string memory _email,\r\n        string memory _password\r\n    ) public view returns (bool foundVoter) {\r\n        Voter memory voterFound = getVoterByEmailPassword(_email, _password);\r\n\r\n        if (voterFound.id != 0) {\r\n            return true;\r\n        }\r\n        return false;\r\n    }\r\n\r\n    function isVoterExist(string memory _key) public view returns (bool) {\r\n        for (uint256 i = 1; i <= voterCount; i++) {\r\n            if (keccak256(bytes(_key)) == keccak256(bytes(voters[i].key))) {\r\n                return true;\r\n            }\r\n        }\r\n        return false;\r\n    }\r\n\r\n    function addCategory(string memory _categoryName) public {\r\n        // check if the category is exist\r\n        for (uint256 i = 1; i <= categoryCount; i++) {\r\n            require(\r\n                keccak256(bytes(_categoryName)) !=\r\n                    keccak256(bytes(categories[i].categoryName)),\r\n                \"Category already exists\"\r\n            );\r\n        }\r\n\r\n        // total category plus 1, use it as the category's id\r\n        categoryCount += 1;\r\n\r\n        // add the category details in the category list\r\n        Category storage category = categories[categoryCount];\r\n        category.categoryName = _categoryName;\r\n        category.categoryId = categoryCount;\r\n        category.status = 1;\r\n\r\n        // emit the category added event\r\n        emit CategoryAdded(categoryCount, _categoryName);\r\n    }\r\n\r\n    function updateCategory(Category memory _category) public {\r\n        // check if the category is exist\r\n        require(\r\n            categories[_category.categoryId].categoryId != 0,\r\n            \"Category has not exists\"\r\n        );\r\n\r\n        // add the category details in the category list\r\n        Category storage category = categories[_category.categoryId];\r\n        category.categoryName = _category.categoryName;\r\n        category.status = _category.status;\r\n    }\r\n\r\n    function addEvent(uint256 _categoryId, string memory _eventName) public {\r\n        // check if the category has exists\r\n        require(\r\n            categories[_categoryId].categoryId != 0,\r\n            \"Category has not exists\"\r\n        );\r\n\r\n        require(\r\n            isEventExists(_categoryId, _eventName) == false,\r\n            \"Event already exists\"\r\n        );\r\n\r\n        // find out the category in list by using the paramerter category name\r\n        Category storage category = categories[_categoryId];\r\n\r\n        // add the event in the category list\r\n        uint256 eventId = eventCount += 1;\r\n\r\n        Event storage newEvent = category.events.push();\r\n        newEvent.eventId = eventId;\r\n        newEvent.eventName = _eventName;\r\n        newEvent.categoryId = _categoryId;\r\n        newEvent.status = 1;\r\n    }\r\n\r\n    function isEventExists(uint256 _categoryId, string memory _eventName)\r\n        public\r\n        view\r\n        returns (bool)\r\n    {\r\n        // Check if the category exists\r\n        require(\r\n            categories[_categoryId].categoryId != 0,\r\n            \"Category does not exist\"\r\n        );\r\n\r\n        // Loop through the events in the specified category\r\n        for (uint256 i = 0; i < categories[_categoryId].events.length; i++) {\r\n            if (\r\n                keccak256(bytes(categories[_categoryId].events[i].eventName)) ==\r\n                keccak256(bytes(_eventName))\r\n            ) {\r\n                // Event found\r\n                return true;\r\n            }\r\n        }\r\n\r\n        // Event not found in the specified category\r\n        return false;\r\n    }\r\n\r\n    function updateEvent(Event memory _event) public {\r\n        // check if the category is exist\r\n        require(\r\n            categories[_event.categoryId].categoryId != 0,\r\n            \"Category does not exists\"\r\n        );\r\n        require(\r\n            isEventExists(_event.categoryId, _event.eventId),\r\n            \"Event does not exist!\"\r\n        );\r\n        // add the category details in the category list\r\n        Event storage eventToUpdate = categories[_event.categoryId].events[\r\n            _event.eventId - 1\r\n        ];\r\n\r\n        eventToUpdate.eventName = _event.eventName;\r\n        eventToUpdate.status = _event.status;\r\n    }\r\n\r\n     function addCandidateToEvent(\r\n        uint256 _categoryId,\r\n        uint256 _eventId,\r\n        string memory _candidateName,\r\n        string memory _description,\r\n        uint256 _studentId,\r\n        string memory _imageFileName\r\n    ) public {\r\n        require(\r\n            categories[_categoryId].categoryId != 0,\r\n            \"Category does not exist\"\r\n        );\r\n        require(\r\n            isEventExists(_categoryId, _eventId),\r\n            \"Event does not exist\"\r\n        );\r\n        require(\r\n            !isCandidateExistsInEvent(_categoryId, _eventId, _studentId),\r\n            \"Candidate already exists\"\r\n        );\r\n        // Check if the image file name is already used\r\n        require(\r\n            !usedImageFileNames[_imageFileName],\r\n            \"Image file name already in use\"\r\n        );\r\n\r\n        candidateCount += 1;\r\n\r\n        // Create a new candidate\r\n        Candidate memory newCandidate = Candidate({\r\n            id: candidateCount,\r\n            name: _candidateName,\r\n            studentId: _studentId,\r\n            categoryId: _categoryId,\r\n            eventId: _eventId,\r\n            description: _description,\r\n            win: false,\r\n            voteCount: 0,\r\n            imageFileName: _imageFileName\r\n        });\r\n\r\n        // find the certain category\r\n        Category storage category = categories[_categoryId];\r\n        // find the certain event in certain category\r\n        for (uint256 i = 0; i < category.events.length; i++) {\r\n            if (category.events[i].eventId == _eventId) {\r\n                category.events[i].candidates.push(newCandidate);\r\n                category.events[i].candidateCount += 1;\r\n            }\r\n        }\r\n\r\n        // Mark the image file name as used\r\n        usedImageFileNames[_imageFileName] = true;\r\n    }\r\n\r\n    function updateCandidate(Candidate memory _candidate) public {\r\n        require(\r\n            categories[_candidate.categoryId].categoryId != 0,\r\n            \"Category has not exists\"\r\n        );\r\n\r\n        require(\r\n            isEventExists(_candidate.categoryId, _candidate.eventId) == true,\r\n            \"Event has not exists\"\r\n        );\r\n\r\n        require(\r\n            isCandidateExistsInEvent(\r\n                _candidate.categoryId,\r\n                _candidate.eventId,\r\n                _candidate.studentId\r\n            ) == true,\r\n            \"Candidate does not existed\"\r\n        );\r\n\r\n        Candidate storage candidateToUpdate = categories[_candidate.categoryId]\r\n            .events[_candidate.eventId - 1]\r\n            .candidates[_candidate.id - 1];\r\n\r\n        candidateToUpdate.name = _candidate.name;\r\n        candidateToUpdate.studentId = _candidate.studentId;\r\n        candidateToUpdate.description = _candidate.description;\r\n    }\r\n\r\n    function isImageFileNameUsed(string memory _imageFileName) public view returns (bool) {\r\n        return usedImageFileNames[_imageFileName];\r\n    }\r\n\r\n    function isCandidateExistsInEvent(\r\n        uint256 _categoryId,\r\n        uint256 _eventId,\r\n        uint256 _studentId\r\n    ) public view returns (bool) {\r\n        // Check if the category exists\r\n        require(\r\n            categories[_categoryId].categoryId != 0,\r\n            \"Category does not exist\"\r\n        );\r\n\r\n        Candidate[] memory candidatesFound = getAllCandidatesInEvent(\r\n            _categoryId,\r\n            _eventId\r\n        );\r\n\r\n        // Loop through the events in the specified category\r\n\r\n        for (uint256 i = 0; i < candidatesFound.length; i++) {\r\n            if (candidatesFound[i].studentId == _studentId) {\r\n                return true;\r\n            }\r\n        }\r\n\r\n        // Event not found in the specified category\r\n        return false;\r\n    }\r\n\r\n    function isCandidateExistsInEventById(\r\n        uint256 _categoryId,\r\n        uint256 _eventId,\r\n        uint256 _candidateId\r\n    ) public view returns (bool) {\r\n        // Check if the category exists\r\n        require(\r\n            categories[_categoryId].categoryId != 0,\r\n            \"Category does not exist\"\r\n        );\r\n\r\n        Candidate[] memory candidatesFound = getAllCandidatesInEvent(\r\n            _categoryId,\r\n            _eventId\r\n        );\r\n\r\n        // Loop through the events in the specified category\r\n\r\n        for (uint256 i = 0; i < candidatesFound.length; i++) {\r\n            if (candidatesFound[i].id == _candidateId) {\r\n                return true;\r\n            }\r\n        }\r\n\r\n        // Event not found in the specified category\r\n        return false;\r\n    }\r\n\r\n    function isEventExists(uint256 _categoryId, uint256 _eventId)\r\n        public\r\n        view\r\n        returns (bool)\r\n    {\r\n        // Check if the category exists\r\n        require(\r\n            categories[_categoryId].categoryId != 0,\r\n            \"Category does not exist\"\r\n        );\r\n\r\n        // Loop through the events in the specified category\r\n        for (uint256 i = 0; i < categories[_categoryId].events.length; i++) {\r\n            if (categories[_categoryId].events[i].eventId == _eventId) {\r\n                // Event found\r\n                return true;\r\n            }\r\n        }\r\n\r\n        // Event not found in the specified category\r\n        return false;\r\n    }\r\n\r\n    function getAllCategoryEvent(uint256 _categoryId)\r\n        public\r\n        view\r\n        returns (Event[] memory foundEvent)\r\n    {\r\n        // find the certain category\r\n        Category storage category = categories[_categoryId];\r\n\r\n        // declare an array variable for storing events\r\n        Event[] memory eventsFound = new Event[](category.events.length);\r\n\r\n        // get all the event name by searching the event in list\r\n        for (uint256 i = 0; i < category.events.length; i++) {\r\n            eventsFound[i] = category.events[i];\r\n        }\r\n\r\n        return (eventsFound);\r\n    }\r\n\r\n    function getAllCandidatesInEvent(uint256 _categoryId, uint256 _eventId)\r\n        public\r\n        view\r\n        returns (Candidate[] memory foundCandidates)\r\n    {\r\n        // find the certain category\r\n        Category storage category = categories[_categoryId];\r\n        // find the certain event in certain category\r\n        for (uint256 i = 0; i < category.events.length; i++) {\r\n            if (category.events[i].eventId == _eventId) {\r\n                Candidate[] memory candidatesFound = new Candidate[](\r\n                    category.events[i].candidateCount\r\n                );\r\n\r\n                for (\r\n                    uint256 j = 0;\r\n                    j < category.events[i].candidates.length;\r\n                    j++\r\n                ) {\r\n                    candidatesFound[j] = category.events[i].candidates[j];\r\n                }\r\n                return (candidatesFound);\r\n            }\r\n        }\r\n    }\r\n\r\n    function getAllCandidates() public view returns (Candidate[] memory) {\r\n        Candidate[] memory candidatesFound = new Candidate[](candidateCount);\r\n        Event[] memory eventFound = new Event[](eventCount);\r\n\r\n        // get all the events\r\n        eventFound = getAllEvent();\r\n        uint256 count = 0;\r\n        // find the candidates inside all the event\r\n        for (uint256 i = 0; i < eventCount; i++) {\r\n            for (uint256 j = 0; j < eventFound[i].candidates.length; j++) {\r\n                candidatesFound[count] = eventFound[i].candidates[j];\r\n                count += 1;\r\n            }\r\n        }\r\n\r\n        return candidatesFound;\r\n    }\r\n\r\n    function getAllCategory() public view returns (Category[] memory) {\r\n        //Candidate[] memory candidatesFound = new Candidate[](candidateCount);\r\n        Category[] memory categoriesFound = new Category[](categoryCount);\r\n        // Iterate through all stored structs\r\n        for (uint256 i = 1; i <= categoryCount; i++) {\r\n            categoriesFound[i - 1] = categories[i];\r\n        }\r\n\r\n        return categoriesFound;\r\n    }\r\n\r\n    function getCategoryById(uint256 _categoryId)\r\n        public\r\n        view\r\n        returns (Category memory)\r\n    {\r\n        return categories[_categoryId];\r\n    }\r\n\r\n    function getAllEvent() public view returns (Event[] memory) {\r\n        // Initialize the array with the correct size\r\n        Event[] memory eventFound = new Event[](eventCount);\r\n        uint256 count = 0;\r\n\r\n        // Iterate through all categories and events\r\n        for (uint256 i = 0; i < categoryCount; i++) {\r\n            for (uint256 j = 0; j < categories[i + 1].events.length; j++) {\r\n                eventFound[count] = categories[i + 1].events[j];\r\n                count += 1;\r\n            }\r\n        }\r\n\r\n        return eventFound;\r\n    }\r\n\r\n    function getEventById(uint256 _categoryId, uint256 _eventId)\r\n        public\r\n        view\r\n        returns (Event memory)\r\n    {\r\n        Category memory categoriesFound = categories[_categoryId];\r\n        Event memory eventFound;\r\n        // Iterate through all stored structs\r\n        for (uint256 i = 0; i < categoriesFound.events.length; i++) {\r\n            if (categoriesFound.events[i].eventId == _eventId) {\r\n                eventFound = categoriesFound.events[i];\r\n            }\r\n        }\r\n\r\n        return eventFound;\r\n    }\r\n\r\n    function vote(\r\n        string memory _voterKey,\r\n        uint256 _candidateId,\r\n        uint256 _categoryId,\r\n        uint256 _eventId\r\n    ) external {\r\n        require(\r\n            categories[_categoryId].categoryId != 0,\r\n            \"Category does not exists\"\r\n        );\r\n\r\n        require(eventCount != 0, \"Event does not exists\");\r\n\r\n        // for (uint256 i = 1; i <= categories[_categoryId].events.length; i++) {\r\n        //     require(categories[_categoryId].events[i-0].eventId == _eventId, \"noobbbbb\");\r\n        // }\r\n\r\n        require(\r\n            isCandidateExistsInEventById(_categoryId, _eventId, _candidateId) ==\r\n                true,\r\n            \"Candidates does not exists\"\r\n        );\r\n\r\n        // check if has voted\r\n        for (uint256 i = 1; i <= voteEventCount; i++) {\r\n            if (\r\n                 keccak256(bytes(_voterKey)) ==  keccak256(bytes(voteEvents[i].voterKey)) &&\r\n                _categoryId == voteEvents[i].categoryId &&\r\n                _eventId == voteEvents[i].eventId\r\n            ) {\r\n                require(!voteEvents[i].voted, \"You already voted\");\r\n                break;\r\n            }\r\n        }\r\n\r\n        // add count on the candidate\r\n        voteEventCount += 1;\r\n\r\n        // Create a new voteEventStruct\r\n        voteEventStruct memory newVoteEvent = voteEventStruct({\r\n            id: voteEventCount,\r\n            voterKey: _voterKey,\r\n            categoryId: _categoryId,\r\n            eventId: _eventId,\r\n            voted: true\r\n        });\r\n\r\n        voteEvents[voteEventCount] = newVoteEvent;\r\n\r\n        // add the vote count of the chosen candidate\r\n        addVoteCount(_candidateId);\r\n        addVoteCountIn(_categoryId, _eventId, _candidateId);\r\n\r\n        string memory concatenatedValues = string(\r\n            abi.encodePacked(_categoryId, _eventId)\r\n        );\r\n\r\n        emit VoteEvent(_voterKey, concatenatedValues, _candidateId);\r\n    }\r\n\r\n    function addVoteCount(uint256 _candidateId) internal {\r\n        candidates[_candidateId].voteCount += 1;\r\n    }\r\n\r\n    function addVoteCountIn(\r\n        uint256 _categoryId,\r\n        uint256 _eventId,\r\n        uint256 _candidateId\r\n    ) internal {\r\n        // get the events inside the categories\r\n        Event[] storage eventsFound = categories[_categoryId].events;\r\n\r\n        // find the event with param\r\n        for (uint256 i = 0; i < eventsFound.length; i++) {\r\n            if (eventsFound[i].eventId == _eventId) {\r\n                // get the candidate inside the event\r\n                Candidate[] storage candidatesFound = eventsFound[i].candidates;\r\n                // find the candidate\r\n                for (uint256 j = 0; j < candidatesFound.length; j++) {\r\n                    if (candidatesFound[j].id == _candidateId) {\r\n                        // found the candidate and plus 1 at the voteCount\r\n                        candidatesFound[j].voteCount += 1;\r\n                        break;\r\n                    }\r\n                }\r\n            }\r\n        }\r\n    }\r\n\r\n    function getCandidateVoteCount(uint256 _candidateId)\r\n        public\r\n        view\r\n        returns (uint256 count)\r\n    {\r\n        return candidates[_candidateId].voteCount;\r\n    }\r\n\r\n    function getVoteEventCandidate(uint256 _categoryId, uint256 _eventId)\r\n        public\r\n        view\r\n        returns (Candidate[] memory)\r\n    {\r\n        Event[] memory eventsFound = categories[_categoryId].events;\r\n\r\n        for (uint256 i = 0; i < eventsFound.length; i++) {\r\n            if (eventsFound[i].eventId == _eventId) {\r\n                return eventsFound[i].candidates;\r\n            }\r\n        }\r\n\r\n        // If the event is not found, return an empty array or handle the situation accordingly\r\n        return new Candidate[](0);\r\n    }\r\n\r\n    function whoIsTheWinner(uint256 _categoryId, uint256 _eventId)\r\n        public\r\n        view\r\n        returns (Candidate memory)\r\n    {\r\n        Event[] memory eventsFound = categories[_categoryId].events;\r\n        Candidate[] memory candidatesFound;\r\n\r\n        for (uint256 i = 0; i < eventsFound.length; i++) {\r\n            if (eventsFound[i].eventId == _eventId) {\r\n                candidatesFound = eventsFound[i].candidates;\r\n            }\r\n        }\r\n\r\n        Candidate memory winner = candidatesFound[0];\r\n\r\n        for (uint256 i = 0; i < candidatesFound.length - 1; i++) {\r\n            if (winner.voteCount < candidatesFound[i + 1].voteCount) {\r\n                winner = candidatesFound[i + 1];\r\n            }\r\n        }\r\n\r\n        winner.win = true;\r\n\r\n        // If the event is not found, return an empty array or handle the situation accordingly\r\n        return winner;\r\n    }\r\n}\r\n",
  "sourcePath": "C:\\Users\\User\\FYP1\\contracts\\VotingSystem.sol",
  "compiler": {
    "name": "solc",
    "version": "0.8.13+commit.abaa5c0e.Emscripten.clang"
  },
  "schemaVersion": "3.4.16",
  "updatedAt": "2023-12-09T04:45:29.260Z",
  "networkType": "ethereum",
  "devdoc": {
    "kind": "dev",
    "methods": {},
    "version": 1
  },
  "userdoc": {
    "kind": "user",
    "methods": {},
    "version": 1
  }
}