{
  "contractName": "VotingSystem",
  "abi": [
    {
      "inputs": [],
      "stateMutability": "nonpayable",
      "type": "constructor"
    },
    {
      "anonymous": false,
      "inputs": [
        {
          "indexed": true,
          "internalType": "uint256",
          "name": "eventId",
          "type": "uint256"
        },
        {
          "indexed": false,
          "internalType": "string",
          "name": "eventName",
          "type": "string"
        }
      ],
      "name": "CandidateAdded",
      "type": "event"
    },
    {
      "anonymous": false,
      "inputs": [
        {
          "indexed": true,
          "internalType": "uint256",
          "name": "categoryId",
          "type": "uint256"
        },
        {
          "indexed": false,
          "internalType": "string",
          "name": "categoryName",
          "type": "string"
        }
      ],
      "name": "CategoryAdded",
      "type": "event"
    },
    {
      "anonymous": false,
      "inputs": [
        {
          "indexed": true,
          "internalType": "uint256",
          "name": "eventId",
          "type": "uint256"
        },
        {
          "indexed": false,
          "internalType": "string",
          "name": "eventName",
          "type": "string"
        }
      ],
      "name": "EventAdded",
      "type": "event"
    },
    {
      "anonymous": false,
      "inputs": [
        {
          "indexed": true,
          "internalType": "uint256",
          "name": "voterId",
          "type": "uint256"
        },
        {
          "indexed": true,
          "internalType": "string",
          "name": "categoryEvent",
          "type": "string"
        },
        {
          "indexed": true,
          "internalType": "uint256",
          "name": "candidate",
          "type": "uint256"
        }
      ],
      "name": "VoteEvent",
      "type": "event"
    },
    {
      "anonymous": false,
      "inputs": [
        {
          "indexed": true,
          "internalType": "uint256",
          "name": "voterId",
          "type": "uint256"
        },
        {
          "indexed": false,
          "internalType": "string",
          "name": "voter_key",
          "type": "string"
        }
      ],
      "name": "VoterAdded",
      "type": "event"
    },
    {
      "inputs": [],
      "name": "owner",
      "outputs": [
        {
          "internalType": "address",
          "name": "",
          "type": "address"
        }
      ],
      "stateMutability": "view",
      "type": "function",
      "constant": true
    },
    {
      "inputs": [
        {
          "internalType": "uint256",
          "name": "",
          "type": "uint256"
        }
      ],
      "name": "voteEvents",
      "outputs": [
        {
          "internalType": "uint256",
          "name": "id",
          "type": "uint256"
        },
        {
          "internalType": "uint256",
          "name": "voterId",
          "type": "uint256"
        },
        {
          "internalType": "uint256",
          "name": "categoryId",
          "type": "uint256"
        },
        {
          "internalType": "uint256",
          "name": "eventId",
          "type": "uint256"
        },
        {
          "internalType": "bool",
          "name": "voted",
          "type": "bool"
        }
      ],
      "stateMutability": "view",
      "type": "function",
      "constant": true
    },
    {
      "inputs": [
        {
          "internalType": "uint256",
          "name": "",
          "type": "uint256"
        }
      ],
      "name": "voters",
      "outputs": [
        {
          "internalType": "uint256",
          "name": "id",
          "type": "uint256"
        },
        {
          "internalType": "string",
          "name": "key",
          "type": "string"
        },
        {
          "internalType": "string",
          "name": "email",
          "type": "string"
        },
        {
          "internalType": "string",
          "name": "password",
          "type": "string"
        },
        {
          "internalType": "string",
          "name": "role",
          "type": "string"
        }
      ],
      "stateMutability": "view",
      "type": "function",
      "constant": true
    },
    {
      "inputs": [
        {
          "internalType": "string",
          "name": "_key",
          "type": "string"
        },
        {
          "internalType": "string",
          "name": "_email",
          "type": "string"
        },
        {
          "internalType": "string",
          "name": "_password",
          "type": "string"
        },
        {
          "internalType": "string",
          "name": "_role",
          "type": "string"
        }
      ],
      "name": "addVoter",
      "outputs": [],
      "stateMutability": "nonpayable",
      "type": "function"
    },
    {
      "inputs": [
        {
          "internalType": "string",
          "name": "_email",
          "type": "string"
        },
        {
          "internalType": "string",
          "name": "_password",
          "type": "string"
        }
      ],
      "name": "loginVoter",
      "outputs": [
        {
          "components": [
            {
              "internalType": "uint256",
              "name": "id",
              "type": "uint256"
            },
            {
              "internalType": "string",
              "name": "key",
              "type": "string"
            },
            {
              "internalType": "string",
              "name": "email",
              "type": "string"
            },
            {
              "internalType": "string",
              "name": "password",
              "type": "string"
            },
            {
              "internalType": "string",
              "name": "role",
              "type": "string"
            }
          ],
          "internalType": "struct VotingSystem.Voter",
          "name": "",
          "type": "tuple"
        }
      ],
      "stateMutability": "view",
      "type": "function",
      "constant": true
    },
    {
      "inputs": [
        {
          "internalType": "string",
          "name": "_email",
          "type": "string"
        },
        {
          "internalType": "string",
          "name": "_password",
          "type": "string"
        }
      ],
      "name": "getVoter",
      "outputs": [
        {
          "components": [
            {
              "internalType": "uint256",
              "name": "id",
              "type": "uint256"
            },
            {
              "internalType": "string",
              "name": "key",
              "type": "string"
            },
            {
              "internalType": "string",
              "name": "email",
              "type": "string"
            },
            {
              "internalType": "string",
              "name": "password",
              "type": "string"
            },
            {
              "internalType": "string",
              "name": "role",
              "type": "string"
            }
          ],
          "internalType": "struct VotingSystem.Voter",
          "name": "",
          "type": "tuple"
        }
      ],
      "stateMutability": "view",
      "type": "function",
      "constant": true
    },
    {
      "inputs": [
        {
          "internalType": "string",
          "name": "_categoryName",
          "type": "string"
        }
      ],
      "name": "addCategory",
      "outputs": [],
      "stateMutability": "nonpayable",
      "type": "function"
    },
    {
      "inputs": [
        {
          "internalType": "uint256",
          "name": "_categoryId",
          "type": "uint256"
        },
        {
          "internalType": "string",
          "name": "_newCategoryName",
          "type": "string"
        }
      ],
      "name": "updateCategory",
      "outputs": [],
      "stateMutability": "nonpayable",
      "type": "function"
    },
    {
      "inputs": [
        {
          "internalType": "uint256",
          "name": "_categoryId",
          "type": "uint256"
        },
        {
          "internalType": "string",
          "name": "_eventName",
          "type": "string"
        }
      ],
      "name": "addEvent",
      "outputs": [],
      "stateMutability": "nonpayable",
      "type": "function"
    },
    {
      "inputs": [
        {
          "internalType": "uint256",
          "name": "_categoryId",
          "type": "uint256"
        },
        {
          "internalType": "uint256",
          "name": "_eventId",
          "type": "uint256"
        },
        {
          "internalType": "string",
          "name": "_candidateName",
          "type": "string"
        },
        {
          "internalType": "string",
          "name": "_description",
          "type": "string"
        },
        {
          "internalType": "uint256",
          "name": "_studentId",
          "type": "uint256"
        }
      ],
      "name": "addCandidateToEvent",
      "outputs": [],
      "stateMutability": "nonpayable",
      "type": "function"
    },
    {
      "inputs": [
        {
          "internalType": "uint256",
          "name": "_categoryId",
          "type": "uint256"
        },
        {
          "internalType": "uint256",
          "name": "_eventId",
          "type": "uint256"
        },
        {
          "internalType": "uint256",
          "name": "_studentId",
          "type": "uint256"
        }
      ],
      "name": "isCandidateExistsInEvent",
      "outputs": [
        {
          "internalType": "bool",
          "name": "",
          "type": "bool"
        }
      ],
      "stateMutability": "view",
      "type": "function",
      "constant": true
    },
    {
      "inputs": [
        {
          "internalType": "uint256",
          "name": "_categoryId",
          "type": "uint256"
        },
        {
          "internalType": "uint256",
          "name": "_eventId",
          "type": "uint256"
        },
        {
          "internalType": "uint256",
          "name": "_candidateId",
          "type": "uint256"
        }
      ],
      "name": "isCandidateExistsInEventById",
      "outputs": [
        {
          "internalType": "bool",
          "name": "",
          "type": "bool"
        }
      ],
      "stateMutability": "view",
      "type": "function",
      "constant": true
    },
    {
      "inputs": [
        {
          "internalType": "uint256",
          "name": "_categoryId",
          "type": "uint256"
        },
        {
          "internalType": "uint256",
          "name": "_eventId",
          "type": "uint256"
        }
      ],
      "name": "isEventExists",
      "outputs": [
        {
          "internalType": "bool",
          "name": "",
          "type": "bool"
        }
      ],
      "stateMutability": "view",
      "type": "function",
      "constant": true
    },
    {
      "inputs": [
        {
          "internalType": "uint256",
          "name": "_categoryId",
          "type": "uint256"
        },
        {
          "internalType": "string",
          "name": "_eventName",
          "type": "string"
        }
      ],
      "name": "isEventExists",
      "outputs": [
        {
          "internalType": "bool",
          "name": "",
          "type": "bool"
        }
      ],
      "stateMutability": "view",
      "type": "function",
      "constant": true
    },
    {
      "inputs": [
        {
          "internalType": "uint256",
          "name": "_categoryId",
          "type": "uint256"
        }
      ],
      "name": "getAllCategoryEvent",
      "outputs": [
        {
          "components": [
            {
              "internalType": "uint256",
              "name": "eventId",
              "type": "uint256"
            },
            {
              "internalType": "string",
              "name": "eventName",
              "type": "string"
            },
            {
              "internalType": "uint256",
              "name": "categoryId",
              "type": "uint256"
            },
            {
              "components": [
                {
                  "internalType": "uint256",
                  "name": "id",
                  "type": "uint256"
                },
                {
                  "internalType": "string",
                  "name": "name",
                  "type": "string"
                },
                {
                  "internalType": "string",
                  "name": "description",
                  "type": "string"
                },
                {
                  "internalType": "uint256",
                  "name": "studentId",
                  "type": "uint256"
                },
                {
                  "internalType": "uint256",
                  "name": "categoryId",
                  "type": "uint256"
                },
                {
                  "internalType": "uint256",
                  "name": "eventId",
                  "type": "uint256"
                },
                {
                  "internalType": "uint256",
                  "name": "voteCount",
                  "type": "uint256"
                },
                {
                  "internalType": "bool",
                  "name": "win",
                  "type": "bool"
                }
              ],
              "internalType": "struct VotingSystem.Candidate[]",
              "name": "candidates",
              "type": "tuple[]"
            },
            {
              "internalType": "uint256",
              "name": "candidateCount",
              "type": "uint256"
            },
            {
              "internalType": "uint256",
              "name": "status",
              "type": "uint256"
            }
          ],
          "internalType": "struct VotingSystem.Event[]",
          "name": "foundEvent",
          "type": "tuple[]"
        }
      ],
      "stateMutability": "view",
      "type": "function",
      "constant": true
    },
    {
      "inputs": [
        {
          "internalType": "uint256",
          "name": "_categoryId",
          "type": "uint256"
        },
        {
          "internalType": "uint256",
          "name": "_eventId",
          "type": "uint256"
        }
      ],
      "name": "getAllCandidatesInEvent",
      "outputs": [
        {
          "components": [
            {
              "internalType": "uint256",
              "name": "id",
              "type": "uint256"
            },
            {
              "internalType": "string",
              "name": "name",
              "type": "string"
            },
            {
              "internalType": "string",
              "name": "description",
              "type": "string"
            },
            {
              "internalType": "uint256",
              "name": "studentId",
              "type": "uint256"
            },
            {
              "internalType": "uint256",
              "name": "categoryId",
              "type": "uint256"
            },
            {
              "internalType": "uint256",
              "name": "eventId",
              "type": "uint256"
            },
            {
              "internalType": "uint256",
              "name": "voteCount",
              "type": "uint256"
            },
            {
              "internalType": "bool",
              "name": "win",
              "type": "bool"
            }
          ],
          "internalType": "struct VotingSystem.Candidate[]",
          "name": "foundCandidates",
          "type": "tuple[]"
        }
      ],
      "stateMutability": "view",
      "type": "function",
      "constant": true
    },
    {
      "inputs": [],
      "name": "getAllCandidates",
      "outputs": [
        {
          "components": [
            {
              "internalType": "uint256",
              "name": "id",
              "type": "uint256"
            },
            {
              "internalType": "string",
              "name": "name",
              "type": "string"
            },
            {
              "internalType": "string",
              "name": "description",
              "type": "string"
            },
            {
              "internalType": "uint256",
              "name": "studentId",
              "type": "uint256"
            },
            {
              "internalType": "uint256",
              "name": "categoryId",
              "type": "uint256"
            },
            {
              "internalType": "uint256",
              "name": "eventId",
              "type": "uint256"
            },
            {
              "internalType": "uint256",
              "name": "voteCount",
              "type": "uint256"
            },
            {
              "internalType": "bool",
              "name": "win",
              "type": "bool"
            }
          ],
          "internalType": "struct VotingSystem.Candidate[]",
          "name": "",
          "type": "tuple[]"
        }
      ],
      "stateMutability": "view",
      "type": "function",
      "constant": true
    },
    {
      "inputs": [],
      "name": "getAllCategory",
      "outputs": [
        {
          "components": [
            {
              "internalType": "uint256",
              "name": "categoryId",
              "type": "uint256"
            },
            {
              "internalType": "string",
              "name": "categoryName",
              "type": "string"
            },
            {
              "components": [
                {
                  "internalType": "uint256",
                  "name": "eventId",
                  "type": "uint256"
                },
                {
                  "internalType": "string",
                  "name": "eventName",
                  "type": "string"
                },
                {
                  "internalType": "uint256",
                  "name": "categoryId",
                  "type": "uint256"
                },
                {
                  "components": [
                    {
                      "internalType": "uint256",
                      "name": "id",
                      "type": "uint256"
                    },
                    {
                      "internalType": "string",
                      "name": "name",
                      "type": "string"
                    },
                    {
                      "internalType": "string",
                      "name": "description",
                      "type": "string"
                    },
                    {
                      "internalType": "uint256",
                      "name": "studentId",
                      "type": "uint256"
                    },
                    {
                      "internalType": "uint256",
                      "name": "categoryId",
                      "type": "uint256"
                    },
                    {
                      "internalType": "uint256",
                      "name": "eventId",
                      "type": "uint256"
                    },
                    {
                      "internalType": "uint256",
                      "name": "voteCount",
                      "type": "uint256"
                    },
                    {
                      "internalType": "bool",
                      "name": "win",
                      "type": "bool"
                    }
                  ],
                  "internalType": "struct VotingSystem.Candidate[]",
                  "name": "candidates",
                  "type": "tuple[]"
                },
                {
                  "internalType": "uint256",
                  "name": "candidateCount",
                  "type": "uint256"
                },
                {
                  "internalType": "uint256",
                  "name": "status",
                  "type": "uint256"
                }
              ],
              "internalType": "struct VotingSystem.Event[]",
              "name": "events",
              "type": "tuple[]"
            }
          ],
          "internalType": "struct VotingSystem.Category[]",
          "name": "",
          "type": "tuple[]"
        }
      ],
      "stateMutability": "view",
      "type": "function",
      "constant": true
    },
    {
      "inputs": [
        {
          "internalType": "uint256",
          "name": "_categoryId",
          "type": "uint256"
        }
      ],
      "name": "getCategoryById",
      "outputs": [
        {
          "components": [
            {
              "internalType": "uint256",
              "name": "categoryId",
              "type": "uint256"
            },
            {
              "internalType": "string",
              "name": "categoryName",
              "type": "string"
            },
            {
              "components": [
                {
                  "internalType": "uint256",
                  "name": "eventId",
                  "type": "uint256"
                },
                {
                  "internalType": "string",
                  "name": "eventName",
                  "type": "string"
                },
                {
                  "internalType": "uint256",
                  "name": "categoryId",
                  "type": "uint256"
                },
                {
                  "components": [
                    {
                      "internalType": "uint256",
                      "name": "id",
                      "type": "uint256"
                    },
                    {
                      "internalType": "string",
                      "name": "name",
                      "type": "string"
                    },
                    {
                      "internalType": "string",
                      "name": "description",
                      "type": "string"
                    },
                    {
                      "internalType": "uint256",
                      "name": "studentId",
                      "type": "uint256"
                    },
                    {
                      "internalType": "uint256",
                      "name": "categoryId",
                      "type": "uint256"
                    },
                    {
                      "internalType": "uint256",
                      "name": "eventId",
                      "type": "uint256"
                    },
                    {
                      "internalType": "uint256",
                      "name": "voteCount",
                      "type": "uint256"
                    },
                    {
                      "internalType": "bool",
                      "name": "win",
                      "type": "bool"
                    }
                  ],
                  "internalType": "struct VotingSystem.Candidate[]",
                  "name": "candidates",
                  "type": "tuple[]"
                },
                {
                  "internalType": "uint256",
                  "name": "candidateCount",
                  "type": "uint256"
                },
                {
                  "internalType": "uint256",
                  "name": "status",
                  "type": "uint256"
                }
              ],
              "internalType": "struct VotingSystem.Event[]",
              "name": "events",
              "type": "tuple[]"
            }
          ],
          "internalType": "struct VotingSystem.Category",
          "name": "",
          "type": "tuple"
        }
      ],
      "stateMutability": "view",
      "type": "function",
      "constant": true
    },
    {
      "inputs": [],
      "name": "getAllEvent",
      "outputs": [
        {
          "components": [
            {
              "internalType": "uint256",
              "name": "eventId",
              "type": "uint256"
            },
            {
              "internalType": "string",
              "name": "eventName",
              "type": "string"
            },
            {
              "internalType": "uint256",
              "name": "categoryId",
              "type": "uint256"
            },
            {
              "components": [
                {
                  "internalType": "uint256",
                  "name": "id",
                  "type": "uint256"
                },
                {
                  "internalType": "string",
                  "name": "name",
                  "type": "string"
                },
                {
                  "internalType": "string",
                  "name": "description",
                  "type": "string"
                },
                {
                  "internalType": "uint256",
                  "name": "studentId",
                  "type": "uint256"
                },
                {
                  "internalType": "uint256",
                  "name": "categoryId",
                  "type": "uint256"
                },
                {
                  "internalType": "uint256",
                  "name": "eventId",
                  "type": "uint256"
                },
                {
                  "internalType": "uint256",
                  "name": "voteCount",
                  "type": "uint256"
                },
                {
                  "internalType": "bool",
                  "name": "win",
                  "type": "bool"
                }
              ],
              "internalType": "struct VotingSystem.Candidate[]",
              "name": "candidates",
              "type": "tuple[]"
            },
            {
              "internalType": "uint256",
              "name": "candidateCount",
              "type": "uint256"
            },
            {
              "internalType": "uint256",
              "name": "status",
              "type": "uint256"
            }
          ],
          "internalType": "struct VotingSystem.Event[]",
          "name": "",
          "type": "tuple[]"
        }
      ],
      "stateMutability": "view",
      "type": "function",
      "constant": true
    },
    {
      "inputs": [
        {
          "internalType": "uint256",
          "name": "_categoryId",
          "type": "uint256"
        },
        {
          "internalType": "uint256",
          "name": "_eventId",
          "type": "uint256"
        }
      ],
      "name": "getEventById",
      "outputs": [
        {
          "components": [
            {
              "internalType": "uint256",
              "name": "eventId",
              "type": "uint256"
            },
            {
              "internalType": "string",
              "name": "eventName",
              "type": "string"
            },
            {
              "internalType": "uint256",
              "name": "categoryId",
              "type": "uint256"
            },
            {
              "components": [
                {
                  "internalType": "uint256",
                  "name": "id",
                  "type": "uint256"
                },
                {
                  "internalType": "string",
                  "name": "name",
                  "type": "string"
                },
                {
                  "internalType": "string",
                  "name": "description",
                  "type": "string"
                },
                {
                  "internalType": "uint256",
                  "name": "studentId",
                  "type": "uint256"
                },
                {
                  "internalType": "uint256",
                  "name": "categoryId",
                  "type": "uint256"
                },
                {
                  "internalType": "uint256",
                  "name": "eventId",
                  "type": "uint256"
                },
                {
                  "internalType": "uint256",
                  "name": "voteCount",
                  "type": "uint256"
                },
                {
                  "internalType": "bool",
                  "name": "win",
                  "type": "bool"
                }
              ],
              "internalType": "struct VotingSystem.Candidate[]",
              "name": "candidates",
              "type": "tuple[]"
            },
            {
              "internalType": "uint256",
              "name": "candidateCount",
              "type": "uint256"
            },
            {
              "internalType": "uint256",
              "name": "status",
              "type": "uint256"
            }
          ],
          "internalType": "struct VotingSystem.Event",
          "name": "",
          "type": "tuple"
        }
      ],
      "stateMutability": "view",
      "type": "function",
      "constant": true
    },
    {
      "inputs": [
        {
          "internalType": "uint256",
          "name": "_voterId",
          "type": "uint256"
        },
        {
          "internalType": "uint256",
          "name": "_candidateId",
          "type": "uint256"
        },
        {
          "internalType": "uint256",
          "name": "_categoryId",
          "type": "uint256"
        },
        {
          "internalType": "uint256",
          "name": "_eventId",
          "type": "uint256"
        }
      ],
      "name": "vote",
      "outputs": [],
      "stateMutability": "nonpayable",
      "type": "function"
    },
    {
      "inputs": [
        {
          "internalType": "uint256",
          "name": "_candidateId",
          "type": "uint256"
        }
      ],
      "name": "getCandidateVoteCount",
      "outputs": [
        {
          "internalType": "uint256",
          "name": "count",
          "type": "uint256"
        }
      ],
      "stateMutability": "view",
      "type": "function",
      "constant": true
    },
    {
      "inputs": [
        {
          "internalType": "uint256",
          "name": "_categoryId",
          "type": "uint256"
        },
        {
          "internalType": "uint256",
          "name": "_eventId",
          "type": "uint256"
        }
      ],
      "name": "getVoteEventCandidate",
      "outputs": [
        {
          "components": [
            {
              "internalType": "uint256",
              "name": "id",
              "type": "uint256"
            },
            {
              "internalType": "string",
              "name": "name",
              "type": "string"
            },
            {
              "internalType": "string",
              "name": "description",
              "type": "string"
            },
            {
              "internalType": "uint256",
              "name": "studentId",
              "type": "uint256"
            },
            {
              "internalType": "uint256",
              "name": "categoryId",
              "type": "uint256"
            },
            {
              "internalType": "uint256",
              "name": "eventId",
              "type": "uint256"
            },
            {
              "internalType": "uint256",
              "name": "voteCount",
              "type": "uint256"
            },
            {
              "internalType": "bool",
              "name": "win",
              "type": "bool"
            }
          ],
          "internalType": "struct VotingSystem.Candidate[]",
          "name": "",
          "type": "tuple[]"
        }
      ],
      "stateMutability": "view",
      "type": "function",
      "constant": true
    },
    {
      "inputs": [
        {
          "internalType": "uint256",
          "name": "_categoryId",
          "type": "uint256"
        },
        {
          "internalType": "uint256",
          "name": "_eventId",
          "type": "uint256"
        }
      ],
      "name": "whoIsTheWinner",
      "outputs": [
        {
          "components": [
            {
              "internalType": "uint256",
              "name": "id",
              "type": "uint256"
            },
            {
              "internalType": "string",
              "name": "name",
              "type": "string"
            },
            {
              "internalType": "string",
              "name": "description",
              "type": "string"
            },
            {
              "internalType": "uint256",
              "name": "studentId",
              "type": "uint256"
            },
            {
              "internalType": "uint256",
              "name": "categoryId",
              "type": "uint256"
            },
            {
              "internalType": "uint256",
              "name": "eventId",
              "type": "uint256"
            },
            {
              "internalType": "uint256",
              "name": "voteCount",
              "type": "uint256"
            },
            {
              "internalType": "bool",
              "name": "win",
              "type": "bool"
            }
          ],
          "internalType": "struct VotingSystem.Candidate",
          "name": "",
          "type": "tuple"
        }
      ],
      "stateMutability": "view",
      "type": "function",
      "constant": true
    }
  ],
  "bytecode": "0x608060405234801561001057600080fd5b50600080546001600160a01b031916331790556142c2806100326000396000f3fe608060405234801561001057600080fd5b50600436106101735760003560e01c8063748f55a8116100de578063a7e62d1b11610097578063bf03f67711610071578063bf03f677146103ea578063da58c7d9146103fd578063dfdffaf414610421578063ffdd108b1461043457600080fd5b8063a7e62d1b14610393578063b315c597146103a6578063b367887f146103d757600080fd5b8063748f55a8146102ed57806378697e5b1461030d5780638da5cb5b146103205780638f2c28051461034b578063909f8502146103605780639e41a12f1461038057600080fd5b806350515a771161013057806350515a77146102165780635b4d727c146102295780635dc2b6501461023c57806360e93f3c1461024f578063642d20ad1461026f57806368c9e388146102da57600080fd5b80631002cdd4146101785780632e0dcbf7146101965780632e6997fe146101ab578063400af02a146101c0578063401a52dd146101e05780634fb43250146101f3575b600080fd5b610180610447565b60405161018d9190613aed565b60405180910390f35b6101a96101a4366004613bf2565b610801565b005b6101b3610928565b60405161018d9190613c2f565b6101d36101ce366004613c84565b610aac565b60405161018d9190613ce8565b6101806101ee366004613d70565b610b53565b610206610201366004613d89565b610eb8565b604051901515815260200161018d565b610206610224366004613dab565b610f64565b6101b3610237366004613d89565b611023565b6101a961024a366004613de8565b61132d565b61026261025d366004613d70565b611486565b60405161018d9190613f19565b6102b061027d366004613d70565b60046020819052600091825260409091208054600182015460028301546003840154939094015491939092909160ff1685565b6040805195865260208601949094529284019190915260608301521515608082015260a00161018d565b6101a96102e8366004613f2c565b611847565b6103006102fb366004613d89565b611b18565b60405161018d9190613f5e565b6101a961031b366004613dab565b611f26565b600054610333906001600160a01b031681565b6040516001600160a01b03909116815260200161018d565b61035361204f565b60405161018d9190613f71565b61037361036e366004613d89565b6124a9565b60405161018d9190613fc6565b6101a961038e366004613fd9565b6128c7565b6101b36103a1366004613d89565b612b76565b6103c96103b4366004613d70565b60009081526003602052604090206006015490565b60405190815260200161018d565b6101d36103e5366004613c84565b612f04565b6102066103f8366004614058565b613292565b61041061040b366004613d70565b613328565b60405161018d959493929190614084565b61020661042f366004614058565b613577565b6101a9610442366004613dab565b6135ff565b6060600060085467ffffffffffffffff81111561046657610466613b4f565b60405190808252806020026020018201604052801561049f57816020015b61048c61385b565b8152602001906001900390816104845790505b5090506000805b6006548110156107f95760005b600160006104c184836140f9565b81526020810191909152604001600020600201548110156107e657600160006104ea84836140f9565b8152602001908152602001600020600201818154811061050c5761050c614111565b90600052602060002090600602016040518060c00160405290816000820154815260200160018201805461053f90614127565b80601f016020809104026020016040519081016040528092919081815260200182805461056b90614127565b80156105b85780601f1061058d576101008083540402835291602001916105b8565b820191906000526020600020905b81548152906001019060200180831161059b57829003601f168201915b505050505081526020016002820154815260200160038201805480602002602001604051908101604052809291908181526020016000905b8282101561078e5783829060005260206000209060080201604051806101000160405290816000820154815260200160018201805461062e90614127565b80601f016020809104026020016040519081016040528092919081815260200182805461065a90614127565b80156106a75780601f1061067c576101008083540402835291602001916106a7565b820191906000526020600020905b81548152906001019060200180831161068a57829003601f168201915b505050505081526020016002820180546106c090614127565b80601f01602080910402602001604051908101604052809291908181526020018280546106ec90614127565b80156107395780601f1061070e57610100808354040283529160200191610739565b820191906000526020600020905b81548152906001019060200180831161071c57829003601f168201915b5050509183525050600382015460208083019190915260048301546040830152600583015460608301526006830154608083015260079092015460ff16151560a09091015290825260019290920191016105f0565b505050508152602001600482015481526020016005820154815250508484815181106107bc576107bc614111565b60209081029190910101526107d26001846140f9565b9250806107de8161415b565b9150506104b3565b50806107f18161415b565b9150506104a6565b509092915050565b60015b60065481116108a457600160008281526020019081526020016000206001016040516108309190614174565b60405180910390208280519060200120036108925760405162461bcd60e51b815260206004820152601760248201527f43617465676f727920616c72656164792065786973747300000000000000000060448201526064015b60405180910390fd5b8061089c8161415b565b915050610804565b506001600660008282546108b891906140f9565b90915550506006546000908152600160208181526040909220835190926108e59284019190850190613891565b506006548082556040517f5bae3f75753ef0a1c0ea0f6c51d7b43a4b8d116572b8b7b5cb771f9ad32d4ae59061091c90859061420f565b60405180910390a25050565b6060600060075467ffffffffffffffff81111561094757610947613b4f565b60405190808252806020026020018201604052801561098057816020015b61096d613915565b8152602001906001900390816109655790505b509050600060085467ffffffffffffffff8111156109a0576109a0613b4f565b6040519080825280602002602001820160405280156109d957816020015b6109c661385b565b8152602001906001900390816109be5790505b5090506109e4610447565b90506000805b600854811015610aa35760005b838281518110610a0957610a09614111565b60200260200101516060015151811015610a9057838281518110610a2f57610a2f614111565b6020026020010151606001518181518110610a4c57610a4c614111565b6020026020010151858481518110610a6657610a66614111565b6020908102919091010152610a7c6001846140f9565b925080610a888161415b565b9150506109f7565b5080610a9b8161415b565b9150506109ea565b50919392505050565b610ade6040518060a0016040528060008152602001606081526020016060815260200160608152602001606081525090565b6000610aea8484612f04565b8051909150600003610b4a5760405162461bcd60e51b8152602060048201526024808201527f596f757220656d61696c206f722070617373776f726420697320696e636f72726044820152636563742160e01b6064820152608401610889565b90505b92915050565b600081815260016020526040812060028101546060929067ffffffffffffffff811115610b8257610b82613b4f565b604051908082528060200260200182016040528015610bbb57816020015b610ba861385b565b815260200190600190039081610ba05790505b50905060005b6002830154811015610eb057826002018181548110610be257610be2614111565b90600052602060002090600602016040518060c001604052908160008201548152602001600182018054610c1590614127565b80601f0160208091040260200160405190810160405280929190818152602001828054610c4190614127565b8015610c8e5780601f10610c6357610100808354040283529160200191610c8e565b820191906000526020600020905b815481529060010190602001808311610c7157829003601f168201915b505050505081526020016002820154815260200160038201805480602002602001604051908101604052809291908181526020016000905b82821015610e6457838290600052602060002090600802016040518061010001604052908160008201548152602001600182018054610d0490614127565b80601f0160208091040260200160405190810160405280929190818152602001828054610d3090614127565b8015610d7d5780601f10610d5257610100808354040283529160200191610d7d565b820191906000526020600020905b815481529060010190602001808311610d6057829003601f168201915b50505050508152602001600282018054610d9690614127565b80601f0160208091040260200160405190810160405280929190818152602001828054610dc290614127565b8015610e0f5780601f10610de457610100808354040283529160200191610e0f565b820191906000526020600020905b815481529060010190602001808311610df257829003601f168201915b5050509183525050600382015460208083019190915260048301546040830152600583015460608301526006830154608083015260079092015460ff16151560a0909101529082526001929092019101610cc6565b50505050815260200160048201548152602001600582015481525050828281518110610e9257610e92614111565b60200260200101819052508080610ea89061415b565b915050610bc1565b509392505050565b6000828152600160205260408120548103610ee55760405162461bcd60e51b815260040161088990614222565b60005b600084815260016020526040902060020154811015610f5a576000848152600160205260409020600201805484919083908110610f2757610f27614111565b90600052602060002090600602016000015403610f48576001915050610b4d565b80610f528161415b565b915050610ee8565b5060009392505050565b6000828152600160205260408120548103610f915760405162461bcd60e51b815260040161088990614222565b60005b600084815260016020526040902060020154811015610f5a578280519060200120600160008681526020019081526020016000206002018281548110610fdc57610fdc614111565b9060005260206000209060060201600101604051610ffa9190614174565b604051809103902003611011576001915050610b4d565b8061101b8161415b565b915050610f94565b60008281526001602052604081206060915b6002820154811015611325578382600201828154811061105757611057614111565b9060005260206000209060060201600001540361131357600082600201828154811061108557611085614111565b90600052602060002090600602016004015467ffffffffffffffff8111156110af576110af613b4f565b6040519080825280602002602001820160405280156110e857816020015b6110d5613915565b8152602001906001900390816110cd5790505b50905060005b83600201838154811061110357611103614111565b9060005260206000209060060201600301805490508110156113085783600201838154811061113457611134614111565b9060005260206000209060060201600301818154811061115657611156614111565b9060005260206000209060080201604051806101000160405290816000820154815260200160018201805461118a90614127565b80601f01602080910402602001604051908101604052809291908181526020018280546111b690614127565b80156112035780601f106111d857610100808354040283529160200191611203565b820191906000526020600020905b8154815290600101906020018083116111e657829003601f168201915b5050505050815260200160028201805461121c90614127565b80601f016020809104026020016040519081016040528092919081815260200182805461124890614127565b80156112955780601f1061126a57610100808354040283529160200191611295565b820191906000526020600020905b81548152906001019060200180831161127857829003601f168201915b50505091835250506003820154602082015260048201546040820152600582015460608201526006820154608082015260079091015460ff16151560a09091015282518390839081106112ea576112ea614111565b602002602001018190525080806113009061415b565b9150506110ee565b509250610b4d915050565b8061131d8161415b565b915050611035565b505092915050565b60015b600a5481116113be576000818152600560205260409081902090516113589160010190614174565b60405180910390208580519060200120036113ac5760405162461bcd60e51b8152602060048201526014602482015273566f74657220616c72656164792065786973747360601b6044820152606401610889565b806113b68161415b565b915050611330565b506001600a60008282546113d291906140f9565b9091555050600a546000818152600560209081526040909120918255855161140291600184019190880190613891565b5083516114189060028301906020870190613891565b50825161142e9060038301906020860190613891565b5081516114449060048301906020850190613891565b50600a547f56729c826fe77eec184059336ced13d9ef79d10126212c90a4d2b724391e14e286604051611477919061420f565b60405180910390a25050505050565b6114aa60405180606001604052806000815260200160608152602001606081525090565b600082815260016020818152604092839020835160608101909452805484529182018054918401916114db90614127565b80601f016020809104026020016040519081016040528092919081815260200182805461150790614127565b80156115545780601f1061152957610100808354040283529160200191611554565b820191906000526020600020905b81548152906001019060200180831161153757829003601f168201915b5050505050815260200160028201805480602002602001604051908101604052809291908181526020016000905b8282101561183957838290600052602060002090600602016040518060c0016040529081600082015481526020016001820180546115bf90614127565b80601f01602080910402602001604051908101604052809291908181526020018280546115eb90614127565b80156116385780601f1061160d57610100808354040283529160200191611638565b820191906000526020600020905b81548152906001019060200180831161161b57829003601f168201915b505050505081526020016002820154815260200160038201805480602002602001604051908101604052809291908181526020016000905b8282101561180e578382906000526020600020906008020160405180610100016040529081600082015481526020016001820180546116ae90614127565b80601f01602080910402602001604051908101604052809291908181526020018280546116da90614127565b80156117275780601f106116fc57610100808354040283529160200191611727565b820191906000526020600020905b81548152906001019060200180831161170a57829003601f168201915b5050505050815260200160028201805461174090614127565b80601f016020809104026020016040519081016040528092919081815260200182805461176c90614127565b80156117b95780601f1061178e576101008083540402835291602001916117b9565b820191906000526020600020905b81548152906001019060200180831161179c57829003601f168201915b5050509183525050600382015460208083019190915260048301546040830152600583015460608301526006830154608083015260079092015460ff16151560a0909101529082526001929092019101611670565b5050505081526020016004820154815260200160058201548152505081526020019060010190611582565b505050915250909392505050565b60008281526001602052604081205490036118a45760405162461bcd60e51b815260206004820152601860248201527f43617465676f727920646f6573206e6f742065786973747300000000000000006044820152606401610889565b6008546000036118ee5760405162461bcd60e51b81526020600482015260156024820152744576656e7420646f6573206e6f742065786973747360581b6044820152606401610889565b6118f9828285613292565b151560011461194a5760405162461bcd60e51b815260206004820152601a60248201527f43616e6469646174657320646f6573206e6f74206578697374730000000000006044820152606401610889565b60015b6009548111611a155760008181526004602052604090206001015485148015611986575060008181526004602052604090206002015483145b80156119a2575060008181526004602052604090206003015482145b15611a03576000818152600460208190526040909120015460ff16156119fe5760405162461bcd60e51b8152602060048201526011602482015270165bdd48185b1c9958591e481d9bdd1959607a1b6044820152606401610889565b611a15565b80611a0d8161415b565b91505061194d565b50600160096000828254611a2991906140f9565b90915550506040805160a081018252600954808252602080830188815283850187815260608501878152600160808701818152600096875260049586905297909520865181559251948301949094555160028201559151600383015592519201805460ff191692151592909217909155611aa284613721565b611aad83838661374b565b6040805160208101859052808201849052815180820383018152606090910191829052908590611ade908390614259565b6040519081900381209088907fdd0629bf37ec3179d8b6727c2eb4d0f297cf08a85b960c1520666db55feb5b3990600090a4505050505050565b611b20613915565b600083815260016020908152604080832060020180548251818502810185019093528083529192909190849084015b82821015611e0657838290600052602060002090600602016040518060c001604052908160008201548152602001600182018054611b8c90614127565b80601f0160208091040260200160405190810160405280929190818152602001828054611bb890614127565b8015611c055780601f10611bda57610100808354040283529160200191611c05565b820191906000526020600020905b815481529060010190602001808311611be857829003601f168201915b505050505081526020016002820154815260200160038201805480602002602001604051908101604052809291908181526020016000905b82821015611ddb57838290600052602060002090600802016040518061010001604052908160008201548152602001600182018054611c7b90614127565b80601f0160208091040260200160405190810160405280929190818152602001828054611ca790614127565b8015611cf45780601f10611cc957610100808354040283529160200191611cf4565b820191906000526020600020905b815481529060010190602001808311611cd757829003601f168201915b50505050508152602001600282018054611d0d90614127565b80601f0160208091040260200160405190810160405280929190818152602001828054611d3990614127565b8015611d865780601f10611d5b57610100808354040283529160200191611d86565b820191906000526020600020905b815481529060010190602001808311611d6957829003601f168201915b5050509183525050600382015460208083019190915260048301546040830152600583015460608301526006830154608083015260079092015460ff16151560a0909101529082526001929092019101611c3d565b5050505081526020016004820154815260200160058201548152505081526020019060010190611b4f565b505050509050606060005b8251811015611e715784838281518110611e2d57611e2d614111565b60200260200101516000015103611e5f57828181518110611e5057611e50614111565b60200260200101516060015191505b80611e698161415b565b915050611e11565b50600081600081518110611e8757611e87614111565b6020026020010151905060005b60018351611ea29190614275565b811015611f155782611eb58260016140f9565b81518110611ec557611ec5614111565b602002602001015160c001518260c001511015611f035782611ee88260016140f9565b81518110611ef857611ef8614111565b602002602001015191505b80611f0d8161415b565b915050611e94565b50600160e082015295945050505050565b6000828152600160205260408120549003611f535760405162461bcd60e51b815260040161088990614222565b60015b6006548111611ff857828114611fe65760016000828152602001908152602001600020600101604051611f899190614174565b6040518091039020828051906020012003611fe65760405162461bcd60e51b815260206004820152601c60248201527f43617465676f7279206e616d6520616c726561647920657869737473000000006044820152606401610889565b80611ff08161415b565b915050611f56565b506000828152600160208181526040909220835161201e93919092019190840190613891565b50817f5bae3f75753ef0a1c0ea0f6c51d7b43a4b8d116572b8b7b5cb771f9ad32d4ae58260405161091c919061420f565b6060600060065467ffffffffffffffff81111561206e5761206e613b4f565b6040519080825280602002602001820160405280156120c357816020015b6120b060405180606001604052806000815260200160608152602001606081525090565b81526020019060019003908161208c5790505b50905060015b60065481116124a3576000818152600160208181526040928390208351606081019094528054845291820180549184019161210390614127565b80601f016020809104026020016040519081016040528092919081815260200182805461212f90614127565b801561217c5780601f106121515761010080835404028352916020019161217c565b820191906000526020600020905b81548152906001019060200180831161215f57829003601f168201915b5050505050815260200160028201805480602002602001604051908101604052809291908181526020016000905b8282101561246157838290600052602060002090600602016040518060c0016040529081600082015481526020016001820180546121e790614127565b80601f016020809104026020016040519081016040528092919081815260200182805461221390614127565b80156122605780601f1061223557610100808354040283529160200191612260565b820191906000526020600020905b81548152906001019060200180831161224357829003601f168201915b505050505081526020016002820154815260200160038201805480602002602001604051908101604052809291908181526020016000905b82821015612436578382906000526020600020906008020160405180610100016040529081600082015481526020016001820180546122d690614127565b80601f016020809104026020016040519081016040528092919081815260200182805461230290614127565b801561234f5780601f106123245761010080835404028352916020019161234f565b820191906000526020600020905b81548152906001019060200180831161233257829003601f168201915b5050505050815260200160028201805461236890614127565b80601f016020809104026020016040519081016040528092919081815260200182805461239490614127565b80156123e15780601f106123b6576101008083540402835291602001916123e1565b820191906000526020600020905b8154815290600101906020018083116123c457829003601f168201915b5050509183525050600382015460208083019190915260048301546040830152600583015460608301526006830154608083015260079092015460ff16151560a0909101529082526001929092019101612298565b50505050815260200160048201548152602001600582015481525050815260200190600101906121aa565b505050915250839050612475600184614275565b8151811061248557612485614111565b6020026020010181905250808061249b9061415b565b9150506120c9565b50919050565b6124b161385b565b60008381526001602081815260408084208151606081019092528054825292830180549193928401916124e390614127565b80601f016020809104026020016040519081016040528092919081815260200182805461250f90614127565b801561255c5780601f106125315761010080835404028352916020019161255c565b820191906000526020600020905b81548152906001019060200180831161253f57829003601f168201915b5050505050815260200160028201805480602002602001604051908101604052809291908181526020016000905b8282101561284157838290600052602060002090600602016040518060c0016040529081600082015481526020016001820180546125c790614127565b80601f01602080910402602001604051908101604052809291908181526020018280546125f390614127565b80156126405780601f1061261557610100808354040283529160200191612640565b820191906000526020600020905b81548152906001019060200180831161262357829003601f168201915b505050505081526020016002820154815260200160038201805480602002602001604051908101604052809291908181526020016000905b82821015612816578382906000526020600020906008020160405180610100016040529081600082015481526020016001820180546126b690614127565b80601f01602080910402602001604051908101604052809291908181526020018280546126e290614127565b801561272f5780601f106127045761010080835404028352916020019161272f565b820191906000526020600020905b81548152906001019060200180831161271257829003601f168201915b5050505050815260200160028201805461274890614127565b80601f016020809104026020016040519081016040528092919081815260200182805461277490614127565b80156127c15780601f10612796576101008083540402835291602001916127c1565b820191906000526020600020905b8154815290600101906020018083116127a457829003601f168201915b5050509183525050600382015460208083019190915260048301546040830152600583015460608301526006830154608083015260079092015460ff16151560a0909101529082526001929092019101612678565b505050508152602001600482015481526020016005820154815250508152602001906001019061258a565b5050505081525050905061285361385b565b60005b8260400151518110156128be57848360400151828151811061287a5761287a614111565b602002602001015160000151036128ac57826040015181815181106128a1576128a1614111565b602002602001015191505b806128b68161415b565b915050612856565b50949350505050565b600085815260016020526040812054900361291e5760405162461bcd60e51b815260206004820152601760248201527643617465676f727920686173206e6f742065786973747360481b6044820152606401610889565b6129288585610eb8565b15156001146129705760405162461bcd60e51b81526020600482015260146024820152734576656e7420686173206e6f742065786973747360601b6044820152606401610889565b61297b858583613577565b156129bc5760405162461bcd60e51b815260206004820152601160248201527010d85b991a59185d1948195e1a5cdd1959607a1b6044820152606401610889565b6001600760008282546129cf91906140f9565b9091555050604080516101008101825260075481526020808201869052818301859052606082018490526080820188905260a08201879052600060c0830181905260e08301819052888152600190915291822090915b6002820154811015612b6c5786826002018281548110612a4757612a47614111565b90600052602060002090600602016000015403612b5a57816002018181548110612a7357612a73614111565b60009182526020808320600360069093020191909101805460018181018355918452928290208651600890940201928355858201518051879493612abb938501920190613891565b5060408201518051612ad7916002840191602090910190613891565b50606082015160038201556080820151600482015560a0820151600582015560c0820151600682015560e0909101516007909101805460ff19169115159190911790556002820180546001919083908110612b3457612b34614111565b90600052602060002090600602016004016000828254612b5491906140f9565b90915550505b80612b648161415b565b915050612a25565b5050505050505050565b6000828152600160209081526040808320600201805482518185028101850190935280835260609493849084015b82821015612e5b57838290600052602060002090600602016040518060c001604052908160008201548152602001600182018054612be190614127565b80601f0160208091040260200160405190810160405280929190818152602001828054612c0d90614127565b8015612c5a5780601f10612c2f57610100808354040283529160200191612c5a565b820191906000526020600020905b815481529060010190602001808311612c3d57829003601f168201915b505050505081526020016002820154815260200160038201805480602002602001604051908101604052809291908181526020016000905b82821015612e3057838290600052602060002090600802016040518061010001604052908160008201548152602001600182018054612cd090614127565b80601f0160208091040260200160405190810160405280929190818152602001828054612cfc90614127565b8015612d495780601f10612d1e57610100808354040283529160200191612d49565b820191906000526020600020905b815481529060010190602001808311612d2c57829003601f168201915b50505050508152602001600282018054612d6290614127565b80601f0160208091040260200160405190810160405280929190818152602001828054612d8e90614127565b8015612ddb5780601f10612db057610100808354040283529160200191612ddb565b820191906000526020600020905b815481529060010190602001808311612dbe57829003601f168201915b5050509183525050600382015460208083019190915260048301546040830152600583015460608301526006830154608083015260079092015460ff16151560a0909101529082526001929092019101612c92565b5050505081526020016004820154815260200160058201548152505081526020019060010190612ba4565b50505050905060005b8151811015612eca5783828281518110612e8057612e80614111565b60200260200101516000015103612eb857818181518110612ea357612ea3614111565b60200260200101516060015192505050610b4d565b80612ec28161415b565b915050612e64565b5060408051600080825260208201909252906128be565b612ee9613915565b815260200190600190039081612ee157905050949350505050565b612f366040518060a0016040528060008152602001606081526020016060815260200160608152602001606081525090565b60015b600a54811161323957600081815260056020526040908190209051612f619160020190614174565b60405180910390208480519060200120148015612faa5750600081815260056020526040908190209051612f989160030190614174565b60405180910390208380519060200120145b1561322757600560008281526020019081526020016000206040518060a001604052908160008201548152602001600182018054612fe790614127565b80601f016020809104026020016040519081016040528092919081815260200182805461301390614127565b80156130605780601f1061303557610100808354040283529160200191613060565b820191906000526020600020905b81548152906001019060200180831161304357829003601f168201915b5050505050815260200160028201805461307990614127565b80601f01602080910402602001604051908101604052809291908181526020018280546130a590614127565b80156130f25780601f106130c7576101008083540402835291602001916130f2565b820191906000526020600020905b8154815290600101906020018083116130d557829003601f168201915b5050505050815260200160038201805461310b90614127565b80601f016020809104026020016040519081016040528092919081815260200182805461313790614127565b80156131845780601f1061315957610100808354040283529160200191613184565b820191906000526020600020905b81548152906001019060200180831161316757829003601f168201915b5050505050815260200160048201805461319d90614127565b80601f01602080910402602001604051908101604052809291908181526020018280546131c990614127565b80156132165780601f106131eb57610100808354040283529160200191613216565b820191906000526020600020905b8154815290600101906020018083116131f957829003601f168201915b505050505081525050915050610b4d565b806132318161415b565b915050612f39565b50506040805160a081018252600080825282516020818101855282825280840191909152835180820185528281528385015283518082018552828152606084015283519081019093528252608081019190915292915050565b60008381526001602052604081205481036132bf5760405162461bcd60e51b815260040161088990614222565b60006132cb8585611023565b905060005b815181101561331a57838282815181106132ec576132ec614111565b6020026020010151600001510361330857600192505050613321565b806133128161415b565b9150506132d0565b5060009150505b9392505050565b6005602052600090815260409020805460018201805491929161334a90614127565b80601f016020809104026020016040519081016040528092919081815260200182805461337690614127565b80156133c35780601f10613398576101008083540402835291602001916133c3565b820191906000526020600020905b8154815290600101906020018083116133a657829003601f168201915b5050505050908060020180546133d890614127565b80601f016020809104026020016040519081016040528092919081815260200182805461340490614127565b80156134515780601f1061342657610100808354040283529160200191613451565b820191906000526020600020905b81548152906001019060200180831161343457829003601f168201915b50505050509080600301805461346690614127565b80601f016020809104026020016040519081016040528092919081815260200182805461349290614127565b80156134df5780601f106134b4576101008083540402835291602001916134df565b820191906000526020600020905b8154815290600101906020018083116134c257829003601f168201915b5050505050908060040180546134f490614127565b80601f016020809104026020016040519081016040528092919081815260200182805461352090614127565b801561356d5780601f106135425761010080835404028352916020019161356d565b820191906000526020600020905b81548152906001019060200180831161355057829003601f168201915b5050505050905085565b60008381526001602052604081205481036135a45760405162461bcd60e51b815260040161088990614222565b60006135b08585611023565b905060005b815181101561331a57838282815181106135d1576135d1614111565b602002602001015160600151036135ed57600192505050613321565b806135f78161415b565b9150506135b5565b60008281526001602052604081205490036136565760405162461bcd60e51b815260206004820152601760248201527643617465676f727920686173206e6f742065786973747360481b6044820152606401610889565b6136608282610f64565b156136a45760405162461bcd60e51b81526020600482015260146024820152734576656e7420616c72656164792065786973747360601b6044820152606401610889565b60008281526001602081905260408220600880549193929183906136c99084906140f9565b91829055506002840180546001818101835560009283526020928390206006909202909101838155875193955093506137089290840191870190613891565b5060028101949094555050600160059092019190915550565b60008181526003602052604081206006018054600192906137439084906140f9565b909155505050565b6000838152600160205260408120600201905b8154811015613854578382828154811061377a5761377a614111565b906000526020600020906006020160000154036138425760008282815481106137a5576137a5614111565b9060005260206000209060060201600301905060005b815481101561383f57848282815481106137d7576137d7614111565b9060005260206000209060080201600001540361382d57600182828154811061380257613802614111565b9060005260206000209060080201600601600082825461382291906140f9565b9091555061383f9050565b806138378161415b565b9150506137bb565b50505b8061384c8161415b565b91505061375e565b5050505050565b6040518060c001604052806000815260200160608152602001600081526020016060815260200160008152602001600081525090565b82805461389d90614127565b90600052602060002090601f0160209004810192826138bf5760008555613905565b82601f106138d857805160ff1916838001178555613905565b82800160010185558215613905579182015b828111156139055782518255916020019190600101906138ea565b5061391192915061395c565b5090565b604051806101000160405280600081526020016060815260200160608152602001600081526020016000815260200160008152602001600081526020016000151581525090565b5b80821115613911576000815560010161395d565b60005b8381101561398c578181015183820152602001613974565b8381111561399b576000848401525b50505050565b600081518084526139b9816020860160208601613971565b601f01601f19169290920160200192915050565b60006101008251845260208301518160208601526139ed828601826139a1565b91505060408301518482036040860152613a0782826139a1565b915050606083015160608501526080830151608085015260a083015160a085015260c083015160c085015260e0830151151560e08501528091505092915050565b80518252600060208083015160c082860152613a6760c08601826139a1565b905060408401516040860152606084015185820360608701528181518084528484019150848160051b850101858401935060005b82811015613ac957601f19868303018452613ab78286516139cd565b94870194938701939150600101613a9b565b50608088015160808a015260a088015160a08a015280965050505050505092915050565b6000602080830181845280855180835260408601915060408160051b870101925083870160005b82811015613b4257603f19888603018452613b30858351613a48565b94509285019290850190600101613b14565b5092979650505050505050565b634e487b7160e01b600052604160045260246000fd5b600082601f830112613b7657600080fd5b813567ffffffffffffffff80821115613b9157613b91613b4f565b604051601f8301601f19908116603f01168101908282118183101715613bb957613bb9613b4f565b81604052838152866020858801011115613bd257600080fd5b836020870160208301376000602085830101528094505050505092915050565b600060208284031215613c0457600080fd5b813567ffffffffffffffff811115613c1b57600080fd5b613c2784828501613b65565b949350505050565b6000602080830181845280855180835260408601915060408160051b870101925083870160005b82811015613b4257603f19888603018452613c728583516139cd565b94509285019290850190600101613c56565b60008060408385031215613c9757600080fd5b823567ffffffffffffffff80821115613caf57600080fd5b613cbb86838701613b65565b93506020850135915080821115613cd157600080fd5b50613cde85828601613b65565b9150509250929050565b60208152815160208201526000602083015160a06040840152613d0e60c08401826139a1565b90506040840151601f1980858403016060860152613d2c83836139a1565b92506060860151915080858403016080860152613d4983836139a1565b925060808601519150808584030160a086015250613d6782826139a1565b95945050505050565b600060208284031215613d8257600080fd5b5035919050565b60008060408385031215613d9c57600080fd5b50508035926020909101359150565b60008060408385031215613dbe57600080fd5b82359150602083013567ffffffffffffffff811115613ddc57600080fd5b613cde85828601613b65565b60008060008060808587031215613dfe57600080fd5b843567ffffffffffffffff80821115613e1657600080fd5b613e2288838901613b65565b95506020870135915080821115613e3857600080fd5b613e4488838901613b65565b94506040870135915080821115613e5a57600080fd5b613e6688838901613b65565b93506060870135915080821115613e7c57600080fd5b50613e8987828801613b65565b91505092959194509250565b805182526000602080830151606082860152613eb460608601826139a1565b9050604084015185820360408701528181518084528484019150848160051b850101858401935060005b82811015613f0c57601f19868303018452613efa828651613a48565b94870194938701939150600101613ede565b5098975050505050505050565b6020815260006133216020830184613e95565b60008060008060808587031215613f4257600080fd5b5050823594602084013594506040840135936060013592509050565b60208152600061332160208301846139cd565b6000602080830181845280855180835260408601915060408160051b870101925083870160005b82811015613b4257603f19888603018452613fb4858351613e95565b94509285019290850190600101613f98565b6020815260006133216020830184613a48565b600080600080600060a08688031215613ff157600080fd5b8535945060208601359350604086013567ffffffffffffffff8082111561401757600080fd5b61402389838a01613b65565b9450606088013591508082111561403957600080fd5b5061404688828901613b65565b95989497509295608001359392505050565b60008060006060848603121561406d57600080fd5b505081359360208301359350604090920135919050565b85815260a06020820152600061409d60a08301876139a1565b82810360408401526140af81876139a1565b905082810360608401526140c381866139a1565b905082810360808401526140d781856139a1565b98975050505050505050565b634e487b7160e01b600052601160045260246000fd5b6000821982111561410c5761410c6140e3565b500190565b634e487b7160e01b600052603260045260246000fd5b600181811c9082168061413b57607f821691505b6020821081036124a357634e487b7160e01b600052602260045260246000fd5b60006001820161416d5761416d6140e3565b5060010190565b600080835481600182811c91508083168061419057607f831692505b602080841082036141af57634e487b7160e01b86526022600452602486fd5b8180156141c357600181146141d457614201565b60ff19861689528489019650614201565b60008a81526020902060005b868110156141f95781548b8201529085019083016141e0565b505084890196505b509498975050505050505050565b60208152600061332160208301846139a1565b60208082526017908201527f43617465676f727920646f6573206e6f74206578697374000000000000000000604082015260600190565b6000825161426b818460208701613971565b9190910192915050565b600082821015614287576142876140e3565b50039056fea264697066735822122041cf320ecad39c46b21e1fb8f9abc6af5f6a32098c74081eb731914fba63142f64736f6c634300080d0033",
  "immutableReferences": {},
  "source": "// SPDX-License-Identifier: MIT\r\npragma solidity >=0.4.22 <0.9.0;\r\n\r\ncontract VotingSystem {\r\n    address public owner;\r\n    struct Voter {\r\n        uint256 id;\r\n        string key;\r\n        string email;\r\n        string password;\r\n        string role;\r\n    }\r\n\r\n    struct Event {\r\n        uint256 eventId;\r\n        string eventName;\r\n        uint256 categoryId;\r\n        Candidate[] candidates;\r\n        uint256 candidateCount;\r\n        uint256 status; // 1: Upcoming, 2: In Progress, 3: Completed, 4 Cancel\r\n    }\r\n\r\n    struct Category {\r\n        uint256 categoryId;\r\n        string categoryName;\r\n        Event[] events; //category has many event\r\n    }\r\n\r\n    struct Candidate {\r\n        uint256 id;\r\n        string name;\r\n        string description;\r\n        uint256 studentId;\r\n        uint256 categoryId;\r\n        uint256 eventId;\r\n        uint256 voteCount;\r\n        bool win;\r\n    }\r\n\r\n    struct voteEventStruct {\r\n        uint256 id;\r\n        uint256 voterId;\r\n        uint256 categoryId;\r\n        uint256 eventId;\r\n        bool voted;\r\n    }\r\n\r\n    event CategoryAdded(uint256 indexed categoryId, string categoryName);\r\n    event VoterAdded(uint256 indexed voterId, string voter_key);\r\n    event EventAdded(uint256 indexed eventId, string eventName);\r\n    event CandidateAdded(uint256 indexed eventId, string eventName);\r\n    event VoteEvent(\r\n        uint256 indexed voterId,\r\n        string indexed categoryEvent,\r\n        uint256 indexed candidate\r\n    );\r\n\r\n    mapping(uint256 => Category) categories;\r\n    mapping(uint256 => Event) events;\r\n    mapping(uint256 => Candidate) candidates;\r\n    mapping(uint256 => voteEventStruct) public voteEvents;\r\n    mapping(uint256 => Voter) public voters;\r\n\r\n    uint256 categoryCount;\r\n    uint256 candidateCount;\r\n    uint256 eventCount;\r\n    uint256 voteEventCount;\r\n    uint256 voterCount;\r\n\r\n    constructor() {\r\n        owner = msg.sender;\r\n    }\r\n\r\n    function addVoter(\r\n        string memory _key,\r\n        string memory _email,\r\n        string memory _password,\r\n        string memory _role\r\n    ) public {\r\n        for (uint256 i = 1; i <= voterCount; i++) {\r\n            require(\r\n                keccak256(bytes(_key)) != keccak256(bytes(voters[i].key)),\r\n                \"Voter already exists\"\r\n            );\r\n        }\r\n\r\n        // total category plus 1, use it as the category's id\r\n        voterCount += 1;\r\n\r\n        // add the category details in the category list\r\n        Voter storage voter = voters[voterCount];\r\n        voter.id = voterCount;\r\n        voter.key = _key;\r\n        voter.email = _email;\r\n        voter.password = _password;\r\n        voter.role = _role;\r\n\r\n        // emit the category added event\r\n        emit VoterAdded(voterCount, _key);\r\n    }\r\n\r\n    function loginVoter(string memory _email, string memory _password)\r\n        public\r\n        view\r\n        returns (Voter memory)\r\n    {\r\n        Voter memory voterFound = getVoter(_email,_password);\r\n        require(voterFound.id !=0, \"Your email or password is incorrect!\");\r\n\r\n       return voterFound;\r\n    }\r\n\r\n    function getVoter(string memory _email, string memory _password)\r\n        public\r\n        view\r\n        returns (Voter memory)\r\n    {\r\n        for (uint256 i = 1; i <= voterCount; i++) {\r\n           if((keccak256(bytes(_email)) ==\r\n                    keccak256(bytes(voters[i].email)) &&\r\n                    keccak256(bytes(_password)) ==\r\n                    keccak256(bytes(voters[i].password)))\r\n            ){\r\n                return voters[i];\r\n            }\r\n        }\r\n\r\n        // Event not found in the specified category\r\n        return Voter(0, \"\", \"\",\"\",\"\");\r\n    }\r\n\r\n    function addCategory(string memory _categoryName) public {\r\n        // check if the category is exist\r\n        for (uint256 i = 1; i <= categoryCount; i++) {\r\n            require(\r\n                keccak256(bytes(_categoryName)) !=\r\n                    keccak256(bytes(categories[i].categoryName)),\r\n                \"Category already exists\"\r\n            );\r\n        }\r\n\r\n        // total category plus 1, use it as the category's id\r\n        categoryCount += 1;\r\n\r\n        // add the category details in the category list\r\n        Category storage category = categories[categoryCount];\r\n        category.categoryName = _categoryName;\r\n        category.categoryId = categoryCount;\r\n\r\n        // emit the category added event\r\n        emit CategoryAdded(categoryCount, _categoryName);\r\n    }\r\n\r\n    function updateCategory(uint256 _categoryId, string memory _newCategoryName) public {\r\n        // Check if the category exists\r\n        require(categories[_categoryId].categoryId != 0, \"Category does not exist\");\r\n\r\n        // Check if the new category name is different from the existing name in the list\r\n        // and not the same as the current category name being updated\r\n        for (uint256 i = 1; i <= categoryCount; i++) {\r\n            if (i != _categoryId) {\r\n                require(\r\n                    keccak256(bytes(_newCategoryName)) !=\r\n                    keccak256(bytes(categories[i].categoryName)),\r\n                    \"Category name already exists\"\r\n                );\r\n            }\r\n        }\r\n\r\n        // Update the category name\r\n        categories[_categoryId].categoryName = _newCategoryName;\r\n\r\n        // Emit the CategoryAdded event for both adding and updating\r\n        emit CategoryAdded(_categoryId, _newCategoryName);\r\n    }\r\n\r\n\r\n    function addEvent(uint256 _categoryId, string memory _eventName) public {\r\n        // check if the category has exists\r\n        require(\r\n            categories[_categoryId].categoryId != 0,\r\n            \"Category has not exists\"\r\n        );\r\n\r\n        require(\r\n            isEventExists(_categoryId, _eventName) == false,\r\n            \"Event already exists\"\r\n        );\r\n\r\n        // find out the category in list by using the paramerter category name\r\n        Category storage category = categories[_categoryId];\r\n\r\n        // add the event in the category list\r\n        uint256 eventId = eventCount += 1;\r\n\r\n        Event storage newEvent = category.events.push();\r\n        newEvent.eventId = eventId;\r\n        newEvent.eventName = _eventName;\r\n        newEvent.categoryId = _categoryId;\r\n        newEvent.status = 1;\r\n\r\n        // // Add candidates to the event\r\n        // for (uint256 i = 0; i < _candidateNames.length; i++) {\r\n        //     string memory candidateName = _candidateNames[i];\r\n        //     candidateCount += 1;\r\n        //     // Create a new candidate\r\n        //     Candidate memory newCandidate = Candidate({\r\n        //         id: candidateCount,\r\n        //         name: candidateName,\r\n        //         CategoryId: _categoryId,\r\n        //         eventName: _eventName,\r\n        //         voteCount: 0\r\n        //     });\r\n        //     // Push the new candidate to the candidates array\r\n        //     candidates[candidateCount] = newCandidate;\r\n        //     listEvent.candidates.push(newCandidate);\r\n        //     newEvent.candidates.push(newCandidate);\r\n        // }\r\n    }\r\n\r\n    function isEventExists(uint256 _categoryId, string memory _eventName)\r\n        public\r\n        view\r\n        returns (bool)\r\n    {\r\n        // Check if the category exists\r\n        require(\r\n            categories[_categoryId].categoryId != 0,\r\n            \"Category does not exist\"\r\n        );\r\n\r\n        // Loop through the events in the specified category\r\n        for (uint256 i = 0; i < categories[_categoryId].events.length; i++) {\r\n            if (\r\n                keccak256(bytes(categories[_categoryId].events[i].eventName)) ==\r\n                keccak256(bytes(_eventName))\r\n            ) {\r\n                // Event found\r\n                return true;\r\n            }\r\n        }\r\n\r\n        // Event not found in the specified category\r\n        return false;\r\n    }\r\n\r\n    function addCandidateToEvent(\r\n        uint256 _categoryId,\r\n        uint256 _eventId,\r\n        string memory _candidateName,\r\n        string memory _description,\r\n        uint256 _studentId\r\n    ) public {\r\n        require(\r\n            categories[_categoryId].categoryId != 0,\r\n            \"Category has not exists\"\r\n        );\r\n\r\n        require(\r\n            isEventExists(_categoryId, _eventId) == true,\r\n            \"Event has not exists\"\r\n        );\r\n\r\n        require(\r\n            isCandidateExistsInEvent(_categoryId, _eventId, _studentId) ==\r\n                false,\r\n            \"Candidate existed\"\r\n        );\r\n\r\n        candidateCount += 1;\r\n\r\n        // Create a new candidate\r\n        Candidate memory newCandidate = Candidate({\r\n            id: candidateCount,\r\n            name: _candidateName,\r\n            studentId: _studentId,\r\n            categoryId: _categoryId,\r\n            eventId: _eventId,\r\n            description: _description,\r\n            win: false,\r\n            voteCount: 0\r\n        });\r\n\r\n        // find the certain category\r\n        Category storage category = categories[_categoryId];\r\n        // find the certain event in certain category\r\n        for (uint256 i = 0; i < category.events.length; i++) {\r\n            if (category.events[i].eventId == _eventId) {\r\n                category.events[i].candidates.push(newCandidate);\r\n                category.events[i].candidateCount += 1;\r\n            }\r\n        }\r\n    }\r\n\r\n    function isCandidateExistsInEvent(\r\n        uint256 _categoryId,\r\n        uint256 _eventId,\r\n        uint256 _studentId\r\n    ) public view returns (bool) {\r\n        // Check if the category exists\r\n        require(\r\n            categories[_categoryId].categoryId != 0,\r\n            \"Category does not exist\"\r\n        );\r\n\r\n        Candidate[] memory candidatesFound = getAllCandidatesInEvent(\r\n            _categoryId,\r\n            _eventId\r\n        );\r\n\r\n        // Loop through the events in the specified category\r\n\r\n        for (uint256 i = 0; i < candidatesFound.length; i++) {\r\n            if (candidatesFound[i].studentId == _studentId) {\r\n                return true;\r\n            }\r\n        }\r\n\r\n        // Event not found in the specified category\r\n        return false;\r\n    }\r\n\r\n    function isCandidateExistsInEventById(\r\n        uint256 _categoryId,\r\n        uint256 _eventId,\r\n        uint256 _candidateId\r\n    ) public view returns (bool) {\r\n        // Check if the category exists\r\n        require(\r\n            categories[_categoryId].categoryId != 0,\r\n            \"Category does not exist\"\r\n        );\r\n\r\n        Candidate[] memory candidatesFound = getAllCandidatesInEvent(\r\n            _categoryId,\r\n            _eventId\r\n        );\r\n\r\n        // Loop through the events in the specified category\r\n\r\n        for (uint256 i = 0; i < candidatesFound.length; i++) {\r\n            if (candidatesFound[i].id == _candidateId) {\r\n                return true;\r\n            }\r\n        }\r\n\r\n        // Event not found in the specified category\r\n        return false;\r\n    }\r\n\r\n    function isEventExists(uint256 _categoryId, uint256 _eventId)\r\n        public\r\n        view\r\n        returns (bool)\r\n    {\r\n        // Check if the category exists\r\n        require(\r\n            categories[_categoryId].categoryId != 0,\r\n            \"Category does not exist\"\r\n        );\r\n\r\n        // Loop through the events in the specified category\r\n        for (uint256 i = 0; i < categories[_categoryId].events.length; i++) {\r\n            if (categories[_categoryId].events[i].eventId == _eventId) {\r\n                // Event found\r\n                return true;\r\n            }\r\n        }\r\n\r\n        // Event not found in the specified category\r\n        return false;\r\n    }\r\n\r\n    function getAllCategoryEvent(uint256 _categoryId)\r\n        public\r\n        view\r\n        returns (Event[] memory foundEvent)\r\n    {\r\n        // find the certain category\r\n        Category storage category = categories[_categoryId];\r\n\r\n        // declare an array variable for storing events\r\n        Event[] memory eventsFound = new Event[](category.events.length);\r\n\r\n        // get all the event name by searching the event in list\r\n        for (uint256 i = 0; i < category.events.length; i++) {\r\n            eventsFound[i] = category.events[i];\r\n        }\r\n\r\n        return (eventsFound);\r\n    }\r\n\r\n    function getAllCandidatesInEvent(uint256 _categoryId, uint256 _eventId)\r\n        public\r\n        view\r\n        returns (Candidate[] memory foundCandidates)\r\n    {\r\n        // find the certain category\r\n        Category storage category = categories[_categoryId];\r\n        // find the certain event in certain category\r\n        for (uint256 i = 0; i < category.events.length; i++) {\r\n            if (category.events[i].eventId == _eventId) {\r\n                Candidate[] memory candidatesFound = new Candidate[](\r\n                    category.events[i].candidateCount\r\n                );\r\n\r\n                for (\r\n                    uint256 j = 0;\r\n                    j < category.events[i].candidates.length;\r\n                    j++\r\n                ) {\r\n                    candidatesFound[j] = category.events[i].candidates[j];\r\n                }\r\n                return (candidatesFound);\r\n            }\r\n        }\r\n    }\r\n\r\n    function getAllCandidates() public view returns (Candidate[] memory) {\r\n        Candidate[] memory candidatesFound = new Candidate[](candidateCount);\r\n        Event[] memory eventFound = new Event[](eventCount);\r\n\r\n        // get all the events\r\n        eventFound = getAllEvent();\r\n        uint256 count = 0;\r\n        // find the candidates inside all the event\r\n        for (uint256 i = 0; i < eventCount; i++) {\r\n            for (uint256 j = 0; j < eventFound[i].candidates.length; j++) {\r\n                candidatesFound[count] = eventFound[i].candidates[j];\r\n                count += 1;\r\n            }\r\n        }\r\n\r\n        return candidatesFound;\r\n    }\r\n\r\n    function getAllCategory() public view returns (Category[] memory) {\r\n        //Candidate[] memory candidatesFound = new Candidate[](candidateCount);\r\n        Category[] memory categoriesFound = new Category[](categoryCount);\r\n        // Iterate through all stored structs\r\n        for (uint256 i = 1; i <= categoryCount; i++) {\r\n            categoriesFound[i - 1] = categories[i];\r\n        }\r\n\r\n        return categoriesFound;\r\n    }\r\n\r\n    function getCategoryById(uint256 _categoryId)\r\n        public\r\n        view\r\n        returns (Category memory)\r\n    {\r\n        return categories[_categoryId];\r\n    }\r\n\r\n    function getAllEvent() public view returns (Event[] memory) {\r\n        // Initialize the array with the correct size\r\n        Event[] memory eventFound = new Event[](eventCount);\r\n        uint256 count = 0;\r\n\r\n        // Iterate through all categories and events\r\n        for (uint256 i = 0; i < categoryCount; i++) {\r\n            for (uint256 j = 0; j < categories[i + 1].events.length; j++) {\r\n                eventFound[count] = categories[i + 1].events[j];\r\n                count += 1;\r\n            }\r\n        }\r\n\r\n        return eventFound;\r\n    }\r\n\r\n    function getEventById(uint256 _categoryId, uint256 _eventId)\r\n        public\r\n        view\r\n        returns (Event memory)\r\n    {\r\n        Category memory categoriesFound = categories[_categoryId];\r\n        Event memory eventFound;\r\n        // Iterate through all stored structs\r\n        for (uint256 i = 0; i < categoriesFound.events.length; i++) {\r\n            if (categoriesFound.events[i].eventId == _eventId) {\r\n                eventFound = categoriesFound.events[i];\r\n            }\r\n        }\r\n\r\n        return eventFound;\r\n    }\r\n\r\n    function vote(\r\n        uint256 _voterId,\r\n        uint256 _candidateId,\r\n        uint256 _categoryId,\r\n        uint256 _eventId\r\n    ) external {\r\n        require(\r\n            categories[_categoryId].categoryId != 0,\r\n            \"Category does not exists\"\r\n        );\r\n\r\n        require(eventCount != 0, \"Event does not exists\");\r\n\r\n        // for (uint256 i = 1; i <= categories[_categoryId].events.length; i++) {\r\n        //     require(categories[_categoryId].events[i-0].eventId == _eventId, \"noobbbbb\");\r\n        // }\r\n\r\n        require(\r\n            isCandidateExistsInEventById(_categoryId, _eventId, _candidateId) ==\r\n                true,\r\n            \"Candidates does not exists\"\r\n        );\r\n\r\n        // check if has voted\r\n        for (uint256 i = 1; i <= voteEventCount; i++) {\r\n            if (\r\n                _voterId == voteEvents[i].voterId &&\r\n                _categoryId == voteEvents[i].categoryId &&\r\n                _eventId == voteEvents[i].eventId\r\n            ) {\r\n                require(!voteEvents[i].voted, \"You already voted\");\r\n                break;\r\n            }\r\n        }\r\n\r\n        // add count on the candidate\r\n        voteEventCount += 1;\r\n\r\n        // Create a new voteEventStruct\r\n        voteEventStruct memory newVoteEvent = voteEventStruct({\r\n            id: voteEventCount,\r\n            voterId: _voterId,\r\n            categoryId: _categoryId,\r\n            eventId: _eventId,\r\n            voted: true\r\n        });\r\n\r\n        voteEvents[voteEventCount] = newVoteEvent;\r\n\r\n        // add the vote count of the chosen candidate\r\n        addVoteCount(_candidateId);\r\n        addVoteCountIn(_categoryId, _eventId, _candidateId);\r\n\r\n        string memory concatenatedValues = string(\r\n            abi.encodePacked(_categoryId, _eventId)\r\n        );\r\n\r\n        emit VoteEvent(_voterId, concatenatedValues, _candidateId);\r\n    }\r\n\r\n    function addVoteCount(uint256 _candidateId) internal {\r\n        candidates[_candidateId].voteCount += 1;\r\n    }\r\n\r\n    function addVoteCountIn(\r\n        uint256 _categoryId,\r\n        uint256 _eventId,\r\n        uint256 _candidateId\r\n    ) internal {\r\n        // get the events inside the categories\r\n        Event[] storage eventsFound = categories[_categoryId].events;\r\n\r\n        // find the event with param\r\n        for (uint256 i = 0; i < eventsFound.length; i++) {\r\n            if (eventsFound[i].eventId == _eventId) {\r\n                // get the candidate inside the event\r\n                Candidate[] storage candidatesFound = eventsFound[i].candidates;\r\n                // find the candidate\r\n                for (uint256 j = 0; j < candidatesFound.length; j++) {\r\n                    if (candidatesFound[j].id == _candidateId) {\r\n                        // found the candidate and plus 1 at the voteCount\r\n                        candidatesFound[j].voteCount += 1;\r\n                        break;\r\n                    }\r\n                }\r\n            }\r\n        }\r\n    }\r\n\r\n    function getCandidateVoteCount(uint256 _candidateId)\r\n        public\r\n        view\r\n        returns (uint256 count)\r\n    {\r\n        return candidates[_candidateId].voteCount;\r\n    }\r\n\r\n    function getVoteEventCandidate(uint256 _categoryId, uint256 _eventId)\r\n        public\r\n        view\r\n        returns (Candidate[] memory)\r\n    {\r\n        Event[] memory eventsFound = categories[_categoryId].events;\r\n\r\n        for (uint256 i = 0; i < eventsFound.length; i++) {\r\n            if (eventsFound[i].eventId == _eventId) {\r\n                return eventsFound[i].candidates;\r\n            }\r\n        }\r\n\r\n        // If the event is not found, return an empty array or handle the situation accordingly\r\n        return new Candidate[](0);\r\n    }\r\n\r\n    function whoIsTheWinner(uint256 _categoryId, uint256 _eventId)\r\n        public\r\n        view\r\n        returns (Candidate memory)\r\n    {\r\n        Event[] memory eventsFound = categories[_categoryId].events;\r\n        Candidate[] memory candidatesFound;\r\n\r\n        for (uint256 i = 0; i < eventsFound.length; i++) {\r\n            if (eventsFound[i].eventId == _eventId) {\r\n                candidatesFound = eventsFound[i].candidates;\r\n            }\r\n        }\r\n\r\n        Candidate memory winner = candidatesFound[0];\r\n\r\n        for (uint256 i = 0; i < candidatesFound.length - 1; i++) {\r\n            if (winner.voteCount < candidatesFound[i + 1].voteCount) {\r\n                winner = candidatesFound[i + 1];\r\n            }\r\n        }\r\n\r\n        winner.win = true;\r\n\r\n        // If the event is not found, return an empty array or handle the situation accordingly\r\n        return winner;\r\n    }\r\n}\r\n",
  "sourcePath": "C:\\Users\\User\\FYP1\\contracts\\VotingSystem.sol",
  "compiler": {
    "name": "solc",
    "version": "0.8.13+commit.abaa5c0e.Emscripten.clang"
  },
  "schemaVersion": "3.4.16",
  "updatedAt": "2023-12-07T05:05:32.013Z",
  "networkType": "ethereum",
  "devdoc": {
    "kind": "dev",
    "methods": {},
    "version": 1
  },
  "userdoc": {
    "kind": "user",
    "methods": {},
    "version": 1
  }
}