{
  "contractName": "VotingSystem",
  "abi": [
    {
      "inputs": [],
      "stateMutability": "nonpayable",
      "type": "constructor"
    },
    {
      "anonymous": false,
      "inputs": [
        {
          "indexed": true,
          "internalType": "uint256",
          "name": "eventId",
          "type": "uint256"
        },
        {
          "indexed": false,
          "internalType": "string",
          "name": "eventName",
          "type": "string"
        }
      ],
      "name": "CandidateAdded",
      "type": "event"
    },
    {
      "anonymous": false,
      "inputs": [
        {
          "indexed": true,
          "internalType": "uint256",
          "name": "categoryId",
          "type": "uint256"
        },
        {
          "indexed": false,
          "internalType": "string",
          "name": "categoryName",
          "type": "string"
        }
      ],
      "name": "CategoryAdded",
      "type": "event"
    },
    {
      "anonymous": false,
      "inputs": [
        {
          "indexed": true,
          "internalType": "uint256",
          "name": "eventId",
          "type": "uint256"
        },
        {
          "indexed": false,
          "internalType": "string",
          "name": "eventName",
          "type": "string"
        }
      ],
      "name": "EventAdded",
      "type": "event"
    },
    {
      "anonymous": false,
      "inputs": [
        {
          "indexed": true,
          "internalType": "string",
          "name": "_voterKey",
          "type": "string"
        },
        {
          "indexed": true,
          "internalType": "string",
          "name": "categoryEvent",
          "type": "string"
        },
        {
          "indexed": true,
          "internalType": "uint256",
          "name": "candidate",
          "type": "uint256"
        }
      ],
      "name": "VoteEvent",
      "type": "event"
    },
    {
      "anonymous": false,
      "inputs": [
        {
          "indexed": true,
          "internalType": "uint256",
          "name": "voterId",
          "type": "uint256"
        },
        {
          "indexed": false,
          "internalType": "string",
          "name": "voter_key",
          "type": "string"
        }
      ],
      "name": "VoterAdded",
      "type": "event"
    },
    {
      "inputs": [],
      "name": "owner",
      "outputs": [
        {
          "internalType": "address",
          "name": "",
          "type": "address"
        }
      ],
      "stateMutability": "view",
      "type": "function",
      "constant": true
    },
    {
      "inputs": [
        {
          "internalType": "string",
          "name": "",
          "type": "string"
        }
      ],
      "name": "resetPasswords",
      "outputs": [
        {
          "internalType": "string",
          "name": "email",
          "type": "string"
        },
        {
          "internalType": "string",
          "name": "token",
          "type": "string"
        },
        {
          "internalType": "uint256",
          "name": "code",
          "type": "uint256"
        },
        {
          "internalType": "uint256",
          "name": "createdTime",
          "type": "uint256"
        }
      ],
      "stateMutability": "view",
      "type": "function",
      "constant": true
    },
    {
      "inputs": [
        {
          "internalType": "uint256",
          "name": "",
          "type": "uint256"
        }
      ],
      "name": "voteEvents",
      "outputs": [
        {
          "internalType": "uint256",
          "name": "id",
          "type": "uint256"
        },
        {
          "internalType": "string",
          "name": "voterKey",
          "type": "string"
        },
        {
          "internalType": "uint256",
          "name": "categoryId",
          "type": "uint256"
        },
        {
          "internalType": "uint256",
          "name": "eventId",
          "type": "uint256"
        },
        {
          "internalType": "bool",
          "name": "voted",
          "type": "bool"
        }
      ],
      "stateMutability": "view",
      "type": "function",
      "constant": true
    },
    {
      "inputs": [
        {
          "internalType": "uint256",
          "name": "",
          "type": "uint256"
        }
      ],
      "name": "voters",
      "outputs": [
        {
          "internalType": "uint256",
          "name": "id",
          "type": "uint256"
        },
        {
          "internalType": "string",
          "name": "key",
          "type": "string"
        },
        {
          "internalType": "string",
          "name": "email",
          "type": "string"
        },
        {
          "internalType": "bytes32",
          "name": "password",
          "type": "bytes32"
        },
        {
          "internalType": "string",
          "name": "role",
          "type": "string"
        },
        {
          "internalType": "uint256",
          "name": "status",
          "type": "uint256"
        },
        {
          "internalType": "string",
          "name": "token",
          "type": "string"
        }
      ],
      "stateMutability": "view",
      "type": "function",
      "constant": true
    },
    {
      "inputs": [
        {
          "internalType": "string",
          "name": "_email",
          "type": "string"
        },
        {
          "internalType": "string",
          "name": "_token",
          "type": "string"
        },
        {
          "internalType": "uint256",
          "name": "_code",
          "type": "uint256"
        }
      ],
      "name": "addResetPasswordRequest",
      "outputs": [],
      "stateMutability": "nonpayable",
      "type": "function"
    },
    {
      "inputs": [
        {
          "internalType": "string",
          "name": "_email",
          "type": "string"
        }
      ],
      "name": "isRecentResetRequest",
      "outputs": [
        {
          "internalType": "bool",
          "name": "",
          "type": "bool"
        }
      ],
      "stateMutability": "view",
      "type": "function",
      "constant": true
    },
    {
      "inputs": [
        {
          "internalType": "string",
          "name": "_token",
          "type": "string"
        }
      ],
      "name": "isResetPasswordTokenValid",
      "outputs": [
        {
          "internalType": "bool",
          "name": "",
          "type": "bool"
        },
        {
          "internalType": "string",
          "name": "",
          "type": "string"
        }
      ],
      "stateMutability": "view",
      "type": "function",
      "constant": true
    },
    {
      "inputs": [
        {
          "internalType": "uint256",
          "name": "_userInputCode",
          "type": "uint256"
        }
      ],
      "name": "isVerificationCodeValid",
      "outputs": [
        {
          "internalType": "bool",
          "name": "",
          "type": "bool"
        }
      ],
      "stateMutability": "view",
      "type": "function",
      "constant": true
    },
    {
      "inputs": [
        {
          "internalType": "string",
          "name": "_email",
          "type": "string"
        },
        {
          "internalType": "string",
          "name": "_password",
          "type": "string"
        }
      ],
      "name": "updateUserPassword",
      "outputs": [],
      "stateMutability": "nonpayable",
      "type": "function"
    },
    {
      "inputs": [
        {
          "internalType": "string",
          "name": "_email",
          "type": "string"
        },
        {
          "internalType": "string",
          "name": "_password",
          "type": "string"
        },
        {
          "internalType": "string",
          "name": "_role",
          "type": "string"
        }
      ],
      "name": "addAdmin",
      "outputs": [],
      "stateMutability": "nonpayable",
      "type": "function"
    },
    {
      "inputs": [],
      "name": "getAllAdmin",
      "outputs": [
        {
          "components": [
            {
              "internalType": "uint256",
              "name": "id",
              "type": "uint256"
            },
            {
              "internalType": "string",
              "name": "key",
              "type": "string"
            },
            {
              "internalType": "string",
              "name": "email",
              "type": "string"
            },
            {
              "internalType": "bytes32",
              "name": "password",
              "type": "bytes32"
            },
            {
              "internalType": "string",
              "name": "role",
              "type": "string"
            },
            {
              "internalType": "uint256",
              "name": "status",
              "type": "uint256"
            },
            {
              "internalType": "string",
              "name": "token",
              "type": "string"
            }
          ],
          "internalType": "struct VotingSystem.Voter[]",
          "name": "",
          "type": "tuple[]"
        }
      ],
      "stateMutability": "view",
      "type": "function",
      "constant": true
    },
    {
      "inputs": [
        {
          "internalType": "uint256",
          "name": "_id",
          "type": "uint256"
        }
      ],
      "name": "getAdminById",
      "outputs": [
        {
          "components": [
            {
              "internalType": "uint256",
              "name": "id",
              "type": "uint256"
            },
            {
              "internalType": "string",
              "name": "key",
              "type": "string"
            },
            {
              "internalType": "string",
              "name": "email",
              "type": "string"
            },
            {
              "internalType": "bytes32",
              "name": "password",
              "type": "bytes32"
            },
            {
              "internalType": "string",
              "name": "role",
              "type": "string"
            },
            {
              "internalType": "uint256",
              "name": "status",
              "type": "uint256"
            },
            {
              "internalType": "string",
              "name": "token",
              "type": "string"
            }
          ],
          "internalType": "struct VotingSystem.Voter",
          "name": "",
          "type": "tuple"
        }
      ],
      "stateMutability": "view",
      "type": "function",
      "constant": true
    },
    {
      "inputs": [
        {
          "internalType": "uint256",
          "name": "_adminId",
          "type": "uint256"
        },
        {
          "internalType": "string",
          "name": "_newEmail",
          "type": "string"
        },
        {
          "internalType": "string",
          "name": "_newPassword",
          "type": "string"
        }
      ],
      "name": "editAdminEmailPassword",
      "outputs": [],
      "stateMutability": "nonpayable",
      "type": "function"
    },
    {
      "inputs": [
        {
          "internalType": "uint256",
          "name": "_adminId",
          "type": "uint256"
        },
        {
          "internalType": "uint256",
          "name": "_newStatus",
          "type": "uint256"
        }
      ],
      "name": "editUserStatus",
      "outputs": [],
      "stateMutability": "nonpayable",
      "type": "function"
    },
    {
      "inputs": [],
      "name": "getAllVoter",
      "outputs": [
        {
          "components": [
            {
              "internalType": "uint256",
              "name": "id",
              "type": "uint256"
            },
            {
              "internalType": "string",
              "name": "key",
              "type": "string"
            },
            {
              "internalType": "string",
              "name": "email",
              "type": "string"
            },
            {
              "internalType": "bytes32",
              "name": "password",
              "type": "bytes32"
            },
            {
              "internalType": "string",
              "name": "role",
              "type": "string"
            },
            {
              "internalType": "uint256",
              "name": "status",
              "type": "uint256"
            },
            {
              "internalType": "string",
              "name": "token",
              "type": "string"
            }
          ],
          "internalType": "struct VotingSystem.Voter[]",
          "name": "",
          "type": "tuple[]"
        }
      ],
      "stateMutability": "view",
      "type": "function",
      "constant": true
    },
    {
      "inputs": [
        {
          "internalType": "string",
          "name": "_key",
          "type": "string"
        },
        {
          "internalType": "string",
          "name": "_email",
          "type": "string"
        },
        {
          "internalType": "string",
          "name": "_password",
          "type": "string"
        },
        {
          "internalType": "string",
          "name": "_role",
          "type": "string"
        },
        {
          "internalType": "string",
          "name": "_token",
          "type": "string"
        }
      ],
      "name": "addVoter",
      "outputs": [],
      "stateMutability": "nonpayable",
      "type": "function"
    },
    {
      "inputs": [
        {
          "internalType": "string",
          "name": "_email",
          "type": "string"
        },
        {
          "internalType": "string",
          "name": "_password",
          "type": "string"
        }
      ],
      "name": "loginVoter",
      "outputs": [
        {
          "components": [
            {
              "internalType": "uint256",
              "name": "id",
              "type": "uint256"
            },
            {
              "internalType": "string",
              "name": "key",
              "type": "string"
            },
            {
              "internalType": "string",
              "name": "email",
              "type": "string"
            },
            {
              "internalType": "bytes32",
              "name": "password",
              "type": "bytes32"
            },
            {
              "internalType": "string",
              "name": "role",
              "type": "string"
            },
            {
              "internalType": "uint256",
              "name": "status",
              "type": "uint256"
            },
            {
              "internalType": "string",
              "name": "token",
              "type": "string"
            }
          ],
          "internalType": "struct VotingSystem.Voter",
          "name": "",
          "type": "tuple"
        }
      ],
      "stateMutability": "view",
      "type": "function",
      "constant": true
    },
    {
      "inputs": [
        {
          "internalType": "string",
          "name": "_email",
          "type": "string"
        },
        {
          "internalType": "string",
          "name": "_password",
          "type": "string"
        }
      ],
      "name": "getVoterByEmailPassword",
      "outputs": [
        {
          "components": [
            {
              "internalType": "uint256",
              "name": "id",
              "type": "uint256"
            },
            {
              "internalType": "string",
              "name": "key",
              "type": "string"
            },
            {
              "internalType": "string",
              "name": "email",
              "type": "string"
            },
            {
              "internalType": "bytes32",
              "name": "password",
              "type": "bytes32"
            },
            {
              "internalType": "string",
              "name": "role",
              "type": "string"
            },
            {
              "internalType": "uint256",
              "name": "status",
              "type": "uint256"
            },
            {
              "internalType": "string",
              "name": "token",
              "type": "string"
            }
          ],
          "internalType": "struct VotingSystem.Voter",
          "name": "",
          "type": "tuple"
        }
      ],
      "stateMutability": "view",
      "type": "function",
      "constant": true
    },
    {
      "inputs": [
        {
          "internalType": "uint256",
          "name": "_voterId",
          "type": "uint256"
        }
      ],
      "name": "getVoterEmailById",
      "outputs": [
        {
          "internalType": "string",
          "name": "",
          "type": "string"
        }
      ],
      "stateMutability": "view",
      "type": "function",
      "constant": true
    },
    {
      "inputs": [
        {
          "internalType": "string",
          "name": "_email",
          "type": "string"
        }
      ],
      "name": "checkUserExistByEmail",
      "outputs": [
        {
          "internalType": "bool",
          "name": "",
          "type": "bool"
        }
      ],
      "stateMutability": "view",
      "type": "function",
      "constant": true
    },
    {
      "inputs": [
        {
          "internalType": "string",
          "name": "_key",
          "type": "string"
        },
        {
          "internalType": "string",
          "name": "_password",
          "type": "string"
        }
      ],
      "name": "updateVoterPassword",
      "outputs": [],
      "stateMutability": "nonpayable",
      "type": "function"
    },
    {
      "inputs": [
        {
          "internalType": "string",
          "name": "_token",
          "type": "string"
        }
      ],
      "name": "verifyVoterAccount",
      "outputs": [
        {
          "internalType": "bool",
          "name": "",
          "type": "bool"
        }
      ],
      "stateMutability": "nonpayable",
      "type": "function"
    },
    {
      "inputs": [
        {
          "internalType": "string",
          "name": "_email",
          "type": "string"
        },
        {
          "internalType": "string",
          "name": "_password",
          "type": "string"
        }
      ],
      "name": "getVoterStatus",
      "outputs": [
        {
          "internalType": "uint256",
          "name": "status",
          "type": "uint256"
        }
      ],
      "stateMutability": "view",
      "type": "function",
      "constant": true
    },
    {
      "inputs": [
        {
          "internalType": "string",
          "name": "_email",
          "type": "string"
        },
        {
          "internalType": "string",
          "name": "_password",
          "type": "string"
        }
      ],
      "name": "checkVoterEmailPassword",
      "outputs": [
        {
          "internalType": "bool",
          "name": "foundVoter",
          "type": "bool"
        }
      ],
      "stateMutability": "view",
      "type": "function",
      "constant": true
    },
    {
      "inputs": [
        {
          "internalType": "string",
          "name": "_key",
          "type": "string"
        }
      ],
      "name": "isVoterExist",
      "outputs": [
        {
          "internalType": "bool",
          "name": "",
          "type": "bool"
        }
      ],
      "stateMutability": "view",
      "type": "function",
      "constant": true
    },
    {
      "inputs": [
        {
          "internalType": "uint256",
          "name": "_categoryId",
          "type": "uint256"
        },
        {
          "internalType": "uint256",
          "name": "_eventId",
          "type": "uint256"
        },
        {
          "internalType": "uint256",
          "name": "_studentId",
          "type": "uint256"
        }
      ],
      "name": "isCandidateExistsInEvent",
      "outputs": [
        {
          "internalType": "bool",
          "name": "",
          "type": "bool"
        }
      ],
      "stateMutability": "view",
      "type": "function",
      "constant": true
    },
    {
      "inputs": [
        {
          "internalType": "uint256",
          "name": "_categoryId",
          "type": "uint256"
        },
        {
          "internalType": "uint256",
          "name": "_eventId",
          "type": "uint256"
        },
        {
          "internalType": "uint256",
          "name": "_candidateId",
          "type": "uint256"
        }
      ],
      "name": "isCandidateExistsInEventById",
      "outputs": [
        {
          "internalType": "bool",
          "name": "",
          "type": "bool"
        }
      ],
      "stateMutability": "view",
      "type": "function",
      "constant": true
    },
    {
      "inputs": [
        {
          "internalType": "uint256",
          "name": "_categoryId",
          "type": "uint256"
        },
        {
          "internalType": "uint256",
          "name": "_eventId",
          "type": "uint256"
        }
      ],
      "name": "isEventExistsById",
      "outputs": [
        {
          "internalType": "bool",
          "name": "",
          "type": "bool"
        }
      ],
      "stateMutability": "view",
      "type": "function",
      "constant": true
    },
    {
      "inputs": [
        {
          "internalType": "uint256",
          "name": "_categoryId",
          "type": "uint256"
        }
      ],
      "name": "getAllCategoryEvent",
      "outputs": [
        {
          "components": [
            {
              "internalType": "uint256",
              "name": "eventId",
              "type": "uint256"
            },
            {
              "internalType": "string",
              "name": "eventName",
              "type": "string"
            },
            {
              "internalType": "uint256",
              "name": "categoryId",
              "type": "uint256"
            },
            {
              "components": [
                {
                  "internalType": "uint256",
                  "name": "id",
                  "type": "uint256"
                },
                {
                  "internalType": "string",
                  "name": "name",
                  "type": "string"
                },
                {
                  "internalType": "string",
                  "name": "description",
                  "type": "string"
                },
                {
                  "internalType": "uint256",
                  "name": "studentId",
                  "type": "uint256"
                },
                {
                  "internalType": "uint256",
                  "name": "categoryId",
                  "type": "uint256"
                },
                {
                  "internalType": "uint256",
                  "name": "eventId",
                  "type": "uint256"
                },
                {
                  "internalType": "uint256",
                  "name": "voteCount",
                  "type": "uint256"
                },
                {
                  "internalType": "bool",
                  "name": "win",
                  "type": "bool"
                },
                {
                  "internalType": "string",
                  "name": "imageFileName",
                  "type": "string"
                }
              ],
              "internalType": "struct VotingSystem.Candidate[]",
              "name": "candidates",
              "type": "tuple[]"
            },
            {
              "internalType": "uint256",
              "name": "candidateCount",
              "type": "uint256"
            },
            {
              "internalType": "uint256",
              "name": "startDateTime",
              "type": "uint256"
            },
            {
              "internalType": "uint256",
              "name": "endDateTime",
              "type": "uint256"
            },
            {
              "internalType": "uint256",
              "name": "status",
              "type": "uint256"
            }
          ],
          "internalType": "struct VotingSystem.Event[]",
          "name": "foundEvent",
          "type": "tuple[]"
        }
      ],
      "stateMutability": "view",
      "type": "function",
      "constant": true
    },
    {
      "inputs": [
        {
          "internalType": "uint256",
          "name": "_categoryId",
          "type": "uint256"
        },
        {
          "internalType": "uint256",
          "name": "_eventId",
          "type": "uint256"
        }
      ],
      "name": "getAllCandidatesInEvent",
      "outputs": [
        {
          "components": [
            {
              "internalType": "uint256",
              "name": "id",
              "type": "uint256"
            },
            {
              "internalType": "string",
              "name": "name",
              "type": "string"
            },
            {
              "internalType": "string",
              "name": "description",
              "type": "string"
            },
            {
              "internalType": "uint256",
              "name": "studentId",
              "type": "uint256"
            },
            {
              "internalType": "uint256",
              "name": "categoryId",
              "type": "uint256"
            },
            {
              "internalType": "uint256",
              "name": "eventId",
              "type": "uint256"
            },
            {
              "internalType": "uint256",
              "name": "voteCount",
              "type": "uint256"
            },
            {
              "internalType": "bool",
              "name": "win",
              "type": "bool"
            },
            {
              "internalType": "string",
              "name": "imageFileName",
              "type": "string"
            }
          ],
          "internalType": "struct VotingSystem.Candidate[]",
          "name": "foundCandidates",
          "type": "tuple[]"
        }
      ],
      "stateMutability": "view",
      "type": "function",
      "constant": true
    },
    {
      "inputs": [],
      "name": "getAllCandidates",
      "outputs": [
        {
          "components": [
            {
              "internalType": "uint256",
              "name": "id",
              "type": "uint256"
            },
            {
              "internalType": "string",
              "name": "name",
              "type": "string"
            },
            {
              "internalType": "string",
              "name": "description",
              "type": "string"
            },
            {
              "internalType": "uint256",
              "name": "studentId",
              "type": "uint256"
            },
            {
              "internalType": "uint256",
              "name": "categoryId",
              "type": "uint256"
            },
            {
              "internalType": "uint256",
              "name": "eventId",
              "type": "uint256"
            },
            {
              "internalType": "uint256",
              "name": "voteCount",
              "type": "uint256"
            },
            {
              "internalType": "bool",
              "name": "win",
              "type": "bool"
            },
            {
              "internalType": "string",
              "name": "imageFileName",
              "type": "string"
            }
          ],
          "internalType": "struct VotingSystem.Candidate[]",
          "name": "",
          "type": "tuple[]"
        }
      ],
      "stateMutability": "view",
      "type": "function",
      "constant": true
    },
    {
      "inputs": [],
      "name": "getAllCategory",
      "outputs": [
        {
          "components": [
            {
              "internalType": "uint256",
              "name": "categoryId",
              "type": "uint256"
            },
            {
              "internalType": "string",
              "name": "categoryName",
              "type": "string"
            },
            {
              "components": [
                {
                  "internalType": "uint256",
                  "name": "eventId",
                  "type": "uint256"
                },
                {
                  "internalType": "string",
                  "name": "eventName",
                  "type": "string"
                },
                {
                  "internalType": "uint256",
                  "name": "categoryId",
                  "type": "uint256"
                },
                {
                  "components": [
                    {
                      "internalType": "uint256",
                      "name": "id",
                      "type": "uint256"
                    },
                    {
                      "internalType": "string",
                      "name": "name",
                      "type": "string"
                    },
                    {
                      "internalType": "string",
                      "name": "description",
                      "type": "string"
                    },
                    {
                      "internalType": "uint256",
                      "name": "studentId",
                      "type": "uint256"
                    },
                    {
                      "internalType": "uint256",
                      "name": "categoryId",
                      "type": "uint256"
                    },
                    {
                      "internalType": "uint256",
                      "name": "eventId",
                      "type": "uint256"
                    },
                    {
                      "internalType": "uint256",
                      "name": "voteCount",
                      "type": "uint256"
                    },
                    {
                      "internalType": "bool",
                      "name": "win",
                      "type": "bool"
                    },
                    {
                      "internalType": "string",
                      "name": "imageFileName",
                      "type": "string"
                    }
                  ],
                  "internalType": "struct VotingSystem.Candidate[]",
                  "name": "candidates",
                  "type": "tuple[]"
                },
                {
                  "internalType": "uint256",
                  "name": "candidateCount",
                  "type": "uint256"
                },
                {
                  "internalType": "uint256",
                  "name": "startDateTime",
                  "type": "uint256"
                },
                {
                  "internalType": "uint256",
                  "name": "endDateTime",
                  "type": "uint256"
                },
                {
                  "internalType": "uint256",
                  "name": "status",
                  "type": "uint256"
                }
              ],
              "internalType": "struct VotingSystem.Event[]",
              "name": "events",
              "type": "tuple[]"
            },
            {
              "internalType": "uint256",
              "name": "status",
              "type": "uint256"
            }
          ],
          "internalType": "struct VotingSystem.Category[]",
          "name": "",
          "type": "tuple[]"
        }
      ],
      "stateMutability": "view",
      "type": "function",
      "constant": true
    },
    {
      "inputs": [
        {
          "internalType": "uint256",
          "name": "_categoryId",
          "type": "uint256"
        }
      ],
      "name": "getCategoryById",
      "outputs": [
        {
          "components": [
            {
              "internalType": "uint256",
              "name": "categoryId",
              "type": "uint256"
            },
            {
              "internalType": "string",
              "name": "categoryName",
              "type": "string"
            },
            {
              "components": [
                {
                  "internalType": "uint256",
                  "name": "eventId",
                  "type": "uint256"
                },
                {
                  "internalType": "string",
                  "name": "eventName",
                  "type": "string"
                },
                {
                  "internalType": "uint256",
                  "name": "categoryId",
                  "type": "uint256"
                },
                {
                  "components": [
                    {
                      "internalType": "uint256",
                      "name": "id",
                      "type": "uint256"
                    },
                    {
                      "internalType": "string",
                      "name": "name",
                      "type": "string"
                    },
                    {
                      "internalType": "string",
                      "name": "description",
                      "type": "string"
                    },
                    {
                      "internalType": "uint256",
                      "name": "studentId",
                      "type": "uint256"
                    },
                    {
                      "internalType": "uint256",
                      "name": "categoryId",
                      "type": "uint256"
                    },
                    {
                      "internalType": "uint256",
                      "name": "eventId",
                      "type": "uint256"
                    },
                    {
                      "internalType": "uint256",
                      "name": "voteCount",
                      "type": "uint256"
                    },
                    {
                      "internalType": "bool",
                      "name": "win",
                      "type": "bool"
                    },
                    {
                      "internalType": "string",
                      "name": "imageFileName",
                      "type": "string"
                    }
                  ],
                  "internalType": "struct VotingSystem.Candidate[]",
                  "name": "candidates",
                  "type": "tuple[]"
                },
                {
                  "internalType": "uint256",
                  "name": "candidateCount",
                  "type": "uint256"
                },
                {
                  "internalType": "uint256",
                  "name": "startDateTime",
                  "type": "uint256"
                },
                {
                  "internalType": "uint256",
                  "name": "endDateTime",
                  "type": "uint256"
                },
                {
                  "internalType": "uint256",
                  "name": "status",
                  "type": "uint256"
                }
              ],
              "internalType": "struct VotingSystem.Event[]",
              "name": "events",
              "type": "tuple[]"
            },
            {
              "internalType": "uint256",
              "name": "status",
              "type": "uint256"
            }
          ],
          "internalType": "struct VotingSystem.Category",
          "name": "",
          "type": "tuple"
        }
      ],
      "stateMutability": "view",
      "type": "function",
      "constant": true
    },
    {
      "inputs": [],
      "name": "getAllEvent",
      "outputs": [
        {
          "components": [
            {
              "internalType": "uint256",
              "name": "eventId",
              "type": "uint256"
            },
            {
              "internalType": "string",
              "name": "eventName",
              "type": "string"
            },
            {
              "internalType": "uint256",
              "name": "categoryId",
              "type": "uint256"
            },
            {
              "components": [
                {
                  "internalType": "uint256",
                  "name": "id",
                  "type": "uint256"
                },
                {
                  "internalType": "string",
                  "name": "name",
                  "type": "string"
                },
                {
                  "internalType": "string",
                  "name": "description",
                  "type": "string"
                },
                {
                  "internalType": "uint256",
                  "name": "studentId",
                  "type": "uint256"
                },
                {
                  "internalType": "uint256",
                  "name": "categoryId",
                  "type": "uint256"
                },
                {
                  "internalType": "uint256",
                  "name": "eventId",
                  "type": "uint256"
                },
                {
                  "internalType": "uint256",
                  "name": "voteCount",
                  "type": "uint256"
                },
                {
                  "internalType": "bool",
                  "name": "win",
                  "type": "bool"
                },
                {
                  "internalType": "string",
                  "name": "imageFileName",
                  "type": "string"
                }
              ],
              "internalType": "struct VotingSystem.Candidate[]",
              "name": "candidates",
              "type": "tuple[]"
            },
            {
              "internalType": "uint256",
              "name": "candidateCount",
              "type": "uint256"
            },
            {
              "internalType": "uint256",
              "name": "startDateTime",
              "type": "uint256"
            },
            {
              "internalType": "uint256",
              "name": "endDateTime",
              "type": "uint256"
            },
            {
              "internalType": "uint256",
              "name": "status",
              "type": "uint256"
            }
          ],
          "internalType": "struct VotingSystem.Event[]",
          "name": "",
          "type": "tuple[]"
        }
      ],
      "stateMutability": "view",
      "type": "function",
      "constant": true
    },
    {
      "inputs": [
        {
          "internalType": "uint256",
          "name": "_categoryId",
          "type": "uint256"
        },
        {
          "internalType": "uint256",
          "name": "_eventId",
          "type": "uint256"
        }
      ],
      "name": "getEventById",
      "outputs": [
        {
          "components": [
            {
              "internalType": "uint256",
              "name": "eventId",
              "type": "uint256"
            },
            {
              "internalType": "string",
              "name": "eventName",
              "type": "string"
            },
            {
              "internalType": "uint256",
              "name": "categoryId",
              "type": "uint256"
            },
            {
              "components": [
                {
                  "internalType": "uint256",
                  "name": "id",
                  "type": "uint256"
                },
                {
                  "internalType": "string",
                  "name": "name",
                  "type": "string"
                },
                {
                  "internalType": "string",
                  "name": "description",
                  "type": "string"
                },
                {
                  "internalType": "uint256",
                  "name": "studentId",
                  "type": "uint256"
                },
                {
                  "internalType": "uint256",
                  "name": "categoryId",
                  "type": "uint256"
                },
                {
                  "internalType": "uint256",
                  "name": "eventId",
                  "type": "uint256"
                },
                {
                  "internalType": "uint256",
                  "name": "voteCount",
                  "type": "uint256"
                },
                {
                  "internalType": "bool",
                  "name": "win",
                  "type": "bool"
                },
                {
                  "internalType": "string",
                  "name": "imageFileName",
                  "type": "string"
                }
              ],
              "internalType": "struct VotingSystem.Candidate[]",
              "name": "candidates",
              "type": "tuple[]"
            },
            {
              "internalType": "uint256",
              "name": "candidateCount",
              "type": "uint256"
            },
            {
              "internalType": "uint256",
              "name": "startDateTime",
              "type": "uint256"
            },
            {
              "internalType": "uint256",
              "name": "endDateTime",
              "type": "uint256"
            },
            {
              "internalType": "uint256",
              "name": "status",
              "type": "uint256"
            }
          ],
          "internalType": "struct VotingSystem.Event",
          "name": "",
          "type": "tuple"
        }
      ],
      "stateMutability": "view",
      "type": "function",
      "constant": true
    },
    {
      "inputs": [
        {
          "internalType": "uint256",
          "name": "_categoryId",
          "type": "uint256"
        },
        {
          "internalType": "uint256",
          "name": "_eventId",
          "type": "uint256"
        },
        {
          "internalType": "uint256",
          "name": "_candidateId",
          "type": "uint256"
        }
      ],
      "name": "getCandidateById",
      "outputs": [
        {
          "components": [
            {
              "internalType": "uint256",
              "name": "id",
              "type": "uint256"
            },
            {
              "internalType": "string",
              "name": "name",
              "type": "string"
            },
            {
              "internalType": "string",
              "name": "description",
              "type": "string"
            },
            {
              "internalType": "uint256",
              "name": "studentId",
              "type": "uint256"
            },
            {
              "internalType": "uint256",
              "name": "categoryId",
              "type": "uint256"
            },
            {
              "internalType": "uint256",
              "name": "eventId",
              "type": "uint256"
            },
            {
              "internalType": "uint256",
              "name": "voteCount",
              "type": "uint256"
            },
            {
              "internalType": "bool",
              "name": "win",
              "type": "bool"
            },
            {
              "internalType": "string",
              "name": "imageFileName",
              "type": "string"
            }
          ],
          "internalType": "struct VotingSystem.Candidate",
          "name": "",
          "type": "tuple"
        }
      ],
      "stateMutability": "view",
      "type": "function",
      "constant": true
    },
    {
      "inputs": [
        {
          "internalType": "uint256",
          "name": "_startDateTime",
          "type": "uint256"
        },
        {
          "internalType": "uint256",
          "name": "_endDateTime",
          "type": "uint256"
        }
      ],
      "name": "getEventsByDateRange",
      "outputs": [
        {
          "components": [
            {
              "internalType": "uint256",
              "name": "eventId",
              "type": "uint256"
            },
            {
              "internalType": "string",
              "name": "eventName",
              "type": "string"
            },
            {
              "internalType": "uint256",
              "name": "categoryId",
              "type": "uint256"
            },
            {
              "components": [
                {
                  "internalType": "uint256",
                  "name": "id",
                  "type": "uint256"
                },
                {
                  "internalType": "string",
                  "name": "name",
                  "type": "string"
                },
                {
                  "internalType": "string",
                  "name": "description",
                  "type": "string"
                },
                {
                  "internalType": "uint256",
                  "name": "studentId",
                  "type": "uint256"
                },
                {
                  "internalType": "uint256",
                  "name": "categoryId",
                  "type": "uint256"
                },
                {
                  "internalType": "uint256",
                  "name": "eventId",
                  "type": "uint256"
                },
                {
                  "internalType": "uint256",
                  "name": "voteCount",
                  "type": "uint256"
                },
                {
                  "internalType": "bool",
                  "name": "win",
                  "type": "bool"
                },
                {
                  "internalType": "string",
                  "name": "imageFileName",
                  "type": "string"
                }
              ],
              "internalType": "struct VotingSystem.Candidate[]",
              "name": "candidates",
              "type": "tuple[]"
            },
            {
              "internalType": "uint256",
              "name": "candidateCount",
              "type": "uint256"
            },
            {
              "internalType": "uint256",
              "name": "startDateTime",
              "type": "uint256"
            },
            {
              "internalType": "uint256",
              "name": "endDateTime",
              "type": "uint256"
            },
            {
              "internalType": "uint256",
              "name": "status",
              "type": "uint256"
            }
          ],
          "internalType": "struct VotingSystem.Event[]",
          "name": "",
          "type": "tuple[]"
        }
      ],
      "stateMutability": "view",
      "type": "function",
      "constant": true
    }
  ],
  "bytecode": "0x60806040523480156200001157600080fd5b50600080546001600160a01b03191633179055604080518082018252601481527f737570657261646d696e40676d61696c2e636f6d00000000000000000000000060208083019190915282518084018452600e81526d537570657241646d696e2131323360901b81830152835180850190945260018452605360f81b918401919091526200009f92620000a5565b6200048f565b60015b600c5481116200015657600081815260056020526040908190209051620000d3916002019062000319565b6040518091039020848051906020012003620001415760405162461bcd60e51b8152602060048201526024808201527f41646d696e2077697468207468697320656d61696c20616c72656164792065786044820152636973747360e01b606482015260840160405180910390fd5b806200014d81620003d2565b915050620000a8565b506001600c60008282546200016c9190620003ee565b9091555050604051600090620001879084906020016200043c565b60408051601f198184030181529181528151602092830120600c546000818152600585529290922091825586519093509091620001cc91600284019188019062000237565b50600381018290558251620001eb906004830190602086019062000237565b5060016005820155600c546040517f56729c826fe77eec184059336ced13d9ef79d10126212c90a4d2b724391e14e290620002289088906200045a565b60405180910390a25050505050565b8280546200024590620002dd565b90600052602060002090601f016020900481019282620002695760008555620002b4565b82601f106200028457805160ff1916838001178555620002b4565b82800160010185558215620002b4579182015b82811115620002b457825182559160200191906001019062000297565b50620002c2929150620002c6565b5090565b5b80821115620002c25760008155600101620002c7565b600181811c90821680620002f257607f821691505b6020821081036200031357634e487b7160e01b600052602260045260246000fd5b50919050565b600080835481600182811c9150808316806200033657607f831692505b602080841082036200035657634e487b7160e01b86526022600452602486fd5b8180156200036d57600181146200037f57620003ae565b60ff19861689528489019650620003ae565b60008a81526020902060005b86811015620003a65781548b8201529085019083016200038b565b505084890196505b509498975050505050505050565b634e487b7160e01b600052601160045260246000fd5b600060018201620003e757620003e7620003bc565b5060010190565b60008219821115620004045762000404620003bc565b500190565b60005b83811015620004265781810151838201526020016200040c565b8381111562000436576000848401525b50505050565b600082516200045081846020870162000409565b9190910192915050565b60208152600082518060208401526200047b81604085016020870162000409565b601f01601f19169190910160400192915050565b615cba806200049f6000396000f3fe608060405234801561001057600080fd5b50600436106102275760003560e01c80638f2c280511610130578063bf03f677116100b8578063ead440f21161007c578063ead440f214610558578063f02526a11461056b578063f29565ed1461057e578063f44f4e1414610591578063f731d0e91461059957600080fd5b8063bf03f677146104e6578063c91bc46c146104f9578063da58c7d91461050c578063dc4db7c014610532578063dfdffaf41461054557600080fd5b80639974dc20116100ff5780639974dc20146104775780639f00a6631461048a578063a1a02564146104ad578063a80bf949146104c0578063b5028dbc146104d357600080fd5b80638f2c28051461040e578063909f85021461042357806396afa28c1461044357806397adbbec1461046457600080fd5b80635b4d727c116101b3578063689b6fbf11610182578063689b6fbf1461039757806369b50a62146103aa57806372e83b52146103bd5780638801b5b6146103d05780638da5cb5b146103e357600080fd5b80635b4d727c1461032057806360e93f3c1461033357806361e8486e14610353578063642d20ad1461037357600080fd5b8063400af02a116101fa578063400af02a14610295578063401a52dd146102b55780634990ce0f146102c8578063514fc62a146102dd5780635a8ffc791461030057600080fd5b80631002cdd41461022c5780632e6997fe1461024a57806331a364241461025f5780633e60e2f514610274575b600080fd5b6102346105ac565b6040516102419190615371565b60405180910390f35b610252610a0a565b60405161024191906153d3565b610267610b8c565b604051610241919061546f565b610287610282366004615566565b610f83565b604051908152602001610241565b6102a86102a3366004615566565b610fca565b60405161024191906155c9565b6102346102c33660046155dc565b61106c565b6102db6102d63660046155f5565b611475565b005b6102f06102eb366004615661565b6115ff565b6040519015158152602001610241565b61031361030e3660046155dc565b611665565b604051610241919061569d565b61025261032e3660046156b0565b611759565b6103466103413660046155dc565b611af5565b6040516102419190615763565b610366610361366004615776565b611f6d565b60405161024191906157a2565b6103866103813660046155dc565b6123d6565b6040516102419594939291906157b5565b6102f06103a5366004615566565b612492565b6102a86103b83660046155dc565b6124bd565b6102f06103cb3660046155dc565b612750565b6102a86103de366004615566565b61291a565b6000546103f6906001600160a01b031681565b6040516001600160a01b039091168152602001610241565b610416612cbb565b60405161024191906157ed565b6104366104313660046156b0565b6131cc565b6040516102419190615842565b610456610451366004615661565b61362f565b604051610241929190615855565b6102db610472366004615870565b613803565b6102db6104853660046156b0565b613893565b61049d610498366004615661565b61394b565b60405161024194939291906158dc565b6102f06104bb366004615661565b613a8e565b6102346104ce3660046156b0565b613b72565b6102f06104e1366004615661565b613f6f565b6102f06104f4366004615776565b613ffc565b6102db610507366004615566565b614090565b61051f61051a3660046155dc565b614215565b6040516102419796959493929190615915565b6102db610540366004615982565b614470565b6102f0610553366004615776565b6145ed565b6102f0610566366004615661565b614675565b6102f06105793660046156b0565b61480f565b6102db61058c366004615566565b6148b1565b610267614991565b6102db6105a73660046159d0565b614d1f565b60606000600a546001600160401b038111156105ca576105ca6154c4565b60405190808252806020026020018201604052801561060357816020015b6105f061500a565b8152602001906001900390816105e85790505b5090506000805b600854811015610a025760005b600160006106258483615ab7565b81526020810191909152604001600020600201548110156109ef576001600061064e8483615ab7565b8152602001908152602001600020600201818154811061067057610670615acf565b906000526020600020906008020160405180610100016040529081600082015481526020016001820180546106a490615ae5565b80601f01602080910402602001604051908101604052809291908181526020018280546106d090615ae5565b801561071d5780601f106106f25761010080835404028352916020019161071d565b820191906000526020600020905b81548152906001019060200180831161070057829003601f168201915b505050505081526020016002820154815260200160038201805480602002602001604051908101604052809291908181526020016000905b828210156109835783829060005260206000209060090201604051806101200160405290816000820154815260200160018201805461079390615ae5565b80601f01602080910402602001604051908101604052809291908181526020018280546107bf90615ae5565b801561080c5780601f106107e15761010080835404028352916020019161080c565b820191906000526020600020905b8154815290600101906020018083116107ef57829003601f168201915b5050505050815260200160028201805461082590615ae5565b80601f016020809104026020016040519081016040528092919081815260200182805461085190615ae5565b801561089e5780601f106108735761010080835404028352916020019161089e565b820191906000526020600020905b81548152906001019060200180831161088157829003601f168201915b505050918352505060038201546020820152600482015460408201526005820154606082015260068201546080820152600782015460ff16151560a082015260088201805460c0909201916108f290615ae5565b80601f016020809104026020016040519081016040528092919081815260200182805461091e90615ae5565b801561096b5780601f106109405761010080835404028352916020019161096b565b820191906000526020600020905b81548152906001019060200180831161094e57829003601f168201915b50505050508152505081526020019060010190610755565b5050505081526020016004820154815260200160058201548152602001600682015481526020016007820154815250508484815181106109c5576109c5615acf565b60209081029190910101526109db600184615ab7565b9250806109e781615b19565b915050610617565b50806109fa81615b19565b91505061060a565b509092915050565b606060006009546001600160401b03811115610a2857610a286154c4565b604051908082528060200260200182016040528015610a6157816020015b610a4e61504f565b815260200190600190039081610a465790505b5090506000600a546001600160401b03811115610a8057610a806154c4565b604051908082528060200260200182016040528015610ab957816020015b610aa661500a565b815260200190600190039081610a9e5790505b509050610ac46105ac565b90506000805b600a54811015610b835760005b838281518110610ae957610ae9615acf565b60200260200101516060015151811015610b7057838281518110610b0f57610b0f615acf565b6020026020010151606001518181518110610b2c57610b2c615acf565b6020026020010151858481518110610b4657610b46615acf565b6020908102919091010152610b5c600184615ab7565b925080610b6881615b19565b915050610ad7565b5080610b7b81615b19565b915050610aca565b50919392505050565b60606000600c546001600160401b03811115610baa57610baa6154c4565b604051908082528060200260200182016040528015610be357816020015b610bd061509d565b815260200190600190039081610bc85790505b509050600060015b600c548111610a025760408051808201825260018152604160f81b6020918201526000838152600590915281902090517f03783fac2efed8fbc9ad443e592ee30e61d65f471140c10ca155e937b435b76091610c4c91600490910190615bca565b60405180910390201480610cbd575060408051808201825260018152605360f81b6020918201526000838152600590915281902090517fa9463b19d1148abedba3d6925530d4465b271ce2cc61f80b1a0a80fd73eab88191610cb391600490910190615bca565b6040518091039020145b15610f7157600560008281526020019081526020016000206040518060e001604052908160008201548152602001600182018054610cfa90615ae5565b80601f0160208091040260200160405190810160405280929190818152602001828054610d2690615ae5565b8015610d735780601f10610d4857610100808354040283529160200191610d73565b820191906000526020600020905b815481529060010190602001808311610d5657829003601f168201915b50505050508152602001600282018054610d8c90615ae5565b80601f0160208091040260200160405190810160405280929190818152602001828054610db890615ae5565b8015610e055780601f10610dda57610100808354040283529160200191610e05565b820191906000526020600020905b815481529060010190602001808311610de857829003601f168201915b5050505050815260200160038201548152602001600482018054610e2890615ae5565b80601f0160208091040260200160405190810160405280929190818152602001828054610e5490615ae5565b8015610ea15780601f10610e7657610100808354040283529160200191610ea1565b820191906000526020600020905b815481529060010190602001808311610e8457829003601f168201915b5050505050815260200160058201548152602001600682018054610ec490615ae5565b80601f0160208091040260200160405190810160405280929190818152602001828054610ef090615ae5565b8015610f3d5780601f10610f1257610100808354040283529160200191610f3d565b820191906000526020600020905b815481529060010190602001808311610f2057829003601f168201915b505050505081525050838381518110610f5857610f58615acf565b6020908102919091010152610f6e600183615ab7565b91505b80610f7b81615b19565b915050610beb565b600080610f90848461291a565b8051909150600003610fbd5760405162461bcd60e51b8152600401610fb490615bd6565b60405180910390fd5b60a0015190505b92915050565b610fd261509d565b6000610fde848461291a565b80519091506000036110025760405162461bcd60e51b8152600401610fb490615bd6565b8060a001516001146110655760405162461bcd60e51b815260206004820152602660248201527f596f7572206163636f756e74207761732062616e6e6564206f72206e6f74207660448201526565726966792160d01b6064820152608401610fb4565b9392505050565b60008181526001602052604081206002810154606092906001600160401b0381111561109a5761109a6154c4565b6040519080825280602002602001820160405280156110d357816020015b6110c061500a565b8152602001906001900390816110b85790505b50905060005b600283015481101561146d578260020181815481106110fa576110fa615acf565b9060005260206000209060080201604051806101000160405290816000820154815260200160018201805461112e90615ae5565b80601f016020809104026020016040519081016040528092919081815260200182805461115a90615ae5565b80156111a75780601f1061117c576101008083540402835291602001916111a7565b820191906000526020600020905b81548152906001019060200180831161118a57829003601f168201915b505050505081526020016002820154815260200160038201805480602002602001604051908101604052809291908181526020016000905b8282101561140d5783829060005260206000209060090201604051806101200160405290816000820154815260200160018201805461121d90615ae5565b80601f016020809104026020016040519081016040528092919081815260200182805461124990615ae5565b80156112965780601f1061126b57610100808354040283529160200191611296565b820191906000526020600020905b81548152906001019060200180831161127957829003601f168201915b505050505081526020016002820180546112af90615ae5565b80601f01602080910402602001604051908101604052809291908181526020018280546112db90615ae5565b80156113285780601f106112fd57610100808354040283529160200191611328565b820191906000526020600020905b81548152906001019060200180831161130b57829003601f168201915b505050918352505060038201546020820152600482015460408201526005820154606082015260068201546080820152600782015460ff16151560a082015260088201805460c09092019161137c90615ae5565b80601f01602080910402602001604051908101604052809291908181526020018280546113a890615ae5565b80156113f55780601f106113ca576101008083540402835291602001916113f5565b820191906000526020600020905b8154815290600101906020018083116113d857829003601f168201915b505050505081525050815260200190600101906111df565b50505050815260200160048201548152602001600582015481526020016006820154815260200160078201548152505082828151811061144f5761144f615acf565b6020026020010181905250808061146590615b19565b9150506110d9565b509392505050565b6000831180156114875750600c548311155b6114cb5760405162461bcd60e51b815260206004820152601560248201527420b236b4b7103237b2b9903737ba1032bc34b9ba1760591b6044820152606401610fb4565b6000838152600560205260409081902090516114ea9160020190615bca565b60405180910390208280519060200120146115935760015b600c5481116115915760008181526005602052604090819020905161152a9160020190615bca565b604051809103902083805190602001200361157f5760405162461bcd60e51b815260206004820152601560248201527422b6b0b4b61030b63932b0b23c9034b7103ab9b29760591b6044820152606401610fb4565b8061158981615b19565b915050611502565b505b600083815260056020908152604090912083516115b8926002909201918501906150dd565b508051156115fa57806040516020016115d19190615c1a565b60408051601f198184030181529181528151602092830120600086815260059093529120600301555b505050565b600060015b600c54811161165c5760008181526005602052604090819020905161162c9160010190615bca565b604051809103902083805190602001200361164a5750600192915050565b8061165481615b19565b915050611604565b50600092915050565b60606000821180156116795750600c548211155b6116b85760405162461bcd60e51b815260206004820152601060248201526f125b9d985b1a59081d9bdd195c88125160821b6044820152606401610fb4565b600082815260056020526040902060020180546116d490615ae5565b80601f016020809104026020016040519081016040528092919081815260200182805461170090615ae5565b801561174d5780601f106117225761010080835404028352916020019161174d565b820191906000526020600020905b81548152906001019060200180831161173057829003601f168201915b50505050509050919050565b60008281526001602052604081206060915b6002820154811015611aed578382600201828154811061178d5761178d615acf565b90600052602060002090600802016000015403611adb5760008260020182815481106117bb576117bb615acf565b9060005260206000209060080201600401546001600160401b038111156117e4576117e46154c4565b60405190808252806020026020018201604052801561181d57816020015b61180a61504f565b8152602001906001900390816118025790505b50905060005b83600201838154811061183857611838615acf565b906000526020600020906008020160030180549050811015611ad05783600201838154811061186957611869615acf565b9060005260206000209060080201600301818154811061188b5761188b615acf565b906000526020600020906009020160405180610120016040529081600082015481526020016001820180546118bf90615ae5565b80601f01602080910402602001604051908101604052809291908181526020018280546118eb90615ae5565b80156119385780601f1061190d57610100808354040283529160200191611938565b820191906000526020600020905b81548152906001019060200180831161191b57829003601f168201915b5050505050815260200160028201805461195190615ae5565b80601f016020809104026020016040519081016040528092919081815260200182805461197d90615ae5565b80156119ca5780601f1061199f576101008083540402835291602001916119ca565b820191906000526020600020905b8154815290600101906020018083116119ad57829003601f168201915b505050918352505060038201546020820152600482015460408201526005820154606082015260068201546080820152600782015460ff16151560a082015260088201805460c090920191611a1e90615ae5565b80601f0160208091040260200160405190810160405280929190818152602001828054611a4a90615ae5565b8015611a975780601f10611a6c57610100808354040283529160200191611a97565b820191906000526020600020905b815481529060010190602001808311611a7a57829003601f168201915b505050505081525050828281518110611ab257611ab2615acf565b60200260200101819052508080611ac890615b19565b915050611823565b509250610fc4915050565b80611ae581615b19565b91505061176b565b505092915050565b611b206040518060800160405280600081526020016060815260200160608152602001600081525090565b60008281526001602081815260409283902083516080810190945280548452918201805491840191611b5190615ae5565b80601f0160208091040260200160405190810160405280929190818152602001828054611b7d90615ae5565b8015611bca5780601f10611b9f57610100808354040283529160200191611bca565b820191906000526020600020905b815481529060010190602001808311611bad57829003601f168201915b5050505050815260200160028201805480602002602001604051908101604052809291908181526020016000905b82821015611f5457838290600052602060002090600802016040518061010001604052908160008201548152602001600182018054611c3690615ae5565b80601f0160208091040260200160405190810160405280929190818152602001828054611c6290615ae5565b8015611caf5780601f10611c8457610100808354040283529160200191611caf565b820191906000526020600020905b815481529060010190602001808311611c9257829003601f168201915b505050505081526020016002820154815260200160038201805480602002602001604051908101604052809291908181526020016000905b82821015611f1557838290600052602060002090600902016040518061012001604052908160008201548152602001600182018054611d2590615ae5565b80601f0160208091040260200160405190810160405280929190818152602001828054611d5190615ae5565b8015611d9e5780601f10611d7357610100808354040283529160200191611d9e565b820191906000526020600020905b815481529060010190602001808311611d8157829003601f168201915b50505050508152602001600282018054611db790615ae5565b80601f0160208091040260200160405190810160405280929190818152602001828054611de390615ae5565b8015611e305780601f10611e0557610100808354040283529160200191611e30565b820191906000526020600020905b815481529060010190602001808311611e1357829003601f168201915b505050918352505060038201546020820152600482015460408201526005820154606082015260068201546080820152600782015460ff16151560a082015260088201805460c090920191611e8490615ae5565b80601f0160208091040260200160405190810160405280929190818152602001828054611eb090615ae5565b8015611efd5780601f10611ed257610100808354040283529160200191611efd565b820191906000526020600020905b815481529060010190602001808311611ee057829003601f168201915b50505050508152505081526020019060010190611ce7565b50505050815260200160048201548152602001600582015481526020016006820154815260200160078201548152505081526020019060010190611bf8565b5050505081526020016003820154815250509050919050565b611f7561504f565b6000848152600160205260408120549003611fa25760405162461bcd60e51b8152600401610fb490615c36565b600080805b60008781526001602052604090206002015481101561201b576000878152600160205260409020600201805487919083908110611fe657611fe6615acf565b90600052602060002090600802016000015403612009576001925080915061201b565b8061201381615b19565b915050611fa7565b50816120605760405162461bcd60e51b8152602060048201526014602482015273115d995b9d08191bd95cc81b9bdd08195e1a5cdd60621b6044820152606401610fb4565b600080805b600089815260016020526040902060020180548590811061208857612088615acf565b9060005260206000209060080201600301805490508110156121215760008981526001602052604090206002018054889190869081106120ca576120ca615acf565b906000526020600020906008020160030182815481106120ec576120ec615acf565b9060005260206000209060090201600001540361210f5760019250809150612121565b8061211981615b19565b915050612065565b508161216f5760405162461bcd60e51b815260206004820152601860248201527f43616e64696461746520646f6573206e6f7420657869737400000000000000006044820152606401610fb4565b600088815260016020526040902060020180548490811061219257612192615acf565b906000526020600020906008020160030181815481106121b4576121b4615acf565b906000526020600020906009020160405180610120016040529081600082015481526020016001820180546121e890615ae5565b80601f016020809104026020016040519081016040528092919081815260200182805461221490615ae5565b80156122615780601f1061223657610100808354040283529160200191612261565b820191906000526020600020905b81548152906001019060200180831161224457829003601f168201915b5050505050815260200160028201805461227a90615ae5565b80601f01602080910402602001604051908101604052809291908181526020018280546122a690615ae5565b80156122f35780601f106122c8576101008083540402835291602001916122f3565b820191906000526020600020905b8154815290600101906020018083116122d657829003601f168201915b505050918352505060038201546020820152600482015460408201526005820154606082015260068201546080820152600782015460ff16151560a082015260088201805460c09092019161234790615ae5565b80601f016020809104026020016040519081016040528092919081815260200182805461237390615ae5565b80156123c05780601f10612395576101008083540402835291602001916123c0565b820191906000526020600020905b8154815290600101906020018083116123a357829003601f168201915b5050505050815250509450505050509392505050565b600460205260009081526040902080546001820180549192916123f890615ae5565b80601f016020809104026020016040519081016040528092919081815260200182805461242490615ae5565b80156124715780601f1061244657610100808354040283529160200191612471565b820191906000526020600020905b81548152906001019060200180831161245457829003601f168201915b50505050600283015460038401546004909401549293909290915060ff1685565b60008061249f848461291a565b8051909150156124b3576001915050610fc4565b5060009392505050565b6124c561509d565b600560008381526020019081526020016000206040518060e0016040529081600082015481526020016001820180546124fd90615ae5565b80601f016020809104026020016040519081016040528092919081815260200182805461252990615ae5565b80156125765780601f1061254b57610100808354040283529160200191612576565b820191906000526020600020905b81548152906001019060200180831161255957829003601f168201915b5050505050815260200160028201805461258f90615ae5565b80601f01602080910402602001604051908101604052809291908181526020018280546125bb90615ae5565b80156126085780601f106125dd57610100808354040283529160200191612608565b820191906000526020600020905b8154815290600101906020018083116125eb57829003601f168201915b505050505081526020016003820154815260200160048201805461262b90615ae5565b80601f016020809104026020016040519081016040528092919081815260200182805461265790615ae5565b80156126a45780601f10612679576101008083540402835291602001916126a4565b820191906000526020600020905b81548152906001019060200180831161268757829003601f168201915b50505050508152602001600582015481526020016006820180546126c790615ae5565b80601f01602080910402602001604051908101604052809291908181526020018280546126f390615ae5565b80156127405780601f1061271557610100808354040283529160200191612740565b820191906000526020600020905b81548152906001019060200180831161272357829003601f168201915b5050505050815250509050919050565b600060015b600c54811161165c57600081815260056020526040808220905160079161278191600290910190615bca565b90815260200160405180910390206040518060800160405290816000820180546127aa90615ae5565b80601f01602080910402602001604051908101604052809291908181526020018280546127d690615ae5565b80156128235780601f106127f857610100808354040283529160200191612823565b820191906000526020600020905b81548152906001019060200180831161280657829003601f168201915b5050505050815260200160018201805461283c90615ae5565b80601f016020809104026020016040519081016040528092919081815260200182805461286890615ae5565b80156128b55780601f1061288a576101008083540402835291602001916128b5565b820191906000526020600020905b81548152906001019060200180831161289857829003601f168201915b505050505081526020016002820154815260200160038201548152505090508381604001511480156128f85750620151808160600151426128f69190615c6d565b105b15612907575060019392505050565b508061291281615b19565b915050612755565b61292261509d565b6000826040516020016129359190615c1a565b60408051601f198184030181529190528051602090910120905060015b600c548111612c535760008181526005602052604090819020905161297a9160020190615bca565b604051809103902085805190602001201480156129af57506000818152600560205260409020600301546129af908390614eb4565b15612c4157600560008281526020019081526020016000206040518060e0016040529081600082015481526020016001820180546129ec90615ae5565b80601f0160208091040260200160405190810160405280929190818152602001828054612a1890615ae5565b8015612a655780601f10612a3a57610100808354040283529160200191612a65565b820191906000526020600020905b815481529060010190602001808311612a4857829003601f168201915b50505050508152602001600282018054612a7e90615ae5565b80601f0160208091040260200160405190810160405280929190818152602001828054612aaa90615ae5565b8015612af75780601f10612acc57610100808354040283529160200191612af7565b820191906000526020600020905b815481529060010190602001808311612ada57829003601f168201915b5050505050815260200160038201548152602001600482018054612b1a90615ae5565b80601f0160208091040260200160405190810160405280929190818152602001828054612b4690615ae5565b8015612b935780601f10612b6857610100808354040283529160200191612b93565b820191906000526020600020905b815481529060010190602001808311612b7657829003601f168201915b5050505050815260200160058201548152602001600682018054612bb690615ae5565b80601f0160208091040260200160405190810160405280929190818152602001828054612be290615ae5565b8015612c2f5780601f10612c0457610100808354040283529160200191612c2f565b820191906000526020600020905b815481529060010190602001808311612c1257829003601f168201915b50505050508152505092505050610fc4565b80612c4b81615b19565b915050612952565b50506040805160e08101825260008082528251602080820185528282528084019190915283518082018552828152838501526060830182905283518082018552828152608084015260a083018290528351908101909352825260c08101919091529392505050565b606060006008546001600160401b03811115612cd957612cd96154c4565b604051908082528060200260200182016040528015612d3557816020015b612d226040518060800160405280600081526020016060815260200160608152602001600081525090565b815260200190600190039081612cf75790505b50905060015b60085481116131c65760008181526001602081815260409283902083516080810190945280548452918201805491840191612d7590615ae5565b80601f0160208091040260200160405190810160405280929190818152602001828054612da190615ae5565b8015612dee5780601f10612dc357610100808354040283529160200191612dee565b820191906000526020600020905b815481529060010190602001808311612dd157829003601f168201915b5050505050815260200160028201805480602002602001604051908101604052809291908181526020016000905b8282101561317857838290600052602060002090600802016040518061010001604052908160008201548152602001600182018054612e5a90615ae5565b80601f0160208091040260200160405190810160405280929190818152602001828054612e8690615ae5565b8015612ed35780601f10612ea857610100808354040283529160200191612ed3565b820191906000526020600020905b815481529060010190602001808311612eb657829003601f168201915b505050505081526020016002820154815260200160038201805480602002602001604051908101604052809291908181526020016000905b8282101561313957838290600052602060002090600902016040518061012001604052908160008201548152602001600182018054612f4990615ae5565b80601f0160208091040260200160405190810160405280929190818152602001828054612f7590615ae5565b8015612fc25780601f10612f9757610100808354040283529160200191612fc2565b820191906000526020600020905b815481529060010190602001808311612fa557829003601f168201915b50505050508152602001600282018054612fdb90615ae5565b80601f016020809104026020016040519081016040528092919081815260200182805461300790615ae5565b80156130545780601f1061302957610100808354040283529160200191613054565b820191906000526020600020905b81548152906001019060200180831161303757829003601f168201915b505050918352505060038201546020820152600482015460408201526005820154606082015260068201546080820152600782015460ff16151560a082015260088201805460c0909201916130a890615ae5565b80601f01602080910402602001604051908101604052809291908181526020018280546130d490615ae5565b80156131215780601f106130f657610100808354040283529160200191613121565b820191906000526020600020905b81548152906001019060200180831161310457829003601f168201915b50505050508152505081526020019060010190612f0b565b50505050815260200160048201548152602001600582015481526020016006820154815260200160078201548152505081526020019060010190612e1c565b505050508152602001600382015481525050826001836131989190615c6d565b815181106131a8576131a8615acf565b602002602001018190525080806131be90615b19565b915050612d3b565b50919050565b6131d461500a565b60008381526001602052604081205490036132015760405162461bcd60e51b8152600401610fb490615c36565b600080805b60008681526001602052604090206002015481101561327a57600086815260016020526040902060020180548691908390811061324557613245615acf565b90600052602060002090600802016000015403613268576001925080915061327a565b8061327281615b19565b915050613206565b50816132bf5760405162461bcd60e51b8152602060048201526014602482015273115d995b9d08191bd95cc81b9bdd08195e1a5cdd60621b6044820152606401610fb4565b60008581526001602052604090206002018054829081106132e2576132e2615acf565b9060005260206000209060080201604051806101000160405290816000820154815260200160018201805461331690615ae5565b80601f016020809104026020016040519081016040528092919081815260200182805461334290615ae5565b801561338f5780601f106133645761010080835404028352916020019161338f565b820191906000526020600020905b81548152906001019060200180831161337257829003601f168201915b505050505081526020016002820154815260200160038201805480602002602001604051908101604052809291908181526020016000905b828210156135f55783829060005260206000209060090201604051806101200160405290816000820154815260200160018201805461340590615ae5565b80601f016020809104026020016040519081016040528092919081815260200182805461343190615ae5565b801561347e5780601f106134535761010080835404028352916020019161347e565b820191906000526020600020905b81548152906001019060200180831161346157829003601f168201915b5050505050815260200160028201805461349790615ae5565b80601f01602080910402602001604051908101604052809291908181526020018280546134c390615ae5565b80156135105780601f106134e557610100808354040283529160200191613510565b820191906000526020600020905b8154815290600101906020018083116134f357829003601f168201915b505050918352505060038201546020820152600482015460408201526005820154606082015260068201546080820152600782015460ff16151560a082015260088201805460c09092019161356490615ae5565b80601f016020809104026020016040519081016040528092919081815260200182805461359090615ae5565b80156135dd5780601f106135b2576101008083540402835291602001916135dd565b820191906000526020600020905b8154815290600101906020018083116135c057829003601f168201915b505050505081525050815260200190600101906133c7565b5050505081526020016004820154815260200160058201548152602001600682015481526020016007820154815250509250505092915050565b6000606060008351116136755760405162461bcd60e51b815260206004820152600e60248201526d546f6b656e20697320656d70747960901b6044820152606401610fb4565b60015b600c5481116137e75783805190602001206007600560008481526020019081526020016000206002016040516136ae9190615bca565b90815260200160405180910390206001016040516136cc9190615bca565b60405180910390201480156137245750620151806007600560008481526020019081526020016000206002016040516137059190615bca565b908152602001604051809103902060030154426137229190615c6d565b105b156137d5576000818152600560205260409020600201805460019190819061374b90615ae5565b80601f016020809104026020016040519081016040528092919081815260200182805461377790615ae5565b80156137c45780601f10613799576101008083540402835291602001916137c4565b820191906000526020600020905b8154815290600101906020018083116137a757829003601f168201915b505050505090509250925050915091565b806137df81615b19565b915050613678565b5060006040518060200160405280600081525091509150915091565b6040518060800160405280848152602001838152602001828152602001428152506007846040516138349190615c1a565b9081526020016040518091039020600082015181600001908051906020019061385e9291906150dd565b50602082810151805161387792600185019201906150dd565b5060408201516002820155606090910151600390910155505050565b6000821180156138a55750600c548211155b6138f15760405162461bcd60e51b815260206004820152601e60248201527f41646d696e206f7220566f74657220646f6573206e6f742065786973742e00006044820152606401610fb4565b60028111156139345760405162461bcd60e51b815260206004820152600f60248201526e24b73b30b634b21039ba30ba3ab99760891b6044820152606401610fb4565b600091825260056020819052604090922090910155565b805160208183018101805160078252928201919093012091528054819061397190615ae5565b80601f016020809104026020016040519081016040528092919081815260200182805461399d90615ae5565b80156139ea5780601f106139bf576101008083540402835291602001916139ea565b820191906000526020600020905b8154815290600101906020018083116139cd57829003601f168201915b5050505050908060010180546139ff90615ae5565b80601f0160208091040260200160405190810160405280929190818152602001828054613a2b90615ae5565b8015613a785780601f10613a4d57610100808354040283529160200191613a78565b820191906000526020600020905b815481529060010190602001808311613a5b57829003601f168201915b5050505050908060020154908060030154905084565b6001600090815260056020527f1471eb6eb2c5e789fc3de43f8ce62938c7d1836ec861730447e2ada8fd81017b548103613b025760405162461bcd60e51b81526020600482015260156024820152744e6f20766f74657220696e20746865206c6973742160581b6044820152606401610fb4565b60015b600c54811161165c57600081815260056020526040908190209051613b2d9160060190615bca565b6040518091039020838051906020012003613b605760009081526005602081905260409091206001910181905592915050565b80613b6a81615b19565b915050613b05565b606080600060015b6008548111613f655760005b600082815260016020526040902060020154811015613f52576000828152600160205260408120600201805483908110613bc257613bc2615acf565b9060005260206000209060080201905087816005015410158015613bea575086816006015411155b15613f3f57613f2f85826040518061010001604052908160008201548152602001600182018054613c1a90615ae5565b80601f0160208091040260200160405190810160405280929190818152602001828054613c4690615ae5565b8015613c935780601f10613c6857610100808354040283529160200191613c93565b820191906000526020600020905b815481529060010190602001808311613c7657829003601f168201915b505050505081526020016002820154815260200160038201805480602002602001604051908101604052809291908181526020016000905b82821015613ef957838290600052602060002090600902016040518061012001604052908160008201548152602001600182018054613d0990615ae5565b80601f0160208091040260200160405190810160405280929190818152602001828054613d3590615ae5565b8015613d825780601f10613d5757610100808354040283529160200191613d82565b820191906000526020600020905b815481529060010190602001808311613d6557829003601f168201915b50505050508152602001600282018054613d9b90615ae5565b80601f0160208091040260200160405190810160405280929190818152602001828054613dc790615ae5565b8015613e145780601f10613de957610100808354040283529160200191613e14565b820191906000526020600020905b815481529060010190602001808311613df757829003601f168201915b505050918352505060038201546020820152600482015460408201526005820154606082015260068201546080820152600782015460ff16151560a082015260088201805460c090920191613e6890615ae5565b80601f0160208091040260200160405190810160405280929190818152602001828054613e9490615ae5565b8015613ee15780601f10613eb657610100808354040283529160200191613ee1565b820191906000526020600020905b815481529060010190602001808311613ec457829003601f168201915b50505050508152505081526020019060010190613ccb565b50505050815260200160048201548152602001600582015481526020016006820154815260200160078201548152505086614f2c565b945083613f3b81615b19565b9450505b5080613f4a81615b19565b915050613b86565b5080613f5d81615b19565b915050613b7a565b5090949350505050565b600060015b600c54811161165c576000818152600560209081526040918290209151613f9f926002019101615bca565b6040516020818303038152906040528051906020012083604051602001613fc69190615c1a565b6040516020818303038152906040528051906020012003613fea5750600192915050565b80613ff481615b19565b915050613f74565b60008381526001602052604081205481036140295760405162461bcd60e51b8152600401610fb490615c36565b60006140358585611759565b905060005b8151811015614084578382828151811061405657614056615acf565b6020026020010151600001510361407257600192505050611065565b8061407c81615b19565b91505061403a565b50600095945050505050565b61409982613f6f565b6140dc5760405162461bcd60e51b81526020600482015260146024820152732ab9b2b9103237b2b9903737ba1032bc34b9ba1760611b6044820152606401610fb4565b6140e582614675565b6141315760405162461bcd60e51b815260206004820152601e60248201527f4e6f20726563656e74207265736574207265717565737420666f756e642e00006044820152606401610fb4565b6000816040516020016141449190615c1a565b60408051601f198184030181529190528051602090910120905060015b600c54811161420f576000818152600560205260409081902090516141899160020190615bca565b60405180910390208480519060200120036141fd5760008181526005602052604090819020600301839055516007906141c3908690615c1a565b90815260405190819003602001902060006141de8282615161565b6141ec600183016000615161565b506000600282018190556003909101555b8061420781615b19565b915050614161565b50505050565b6005602052600090815260409020805460018201805491929161423790615ae5565b80601f016020809104026020016040519081016040528092919081815260200182805461426390615ae5565b80156142b05780601f10614285576101008083540402835291602001916142b0565b820191906000526020600020905b81548152906001019060200180831161429357829003601f168201915b5050505050908060020180546142c590615ae5565b80601f01602080910402602001604051908101604052809291908181526020018280546142f190615ae5565b801561433e5780601f106143135761010080835404028352916020019161433e565b820191906000526020600020905b81548152906001019060200180831161432157829003601f168201915b50505050509080600301549080600401805461435990615ae5565b80601f016020809104026020016040519081016040528092919081815260200182805461438590615ae5565b80156143d25780601f106143a7576101008083540402835291602001916143d2565b820191906000526020600020905b8154815290600101906020018083116143b557829003601f168201915b5050505050908060050154908060060180546143ed90615ae5565b80601f016020809104026020016040519081016040528092919081815260200182805461441990615ae5565b80156144665780601f1061443b57610100808354040283529160200191614466565b820191906000526020600020905b81548152906001019060200180831161444957829003601f168201915b5050505050905087565b60015b600c5481116145165760008181526005602052604090819020905161449b9160020190615bca565b60405180910390208480519060200120036145045760405162461bcd60e51b8152602060048201526024808201527f41646d696e2077697468207468697320656d61696c20616c72656164792065786044820152636973747360e01b6064820152608401610fb4565b8061450e81615b19565b915050614473565b506001600c600082825461452a9190615ab7565b9091555050604051600090614543908490602001615c1a565b60408051601f198184030181529181528151602092830120600c5460008181526005855292909220918255865190935090916145869160028401918801906150dd565b506003810182905582516145a390600483019060208601906150dd565b5060016005820155600c546040517f56729c826fe77eec184059336ced13d9ef79d10126212c90a4d2b724391e14e2906145de90889061569d565b60405180910390a25050505050565b600083815260016020526040812054810361461a5760405162461bcd60e51b8152600401610fb490615c36565b60006146268585611759565b905060005b8151811015614084578382828151811061464757614647615acf565b6020026020010151606001510361466357600192505050611065565b8061466d81615b19565b91505061462b565b6000806007836040516146889190615c1a565b90815260200160405180910390206040518060800160405290816000820180546146b190615ae5565b80601f01602080910402602001604051908101604052809291908181526020018280546146dd90615ae5565b801561472a5780601f106146ff5761010080835404028352916020019161472a565b820191906000526020600020905b81548152906001019060200180831161470d57829003601f168201915b5050505050815260200160018201805461474390615ae5565b80601f016020809104026020016040519081016040528092919081815260200182805461476f90615ae5565b80156147bc5780601f10614791576101008083540402835291602001916147bc565b820191906000526020600020905b81548152906001019060200180831161479f57829003601f168201915b5050505050815260200160028201548152602001600382015481525050905080606001516000036147f05750600092915050565b60008160600151426148029190615c6d565b6201518011949350505050565b600082815260016020526040812054810361483c5760405162461bcd60e51b8152600401610fb490615c36565b60005b6000848152600160205260409020600201548110156124b357600084815260016020526040902060020180548491908390811061487e5761487e615acf565b9060005260206000209060080201600001540361489f576001915050610fc4565b806148a981615b19565b91505061483f565b6148ba826115ff565b6148fd5760405162461bcd60e51b81526020600482015260146024820152735573657220646f6573206e6f742065786973747360601b6044820152606401610fb4565b6000816040516020016149109190615c1a565b60408051601f198184030181529190528051602090910120905060015b600c54811161420f576000818152600560205260409081902090516149559160010190615bca565b604051809103902084805190602001200361497f5760008181526005602052604090206003018290555b8061498981615b19565b91505061492d565b60606000600c546001600160401b038111156149af576149af6154c4565b6040519080825280602002602001820160405280156149e857816020015b6149d561509d565b8152602001906001900390816149cd5790505b509050600060015b600c548111610a025760408051808201825260018152605560f81b6020918201526000838152600590915281902090517f37bf2238b11b68cdc8382cece82651b59d3c3988873b6e0f33d79694aa45f1be91614a5191600490910190615bca565b604051809103902003614d0d57600560008281526020019081526020016000206040518060e001604052908160008201548152602001600182018054614a9690615ae5565b80601f0160208091040260200160405190810160405280929190818152602001828054614ac290615ae5565b8015614b0f5780601f10614ae457610100808354040283529160200191614b0f565b820191906000526020600020905b815481529060010190602001808311614af257829003601f168201915b50505050508152602001600282018054614b2890615ae5565b80601f0160208091040260200160405190810160405280929190818152602001828054614b5490615ae5565b8015614ba15780601f10614b7657610100808354040283529160200191614ba1565b820191906000526020600020905b815481529060010190602001808311614b8457829003601f168201915b5050505050815260200160038201548152602001600482018054614bc490615ae5565b80601f0160208091040260200160405190810160405280929190818152602001828054614bf090615ae5565b8015614c3d5780601f10614c1257610100808354040283529160200191614c3d565b820191906000526020600020905b815481529060010190602001808311614c2057829003601f168201915b5050505050815260200160058201548152602001600682018054614c6090615ae5565b80601f0160208091040260200160405190810160405280929190818152602001828054614c8c90615ae5565b8015614cd95780601f10614cae57610100808354040283529160200191614cd9565b820191906000526020600020905b815481529060010190602001808311614cbc57829003601f168201915b505050505081525050838381518110614cf457614cf4615acf565b6020908102919091010152614d0a600183615ab7565b91505b80614d1781615b19565b9150506149f0565b60015b600c548111614db057600081815260056020526040908190209051614d4a9160010190615bca565b6040518091039020868051906020012003614d9e5760405162461bcd60e51b8152602060048201526014602482015273566f74657220616c72656164792065786973747360601b6044820152606401610fb4565b80614da881615b19565b915050614d22565b506001600c6000828254614dc49190615ab7565b9091555050604051600090614ddd908590602001615c1a565b60408051601f198184030181529181528151602092830120600c546000818152600585529290922091825588519093509091614e209160018401918a01906150dd565b508551614e3690600283019060208901906150dd565b50600381018290558351614e5390600483019060208701906150dd565b50600060058201558251614e7090600683019060208601906150dd565b50600c547f56729c826fe77eec184059336ced13d9ef79d10126212c90a4d2b724391e14e288604051614ea3919061569d565b60405180910390a250505050505050565b6000805b6020811015614f2257828160208110614ed357614ed3615acf565b1a60f81b6001600160f81b031916848260208110614ef357614ef3615acf565b1a60f81b6001600160f81b03191614614f10576000915050610fc4565b80614f1a81615b19565b915050614eb8565b5060019392505050565b60606000614f3b836001615ab7565b6001600160401b03811115614f5257614f526154c4565b604051908082528060200260200182016040528015614f8b57816020015b614f7861500a565b815260200190600190039081614f705790505b50905060005b83811015614fe357858181518110614fab57614fab615acf565b6020026020010151828281518110614fc557614fc5615acf565b60200260200101819052508080614fdb90615b19565b915050614f91565b5083818481518110614ff757614ff7615acf565b6020908102919091010152949350505050565b60405180610100016040528060008152602001606081526020016000815260200160608152602001600081526020016000815260200160008152602001600081525090565b60405180610120016040528060008152602001606081526020016060815260200160008152602001600081526020016000815260200160008152602001600015158152602001606081525090565b6040518060e00160405280600081526020016060815260200160608152602001600080191681526020016060815260200160008152602001606081525090565b8280546150e990615ae5565b90600052602060002090601f01602090048101928261510b5760008555615151565b82601f1061512457805160ff1916838001178555615151565b82800160010185558215615151579182015b82811115615151578251825591602001919060010190615136565b5061515d92915061519e565b5090565b50805461516d90615ae5565b6000825580601f1061517d575050565b601f01602090049060005260206000209081019061519b919061519e565b50565b5b8082111561515d576000815560010161519f565b60005b838110156151ce5781810151838201526020016151b6565b8381111561420f5750506000910152565b600081518084526151f78160208601602086016151b3565b601f01601f19169290920160200192915050565b600061012082518452602083015181602086015261522b828601826151df565b9150506040830151848203604086015261524582826151df565b915050606083015160608501526080830151608085015260a083015160a085015260c083015160c085015260e083015161528360e086018215159052565b50610100808401518583038287015261529c83826151df565b9695505050505050565b6000815180845260208085019450848260051b860182860160005b858110156152eb5783830389526152d983835161520b565b988501989250908401906001016152c1565b5090979650505050505050565b6000610100825184526020830151816020860152615318828601826151df565b915050604083015160408501526060830151848203606086015261533c82826152a6565b9150506080830151608085015260a083015160a085015260c083015160c085015260e083015160e08501528091505092915050565b6000602080830181845280855180835260408601915060408160051b870101925083870160005b828110156153c657603f198886030184526153b48583516152f8565b94509285019290850190600101615398565b5092979650505050505050565b60208152600061106560208301846152a6565b805182526000602082015160e0602085015261540560e08501826151df565b90506040830151848203604086015261541e82826151df565b915050606083015160608501526080830151848203608086015261544282826151df565b91505060a083015160a085015260c083015184820360c086015261546682826151df565b95945050505050565b6000602080830181845280855180835260408601915060408160051b870101925083870160005b828110156153c657603f198886030184526154b28583516153e6565b94509285019290850190600101615496565b634e487b7160e01b600052604160045260246000fd5b600082601f8301126154eb57600080fd5b81356001600160401b0380821115615505576155056154c4565b604051601f8301601f19908116603f0116810190828211818310171561552d5761552d6154c4565b8160405283815286602085880101111561554657600080fd5b836020870160208301376000602085830101528094505050505092915050565b6000806040838503121561557957600080fd5b82356001600160401b038082111561559057600080fd5b61559c868387016154da565b935060208501359150808211156155b257600080fd5b506155bf858286016154da565b9150509250929050565b60208152600061106560208301846153e6565b6000602082840312156155ee57600080fd5b5035919050565b60008060006060848603121561560a57600080fd5b8335925060208401356001600160401b038082111561562857600080fd5b615634878388016154da565b9350604086013591508082111561564a57600080fd5b50615657868287016154da565b9150509250925092565b60006020828403121561567357600080fd5b81356001600160401b0381111561568957600080fd5b615695848285016154da565b949350505050565b60208152600061106560208301846151df565b600080604083850312156156c357600080fd5b50508035926020909101359150565b8051825260006020808301516080828601526156f160808601826151df565b9050604084015185820360408701528181518084528484019150848160051b850101858401935060005b8281101561574957601f198683030184526157378286516152f8565b9487019493870193915060010161571b565b50606088015160608a015280965050505050505092915050565b60208152600061106560208301846156d2565b60008060006060848603121561578b57600080fd5b505081359360208301359350604090920135919050565b602081526000611065602083018461520b565b85815260a0602082015260006157ce60a08301876151df565b6040830195909552506060810192909252151560809091015292915050565b6000602080830181845280855180835260408601915060408160051b870101925083870160005b828110156153c657603f198886030184526158308583516156d2565b94509285019290850190600101615814565b60208152600061106560208301846152f8565b821515815260406020820152600061569560408301846151df565b60008060006060848603121561588557600080fd5b83356001600160401b038082111561589c57600080fd5b6158a8878388016154da565b945060208601359150808211156158be57600080fd5b506158cb868287016154da565b925050604084013590509250925092565b6080815260006158ef60808301876151df565b828103602084015261590181876151df565b604084019590955250506060015292915050565b87815260e06020820152600061592e60e08301896151df565b828103604084015261594081896151df565b9050866060840152828103608084015261595a81876151df565b90508460a084015282810360c084015261597481856151df565b9a9950505050505050505050565b60008060006060848603121561599757600080fd5b83356001600160401b03808211156159ae57600080fd5b6159ba878388016154da565b9450602086013591508082111561562857600080fd5b600080600080600060a086880312156159e857600080fd5b85356001600160401b03808211156159ff57600080fd5b615a0b89838a016154da565b96506020880135915080821115615a2157600080fd5b615a2d89838a016154da565b95506040880135915080821115615a4357600080fd5b615a4f89838a016154da565b94506060880135915080821115615a6557600080fd5b615a7189838a016154da565b93506080880135915080821115615a8757600080fd5b50615a94888289016154da565b9150509295509295909350565b634e487b7160e01b600052601160045260246000fd5b60008219821115615aca57615aca615aa1565b500190565b634e487b7160e01b600052603260045260246000fd5b600181811c90821680615af957607f821691505b6020821081036131c657634e487b7160e01b600052602260045260246000fd5b600060018201615b2b57615b2b615aa1565b5060010190565b8054600090600181811c9080831680615b4c57607f831692505b60208084108203615b6d57634e487b7160e01b600052602260045260246000fd5b818015615b815760018114615b9257615bbe565b60ff19861689528489019650615bbe565b876000528160002060005b86811015615bb65781548b820152908501908301615b9d565b505084890196505b50505050505092915050565b60006110658284615b32565b60208082526024908201527f596f757220656d61696c206f722070617373776f726420697320696e636f72726040820152636563742160e01b606082015260800190565b60008251615c2c8184602087016151b3565b9190910192915050565b60208082526017908201527f43617465676f727920646f6573206e6f74206578697374000000000000000000604082015260600190565b600082821015615c7f57615c7f615aa1565b50039056fea26469706673582212200a1c442a31449588c36401a6af21081d693129ae49502c93fd70dfcc4d3616fb64736f6c634300080d0033",
  "immutableReferences": {},
  "source": "// SPDX-License-Identifier: MIT\r\npragma solidity >=0.4.22 <0.9.0;\r\n\r\ncontract VotingSystem {\r\n    address public owner;\r\n    struct Voter {\r\n        uint256 id;\r\n        string key;\r\n        string email;\r\n        bytes32 password;\r\n        string role;\r\n        uint256 status; // 0: no verify, 1: verified, 2:banned\r\n        string token;\r\n    }\r\n\r\n    struct Event {\r\n        uint256 eventId;\r\n        string eventName;\r\n        uint256 categoryId;\r\n        Candidate[] candidates;\r\n        uint256 candidateCount;\r\n        uint256 startDateTime;\r\n        uint256 endDateTime;\r\n        uint256 status; // 1: Upcoming, 2: In Progress, 3: Completed, 4 Cancel\r\n    }\r\n\r\n    struct Category {\r\n        uint256 categoryId;\r\n        string categoryName;\r\n        Event[] events; //category has many event\r\n        uint256 status;\r\n    }\r\n\r\n    struct Candidate {\r\n        uint256 id;\r\n        string name;\r\n        string description;\r\n        uint256 studentId;\r\n        uint256 categoryId;\r\n        uint256 eventId;\r\n        uint256 voteCount;\r\n        bool win;\r\n        string imageFileName;\r\n    }\r\n\r\n    struct ResetPassword {\r\n        string email;\r\n        string token;\r\n        uint256 code;\r\n        uint256 createdTime;\r\n    }\r\n\r\n    struct voteEventStruct {\r\n        uint256 id;\r\n        string voterKey;\r\n        uint256 categoryId;\r\n        uint256 eventId;\r\n        bool voted;\r\n    }\r\n\r\n    event CategoryAdded(uint256 indexed categoryId, string categoryName);\r\n\r\n    event VoterAdded(uint256 indexed voterId, string voter_key);\r\n    event EventAdded(uint256 indexed eventId, string eventName);\r\n\r\n    event CandidateAdded(uint256 indexed eventId, string eventName);\r\n\r\n    event VoteEvent(\r\n        string indexed _voterKey,\r\n        string indexed categoryEvent,\r\n        uint256 indexed candidate\r\n    );\r\n\r\n    mapping(uint256 => Category) categories;\r\n    mapping(uint256 => Event) events;\r\n    mapping(uint256 => Candidate) candidates;\r\n    mapping(uint256 => voteEventStruct) public voteEvents;\r\n    mapping(uint256 => Voter) public voters;\r\n    mapping(string => bool) private usedImageFileNames;\r\n    mapping(string => ResetPassword) public resetPasswords;\r\n\r\n    uint256 categoryCount;\r\n    uint256 candidateCount;\r\n    uint256 eventCount;\r\n    uint256 voteEventCount;\r\n    uint256 voterCount;\r\n\r\n    constructor() {\r\n        owner = msg.sender;\r\n        addAdmin(\"superadmin@gmail.com\", \"SuperAdmin!123\", \"S\");\r\n    }\r\n\r\n    function addResetPasswordRequest(string memory _email, string memory _token, uint256 _code) public {\r\n        // Create and store the new reset password request\r\n        resetPasswords[_email] = ResetPassword({\r\n            email: _email,\r\n            token: _token,\r\n            code: _code,\r\n            createdTime: block.timestamp // Use the current block timestamp\r\n        });\r\n    }\r\n\r\n    function isRecentResetRequest(string memory _email) public view returns (bool) {\r\n        ResetPassword memory request = resetPasswords[_email];\r\n        if (request.createdTime == 0) {\r\n            return false; // No request exists\r\n        }\r\n        uint256 age = block.timestamp - request.createdTime;\r\n        return age < 24 hours;\r\n    }\r\n\r\n    function isResetPasswordTokenValid(string memory _token) public view returns (bool, string memory) {\r\n        // Ensure the token string is not empty\r\n        require(bytes(_token).length > 0, \"Token is empty\");\r\n\r\n        // Iterate through all reset password requests\r\n        for (uint256 i = 1; i <= voterCount; i++) {\r\n            // Check if the token matches and is not expired (24 hours validity)\r\n            if (keccak256(bytes(resetPasswords[voters[i].email].token)) == keccak256(bytes(_token))\r\n                && (block.timestamp - resetPasswords[voters[i].email].createdTime) < 24 hours) {\r\n                return (true, voters[i].email); // Valid token found\r\n            }\r\n        }\r\n        // No valid token found, return false and empty string\r\n        return (false, \"\");\r\n    }\r\n\r\n    function isVerificationCodeValid(uint256 _userInputCode) public view returns (bool) {\r\n        // Iterate through all reset password requests\r\n        for (uint256 i = 1; i <= voterCount; i++) {\r\n            ResetPassword memory resetRequest = resetPasswords[voters[i].email];\r\n            // Check if the input code matches the stored code and the request is not expired\r\n            if (resetRequest.code == _userInputCode && (block.timestamp - resetRequest.createdTime) < 24 hours) {\r\n                return true; // Verification code is valid and not expired\r\n            }\r\n        }\r\n        return false; // No valid verification code found\r\n    }\r\n\r\n    function updateUserPassword(string memory _email, string memory _password) public {\r\n        require(checkUserExistByEmail(_email), \"User does not exist.\");\r\n\r\n        // Ensure there is a recent reset password request\r\n        require(isRecentResetRequest(_email), \"No recent reset request found.\");\r\n\r\n        bytes32 hashedPassword = keccak256(abi.encodePacked(_password));\r\n        for (uint256 i = 1; i <= voterCount; i++) {\r\n            if (keccak256(bytes(_email)) == keccak256(bytes(voters[i].email))) {\r\n                voters[i].password = hashedPassword;\r\n\r\n                // Delete the reset password request after updating the password\r\n                delete resetPasswords[_email];\r\n            }\r\n        }\r\n    }\r\n\r\n    function addAdmin(\r\n        string memory _email,\r\n        string memory _password,\r\n        string memory _role\r\n    ) public {\r\n        // Check if the admin with the given email already exists\r\n        for (uint256 i = 1; i <= voterCount; i++) {\r\n            require(\r\n                keccak256(bytes(_email)) != keccak256(bytes(voters[i].email)),\r\n                \"Admin with this email already exists\"\r\n            );\r\n        }\r\n\r\n        // Increment the voterCount to use as the new admin's ID\r\n        voterCount += 1;\r\n\r\n        // Hash the password\r\n        bytes32 hashedPassword = keccak256(abi.encodePacked(_password));\r\n\r\n        // Create and store the new admin\r\n        Voter storage newAdmin = voters[voterCount];\r\n        newAdmin.id = voterCount;\r\n        newAdmin.email = _email;\r\n        newAdmin.password = hashedPassword;\r\n        newAdmin.role = _role;\r\n        newAdmin.status = 1; \r\n\r\n    // Emit the event for adding a new voter/admin\r\n    emit VoterAdded(voterCount, _email);\r\n    }\r\n\r\n    function getAllAdmin() public view returns (Voter[] memory) {\r\n        // Create an array to store all admins\r\n        Voter[] memory adminFound = new Voter[](voterCount);\r\n        uint256 count = 0;\r\n\r\n        // Iterate through all voters\r\n        for (uint256 i = 1; i <= voterCount; i++) {\r\n            // Check if the voter has the role \"A\" (Admin) or \"S\" (SuperAdmin)\r\n            if (\r\n                keccak256(bytes(voters[i].role)) == keccak256(bytes(\"A\")) ||\r\n                keccak256(bytes(voters[i].role)) == keccak256(bytes(\"S\"))\r\n            ) {\r\n                // Add the admin to the array\r\n                adminFound[count] = voters[i];\r\n                count += 1;\r\n            }\r\n        }\r\n\r\n        return adminFound;\r\n    }\r\n\r\n    function getAdminById(uint256 _id) public view returns (Voter memory) {\r\n        return voters[_id];\r\n    }\r\n\r\n    function editAdminEmailPassword(\r\n        uint256 _adminId, \r\n        string memory _newEmail, \r\n        string memory _newPassword\r\n    ) public {\r\n        // Check if the admin exists\r\n        require(_adminId > 0 && _adminId <= voterCount, \"Admin does not exist.\");\r\n        \r\n        // Check for email uniqueness if the email is being changed\r\n        if(keccak256(bytes(_newEmail)) != keccak256(bytes(voters[_adminId].email))) {\r\n            for (uint256 i = 1; i <= voterCount; i++) {\r\n                require(\r\n                    keccak256(bytes(_newEmail)) != keccak256(bytes(voters[i].email)),\r\n                    \"Email already in use.\"\r\n                );\r\n            }\r\n        }\r\n\r\n        voters[_adminId].email = _newEmail;\r\n        \r\n        if(bytes(_newPassword).length > 0) {\r\n            voters[_adminId].password = keccak256(abi.encodePacked(_newPassword));\r\n        }\r\n    }\r\n\r\n    function editUserStatus(uint256 _adminId, uint256 _newStatus) public {\r\n        require(_adminId > 0 && _adminId <= voterCount, \"Admin or Voter does not exist.\");\r\n\r\n        require(_newStatus <= 2, \"Invalid status.\");\r\n\r\n        voters[_adminId].status = _newStatus;\r\n    }\r\n\r\n    function getAllVoter() public view returns (Voter[] memory) {\r\n        Voter[] memory voterFound = new Voter[](voterCount);\r\n        uint256 count = 0;\r\n\r\n        // Iterate through all voters\r\n        for (uint256 i = 1; i <= voterCount; i++) {\r\n            // Check if the voter has the role \"U\" (Voter) \r\n            if (\r\n                keccak256(bytes(voters[i].role)) == keccak256(bytes(\"U\"))\r\n            ) {\r\n                voterFound[count] = voters[i];\r\n                count += 1;\r\n            }\r\n        }\r\n\r\n        return voterFound;\r\n    }\r\n    function addVoter(\r\n        string memory _key,\r\n        string memory _email,\r\n        string memory _password,\r\n        string memory _role,\r\n        string memory _token\r\n    ) public {\r\n        for (uint256 i = 1; i <= voterCount; i++) {\r\n            require(\r\n                keccak256(bytes(_key)) != keccak256(bytes(voters[i].key)),\r\n                \"Voter already exists\"\r\n            );\r\n        }\r\n\r\n        // total category plus 1, use it as the category's id\r\n        voterCount += 1;\r\n\r\n        bytes32 hashedPassword = keccak256(abi.encodePacked(_password));\r\n\r\n        // add the category details in the category list\r\n        Voter storage voter = voters[voterCount];\r\n        voter.id = voterCount;\r\n        voter.key = _key;\r\n        voter.email = _email;\r\n        voter.password = hashedPassword;\r\n        voter.role = _role;\r\n        voter.status = 0;\r\n        voter.token = _token;\r\n\r\n        // emit the category added event\r\n        emit VoterAdded(voterCount, _key);\r\n    }\r\n\r\n    function loginVoter(string memory _email, string memory _password)\r\n        public\r\n        view\r\n        returns (Voter memory)\r\n    {\r\n        Voter memory voterFound = getVoterByEmailPassword(_email, _password);\r\n        require(voterFound.id != 0, \"Your email or password is incorrect!\");\r\n        require(\r\n            voterFound.status == 1,\r\n            \"Your account was banned or not verify!\"\r\n        );\r\n        return voterFound;\r\n    }\r\n\r\n    function compareHashesPassword(bytes32 inputPassword, bytes32 password)\r\n        internal\r\n        pure\r\n        returns (bool)\r\n    {\r\n        for (uint256 i = 0; i < 32; i++) {\r\n            if (inputPassword[i] != password[i]) {\r\n                return false;\r\n            }\r\n        }\r\n        return true;\r\n    }\r\n\r\n    function getVoterByEmailPassword(\r\n        string memory _email,\r\n        string memory _password\r\n    ) public view returns (Voter memory) {\r\n        bytes32 hashedPassword = keccak256(abi.encodePacked(_password));\r\n        for (uint256 i = 1; i <= voterCount; i++) {\r\n            if (\r\n                keccak256(bytes(_email)) == keccak256(bytes(voters[i].email)) &&\r\n                compareHashesPassword(hashedPassword, voters[i].password)\r\n            ) {\r\n                return voters[i];\r\n            }\r\n        }\r\n\r\n        // Event not found in the specified category\r\n        return Voter(0, \"\", \"\", \"\", \"\", 0, \"\");\r\n    }\r\n\r\n    function getVoterEmailById(uint256 _voterId)\r\n        public\r\n        view\r\n        returns (string memory)\r\n    {\r\n        require(_voterId > 0 && _voterId <= voterCount, \"Invalid voter ID\");\r\n        return voters[_voterId].email;\r\n    }\r\n\r\n    function checkUserExistByEmail(string memory _email) public view returns (bool) {\r\n        for (uint256 i = 1; i <= voterCount; i++) {\r\n            if (keccak256(abi.encodePacked(_email)) == keccak256(abi.encodePacked(voters[i].email))) {\r\n                return true;\r\n            }\r\n        }\r\n        return false;\r\n    }\r\n\r\n    function updateVoterPassword(string memory _key, string memory _password)\r\n        public\r\n    {\r\n        require(isVoterExist(_key), \"User does not exists\");\r\n\r\n        bytes32 hashedPassword = keccak256(abi.encodePacked(_password));\r\n        for (uint256 i = 1; i <= voterCount; i++) {\r\n            if (keccak256(bytes(_key)) == keccak256(bytes(voters[i].key))) {\r\n                voters[i].password = hashedPassword;\r\n            }\r\n        }\r\n    }\r\n\r\n    function verifyVoterAccount(string memory _token) public returns (bool) {\r\n        require(voters[1].id != 0, \"No voter in the list!\");\r\n        for (uint256 i = 1; i <= voterCount; i++) {\r\n            if (keccak256(bytes(_token)) == keccak256(bytes(voters[i].token))) {\r\n                voters[i].status = 1;\r\n                return true;\r\n            }\r\n        }\r\n        return false;\r\n    }\r\n\r\n    function getVoterStatus(string memory _email, string memory _password)\r\n        public\r\n        view\r\n        returns (uint256 status)\r\n    {\r\n        Voter memory voterFound = getVoterByEmailPassword(_email, _password);\r\n        require(voterFound.id != 0, \"Your email or password is incorrect!\");\r\n        return voterFound.status;\r\n    }\r\n\r\n    function checkVoterEmailPassword(\r\n        string memory _email,\r\n        string memory _password\r\n    ) public view returns (bool foundVoter) {\r\n        Voter memory voterFound = getVoterByEmailPassword(_email, _password);\r\n\r\n        if (voterFound.id != 0) {\r\n            return true;\r\n        }\r\n        return false;\r\n    }\r\n\r\n    function isVoterExist(string memory _key) public view returns (bool) {\r\n        for (uint256 i = 1; i <= voterCount; i++) {\r\n            if (keccak256(bytes(_key)) == keccak256(bytes(voters[i].key))) {\r\n                return true;\r\n            }\r\n        }\r\n        return false;\r\n    }\r\n\r\n    /* function addCategory(string memory _categoryName) public {\r\n        // check if the category is exist\r\n        for (uint256 i = 1; i <= categoryCount; i++) {\r\n            require(\r\n                keccak256(bytes(_categoryName)) !=\r\n                    keccak256(bytes(categories[i].categoryName)),\r\n                \"Category already exists\"\r\n            );\r\n        }\r\n\r\n        // total category plus 1, use it as the category's id\r\n        categoryCount += 1;\r\n\r\n        // add the category details in the category list\r\n        Category storage category = categories[categoryCount];\r\n        category.categoryName = _categoryName;\r\n        category.categoryId = categoryCount;\r\n        category.status = 1;\r\n\r\n        // emit the category added event\r\n        emit CategoryAdded(categoryCount, _categoryName);\r\n    }\r\n\r\n    function updateCategory(uint256 _categoryId, string memory _newCategoryName) public {\r\n        // Check if the category exists\r\n        require(categories[_categoryId].categoryId != 0, \"Category does not exist\");\r\n\r\n        // Check if the new category name is different from the existing names\r\n        for (uint256 i = 1; i <= categoryCount; i++) {\r\n            if (i != _categoryId) {\r\n                require(\r\n                    keccak256(bytes(_newCategoryName)) !=\r\n                    keccak256(bytes(categories[i].categoryName)),\r\n                    \"Category name already exists\"\r\n                );\r\n            }\r\n        }\r\n\r\n        // Update the category name\r\n        categories[_categoryId].categoryName = _newCategoryName;\r\n    }\r\n\r\n    function deleteCategory(uint256 _categoryId) public {\r\n        require(categories[_categoryId].categoryId != 0, \"Category does not exist\");\r\n\r\n        // Check if there are any events associated with the category\r\n        require(categories[_categoryId].events.length == 0, \"Cannot delete category with events\");\r\n\r\n        // If no associated events, candidates, or vote events, delete the category\r\n        delete categories[_categoryId];\r\n    } */\r\n\r\n    /* function addEvent(\r\n        uint256 _categoryId,\r\n        string memory _eventName,\r\n        uint256 _startDateTime,\r\n        uint256 _endDateTime\r\n    ) public {\r\n        // check if the category has exists\r\n        require(\r\n            categories[_categoryId].categoryId != 0,\r\n            \"Category has not exists\"\r\n        );\r\n\r\n        require(\r\n            isEventExists(_categoryId, _eventName) == false,\r\n            \"Event already exists\"\r\n        );\r\n\r\n        // find out the category in list by using the paramerter category name\r\n        Category storage category = categories[_categoryId];\r\n\r\n        // add the event in the category list\r\n        uint256 eventId = eventCount += 1;\r\n\r\n        Event storage newEvent = category.events.push();\r\n        newEvent.eventId = eventId;\r\n        newEvent.eventName = _eventName;\r\n        newEvent.categoryId = _categoryId;\r\n        newEvent.status = 1;\r\n        newEvent.startDateTime = _startDateTime;\r\n        newEvent.endDateTime = _endDateTime;\r\n    }\r\n\r\n    function isEventExists(uint256 _categoryId, string memory _eventName)\r\n        public\r\n        view\r\n        returns (bool)\r\n    {\r\n        // Check if the category exists\r\n        require(\r\n            categories[_categoryId].categoryId != 0,\r\n            \"Category does not exist\"\r\n        );\r\n\r\n        // Loop through the events in the specified category\r\n        for (uint256 i = 0; i < categories[_categoryId].events.length; i++) {\r\n            if (\r\n                keccak256(bytes(categories[_categoryId].events[i].eventName)) ==\r\n                keccak256(bytes(_eventName))\r\n            ) {\r\n                // Event found\r\n                return true;\r\n            }\r\n        }\r\n\r\n        // Event not found in the specified category\r\n        return false;\r\n    }\r\n\r\n    function isEventStart(\r\n        uint256 _categoryId,\r\n        string memory _eventName,\r\n        uint256 _startDateTime\r\n    ) public view returns (bool) {\r\n        // Check if the category exists\r\n        require(\r\n            categories[_categoryId].categoryId != 0,\r\n            \"Category does not exist\"\r\n        );\r\n\r\n        require(\r\n            isEventExists(_categoryId, _eventName) == true,\r\n            \"Event does not exist\"\r\n        );\r\n\r\n        // Loop through the events in the specified category\r\n        for (uint256 i = 0; i < categories[_categoryId].events.length; i++) {\r\n            if (\r\n                (keccak256(\r\n                    bytes(categories[_categoryId].events[i].eventName)\r\n                ) ==\r\n                    keccak256(bytes(_eventName)) &&\r\n                    (_startDateTime >=\r\n                        categories[_categoryId].events[i].startDateTime))\r\n            ) {\r\n                \r\n                return true;\r\n            }\r\n        }\r\n\r\n        // Event not found in the specified category\r\n        return false;\r\n    }\r\n\r\n    function updateEvent(\r\n        uint256 _categoryId,\r\n        uint256 _eventId,\r\n        string memory _newEventName,\r\n        uint256 _newStartDateTime,\r\n        uint256 _newEndDateTime\r\n    ) public {\r\n        // Check if the category exists\r\n        require(categories[_categoryId].categoryId != 0, \"Category does not exist\");\r\n\r\n        // Find the event\r\n        bool eventExists = false;\r\n        uint256 eventIndex;\r\n        for (uint256 i = 0; i < categories[_categoryId].events.length; i++) {\r\n            if (categories[_categoryId].events[i].eventId == _eventId) {\r\n                eventExists = true;\r\n                eventIndex = i;\r\n                break;\r\n            }\r\n        }\r\n        require(eventExists, \"Event does not exist\");\r\n\r\n        // Check if the new event name is not the same as other events in the category\r\n        for (uint256 i = 0; i < categories[_categoryId].events.length; i++) {\r\n            if (\r\n                i != eventIndex &&\r\n                keccak256(bytes(categories[_categoryId].events[i].eventName)) ==\r\n                keccak256(bytes(_newEventName))\r\n            ) {\r\n                revert(\"Event name already exists\");\r\n            }\r\n        }\r\n\r\n        // Check if the event is not in progress (start date time is in the future)\r\n        require(\r\n            !isEventStart(_categoryId, categories[_categoryId].events[eventIndex].eventName, block.timestamp),\r\n            \"Cannot edit event when voting has started\"\r\n        );\r\n\r\n        // Update the event details\r\n        categories[_categoryId].events[eventIndex].eventName = _newEventName;\r\n        categories[_categoryId].events[eventIndex].startDateTime = _newStartDateTime;\r\n        categories[_categoryId].events[eventIndex].endDateTime = _newEndDateTime;\r\n    }\r\n\r\n    function deleteEvent(uint256 _categoryId, uint256 _eventId) public {\r\n        // Check if the category exists\r\n        require(categories[_categoryId].categoryId != 0, \"Category does not exist\");\r\n\r\n        // Find the event\r\n        bool eventExists = false;\r\n        uint256 eventIndex;\r\n        string memory eventName;\r\n        for (uint256 i = 0; i < categories[_categoryId].events.length; i++) {\r\n            if (categories[_categoryId].events[i].eventId == _eventId) {\r\n                eventExists = true;\r\n                eventIndex = i;\r\n                eventName = categories[_categoryId].events[i].eventName;\r\n                break;\r\n            }\r\n        }\r\n        require(eventExists, \"Event does not exist\");\r\n\r\n        // Check if voting has not started using isEventStart\r\n        require(\r\n            !isEventStart(_categoryId, eventName, block.timestamp),\r\n            \"Cannot delete event when voting has started\"\r\n        );\r\n\r\n        // Check if there are any candidates associated with the event\r\n        require(categories[_categoryId].events[eventIndex].candidates.length == 0, \"Cannot delete event with candidates\");\r\n\r\n        // Delete the event from the category's event list\r\n        for (uint256 i = eventIndex; i < categories[_categoryId].events.length - 1; i++) {\r\n            categories[_categoryId].events[i] = categories[_categoryId].events[i + 1];\r\n        }\r\n        categories[_categoryId].events.pop();\r\n    }\r\n\r\n    function addCandidateToEvent(\r\n        uint256 _categoryId,\r\n        uint256 _eventId,\r\n        string memory _candidateName,\r\n        string memory _description,\r\n        uint256 _studentId,\r\n        string memory _imageFileName\r\n    ) public {\r\n        require(\r\n            categories[_categoryId].categoryId != 0,\r\n            \"Category does not exist\"\r\n        );\r\n        require(isEventExistsById(_categoryId, _eventId), \"Event does not exist\");\r\n        require(\r\n            !isCandidateExistsInEvent(_categoryId, _eventId, _studentId),\r\n            \"Candidate already exists\"\r\n        );\r\n\r\n        // Check if voting has started for the specified event\r\n        require(\r\n            !isEventStart(_categoryId, categories[_categoryId].events[_eventId - 1].eventName, block.timestamp),\r\n            \"Voting has already started, cannot add new candidates\"\r\n        );\r\n\r\n        candidateCount += 1;\r\n\r\n        // Create a new candidate\r\n        Candidate memory newCandidate = Candidate({\r\n            id: candidateCount,\r\n            name: _candidateName,\r\n            studentId: _studentId,\r\n            categoryId: _categoryId,\r\n            eventId: _eventId,\r\n            description: _description,\r\n            win: false,\r\n            voteCount: 0,\r\n            imageFileName: _imageFileName\r\n        });\r\n\r\n        // find the certain category\r\n        Category storage category = categories[_categoryId];\r\n        // find the certain event in certain category\r\n        for (uint256 i = 0; i < category.events.length; i++) {\r\n            if (category.events[i].eventId == _eventId) {\r\n                category.events[i].candidates.push(newCandidate);\r\n                category.events[i].candidateCount += 1;\r\n            }\r\n        }\r\n\r\n        // Mark the image file name as used\r\n        usedImageFileNames[_imageFileName] = true;\r\n    }\r\n\r\n    function updateCandidate(\r\n        uint256 _id,\r\n        string memory _name,\r\n        string memory _description,\r\n        uint256 _studentId,\r\n        uint256 _categoryId,\r\n        uint256 _eventId,\r\n        string memory _imageFileName\r\n    ) public {\r\n        bool eventExists = false;\r\n        uint256 eventIndex;\r\n        string memory eventName;\r\n        for (uint256 i = 0; i < categories[_categoryId].events.length; i++) {\r\n            if (categories[_categoryId].events[i].eventId == _eventId) {\r\n                eventExists = true;\r\n                eventIndex = i;\r\n                eventName = categories[_categoryId].events[i].eventName;\r\n                break;\r\n            }\r\n        }\r\n\r\n        // require(eventExists, \"Event does not exist\");\r\n\r\n        // Check if voting has not started using isEventStart\r\n        require(\r\n            !isEventStart(_categoryId, eventName, block.timestamp),\r\n            \"Cannot edit event when voting has started\"\r\n        );\r\n\r\n        bool candidateExists = false;\r\n        uint256 candidateIndex;\r\n        for (uint256 i = 0; i < categories[_categoryId].events[eventIndex].candidates.length; i++) {\r\n            if (categories[_categoryId].events[eventIndex].candidates[i].id == _id) {\r\n                candidateExists = true;\r\n                candidateIndex = i;\r\n                break;\r\n            }\r\n        }\r\n        \r\n        // require(candidateExists, \"Candidate does not exist\");\r\n\r\n        for (uint256 j = 0; j < categories[_categoryId].events[eventIndex].candidates.length; j++) {\r\n            if (j != candidateIndex) {\r\n                require(\r\n                    _studentId != categories[_categoryId].events[eventIndex].candidates[j].studentId,\r\n                    \"This student ID already exists\"\r\n                );\r\n            }\r\n        }\r\n\r\n        // Update candidate details\r\n        Candidate storage candidateToUpdate = categories[_categoryId].events[eventIndex].candidates[candidateIndex];\r\n\r\n        candidateToUpdate.name = _name;\r\n        candidateToUpdate.description = _description;\r\n        candidateToUpdate.studentId = _studentId;\r\n\r\n        // Update image file name only if a new image file name is provided\r\n        if (bytes(_imageFileName).length > 0) {\r\n            // Mark the old image file name as not used\r\n            usedImageFileNames[candidateToUpdate.imageFileName] = false;\r\n\r\n            // Update the image file name\r\n            candidateToUpdate.imageFileName = _imageFileName;\r\n\r\n            // Mark the new image file name as used\r\n            usedImageFileNames[_imageFileName] = true;\r\n        }\r\n    }\r\n\r\n\r\n    function deleteCandidate(uint256 _categoryId, uint256 _eventId, uint256 _candidateId) public {\r\n        require(categories[_categoryId].categoryId != 0, \"Category does not exist\");\r\n\r\n        // Find the event\r\n        bool eventExists = false;\r\n        uint256 eventIndex;\r\n        for (uint256 i = 0; i < categories[_categoryId].events.length; i++) {\r\n            if (categories[_categoryId].events[i].eventId == _eventId) {\r\n                eventExists = true;\r\n                eventIndex = i;\r\n                break;\r\n            }\r\n        }\r\n        require(eventExists, \"Event does not exist\");\r\n\r\n        Event storage eventToDeleteFrom = categories[_categoryId].events[eventIndex];\r\n\r\n        require(\r\n            !isEventStart(_categoryId, eventToDeleteFrom.eventName, block.timestamp),\r\n            \"Cannot delete candidate after voting has started\"\r\n        );\r\n\r\n        bool candidateFound = false;\r\n        uint256 candidateIndex;\r\n        for (uint256 i = 0; i < eventToDeleteFrom.candidates.length; i++) {\r\n            if (eventToDeleteFrom.candidates[i].id == _candidateId) {\r\n                candidateIndex = i;\r\n                candidateFound = true;\r\n                break;\r\n            }\r\n        }\r\n        require(candidateFound, \"Candidate does not exist\");\r\n\r\n        // Mark the image file name as not used\r\n        usedImageFileNames[eventToDeleteFrom.candidates[candidateIndex].imageFileName] = false;\r\n\r\n        // If the candidate was found, remove the candidate from the list\r\n        for (uint256 i = candidateIndex; i < eventToDeleteFrom.candidates.length - 1; i++) {\r\n            eventToDeleteFrom.candidates[i] = eventToDeleteFrom.candidates[i + 1];\r\n        }\r\n        eventToDeleteFrom.candidates.pop();\r\n    }\r\n\r\n    function isImageFileNameUsed(string memory _imageFileName)\r\n        public\r\n        view\r\n        returns (bool)\r\n    {\r\n        return usedImageFileNames[_imageFileName];\r\n    } */\r\n\r\n    function isCandidateExistsInEvent(\r\n        uint256 _categoryId,\r\n        uint256 _eventId,\r\n        uint256 _studentId\r\n    ) public view returns (bool) {\r\n        // Check if the category exists\r\n        require(\r\n            categories[_categoryId].categoryId != 0,\r\n            \"Category does not exist\"\r\n        );\r\n\r\n        Candidate[] memory candidatesFound = getAllCandidatesInEvent(\r\n            _categoryId,\r\n            _eventId\r\n        );\r\n\r\n        // Loop through the events in the specified category\r\n\r\n        for (uint256 i = 0; i < candidatesFound.length; i++) {\r\n            if (candidatesFound[i].studentId == _studentId) {\r\n                return true;\r\n            }\r\n        }\r\n\r\n        // Event not found in the specified category\r\n        return false;\r\n    }\r\n\r\n    function isCandidateExistsInEventById(\r\n        uint256 _categoryId,\r\n        uint256 _eventId,\r\n        uint256 _candidateId\r\n    ) public view returns (bool) {\r\n        // Check if the category exists\r\n        require(\r\n            categories[_categoryId].categoryId != 0,\r\n            \"Category does not exist\"\r\n        );\r\n\r\n        Candidate[] memory candidatesFound = getAllCandidatesInEvent(\r\n            _categoryId,\r\n            _eventId\r\n        );\r\n\r\n        // Loop through the events in the specified category\r\n\r\n        for (uint256 i = 0; i < candidatesFound.length; i++) {\r\n            if (candidatesFound[i].id == _candidateId) {\r\n                return true;\r\n            }\r\n        }\r\n\r\n        // Event not found in the specified category\r\n        return false;\r\n    }\r\n\r\n    function isEventExistsById(uint256 _categoryId, uint256 _eventId)\r\n        public\r\n        view\r\n        returns (bool)\r\n    {\r\n        // Check if the category exists\r\n        require(\r\n            categories[_categoryId].categoryId != 0,\r\n            \"Category does not exist\"\r\n        );\r\n\r\n        // Loop through the events in the specified category\r\n        for (uint256 i = 0; i < categories[_categoryId].events.length; i++) {\r\n            if (categories[_categoryId].events[i].eventId == _eventId) {\r\n                // Event found\r\n                return true;\r\n            }\r\n        }\r\n\r\n        // Event not found in the specified category\r\n        return false;\r\n    }\r\n\r\n    function getAllCategoryEvent(uint256 _categoryId)\r\n        public\r\n        view\r\n        returns (Event[] memory foundEvent)\r\n    {\r\n        // find the certain category\r\n        Category storage category = categories[_categoryId];\r\n\r\n        // declare an array variable for storing events\r\n        Event[] memory eventsFound = new Event[](category.events.length);\r\n\r\n        // get all the event name by searching the event in list\r\n        for (uint256 i = 0; i < category.events.length; i++) {\r\n            eventsFound[i] = category.events[i];\r\n        }\r\n\r\n        return (eventsFound);\r\n    }\r\n\r\n    function getAllCandidatesInEvent(uint256 _categoryId, uint256 _eventId)\r\n        public\r\n        view\r\n        returns (Candidate[] memory foundCandidates)\r\n    {\r\n        // find the certain category\r\n        Category storage category = categories[_categoryId];\r\n        // find the certain event in certain category\r\n        for (uint256 i = 0; i < category.events.length; i++) {\r\n            if (category.events[i].eventId == _eventId) {\r\n                Candidate[] memory candidatesFound = new Candidate[](\r\n                    category.events[i].candidateCount\r\n                );\r\n\r\n                for (\r\n                    uint256 j = 0;\r\n                    j < category.events[i].candidates.length;\r\n                    j++\r\n                ) {\r\n                    candidatesFound[j] = category.events[i].candidates[j];\r\n                }\r\n                return (candidatesFound);\r\n            }\r\n        }\r\n    }\r\n\r\n    function getAllCandidates() public view returns (Candidate[] memory) {\r\n        Candidate[] memory candidatesFound = new Candidate[](candidateCount);\r\n        Event[] memory eventFound = new Event[](eventCount);\r\n\r\n        // get all the events\r\n        eventFound = getAllEvent();\r\n        uint256 count = 0;\r\n        // find the candidates inside all the event\r\n        for (uint256 i = 0; i < eventCount; i++) {\r\n            for (uint256 j = 0; j < eventFound[i].candidates.length; j++) {\r\n                candidatesFound[count] = eventFound[i].candidates[j];\r\n                count += 1;\r\n            }\r\n        }\r\n\r\n        return candidatesFound;\r\n    }\r\n\r\n    function getAllCategory() public view returns (Category[] memory) {\r\n        //Candidate[] memory candidatesFound = new Candidate[](candidateCount);\r\n        Category[] memory categoriesFound = new Category[](categoryCount);\r\n        // Iterate through all stored structs\r\n        for (uint256 i = 1; i <= categoryCount; i++) {\r\n            categoriesFound[i - 1] = categories[i];\r\n        }\r\n\r\n        return categoriesFound;\r\n    }\r\n\r\n    function getCategoryById(uint256 _categoryId)\r\n        public\r\n        view\r\n        returns (Category memory)\r\n    {\r\n        return categories[_categoryId];\r\n    }\r\n\r\n    function getAllEvent() public view returns (Event[] memory) {\r\n        // Initialize the array with the correct size\r\n        Event[] memory eventFound = new Event[](eventCount);\r\n        uint256 count = 0;\r\n\r\n        // Iterate through all categories and events\r\n        for (uint256 i = 0; i < categoryCount; i++) {\r\n            for (uint256 j = 0; j < categories[i + 1].events.length; j++) {\r\n                eventFound[count] = categories[i + 1].events[j];\r\n                count += 1;\r\n            }\r\n        }\r\n\r\n        return eventFound;\r\n    }\r\n\r\n    function getEventById(uint256 _categoryId, uint256 _eventId)\r\n        public\r\n        view\r\n        returns (Event memory)\r\n    {\r\n        // Check if the category exists\r\n        require(categories[_categoryId].categoryId != 0, \"Category does not exist\");\r\n\r\n        // Find the event\r\n        bool eventExists = false;\r\n        uint256 eventIndex;\r\n        for (uint256 i = 0; i < categories[_categoryId].events.length; i++) {\r\n            if (categories[_categoryId].events[i].eventId == _eventId) {\r\n                eventExists = true;\r\n                eventIndex = i;\r\n                break;\r\n            }\r\n        }\r\n        require(eventExists, \"Event does not exist\");\r\n\r\n        // Return the event details\r\n        return categories[_categoryId].events[eventIndex];\r\n    }\r\n\r\n     function getCandidateById(uint256 _categoryId, uint256 _eventId, uint256 _candidateId)\r\n        public\r\n        view\r\n        returns (Candidate memory)\r\n    {\r\n        // Check if the category exists\r\n        require(categories[_categoryId].categoryId != 0, \"Category does not exist\");\r\n\r\n        // Find the event\r\n        bool eventExists = false;\r\n        uint256 eventIndex;\r\n        for (uint256 i = 0; i < categories[_categoryId].events.length; i++) {\r\n            if (categories[_categoryId].events[i].eventId == _eventId) {\r\n                eventExists = true;\r\n                eventIndex = i;\r\n                break;\r\n            }\r\n        }\r\n        require(eventExists, \"Event does not exist\");\r\n\r\n        // Find the candidate in the specified event\r\n        bool candidateExists = false;\r\n        uint256 candidateIndex;\r\n        for (uint256 i = 0; i < categories[_categoryId].events[eventIndex].candidates.length; i++) {\r\n            if (categories[_categoryId].events[eventIndex].candidates[i].id == _candidateId) {\r\n                candidateExists = true;\r\n                candidateIndex = i;\r\n                break;\r\n            }\r\n        }\r\n        require(candidateExists, \"Candidate does not exist\");\r\n\r\n        // Return the candidate details\r\n        return categories[_categoryId].events[eventIndex].candidates[candidateIndex];\r\n    }\r\n\r\n    function getEventsByDateRange(uint256 _startDateTime, uint256 _endDateTime)\r\n        public\r\n        view\r\n        returns (Event[] memory)\r\n    {\r\n        // Declare a dynamic array to store events within the date range\r\n        Event[] memory eventsInRange;\r\n\r\n        // Counter to keep track of the number of events within the date range\r\n        uint256 count = 0;\r\n\r\n        // Loop through all categories and events\r\n        for (uint256 i = 1; i <= categoryCount; i++) {\r\n            for (uint256 j = 0; j < categories[i].events.length; j++) {\r\n                Event storage currentEvent = categories[i].events[j];\r\n\r\n                // Check if the event's start date is on or after the specified start date\r\n                // and the event's end date is on or before the specified end date\r\n                if (\r\n                    currentEvent.startDateTime >= _startDateTime &&\r\n                    currentEvent.endDateTime <= _endDateTime\r\n                ) {\r\n                    // Resize the array and add the event\r\n                    eventsInRange = resizeAndAddEvent(eventsInRange, currentEvent, count);\r\n                    count++;\r\n                }\r\n            }\r\n        }\r\n\r\n        return eventsInRange;\r\n    }\r\n\r\n    // Helper function to resize the array and add an event\r\n    function resizeAndAddEvent(\r\n        Event[] memory array,\r\n        Event memory newEvent,\r\n        uint256 count\r\n    ) internal pure returns (Event[] memory) {\r\n        Event[] memory newArray = new Event[](count + 1);\r\n\r\n        for (uint256 i = 0; i < count; i++) {\r\n            newArray[i] = array[i];\r\n        }\r\n\r\n        newArray[count] = newEvent;\r\n\r\n        return newArray;\r\n    }\r\n\r\n    /* function vote(\r\n        string memory _voterKey,\r\n        uint256 _candidateId,\r\n        uint256 _categoryId,\r\n        uint256 _eventId\r\n    ) external {\r\n        require(\r\n            categories[_categoryId].categoryId != 0,\r\n            \"Category does not exists\"\r\n        );\r\n\r\n        require(eventCount != 0, \"Event does not exists\");\r\n\r\n        // for (uint256 i = 1; i <= categories[_categoryId].events.length; i++) {\r\n        //     require(categories[_categoryId].events[i-0].eventId == _eventId, \"noobbbbb\");\r\n        // }\r\n\r\n        require(\r\n            isCandidateExistsInEventById(_categoryId, _eventId, _candidateId) ==\r\n                true,\r\n            \"Candidates does not exists\"\r\n        );\r\n\r\n        // check if has voted\r\n        for (uint256 i = 1; i <= voteEventCount; i++) {\r\n            if (\r\n                keccak256(bytes(_voterKey)) ==\r\n                keccak256(bytes(voteEvents[i].voterKey)) &&\r\n                _categoryId == voteEvents[i].categoryId &&\r\n                _eventId == voteEvents[i].eventId\r\n            ) {\r\n                require(!voteEvents[i].voted, \"You already voted\");\r\n                break;\r\n            }\r\n        }\r\n\r\n        // add count on the candidate\r\n        voteEventCount += 1;\r\n\r\n        // Create a new voteEventStruct\r\n        voteEventStruct memory newVoteEvent = voteEventStruct({\r\n            id: voteEventCount,\r\n            voterKey: _voterKey,\r\n            categoryId: _categoryId,\r\n            eventId: _eventId,\r\n            voted: true\r\n        });\r\n\r\n        voteEvents[voteEventCount] = newVoteEvent;\r\n\r\n        // add the vote count of the chosen candidate\r\n        addVoteCount(_candidateId);\r\n        addVoteCountIn(_categoryId, _eventId, _candidateId);\r\n\r\n        string memory concatenatedValues = string(\r\n            abi.encodePacked(_categoryId, _eventId)\r\n        );\r\n\r\n        emit VoteEvent(_voterKey, concatenatedValues, _candidateId);\r\n    }\r\n\r\n    function addVoteCount(uint256 _candidateId) internal {\r\n        candidates[_candidateId].voteCount += 1;\r\n    }\r\n\r\n    function addVoteCountIn(\r\n        uint256 _categoryId,\r\n        uint256 _eventId,\r\n        uint256 _candidateId\r\n    ) internal {\r\n        // get the events inside the categories\r\n        Event[] storage eventsFound = categories[_categoryId].events;\r\n\r\n        // find the event with param\r\n        for (uint256 i = 0; i < eventsFound.length; i++) {\r\n            if (eventsFound[i].eventId == _eventId) {\r\n                // get the candidate inside the event\r\n                Candidate[] storage candidatesFound = eventsFound[i].candidates;\r\n                // find the candidate\r\n                for (uint256 j = 0; j < candidatesFound.length; j++) {\r\n                    if (candidatesFound[j].id == _candidateId) {\r\n                        // found the candidate and plus 1 at the voteCount\r\n                        candidatesFound[j].voteCount += 1;\r\n                        break;\r\n                    }\r\n                }\r\n            }\r\n        }\r\n    }\r\n\r\n    function getCandidateVoteCount(uint256 _candidateId)\r\n        public\r\n        view\r\n        returns (uint256 count)\r\n    {\r\n        return candidates[_candidateId].voteCount;\r\n    }\r\n\r\n    function getVoteEventCandidate(uint256 _categoryId, uint256 _eventId)\r\n        public\r\n        view\r\n        returns (Candidate[] memory)\r\n    {\r\n        Event[] memory eventsFound = categories[_categoryId].events;\r\n\r\n        for (uint256 i = 0; i < eventsFound.length; i++) {\r\n            if (eventsFound[i].eventId == _eventId) {\r\n                return eventsFound[i].candidates;\r\n            }\r\n        }\r\n\r\n        // If the event is not found, return an empty array or handle the situation accordingly\r\n        return new Candidate[](0);\r\n    }\r\n\r\n    function whoIsTheWinner(uint256 _categoryId, uint256 _eventId)\r\n        public\r\n        view\r\n        returns (Candidate memory)\r\n    {\r\n        Event[] memory eventsFound = categories[_categoryId].events;\r\n        Candidate[] memory candidatesFound;\r\n\r\n        for (uint256 i = 0; i < eventsFound.length; i++) {\r\n            if (eventsFound[i].eventId == _eventId) {\r\n                candidatesFound = eventsFound[i].candidates;\r\n            }\r\n        }\r\n\r\n        Candidate memory winner = candidatesFound[0];\r\n\r\n        for (uint256 i = 0; i < candidatesFound.length - 1; i++) {\r\n            if (winner.voteCount < candidatesFound[i + 1].voteCount) {\r\n                winner = candidatesFound[i + 1];\r\n            }\r\n        }\r\n\r\n        winner.win = true;\r\n\r\n        // If the event is not found, return an empty array or handle the situation accordingly\r\n        return winner;\r\n    } */\r\n}\r\n",
  "sourcePath": "C:\\Users\\User\\FYP1\\contracts\\VotingSystem.sol",
  "compiler": {
    "name": "solc",
    "version": "0.8.13+commit.abaa5c0e.Emscripten.clang"
  },
  "schemaVersion": "3.4.16",
  "updatedAt": "2023-12-18T03:24:49.340Z",
  "networkType": "ethereum",
  "devdoc": {
    "kind": "dev",
    "methods": {},
    "version": 1
  },
  "userdoc": {
    "kind": "user",
    "methods": {},
    "version": 1
  }
}