{
  "contractName": "VotingSystem",
  "abi": [
    {
      "anonymous": false,
      "inputs": [
        {
          "indexed": true,
          "internalType": "uint256",
          "name": "eventId",
          "type": "uint256"
        },
        {
          "indexed": false,
          "internalType": "string",
          "name": "eventName",
          "type": "string"
        }
      ],
      "name": "CandidateAdded",
      "type": "event"
    },
    {
      "anonymous": false,
      "inputs": [
        {
          "indexed": true,
          "internalType": "uint256",
          "name": "categoryId",
          "type": "uint256"
        },
        {
          "indexed": false,
          "internalType": "string",
          "name": "categoryName",
          "type": "string"
        }
      ],
      "name": "CategoryAdded",
      "type": "event"
    },
    {
      "anonymous": false,
      "inputs": [
        {
          "indexed": true,
          "internalType": "uint256",
          "name": "eventId",
          "type": "uint256"
        },
        {
          "indexed": false,
          "internalType": "string",
          "name": "eventName",
          "type": "string"
        }
      ],
      "name": "EventAdded",
      "type": "event"
    },
    {
      "anonymous": false,
      "inputs": [
        {
          "indexed": true,
          "internalType": "uint256",
          "name": "voterId",
          "type": "uint256"
        },
        {
          "indexed": true,
          "internalType": "string",
          "name": "categoryEvent",
          "type": "string"
        },
        {
          "indexed": true,
          "internalType": "uint256",
          "name": "candidate",
          "type": "uint256"
        }
      ],
      "name": "VoteEvent",
      "type": "event"
    },
    {
      "inputs": [
        {
          "internalType": "uint256",
          "name": "",
          "type": "uint256"
        }
      ],
      "name": "voteEvents",
      "outputs": [
        {
          "internalType": "uint256",
          "name": "id",
          "type": "uint256"
        },
        {
          "internalType": "uint256",
          "name": "voterId",
          "type": "uint256"
        },
        {
          "internalType": "uint256",
          "name": "categoryId",
          "type": "uint256"
        },
        {
          "internalType": "uint256",
          "name": "eventId",
          "type": "uint256"
        },
        {
          "internalType": "bool",
          "name": "voted",
          "type": "bool"
        }
      ],
      "stateMutability": "view",
      "type": "function",
      "constant": true
    },
    {
      "inputs": [
        {
          "internalType": "string",
          "name": "_categoryName",
          "type": "string"
        }
      ],
      "name": "addCategory",
      "outputs": [],
      "stateMutability": "nonpayable",
      "type": "function"
    },
    {
      "inputs": [
        {
          "internalType": "uint256",
          "name": "_categoryId",
          "type": "uint256"
        },
        {
          "internalType": "string",
          "name": "_eventName",
          "type": "string"
        }
      ],
      "name": "addEvent",
      "outputs": [],
      "stateMutability": "nonpayable",
      "type": "function"
    },
    {
      "inputs": [
        {
          "internalType": "uint256",
          "name": "_categoryId",
          "type": "uint256"
        },
        {
          "internalType": "uint256",
          "name": "_eventId",
          "type": "uint256"
        },
        {
          "internalType": "string",
          "name": "_candidateName",
          "type": "string"
        }
      ],
      "name": "addCandidateToEvent",
      "outputs": [],
      "stateMutability": "nonpayable",
      "type": "function"
    },
    {
      "inputs": [
        {
          "internalType": "uint256",
          "name": "_categoryId",
          "type": "uint256"
        },
        {
          "internalType": "uint256",
          "name": "_eventId",
          "type": "uint256"
        }
      ],
      "name": "isEventExists",
      "outputs": [
        {
          "internalType": "bool",
          "name": "",
          "type": "bool"
        }
      ],
      "stateMutability": "view",
      "type": "function",
      "constant": true
    },
    {
      "inputs": [
        {
          "internalType": "uint256",
          "name": "_categoryId",
          "type": "uint256"
        },
        {
          "internalType": "string",
          "name": "_eventName",
          "type": "string"
        }
      ],
      "name": "isEventExists",
      "outputs": [
        {
          "internalType": "bool",
          "name": "",
          "type": "bool"
        }
      ],
      "stateMutability": "view",
      "type": "function",
      "constant": true
    },
    {
      "inputs": [
        {
          "internalType": "uint256",
          "name": "_categoryId",
          "type": "uint256"
        }
      ],
      "name": "getAllCategoryEvent",
      "outputs": [
        {
          "internalType": "string[]",
          "name": "foundEvent",
          "type": "string[]"
        }
      ],
      "stateMutability": "view",
      "type": "function",
      "constant": true
    },
    {
      "inputs": [
        {
          "internalType": "uint256",
          "name": "_categoryId",
          "type": "uint256"
        },
        {
          "internalType": "string",
          "name": "_eventName",
          "type": "string"
        }
      ],
      "name": "getAllCategoryEventCandidate",
      "outputs": [
        {
          "internalType": "string[]",
          "name": "candidatesFound",
          "type": "string[]"
        }
      ],
      "stateMutability": "view",
      "type": "function",
      "constant": true
    },
    {
      "inputs": [],
      "name": "getAllCandidates",
      "outputs": [
        {
          "components": [
            {
              "internalType": "uint256",
              "name": "id",
              "type": "uint256"
            },
            {
              "internalType": "string",
              "name": "name",
              "type": "string"
            },
            {
              "internalType": "uint256",
              "name": "CategoryId",
              "type": "uint256"
            },
            {
              "internalType": "uint256",
              "name": "eventId",
              "type": "uint256"
            },
            {
              "internalType": "uint256",
              "name": "voteCount",
              "type": "uint256"
            }
          ],
          "internalType": "struct VotingSystem.Candidate[]",
          "name": "",
          "type": "tuple[]"
        }
      ],
      "stateMutability": "view",
      "type": "function",
      "constant": true
    },
    {
      "inputs": [],
      "name": "getAllCategory",
      "outputs": [
        {
          "components": [
            {
              "internalType": "uint256",
              "name": "categoryId",
              "type": "uint256"
            },
            {
              "internalType": "string",
              "name": "categoryName",
              "type": "string"
            },
            {
              "components": [
                {
                  "internalType": "uint256",
                  "name": "eventId",
                  "type": "uint256"
                },
                {
                  "internalType": "string",
                  "name": "eventName",
                  "type": "string"
                },
                {
                  "internalType": "uint256",
                  "name": "categoryId",
                  "type": "uint256"
                },
                {
                  "components": [
                    {
                      "internalType": "uint256",
                      "name": "id",
                      "type": "uint256"
                    },
                    {
                      "internalType": "string",
                      "name": "name",
                      "type": "string"
                    },
                    {
                      "internalType": "uint256",
                      "name": "CategoryId",
                      "type": "uint256"
                    },
                    {
                      "internalType": "uint256",
                      "name": "eventId",
                      "type": "uint256"
                    },
                    {
                      "internalType": "uint256",
                      "name": "voteCount",
                      "type": "uint256"
                    }
                  ],
                  "internalType": "struct VotingSystem.Candidate[]",
                  "name": "candidates",
                  "type": "tuple[]"
                },
                {
                  "internalType": "uint256",
                  "name": "candidateCount",
                  "type": "uint256"
                }
              ],
              "internalType": "struct VotingSystem.Event[]",
              "name": "events",
              "type": "tuple[]"
            }
          ],
          "internalType": "struct VotingSystem.Category[]",
          "name": "",
          "type": "tuple[]"
        }
      ],
      "stateMutability": "view",
      "type": "function",
      "constant": true
    },
    {
      "inputs": [
        {
          "internalType": "uint256",
          "name": "_categoryId",
          "type": "uint256"
        }
      ],
      "name": "getCategoryById",
      "outputs": [
        {
          "components": [
            {
              "internalType": "uint256",
              "name": "categoryId",
              "type": "uint256"
            },
            {
              "internalType": "string",
              "name": "categoryName",
              "type": "string"
            },
            {
              "components": [
                {
                  "internalType": "uint256",
                  "name": "eventId",
                  "type": "uint256"
                },
                {
                  "internalType": "string",
                  "name": "eventName",
                  "type": "string"
                },
                {
                  "internalType": "uint256",
                  "name": "categoryId",
                  "type": "uint256"
                },
                {
                  "components": [
                    {
                      "internalType": "uint256",
                      "name": "id",
                      "type": "uint256"
                    },
                    {
                      "internalType": "string",
                      "name": "name",
                      "type": "string"
                    },
                    {
                      "internalType": "uint256",
                      "name": "CategoryId",
                      "type": "uint256"
                    },
                    {
                      "internalType": "uint256",
                      "name": "eventId",
                      "type": "uint256"
                    },
                    {
                      "internalType": "uint256",
                      "name": "voteCount",
                      "type": "uint256"
                    }
                  ],
                  "internalType": "struct VotingSystem.Candidate[]",
                  "name": "candidates",
                  "type": "tuple[]"
                },
                {
                  "internalType": "uint256",
                  "name": "candidateCount",
                  "type": "uint256"
                }
              ],
              "internalType": "struct VotingSystem.Event[]",
              "name": "events",
              "type": "tuple[]"
            }
          ],
          "internalType": "struct VotingSystem.Category",
          "name": "",
          "type": "tuple"
        }
      ],
      "stateMutability": "view",
      "type": "function",
      "constant": true
    },
    {
      "inputs": [],
      "name": "getAllEvent",
      "outputs": [
        {
          "components": [
            {
              "internalType": "uint256",
              "name": "eventId",
              "type": "uint256"
            },
            {
              "internalType": "string",
              "name": "eventName",
              "type": "string"
            },
            {
              "internalType": "uint256",
              "name": "categoryId",
              "type": "uint256"
            },
            {
              "components": [
                {
                  "internalType": "uint256",
                  "name": "id",
                  "type": "uint256"
                },
                {
                  "internalType": "string",
                  "name": "name",
                  "type": "string"
                },
                {
                  "internalType": "uint256",
                  "name": "CategoryId",
                  "type": "uint256"
                },
                {
                  "internalType": "uint256",
                  "name": "eventId",
                  "type": "uint256"
                },
                {
                  "internalType": "uint256",
                  "name": "voteCount",
                  "type": "uint256"
                }
              ],
              "internalType": "struct VotingSystem.Candidate[]",
              "name": "candidates",
              "type": "tuple[]"
            },
            {
              "internalType": "uint256",
              "name": "candidateCount",
              "type": "uint256"
            }
          ],
          "internalType": "struct VotingSystem.Event[]",
          "name": "",
          "type": "tuple[]"
        }
      ],
      "stateMutability": "view",
      "type": "function",
      "constant": true
    },
    {
      "inputs": [
        {
          "internalType": "uint256",
          "name": "_voterId",
          "type": "uint256"
        },
        {
          "internalType": "uint256",
          "name": "_candidateId",
          "type": "uint256"
        },
        {
          "internalType": "uint256",
          "name": "_categoryId",
          "type": "uint256"
        },
        {
          "internalType": "uint256",
          "name": "_eventId",
          "type": "uint256"
        }
      ],
      "name": "vote",
      "outputs": [],
      "stateMutability": "nonpayable",
      "type": "function"
    },
    {
      "inputs": [
        {
          "internalType": "uint256",
          "name": "_candidateId",
          "type": "uint256"
        }
      ],
      "name": "getCandidateVoteCount",
      "outputs": [
        {
          "internalType": "uint256",
          "name": "count",
          "type": "uint256"
        }
      ],
      "stateMutability": "view",
      "type": "function",
      "constant": true
    },
    {
      "inputs": [
        {
          "internalType": "uint256",
          "name": "_categoryId",
          "type": "uint256"
        },
        {
          "internalType": "uint256",
          "name": "_eventId",
          "type": "uint256"
        }
      ],
      "name": "getVoteEventCandidate",
      "outputs": [
        {
          "components": [
            {
              "internalType": "uint256",
              "name": "id",
              "type": "uint256"
            },
            {
              "internalType": "string",
              "name": "name",
              "type": "string"
            },
            {
              "internalType": "uint256",
              "name": "CategoryId",
              "type": "uint256"
            },
            {
              "internalType": "uint256",
              "name": "eventId",
              "type": "uint256"
            },
            {
              "internalType": "uint256",
              "name": "voteCount",
              "type": "uint256"
            }
          ],
          "internalType": "struct VotingSystem.Candidate[]",
          "name": "",
          "type": "tuple[]"
        }
      ],
      "stateMutability": "view",
      "type": "function",
      "constant": true
    },
    {
      "inputs": [
        {
          "internalType": "uint256",
          "name": "_categoryId",
          "type": "uint256"
        },
        {
          "internalType": "uint256",
          "name": "_eventId",
          "type": "uint256"
        }
      ],
      "name": "whoIsTheWinner",
      "outputs": [
        {
          "components": [
            {
              "internalType": "uint256",
              "name": "id",
              "type": "uint256"
            },
            {
              "internalType": "string",
              "name": "name",
              "type": "string"
            },
            {
              "internalType": "uint256",
              "name": "CategoryId",
              "type": "uint256"
            },
            {
              "internalType": "uint256",
              "name": "eventId",
              "type": "uint256"
            },
            {
              "internalType": "uint256",
              "name": "voteCount",
              "type": "uint256"
            }
          ],
          "internalType": "struct VotingSystem.Candidate",
          "name": "",
          "type": "tuple"
        }
      ],
      "stateMutability": "view",
      "type": "function",
      "constant": true
    }
  ],
  "bytecode": "0x608060405234801561001057600080fd5b50612a86806100206000396000f3fe608060405234801561001057600080fd5b50600436106101005760003560e01c806368c9e38811610097578063a7e62d1b11610066578063a7e62d1b14610289578063b315c5971461029c578063c2dfedfa146102cd578063ffdd108b146102e057600080fd5b806368c9e3881461022e578063748f55a8146102415780638622a4db146102615780638f2c28051461027457600080fd5b80634fb43250116100d35780634fb432501461016d57806350515a771461019057806360e93f3c146101a3578063642d20ad146101c357600080fd5b80631002cdd4146101055780632e0dcbf7146101235780632e6997fe14610138578063401a52dd1461014d575b600080fd5b61010d6102f3565b60405161011a9190612495565b60405180910390f35b6101366101313660046125df565b61061b565b005b61014061073d565b60405161011a919061261c565b61016061015b366004612636565b610915565b60405161011a919061264f565b61018061017b3660046126b1565b610a70565b604051901515815260200161011a565b61018061019e3660046126d3565b610b49565b6101b66101b1366004612636565b610c31565b60405161011a91906127e1565b6102046101d1366004612636565b60036020819052600091825260409091208054600182015460028301549383015460049093015491939092909160ff1685565b6040805195865260208601949094529284019190915260608301521515608082015260a00161011a565b61013661023c3660046127f4565b610f92565b61025461024f3660046126b1565b611266565b60405161011a9190612826565b61013661026f366004612839565b6115d9565b61027c6117e1565b60405161011a9190612889565b6101406102973660046126b1565b611b7f565b6102bf6102aa366004612636565b60009081526002602052604090206004015490565b60405190815260200161011a565b6101606102db3660046126d3565b611e7a565b6101366102ee3660046126d3565b6120b1565b6060600060065467ffffffffffffffff8111156103125761031261253c565b60405190808252806020026020018201604052801561037557816020015b6103626040518060a0016040528060008152602001606081526020016000815260200160608152602001600081525090565b8152602001906001900390816103305790505b5090506000805b6004548110156106135760005b6000806103978460016128f4565b8152602081019190915260400160002060020154811015610600576000806103c08460016128f4565b815260200190815260200160002060020181815481106103e2576103e261290c565b90600052602060002090600502016040518060a00160405290816000820154815260200160018201805461041590612922565b80601f016020809104026020016040519081016040528092919081815260200182805461044190612922565b801561048e5780601f106104635761010080835404028352916020019161048e565b820191906000526020600020905b81548152906001019060200180831161047157829003601f168201915b505050505081526020016002820154815260200160038201805480602002602001604051908101604052809291908181526020016000905b828210156105b257838290600052602060002090600502016040518060a00160405290816000820154815260200160018201805461050390612922565b80601f016020809104026020016040519081016040528092919081815260200182805461052f90612922565b801561057c5780601f106105515761010080835404028352916020019161057c565b820191906000526020600020905b81548152906001019060200180831161055f57829003601f168201915b505050505081526020016002820154815260200160038201548152602001600482015481525050815260200190600101906104c6565b5050505081526020016004820154815250508484815181106105d6576105d661290c565b60209081029190910101526105ec6001846128f4565b9250806105f881612956565b915050610389565b508061060b81612956565b91505061037c565b509092915050565b60015b60045481116106ba57600081815260208190526040908190209051610646916001019061296f565b60405180910390208280519060200120036106a85760405162461bcd60e51b815260206004820152601760248201527f43617465676f727920616c72656164792065786973747300000000000000000060448201526064015b60405180910390fd5b806106b281612956565b91505061061e565b506001600460008282546106ce91906128f4565b9091555050600454600090815260208181526040909120825190916106fa916001840191850190612302565b506004548082556040517f5bae3f75753ef0a1c0ea0f6c51d7b43a4b8d116572b8b7b5cb771f9ad32d4ae590610731908590612a0a565b60405180910390a25050565b6060600060055467ffffffffffffffff81111561075c5761075c61253c565b6040519080825280602002602001820160405280156107bf57816020015b6107ac6040518060a0016040528060008152602001606081526020016000815260200160008152602001600081525090565b81526020019060019003908161077a5790505b509050600060065467ffffffffffffffff8111156107df576107df61253c565b60405190808252806020026020018201604052801561084257816020015b61082f6040518060a0016040528060008152602001606081526020016000815260200160608152602001600081525090565b8152602001906001900390816107fd5790505b50905061084d6102f3565b90506000805b60065481101561090c5760005b8382815181106108725761087261290c565b602002602001015160600151518110156108f9578382815181106108985761089861290c565b60200260200101516060015181815181106108b5576108b561290c565b60200260200101518584815181106108cf576108cf61290c565b60209081029190910101526108e56001846128f4565b9250806108f181612956565b915050610860565b508061090481612956565b915050610853565b50919392505050565b600081815260208190526040812060028101546060929067ffffffffffffffff8111156109445761094461253c565b60405190808252806020026020018201604052801561097757816020015b60608152602001906001900390816109625790505b50905060005b6002830154811015610a685782600201818154811061099e5761099e61290c565b906000526020600020906005020160010180546109ba90612922565b80601f01602080910402602001604051908101604052809291908181526020018280546109e690612922565b8015610a335780601f10610a0857610100808354040283529160200191610a33565b820191906000526020600020905b815481529060010190602001808311610a1657829003601f168201915b5050505050828281518110610a4a57610a4a61290c565b60200260200101819052508080610a6090612956565b91505061097d565b509392505050565b6000828152602081905260408120548103610ac75760405162461bcd60e51b815260206004820152601760248201527610d85d1959dbdc9e48191bd95cc81b9bdd08195e1a5cdd604a1b604482015260640161069f565b60005b600084815260208190526040902060020154811015610b3d57826000808681526020019081526020016000206002018281548110610b0a57610b0a61290c565b90600052602060002090600502016000015403610b2b576001915050610b43565b80610b3581612956565b915050610aca565b50600090505b92915050565b6000828152602081905260408120548103610ba05760405162461bcd60e51b815260206004820152601760248201527610d85d1959dbdc9e48191bd95cc81b9bdd08195e1a5cdd604a1b604482015260640161069f565b60005b600084815260208190526040902060020154811015610b3d5782805190602001206000808681526020019081526020016000206002018281548110610bea57610bea61290c565b9060005260206000209060050201600101604051610c08919061296f565b604051809103902003610c1f576001915050610b43565b80610c2981612956565b915050610ba3565b610c5560405180606001604052806000815260200160608152602001606081525090565b610c7960405180606001604052806000815260200160608152602001606081525090565b60015b6004548111610f8b57600081815260208190526040902054849003610f795760008181526020818152604091829020825160608101909352805483526001810180549192840191610ccc90612922565b80601f0160208091040260200160405190810160405280929190818152602001828054610cf890612922565b8015610d455780601f10610d1a57610100808354040283529160200191610d45565b820191906000526020600020905b815481529060010190602001808311610d2857829003601f168201915b5050505050815260200160028201805480602002602001604051908101604052809291908181526020016000905b82821015610f6e57838290600052602060002090600502016040518060a001604052908160008201548152602001600182018054610db090612922565b80601f0160208091040260200160405190810160405280929190818152602001828054610ddc90612922565b8015610e295780601f10610dfe57610100808354040283529160200191610e29565b820191906000526020600020905b815481529060010190602001808311610e0c57829003601f168201915b505050505081526020016002820154815260200160038201805480602002602001604051908101604052809291908181526020016000905b82821015610f4d57838290600052602060002090600502016040518060a001604052908160008201548152602001600182018054610e9e90612922565b80601f0160208091040260200160405190810160405280929190818152602001828054610eca90612922565b8015610f175780601f10610eec57610100808354040283529160200191610f17565b820191906000526020600020905b815481529060010190602001808311610efa57829003601f168201915b50505050508152602001600282015481526020016003820154815260200160048201548152505081526020019060010190610e61565b50505050815260200160048201548152505081526020019060010190610d73565b505050508152505091505b80610f8381612956565b915050610c7c565b5092915050565b6000828152602081905260408120549003610fef5760405162461bcd60e51b815260206004820152601860248201527f43617465676f727920646f6573206e6f74206578697374730000000000000000604482015260640161069f565b6006546000036110395760405162461bcd60e51b81526020600482015260156024820152744576656e7420646f6573206e6f742065786973747360581b604482015260640161069f565b60008381526002602052604081205490036110965760405162461bcd60e51b815260206004820152601a60248201527f43616e6469646174657320646f6573206e6f7420657869737473000000000000604482015260640161069f565b60015b600754811161116157600081815260036020526040902060010154851480156110d2575060008181526003602052604090206002015483145b80156110ef57506000818152600360208190526040909120015482145b1561114f5760008181526003602052604090206004015460ff161561114a5760405162461bcd60e51b8152602060048201526011602482015270165bdd48185b1c9958591e481d9bdd1959607a1b604482015260640161069f565b611161565b8061115981612956565b915050611099565b5060016007600082825461117591906128f4565b90915550506040805160a0810182526007548082526020808301888152838501878152606085018781526001608087018181526000968752600395869052979095208651815592519483019490945551600282015591519082015591516004909201805460ff1916921515929092179091556111f0846121c8565b6111fb8383866121f2565b604080516020810185905280820184905281518082038301815260609091019182905290859061122c908390612a1d565b6040519081900381209088907fdd0629bf37ec3179d8b6727c2eb4d0f297cf08a85b960c1520666db55feb5b3990600090a4505050505050565b6112986040518060a0016040528060008152602001606081526020016000815260200160008152602001600081525090565b60008381526020818152604080832060020180548251818502810185019093528083529192909190849084015b828210156114c057838290600052602060002090600502016040518060a00160405290816000820154815260200160018201805461130290612922565b80601f016020809104026020016040519081016040528092919081815260200182805461132e90612922565b801561137b5780601f106113505761010080835404028352916020019161137b565b820191906000526020600020905b81548152906001019060200180831161135e57829003601f168201915b505050505081526020016002820154815260200160038201805480602002602001604051908101604052809291908181526020016000905b8282101561149f57838290600052602060002090600502016040518060a0016040529081600082015481526020016001820180546113f090612922565b80601f016020809104026020016040519081016040528092919081815260200182805461141c90612922565b80156114695780601f1061143e57610100808354040283529160200191611469565b820191906000526020600020905b81548152906001019060200180831161144c57829003601f168201915b505050505081526020016002820154815260200160038201548152602001600482015481525050815260200190600101906113b3565b505050508152602001600482015481525050815260200190600101906112c5565b505050509050606060005b825181101561152b57848382815181106114e7576114e761290c565b602002602001015160000151036115195782818151811061150a5761150a61290c565b60200260200101516060015191505b8061152381612956565b9150506114cb565b506000816000815181106115415761154161290c565b6020026020010151905060005b6001835161155c9190612a39565b8110156115cf578261156f8260016128f4565b8151811061157f5761157f61290c565b602002602001015160800151826080015110156115bd57826115a28260016128f4565b815181106115b2576115b261290c565b602002602001015191505b806115c781612956565b91505061154e565b5095945050505050565b60008381526020819052604081205490036116305760405162461bcd60e51b815260206004820152601760248201527643617465676f727920686173206e6f742065786973747360481b604482015260640161069f565b61163a8383610a70565b15156001146116825760405162461bcd60e51b81526020600482015260146024820152734576656e7420686173206e6f742065786973747360601b604482015260640161069f565b60016005600082825461169591906128f4565b90915550506040805160a08101825260055481526020808201849052818301869052606082018590526000608083018190528681529081905291822090915b60028201548110156117d957848260020182815481106116f6576116f661290c565b906000526020600020906005020160000154036117c7578160020181815481106117225761172261290c565b600091825260208083206005928302016003018054600180820183559185529382902087519490930290920192835585810151805187949361176993908501920190612302565b50604082015181600201556060820151816003015560808201518160040155505060018260020182815481106117a1576117a161290c565b906000526020600020906005020160040160008282546117c191906128f4565b90915550505b806117d181612956565b9150506116d4565b505050505050565b6060600060045467ffffffffffffffff8111156118005761180061253c565b60405190808252806020026020018201604052801561185557816020015b61184260405180606001604052806000815260200160608152602001606081525090565b81526020019060019003908161181e5790505b50905060015b6004548111611b79576000818152602081815260409182902082516060810190935280548352600181018054919284019161189590612922565b80601f01602080910402602001604051908101604052809291908181526020018280546118c190612922565b801561190e5780601f106118e35761010080835404028352916020019161190e565b820191906000526020600020905b8154815290600101906020018083116118f157829003601f168201915b5050505050815260200160028201805480602002602001604051908101604052809291908181526020016000905b82821015611b3757838290600052602060002090600502016040518060a00160405290816000820154815260200160018201805461197990612922565b80601f01602080910402602001604051908101604052809291908181526020018280546119a590612922565b80156119f25780601f106119c7576101008083540402835291602001916119f2565b820191906000526020600020905b8154815290600101906020018083116119d557829003601f168201915b505050505081526020016002820154815260200160038201805480602002602001604051908101604052809291908181526020016000905b82821015611b1657838290600052602060002090600502016040518060a001604052908160008201548152602001600182018054611a6790612922565b80601f0160208091040260200160405190810160405280929190818152602001828054611a9390612922565b8015611ae05780601f10611ab557610100808354040283529160200191611ae0565b820191906000526020600020905b815481529060010190602001808311611ac357829003601f168201915b50505050508152602001600282015481526020016003820154815260200160048201548152505081526020019060010190611a2a565b5050505081526020016004820154815250508152602001906001019061193c565b505050915250839050611b4b600184612a39565b81518110611b5b57611b5b61290c565b60200260200101819052508080611b7190612956565b91505061185b565b50919050565b600082815260208181526040808320600201805482518185028101850190935280835260609493849084015b82821015611da657838290600052602060002090600502016040518060a001604052908160008201548152602001600182018054611be890612922565b80601f0160208091040260200160405190810160405280929190818152602001828054611c1490612922565b8015611c615780601f10611c3657610100808354040283529160200191611c61565b820191906000526020600020905b815481529060010190602001808311611c4457829003601f168201915b505050505081526020016002820154815260200160038201805480602002602001604051908101604052809291908181526020016000905b82821015611d8557838290600052602060002090600502016040518060a001604052908160008201548152602001600182018054611cd690612922565b80601f0160208091040260200160405190810160405280929190818152602001828054611d0290612922565b8015611d4f5780601f10611d2457610100808354040283529160200191611d4f565b820191906000526020600020905b815481529060010190602001808311611d3257829003601f168201915b50505050508152602001600282015481526020016003820154815260200160048201548152505081526020019060010190611c99565b50505050815260200160048201548152505081526020019060010190611bab565b50505050905060005b8151811015611e155783828281518110611dcb57611dcb61290c565b60200260200101516000015103611e0357818181518110611dee57611dee61290c565b60200260200101516060015192505050610b43565b80611e0d81612956565b915050611daf565b506040805160008082526020820190925290611e71565b611e5e6040518060a0016040528060008152602001606081526020016000815260200160008152602001600081525090565b815260200190600190039081611e2c5790505b50949350505050565b60008281526020819052604081206060915b60028201548110156120a9578380519060200120826002018281548110611eb557611eb561290c565b9060005260206000209060050201600101604051611ed3919061296f565b604051809103902003612097576000826002018281548110611ef757611ef761290c565b90600052602060002090600502016004015467ffffffffffffffff811115611f2157611f2161253c565b604051908082528060200260200182016040528015611f5457816020015b6060815260200190600190039081611f3f5790505b50905060005b836002018381548110611f6f57611f6f61290c565b90600052602060002090600502016003018054905081101561208c57836002018381548110611fa057611fa061290c565b90600052602060002090600502016003018181548110611fc257611fc261290c565b90600052602060002090600502016001018054611fde90612922565b80601f016020809104026020016040519081016040528092919081815260200182805461200a90612922565b80156120575780601f1061202c57610100808354040283529160200191612057565b820191906000526020600020905b81548152906001019060200180831161203a57829003601f168201915b505050505082828151811061206e5761206e61290c565b6020026020010181905250808061208490612956565b915050611f5a565b509250610b43915050565b806120a181612956565b915050611e8c565b505092915050565b60008281526020819052604081205490036121085760405162461bcd60e51b815260206004820152601760248201527643617465676f727920686173206e6f742065786973747360481b604482015260640161069f565b6121128282610b49565b156121565760405162461bcd60e51b81526020600482015260146024820152734576656e7420616c72656164792065786973747360601b604482015260640161069f565b60008281526020819052604081206006805491929160019190839061217c9084906128f4565b91829055506002840180546001818101835560009283526020928390206005909202909101838155875193955093506121bb9290840191870190612302565b5060020193909355505050565b60008181526002602052604081206004018054600192906121ea9084906128f4565b909155505050565b6000838152602081905260408120600201905b81548110156122fb57838282815481106122215761222161290c565b906000526020600020906005020160000154036122e957600082828154811061224c5761224c61290c565b9060005260206000209060050201600301905060005b81548110156122e6578482828154811061227e5761227e61290c565b906000526020600020906005020160000154036122d45760018282815481106122a9576122a961290c565b906000526020600020906005020160040160008282546122c991906128f4565b909155506122e69050565b806122de81612956565b915050612262565b50505b806122f381612956565b915050612205565b5050505050565b82805461230e90612922565b90600052602060002090601f0160209004810192826123305760008555612376565b82601f1061234957805160ff1916838001178555612376565b82800160010185558215612376579182015b8281111561237657825182559160200191906001019061235b565b50612382929150612386565b5090565b5b808211156123825760008155600101612387565b60005b838110156123b657818101518382015260200161239e565b838111156123c5576000848401525b50505050565b600081518084526123e381602086016020860161239b565b601f01601f19169290920160200192915050565b805182526000602082015160a0602085015261241660a08501826123cb565b90506040830151604085015260608301516060850152608083015160808501528091505092915050565b600081518084526020808501808196508360051b8101915082860160005b858110156124885782840389526124768483516123f7565b9885019893509084019060010161245e565b5091979650505050505050565b60006020808301818452808551808352604092508286019150828160051b87010184880160005b8381101561252e57603f19898403018552815160a08151855288820151818a8701526124ea828701826123cb565b91505087820151888601526060808301518683038288015261250c8382612440565b60809485015197909401969096525050948701949250908601906001016124bc565b509098975050505050505050565b634e487b7160e01b600052604160045260246000fd5b600082601f83011261256357600080fd5b813567ffffffffffffffff8082111561257e5761257e61253c565b604051601f8301601f19908116603f011681019082821181831017156125a6576125a661253c565b816040528381528660208588010111156125bf57600080fd5b836020870160208301376000602085830101528094505050505092915050565b6000602082840312156125f157600080fd5b813567ffffffffffffffff81111561260857600080fd5b61261484828501612552565b949350505050565b60208152600061262f6020830184612440565b9392505050565b60006020828403121561264857600080fd5b5035919050565b6000602080830181845280855180835260408601915060408160051b870101925083870160005b828110156126a457603f198886030184526126928583516123cb565b94509285019290850190600101612676565b5092979650505050505050565b600080604083850312156126c457600080fd5b50508035926020909101359150565b600080604083850312156126e657600080fd5b82359150602083013567ffffffffffffffff81111561270457600080fd5b61271085828601612552565b9150509250929050565b60006060825184526020808401518282870152612739838701826123cb565b9050604080860151878303828901528281518085528585019150858160051b860101868401935060005b828110156127d257601f19878303018452845160a08151845289820151818b860152612791828601826123cb565b91505087820151888501528a8201518482038c8601526127b18282612440565b60809384015195909301949094525094880194938801939150600101612763565b509a9950505050505050505050565b60208152600061262f602083018461271a565b6000806000806080858703121561280a57600080fd5b5050823594602084013594506040840135936060013592509050565b60208152600061262f60208301846123f7565b60008060006060848603121561284e57600080fd5b8335925060208401359150604084013567ffffffffffffffff81111561287357600080fd5b61287f86828701612552565b9150509250925092565b6000602080830181845280855180835260408601915060408160051b870101925083870160005b828110156126a457603f198886030184526128cc85835161271a565b945092850192908501906001016128b0565b634e487b7160e01b600052601160045260246000fd5b60008219821115612907576129076128de565b500190565b634e487b7160e01b600052603260045260246000fd5b600181811c9082168061293657607f821691505b602082108103611b7957634e487b7160e01b600052602260045260246000fd5b600060018201612968576129686128de565b5060010190565b600080835481600182811c91508083168061298b57607f831692505b602080841082036129aa57634e487b7160e01b86526022600452602486fd5b8180156129be57600181146129cf576129fc565b60ff198616895284890196506129fc565b60008a81526020902060005b868110156129f45781548b8201529085019083016129db565b505084890196505b509498975050505050505050565b60208152600061262f60208301846123cb565b60008251612a2f81846020870161239b565b9190910192915050565b600082821015612a4b57612a4b6128de565b50039056fea2646970667358221220448037e51c1d916089245a41966d3f2feec7b8df4dbdf5b67c87fc931535735864736f6c634300080d0033",
  "immutableReferences": {},
  "source": "// SPDX-License-Identifier: MIT\npragma solidity >=0.4.22 <0.9.0;\n\ncontract VotingSystem {\n    struct Event {\n        uint256 eventId;\n        string eventName;\n        uint256 categoryId;\n        Candidate[] candidates;\n        uint256 candidateCount;\n    }\n\n    struct Category {\n        uint256 categoryId;\n        string categoryName;\n        Event[] events; //category has many event\n    }\n\n    struct Candidate {\n        uint256 id;\n        string name;\n        uint256 CategoryId;\n        uint256 eventId;\n        uint256 voteCount;\n    }\n\n    struct voteEventStruct {\n        uint256 id;\n        uint256 voterId;\n        uint256 categoryId;\n        uint256 eventId;\n        bool voted;\n    }\n\n    event CategoryAdded(uint256 indexed categoryId, string categoryName);\n    event EventAdded(uint256 indexed eventId, string eventName);\n    event CandidateAdded(uint256 indexed eventId, string eventName);\n\n    mapping(uint256 => Category) categories;\n    mapping(uint256 => Event) events;\n    mapping(uint256 => Candidate) candidates;\n    mapping(uint256 => voteEventStruct) public voteEvents;\n\n    uint256 categoryCount;\n    uint256 candidateCount;\n    uint256 eventCount;\n    uint256 voteEventCount;\n\n    event VoteEvent(\n        uint256 indexed voterId,\n        string indexed categoryEvent,\n        uint256 indexed candidate\n    );\n\n    function addCategory(string memory _categoryName) public {\n        // check if the category is exist\n        for (uint256 i = 1; i <= categoryCount; i++) {\n            require(\n                keccak256(bytes(_categoryName)) !=\n                    keccak256(bytes(categories[i].categoryName)),\n                \"Category already exists\"\n            );\n        }\n\n        // total category plus 1, use it as the category's id\n        categoryCount += 1;\n\n        // add the category details in the category list\n        Category storage category = categories[categoryCount];\n        category.categoryName = _categoryName;\n        category.categoryId = categoryCount;\n\n        // emit the category added event\n        emit CategoryAdded(categoryCount, _categoryName);\n    }\n\n    function addEvent(uint256 _categoryId, string memory _eventName) public {\n        // check if the category has exists\n        require(\n            categories[_categoryId].categoryId != 0,\n            \"Category has not exists\"\n        );\n\n        require(\n            isEventExists(_categoryId, _eventName) == false,\n            \"Event already exists\"\n        );\n\n        // find out the category in list by using the paramerter category name\n        Category storage category = categories[_categoryId];\n\n        // add the event in the category list\n        uint256 eventId = eventCount += 1;\n\n        Event storage newEvent = category.events.push();\n        newEvent.eventId = eventId;\n        newEvent.eventName = _eventName;\n        newEvent.categoryId = _categoryId;\n\n        // // Add candidates to the event\n        // for (uint256 i = 0; i < _candidateNames.length; i++) {\n        //     string memory candidateName = _candidateNames[i];\n        //     candidateCount += 1;\n        //     // Create a new candidate\n        //     Candidate memory newCandidate = Candidate({\n        //         id: candidateCount,\n        //         name: candidateName,\n        //         CategoryId: _categoryId,\n        //         eventName: _eventName,\n        //         voteCount: 0\n        //     });\n        //     // Push the new candidate to the candidates array\n        //     candidates[candidateCount] = newCandidate;\n        //     listEvent.candidates.push(newCandidate);\n        //     newEvent.candidates.push(newCandidate);\n        // }\n    }\n\n    function isEventExists(uint256 _categoryId, string memory _eventName)\n        public\n        view\n        returns (bool)\n    {\n        // Check if the category exists\n        require(\n            categories[_categoryId].categoryId != 0,\n            \"Category does not exist\"\n        );\n\n        // Loop through the events in the specified category\n        for (uint256 i = 0; i < categories[_categoryId].events.length; i++) {\n            if (\n                keccak256(bytes(categories[_categoryId].events[i].eventName)) ==\n                keccak256(bytes(_eventName))\n            ) {\n                // Event found\n                return true;\n            }\n        }\n\n        // Event not found in the specified category\n        return false;\n    }\n\n    function addCandidateToEvent(\n        uint256 _categoryId,\n        uint256 _eventId,\n        string memory _candidateName\n    ) public {\n        require(\n            categories[_categoryId].categoryId != 0,\n            \"Category has not exists\"\n        );\n\n        require(\n            isEventExists(_categoryId, _eventId) == true,\n            \"Event has not exists\"\n        );\n\n        candidateCount += 1;\n        // Create a new candidate\n        Candidate memory newCandidate = Candidate({\n            id: candidateCount,\n            name: _candidateName,\n            CategoryId: _categoryId,\n            eventId: _eventId,\n            voteCount: 0\n        });\n\n        // find the certain category\n        Category storage category = categories[_categoryId];\n        // find the certain event in certain category\n        for (uint256 i = 0; i < category.events.length; i++) {\n            if (category.events[i].eventId == _eventId) {\n                category.events[i].candidates.push(newCandidate);\n                category.events[i].candidateCount += 1;\n            }\n        }\n    }\n\n    function isEventExists(uint256 _categoryId, uint256 _eventId)\n        public\n        view\n        returns (bool)\n    {\n        // Check if the category exists\n        require(\n            categories[_categoryId].categoryId != 0,\n            \"Category does not exist\"\n        );\n\n        // Loop through the events in the specified category\n        for (uint256 i = 0; i < categories[_categoryId].events.length; i++) {\n            if (categories[_categoryId].events[i].eventId == _eventId) {\n                // Event found\n                return true;\n            }\n        }\n\n        // Event not found in the specified category\n        return false;\n    }\n\n    function getAllCategoryEvent(uint256 _categoryId)\n        public\n        view\n        returns (string[] memory foundEvent)\n    {\n        // find the certain category\n        Category storage category = categories[_categoryId];\n\n        // declare an array variable for storing events\n        string[] memory eventsName = new string[](category.events.length);\n\n        // get all the event name by searching the event in list\n        for (uint256 i = 0; i < category.events.length; i++) {\n            eventsName[i] = category.events[i].eventName;\n        }\n\n        return (eventsName);\n    }\n\n    function getAllCategoryEventCandidate(\n        uint256 _categoryId,\n        string memory _eventName\n    ) public view returns (string[] memory candidatesFound) {\n        // find the certain category\n        Category storage category = categories[_categoryId];\n        // find the certain event in certain category\n        for (uint256 i = 0; i < category.events.length; i++) {\n            if (\n                keccak256(bytes(category.events[i].eventName)) ==\n                keccak256(bytes(_eventName))\n            ) {\n                string[] memory candidatesName = new string[](\n                    category.events[i].candidateCount\n                );\n\n                for (\n                    uint256 j = 0;\n                    j < category.events[i].candidates.length;\n                    j++\n                ) {\n                    candidatesName[j] = category.events[i].candidates[j].name;\n                }\n                return (candidatesName);\n            }\n        }\n    }\n\n    function getAllCandidates() public view returns (Candidate[] memory) {\n        Candidate[] memory candidatesFound = new Candidate[](candidateCount);\n        Event[] memory eventFound = new Event[](eventCount);\n\n        // get all the events\n        eventFound = getAllEvent();\n        uint256 count = 0;\n        // find the candidates inside all the event\n        for (uint256 i = 0; i < eventCount; i++) {\n            for (uint256 j = 0; j < eventFound[i].candidates.length; j++) {\n                candidatesFound[count] = eventFound[i].candidates[j];\n                count += 1;\n            }\n        }\n\n        return candidatesFound;\n    }\n\n    function getAllCategory() public view returns (Category[] memory) {\n        //Candidate[] memory candidatesFound = new Candidate[](candidateCount);\n        Category[] memory categoriesFound = new Category[](categoryCount);\n        // Iterate through all stored structs\n        for (uint256 i = 1; i <= categoryCount; i++) {\n            categoriesFound[i - 1] = categories[i];\n        }\n\n        return categoriesFound;\n    }\n\n    function getCategoryById(uint256 _categoryId)\n        public\n        view\n        returns (Category memory)\n    {\n        Category memory categoriesFound;\n        // Iterate through all stored structs\n        for (uint256 i = 1; i <= categoryCount; i++) {\n            if (categories[i].categoryId == _categoryId) {\n                categoriesFound = categories[i];\n            }\n        }\n\n        return categoriesFound;\n    }\n\n    function getAllEvent() public view returns (Event[] memory) {\n        // Initialize the array with the correct size\n        Event[] memory eventFound = new Event[](eventCount);\n        uint256 count = 0;\n\n        // Iterate through all categories and events\n        for (uint256 i = 0; i < categoryCount; i++) {\n            for (uint256 j = 0; j < categories[i + 1].events.length; j++) {\n                eventFound[count] = categories[i + 1].events[j];\n                count += 1;\n            }\n        }\n\n        return eventFound;\n    }\n\n    function vote(\n        uint256 _voterId,\n        uint256 _candidateId,\n        uint256 _categoryId,\n        uint256 _eventId\n    ) external {\n        require(\n            categories[_categoryId].categoryId != 0,\n            \"Category does not exists\"\n        );\n\n        require(eventCount != 0, \"Event does not exists\");\n\n        // for (uint256 i = 1; i <= categories[_categoryId].events.length; i++) {\n        //     require(categories[_categoryId].events[i-0].eventId == _eventId, \"noobbbbb\");\n        // }\n\n        require(candidates[_candidateId].id != 0, \"Candidates does not exists\");\n\n        // check if has voted\n        for (uint256 i = 1; i <= voteEventCount; i++) {\n            if (\n                _voterId == voteEvents[i].voterId &&\n                _categoryId == voteEvents[i].categoryId &&\n                _eventId == voteEvents[i].eventId\n            ) {\n                require(!voteEvents[i].voted, \"You already voted\");\n                break;\n            }\n        }\n\n        // add count on the candidate\n        voteEventCount += 1;\n\n        // Create a new voteEventStruct\n        voteEventStruct memory newVoteEvent = voteEventStruct({\n            id: voteEventCount,\n            voterId: _voterId,\n            categoryId: _categoryId,\n            eventId: _eventId,\n            voted: true\n        });\n\n        voteEvents[voteEventCount] = newVoteEvent;\n\n        // add the vote count of the chosen candidate\n        addVoteCount(_candidateId);\n        addVoteCountIn(_categoryId, _eventId, _candidateId);\n\n        string memory concatenatedValues = string(\n            abi.encodePacked(_categoryId, _eventId)\n        );\n\n        emit VoteEvent(_voterId, concatenatedValues, _candidateId);\n    }\n\n    function addVoteCount(uint256 _candidateId) internal {\n        candidates[_candidateId].voteCount += 1;\n    }\n\n    function addVoteCountIn(\n        uint256 _categoryId,\n        uint256 _eventId,\n        uint256 _candidateId\n    ) internal {\n        // get the events inside the categories\n        Event[] storage eventsFound = categories[_categoryId].events;\n\n        // find the event with param\n        for (uint256 i = 0; i < eventsFound.length; i++) {\n            if (eventsFound[i].eventId == _eventId) {\n                // get the candidate inside the event\n                Candidate[] storage candidatesFound = eventsFound[i].candidates;\n                // find the candidate\n                for (uint256 j = 0; j < candidatesFound.length; j++) {\n                    if (candidatesFound[j].id == _candidateId) {\n                        // found the candidate and plus 1 at the voteCount\n                        candidatesFound[j].voteCount += 1;\n                        break;\n                    }\n                }\n            }\n        }\n    }\n\n    function getCandidateVoteCount(uint256 _candidateId)\n        public\n        view\n        returns (uint256 count)\n    {\n        return candidates[_candidateId].voteCount;\n    }\n\n    function getVoteEventCandidate(uint256 _categoryId, uint256 _eventId)\n        public\n        view\n        returns (Candidate[] memory)\n    {\n        Event[] memory eventsFound = categories[_categoryId].events;\n\n        for (uint256 i = 0; i < eventsFound.length; i++) {\n            if (eventsFound[i].eventId == _eventId) {\n                return eventsFound[i].candidates;\n            }\n        }\n\n        // If the event is not found, return an empty array or handle the situation accordingly\n        return new Candidate[](0);\n    }\n\n    function whoIsTheWinner(uint256 _categoryId, uint256 _eventId)\n        public\n        view\n        returns (Candidate memory)\n    {\n        Event[] memory eventsFound = categories[_categoryId].events;\n        Candidate[] memory candidatesFound;\n\n        for (uint256 i = 0; i < eventsFound.length; i++) {\n            if (eventsFound[i].eventId == _eventId) {\n                candidatesFound = eventsFound[i].candidates;\n            }\n        }\n\n        Candidate memory winner = candidatesFound[0];\n\n        for (uint256 i = 0; i < candidatesFound.length - 1; i++) {\n            if (winner.voteCount < candidatesFound[i + 1].voteCount) {\n                winner = candidatesFound[i + 1];\n            }\n        }\n\n        // If the event is not found, return an empty array or handle the situation accordingly\n        return winner;\n    }\n}\n",
  "sourcePath": "C:\\xampp\\htdocs\\Online-Voting-System-Blockchain\\contracts\\VotingSystem.sol",
  "compiler": {
    "name": "solc",
    "version": "0.8.13+commit.abaa5c0e.Emscripten.clang"
  },
  "schemaVersion": "3.4.16",
  "updatedAt": "2023-12-03T18:58:24.686Z",
  "networkType": "ethereum",
  "devdoc": {
    "kind": "dev",
    "methods": {},
    "version": 1
  },
  "userdoc": {
    "kind": "user",
    "methods": {},
    "version": 1
  }
}