{
  "contractName": "VotingSystem",
  "abi": [
    {
      "anonymous": false,
      "inputs": [
        {
          "indexed": true,
          "internalType": "uint256",
          "name": "eventId",
          "type": "uint256"
        },
        {
          "indexed": false,
          "internalType": "string",
          "name": "eventName",
          "type": "string"
        }
      ],
      "name": "CandidateAdded",
      "type": "event"
    },
    {
      "anonymous": false,
      "inputs": [
        {
          "indexed": true,
          "internalType": "uint256",
          "name": "categoryId",
          "type": "uint256"
        },
        {
          "indexed": false,
          "internalType": "string",
          "name": "categoryName",
          "type": "string"
        }
      ],
      "name": "CategoryAdded",
      "type": "event"
    },
    {
      "anonymous": false,
      "inputs": [
        {
          "indexed": true,
          "internalType": "uint256",
          "name": "eventId",
          "type": "uint256"
        },
        {
          "indexed": false,
          "internalType": "string",
          "name": "eventName",
          "type": "string"
        }
      ],
      "name": "EventAdded",
      "type": "event"
    },
    {
      "anonymous": false,
      "inputs": [
        {
          "indexed": true,
          "internalType": "uint256",
          "name": "voterId",
          "type": "uint256"
        },
        {
          "indexed": true,
          "internalType": "string",
          "name": "categoryEvent",
          "type": "string"
        },
        {
          "indexed": true,
          "internalType": "uint256",
          "name": "candidate",
          "type": "uint256"
        }
      ],
      "name": "VoteEvent",
      "type": "event"
    },
    {
      "inputs": [
        {
          "internalType": "uint256",
          "name": "",
          "type": "uint256"
        }
      ],
      "name": "voteEvents",
      "outputs": [
        {
          "internalType": "uint256",
          "name": "id",
          "type": "uint256"
        },
        {
          "internalType": "uint256",
          "name": "voterId",
          "type": "uint256"
        },
        {
          "internalType": "uint256",
          "name": "categoryId",
          "type": "uint256"
        },
        {
          "internalType": "uint256",
          "name": "eventId",
          "type": "uint256"
        },
        {
          "internalType": "bool",
          "name": "voted",
          "type": "bool"
        }
      ],
      "stateMutability": "view",
      "type": "function",
      "constant": true
    },
    {
      "inputs": [
        {
          "internalType": "string",
          "name": "_categoryName",
          "type": "string"
        }
      ],
      "name": "addCategory",
      "outputs": [],
      "stateMutability": "nonpayable",
      "type": "function"
    },
    {
      "inputs": [
        {
          "internalType": "uint256",
          "name": "_categoryId",
          "type": "uint256"
        },
        {
          "internalType": "string",
          "name": "_eventName",
          "type": "string"
        }
      ],
      "name": "addEvent",
      "outputs": [],
      "stateMutability": "nonpayable",
      "type": "function"
    },
    {
      "inputs": [
        {
          "internalType": "uint256",
          "name": "_categoryId",
          "type": "uint256"
        },
        {
          "internalType": "uint256",
          "name": "_eventId",
          "type": "uint256"
        },
        {
          "internalType": "string",
          "name": "_candidateName",
          "type": "string"
        },
        {
          "internalType": "string",
          "name": "_description",
          "type": "string"
        }
      ],
      "name": "addCandidateToEvent",
      "outputs": [],
      "stateMutability": "nonpayable",
      "type": "function"
    },
    {
      "inputs": [
        {
          "internalType": "uint256",
          "name": "_categoryId",
          "type": "uint256"
        },
        {
          "internalType": "uint256",
          "name": "_eventId",
          "type": "uint256"
        }
      ],
      "name": "isEventExists",
      "outputs": [
        {
          "internalType": "bool",
          "name": "",
          "type": "bool"
        }
      ],
      "stateMutability": "view",
      "type": "function",
      "constant": true
    },
    {
      "inputs": [
        {
          "internalType": "uint256",
          "name": "_categoryId",
          "type": "uint256"
        },
        {
          "internalType": "string",
          "name": "_eventName",
          "type": "string"
        }
      ],
      "name": "isEventExists",
      "outputs": [
        {
          "internalType": "bool",
          "name": "",
          "type": "bool"
        }
      ],
      "stateMutability": "view",
      "type": "function",
      "constant": true
    },
    {
      "inputs": [
        {
          "internalType": "uint256",
          "name": "_categoryId",
          "type": "uint256"
        }
      ],
      "name": "getAllCategoryEvent",
      "outputs": [
        {
          "internalType": "string[]",
          "name": "foundEvent",
          "type": "string[]"
        }
      ],
      "stateMutability": "view",
      "type": "function",
      "constant": true
    },
    {
      "inputs": [
        {
          "internalType": "uint256",
          "name": "_categoryId",
          "type": "uint256"
        },
        {
          "internalType": "string",
          "name": "_eventName",
          "type": "string"
        }
      ],
      "name": "getAllCategoryEventCandidate",
      "outputs": [
        {
          "internalType": "string[]",
          "name": "candidatesFound",
          "type": "string[]"
        }
      ],
      "stateMutability": "view",
      "type": "function",
      "constant": true
    },
    {
      "inputs": [],
      "name": "getAllCandidates",
      "outputs": [
        {
          "components": [
            {
              "internalType": "uint256",
              "name": "id",
              "type": "uint256"
            },
            {
              "internalType": "string",
              "name": "name",
              "type": "string"
            },
            {
              "internalType": "string",
              "name": "description",
              "type": "string"
            },
            {
              "internalType": "uint256",
              "name": "CategoryId",
              "type": "uint256"
            },
            {
              "internalType": "uint256",
              "name": "eventId",
              "type": "uint256"
            },
            {
              "internalType": "uint256",
              "name": "voteCount",
              "type": "uint256"
            }
          ],
          "internalType": "struct VotingSystem.Candidate[]",
          "name": "",
          "type": "tuple[]"
        }
      ],
      "stateMutability": "view",
      "type": "function",
      "constant": true
    },
    {
      "inputs": [],
      "name": "getAllCategory",
      "outputs": [
        {
          "components": [
            {
              "internalType": "uint256",
              "name": "categoryId",
              "type": "uint256"
            },
            {
              "internalType": "string",
              "name": "categoryName",
              "type": "string"
            },
            {
              "components": [
                {
                  "internalType": "uint256",
                  "name": "eventId",
                  "type": "uint256"
                },
                {
                  "internalType": "string",
                  "name": "eventName",
                  "type": "string"
                },
                {
                  "internalType": "uint256",
                  "name": "categoryId",
                  "type": "uint256"
                },
                {
                  "components": [
                    {
                      "internalType": "uint256",
                      "name": "id",
                      "type": "uint256"
                    },
                    {
                      "internalType": "string",
                      "name": "name",
                      "type": "string"
                    },
                    {
                      "internalType": "string",
                      "name": "description",
                      "type": "string"
                    },
                    {
                      "internalType": "uint256",
                      "name": "CategoryId",
                      "type": "uint256"
                    },
                    {
                      "internalType": "uint256",
                      "name": "eventId",
                      "type": "uint256"
                    },
                    {
                      "internalType": "uint256",
                      "name": "voteCount",
                      "type": "uint256"
                    }
                  ],
                  "internalType": "struct VotingSystem.Candidate[]",
                  "name": "candidates",
                  "type": "tuple[]"
                },
                {
                  "internalType": "uint256",
                  "name": "candidateCount",
                  "type": "uint256"
                }
              ],
              "internalType": "struct VotingSystem.Event[]",
              "name": "events",
              "type": "tuple[]"
            }
          ],
          "internalType": "struct VotingSystem.Category[]",
          "name": "",
          "type": "tuple[]"
        }
      ],
      "stateMutability": "view",
      "type": "function",
      "constant": true
    },
    {
      "inputs": [
        {
          "internalType": "uint256",
          "name": "_categoryId",
          "type": "uint256"
        }
      ],
      "name": "getCategoryById",
      "outputs": [
        {
          "components": [
            {
              "internalType": "uint256",
              "name": "categoryId",
              "type": "uint256"
            },
            {
              "internalType": "string",
              "name": "categoryName",
              "type": "string"
            },
            {
              "components": [
                {
                  "internalType": "uint256",
                  "name": "eventId",
                  "type": "uint256"
                },
                {
                  "internalType": "string",
                  "name": "eventName",
                  "type": "string"
                },
                {
                  "internalType": "uint256",
                  "name": "categoryId",
                  "type": "uint256"
                },
                {
                  "components": [
                    {
                      "internalType": "uint256",
                      "name": "id",
                      "type": "uint256"
                    },
                    {
                      "internalType": "string",
                      "name": "name",
                      "type": "string"
                    },
                    {
                      "internalType": "string",
                      "name": "description",
                      "type": "string"
                    },
                    {
                      "internalType": "uint256",
                      "name": "CategoryId",
                      "type": "uint256"
                    },
                    {
                      "internalType": "uint256",
                      "name": "eventId",
                      "type": "uint256"
                    },
                    {
                      "internalType": "uint256",
                      "name": "voteCount",
                      "type": "uint256"
                    }
                  ],
                  "internalType": "struct VotingSystem.Candidate[]",
                  "name": "candidates",
                  "type": "tuple[]"
                },
                {
                  "internalType": "uint256",
                  "name": "candidateCount",
                  "type": "uint256"
                }
              ],
              "internalType": "struct VotingSystem.Event[]",
              "name": "events",
              "type": "tuple[]"
            }
          ],
          "internalType": "struct VotingSystem.Category",
          "name": "",
          "type": "tuple"
        }
      ],
      "stateMutability": "view",
      "type": "function",
      "constant": true
    },
    {
      "inputs": [],
      "name": "getAllEvent",
      "outputs": [
        {
          "components": [
            {
              "internalType": "uint256",
              "name": "eventId",
              "type": "uint256"
            },
            {
              "internalType": "string",
              "name": "eventName",
              "type": "string"
            },
            {
              "internalType": "uint256",
              "name": "categoryId",
              "type": "uint256"
            },
            {
              "components": [
                {
                  "internalType": "uint256",
                  "name": "id",
                  "type": "uint256"
                },
                {
                  "internalType": "string",
                  "name": "name",
                  "type": "string"
                },
                {
                  "internalType": "string",
                  "name": "description",
                  "type": "string"
                },
                {
                  "internalType": "uint256",
                  "name": "CategoryId",
                  "type": "uint256"
                },
                {
                  "internalType": "uint256",
                  "name": "eventId",
                  "type": "uint256"
                },
                {
                  "internalType": "uint256",
                  "name": "voteCount",
                  "type": "uint256"
                }
              ],
              "internalType": "struct VotingSystem.Candidate[]",
              "name": "candidates",
              "type": "tuple[]"
            },
            {
              "internalType": "uint256",
              "name": "candidateCount",
              "type": "uint256"
            }
          ],
          "internalType": "struct VotingSystem.Event[]",
          "name": "",
          "type": "tuple[]"
        }
      ],
      "stateMutability": "view",
      "type": "function",
      "constant": true
    },
    {
      "inputs": [
        {
          "internalType": "uint256",
          "name": "_voterId",
          "type": "uint256"
        },
        {
          "internalType": "uint256",
          "name": "_candidateId",
          "type": "uint256"
        },
        {
          "internalType": "uint256",
          "name": "_categoryId",
          "type": "uint256"
        },
        {
          "internalType": "uint256",
          "name": "_eventId",
          "type": "uint256"
        }
      ],
      "name": "vote",
      "outputs": [],
      "stateMutability": "nonpayable",
      "type": "function"
    },
    {
      "inputs": [
        {
          "internalType": "uint256",
          "name": "_candidateId",
          "type": "uint256"
        }
      ],
      "name": "getCandidateVoteCount",
      "outputs": [
        {
          "internalType": "uint256",
          "name": "count",
          "type": "uint256"
        }
      ],
      "stateMutability": "view",
      "type": "function",
      "constant": true
    },
    {
      "inputs": [
        {
          "internalType": "uint256",
          "name": "_categoryId",
          "type": "uint256"
        },
        {
          "internalType": "uint256",
          "name": "_eventId",
          "type": "uint256"
        }
      ],
      "name": "getVoteEventCandidate",
      "outputs": [
        {
          "components": [
            {
              "internalType": "uint256",
              "name": "id",
              "type": "uint256"
            },
            {
              "internalType": "string",
              "name": "name",
              "type": "string"
            },
            {
              "internalType": "string",
              "name": "description",
              "type": "string"
            },
            {
              "internalType": "uint256",
              "name": "CategoryId",
              "type": "uint256"
            },
            {
              "internalType": "uint256",
              "name": "eventId",
              "type": "uint256"
            },
            {
              "internalType": "uint256",
              "name": "voteCount",
              "type": "uint256"
            }
          ],
          "internalType": "struct VotingSystem.Candidate[]",
          "name": "",
          "type": "tuple[]"
        }
      ],
      "stateMutability": "view",
      "type": "function",
      "constant": true
    },
    {
      "inputs": [
        {
          "internalType": "uint256",
          "name": "_categoryId",
          "type": "uint256"
        },
        {
          "internalType": "uint256",
          "name": "_eventId",
          "type": "uint256"
        }
      ],
      "name": "whoIsTheWinner",
      "outputs": [
        {
          "components": [
            {
              "internalType": "uint256",
              "name": "id",
              "type": "uint256"
            },
            {
              "internalType": "string",
              "name": "name",
              "type": "string"
            },
            {
              "internalType": "string",
              "name": "description",
              "type": "string"
            },
            {
              "internalType": "uint256",
              "name": "CategoryId",
              "type": "uint256"
            },
            {
              "internalType": "uint256",
              "name": "eventId",
              "type": "uint256"
            },
            {
              "internalType": "uint256",
              "name": "voteCount",
              "type": "uint256"
            }
          ],
          "internalType": "struct VotingSystem.Candidate",
          "name": "",
          "type": "tuple"
        }
      ],
      "stateMutability": "view",
      "type": "function",
      "constant": true
    }
  ],
  "bytecode": "0x608060405234801561001057600080fd5b50612d81806100206000396000f3fe608060405234801561001057600080fd5b50600436106101005760003560e01c806368c9e38811610097578063a7e62d1b11610066578063a7e62d1b14610289578063b315c5971461029c578063c2dfedfa146102cd578063ffdd108b146102e057600080fd5b806368c9e3881461022e578063748f55a8146102415780638f2c2805146102615780639eabca3d1461027657600080fd5b80634fb43250116100d35780634fb432501461016d57806350515a771461019057806360e93f3c146101a3578063642d20ad146101c357600080fd5b80631002cdd4146101055780632e0dcbf7146101235780632e6997fe14610138578063401a52dd1461014d575b600080fd5b61010d6102f3565b60405161011a9190612769565b60405180910390f35b6101366101313660046128b3565b6106ad565b005b6101406107cf565b60405161011a91906128f0565b61016061015b36600461290a565b61097d565b60405161011a9190612923565b61018061017b366004612985565b610ad8565b604051901515815260200161011a565b61018061019e3660046129a7565b610bb1565b6101b66101b136600461290a565b610c99565b60405161011a9190612ab5565b6102046101d136600461290a565b60036020819052600091825260409091208054600182015460028301549383015460049093015491939092909160ff1685565b6040805195865260208601949094529284019190915260608301521515608082015260a00161011a565b61013661023c366004612ac8565b61108c565b61025461024f366004612985565b611360565b60405161011a9190612afa565b61026961173b565b60405161011a9190612b0d565b610136610284366004612b62565b611b6b565b610140610297366004612985565b611d98565b6102bf6102aa36600461290a565b60009081526002602052604090206005015490565b60405190815260200161011a565b6101606102db3660046129a7565b6120fb565b6101366102ee3660046129a7565b612332565b6060600060065467ffffffffffffffff81111561031257610312612810565b60405190808252806020026020018201604052801561037557816020015b6103626040518060a0016040528060008152602001606081526020016000815260200160608152602001600081525090565b8152602001906001900390816103305790505b5090506000805b6004548110156106a55760005b600080610397846001612bef565b8152602081019190915260400160002060020154811015610692576000806103c0846001612bef565b815260200190815260200160002060020181815481106103e2576103e2612c07565b90600052602060002090600502016040518060a00160405290816000820154815260200160018201805461041590612c1d565b80601f016020809104026020016040519081016040528092919081815260200182805461044190612c1d565b801561048e5780601f106104635761010080835404028352916020019161048e565b820191906000526020600020905b81548152906001019060200180831161047157829003601f168201915b505050505081526020016002820154815260200160038201805480602002602001604051908101604052809291908181526020016000905b8282101561064457838290600052602060002090600602016040518060c00160405290816000820154815260200160018201805461050390612c1d565b80601f016020809104026020016040519081016040528092919081815260200182805461052f90612c1d565b801561057c5780601f106105515761010080835404028352916020019161057c565b820191906000526020600020905b81548152906001019060200180831161055f57829003601f168201915b5050505050815260200160028201805461059590612c1d565b80601f01602080910402602001604051908101604052809291908181526020018280546105c190612c1d565b801561060e5780601f106105e35761010080835404028352916020019161060e565b820191906000526020600020905b8154815290600101906020018083116105f157829003601f168201915b505050505081526020016003820154815260200160048201548152602001600582015481525050815260200190600101906104c6565b50505050815260200160048201548152505084848151811061066857610668612c07565b602090810291909101015261067e600184612bef565b92508061068a81612c51565b915050610389565b508061069d81612c51565b91505061037c565b509092915050565b60015b600454811161074c576000818152602081905260409081902090516106d89160010190612c6a565b604051809103902082805190602001200361073a5760405162461bcd60e51b815260206004820152601760248201527f43617465676f727920616c72656164792065786973747300000000000000000060448201526064015b60405180910390fd5b8061074481612c51565b9150506106b0565b506001600460008282546107609190612bef565b90915550506004546000908152602081815260409091208251909161078c916001840191850190612583565b506004548082556040517f5bae3f75753ef0a1c0ea0f6c51d7b43a4b8d116572b8b7b5cb771f9ad32d4ae5906107c3908590612d05565b60405180910390a25050565b6060600060055467ffffffffffffffff8111156107ee576107ee612810565b60405190808252806020026020018201604052801561082757816020015b610814612607565b81526020019060019003908161080c5790505b509050600060065467ffffffffffffffff81111561084757610847612810565b6040519080825280602002602001820160405280156108aa57816020015b6108976040518060a0016040528060008152602001606081526020016000815260200160608152602001600081525090565b8152602001906001900390816108655790505b5090506108b56102f3565b90506000805b6006548110156109745760005b8382815181106108da576108da612c07565b602002602001015160600151518110156109615783828151811061090057610900612c07565b602002602001015160600151818151811061091d5761091d612c07565b602002602001015185848151811061093757610937612c07565b602090810291909101015261094d600184612bef565b92508061095981612c51565b9150506108c8565b508061096c81612c51565b9150506108bb565b50919392505050565b600081815260208190526040812060028101546060929067ffffffffffffffff8111156109ac576109ac612810565b6040519080825280602002602001820160405280156109df57816020015b60608152602001906001900390816109ca5790505b50905060005b6002830154811015610ad057826002018181548110610a0657610a06612c07565b90600052602060002090600502016001018054610a2290612c1d565b80601f0160208091040260200160405190810160405280929190818152602001828054610a4e90612c1d565b8015610a9b5780601f10610a7057610100808354040283529160200191610a9b565b820191906000526020600020905b815481529060010190602001808311610a7e57829003601f168201915b5050505050828281518110610ab257610ab2612c07565b60200260200101819052508080610ac890612c51565b9150506109e5565b509392505050565b6000828152602081905260408120548103610b2f5760405162461bcd60e51b815260206004820152601760248201527610d85d1959dbdc9e48191bd95cc81b9bdd08195e1a5cdd604a1b6044820152606401610731565b60005b600084815260208190526040902060020154811015610ba557826000808681526020019081526020016000206002018281548110610b7257610b72612c07565b90600052602060002090600502016000015403610b93576001915050610bab565b80610b9d81612c51565b915050610b32565b50600090505b92915050565b6000828152602081905260408120548103610c085760405162461bcd60e51b815260206004820152601760248201527610d85d1959dbdc9e48191bd95cc81b9bdd08195e1a5cdd604a1b6044820152606401610731565b60005b600084815260208190526040902060020154811015610ba55782805190602001206000808681526020019081526020016000206002018281548110610c5257610c52612c07565b9060005260206000209060050201600101604051610c709190612c6a565b604051809103902003610c87576001915050610bab565b80610c9181612c51565b915050610c0b565b610cbd60405180606001604052806000815260200160608152602001606081525090565b610ce160405180606001604052806000815260200160608152602001606081525090565b60015b6004548111611085576000818152602081905260409020548490036110735760008181526020818152604091829020825160608101909352805483526001810180549192840191610d3490612c1d565b80601f0160208091040260200160405190810160405280929190818152602001828054610d6090612c1d565b8015610dad5780601f10610d8257610100808354040283529160200191610dad565b820191906000526020600020905b815481529060010190602001808311610d9057829003601f168201915b5050505050815260200160028201805480602002602001604051908101604052809291908181526020016000905b8282101561106857838290600052602060002090600502016040518060a001604052908160008201548152602001600182018054610e1890612c1d565b80601f0160208091040260200160405190810160405280929190818152602001828054610e4490612c1d565b8015610e915780601f10610e6657610100808354040283529160200191610e91565b820191906000526020600020905b815481529060010190602001808311610e7457829003601f168201915b505050505081526020016002820154815260200160038201805480602002602001604051908101604052809291908181526020016000905b8282101561104757838290600052602060002090600602016040518060c001604052908160008201548152602001600182018054610f0690612c1d565b80601f0160208091040260200160405190810160405280929190818152602001828054610f3290612c1d565b8015610f7f5780601f10610f5457610100808354040283529160200191610f7f565b820191906000526020600020905b815481529060010190602001808311610f6257829003601f168201915b50505050508152602001600282018054610f9890612c1d565b80601f0160208091040260200160405190810160405280929190818152602001828054610fc490612c1d565b80156110115780601f10610fe657610100808354040283529160200191611011565b820191906000526020600020905b815481529060010190602001808311610ff457829003601f168201915b50505050508152602001600382015481526020016004820154815260200160058201548152505081526020019060010190610ec9565b50505050815260200160048201548152505081526020019060010190610ddb565b505050508152505091505b8061107d81612c51565b915050610ce4565b5092915050565b60008281526020819052604081205490036110e95760405162461bcd60e51b815260206004820152601860248201527f43617465676f727920646f6573206e6f742065786973747300000000000000006044820152606401610731565b6006546000036111335760405162461bcd60e51b81526020600482015260156024820152744576656e7420646f6573206e6f742065786973747360581b6044820152606401610731565b60008381526002602052604081205490036111905760405162461bcd60e51b815260206004820152601a60248201527f43616e6469646174657320646f6573206e6f74206578697374730000000000006044820152606401610731565b60015b600754811161125b57600081815260036020526040902060010154851480156111cc575060008181526003602052604090206002015483145b80156111e957506000818152600360208190526040909120015482145b156112495760008181526003602052604090206004015460ff16156112445760405162461bcd60e51b8152602060048201526011602482015270165bdd48185b1c9958591e481d9bdd1959607a1b6044820152606401610731565b61125b565b8061125381612c51565b915050611193565b5060016007600082825461126f9190612bef565b90915550506040805160a0810182526007548082526020808301888152838501878152606085018781526001608087018181526000968752600395869052979095208651815592519483019490945551600282015591519082015591516004909201805460ff1916921515929092179091556112ea84612449565b6112f5838386612473565b6040805160208101859052808201849052815180820383018152606090910191829052908590611326908390612d18565b6040519081900381209088907fdd0629bf37ec3179d8b6727c2eb4d0f297cf08a85b960c1520666db55feb5b3990600090a4505050505050565b611368612607565b60008381526020818152604080832060020180548251818502810185019093528083529192909190849084015b8282101561162257838290600052602060002090600502016040518060a0016040529081600082015481526020016001820180546113d290612c1d565b80601f01602080910402602001604051908101604052809291908181526020018280546113fe90612c1d565b801561144b5780601f106114205761010080835404028352916020019161144b565b820191906000526020600020905b81548152906001019060200180831161142e57829003601f168201915b505050505081526020016002820154815260200160038201805480602002602001604051908101604052809291908181526020016000905b8282101561160157838290600052602060002090600602016040518060c0016040529081600082015481526020016001820180546114c090612c1d565b80601f01602080910402602001604051908101604052809291908181526020018280546114ec90612c1d565b80156115395780601f1061150e57610100808354040283529160200191611539565b820191906000526020600020905b81548152906001019060200180831161151c57829003601f168201915b5050505050815260200160028201805461155290612c1d565b80601f016020809104026020016040519081016040528092919081815260200182805461157e90612c1d565b80156115cb5780601f106115a0576101008083540402835291602001916115cb565b820191906000526020600020905b8154815290600101906020018083116115ae57829003601f168201915b50505050508152602001600382015481526020016004820154815260200160058201548152505081526020019060010190611483565b50505050815260200160048201548152505081526020019060010190611395565b505050509050606060005b825181101561168d578483828151811061164957611649612c07565b6020026020010151600001510361167b5782818151811061166c5761166c612c07565b60200260200101516060015191505b8061168581612c51565b91505061162d565b506000816000815181106116a3576116a3612c07565b6020026020010151905060005b600183516116be9190612d34565b81101561173157826116d1826001612bef565b815181106116e1576116e1612c07565b602002602001015160a001518260a00151101561171f5782611704826001612bef565b8151811061171457611714612c07565b602002602001015191505b8061172981612c51565b9150506116b0565b5095945050505050565b6060600060045467ffffffffffffffff81111561175a5761175a612810565b6040519080825280602002602001820160405280156117af57816020015b61179c60405180606001604052806000815260200160608152602001606081525090565b8152602001906001900390816117785790505b50905060015b6004548111611b6557600081815260208181526040918290208251606081019093528054835260018101805491928401916117ef90612c1d565b80601f016020809104026020016040519081016040528092919081815260200182805461181b90612c1d565b80156118685780601f1061183d57610100808354040283529160200191611868565b820191906000526020600020905b81548152906001019060200180831161184b57829003601f168201915b5050505050815260200160028201805480602002602001604051908101604052809291908181526020016000905b82821015611b2357838290600052602060002090600502016040518060a0016040529081600082015481526020016001820180546118d390612c1d565b80601f01602080910402602001604051908101604052809291908181526020018280546118ff90612c1d565b801561194c5780601f106119215761010080835404028352916020019161194c565b820191906000526020600020905b81548152906001019060200180831161192f57829003601f168201915b505050505081526020016002820154815260200160038201805480602002602001604051908101604052809291908181526020016000905b82821015611b0257838290600052602060002090600602016040518060c0016040529081600082015481526020016001820180546119c190612c1d565b80601f01602080910402602001604051908101604052809291908181526020018280546119ed90612c1d565b8015611a3a5780601f10611a0f57610100808354040283529160200191611a3a565b820191906000526020600020905b815481529060010190602001808311611a1d57829003601f168201915b50505050508152602001600282018054611a5390612c1d565b80601f0160208091040260200160405190810160405280929190818152602001828054611a7f90612c1d565b8015611acc5780601f10611aa157610100808354040283529160200191611acc565b820191906000526020600020905b815481529060010190602001808311611aaf57829003601f168201915b50505050508152602001600382015481526020016004820154815260200160058201548152505081526020019060010190611984565b50505050815260200160048201548152505081526020019060010190611896565b505050915250839050611b37600184612d34565b81518110611b4757611b47612c07565b60200260200101819052508080611b5d90612c51565b9150506117b5565b50919050565b6000848152602081905260408120549003611bc25760405162461bcd60e51b815260206004820152601760248201527643617465676f727920686173206e6f742065786973747360481b6044820152606401610731565b611bcc8484610ad8565b1515600114611c145760405162461bcd60e51b81526020600482015260146024820152734576656e7420686173206e6f742065786973747360601b6044820152606401610731565b600160056000828254611c279190612bef565b90915550506040805160c081018252600554815260208082018590528183018490526060820187905260808201869052600060a083018190528781529081905291822090915b6002820154811015611d8f5785826002018281548110611c8f57611c8f612c07565b90600052602060002090600502016000015403611d7d57816002018181548110611cbb57611cbb612c07565b60009182526020808320600360059093020191909101805460018181018355918452928290208651600690940201928355858201518051879493611d03938501920190612583565b5060408201518051611d1f916002840191602090910190612583565b50606082015181600301556080820151816004015560a0820151816005015550506001826002018281548110611d5757611d57612c07565b90600052602060002090600502016004016000828254611d779190612bef565b90915550505b80611d8781612c51565b915050611c6d565b50505050505050565b600082815260208181526040808320600201805482518185028101850190935280835260609493849084015b8282101561205157838290600052602060002090600502016040518060a001604052908160008201548152602001600182018054611e0190612c1d565b80601f0160208091040260200160405190810160405280929190818152602001828054611e2d90612c1d565b8015611e7a5780601f10611e4f57610100808354040283529160200191611e7a565b820191906000526020600020905b815481529060010190602001808311611e5d57829003601f168201915b505050505081526020016002820154815260200160038201805480602002602001604051908101604052809291908181526020016000905b8282101561203057838290600052602060002090600602016040518060c001604052908160008201548152602001600182018054611eef90612c1d565b80601f0160208091040260200160405190810160405280929190818152602001828054611f1b90612c1d565b8015611f685780601f10611f3d57610100808354040283529160200191611f68565b820191906000526020600020905b815481529060010190602001808311611f4b57829003601f168201915b50505050508152602001600282018054611f8190612c1d565b80601f0160208091040260200160405190810160405280929190818152602001828054611fad90612c1d565b8015611ffa5780601f10611fcf57610100808354040283529160200191611ffa565b820191906000526020600020905b815481529060010190602001808311611fdd57829003601f168201915b50505050508152602001600382015481526020016004820154815260200160058201548152505081526020019060010190611eb2565b50505050815260200160048201548152505081526020019060010190611dc4565b50505050905060005b81518110156120c0578382828151811061207657612076612c07565b602002602001015160000151036120ae5781818151811061209957612099612c07565b60200260200101516060015192505050610bab565b806120b881612c51565b91505061205a565b5060408051600080825260208201909252906120f2565b6120df612607565b8152602001906001900390816120d75790505b50949350505050565b60008281526020819052604081206060915b600282015481101561232a57838051906020012082600201828154811061213657612136612c07565b90600052602060002090600502016001016040516121549190612c6a565b60405180910390200361231857600082600201828154811061217857612178612c07565b90600052602060002090600502016004015467ffffffffffffffff8111156121a2576121a2612810565b6040519080825280602002602001820160405280156121d557816020015b60608152602001906001900390816121c05790505b50905060005b8360020183815481106121f0576121f0612c07565b90600052602060002090600502016003018054905081101561230d5783600201838154811061222157612221612c07565b9060005260206000209060050201600301818154811061224357612243612c07565b9060005260206000209060060201600101805461225f90612c1d565b80601f016020809104026020016040519081016040528092919081815260200182805461228b90612c1d565b80156122d85780601f106122ad576101008083540402835291602001916122d8565b820191906000526020600020905b8154815290600101906020018083116122bb57829003601f168201915b50505050508282815181106122ef576122ef612c07565b6020026020010181905250808061230590612c51565b9150506121db565b509250610bab915050565b8061232281612c51565b91505061210d565b505092915050565b60008281526020819052604081205490036123895760405162461bcd60e51b815260206004820152601760248201527643617465676f727920686173206e6f742065786973747360481b6044820152606401610731565b6123938282610bb1565b156123d75760405162461bcd60e51b81526020600482015260146024820152734576656e7420616c72656164792065786973747360601b6044820152606401610731565b6000828152602081905260408120600680549192916001919083906123fd908490612bef565b918290555060028401805460018181018355600092835260209283902060059092029091018381558751939550935061243c9290840191870190612583565b5060020193909355505050565b600081815260026020526040812060050180546001929061246b908490612bef565b909155505050565b6000838152602081905260408120600201905b815481101561257c57838282815481106124a2576124a2612c07565b9060005260206000209060050201600001540361256a5760008282815481106124cd576124cd612c07565b9060005260206000209060050201600301905060005b815481101561256757848282815481106124ff576124ff612c07565b9060005260206000209060060201600001540361255557600182828154811061252a5761252a612c07565b9060005260206000209060060201600501600082825461254a9190612bef565b909155506125679050565b8061255f81612c51565b9150506124e3565b50505b8061257481612c51565b915050612486565b5050505050565b82805461258f90612c1d565b90600052602060002090601f0160209004810192826125b157600085556125f7565b82601f106125ca57805160ff19168380011785556125f7565b828001600101855582156125f7579182015b828111156125f75782518255916020019190600101906125dc565b5061260392915061263d565b5090565b6040518060c001604052806000815260200160608152602001606081526020016000815260200160008152602001600081525090565b5b80821115612603576000815560010161263e565b60005b8381101561266d578181015183820152602001612655565b8381111561267c576000848401525b50505050565b6000815180845261269a816020860160208601612652565b601f01601f19169290920160200192915050565b805182526000602082015160c060208501526126cd60c0850182612682565b9050604083015184820360408601526126e68282612682565b915050606083015160608501526080830151608085015260a083015160a08501528091505092915050565b600082825180855260208086019550808260051b84010181860160005b8481101561275c57601f1986840301895261274a8383516126ae565b9884019892509083019060010161272e565b5090979650505050505050565b60006020808301818452808551808352604092508286019150828160051b87010184880160005b8381101561280257603f19898403018552815160a08151855288820151818a8701526127be82870182612682565b9150508782015188860152606080830151868303828801526127e08382612711565b6080948501519790940196909652505094870194925090860190600101612790565b509098975050505050505050565b634e487b7160e01b600052604160045260246000fd5b600082601f83011261283757600080fd5b813567ffffffffffffffff8082111561285257612852612810565b604051601f8301601f19908116603f0116810190828211818310171561287a5761287a612810565b8160405283815286602085880101111561289357600080fd5b836020870160208301376000602085830101528094505050505092915050565b6000602082840312156128c557600080fd5b813567ffffffffffffffff8111156128dc57600080fd5b6128e884828501612826565b949350505050565b6020815260006129036020830184612711565b9392505050565b60006020828403121561291c57600080fd5b5035919050565b6000602080830181845280855180835260408601915060408160051b870101925083870160005b8281101561297857603f19888603018452612966858351612682565b9450928501929085019060010161294a565b5092979650505050505050565b6000806040838503121561299857600080fd5b50508035926020909101359150565b600080604083850312156129ba57600080fd5b82359150602083013567ffffffffffffffff8111156129d857600080fd5b6129e485828601612826565b9150509250929050565b60006060825184526020808401518282870152612a0d83870182612682565b9050604080860151878303828901528281518085528585019150858160051b860101868401935060005b82811015612aa657601f19878303018452845160a08151845289820151818b860152612a6582860182612682565b91505087820151888501528a8201518482038c860152612a858282612711565b60809384015195909301949094525094880194938801939150600101612a37565b509a9950505050505050505050565b60208152600061290360208301846129ee565b60008060008060808587031215612ade57600080fd5b5050823594602084013594506040840135936060013592509050565b60208152600061290360208301846126ae565b6000602080830181845280855180835260408601915060408160051b870101925083870160005b8281101561297857603f19888603018452612b508583516129ee565b94509285019290850190600101612b34565b60008060008060808587031215612b7857600080fd5b8435935060208501359250604085013567ffffffffffffffff80821115612b9e57600080fd5b612baa88838901612826565b93506060870135915080821115612bc057600080fd5b50612bcd87828801612826565b91505092959194509250565b634e487b7160e01b600052601160045260246000fd5b60008219821115612c0257612c02612bd9565b500190565b634e487b7160e01b600052603260045260246000fd5b600181811c90821680612c3157607f821691505b602082108103611b6557634e487b7160e01b600052602260045260246000fd5b600060018201612c6357612c63612bd9565b5060010190565b600080835481600182811c915080831680612c8657607f831692505b60208084108203612ca557634e487b7160e01b86526022600452602486fd5b818015612cb95760018114612cca57612cf7565b60ff19861689528489019650612cf7565b60008a81526020902060005b86811015612cef5781548b820152908501908301612cd6565b505084890196505b509498975050505050505050565b6020815260006129036020830184612682565b60008251612d2a818460208701612652565b9190910192915050565b600082821015612d4657612d46612bd9565b50039056fea2646970667358221220ead31a7ad257898470f603bb81155f4fab5aecb7b972cad514ffb9b7ea789e8564736f6c634300080d0033",
  "immutableReferences": {},
  "source": "// SPDX-License-Identifier: MIT\npragma solidity >=0.4.22 <0.9.0;\n\ncontract VotingSystem {\n    struct Event {\n        uint256 eventId;\n        string eventName;\n        uint256 categoryId;\n        Candidate[] candidates;\n        uint256 candidateCount;\n    }\n\n    struct Category {\n        uint256 categoryId;\n        string categoryName;\n        Event[] events; //category has many event\n    }\n\n    struct Candidate {\n        uint256 id;\n        string name;\n        string description;\n        uint256 CategoryId;\n        uint256 eventId;\n        uint256 voteCount;\n    }\n\n    struct voteEventStruct {\n        uint256 id;\n        uint256 voterId;\n        uint256 categoryId;\n        uint256 eventId;\n        bool voted;\n    }\n\n    event CategoryAdded(uint256 indexed categoryId, string categoryName);\n    event EventAdded(uint256 indexed eventId, string eventName);\n    event CandidateAdded(uint256 indexed eventId, string eventName);\n\n    mapping(uint256 => Category) categories;\n    mapping(uint256 => Event) events;\n    mapping(uint256 => Candidate) candidates;\n    mapping(uint256 => voteEventStruct) public voteEvents;\n\n    uint256 categoryCount;\n    uint256 candidateCount;\n    uint256 eventCount;\n    uint256 voteEventCount;\n\n    event VoteEvent(\n        uint256 indexed voterId,\n        string indexed categoryEvent,\n        uint256 indexed candidate\n    );\n\n    function addCategory(string memory _categoryName) public {\n        // check if the category is exist\n        for (uint256 i = 1; i <= categoryCount; i++) {\n            require(\n                keccak256(bytes(_categoryName)) !=\n                    keccak256(bytes(categories[i].categoryName)),\n                \"Category already exists\"\n            );\n        }\n\n        // total category plus 1, use it as the category's id\n        categoryCount += 1;\n\n        // add the category details in the category list\n        Category storage category = categories[categoryCount];\n        category.categoryName = _categoryName;\n        category.categoryId = categoryCount;\n\n        // emit the category added event\n        emit CategoryAdded(categoryCount, _categoryName);\n    }\n\n    function addEvent(uint256 _categoryId, string memory _eventName) public {\n        // check if the category has exists\n        require(\n            categories[_categoryId].categoryId != 0,\n            \"Category has not exists\"\n        );\n\n        require(\n            isEventExists(_categoryId, _eventName) == false,\n            \"Event already exists\"\n        );\n\n        // find out the category in list by using the paramerter category name\n        Category storage category = categories[_categoryId];\n\n        // add the event in the category list\n        uint256 eventId = eventCount += 1;\n\n        Event storage newEvent = category.events.push();\n        newEvent.eventId = eventId;\n        newEvent.eventName = _eventName;\n        newEvent.categoryId = _categoryId;\n\n        // // Add candidates to the event\n        // for (uint256 i = 0; i < _candidateNames.length; i++) {\n        //     string memory candidateName = _candidateNames[i];\n        //     candidateCount += 1;\n        //     // Create a new candidate\n        //     Candidate memory newCandidate = Candidate({\n        //         id: candidateCount,\n        //         name: candidateName,\n        //         CategoryId: _categoryId,\n        //         eventName: _eventName,\n        //         voteCount: 0\n        //     });\n        //     // Push the new candidate to the candidates array\n        //     candidates[candidateCount] = newCandidate;\n        //     listEvent.candidates.push(newCandidate);\n        //     newEvent.candidates.push(newCandidate);\n        // }\n    }\n\n    function isEventExists(uint256 _categoryId, string memory _eventName)\n        public\n        view\n        returns (bool)\n    {\n        // Check if the category exists\n        require(\n            categories[_categoryId].categoryId != 0,\n            \"Category does not exist\"\n        );\n\n        // Loop through the events in the specified category\n        for (uint256 i = 0; i < categories[_categoryId].events.length; i++) {\n            if (\n                keccak256(bytes(categories[_categoryId].events[i].eventName)) ==\n                keccak256(bytes(_eventName))\n            ) {\n                // Event found\n                return true;\n            }\n        }\n\n        // Event not found in the specified category\n        return false;\n    }\n\n    function addCandidateToEvent(\n        uint256 _categoryId,\n        uint256 _eventId,\n        string memory _candidateName,\n        string memory _description\n    ) public {\n        require(\n            categories[_categoryId].categoryId != 0,\n            \"Category has not exists\"\n        );\n\n        require(\n            isEventExists(_categoryId, _eventId) == true,\n            \"Event has not exists\"\n        );\n\n        candidateCount += 1;\n        // Create a new candidate\n        Candidate memory newCandidate = Candidate({\n            id: candidateCount,\n            name: _candidateName,\n            CategoryId: _categoryId,\n            eventId: _eventId,\n            description: _description,\n            voteCount: 0\n        });\n\n        // find the certain category\n        Category storage category = categories[_categoryId];\n        // find the certain event in certain category\n        for (uint256 i = 0; i < category.events.length; i++) {\n            if (category.events[i].eventId == _eventId) {\n                category.events[i].candidates.push(newCandidate);\n                category.events[i].candidateCount += 1;\n            }\n        }\n    }\n\n    function isEventExists(uint256 _categoryId, uint256 _eventId)\n        public\n        view\n        returns (bool)\n    {\n        // Check if the category exists\n        require(\n            categories[_categoryId].categoryId != 0,\n            \"Category does not exist\"\n        );\n\n        // Loop through the events in the specified category\n        for (uint256 i = 0; i < categories[_categoryId].events.length; i++) {\n            if (categories[_categoryId].events[i].eventId == _eventId) {\n                // Event found\n                return true;\n            }\n        }\n\n        // Event not found in the specified category\n        return false;\n    }\n\n    function getAllCategoryEvent(uint256 _categoryId)\n        public\n        view\n        returns (string[] memory foundEvent)\n    {\n        // find the certain category\n        Category storage category = categories[_categoryId];\n\n        // declare an array variable for storing events\n        string[] memory eventsName = new string[](category.events.length);\n\n        // get all the event name by searching the event in list\n        for (uint256 i = 0; i < category.events.length; i++) {\n            eventsName[i] = category.events[i].eventName;\n        }\n\n        return (eventsName);\n    }\n\n    function getAllCategoryEventCandidate(\n        uint256 _categoryId,\n        string memory _eventName\n    ) public view returns (string[] memory candidatesFound) {\n        // find the certain category\n        Category storage category = categories[_categoryId];\n        // find the certain event in certain category\n        for (uint256 i = 0; i < category.events.length; i++) {\n            if (\n                keccak256(bytes(category.events[i].eventName)) ==\n                keccak256(bytes(_eventName))\n            ) {\n                string[] memory candidatesName = new string[](\n                    category.events[i].candidateCount\n                );\n\n                for (\n                    uint256 j = 0;\n                    j < category.events[i].candidates.length;\n                    j++\n                ) {\n                    candidatesName[j] = category.events[i].candidates[j].name;\n                }\n                return (candidatesName);\n            }\n        }\n    }\n\n    function getAllCandidates() public view returns (Candidate[] memory) {\n        Candidate[] memory candidatesFound = new Candidate[](candidateCount);\n        Event[] memory eventFound = new Event[](eventCount);\n\n        // get all the events\n        eventFound = getAllEvent();\n        uint256 count = 0;\n        // find the candidates inside all the event\n        for (uint256 i = 0; i < eventCount; i++) {\n            for (uint256 j = 0; j < eventFound[i].candidates.length; j++) {\n                candidatesFound[count] = eventFound[i].candidates[j];\n                count += 1;\n            }\n        }\n\n        return candidatesFound;\n    }\n\n    function getAllCategory() public view returns (Category[] memory) {\n        //Candidate[] memory candidatesFound = new Candidate[](candidateCount);\n        Category[] memory categoriesFound = new Category[](categoryCount);\n        // Iterate through all stored structs\n        for (uint256 i = 1; i <= categoryCount; i++) {\n            categoriesFound[i - 1] = categories[i];\n        }\n\n        return categoriesFound;\n    }\n\n    function getCategoryById(uint256 _categoryId)\n        public\n        view\n        returns (Category memory)\n    {\n        Category memory categoriesFound;\n        // Iterate through all stored structs\n        for (uint256 i = 1; i <= categoryCount; i++) {\n            if (categories[i].categoryId == _categoryId) {\n                categoriesFound = categories[i];\n            }\n        }\n\n        return categoriesFound;\n    }\n\n    function getAllEvent() public view returns (Event[] memory) {\n        // Initialize the array with the correct size\n        Event[] memory eventFound = new Event[](eventCount);\n        uint256 count = 0;\n\n        // Iterate through all categories and events\n        for (uint256 i = 0; i < categoryCount; i++) {\n            for (uint256 j = 0; j < categories[i + 1].events.length; j++) {\n                eventFound[count] = categories[i + 1].events[j];\n                count += 1;\n            }\n        }\n\n        return eventFound;\n    }\n\n    function vote(\n        uint256 _voterId,\n        uint256 _candidateId,\n        uint256 _categoryId,\n        uint256 _eventId\n    ) external {\n        require(\n            categories[_categoryId].categoryId != 0,\n            \"Category does not exists\"\n        );\n\n        require(eventCount != 0, \"Event does not exists\");\n\n        // for (uint256 i = 1; i <= categories[_categoryId].events.length; i++) {\n        //     require(categories[_categoryId].events[i-0].eventId == _eventId, \"noobbbbb\");\n        // }\n\n        require(candidates[_candidateId].id != 0, \"Candidates does not exists\");\n\n        // check if has voted\n        for (uint256 i = 1; i <= voteEventCount; i++) {\n            if (\n                _voterId == voteEvents[i].voterId &&\n                _categoryId == voteEvents[i].categoryId &&\n                _eventId == voteEvents[i].eventId\n            ) {\n                require(!voteEvents[i].voted, \"You already voted\");\n                break;\n            }\n        }\n\n        // add count on the candidate\n        voteEventCount += 1;\n\n        // Create a new voteEventStruct\n        voteEventStruct memory newVoteEvent = voteEventStruct({\n            id: voteEventCount,\n            voterId: _voterId,\n            categoryId: _categoryId,\n            eventId: _eventId,\n            voted: true\n        });\n\n        voteEvents[voteEventCount] = newVoteEvent;\n\n        // add the vote count of the chosen candidate\n        addVoteCount(_candidateId);\n        addVoteCountIn(_categoryId, _eventId, _candidateId);\n\n        string memory concatenatedValues = string(\n            abi.encodePacked(_categoryId, _eventId)\n        );\n\n        emit VoteEvent(_voterId, concatenatedValues, _candidateId);\n    }\n\n    function addVoteCount(uint256 _candidateId) internal {\n        candidates[_candidateId].voteCount += 1;\n    }\n\n    function addVoteCountIn(\n        uint256 _categoryId,\n        uint256 _eventId,\n        uint256 _candidateId\n    ) internal {\n        // get the events inside the categories\n        Event[] storage eventsFound = categories[_categoryId].events;\n\n        // find the event with param\n        for (uint256 i = 0; i < eventsFound.length; i++) {\n            if (eventsFound[i].eventId == _eventId) {\n                // get the candidate inside the event\n                Candidate[] storage candidatesFound = eventsFound[i].candidates;\n                // find the candidate\n                for (uint256 j = 0; j < candidatesFound.length; j++) {\n                    if (candidatesFound[j].id == _candidateId) {\n                        // found the candidate and plus 1 at the voteCount\n                        candidatesFound[j].voteCount += 1;\n                        break;\n                    }\n                }\n            }\n        }\n    }\n\n    function getCandidateVoteCount(uint256 _candidateId)\n        public\n        view\n        returns (uint256 count)\n    {\n        return candidates[_candidateId].voteCount;\n    }\n\n    function getVoteEventCandidate(uint256 _categoryId, uint256 _eventId)\n        public\n        view\n        returns (Candidate[] memory)\n    {\n        Event[] memory eventsFound = categories[_categoryId].events;\n\n        for (uint256 i = 0; i < eventsFound.length; i++) {\n            if (eventsFound[i].eventId == _eventId) {\n                return eventsFound[i].candidates;\n            }\n        }\n\n        // If the event is not found, return an empty array or handle the situation accordingly\n        return new Candidate[](0);\n    }\n\n    function whoIsTheWinner(uint256 _categoryId, uint256 _eventId)\n        public\n        view\n        returns (Candidate memory)\n    {\n        Event[] memory eventsFound = categories[_categoryId].events;\n        Candidate[] memory candidatesFound;\n\n        for (uint256 i = 0; i < eventsFound.length; i++) {\n            if (eventsFound[i].eventId == _eventId) {\n                candidatesFound = eventsFound[i].candidates;\n            }\n        }\n\n        Candidate memory winner = candidatesFound[0];\n\n        for (uint256 i = 0; i < candidatesFound.length - 1; i++) {\n            if (winner.voteCount < candidatesFound[i + 1].voteCount) {\n                winner = candidatesFound[i + 1];\n            }\n        }\n\n        // If the event is not found, return an empty array or handle the situation accordingly\n        return winner;\n    }\n}\n",
  "sourcePath": "C:\\xampp\\htdocs\\Online-Voting-System-Blockchain\\contracts\\VotingSystem.sol",
  "compiler": {
    "name": "solc",
    "version": "0.8.13+commit.abaa5c0e.Emscripten.clang"
  },
  "schemaVersion": "3.4.16",
  "updatedAt": "2023-12-04T13:09:59.418Z",
  "networkType": "ethereum",
  "devdoc": {
    "kind": "dev",
    "methods": {},
    "version": 1
  },
  "userdoc": {
    "kind": "user",
    "methods": {},
    "version": 1
  }
}