{
  "contractName": "VotingSystem",
  "abi": [
    {
      "inputs": [],
      "stateMutability": "nonpayable",
      "type": "constructor"
    },
    {
      "anonymous": false,
      "inputs": [
        {
          "indexed": true,
          "internalType": "uint256",
          "name": "eventId",
          "type": "uint256"
        },
        {
          "indexed": false,
          "internalType": "string",
          "name": "eventName",
          "type": "string"
        }
      ],
      "name": "CandidateAdded",
      "type": "event"
    },
    {
      "anonymous": false,
      "inputs": [
        {
          "indexed": true,
          "internalType": "uint256",
          "name": "categoryId",
          "type": "uint256"
        },
        {
          "indexed": false,
          "internalType": "string",
          "name": "categoryName",
          "type": "string"
        }
      ],
      "name": "CategoryAdded",
      "type": "event"
    },
    {
      "anonymous": false,
      "inputs": [
        {
          "indexed": true,
          "internalType": "uint256",
          "name": "eventId",
          "type": "uint256"
        },
        {
          "indexed": false,
          "internalType": "string",
          "name": "eventName",
          "type": "string"
        }
      ],
      "name": "EventAdded",
      "type": "event"
    },
    {
      "anonymous": false,
      "inputs": [
        {
          "indexed": true,
          "internalType": "string",
          "name": "_voterKey",
          "type": "string"
        },
        {
          "indexed": true,
          "internalType": "string",
          "name": "categoryEvent",
          "type": "string"
        },
        {
          "indexed": true,
          "internalType": "uint256",
          "name": "candidate",
          "type": "uint256"
        }
      ],
      "name": "VoteEvent",
      "type": "event"
    },
    {
      "anonymous": false,
      "inputs": [
        {
          "indexed": true,
          "internalType": "uint256",
          "name": "voterId",
          "type": "uint256"
        },
        {
          "indexed": false,
          "internalType": "string",
          "name": "voter_key",
          "type": "string"
        }
      ],
      "name": "VoterAdded",
      "type": "event"
    },
    {
      "inputs": [],
      "name": "owner",
      "outputs": [
        {
          "internalType": "address",
          "name": "",
          "type": "address"
        }
      ],
      "stateMutability": "view",
      "type": "function",
      "constant": true
    },
    {
      "inputs": [
        {
          "internalType": "uint256",
          "name": "",
          "type": "uint256"
        }
      ],
      "name": "voteEvents",
      "outputs": [
        {
          "internalType": "uint256",
          "name": "id",
          "type": "uint256"
        },
        {
          "internalType": "string",
          "name": "voterKey",
          "type": "string"
        },
        {
          "internalType": "uint256",
          "name": "categoryId",
          "type": "uint256"
        },
        {
          "internalType": "uint256",
          "name": "eventId",
          "type": "uint256"
        },
        {
          "internalType": "uint256",
          "name": "votedCandidateId",
          "type": "uint256"
        },
        {
          "internalType": "bool",
          "name": "voted",
          "type": "bool"
        }
      ],
      "stateMutability": "view",
      "type": "function",
      "constant": true
    },
    {
      "inputs": [
        {
          "internalType": "uint256",
          "name": "",
          "type": "uint256"
        }
      ],
      "name": "voters",
      "outputs": [
        {
          "internalType": "uint256",
          "name": "id",
          "type": "uint256"
        },
        {
          "internalType": "string",
          "name": "key",
          "type": "string"
        },
        {
          "internalType": "string",
          "name": "email",
          "type": "string"
        },
        {
          "internalType": "bytes32",
          "name": "password",
          "type": "bytes32"
        },
        {
          "internalType": "string",
          "name": "role",
          "type": "string"
        },
        {
          "internalType": "uint256",
          "name": "status",
          "type": "uint256"
        },
        {
          "internalType": "string",
          "name": "token",
          "type": "string"
        }
      ],
      "stateMutability": "view",
      "type": "function",
      "constant": true
    },
    {
      "inputs": [
        {
          "internalType": "string",
          "name": "_key",
          "type": "string"
        },
        {
          "internalType": "string",
          "name": "_email",
          "type": "string"
        },
        {
          "internalType": "string",
          "name": "_password",
          "type": "string"
        },
        {
          "internalType": "string",
          "name": "_role",
          "type": "string"
        },
        {
          "internalType": "string",
          "name": "_token",
          "type": "string"
        }
      ],
      "name": "addVoter",
      "outputs": [],
      "stateMutability": "nonpayable",
      "type": "function"
    },
    {
      "inputs": [
        {
          "internalType": "string",
          "name": "_email",
          "type": "string"
        },
        {
          "internalType": "string",
          "name": "_password",
          "type": "string"
        }
      ],
      "name": "loginVoter",
      "outputs": [
        {
          "components": [
            {
              "internalType": "uint256",
              "name": "id",
              "type": "uint256"
            },
            {
              "internalType": "string",
              "name": "key",
              "type": "string"
            },
            {
              "internalType": "string",
              "name": "email",
              "type": "string"
            },
            {
              "internalType": "bytes32",
              "name": "password",
              "type": "bytes32"
            },
            {
              "internalType": "string",
              "name": "role",
              "type": "string"
            },
            {
              "internalType": "uint256",
              "name": "status",
              "type": "uint256"
            },
            {
              "internalType": "string",
              "name": "token",
              "type": "string"
            }
          ],
          "internalType": "struct VotingSystem.Voter",
          "name": "",
          "type": "tuple"
        }
      ],
      "stateMutability": "view",
      "type": "function",
      "constant": true
    },
    {
      "inputs": [
        {
          "internalType": "string",
          "name": "_email",
          "type": "string"
        },
        {
          "internalType": "string",
          "name": "_password",
          "type": "string"
        }
      ],
      "name": "getVoterByEmailPassword",
      "outputs": [
        {
          "components": [
            {
              "internalType": "uint256",
              "name": "id",
              "type": "uint256"
            },
            {
              "internalType": "string",
              "name": "key",
              "type": "string"
            },
            {
              "internalType": "string",
              "name": "email",
              "type": "string"
            },
            {
              "internalType": "bytes32",
              "name": "password",
              "type": "bytes32"
            },
            {
              "internalType": "string",
              "name": "role",
              "type": "string"
            },
            {
              "internalType": "uint256",
              "name": "status",
              "type": "uint256"
            },
            {
              "internalType": "string",
              "name": "token",
              "type": "string"
            }
          ],
          "internalType": "struct VotingSystem.Voter",
          "name": "",
          "type": "tuple"
        }
      ],
      "stateMutability": "view",
      "type": "function",
      "constant": true
    },
    {
      "inputs": [],
      "name": "getAllVoter",
      "outputs": [
        {
          "components": [
            {
              "internalType": "uint256",
              "name": "id",
              "type": "uint256"
            },
            {
              "internalType": "string",
              "name": "key",
              "type": "string"
            },
            {
              "internalType": "string",
              "name": "email",
              "type": "string"
            },
            {
              "internalType": "bytes32",
              "name": "password",
              "type": "bytes32"
            },
            {
              "internalType": "string",
              "name": "role",
              "type": "string"
            },
            {
              "internalType": "uint256",
              "name": "status",
              "type": "uint256"
            },
            {
              "internalType": "string",
              "name": "token",
              "type": "string"
            }
          ],
          "internalType": "struct VotingSystem.Voter[]",
          "name": "",
          "type": "tuple[]"
        }
      ],
      "stateMutability": "view",
      "type": "function",
      "constant": true
    },
    {
      "inputs": [
        {
          "internalType": "string",
          "name": "_key",
          "type": "string"
        },
        {
          "internalType": "string",
          "name": "_password",
          "type": "string"
        }
      ],
      "name": "updateVoterPassword",
      "outputs": [],
      "stateMutability": "nonpayable",
      "type": "function"
    },
    {
      "inputs": [
        {
          "internalType": "string",
          "name": "_token",
          "type": "string"
        }
      ],
      "name": "verifyVoterAccount",
      "outputs": [
        {
          "internalType": "bool",
          "name": "",
          "type": "bool"
        }
      ],
      "stateMutability": "nonpayable",
      "type": "function"
    },
    {
      "inputs": [
        {
          "internalType": "string",
          "name": "_email",
          "type": "string"
        },
        {
          "internalType": "string",
          "name": "_password",
          "type": "string"
        }
      ],
      "name": "getVoterStatus",
      "outputs": [
        {
          "internalType": "uint256",
          "name": "status",
          "type": "uint256"
        }
      ],
      "stateMutability": "view",
      "type": "function",
      "constant": true
    },
    {
      "inputs": [
        {
          "internalType": "string",
          "name": "_email",
          "type": "string"
        },
        {
          "internalType": "string",
          "name": "_password",
          "type": "string"
        }
      ],
      "name": "checkVoterEmailPassword",
      "outputs": [
        {
          "internalType": "bool",
          "name": "foundVoter",
          "type": "bool"
        }
      ],
      "stateMutability": "view",
      "type": "function",
      "constant": true
    },
    {
      "inputs": [
        {
          "internalType": "string",
          "name": "_categoryName",
          "type": "string"
        }
      ],
      "name": "addCategory",
      "outputs": [],
      "stateMutability": "nonpayable",
      "type": "function"
    },
    {
      "inputs": [
        {
          "components": [
            {
              "internalType": "uint256",
              "name": "categoryId",
              "type": "uint256"
            },
            {
              "internalType": "string",
              "name": "categoryName",
              "type": "string"
            },
            {
              "components": [
                {
                  "internalType": "uint256",
                  "name": "eventId",
                  "type": "uint256"
                },
                {
                  "internalType": "string",
                  "name": "eventName",
                  "type": "string"
                },
                {
                  "internalType": "uint256",
                  "name": "categoryId",
                  "type": "uint256"
                },
                {
                  "components": [
                    {
                      "internalType": "uint256",
                      "name": "id",
                      "type": "uint256"
                    },
                    {
                      "internalType": "string",
                      "name": "name",
                      "type": "string"
                    },
                    {
                      "internalType": "string",
                      "name": "description",
                      "type": "string"
                    },
                    {
                      "internalType": "uint256",
                      "name": "studentId",
                      "type": "uint256"
                    },
                    {
                      "internalType": "uint256",
                      "name": "categoryId",
                      "type": "uint256"
                    },
                    {
                      "internalType": "uint256",
                      "name": "eventId",
                      "type": "uint256"
                    },
                    {
                      "internalType": "uint256",
                      "name": "voteCount",
                      "type": "uint256"
                    },
                    {
                      "internalType": "bool",
                      "name": "win",
                      "type": "bool"
                    },
                    {
                      "internalType": "string",
                      "name": "imageFileName",
                      "type": "string"
                    }
                  ],
                  "internalType": "struct VotingSystem.Candidate[]",
                  "name": "candidates",
                  "type": "tuple[]"
                },
                {
                  "internalType": "uint256",
                  "name": "candidateCount",
                  "type": "uint256"
                },
                {
                  "internalType": "uint256",
                  "name": "startDateTime",
                  "type": "uint256"
                },
                {
                  "internalType": "uint256",
                  "name": "endDateTime",
                  "type": "uint256"
                },
                {
                  "internalType": "uint256",
                  "name": "status",
                  "type": "uint256"
                }
              ],
              "internalType": "struct VotingSystem.Event[]",
              "name": "events",
              "type": "tuple[]"
            },
            {
              "internalType": "uint256",
              "name": "status",
              "type": "uint256"
            }
          ],
          "internalType": "struct VotingSystem.Category",
          "name": "_category",
          "type": "tuple"
        }
      ],
      "name": "updateCategory",
      "outputs": [],
      "stateMutability": "nonpayable",
      "type": "function"
    },
    {
      "inputs": [
        {
          "internalType": "string",
          "name": "_userKey",
          "type": "string"
        }
      ],
      "name": "getAllVotedHistory",
      "outputs": [
        {
          "components": [
            {
              "internalType": "uint256",
              "name": "id",
              "type": "uint256"
            },
            {
              "internalType": "string",
              "name": "voterKey",
              "type": "string"
            },
            {
              "internalType": "uint256",
              "name": "categoryId",
              "type": "uint256"
            },
            {
              "internalType": "uint256",
              "name": "eventId",
              "type": "uint256"
            },
            {
              "internalType": "uint256",
              "name": "votedCandidateId",
              "type": "uint256"
            },
            {
              "internalType": "bool",
              "name": "voted",
              "type": "bool"
            }
          ],
          "internalType": "struct VotingSystem.voteEventStruct[]",
          "name": "",
          "type": "tuple[]"
        }
      ],
      "stateMutability": "view",
      "type": "function",
      "constant": true
    },
    {
      "inputs": [
        {
          "internalType": "uint256",
          "name": "_categoryId",
          "type": "uint256"
        },
        {
          "internalType": "string",
          "name": "_eventName",
          "type": "string"
        },
        {
          "internalType": "uint256",
          "name": "_startDateTime",
          "type": "uint256"
        },
        {
          "internalType": "uint256",
          "name": "_endDateTime",
          "type": "uint256"
        }
      ],
      "name": "addEvent",
      "outputs": [],
      "stateMutability": "nonpayable",
      "type": "function"
    },
    {
      "inputs": [
        {
          "components": [
            {
              "internalType": "uint256",
              "name": "eventId",
              "type": "uint256"
            },
            {
              "internalType": "string",
              "name": "eventName",
              "type": "string"
            },
            {
              "internalType": "uint256",
              "name": "categoryId",
              "type": "uint256"
            },
            {
              "components": [
                {
                  "internalType": "uint256",
                  "name": "id",
                  "type": "uint256"
                },
                {
                  "internalType": "string",
                  "name": "name",
                  "type": "string"
                },
                {
                  "internalType": "string",
                  "name": "description",
                  "type": "string"
                },
                {
                  "internalType": "uint256",
                  "name": "studentId",
                  "type": "uint256"
                },
                {
                  "internalType": "uint256",
                  "name": "categoryId",
                  "type": "uint256"
                },
                {
                  "internalType": "uint256",
                  "name": "eventId",
                  "type": "uint256"
                },
                {
                  "internalType": "uint256",
                  "name": "voteCount",
                  "type": "uint256"
                },
                {
                  "internalType": "bool",
                  "name": "win",
                  "type": "bool"
                },
                {
                  "internalType": "string",
                  "name": "imageFileName",
                  "type": "string"
                }
              ],
              "internalType": "struct VotingSystem.Candidate[]",
              "name": "candidates",
              "type": "tuple[]"
            },
            {
              "internalType": "uint256",
              "name": "candidateCount",
              "type": "uint256"
            },
            {
              "internalType": "uint256",
              "name": "startDateTime",
              "type": "uint256"
            },
            {
              "internalType": "uint256",
              "name": "endDateTime",
              "type": "uint256"
            },
            {
              "internalType": "uint256",
              "name": "status",
              "type": "uint256"
            }
          ],
          "internalType": "struct VotingSystem.Event",
          "name": "_event",
          "type": "tuple"
        }
      ],
      "name": "updateEvent",
      "outputs": [],
      "stateMutability": "nonpayable",
      "type": "function"
    },
    {
      "inputs": [
        {
          "internalType": "uint256",
          "name": "_categoryId",
          "type": "uint256"
        },
        {
          "internalType": "uint256",
          "name": "_eventId",
          "type": "uint256"
        },
        {
          "internalType": "string",
          "name": "_candidateName",
          "type": "string"
        },
        {
          "internalType": "string",
          "name": "_description",
          "type": "string"
        },
        {
          "internalType": "uint256",
          "name": "_studentId",
          "type": "uint256"
        },
        {
          "internalType": "string",
          "name": "_imageFileName",
          "type": "string"
        }
      ],
      "name": "addCandidateToEvent",
      "outputs": [],
      "stateMutability": "nonpayable",
      "type": "function"
    },
    {
      "inputs": [
        {
          "components": [
            {
              "internalType": "uint256",
              "name": "id",
              "type": "uint256"
            },
            {
              "internalType": "string",
              "name": "name",
              "type": "string"
            },
            {
              "internalType": "string",
              "name": "description",
              "type": "string"
            },
            {
              "internalType": "uint256",
              "name": "studentId",
              "type": "uint256"
            },
            {
              "internalType": "uint256",
              "name": "categoryId",
              "type": "uint256"
            },
            {
              "internalType": "uint256",
              "name": "eventId",
              "type": "uint256"
            },
            {
              "internalType": "uint256",
              "name": "voteCount",
              "type": "uint256"
            },
            {
              "internalType": "bool",
              "name": "win",
              "type": "bool"
            },
            {
              "internalType": "string",
              "name": "imageFileName",
              "type": "string"
            }
          ],
          "internalType": "struct VotingSystem.Candidate",
          "name": "_candidate",
          "type": "tuple"
        }
      ],
      "name": "updateCandidate",
      "outputs": [],
      "stateMutability": "nonpayable",
      "type": "function"
    },
    {
      "inputs": [
        {
          "internalType": "string",
          "name": "_imageFileName",
          "type": "string"
        }
      ],
      "name": "isImageFileNameUsed",
      "outputs": [
        {
          "internalType": "bool",
          "name": "",
          "type": "bool"
        }
      ],
      "stateMutability": "view",
      "type": "function",
      "constant": true
    },
    {
      "inputs": [
        {
          "internalType": "uint256",
          "name": "_categoryId",
          "type": "uint256"
        }
      ],
      "name": "getAllCategoryEvent",
      "outputs": [
        {
          "components": [
            {
              "internalType": "uint256",
              "name": "eventId",
              "type": "uint256"
            },
            {
              "internalType": "string",
              "name": "eventName",
              "type": "string"
            },
            {
              "internalType": "uint256",
              "name": "categoryId",
              "type": "uint256"
            },
            {
              "components": [
                {
                  "internalType": "uint256",
                  "name": "id",
                  "type": "uint256"
                },
                {
                  "internalType": "string",
                  "name": "name",
                  "type": "string"
                },
                {
                  "internalType": "string",
                  "name": "description",
                  "type": "string"
                },
                {
                  "internalType": "uint256",
                  "name": "studentId",
                  "type": "uint256"
                },
                {
                  "internalType": "uint256",
                  "name": "categoryId",
                  "type": "uint256"
                },
                {
                  "internalType": "uint256",
                  "name": "eventId",
                  "type": "uint256"
                },
                {
                  "internalType": "uint256",
                  "name": "voteCount",
                  "type": "uint256"
                },
                {
                  "internalType": "bool",
                  "name": "win",
                  "type": "bool"
                },
                {
                  "internalType": "string",
                  "name": "imageFileName",
                  "type": "string"
                }
              ],
              "internalType": "struct VotingSystem.Candidate[]",
              "name": "candidates",
              "type": "tuple[]"
            },
            {
              "internalType": "uint256",
              "name": "candidateCount",
              "type": "uint256"
            },
            {
              "internalType": "uint256",
              "name": "startDateTime",
              "type": "uint256"
            },
            {
              "internalType": "uint256",
              "name": "endDateTime",
              "type": "uint256"
            },
            {
              "internalType": "uint256",
              "name": "status",
              "type": "uint256"
            }
          ],
          "internalType": "struct VotingSystem.Event[]",
          "name": "foundEvent",
          "type": "tuple[]"
        }
      ],
      "stateMutability": "view",
      "type": "function",
      "constant": true
    },
    {
      "inputs": [
        {
          "internalType": "uint256",
          "name": "_categoryId",
          "type": "uint256"
        },
        {
          "internalType": "uint256",
          "name": "_eventId",
          "type": "uint256"
        }
      ],
      "name": "getAllCandidatesInEvent",
      "outputs": [
        {
          "components": [
            {
              "internalType": "uint256",
              "name": "id",
              "type": "uint256"
            },
            {
              "internalType": "string",
              "name": "name",
              "type": "string"
            },
            {
              "internalType": "string",
              "name": "description",
              "type": "string"
            },
            {
              "internalType": "uint256",
              "name": "studentId",
              "type": "uint256"
            },
            {
              "internalType": "uint256",
              "name": "categoryId",
              "type": "uint256"
            },
            {
              "internalType": "uint256",
              "name": "eventId",
              "type": "uint256"
            },
            {
              "internalType": "uint256",
              "name": "voteCount",
              "type": "uint256"
            },
            {
              "internalType": "bool",
              "name": "win",
              "type": "bool"
            },
            {
              "internalType": "string",
              "name": "imageFileName",
              "type": "string"
            }
          ],
          "internalType": "struct VotingSystem.Candidate[]",
          "name": "foundCandidates",
          "type": "tuple[]"
        }
      ],
      "stateMutability": "view",
      "type": "function",
      "constant": true
    },
    {
      "inputs": [],
      "name": "getAllCandidates",
      "outputs": [
        {
          "components": [
            {
              "internalType": "uint256",
              "name": "id",
              "type": "uint256"
            },
            {
              "internalType": "string",
              "name": "name",
              "type": "string"
            },
            {
              "internalType": "string",
              "name": "description",
              "type": "string"
            },
            {
              "internalType": "uint256",
              "name": "studentId",
              "type": "uint256"
            },
            {
              "internalType": "uint256",
              "name": "categoryId",
              "type": "uint256"
            },
            {
              "internalType": "uint256",
              "name": "eventId",
              "type": "uint256"
            },
            {
              "internalType": "uint256",
              "name": "voteCount",
              "type": "uint256"
            },
            {
              "internalType": "bool",
              "name": "win",
              "type": "bool"
            },
            {
              "internalType": "string",
              "name": "imageFileName",
              "type": "string"
            }
          ],
          "internalType": "struct VotingSystem.Candidate[]",
          "name": "",
          "type": "tuple[]"
        }
      ],
      "stateMutability": "view",
      "type": "function",
      "constant": true
    },
    {
      "inputs": [],
      "name": "getAllCategory",
      "outputs": [
        {
          "components": [
            {
              "internalType": "uint256",
              "name": "categoryId",
              "type": "uint256"
            },
            {
              "internalType": "string",
              "name": "categoryName",
              "type": "string"
            },
            {
              "components": [
                {
                  "internalType": "uint256",
                  "name": "eventId",
                  "type": "uint256"
                },
                {
                  "internalType": "string",
                  "name": "eventName",
                  "type": "string"
                },
                {
                  "internalType": "uint256",
                  "name": "categoryId",
                  "type": "uint256"
                },
                {
                  "components": [
                    {
                      "internalType": "uint256",
                      "name": "id",
                      "type": "uint256"
                    },
                    {
                      "internalType": "string",
                      "name": "name",
                      "type": "string"
                    },
                    {
                      "internalType": "string",
                      "name": "description",
                      "type": "string"
                    },
                    {
                      "internalType": "uint256",
                      "name": "studentId",
                      "type": "uint256"
                    },
                    {
                      "internalType": "uint256",
                      "name": "categoryId",
                      "type": "uint256"
                    },
                    {
                      "internalType": "uint256",
                      "name": "eventId",
                      "type": "uint256"
                    },
                    {
                      "internalType": "uint256",
                      "name": "voteCount",
                      "type": "uint256"
                    },
                    {
                      "internalType": "bool",
                      "name": "win",
                      "type": "bool"
                    },
                    {
                      "internalType": "string",
                      "name": "imageFileName",
                      "type": "string"
                    }
                  ],
                  "internalType": "struct VotingSystem.Candidate[]",
                  "name": "candidates",
                  "type": "tuple[]"
                },
                {
                  "internalType": "uint256",
                  "name": "candidateCount",
                  "type": "uint256"
                },
                {
                  "internalType": "uint256",
                  "name": "startDateTime",
                  "type": "uint256"
                },
                {
                  "internalType": "uint256",
                  "name": "endDateTime",
                  "type": "uint256"
                },
                {
                  "internalType": "uint256",
                  "name": "status",
                  "type": "uint256"
                }
              ],
              "internalType": "struct VotingSystem.Event[]",
              "name": "events",
              "type": "tuple[]"
            },
            {
              "internalType": "uint256",
              "name": "status",
              "type": "uint256"
            }
          ],
          "internalType": "struct VotingSystem.Category[]",
          "name": "",
          "type": "tuple[]"
        }
      ],
      "stateMutability": "view",
      "type": "function",
      "constant": true
    },
    {
      "inputs": [
        {
          "internalType": "uint256",
          "name": "_categoryId",
          "type": "uint256"
        }
      ],
      "name": "getCategoryById",
      "outputs": [
        {
          "components": [
            {
              "internalType": "uint256",
              "name": "categoryId",
              "type": "uint256"
            },
            {
              "internalType": "string",
              "name": "categoryName",
              "type": "string"
            },
            {
              "components": [
                {
                  "internalType": "uint256",
                  "name": "eventId",
                  "type": "uint256"
                },
                {
                  "internalType": "string",
                  "name": "eventName",
                  "type": "string"
                },
                {
                  "internalType": "uint256",
                  "name": "categoryId",
                  "type": "uint256"
                },
                {
                  "components": [
                    {
                      "internalType": "uint256",
                      "name": "id",
                      "type": "uint256"
                    },
                    {
                      "internalType": "string",
                      "name": "name",
                      "type": "string"
                    },
                    {
                      "internalType": "string",
                      "name": "description",
                      "type": "string"
                    },
                    {
                      "internalType": "uint256",
                      "name": "studentId",
                      "type": "uint256"
                    },
                    {
                      "internalType": "uint256",
                      "name": "categoryId",
                      "type": "uint256"
                    },
                    {
                      "internalType": "uint256",
                      "name": "eventId",
                      "type": "uint256"
                    },
                    {
                      "internalType": "uint256",
                      "name": "voteCount",
                      "type": "uint256"
                    },
                    {
                      "internalType": "bool",
                      "name": "win",
                      "type": "bool"
                    },
                    {
                      "internalType": "string",
                      "name": "imageFileName",
                      "type": "string"
                    }
                  ],
                  "internalType": "struct VotingSystem.Candidate[]",
                  "name": "candidates",
                  "type": "tuple[]"
                },
                {
                  "internalType": "uint256",
                  "name": "candidateCount",
                  "type": "uint256"
                },
                {
                  "internalType": "uint256",
                  "name": "startDateTime",
                  "type": "uint256"
                },
                {
                  "internalType": "uint256",
                  "name": "endDateTime",
                  "type": "uint256"
                },
                {
                  "internalType": "uint256",
                  "name": "status",
                  "type": "uint256"
                }
              ],
              "internalType": "struct VotingSystem.Event[]",
              "name": "events",
              "type": "tuple[]"
            },
            {
              "internalType": "uint256",
              "name": "status",
              "type": "uint256"
            }
          ],
          "internalType": "struct VotingSystem.Category",
          "name": "",
          "type": "tuple"
        }
      ],
      "stateMutability": "view",
      "type": "function",
      "constant": true
    },
    {
      "inputs": [],
      "name": "getAllEvent",
      "outputs": [
        {
          "components": [
            {
              "internalType": "uint256",
              "name": "eventId",
              "type": "uint256"
            },
            {
              "internalType": "string",
              "name": "eventName",
              "type": "string"
            },
            {
              "internalType": "uint256",
              "name": "categoryId",
              "type": "uint256"
            },
            {
              "components": [
                {
                  "internalType": "uint256",
                  "name": "id",
                  "type": "uint256"
                },
                {
                  "internalType": "string",
                  "name": "name",
                  "type": "string"
                },
                {
                  "internalType": "string",
                  "name": "description",
                  "type": "string"
                },
                {
                  "internalType": "uint256",
                  "name": "studentId",
                  "type": "uint256"
                },
                {
                  "internalType": "uint256",
                  "name": "categoryId",
                  "type": "uint256"
                },
                {
                  "internalType": "uint256",
                  "name": "eventId",
                  "type": "uint256"
                },
                {
                  "internalType": "uint256",
                  "name": "voteCount",
                  "type": "uint256"
                },
                {
                  "internalType": "bool",
                  "name": "win",
                  "type": "bool"
                },
                {
                  "internalType": "string",
                  "name": "imageFileName",
                  "type": "string"
                }
              ],
              "internalType": "struct VotingSystem.Candidate[]",
              "name": "candidates",
              "type": "tuple[]"
            },
            {
              "internalType": "uint256",
              "name": "candidateCount",
              "type": "uint256"
            },
            {
              "internalType": "uint256",
              "name": "startDateTime",
              "type": "uint256"
            },
            {
              "internalType": "uint256",
              "name": "endDateTime",
              "type": "uint256"
            },
            {
              "internalType": "uint256",
              "name": "status",
              "type": "uint256"
            }
          ],
          "internalType": "struct VotingSystem.Event[]",
          "name": "",
          "type": "tuple[]"
        }
      ],
      "stateMutability": "view",
      "type": "function",
      "constant": true
    },
    {
      "inputs": [
        {
          "internalType": "uint256",
          "name": "_categoryId",
          "type": "uint256"
        },
        {
          "internalType": "uint256",
          "name": "_eventId",
          "type": "uint256"
        }
      ],
      "name": "getEventById",
      "outputs": [
        {
          "components": [
            {
              "internalType": "uint256",
              "name": "eventId",
              "type": "uint256"
            },
            {
              "internalType": "string",
              "name": "eventName",
              "type": "string"
            },
            {
              "internalType": "uint256",
              "name": "categoryId",
              "type": "uint256"
            },
            {
              "components": [
                {
                  "internalType": "uint256",
                  "name": "id",
                  "type": "uint256"
                },
                {
                  "internalType": "string",
                  "name": "name",
                  "type": "string"
                },
                {
                  "internalType": "string",
                  "name": "description",
                  "type": "string"
                },
                {
                  "internalType": "uint256",
                  "name": "studentId",
                  "type": "uint256"
                },
                {
                  "internalType": "uint256",
                  "name": "categoryId",
                  "type": "uint256"
                },
                {
                  "internalType": "uint256",
                  "name": "eventId",
                  "type": "uint256"
                },
                {
                  "internalType": "uint256",
                  "name": "voteCount",
                  "type": "uint256"
                },
                {
                  "internalType": "bool",
                  "name": "win",
                  "type": "bool"
                },
                {
                  "internalType": "string",
                  "name": "imageFileName",
                  "type": "string"
                }
              ],
              "internalType": "struct VotingSystem.Candidate[]",
              "name": "candidates",
              "type": "tuple[]"
            },
            {
              "internalType": "uint256",
              "name": "candidateCount",
              "type": "uint256"
            },
            {
              "internalType": "uint256",
              "name": "startDateTime",
              "type": "uint256"
            },
            {
              "internalType": "uint256",
              "name": "endDateTime",
              "type": "uint256"
            },
            {
              "internalType": "uint256",
              "name": "status",
              "type": "uint256"
            }
          ],
          "internalType": "struct VotingSystem.Event",
          "name": "",
          "type": "tuple"
        }
      ],
      "stateMutability": "view",
      "type": "function",
      "constant": true
    },
    {
      "inputs": [
        {
          "internalType": "string",
          "name": "_voterKey",
          "type": "string"
        },
        {
          "internalType": "uint256",
          "name": "_candidateId",
          "type": "uint256"
        },
        {
          "internalType": "uint256",
          "name": "_categoryId",
          "type": "uint256"
        },
        {
          "internalType": "uint256",
          "name": "_eventId",
          "type": "uint256"
        }
      ],
      "name": "vote",
      "outputs": [],
      "stateMutability": "nonpayable",
      "type": "function"
    },
    {
      "inputs": [
        {
          "internalType": "uint256",
          "name": "_categoryId",
          "type": "uint256"
        },
        {
          "internalType": "uint256",
          "name": "_eventId",
          "type": "uint256"
        },
        {
          "internalType": "string",
          "name": "_voterKey",
          "type": "string"
        }
      ],
      "name": "isVoted",
      "outputs": [
        {
          "internalType": "bool",
          "name": "",
          "type": "bool"
        }
      ],
      "stateMutability": "view",
      "type": "function",
      "constant": true
    },
    {
      "inputs": [
        {
          "internalType": "uint256",
          "name": "_categoryId",
          "type": "uint256"
        },
        {
          "internalType": "uint256",
          "name": "_eventId",
          "type": "uint256"
        }
      ],
      "name": "getVoteEventCandidate",
      "outputs": [
        {
          "components": [
            {
              "internalType": "uint256",
              "name": "id",
              "type": "uint256"
            },
            {
              "internalType": "string",
              "name": "name",
              "type": "string"
            },
            {
              "internalType": "string",
              "name": "description",
              "type": "string"
            },
            {
              "internalType": "uint256",
              "name": "studentId",
              "type": "uint256"
            },
            {
              "internalType": "uint256",
              "name": "categoryId",
              "type": "uint256"
            },
            {
              "internalType": "uint256",
              "name": "eventId",
              "type": "uint256"
            },
            {
              "internalType": "uint256",
              "name": "voteCount",
              "type": "uint256"
            },
            {
              "internalType": "bool",
              "name": "win",
              "type": "bool"
            },
            {
              "internalType": "string",
              "name": "imageFileName",
              "type": "string"
            }
          ],
          "internalType": "struct VotingSystem.Candidate[]",
          "name": "",
          "type": "tuple[]"
        }
      ],
      "stateMutability": "view",
      "type": "function",
      "constant": true
    },
    {
      "inputs": [
        {
          "internalType": "uint256",
          "name": "_categoryId",
          "type": "uint256"
        },
        {
          "internalType": "uint256",
          "name": "_eventId",
          "type": "uint256"
        }
      ],
      "name": "markWinner",
      "outputs": [],
      "stateMutability": "nonpayable",
      "type": "function"
    },
    {
      "inputs": [
        {
          "internalType": "uint256",
          "name": "_categoryId",
          "type": "uint256"
        },
        {
          "internalType": "uint256",
          "name": "_eventId",
          "type": "uint256"
        }
      ],
      "name": "isMarkWinner",
      "outputs": [
        {
          "internalType": "bool",
          "name": "isMarket",
          "type": "bool"
        }
      ],
      "stateMutability": "view",
      "type": "function",
      "constant": true
    },
    {
      "inputs": [
        {
          "internalType": "uint256",
          "name": "_categoryId",
          "type": "uint256"
        },
        {
          "internalType": "uint256",
          "name": "_eventId",
          "type": "uint256"
        }
      ],
      "name": "whoIsTheWinner",
      "outputs": [
        {
          "components": [
            {
              "internalType": "uint256",
              "name": "id",
              "type": "uint256"
            },
            {
              "internalType": "string",
              "name": "name",
              "type": "string"
            },
            {
              "internalType": "string",
              "name": "description",
              "type": "string"
            },
            {
              "internalType": "uint256",
              "name": "studentId",
              "type": "uint256"
            },
            {
              "internalType": "uint256",
              "name": "categoryId",
              "type": "uint256"
            },
            {
              "internalType": "uint256",
              "name": "eventId",
              "type": "uint256"
            },
            {
              "internalType": "uint256",
              "name": "voteCount",
              "type": "uint256"
            },
            {
              "internalType": "bool",
              "name": "win",
              "type": "bool"
            },
            {
              "internalType": "string",
              "name": "imageFileName",
              "type": "string"
            }
          ],
          "internalType": "struct VotingSystem.Candidate",
          "name": "",
          "type": "tuple"
        }
      ],
      "stateMutability": "view",
      "type": "function",
      "constant": true
    }
  ],
  "bytecode": "0x608060405234801561001057600080fd5b50600080546001600160a01b03191633179055615f6080620000336000396000f3fe608060405234801561001057600080fd5b50600436106101f05760003560e01c8063819ac74c1161010f578063b62b3e93116100a2578063da58c7d911610071578063da58c7d9146104a3578063f29565ed146104c9578063f44f4e14146104dc578063f731d0e9146104f157600080fd5b8063b62b3e931461044a578063c0d75cdd1461045d578063c801128014610470578063cd1d56cd1461048357600080fd5b80638f2c2805116100de5780638f2c2805146103ef578063909f850214610404578063a1a0256414610424578063a7e62d1b1461043757600080fd5b8063819ac74c1461038b5780638801b5b61461039e57806388ad4376146103b15780638da5cb5b146103c457600080fd5b80635b4d727c11610187578063748f55a811610156578063748f55a8146103325780637630498414610352578063776a657b1461036557806379cf6ecd1461037857600080fd5b80635b4d727c146102c757806360e93f3c146102da578063642d20ad146102fa578063689b6fbf1461031f57600080fd5b8063400af02a116101c3578063400af02a1461025e578063401a52dd1461027e57806340776e58146102915780634ba31db6146102b457600080fd5b80631002cdd4146101f55780632e0dcbf7146102135780632e6997fe146102285780633e60e2f51461023d575b600080fd5b6101fd610504565b60405161020a91906150f9565b60405180910390f35b61022661022136600461527e565b610962565b005b610230610a91565b60405161020a91906152ba565b61025061024b36600461530f565b610c13565b60405190815260200161020a565b61027161026c36600461530f565b610c51565b60405161020a91906153fb565b6101fd61028c36600461540e565b610cf3565b6102a461029f366004615427565b6110fc565b604051901515815260200161020a565b6102a46102c2366004615449565b61155b565b6102306102d5366004615427565b611668565b6102ed6102e836600461540e565b611a04565b60405161020a9190615529565b61030d61030836600461540e565b611e7c565b60405161020a9695949392919061553c565b6102a461032d36600461530f565b611f3d565b610345610340366004615427565b611f68565b60405161020a919061557c565b61022661036036600461558f565b61241b565b610226610373366004615632565b6126f1565b6102266103863660046158d0565b6129b4565b610226610399366004615904565b612afa565b6102716103ac36600461530f565b612bb1565b6102a46103bf36600461527e565b612f52565b6000546103d7906001600160a01b031681565b6040516001600160a01b03909116815260200161020a565b6103f7612f7d565b60405161020a919061595a565b610417610412366004615427565b61348e565b60405161020a91906159af565b6102a461043236600461527e565b61395b565b610230610445366004615427565b613a48565b6102266104583660046159c2565b613e7b565b61022661046b366004615427565b613ee3565b61022661047e366004615ad5565b6140f2565b61049661049136600461527e565b6142a4565b60405161020a9190615b09565b6104b66104b136600461540e565b6144a7565b60405161020a9796959493929190615baa565b6102266104d736600461530f565b614702565b6104e461479c565b60405161020a9190615c17565b6102266104ff366004615c6c565b614ac2565b606060006009546001600160401b038111156105225761052261515b565b60405190808252806020026020018201604052801561055b57816020015b610548614ddf565b8152602001906001900390816105405790505b5090506000805b60075481101561095a5760005b6001600061057d8483615d53565b815260208101919091526040016000206002015481101561094757600160006105a68483615d53565b815260200190815260200160002060020181815481106105c8576105c8615d6b565b906000526020600020906008020160405180610100016040529081600082015481526020016001820180546105fc90615d81565b80601f016020809104026020016040519081016040528092919081815260200182805461062890615d81565b80156106755780601f1061064a57610100808354040283529160200191610675565b820191906000526020600020905b81548152906001019060200180831161065857829003601f168201915b505050505081526020016002820154815260200160038201805480602002602001604051908101604052809291908181526020016000905b828210156108db578382906000526020600020906009020160405180610120016040529081600082015481526020016001820180546106eb90615d81565b80601f016020809104026020016040519081016040528092919081815260200182805461071790615d81565b80156107645780601f1061073957610100808354040283529160200191610764565b820191906000526020600020905b81548152906001019060200180831161074757829003601f168201915b5050505050815260200160028201805461077d90615d81565b80601f01602080910402602001604051908101604052809291908181526020018280546107a990615d81565b80156107f65780601f106107cb576101008083540402835291602001916107f6565b820191906000526020600020905b8154815290600101906020018083116107d957829003601f168201915b505050918352505060038201546020820152600482015460408201526005820154606082015260068201546080820152600782015460ff16151560a082015260088201805460c09092019161084a90615d81565b80601f016020809104026020016040519081016040528092919081815260200182805461087690615d81565b80156108c35780601f10610898576101008083540402835291602001916108c3565b820191906000526020600020905b8154815290600101906020018083116108a657829003601f168201915b505050505081525050815260200190600101906106ad565b50505050815260200160048201548152602001600582015481526020016006820154815260200160078201548152505084848151811061091d5761091d615d6b565b6020908102919091010152610933600184615d53565b92508061093f81615db5565b91505061056f565b508061095281615db5565b915050610562565b509092915050565b60015b6007548111610a0557600160008281526020019081526020016000206001016040516109919190615dce565b60405180910390208280519060200120036109f35760405162461bcd60e51b815260206004820152601760248201527f43617465676f727920616c72656164792065786973747300000000000000000060448201526064015b60405180910390fd5b806109fd81615db5565b915050610965565b50600160076000828254610a199190615d53565b9091555050600754600090815260016020818152604090922083519092610a469284019190850190614e24565b5060078054825560016003830155546040517f5bae3f75753ef0a1c0ea0f6c51d7b43a4b8d116572b8b7b5cb771f9ad32d4ae590610a85908590615e69565b60405180910390a25050565b606060006008546001600160401b03811115610aaf57610aaf61515b565b604051908082528060200260200182016040528015610ae857816020015b610ad5614ea8565b815260200190600190039081610acd5790505b50905060006009546001600160401b03811115610b0757610b0761515b565b604051908082528060200260200182016040528015610b4057816020015b610b2d614ddf565b815260200190600190039081610b255790505b509050610b4b610504565b90506000805b600954811015610c0a5760005b838281518110610b7057610b70615d6b565b60200260200101516060015151811015610bf757838281518110610b9657610b96615d6b565b6020026020010151606001518181518110610bb357610bb3615d6b565b6020026020010151858481518110610bcd57610bcd615d6b565b6020908102919091010152610be3600184615d53565b925080610bef81615db5565b915050610b5e565b5080610c0281615db5565b915050610b51565b50919392505050565b600080610c208484612bb1565b8051909150600003610c445760405162461bcd60e51b81526004016109ea90615e7c565b60a0015190505b92915050565b610c59614ef6565b6000610c658484612bb1565b8051909150600003610c895760405162461bcd60e51b81526004016109ea90615e7c565b8060a00151600114610cec5760405162461bcd60e51b815260206004820152602660248201527f596f7572206163636f756e74207761732062616e6e6564206f72206e6f74207660448201526565726966792160d01b60648201526084016109ea565b9392505050565b60008181526001602052604081206002810154606092906001600160401b03811115610d2157610d2161515b565b604051908082528060200260200182016040528015610d5a57816020015b610d47614ddf565b815260200190600190039081610d3f5790505b50905060005b60028301548110156110f457826002018181548110610d8157610d81615d6b565b90600052602060002090600802016040518061010001604052908160008201548152602001600182018054610db590615d81565b80601f0160208091040260200160405190810160405280929190818152602001828054610de190615d81565b8015610e2e5780601f10610e0357610100808354040283529160200191610e2e565b820191906000526020600020905b815481529060010190602001808311610e1157829003601f168201915b505050505081526020016002820154815260200160038201805480602002602001604051908101604052809291908181526020016000905b8282101561109457838290600052602060002090600902016040518061012001604052908160008201548152602001600182018054610ea490615d81565b80601f0160208091040260200160405190810160405280929190818152602001828054610ed090615d81565b8015610f1d5780601f10610ef257610100808354040283529160200191610f1d565b820191906000526020600020905b815481529060010190602001808311610f0057829003601f168201915b50505050508152602001600282018054610f3690615d81565b80601f0160208091040260200160405190810160405280929190818152602001828054610f6290615d81565b8015610faf5780601f10610f8457610100808354040283529160200191610faf565b820191906000526020600020905b815481529060010190602001808311610f9257829003601f168201915b505050918352505060038201546020820152600482015460408201526005820154606082015260068201546080820152600782015460ff16151560a082015260088201805460c09092019161100390615d81565b80601f016020809104026020016040519081016040528092919081815260200182805461102f90615d81565b801561107c5780601f106110515761010080835404028352916020019161107c565b820191906000526020600020905b81548152906001019060200180831161105f57829003601f168201915b50505050508152505081526020019060010190610e66565b5050505081526020016004820154815260200160058201548152602001600682015481526020016007820154815250508282815181106110d6576110d6615d6b565b602002602001018190525080806110ec90615db5565b915050610d60565b509392505050565b600082815260016020908152604080832060020180548251818502810185019093528083528493849084015b828210156114845783829060005260206000209060080201604051806101000160405290816000820154815260200160018201805461116690615d81565b80601f016020809104026020016040519081016040528092919081815260200182805461119290615d81565b80156111df5780601f106111b4576101008083540402835291602001916111df565b820191906000526020600020905b8154815290600101906020018083116111c257829003601f168201915b505050505081526020016002820154815260200160038201805480602002602001604051908101604052809291908181526020016000905b828210156114455783829060005260206000209060090201604051806101200160405290816000820154815260200160018201805461125590615d81565b80601f016020809104026020016040519081016040528092919081815260200182805461128190615d81565b80156112ce5780601f106112a3576101008083540402835291602001916112ce565b820191906000526020600020905b8154815290600101906020018083116112b157829003601f168201915b505050505081526020016002820180546112e790615d81565b80601f016020809104026020016040519081016040528092919081815260200182805461131390615d81565b80156113605780601f1061133557610100808354040283529160200191611360565b820191906000526020600020905b81548152906001019060200180831161134357829003601f168201915b505050918352505060038201546020820152600482015460408201526005820154606082015260068201546080820152600782015460ff16151560a082015260088201805460c0909201916113b490615d81565b80601f01602080910402602001604051908101604052809291908181526020018280546113e090615d81565b801561142d5780601f106114025761010080835404028352916020019161142d565b820191906000526020600020905b81548152906001019060200180831161141057829003601f168201915b50505050508152505081526020019060010190611217565b50505050815260200160048201548152602001600582015481526020016006820154815260200160078201548152505081526020019060010190611128565b505050509050606060005b82518110156114ef57848382815181106114ab576114ab615d6b565b602002602001015160000151036114dd578281815181106114ce576114ce615d6b565b60200260200101516060015191505b806114e781615db5565b91505061148f565b5060005b600182516115019190615ec0565b81101561154f5781818151811061151a5761151a615d6b565b602002602001015160e001511515600115150361153d5760019350505050610c4b565b8061154781615db5565b9150506114f3565b50600095945050505050565b60008381526001602052604081205481036115b25760405162461bcd60e51b815260206004820152601760248201527610d85d1959dbdc9e48191bd95cc81b9bdd08195e1a5cdd604a1b60448201526064016109ea565b60015b600a54811161165d57600081815260046020526040902060020154851480156115ee575060008181526004602052604090206003015484145b801561162a57508280519060200120600460008381526020019081526020016000206001016040516116209190615dce565b6040518091039020145b1561164b5760009081526004602052604090206005015460ff169050610cec565b8061165581615db5565b9150506115b5565b506000949350505050565b60008281526001602052604081206060915b60028201548110156119fc578382600201828154811061169c5761169c615d6b565b906000526020600020906008020160000154036119ea5760008260020182815481106116ca576116ca615d6b565b9060005260206000209060080201600401546001600160401b038111156116f3576116f361515b565b60405190808252806020026020018201604052801561172c57816020015b611719614ea8565b8152602001906001900390816117115790505b50905060005b83600201838154811061174757611747615d6b565b9060005260206000209060080201600301805490508110156119df5783600201838154811061177857611778615d6b565b9060005260206000209060080201600301818154811061179a5761179a615d6b565b906000526020600020906009020160405180610120016040529081600082015481526020016001820180546117ce90615d81565b80601f01602080910402602001604051908101604052809291908181526020018280546117fa90615d81565b80156118475780601f1061181c57610100808354040283529160200191611847565b820191906000526020600020905b81548152906001019060200180831161182a57829003601f168201915b5050505050815260200160028201805461186090615d81565b80601f016020809104026020016040519081016040528092919081815260200182805461188c90615d81565b80156118d95780601f106118ae576101008083540402835291602001916118d9565b820191906000526020600020905b8154815290600101906020018083116118bc57829003601f168201915b505050918352505060038201546020820152600482015460408201526005820154606082015260068201546080820152600782015460ff16151560a082015260088201805460c09092019161192d90615d81565b80601f016020809104026020016040519081016040528092919081815260200182805461195990615d81565b80156119a65780601f1061197b576101008083540402835291602001916119a6565b820191906000526020600020905b81548152906001019060200180831161198957829003601f168201915b5050505050815250508282815181106119c1576119c1615d6b565b602002602001018190525080806119d790615db5565b915050611732565b509250610c4b915050565b806119f481615db5565b91505061167a565b505092915050565b611a2f6040518060800160405280600081526020016060815260200160608152602001600081525090565b60008281526001602081815260409283902083516080810190945280548452918201805491840191611a6090615d81565b80601f0160208091040260200160405190810160405280929190818152602001828054611a8c90615d81565b8015611ad95780601f10611aae57610100808354040283529160200191611ad9565b820191906000526020600020905b815481529060010190602001808311611abc57829003601f168201915b5050505050815260200160028201805480602002602001604051908101604052809291908181526020016000905b82821015611e6357838290600052602060002090600802016040518061010001604052908160008201548152602001600182018054611b4590615d81565b80601f0160208091040260200160405190810160405280929190818152602001828054611b7190615d81565b8015611bbe5780601f10611b9357610100808354040283529160200191611bbe565b820191906000526020600020905b815481529060010190602001808311611ba157829003601f168201915b505050505081526020016002820154815260200160038201805480602002602001604051908101604052809291908181526020016000905b82821015611e2457838290600052602060002090600902016040518061012001604052908160008201548152602001600182018054611c3490615d81565b80601f0160208091040260200160405190810160405280929190818152602001828054611c6090615d81565b8015611cad5780601f10611c8257610100808354040283529160200191611cad565b820191906000526020600020905b815481529060010190602001808311611c9057829003601f168201915b50505050508152602001600282018054611cc690615d81565b80601f0160208091040260200160405190810160405280929190818152602001828054611cf290615d81565b8015611d3f5780601f10611d1457610100808354040283529160200191611d3f565b820191906000526020600020905b815481529060010190602001808311611d2257829003601f168201915b505050918352505060038201546020820152600482015460408201526005820154606082015260068201546080820152600782015460ff16151560a082015260088201805460c090920191611d9390615d81565b80601f0160208091040260200160405190810160405280929190818152602001828054611dbf90615d81565b8015611e0c5780601f10611de157610100808354040283529160200191611e0c565b820191906000526020600020905b815481529060010190602001808311611def57829003601f168201915b50505050508152505081526020019060010190611bf6565b50505050815260200160048201548152602001600582015481526020016006820154815260200160078201548152505081526020019060010190611b07565b5050505081526020016003820154815250509050919050565b60046020526000908152604090208054600182018054919291611e9e90615d81565b80601f0160208091040260200160405190810160405280929190818152602001828054611eca90615d81565b8015611f175780601f10611eec57610100808354040283529160200191611f17565b820191906000526020600020905b815481529060010190602001808311611efa57829003601f168201915b505050506002830154600384015460048501546005909501549394919390925060ff1686565b600080611f4a8484612bb1565b805190915015611f5e576001915050610c4b565b5060009392505050565b611f70614ea8565b600083815260016020908152604080832060020180548251818502810185019093528083529192909190849084015b828210156122fb57838290600052602060002090600802016040518061010001604052908160008201548152602001600182018054611fdd90615d81565b80601f016020809104026020016040519081016040528092919081815260200182805461200990615d81565b80156120565780601f1061202b57610100808354040283529160200191612056565b820191906000526020600020905b81548152906001019060200180831161203957829003601f168201915b505050505081526020016002820154815260200160038201805480602002602001604051908101604052809291908181526020016000905b828210156122bc578382906000526020600020906009020160405180610120016040529081600082015481526020016001820180546120cc90615d81565b80601f01602080910402602001604051908101604052809291908181526020018280546120f890615d81565b80156121455780601f1061211a57610100808354040283529160200191612145565b820191906000526020600020905b81548152906001019060200180831161212857829003601f168201915b5050505050815260200160028201805461215e90615d81565b80601f016020809104026020016040519081016040528092919081815260200182805461218a90615d81565b80156121d75780601f106121ac576101008083540402835291602001916121d7565b820191906000526020600020905b8154815290600101906020018083116121ba57829003601f168201915b505050918352505060038201546020820152600482015460408201526005820154606082015260068201546080820152600782015460ff16151560a082015260088201805460c09092019161222b90615d81565b80601f016020809104026020016040519081016040528092919081815260200182805461225790615d81565b80156122a45780601f10612279576101008083540402835291602001916122a4565b820191906000526020600020905b81548152906001019060200180831161228757829003601f168201915b5050505050815250508152602001906001019061208e565b50505050815260200160048201548152602001600582015481526020016006820154815260200160078201548152505081526020019060010190611f9f565b505050509050606060005b8251811015612366578483828151811061232257612322615d6b565b602002602001015160000151036123545782818151811061234557612345615d6b565b60200260200101516060015191505b8061235e81615db5565b915050612306565b5060008160008151811061237c5761237c615d6b565b6020026020010151905060005b600183516123979190615ec0565b81101561240a57826123aa826001615d53565b815181106123ba576123ba615d6b565b602002602001015160c001518260c0015110156123f857826123dd826001615d53565b815181106123ed576123ed615d6b565b602002602001015191505b8061240281615db5565b915050612389565b50600160e082015295945050505050565b60008681526001602052604081205490036124725760405162461bcd60e51b815260206004820152601760248201527610d85d1959dbdc9e48191bd95cc81b9bdd08195e1a5cdd604a1b60448201526064016109ea565b6006816040516124829190615ed7565b9081526040519081900360200190205460ff16156124e25760405162461bcd60e51b815260206004820152601e60248201527f496d6167652066696c65206e616d6520616c726561647920696e20757365000060448201526064016109ea565b6001600860008282546124f59190615d53565b9091555050604080516101208101825260085481526020808201879052818301869052606082018590526080820189905260a08201889052600060c0830181905260e083018190526101008301859052898152600190915291822090915b60028201548110156126b4578782600201828154811061257557612575615d6b565b906000526020600020906008020160000154036126a2578160020181815481106125a1576125a1615d6b565b600091825260208083206003600890930201919091018054600181810183559184529282902086516009909402019283558582015180518794936125e9938501920190614e24565b5060408201518051612605916002840191602090910190614e24565b50606082015160038201556080820151600482015560a0820151600582015560c0820151600682015560e082015160078201805460ff19169115159190911790556101008201518051612662916008840191602090910190614e24565b505050600182600201828154811061267c5761267c615d6b565b9060005260206000209060080201600401600082825461269c9190615d53565b90915550505b806126ac81615db5565b915050612553565b5060016006846040516126c79190615ed7565b908152604051908190036020019020805491151560ff199092169190911790555050505050505050565b60008281526001602052604081205490036127495760405162461bcd60e51b815260206004820152601860248201527743617465676f727920646f6573206e6f742065786973747360401b60448201526064016109ea565b6009546000036127935760405162461bcd60e51b81526020600482015260156024820152744576656e7420646f6573206e6f742065786973747360581b60448201526064016109ea565b60015b600a548111612879576000818152600460205260409081902090516127be9160010190615dce565b604051809103902085805190602001201480156127eb575060008181526004602052604090206002015483145b8015612807575060008181526004602052604090206003015482145b156128675760008181526004602052604090206005015460ff16156128625760405162461bcd60e51b8152602060048201526011602482015270165bdd48185b1c9958591e481d9bdd1959607a1b60448201526064016109ea565b612879565b8061287181615db5565b915050612796565b506001600a600082825461288d9190615d53565b90915550506040805160c081018252600a5480825260208083018881528385018790526060840186905260808401889052600160a08501819052600093845260048352949092208351815591518051939485946128f1939185019290910190614e24565b5060408201516002820155606082015160038201556080820151600482015560a0909101516005909101805460ff1916911515919091179055612935838386614c57565b6040805160208101859052808201849052815180820383018152606090910191829052908590612966908390615ed7565b60405180910390208760405161297c9190615ed7565b604051908190038120907f336badd820d33e68eff2381e343928896ff7147adf09b298939d0a7b001f072e90600090a4505050505050565b60408082015160009081526001602052908120549003612a115760405162461bcd60e51b815260206004820152601860248201527743617465676f727920646f6573206e6f742065786973747360401b60448201526064016109ea565b60005b604080830151600090815260016020522060020154811015612af65781516040808401516000908152600160205220600201805483908110612a5857612a58615d6b565b90600052602060002090600802016000015403612ae45760408083015160009081526001602052908120600201805483908110612a9757612a97615d6b565b906000526020600020906008020190508260200151816001019080519060200190612ac3929190614e24565b5060e0830151600782015560a0830151600582015560c08301516006909101555b80612aee81615db5565b915050612a14565b5050565b6000848152600160205260408120549003612b275760405162461bcd60e51b81526004016109ea90615ef3565b6000848152600160208190526040822060098054919392918390612b4c908490615d53565b9182905550600284018054600181810183556000928352602092839020600890920290910183815589519395509350612b8b9290840191890190614e24565b506002810196909655505060016007850155600584019190915560069092019190915550565b612bb9614ef6565b600082604051602001612bcc9190615ed7565b60408051601f198184030181529190528051602090910120905060015b600b548111612eea57600081815260056020526040908190209051612c119160020190615dce565b60405180910390208580519060200120148015612c465750600081815260056020526040902060030154612c46908390614d67565b15612ed857600560008281526020019081526020016000206040518060e001604052908160008201548152602001600182018054612c8390615d81565b80601f0160208091040260200160405190810160405280929190818152602001828054612caf90615d81565b8015612cfc5780601f10612cd157610100808354040283529160200191612cfc565b820191906000526020600020905b815481529060010190602001808311612cdf57829003601f168201915b50505050508152602001600282018054612d1590615d81565b80601f0160208091040260200160405190810160405280929190818152602001828054612d4190615d81565b8015612d8e5780601f10612d6357610100808354040283529160200191612d8e565b820191906000526020600020905b815481529060010190602001808311612d7157829003601f168201915b5050505050815260200160038201548152602001600482018054612db190615d81565b80601f0160208091040260200160405190810160405280929190818152602001828054612ddd90615d81565b8015612e2a5780601f10612dff57610100808354040283529160200191612e2a565b820191906000526020600020905b815481529060010190602001808311612e0d57829003601f168201915b5050505050815260200160058201548152602001600682018054612e4d90615d81565b80601f0160208091040260200160405190810160405280929190818152602001828054612e7990615d81565b8015612ec65780601f10612e9b57610100808354040283529160200191612ec6565b820191906000526020600020905b815481529060010190602001808311612ea957829003601f168201915b50505050508152505092505050610c4b565b80612ee281615db5565b915050612be9565b50506040805160e08101825260008082528251602080820185528282528084019190915283518082018552828152838501526060830182905283518082018552828152608084015260a083018290528351908101909352825260c08101919091529392505050565b6000600682604051612f649190615ed7565b9081526040519081900360200190205460ff1692915050565b606060006007546001600160401b03811115612f9b57612f9b61515b565b604051908082528060200260200182016040528015612ff757816020015b612fe46040518060800160405280600081526020016060815260200160608152602001600081525090565b815260200190600190039081612fb95790505b50905060015b6007548111613488576000818152600160208181526040928390208351608081019094528054845291820180549184019161303790615d81565b80601f016020809104026020016040519081016040528092919081815260200182805461306390615d81565b80156130b05780601f10613085576101008083540402835291602001916130b0565b820191906000526020600020905b81548152906001019060200180831161309357829003601f168201915b5050505050815260200160028201805480602002602001604051908101604052809291908181526020016000905b8282101561343a5783829060005260206000209060080201604051806101000160405290816000820154815260200160018201805461311c90615d81565b80601f016020809104026020016040519081016040528092919081815260200182805461314890615d81565b80156131955780601f1061316a57610100808354040283529160200191613195565b820191906000526020600020905b81548152906001019060200180831161317857829003601f168201915b505050505081526020016002820154815260200160038201805480602002602001604051908101604052809291908181526020016000905b828210156133fb5783829060005260206000209060090201604051806101200160405290816000820154815260200160018201805461320b90615d81565b80601f016020809104026020016040519081016040528092919081815260200182805461323790615d81565b80156132845780601f1061325957610100808354040283529160200191613284565b820191906000526020600020905b81548152906001019060200180831161326757829003601f168201915b5050505050815260200160028201805461329d90615d81565b80601f01602080910402602001604051908101604052809291908181526020018280546132c990615d81565b80156133165780601f106132eb57610100808354040283529160200191613316565b820191906000526020600020905b8154815290600101906020018083116132f957829003601f168201915b505050918352505060038201546020820152600482015460408201526005820154606082015260068201546080820152600782015460ff16151560a082015260088201805460c09092019161336a90615d81565b80601f016020809104026020016040519081016040528092919081815260200182805461339690615d81565b80156133e35780601f106133b8576101008083540402835291602001916133e3565b820191906000526020600020905b8154815290600101906020018083116133c657829003601f168201915b505050505081525050815260200190600101906131cd565b505050508152602001600482015481526020016005820154815260200160068201548152602001600782015481525050815260200190600101906130de565b5050505081526020016003820154815250508260018361345a9190615ec0565b8151811061346a5761346a615d6b565b6020026020010181905250808061348090615db5565b915050612ffd565b50919050565b613496614ddf565b60008381526001602081815260408084208151608081019092528054825292830180549193928401916134c890615d81565b80601f01602080910402602001604051908101604052809291908181526020018280546134f490615d81565b80156135415780601f1061351657610100808354040283529160200191613541565b820191906000526020600020905b81548152906001019060200180831161352457829003601f168201915b5050505050815260200160028201805480602002602001604051908101604052809291908181526020016000905b828210156138cb578382906000526020600020906008020160405180610100016040529081600082015481526020016001820180546135ad90615d81565b80601f01602080910402602001604051908101604052809291908181526020018280546135d990615d81565b80156136265780601f106135fb57610100808354040283529160200191613626565b820191906000526020600020905b81548152906001019060200180831161360957829003601f168201915b505050505081526020016002820154815260200160038201805480602002602001604051908101604052809291908181526020016000905b8282101561388c5783829060005260206000209060090201604051806101200160405290816000820154815260200160018201805461369c90615d81565b80601f01602080910402602001604051908101604052809291908181526020018280546136c890615d81565b80156137155780601f106136ea57610100808354040283529160200191613715565b820191906000526020600020905b8154815290600101906020018083116136f857829003601f168201915b5050505050815260200160028201805461372e90615d81565b80601f016020809104026020016040519081016040528092919081815260200182805461375a90615d81565b80156137a75780601f1061377c576101008083540402835291602001916137a7565b820191906000526020600020905b81548152906001019060200180831161378a57829003601f168201915b505050918352505060038201546020820152600482015460408201526005820154606082015260068201546080820152600782015460ff16151560a082015260088201805460c0909201916137fb90615d81565b80601f016020809104026020016040519081016040528092919081815260200182805461382790615d81565b80156138745780601f1061384957610100808354040283529160200191613874565b820191906000526020600020905b81548152906001019060200180831161385757829003601f168201915b5050505050815250508152602001906001019061365e565b5050505081526020016004820154815260200160058201548152602001600682015481526020016007820154815250508152602001906001019061356f565b50505050815260200160038201548152505090506138e7614ddf565b60005b82604001515181101561395257848360400151828151811061390e5761390e615d6b565b60200260200101516000015103613940578260400151818151811061393557613935615d6b565b602002602001015191505b8061394a81615db5565b9150506138ea565b50949350505050565b6001600090815260056020527f1471eb6eb2c5e789fc3de43f8ce62938c7d1836ec861730447e2ada8fd81017b5481036139cf5760405162461bcd60e51b81526020600482015260156024820152744e6f20766f74657220696e20746865206c6973742160581b60448201526064016109ea565b60015b600b548111613a3f576000818152600560205260409081902090516139fa9160060190615dce565b6040518091039020838051906020012003613a2d5760009081526005602081905260409091206001910181905592915050565b80613a3781615db5565b9150506139d2565b50600092915050565b6000828152600160209081526040808320600201805482518185028101850190935280835260609493849084015b82821015613dd257838290600052602060002090600802016040518061010001604052908160008201548152602001600182018054613ab490615d81565b80601f0160208091040260200160405190810160405280929190818152602001828054613ae090615d81565b8015613b2d5780601f10613b0257610100808354040283529160200191613b2d565b820191906000526020600020905b815481529060010190602001808311613b1057829003601f168201915b505050505081526020016002820154815260200160038201805480602002602001604051908101604052809291908181526020016000905b82821015613d9357838290600052602060002090600902016040518061012001604052908160008201548152602001600182018054613ba390615d81565b80601f0160208091040260200160405190810160405280929190818152602001828054613bcf90615d81565b8015613c1c5780601f10613bf157610100808354040283529160200191613c1c565b820191906000526020600020905b815481529060010190602001808311613bff57829003601f168201915b50505050508152602001600282018054613c3590615d81565b80601f0160208091040260200160405190810160405280929190818152602001828054613c6190615d81565b8015613cae5780601f10613c8357610100808354040283529160200191613cae565b820191906000526020600020905b815481529060010190602001808311613c9157829003601f168201915b505050918352505060038201546020820152600482015460408201526005820154606082015260068201546080820152600782015460ff16151560a082015260088201805460c090920191613d0290615d81565b80601f0160208091040260200160405190810160405280929190818152602001828054613d2e90615d81565b8015613d7b5780601f10613d5057610100808354040283529160200191613d7b565b820191906000526020600020905b815481529060010190602001808311613d5e57829003601f168201915b50505050508152505081526020019060010190613b65565b50505050815260200160048201548152602001600582015481526020016006820154815260200160078201548152505081526020019060010190613a76565b50505050905060005b8151811015613e415783828281518110613df757613df7615d6b565b60200260200101516000015103613e2f57818181518110613e1a57613e1a615d6b565b60200260200101516060015192505050610c4b565b80613e3981615db5565b915050613ddb565b506040805160008082526020820190925290613952565b613e60614ea8565b815260200190600190039081613e5857905050949350505050565b80516000908152600160205260408120549003613eaa5760405162461bcd60e51b81526004016109ea90615ef3565b805160009081526001602081815260409092208284015180519193613ed493850192910190614e24565b50606090910151600390910155565b600082815260016020525b6000838152600160205260409020600201548110156140ed576000838152600160205260409020600201805483919083908110613f2d57613f2d615d6b565b906000526020600020906008020160000154036140db576000838152600160205260408120600201805483908110613f6757613f67615d6b565b9060005260206000209060080201600301600081548110613f8a57613f8a615d6b565b9060005260206000209060090201905060005b6000858152600160208190526040909120600201805485908110613fc357613fc3615d6b565b906000526020600020906008020160030180549050613fe29190615ec0565b8110156140cb57600085815260016020526040902060020180548490811061400c5761400c615d6b565b906000526020600020906008020160030181600161402a9190615d53565b8154811061403a5761403a615d6b565b906000526020600020906009020160060154826006015410156140b957600085815260016020526040902060020180548490811061407a5761407a615d6b565b90600052602060002090600802016003018160016140989190615d53565b815481106140a8576140a8615d6b565b906000526020600020906009020191505b806140c381615db5565b915050613f9d565b50600701805460ff191660011790555b806140e581615db5565b915050613eee565b505050565b608081015160009081526001602052604081205490036141245760405162461bcd60e51b81526004016109ea90615ef3565b60808101516000908152600160205260408120600201905b81548110156140ed578260a0015182828154811061415c5761415c615d6b565b9060005260206000209060080201600001540361429257600082828154811061418757614187615d6b565b9060005260206000209060080201600301905060005b815481101561428f5784600001518282815481106141bd576141bd615d6b565b9060005260206000209060090201600001540361427d5784602001518282815481106141eb576141eb615d6b565b9060005260206000209060090201600101908051906020019061420f929190614e24565b50846060015182828154811061422757614227615d6b565b906000526020600020906009020160030181905550846040015182828154811061425357614253615d6b565b90600052602060002090600902016002019080519060200190614277929190614e24565b5061428f565b8061428781615db5565b91505061419d565b50505b8061429c81615db5565b91505061413c565b60606000600a546001600160401b038111156142c2576142c261515b565b60405190808252806020026020018201604052801561432e57816020015b61431b6040518060c0016040528060008152602001606081526020016000815260200160008152602001600081526020016000151581525090565b8152602001906001900390816142e05790505b509050600060015b600a54811161449e5784805190602001206004600083815260200190815260200160002060010160405161436a9190615dce565b60405180910390200361448c57600460008281526020019081526020016000206040518060c0016040529081600082015481526020016001820180546143af90615d81565b80601f01602080910402602001604051908101604052809291908181526020018280546143db90615d81565b80156144285780601f106143fd57610100808354040283529160200191614428565b820191906000526020600020905b81548152906001019060200180831161440b57829003601f168201915b505050918352505060028201546020820152600382015460408201526004820154606082015260059091015460ff161515608090910152835184908490811061447357614473615d6b565b6020908102919091010152614489600183615d53565b91505b8061449681615db5565b915050614336565b50815292915050565b600560205260009081526040902080546001820180549192916144c990615d81565b80601f01602080910402602001604051908101604052809291908181526020018280546144f590615d81565b80156145425780601f1061451757610100808354040283529160200191614542565b820191906000526020600020905b81548152906001019060200180831161452557829003601f168201915b50505050509080600201805461455790615d81565b80601f016020809104026020016040519081016040528092919081815260200182805461458390615d81565b80156145d05780601f106145a5576101008083540402835291602001916145d0565b820191906000526020600020905b8154815290600101906020018083116145b357829003601f168201915b5050505050908060030154908060040180546145eb90615d81565b80601f016020809104026020016040519081016040528092919081815260200182805461461790615d81565b80156146645780601f1061463957610100808354040283529160200191614664565b820191906000526020600020905b81548152906001019060200180831161464757829003601f168201915b50505050509080600501549080600601805461467f90615d81565b80601f01602080910402602001604051908101604052809291908181526020018280546146ab90615d81565b80156146f85780601f106146cd576101008083540402835291602001916146f8565b820191906000526020600020905b8154815290600101906020018083116146db57829003601f168201915b5050505050905087565b6000816040516020016147159190615ed7565b60408051601f198184030181529190528051602090910120905060015b600b5481116147965760008181526005602052604090819020905161475a9160010190615dce565b60405180910390208480519060200120036147845760008181526005602052604090206003018290555b8061478e81615db5565b915050614732565b50505050565b60606000600b546001600160401b038111156147ba576147ba61515b565b6040519080825280602002602001820160405280156147f357816020015b6147e0614ef6565b8152602001906001900390816147d85790505b50905060015b600b54811161348857600560008281526020019081526020016000206040518060e00160405290816000820154815260200160018201805461483a90615d81565b80601f016020809104026020016040519081016040528092919081815260200182805461486690615d81565b80156148b35780601f10614888576101008083540402835291602001916148b3565b820191906000526020600020905b81548152906001019060200180831161489657829003601f168201915b505050505081526020016002820180546148cc90615d81565b80601f01602080910402602001604051908101604052809291908181526020018280546148f890615d81565b80156149455780601f1061491a57610100808354040283529160200191614945565b820191906000526020600020905b81548152906001019060200180831161492857829003601f168201915b505050505081526020016003820154815260200160048201805461496890615d81565b80601f016020809104026020016040519081016040528092919081815260200182805461499490615d81565b80156149e15780601f106149b6576101008083540402835291602001916149e1565b820191906000526020600020905b8154815290600101906020018083116149c457829003601f168201915b5050505050815260200160058201548152602001600682018054614a0490615d81565b80601f0160208091040260200160405190810160405280929190818152602001828054614a3090615d81565b8015614a7d5780601f10614a5257610100808354040283529160200191614a7d565b820191906000526020600020905b815481529060010190602001808311614a6057829003601f168201915b50505050508152505082600183614a949190615ec0565b81518110614aa457614aa4615d6b565b60200260200101819052508080614aba90615db5565b9150506147f9565b60015b600b548111614b5357600081815260056020526040908190209051614aed9160010190615dce565b6040518091039020868051906020012003614b415760405162461bcd60e51b8152602060048201526014602482015273566f74657220616c72656164792065786973747360601b60448201526064016109ea565b80614b4b81615db5565b915050614ac5565b506001600b6000828254614b679190615d53565b9091555050604051600090614b80908590602001615ed7565b60408051601f198184030181529181528151602092830120600b546000818152600585529290922091825588519093509091614bc39160018401918a0190614e24565b508551614bd99060028301906020890190614e24565b50600381018290558351614bf69060048301906020870190614e24565b50600060058201558251614c139060068301906020860190614e24565b50600b547f56729c826fe77eec184059336ced13d9ef79d10126212c90a4d2b724391e14e288604051614c469190615e69565b60405180910390a250505050505050565b6000838152600160205260408120600201905b8154811015614d605783828281548110614c8657614c86615d6b565b90600052602060002090600802016000015403614d4e576000828281548110614cb157614cb1615d6b565b9060005260206000209060080201600301905060005b8154811015614d4b5784828281548110614ce357614ce3615d6b565b90600052602060002090600902016000015403614d39576001828281548110614d0e57614d0e615d6b565b90600052602060002090600902016006016000828254614d2e9190615d53565b90915550614d4b9050565b80614d4381615db5565b915050614cc7565b50505b80614d5881615db5565b915050614c6a565b5050505050565b6000805b6020811015614dd557828160208110614d8657614d86615d6b565b1a60f81b6001600160f81b031916848260208110614da657614da6615d6b565b1a60f81b6001600160f81b03191614614dc3576000915050610c4b565b80614dcd81615db5565b915050614d6b565b5060019392505050565b60405180610100016040528060008152602001606081526020016000815260200160608152602001600081526020016000815260200160008152602001600081525090565b828054614e3090615d81565b90600052602060002090601f016020900481019282614e525760008555614e98565b82601f10614e6b57805160ff1916838001178555614e98565b82800160010185558215614e98579182015b82811115614e98578251825591602001919060010190614e7d565b50614ea4929150614f36565b5090565b60405180610120016040528060008152602001606081526020016060815260200160008152602001600081526020016000815260200160008152602001600015158152602001606081525090565b6040518060e00160405280600081526020016060815260200160608152602001600080191681526020016060815260200160008152602001606081525090565b5b80821115614ea45760008155600101614f37565b60005b83811015614f66578181015183820152602001614f4e565b838111156147965750506000910152565b60008151808452614f8f816020860160208601614f4b565b601f01601f19169290920160200192915050565b6000610120825184526020830151816020860152614fc382860182614f77565b91505060408301518482036040860152614fdd8282614f77565b915050606083015160608501526080830151608085015260a083015160a085015260c083015160c085015260e083015161501b60e086018215159052565b5061010080840151858303828701526150348382614f77565b9695505050505050565b600061010082518452602080840151828287015261505e83870182614f77565b92505060408401516040860152606084015185830360608701528281518085528385019150838160051b860101848401935060005b828110156150c157601f198783030184526150af828651614fa3565b94860194938601939150600101615093565b50608088015160808a015260a088015160a08a015260c088015160c08a015260e088015160e08a015280965050505050505092915050565b6000602080830181845280855180835260408601915060408160051b870101925083870160005b8281101561514e57603f1988860301845261513c85835161503e565b94509285019290850190600101615120565b5092979650505050505050565b634e487b7160e01b600052604160045260246000fd5b60405161012081016001600160401b03811182821017156151945761519461515b565b60405290565b60405161010081016001600160401b03811182821017156151945761519461515b565b604051608081016001600160401b03811182821017156151945761519461515b565b604051601f8201601f191681016001600160401b03811182821017156152075761520761515b565b604052919050565b600082601f83011261522057600080fd5b81356001600160401b038111156152395761523961515b565b61524c601f8201601f19166020016151df565b81815284602083860101111561526157600080fd5b816020850160208301376000918101602001919091529392505050565b60006020828403121561529057600080fd5b81356001600160401b038111156152a657600080fd5b6152b28482850161520f565b949350505050565b6000602080830181845280855180835260408601915060408160051b870101925083870160005b8281101561514e57603f198886030184526152fd858351614fa3565b945092850192908501906001016152e1565b6000806040838503121561532257600080fd5b82356001600160401b038082111561533957600080fd5b6153458683870161520f565b9350602085013591508082111561535b57600080fd5b506153688582860161520f565b9150509250929050565b805182526000602082015160e0602085015261539160e0850182614f77565b9050604083015184820360408601526153aa8282614f77565b91505060608301516060850152608083015184820360808601526153ce8282614f77565b91505060a083015160a085015260c083015184820360c08601526153f28282614f77565b95945050505050565b602081526000610cec6020830184615372565b60006020828403121561542057600080fd5b5035919050565b6000806040838503121561543a57600080fd5b50508035926020909101359150565b60008060006060848603121561545e57600080fd5b833592506020840135915060408401356001600160401b0381111561548257600080fd5b61548e8682870161520f565b9150509250925092565b8051825260006020808301516080828601526154b76080860182614f77565b9050604084015185820360408701528181518084528484019150848160051b850101858401935060005b8281101561550f57601f198683030184526154fd82865161503e565b948701949387019391506001016154e1565b50606088015160608a015280965050505050505092915050565b602081526000610cec6020830184615498565b86815260c06020820152600061555560c0830188614f77565b905085604083015284606083015283608083015282151560a0830152979650505050505050565b602081526000610cec6020830184614fa3565b60008060008060008060c087890312156155a857600080fd5b863595506020870135945060408701356001600160401b03808211156155cd57600080fd5b6155d98a838b0161520f565b955060608901359150808211156155ef57600080fd5b6155fb8a838b0161520f565b94506080890135935060a089013591508082111561561857600080fd5b5061562589828a0161520f565b9150509295509295509295565b6000806000806080858703121561564857600080fd5b84356001600160401b0381111561565e57600080fd5b61566a8782880161520f565b97602087013597506040870135966060013595509350505050565b60006001600160401b0382111561569e5761569e61515b565b5060051b60200190565b803580151581146156b857600080fd5b919050565b600061012082840312156156d057600080fd5b6156d8615171565b90508135815260208201356001600160401b03808211156156f857600080fd5b6157048583860161520f565b6020840152604084013591508082111561571d57600080fd5b6157298583860161520f565b6040840152606084013560608401526080840135608084015260a084013560a084015260c084013560c084015261576260e085016156a8565b60e08401526101009150818401358181111561577d57600080fd5b6157898682870161520f565b8385015250505092915050565b600082601f8301126157a757600080fd5b813560206157bc6157b783615685565b6151df565b82815260059290921b840181019181810190868411156157db57600080fd5b8286015b8481101561581a5780356001600160401b038111156157fe5760008081fd5b61580c8986838b01016156bd565b8452509183019183016157df565b509695505050505050565b6000610100828403121561583857600080fd5b61584061519a565b90508135815260208201356001600160401b038082111561586057600080fd5b61586c8583860161520f565b602084015260408401356040840152606084013591508082111561588f57600080fd5b5061589c84828501615796565b6060830152506080820135608082015260a082013560a082015260c082013560c082015260e082013560e082015292915050565b6000602082840312156158e257600080fd5b81356001600160401b038111156158f857600080fd5b6152b284828501615825565b6000806000806080858703121561591a57600080fd5b8435935060208501356001600160401b0381111561593757600080fd5b6159438782880161520f565b949794965050505060408301359260600135919050565b6000602080830181845280855180835260408601915060408160051b870101925083870160005b8281101561514e57603f1988860301845261599d858351615498565b94509285019290850190600101615981565b602081526000610cec602083018461503e565b600060208083850312156159d557600080fd5b82356001600160401b03808211156159ec57600080fd5b9084019060808287031215615a0057600080fd5b615a086151bd565b823581528383013582811115615a1d57600080fd5b615a298882860161520f565b8583015250604083013582811115615a4057600080fd5b8301601f81018813615a5157600080fd5b8035615a5f6157b782615685565b81815260059190911b8201860190868101908a831115615a7e57600080fd5b8784015b83811015615ab657803587811115615a9a5760008081fd5b615aa88d8b83890101615825565b845250918801918801615a82565b5060408501525050506060928301359281019290925250949350505050565b600060208284031215615ae757600080fd5b81356001600160401b03811115615afd57600080fd5b6152b2848285016156bd565b60006020808301818452808551808352604092508286019150828160051b87010184880160005b83811015615b9c57603f19898403018552815160c08151855288820151818a870152615b5e82870182614f77565b838a0151878b0152606080850151908801526080808501519088015260a0938401511515939096019290925250509386019390860190600101615b30565b509098975050505050505050565b87815260e060208201526000615bc360e0830189614f77565b8281036040840152615bd58189614f77565b90508660608401528281036080840152615bef8187614f77565b90508460a084015282810360c0840152615c098185614f77565b9a9950505050505050505050565b6000602080830181845280855180835260408601915060408160051b870101925083870160005b8281101561514e57603f19888603018452615c5a858351615372565b94509285019290850190600101615c3e565b600080600080600060a08688031215615c8457600080fd5b85356001600160401b0380821115615c9b57600080fd5b615ca789838a0161520f565b96506020880135915080821115615cbd57600080fd5b615cc989838a0161520f565b95506040880135915080821115615cdf57600080fd5b615ceb89838a0161520f565b94506060880135915080821115615d0157600080fd5b615d0d89838a0161520f565b93506080880135915080821115615d2357600080fd5b50615d308882890161520f565b9150509295509295909350565b634e487b7160e01b600052601160045260246000fd5b60008219821115615d6657615d66615d3d565b500190565b634e487b7160e01b600052603260045260246000fd5b600181811c90821680615d9557607f821691505b60208210810361348857634e487b7160e01b600052602260045260246000fd5b600060018201615dc757615dc7615d3d565b5060010190565b600080835481600182811c915080831680615dea57607f831692505b60208084108203615e0957634e487b7160e01b86526022600452602486fd5b818015615e1d5760018114615e2e57615e5b565b60ff19861689528489019650615e5b565b60008a81526020902060005b86811015615e535781548b820152908501908301615e3a565b505084890196505b509498975050505050505050565b602081526000610cec6020830184614f77565b60208082526024908201527f596f757220656d61696c206f722070617373776f726420697320696e636f72726040820152636563742160e01b606082015260800190565b600082821015615ed257615ed2615d3d565b500390565b60008251615ee9818460208701614f4b565b9190910192915050565b60208082526017908201527f43617465676f727920686173206e6f742065786973747300000000000000000060408201526060019056fea2646970667358221220dd311df904137f4c1c5dd1b5b3d4b5204aaeb60a4470b2bd593da11a10d7873d64736f6c634300080d0033",
  "immutableReferences": {},
  "source": "// SPDX-License-Identifier: MIT\r\npragma solidity >=0.4.22 <0.9.0;\r\n\r\ncontract VotingSystem {\r\n    address public owner;\r\n    struct Voter {\r\n        uint256 id;\r\n        string key;\r\n        string email;\r\n        bytes32 password;\r\n        string role;\r\n        uint256 status; // 0: no verify, 1: verified, 2:banned\r\n        string token;\r\n    }\r\n\r\n    struct Event {\r\n        uint256 eventId;\r\n        string eventName;\r\n        uint256 categoryId;\r\n        Candidate[] candidates;\r\n        uint256 candidateCount;\r\n        uint256 startDateTime;\r\n        uint256 endDateTime;\r\n        uint256 status; // 1: Upcoming, 2: In Progress, 3: Completed, 4 Cancel\r\n    }\r\n\r\n    struct Category {\r\n        uint256 categoryId;\r\n        string categoryName;\r\n        Event[] events; //category has many event\r\n        uint256 status;\r\n    }\r\n\r\n    struct Candidate {\r\n        uint256 id;\r\n        string name;\r\n        string description;\r\n        uint256 studentId;\r\n        uint256 categoryId;\r\n        uint256 eventId;\r\n        uint256 voteCount;\r\n        bool win;\r\n        string imageFileName;\r\n    }\r\n\r\n    struct voteEventStruct {\r\n        uint256 id;\r\n        string voterKey;\r\n        uint256 categoryId;\r\n        uint256 eventId;\r\n        uint256 votedCandidateId;\r\n        bool voted;\r\n    }\r\n\r\n    event CategoryAdded(uint256 indexed categoryId, string categoryName);\r\n\r\n    event VoterAdded(uint256 indexed voterId, string voter_key);\r\n    event EventAdded(uint256 indexed eventId, string eventName);\r\n\r\n    event CandidateAdded(uint256 indexed eventId, string eventName);\r\n\r\n    event VoteEvent(\r\n        string indexed _voterKey,\r\n        string indexed categoryEvent,\r\n        uint256 indexed candidate\r\n    );\r\n\r\n    mapping(uint256 => Category) categories;\r\n    mapping(uint256 => Event) events;\r\n    mapping(uint256 => Candidate) candidates;\r\n    mapping(uint256 => voteEventStruct) public voteEvents;\r\n    mapping(uint256 => Voter) public voters;\r\n    mapping(string => bool) private usedImageFileNames;\r\n\r\n    uint256 categoryCount;\r\n    uint256 candidateCount;\r\n    uint256 eventCount;\r\n    uint256 voteEventCount;\r\n    uint256 voterCount;\r\n\r\n    constructor() {\r\n        owner = msg.sender;\r\n    }\r\n\r\n    function addVoter(\r\n        string memory _key,\r\n        string memory _email,\r\n        string memory _password,\r\n        string memory _role,\r\n        string memory _token\r\n    ) public {\r\n        for (uint256 i = 1; i <= voterCount; i++) {\r\n            require(\r\n                keccak256(bytes(_key)) != keccak256(bytes(voters[i].key)),\r\n                \"Voter already exists\"\r\n            );\r\n        }\r\n\r\n        // total category plus 1, use it as the category's id\r\n        voterCount += 1;\r\n\r\n        bytes32 hashedPassword = keccak256(abi.encodePacked(_password));\r\n\r\n        // add the category details in the category list\r\n        Voter storage voter = voters[voterCount];\r\n        voter.id = voterCount;\r\n        voter.key = _key;\r\n        voter.email = _email;\r\n        voter.password = hashedPassword;\r\n        voter.role = _role;\r\n        voter.status = 0;\r\n        voter.token = _token;\r\n\r\n        // emit the category added event\r\n        emit VoterAdded(voterCount, _key);\r\n    }\r\n\r\n    function loginVoter(string memory _email, string memory _password)\r\n        public\r\n        view\r\n        returns (Voter memory)\r\n    {\r\n        Voter memory voterFound = getVoterByEmailPassword(_email, _password);\r\n        require(voterFound.id != 0, \"Your email or password is incorrect!\");\r\n        require(\r\n            voterFound.status == 1,\r\n            \"Your account was banned or not verify!\"\r\n        );\r\n        return voterFound;\r\n    }\r\n\r\n    function compareHashesPassword(bytes32 inputPassword, bytes32 password)\r\n        internal\r\n        pure\r\n        returns (bool)\r\n    {\r\n        for (uint256 i = 0; i < 32; i++) {\r\n            if (inputPassword[i] != password[i]) {\r\n                return false;\r\n            }\r\n        }\r\n        return true;\r\n    }\r\n\r\n    function getVoterByEmailPassword(\r\n        string memory _email,\r\n        string memory _password\r\n    ) public view returns (Voter memory) {\r\n        bytes32 hashedPassword = keccak256(abi.encodePacked(_password));\r\n        for (uint256 i = 1; i <= voterCount; i++) {\r\n            if (\r\n                keccak256(bytes(_email)) == keccak256(bytes(voters[i].email)) &&\r\n                compareHashesPassword(hashedPassword, voters[i].password)\r\n            ) {\r\n                return voters[i];\r\n            }\r\n        }\r\n\r\n        // Event not found in the specified category\r\n        return Voter(0, \"\", \"\", \"\", \"\", 0, \"\");\r\n    }\r\n\r\n    function getAllVoter() public view returns (Voter[] memory) {\r\n       \r\n        Voter[] memory voterFound = new Voter[](voterCount);\r\n        // Iterate through all stored structs\r\n        for (uint256 i = 1; i <= voterCount; i++) {\r\n            voterFound[i - 1] = voters[i];\r\n        }\r\n        return voterFound;\r\n    }\r\n\r\n    // function getVoterEmailById(uint256 _voterId)\r\n    //     public\r\n    //     view\r\n    //     returns (string memory)\r\n    // {\r\n    //     require(_voterId > 0 && _voterId <= voterCount, \"Invalid voter ID\");\r\n    //     return voters[_voterId].email;\r\n    // }\r\n\r\n    function updateVoterPassword(string memory _key, string memory _password)\r\n        public\r\n    {\r\n        // require(isVoterExist(_key), \"User does not exists\");\r\n\r\n        bytes32 hashedPassword = keccak256(abi.encodePacked(_password));\r\n        for (uint256 i = 1; i <= voterCount; i++) {\r\n            if (keccak256(bytes(_key)) == keccak256(bytes(voters[i].key))) {\r\n                voters[i].password = hashedPassword;\r\n            }\r\n        }\r\n    }\r\n\r\n    function verifyVoterAccount(string memory _token) public returns (bool) {\r\n        require(voters[1].id != 0, \"No voter in the list!\");\r\n        for (uint256 i = 1; i <= voterCount; i++) {\r\n            if (keccak256(bytes(_token)) == keccak256(bytes(voters[i].token))) {\r\n                voters[i].status = 1;\r\n                return true;\r\n            }\r\n        }\r\n        return false;\r\n    }\r\n\r\n    // has to change\r\n\r\n    function getVoterStatus(string memory _email, string memory _password)\r\n        public\r\n        view\r\n        returns (uint256 status)\r\n    {\r\n        Voter memory voterFound = getVoterByEmailPassword(_email, _password);\r\n        require(voterFound.id != 0, \"Your email or password is incorrect!\");\r\n        return voterFound.status;\r\n    }\r\n\r\n    function checkVoterEmailPassword(\r\n        string memory _email,\r\n        string memory _password\r\n    ) public view returns (bool foundVoter) {\r\n        Voter memory voterFound = getVoterByEmailPassword(_email, _password);\r\n\r\n        if (voterFound.id != 0) {\r\n            return true;\r\n        }\r\n        return false;\r\n    }\r\n\r\n    // function isVoterExist(string memory _key) public view returns (bool) {\r\n    //     for (uint256 i = 1; i <= voterCount; i++) {\r\n    //         if (keccak256(bytes(_key)) == keccak256(bytes(voters[i].key))) {\r\n    //             return true;\r\n    //         }\r\n    //     }\r\n    //     return false;\r\n    // }\r\n\r\n    function addCategory(string memory _categoryName) public {\r\n        // check if the category is exist\r\n        for (uint256 i = 1; i <= categoryCount; i++) {\r\n            require(\r\n                keccak256(bytes(_categoryName)) !=\r\n                    keccak256(bytes(categories[i].categoryName)),\r\n                \"Category already exists\"\r\n            );\r\n        }\r\n\r\n        // total category plus 1, use it as the category's id\r\n        categoryCount += 1;\r\n\r\n        // add the category details in the category list\r\n        Category storage category = categories[categoryCount];\r\n        category.categoryName = _categoryName;\r\n        category.categoryId = categoryCount;\r\n        category.status = 1;\r\n\r\n        // emit the category added event\r\n        emit CategoryAdded(categoryCount, _categoryName);\r\n    }\r\n\r\n    function updateCategory(Category memory _category) public {\r\n        // check if the category is exist\r\n        require(\r\n            categories[_category.categoryId].categoryId != 0,\r\n            \"Category has not exists\"\r\n        );\r\n\r\n        // add the category details in the category list\r\n        Category storage category = categories[_category.categoryId];\r\n        category.categoryName = _category.categoryName;\r\n        category.status = _category.status;\r\n    }\r\n\r\n    // function updateCategoryName(\r\n    //     uint256 _categoryId,\r\n    //     string memory _newCategoryName\r\n    // ) public {\r\n    //     // Check if the category exists\r\n    //     require(\r\n    //         categories[_categoryId].categoryId != 0,\r\n    //         \"Category does not exist\"\r\n    //     );\r\n\r\n    //     // Check if the new category name is different from the existing name in the list\r\n    //     // and not the same as the current category name being updated\r\n    //     for (uint256 i = 1; i <= categoryCount; i++) {\r\n    //         if (i != _categoryId) {\r\n    //             require(\r\n    //                 keccak256(bytes(_newCategoryName)) !=\r\n    //                     keccak256(bytes(categories[i].categoryName)),\r\n    //                 \"Category name already exists\"\r\n    //             );\r\n    //         }\r\n    //     }\r\n\r\n    //     // Update the category name\r\n    //     categories[_categoryId].categoryName = _newCategoryName;\r\n    // }\r\n\r\n    // function deleteCategory(uint256 _categoryId) public {\r\n    //     require(\r\n    //         categories[_categoryId].categoryId != 0,\r\n    //         \"Category does not exist\"\r\n    //     );\r\n\r\n    //     // Check if there are any events associated with the category\r\n    //     require(\r\n    //         categories[_categoryId].events.length == 0,\r\n    //         \"Cannot delete category with events\"\r\n    //     );\r\n\r\n    //     // Check if there are any candidates associated with the category\r\n    //     for (uint256 i = 1; i <= eventCount; i++) {\r\n    //         Event storage currentEvent = events[i];\r\n    //         if (\r\n    //             currentEvent.categoryId == _categoryId &&\r\n    //             currentEvent.candidates.length > 0\r\n    //         ) {\r\n    //             revert(\"Cannot delete category with candidates\");\r\n    //         }\r\n    //     }\r\n\r\n    //     // Check if there are any vote events associated with the category\r\n    //     for (uint256 i = 1; i <= voteEventCount; i++) {\r\n    //         if (voteEvents[i].categoryId == _categoryId) {\r\n    //             revert(\"Cannot delete category with vote events\");\r\n    //         }\r\n    //     }\r\n\r\n    //     // If no associated events, candidates, or vote events, delete the category\r\n    //     delete categories[_categoryId];\r\n    // }\r\n\r\n    function getAllVotedHistory(string memory _userKey)\r\n        public\r\n        view\r\n        returns (voteEventStruct[] memory)\r\n    {\r\n        // Check if there are any candidates associated with the category\r\n        voteEventStruct[] memory voteEventFound = new voteEventStruct[](\r\n            voteEventCount\r\n        );\r\n        uint256 count = 0;\r\n        for (uint256 i = 1; i <= voteEventCount; i++) {\r\n            if (\r\n                keccak256(bytes(voteEvents[i].voterKey)) ==\r\n                keccak256(bytes(_userKey))\r\n            ) {\r\n                // Store the matching vote event in the array\r\n                voteEventFound[count] = voteEvents[i];\r\n                count += 1;\r\n            }\r\n        }\r\n\r\n        // Resize the array to remove any unused slots\r\n        assembly {\r\n            mstore(voteEventFound, count)\r\n        }\r\n\r\n        // Return the dynamic array of matching vote events\r\n        return voteEventFound;\r\n    }\r\n\r\n    function addEvent(\r\n        uint256 _categoryId,\r\n        string memory _eventName,\r\n        uint256 _startDateTime,\r\n        uint256 _endDateTime\r\n    ) public {\r\n        // check if the category has exists\r\n        require(\r\n            categories[_categoryId].categoryId != 0,\r\n            \"Category has not exists\"\r\n        );\r\n\r\n        // require(\r\n        //     isEventExists(_categoryId, _eventName) == false,\r\n        //     \"Event already exists\"\r\n        // );\r\n\r\n        // find out the category in list by using the paramerter category name\r\n        Category storage category = categories[_categoryId];\r\n\r\n        // add the event in the category list\r\n        uint256 eventId = eventCount += 1;\r\n\r\n        Event storage newEvent = category.events.push();\r\n        newEvent.eventId = eventId;\r\n        newEvent.eventName = _eventName;\r\n        newEvent.categoryId = _categoryId;\r\n        newEvent.status = 1;\r\n        newEvent.startDateTime = _startDateTime;\r\n        newEvent.endDateTime = _endDateTime;\r\n    }\r\n\r\n    // function isEventExists(uint256 _categoryId, string memory _eventName)\r\n    //     public\r\n    //     view\r\n    //     returns (bool)\r\n    // {\r\n    //     // Check if the category exists\r\n    //     require(\r\n    //         categories[_categoryId].categoryId != 0,\r\n    //         \"Category does not exist\"\r\n    //     );\r\n\r\n    //     // Loop through the events in the specified category\r\n    //     for (uint256 i = 0; i < categories[_categoryId].events.length; i++) {\r\n    //         if (\r\n    //             keccak256(bytes(categories[_categoryId].events[i].eventName)) ==\r\n    //             keccak256(bytes(_eventName))\r\n    //         ) {\r\n    //             // Event found\r\n    //             return true;\r\n    //         }\r\n    //     }\r\n    //     // Event not found in the specified category\r\n    //     return false;\r\n    // }\r\n\r\n    // function isEventStart(\r\n    //     uint256 _categoryId,\r\n    //     string memory _eventName,\r\n    //     uint256 _startDateTime\r\n    // ) public view returns (bool) {\r\n    //     // Check if the category exists\r\n    //     require(\r\n    //         categories[_categoryId].categoryId != 0,\r\n    //         \"Category does not exist\"\r\n    //     );\r\n\r\n    //     require(\r\n    //         isEventExists(_categoryId, _eventName) == true,\r\n    //         \"Event does not exist\"\r\n    //     );\r\n\r\n    //     // Loop through the events in the specified category\r\n    //     for (uint256 i = 0; i < categories[_categoryId].events.length; i++) {\r\n    //         if (\r\n    //             (keccak256(\r\n    //                 bytes(categories[_categoryId].events[i].eventName)\r\n    //             ) ==\r\n    //                 keccak256(bytes(_eventName)) &&\r\n    //                 (_startDateTime >=\r\n    //                     categories[_categoryId].events[i].startDateTime))\r\n    //         ) {\r\n    //             return true;\r\n    //         }\r\n    //     }\r\n\r\n    //     // Event not found in the specified category\r\n    //     return false;\r\n    // }\r\n\r\n    function updateEvent(Event memory _event) public {\r\n        // check if the category is exist\r\n        require(\r\n            categories[_event.categoryId].categoryId != 0,\r\n            \"Category does not exists\"\r\n        );\r\n        // require(\r\n        //     isEventExists(_event.categoryId, _event.eventId),\r\n        //     \"Event does not exist!\"\r\n        // );\r\n        // add the category details in the category list\r\n        for (\r\n            uint256 i = 0;\r\n            i < categories[_event.categoryId].events.length;\r\n            i++\r\n        ) {\r\n            if (\r\n                categories[_event.categoryId].events[i].eventId ==\r\n                _event.eventId\r\n            ) {\r\n                Event storage eventToUpdate = categories[_event.categoryId]\r\n                    .events[i];\r\n                eventToUpdate.eventName = _event.eventName;\r\n                eventToUpdate.status = _event.status;\r\n                eventToUpdate.startDateTime = _event.startDateTime;\r\n                eventToUpdate.endDateTime = _event.endDateTime;\r\n            }\r\n        }\r\n    }\r\n\r\n    function addCandidateToEvent(\r\n        uint256 _categoryId,\r\n        uint256 _eventId,\r\n        string memory _candidateName,\r\n        string memory _description,\r\n        uint256 _studentId,\r\n        string memory _imageFileName\r\n    ) public {\r\n        require(\r\n            categories[_categoryId].categoryId != 0,\r\n            \"Category does not exist\"\r\n        );\r\n        // require(isEventExists(_categoryId, _eventId), \"Event does not exist\");\r\n        // require(\r\n        //     !isCandidateExistsInEvent(_categoryId, _eventId, _studentId),\r\n        //     \"Candidate already exists\"\r\n        // );\r\n        // Check if the image file name is already used\r\n        require(\r\n            !usedImageFileNames[_imageFileName],\r\n            \"Image file name already in use\"\r\n        );\r\n\r\n        candidateCount += 1;\r\n\r\n        // Create a new candidate\r\n        Candidate memory newCandidate = Candidate({\r\n            id: candidateCount,\r\n            name: _candidateName,\r\n            studentId: _studentId,\r\n            categoryId: _categoryId,\r\n            eventId: _eventId,\r\n            description: _description,\r\n            win: false,\r\n            voteCount: 0,\r\n            imageFileName: _imageFileName\r\n        });\r\n\r\n        // find the certain category\r\n        Category storage category = categories[_categoryId];\r\n        // find the certain event in certain category\r\n        for (uint256 i = 0; i < category.events.length; i++) {\r\n            if (category.events[i].eventId == _eventId) {\r\n                category.events[i].candidates.push(newCandidate);\r\n                category.events[i].candidateCount += 1;\r\n            }\r\n        }\r\n\r\n        // Mark the image file name as used\r\n        usedImageFileNames[_imageFileName] = true;\r\n    }\r\n\r\n    function updateCandidate(Candidate memory _candidate) public {\r\n        require(\r\n            categories[_candidate.categoryId].categoryId != 0,\r\n            \"Category has not exists\"\r\n        );\r\n\r\n        // require(\r\n        //     isEventExists(_candidate.categoryId, _candidate.eventId) == true,\r\n        //     \"Event has not exists\"\r\n        // );\r\n\r\n        // require(\r\n        //     isCandidateExistsInEvent(\r\n        //         _candidate.categoryId,\r\n        //         _candidate.eventId,\r\n        //         _candidate.studentId\r\n        //     ) == true,\r\n        //     \"Candidate does not existed\"\r\n        // );\r\n        Event[] storage eventsFound = categories[_candidate.categoryId].events;\r\n\r\n        // find the event with param\r\n        for (uint256 i = 0; i < eventsFound.length; i++) {\r\n            if (eventsFound[i].eventId == _candidate.eventId) {\r\n                // get the candidate inside the event\r\n                Candidate[] storage candidatesFound = eventsFound[i].candidates;\r\n                // find the candidate\r\n                for (uint256 j = 0; j < candidatesFound.length; j++) {\r\n                    if (candidatesFound[j].id == _candidate.id) {\r\n                        // found the candidate and plus 1 at the voteCount\r\n                        candidatesFound[j].name = _candidate.name;\r\n                        candidatesFound[j].studentId = _candidate.studentId;\r\n                        candidatesFound[j].description = _candidate.description;\r\n                        break;\r\n                    }\r\n                }\r\n            }\r\n        }\r\n    }\r\n\r\n    function isImageFileNameUsed(string memory _imageFileName)\r\n        public\r\n        view\r\n        returns (bool)\r\n    {\r\n        return usedImageFileNames[_imageFileName];\r\n    }\r\n\r\n    // function isCandidateExistsInEvent(\r\n    //     uint256 _categoryId,\r\n    //     uint256 _eventId,\r\n    //     uint256 _studentId\r\n    // ) public view returns (bool) {\r\n    //     // Check if the category exists\r\n    //     require(\r\n    //         categories[_categoryId].categoryId != 0,\r\n    //         \"Category does not exist\"\r\n    //     );\r\n\r\n    //     Candidate[] memory candidatesFound = getAllCandidatesInEvent(\r\n    //         _categoryId,\r\n    //         _eventId\r\n    //     );\r\n\r\n    //     // Loop through the events in the specified category\r\n\r\n    //     for (uint256 i = 0; i < candidatesFound.length; i++) {\r\n    //         if (candidatesFound[i].studentId == _studentId) {\r\n    //             return true;\r\n    //         }\r\n    //     }\r\n\r\n    //     // Event not found in the specified category\r\n    //     return false;\r\n    // }\r\n\r\n    // function isCandidateExistsInEventById(\r\n    //     uint256 _categoryId,\r\n    //     uint256 _eventId,\r\n    //     uint256 _candidateId\r\n    // ) public view returns (bool) {\r\n    //     // Check if the category exists\r\n    //     require(\r\n    //         categories[_categoryId].categoryId != 0,\r\n    //         \"Category does not exist\"\r\n    //     );\r\n\r\n    //     Candidate[] memory candidatesFound = getAllCandidatesInEvent(\r\n    //         _categoryId,\r\n    //         _eventId\r\n    //     );\r\n\r\n    //     // Loop through the events in the specified category\r\n\r\n    //     for (uint256 i = 0; i < candidatesFound.length; i++) {\r\n    //         if (candidatesFound[i].id == _candidateId) {\r\n    //             return true;\r\n    //         }\r\n    //     }\r\n\r\n    //     // Event not found in the specified category\r\n    //     return false;\r\n    // }\r\n\r\n    // function isEventExists(uint256 _categoryId, uint256 _eventId)\r\n    //     public\r\n    //     view\r\n    //     returns (bool)\r\n    // {\r\n    //     // Check if the category exists\r\n    //     require(\r\n    //         categories[_categoryId].categoryId != 0,\r\n    //         \"Category does not exist\"\r\n    //     );\r\n\r\n    //     // Loop through the events in the specified category\r\n    //     for (uint256 i = 0; i < categories[_categoryId].events.length; i++) {\r\n    //         if (categories[_categoryId].events[i].eventId == _eventId) {\r\n    //             // Event found\r\n    //             return true;\r\n    //         }\r\n    //     }\r\n\r\n    //     // Event not found in the specified category\r\n    //     return false;\r\n    // }\r\n\r\n    function getAllCategoryEvent(uint256 _categoryId)\r\n        public\r\n        view\r\n        returns (Event[] memory foundEvent)\r\n    {\r\n        // find the certain category\r\n        Category storage category = categories[_categoryId];\r\n\r\n        // declare an array variable for storing events\r\n        Event[] memory eventsFound = new Event[](category.events.length);\r\n\r\n        // get all the event name by searching the event in list\r\n        for (uint256 i = 0; i < category.events.length; i++) {\r\n            eventsFound[i] = category.events[i];\r\n        }\r\n\r\n        return (eventsFound);\r\n    }\r\n\r\n    function getAllCandidatesInEvent(uint256 _categoryId, uint256 _eventId)\r\n        public\r\n        view\r\n        returns (Candidate[] memory foundCandidates)\r\n    {\r\n        // find the certain category\r\n        Category storage category = categories[_categoryId];\r\n        // find the certain event in certain category\r\n        for (uint256 i = 0; i < category.events.length; i++) {\r\n            if (category.events[i].eventId == _eventId) {\r\n                Candidate[] memory candidatesFound = new Candidate[](\r\n                    category.events[i].candidateCount\r\n                );\r\n\r\n                for (\r\n                    uint256 j = 0;\r\n                    j < category.events[i].candidates.length;\r\n                    j++\r\n                ) {\r\n                    candidatesFound[j] = category.events[i].candidates[j];\r\n                }\r\n                return (candidatesFound);\r\n            }\r\n        }\r\n    }\r\n\r\n    function getAllCandidates() public view returns (Candidate[] memory) {\r\n        Candidate[] memory candidatesFound = new Candidate[](candidateCount);\r\n        Event[] memory eventFound = new Event[](eventCount);\r\n\r\n        // get all the events\r\n        eventFound = getAllEvent();\r\n        uint256 count = 0;\r\n        // find the candidates inside all the event\r\n        for (uint256 i = 0; i < eventCount; i++) {\r\n            for (uint256 j = 0; j < eventFound[i].candidates.length; j++) {\r\n                candidatesFound[count] = eventFound[i].candidates[j];\r\n                count += 1;\r\n            }\r\n        }\r\n\r\n        return candidatesFound;\r\n    }\r\n\r\n    function getAllCategory() public view returns (Category[] memory) {\r\n        //Candidate[] memory candidatesFound = new Candidate[](candidateCount);\r\n        Category[] memory categoriesFound = new Category[](categoryCount);\r\n        // Iterate through all stored structs\r\n        for (uint256 i = 1; i <= categoryCount; i++) {\r\n            categoriesFound[i - 1] = categories[i];\r\n        }\r\n\r\n        return categoriesFound;\r\n    }\r\n\r\n    function getCategoryById(uint256 _categoryId)\r\n        public\r\n        view\r\n        returns (Category memory)\r\n    {\r\n        return categories[_categoryId];\r\n    }\r\n\r\n    function getAllEvent() public view returns (Event[] memory) {\r\n        // Initialize the array with the correct size\r\n        Event[] memory eventFound = new Event[](eventCount);\r\n        uint256 count = 0;\r\n\r\n        // Iterate through all categories and events\r\n        for (uint256 i = 0; i < categoryCount; i++) {\r\n            for (uint256 j = 0; j < categories[i + 1].events.length; j++) {\r\n                eventFound[count] = categories[i + 1].events[j];\r\n                count += 1;\r\n            }\r\n        }\r\n\r\n        return eventFound;\r\n    }\r\n\r\n    function getEventById(uint256 _categoryId, uint256 _eventId)\r\n        public\r\n        view\r\n        returns (Event memory)\r\n    {\r\n        Category memory categoriesFound = categories[_categoryId];\r\n        Event memory eventFound;\r\n        // Iterate through all stored structs\r\n        for (uint256 i = 0; i < categoriesFound.events.length; i++) {\r\n            if (categoriesFound.events[i].eventId == _eventId) {\r\n                eventFound = categoriesFound.events[i];\r\n            }\r\n        }\r\n\r\n        return eventFound;\r\n    }\r\n\r\n    function vote(\r\n        string memory _voterKey,\r\n        uint256 _candidateId,\r\n        uint256 _categoryId,\r\n        uint256 _eventId\r\n    ) external {\r\n        require(\r\n            categories[_categoryId].categoryId != 0,\r\n            \"Category does not exists\"\r\n        );\r\n\r\n        require(eventCount != 0, \"Event does not exists\");\r\n\r\n        // for (uint256 i = 1; i <= categories[_categoryId].events.length; i++) {\r\n        //     require(categories[_categoryId].events[i-0].eventId == _eventId, \"noobbbbb\");\r\n        // }\r\n\r\n        // require(\r\n        //     isCandidateExistsInEventById(_categoryId, _eventId, _candidateId) ==\r\n        //         true,\r\n        //     \"Candidates does not exists\"\r\n        // );\r\n\r\n        // check if has voted\r\n        for (uint256 i = 1; i <= voteEventCount; i++) {\r\n            if (\r\n                keccak256(bytes(_voterKey)) ==\r\n                keccak256(bytes(voteEvents[i].voterKey)) &&\r\n                _categoryId == voteEvents[i].categoryId &&\r\n                _eventId == voteEvents[i].eventId\r\n            ) {\r\n                require(!voteEvents[i].voted, \"You already voted\");\r\n                break;\r\n            }\r\n        }\r\n\r\n        // add count on the candidate\r\n        voteEventCount += 1;\r\n\r\n        // Create a new voteEventStruct\r\n        voteEventStruct memory newVoteEvent = voteEventStruct({\r\n            id: voteEventCount,\r\n            voterKey: _voterKey,\r\n            categoryId: _categoryId,\r\n            eventId: _eventId,\r\n            votedCandidateId: _candidateId,\r\n            voted: true\r\n        });\r\n\r\n        voteEvents[voteEventCount] = newVoteEvent;\r\n\r\n        // add the vote count of the chosen candidate\r\n        addVoteCountIn(_categoryId, _eventId, _candidateId);\r\n\r\n        string memory concatenatedValues = string(\r\n            abi.encodePacked(_categoryId, _eventId)\r\n        );\r\n\r\n        emit VoteEvent(_voterKey, concatenatedValues, _candidateId);\r\n    }\r\n\r\n    function addVoteCountIn(\r\n        uint256 _categoryId,\r\n        uint256 _eventId,\r\n        uint256 _candidateId\r\n    ) internal {\r\n        // get the events inside the categories\r\n        Event[] storage eventsFound = categories[_categoryId].events;\r\n\r\n        // find the event with param\r\n        for (uint256 i = 0; i < eventsFound.length; i++) {\r\n            if (eventsFound[i].eventId == _eventId) {\r\n                // get the candidate inside the event\r\n                Candidate[] storage candidatesFound = eventsFound[i].candidates;\r\n                // find the candidate\r\n                for (uint256 j = 0; j < candidatesFound.length; j++) {\r\n                    if (candidatesFound[j].id == _candidateId) {\r\n                        // found the candidate and plus 1 at the voteCount\r\n                        candidatesFound[j].voteCount += 1;\r\n                        break;\r\n                    }\r\n                }\r\n            }\r\n        }\r\n    }\r\n\r\n    function isVoted(\r\n        uint256 _categoryId,\r\n        uint256 _eventId,\r\n        string memory _voterKey\r\n    ) public view returns (bool) {\r\n        // Check if the category exists\r\n        require(\r\n            categories[_categoryId].categoryId != 0,\r\n            \"Category does not exist\"\r\n        );\r\n\r\n        for (uint256 i = 1; i <= voteEventCount; i++) {\r\n            if (\r\n                voteEvents[i].categoryId == _categoryId &&\r\n                voteEvents[i].eventId == _eventId &&\r\n                keccak256(bytes(voteEvents[i].voterKey)) ==\r\n                keccak256(bytes(_voterKey))\r\n            ) {\r\n                return voteEvents[i].voted;\r\n            }\r\n        }\r\n\r\n        return false;\r\n    }\r\n\r\n    function getVoteEventCandidate(uint256 _categoryId, uint256 _eventId)\r\n        public\r\n        view\r\n        returns (Candidate[] memory)\r\n    {\r\n        Event[] memory eventsFound = categories[_categoryId].events;\r\n\r\n        for (uint256 i = 0; i < eventsFound.length; i++) {\r\n            if (eventsFound[i].eventId == _eventId) {\r\n                return eventsFound[i].candidates;\r\n            }\r\n        }\r\n\r\n        // If the event is not found, return an empty array or handle the situation accordingly\r\n        return new Candidate[](0);\r\n    }\r\n\r\n    function markWinner(uint256 _categoryId, uint256 _eventId) public {\r\n        categories[_categoryId].events;\r\n\r\n        for (uint256 i = 0; i < categories[_categoryId].events.length; i++) {\r\n            if (categories[_categoryId].events[i].eventId == _eventId) {\r\n                Candidate storage winner = categories[_categoryId]\r\n                    .events[i]\r\n                    .candidates[0];\r\n                for (\r\n                    uint256 j = 0;\r\n                    j < categories[_categoryId].events[i].candidates.length - 1;\r\n                    j++\r\n                ) {\r\n                    if (\r\n                        winner.voteCount <\r\n                        categories[_categoryId]\r\n                            .events[i]\r\n                            .candidates[j + 1]\r\n                            .voteCount\r\n                    ) {\r\n                        winner = categories[_categoryId].events[i].candidates[\r\n                            j + 1\r\n                        ];\r\n                    }\r\n                }\r\n                winner.win = true;\r\n            }\r\n        }\r\n    }\r\n\r\n    function isMarkWinner(uint256 _categoryId, uint256 _eventId)\r\n        public\r\n        view\r\n        returns (bool isMarket)\r\n    {\r\n        Event[] memory eventsFound = categories[_categoryId].events;\r\n        Candidate[] memory candidatesFound;\r\n\r\n        for (uint256 i = 0; i < eventsFound.length; i++) {\r\n            if (eventsFound[i].eventId == _eventId) {\r\n                candidatesFound = eventsFound[i].candidates;\r\n            }\r\n        }\r\n\r\n        for (uint256 i = 0; i < candidatesFound.length - 1; i++) {\r\n            if (candidatesFound[i].win == true) {\r\n                return true;\r\n            }\r\n        }\r\n        return false;\r\n    }\r\n\r\n    function whoIsTheWinner(uint256 _categoryId, uint256 _eventId)\r\n        public\r\n        view\r\n        returns (Candidate memory)\r\n    {\r\n        Event[] memory eventsFound = categories[_categoryId].events;\r\n        Candidate[] memory candidatesFound;\r\n\r\n        for (uint256 i = 0; i < eventsFound.length; i++) {\r\n            if (eventsFound[i].eventId == _eventId) {\r\n                candidatesFound = eventsFound[i].candidates;\r\n            }\r\n        }\r\n\r\n        Candidate memory winner = candidatesFound[0];\r\n\r\n        for (uint256 i = 0; i < candidatesFound.length - 1; i++) {\r\n            if (winner.voteCount < candidatesFound[i + 1].voteCount) {\r\n                winner = candidatesFound[i + 1];\r\n            }\r\n        }\r\n\r\n        winner.win = true;\r\n\r\n        return winner;\r\n    }\r\n}\r\n",
  "sourcePath": "C:\\xampp\\htdocs\\Online-Voting-System-Blockchain\\contracts\\VotingSystem.sol",
  "compiler": {
    "name": "solc",
    "version": "0.8.13+commit.abaa5c0e.Emscripten.clang"
  },
  "schemaVersion": "3.4.16",
  "updatedAt": "2023-12-19T12:06:27.925Z",
  "networkType": "ethereum",
  "devdoc": {
    "kind": "dev",
    "methods": {},
    "version": 1
  },
  "userdoc": {
    "kind": "user",
    "methods": {},
    "version": 1
  }
}